{
  "contractName": "FixedSwap",
  "abi": [
    {
      "constant": true,
      "inputs": [],
      "name": "FEE_PERCENTAGE",
      "outputs": [
        {
          "name": "",
          "type": "uint256"
        }
      ],
      "payable": false,
      "stateMutability": "view",
      "type": "function"
    },
    {
      "constant": true,
      "inputs": [],
      "name": "startDate",
      "outputs": [
        {
          "name": "",
          "type": "uint256"
        }
      ],
      "payable": false,
      "stateMutability": "view",
      "type": "function"
    },
    {
      "constant": true,
      "inputs": [],
      "name": "tokensForSale",
      "outputs": [
        {
          "name": "",
          "type": "uint256"
        }
      ],
      "payable": false,
      "stateMutability": "view",
      "type": "function"
    },
    {
      "constant": true,
      "inputs": [],
      "name": "isSaleFunded",
      "outputs": [
        {
          "name": "",
          "type": "bool"
        }
      ],
      "payable": false,
      "stateMutability": "view",
      "type": "function"
    },
    {
      "constant": true,
      "inputs": [],
      "name": "isTokenSwapAtomic",
      "outputs": [
        {
          "name": "",
          "type": "bool"
        }
      ],
      "payable": false,
      "stateMutability": "view",
      "type": "function"
    },
    {
      "constant": true,
      "inputs": [],
      "name": "individualMinimumAmount",
      "outputs": [
        {
          "name": "",
          "type": "uint256"
        }
      ],
      "payable": false,
      "stateMutability": "view",
      "type": "function"
    },
    {
      "constant": true,
      "inputs": [],
      "name": "decimals",
      "outputs": [
        {
          "name": "",
          "type": "uint256"
        }
      ],
      "payable": false,
      "stateMutability": "view",
      "type": "function"
    },
    {
      "constant": false,
      "inputs": [],
      "name": "unpause",
      "outputs": [],
      "payable": false,
      "stateMutability": "nonpayable",
      "type": "function"
    },
    {
      "constant": false,
      "inputs": [],
      "name": "claimOwnership",
      "outputs": [],
      "payable": false,
      "stateMutability": "nonpayable",
      "type": "function"
    },
    {
      "constant": true,
      "inputs": [
        {
          "name": "",
          "type": "address"
        },
        {
          "name": "",
          "type": "uint256"
        }
      ],
      "name": "myPurchases",
      "outputs": [
        {
          "name": "",
          "type": "uint256"
        }
      ],
      "payable": false,
      "stateMutability": "view",
      "type": "function"
    },
    {
      "constant": true,
      "inputs": [],
      "name": "paused",
      "outputs": [
        {
          "name": "",
          "type": "bool"
        }
      ],
      "payable": false,
      "stateMutability": "view",
      "type": "function"
    },
    {
      "constant": true,
      "inputs": [],
      "name": "tradeValue",
      "outputs": [
        {
          "name": "",
          "type": "uint256"
        }
      ],
      "payable": false,
      "stateMutability": "view",
      "type": "function"
    },
    {
      "constant": true,
      "inputs": [],
      "name": "tokensAllocated",
      "outputs": [
        {
          "name": "",
          "type": "uint256"
        }
      ],
      "payable": false,
      "stateMutability": "view",
      "type": "function"
    },
    {
      "constant": true,
      "inputs": [],
      "name": "erc20",
      "outputs": [
        {
          "name": "",
          "type": "address"
        }
      ],
      "payable": false,
      "stateMutability": "view",
      "type": "function"
    },
    {
      "constant": true,
      "inputs": [
        {
          "name": "",
          "type": "uint256"
        }
      ],
      "name": "purchases",
      "outputs": [
        {
          "name": "amount",
          "type": "uint256"
        },
        {
          "name": "purchaser",
          "type": "address"
        },
        {
          "name": "ethAmount",
          "type": "uint256"
        },
        {
          "name": "timestamp",
          "type": "uint256"
        },
        {
          "name": "wasFinalized",
          "type": "bool"
        },
        {
          "name": "reverted",
          "type": "bool"
        }
      ],
      "payable": false,
      "stateMutability": "view",
      "type": "function"
    },
    {
      "constant": false,
      "inputs": [],
      "name": "pause",
      "outputs": [],
      "payable": false,
      "stateMutability": "nonpayable",
      "type": "function"
    },
    {
      "constant": true,
      "inputs": [],
      "name": "owner",
      "outputs": [
        {
          "name": "",
          "type": "address"
        }
      ],
      "payable": false,
      "stateMutability": "view",
      "type": "function"
    },
    {
      "constant": true,
      "inputs": [],
      "name": "minimumRaise",
      "outputs": [
        {
          "name": "",
          "type": "uint256"
        }
      ],
      "payable": false,
      "stateMutability": "view",
      "type": "function"
    },
    {
      "constant": true,
      "inputs": [],
      "name": "endDate",
      "outputs": [
        {
          "name": "",
          "type": "uint256"
        }
      ],
      "payable": false,
      "stateMutability": "view",
      "type": "function"
    },
    {
      "constant": true,
      "inputs": [],
      "name": "proposedOwner",
      "outputs": [
        {
          "name": "",
          "type": "address"
        }
      ],
      "payable": false,
      "stateMutability": "view",
      "type": "function"
    },
    {
      "constant": true,
      "inputs": [
        {
          "name": "",
          "type": "uint256"
        }
      ],
      "name": "purchaseIds",
      "outputs": [
        {
          "name": "",
          "type": "uint256"
        }
      ],
      "payable": false,
      "stateMutability": "view",
      "type": "function"
    },
    {
      "constant": true,
      "inputs": [],
      "name": "individualMaximumAmount",
      "outputs": [
        {
          "name": "",
          "type": "uint256"
        }
      ],
      "payable": false,
      "stateMutability": "view",
      "type": "function"
    },
    {
      "constant": true,
      "inputs": [],
      "name": "FEE_ADDRESS",
      "outputs": [
        {
          "name": "",
          "type": "address"
        }
      ],
      "payable": false,
      "stateMutability": "view",
      "type": "function"
    },
    {
      "constant": true,
      "inputs": [
        {
          "name": "",
          "type": "uint256"
        }
      ],
      "name": "buyers",
      "outputs": [
        {
          "name": "",
          "type": "address"
        }
      ],
      "payable": false,
      "stateMutability": "view",
      "type": "function"
    },
    {
      "constant": false,
      "inputs": [
        {
          "name": "_proposedOwner",
          "type": "address"
        }
      ],
      "name": "transferOwnership",
      "outputs": [],
      "payable": false,
      "stateMutability": "nonpayable",
      "type": "function"
    },
    {
      "inputs": [
        {
          "name": "_tokenAddress",
          "type": "address"
        },
        {
          "name": "_tradeValue",
          "type": "uint256"
        },
        {
          "name": "_tokensForSale",
          "type": "uint256"
        },
        {
          "name": "_startDate",
          "type": "uint256"
        },
        {
          "name": "_endDate",
          "type": "uint256"
        },
        {
          "name": "_individualMinimumAmount",
          "type": "uint256"
        },
        {
          "name": "_individualMaximumAmount",
          "type": "uint256"
        },
        {
          "name": "_isTokenSwapAtomic",
          "type": "bool"
        },
        {
          "name": "_minimumRaise",
          "type": "uint256"
        },
        {
          "name": "_feeAmount",
          "type": "uint256"
        }
      ],
      "payable": false,
      "stateMutability": "nonpayable",
      "type": "constructor"
    },
    {
      "anonymous": false,
      "inputs": [
        {
          "indexed": false,
          "name": "amount",
          "type": "uint256"
        },
        {
          "indexed": true,
          "name": "purchaser",
          "type": "address"
        },
        {
          "indexed": false,
          "name": "timestamp",
          "type": "uint256"
        }
      ],
      "name": "PurchaseEvent",
      "type": "event"
    },
    {
      "anonymous": false,
      "inputs": [],
      "name": "Pause",
      "type": "event"
    },
    {
      "anonymous": false,
      "inputs": [],
      "name": "Unpause",
      "type": "event"
    },
    {
      "anonymous": false,
      "inputs": [
        {
          "indexed": true,
          "name": "previousOwner",
          "type": "address"
        },
        {
          "indexed": true,
          "name": "newOwner",
          "type": "address"
        }
      ],
      "name": "OwnershipTransferred",
      "type": "event"
    },
    {
      "constant": true,
      "inputs": [
        {
          "name": "purchase_id",
          "type": "uint256"
        }
      ],
      "name": "isBuyer",
      "outputs": [
        {
          "name": "",
          "type": "bool"
        }
      ],
      "payable": false,
      "stateMutability": "view",
      "type": "function"
    },
    {
      "constant": true,
      "inputs": [],
      "name": "totalRaiseCost",
      "outputs": [
        {
          "name": "",
          "type": "uint256"
        }
      ],
      "payable": false,
      "stateMutability": "view",
      "type": "function"
    },
    {
      "constant": true,
      "inputs": [],
      "name": "availableTokens",
      "outputs": [
        {
          "name": "",
          "type": "uint256"
        }
      ],
      "payable": false,
      "stateMutability": "view",
      "type": "function"
    },
    {
      "constant": true,
      "inputs": [],
      "name": "tokensLeft",
      "outputs": [
        {
          "name": "",
          "type": "uint256"
        }
      ],
      "payable": false,
      "stateMutability": "view",
      "type": "function"
    },
    {
      "constant": true,
      "inputs": [],
      "name": "hasMinimumRaise",
      "outputs": [
        {
          "name": "",
          "type": "bool"
        }
      ],
      "payable": false,
      "stateMutability": "view",
      "type": "function"
    },
    {
      "constant": true,
      "inputs": [],
      "name": "hasFinalized",
      "outputs": [
        {
          "name": "",
          "type": "bool"
        }
      ],
      "payable": false,
      "stateMutability": "view",
      "type": "function"
    },
    {
      "constant": true,
      "inputs": [],
      "name": "hasStarted",
      "outputs": [
        {
          "name": "",
          "type": "bool"
        }
      ],
      "payable": false,
      "stateMutability": "view",
      "type": "function"
    },
    {
      "constant": true,
      "inputs": [],
      "name": "isPreStart",
      "outputs": [
        {
          "name": "",
          "type": "bool"
        }
      ],
      "payable": false,
      "stateMutability": "view",
      "type": "function"
    },
    {
      "constant": true,
      "inputs": [],
      "name": "isOpen",
      "outputs": [
        {
          "name": "",
          "type": "bool"
        }
      ],
      "payable": false,
      "stateMutability": "view",
      "type": "function"
    },
    {
      "constant": true,
      "inputs": [],
      "name": "hasMinimumAmount",
      "outputs": [
        {
          "name": "",
          "type": "bool"
        }
      ],
      "payable": false,
      "stateMutability": "view",
      "type": "function"
    },
    {
      "constant": true,
      "inputs": [
        {
          "name": "_amount",
          "type": "uint256"
        }
      ],
      "name": "cost",
      "outputs": [
        {
          "name": "",
          "type": "uint256"
        }
      ],
      "payable": false,
      "stateMutability": "view",
      "type": "function"
    },
    {
      "constant": true,
      "inputs": [
        {
          "name": "_purchase_id",
          "type": "uint256"
        }
      ],
      "name": "getPurchase",
      "outputs": [
        {
          "name": "",
          "type": "uint256"
        },
        {
          "name": "",
          "type": "address"
        },
        {
          "name": "",
          "type": "uint256"
        },
        {
          "name": "",
          "type": "uint256"
        },
        {
          "name": "",
          "type": "bool"
        },
        {
          "name": "",
          "type": "bool"
        }
      ],
      "payable": false,
      "stateMutability": "view",
      "type": "function"
    },
    {
      "constant": true,
      "inputs": [],
      "name": "getPurchaseIds",
      "outputs": [
        {
          "name": "",
          "type": "uint256[]"
        }
      ],
      "payable": false,
      "stateMutability": "view",
      "type": "function"
    },
    {
      "constant": true,
      "inputs": [],
      "name": "getBuyers",
      "outputs": [
        {
          "name": "",
          "type": "address[]"
        }
      ],
      "payable": false,
      "stateMutability": "view",
      "type": "function"
    },
    {
      "constant": true,
      "inputs": [
        {
          "name": "_address",
          "type": "address"
        }
      ],
      "name": "getMyPurchases",
      "outputs": [
        {
          "name": "",
          "type": "uint256[]"
        }
      ],
      "payable": false,
      "stateMutability": "view",
      "type": "function"
    },
    {
      "constant": false,
      "inputs": [
        {
          "name": "_amount",
          "type": "uint256"
        }
      ],
      "name": "fund",
      "outputs": [],
      "payable": false,
      "stateMutability": "nonpayable",
      "type": "function"
    },
    {
      "constant": false,
      "inputs": [
        {
          "name": "_amount",
          "type": "uint256"
        }
      ],
      "name": "swap",
      "outputs": [],
      "payable": true,
      "stateMutability": "payable",
      "type": "function"
    },
    {
      "constant": false,
      "inputs": [
        {
          "name": "purchase_id",
          "type": "uint256"
        }
      ],
      "name": "redeemTokens",
      "outputs": [],
      "payable": false,
      "stateMutability": "nonpayable",
      "type": "function"
    },
    {
      "constant": false,
      "inputs": [
        {
          "name": "purchase_id",
          "type": "uint256"
        }
      ],
      "name": "redeemGivenMinimumGoalNotAchieved",
      "outputs": [],
      "payable": false,
      "stateMutability": "nonpayable",
      "type": "function"
    },
    {
      "constant": false,
      "inputs": [],
      "name": "withdrawFunds",
      "outputs": [],
      "payable": false,
      "stateMutability": "nonpayable",
      "type": "function"
    },
    {
      "constant": false,
      "inputs": [],
      "name": "withdrawUnsoldTokens",
      "outputs": [],
      "payable": false,
      "stateMutability": "nonpayable",
      "type": "function"
    },
    {
      "constant": false,
      "inputs": [
        {
          "name": "_tokenAddress",
          "type": "address"
        },
        {
          "name": "_to",
          "type": "address"
        }
      ],
      "name": "removeOtherERC20Tokens",
      "outputs": [],
      "payable": false,
      "stateMutability": "nonpayable",
      "type": "function"
    }
  ],
  "bytecode": "0x60806040526000600160146101000a81548160ff02191690831515021790555060006002556000600760146101000a81548160ff02191690831515021790555060006008556000600c556000600d556000600e556000600f556000601055730f3cb149952ccf2a7767d493853aa00233a32fbb601160016101000a81548173ffffffffffffffffffffffffffffffffffffffff021916908373ffffffffffffffffffffffffffffffffffffffff1602179055506001601255348015620000c457600080fd5b5060405161014080620045368339810180604052610140811015620000e857600080fd5b8101908080519060200190929190805190602001909291908051906020019092919080519060200190929190805190602001909291908051906020019092919080519060200190929190805190602001909291908051906020019092919080519060200190929190505050336000806101000a81548173ffffffffffffffffffffffffffffffffffffffff021916908373ffffffffffffffffffffffffffffffffffffffff16021790555033600160006101000a81548173ffffffffffffffffffffffffffffffffffffffff021916908373ffffffffffffffffffffffffffffffffffffffff1602179055508542106200022e576040517f08c379a000000000000000000000000000000000000000000000000000000000815260040180806020018281038252602c8152602001806200446d602c913960400191505060405180910390fd5b86421062000288576040517f08c379a000000000000000000000000000000000000000000000000000000000815260040180806020018281038252602c8152602001806200446d602c913960400191505060405180910390fd5b858710620002fe576040517f08c379a000000000000000000000000000000000000000000000000000000000815260040180806020018281038252601f8152602001807f456e64204461746520686967686572207468616e20537461727420446174650081525060200191505060405180910390fd5b6000881162000375576040517f08c379a000000000000000000000000000000000000000000000000000000000815260040180806020018281038252601d8152602001807f546f6b656e7320666f722053616c652073686f756c64206265203e203000000081525060200191505060405180910390fd5b848811620003cf576040517f08c379a0000000000000000000000000000000000000000000000000000000008152600401808060200182810382526035815260200180620045016035913960400191505060405180910390fd5b848410156200042a576040517f08c379a000000000000000000000000000000000000000000000000000000000815260040180806020018281038252603f81526020018062004499603f913960400191505060405180910390fd5b87600e54111562000487576040517f08c379a0000000000000000000000000000000000000000000000000000000008152600401808060200182810382526029815260200180620044d86029913960400191505060405180910390fd5b60125481101562000500576040517f08c379a000000000000000000000000000000000000000000000000000000000815260040180806020018281038252601d8152602001807f4665652050657263656e746167652068617320746f206265203e3d203100000081525060200191505060405180910390fd5b86600a8190555085600b81905550876010819055508860098190555084600c8190555083600d8190555082601160006101000a81548160ff02191690831515021790555082620005525781600e819055505b89600760006101000a81548173ffffffffffffffffffffffffffffffffffffffff021916908373ffffffffffffffffffffffffffffffffffffffff160217905550600760009054906101000a900473ffffffffffffffffffffffffffffffffffffffff1673ffffffffffffffffffffffffffffffffffffffff1663313ce5676040518163ffffffff1660e01b815260040160206040518083038186803b158015620005fc57600080fd5b505afa15801562000611573d6000803e3d6000fd5b505050506040513d60208110156200062857600080fd5b810190808051906020019092919050505060ff166008819055508060128190555050505050505050505050613e0a80620006636000396000f3fe6080604052600436106102875760003560e01c8063755e3e281161015a578063c3ca324f116100c1578063eb1edd611161007a578063eb1edd6114610c6a578063efbb34d514610cc1578063f2aa821814610cec578063f2fde38b14610d67578063f64bfaba14610db8578063fecf415a14610e2457610287565b8063c3ca324f14610aa1578063c8bdbfb614610b47578063ca1d209d14610b5e578063d153b60c14610b99578063d65fb16014610bf0578063e4101de514610c3f57610287565b80639097548d116101135780639097548d14610922578063917c854d1461097157806394b918de146109e2578063a6e158f814610a10578063b31f8f9314610a4b578063c24a0f8b14610a7657610287565b8063755e3e2814610761578063785e9e861461078c5780638392fe31146107e35780638456cb59146108895780638da5cb5b146108a05780638e75b131146108f757610287565b80633742a9f7116101fe5780635ac699bb116101b75780635ac699bb146105d25780635c975abb146106415780636295a2f41461067057806369bb4dc21461069b5780636a93df11146106c657806370a898bc1461073257610287565b80633742a9f7146104715780633f4ba83a146105175780634089aa9a1461052e57806344691f7e1461055d57806347535d7b1461058c5780634e71e0c8146105bb57610287565b80631de18af7116102505780631de18af71461036b57806321d3002a146103a657806324600fc3146103d55780632e154107146103ec5780632ebb5c1e14610417578063313ce5671461044657610287565b80620b46f81461028c5780630b97bc86146102b757806312aef8c3146102e257806315b578661461030d578063161a7b2a1461033c575b600080fd5b34801561029857600080fd5b506102a1610e77565b6040518082815260200191505060405180910390f35b3480156102c357600080fd5b506102cc610e7d565b6040518082815260200191505060405180910390f35b3480156102ee57600080fd5b506102f7610e83565b6040518082815260200191505060405180910390f35b34801561031957600080fd5b50610322610e89565b604051808215151515815260200191505060405180910390f35b34801561034857600080fd5b50610351610e96565b604051808215151515815260200191505060405180910390f35b34801561037757600080fd5b506103a46004803603602081101561038e57600080fd5b8101908080359060200190929190505050610ea9565b005b3480156103b257600080fd5b506103bb6111f6565b604051808215151515815260200191505060405180910390f35b3480156103e157600080fd5b506103ea611209565b005b3480156103f857600080fd5b506104016115c4565b6040518082815260200191505060405180910390f35b34801561042357600080fd5b5061042c6115ca565b604051808215151515815260200191505060405180910390f35b34801561045257600080fd5b5061045b6115d6565b6040518082815260200191505060405180910390f35b34801561047d57600080fd5b506104aa6004803603602081101561049457600080fd5b81019080803590602001909291905050506115dc565b604051808781526020018673ffffffffffffffffffffffffffffffffffffffff1673ffffffffffffffffffffffffffffffffffffffff1681526020018581526020018481526020018315151515815260200182151515158152602001965050505050505060405180910390f35b34801561052357600080fd5b5061052c6116eb565b005b34801561053a57600080fd5b50610543611878565b604051808215151515815260200191505060405180910390f35b34801561056957600080fd5b50610572611884565b604051808215151515815260200191505060405180910390f35b34801561059857600080fd5b506105a1611891565b604051808215151515815260200191505060405180910390f35b3480156105c757600080fd5b506105d06118b1565b005b3480156105de57600080fd5b5061062b600480360360408110156105f557600080fd5b81019080803573ffffffffffffffffffffffffffffffffffffffff16906020019092919080359060200190929190505050611ab7565b6040518082815260200191505060405180910390f35b34801561064d57600080fd5b50610656611ae5565b604051808215151515815260200191505060405180910390f35b34801561067c57600080fd5b50610685611af8565b6040518082815260200191505060405180910390f35b3480156106a757600080fd5b506106b0611afe565b6040518082815260200191505060405180910390f35b3480156106d257600080fd5b506106db611bdf565b6040518080602001828103825283818151815260200191508051906020019060200280838360005b8381101561071e578082015181840152602081019050610703565b505050509050019250505060405180910390f35b34801561073e57600080fd5b50610747611c37565b604051808215151515815260200191505060405180910390f35b34801561076d57600080fd5b50610776611c44565b6040518082815260200191505060405180910390f35b34801561079857600080fd5b506107a1611c4a565b604051808273ffffffffffffffffffffffffffffffffffffffff1673ffffffffffffffffffffffffffffffffffffffff16815260200191505060405180910390f35b3480156107ef57600080fd5b5061081c6004803603602081101561080657600080fd5b8101908080359060200190929190505050611c70565b604051808781526020018673ffffffffffffffffffffffffffffffffffffffff1673ffffffffffffffffffffffffffffffffffffffff1681526020018581526020018481526020018315151515815260200182151515158152602001965050505050505060405180910390f35b34801561089557600080fd5b5061089e611ce6565b005b3480156108ac57600080fd5b506108b5611e73565b604051808273ffffffffffffffffffffffffffffffffffffffff1673ffffffffffffffffffffffffffffffffffffffff16815260200191505060405180910390f35b34801561090357600080fd5b5061090c611e98565b6040518082815260200191505060405180910390f35b34801561092e57600080fd5b5061095b6004803603602081101561094557600080fd5b8101908080359060200190929190505050611e9e565b6040518082815260200191505060405180910390f35b34801561097d57600080fd5b506109e06004803603604081101561099457600080fd5b81019080803573ffffffffffffffffffffffffffffffffffffffff169060200190929190803573ffffffffffffffffffffffffffffffffffffffff169060200190929190505050611ed3565b005b610a0e600480360360208110156109f857600080fd5b81019080803590602001909291905050506122ab565b005b348015610a1c57600080fd5b50610a4960048036036020811015610a3357600080fd5b8101908080359060200190929190505050612bd0565b005b348015610a5757600080fd5b50610a60613006565b6040518082815260200191505060405180910390f35b348015610a8257600080fd5b50610a8b613014565b6040518082815260200191505060405180910390f35b348015610aad57600080fd5b50610af060048036036020811015610ac457600080fd5b81019080803573ffffffffffffffffffffffffffffffffffffffff16906020019092919050505061301a565b6040518080602001828103825283818151815260200191508051906020019060200280838360005b83811015610b33578082015181840152602081019050610b18565b505050509050019250505060405180910390f35b348015610b5357600080fd5b50610b5c6130b1565b005b348015610b6a57600080fd5b50610b9760048036036020811015610b8157600080fd5b810190808035906020019092919050505061335d565b005b348015610ba557600080fd5b50610bae613605565b604051808273ffffffffffffffffffffffffffffffffffffffff1673ffffffffffffffffffffffffffffffffffffffff16815260200191505060405180910390f35b348015610bfc57600080fd5b50610c2960048036036020811015610c1357600080fd5b810190808035906020019092919050505061362b565b6040518082815260200191505060405180910390f35b348015610c4b57600080fd5b50610c5461364c565b6040518082815260200191505060405180910390f35b348015610c7657600080fd5b50610c7f613652565b604051808273ffffffffffffffffffffffffffffffffffffffff1673ffffffffffffffffffffffffffffffffffffffff16815260200191505060405180910390f35b348015610ccd57600080fd5b50610cd6613678565b6040518082815260200191505060405180910390f35b348015610cf857600080fd5b50610d2560048036036020811015610d0f57600080fd5b810190808035906020019092919050505061368a565b604051808273ffffffffffffffffffffffffffffffffffffffff1673ffffffffffffffffffffffffffffffffffffffff16815260200191505060405180910390f35b348015610d7357600080fd5b50610db660048036036020811015610d8a57600080fd5b81019080803573ffffffffffffffffffffffffffffffffffffffff1690602001909291905050506136c6565b005b348015610dc457600080fd5b50610dcd613851565b6040518080602001828103825283818151815260200191508051906020019060200280838360005b83811015610e10578082015181840152602081019050610df5565b505050509050019250505060405180910390f35b348015610e3057600080fd5b50610e5d60048036036020811015610e4757600080fd5b81019080803590602001909291905050506138df565b604051808215151515815260200191505060405180910390f35b60125481565b600a5481565b60105481565b600080600e541415905090565b600760149054906101000a900460ff1681565b610eb1611878565b610f23576040517f08c379a00000000000000000000000000000000000000000000000000000000081526004018080602001828103825260138152602001807f48617320746f2062652066696e616c697a65640000000000000000000000000081525060200191505060405180910390fd5b601160009054906101000a900460ff1615610fa6576040517f08c379a00000000000000000000000000000000000000000000000000000000081526004018080602001828103825260198152602001807f48617320746f206265206e6f6e2041746f6d696320737761700000000000000081525060200191505060405180910390fd5b610fae610e89565b611020576040517f08c379a000000000000000000000000000000000000000000000000000000000815260040180806020018281038252601a8152602001807f4d696e696d756d2072616973652068617320746f20657869737400000000000081525060200191505060405180910390fd5b600060036000838152602001908152602001600020600001541415801561106857506003600082815260200190815260200160002060040160009054906101000a900460ff16155b6110bd576040517f08c379a0000000000000000000000000000000000000000000000000000000008152600401808060200182810382526021815260200180613bf76021913960400191505060405180910390fd5b6110c6816138df565b611138576040517f08c379a00000000000000000000000000000000000000000000000000000000081526004018080602001828103825260148152602001807f41646472657373206973206e6f7420627579657200000000000000000000000081525060200191505060405180910390fd5b60016003600083815260200190815260200160002060040160006101000a81548160ff02191690831515021790555060016003600083815260200190815260200160002060040160016101000a81548160ff0219169083151502179055503373ffffffffffffffffffffffffffffffffffffffff166108fc60036000848152602001908152602001600020600201549081150290604051600060405180830381858888f193505050501580156111f2573d6000803e3d6000fd5b5050565b601160009054906101000a900460ff1681565b6000809054906101000a900473ffffffffffffffffffffffffffffffffffffffff1673ffffffffffffffffffffffffffffffffffffffff163373ffffffffffffffffffffffffffffffffffffffff16146112cb576040517f08c379a000000000000000000000000000000000000000000000000000000000815260040180806020018281038252600f8152602001807f48617320746f206265206f776e6572000000000000000000000000000000000081525060200191505060405180910390fd5b600160149054906101000a900460ff161561134e576040517f08c379a00000000000000000000000000000000000000000000000000000000081526004018080602001828103825260128152602001807f48617320746f20626520756e706175736564000000000000000000000000000081525060200191505060405180910390fd5b611356611878565b6113c8576040517f08c379a00000000000000000000000000000000000000000000000000000000081526004018080602001828103825260138152602001807f48617320746f2062652066696e616c697a65640000000000000000000000000081525060200191505060405180910390fd5b6113d0611c37565b156114bd576113e0600e54611e9e565b3073ffffffffffffffffffffffffffffffffffffffff1631101561144f576040517f08c379a0000000000000000000000000000000000000000000000000000000008152600401808060200182810382526032815260200180613c746032913960400191505060405180910390fd5b61145a600e54611e9e565b611465600f54611e9e565b10156114bc576040517f08c379a000000000000000000000000000000000000000000000000000000000815260040180806020018281038252602c815260200180613ccb602c913960400191505060405180910390fd5b5b601160019054906101000a900473ffffffffffffffffffffffffffffffffffffffff1673ffffffffffffffffffffffffffffffffffffffff166108fc611538606461152a6012543073ffffffffffffffffffffffffffffffffffffffff163161394d90919063ffffffff16565b6139d390919063ffffffff16565b9081150290604051600060405180830381858888f19350505050158015611563573d6000803e3d6000fd5b503373ffffffffffffffffffffffffffffffffffffffff166108fc3073ffffffffffffffffffffffffffffffffffffffff16319081150290604051600060405180830381858888f193505050501580156115c1573d6000803e3d6000fd5b50565b600c5481565b6000600a544210905090565b60085481565b6000806000806000806115ed613b6b565b600360008981526020019081526020016000206040518060c0016040529081600082015481526020016001820160009054906101000a900473ffffffffffffffffffffffffffffffffffffffff1673ffffffffffffffffffffffffffffffffffffffff1673ffffffffffffffffffffffffffffffffffffffff16815260200160028201548152602001600382015481526020016004820160009054906101000a900460ff161515151581526020016004820160019054906101000a900460ff1615151515815250509050806000015181602001518260400151836060015184608001518560a001519650965096509650965096505091939550919395565b6000809054906101000a900473ffffffffffffffffffffffffffffffffffffffff1673ffffffffffffffffffffffffffffffffffffffff163373ffffffffffffffffffffffffffffffffffffffff16146117ad576040517f08c379a000000000000000000000000000000000000000000000000000000000815260040180806020018281038252600f8152602001807f48617320746f206265206f776e6572000000000000000000000000000000000081525060200191505060405180910390fd5b600160149054906101000a900460ff1661182f576040517f08c379a00000000000000000000000000000000000000000000000000000000081526004018080602001828103825260108152602001807f48617320746f206265207061757365640000000000000000000000000000000081525060200191505060405180910390fd5b6000600160146101000a81548160ff0219169083151502179055507f7805862f689e2f13df9f062ff482ad3ad112aca9e0847911ed832e158c525b3360405160405180910390a1565b6000600b544211905090565b6000600a54421015905090565b600061189b611884565b80156118ac57506118aa611878565b155b905090565b600160009054906101000a900473ffffffffffffffffffffffffffffffffffffffff1673ffffffffffffffffffffffffffffffffffffffff163373ffffffffffffffffffffffffffffffffffffffff1614611974576040517f08c379a000000000000000000000000000000000000000000000000000000000815260040180806020018281038252601c8152602001807f48617320746f206265207468652070726f706f736564206f776e65720000000081525060200191505060405180910390fd5b600160009054906101000a900473ffffffffffffffffffffffffffffffffffffffff1673ffffffffffffffffffffffffffffffffffffffff166000809054906101000a900473ffffffffffffffffffffffffffffffffffffffff1673ffffffffffffffffffffffffffffffffffffffff167f8be0079c531659141344cd1fd0a4f28419497f9722a3daafe3b4186f6b6457e060405160405180910390a3600160009054906101000a900473ffffffffffffffffffffffffffffffffffffffff166000806101000a81548173ffffffffffffffffffffffffffffffffffffffff021916908373ffffffffffffffffffffffffffffffffffffffff1602179055506000600160006101000a81548173ffffffffffffffffffffffffffffffffffffffff021916908373ffffffffffffffffffffffffffffffffffffffff160217905550565b60066020528160005260406000208181548110611ad057fe5b90600052602060002001600091509150505481565b600160149054906101000a900460ff1681565b60095481565b6000600760009054906101000a900473ffffffffffffffffffffffffffffffffffffffff1673ffffffffffffffffffffffffffffffffffffffff166370a08231306040518263ffffffff1660e01b8152600401808273ffffffffffffffffffffffffffffffffffffffff1673ffffffffffffffffffffffffffffffffffffffff16815260200191505060206040518083038186803b158015611b9f57600080fd5b505afa158015611bb3573d6000803e3d6000fd5b505050506040513d6020811015611bc957600080fd5b8101908080519060200190929190505050905090565b60606005805480602002602001604051908101604052809291908181526020018280548015611c2d57602002820191906000526020600020905b815481526020019060010190808311611c19575b5050505050905090565b600080600c541415905090565b600f5481565b600760009054906101000a900473ffffffffffffffffffffffffffffffffffffffff1681565b60036020528060005260406000206000915090508060000154908060010160009054906101000a900473ffffffffffffffffffffffffffffffffffffffff16908060020154908060030154908060040160009054906101000a900460ff16908060040160019054906101000a900460ff16905086565b6000809054906101000a900473ffffffffffffffffffffffffffffffffffffffff1673ffffffffffffffffffffffffffffffffffffffff163373ffffffffffffffffffffffffffffffffffffffff1614611da8576040517f08c379a000000000000000000000000000000000000000000000000000000000815260040180806020018281038252600f8152602001807f48617320746f206265206f776e6572000000000000000000000000000000000081525060200191505060405180910390fd5b600160149054906101000a900460ff1615611e2b576040517f08c379a00000000000000000000000000000000000000000000000000000000081526004018080602001828103825260128152602001807f48617320746f20626520756e706175736564000000000000000000000000000081525060200191505060405180910390fd5b60018060146101000a81548160ff0219169083151502179055507f6985a02210a168e66602d3235cb6db0e70f92b3ba4d376a33c0f3d9434bff62560405160405180910390a1565b6000809054906101000a900473ffffffffffffffffffffffffffffffffffffffff1681565b600e5481565b6000611ecc600854600a0a611ebe6009548561394d90919063ffffffff16565b6139d390919063ffffffff16565b9050919050565b6000809054906101000a900473ffffffffffffffffffffffffffffffffffffffff1673ffffffffffffffffffffffffffffffffffffffff163373ffffffffffffffffffffffffffffffffffffffff1614611f95576040517f08c379a000000000000000000000000000000000000000000000000000000000815260040180806020018281038252600f8152602001807f48617320746f206265206f776e6572000000000000000000000000000000000081525060200191505060405180910390fd5b611f9d611878565b61200f576040517f08c379a00000000000000000000000000000000000000000000000000000000081526004018080602001828103825260138152602001807f48617320746f2062652066696e616c697a65640000000000000000000000000081525060200191505060405180910390fd5b600760009054906101000a900473ffffffffffffffffffffffffffffffffffffffff1673ffffffffffffffffffffffffffffffffffffffff168273ffffffffffffffffffffffffffffffffffffffff1614156120b6576040517f08c379a000000000000000000000000000000000000000000000000000000000815260040180806020018281038252603b815260200180613bbc603b913960400191505060405180910390fd5b60008290508073ffffffffffffffffffffffffffffffffffffffff1663a9059cbb838373ffffffffffffffffffffffffffffffffffffffff166370a08231306040518263ffffffff1660e01b8152600401808273ffffffffffffffffffffffffffffffffffffffff1673ffffffffffffffffffffffffffffffffffffffff16815260200191505060206040518083038186803b15801561215557600080fd5b505afa158015612169573d6000803e3d6000fd5b505050506040513d602081101561217f57600080fd5b81019080805190602001909291905050506040518363ffffffff1660e01b8152600401808373ffffffffffffffffffffffffffffffffffffffff1673ffffffffffffffffffffffffffffffffffffffff16815260200182815260200192505050602060405180830381600087803b1580156121f957600080fd5b505af115801561220d573d6000803e3d6000fd5b505050506040513d602081101561222357600080fd5b81019080805190602001909291905050506122a6576040517f08c379a000000000000000000000000000000000000000000000000000000000815260040180806020018281038252601b8152602001807f455243323020546f6b656e207472616e73666572206661696c6564000000000081525060200191505060405180910390fd5b505050565b600160149054906101000a900460ff161561232e576040517f08c379a00000000000000000000000000000000000000000000000000000000081526004018080602001828103825260128152602001807f48617320746f20626520756e706175736564000000000000000000000000000081525060200191505060405180910390fd5b600760149054906101000a900460ff166123b0576040517f08c379a00000000000000000000000000000000000000000000000000000000081526004018080602001828103825260108152602001807f48617320746f2062652066756e6465640000000000000000000000000000000081525060200191505060405180910390fd5b6123b8611891565b61242a576040517f08c379a000000000000000000000000000000000000000000000000000000000815260040180806020018281038252600e8152602001807f48617320746f206265206f70656e00000000000000000000000000000000000081525060200191505060405180910390fd5b600081116124a0576040517f08c379a00000000000000000000000000000000000000000000000000000000081526004018080602001828103825260198152602001807f416d6f756e742068617320746f20626520706f7369746976650000000000000081525060200191505060405180910390fd5b6124a8613006565b811115612500576040517f08c379a0000000000000000000000000000000000000000000000000000000008152600401808060200182810382526024815260200180613c506024913960400191505060405180910390fd5b61250981611e9e565b3414612560576040517f08c379a0000000000000000000000000000000000000000000000000000000008152600401808060200182810382526051815260200180613d6a6051913960600191505060405180910390fd5b600c548110156125bb576040517f08c379a0000000000000000000000000000000000000000000000000000000008152600401808060200182810382526024815260200180613dbb6024913960400191505060405180910390fd5b600d54811115612616576040517f08c379a0000000000000000000000000000000000000000000000000000000008152600401808060200182810382526025815260200180613ca66025913960400191505060405180910390fd5b60606126213361301a565b9050600080905060008090505b82518110156127435761263f613b6b565b6003600085848151811061264f57fe5b602002602001015181526020019081526020016000206040518060c0016040529081600082015481526020016001820160009054906101000a900473ffffffffffffffffffffffffffffffffffffffff1673ffffffffffffffffffffffffffffffffffffffff1673ffffffffffffffffffffffffffffffffffffffff16815260200160028201548152602001600382015481526020016004820160009054906101000a900460ff161515151581526020016004820160019054906101000a900460ff1615151515815250509050612733816000015184613a1d90919063ffffffff16565b925050808060010191505061262e565b50600d5461275a8483613a1d90919063ffffffff16565b11156127b1576040517f08c379a0000000000000000000000000000000000000000000000000000000008152600401808060200182810382526031815260200180613d186031913960400191505060405180910390fd5b601160009054906101000a900460ff161561291d57600760009054906101000a900473ffffffffffffffffffffffffffffffffffffffff1673ffffffffffffffffffffffffffffffffffffffff1663a9059cbb33856040518363ffffffff1660e01b8152600401808373ffffffffffffffffffffffffffffffffffffffff1673ffffffffffffffffffffffffffffffffffffffff16815260200182815260200192505050602060405180830381600087803b15801561286f57600080fd5b505af1158015612883573d6000803e3d6000fd5b505050506040513d602081101561289957600080fd5b810190808051906020019092919050505061291c576040517f08c379a000000000000000000000000000000000000000000000000000000000815260040180806020018281038252601b8152602001807f4552433230207472616e73666572206469646ec2b47420776f726b000000000081525060200191505060405180910390fd5b5b6000600254905061293a6001600254613a1d90919063ffffffff16565b600281905550612948613b6b565b6040518060c001604052808681526020013373ffffffffffffffffffffffffffffffffffffffff168152602001348152602001428152602001601160009054906101000a900460ff161515815260200160001515815250905080600360008481526020019081526020016000206000820151816000015560208201518160010160006101000a81548173ffffffffffffffffffffffffffffffffffffffff021916908373ffffffffffffffffffffffffffffffffffffffff160217905550604082015181600201556060820151816003015560808201518160040160006101000a81548160ff02191690831515021790555060a08201518160040160016101000a81548160ff0219169083151502179055509050506005829080600181540180825580915050906001820390600052602060002001600090919290919091505550600660003373ffffffffffffffffffffffffffffffffffffffff1673ffffffffffffffffffffffffffffffffffffffff16815260200190815260200160002082908060018154018082558091505090600182039060005260206000200160009091929091909150555060043390806001815401808255809150509060018203906000526020600020016000909192909190916101000a81548173ffffffffffffffffffffffffffffffffffffffff021916908373ffffffffffffffffffffffffffffffffffffffff16021790555050612b6d85600f54613a1d90919063ffffffff16565b600f819055503373ffffffffffffffffffffffffffffffffffffffff167fbec109f7ee137de661c6887caa96653c0545050a9908a3b6eb5190440bbec8648642604051808381526020018281526020019250505060405180910390a25050505050565b601160009054906101000a900460ff1615612c53576040517f08c379a00000000000000000000000000000000000000000000000000000000081526004018080602001828103825260198152602001807f48617320746f206265206e6f6e2041746f6d696320737761700000000000000081525060200191505060405180910390fd5b612c5b611878565b612ccd576040517f08c379a00000000000000000000000000000000000000000000000000000000081526004018080602001828103825260138152602001807f48617320746f2062652066696e616c697a65640000000000000000000000000081525060200191505060405180910390fd5b600160149054906101000a900460ff1615612d50576040517f08c379a00000000000000000000000000000000000000000000000000000000081526004018080602001828103825260128152602001807f48617320746f20626520756e706175736564000000000000000000000000000081525060200191505060405180910390fd5b6000600360008381526020019081526020016000206000015414158015612d9857506003600082815260200190815260200160002060040160009054906101000a900460ff16155b612ded576040517f08c379a0000000000000000000000000000000000000000000000000000000008152600401808060200182810382526021815260200180613bf76021913960400191505060405180910390fd5b612df6816138df565b612e68576040517f08c379a00000000000000000000000000000000000000000000000000000000081526004018080602001828103825260148152602001807f41646472657373206973206e6f7420627579657200000000000000000000000081525060200191505060405180910390fd5b60016003600083815260200190815260200160002060040160006101000a81548160ff021916908315150217905550600760009054906101000a900473ffffffffffffffffffffffffffffffffffffffff1673ffffffffffffffffffffffffffffffffffffffff1663a9059cbb3360036000858152602001908152602001600020600001546040518363ffffffff1660e01b8152600401808373ffffffffffffffffffffffffffffffffffffffff1673ffffffffffffffffffffffffffffffffffffffff16815260200182815260200192505050602060405180830381600087803b158015612f5657600080fd5b505af1158015612f6a573d6000803e3d6000fd5b505050506040513d6020811015612f8057600080fd5b8101908080519060200190929190505050613003576040517f08c379a00000000000000000000000000000000000000000000000000000000081526004018080602001828103825260158152602001807f4552433230207472616e73666572206661696c6564000000000000000000000081525060200191505060405180910390fd5b50565b6000600f5460105403905090565b600b5481565b6060600660008373ffffffffffffffffffffffffffffffffffffffff1673ffffffffffffffffffffffffffffffffffffffff1681526020019081526020016000208054806020026020016040519081016040528092919081815260200182805480156130a557602002820191906000526020600020905b815481526020019060010190808311613091575b50505050509050919050565b6000809054906101000a900473ffffffffffffffffffffffffffffffffffffffff1673ffffffffffffffffffffffffffffffffffffffff163373ffffffffffffffffffffffffffffffffffffffff1614613173576040517f08c379a000000000000000000000000000000000000000000000000000000000815260040180806020018281038252600f8152602001807f48617320746f206265206f776e6572000000000000000000000000000000000081525060200191505060405180910390fd5b61317b611878565b6131ed576040517f08c379a00000000000000000000000000000000000000000000000000000000081526004018080602001828103825260138152602001807f48617320746f2062652066696e616c697a65640000000000000000000000000081525060200191505060405180910390fd5b60006131f7611afe565b111561335b57600760009054906101000a900473ffffffffffffffffffffffffffffffffffffffff1673ffffffffffffffffffffffffffffffffffffffff1663a9059cbb33613244611afe565b6040518363ffffffff1660e01b8152600401808373ffffffffffffffffffffffffffffffffffffffff1673ffffffffffffffffffffffffffffffffffffffff16815260200182815260200192505050602060405180830381600087803b1580156132ad57600080fd5b505af11580156132c1573d6000803e3d6000fd5b505050506040513d60208110156132d757600080fd5b810190808051906020019092919050505061335a576040517f08c379a00000000000000000000000000000000000000000000000000000000081526004018080602001828103825260158152602001807f4552433230207472616e73666572206661696c6564000000000000000000000081525060200191505060405180910390fd5b5b565b6133656115ca565b6133d7576040517f08c379a00000000000000000000000000000000000000000000000000000000081526004018080602001828103825260158152602001807f48617320746f206265207072652d73746172746564000000000000000000000081525060200191505060405180910390fd5b6010546133f4826133e6611afe565b613a1d90919063ffffffff16565b111561344b576040517f08c379a0000000000000000000000000000000000000000000000000000000008152600401808060200182810382526038815260200180613c186038913960400191505060405180910390fd5b600760009054906101000a900473ffffffffffffffffffffffffffffffffffffffff1673ffffffffffffffffffffffffffffffffffffffff166323b872dd3330846040518463ffffffff1660e01b8152600401808473ffffffffffffffffffffffffffffffffffffffff1673ffffffffffffffffffffffffffffffffffffffff1681526020018373ffffffffffffffffffffffffffffffffffffffff1673ffffffffffffffffffffffffffffffffffffffff1681526020018281526020019350505050602060405180830381600087803b15801561352857600080fd5b505af115801561353c573d6000803e3d6000fd5b505050506040513d602081101561355257600080fd5b81019080805190602001909291905050506135d5576040517f08c379a000000000000000000000000000000000000000000000000000000000815260040180806020018281038252601b8152602001807f4661696c656420455243323020746f6b656e207472616e73666572000000000081525060200191505060405180910390fd5b6010546135e0611afe565b1415613602576001600760146101000a81548160ff0219169083151502179055505b50565b600160009054906101000a900473ffffffffffffffffffffffffffffffffffffffff1681565b6005818154811061363857fe5b906000526020600020016000915090505481565b600d5481565b601160019054906101000a900473ffffffffffffffffffffffffffffffffffffffff1681565b6000613685601054611e9e565b905090565b6004818154811061369757fe5b906000526020600020016000915054906101000a900473ffffffffffffffffffffffffffffffffffffffff1681565b6000809054906101000a900473ffffffffffffffffffffffffffffffffffffffff1673ffffffffffffffffffffffffffffffffffffffff163373ffffffffffffffffffffffffffffffffffffffff1614613788576040517f08c379a000000000000000000000000000000000000000000000000000000000815260040180806020018281038252600f8152602001807f48617320746f206265206f776e6572000000000000000000000000000000000081525060200191505060405180910390fd5b8073ffffffffffffffffffffffffffffffffffffffff163373ffffffffffffffffffffffffffffffffffffffff16141561380d576040517f08c379a0000000000000000000000000000000000000000000000000000000008152600401808060200182810382526021815260200180613d496021913960400191505060405180910390fd5b80600160006101000a81548173ffffffffffffffffffffffffffffffffffffffff021916908373ffffffffffffffffffffffffffffffffffffffff16021790555050565b606060048054806020026020016040519081016040528092919081815260200182805480156138d557602002820191906000526020600020905b8160009054906101000a900473ffffffffffffffffffffffffffffffffffffffff1673ffffffffffffffffffffffffffffffffffffffff168152602001906001019080831161388b575b5050505050905090565b60006003600083815260200190815260200160002060010160009054906101000a900473ffffffffffffffffffffffffffffffffffffffff1673ffffffffffffffffffffffffffffffffffffffff163373ffffffffffffffffffffffffffffffffffffffff16149050919050565b60008083141561396057600090506139cd565b600082840290508284828161397157fe5b04146139c8576040517f08c379a0000000000000000000000000000000000000000000000000000000008152600401808060200182810382526021815260200180613cf76021913960400191505060405180910390fd5b809150505b92915050565b6000613a1583836040518060400160405280601a81526020017f536166654d6174683a206469766973696f6e206279207a65726f000000000000815250613aa5565b905092915050565b600080828401905083811015613a9b576040517f08c379a000000000000000000000000000000000000000000000000000000000815260040180806020018281038252601b8152602001807f536166654d6174683a206164646974696f6e206f766572666c6f77000000000081525060200191505060405180910390fd5b8091505092915050565b60008083118290613b51576040517f08c379a00000000000000000000000000000000000000000000000000000000081526004018080602001828103825283818151815260200191508051906020019080838360005b83811015613b16578082015181840152602081019050613afb565b50505050905090810190601f168015613b435780820380516001836020036101000a031916815260200191505b509250505060405180910390fd5b506000838581613b5d57fe5b049050809150509392505050565b6040518060c0016040528060008152602001600073ffffffffffffffffffffffffffffffffffffffff1681526020016000815260200160008152602001600015158152602001600015158152509056fe546f6b656e20416464726573732068617320746f2062652064696666207468616e20746865206572633230207375626a65637420746f2073616c655075726368617365206973206569746865722030206f722066696e616c697a65645472616e73666572656420746f6b656e73206861766520746f20626520657175616c206f72206c657373207468616e2070726f706f736564416d6f756e74206973206c657373207468616e20746f6b656e7320617661696c61626c65436f6e74726163742042616c616e6365206973206c657373207468616e206d696e696d756d20726169736520616d6f756e74416d6f756e7420697320736d616c6c6572207468616e206d6178696d756d20616d6f756e74546f74616c5261697365206973206c657373207468616e206d696e696d756d20726169736520616d6f756e74536166654d6174683a206d756c7469706c69636174696f6e206f766572666c6f77416464726573732068617320616c72656164792070617373656420746865206d617820616d6f756e74206f66207377617048617320746f2062652064696666207468616e2063757272656e74206f776e6572557365722068617320746f20636f7665722074686520636f7374206f6620746865207377617020696e204554482c207573652074686520636f73742066756e6374696f6e20746f2064657465726d696e65416d6f756e7420697320626967676572207468616e206d696e696d756d20616d6f756e74a165627a7a72305820a84b01234b387cf950744f053293e5619beb44cc6b01f70f094d261ded49686a0029456e6420446174652073686f756c642062652066757274686572207468616e2063757272656e742064617465496e646976696475616c204d6178696d696d20414d6f756e742073686f756c64206265203e20496e646976696475616c204d696e696d756d20416d6f756e744d696e696d756d2052616973652073686f756c64206265203c20546f6b656e7320466f722053616c65546f6b656e7320666f722053616c652073686f756c64206265203e20496e646976696475616c204d696e696d756d20416d6f756e74",
  "source": "pragma solidity 0.5.8; \n\n/**\n * @title ERC20Basic\n * @dev Simpler version of ERC20 interface\n * @dev see https://github.com/ethereum/EIPs/issues/179\n */\ncontract ERC20Basic {\n    function decimals() public view returns (uint8);\n    function totalSupply() public view returns (uint256);\n    function balanceOf(address who) public view returns (uint256);\n    function transfer(address to, uint256 value) public returns (bool);\n    event Transfer(address indexed from, address indexed to, uint256 value);\n}\n\n/**\n * @dev Wrappers over Solidity's arithmetic operations with added overflow\n * checks.\n *\n * Arithmetic operations in Solidity wrap on overflow. This can easily result\n * in bugs, because programmers usually assume that an overflow raises an\n * error, which is the standard behavior in high level programming languages.\n * `SafeMath` restores this intuition by reverting the transaction when an\n * operation overflows.\n *\n * Using this library instead of the unchecked operations eliminates an entire\n * class of bugs, so it's recommended to use it always.\n */\nlibrary SafeMath {\n    /**\n     * @dev Returns the addition of two unsigned integers, reverting on\n     * overflow.\n     *\n     * Counterpart to Solidity's `+` operator.\n     *\n     * Requirements:\n     * - Addition cannot overflow.\n     */\n    function add(uint256 a, uint256 b) internal pure returns (uint256) {\n        uint256 c = a + b;\n        require(c >= a, \"SafeMath: addition overflow\");\n\n        return c;\n    }\n\n    /**\n     * @dev Returns the subtraction of two unsigned integers, reverting on\n     * overflow (when the result is negative).\n     *\n     * Counterpart to Solidity's `-` operator.\n     *\n     * Requirements:\n     * - Subtraction cannot overflow.\n     */\n    function sub(uint256 a, uint256 b) internal pure returns (uint256) {\n        return sub(a, b, \"SafeMath: subtraction overflow\");\n    }\n\n    /**\n     * @dev Returns the subtraction of two unsigned integers, reverting with custom message on\n     * overflow (when the result is negative).\n     *\n     * Counterpart to Solidity's `-` operator.\n     *\n     * Requirements:\n     * - Subtraction cannot overflow.\n     *\n     * _Available since v2.4.0._\n     */\n    function sub(uint256 a, uint256 b, string memory errorMessage) internal pure returns (uint256) {\n        require(b <= a, errorMessage);\n        uint256 c = a - b;\n\n        return c;\n    }\n\n    /**\n     * @dev Returns the multiplication of two unsigned integers, reverting on\n     * overflow.\n     *\n     * Counterpart to Solidity's `*` operator.\n     *\n     * Requirements:\n     * - Multiplication cannot overflow.\n     */\n    function mul(uint256 a, uint256 b) internal pure returns (uint256) {\n        // Gas optimization: this is cheaper than requiring 'a' not being zero, but the\n        // benefit is lost if 'b' is also tested.\n        // See: https://github.com/OpenZeppelin/openzeppelin-contracts/pull/522\n        if (a == 0) {\n            return 0;\n        }\n\n        uint256 c = a * b;\n        require(c / a == b, \"SafeMath: multiplication overflow\");\n\n        return c;\n    }\n\n    /**\n     * @dev Returns the integer division of two unsigned integers. Reverts on\n     * division by zero. The result is rounded towards zero.\n     *\n     * Counterpart to Solidity's `/` operator. Note: this function uses a\n     * `revert` opcode (which leaves remaining gas untouched) while Solidity\n     * uses an invalid opcode to revert (consuming all remaining gas).\n     *\n     * Requirements:\n     * - The divisor cannot be zero.\n     */\n    function div(uint256 a, uint256 b) internal pure returns (uint256) {\n        return div(a, b, \"SafeMath: division by zero\");\n    }\n\n    /**\n     * @dev Returns the integer division of two unsigned integers. Reverts with custom message on\n     * division by zero. The result is rounded towards zero.\n     *\n     * Counterpart to Solidity's `/` operator. Note: this function uses a\n     * `revert` opcode (which leaves remaining gas untouched) while Solidity\n     * uses an invalid opcode to revert (consuming all remaining gas).\n     *\n     * Requirements:\n     * - The divisor cannot be zero.\n     *\n     * _Available since v2.4.0._\n     */\n    function div(uint256 a, uint256 b, string memory errorMessage) internal pure returns (uint256) {\n        // Solidity only automatically asserts when dividing by 0\n        require(b > 0, errorMessage);\n        uint256 c = a / b;\n        // assert(a == b * c + a % b); // There is no case in which this doesn't hold\n\n        return c;\n    }\n\n    /**\n     * @dev Returns the remainder of dividing two unsigned integers. (unsigned integer modulo),\n     * Reverts when dividing by zero.\n     *\n     * Counterpart to Solidity's `%` operator. This function uses a `revert`\n     * opcode (which leaves remaining gas untouched) while Solidity uses an\n     * invalid opcode to revert (consuming all remaining gas).\n     *\n     * Requirements:\n     * - The divisor cannot be zero.\n     */\n    function mod(uint256 a, uint256 b) internal pure returns (uint256) {\n        return mod(a, b, \"SafeMath: modulo by zero\");\n    }\n\n    /**\n     * @dev Returns the remainder of dividing two unsigned integers. (unsigned integer modulo),\n     * Reverts with custom message when dividing by zero.\n     *\n     * Counterpart to Solidity's `%` operator. This function uses a `revert`\n     * opcode (which leaves remaining gas untouched) while Solidity uses an\n     * invalid opcode to revert (consuming all remaining gas).\n     *\n     * Requirements:\n     * - The divisor cannot be zero.\n     *\n     * _Available since v2.4.0._\n     */\n    function mod(uint256 a, uint256 b, string memory errorMessage) internal pure returns (uint256) {\n        require(b != 0, errorMessage);\n        return a % b;\n    }\n}\n\n// File: openzeppelin-solidity/contracts/token/ERC20/ERC20.sol\n\n/**\n * @title ERC20 interface\n * @dev see https://github.com/ethereum/EIPs/issues/20\n */\ncontract ERC20 is ERC20Basic {\n  function allowance(address owner, address spender) public view returns (uint256);\n  function transferFrom(address from, address to, uint256 value) public returns (bool);\n  function approve(address spender, uint256 value) public returns (bool);\n  event Approval(address indexed owner, address indexed spender, uint256 value);\n}\n\n// File: openzeppelin-solidity/contracts/ownership/Ownable.sol\n\n/**\n * @title Ownable\n * @dev The Ownable contract has an owner address, and provides basic authorization control\n * functions, this simplifies the implementation of \"user permissions\".\n */\ncontract Ownable {\n    address public owner;\n    address public proposedOwner;\n    event OwnershipTransferred(address indexed previousOwner, address indexed newOwner);\n\n\n    /**\n    * @dev The Ownable constructor sets the original `owner` of the contract to the sender\n    * account.\n    */\n    constructor() public {\n        owner = msg.sender;\n        proposedOwner = msg.sender;\n    }\n\n    /**\n    * @dev Throws if called by any account other than the owner.\n    */\n    modifier onlyOwner() {\n        require(msg.sender == owner, \"Has to be owner\");\n        _;\n    }\n\n    function transferOwnership(address _proposedOwner) public onlyOwner {\n        require(msg.sender != _proposedOwner, \"Has to be diff than current owner\");\n        proposedOwner = _proposedOwner;\n    }\n\n    function claimOwnership() public {\n        require(msg.sender == proposedOwner, \"Has to be the proposed owner\");\n        emit OwnershipTransferred(owner, proposedOwner);\n        owner = proposedOwner;\n        proposedOwner = address(0);\n    }\n}\n\n// File: openzeppelin-solidity/contracts/lifecycle/Pausable.sol\n\n/**\n * @title Pausable\n * @dev Base contract which allows children to implement an emergency stop mechanism.\n */\ncontract Pausable is Ownable {\n    event Pause();\n    event Unpause();\n\n    bool public paused = false;\n\n\n    /**\n    * @dev Modifier to make a function callable only when the contract is not paused.\n    */\n    modifier whenNotPaused() {\n        require(!paused, \"Has to be unpaused\");\n        _;\n    }\n\n    /**\n    * @dev Modifier to make a function callable only when the contract is paused.\n    */\n    modifier whenPaused() {\n        require(paused, \"Has to be paused\");\n        _;\n    }\n\n    /**\n    * @dev called by the owner to pause, triggers stopped state\n    */\n    function pause() onlyOwner whenNotPaused public {\n        paused = true;\n        emit Pause();\n    }\n\n    /**\n    * @dev called by the owner to unpause, returns to normal state\n    */\n    function unpause() onlyOwner whenPaused public {\n        paused = false;\n        emit Unpause();\n    }\n}\n\ncontract FixedSwap is Pausable {\n    using SafeMath for uint256;\n    uint256 increment = 0;\n\n    mapping(uint256 => Purchase) public purchases; /* Purchasers mapping */\n    address[] public buyers; /* Current Buyers Addresses */\n    uint256[] public purchaseIds; /* All purchaseIds */\n    mapping(address => uint256[]) public myPurchases; /* Purchasers mapping */\n\n    ERC20 public erc20;\n    bool public isSaleFunded = false;\n    uint public decimals = 0;\n    uint256 public tradeValue; /* Price in Wei */\n    uint256 public startDate; /* Start Date  */\n    uint256 public endDate;  /* End Date  */\n    uint256 public individualMinimumAmount = 0;  /* Minimum Amount Per Address */\n    uint256 public individualMaximumAmount = 0;  /* Minimum Amount Per Address */\n    uint256 public minimumRaise = 0;  /* Minimum Amount of Tokens that have to be sold */\n    uint256 public tokensAllocated = 0; /* Tokens Available for Allocation - Dynamic */\n    uint256 public tokensForSale = 0; /* Tokens Available for Sale */\n    bool    public isTokenSwapAtomic; /* Make token release atomic or not */\n    address payable public FEE_ADDRESS = 0x0F3cb149952Ccf2a7767d493853Aa00233A32fbB; /* Default Address for Fee Percentage */\n    uint256 public FEE_PERCENTAGE = 1; /* Default Fee 1% */\n\n    struct Purchase {\n        uint256 amount;\n        address purchaser;\n        uint256 ethAmount;\n        uint256 timestamp;\n        bool wasFinalized /* Confirm the tokens were sent already */;\n        bool reverted /* Confirm the tokens were sent already */;\n    }\n\n    event PurchaseEvent(uint256 amount, address indexed purchaser, uint256 timestamp);\n\n    constructor(address _tokenAddress, uint256 _tradeValue, uint256 _tokensForSale, uint256 _startDate, \n        uint256 _endDate, uint256 _individualMinimumAmount, uint256 _individualMaximumAmount, bool _isTokenSwapAtomic, uint256 _minimumRaise,\n        uint256 _feeAmount) public {\n        \n        /* Confirmations */\n        require(block.timestamp < _endDate, \"End Date should be further than current date\");\n        require(block.timestamp < _startDate, \"End Date should be further than current date\");\n        require(_startDate < _endDate, \"End Date higher than Start Date\");\n        require(_tokensForSale > 0, \"Tokens for Sale should be > 0\");\n        require(_tokensForSale > _individualMinimumAmount, \"Tokens for Sale should be > Individual Minimum Amount\");\n        require(_individualMaximumAmount >= _individualMinimumAmount, \"Individual Maximim AMount should be > Individual Minimum Amount\");\n        require(minimumRaise <= _tokensForSale, \"Minimum Raise should be < Tokens For Sale\");\n        require(_feeAmount >= FEE_PERCENTAGE, \"Fee Percentage has to be >= 1\");\n\n        startDate = _startDate; \n        endDate = _endDate;\n        tokensForSale = _tokensForSale;\n        tradeValue = _tradeValue;\n\n        individualMinimumAmount = _individualMinimumAmount; \n        individualMaximumAmount = _individualMaximumAmount; \n        isTokenSwapAtomic = _isTokenSwapAtomic;\n\n        if(!_isTokenSwapAtomic){ /* If raise is not atomic swap */\n            minimumRaise = _minimumRaise;\n        }\n\n        erc20 = ERC20(_tokenAddress);\n        decimals = erc20.decimals();\n        FEE_PERCENTAGE = _feeAmount;\n    }\n\n    /**\n    * Modifier to make a function callable only when the contract has Atomic Swaps not available.\n    */\n    modifier isNotAtomicSwap() {\n        require(!isTokenSwapAtomic, \"Has to be non Atomic swap\");\n        _;\n    }\n\n     /**\n    * Modifier to make a function callable only when the contract has Atomic Swaps not available.\n    */\n    modifier isSaleFinalized() {\n        require(hasFinalized(), \"Has to be finalized\");\n        _;\n    }\n\n     /**\n    * Modifier to make a function callable only when the swap time is open.\n    */\n    modifier isSaleOpen() {\n        require(isOpen(), \"Has to be open\");\n        _;\n    }\n\n     /**\n    * Modifier to make a function callable only when the contract has Atomic Swaps not available.\n    */\n    modifier isSalePreStarted() {\n        require(isPreStart(), \"Has to be pre-started\");\n        _;\n    }\n\n    /**\n    * Modifier to make a function callable only when the contract has Atomic Swaps not available.\n    */\n    modifier isFunded() {\n        require(isSaleFunded, \"Has to be funded\");\n        _;\n    }\n\n\n    /* Get Functions */\n    function isBuyer(uint256 purchase_id) public view returns (bool) {\n        return (msg.sender == purchases[purchase_id].purchaser);\n    }\n\n    /* Get Functions */\n    function totalRaiseCost() public view returns (uint256) {\n        return (cost(tokensForSale));\n    }\n\n    function availableTokens() public view returns (uint256) {\n        return erc20.balanceOf(address(this));\n    }\n\n    function tokensLeft() public view returns (uint256) {\n        return tokensForSale - tokensAllocated;\n    }\n\n    function hasMinimumRaise() public view returns (bool){\n        return (minimumRaise != 0);\n    }\n\n    function hasFinalized() public view returns (bool){\n        return block.timestamp > endDate;\n    }\n\n    function hasStarted() public view returns (bool){\n        return block.timestamp >= startDate;\n    }\n    \n    function isPreStart() public view returns (bool){\n        return block.timestamp < startDate;\n    }\n\n    function isOpen() public view returns (bool){\n        return hasStarted() && !hasFinalized();\n    }\n\n    function hasMinimumAmount() public view returns (bool){\n       return (individualMinimumAmount != 0);\n    }\n\n    function cost(uint256 _amount) public view returns (uint){\n        return _amount.mul(tradeValue).div(10**decimals); \n    }\n\n    function getPurchase(uint256 _purchase_id) external view returns (uint256, address, uint256, uint256, bool, bool){\n        Purchase memory purchase = purchases[_purchase_id];\n        return (purchase.amount, purchase.purchaser, purchase.ethAmount, purchase.timestamp, purchase.wasFinalized, purchase.reverted);\n    }\n\n    function getPurchaseIds() public view returns(uint256[] memory) {\n        return purchaseIds;\n    }\n\n    function getBuyers() public view returns(address[] memory) {\n        return buyers;\n    }\n\n    function getMyPurchases(address _address) public view returns(uint256[] memory) {\n        return myPurchases[_address];\n    }\n\n    /* Fund - Pre Sale Start */\n    function fund(uint256 _amount) public isSalePreStarted {\n        \n        /* Confirm transfered tokens is no more than needed */\n        require(availableTokens().add(_amount) <= tokensForSale, \"Transfered tokens have to be equal or less than proposed\");\n\n        /* Transfer Funds */\n        require(erc20.transferFrom(msg.sender, address(this), _amount), \"Failed ERC20 token transfer\");\n        \n        /* If Amount is equal to needed - sale is ready */\n        if(availableTokens() == tokensForSale){\n            isSaleFunded = true;\n        }\n    }\n    \n    /* Action Functions */\n    function swap(uint256 _amount) payable external whenNotPaused isFunded isSaleOpen {\n\n        /* Confirm Amount is positive */\n        require(_amount > 0, \"Amount has to be positive\");\n\n        /* Confirm Amount is less than tokens available */\n        require(_amount <= tokensLeft(), \"Amount is less than tokens available\");\n            \n        /* Confirm the user has funds for the transfer, confirm the value is equal */\n        require(msg.value == cost(_amount), \"User has to cover the cost of the swap in ETH, use the cost function to determine\");\n\n        /* Confirm Amount is bigger than minimum Amount */\n        require(_amount >= individualMinimumAmount, \"Amount is bigger than minimum amount\");\n\n        /* Confirm Amount is smaller than maximum Amount */\n        require(_amount <= individualMaximumAmount, \"Amount is smaller than maximum amount\");\n\n        /* Verify all user purchases, loop thru them */\n        uint256[] memory _purchases = getMyPurchases(msg.sender);\n        uint256 purchaserTotalAmountPurchased = 0;\n        for (uint i = 0; i < _purchases.length; i++) {\n            Purchase memory _purchase = purchases[_purchases[i]];\n            purchaserTotalAmountPurchased = purchaserTotalAmountPurchased.add(_purchase.amount);\n        }\n        require(purchaserTotalAmountPurchased.add(_amount) <= individualMaximumAmount, \"Address has already passed the max amount of swap\");\n\n        if(isTokenSwapAtomic){\n            /* Confirm transfer */\n            require(erc20.transfer(msg.sender, _amount), \"ERC20 transfer didnt work\");\n        }\n        \n        uint256 purchase_id = increment;\n        increment = increment.add(1);\n\n        /* Create new purchase */\n        Purchase memory purchase = Purchase(_amount, msg.sender, msg.value, block.timestamp, isTokenSwapAtomic /* If Atomic Swap */, false);\n        purchases[purchase_id] = purchase;\n        purchaseIds.push(purchase_id);\n        myPurchases[msg.sender].push(purchase_id);\n        buyers.push(msg.sender);\n        tokensAllocated = tokensAllocated.add(_amount);\n        emit PurchaseEvent(_amount, msg.sender, block.timestamp);\n    }\n\n    /* Redeem tokens when the sale was finalized */\n    function redeemTokens(uint256 purchase_id) external isNotAtomicSwap isSaleFinalized whenNotPaused {\n        /* Confirm it exists and was not finalized */\n        require((purchases[purchase_id].amount != 0) && !purchases[purchase_id].wasFinalized, \"Purchase is either 0 or finalized\");\n        require(isBuyer(purchase_id), \"Address is not buyer\");\n        purchases[purchase_id].wasFinalized = true;\n        require(erc20.transfer(msg.sender, purchases[purchase_id].amount), \"ERC20 transfer failed\");\n    }\n\n    /* Retrieve Minumum Amount */\n    function redeemGivenMinimumGoalNotAchieved(uint256 purchase_id) external isSaleFinalized isNotAtomicSwap {\n        require(hasMinimumRaise(), \"Minimum raise has to exist\");\n        /* Confirm it exists and was not finalized */\n        require((purchases[purchase_id].amount != 0) && !purchases[purchase_id].wasFinalized, \"Purchase is either 0 or finalized\");\n        require(isBuyer(purchase_id), \"Address is not buyer\");\n        purchases[purchase_id].wasFinalized = true;\n        purchases[purchase_id].reverted = true;\n        msg.sender.transfer(purchases[purchase_id].ethAmount);\n    }\n\n    /* Admin Functions */\n    function withdrawFunds() external onlyOwner whenNotPaused isSaleFinalized {\n        /* Confirm Minimum Amount was reached */\n        if(hasMinimumAmount()){\n            require(address(this).balance >= cost(minimumRaise), \"Contract Balance is less than minimum raise amount\");\n            require(cost(tokensAllocated) >= cost(minimumRaise), \"TotalRaise is less than minimum raise amount\");\n        }\n        FEE_ADDRESS.transfer(address(this).balance.mul(FEE_PERCENTAGE).div(100)); /* Fee Address */\n        msg.sender.transfer(address(this).balance);\n    }  \n    \n    function withdrawUnsoldTokens() external onlyOwner isSaleFinalized {\n        if(availableTokens() > 0){\n            require(erc20.transfer(msg.sender, availableTokens()), \"ERC20 transfer failed\");\n        }\n    }   \n\n    function removeOtherERC20Tokens(address _tokenAddress, address _to) external onlyOwner isSaleFinalized {\n        require(_tokenAddress != address(erc20), \"Token Address has to be diff than the erc20 subject to sale\"); // Confirm tokens addresses are different from main sale one\n        ERC20 erc20Token = ERC20(_tokenAddress);\n        require(erc20Token.transfer(_to, erc20Token.balanceOf(address(this))), \"ERC20 Token transfer failed\");\n    }  \n\n\n}\n\n// TO DO : Add Fee to project\n",
  "sourcePath": "/Users/ruipedro/Desktop/projects/Staking/erc20/contracts/FixedSwap.sol",
  "compiler": {
    "name": "solc",
    "version": "0.5.8+commit.23d335f2.Emscripten.clang"
  },
  "schemaVersion": "3.0.20",
  "updatedAt": "2020-11-26T19:32:33.435Z",
  "devdoc": {
    "methods": {
      "pause()": {
        "details": "called by the owner to pause, triggers stopped state"
      },
      "unpause()": {
        "details": "called by the owner to unpause, returns to normal state"
      }
    }
  },
  "userdoc": {
    "methods": {}
  }
}