{
  "contractName": "FixedSwap",
  "abi": [
    {
      "constant": true,
      "inputs": [],
      "name": "startDate",
      "outputs": [
        {
          "name": "",
          "type": "uint256"
        }
      ],
      "payable": false,
      "stateMutability": "view",
      "type": "function"
    },
    {
      "constant": true,
      "inputs": [],
      "name": "tokensForSale",
      "outputs": [
        {
          "name": "",
          "type": "uint256"
        }
      ],
      "payable": false,
      "stateMutability": "view",
      "type": "function"
    },
    {
      "constant": true,
      "inputs": [],
      "name": "isSaleFunded",
      "outputs": [
        {
          "name": "",
          "type": "bool"
        }
      ],
      "payable": false,
      "stateMutability": "view",
      "type": "function"
    },
    {
      "constant": true,
      "inputs": [],
      "name": "isTokenSwapAtomic",
      "outputs": [
        {
          "name": "",
          "type": "bool"
        }
      ],
      "payable": false,
      "stateMutability": "view",
      "type": "function"
    },
    {
      "constant": true,
      "inputs": [],
      "name": "individualMinimumAmount",
      "outputs": [
        {
          "name": "",
          "type": "uint256"
        }
      ],
      "payable": false,
      "stateMutability": "view",
      "type": "function"
    },
    {
      "constant": false,
      "inputs": [],
      "name": "unpause",
      "outputs": [],
      "payable": false,
      "stateMutability": "nonpayable",
      "type": "function"
    },
    {
      "constant": true,
      "inputs": [
        {
          "name": "",
          "type": "address"
        },
        {
          "name": "",
          "type": "uint256"
        }
      ],
      "name": "myPurchases",
      "outputs": [
        {
          "name": "",
          "type": "uint256"
        }
      ],
      "payable": false,
      "stateMutability": "view",
      "type": "function"
    },
    {
      "constant": true,
      "inputs": [],
      "name": "paused",
      "outputs": [
        {
          "name": "",
          "type": "bool"
        }
      ],
      "payable": false,
      "stateMutability": "view",
      "type": "function"
    },
    {
      "constant": true,
      "inputs": [],
      "name": "tradeValue",
      "outputs": [
        {
          "name": "",
          "type": "uint256"
        }
      ],
      "payable": false,
      "stateMutability": "view",
      "type": "function"
    },
    {
      "constant": true,
      "inputs": [],
      "name": "tokensAllocated",
      "outputs": [
        {
          "name": "",
          "type": "uint256"
        }
      ],
      "payable": false,
      "stateMutability": "view",
      "type": "function"
    },
    {
      "constant": true,
      "inputs": [],
      "name": "erc20",
      "outputs": [
        {
          "name": "",
          "type": "address"
        }
      ],
      "payable": false,
      "stateMutability": "view",
      "type": "function"
    },
    {
      "constant": true,
      "inputs": [
        {
          "name": "",
          "type": "uint256"
        }
      ],
      "name": "purchases",
      "outputs": [
        {
          "name": "amount",
          "type": "uint256"
        },
        {
          "name": "purchaser",
          "type": "address"
        },
        {
          "name": "ethAmount",
          "type": "uint256"
        },
        {
          "name": "timestamp",
          "type": "uint256"
        },
        {
          "name": "wasFinalized",
          "type": "bool"
        },
        {
          "name": "reverted",
          "type": "bool"
        }
      ],
      "payable": false,
      "stateMutability": "view",
      "type": "function"
    },
    {
      "constant": false,
      "inputs": [],
      "name": "pause",
      "outputs": [],
      "payable": false,
      "stateMutability": "nonpayable",
      "type": "function"
    },
    {
      "constant": true,
      "inputs": [],
      "name": "owner",
      "outputs": [
        {
          "name": "",
          "type": "address"
        }
      ],
      "payable": false,
      "stateMutability": "view",
      "type": "function"
    },
    {
      "constant": true,
      "inputs": [],
      "name": "minimumRaise",
      "outputs": [
        {
          "name": "",
          "type": "uint256"
        }
      ],
      "payable": false,
      "stateMutability": "view",
      "type": "function"
    },
    {
      "constant": true,
      "inputs": [],
      "name": "endDate",
      "outputs": [
        {
          "name": "",
          "type": "uint256"
        }
      ],
      "payable": false,
      "stateMutability": "view",
      "type": "function"
    },
    {
      "constant": true,
      "inputs": [
        {
          "name": "",
          "type": "uint256"
        }
      ],
      "name": "purchaseIds",
      "outputs": [
        {
          "name": "",
          "type": "uint256"
        }
      ],
      "payable": false,
      "stateMutability": "view",
      "type": "function"
    },
    {
      "constant": true,
      "inputs": [
        {
          "name": "",
          "type": "uint256"
        }
      ],
      "name": "buyers",
      "outputs": [
        {
          "name": "",
          "type": "address"
        }
      ],
      "payable": false,
      "stateMutability": "view",
      "type": "function"
    },
    {
      "constant": false,
      "inputs": [
        {
          "name": "newOwner",
          "type": "address"
        }
      ],
      "name": "transferOwnership",
      "outputs": [],
      "payable": false,
      "stateMutability": "nonpayable",
      "type": "function"
    },
    {
      "inputs": [
        {
          "name": "_tokenAddress",
          "type": "address"
        },
        {
          "name": "_tradeValue",
          "type": "uint256"
        },
        {
          "name": "_tokensForSale",
          "type": "uint256"
        },
        {
          "name": "_startDate",
          "type": "uint256"
        },
        {
          "name": "_endDate",
          "type": "uint256"
        },
        {
          "name": "_individualMinimumAmount",
          "type": "uint256"
        },
        {
          "name": "_isTokenSwapAtomic",
          "type": "bool"
        },
        {
          "name": "_minimumRaise",
          "type": "uint256"
        }
      ],
      "payable": false,
      "stateMutability": "nonpayable",
      "type": "constructor"
    },
    {
      "anonymous": false,
      "inputs": [
        {
          "indexed": false,
          "name": "amount",
          "type": "uint256"
        },
        {
          "indexed": false,
          "name": "purchaser",
          "type": "address"
        },
        {
          "indexed": false,
          "name": "timestamp",
          "type": "uint256"
        }
      ],
      "name": "PurchaseEvent",
      "type": "event"
    },
    {
      "anonymous": false,
      "inputs": [],
      "name": "Pause",
      "type": "event"
    },
    {
      "anonymous": false,
      "inputs": [],
      "name": "Unpause",
      "type": "event"
    },
    {
      "anonymous": false,
      "inputs": [
        {
          "indexed": true,
          "name": "previousOwner",
          "type": "address"
        },
        {
          "indexed": true,
          "name": "newOwner",
          "type": "address"
        }
      ],
      "name": "OwnershipTransferred",
      "type": "event"
    },
    {
      "constant": true,
      "inputs": [
        {
          "name": "purchase_id",
          "type": "uint256"
        }
      ],
      "name": "isBuyer",
      "outputs": [
        {
          "name": "",
          "type": "bool"
        }
      ],
      "payable": false,
      "stateMutability": "view",
      "type": "function"
    },
    {
      "constant": true,
      "inputs": [],
      "name": "totalRaise",
      "outputs": [
        {
          "name": "",
          "type": "uint256"
        }
      ],
      "payable": false,
      "stateMutability": "view",
      "type": "function"
    },
    {
      "constant": true,
      "inputs": [],
      "name": "availableTokens",
      "outputs": [
        {
          "name": "",
          "type": "uint256"
        }
      ],
      "payable": false,
      "stateMutability": "view",
      "type": "function"
    },
    {
      "constant": true,
      "inputs": [],
      "name": "tokensLeft",
      "outputs": [
        {
          "name": "",
          "type": "uint256"
        }
      ],
      "payable": false,
      "stateMutability": "view",
      "type": "function"
    },
    {
      "constant": true,
      "inputs": [],
      "name": "hasMinimumRaise",
      "outputs": [
        {
          "name": "",
          "type": "bool"
        }
      ],
      "payable": false,
      "stateMutability": "view",
      "type": "function"
    },
    {
      "constant": true,
      "inputs": [],
      "name": "hasFinalized",
      "outputs": [
        {
          "name": "",
          "type": "bool"
        }
      ],
      "payable": false,
      "stateMutability": "view",
      "type": "function"
    },
    {
      "constant": true,
      "inputs": [],
      "name": "isPreStart",
      "outputs": [
        {
          "name": "",
          "type": "bool"
        }
      ],
      "payable": false,
      "stateMutability": "view",
      "type": "function"
    },
    {
      "constant": true,
      "inputs": [],
      "name": "hasMinimumAmount",
      "outputs": [
        {
          "name": "",
          "type": "bool"
        }
      ],
      "payable": false,
      "stateMutability": "view",
      "type": "function"
    },
    {
      "constant": true,
      "inputs": [
        {
          "name": "_amount",
          "type": "uint256"
        }
      ],
      "name": "cost",
      "outputs": [
        {
          "name": "",
          "type": "uint256"
        }
      ],
      "payable": false,
      "stateMutability": "view",
      "type": "function"
    },
    {
      "constant": true,
      "inputs": [
        {
          "name": "_purchase_id",
          "type": "uint256"
        }
      ],
      "name": "getPurchase",
      "outputs": [
        {
          "name": "",
          "type": "uint256"
        },
        {
          "name": "",
          "type": "address"
        },
        {
          "name": "",
          "type": "uint256"
        },
        {
          "name": "",
          "type": "uint256"
        },
        {
          "name": "",
          "type": "bool"
        },
        {
          "name": "",
          "type": "bool"
        }
      ],
      "payable": false,
      "stateMutability": "view",
      "type": "function"
    },
    {
      "constant": false,
      "inputs": [
        {
          "name": "_amount",
          "type": "uint256"
        }
      ],
      "name": "fund",
      "outputs": [],
      "payable": false,
      "stateMutability": "nonpayable",
      "type": "function"
    },
    {
      "constant": false,
      "inputs": [
        {
          "name": "_amount",
          "type": "uint256"
        }
      ],
      "name": "swap",
      "outputs": [],
      "payable": true,
      "stateMutability": "payable",
      "type": "function"
    },
    {
      "constant": false,
      "inputs": [
        {
          "name": "purchase_id",
          "type": "uint256"
        }
      ],
      "name": "redeemTokens",
      "outputs": [],
      "payable": false,
      "stateMutability": "nonpayable",
      "type": "function"
    },
    {
      "constant": false,
      "inputs": [
        {
          "name": "purchase_id",
          "type": "uint256"
        }
      ],
      "name": "redeemGivenMinimumGoalNotAchieved",
      "outputs": [],
      "payable": false,
      "stateMutability": "nonpayable",
      "type": "function"
    },
    {
      "constant": false,
      "inputs": [],
      "name": "withdrawFunds",
      "outputs": [],
      "payable": false,
      "stateMutability": "nonpayable",
      "type": "function"
    },
    {
      "constant": false,
      "inputs": [],
      "name": "withdrawUnsoldTokens",
      "outputs": [],
      "payable": false,
      "stateMutability": "nonpayable",
      "type": "function"
    },
    {
      "constant": false,
      "inputs": [
        {
          "name": "_tokenAddress",
          "type": "address"
        },
        {
          "name": "_to",
          "type": "address"
        }
      ],
      "name": "removeOtherERC20Tokens",
      "outputs": [],
      "payable": false,
      "stateMutability": "nonpayable",
      "type": "function"
    }
  ],
  "bytecode": "0x608060405260008060146101000a81548160ff0219169083151502179055506000600560146101000a81548160ff02191690831515021790555060006009556000600a556000600b556000600c553480156200005a57600080fd5b50604051610100806200237e83398101806040526101008110156200007e57600080fd5b810190808051906020019092919080519060200190929190805190602001909291908051906020019092919080519060200190929190805190602001909291908051906020019092919080519060200190929190505050336000806101000a81548173ffffffffffffffffffffffffffffffffffffffff021916908373ffffffffffffffffffffffffffffffffffffffff1602179055508342106200012257600080fd5b844211156200013057600080fd5b8385106200013d57600080fd5b600086116200014b57600080fd5b8286116200015857600080fd5b85600a5411156200016857600080fd5b8460078190555083600881905550600c54600c81905550866006819055508260098190555081600d60006101000a81548160ff02191690831515021790555081620001b55780600a819055505b87600560006101000a81548173ffffffffffffffffffffffffffffffffffffffff021916908373ffffffffffffffffffffffffffffffffffffffff1602179055505050505050505050612170806200020e6000396000f3fe60806040526004361061020f5760003560e01c8063755e3e2811610118578063a6e158f8116100a0578063ca1d209d1161006f578063ca1d209d14610934578063d65fb1601461096f578063f2aa8218146109be578063f2fde38b14610a39578063fecf415a14610a8a5761020f565b8063a6e158f81461088c578063b31f8f93146108c7578063c24a0f8b146108f2578063c8bdbfb61461091d5761020f565b80638da5cb5b116100e75780638da5cb5b1461071c5780638e75b131146107735780639097548d1461079e578063917c854d146107ed57806394b918de1461085e5761020f565b8063755e3e28146105dd578063785e9e86146106085780638392fe311461065f5780638456cb59146107055761020f565b80633742a9f71161019b5780635ac699bb1161016a5780635ac699bb146104ba5780635c975abb146105295780636295a2f41461055857806369bb4dc21461058357806370a898bc146105ae5761020f565b80633742a9f7146103a35780633996dc8f146104495780633f4ba83a146104745780634089aa9a1461048b5761020f565b80631de18af7116101e25780631de18af7146102c857806321d3002a1461030357806324600fc3146103325780632e154107146103495780632ebb5c1e146103745761020f565b80630b97bc861461021457806312aef8c31461023f57806315b578661461026a578063161a7b2a14610299575b600080fd5b34801561022057600080fd5b50610229610add565b6040518082815260200191505060405180910390f35b34801561024b57600080fd5b50610254610ae3565b6040518082815260200191505060405180910390f35b34801561027657600080fd5b5061027f610ae9565b604051808215151515815260200191505060405180910390f35b3480156102a557600080fd5b506102ae610af6565b604051808215151515815260200191505060405180910390f35b3480156102d457600080fd5b50610301600480360360208110156102eb57600080fd5b8101908080359060200190929190505050610b09565b005b34801561030f57600080fd5b50610318610c64565b604051808215151515815260200191505060405180910390f35b34801561033e57600080fd5b50610347610c77565b005b34801561035557600080fd5b5061035e610d96565b6040518082815260200191505060405180910390f35b34801561038057600080fd5b50610389610d9c565b604051808215151515815260200191505060405180910390f35b3480156103af57600080fd5b506103dc600480360360208110156103c657600080fd5b8101908080359060200190929190505050610da8565b604051808781526020018673ffffffffffffffffffffffffffffffffffffffff1673ffffffffffffffffffffffffffffffffffffffff1681526020018581526020018481526020018315151515815260200182151515158152602001965050505050505060405180910390f35b34801561045557600080fd5b5061045e610eb7565b6040518082815260200191505060405180910390f35b34801561048057600080fd5b50610489610ec9565b005b34801561049757600080fd5b506104a0610f83565b604051808215151515815260200191505060405180910390f35b3480156104c657600080fd5b50610513600480360360408110156104dd57600080fd5b81019080803573ffffffffffffffffffffffffffffffffffffffff16906020019092919080359060200190929190505050610f8f565b6040518082815260200191505060405180910390f35b34801561053557600080fd5b5061053e610fbd565b604051808215151515815260200191505060405180910390f35b34801561056457600080fd5b5061056d610fd0565b6040518082815260200191505060405180910390f35b34801561058f57600080fd5b50610598610fd6565b6040518082815260200191505060405180910390f35b3480156105ba57600080fd5b506105c36110b7565b604051808215151515815260200191505060405180910390f35b3480156105e957600080fd5b506105f26110c4565b6040518082815260200191505060405180910390f35b34801561061457600080fd5b5061061d6110ca565b604051808273ffffffffffffffffffffffffffffffffffffffff1673ffffffffffffffffffffffffffffffffffffffff16815260200191505060405180910390f35b34801561066b57600080fd5b506106986004803603602081101561068257600080fd5b81019080803590602001909291905050506110f0565b604051808781526020018673ffffffffffffffffffffffffffffffffffffffff1673ffffffffffffffffffffffffffffffffffffffff1681526020018581526020018481526020018315151515815260200182151515158152602001965050505050505060405180910390f35b34801561071157600080fd5b5061071a611166565b005b34801561072857600080fd5b50610731611222565b604051808273ffffffffffffffffffffffffffffffffffffffff1673ffffffffffffffffffffffffffffffffffffffff16815260200191505060405180910390f35b34801561077f57600080fd5b50610788611247565b6040518082815260200191505060405180910390f35b3480156107aa57600080fd5b506107d7600480360360208110156107c157600080fd5b810190808035906020019092919050505061124d565b6040518082815260200191505060405180910390f35b3480156107f957600080fd5b5061085c6004803603604081101561081057600080fd5b81019080803573ffffffffffffffffffffffffffffffffffffffff169060200190929190803573ffffffffffffffffffffffffffffffffffffffff16906020019092919050505061126b565b005b61088a6004803603602081101561087457600080fd5b8101908080359060200190929190505050611461565b005b34801561089857600080fd5b506108c5600480360360208110156108af57600080fd5b8101908080359060200190929190505050611885565b005b3480156108d357600080fd5b506108dc611a61565b6040518082815260200191505060405180910390f35b3480156108fe57600080fd5b50610907611a6f565b6040518082815260200191505060405180910390f35b34801561092957600080fd5b50610932611a75565b005b34801561094057600080fd5b5061096d6004803603602081101561095757600080fd5b8101908080359060200190929190505050611be6565b005b34801561097b57600080fd5b506109a86004803603602081101561099257600080fd5b8101908080359060200190929190505050611d70565b6040518082815260200191505060405180910390f35b3480156109ca57600080fd5b506109f7600480360360208110156109e157600080fd5b8101908080359060200190929190505050611d91565b604051808273ffffffffffffffffffffffffffffffffffffffff1673ffffffffffffffffffffffffffffffffffffffff16815260200191505060405180910390f35b348015610a4557600080fd5b50610a8860048036036020811015610a5c57600080fd5b81019080803573ffffffffffffffffffffffffffffffffffffffff169060200190929190505050611dcd565b005b348015610a9657600080fd5b50610ac360048036036020811015610aad57600080fd5b8101908080359060200190929190505050611f1e565b604051808215151515815260200191505060405180910390f35b60075481565b600c5481565b600080600a541415905090565b600560149054906101000a900460ff1681565b610b11610f83565b610b1a57600080fd5b600d60009054906101000a900460ff1615610b3457600080fd5b610b3c610ae9565b610b4557600080fd5b6000600160008381526020019081526020016000206000015414158015610b8d57506001600082815260200190815260200160002060040160009054906101000a900460ff16155b610b9657600080fd5b610b9f81611f1e565b610ba857600080fd5b3373ffffffffffffffffffffffffffffffffffffffff166108fc60016000848152602001908152602001600020600201549081150290604051600060405180830381858888f19350505050158015610c04573d6000803e3d6000fd5b50600180600083815260200190815260200160002060040160006101000a81548160ff021916908315150217905550600180600083815260200190815260200160002060040160016101000a81548160ff02191690831515021790555050565b600d60009054906101000a900460ff1681565b6000809054906101000a900473ffffffffffffffffffffffffffffffffffffffff1673ffffffffffffffffffffffffffffffffffffffff163373ffffffffffffffffffffffffffffffffffffffff1614610cd057600080fd5b600060149054906101000a900460ff1615610cea57600080fd5b610cf2610f83565b610cfb57600080fd5b610d036110b7565b15610d3657610d13600a5461124d565b3073ffffffffffffffffffffffffffffffffffffffff163111610d3557600080fd5b5b3373ffffffffffffffffffffffffffffffffffffffff166108fc3073ffffffffffffffffffffffffffffffffffffffff16319081150290604051600060405180830381858888f19350505050158015610d93573d6000803e3d6000fd5b50565b60095481565b60006007544210905090565b600080600080600080610db96120d3565b600160008981526020019081526020016000206040518060c0016040529081600082015481526020016001820160009054906101000a900473ffffffffffffffffffffffffffffffffffffffff1673ffffffffffffffffffffffffffffffffffffffff1673ffffffffffffffffffffffffffffffffffffffff16815260200160028201548152602001600382015481526020016004820160009054906101000a900460ff161515151581526020016004820160019054906101000a900460ff1615151515815250509050806000015181602001518260400151836060015184608001518560a001519650965096509650965096505091939550919395565b6000610ec4600c5461124d565b905090565b6000809054906101000a900473ffffffffffffffffffffffffffffffffffffffff1673ffffffffffffffffffffffffffffffffffffffff163373ffffffffffffffffffffffffffffffffffffffff1614610f2257600080fd5b600060149054906101000a900460ff16610f3b57600080fd5b60008060146101000a81548160ff0219169083151502179055507f7805862f689e2f13df9f062ff482ad3ad112aca9e0847911ed832e158c525b3360405160405180910390a1565b60006008544211905090565b60046020528160005260406000208181548110610fa857fe5b90600052602060002001600091509150505481565b600060149054906101000a900460ff1681565b60065481565b6000600560009054906101000a900473ffffffffffffffffffffffffffffffffffffffff1673ffffffffffffffffffffffffffffffffffffffff166370a08231306040518263ffffffff1660e01b8152600401808273ffffffffffffffffffffffffffffffffffffffff1673ffffffffffffffffffffffffffffffffffffffff16815260200191505060206040518083038186803b15801561107757600080fd5b505afa15801561108b573d6000803e3d6000fd5b505050506040513d60208110156110a157600080fd5b8101908080519060200190929190505050905090565b6000806009541415905090565b600b5481565b600560009054906101000a900473ffffffffffffffffffffffffffffffffffffffff1681565b60016020528060005260406000206000915090508060000154908060010160009054906101000a900473ffffffffffffffffffffffffffffffffffffffff16908060020154908060030154908060040160009054906101000a900460ff16908060040160019054906101000a900460ff16905086565b6000809054906101000a900473ffffffffffffffffffffffffffffffffffffffff1673ffffffffffffffffffffffffffffffffffffffff163373ffffffffffffffffffffffffffffffffffffffff16146111bf57600080fd5b600060149054906101000a900460ff16156111d957600080fd5b6001600060146101000a81548160ff0219169083151502179055507f6985a02210a168e66602d3235cb6db0e70f92b3ba4d376a33c0f3d9434bff62560405160405180910390a1565b6000809054906101000a900473ffffffffffffffffffffffffffffffffffffffff1681565b600a5481565b600061126460065483611f8c90919063ffffffff16565b9050919050565b6000809054906101000a900473ffffffffffffffffffffffffffffffffffffffff1673ffffffffffffffffffffffffffffffffffffffff163373ffffffffffffffffffffffffffffffffffffffff16146112c457600080fd5b6112cc610f83565b6112d557600080fd5b60008290508073ffffffffffffffffffffffffffffffffffffffff1663a9059cbb838373ffffffffffffffffffffffffffffffffffffffff166370a08231306040518263ffffffff1660e01b8152600401808273ffffffffffffffffffffffffffffffffffffffff1673ffffffffffffffffffffffffffffffffffffffff16815260200191505060206040518083038186803b15801561137457600080fd5b505afa158015611388573d6000803e3d6000fd5b505050506040513d602081101561139e57600080fd5b81019080805190602001909291905050506040518363ffffffff1660e01b8152600401808373ffffffffffffffffffffffffffffffffffffffff1673ffffffffffffffffffffffffffffffffffffffff16815260200182815260200192505050602060405180830381600087803b15801561141857600080fd5b505af115801561142c573d6000803e3d6000fd5b505050506040513d602081101561144257600080fd5b810190808051906020019092919050505061145c57600080fd5b505050565b600060149054906101000a900460ff161561147b57600080fd5b600560149054906101000a900460ff1661149457600080fd5b600081116114a157600080fd5b6114a9611a61565b8111156114b557600080fd5b6114be8161124d565b34146114c957600080fd5b60085442106114d757600080fd5b6009548110156114e657600080fd5b600d60009054906101000a900460ff16156115e957600560009054906101000a900473ffffffffffffffffffffffffffffffffffffffff1673ffffffffffffffffffffffffffffffffffffffff1663a9059cbb33836040518363ffffffff1660e01b8152600401808373ffffffffffffffffffffffffffffffffffffffff1673ffffffffffffffffffffffffffffffffffffffff16815260200182815260200192505050602060405180830381600087803b1580156115a457600080fd5b505af11580156115b8573d6000803e3d6000fd5b505050506040513d60208110156115ce57600080fd5b81019080805190602001909291905050506115e857600080fd5b5b60006115f3612012565b90506115fd6120d3565b6040518060c001604052808481526020013373ffffffffffffffffffffffffffffffffffffffff168152602001348152602001428152602001600d60009054906101000a900460ff161515815260200160001515815250905080600160008481526020019081526020016000206000820151816000015560208201518160010160006101000a81548173ffffffffffffffffffffffffffffffffffffffff021916908373ffffffffffffffffffffffffffffffffffffffff160217905550604082015181600201556060820151816003015560808201518160040160006101000a81548160ff02191690831515021790555060a08201518160040160016101000a81548160ff0219169083151502179055509050506003829080600181540180825580915050906001820390600052602060002001600090919290919091505550600460003373ffffffffffffffffffffffffffffffffffffffff1673ffffffffffffffffffffffffffffffffffffffff16815260200190815260200160002082908060018154018082558091505090600182039060005260206000200160009091929091909150555060023390806001815401808255809150509060018203906000526020600020016000909192909190916101000a81548173ffffffffffffffffffffffffffffffffffffffff021916908373ffffffffffffffffffffffffffffffffffffffff160217905550507fbec109f7ee137de661c6887caa96653c0545050a9908a3b6eb5190440bbec864833342604051808481526020018373ffffffffffffffffffffffffffffffffffffffff1673ffffffffffffffffffffffffffffffffffffffff168152602001828152602001935050505060405180910390a1505050565b600d60009054906101000a900460ff161561189f57600080fd5b6118a7610f83565b6118b057600080fd5b600060149054906101000a900460ff16156118ca57600080fd5b600060016000838152602001908152602001600020600001541415801561191257506001600082815260200190815260200160002060040160009054906101000a900460ff16155b61191b57600080fd5b61192481611f1e565b61192d57600080fd5b600560009054906101000a900473ffffffffffffffffffffffffffffffffffffffff1673ffffffffffffffffffffffffffffffffffffffff1663a9059cbb3360016000858152602001908152602001600020600001546040518363ffffffff1660e01b8152600401808373ffffffffffffffffffffffffffffffffffffffff1673ffffffffffffffffffffffffffffffffffffffff16815260200182815260200192505050602060405180830381600087803b1580156119ec57600080fd5b505af1158015611a00573d6000803e3d6000fd5b505050506040513d6020811015611a1657600080fd5b8101908080519060200190929190505050611a3057600080fd5b600180600083815260200190815260200160002060040160006101000a81548160ff02191690831515021790555050565b6000600b54600c5403905090565b60085481565b6000809054906101000a900473ffffffffffffffffffffffffffffffffffffffff1673ffffffffffffffffffffffffffffffffffffffff163373ffffffffffffffffffffffffffffffffffffffff1614611ace57600080fd5b611ad6610f83565b611adf57600080fd5b6000611ae9610fd6565b1115611be457600560009054906101000a900473ffffffffffffffffffffffffffffffffffffffff1673ffffffffffffffffffffffffffffffffffffffff1663a9059cbb33611b36610fd6565b6040518363ffffffff1660e01b8152600401808373ffffffffffffffffffffffffffffffffffffffff1673ffffffffffffffffffffffffffffffffffffffff16815260200182815260200192505050602060405180830381600087803b158015611b9f57600080fd5b505af1158015611bb3573d6000803e3d6000fd5b505050506040513d6020811015611bc957600080fd5b8101908080519060200190929190505050611be357600080fd5b5b565b611bee610d9c565b611bf757600080fd5b600c54611c1482611c06610fd6565b61204b90919063ffffffff16565b1115611c1f57600080fd5b600560009054906101000a900473ffffffffffffffffffffffffffffffffffffffff1673ffffffffffffffffffffffffffffffffffffffff166323b872dd3330846040518463ffffffff1660e01b8152600401808473ffffffffffffffffffffffffffffffffffffffff1673ffffffffffffffffffffffffffffffffffffffff1681526020018373ffffffffffffffffffffffffffffffffffffffff1673ffffffffffffffffffffffffffffffffffffffff1681526020018281526020019350505050602060405180830381600087803b158015611cfc57600080fd5b505af1158015611d10573d6000803e3d6000fd5b505050506040513d6020811015611d2657600080fd5b8101908080519060200190929190505050611d4057600080fd5b600c54611d4b610fd6565b1415611d6d576001600560146101000a81548160ff0219169083151502179055505b50565b60038181548110611d7d57fe5b906000526020600020016000915090505481565b60028181548110611d9e57fe5b906000526020600020016000915054906101000a900473ffffffffffffffffffffffffffffffffffffffff1681565b6000809054906101000a900473ffffffffffffffffffffffffffffffffffffffff1673ffffffffffffffffffffffffffffffffffffffff163373ffffffffffffffffffffffffffffffffffffffff1614611e2657600080fd5b600073ffffffffffffffffffffffffffffffffffffffff168173ffffffffffffffffffffffffffffffffffffffff161415611e6057600080fd5b8073ffffffffffffffffffffffffffffffffffffffff166000809054906101000a900473ffffffffffffffffffffffffffffffffffffffff1673ffffffffffffffffffffffffffffffffffffffff167f8be0079c531659141344cd1fd0a4f28419497f9722a3daafe3b4186f6b6457e060405160405180910390a3806000806101000a81548173ffffffffffffffffffffffffffffffffffffffff021916908373ffffffffffffffffffffffffffffffffffffffff16021790555050565b60006001600083815260200190815260200160002060010160009054906101000a900473ffffffffffffffffffffffffffffffffffffffff1673ffffffffffffffffffffffffffffffffffffffff163373ffffffffffffffffffffffffffffffffffffffff16149050919050565b600080831415611f9f576000905061200c565b6000828402905082848281611fb057fe5b0414612007576040517f08c379a00000000000000000000000000000000000000000000000000000000081526004018080602001828103825260218152602001806121246021913960400191505060405180910390fd5b809150505b92915050565b6000444260405160200180838152602001828152602001925050506040516020818303038152906040528051906020012060001c905090565b6000808284019050838110156120c9576040517f08c379a000000000000000000000000000000000000000000000000000000000815260040180806020018281038252601b8152602001807f536166654d6174683a206164646974696f6e206f766572666c6f77000000000081525060200191505060405180910390fd5b8091505092915050565b6040518060c0016040528060008152602001600073ffffffffffffffffffffffffffffffffffffffff1681526020016000815260200160008152602001600015158152602001600015158152509056fe536166654d6174683a206d756c7469706c69636174696f6e206f766572666c6f77a165627a7a72305820551069db256d60980deea9643229ceeb7ecd7c1fa75a2abb6f583ac3475917190029",
  "source": "pragma solidity 0.5.8; \n\n/**\n * @title ERC20Basic\n * @dev Simpler version of ERC20 interface\n * @dev see https://github.com/ethereum/EIPs/issues/179\n */\ncontract ERC20Basic {\n    function totalSupply() public view returns (uint256);\n    function balanceOf(address who) public view returns (uint256);\n    function transfer(address to, uint256 value) public returns (bool);\n    event Transfer(address indexed from, address indexed to, uint256 value);\n}\n\n/**\n * @dev Wrappers over Solidity's arithmetic operations with added overflow\n * checks.\n *\n * Arithmetic operations in Solidity wrap on overflow. This can easily result\n * in bugs, because programmers usually assume that an overflow raises an\n * error, which is the standard behavior in high level programming languages.\n * `SafeMath` restores this intuition by reverting the transaction when an\n * operation overflows.\n *\n * Using this library instead of the unchecked operations eliminates an entire\n * class of bugs, so it's recommended to use it always.\n */\nlibrary SafeMath {\n    /**\n     * @dev Returns the addition of two unsigned integers, reverting on\n     * overflow.\n     *\n     * Counterpart to Solidity's `+` operator.\n     *\n     * Requirements:\n     * - Addition cannot overflow.\n     */\n    function add(uint256 a, uint256 b) internal pure returns (uint256) {\n        uint256 c = a + b;\n        require(c >= a, \"SafeMath: addition overflow\");\n\n        return c;\n    }\n\n    /**\n     * @dev Returns the subtraction of two unsigned integers, reverting on\n     * overflow (when the result is negative).\n     *\n     * Counterpart to Solidity's `-` operator.\n     *\n     * Requirements:\n     * - Subtraction cannot overflow.\n     */\n    function sub(uint256 a, uint256 b) internal pure returns (uint256) {\n        return sub(a, b, \"SafeMath: subtraction overflow\");\n    }\n\n    /**\n     * @dev Returns the subtraction of two unsigned integers, reverting with custom message on\n     * overflow (when the result is negative).\n     *\n     * Counterpart to Solidity's `-` operator.\n     *\n     * Requirements:\n     * - Subtraction cannot overflow.\n     *\n     * _Available since v2.4.0._\n     */\n    function sub(uint256 a, uint256 b, string memory errorMessage) internal pure returns (uint256) {\n        require(b <= a, errorMessage);\n        uint256 c = a - b;\n\n        return c;\n    }\n\n    /**\n     * @dev Returns the multiplication of two unsigned integers, reverting on\n     * overflow.\n     *\n     * Counterpart to Solidity's `*` operator.\n     *\n     * Requirements:\n     * - Multiplication cannot overflow.\n     */\n    function mul(uint256 a, uint256 b) internal pure returns (uint256) {\n        // Gas optimization: this is cheaper than requiring 'a' not being zero, but the\n        // benefit is lost if 'b' is also tested.\n        // See: https://github.com/OpenZeppelin/openzeppelin-contracts/pull/522\n        if (a == 0) {\n            return 0;\n        }\n\n        uint256 c = a * b;\n        require(c / a == b, \"SafeMath: multiplication overflow\");\n\n        return c;\n    }\n\n    /**\n     * @dev Returns the integer division of two unsigned integers. Reverts on\n     * division by zero. The result is rounded towards zero.\n     *\n     * Counterpart to Solidity's `/` operator. Note: this function uses a\n     * `revert` opcode (which leaves remaining gas untouched) while Solidity\n     * uses an invalid opcode to revert (consuming all remaining gas).\n     *\n     * Requirements:\n     * - The divisor cannot be zero.\n     */\n    function div(uint256 a, uint256 b) internal pure returns (uint256) {\n        return div(a, b, \"SafeMath: division by zero\");\n    }\n\n    /**\n     * @dev Returns the integer division of two unsigned integers. Reverts with custom message on\n     * division by zero. The result is rounded towards zero.\n     *\n     * Counterpart to Solidity's `/` operator. Note: this function uses a\n     * `revert` opcode (which leaves remaining gas untouched) while Solidity\n     * uses an invalid opcode to revert (consuming all remaining gas).\n     *\n     * Requirements:\n     * - The divisor cannot be zero.\n     *\n     * _Available since v2.4.0._\n     */\n    function div(uint256 a, uint256 b, string memory errorMessage) internal pure returns (uint256) {\n        // Solidity only automatically asserts when dividing by 0\n        require(b > 0, errorMessage);\n        uint256 c = a / b;\n        // assert(a == b * c + a % b); // There is no case in which this doesn't hold\n\n        return c;\n    }\n\n    /**\n     * @dev Returns the remainder of dividing two unsigned integers. (unsigned integer modulo),\n     * Reverts when dividing by zero.\n     *\n     * Counterpart to Solidity's `%` operator. This function uses a `revert`\n     * opcode (which leaves remaining gas untouched) while Solidity uses an\n     * invalid opcode to revert (consuming all remaining gas).\n     *\n     * Requirements:\n     * - The divisor cannot be zero.\n     */\n    function mod(uint256 a, uint256 b) internal pure returns (uint256) {\n        return mod(a, b, \"SafeMath: modulo by zero\");\n    }\n\n    /**\n     * @dev Returns the remainder of dividing two unsigned integers. (unsigned integer modulo),\n     * Reverts with custom message when dividing by zero.\n     *\n     * Counterpart to Solidity's `%` operator. This function uses a `revert`\n     * opcode (which leaves remaining gas untouched) while Solidity uses an\n     * invalid opcode to revert (consuming all remaining gas).\n     *\n     * Requirements:\n     * - The divisor cannot be zero.\n     *\n     * _Available since v2.4.0._\n     */\n    function mod(uint256 a, uint256 b, string memory errorMessage) internal pure returns (uint256) {\n        require(b != 0, errorMessage);\n        return a % b;\n    }\n}\n\n// File: openzeppelin-solidity/contracts/token/ERC20/ERC20.sol\n\n/**\n * @title ERC20 interface\n * @dev see https://github.com/ethereum/EIPs/issues/20\n */\ncontract ERC20 is ERC20Basic {\n  function allowance(address owner, address spender) public view returns (uint256);\n  function transferFrom(address from, address to, uint256 value) public returns (bool);\n  function approve(address spender, uint256 value) public returns (bool);\n  event Approval(address indexed owner, address indexed spender, uint256 value);\n}\n\n// File: openzeppelin-solidity/contracts/ownership/Ownable.sol\n\n/**\n * @title Ownable\n * @dev The Ownable contract has an owner address, and provides basic authorization control\n * functions, this simplifies the implementation of \"user permissions\".\n */\ncontract Ownable {\n    address public owner;\n    event OwnershipTransferred(address indexed previousOwner, address indexed newOwner);\n\n\n    /**\n    * @dev The Ownable constructor sets the original `owner` of the contract to the sender\n    * account.\n    */\n    constructor() public {\n        owner = msg.sender;\n    }\n\n    /**\n    * @dev Throws if called by any account other than the owner.\n    */\n    modifier onlyOwner() {\n        require(msg.sender == owner);\n        _;\n    }\n\n    /**\n    * @dev Allows the current owner to transfer control of the contract to a newOwner.\n    * @param newOwner The address to transfer ownership to.\n    */\n    function transferOwnership(address newOwner) public onlyOwner {\n        require(newOwner != address(0));\n        emit OwnershipTransferred(owner, newOwner);\n        owner = newOwner;\n    }\n}\n\n// File: openzeppelin-solidity/contracts/lifecycle/Pausable.sol\n\n/**\n * @title Pausable\n * @dev Base contract which allows children to implement an emergency stop mechanism.\n */\ncontract Pausable is Ownable {\n    event Pause();\n    event Unpause();\n\n    bool public paused = false;\n\n\n    /**\n    * @dev Modifier to make a function callable only when the contract is not paused.\n    */\n    modifier whenNotPaused() {\n        require(!paused);\n        _;\n    }\n\n    /**\n    * @dev Modifier to make a function callable only when the contract is paused.\n    */\n    modifier whenPaused() {\n        require(paused);\n        _;\n    }\n\n    /**\n    * @dev called by the owner to pause, triggers stopped state\n    */\n    function pause() onlyOwner whenNotPaused public {\n        paused = true;\n        emit Pause();\n    }\n\n    /**\n    * @dev called by the owner to unpause, returns to normal state\n    */\n    function unpause() onlyOwner whenPaused public {\n        paused = false;\n        emit Unpause();\n    }\n}\n\ncontract FixedSwap is Pausable {\n    using SafeMath for uint256;\n\n    mapping(uint256 => Purchase) public purchases; /* Purchasers mapping */\n    address[] public buyers; /* Current Buyers Addresses */\n    uint256[] public purchaseIds; /* All purchaseIds */\n    mapping(address => uint256[]) public myPurchases; /* Purchasers mapping */\n\n    ERC20 public erc20;\n    bool public isSaleFunded = false;\n    uint256 public tradeValue; /* Price in Wei */\n    uint256 public startDate; /* Start Date  */\n    uint256 public endDate;  /* End Date  */\n    uint256 public individualMinimumAmount = 0;  /* Minimum Amount Per Address */\n    uint256 public minimumRaise = 0;  /* Minimum Amount of Tokens that have to be sold */\n    uint256 public tokensAllocated = 0; /* Tokens Available for Allocation - Dynamic */\n    uint256 public tokensForSale = 0; /* Tokens Available for Sale */\n    bool    public isTokenSwapAtomic; /* Make token release atomic or not */\n\n    struct Purchase {\n        uint256 amount;\n        address purchaser;\n        uint256 ethAmount;\n        uint256 timestamp;\n        bool wasFinalized /* Confirm the tokens were sent already */;\n        bool reverted /* Confirm the tokens were sent already */;\n    }\n\n    event PurchaseEvent(uint256 amount, address purchaser, uint256 timestamp);\n\n    constructor(address _tokenAddress, uint256 _tradeValue, uint256 _tokensForSale, uint256 _startDate, \n        uint256 _endDate, uint256 _individualMinimumAmount, bool _isTokenSwapAtomic, uint256 _minimumRaise) public {\n        \n        /* Confirmations */\n        require(block.timestamp < _endDate);\n        require(block.timestamp <= _startDate);\n        require(_startDate < _endDate);\n        require(_tokensForSale > 0);\n        require(_tokensForSale > _individualMinimumAmount);\n        require(minimumRaise <= _tokensForSale);\n        \n        startDate = _startDate; /* Price in Wei */\n        endDate = _endDate; /* Price in Wei */\n        tokensForSale = tokensForSale;\n        tradeValue = _tradeValue; /* Price in Wei */\n\n        individualMinimumAmount = _individualMinimumAmount; \n        isTokenSwapAtomic = _isTokenSwapAtomic;\n\n        if(!_isTokenSwapAtomic){ /* If raise is not atomic swap */\n            minimumRaise = _minimumRaise;\n        }\n\n        erc20 = ERC20(_tokenAddress);\n    }\n\n    /**\n    * Modifier to make a function callable only when the contract has Atomic Swaps not available.\n    */\n    modifier isNotAtomicSwap() {\n        require(!isTokenSwapAtomic);\n        _;\n    }\n\n     /**\n    * Modifier to make a function callable only when the contract has Atomic Swaps not available.\n    */\n    modifier isSaleFinalized() {\n        require(hasFinalized());\n        _;\n    }\n\n     /**\n    * Modifier to make a function callable only when the contract has Atomic Swaps not available.\n    */\n    modifier isSalePreStarted() {\n        require(isPreStart());\n        _;\n    }\n    /**\n    * Modifier to make a function callable only when the contract has Atomic Swaps not available.\n    */\n    modifier isFunded() {\n        require(isSaleFunded);\n        _;\n    }\n\n\n    /* Get Functions */\n    function isBuyer(uint256 purchase_id) public view returns (bool) {\n        return (msg.sender == purchases[purchase_id].purchaser);\n    }\n\n    /* Get Functions */\n    function totalRaise() public view returns (uint256) {\n        return (cost(tokensForSale));\n    }\n\n    function availableTokens() public view returns (uint256) {\n        return erc20.balanceOf(address(this));\n    }\n\n    function tokensLeft() public view returns (uint256) {\n        return tokensForSale - tokensAllocated;\n    }\n\n    function hasMinimumRaise() public view returns (bool){\n        return (minimumRaise != 0);\n    }\n\n    function hasFinalized() public view returns (bool){\n        return block.timestamp > endDate;\n    }\n    \n    function isPreStart() public view returns (bool){\n        return block.timestamp < startDate;\n    }\n\n    function hasMinimumAmount() public view returns (bool){\n       return (individualMinimumAmount != 0);\n    }\n\n    function random() private view returns (uint) {\n        return uint(keccak256(abi.encode(block.difficulty, now)));\n    } \n\n    function cost(uint256 _amount) public view returns (uint){\n        return _amount.mul(tradeValue); /* returns cost in wei */\n    }\n\n    function getPurchase(uint256 _purchase_id) external view returns (uint256, address, uint256, uint256, bool, bool){\n        Purchase memory purchase = purchases[_purchase_id];\n        return (purchase.amount, purchase.purchaser, purchase.ethAmount, purchase.timestamp, purchase.wasFinalized, purchase.reverted);\n    }\n\n    /* Fund - Pre Sale Start */\n    function fund(uint256 _amount) public isSalePreStarted {\n        \n        /* Confirm transfered tokens is no more than needed */\n        require(availableTokens().add(_amount) <= tokensForSale);\n\n        /* Transfer Funds */\n        require(erc20.transferFrom(msg.sender, address(this), _amount));\n        \n        /* If Amount is equal to needed - sale is ready */\n        if(availableTokens() == tokensForSale){\n            isSaleFunded = true;\n        }\n    }\n    \n    /* Action Functions */\n    function swap(uint256 _amount) payable external whenNotPaused isFunded {\n\n        /* Confirm Amount is positive */\n        require(_amount > 0);\n\n        /* Confirm Amount is less than tokens available */\n        require(_amount <= tokensLeft());\n            \n        /* Confirm the user has funds for the transfer, confirm the value is equal */\n        require(msg.value == cost(_amount));\n     \n        /* Confirm sale hasnt finalized */\n        require(block.timestamp < endDate);\n\n        /* Confirm Amount is bigger than minimum Amount */\n        require(_amount >= individualMinimumAmount);\n\n        if(isTokenSwapAtomic){\n            /* Confirm transfer */\n            require(erc20.transfer(msg.sender, _amount));\n        }\n\n        uint256 purchase_id = random();\n\n        /* Create new purchase */\n        Purchase memory purchase = Purchase(_amount, msg.sender, msg.value, block.timestamp, isTokenSwapAtomic /* If Atomic Swap */, false);\n        purchases[purchase_id] = purchase;\n        purchaseIds.push(purchase_id);\n        myPurchases[msg.sender].push(purchase_id);\n        buyers.push(msg.sender);\n\n        emit PurchaseEvent(_amount, msg.sender, block.timestamp);\n    }\n\n    /* Redeem tokens when the sale was finalized */\n    function redeemTokens(uint256 purchase_id) external isNotAtomicSwap isSaleFinalized whenNotPaused {\n        /* Confirm it exists and was not finalized */\n        require((purchases[purchase_id].amount != 0) && !purchases[purchase_id].wasFinalized);\n        require(isBuyer(purchase_id));\n        require(erc20.transfer(msg.sender, purchases[purchase_id].amount));\n        purchases[purchase_id].wasFinalized = true;\n    }\n\n    /* Retrieve Minumum Amount */\n    function redeemGivenMinimumGoalNotAchieved(uint256 purchase_id) external isSaleFinalized isNotAtomicSwap {\n        require(hasMinimumRaise());\n        /* Confirm it exists and was not finalized */\n        require((purchases[purchase_id].amount != 0) && !purchases[purchase_id].wasFinalized);\n        require(isBuyer(purchase_id));\n        msg.sender.transfer(purchases[purchase_id].ethAmount);\n        purchases[purchase_id].wasFinalized = true;\n        purchases[purchase_id].reverted = true;\n    }\n\n    /* Admin Functions */\n\n    function withdrawFunds() external onlyOwner whenNotPaused isSaleFinalized {\n        //msg.sender.transfer(address(this).balance); /* Fee Address */\n        /* Confirm Minimum Amount was reached */\n        if(hasMinimumAmount()){\n            require(address(this).balance > cost(minimumRaise));\n        }\n        msg.sender.transfer(address(this).balance);\n    }  \n    \n    function withdrawUnsoldTokens() external onlyOwner isSaleFinalized {\n        if(availableTokens() > 0){\n            require(erc20.transfer(msg.sender, availableTokens()));\n        }\n    }   \n\n    function removeOtherERC20Tokens(address _tokenAddress, address _to) external onlyOwner isSaleFinalized {\n        ERC20 erc20Token = ERC20(_tokenAddress);\n        require(erc20Token.transfer(_to, erc20Token.balanceOf(address(this))));\n    }  \n\n\n}\n\n// TO DO : Add Fee to project",
  "sourcePath": "/Users/ruipedro/Desktop/projects/Staking/erc20/contracts/FixedSwap.sol",
  "compiler": {
    "name": "solc",
    "version": "0.5.8+commit.23d335f2.Emscripten.clang"
  },
  "schemaVersion": "3.2.4",
  "updatedAt": "2020-10-15T11:22:31.225Z",
  "devdoc": {
    "methods": {
      "pause()": {
        "details": "called by the owner to pause, triggers stopped state"
      },
      "transferOwnership(address)": {
        "details": "Allows the current owner to transfer control of the contract to a newOwner.",
        "params": {
          "newOwner": "The address to transfer ownership to."
        }
      },
      "unpause()": {
        "details": "called by the owner to unpause, returns to normal state"
      }
    }
  },
  "userdoc": {
    "methods": {}
  }
}