{
  "contractName": "FixedSwap",
  "abi": [
    {
      "constant": true,
      "inputs": [],
      "name": "startDate",
      "outputs": [
        {
          "name": "",
          "type": "uint256"
        }
      ],
      "payable": false,
      "stateMutability": "view",
      "type": "function"
    },
    {
      "constant": true,
      "inputs": [],
      "name": "tokensForSale",
      "outputs": [
        {
          "name": "",
          "type": "uint256"
        }
      ],
      "payable": false,
      "stateMutability": "view",
      "type": "function"
    },
    {
      "constant": true,
      "inputs": [],
      "name": "isSaleFunded",
      "outputs": [
        {
          "name": "",
          "type": "bool"
        }
      ],
      "payable": false,
      "stateMutability": "view",
      "type": "function"
    },
    {
      "constant": true,
      "inputs": [],
      "name": "isTokenSwapAtomic",
      "outputs": [
        {
          "name": "",
          "type": "bool"
        }
      ],
      "payable": false,
      "stateMutability": "view",
      "type": "function"
    },
    {
      "constant": true,
      "inputs": [],
      "name": "individualMinimumAmount",
      "outputs": [
        {
          "name": "",
          "type": "uint256"
        }
      ],
      "payable": false,
      "stateMutability": "view",
      "type": "function"
    },
    {
      "constant": false,
      "inputs": [],
      "name": "unpause",
      "outputs": [],
      "payable": false,
      "stateMutability": "nonpayable",
      "type": "function"
    },
    {
      "constant": false,
      "inputs": [],
      "name": "claimOwnership",
      "outputs": [],
      "payable": false,
      "stateMutability": "nonpayable",
      "type": "function"
    },
    {
      "constant": true,
      "inputs": [
        {
          "name": "",
          "type": "address"
        },
        {
          "name": "",
          "type": "uint256"
        }
      ],
      "name": "myPurchases",
      "outputs": [
        {
          "name": "",
          "type": "uint256"
        }
      ],
      "payable": false,
      "stateMutability": "view",
      "type": "function"
    },
    {
      "constant": true,
      "inputs": [],
      "name": "paused",
      "outputs": [
        {
          "name": "",
          "type": "bool"
        }
      ],
      "payable": false,
      "stateMutability": "view",
      "type": "function"
    },
    {
      "constant": true,
      "inputs": [],
      "name": "tradeValue",
      "outputs": [
        {
          "name": "",
          "type": "uint256"
        }
      ],
      "payable": false,
      "stateMutability": "view",
      "type": "function"
    },
    {
      "constant": true,
      "inputs": [],
      "name": "tokensAllocated",
      "outputs": [
        {
          "name": "",
          "type": "uint256"
        }
      ],
      "payable": false,
      "stateMutability": "view",
      "type": "function"
    },
    {
      "constant": true,
      "inputs": [],
      "name": "erc20",
      "outputs": [
        {
          "name": "",
          "type": "address"
        }
      ],
      "payable": false,
      "stateMutability": "view",
      "type": "function"
    },
    {
      "constant": true,
      "inputs": [
        {
          "name": "",
          "type": "uint256"
        }
      ],
      "name": "purchases",
      "outputs": [
        {
          "name": "amount",
          "type": "uint256"
        },
        {
          "name": "purchaser",
          "type": "address"
        },
        {
          "name": "ethAmount",
          "type": "uint256"
        },
        {
          "name": "timestamp",
          "type": "uint256"
        },
        {
          "name": "wasFinalized",
          "type": "bool"
        },
        {
          "name": "reverted",
          "type": "bool"
        }
      ],
      "payable": false,
      "stateMutability": "view",
      "type": "function"
    },
    {
      "constant": false,
      "inputs": [],
      "name": "pause",
      "outputs": [],
      "payable": false,
      "stateMutability": "nonpayable",
      "type": "function"
    },
    {
      "constant": true,
      "inputs": [],
      "name": "owner",
      "outputs": [
        {
          "name": "",
          "type": "address"
        }
      ],
      "payable": false,
      "stateMutability": "view",
      "type": "function"
    },
    {
      "constant": true,
      "inputs": [],
      "name": "minimumRaise",
      "outputs": [
        {
          "name": "",
          "type": "uint256"
        }
      ],
      "payable": false,
      "stateMutability": "view",
      "type": "function"
    },
    {
      "constant": true,
      "inputs": [],
      "name": "endDate",
      "outputs": [
        {
          "name": "",
          "type": "uint256"
        }
      ],
      "payable": false,
      "stateMutability": "view",
      "type": "function"
    },
    {
      "constant": true,
      "inputs": [],
      "name": "proposedOwner",
      "outputs": [
        {
          "name": "",
          "type": "address"
        }
      ],
      "payable": false,
      "stateMutability": "view",
      "type": "function"
    },
    {
      "constant": true,
      "inputs": [
        {
          "name": "",
          "type": "uint256"
        }
      ],
      "name": "purchaseIds",
      "outputs": [
        {
          "name": "",
          "type": "uint256"
        }
      ],
      "payable": false,
      "stateMutability": "view",
      "type": "function"
    },
    {
      "constant": true,
      "inputs": [],
      "name": "individualMaximumAmount",
      "outputs": [
        {
          "name": "",
          "type": "uint256"
        }
      ],
      "payable": false,
      "stateMutability": "view",
      "type": "function"
    },
    {
      "constant": true,
      "inputs": [
        {
          "name": "",
          "type": "uint256"
        }
      ],
      "name": "buyers",
      "outputs": [
        {
          "name": "",
          "type": "address"
        }
      ],
      "payable": false,
      "stateMutability": "view",
      "type": "function"
    },
    {
      "constant": false,
      "inputs": [
        {
          "name": "_proposedOwner",
          "type": "address"
        }
      ],
      "name": "transferOwnership",
      "outputs": [],
      "payable": false,
      "stateMutability": "nonpayable",
      "type": "function"
    },
    {
      "inputs": [
        {
          "name": "_tokenAddress",
          "type": "address"
        },
        {
          "name": "_tradeValue",
          "type": "uint256"
        },
        {
          "name": "_tokensForSale",
          "type": "uint256"
        },
        {
          "name": "_startDate",
          "type": "uint256"
        },
        {
          "name": "_endDate",
          "type": "uint256"
        },
        {
          "name": "_individualMinimumAmount",
          "type": "uint256"
        },
        {
          "name": "_individualMaximumAmount",
          "type": "uint256"
        },
        {
          "name": "_isTokenSwapAtomic",
          "type": "bool"
        },
        {
          "name": "_minimumRaise",
          "type": "uint256"
        }
      ],
      "payable": false,
      "stateMutability": "nonpayable",
      "type": "constructor"
    },
    {
      "anonymous": false,
      "inputs": [
        {
          "indexed": false,
          "name": "amount",
          "type": "uint256"
        },
        {
          "indexed": true,
          "name": "purchaser",
          "type": "address"
        },
        {
          "indexed": false,
          "name": "timestamp",
          "type": "uint256"
        }
      ],
      "name": "PurchaseEvent",
      "type": "event"
    },
    {
      "anonymous": false,
      "inputs": [],
      "name": "Pause",
      "type": "event"
    },
    {
      "anonymous": false,
      "inputs": [],
      "name": "Unpause",
      "type": "event"
    },
    {
      "anonymous": false,
      "inputs": [
        {
          "indexed": true,
          "name": "previousOwner",
          "type": "address"
        },
        {
          "indexed": true,
          "name": "newOwner",
          "type": "address"
        }
      ],
      "name": "OwnershipTransferred",
      "type": "event"
    },
    {
      "constant": true,
      "inputs": [
        {
          "name": "purchase_id",
          "type": "uint256"
        }
      ],
      "name": "isBuyer",
      "outputs": [
        {
          "name": "",
          "type": "bool"
        }
      ],
      "payable": false,
      "stateMutability": "view",
      "type": "function"
    },
    {
      "constant": true,
      "inputs": [],
      "name": "totalRaiseCost",
      "outputs": [
        {
          "name": "",
          "type": "uint256"
        }
      ],
      "payable": false,
      "stateMutability": "view",
      "type": "function"
    },
    {
      "constant": true,
      "inputs": [],
      "name": "availableTokens",
      "outputs": [
        {
          "name": "",
          "type": "uint256"
        }
      ],
      "payable": false,
      "stateMutability": "view",
      "type": "function"
    },
    {
      "constant": true,
      "inputs": [],
      "name": "tokensLeft",
      "outputs": [
        {
          "name": "",
          "type": "uint256"
        }
      ],
      "payable": false,
      "stateMutability": "view",
      "type": "function"
    },
    {
      "constant": true,
      "inputs": [],
      "name": "hasMinimumRaise",
      "outputs": [
        {
          "name": "",
          "type": "bool"
        }
      ],
      "payable": false,
      "stateMutability": "view",
      "type": "function"
    },
    {
      "constant": true,
      "inputs": [],
      "name": "hasFinalized",
      "outputs": [
        {
          "name": "",
          "type": "bool"
        }
      ],
      "payable": false,
      "stateMutability": "view",
      "type": "function"
    },
    {
      "constant": true,
      "inputs": [],
      "name": "hasStarted",
      "outputs": [
        {
          "name": "",
          "type": "bool"
        }
      ],
      "payable": false,
      "stateMutability": "view",
      "type": "function"
    },
    {
      "constant": true,
      "inputs": [],
      "name": "isPreStart",
      "outputs": [
        {
          "name": "",
          "type": "bool"
        }
      ],
      "payable": false,
      "stateMutability": "view",
      "type": "function"
    },
    {
      "constant": true,
      "inputs": [],
      "name": "isOpen",
      "outputs": [
        {
          "name": "",
          "type": "bool"
        }
      ],
      "payable": false,
      "stateMutability": "view",
      "type": "function"
    },
    {
      "constant": true,
      "inputs": [],
      "name": "hasMinimumAmount",
      "outputs": [
        {
          "name": "",
          "type": "bool"
        }
      ],
      "payable": false,
      "stateMutability": "view",
      "type": "function"
    },
    {
      "constant": true,
      "inputs": [
        {
          "name": "_amount",
          "type": "uint256"
        }
      ],
      "name": "cost",
      "outputs": [
        {
          "name": "",
          "type": "uint256"
        }
      ],
      "payable": false,
      "stateMutability": "view",
      "type": "function"
    },
    {
      "constant": true,
      "inputs": [
        {
          "name": "_purchase_id",
          "type": "uint256"
        }
      ],
      "name": "getPurchase",
      "outputs": [
        {
          "name": "",
          "type": "uint256"
        },
        {
          "name": "",
          "type": "address"
        },
        {
          "name": "",
          "type": "uint256"
        },
        {
          "name": "",
          "type": "uint256"
        },
        {
          "name": "",
          "type": "bool"
        },
        {
          "name": "",
          "type": "bool"
        }
      ],
      "payable": false,
      "stateMutability": "view",
      "type": "function"
    },
    {
      "constant": true,
      "inputs": [],
      "name": "getPurchaseIds",
      "outputs": [
        {
          "name": "",
          "type": "uint256[]"
        }
      ],
      "payable": false,
      "stateMutability": "view",
      "type": "function"
    },
    {
      "constant": true,
      "inputs": [],
      "name": "getBuyers",
      "outputs": [
        {
          "name": "",
          "type": "address[]"
        }
      ],
      "payable": false,
      "stateMutability": "view",
      "type": "function"
    },
    {
      "constant": true,
      "inputs": [
        {
          "name": "_address",
          "type": "address"
        }
      ],
      "name": "getMyPurchases",
      "outputs": [
        {
          "name": "",
          "type": "uint256[]"
        }
      ],
      "payable": false,
      "stateMutability": "view",
      "type": "function"
    },
    {
      "constant": false,
      "inputs": [
        {
          "name": "_amount",
          "type": "uint256"
        }
      ],
      "name": "fund",
      "outputs": [],
      "payable": false,
      "stateMutability": "nonpayable",
      "type": "function"
    },
    {
      "constant": false,
      "inputs": [
        {
          "name": "_amount",
          "type": "uint256"
        }
      ],
      "name": "swap",
      "outputs": [],
      "payable": true,
      "stateMutability": "payable",
      "type": "function"
    },
    {
      "constant": false,
      "inputs": [
        {
          "name": "purchase_id",
          "type": "uint256"
        }
      ],
      "name": "redeemTokens",
      "outputs": [],
      "payable": false,
      "stateMutability": "nonpayable",
      "type": "function"
    },
    {
      "constant": false,
      "inputs": [
        {
          "name": "purchase_id",
          "type": "uint256"
        }
      ],
      "name": "redeemGivenMinimumGoalNotAchieved",
      "outputs": [],
      "payable": false,
      "stateMutability": "nonpayable",
      "type": "function"
    },
    {
      "constant": false,
      "inputs": [],
      "name": "withdrawFunds",
      "outputs": [],
      "payable": false,
      "stateMutability": "nonpayable",
      "type": "function"
    },
    {
      "constant": false,
      "inputs": [],
      "name": "withdrawUnsoldTokens",
      "outputs": [],
      "payable": false,
      "stateMutability": "nonpayable",
      "type": "function"
    },
    {
      "constant": false,
      "inputs": [
        {
          "name": "_tokenAddress",
          "type": "address"
        },
        {
          "name": "_to",
          "type": "address"
        }
      ],
      "name": "removeOtherERC20Tokens",
      "outputs": [],
      "payable": false,
      "stateMutability": "nonpayable",
      "type": "function"
    }
  ],
  "bytecode": "0x60806040526000600160146101000a81548160ff02191690831515021790555060006002556000600760146101000a81548160ff0219169083151502179055506000600b556000600c556000600d556000600e556000600f553480156200006557600080fd5b50604051610120806200311b83398101806040526101208110156200008957600080fd5b81019080805190602001909291908051906020019092919080519060200190929190805190602001909291908051906020019092919080519060200190929190805190602001909291908051906020019092919080519060200190929190505050336000806101000a81548173ffffffffffffffffffffffffffffffffffffffff021916908373ffffffffffffffffffffffffffffffffffffffff16021790555033600160006101000a81548173ffffffffffffffffffffffffffffffffffffffff021916908373ffffffffffffffffffffffffffffffffffffffff160217905550844210620001c5576040517f08c379a000000000000000000000000000000000000000000000000000000000815260040180806020018281038252602c81526020018062003052602c913960400191505060405180910390fd5b8542106200021f576040517f08c379a000000000000000000000000000000000000000000000000000000000815260040180806020018281038252602c81526020018062003052602c913960400191505060405180910390fd5b84861062000295576040517f08c379a000000000000000000000000000000000000000000000000000000000815260040180806020018281038252601f8152602001807f456e64204461746520686967686572207468616e20537461727420446174650081525060200191505060405180910390fd5b600087116200030c576040517f08c379a000000000000000000000000000000000000000000000000000000000815260040180806020018281038252601d8152602001807f546f6b656e7320666f722053616c652073686f756c64206265203e203000000081525060200191505060405180910390fd5b83871162000366576040517f08c379a0000000000000000000000000000000000000000000000000000000008152600401808060200182810382526035815260200180620030e66035913960400191505060405180910390fd5b83831015620003c1576040517f08c379a000000000000000000000000000000000000000000000000000000000815260040180806020018281038252603f8152602001806200307e603f913960400191505060405180910390fd5b86600d5411156200041e576040517f08c379a0000000000000000000000000000000000000000000000000000000008152600401808060200182810382526029815260200180620030bd6029913960400191505060405180910390fd5b8560098190555084600a8190555086600f819055508760088190555083600b8190555082600c8190555081601060006101000a81548160ff02191690831515021790555081620004705780600d819055505b88600760006101000a81548173ffffffffffffffffffffffffffffffffffffffff021916908373ffffffffffffffffffffffffffffffffffffffff160217905550505050505050505050612b8880620004ca6000396000f3fe6080604052600436106102675760003560e01c8063785e9e8611610144578063c3ca324f116100b6578063e4101de51161007a578063e4101de514610bc9578063efbb34d514610bf4578063f2aa821814610c1f578063f2fde38b14610c9a578063f64bfaba14610ceb578063fecf415a14610d5757610267565b8063c3ca324f14610a2b578063c8bdbfb614610ad1578063ca1d209d14610ae8578063d153b60c14610b23578063d65fb16014610b7a57610267565b80639097548d116101085780639097548d146108ac578063917c854d146108fb57806394b918de1461096c578063a6e158f81461099a578063b31f8f93146109d5578063c24a0f8b14610a0057610267565b8063785e9e86146107165780638392fe311461076d5780638456cb59146108135780638da5cb5b1461082a5780638e75b1311461088157610267565b80634089aa9a116101dd5780635c975abb116101a15780635c975abb146105cb5780636295a2f4146105fa57806369bb4dc2146106255780636a93df111461065057806370a898bc146106bc578063755e3e28146106eb57610267565b80634089aa9a146104b857806344691f7e146104e757806347535d7b146105165780634e71e0c8146105455780635ac699bb1461055c57610267565b806321d3002a1161022f57806321d3002a1461035b57806324600fc31461038a5780632e154107146103a15780632ebb5c1e146103cc5780633742a9f7146103fb5780633f4ba83a146104a157610267565b80630b97bc861461026c57806312aef8c31461029757806315b57866146102c2578063161a7b2a146102f15780631de18af714610320575b600080fd5b34801561027857600080fd5b50610281610daa565b6040518082815260200191505060405180910390f35b3480156102a357600080fd5b506102ac610db0565b6040518082815260200191505060405180910390f35b3480156102ce57600080fd5b506102d7610db6565b604051808215151515815260200191505060405180910390f35b3480156102fd57600080fd5b50610306610dc3565b604051808215151515815260200191505060405180910390f35b34801561032c57600080fd5b506103596004803603602081101561034357600080fd5b8101908080359060200190929190505050610dd6565b005b34801561036757600080fd5b50610370610f33565b604051808215151515815260200191505060405180910390f35b34801561039657600080fd5b5061039f610f46565b005b3480156103ad57600080fd5b506103b66111af565b6040518082815260200191505060405180910390f35b3480156103d857600080fd5b506103e16111b5565b604051808215151515815260200191505060405180910390f35b34801561040757600080fd5b506104346004803603602081101561041e57600080fd5b81019080803590602001909291905050506111c1565b604051808781526020018673ffffffffffffffffffffffffffffffffffffffff1673ffffffffffffffffffffffffffffffffffffffff1681526020018581526020018481526020018315151515815260200182151515158152602001965050505050505060405180910390f35b3480156104ad57600080fd5b506104b66112d0565b005b3480156104c457600080fd5b506104cd61138b565b604051808215151515815260200191505060405180910390f35b3480156104f357600080fd5b506104fc611397565b604051808215151515815260200191505060405180910390f35b34801561052257600080fd5b5061052b6113a4565b604051808215151515815260200191505060405180910390f35b34801561055157600080fd5b5061055a6113c4565b005b34801561056857600080fd5b506105b56004803603604081101561057f57600080fd5b81019080803573ffffffffffffffffffffffffffffffffffffffff16906020019092919080359060200190929190505050611561565b6040518082815260200191505060405180910390f35b3480156105d757600080fd5b506105e061158f565b604051808215151515815260200191505060405180910390f35b34801561060657600080fd5b5061060f6115a2565b6040518082815260200191505060405180910390f35b34801561063157600080fd5b5061063a6115a8565b6040518082815260200191505060405180910390f35b34801561065c57600080fd5b50610665611689565b6040518080602001828103825283818151815260200191508051906020019060200280838360005b838110156106a857808201518184015260208101905061068d565b505050509050019250505060405180910390f35b3480156106c857600080fd5b506106d16116e1565b604051808215151515815260200191505060405180910390f35b3480156106f757600080fd5b506107006116ee565b6040518082815260200191505060405180910390f35b34801561072257600080fd5b5061072b6116f4565b604051808273ffffffffffffffffffffffffffffffffffffffff1673ffffffffffffffffffffffffffffffffffffffff16815260200191505060405180910390f35b34801561077957600080fd5b506107a66004803603602081101561079057600080fd5b810190808035906020019092919050505061171a565b604051808781526020018673ffffffffffffffffffffffffffffffffffffffff1673ffffffffffffffffffffffffffffffffffffffff1681526020018581526020018481526020018315151515815260200182151515158152602001965050505050505060405180910390f35b34801561081f57600080fd5b50610828611790565b005b34801561083657600080fd5b5061083f61184b565b604051808273ffffffffffffffffffffffffffffffffffffffff1673ffffffffffffffffffffffffffffffffffffffff16815260200191505060405180910390f35b34801561088d57600080fd5b50610896611870565b6040518082815260200191505060405180910390f35b3480156108b857600080fd5b506108e5600480360360208110156108cf57600080fd5b8101908080359060200190929190505050611876565b6040518082815260200191505060405180910390f35b34801561090757600080fd5b5061096a6004803603604081101561091e57600080fd5b81019080803573ffffffffffffffffffffffffffffffffffffffff169060200190929190803573ffffffffffffffffffffffffffffffffffffffff1690602001909291905050506118ae565b005b6109986004803603602081101561098257600080fd5b8101908080359060200190929190505050611aff565b005b3480156109a657600080fd5b506109d3600480360360208110156109bd57600080fd5b81019080803590602001909291905050506120a4565b005b3480156109e157600080fd5b506109ea612281565b6040518082815260200191505060405180910390f35b348015610a0c57600080fd5b50610a1561228f565b6040518082815260200191505060405180910390f35b348015610a3757600080fd5b50610a7a60048036036020811015610a4e57600080fd5b81019080803573ffffffffffffffffffffffffffffffffffffffff169060200190929190505050612295565b6040518080602001828103825283818151815260200191508051906020019060200280838360005b83811015610abd578082015181840152602081019050610aa2565b505050509050019250505060405180910390f35b348015610add57600080fd5b50610ae661232c565b005b348015610af457600080fd5b50610b2160048036036020811015610b0b57600080fd5b810190808035906020019092919050505061249d565b005b348015610b2f57600080fd5b50610b38612627565b604051808273ffffffffffffffffffffffffffffffffffffffff1673ffffffffffffffffffffffffffffffffffffffff16815260200191505060405180910390f35b348015610b8657600080fd5b50610bb360048036036020811015610b9d57600080fd5b810190808035906020019092919050505061264d565b6040518082815260200191505060405180910390f35b348015610bd557600080fd5b50610bde61266e565b6040518082815260200191505060405180910390f35b348015610c0057600080fd5b50610c09612674565b6040518082815260200191505060405180910390f35b348015610c2b57600080fd5b50610c5860048036036020811015610c4257600080fd5b8101908080359060200190929190505050612686565b604051808273ffffffffffffffffffffffffffffffffffffffff1673ffffffffffffffffffffffffffffffffffffffff16815260200191505060405180910390f35b348015610ca657600080fd5b50610ce960048036036020811015610cbd57600080fd5b81019080803573ffffffffffffffffffffffffffffffffffffffff1690602001909291905050506126c2565b005b348015610cf757600080fd5b50610d00612798565b6040518080602001828103825283818151815260200191508051906020019060200280838360005b83811015610d43578082015181840152602081019050610d28565b505050509050019250505060405180910390f35b348015610d6357600080fd5b50610d9060048036036020811015610d7a57600080fd5b8101908080359060200190929190505050612826565b604051808215151515815260200191505060405180910390f35b60095481565b600f5481565b600080600d541415905090565b600760149054906101000a900460ff1681565b610dde61138b565b610de757600080fd5b601060009054906101000a900460ff1615610e0157600080fd5b610e09610db6565b610e1257600080fd5b6000600360008381526020019081526020016000206000015414158015610e5a57506003600082815260200190815260200160002060040160009054906101000a900460ff16155b610e6357600080fd5b610e6c81612826565b610e7557600080fd5b60016003600083815260200190815260200160002060040160006101000a81548160ff02191690831515021790555060016003600083815260200190815260200160002060040160016101000a81548160ff0219169083151502179055503373ffffffffffffffffffffffffffffffffffffffff166108fc60036000848152602001908152602001600020600201549081150290604051600060405180830381858888f19350505050158015610f2f573d6000803e3d6000fd5b5050565b601060009054906101000a900460ff1681565b6000809054906101000a900473ffffffffffffffffffffffffffffffffffffffff1673ffffffffffffffffffffffffffffffffffffffff163373ffffffffffffffffffffffffffffffffffffffff1614610f9f57600080fd5b600160149054906101000a900460ff1615610fb957600080fd5b610fc161138b565b610fca57600080fd5b610fd26116e1565b1561114f57610fe2600d54611876565b3073ffffffffffffffffffffffffffffffffffffffff1631101561100557600080fd5b600080905060008090505b60058054905081101561113557611025612aeb565b600360006005848154811061103657fe5b906000526020600020015481526020019081526020016000206040518060c0016040529081600082015481526020016001820160009054906101000a900473ffffffffffffffffffffffffffffffffffffffff1673ffffffffffffffffffffffffffffffffffffffff1673ffffffffffffffffffffffffffffffffffffffff16815260200160028201548152602001600382015481526020016004820160009054906101000a900460ff161515151581526020016004820160019054906101000a900460ff16151515158152505090506111256111168260000151611876565b8461289490919063ffffffff16565b9250508080600101915050611010565b50611141600d54611876565b81101561114d57600080fd5b505b3373ffffffffffffffffffffffffffffffffffffffff166108fc3073ffffffffffffffffffffffffffffffffffffffff16319081150290604051600060405180830381858888f193505050501580156111ac573d6000803e3d6000fd5b50565b600b5481565b60006009544210905090565b6000806000806000806111d2612aeb565b600360008981526020019081526020016000206040518060c0016040529081600082015481526020016001820160009054906101000a900473ffffffffffffffffffffffffffffffffffffffff1673ffffffffffffffffffffffffffffffffffffffff1673ffffffffffffffffffffffffffffffffffffffff16815260200160028201548152602001600382015481526020016004820160009054906101000a900460ff161515151581526020016004820160019054906101000a900460ff1615151515815250509050806000015181602001518260400151836060015184608001518560a001519650965096509650965096505091939550919395565b6000809054906101000a900473ffffffffffffffffffffffffffffffffffffffff1673ffffffffffffffffffffffffffffffffffffffff163373ffffffffffffffffffffffffffffffffffffffff161461132957600080fd5b600160149054906101000a900460ff1661134257600080fd5b6000600160146101000a81548160ff0219169083151502179055507f7805862f689e2f13df9f062ff482ad3ad112aca9e0847911ed832e158c525b3360405160405180910390a1565b6000600a544211905090565b6000600954421015905090565b60006113ae611397565b80156113bf57506113bd61138b565b155b905090565b600160009054906101000a900473ffffffffffffffffffffffffffffffffffffffff1673ffffffffffffffffffffffffffffffffffffffff163373ffffffffffffffffffffffffffffffffffffffff161461141e57600080fd5b600160009054906101000a900473ffffffffffffffffffffffffffffffffffffffff1673ffffffffffffffffffffffffffffffffffffffff166000809054906101000a900473ffffffffffffffffffffffffffffffffffffffff1673ffffffffffffffffffffffffffffffffffffffff167f8be0079c531659141344cd1fd0a4f28419497f9722a3daafe3b4186f6b6457e060405160405180910390a3600160009054906101000a900473ffffffffffffffffffffffffffffffffffffffff166000806101000a81548173ffffffffffffffffffffffffffffffffffffffff021916908373ffffffffffffffffffffffffffffffffffffffff1602179055506000600160006101000a81548173ffffffffffffffffffffffffffffffffffffffff021916908373ffffffffffffffffffffffffffffffffffffffff160217905550565b6006602052816000526040600020818154811061157a57fe5b90600052602060002001600091509150505481565b600160149054906101000a900460ff1681565b60085481565b6000600760009054906101000a900473ffffffffffffffffffffffffffffffffffffffff1673ffffffffffffffffffffffffffffffffffffffff166370a08231306040518263ffffffff1660e01b8152600401808273ffffffffffffffffffffffffffffffffffffffff1673ffffffffffffffffffffffffffffffffffffffff16815260200191505060206040518083038186803b15801561164957600080fd5b505afa15801561165d573d6000803e3d6000fd5b505050506040513d602081101561167357600080fd5b8101908080519060200190929190505050905090565b606060058054806020026020016040519081016040528092919081815260200182805480156116d757602002820191906000526020600020905b8154815260200190600101908083116116c3575b5050505050905090565b600080600b541415905090565b600e5481565b600760009054906101000a900473ffffffffffffffffffffffffffffffffffffffff1681565b60036020528060005260406000206000915090508060000154908060010160009054906101000a900473ffffffffffffffffffffffffffffffffffffffff16908060020154908060030154908060040160009054906101000a900460ff16908060040160019054906101000a900460ff16905086565b6000809054906101000a900473ffffffffffffffffffffffffffffffffffffffff1673ffffffffffffffffffffffffffffffffffffffff163373ffffffffffffffffffffffffffffffffffffffff16146117e957600080fd5b600160149054906101000a900460ff161561180357600080fd5b60018060146101000a81548160ff0219169083151502179055507f6985a02210a168e66602d3235cb6db0e70f92b3ba4d376a33c0f3d9434bff62560405160405180910390a1565b6000809054906101000a900473ffffffffffffffffffffffffffffffffffffffff1681565b600d5481565b60006118a7670de0b6b3a76400006118996008548561291c90919063ffffffff16565b6129a290919063ffffffff16565b9050919050565b6000809054906101000a900473ffffffffffffffffffffffffffffffffffffffff1673ffffffffffffffffffffffffffffffffffffffff163373ffffffffffffffffffffffffffffffffffffffff161461190757600080fd5b61190f61138b565b61191857600080fd5b600760009054906101000a900473ffffffffffffffffffffffffffffffffffffffff1673ffffffffffffffffffffffffffffffffffffffff168273ffffffffffffffffffffffffffffffffffffffff16141561197357600080fd5b60008290508073ffffffffffffffffffffffffffffffffffffffff1663a9059cbb838373ffffffffffffffffffffffffffffffffffffffff166370a08231306040518263ffffffff1660e01b8152600401808273ffffffffffffffffffffffffffffffffffffffff1673ffffffffffffffffffffffffffffffffffffffff16815260200191505060206040518083038186803b158015611a1257600080fd5b505afa158015611a26573d6000803e3d6000fd5b505050506040513d6020811015611a3c57600080fd5b81019080805190602001909291905050506040518363ffffffff1660e01b8152600401808373ffffffffffffffffffffffffffffffffffffffff1673ffffffffffffffffffffffffffffffffffffffff16815260200182815260200192505050602060405180830381600087803b158015611ab657600080fd5b505af1158015611aca573d6000803e3d6000fd5b505050506040513d6020811015611ae057600080fd5b8101908080519060200190929190505050611afa57600080fd5b505050565b600160149054906101000a900460ff1615611b1957600080fd5b600760149054906101000a900460ff16611b3257600080fd5b611b3a6113a4565b611b4357600080fd5b60008111611b5057600080fd5b611b58612281565b811115611b6457600080fd5b611b6d81611876565b3414611b7857600080fd5b600b54811015611b8757600080fd5b600c54811115611b9657600080fd5b6060611ba133612295565b9050600080905060008090505b8251811015611cc357611bbf612aeb565b60036000858481518110611bcf57fe5b602002602001015181526020019081526020016000206040518060c0016040529081600082015481526020016001820160009054906101000a900473ffffffffffffffffffffffffffffffffffffffff1673ffffffffffffffffffffffffffffffffffffffff1673ffffffffffffffffffffffffffffffffffffffff16815260200160028201548152602001600382015481526020016004820160009054906101000a900460ff161515151581526020016004820160019054906101000a900460ff1615151515815250509050611cb381600001518461289490919063ffffffff16565b9250508080600101915050611bae565b50600c54611cda848361289490919063ffffffff16565b1115611ce557600080fd5b601060009054906101000a900460ff1615611de857600760009054906101000a900473ffffffffffffffffffffffffffffffffffffffff1673ffffffffffffffffffffffffffffffffffffffff1663a9059cbb33856040518363ffffffff1660e01b8152600401808373ffffffffffffffffffffffffffffffffffffffff1673ffffffffffffffffffffffffffffffffffffffff16815260200182815260200192505050602060405180830381600087803b158015611da357600080fd5b505af1158015611db7573d6000803e3d6000fd5b505050506040513d6020811015611dcd57600080fd5b8101908080519060200190929190505050611de757600080fd5b5b6000600254611df56129ec565b019050611e0e600160025461289490919063ffffffff16565b600281905550611e1c612aeb565b6040518060c001604052808681526020013373ffffffffffffffffffffffffffffffffffffffff168152602001348152602001428152602001601060009054906101000a900460ff161515815260200160001515815250905080600360008481526020019081526020016000206000820151816000015560208201518160010160006101000a81548173ffffffffffffffffffffffffffffffffffffffff021916908373ffffffffffffffffffffffffffffffffffffffff160217905550604082015181600201556060820151816003015560808201518160040160006101000a81548160ff02191690831515021790555060a08201518160040160016101000a81548160ff0219169083151502179055509050506005829080600181540180825580915050906001820390600052602060002001600090919290919091505550600660003373ffffffffffffffffffffffffffffffffffffffff1673ffffffffffffffffffffffffffffffffffffffff16815260200190815260200160002082908060018154018082558091505090600182039060005260206000200160009091929091909150555060043390806001815401808255809150509060018203906000526020600020016000909192909190916101000a81548173ffffffffffffffffffffffffffffffffffffffff021916908373ffffffffffffffffffffffffffffffffffffffff1602179055505061204185600e5461289490919063ffffffff16565b600e819055503373ffffffffffffffffffffffffffffffffffffffff167fbec109f7ee137de661c6887caa96653c0545050a9908a3b6eb5190440bbec8648642604051808381526020018281526020019250505060405180910390a25050505050565b601060009054906101000a900460ff16156120be57600080fd5b6120c661138b565b6120cf57600080fd5b600160149054906101000a900460ff16156120e957600080fd5b600060036000838152602001908152602001600020600001541415801561213157506003600082815260200190815260200160002060040160009054906101000a900460ff16155b61213a57600080fd5b61214381612826565b61214c57600080fd5b60016003600083815260200190815260200160002060040160006101000a81548160ff021916908315150217905550600760009054906101000a900473ffffffffffffffffffffffffffffffffffffffff1673ffffffffffffffffffffffffffffffffffffffff1663a9059cbb3360036000858152602001908152602001600020600001546040518363ffffffff1660e01b8152600401808373ffffffffffffffffffffffffffffffffffffffff1673ffffffffffffffffffffffffffffffffffffffff16815260200182815260200192505050602060405180830381600087803b15801561223a57600080fd5b505af115801561224e573d6000803e3d6000fd5b505050506040513d602081101561226457600080fd5b810190808051906020019092919050505061227e57600080fd5b50565b6000600e54600f5403905090565b600a5481565b6060600660008373ffffffffffffffffffffffffffffffffffffffff1673ffffffffffffffffffffffffffffffffffffffff16815260200190815260200160002080548060200260200160405190810160405280929190818152602001828054801561232057602002820191906000526020600020905b81548152602001906001019080831161230c575b50505050509050919050565b6000809054906101000a900473ffffffffffffffffffffffffffffffffffffffff1673ffffffffffffffffffffffffffffffffffffffff163373ffffffffffffffffffffffffffffffffffffffff161461238557600080fd5b61238d61138b565b61239657600080fd5b60006123a06115a8565b111561249b57600760009054906101000a900473ffffffffffffffffffffffffffffffffffffffff1673ffffffffffffffffffffffffffffffffffffffff1663a9059cbb336123ed6115a8565b6040518363ffffffff1660e01b8152600401808373ffffffffffffffffffffffffffffffffffffffff1673ffffffffffffffffffffffffffffffffffffffff16815260200182815260200192505050602060405180830381600087803b15801561245657600080fd5b505af115801561246a573d6000803e3d6000fd5b505050506040513d602081101561248057600080fd5b810190808051906020019092919050505061249a57600080fd5b5b565b6124a56111b5565b6124ae57600080fd5b600f546124cb826124bd6115a8565b61289490919063ffffffff16565b11156124d657600080fd5b600760009054906101000a900473ffffffffffffffffffffffffffffffffffffffff1673ffffffffffffffffffffffffffffffffffffffff166323b872dd3330846040518463ffffffff1660e01b8152600401808473ffffffffffffffffffffffffffffffffffffffff1673ffffffffffffffffffffffffffffffffffffffff1681526020018373ffffffffffffffffffffffffffffffffffffffff1673ffffffffffffffffffffffffffffffffffffffff1681526020018281526020019350505050602060405180830381600087803b1580156125b357600080fd5b505af11580156125c7573d6000803e3d6000fd5b505050506040513d60208110156125dd57600080fd5b81019080805190602001909291905050506125f757600080fd5b600f546126026115a8565b1415612624576001600760146101000a81548160ff0219169083151502179055505b50565b600160009054906101000a900473ffffffffffffffffffffffffffffffffffffffff1681565b6005818154811061265a57fe5b906000526020600020016000915090505481565b600c5481565b6000612681600f54611876565b905090565b6004818154811061269357fe5b906000526020600020016000915054906101000a900473ffffffffffffffffffffffffffffffffffffffff1681565b6000809054906101000a900473ffffffffffffffffffffffffffffffffffffffff1673ffffffffffffffffffffffffffffffffffffffff163373ffffffffffffffffffffffffffffffffffffffff161461271b57600080fd5b8073ffffffffffffffffffffffffffffffffffffffff163373ffffffffffffffffffffffffffffffffffffffff16141561275457600080fd5b80600160006101000a81548173ffffffffffffffffffffffffffffffffffffffff021916908373ffffffffffffffffffffffffffffffffffffffff16021790555050565b6060600480548060200260200160405190810160405280929190818152602001828054801561281c57602002820191906000526020600020905b8160009054906101000a900473ffffffffffffffffffffffffffffffffffffffff1673ffffffffffffffffffffffffffffffffffffffff16815260200190600101908083116127d2575b5050505050905090565b60006003600083815260200190815260200160002060010160009054906101000a900473ffffffffffffffffffffffffffffffffffffffff1673ffffffffffffffffffffffffffffffffffffffff163373ffffffffffffffffffffffffffffffffffffffff16149050919050565b600080828401905083811015612912576040517f08c379a000000000000000000000000000000000000000000000000000000000815260040180806020018281038252601b8152602001807f536166654d6174683a206164646974696f6e206f766572666c6f77000000000081525060200191505060405180910390fd5b8091505092915050565b60008083141561292f576000905061299c565b600082840290508284828161294057fe5b0414612997576040517f08c379a0000000000000000000000000000000000000000000000000000000008152600401808060200182810382526021815260200180612b3c6021913960400191505060405180910390fd5b809150505b92915050565b60006129e483836040518060400160405280601a81526020017f536166654d6174683a206469766973696f6e206279207a65726f000000000000815250612a25565b905092915050565b6000444260405160200180838152602001828152602001925050506040516020818303038152906040528051906020012060001c905090565b60008083118290612ad1576040517f08c379a00000000000000000000000000000000000000000000000000000000081526004018080602001828103825283818151815260200191508051906020019080838360005b83811015612a96578082015181840152602081019050612a7b565b50505050905090810190601f168015612ac35780820380516001836020036101000a031916815260200191505b509250505060405180910390fd5b506000838581612add57fe5b049050809150509392505050565b6040518060c0016040528060008152602001600073ffffffffffffffffffffffffffffffffffffffff1681526020016000815260200160008152602001600015158152602001600015158152509056fe536166654d6174683a206d756c7469706c69636174696f6e206f766572666c6f77a165627a7a72305820e48504f78530897dc34deba40fcff7f12e39fb043209bc5d7fdfad122d65a25b0029456e6420446174652073686f756c642062652066757274686572207468616e2063757272656e742064617465496e646976696475616c204d6178696d696d20414d6f756e742073686f756c64206265203e20496e646976696475616c204d696e696d756d20416d6f756e744d696e696d756d2052616973652073686f756c64206265203c20546f6b656e7320466f722053616c65546f6b656e7320666f722053616c652073686f756c64206265203e20496e646976696475616c204d696e696d756d20416d6f756e74",
  "source": "pragma solidity 0.5.8; \n\n/**\n * @title ERC20Basic\n * @dev Simpler version of ERC20 interface\n * @dev see https://github.com/ethereum/EIPs/issues/179\n */\ncontract ERC20Basic {\n    function totalSupply() public view returns (uint256);\n    function balanceOf(address who) public view returns (uint256);\n    function transfer(address to, uint256 value) public returns (bool);\n    event Transfer(address indexed from, address indexed to, uint256 value);\n}\n\n/**\n * @dev Wrappers over Solidity's arithmetic operations with added overflow\n * checks.\n *\n * Arithmetic operations in Solidity wrap on overflow. This can easily result\n * in bugs, because programmers usually assume that an overflow raises an\n * error, which is the standard behavior in high level programming languages.\n * `SafeMath` restores this intuition by reverting the transaction when an\n * operation overflows.\n *\n * Using this library instead of the unchecked operations eliminates an entire\n * class of bugs, so it's recommended to use it always.\n */\nlibrary SafeMath {\n    /**\n     * @dev Returns the addition of two unsigned integers, reverting on\n     * overflow.\n     *\n     * Counterpart to Solidity's `+` operator.\n     *\n     * Requirements:\n     * - Addition cannot overflow.\n     */\n    function add(uint256 a, uint256 b) internal pure returns (uint256) {\n        uint256 c = a + b;\n        require(c >= a, \"SafeMath: addition overflow\");\n\n        return c;\n    }\n\n    /**\n     * @dev Returns the subtraction of two unsigned integers, reverting on\n     * overflow (when the result is negative).\n     *\n     * Counterpart to Solidity's `-` operator.\n     *\n     * Requirements:\n     * - Subtraction cannot overflow.\n     */\n    function sub(uint256 a, uint256 b) internal pure returns (uint256) {\n        return sub(a, b, \"SafeMath: subtraction overflow\");\n    }\n\n    /**\n     * @dev Returns the subtraction of two unsigned integers, reverting with custom message on\n     * overflow (when the result is negative).\n     *\n     * Counterpart to Solidity's `-` operator.\n     *\n     * Requirements:\n     * - Subtraction cannot overflow.\n     *\n     * _Available since v2.4.0._\n     */\n    function sub(uint256 a, uint256 b, string memory errorMessage) internal pure returns (uint256) {\n        require(b <= a, errorMessage);\n        uint256 c = a - b;\n\n        return c;\n    }\n\n    /**\n     * @dev Returns the multiplication of two unsigned integers, reverting on\n     * overflow.\n     *\n     * Counterpart to Solidity's `*` operator.\n     *\n     * Requirements:\n     * - Multiplication cannot overflow.\n     */\n    function mul(uint256 a, uint256 b) internal pure returns (uint256) {\n        // Gas optimization: this is cheaper than requiring 'a' not being zero, but the\n        // benefit is lost if 'b' is also tested.\n        // See: https://github.com/OpenZeppelin/openzeppelin-contracts/pull/522\n        if (a == 0) {\n            return 0;\n        }\n\n        uint256 c = a * b;\n        require(c / a == b, \"SafeMath: multiplication overflow\");\n\n        return c;\n    }\n\n    /**\n     * @dev Returns the integer division of two unsigned integers. Reverts on\n     * division by zero. The result is rounded towards zero.\n     *\n     * Counterpart to Solidity's `/` operator. Note: this function uses a\n     * `revert` opcode (which leaves remaining gas untouched) while Solidity\n     * uses an invalid opcode to revert (consuming all remaining gas).\n     *\n     * Requirements:\n     * - The divisor cannot be zero.\n     */\n    function div(uint256 a, uint256 b) internal pure returns (uint256) {\n        return div(a, b, \"SafeMath: division by zero\");\n    }\n\n    /**\n     * @dev Returns the integer division of two unsigned integers. Reverts with custom message on\n     * division by zero. The result is rounded towards zero.\n     *\n     * Counterpart to Solidity's `/` operator. Note: this function uses a\n     * `revert` opcode (which leaves remaining gas untouched) while Solidity\n     * uses an invalid opcode to revert (consuming all remaining gas).\n     *\n     * Requirements:\n     * - The divisor cannot be zero.\n     *\n     * _Available since v2.4.0._\n     */\n    function div(uint256 a, uint256 b, string memory errorMessage) internal pure returns (uint256) {\n        // Solidity only automatically asserts when dividing by 0\n        require(b > 0, errorMessage);\n        uint256 c = a / b;\n        // assert(a == b * c + a % b); // There is no case in which this doesn't hold\n\n        return c;\n    }\n\n    /**\n     * @dev Returns the remainder of dividing two unsigned integers. (unsigned integer modulo),\n     * Reverts when dividing by zero.\n     *\n     * Counterpart to Solidity's `%` operator. This function uses a `revert`\n     * opcode (which leaves remaining gas untouched) while Solidity uses an\n     * invalid opcode to revert (consuming all remaining gas).\n     *\n     * Requirements:\n     * - The divisor cannot be zero.\n     */\n    function mod(uint256 a, uint256 b) internal pure returns (uint256) {\n        return mod(a, b, \"SafeMath: modulo by zero\");\n    }\n\n    /**\n     * @dev Returns the remainder of dividing two unsigned integers. (unsigned integer modulo),\n     * Reverts with custom message when dividing by zero.\n     *\n     * Counterpart to Solidity's `%` operator. This function uses a `revert`\n     * opcode (which leaves remaining gas untouched) while Solidity uses an\n     * invalid opcode to revert (consuming all remaining gas).\n     *\n     * Requirements:\n     * - The divisor cannot be zero.\n     *\n     * _Available since v2.4.0._\n     */\n    function mod(uint256 a, uint256 b, string memory errorMessage) internal pure returns (uint256) {\n        require(b != 0, errorMessage);\n        return a % b;\n    }\n}\n\n// File: openzeppelin-solidity/contracts/token/ERC20/ERC20.sol\n\n/**\n * @title ERC20 interface\n * @dev see https://github.com/ethereum/EIPs/issues/20\n */\ncontract ERC20 is ERC20Basic {\n  function allowance(address owner, address spender) public view returns (uint256);\n  function transferFrom(address from, address to, uint256 value) public returns (bool);\n  function approve(address spender, uint256 value) public returns (bool);\n  event Approval(address indexed owner, address indexed spender, uint256 value);\n}\n\n// File: openzeppelin-solidity/contracts/ownership/Ownable.sol\n\n/**\n * @title Ownable\n * @dev The Ownable contract has an owner address, and provides basic authorization control\n * functions, this simplifies the implementation of \"user permissions\".\n */\ncontract Ownable {\n    address public owner;\n    address public proposedOwner;\n    event OwnershipTransferred(address indexed previousOwner, address indexed newOwner);\n\n\n    /**\n    * @dev The Ownable constructor sets the original `owner` of the contract to the sender\n    * account.\n    */\n    constructor() public {\n        owner = msg.sender;\n        proposedOwner = msg.sender;\n    }\n\n    /**\n    * @dev Throws if called by any account other than the owner.\n    */\n    modifier onlyOwner() {\n        require(msg.sender == owner);\n        _;\n    }\n\n    function transferOwnership(address _proposedOwner) public onlyOwner {\n        require(msg.sender != _proposedOwner);\n        proposedOwner = _proposedOwner;\n    }\n\n    function claimOwnership() public {\n        require(msg.sender == proposedOwner);\n        emit OwnershipTransferred(owner, proposedOwner);\n        owner = proposedOwner;\n        proposedOwner = address(0);\n    }\n}\n\n// File: openzeppelin-solidity/contracts/lifecycle/Pausable.sol\n\n/**\n * @title Pausable\n * @dev Base contract which allows children to implement an emergency stop mechanism.\n */\ncontract Pausable is Ownable {\n    event Pause();\n    event Unpause();\n\n    bool public paused = false;\n\n\n    /**\n    * @dev Modifier to make a function callable only when the contract is not paused.\n    */\n    modifier whenNotPaused() {\n        require(!paused);\n        _;\n    }\n\n    /**\n    * @dev Modifier to make a function callable only when the contract is paused.\n    */\n    modifier whenPaused() {\n        require(paused);\n        _;\n    }\n\n    /**\n    * @dev called by the owner to pause, triggers stopped state\n    */\n    function pause() onlyOwner whenNotPaused public {\n        paused = true;\n        emit Pause();\n    }\n\n    /**\n    * @dev called by the owner to unpause, returns to normal state\n    */\n    function unpause() onlyOwner whenPaused public {\n        paused = false;\n        emit Unpause();\n    }\n}\n\ncontract FixedSwap is Pausable {\n    using SafeMath for uint256;\n    uint256 increment = 0;\n\n    mapping(uint256 => Purchase) public purchases; /* Purchasers mapping */\n    address[] public buyers; /* Current Buyers Addresses */\n    uint256[] public purchaseIds; /* All purchaseIds */\n    mapping(address => uint256[]) public myPurchases; /* Purchasers mapping */\n\n    ERC20 public erc20;\n    bool public isSaleFunded = false;\n    uint256 public tradeValue; /* Price in Wei */\n    uint256 public startDate; /* Start Date  */\n    uint256 public endDate;  /* End Date  */\n    uint256 public individualMinimumAmount = 0;  /* Minimum Amount Per Address */\n    uint256 public individualMaximumAmount = 0;  /* Minimum Amount Per Address */\n    uint256 public minimumRaise = 0;  /* Minimum Amount of Tokens that have to be sold */\n    uint256 public tokensAllocated = 0; /* Tokens Available for Allocation - Dynamic */\n    uint256 public tokensForSale = 0; /* Tokens Available for Sale */\n    bool    public isTokenSwapAtomic; /* Make token release atomic or not */\n\n    struct Purchase {\n        uint256 amount;\n        address purchaser;\n        uint256 ethAmount;\n        uint256 timestamp;\n        bool wasFinalized /* Confirm the tokens were sent already */;\n        bool reverted /* Confirm the tokens were sent already */;\n    }\n\n    event PurchaseEvent(uint256 amount, address indexed purchaser, uint256 timestamp);\n\n    constructor(address _tokenAddress, uint256 _tradeValue, uint256 _tokensForSale, uint256 _startDate, \n        uint256 _endDate, uint256 _individualMinimumAmount, uint256 _individualMaximumAmount, bool _isTokenSwapAtomic, uint256 _minimumRaise) public {\n        \n        /* Confirmations */\n        require(block.timestamp < _endDate, \"End Date should be further than current date\");\n        require(block.timestamp < _startDate, \"End Date should be further than current date\");\n        require(_startDate < _endDate, \"End Date higher than Start Date\");\n        require(_tokensForSale > 0, \"Tokens for Sale should be > 0\");\n        require(_tokensForSale > _individualMinimumAmount, \"Tokens for Sale should be > Individual Minimum Amount\");\n        require(_individualMaximumAmount >= _individualMinimumAmount, \"Individual Maximim AMount should be > Individual Minimum Amount\");\n        require(minimumRaise <= _tokensForSale, \"Minimum Raise should be < Tokens For Sale\");\n        \n        startDate = _startDate; \n        endDate = _endDate;\n        tokensForSale = _tokensForSale;\n        tradeValue = _tradeValue;\n\n        individualMinimumAmount = _individualMinimumAmount; \n        individualMaximumAmount = _individualMaximumAmount; \n        isTokenSwapAtomic = _isTokenSwapAtomic;\n\n        if(!_isTokenSwapAtomic){ /* If raise is not atomic swap */\n            minimumRaise = _minimumRaise;\n        }\n\n        erc20 = ERC20(_tokenAddress);\n    }\n\n    /**\n    * Modifier to make a function callable only when the contract has Atomic Swaps not available.\n    */\n    modifier isNotAtomicSwap() {\n        require(!isTokenSwapAtomic);\n        _;\n    }\n\n     /**\n    * Modifier to make a function callable only when the contract has Atomic Swaps not available.\n    */\n    modifier isSaleFinalized() {\n        require(hasFinalized());\n        _;\n    }\n\n     /**\n    * Modifier to make a function callable only when the swap time is open.\n    */\n    modifier isSaleOpen() {\n        require(isOpen());\n        _;\n    }\n\n     /**\n    * Modifier to make a function callable only when the contract has Atomic Swaps not available.\n    */\n    modifier isSalePreStarted() {\n        require(isPreStart());\n        _;\n    }\n\n    /**\n    * Modifier to make a function callable only when the contract has Atomic Swaps not available.\n    */\n    modifier isFunded() {\n        require(isSaleFunded);\n        _;\n    }\n\n\n    /* Get Functions */\n    function isBuyer(uint256 purchase_id) public view returns (bool) {\n        return (msg.sender == purchases[purchase_id].purchaser);\n    }\n\n    /* Get Functions */\n    function totalRaiseCost() public view returns (uint256) {\n        return (cost(tokensForSale));\n    }\n\n    function availableTokens() public view returns (uint256) {\n        return erc20.balanceOf(address(this));\n    }\n\n    function tokensLeft() public view returns (uint256) {\n        return tokensForSale - tokensAllocated;\n    }\n\n    function hasMinimumRaise() public view returns (bool){\n        return (minimumRaise != 0);\n    }\n\n    function hasFinalized() public view returns (bool){\n        return block.timestamp > endDate;\n    }\n\n    function hasStarted() public view returns (bool){\n        return block.timestamp >= startDate;\n    }\n    \n    function isPreStart() public view returns (bool){\n        return block.timestamp < startDate;\n    }\n\n    function isOpen() public view returns (bool){\n        return hasStarted() && !hasFinalized();\n    }\n\n    function hasMinimumAmount() public view returns (bool){\n       return (individualMinimumAmount != 0);\n    }\n    \n\n    function random() private view returns (uint) {\n        return uint(keccak256(abi.encode(block.difficulty, now)));\n    } \n\n    function cost(uint256 _amount) public view returns (uint){\n        return _amount.mul(tradeValue).div(10**18); /* returns cost in wei */\n    }\n\n    function getPurchase(uint256 _purchase_id) external view returns (uint256, address, uint256, uint256, bool, bool){\n        Purchase memory purchase = purchases[_purchase_id];\n        return (purchase.amount, purchase.purchaser, purchase.ethAmount, purchase.timestamp, purchase.wasFinalized, purchase.reverted);\n    }\n\n    function getPurchaseIds() public view returns(uint256[] memory) {\n        return purchaseIds;\n    }\n\n    function getBuyers() public view returns(address[] memory) {\n        return buyers;\n    }\n\n    function getMyPurchases(address _address) public view returns(uint256[] memory) {\n        return myPurchases[_address];\n    }\n\n    /* Fund - Pre Sale Start */\n    function fund(uint256 _amount) public isSalePreStarted {\n        \n        /* Confirm transfered tokens is no more than needed */\n        require(availableTokens().add(_amount) <= tokensForSale);\n\n        /* Transfer Funds */\n        require(erc20.transferFrom(msg.sender, address(this), _amount));\n        \n        /* If Amount is equal to needed - sale is ready */\n        if(availableTokens() == tokensForSale){\n            isSaleFunded = true;\n        }\n    }\n    \n    /* Action Functions */\n    function swap(uint256 _amount) payable external whenNotPaused isFunded isSaleOpen {\n\n        /* Confirm Amount is positive */\n        require(_amount > 0);\n\n        /* Confirm Amount is less than tokens available */\n        require(_amount <= tokensLeft());\n            \n        /* Confirm the user has funds for the transfer, confirm the value is equal */\n        require(msg.value == cost(_amount));\n\n        /* Confirm Amount is bigger than minimum Amount */\n        require(_amount >= individualMinimumAmount);\n\n        /* Confirm Amount is smaller than maximum Amount */\n        require(_amount <= individualMaximumAmount);\n        uint256[] memory _purchases = getMyPurchases(msg.sender);\n        uint256 purchaserTotalAmountPurchased = 0;\n\n        for (uint i = 0; i < _purchases.length; i++) {\n            Purchase memory _purchase = purchases[_purchases[i]];\n            purchaserTotalAmountPurchased = purchaserTotalAmountPurchased.add(_purchase.amount);\n        }\n\n        require(purchaserTotalAmountPurchased.add(_amount) <= individualMaximumAmount);\n\n        if(isTokenSwapAtomic){\n            /* Confirm transfer */\n            require(erc20.transfer(msg.sender, _amount));\n        }\n        \n        uint256 purchase_id = random() + increment;\n        increment = increment.add(1);\n\n        /* Create new purchase */\n        Purchase memory purchase = Purchase(_amount, msg.sender, msg.value, block.timestamp, isTokenSwapAtomic /* If Atomic Swap */, false);\n        purchases[purchase_id] = purchase;\n        purchaseIds.push(purchase_id);\n        myPurchases[msg.sender].push(purchase_id);\n        buyers.push(msg.sender);\n        tokensAllocated = tokensAllocated.add(_amount);\n        emit PurchaseEvent(_amount, msg.sender, block.timestamp);\n    }\n\n    /* Redeem tokens when the sale was finalized */\n    function redeemTokens(uint256 purchase_id) external isNotAtomicSwap isSaleFinalized whenNotPaused {\n        /* Confirm it exists and was not finalized */\n        require((purchases[purchase_id].amount != 0) && !purchases[purchase_id].wasFinalized);\n        require(isBuyer(purchase_id));\n        purchases[purchase_id].wasFinalized = true;\n        require(erc20.transfer(msg.sender, purchases[purchase_id].amount));\n    }\n\n    /* Retrieve Minumum Amount */\n    function redeemGivenMinimumGoalNotAchieved(uint256 purchase_id) external isSaleFinalized isNotAtomicSwap {\n        require(hasMinimumRaise());\n        /* Confirm it exists and was not finalized */\n        require((purchases[purchase_id].amount != 0) && !purchases[purchase_id].wasFinalized);\n        require(isBuyer(purchase_id));\n        purchases[purchase_id].wasFinalized = true;\n        purchases[purchase_id].reverted = true;\n        msg.sender.transfer(purchases[purchase_id].ethAmount);\n    }\n\n    /* Admin Functions */\n    function withdrawFunds() external onlyOwner whenNotPaused isSaleFinalized {\n        //msg.sender.transfer(address(this).balance); /* Fee Address */\n        /* Confirm Minimum Amount was reached */\n        if(hasMinimumAmount()){\n            require(address(this).balance >= cost(minimumRaise));\n\n            uint256 totalRaise = 0;\n            for (uint i = 0; i < purchaseIds.length; i++) {\n                Purchase memory _purchase = purchases[purchaseIds[i]];\n                totalRaise = totalRaise.add(cost(_purchase.amount));   \n            }\n            require(totalRaise >= cost(minimumRaise));\n        }\n        msg.sender.transfer(address(this).balance);\n    }  \n    \n    function withdrawUnsoldTokens() external onlyOwner isSaleFinalized {\n        if(availableTokens() > 0){\n            require(erc20.transfer(msg.sender, availableTokens()));\n        }\n    }   \n\n    function removeOtherERC20Tokens(address _tokenAddress, address _to) external onlyOwner isSaleFinalized {\n        require(_tokenAddress != address(erc20)); // Confirm tokens addresses are different from main sale one\n        ERC20 erc20Token = ERC20(_tokenAddress);\n        require(erc20Token.transfer(_to, erc20Token.balanceOf(address(this))));\n    }  \n\n\n}\n\n// TO DO : Add Fee to project\n",
  "sourcePath": "/Users/ruipedro/Desktop/projects/Staking/erc20/contracts/FixedSwap.sol",
  "compiler": {
    "name": "solc",
    "version": "0.5.8+commit.23d335f2.Emscripten.clang"
  },
  "schemaVersion": "3.0.20",
  "updatedAt": "2020-11-20T19:44:11.867Z",
  "devdoc": {
    "methods": {
      "pause()": {
        "details": "called by the owner to pause, triggers stopped state"
      },
      "unpause()": {
        "details": "called by the owner to unpause, returns to normal state"
      }
    }
  },
  "userdoc": {
    "methods": {}
  }
}