{
    "contractName": "FixedSwapOld",
    "abi": [
        {
            "constant": true,
            "inputs": [],
            "name": "hasWhitelisting",
            "outputs": [
                {
                    "name": "",
                    "type": "bool"
                }
            ],
            "payable": false,
            "stateMutability": "view",
            "type": "function"
        },
        {
            "constant": true,
            "inputs": [],
            "name": "startDate",
            "outputs": [
                {
                    "name": "",
                    "type": "uint256"
                }
            ],
            "payable": false,
            "stateMutability": "view",
            "type": "function"
        },
        {
            "constant": true,
            "inputs": [],
            "name": "tokensForSale",
            "outputs": [
                {
                    "name": "",
                    "type": "uint256"
                }
            ],
            "payable": false,
            "stateMutability": "view",
            "type": "function"
        },
        {
            "constant": true,
            "inputs": [],
            "name": "isSaleFunded",
            "outputs": [
                {
                    "name": "",
                    "type": "bool"
                }
            ],
            "payable": false,
            "stateMutability": "view",
            "type": "function"
        },
        {
            "constant": true,
            "inputs": [],
            "name": "isTokenSwapAtomic",
            "outputs": [
                {
                    "name": "",
                    "type": "bool"
                }
            ],
            "payable": false,
            "stateMutability": "view",
            "type": "function"
        },
        {
            "constant": true,
            "inputs": [],
            "name": "individualMinimumAmount",
            "outputs": [
                {
                    "name": "",
                    "type": "uint256"
                }
            ],
            "payable": false,
            "stateMutability": "view",
            "type": "function"
        },
        {
            "constant": true,
            "inputs": [],
            "name": "decimals",
            "outputs": [
                {
                    "name": "",
                    "type": "uint256"
                }
            ],
            "payable": false,
            "stateMutability": "view",
            "type": "function"
        },
        {
            "constant": true,
            "inputs": [
                {
                    "name": "_address",
                    "type": "address"
                }
            ],
            "name": "isWhitelisted",
            "outputs": [
                {
                    "name": "",
                    "type": "bool"
                }
            ],
            "payable": false,
            "stateMutability": "view",
            "type": "function"
        },
        {
            "constant": false,
            "inputs": [],
            "name": "unpause",
            "outputs": [],
            "payable": false,
            "stateMutability": "nonpayable",
            "type": "function"
        },
        {
            "constant": false,
            "inputs": [],
            "name": "claimOwnership",
            "outputs": [],
            "payable": false,
            "stateMutability": "nonpayable",
            "type": "function"
        },
        {
            "constant": true,
            "inputs": [
                {
                    "name": "",
                    "type": "address"
                },
                {
                    "name": "",
                    "type": "uint256"
                }
            ],
            "name": "myPurchases",
            "outputs": [
                {
                    "name": "",
                    "type": "uint256"
                }
            ],
            "payable": false,
            "stateMutability": "view",
            "type": "function"
        },
        {
            "constant": true,
            "inputs": [],
            "name": "paused",
            "outputs": [
                {
                    "name": "",
                    "type": "bool"
                }
            ],
            "payable": false,
            "stateMutability": "view",
            "type": "function"
        },
        {
            "constant": true,
            "inputs": [],
            "name": "tradeValue",
            "outputs": [
                {
                    "name": "",
                    "type": "uint256"
                }
            ],
            "payable": false,
            "stateMutability": "view",
            "type": "function"
        },
        {
            "constant": true,
            "inputs": [],
            "name": "getWhitelistedAddresses",
            "outputs": [
                {
                    "name": "",
                    "type": "address[]"
                }
            ],
            "payable": false,
            "stateMutability": "view",
            "type": "function"
        },
        {
            "constant": true,
            "inputs": [],
            "name": "tokensAllocated",
            "outputs": [
                {
                    "name": "",
                    "type": "uint256"
                }
            ],
            "payable": false,
            "stateMutability": "view",
            "type": "function"
        },
        {
            "constant": true,
            "inputs": [],
            "name": "erc20",
            "outputs": [
                {
                    "name": "",
                    "type": "address"
                }
            ],
            "payable": false,
            "stateMutability": "view",
            "type": "function"
        },
        {
            "constant": true,
            "inputs": [
                {
                    "name": "",
                    "type": "uint256"
                }
            ],
            "name": "purchases",
            "outputs": [
                {
                    "name": "amount",
                    "type": "uint256"
                },
                {
                    "name": "purchaser",
                    "type": "address"
                },
                {
                    "name": "ethAmount",
                    "type": "uint256"
                },
                {
                    "name": "timestamp",
                    "type": "uint256"
                },
                {
                    "name": "wasFinalized",
                    "type": "bool"
                },
                {
                    "name": "reverted",
                    "type": "bool"
                }
            ],
            "payable": false,
            "stateMutability": "view",
            "type": "function"
        },
        {
            "constant": false,
            "inputs": [],
            "name": "pause",
            "outputs": [],
            "payable": false,
            "stateMutability": "nonpayable",
            "type": "function"
        },
        {
            "constant": true,
            "inputs": [],
            "name": "owner",
            "outputs": [
                {
                    "name": "",
                    "type": "address"
                }
            ],
            "payable": false,
            "stateMutability": "view",
            "type": "function"
        },
        {
            "constant": true,
            "inputs": [],
            "name": "minimumRaise",
            "outputs": [
                {
                    "name": "",
                    "type": "uint256"
                }
            ],
            "payable": false,
            "stateMutability": "view",
            "type": "function"
        },
        {
            "constant": true,
            "inputs": [
                {
                    "name": "",
                    "type": "address"
                }
            ],
            "name": "whitelist",
            "outputs": [
                {
                    "name": "",
                    "type": "bool"
                }
            ],
            "payable": false,
            "stateMutability": "view",
            "type": "function"
        },
        {
            "constant": true,
            "inputs": [],
            "name": "feePercentage",
            "outputs": [
                {
                    "name": "",
                    "type": "uint256"
                }
            ],
            "payable": false,
            "stateMutability": "view",
            "type": "function"
        },
        {
            "constant": false,
            "inputs": [
                {
                    "name": "_address",
                    "type": "address"
                },
                {
                    "name": "_index",
                    "type": "uint256"
                }
            ],
            "name": "remove",
            "outputs": [],
            "payable": false,
            "stateMutability": "nonpayable",
            "type": "function"
        },
        {
            "constant": true,
            "inputs": [],
            "name": "unsoldTokensReedemed",
            "outputs": [
                {
                    "name": "",
                    "type": "bool"
                }
            ],
            "payable": false,
            "stateMutability": "view",
            "type": "function"
        },
        {
            "constant": true,
            "inputs": [
                {
                    "name": "",
                    "type": "uint256"
                }
            ],
            "name": "whitelistedAddresses",
            "outputs": [
                {
                    "name": "",
                    "type": "address"
                }
            ],
            "payable": false,
            "stateMutability": "view",
            "type": "function"
        },
        {
            "constant": true,
            "inputs": [],
            "name": "endDate",
            "outputs": [
                {
                    "name": "",
                    "type": "uint256"
                }
            ],
            "payable": false,
            "stateMutability": "view",
            "type": "function"
        },
        {
            "constant": false,
            "inputs": [
                {
                    "name": "_addresses",
                    "type": "address[]"
                }
            ],
            "name": "add",
            "outputs": [],
            "payable": false,
            "stateMutability": "nonpayable",
            "type": "function"
        },
        {
            "constant": true,
            "inputs": [],
            "name": "proposedOwner",
            "outputs": [
                {
                    "name": "",
                    "type": "address"
                }
            ],
            "payable": false,
            "stateMutability": "view",
            "type": "function"
        },
        {
            "constant": true,
            "inputs": [
                {
                    "name": "",
                    "type": "uint256"
                }
            ],
            "name": "purchaseIds",
            "outputs": [
                {
                    "name": "",
                    "type": "uint256"
                }
            ],
            "payable": false,
            "stateMutability": "view",
            "type": "function"
        },
        {
            "constant": true,
            "inputs": [],
            "name": "individualMaximumAmount",
            "outputs": [
                {
                    "name": "",
                    "type": "uint256"
                }
            ],
            "payable": false,
            "stateMutability": "view",
            "type": "function"
        },
        {
            "constant": true,
            "inputs": [],
            "name": "FEE_ADDRESS",
            "outputs": [
                {
                    "name": "",
                    "type": "address"
                }
            ],
            "payable": false,
            "stateMutability": "view",
            "type": "function"
        },
        {
            "constant": true,
            "inputs": [
                {
                    "name": "",
                    "type": "uint256"
                }
            ],
            "name": "buyers",
            "outputs": [
                {
                    "name": "",
                    "type": "address"
                }
            ],
            "payable": false,
            "stateMutability": "view",
            "type": "function"
        },
        {
            "constant": false,
            "inputs": [
                {
                    "name": "_proposedOwner",
                    "type": "address"
                }
            ],
            "name": "transferOwnership",
            "outputs": [],
            "payable": false,
            "stateMutability": "nonpayable",
            "type": "function"
        },
        {
            "inputs": [
                {
                    "name": "_tokenAddress",
                    "type": "address"
                },
                {
                    "name": "_tradeValue",
                    "type": "uint256"
                },
                {
                    "name": "_tokensForSale",
                    "type": "uint256"
                },
                {
                    "name": "_startDate",
                    "type": "uint256"
                },
                {
                    "name": "_endDate",
                    "type": "uint256"
                },
                {
                    "name": "_individualMinimumAmount",
                    "type": "uint256"
                },
                {
                    "name": "_individualMaximumAmount",
                    "type": "uint256"
                },
                {
                    "name": "_isTokenSwapAtomic",
                    "type": "bool"
                },
                {
                    "name": "_minimumRaise",
                    "type": "uint256"
                },
                {
                    "name": "_feeAmount",
                    "type": "uint256"
                },
                {
                    "name": "_hasWhitelisting",
                    "type": "bool"
                }
            ],
            "payable": false,
            "stateMutability": "nonpayable",
            "type": "constructor"
        },
        {
            "anonymous": false,
            "inputs": [
                {
                    "indexed": false,
                    "name": "amount",
                    "type": "uint256"
                },
                {
                    "indexed": true,
                    "name": "purchaser",
                    "type": "address"
                },
                {
                    "indexed": false,
                    "name": "timestamp",
                    "type": "uint256"
                }
            ],
            "name": "PurchaseEvent",
            "type": "event"
        },
        {
            "anonymous": false,
            "inputs": [
                {
                    "indexed": true,
                    "name": "accounts",
                    "type": "address[]"
                }
            ],
            "name": "AddedToWhitelist",
            "type": "event"
        },
        {
            "anonymous": false,
            "inputs": [
                {
                    "indexed": true,
                    "name": "account",
                    "type": "address"
                }
            ],
            "name": "RemovedFromWhitelist",
            "type": "event"
        },
        {
            "anonymous": false,
            "inputs": [],
            "name": "Pause",
            "type": "event"
        },
        {
            "anonymous": false,
            "inputs": [],
            "name": "Unpause",
            "type": "event"
        },
        {
            "anonymous": false,
            "inputs": [
                {
                    "indexed": true,
                    "name": "previousOwner",
                    "type": "address"
                },
                {
                    "indexed": true,
                    "name": "newOwner",
                    "type": "address"
                }
            ],
            "name": "OwnershipTransferred",
            "type": "event"
        },
        {
            "constant": true,
            "inputs": [
                {
                    "name": "purchase_id",
                    "type": "uint256"
                }
            ],
            "name": "isBuyer",
            "outputs": [
                {
                    "name": "",
                    "type": "bool"
                }
            ],
            "payable": false,
            "stateMutability": "view",
            "type": "function"
        },
        {
            "constant": true,
            "inputs": [],
            "name": "totalRaiseCost",
            "outputs": [
                {
                    "name": "",
                    "type": "uint256"
                }
            ],
            "payable": false,
            "stateMutability": "view",
            "type": "function"
        },
        {
            "constant": true,
            "inputs": [],
            "name": "availableTokens",
            "outputs": [
                {
                    "name": "",
                    "type": "uint256"
                }
            ],
            "payable": false,
            "stateMutability": "view",
            "type": "function"
        },
        {
            "constant": true,
            "inputs": [],
            "name": "tokensLeft",
            "outputs": [
                {
                    "name": "",
                    "type": "uint256"
                }
            ],
            "payable": false,
            "stateMutability": "view",
            "type": "function"
        },
        {
            "constant": true,
            "inputs": [],
            "name": "hasMinimumRaise",
            "outputs": [
                {
                    "name": "",
                    "type": "bool"
                }
            ],
            "payable": false,
            "stateMutability": "view",
            "type": "function"
        },
        {
            "constant": true,
            "inputs": [],
            "name": "minimumRaiseNotAchieved",
            "outputs": [
                {
                    "name": "",
                    "type": "bool"
                }
            ],
            "payable": false,
            "stateMutability": "view",
            "type": "function"
        },
        {
            "constant": true,
            "inputs": [],
            "name": "minimumRaiseAchieved",
            "outputs": [
                {
                    "name": "",
                    "type": "bool"
                }
            ],
            "payable": false,
            "stateMutability": "view",
            "type": "function"
        },
        {
            "constant": true,
            "inputs": [],
            "name": "hasFinalized",
            "outputs": [
                {
                    "name": "",
                    "type": "bool"
                }
            ],
            "payable": false,
            "stateMutability": "view",
            "type": "function"
        },
        {
            "constant": true,
            "inputs": [],
            "name": "hasStarted",
            "outputs": [
                {
                    "name": "",
                    "type": "bool"
                }
            ],
            "payable": false,
            "stateMutability": "view",
            "type": "function"
        },
        {
            "constant": true,
            "inputs": [],
            "name": "isPreStart",
            "outputs": [
                {
                    "name": "",
                    "type": "bool"
                }
            ],
            "payable": false,
            "stateMutability": "view",
            "type": "function"
        },
        {
            "constant": true,
            "inputs": [],
            "name": "isOpen",
            "outputs": [
                {
                    "name": "",
                    "type": "bool"
                }
            ],
            "payable": false,
            "stateMutability": "view",
            "type": "function"
        },
        {
            "constant": true,
            "inputs": [],
            "name": "hasMinimumAmount",
            "outputs": [
                {
                    "name": "",
                    "type": "bool"
                }
            ],
            "payable": false,
            "stateMutability": "view",
            "type": "function"
        },
        {
            "constant": true,
            "inputs": [
                {
                    "name": "_amount",
                    "type": "uint256"
                }
            ],
            "name": "cost",
            "outputs": [
                {
                    "name": "",
                    "type": "uint256"
                }
            ],
            "payable": false,
            "stateMutability": "view",
            "type": "function"
        },
        {
            "constant": true,
            "inputs": [
                {
                    "name": "_purchase_id",
                    "type": "uint256"
                }
            ],
            "name": "getPurchase",
            "outputs": [
                {
                    "name": "",
                    "type": "uint256"
                },
                {
                    "name": "",
                    "type": "address"
                },
                {
                    "name": "",
                    "type": "uint256"
                },
                {
                    "name": "",
                    "type": "uint256"
                },
                {
                    "name": "",
                    "type": "bool"
                },
                {
                    "name": "",
                    "type": "bool"
                }
            ],
            "payable": false,
            "stateMutability": "view",
            "type": "function"
        },
        {
            "constant": true,
            "inputs": [],
            "name": "getPurchaseIds",
            "outputs": [
                {
                    "name": "",
                    "type": "uint256[]"
                }
            ],
            "payable": false,
            "stateMutability": "view",
            "type": "function"
        },
        {
            "constant": true,
            "inputs": [],
            "name": "getBuyers",
            "outputs": [
                {
                    "name": "",
                    "type": "address[]"
                }
            ],
            "payable": false,
            "stateMutability": "view",
            "type": "function"
        },
        {
            "constant": true,
            "inputs": [
                {
                    "name": "_address",
                    "type": "address"
                }
            ],
            "name": "getMyPurchases",
            "outputs": [
                {
                    "name": "",
                    "type": "uint256[]"
                }
            ],
            "payable": false,
            "stateMutability": "view",
            "type": "function"
        },
        {
            "constant": false,
            "inputs": [
                {
                    "name": "_amount",
                    "type": "uint256"
                }
            ],
            "name": "fund",
            "outputs": [],
            "payable": false,
            "stateMutability": "nonpayable",
            "type": "function"
        },
        {
            "constant": false,
            "inputs": [
                {
                    "name": "_amount",
                    "type": "uint256"
                }
            ],
            "name": "swap",
            "outputs": [],
            "payable": true,
            "stateMutability": "payable",
            "type": "function"
        },
        {
            "constant": false,
            "inputs": [
                {
                    "name": "purchase_id",
                    "type": "uint256"
                }
            ],
            "name": "redeemTokens",
            "outputs": [],
            "payable": false,
            "stateMutability": "nonpayable",
            "type": "function"
        },
        {
            "constant": false,
            "inputs": [
                {
                    "name": "purchase_id",
                    "type": "uint256"
                }
            ],
            "name": "redeemGivenMinimumGoalNotAchieved",
            "outputs": [],
            "payable": false,
            "stateMutability": "nonpayable",
            "type": "function"
        },
        {
            "constant": false,
            "inputs": [],
            "name": "withdrawFunds",
            "outputs": [],
            "payable": false,
            "stateMutability": "nonpayable",
            "type": "function"
        },
        {
            "constant": false,
            "inputs": [],
            "name": "withdrawUnsoldTokens",
            "outputs": [],
            "payable": false,
            "stateMutability": "nonpayable",
            "type": "function"
        },
        {
            "constant": false,
            "inputs": [
                {
                    "name": "_tokenAddress",
                    "type": "address"
                },
                {
                    "name": "_to",
                    "type": "address"
                }
            ],
            "name": "removeOtherERC20Tokens",
            "outputs": [],
            "payable": false,
            "stateMutability": "nonpayable",
            "type": "function"
        },
        {
            "constant": false,
            "inputs": [],
            "name": "safePull",
            "outputs": [],
            "payable": true,
            "stateMutability": "payable",
            "type": "function"
        }
    ],
    "bytecode": "0x608060405260018054600160a01b60ff021990811682556004805460ff1990811690915560006005819055600a8054909316909255600b829055600c80549091169055601081905560118190556012819055601381905560145560158054610100600160a81b03191674aeb39b67f27b641ef9f95fb74f1a46b1ee4efc83001790556016553480156200009157600080fd5b5060405161016080620037718339810180604052610160811015620000b557600080fd5b508051602082015160408301516060840151608085015160a086015160c087015160e08801516101008901516101208a0151610140909a0151600080546001600160a01b031916331790556004805482151560ff19909116179055989997989697959694959394929391929091904287116200017d576040517f08c379a000000000000000000000000000000000000000000000000000000000815260040180806020018281038252602c815260200180620036a8602c913960400191505060405180910390fd5b874210620001d7576040517f08c379a000000000000000000000000000000000000000000000000000000000815260040180806020018281038252602c815260200180620036a8602c913960400191505060405180910390fd5b8688106200024657604080517f08c379a000000000000000000000000000000000000000000000000000000000815260206004820152601f60248201527f456e64204461746520686967686572207468616e205374617274204461746500604482015290519081900360640190fd5b60008911620002b657604080517f08c379a000000000000000000000000000000000000000000000000000000000815260206004820152601d60248201527f546f6b656e7320666f722053616c652073686f756c64206265203e2030000000604482015290519081900360640190fd5b85891162000310576040517f08c379a00000000000000000000000000000000000000000000000000000000081526004018080602001828103825260358152602001806200373c6035913960400191505060405180910390fd5b858510156200036b576040517f08c379a000000000000000000000000000000000000000000000000000000000815260040180806020018281038252603f815260200180620036d4603f913960400191505060405180910390fd5b88831115620003c6576040517f08c379a0000000000000000000000000000000000000000000000000000000008152600401808060200182810382526029815260200180620037136029913960400191505060405180910390fd5b6016548210156200043857604080517f08c379a000000000000000000000000000000000000000000000000000000000815260206004820152601d60248201527f4665652050657263656e746167652068617320746f206265203e3d2031000000604482015290519081900360640190fd5b6063821115620004a957604080517f08c379a000000000000000000000000000000000000000000000000000000000815260206004820152601e60248201527f4665652050657263656e746167652068617320746f206265203c203130300000604482015290519081900360640190fd5b600e889055600f8790556014899055600d8a9055601086905560118590556015805460ff191685151517905583620004e15760128390555b600a80546001600160a01b0319166001600160a01b038d81169190911791829055604080517f313ce5670000000000000000000000000000000000000000000000000000000081529051929091169163313ce56791600480820192602092909190829003018186803b1580156200055757600080fd5b505afa1580156200056c573d6000803e3d6000fd5b505050506040513d60208110156200058357600080fd5b505160ff16600b555060165550505050505050505061310080620005a86000396000f3fe6080604052600436106103815760003560e01c80638392fe31116101d1578063ba4e5c4911610102578063d65fb160116100a0578063f2aa82181161006f578063f2aa821814610acd578063f2fde38b14610af7578063f64bfaba14610b2a578063fecf415a14610b3f57610381565b8063d65fb16014610a64578063e4101de514610a8e578063eb1edd6114610aa3578063efbb34d514610ab857610381565b8063c4c1c94f116100dc578063c4c1c94f14610960578063c8bdbfb614610a10578063ca1d209d14610a25578063d153b60c14610a4f57610381565b8063ba4e5c49146108ee578063c24a0f8b14610918578063c3ca324f1461092d57610381565b80639b19251a1161016f578063abe7f1ab11610149578063abe7f1ab14610876578063b31f8f93146108af578063b367940e146108c4578063b7fd706d146108d957610381565b80639b19251a14610804578063a001ecdd14610837578063a6e158f81461084c57610381565b80638e75b131116101ab5780638e75b1311461076d5780639097548d14610782578063917c854d146107ac57806394b918de146107e757610381565b80638392fe31146107195780638456cb59146107435780638da5cb5b1461075857610381565b80633f4ba83a116102b65780636295a2f41161025457806370a898bc1161022357806370a898bc146106a957806374fa05fb146106be578063755e3e28146106d3578063785e9e86146106e857610381565b80636295a2f41461060557806369bb4dc21461061a5780636a93df111461062f5780636d0280271461069457610381565b806347535d7b1161029057806347535d7b1461058d5780634e71e0c8146105a25780635ac699bb146105b75780635c975abb146105f057610381565b80633f4ba83a1461054e5780634089aa9a1461056357806344691f7e1461057857610381565b806324600fc3116103235780632ebb5c1e116102fd5780632ebb5c1e14610488578063313ce5671461049d5780633742a9f7146104b25780633af32abf1461051b57610381565b806324600fc3146104565780632daa8c841461046b5780632e1541071461047357610381565b806315b578661161035f57806315b57866146103eb578063161a7b2a146104005780631de18af71461041557806321d3002a1461044157610381565b806307662345146103865780630b97bc86146103af57806312aef8c3146103d6575b600080fd5b34801561039257600080fd5b5061039b610b69565b604080519115158252519081900360200190f35b3480156103bb57600080fd5b506103c4610b72565b60408051918252519081900360200190f35b3480156103e257600080fd5b506103c4610b78565b3480156103f757600080fd5b5061039b610b7e565b34801561040c57600080fd5b5061039b610b86565b34801561042157600080fd5b5061043f6004803603602081101561043857600080fd5b5035610b96565b005b34801561044d57600080fd5b5061039b610e18565b34801561046257600080fd5b5061043f610e21565b61043f611003565b34801561047f57600080fd5b506103c46111cf565b34801561049457600080fd5b5061039b6111d5565b3480156104a957600080fd5b506103c46111dd565b3480156104be57600080fd5b506104dc600480360360208110156104d557600080fd5b50356111e3565b604080519687526001600160a01b03909516602087015285850193909352606085019190915215156080840152151560a0830152519081900360c00190f35b34801561052757600080fd5b5061039b6004803603602081101561053e57600080fd5b50356001600160a01b0316611275565b34801561055a57600080fd5b5061043f611293565b34801561056f57600080fd5b5061039b611375565b34801561058457600080fd5b5061039b61137d565b34801561059957600080fd5b5061039b611386565b3480156105ae57600080fd5b5061043f6113a6565b3480156105c357600080fd5b506103c4600480360360408110156105da57600080fd5b506001600160a01b03813516906020013561146c565b3480156105fc57600080fd5b5061039b61149a565b34801561061157600080fd5b506103c46114aa565b34801561062657600080fd5b506103c46114b0565b34801561063b57600080fd5b5061064461152f565b60408051602080825283518183015283519192839290830191858101910280838360005b83811015610680578181015183820152602001610668565b505050509050019250505060405180910390f35b3480156106a057600080fd5b50610644611587565b3480156106b557600080fd5b5061039b6115e8565b3480156106ca57600080fd5b5061039b6115f0565b3480156106df57600080fd5b506103c461164d565b3480156106f457600080fd5b506106fd611653565b604080516001600160a01b039092168252519081900360200190f35b34801561072557600080fd5b506104dc6004803603602081101561073c57600080fd5b5035611662565b34801561074f57600080fd5b5061043f6116a7565b34801561076457600080fd5b506106fd611792565b34801561077957600080fd5b506103c46117a1565b34801561078e57600080fd5b506103c4600480360360208110156107a557600080fd5b50356117a7565b3480156107b857600080fd5b5061043f600480360360408110156107cf57600080fd5b506001600160a01b03813581169160200135166117cd565b61043f600480360360208110156107fd57600080fd5b5035611a07565b34801561081057600080fd5b5061039b6004803603602081101561082757600080fd5b50356001600160a01b0316612094565b34801561084357600080fd5b506103c46120a9565b34801561085857600080fd5b5061043f6004803603602081101561086f57600080fd5b50356120af565b34801561088257600080fd5b5061043f6004803603604081101561089957600080fd5b506001600160a01b03813516906020013561236e565b3480156108bb57600080fd5b506103c4612469565b3480156108d057600080fd5b5061039b612473565b3480156108e557600080fd5b5061039b6124d8565b3480156108fa57600080fd5b506106fd6004803603602081101561091157600080fd5b50356124e1565b34801561092457600080fd5b506103c4612508565b34801561093957600080fd5b506106446004803603602081101561095057600080fd5b50356001600160a01b031661250e565b34801561096c57600080fd5b5061043f6004803603602081101561098357600080fd5b81019060208101813564010000000081111561099e57600080fd5b8201836020820111156109b057600080fd5b803590602001918460208302840111640100000000831117156109d257600080fd5b91908080602002602001604051908101604052809392919081815260200183836020028082843760009201919091525092955061257a945050505050565b348015610a1c57600080fd5b5061043f61272d565b348015610a3157600080fd5b5061043f60048036036020811015610a4857600080fd5b5035612890565b348015610a5b57600080fd5b506106fd612a4e565b348015610a7057600080fd5b506103c460048036036020811015610a8757600080fd5b5035612a5d565b348015610a9a57600080fd5b506103c4612a7b565b348015610aaf57600080fd5b506106fd612a81565b348015610ac457600080fd5b506103c4612a95565b348015610ad957600080fd5b506106fd60048036036020811015610af057600080fd5b5035612aa2565b348015610b0357600080fd5b5061043f60048036036020811015610b1a57600080fd5b50356001600160a01b0316612aaf565b348015610b3657600080fd5b50610644612b6c565b348015610b4b57600080fd5b5061039b60048036036020811015610b6257600080fd5b5035612bcc565b60045460ff1681565b600e5481565b60145481565b601254151590565b600a54600160a01b900460ff1681565b610b9e611375565b610be05760408051600160e51b62461bcd0281526020600482015260136024820152600080516020612fcd833981519152604482015290519081900360640190fd5b60155460ff1615610c3b5760408051600160e51b62461bcd02815260206004820152601960248201527f48617320746f206265206e6f6e2041746f6d6963207377617000000000000000604482015290519081900360640190fd5b610c43610b7e565b610c975760408051600160e51b62461bcd02815260206004820152601a60248201527f4d696e696d756d2072616973652068617320746f206578697374000000000000604482015290519081900360640190fd5b610c9f6115f0565b610cf35760408051600160e51b62461bcd02815260206004820152601f60248201527f4d696e696d756d2072616973652068617320746f206265207265616368656400604482015290519081900360640190fd5b60008181526006602052604090205415801590610d22575060008181526006602052604090206004015460ff16155b610d6057604051600160e51b62461bcd028152600401808060200182810382526021815260200180612eb16021913960400191505060405180910390fd5b610d6981612bcc565b610dbd5760408051600160e51b62461bcd02815260206004820152601460248201527f41646472657373206973206e6f74206275796572000000000000000000000000604482015290519081900360640190fd5b60008181526006602052604080822060048101805461ff001960ff1990911660011716610100179055600201549051339282156108fc02929190818181858888f19350505050158015610e14573d6000803e3d6000fd5b5050565b60155460ff1681565b6000546001600160a01b03163314610e715760408051600160e51b62461bcd02815260206004820152600f6024820152600080516020612f81833981519152604482015290519081900360640190fd5b600154600160a01b900460ff1615610ecb5760408051600160e51b62461bcd0281526020600482015260126024820152600160721b7112185cc81d1bc81899481d5b9c185d5cd95902604482015290519081900360640190fd5b610ed3611375565b610f155760408051600160e51b62461bcd0281526020600482015260136024820152600080516020612fcd833981519152604482015290519081900360640190fd5b610f1d612473565b610f715760408051600160e51b62461bcd02815260206004820152601f60248201527f4d696e696d756d2072616973652068617320746f206265207265616368656400604482015290519081900360640190fd5b6015546016546101009091046001600160a01b0316906108fc90610faa90606490610f9e90303190612bec565b9063ffffffff612c4f16565b6040518115909202916000818181858888f19350505050158015610fd2573d6000803e3d6000fd5b506040513390303180156108fc02916000818181858888f19350505050158015611000573d6000803e3d6000fd5b50565b6000546001600160a01b031633146110535760408051600160e51b62461bcd02815260206004820152600f6024820152600080516020612f81833981519152604482015290519081900360640190fd5b600154600160a01b900460ff166110aa5760408051600160e51b62461bcd0281526020600482015260106024820152600160821b6f12185cc81d1bc81899481c185d5cd95902604482015290519081900360640190fd5b6040513390303180156108fc02916000818181858888f193505050501580156110d7573d6000803e3d6000fd5b50600a5460408051600160e01b6370a0823102815230600482015290516001600160a01b039092169163a9059cbb91339184916370a08231916024808301926020929190829003018186803b15801561112f57600080fd5b505afa158015611143573d6000803e3d6000fd5b505050506040513d602081101561115957600080fd5b50516040805163ffffffff851660e01b81526001600160a01b03909316600484015260248301919091525160448083019260209291908290030181600087803b1580156111a557600080fd5b505af11580156111b9573d6000803e3d6000fd5b505050506040513d6020811015610e1457600080fd5b60105481565b600e54421090565b600b5481565b6000806000806000806111f4612e32565b5050506000948552505060066020908152604093849020845160c081018652815480825260018301546001600160a01b0316938201849052600283015496820187905260038301546060830181905260049093015460ff80821615156080850181905261010090920416151560a09093018390529097939695509193509091565b6001600160a01b031660009081526002602052604090205460ff1690565b6000546001600160a01b031633146112e35760408051600160e51b62461bcd02815260206004820152600f6024820152600080516020612f81833981519152604482015290519081900360640190fd5b600154600160a01b900460ff1661133a5760408051600160e51b62461bcd0281526020600482015260106024820152600160821b6f12185cc81d1bc81899481c185d5cd95902604482015290519081900360640190fd5b60018054600160a01b60ff02191690556040517f7805862f689e2f13df9f062ff482ad3ad112aca9e0847911ed832e158c525b3390600090a1565b600f54421190565b600e5442101590565b600061139061137d565b80156113a1575061139f611375565b155b905090565b6001546001600160a01b031633146114085760408051600160e51b62461bcd02815260206004820152601c60248201527f48617320746f206265207468652070726f706f736564206f776e657200000000604482015290519081900360640190fd5b600154600080546040516001600160a01b0393841693909116917f8be0079c531659141344cd1fd0a4f28419497f9722a3daafe3b4186f6b6457e091a360018054600080546001600160a01b03199081166001600160a01b03841617909155169055565b6009602052816000526040600020818154811061148557fe5b90600052602060002001600091509150505481565b600154600160a01b900460ff1681565b600d5481565b600a5460408051600160e01b6370a0823102815230600482015290516000926001600160a01b0316916370a08231916024808301926020929190829003018186803b1580156114fe57600080fd5b505afa158015611512573d6000803e3d6000fd5b505050506040513d602081101561152857600080fd5b5051905090565b6060600880548060200260200160405190810160405280929190818152602001828054801561157d57602002820191906000526020600020905b815481526020019060010190808311611569575b5050505050905090565b6060600380548060200260200160405190810160405280929190818152602001828054801561157d57602002820191906000526020600020905b81546001600160a01b031681526001909101906020018083116115c1575050505050905090565b601054151590565b60006115fd6012546117a7565b6116086013546117a7565b1061164757604051600160e51b62461bcd02815260040180806020018281038252602e815260200180612f2e602e913960400191505060405180910390fd5b50600190565b60135481565b600a546001600160a01b031681565b6006602052600090815260409020805460018201546002830154600384015460049094015492936001600160a01b039092169290919060ff8082169161010090041686565b6000546001600160a01b031633146116f75760408051600160e51b62461bcd02815260206004820152600f6024820152600080516020612f81833981519152604482015290519081900360640190fd5b600154600160a01b900460ff16156117515760408051600160e51b62461bcd0281526020600482015260126024820152600160721b7112185cc81d1bc81899481d5b9c185d5cd95902604482015290519081900360640190fd5b60018054600160a01b60ff021916600160a01b1790556040517f6985a02210a168e66602d3235cb6db0e70f92b3ba4d376a33c0f3d9434bff62590600090a1565b6000546001600160a01b031681565b60125481565b60006117c7600b54600a0a610f9e600d5485612bec90919063ffffffff16565b92915050565b6000546001600160a01b0316331461181d5760408051600160e51b62461bcd02815260206004820152600f6024820152600080516020612f81833981519152604482015290519081900360640190fd5b611825611375565b6118675760408051600160e51b62461bcd0281526020600482015260136024820152600080516020612fcd833981519152604482015290519081900360640190fd5b600a546001600160a01b03838116911614156118b757604051600160e51b62461bcd02815260040180806020018281038252603b815260200180612e76603b913960400191505060405180910390fd5b60408051600160e01b6370a08231028152306004820152905183916001600160a01b0383169163a9059cbb91859184916370a08231916024808301926020929190829003018186803b15801561190c57600080fd5b505afa158015611920573d6000803e3d6000fd5b505050506040513d602081101561193657600080fd5b50516040805163ffffffff851660e01b81526001600160a01b03909316600484015260248301919091525160448083019260209291908290030181600087803b15801561198257600080fd5b505af1158015611996573d6000803e3d6000fd5b505050506040513d60208110156119ac57600080fd5b5051611a025760408051600160e51b62461bcd02815260206004820152601b60248201527f455243323020546f6b656e207472616e73666572206661696c65640000000000604482015290519081900360640190fd5b505050565b600154600160a01b900460ff1615611a615760408051600160e51b62461bcd0281526020600482015260126024820152600160721b7112185cc81d1bc81899481d5b9c185d5cd95902604482015290519081900360640190fd5b600a54600160a01b900460ff16611ac25760408051600160e51b62461bcd02815260206004820152601060248201527f48617320746f2062652066756e64656400000000000000000000000000000000604482015290519081900360640190fd5b611aca611386565b611b1e5760408051600160e51b62461bcd02815260206004820152600e60248201527f48617320746f206265206f70656e000000000000000000000000000000000000604482015290519081900360640190fd5b60045460ff1615611b8657611b3233611275565b611b865760408051600160e51b62461bcd02815260206004820152601560248201527f48617320746f2062652077686974656c69737465640000000000000000000000604482015290519081900360640190fd5b60008111611bde5760408051600160e51b62461bcd02815260206004820152601960248201527f416d6f756e742068617320746f20626520706f73697469766500000000000000604482015290519081900360640190fd5b611be6612469565b811115611c2757604051600160e51b62461bcd028152600401808060200182810382526024815260200180612f0a6024913960400191505060405180910390fd5b611c30816117a7565b341015611c7157604051600160e51b62461bcd0281526004018080602001828103825260518152602001806130606051913960600191505060405180910390fd5b601054811015611cb557604051600160e51b62461bcd0281526004018080602001828103825260248152602001806130b16024913960400191505060405180910390fd5b601154811115611cf957604051600160e51b62461bcd028152600401808060200182810382526025815260200180612f5c6025913960400191505060405180910390fd5b6060611d043361250e565b90506000805b8251811015611dbc57611d1b612e32565b60066000858481518110611d2b57fe5b6020908102919091018101518252818101929092526040908101600020815160c081018352815480825260018301546001600160a01b031694820194909452600282015492810192909252600381015460608301526004015460ff8082161515608084015261010090910416151560a08201529150611db190849063ffffffff612c9116565b925050600101611d0a565b50601154611dd0828563ffffffff612c9116565b1115611e1057604051600160e51b62461bcd02815260040180806020018281038252603181526020018061300e6031913960400191505060405180910390fd5b60155460ff1615611ef257600a5460408051600160e01b63a9059cbb0281523360048201526024810186905290516001600160a01b039092169163a9059cbb916044808201926020929091908290030181600087803b158015611e7257600080fd5b505af1158015611e86573d6000803e3d6000fd5b505050506040513d6020811015611e9c57600080fd5b5051611ef25760408051600160e51b62461bcd02815260206004820152601b60248201527f4552433230207472616e73666572206469646ec2b47420776f726b0000000000604482015290519081900360640190fd5b600554611f0681600163ffffffff612c9116565b600555611f11612e32565b506040805160c08101825285815233602080830182815234848601908152426060860190815260155460ff16151560808701908152600060a088018181528a825260068752898220895181559551600187810180546001600160a01b03939093166001600160a01b03199384161790559551600288015593516003870155915160049095018054925115156101000261ff001996151560ff19909416939093179590951691909117909355600880548084019091557ff3f7a9fe364faab93b216da50a3214154f22a0a2b415b23a84c8169e8b636ee301889055848352600984529582208054808301825590835292822090920186905560078054928301815590527fa66cc928b5edb82af9bd49922954155ab7b0942694bea4ce44661d9a8736c68801805490931617909155601354612051908663ffffffff612c9116565b60135560408051868152426020820152815133927fbec109f7ee137de661c6887caa96653c0545050a9908a3b6eb5190440bbec864928290030190a25050505050565b60026020526000908152604090205460ff1681565b60165481565b60155460ff161561210a5760408051600160e51b62461bcd02815260206004820152601960248201527f48617320746f206265206e6f6e2041746f6d6963207377617000000000000000604482015290519081900360640190fd5b612112611375565b6121545760408051600160e51b62461bcd0281526020600482015260136024820152600080516020612fcd833981519152604482015290519081900360640190fd5b600154600160a01b900460ff16156121ae5760408051600160e51b62461bcd0281526020600482015260126024820152600160721b7112185cc81d1bc81899481d5b9c185d5cd95902604482015290519081900360640190fd5b600081815260066020526040902054158015906121dd575060008181526006602052604090206004015460ff16155b61221b57604051600160e51b62461bcd028152600401808060200182810382526021815260200180612eb16021913960400191505060405180910390fd5b61222481612bcc565b6122785760408051600160e51b62461bcd02815260206004820152601460248201527f41646472657373206973206e6f74206275796572000000000000000000000000604482015290519081900360640190fd5b60008181526006602090815260408083206004808201805460ff19166001179055600a5491548351600160e01b63a9059cbb0281523392810192909252602482015291516001600160a01b039091169363a9059cbb93604480850194919392918390030190829087803b1580156122ee57600080fd5b505af1158015612302573d6000803e3d6000fd5b505050506040513d602081101561231857600080fd5b50516110005760408051600160e51b62461bcd02815260206004820152601560248201527f4552433230207472616e73666572206661696c65640000000000000000000000604482015290519081900360640190fd5b6000546001600160a01b031633146123be5760408051600160e51b62461bcd02815260206004820152600f6024820152600080516020612f81833981519152604482015290519081900360640190fd5b600381815481106123cb57fe5b6000918252602090912001546001600160a01b038381169116146123ee57600080fd5b6001600160a01b0382166000908152600260205260409020805460ff19169055600380548290811061241c57fe5b6000918252602082200180546001600160a01b03191690556040516001600160a01b038416917fcdd2e9b91a56913d370075169cefa1602ba36be5301664f752192bb1709df75791a25050565b6013546014540390565b600061247d610b7e565b156116475761248d6012546117a7565b6124986013546117a7565b101561164757604051600160e51b62461bcd02815260040180806020018281038252602c815260200180612fa1602c913960400191505060405180910390fd5b600c5460ff1681565b600381815481106124ee57fe5b6000918252602090912001546001600160a01b0316905081565b600f5481565b6001600160a01b03811660009081526009602090815260409182902080548351818402810184019094528084526060939283018282801561256e57602002820191906000526020600020905b81548152602001906001019080831161255a575b50505050509050919050565b6000546001600160a01b031633146125ca5760408051600160e51b62461bcd02815260206004820152600f6024820152600080516020612f81833981519152604482015290519081900360640190fd5b60005b81518110156126c057600260008383815181106125e657fe5b6020908102919091018101516001600160a01b031682528101919091526040016000205460ff1615156001141561261c57600080fd5b60016002600084848151811061262e57fe5b60200260200101516001600160a01b03166001600160a01b0316815260200190815260200160002060006101000a81548160ff021916908315150217905550600382828151811061267b57fe5b60209081029190910181015182546001808201855560009485529290932090920180546001600160a01b0319166001600160a01b0390931692909217909155016125cd565b508060405180828051906020019060200280838360005b838110156126ef5781810151838201526020016126d7565b505060405194909201849003842095507fe3c5086a518f78e8aa61952bb9c28a9a0f0022707e537ea961faa918e0d89f6f945060009392505050a250565b6000546001600160a01b0316331461277d5760408051600160e51b62461bcd02815260206004820152600f6024820152600080516020612f81833981519152604482015290519081900360640190fd5b612785611375565b6127c75760408051600160e51b62461bcd0281526020600482015260136024820152600080516020612fcd833981519152604482015290519081900360640190fd5b600c5460ff16156127d757600080fd5b60006127e1610b7e565b801561280057506127f36012546117a7565b6127fe6013546117a7565b105b1561280e5750601454612826565b6013546014546128239163ffffffff612cee16565b90505b801561100057600c805460ff19166001179055600a5460408051600160e01b63a9059cbb0281523360048201526024810184905290516001600160a01b039092169163a9059cbb916044808201926020929091908290030181600087803b1580156122ee57600080fd5b6128986111d5565b6128ec5760408051600160e51b62461bcd02815260206004820152601560248201527f48617320746f206265207072652d737461727465640000000000000000000000604482015290519081900360640190fd5b601454612907826128fb6114b0565b9063ffffffff612c9116565b111561294757604051600160e51b62461bcd028152600401808060200182810382526038815260200180612ed26038913960400191505060405180910390fd5b600a5460408051600160e01b6323b872dd0281523360048201523060248201526044810184905290516001600160a01b03909216916323b872dd916064808201926020929091908290030181600087803b1580156129a457600080fd5b505af11580156129b8573d6000803e3d6000fd5b505050506040513d60208110156129ce57600080fd5b5051612a245760408051600160e51b62461bcd02815260206004820152601b60248201527f4661696c656420455243323020746f6b656e207472616e736665720000000000604482015290519081900360640190fd5b601454612a2f6114b0565b141561100057600a8054600160a01b60ff021916600160a01b17905550565b6001546001600160a01b031681565b60088181548110612a6a57fe5b600091825260209091200154905081565b60115481565b60155461010090046001600160a01b031681565b60006113a16014546117a7565b600781815481106124ee57fe5b6000546001600160a01b03163314612aff5760408051600160e51b62461bcd02815260206004820152600f6024820152600080516020612f81833981519152604482015290519081900360640190fd5b336001600160a01b0382161415612b4a57604051600160e51b62461bcd02815260040180806020018281038252602181526020018061303f6021913960400191505060405180910390fd5b600180546001600160a01b0319166001600160a01b0392909216919091179055565b6060600780548060200260200160405190810160405280929190818152602001828054801561157d576020028201919060005260206000209081546001600160a01b031681526001909101906020018083116115c1575050505050905090565b6000908152600660205260409020600101546001600160a01b0316331490565b600082612bfb575060006117c7565b82820282848281612c0857fe5b0414612c4857604051600160e51b62461bcd028152600401808060200182810382526021815260200180612fed6021913960400191505060405180910390fd5b9392505050565b6000612c4883836040518060400160405280601a81526020017f536166654d6174683a206469766973696f6e206279207a65726f000000000000815250612d30565b600082820183811015612c485760408051600160e51b62461bcd02815260206004820152601b60248201527f536166654d6174683a206164646974696f6e206f766572666c6f770000000000604482015290519081900360640190fd5b6000612c4883836040518060400160405280601e81526020017f536166654d6174683a207375627472616374696f6e206f766572666c6f770000815250612dd5565b60008183612dbf57604051600160e51b62461bcd0281526004018080602001828103825283818151815260200191508051906020019080838360005b83811015612d84578181015183820152602001612d6c565b50505050905090810190601f168015612db15780820380516001836020036101000a031916815260200191505b509250505060405180910390fd5b506000838581612dcb57fe5b0495945050505050565b60008184841115612e2a57604051600160e51b62461bcd028152602060048201818152835160248401528351909283926044909101919085019080838360008315612d84578181015183820152602001612d6c565b505050900390565b6040518060c001604052806000815260200160006001600160a01b031681526020016000815260200160008152602001600015158152602001600015158152509056fe546f6b656e20416464726573732068617320746f2062652064696666207468616e20746865206572633230207375626a65637420746f2073616c655075726368617365206973206569746865722030206f722066696e616c697a65645472616e73666572656420746f6b656e73206861766520746f20626520657175616c206f72206c657373207468616e2070726f706f736564416d6f756e74206973206c657373207468616e20746f6b656e7320617661696c61626c65546f74616c526169736520697320626967676572207468616e206d696e696d756d20726169736520616d6f756e74416d6f756e7420697320736d616c6c6572207468616e206d6178696d756d20616d6f756e7448617320746f206265206f776e65720000000000000000000000000000000000546f74616c5261697365206973206c657373207468616e206d696e696d756d20726169736520616d6f756e7448617320746f2062652066696e616c697a656400000000000000000000000000536166654d6174683a206d756c7469706c69636174696f6e206f766572666c6f77416464726573732068617320616c72656164792070617373656420746865206d617820616d6f756e74206f66207377617048617320746f2062652064696666207468616e2063757272656e74206f776e6572557365722068617320746f20636f7665722074686520636f7374206f6620746865207377617020696e204554482c207573652074686520636f73742066756e6374696f6e20746f2064657465726d696e65416d6f756e7420697320626967676572207468616e206d696e696d756d20616d6f756e74a165627a7a72305820ed308500f3429fdee7e9720adbe79eecb72932ced1e3565a42314dc5ed474f570029456e6420446174652073686f756c642062652066757274686572207468616e2063757272656e742064617465496e646976696475616c204d6178696d696d20414d6f756e742073686f756c64206265203e20496e646976696475616c204d696e696d756d20416d6f756e744d696e696d756d2052616973652073686f756c64206265203c20546f6b656e7320466f722053616c65546f6b656e7320666f722053616c652073686f756c64206265203e20496e646976696475616c204d696e696d756d20416d6f756e74",
    "source": "/**\n *Submitted for verification at Etherscan.io on 2021-02-15\n*/\n\npragma solidity 0.5.8; \n\n/**\n * @title ERC20Basic\n * @dev Simpler version of ERC20 interface\n * @dev see https://github.com/ethereum/EIPs/issues/179\n */\ncontract ERC20Basic {\n    function decimals() public view returns (uint8);\n    function totalSupply() public view returns (uint256);\n    function balanceOf(address who) public view returns (uint256);\n    function transfer(address to, uint256 value) public returns (bool);\n    event Transfer(address indexed from, address indexed to, uint256 value);\n}\n\n/**\n * @dev Wrappers over Solidity's arithmetic operations with added overflow\n * checks.\n *\n * Arithmetic operations in Solidity wrap on overflow. This can easily result\n * in bugs, because programmers usually assume that an overflow raises an\n * error, which is the standard behavior in high level programming languages.\n * `SafeMath` restores this intuition by reverting the transaction when an\n * operation overflows.\n *\n * Using this library instead of the unchecked operations eliminates an entire\n * class of bugs, so it's recommended to use it always.\n */\nlibrary SafeMath {\n    /**\n     * @dev Returns the addition of two unsigned integers, reverting on\n     * overflow.\n     *\n     * Counterpart to Solidity's `+` operator.\n     *\n     * Requirements:\n     * - Addition cannot overflow.\n     */\n    function add(uint256 a, uint256 b) internal pure returns (uint256) {\n        uint256 c = a + b;\n        require(c >= a, \"SafeMath: addition overflow\");\n\n        return c;\n    }\n\n    /**\n     * @dev Returns the subtraction of two unsigned integers, reverting on\n     * overflow (when the result is negative).\n     *\n     * Counterpart to Solidity's `-` operator.\n     *\n     * Requirements:\n     * - Subtraction cannot overflow.\n     */\n    function sub(uint256 a, uint256 b) internal pure returns (uint256) {\n        return sub(a, b, \"SafeMath: subtraction overflow\");\n    }\n\n    /**\n     * @dev Returns the subtraction of two unsigned integers, reverting with custom message on\n     * overflow (when the result is negative).\n     *\n     * Counterpart to Solidity's `-` operator.\n     *\n     * Requirements:\n     * - Subtraction cannot overflow.\n     *\n     * _Available since v2.4.0._\n     */\n    function sub(uint256 a, uint256 b, string memory errorMessage) internal pure returns (uint256) {\n        require(b <= a, errorMessage);\n        uint256 c = a - b;\n\n        return c;\n    }\n\n    /**\n     * @dev Returns the multiplication of two unsigned integers, reverting on\n     * overflow.\n     *\n     * Counterpart to Solidity's `*` operator.\n     *\n     * Requirements:\n     * - Multiplication cannot overflow.\n     */\n    function mul(uint256 a, uint256 b) internal pure returns (uint256) {\n        // Gas optimization: this is cheaper than requiring 'a' not being zero, but the\n        // benefit is lost if 'b' is also tested.\n        // See: https://github.com/OpenZeppelin/openzeppelin-contracts/pull/522\n        if (a == 0) {\n            return 0;\n        }\n\n        uint256 c = a * b;\n        require(c / a == b, \"SafeMath: multiplication overflow\");\n\n        return c;\n    }\n\n    /**\n     * @dev Returns the integer division of two unsigned integers. Reverts on\n     * division by zero. The result is rounded towards zero.\n     *\n     * Counterpart to Solidity's `/` operator. Note: this function uses a\n     * `revert` opcode (which leaves remaining gas untouched) while Solidity\n     * uses an invalid opcode to revert (consuming all remaining gas).\n     *\n     * Requirements:\n     * - The divisor cannot be zero.\n     */\n    function div(uint256 a, uint256 b) internal pure returns (uint256) {\n        return div(a, b, \"SafeMath: division by zero\");\n    }\n\n    /**\n     * @dev Returns the integer division of two unsigned integers. Reverts with custom message on\n     * division by zero. The result is rounded towards zero.\n     *\n     * Counterpart to Solidity's `/` operator. Note: this function uses a\n     * `revert` opcode (which leaves remaining gas untouched) while Solidity\n     * uses an invalid opcode to revert (consuming all remaining gas).\n     *\n     * Requirements:\n     * - The divisor cannot be zero.\n     *\n     * _Available since v2.4.0._\n     */\n    function div(uint256 a, uint256 b, string memory errorMessage) internal pure returns (uint256) {\n        // Solidity only automatically asserts when dividing by 0\n        require(b > 0, errorMessage);\n        uint256 c = a / b;\n        // assert(a == b * c + a % b); // There is no case in which this doesn't hold\n\n        return c;\n    }\n\n    /**\n     * @dev Returns the remainder of dividing two unsigned integers. (unsigned integer modulo),\n     * Reverts when dividing by zero.\n     *\n     * Counterpart to Solidity's `%` operator. This function uses a `revert`\n     * opcode (which leaves remaining gas untouched) while Solidity uses an\n     * invalid opcode to revert (consuming all remaining gas).\n     *\n     * Requirements:\n     * - The divisor cannot be zero.\n     */\n    function mod(uint256 a, uint256 b) internal pure returns (uint256) {\n        return mod(a, b, \"SafeMath: modulo by zero\");\n    }\n\n    /**\n     * @dev Returns the remainder of dividing two unsigned integers. (unsigned integer modulo),\n     * Reverts with custom message when dividing by zero.\n     *\n     * Counterpart to Solidity's `%` operator. This function uses a `revert`\n     * opcode (which leaves remaining gas untouched) while Solidity uses an\n     * invalid opcode to revert (consuming all remaining gas).\n     *\n     * Requirements:\n     * - The divisor cannot be zero.\n     *\n     * _Available since v2.4.0._\n     */\n    function mod(uint256 a, uint256 b, string memory errorMessage) internal pure returns (uint256) {\n        require(b != 0, errorMessage);\n        return a % b;\n    }\n}\n\n// File: openzeppelin-solidity/contracts/token/ERC20/ERC20.sol\n\n/**\n * @title ERC20 interface\n * @dev see https://github.com/ethereum/EIPs/issues/20\n */\ncontract ERC20 is ERC20Basic {\n  function allowance(address owner, address spender) public view returns (uint256);\n  function transferFrom(address from, address to, uint256 value) public returns (bool);\n  function approve(address spender, uint256 value) public returns (bool);\n  event Approval(address indexed owner, address indexed spender, uint256 value);\n}\n\n// File: openzeppelin-solidity/contracts/ownership/Ownable.sol\n\n/**\n * @title Ownable\n * @dev The Ownable contract has an owner address, and provides basic authorization control\n * functions, this simplifies the implementation of \"user permissions\".\n */\ncontract Ownable {\n    address public owner;\n    address public proposedOwner;\n    event OwnershipTransferred(address indexed previousOwner, address indexed newOwner);\n\n\n    /**\n    * @dev The Ownable constructor sets the original `owner` of the contract to the sender\n    * account.\n    */\n    constructor() public {\n        owner = msg.sender;\n    }\n\n    /**\n    * @dev Throws if called by any account other than the owner.\n    */\n    modifier onlyOwner() {\n        require(msg.sender == owner, \"Has to be owner\");\n        _;\n    }\n\n    function transferOwnership(address _proposedOwner) public onlyOwner {\n        require(msg.sender != _proposedOwner, \"Has to be diff than current owner\");\n        proposedOwner = _proposedOwner;\n    }\n\n    function claimOwnership() public {\n        require(msg.sender == proposedOwner, \"Has to be the proposed owner\");\n        emit OwnershipTransferred(owner, proposedOwner);\n        owner = proposedOwner;\n        proposedOwner = address(0);\n    }\n}\n\n// File: openzeppelin-solidity/contracts/lifecycle/Pausable.sol\n\n/**\n * @title Pausable\n * @dev Base contract which allows children to implement an emergency stop mechanism.\n */\ncontract Pausable is Ownable {\n    event Pause();\n    event Unpause();\n\n    bool public paused = false;\n\n\n    /**\n    * @dev Modifier to make a function callable only when the contract is not paused.\n    */\n    modifier whenNotPaused() {\n        require(!paused, \"Has to be unpaused\");\n        _;\n    }\n\n    /**\n    * @dev Modifier to make a function callable only when the contract is paused.\n    */\n    modifier whenPaused() {\n        require(paused, \"Has to be paused\");\n        _;\n    }\n\n    /**\n    * @dev called by the owner to pause, triggers stopped state\n    */\n    function pause() onlyOwner whenNotPaused public {\n        paused = true;\n        emit Pause();\n    }\n\n    /**\n    * @dev called by the owner to unpause, returns to normal state\n    */\n    function unpause() onlyOwner whenPaused public {\n        paused = false;\n        emit Unpause();\n    }\n}\n\n\ncontract Whitelist is Ownable {\n\n    mapping(address => bool) public whitelist;\n    address[] public whitelistedAddresses;\n    bool public hasWhitelisting = false;\n\n    event AddedToWhitelist(address[] indexed accounts);\n    event RemovedFromWhitelist(address indexed account);\n\n    modifier onlyWhitelisted() {\n        if(hasWhitelisting){\n            require(isWhitelisted(msg.sender), \"Has to be whitelisted\");\n        }\n        _;\n    }\n    \n    constructor (bool _hasWhitelisting) public{\n        hasWhitelisting = _hasWhitelisting;\n    }\n\n    function add(address[] memory _addresses) public onlyOwner {\n        for (uint i = 0; i < _addresses.length; i++) {\n            require(whitelist[_addresses[i]] != true);\n            whitelist[_addresses[i]] = true;\n            whitelistedAddresses.push(_addresses[i]);\n        }\n        emit AddedToWhitelist(_addresses);\n    }\n\n    function remove(address _address, uint256 _index) public onlyOwner {\n        require(_address == whitelistedAddresses[_index]);\n        whitelist[_address] = false;\n        delete whitelistedAddresses[_index];\n        emit RemovedFromWhitelist(_address);\n    }\n\n    function getWhitelistedAddresses() public view returns(address[] memory) {\n        return whitelistedAddresses;\n    } \n\n    function isWhitelisted(address _address) public view returns(bool) {\n        return whitelist[_address];\n    }\n}\n\ncontract FixedSwapOld is Pausable, Whitelist {\n    using SafeMath for uint256;\n    uint256 increment = 0;\n\n    mapping(uint256 => Purchase) public purchases; /* Purchasers mapping */\n    address[] public buyers; /* Current Buyers Addresses */\n    uint256[] public purchaseIds; /* All purchaseIds */\n    mapping(address => uint256[]) public myPurchases; /* Purchasers mapping */\n\n    ERC20 public erc20;\n    bool public isSaleFunded = false;\n    uint public decimals = 0;\n    bool public unsoldTokensReedemed = false;\n    uint256 public tradeValue; /* Price in Wei */\n    uint256 public startDate; /* Start Date  */\n    uint256 public endDate;  /* End Date  */\n    uint256 public individualMinimumAmount = 0;  /* Minimum Amount Per Address */\n    uint256 public individualMaximumAmount = 0;  /* Minimum Amount Per Address */\n    uint256 public minimumRaise = 0;  /* Minimum Amount of Tokens that have to be sold */\n    uint256 public tokensAllocated = 0; /* Tokens Available for Allocation - Dynamic */\n    uint256 public tokensForSale = 0; /* Tokens Available for Sale */\n    bool    public isTokenSwapAtomic; /* Make token release atomic or not */\n    address payable public FEE_ADDRESS = 0xAEb39b67F27b641Ef9F95fB74F1A46b1EE4Efc83; /* Default Address for Fee Percentage */\n    uint256 public feePercentage = 1; /* Default Fee 1% */\n\n    struct Purchase {\n        uint256 amount;\n        address purchaser;\n        uint256 ethAmount;\n        uint256 timestamp;\n        bool wasFinalized /* Confirm the tokens were sent already */;\n        bool reverted /* Confirm the tokens were sent already */;\n    }\n\n    event PurchaseEvent(uint256 amount, address indexed purchaser, uint256 timestamp);\n\n    constructor(address _tokenAddress, uint256 _tradeValue, uint256 _tokensForSale, uint256 _startDate, \n        uint256 _endDate, uint256 _individualMinimumAmount, uint256 _individualMaximumAmount, bool _isTokenSwapAtomic, uint256 _minimumRaise,\n        uint256 _feeAmount, bool _hasWhitelisting\n    ) public Whitelist(_hasWhitelisting) {\n        \n        /* Confirmations */\n        require(block.timestamp < _endDate, \"End Date should be further than current date\");\n        require(block.timestamp < _startDate, \"End Date should be further than current date\");\n        require(_startDate < _endDate, \"End Date higher than Start Date\");\n        require(_tokensForSale > 0, \"Tokens for Sale should be > 0\");\n        require(_tokensForSale > _individualMinimumAmount, \"Tokens for Sale should be > Individual Minimum Amount\");\n        require(_individualMaximumAmount >= _individualMinimumAmount, \"Individual Maximim AMount should be > Individual Minimum Amount\");\n        require(_minimumRaise <= _tokensForSale, \"Minimum Raise should be < Tokens For Sale\");\n        require(_feeAmount >= feePercentage, \"Fee Percentage has to be >= 1\");\n        require(_feeAmount <= 99, \"Fee Percentage has to be < 100\");\n\n        startDate = _startDate; \n        endDate = _endDate;\n        tokensForSale = _tokensForSale;\n        tradeValue = _tradeValue;\n\n        individualMinimumAmount = _individualMinimumAmount; \n        individualMaximumAmount = _individualMaximumAmount; \n        isTokenSwapAtomic = _isTokenSwapAtomic;\n\n        if(!_isTokenSwapAtomic){ /* If raise is not atomic swap */\n            minimumRaise = _minimumRaise;\n        }\n\n        erc20 = ERC20(_tokenAddress);\n        decimals = erc20.decimals();\n        feePercentage = _feeAmount;\n    }\n\n    /**\n    * Modifier to make a function callable only when the contract has Atomic Swaps not available.\n    */\n    modifier isNotAtomicSwap() {\n        require(!isTokenSwapAtomic, \"Has to be non Atomic swap\");\n        _;\n    }\n\n     /**\n    * Modifier to make a function callable only when the contract has Atomic Swaps not available.\n    */\n    modifier isSaleFinalized() {\n        require(hasFinalized(), \"Has to be finalized\");\n        _;\n    }\n\n     /**\n    * Modifier to make a function callable only when the swap time is open.\n    */\n    modifier isSaleOpen() {\n        require(isOpen(), \"Has to be open\");\n        _;\n    }\n\n     /**\n    * Modifier to make a function callable only when the contract has Atomic Swaps not available.\n    */\n    modifier isSalePreStarted() {\n        require(isPreStart(), \"Has to be pre-started\");\n        _;\n    }\n\n    /**\n    * Modifier to make a function callable only when the contract has Atomic Swaps not available.\n    */\n    modifier isFunded() {\n        require(isSaleFunded, \"Has to be funded\");\n        _;\n    }\n\n\n    /* Get Functions */\n    function isBuyer(uint256 purchase_id) public view returns (bool) {\n        return (msg.sender == purchases[purchase_id].purchaser);\n    }\n\n    /* Get Functions */\n    function totalRaiseCost() public view returns (uint256) {\n        return (cost(tokensForSale));\n    }\n\n    function availableTokens() public view returns (uint256) {\n        return erc20.balanceOf(address(this));\n    }\n\n    function tokensLeft() public view returns (uint256) {\n        return tokensForSale - tokensAllocated;\n    }\n\n    function hasMinimumRaise() public view returns (bool){\n        return (minimumRaise != 0);\n    }\n\n    /* Verify if minimum raise was not achieved */\n    function minimumRaiseNotAchieved() public view returns (bool){\n        require(cost(tokensAllocated) < cost(minimumRaise), \"TotalRaise is bigger than minimum raise amount\");\n        return true;\n    }\n\n    /* Verify if minimum raise was achieved */\n    function minimumRaiseAchieved() public view returns (bool){\n        if(hasMinimumRaise()){\n            require(cost(tokensAllocated) >= cost(minimumRaise), \"TotalRaise is less than minimum raise amount\");\n        }\n        return true;\n    }\n\n    function hasFinalized() public view returns (bool){\n        return block.timestamp > endDate;\n    }\n\n    function hasStarted() public view returns (bool){\n        return block.timestamp >= startDate;\n    }\n    \n    function isPreStart() public view returns (bool){\n        return block.timestamp < startDate;\n    }\n\n    function isOpen() public view returns (bool){\n        return hasStarted() && !hasFinalized();\n    }\n\n    function hasMinimumAmount() public view returns (bool){\n       return (individualMinimumAmount != 0);\n    }\n\n    function cost(uint256 _amount) public view returns (uint){\n        return _amount.mul(tradeValue).div(10**decimals); \n    }\n\n    function getPurchase(uint256 _purchase_id) external view returns (uint256, address, uint256, uint256, bool, bool){\n        Purchase memory purchase = purchases[_purchase_id];\n        return (purchase.amount, purchase.purchaser, purchase.ethAmount, purchase.timestamp, purchase.wasFinalized, purchase.reverted);\n    }\n\n    function getPurchaseIds() public view returns(uint256[] memory) {\n        return purchaseIds;\n    }\n\n    function getBuyers() public view returns(address[] memory) {\n        return buyers;\n    }\n\n    function getMyPurchases(address _address) public view returns(uint256[] memory) {\n        return myPurchases[_address];\n    }\n\n    /* Fund - Pre Sale Start */\n    function fund(uint256 _amount) public isSalePreStarted {\n        \n        /* Confirm transfered tokens is no more than needed */\n        require(availableTokens().add(_amount) <= tokensForSale, \"Transfered tokens have to be equal or less than proposed\");\n\n        /* Transfer Funds */\n        require(erc20.transferFrom(msg.sender, address(this), _amount), \"Failed ERC20 token transfer\");\n        \n        /* If Amount is equal to needed - sale is ready */\n        if(availableTokens() == tokensForSale){\n            isSaleFunded = true;\n        }\n    }\n    \n    /* Action Functions */\n    function swap(uint256 _amount) payable external whenNotPaused isFunded isSaleOpen onlyWhitelisted {\n\n        /* Confirm Amount is positive */\n        require(_amount > 0, \"Amount has to be positive\");\n\n        /* Confirm Amount is less than tokens available */\n        require(_amount <= tokensLeft(), \"Amount is less than tokens available\");\n            \n        /* Confirm the user has funds for the transfer, confirm the value is equal */\n        require(msg.value >= cost(_amount), \"User has to cover the cost of the swap in ETH, use the cost function to determine\");\n\n        /* Confirm Amount is bigger than minimum Amount */\n        require(_amount >= individualMinimumAmount, \"Amount is bigger than minimum amount\");\n\n        /* Confirm Amount is smaller than maximum Amount */\n        require(_amount <= individualMaximumAmount, \"Amount is smaller than maximum amount\");\n\n        /* Verify all user purchases, loop thru them */\n        uint256[] memory _purchases = getMyPurchases(msg.sender);\n        uint256 purchaserTotalAmountPurchased = 0;\n        for (uint i = 0; i < _purchases.length; i++) {\n            Purchase memory _purchase = purchases[_purchases[i]];\n            purchaserTotalAmountPurchased = purchaserTotalAmountPurchased.add(_purchase.amount);\n        }\n        require(purchaserTotalAmountPurchased.add(_amount) <= individualMaximumAmount, \"Address has already passed the max amount of swap\");\n\n        if(isTokenSwapAtomic){\n            /* Confirm transfer */\n            require(erc20.transfer(msg.sender, _amount), \"ERC20 transfer didnt work\");\n        }\n        \n        uint256 purchase_id = increment;\n        increment = increment.add(1);\n\n        /* Create new purchase */\n        Purchase memory purchase = Purchase(_amount, msg.sender, msg.value, block.timestamp, isTokenSwapAtomic /* If Atomic Swap */, false);\n        purchases[purchase_id] = purchase;\n        purchaseIds.push(purchase_id);\n        myPurchases[msg.sender].push(purchase_id);\n        buyers.push(msg.sender);\n        tokensAllocated = tokensAllocated.add(_amount);\n        emit PurchaseEvent(_amount, msg.sender, block.timestamp);\n    }\n\n    /* Redeem tokens when the sale was finalized */\n    function redeemTokens(uint256 purchase_id) external isNotAtomicSwap isSaleFinalized whenNotPaused {\n        /* Confirm it exists and was not finalized */\n        require((purchases[purchase_id].amount != 0) && !purchases[purchase_id].wasFinalized, \"Purchase is either 0 or finalized\");\n        require(isBuyer(purchase_id), \"Address is not buyer\");\n        purchases[purchase_id].wasFinalized = true;\n        require(erc20.transfer(msg.sender, purchases[purchase_id].amount), \"ERC20 transfer failed\");\n    }\n\n    /* Retrieve Minumum Amount */\n    function redeemGivenMinimumGoalNotAchieved(uint256 purchase_id) external isSaleFinalized isNotAtomicSwap {\n        require(hasMinimumRaise(), \"Minimum raise has to exist\");\n        require(minimumRaiseNotAchieved(), \"Minimum raise has to be reached\");\n        /* Confirm it exists and was not finalized */\n        require((purchases[purchase_id].amount != 0) && !purchases[purchase_id].wasFinalized, \"Purchase is either 0 or finalized\");\n        require(isBuyer(purchase_id), \"Address is not buyer\");\n        purchases[purchase_id].wasFinalized = true;\n        purchases[purchase_id].reverted = true;\n        msg.sender.transfer(purchases[purchase_id].ethAmount);\n    }\n\n    /* Admin Functions */\n    function withdrawFunds() external onlyOwner whenNotPaused isSaleFinalized {\n        require(minimumRaiseAchieved(), \"Minimum raise has to be reached\");\n        FEE_ADDRESS.transfer(address(this).balance.mul(feePercentage).div(100)); /* Fee Address */\n        msg.sender.transfer(address(this).balance);\n    }  \n    \n    function withdrawUnsoldTokens() external onlyOwner isSaleFinalized {\n        require(!unsoldTokensReedemed);\n        uint256 unsoldTokens;\n        if(hasMinimumRaise() && \n            (cost(tokensAllocated) < cost(minimumRaise))){ /* Minimum Raise not reached */\n                unsoldTokens = tokensForSale;\n        }else{\n            /* If minimum Raise Achieved Redeem All Tokens minus the ones */\n            unsoldTokens = tokensForSale.sub(tokensAllocated);\n        }\n\n        if(unsoldTokens > 0){\n            unsoldTokensReedemed = true;\n            require(erc20.transfer(msg.sender, unsoldTokens), \"ERC20 transfer failed\");\n        }\n    }   \n\n    function removeOtherERC20Tokens(address _tokenAddress, address _to) external onlyOwner isSaleFinalized {\n        require(_tokenAddress != address(erc20), \"Token Address has to be diff than the erc20 subject to sale\"); // Confirm tokens addresses are different from main sale one\n        ERC20 erc20Token = ERC20(_tokenAddress);\n        require(erc20Token.transfer(_to, erc20Token.balanceOf(address(this))), \"ERC20 Token transfer failed\");\n    } \n\n    /* Safe Pull function */\n    function safePull() payable external onlyOwner whenPaused {\n        msg.sender.transfer(address(this).balance);\n        erc20.transfer(msg.sender, erc20.balanceOf(address(this)));\n    }\n}",
    "sourcePath": "/Users/ruipedro/Desktop/projects/Staking/erc20/contracts/FixedSwapOld.sol",
    "compiler": {
        "name": "solc",
        "version": "0.5.8+commit.23d335f2.Emscripten.clang"
    },
    "schemaVersion": "3.0.20",
    "updatedAt": "2021-03-02T11:27:55.613Z",
    "devdoc": {
        "methods": {
            "pause()": {
                "details": "called by the owner to pause, triggers stopped state"
            },
            "unpause()": {
                "details": "called by the owner to unpause, returns to normal state"
            }
        }
    },
    "userdoc": {
        "methods": {}
    }
}