{
  "_format": "hh-sol-artifact-1",
  "contractName": "FixedSwap",
  "sourceName": "contracts/FixedSwap.sol",
  "abi": [
    {
      "inputs": [
        {
          "internalType": "address",
          "name": "_tokenAddress",
          "type": "address"
        },
        {
          "internalType": "uint256",
          "name": "_tradeValue",
          "type": "uint256"
        },
        {
          "internalType": "uint256",
          "name": "_tokensForSale",
          "type": "uint256"
        },
        {
          "internalType": "uint256",
          "name": "_startDate",
          "type": "uint256"
        },
        {
          "internalType": "uint256",
          "name": "_endDate",
          "type": "uint256"
        },
        {
          "internalType": "uint256",
          "name": "_individualMinimumAmount",
          "type": "uint256"
        },
        {
          "internalType": "uint256",
          "name": "_individualMaximumAmount",
          "type": "uint256"
        },
        {
          "internalType": "bool",
          "name": "_ignored",
          "type": "bool"
        },
        {
          "internalType": "uint256",
          "name": "_minimumRaise",
          "type": "uint256"
        },
        {
          "internalType": "uint256",
          "name": "_feePercentage",
          "type": "uint256"
        },
        {
          "internalType": "uint32",
          "name": "_flags",
          "type": "uint32"
        },
        {
          "internalType": "address",
          "name": "_erc20TradeAddress",
          "type": "address"
        }
      ],
      "stateMutability": "nonpayable",
      "type": "constructor"
    },
    {
      "inputs": [],
      "name": "AccessControlBadConfirmation",
      "type": "error"
    },
    {
      "inputs": [
        {
          "internalType": "address",
          "name": "account",
          "type": "address"
        },
        {
          "internalType": "bytes32",
          "name": "neededRole",
          "type": "bytes32"
        }
      ],
      "name": "AccessControlUnauthorizedAccount",
      "type": "error"
    },
    {
      "inputs": [
        {
          "internalType": "address",
          "name": "target",
          "type": "address"
        }
      ],
      "name": "AddressEmptyCode",
      "type": "error"
    },
    {
      "inputs": [
        {
          "internalType": "address",
          "name": "account",
          "type": "address"
        }
      ],
      "name": "AddressInsufficientBalance",
      "type": "error"
    },
    {
      "inputs": [],
      "name": "ECDSAInvalidSignature",
      "type": "error"
    },
    {
      "inputs": [
        {
          "internalType": "uint256",
          "name": "length",
          "type": "uint256"
        }
      ],
      "name": "ECDSAInvalidSignatureLength",
      "type": "error"
    },
    {
      "inputs": [
        {
          "internalType": "bytes32",
          "name": "s",
          "type": "bytes32"
        }
      ],
      "name": "ECDSAInvalidSignatureS",
      "type": "error"
    },
    {
      "inputs": [],
      "name": "EnforcedPause",
      "type": "error"
    },
    {
      "inputs": [],
      "name": "ExpectedPause",
      "type": "error"
    },
    {
      "inputs": [],
      "name": "FailedInnerCall",
      "type": "error"
    },
    {
      "inputs": [],
      "name": "ReentrancyGuardReentrantCall",
      "type": "error"
    },
    {
      "inputs": [
        {
          "internalType": "address",
          "name": "token",
          "type": "address"
        }
      ],
      "name": "SafeERC20FailedOperation",
      "type": "error"
    },
    {
      "anonymous": false,
      "inputs": [
        {
          "indexed": false,
          "internalType": "uint256",
          "name": "count",
          "type": "uint256"
        }
      ],
      "name": "AddedArrayToBlacklist",
      "type": "event"
    },
    {
      "anonymous": false,
      "inputs": [
        {
          "indexed": false,
          "internalType": "uint256",
          "name": "count",
          "type": "uint256"
        }
      ],
      "name": "AddedArrayToWhitelist",
      "type": "event"
    },
    {
      "anonymous": false,
      "inputs": [
        {
          "indexed": true,
          "internalType": "address",
          "name": "account",
          "type": "address"
        }
      ],
      "name": "AddedToBlacklist",
      "type": "event"
    },
    {
      "anonymous": false,
      "inputs": [
        {
          "indexed": true,
          "internalType": "address",
          "name": "account",
          "type": "address"
        }
      ],
      "name": "AddedToWhitelist",
      "type": "event"
    },
    {
      "anonymous": false,
      "inputs": [
        {
          "indexed": false,
          "internalType": "address",
          "name": "account",
          "type": "address"
        }
      ],
      "name": "Paused",
      "type": "event"
    },
    {
      "anonymous": false,
      "inputs": [
        {
          "indexed": false,
          "internalType": "uint256",
          "name": "amount",
          "type": "uint256"
        },
        {
          "indexed": true,
          "internalType": "address",
          "name": "purchaser",
          "type": "address"
        },
        {
          "indexed": false,
          "internalType": "uint256",
          "name": "timestamp",
          "type": "uint256"
        }
      ],
      "name": "PurchaseEvent",
      "type": "event"
    },
    {
      "anonymous": false,
      "inputs": [
        {
          "indexed": false,
          "internalType": "uint256",
          "name": "purchase_id",
          "type": "uint256"
        }
      ],
      "name": "PurchaseFinalized",
      "type": "event"
    },
    {
      "anonymous": false,
      "inputs": [
        {
          "indexed": false,
          "internalType": "uint256",
          "name": "purchase_id",
          "type": "uint256"
        }
      ],
      "name": "PurchaseReverted",
      "type": "event"
    },
    {
      "anonymous": false,
      "inputs": [
        {
          "indexed": true,
          "internalType": "uint256",
          "name": "purchase_id",
          "type": "uint256"
        },
        {
          "indexed": true,
          "internalType": "address",
          "name": "buyer",
          "type": "address"
        },
        {
          "indexed": false,
          "internalType": "uint256",
          "name": "refundAmount",
          "type": "uint256"
        },
        {
          "indexed": false,
          "internalType": "uint256",
          "name": "tokenAmount",
          "type": "uint256"
        }
      ],
      "name": "RefundIssued",
      "type": "event"
    },
    {
      "anonymous": false,
      "inputs": [
        {
          "indexed": true,
          "internalType": "address",
          "name": "to",
          "type": "address"
        },
        {
          "indexed": false,
          "internalType": "uint256",
          "name": "amount",
          "type": "uint256"
        }
      ],
      "name": "RefundPenaltyWithdrawn",
      "type": "event"
    },
    {
      "anonymous": false,
      "inputs": [
        {
          "indexed": false,
          "internalType": "uint256",
          "name": "refundPeriodStart",
          "type": "uint256"
        },
        {
          "indexed": false,
          "internalType": "uint256",
          "name": "refundPeriodEnd",
          "type": "uint256"
        },
        {
          "indexed": false,
          "internalType": "uint256",
          "name": "refundPercentage",
          "type": "uint256"
        }
      ],
      "name": "RefundPeriodSet",
      "type": "event"
    },
    {
      "anonymous": false,
      "inputs": [
        {
          "indexed": true,
          "internalType": "address",
          "name": "to",
          "type": "address"
        },
        {
          "indexed": false,
          "internalType": "uint256",
          "name": "amount",
          "type": "uint256"
        }
      ],
      "name": "RefundedTokensWithdrawn",
      "type": "event"
    },
    {
      "anonymous": false,
      "inputs": [
        {
          "indexed": true,
          "internalType": "address",
          "name": "account",
          "type": "address"
        }
      ],
      "name": "RemovedFromBlacklist",
      "type": "event"
    },
    {
      "anonymous": false,
      "inputs": [
        {
          "indexed": true,
          "internalType": "address",
          "name": "account",
          "type": "address"
        }
      ],
      "name": "RemovedFromWhitelist",
      "type": "event"
    },
    {
      "anonymous": false,
      "inputs": [
        {
          "indexed": true,
          "internalType": "bytes32",
          "name": "role",
          "type": "bytes32"
        },
        {
          "indexed": true,
          "internalType": "bytes32",
          "name": "previousAdminRole",
          "type": "bytes32"
        },
        {
          "indexed": true,
          "internalType": "bytes32",
          "name": "newAdminRole",
          "type": "bytes32"
        }
      ],
      "name": "RoleAdminChanged",
      "type": "event"
    },
    {
      "anonymous": false,
      "inputs": [
        {
          "indexed": true,
          "internalType": "bytes32",
          "name": "role",
          "type": "bytes32"
        },
        {
          "indexed": true,
          "internalType": "address",
          "name": "account",
          "type": "address"
        },
        {
          "indexed": true,
          "internalType": "address",
          "name": "sender",
          "type": "address"
        }
      ],
      "name": "RoleGranted",
      "type": "event"
    },
    {
      "anonymous": false,
      "inputs": [
        {
          "indexed": true,
          "internalType": "bytes32",
          "name": "role",
          "type": "bytes32"
        },
        {
          "indexed": true,
          "internalType": "address",
          "name": "account",
          "type": "address"
        },
        {
          "indexed": true,
          "internalType": "address",
          "name": "sender",
          "type": "address"
        }
      ],
      "name": "RoleRevoked",
      "type": "event"
    },
    {
      "anonymous": false,
      "inputs": [
        {
          "indexed": false,
          "internalType": "uint256",
          "name": "endDate",
          "type": "uint256"
        }
      ],
      "name": "SetEndDateEvent",
      "type": "event"
    },
    {
      "anonymous": false,
      "inputs": [
        {
          "indexed": false,
          "internalType": "bool",
          "name": "hasWhitelisting",
          "type": "bool"
        }
      ],
      "name": "SetHasWhitelisting",
      "type": "event"
    },
    {
      "anonymous": false,
      "inputs": [
        {
          "indexed": false,
          "internalType": "address",
          "name": "stakingRewardsAddress",
          "type": "address"
        }
      ],
      "name": "SetStakingRewardsEvent",
      "type": "event"
    },
    {
      "anonymous": false,
      "inputs": [
        {
          "indexed": false,
          "internalType": "uint256",
          "name": "startDate",
          "type": "uint256"
        }
      ],
      "name": "SetStartDateEvent",
      "type": "event"
    },
    {
      "anonymous": false,
      "inputs": [
        {
          "indexed": false,
          "internalType": "uint256",
          "name": "tradeValue",
          "type": "uint256"
        }
      ],
      "name": "SetTradeValueEvent",
      "type": "event"
    },
    {
      "anonymous": false,
      "inputs": [
        {
          "indexed": false,
          "internalType": "uint256",
          "name": "tgeAllocation",
          "type": "uint256"
        },
        {
          "indexed": false,
          "internalType": "uint256",
          "name": "tgeTime",
          "type": "uint256"
        },
        {
          "indexed": false,
          "internalType": "uint256",
          "name": "vestingStart",
          "type": "uint256"
        },
        {
          "indexed": false,
          "internalType": "uint256",
          "name": "vestingCliff",
          "type": "uint256"
        },
        {
          "indexed": false,
          "internalType": "uint256",
          "name": "vestingDuration",
          "type": "uint256"
        },
        {
          "indexed": false,
          "internalType": "uint256[]",
          "name": "vestingSchedule",
          "type": "uint256[]"
        }
      ],
      "name": "SetVestingEvent",
      "type": "event"
    },
    {
      "anonymous": false,
      "inputs": [
        {
          "indexed": false,
          "internalType": "address",
          "name": "account",
          "type": "address"
        }
      ],
      "name": "Unpaused",
      "type": "event"
    },
    {
      "inputs": [],
      "name": "DECIMALS_PERCENT_MUL",
      "outputs": [
        {
          "internalType": "uint256",
          "name": "",
          "type": "uint256"
        }
      ],
      "stateMutability": "view",
      "type": "function"
    },
    {
      "inputs": [],
      "name": "DEFAULT_ADMIN_ROLE",
      "outputs": [
        {
          "internalType": "bytes32",
          "name": "",
          "type": "bytes32"
        }
      ],
      "stateMutability": "view",
      "type": "function"
    },
    {
      "inputs": [],
      "name": "FEE_ADDRESS",
      "outputs": [
        {
          "internalType": "address",
          "name": "",
          "type": "address"
        }
      ],
      "stateMutability": "view",
      "type": "function"
    },
    {
      "inputs": [],
      "name": "MAX_TOTAL_VESTING_TIME",
      "outputs": [
        {
          "internalType": "uint256",
          "name": "",
          "type": "uint256"
        }
      ],
      "stateMutability": "view",
      "type": "function"
    },
    {
      "inputs": [],
      "name": "WHITELIST_OWNER_ROLE",
      "outputs": [
        {
          "internalType": "bytes32",
          "name": "",
          "type": "bytes32"
        }
      ],
      "stateMutability": "view",
      "type": "function"
    },
    {
      "inputs": [
        {
          "internalType": "address[]",
          "name": "_addresses",
          "type": "address[]"
        }
      ],
      "name": "addArrayToBlacklist",
      "outputs": [],
      "stateMutability": "nonpayable",
      "type": "function"
    },
    {
      "inputs": [
        {
          "internalType": "address[]",
          "name": "_addresses",
          "type": "address[]"
        }
      ],
      "name": "addArrayToWhitelist",
      "outputs": [],
      "stateMutability": "nonpayable",
      "type": "function"
    },
    {
      "inputs": [
        {
          "internalType": "address",
          "name": "_address",
          "type": "address"
        }
      ],
      "name": "addToBlacklist",
      "outputs": [],
      "stateMutability": "nonpayable",
      "type": "function"
    },
    {
      "inputs": [
        {
          "internalType": "address",
          "name": "_address",
          "type": "address"
        }
      ],
      "name": "addToWhitelist",
      "outputs": [],
      "stateMutability": "nonpayable",
      "type": "function"
    },
    {
      "inputs": [],
      "name": "allowLateVestingChange",
      "outputs": [
        {
          "internalType": "bool",
          "name": "",
          "type": "bool"
        }
      ],
      "stateMutability": "view",
      "type": "function"
    },
    {
      "inputs": [],
      "name": "allowSaleStartwithoutFunding",
      "outputs": [
        {
          "internalType": "bool",
          "name": "",
          "type": "bool"
        }
      ],
      "stateMutability": "view",
      "type": "function"
    },
    {
      "inputs": [],
      "name": "availableTokens",
      "outputs": [
        {
          "internalType": "uint256",
          "name": "",
          "type": "uint256"
        }
      ],
      "stateMutability": "view",
      "type": "function"
    },
    {
      "inputs": [
        {
          "internalType": "uint256",
          "name": "",
          "type": "uint256"
        }
      ],
      "name": "buyers",
      "outputs": [
        {
          "internalType": "address",
          "name": "",
          "type": "address"
        }
      ],
      "stateMutability": "view",
      "type": "function"
    },
    {
      "inputs": [
        {
          "internalType": "uint256",
          "name": "_amount",
          "type": "uint256"
        }
      ],
      "name": "cost",
      "outputs": [
        {
          "internalType": "uint256",
          "name": "",
          "type": "uint256"
        }
      ],
      "stateMutability": "view",
      "type": "function"
    },
    {
      "inputs": [
        {
          "internalType": "address",
          "name": "_account",
          "type": "address"
        },
        {
          "internalType": "uint256",
          "name": "_accountMaximunAllocation",
          "type": "uint256"
        },
        {
          "internalType": "bytes",
          "name": "_signature",
          "type": "bytes"
        }
      ],
      "name": "determineAccountMaximunAllocation",
      "outputs": [
        {
          "internalType": "uint256",
          "name": "",
          "type": "uint256"
        }
      ],
      "stateMutability": "view",
      "type": "function"
    },
    {
      "inputs": [],
      "name": "endDate",
      "outputs": [
        {
          "internalType": "uint256",
          "name": "",
          "type": "uint256"
        }
      ],
      "stateMutability": "view",
      "type": "function"
    },
    {
      "inputs": [],
      "name": "erc20",
      "outputs": [
        {
          "internalType": "contract IERC20",
          "name": "",
          "type": "address"
        }
      ],
      "stateMutability": "view",
      "type": "function"
    },
    {
      "inputs": [],
      "name": "erc20TradeIn",
      "outputs": [
        {
          "internalType": "contract IERC20",
          "name": "",
          "type": "address"
        }
      ],
      "stateMutability": "view",
      "type": "function"
    },
    {
      "inputs": [],
      "name": "feePercentage",
      "outputs": [
        {
          "internalType": "uint256",
          "name": "",
          "type": "uint256"
        }
      ],
      "stateMutability": "view",
      "type": "function"
    },
    {
      "inputs": [
        {
          "internalType": "uint256",
          "name": "_amount",
          "type": "uint256"
        }
      ],
      "name": "fund",
      "outputs": [],
      "stateMutability": "nonpayable",
      "type": "function"
    },
    {
      "inputs": [],
      "name": "fundFull",
      "outputs": [],
      "stateMutability": "nonpayable",
      "type": "function"
    },
    {
      "inputs": [],
      "name": "getBlacklistedAddresses",
      "outputs": [
        {
          "internalType": "address[]",
          "name": "",
          "type": "address[]"
        }
      ],
      "stateMutability": "view",
      "type": "function"
    },
    {
      "inputs": [],
      "name": "getBuyers",
      "outputs": [
        {
          "internalType": "address[]",
          "name": "",
          "type": "address[]"
        }
      ],
      "stateMutability": "view",
      "type": "function"
    },
    {
      "inputs": [],
      "name": "getCurrentSchedule",
      "outputs": [
        {
          "internalType": "uint256",
          "name": "schedule",
          "type": "uint256"
        }
      ],
      "stateMutability": "view",
      "type": "function"
    },
    {
      "inputs": [
        {
          "internalType": "address",
          "name": "_address",
          "type": "address"
        }
      ],
      "name": "getMyPurchases",
      "outputs": [
        {
          "internalType": "uint256[]",
          "name": "",
          "type": "uint256[]"
        }
      ],
      "stateMutability": "view",
      "type": "function"
    },
    {
      "inputs": [],
      "name": "getMyPurchases_msgSender",
      "outputs": [
        {
          "internalType": "uint256[]",
          "name": "",
          "type": "uint256[]"
        }
      ],
      "stateMutability": "view",
      "type": "function"
    },
    {
      "inputs": [
        {
          "internalType": "uint256",
          "name": "purchase_id",
          "type": "uint256"
        }
      ],
      "name": "getPurchase",
      "outputs": [
        {
          "internalType": "uint256",
          "name": "amount",
          "type": "uint256"
        },
        {
          "internalType": "address",
          "name": "purchaser",
          "type": "address"
        },
        {
          "internalType": "uint256",
          "name": "costAmount",
          "type": "uint256"
        },
        {
          "internalType": "uint48",
          "name": "timestamp",
          "type": "uint48"
        },
        {
          "internalType": "bool",
          "name": "wasFinalized",
          "type": "bool"
        },
        {
          "internalType": "bool",
          "name": "reverted",
          "type": "bool"
        },
        {
          "internalType": "uint256",
          "name": "amountRedeemed",
          "type": "uint256"
        }
      ],
      "stateMutability": "view",
      "type": "function"
    },
    {
      "inputs": [],
      "name": "getPurchasesCount",
      "outputs": [
        {
          "internalType": "uint256",
          "name": "count",
          "type": "uint256"
        }
      ],
      "stateMutability": "view",
      "type": "function"
    },
    {
      "inputs": [
        {
          "internalType": "uint256",
          "name": "purchase_id",
          "type": "uint256"
        }
      ],
      "name": "getRedeemStatus",
      "outputs": [
        {
          "internalType": "uint256",
          "name": "amount",
          "type": "uint256"
        },
        {
          "internalType": "uint256",
          "name": "amountRedeemed",
          "type": "uint256"
        },
        {
          "internalType": "uint256",
          "name": "vestAmount",
          "type": "uint256"
        },
        {
          "internalType": "string",
          "name": "message",
          "type": "string"
        }
      ],
      "stateMutability": "view",
      "type": "function"
    },
    {
      "inputs": [
        {
          "internalType": "uint256",
          "name": "purchase_id",
          "type": "uint256"
        }
      ],
      "name": "getRedeemableTokensAmount",
      "outputs": [
        {
          "internalType": "uint256",
          "name": "amount",
          "type": "uint256"
        },
        {
          "internalType": "string",
          "name": "message",
          "type": "string"
        }
      ],
      "stateMutability": "view",
      "type": "function"
    },
    {
      "inputs": [
        {
          "internalType": "uint256",
          "name": "purchase_id",
          "type": "uint256"
        }
      ],
      "name": "getRefundAmount",
      "outputs": [
        {
          "internalType": "uint256",
          "name": "refundAmount",
          "type": "uint256"
        },
        {
          "internalType": "uint256",
          "name": "unclaimedTokens",
          "type": "uint256"
        },
        {
          "internalType": "string",
          "name": "message",
          "type": "string"
        }
      ],
      "stateMutability": "view",
      "type": "function"
    },
    {
      "inputs": [
        {
          "internalType": "bytes32",
          "name": "role",
          "type": "bytes32"
        }
      ],
      "name": "getRoleAdmin",
      "outputs": [
        {
          "internalType": "bytes32",
          "name": "",
          "type": "bytes32"
        }
      ],
      "stateMutability": "view",
      "type": "function"
    },
    {
      "inputs": [],
      "name": "getVersion",
      "outputs": [
        {
          "internalType": "uint32",
          "name": "API_VERSION",
          "type": "uint32"
        }
      ],
      "stateMutability": "pure",
      "type": "function"
    },
    {
      "inputs": [],
      "name": "getVestingEndTime",
      "outputs": [
        {
          "internalType": "uint256",
          "name": "",
          "type": "uint256"
        }
      ],
      "stateMutability": "view",
      "type": "function"
    },
    {
      "inputs": [],
      "name": "getVestingParameters",
      "outputs": [
        {
          "internalType": "uint256",
          "name": "_tgeAllocation",
          "type": "uint256"
        },
        {
          "internalType": "uint256",
          "name": "_tgeTime",
          "type": "uint256"
        },
        {
          "internalType": "uint256",
          "name": "_vestingStart",
          "type": "uint256"
        },
        {
          "internalType": "uint256",
          "name": "_vestingCliff",
          "type": "uint256"
        },
        {
          "internalType": "uint256",
          "name": "_vestingDuration",
          "type": "uint256"
        },
        {
          "internalType": "uint256[]",
          "name": "_vestingSchedule",
          "type": "uint256[]"
        }
      ],
      "stateMutability": "view",
      "type": "function"
    },
    {
      "inputs": [],
      "name": "getVestingStartTime",
      "outputs": [
        {
          "internalType": "uint256",
          "name": "",
          "type": "uint256"
        }
      ],
      "stateMutability": "view",
      "type": "function"
    },
    {
      "inputs": [],
      "name": "getWhitelistedAddresses",
      "outputs": [
        {
          "internalType": "address[]",
          "name": "",
          "type": "address[]"
        }
      ],
      "stateMutability": "view",
      "type": "function"
    },
    {
      "inputs": [
        {
          "internalType": "bytes32",
          "name": "role",
          "type": "bytes32"
        },
        {
          "internalType": "address",
          "name": "account",
          "type": "address"
        }
      ],
      "name": "grantRole",
      "outputs": [],
      "stateMutability": "nonpayable",
      "type": "function"
    },
    {
      "inputs": [],
      "name": "hasFinalized",
      "outputs": [
        {
          "internalType": "bool",
          "name": "",
          "type": "bool"
        }
      ],
      "stateMutability": "view",
      "type": "function"
    },
    {
      "inputs": [],
      "name": "hasMinimumAmount",
      "outputs": [
        {
          "internalType": "bool",
          "name": "",
          "type": "bool"
        }
      ],
      "stateMutability": "view",
      "type": "function"
    },
    {
      "inputs": [],
      "name": "hasMinimumRaise",
      "outputs": [
        {
          "internalType": "bool",
          "name": "",
          "type": "bool"
        }
      ],
      "stateMutability": "view",
      "type": "function"
    },
    {
      "inputs": [
        {
          "internalType": "bytes32",
          "name": "role",
          "type": "bytes32"
        },
        {
          "internalType": "address",
          "name": "account",
          "type": "address"
        }
      ],
      "name": "hasRole",
      "outputs": [
        {
          "internalType": "bool",
          "name": "",
          "type": "bool"
        }
      ],
      "stateMutability": "view",
      "type": "function"
    },
    {
      "inputs": [],
      "name": "hasStarted",
      "outputs": [
        {
          "internalType": "bool",
          "name": "",
          "type": "bool"
        }
      ],
      "stateMutability": "view",
      "type": "function"
    },
    {
      "inputs": [],
      "name": "hasWhitelisting",
      "outputs": [
        {
          "internalType": "bool",
          "name": "",
          "type": "bool"
        }
      ],
      "stateMutability": "view",
      "type": "function"
    },
    {
      "inputs": [],
      "name": "individualMaximumAmount",
      "outputs": [
        {
          "internalType": "uint256",
          "name": "",
          "type": "uint256"
        }
      ],
      "stateMutability": "view",
      "type": "function"
    },
    {
      "inputs": [],
      "name": "individualMinimumAmount",
      "outputs": [
        {
          "internalType": "uint256",
          "name": "",
          "type": "uint256"
        }
      ],
      "stateMutability": "view",
      "type": "function"
    },
    {
      "inputs": [],
      "name": "isBeforeVestingStart",
      "outputs": [
        {
          "internalType": "bool",
          "name": "",
          "type": "bool"
        }
      ],
      "stateMutability": "view",
      "type": "function"
    },
    {
      "inputs": [
        {
          "internalType": "address",
          "name": "_address",
          "type": "address"
        }
      ],
      "name": "isBlacklisted",
      "outputs": [
        {
          "internalType": "bool",
          "name": "",
          "type": "bool"
        }
      ],
      "stateMutability": "view",
      "type": "function"
    },
    {
      "inputs": [
        {
          "internalType": "uint256",
          "name": "purchase_id",
          "type": "uint256"
        }
      ],
      "name": "isBuyer",
      "outputs": [
        {
          "internalType": "bool",
          "name": "",
          "type": "bool"
        }
      ],
      "stateMutability": "view",
      "type": "function"
    },
    {
      "inputs": [],
      "name": "isETHTrade",
      "outputs": [
        {
          "internalType": "bool",
          "name": "",
          "type": "bool"
        }
      ],
      "stateMutability": "view",
      "type": "function"
    },
    {
      "inputs": [],
      "name": "isInRefundPeriod",
      "outputs": [
        {
          "internalType": "bool",
          "name": "",
          "type": "bool"
        }
      ],
      "stateMutability": "view",
      "type": "function"
    },
    {
      "inputs": [],
      "name": "isOpen",
      "outputs": [
        {
          "internalType": "bool",
          "name": "",
          "type": "bool"
        }
      ],
      "stateMutability": "view",
      "type": "function"
    },
    {
      "inputs": [],
      "name": "isPreStart",
      "outputs": [
        {
          "internalType": "bool",
          "name": "",
          "type": "bool"
        }
      ],
      "stateMutability": "view",
      "type": "function"
    },
    {
      "inputs": [],
      "name": "isSaleFunded",
      "outputs": [
        {
          "internalType": "bool",
          "name": "",
          "type": "bool"
        }
      ],
      "stateMutability": "view",
      "type": "function"
    },
    {
      "inputs": [
        {
          "internalType": "address",
          "name": "_userAccountAaddress",
          "type": "address"
        },
        {
          "internalType": "uint256",
          "name": "_accountMaximunAllocation",
          "type": "uint256"
        },
        {
          "internalType": "bytes",
          "name": "signature",
          "type": "bytes"
        }
      ],
      "name": "isSignerForAddressMaxAlloc",
      "outputs": [
        {
          "internalType": "bool",
          "name": "",
          "type": "bool"
        }
      ],
      "stateMutability": "view",
      "type": "function"
    },
    {
      "inputs": [
        {
          "internalType": "bytes32",
          "name": "hash",
          "type": "bytes32"
        },
        {
          "internalType": "bytes",
          "name": "signature",
          "type": "bytes"
        }
      ],
      "name": "isSignerFromBytes32",
      "outputs": [
        {
          "internalType": "bool",
          "name": "",
          "type": "bool"
        }
      ],
      "stateMutability": "view",
      "type": "function"
    },
    {
      "inputs": [],
      "name": "isTokenSwapAtomic",
      "outputs": [
        {
          "internalType": "bool",
          "name": "",
          "type": "bool"
        }
      ],
      "stateMutability": "view",
      "type": "function"
    },
    {
      "inputs": [
        {
          "internalType": "address",
          "name": "_address",
          "type": "address"
        }
      ],
      "name": "isWhitelisted",
      "outputs": [
        {
          "internalType": "bool",
          "name": "",
          "type": "bool"
        }
      ],
      "stateMutability": "view",
      "type": "function"
    },
    {
      "inputs": [],
      "name": "minimumRaise",
      "outputs": [
        {
          "internalType": "uint256",
          "name": "",
          "type": "uint256"
        }
      ],
      "stateMutability": "view",
      "type": "function"
    },
    {
      "inputs": [],
      "name": "minimumRaiseAchieved",
      "outputs": [
        {
          "internalType": "bool",
          "name": "",
          "type": "bool"
        }
      ],
      "stateMutability": "view",
      "type": "function"
    },
    {
      "inputs": [],
      "name": "minimumRaiseNotAchieved",
      "outputs": [
        {
          "internalType": "bool",
          "name": "",
          "type": "bool"
        }
      ],
      "stateMutability": "view",
      "type": "function"
    },
    {
      "inputs": [
        {
          "internalType": "address",
          "name": "",
          "type": "address"
        },
        {
          "internalType": "uint256",
          "name": "",
          "type": "uint256"
        }
      ],
      "name": "myPurchases",
      "outputs": [
        {
          "internalType": "uint256",
          "name": "",
          "type": "uint256"
        }
      ],
      "stateMutability": "view",
      "type": "function"
    },
    {
      "inputs": [],
      "name": "pause",
      "outputs": [],
      "stateMutability": "nonpayable",
      "type": "function"
    },
    {
      "inputs": [],
      "name": "paused",
      "outputs": [
        {
          "internalType": "bool",
          "name": "",
          "type": "bool"
        }
      ],
      "stateMutability": "view",
      "type": "function"
    },
    {
      "inputs": [
        {
          "internalType": "uint256",
          "name": "purchase_id",
          "type": "uint256"
        }
      ],
      "name": "purchaseExists",
      "outputs": [
        {
          "internalType": "bool",
          "name": "",
          "type": "bool"
        }
      ],
      "stateMutability": "view",
      "type": "function"
    },
    {
      "inputs": [
        {
          "internalType": "uint256",
          "name": "",
          "type": "uint256"
        }
      ],
      "name": "purchases",
      "outputs": [
        {
          "internalType": "address",
          "name": "purchaser",
          "type": "address"
        },
        {
          "internalType": "uint48",
          "name": "timestamp",
          "type": "uint48"
        },
        {
          "internalType": "bool",
          "name": "wasFinalized",
          "type": "bool"
        },
        {
          "internalType": "bool",
          "name": "reverted",
          "type": "bool"
        },
        {
          "internalType": "uint256",
          "name": "amount",
          "type": "uint256"
        },
        {
          "internalType": "uint256",
          "name": "costAmount",
          "type": "uint256"
        },
        {
          "internalType": "uint256",
          "name": "amountRedeemed",
          "type": "uint256"
        }
      ],
      "stateMutability": "view",
      "type": "function"
    },
    {
      "inputs": [
        {
          "internalType": "bytes32",
          "name": "hash",
          "type": "bytes32"
        },
        {
          "internalType": "bytes",
          "name": "signature",
          "type": "bytes"
        }
      ],
      "name": "recoverSignerAddressFromBytes32",
      "outputs": [
        {
          "internalType": "address",
          "name": "",
          "type": "address"
        }
      ],
      "stateMutability": "pure",
      "type": "function"
    },
    {
      "inputs": [
        {
          "internalType": "uint256",
          "name": "purchase_id",
          "type": "uint256"
        }
      ],
      "name": "redeemGivenMinimumGoalNotAchieved",
      "outputs": [],
      "stateMutability": "nonpayable",
      "type": "function"
    },
    {
      "inputs": [
        {
          "internalType": "uint256",
          "name": "purchase_id",
          "type": "uint256"
        }
      ],
      "name": "redeemTokens",
      "outputs": [],
      "stateMutability": "nonpayable",
      "type": "function"
    },
    {
      "inputs": [
        {
          "internalType": "uint256",
          "name": "purchase_id",
          "type": "uint256"
        }
      ],
      "name": "refund",
      "outputs": [],
      "stateMutability": "nonpayable",
      "type": "function"
    },
    {
      "inputs": [],
      "name": "refundPercentage",
      "outputs": [
        {
          "internalType": "uint256",
          "name": "",
          "type": "uint256"
        }
      ],
      "stateMutability": "view",
      "type": "function"
    },
    {
      "inputs": [],
      "name": "refundPeriodEnd",
      "outputs": [
        {
          "internalType": "uint256",
          "name": "",
          "type": "uint256"
        }
      ],
      "stateMutability": "view",
      "type": "function"
    },
    {
      "inputs": [],
      "name": "refundPeriodStart",
      "outputs": [
        {
          "internalType": "uint256",
          "name": "",
          "type": "uint256"
        }
      ],
      "stateMutability": "view",
      "type": "function"
    },
    {
      "inputs": [
        {
          "internalType": "address",
          "name": "_address",
          "type": "address"
        }
      ],
      "name": "removeFromBlacklist",
      "outputs": [],
      "stateMutability": "nonpayable",
      "type": "function"
    },
    {
      "inputs": [
        {
          "internalType": "address",
          "name": "_address",
          "type": "address"
        }
      ],
      "name": "removeFromWhitelist",
      "outputs": [],
      "stateMutability": "nonpayable",
      "type": "function"
    },
    {
      "inputs": [
        {
          "internalType": "address",
          "name": "_tokenAddress",
          "type": "address"
        },
        {
          "internalType": "address",
          "name": "_to",
          "type": "address"
        }
      ],
      "name": "removeOtherERC20Tokens",
      "outputs": [],
      "stateMutability": "nonpayable",
      "type": "function"
    },
    {
      "inputs": [
        {
          "internalType": "bytes32",
          "name": "role",
          "type": "bytes32"
        },
        {
          "internalType": "address",
          "name": "callerConfirmation",
          "type": "address"
        }
      ],
      "name": "renounceRole",
      "outputs": [],
      "stateMutability": "nonpayable",
      "type": "function"
    },
    {
      "inputs": [
        {
          "internalType": "bytes32",
          "name": "role",
          "type": "bytes32"
        },
        {
          "internalType": "address",
          "name": "account",
          "type": "address"
        }
      ],
      "name": "revokeRole",
      "outputs": [],
      "stateMutability": "nonpayable",
      "type": "function"
    },
    {
      "inputs": [],
      "name": "safePullETH",
      "outputs": [],
      "stateMutability": "nonpayable",
      "type": "function"
    },
    {
      "inputs": [],
      "name": "safePullSaleToken",
      "outputs": [],
      "stateMutability": "nonpayable",
      "type": "function"
    },
    {
      "inputs": [],
      "name": "safePullTradeToken",
      "outputs": [],
      "stateMutability": "nonpayable",
      "type": "function"
    },
    {
      "inputs": [
        {
          "internalType": "uint256",
          "name": "_endDate",
          "type": "uint256"
        }
      ],
      "name": "setEndDate",
      "outputs": [],
      "stateMutability": "nonpayable",
      "type": "function"
    },
    {
      "inputs": [
        {
          "internalType": "bool",
          "name": "_hasWhitelisting",
          "type": "bool"
        }
      ],
      "name": "setHasWhitelisting",
      "outputs": [],
      "stateMutability": "nonpayable",
      "type": "function"
    },
    {
      "inputs": [
        {
          "internalType": "uint256",
          "name": "_individualMaximumAmount",
          "type": "uint256"
        }
      ],
      "name": "setIndividualMaximumAmount",
      "outputs": [],
      "stateMutability": "nonpayable",
      "type": "function"
    },
    {
      "inputs": [
        {
          "internalType": "uint256",
          "name": "_refundPeriodStart",
          "type": "uint256"
        },
        {
          "internalType": "uint256",
          "name": "_refundPeriodEnd",
          "type": "uint256"
        },
        {
          "internalType": "uint256",
          "name": "_refundPercentage",
          "type": "uint256"
        }
      ],
      "name": "setRefundPeriod",
      "outputs": [],
      "stateMutability": "nonpayable",
      "type": "function"
    },
    {
      "inputs": [
        {
          "internalType": "address",
          "name": "_tokenAddress",
          "type": "address"
        }
      ],
      "name": "setSaleTokenAddress",
      "outputs": [],
      "stateMutability": "nonpayable",
      "type": "function"
    },
    {
      "inputs": [
        {
          "internalType": "address",
          "name": "_signerPublicAddress",
          "type": "address"
        }
      ],
      "name": "setSignerPublicAddress",
      "outputs": [],
      "stateMutability": "nonpayable",
      "type": "function"
    },
    {
      "inputs": [
        {
          "internalType": "address",
          "name": "_stakingRewardsAddress",
          "type": "address"
        }
      ],
      "name": "setStakingRewards",
      "outputs": [],
      "stateMutability": "nonpayable",
      "type": "function"
    },
    {
      "inputs": [
        {
          "internalType": "uint256",
          "name": "_startDate",
          "type": "uint256"
        }
      ],
      "name": "setStartDate",
      "outputs": [],
      "stateMutability": "nonpayable",
      "type": "function"
    },
    {
      "inputs": [
        {
          "internalType": "uint256",
          "name": "_tradeValue",
          "type": "uint256"
        }
      ],
      "name": "setTradeValue",
      "outputs": [],
      "stateMutability": "nonpayable",
      "type": "function"
    },
    {
      "inputs": [
        {
          "internalType": "uint256",
          "name": "_tgeAllocation",
          "type": "uint256"
        },
        {
          "internalType": "uint256",
          "name": "_tgeTime",
          "type": "uint256"
        },
        {
          "internalType": "uint256",
          "name": "_vestingStart",
          "type": "uint256"
        },
        {
          "internalType": "uint256",
          "name": "_vestingCliff",
          "type": "uint256"
        },
        {
          "internalType": "uint256",
          "name": "_vestingDuration",
          "type": "uint256"
        },
        {
          "internalType": "uint256[]",
          "name": "_vestingSchedule",
          "type": "uint256[]"
        }
      ],
      "name": "setVesting",
      "outputs": [],
      "stateMutability": "nonpayable",
      "type": "function"
    },
    {
      "inputs": [],
      "name": "signerPublicAddress",
      "outputs": [
        {
          "internalType": "address",
          "name": "",
          "type": "address"
        }
      ],
      "stateMutability": "view",
      "type": "function"
    },
    {
      "inputs": [],
      "name": "stakingRewardsAddress",
      "outputs": [
        {
          "internalType": "address",
          "name": "",
          "type": "address"
        }
      ],
      "stateMutability": "view",
      "type": "function"
    },
    {
      "inputs": [],
      "name": "startDate",
      "outputs": [
        {
          "internalType": "uint256",
          "name": "",
          "type": "uint256"
        }
      ],
      "stateMutability": "view",
      "type": "function"
    },
    {
      "inputs": [
        {
          "internalType": "bytes4",
          "name": "interfaceId",
          "type": "bytes4"
        }
      ],
      "name": "supportsInterface",
      "outputs": [
        {
          "internalType": "bool",
          "name": "",
          "type": "bool"
        }
      ],
      "stateMutability": "view",
      "type": "function"
    },
    {
      "inputs": [
        {
          "internalType": "uint256",
          "name": "_amount",
          "type": "uint256"
        },
        {
          "internalType": "bytes",
          "name": "_signature",
          "type": "bytes"
        }
      ],
      "name": "swap",
      "outputs": [],
      "stateMutability": "payable",
      "type": "function"
    },
    {
      "inputs": [
        {
          "internalType": "uint256",
          "name": "_amount",
          "type": "uint256"
        },
        {
          "internalType": "uint256",
          "name": "_accountMaxAmount",
          "type": "uint256"
        },
        {
          "internalType": "bytes",
          "name": "_signature",
          "type": "bytes"
        }
      ],
      "name": "swapWithSig",
      "outputs": [],
      "stateMutability": "payable",
      "type": "function"
    },
    {
      "inputs": [],
      "name": "tgeAllocation",
      "outputs": [
        {
          "internalType": "uint256",
          "name": "",
          "type": "uint256"
        }
      ],
      "stateMutability": "view",
      "type": "function"
    },
    {
      "inputs": [],
      "name": "tgeTime",
      "outputs": [
        {
          "internalType": "uint256",
          "name": "",
          "type": "uint256"
        }
      ],
      "stateMutability": "view",
      "type": "function"
    },
    {
      "inputs": [],
      "name": "tokensAllocated",
      "outputs": [
        {
          "internalType": "uint256",
          "name": "",
          "type": "uint256"
        }
      ],
      "stateMutability": "view",
      "type": "function"
    },
    {
      "inputs": [],
      "name": "tokensForSale",
      "outputs": [
        {
          "internalType": "uint256",
          "name": "",
          "type": "uint256"
        }
      ],
      "stateMutability": "view",
      "type": "function"
    },
    {
      "inputs": [],
      "name": "tokensLeft",
      "outputs": [
        {
          "internalType": "uint256",
          "name": "",
          "type": "uint256"
        }
      ],
      "stateMutability": "view",
      "type": "function"
    },
    {
      "inputs": [],
      "name": "totalRaiseCost",
      "outputs": [
        {
          "internalType": "uint256",
          "name": "",
          "type": "uint256"
        }
      ],
      "stateMutability": "view",
      "type": "function"
    },
    {
      "inputs": [],
      "name": "totalRefundAmountPanelty",
      "outputs": [
        {
          "internalType": "uint256",
          "name": "",
          "type": "uint256"
        }
      ],
      "stateMutability": "view",
      "type": "function"
    },
    {
      "inputs": [],
      "name": "totalRefundedTokens",
      "outputs": [
        {
          "internalType": "uint256",
          "name": "",
          "type": "uint256"
        }
      ],
      "stateMutability": "view",
      "type": "function"
    },
    {
      "inputs": [],
      "name": "tradeValue",
      "outputs": [
        {
          "internalType": "uint256",
          "name": "",
          "type": "uint256"
        }
      ],
      "stateMutability": "view",
      "type": "function"
    },
    {
      "inputs": [
        {
          "internalType": "uint256",
          "name": "purchase_id",
          "type": "uint256"
        },
        {
          "internalType": "bool",
          "name": "stake",
          "type": "bool"
        }
      ],
      "name": "transferTokens",
      "outputs": [],
      "stateMutability": "nonpayable",
      "type": "function"
    },
    {
      "inputs": [],
      "name": "unpause",
      "outputs": [],
      "stateMutability": "nonpayable",
      "type": "function"
    },
    {
      "inputs": [],
      "name": "unsoldTokensRedeemed",
      "outputs": [
        {
          "internalType": "bool",
          "name": "",
          "type": "bool"
        }
      ],
      "stateMutability": "view",
      "type": "function"
    },
    {
      "inputs": [],
      "name": "vestingCliff",
      "outputs": [
        {
          "internalType": "uint256",
          "name": "",
          "type": "uint256"
        }
      ],
      "stateMutability": "view",
      "type": "function"
    },
    {
      "inputs": [],
      "name": "vestingDuration",
      "outputs": [
        {
          "internalType": "uint256",
          "name": "",
          "type": "uint256"
        }
      ],
      "stateMutability": "view",
      "type": "function"
    },
    {
      "inputs": [
        {
          "internalType": "uint256",
          "name": "",
          "type": "uint256"
        }
      ],
      "name": "vestingSchedule",
      "outputs": [
        {
          "internalType": "uint256",
          "name": "",
          "type": "uint256"
        }
      ],
      "stateMutability": "view",
      "type": "function"
    },
    {
      "inputs": [],
      "name": "vestingStart",
      "outputs": [
        {
          "internalType": "uint256",
          "name": "",
          "type": "uint256"
        }
      ],
      "stateMutability": "view",
      "type": "function"
    },
    {
      "inputs": [],
      "name": "vestingTime",
      "outputs": [
        {
          "internalType": "uint256",
          "name": "",
          "type": "uint256"
        }
      ],
      "stateMutability": "view",
      "type": "function"
    },
    {
      "inputs": [],
      "name": "withdrawFunds",
      "outputs": [],
      "stateMutability": "nonpayable",
      "type": "function"
    },
    {
      "inputs": [],
      "name": "withdrawRefundedTokens",
      "outputs": [],
      "stateMutability": "nonpayable",
      "type": "function"
    },
    {
      "inputs": [],
      "name": "withdrawUnsoldTokens",
      "outputs": [],
      "stateMutability": "nonpayable",
      "type": "function"
    }
  ],
  "bytecode": "0x6101003461055057601f61640e38819003918201601f19168301916001600160401b038311848410176105555780849261018094604052833981010312610550576100498161056b565b602082015190604083015191606084015160808501519160a08601519460c08701519360e0880151801515036105505761010088015193610120890151986101408101519663ffffffff881691828903610550576101606100aa910161056b565b9960ff19600054166000556100be3361057f565b506002805460ff60a01b19168a8216151560a01b60ff60a01b1617905560038190553360009081526000805160206163ee833981519152602052604090205460ff161561050b578082106104c65781600455600160095561011e3361061d565b50834210156104815784601054101561043c578515610403578086106103be5711610379578386116103345760638a116102ef57602011156102aa57601055601155601455600f55600182161561029f5761025a57601090600160a0525b60088116151560c05216151560e052600b80546001600160a01b0319166001600160a01b039283161790551680610240575b50608052604051615d1a908161069482396080518181816117290152818161321d01526132f9015260a051818181610ecd01528181612536015281816134df01528181613531015281816138ac0152818161472d01528181614abc0152614dfb015260c0518181816113ef0152818161263101526134a2015260e0518181816109620152818161346501526138850152f35b600c80546001600160a01b031916919091179055386101ae565b60405162461bcd60e51b815260206004820152601d60248201527f61746f6d696320737761703a206d696e696d756d5261697365203e20300000006044820152606490fd5b60125560109061017c565b60405162461bcd60e51b815260206004820152601560248201527f756e737570706f7274656420666c6167732073657400000000000000000000006044820152606490fd5b60405162461bcd60e51b815260206004820152601e60248201527f4665652050657263656e746167652068617320746f206265203c2031303000006044820152606490fd5b60405162461bcd60e51b815260206004820152601c60248201527f6d696e696d756d5261697365203e20746f6b656e73466f7253616c65000000006044820152606490fd5b60405162461bcd60e51b815260206004820152601c60248201527f696e646976206d696e20616d6f756e74203e20696e646976206d6178000000006044820152606490fd5b60405162461bcd60e51b815260206004820152601e60248201527f746f6b656e73466f7253616c65203c20696e646976696475616c206d696e00006044820152606490fd5b60405162461bcd60e51b81526020600482015260116024820152706e6f20746f6b656e20666f722073616c6560781b6044820152606490fd5b60405162461bcd60e51b815260206004820152601a60248201527f656e642064617465206265666f726520737461727420646174650000000000006044820152606490fd5b60405162461bcd60e51b815260206004820152601960248201527f7374617274206461746520697320696e207468652070617374000000000000006044820152606490fd5b60405162461bcd60e51b815260206004820152601b60248201527f696e646976696475616c206d6178203c206d696e20616d6f756e7400000000006044820152606490fd5b60405162461bcd60e51b815260206004820152601c60248201527f63616c6c6572206973206e6f742057686974656c6973744f776e6572000000006044820152606490fd5b600080fd5b634e487b7160e01b600052604160045260246000fd5b51906001600160a01b038216820361055057565b6001600160a01b03811660009081526000805160206163ee833981519152602052604090205460ff16610617576001600160a01b031660008181526000805160206163ee83398151915260205260408120805460ff191660011790553391907fb813b807c25079ba97f1770664c6a9e57c59afe74a6295f1ed01c10e3bb6baae906000805160206163ae8339815191529080a4600190565b50600090565b6001600160a01b03811660009081526000805160206163ce833981519152602052604090205460ff16610617576001600160a01b031660008181526000805160206163ce83398151915260205260408120805460ff191660011790553391906000805160206163ae8339815191528180a460019056fe608080604052600436101561001357600080fd5b600090813560e01c90816301ffc9a71461432757508063034e529014614308578063044c0cc5146142dd57806304cd52941461429c578063076623451461427657806308abd7ff1461418657806309b56e0b1461416157806309d4d6f514613fb05780630b97bc8614613f925780630d8e6e2c14613f7557806312aef8c314613f575780631514617e14613f3957806315b5786614613f19578063161a7b2a14613efe5780631a808187146138065780631de18af71461350457806321d3002a146134c7578063230005d31461348a5780632438a3f61461344d57806324600fc3146131ac578063248a9ca31461317e578063254800d4146131605780632593ea171461313d578063278ecde11461301357806328c32be614612ff55780632e15410714612fd75780632ebb5c1e14612fb75780632f2ff15d14612f765780633070b98d14612c825780633113076a14612c115780633163e3a814612bf357806336568abe14612bae5780633742a9f714612ad85780633784f00014612a005780633af32abf146129c55780633b6577c81461298b5780633bbab179146129075780633f4ba83a146128935780634089aa9a14612872578063416bcdda1461285457806344337ea1146127c557806344691f7e146127a457806347535d7b146127895780634b77ae141461276b578063537df3b6146126dc57806359730bb5146126be5780635ac699bb146126775780635c975abb146126555780635f635f9a146124e75780636295a2f4146124c957806369bb4dc2146124345780636d028027146123b05780636eaaabd5146123175780636fb83a57146121dc57806370a898bc146121bc57806374fa05fb1461219a578063751ef93d14612180578063755e3e281461216257806376807e5f146120e1578063785e9e86146120b8578063788bff681461208f578063799bb232146120695780637f7b2712146120495780638158f2b81461202b57806382d95df514611f575780638307dc9814611f3c5780638392fe3114611eb15780638456cb5914611e3a57806388b0fe2b14611d825780638a1a5f3f14611d675780638ab1d68114611cd85780638e75b13114611cba5780639097548d14611c9b578063917c854d14611b21578063919bd93014611ae757806391d1485414611a9b5780639483841414611a7557806396a32bc414611a1d5780639a43e8c71461185d5780639baf1979146118435780639d90a46e1461174c578063a001ecdd14611711578063a1c09bf1146116f3578063a217fddf146116d7578063a6e158f81461154a578063a929eef11461152c578063b31f8f931461150a578063b367940e146114e7578063b86917871461147b578063ba40a96a14611452578063bd0625ab14610e7e578063bf135abe14610e55578063c0e6498914610d66578063c24a0f8b14610d48578063c3ca324f14610d23578063c4fb8f1414610c89578063c7dab43614610c6e578063c8bdbfb614610bbb578063c957b76214610ba0578063ca1d209d14610aa8578063d10dbdf514610a32578063d547741f146109e8578063d623786d1461090e578063dbb57ac8146108c7578063dc91b07214610824578063e4101de514610806578063e43252d714610777578063e4a8025214610743578063e8b882f41461071a578063eb1edd61146106eb578063efbb34d5146106c5578063f2aa821814610681578063f3640e7414610663578063f64bfaba146105d9578063fce9d11b146105a4578063fe575a871461055f5763fecf415a1461052857600080fd5b3461055c57602036600319011261055c575060206105476004356145ee565b5060018060a01b039054163314604051908152f35b80fd5b503461055c57602036600319011261055c57602061059a6001600160a01b03610586614404565b166000526008602052604060002054151590565b6040519015158152f35b503461055c578060031936011261055c576105d56105c1336155cf565b60405191829160208352602083019061460d565b0390f35b503461055c578060031936011261055c5760405180916020601f54928381520191601f82527fa03837a25210ee280c2113ff4b77ca23440b19d4866cca721c801278fd08d807915b818110610644576105d585610638818703826144f3565b6040519182918261441a565b82546001600160a01b0316845260209093019260019283019201610621565b503461055c578060031936011261055c576020601b54604051908152f35b503461055c57602036600319011261055c5760043590601f5482101561055c5760206106ac8361445d565b905460405160039290921b1c6001600160a01b03168152f35b503461055c578060031936011261055c5760206106e36014546153ee565b604051908152f35b503461055c578060031936011261055c57602060405173aeb39b67f27b641ef9f95fb74f1a46b1ee4efc838152f35b503461055c578060031936011261055c576020604051600080516020615cee8339815191528152f35b503461055c57602061075d610757366145be565b90615307565b6002546040516001600160a01b0392831691909216148152f35b503461055c57602036600319011261055c57610791614404565b600080516020615cee833981519152825260016020908152604080842033600090815292529020546107c59060ff16614970565b6001600160a01b03166107d7816158a9565b6107df575080f35b7fa850ae9193f515cbae8d35e8925bd2be26627fc91bce650b8652ed254e9cab038280a280f35b503461055c578060031936011261055c576020600454604051908152f35b503461055c57602036600319011261055c57600435600080516020615cee833981519152825260016020526040822060018060a01b03331660005260205261087360ff60406000205416614970565b60035481106108825760045580f35b60405162461bcd60e51b815260206004820152601b60248201527f696e646976696475616c206d6178203c206d696e20616d6f756e7400000000006044820152606490fd5b503461055c57602036600319011261055c576105d56108e760043561561d565b9060409492945194859485526020850152604084015260806060840152608083019061437c565b503461055c57602036600319011261055c57610928614404565b818052600160209081526040808420336000908152925290205461094e9060ff166149ef565b610960610959615397565b4210614be6565b7f0000000000000000000000000000000000000000000000000000000000000000156109a45760018060a01b03166001600160601b0360a01b600b541617600b5580f35b606460405162461bcd60e51b815260206004820152602060248201527f746f6b656e2061646472657373206368616e6765206e6f7420616c6c6f7765646044820152fd5b503461055c57604036600319011261055c57610a2e600435610a086143ee565b90610a29610a2482600052600160205260016040600020015490565b6156dd565b6157a9565b5080f35b503461055c57602036600319011261055c577ffd6fc945a36da5e54e8c65e37d56829b185977f4df3f8244caaae06f42d549c56020600435610a776010544210614c32565b8380526001825260408085203360009081529084522054610a9a9060ff166149ef565b80600f55604051908152a180f35b503461055c57602036600319011261055c5760043560018060a01b03600b5416906040516370a0823160e01b8152306004820152602081602481865afa8015610b955782908590610b5a575b610afe9250614aad565b60145410610b1657610b139130903390615847565b80f35b606460405162461bcd60e51b815260206004820152602060248201527f6d6f726520746f6b656e73207468616e206e656564656420666f722073616c656044820152fd5b50506020813d602011610b8d575b81610b75602093836144f3565b81010312610b885781610afe9151610af4565b600080fd5b3d9150610b68565b6040513d86823e3d90fd5b503461055c578060031936011261055c57602061059a615605565b503461055c578060031936011261055c578080526001602090815260408083203360009081529252902054610bf29060ff166149ef565b610c00601154421015614cdf565b600c5460ff8160a01c16610c6a57601354601254811015610c5957506014545b80610c29578280f35b60ff60a01b19909116600160a01b17600c55600b54610c53919033906001600160a01b0316615662565b38808280f35b610c6590601454614d5b565b610c20565b5080fd5b503461055c578060031936011261055c5760206106e36155ee565b503461055c578060031936011261055c5760185460195490601a54601b54601c549060405192601d54968785526020850197601d825260208220915b818110610d0d57505050610ce0846105d596979803856144f3565b6040519687968752602087015260408601526060850152608084015260c060a084015260c083019061460d565b82548a5260209099019860019283019201610cc5565b503461055c57602036600319011261055c576105d56105c1610d43614404565b6155cf565b503461055c578060031936011261055c576020601154604051908152f35b503461055c578060031936011261055c57600b546040516370a0823160e01b8152306004820152906001600160a01b0316602082602481845afa918215610e4a578392610e16575b5060145480831015610dd157610b1392610dc791614d5b565b9030903390615847565b60405162461bcd60e51b815260206004820152601d60248201527f636f6e747261637420616c72656164792066756c6c792066756e6465640000006044820152606490fd5b9091506020813d602011610e42575b81610e32602093836144f3565b81010312610b8857519038610dae565b3d9150610e25565b6040513d85823e3d90fd5b503461055c578060031936011261055c57600c546040516001600160a01b039091168152602090f35b50604036600319011261055c5760043560243567ffffffffffffffff811161144e57610eae903690600401614531565b610eb661569e565b610ebe6156c0565b610ec6615220565b15611413577f00000000000000000000000000000000000000000000000000000000000000009081159081806113ec575b80156113de575b1561139957610f0d9033615486565b90811561136457600c546001600160a01b0316611355573491610f2f856153ee565b341061131a575b610f4560145460135490614d5b565b85116112d55760035485106112905733865260208052610f6760408720615237565b8587825189935b81851061125d575050610f819250614aad565b116112185766010000000000004210156111d35782156111cd57835b60405191610faa836144c1565b338352602083019065ffffffffffff42168252604084019015815260608401888152608085019188835260a086019387855260c08701958652601e54600160401b8110156111b9578060016110029201601e556145ee565b9790976111a557518754915192516001600160d81b03199092166001600160a01b03919091161760a09290921b65ffffffffffff60a01b169190911790151560d01b60ff60d01b161785556003939291906110729051865460ff60d81b191690151560d81b60ff60d81b16178655565b516001850155516002840155519101553384526020805260408420601e5460001981019190821161119157906110a791614cbd565b601f54600160401b81101561117d578060016110c69201601f5561445d565b81549060031b9033821b9160018060a01b03901b19161790556110eb83601354614aad565b601355600c546001600160a01b031661115d575b5061113f575b6040519081524260208201527fbec109f7ee137de661c6887caa96653c0545050a9908a3b6eb5190440bbec86460403392a2600160095580f35b600b5461115890829033906001600160a01b0316615662565b611105565b600c546111779190309033906001600160a01b0316615847565b386110ff565b634e487b7160e01b85526041600452602485fd5b634e487b7160e01b86526011600452602486fd5b634e487b7160e01b8c5260048c905260248cfd5b634e487b7160e01b8c52604160045260248cfd5b84610f9d565b60405162461bcd60e51b815260206004820152601c60248201527f76616c756520646f65736e27742066697420696e2034382062697473000000006044820152606490fd5b60405162461bcd60e51b815260206004820152601d60248201527f616d6f756e74206578636565647320696e646976696475616c206d61780000006044820152606490fd5b916001919350611284908261127b6112758887615284565b516145ee565b50015490614aad565b93019290918892610f6e565b60405162461bcd60e51b815260206004820152601760248201527f616d6f756e74203c206d696e696d756d20616d6f756e740000000000000000006044820152606490fd5b60405162461bcd60e51b815260206004820152601960248201527f616d6f756e74203e20746f6b656e7320617661696c61626c65000000000000006044820152606490fd5b60405162461bcd60e51b81526020600482015260136024820152721b9bdd08195b9bdd59da08115512081cd95b9d606a1b6044820152606490fd5b61135e846153ee565b91610f36565b60405162461bcd60e51b815260206004820152600d60248201526c37379030b63637b1b0ba34b7b760991b6044820152606490fd5b60405162461bcd60e51b815260206004820152601c60248201527f66756e64696e6720726571756972656d656e7473206e6f74206d6574000000006044820152606490fd5b506113e7614aba565b610efe565b507f0000000000000000000000000000000000000000000000000000000000000000610ef7565b60405162461bcd60e51b815260206004820152601360248201527239b0b632903430b9903a379031329037b832b760691b6044820152606490fd5b8280fd5b503461055c578060031936011261055c576002546040516001600160a01b039091168152602090f35b503461055c57602036600319011261055c57611495614404565b600080516020615cee833981519152825260016020908152604080842033600090815292529020546114c99060ff16614970565b60018060a01b03166001600160601b0360a01b600254161760025580f35b503461055c578060031936011261055c5760206013546012541115604051908152f35b503461055c578060031936011261055c5760206106e360145460135490614d5b565b503461055c578060031936011261055c576020600d54604051908152f35b503461055c57602036600319011261055c5760043561156761569e565b611570816145ee565b50546001600160a01b0316330361169b5761159761158d82614def565b8192911515614d2b565b60016115a2836145ee565b5001549160036115b1826145ee565b500154836115bf8483614aad565b11611656576115ec6115e68483611602976115dc83600397614aad565b1461160a57614aad565b926145ee565b500155600b5433906001600160a01b0316615662565b600160095580f35b611613866145ee565b50805460ff60d01b1916600160d01b1790556040518681527f36a135f5fbde1b6c5f43e056a7f5b0d91279e1693b1b28861e3b0eb06213bf5790602090a1614aad565b60405162461bcd60e51b815260206004820152601f60248201527f494520616d6f756e7452656465656d6564203e20707572636861736520612e006044820152606490fd5b60405162461bcd60e51b815260206004820152601460248201527320b2323932b9b99034b9903737ba10313abcb2b960611b6044820152606490fd5b503461055c578060031936011261055c57602090604051908152f35b503461055c578060031936011261055c576020601e54604051908152f35b503461055c578060031936011261055c5760206040517f00000000000000000000000000000000000000000000000000000000000000008152f35b503461055c57602036600319011261055c5760043567ffffffffffffffff8111610c6a5761177e9036906004016143bd565b9190600080516020615cee833981519152825260016020526040822060018060a01b0333166000526020526117ba60ff60406000205416614970565b8190825b8481106117fe575050806117d0575080f35b60207fc2f03ca34d335e49d4d629b85db054d1ffb679b4fec2e06fe10d0e618b175ecb91604051908152a180f35b6118226001600160a01b0361181c6118178489876149bc565b6149cc565b166158fe565b61182f575b6001016117be565b9161183b6001916149e0565b929050611827565b503461055c5760206106e361185736614578565b91615525565b503461055c57606036600319011261055c576004356024356044359183805260016020526040842060018060a01b0333166000526020526118a560ff604060002054166149ef565b8042116119d8578181101561198757655af3107a4000831161194957821561190c577f41647b120e0da0bb6302c8236e2a689cbc62f6123a66aff5fae45056cf52b8589260609282601555806016558160175560405192835260208301526040820152a180f35b60405162461bcd60e51b81526020600482015260156024820152740726566756e6450657263656e74616765206973203605c1b6044820152606490fd5b60405162461bcd60e51b81526020600482015260166024820152750726566756e6450657263656e74616765203e203130360541b6044820152606490fd5b60405162461bcd60e51b8152602060048201526024808201527f726566756e64506572696f645374617274203e3d20726566756e64506572696f60448201526319115b9960e21b6064820152608490fd5b60405162461bcd60e51b815260206004820152601b60248201527f726566756e6420737461727420697320696e20746865207061737400000000006044820152606490fd5b503461055c578060031936011261055c578080526001602090815260408083203360009081529252902054611a549060ff166149ef565b611a5c61588b565b610b138180808047335af1611a6f614a3b565b50614a6b565b503461055c578060031936011261055c57602060ff600c5460a01c166040519015158152f35b503461055c57604036600319011261055c576040611ab76143ee565b9160043581526001602052209060018060a01b0316600052602052602060ff604060002054166040519015158152f35b503461055c57602036600319011261055c5760043590601d5482101561055c576020611b128361448e565b90549060031b1c604051908152f35b503461055c57604036600319011261055c57611b3b614404565b611b436143ee565b9082805260016020526040832060018060a01b033316600052602052611b7060ff604060002054166149ef565b611b7e601154421015614cdf565b600b546001600160a01b0391821691168114611c5657600c546001600160a01b03168114611c11576040516370a0823160e01b815230600482015291602083602481855afa918215610b95578492611bdb575b610b139350615662565b91506020833d602011611c09575b81611bf6602093836144f3565b81010312610b8857610b13925191611bd1565b3d9150611be9565b60405162461bcd60e51b815260206004820152601b60248201527f746f6b656e206973207468652074726164652d696e20746f6b656e00000000006044820152606490fd5b60405162461bcd60e51b815260206004820152601b60248201527f746f6b656e2069732074686520746f6b656e20666f722073616c6500000000006044820152606490fd5b503461055c57602036600319011261055c5760206106e36004356153ee565b503461055c578060031936011261055c576020601254604051908152f35b503461055c57602036600319011261055c57611cf2614404565b600080516020615cee83398151915282526001602090815260408084203360009081529252902054611d269060ff16614970565b6001600160a01b0316611d3881615a8b565b611d40575080f35b7fcdd2e9b91a56913d370075169cefa1602ba36be5301664f752192bb1709df7578280a280f35b503461055c578060031936011261055c5760206106e36153b3565b503461055c578060031936011261055c578080526001602090815260408083203360009081529252902054611db99060ff166149ef565b611dc161588b565b600b546040516370a0823160e01b8152306004820152906001600160a01b0316602082602481845afa908115610e4a578391611e04575b610b1392503390615662565b90506020823d602011611e32575b81611e1f602093836144f3565b81010312610b8857610b13915190611df8565b3d9150611e12565b503461055c578060031936011261055c578080526001602090815260408083203360009081529252902054611e719060ff166149ef565b611e796156c0565b600160ff198254161781557f62e78cea01bee320cd4e420270b5ea74000d11b0c9f74754ebdbfc544b05a2586020604051338152a180f35b503461055c57602036600319011261055c5760043590601e5482101561055c5760e0611edc836145ee565b50805490600181015490600360028201549101549160ff6040519460018060a01b038116865265ffffffffffff8160a01c166020870152818160d01c161515604087015260d81c1615156060850152608084015260a083015260c0820152f35b503461055c578060031936011261055c5760206106e3615397565b503461055c57602036600319011261055c57600435611f796010544210614c32565b8180526001602090815260408084203360009081529252902054611f9f9060ff166149ef565b80421015611fe65760207ff18a09eaf82fdb00baab509d15db4abfd6aba1bf424d6bbc88295fa0f8a400d791611fd86011548210614d68565b80601055604051908152a180f35b60405162461bcd60e51b815260206004820152601c60248201527f73746172742064617465206e6f7420696e2074686520667574757265000000006044820152606490fd5b503461055c578060031936011261055c576020601854604051908152f35b503461055c578060031936011261055c57602060405164e8d4a510008152f35b503461055c57602061207d610757366145be565b6040516001600160a01b039091168152f35b503461055c578060031936011261055c57600a546040516001600160a01b039091168152602090f35b503461055c578060031936011261055c57600b546040516001600160a01b039091168152602090f35b503461055c578060031936011261055c5780805260016020908152604080832033600090815292529020546121189060ff166149ef565b61212061588b565b600c546040516370a0823160e01b8152306004820152906001600160a01b0316602082602481845afa908115610e4a578391611e0457610b1392503390615662565b503461055c578060031936011261055c576020601354604051908152f35b503461055c57602061059a61219436614578565b916152b0565b503461055c578060031936011261055c57602060135460125411604051908152f35b503461055c578060031936011261055c5760206003541515604051908152f35b503461055c57602036600319011261055c576121f6614404565b818052600160209081526040808420336000908152925290205461221c9060ff166149ef565b6001600160a01b03168061226d575b6020817ff62d9d6092e49a0a9a72b4e4f020f4173b0f35e505c41e59b60aeed838602965926001600160601b0360a01b600a541617600a55604051908152a180f35b6040516301ffc9a760e01b8152638b1e31c760e01b6004820152602081602481855afa908115610e4a5783916122e8575b5061222b5760405162461bcd60e51b815260206004820152601e60248201527f646f6573206e6f7420737570706f7274207374616b655472616e7366657200006044820152606490fd5b61230a915060203d602011612310575b61230281836144f3565b810190615298565b3861229e565b503d6122f8565b503461055c57602036600319011261055c57600435801515809103610c6a57600080516020615cee833981519152825260016020908152604080842033600090815290835220547fe905f7f52156c346547b9deb6fb3e2459db941ec55d073fd465129bf4b49fae6929061238d9060ff16614970565b6002805460ff60a01b191660a083901b60ff60a01b16179055604051908152a180f35b503461055c578060031936011261055c576005546123cd8161582f565b916123db60405193846144f3565b818352601f196123ea8361582f565b013660208501375b81811061240757604051806105d5858261441a565b8061241560019260056144a9565b838060a01b0391549060031b1c1661242d8286615284565b52016123f2565b503461055c578060031936011261055c57600b546040516370a0823160e01b81523060048201529190602090839060249082906001600160a01b03165afa9081156124bd579061248a575b602090604051908152f35b506020813d6020116124b5575b816124a4602093836144f3565b81010312610b88576020905161247f565b3d9150612497565b604051903d90823e3d90fd5b503461055c578060031936011261055c576020600f54604051908152f35b50606036600319011261055c5760043560443567ffffffffffffffff811161144e57612517903690600401614531565b61251f61569e565b6125276156c0565b61252f615220565b15611413577f000000000000000000000000000000000000000000000000000000000000000090811590818061262e575b8015612620575b15611399576125799060243533615525565b90811561136457600c546001600160a01b031661261157349161259b856153ee565b341061131a575b6125b160145460135490614d5b565b85116112d557600354851061129057338652602080526125d360408720615237565b8587825189935b8185106125ed575050610f819250614aad565b916001919350612605908261127b6112758887615284565b930192909188926125da565b61261a846153ee565b916125a2565b50612629614aba565b612567565b507f0000000000000000000000000000000000000000000000000000000000000000612560565b503461055c578060031936011261055c5760ff60209154166040519015158152f35b503461055c57604036600319011261055c57612691614404565b6001600160a01b0316815260208052604081208054602435929083101561055c576020611b1284846144a9565b503461055c578060031936011261055c576020601654604051908152f35b503461055c57602036600319011261055c576126f6614404565b600080516020615cee8339815191528252600160209081526040808420336000908152925290205461272a9060ff16614970565b6001600160a01b031661273c816159c1565b612744575080f35b7f2b6bf71b58b3583add364b3d9060ebf8019650f65f5be35f5464b9cb3e4ba2d48280a280f35b503461055c578060031936011261055c576020601754604051908152f35b503461055c578060031936011261055c57602061059a615220565b503461055c578060031936011261055c576020601054421015604051908152f35b503461055c57602036600319011261055c576127df614404565b600080516020615cee833981519152825260016020908152604080842033600090815292529020546128139060ff16614970565b6001600160a01b0316612825816158fe565b61282d575080f35b7ff9b68063b051b82957fa193585681240904fed808db8b30fc5a2d2202c6ed6278280a280f35b503461055c578060031936011261055c576020600e54604051908152f35b503461055c578060031936011261055c576020601154421015604051908152f35b503461055c578060031936011261055c5780805260016020908152604080832033600090815292529020546128ca9060ff166149ef565b6128d261588b565b60ff1981541681557f5db9ee0a495bf2e6ff9c91a7834c1ba4fdd244a5e8aa4e537bd38aeae4b073aa6020604051338152a180f35b503461055c578060031936011261055c576007546129248161582f565b9161293260405193846144f3565b818352601f196129418361582f565b013660208501375b81811061295e57604051806105d5858261441a565b8061296c60019260076144a9565b838060a01b0391549060031b1c166129848286615284565b5201612949565b503461055c57602036600319011261055c576129a8600435614def565b906105d5604051928392835260406020840152604083019061437c565b503461055c57602036600319011261055c57602061059a6001600160a01b036129ec614404565b166000526006602052604060002054151590565b503461055c57602036600319011261055c57600435612a5381601054612a27814210614c32565b8480526001602090815260408087203360009081529252902054612a4d9060ff166149ef565b10614d68565b612a5b615397565b8111612a93576020817fa8a30fc464c735231b45b2154d25ba95fbc6860f3b226667372cfc3977f2124b92601155604051908152a180f35b60405162461bcd60e51b815260206004820152601f60248201527f656e6420646174652061667465722076657374696e67537461727454696d65006044820152606490fd5b503461055c57602036600319011261055c57600435601e54811015612b6957612b0b612b0560e0926145ee565b50614641565b60808101519060018060a01b038151169060a081015165ffffffffffff602083015116604083015115159160c06060850151151594015194604051968752602087015260408601526060850152608084015260a083015260c0820152f35b60405162461bcd60e51b815260206004820152601a60248201527f70757263686173655f696420646f6573206e6f742065786973740000000000006044820152606490fd5b503461055c57604036600319011261055c57612bc86143ee565b336001600160a01b03821603612be457610a2e906004356157a9565b63334bd91960e11b8252600482fd5b503461055c578060031936011261055c576020601954604051908152f35b503461055c578060031936011261055c57601a5490601c5490601d54908115600014612c51575050602091612c4b6106e3926001906146e2565b90614aad565b60018201809211612c6e575091612c4b6106e392602094906146e2565b634e487b7160e01b81526011600452602490fd5b503461055c57604036600319011261055c5760043560243580159081150361144e57612cac61569e565b612cb5826145ee565b50546001600160a01b0316330361169b5781612cd3612cdd93614def565b8194911515614d2b565b6001612ce8826145ee565b5001546003612cf6836145ee565b5001549080612d058684614aad565b11611656576115e68583612d1f936115dc83600397614aad565b50015515612d3f57600b54611602919033906001600160a01b0316615662565b600a546001600160a01b0316908115612f3157600b54604051636eb1769f60e11b8152306004820152602481018490528493916001600160a01b031690602081604481855afa8015612f265784908690612eec575b612d9e9250614aad565b60405163095ea7b360e01b602082019081526001600160a01b0385166024830152604480830193909352918152919085908190612ddc6064866144f3565b84519082855af1612deb614a3b565b81612ebd575b5080612eb3575b15612e6e575b5050600a546001600160a01b0316919050813b15612e6a578291604483926040519586938492638b1e31c760e01b845260048401523360248401525af18015612e5d57612e4d575b5050611602565b612e56916144f3565b3881612e46565b50604051903d90823e3d90fd5b5050fd5b612ea6612eab936040519063095ea7b360e01b6020830152602482015286604482015260448152612ea06064826144f3565b82615953565b615953565b388080612dfe565b50803b1515612df8565b8051801592508215612ed2575b505038612df1565b612ee59250602080918301019101615298565b3880612eca565b50506020813d602011612f1e575b81612f07602093836144f3565b81010312612f1a5783612d9e9151612d94565b8480fd5b3d9150612efa565b6040513d87823e3d90fd5b60405162461bcd60e51b815260206004820152601760248201527f4e6f2049444f207374616b696e6720636f6e74726163740000000000000000006044820152606490fd5b503461055c57604036600319011261055c57610a2e600435612f966143ee565b90612fb2610a2482600052600160205260016040600020015490565b61571a565b503461055c578060031936011261055c5760206010544210604051908152f35b503461055c578060031936011261055c576020600354604051908152f35b503461055c578060031936011261055c576020601554604051908152f35b503461055c57602036600319011261055c5761304760043561303361569e565b61303c8161472b565b829491921515614d2b565b6130c06130b8846002613059866145ee565b50805461ffff60d01b1916600160d81b178155600181015460038201556040518781527f16281741b836193cd92031d3d181c3241b9a87ba1eea1ef17fdd0cf8039fec2890602090a16130ae86600d54614aad565b600d550154614d5b565b600e54614aad565b600e55600c546001600160a01b031661311f576130e68480808087335af1611a6f614a3b565b60405192835260208301527f275893a421a5df15c4da79585c78852a6bbf95b9064470c3d6a5636240274b8760403393a3600160095580f35b600c5461313890849033906001600160a01b0316615662565b6130e6565b503461055c57602036600319011261055c576020601e5460043510604051908152f35b503461055c578060031936011261055c576020601a54604051908152f35b503461055c57602036600319011261055c5760206106e3600435600052600160205260016040600020015490565b503461055c578060031936011261055c578080526001602090815260408083203384529091528120546131e19060ff166149ef565b6131e96156c0565b6131f7601154421015614cdf565b6013546012541161340c57600c546001600160a01b03166132b6578080808060646132427f0000000000000000000000000000000000000000000000000000000000000000476146e2565b0473aeb39b67f27b641ef9f95fb74f1a46b1ee4efc835af1613262614a3b565b501561327b57610b138180808047335af1611a6f614a3b565b60405162461bcd60e51b8152602060048201526013602482015272119959481d1c985b9cd9995c8819985a5b1959606a1b6044820152606490fd5b600c546040516370a0823160e01b8152306004820152906001600160a01b0316602082602481845afa918215610e4a5783926133d7575b50606461331e61335f937f0000000000000000000000000000000000000000000000000000000000000000906146e2565b04906040519163a9059cbb60e01b602084015273aeb39b67f27b641ef9f95fb74f1a46b1ee4efc836024840152604483015260448252612ea66064836144f3565b600c546040516370a0823160e01b8152306004820152906001600160a01b0316602082602481845afa908115610e4a5783916133a157610b1392503390615662565b90506020823d6020116133cf575b816133bc602093836144f3565b8101031261144e57610b13915190611df8565b3d91506133af565b91506020823d602011613404575b816133f2602093836144f3565b8101031261144e5790519060646132ed565b3d91506133e5565b60405162461bcd60e51b81526020600482015260196024820152781b5a5b9a5b5d5b481c985a5cd9481b9bdd081c995858da1959603a1b6044820152606490fd5b503461055c578060031936011261055c5760206040517f000000000000000000000000000000000000000000000000000000000000000015158152f35b503461055c578060031936011261055c5760206040517f000000000000000000000000000000000000000000000000000000000000000015158152f35b503461055c578060031936011261055c5760206040517f000000000000000000000000000000000000000000000000000000000000000015158152f35b503461055c57602036600319011261055c5760043561352161569e565b61352f601154421015614cdf565b7f00000000000000000000000000000000000000000000000000000000000000006137c15761355d816145ee565b50546001600160a01b031633036137855760125480156137405760135410156136fb57613589816145ee565b50906001820154156136b657815460ff8160d01c166136795760ff8160d81c166136345761ffff60d01b1916600160d81b1782556040519081527f16281741b836193cd92031d3d181c3241b9a87ba1eea1ef17fdd0cf8039fec2890602090a1600c5482906001600160a01b0316613611578080806002611602950154335af1611a6f614a3b565b50600c5460029091015461362f9133906001600160a01b0316615662565b611602565b60405162461bcd60e51b815260206004820152601a60248201527f507572636861736520686173206265656e2072657665727465640000000000006044820152606490fd5b60405162461bcd60e51b81526020600482015260156024820152741c1d5c98da185cd9481a5cc8199a5b985b1a5e9959605a1b6044820152606490fd5b60405162461bcd60e51b815260206004820152601760248201527f707572636861736520616d6f756e74206973207a65726f0000000000000000006044820152606490fd5b60405162461bcd60e51b815260206004820152601e60248201527f6d696e696d756d20726169736520686173206265656e207265616368656400006044820152606490fd5b60405162461bcd60e51b815260206004820152601d60248201527f6e6f206d696e696d756d20726169736520686173206265656e207365740000006044820152606490fd5b60405162461bcd60e51b815260206004820152601460248201527330b2323932b9b99034b9903737ba10313abcb2b960611b6044820152606490fd5b60405162461bcd60e51b815260206004820152601e60248201527f73616c652068617320746f206265206e6f6e2041746f6d6963207377617000006044820152606490fd5b503461055c5760c036600319011261055c5760443560043560243560843560643560a43567ffffffffffffffff8111613efa576138479036906004016143bd565b95909387805260016020526040882060018060a01b033316895260205261387460ff60408a2054166149ef565b61387c615397565b80613ee9575b507f000000000000000000000000000000000000000000000000000000000000000015613ed7575b7f0000000000000000000000000000000000000000000000000000000000000000613e9257655af3107a40008611613e56578515801590613e185787613dd357601154808310613d8e576307861f808101809111613d7a578211613d41575b60188790558115613cfe57506011548110613cb9576139288383614aad565b8111613c74575b8060195561393d8383614aad565b601154809110613c2f57848411613bea578715908115613bd35761396c61396660015b886146e2565b85614aad565b6307861f808201809211613bbf5711613b7a5782601a5583601b5584601c55601d5489601d5580613b1a575b506001881015613a14575b50604051958652602086015260408501526060840152608083015260c060a08301528260c083015260018060fb1b038311613a10578160e0917f507910142e585ee6be1b7c9f72cbf219e8cb55016324498741bfa51f1c30eace9460051b8091848401378101030190a180f35b8380fd5b8415613adf57613acb578435655af3107a4000811015613a8657613a3781614c7e565b6001905b888210613a49575b506139a3565b613a5f90613a58838b8a6149bc565b3590614aad565b90655af3107a4000821015613a8157600190613a7a83614c7e565b0190613a3b565b613a43565b60405162461bcd60e51b815260206004820152601c60248201527f66697273742076657374696e6720706572696f64203e3d2031303025000000006044820152606490fd5b634e487b7160e01b88526032600452602488fd5b60405162461bcd60e51b8152602060048201526013602482015272076657374696e674475726174696f6e203d203606c1b6044820152606490fd5b601d8a527f6d4407e7be21f808e6509aa9fa9143369579dd7d760fe20a2c09680fc146134f017f6d4407e7be21f808e6509aa9fa9143369579dd7d760fe20a2c09680fc146134f5b818110613b6f5750613998565b8a8155600101613b62565b60405162461bcd60e51b815260206004820152601960248201527f76657374696e6720656e642074696d6520746f6f206c617465000000000000006044820152606490fd5b634e487b7160e01b8b52601160045260248bfd5b60018901808a11613bbf5761396661396c91613960565b60405162461bcd60e51b815260206004820152601e60248201527f76657374696e67436c696666203e2076657374696e674475726174696f6e00006044820152606490fd5b60405162461bcd60e51b815260206004820152601760248201527f76657374696e67206265666f72652073616c6520656e640000000000000000006044820152606490fd5b60405162461bcd60e51b815260206004820152601860248201527f74676554696d65206166746572207665737420636c69666600000000000000006044820152606490fd5b60405162461bcd60e51b815260206004820152601b60248201527f74676554696d65206265666f72652073616c6520656e644461746500000000006044820152606490fd5b1561392f5760405162461bcd60e51b81526020600482015260166024820152750746765416c6c6f636174696f6e206973206e6f7420360541b6044820152606490fd5b60405162461bcd60e51b81526020600482015260116024820152707467652074696d6520746f6f206c61746560781b6044820152606490fd5b634e487b7160e01b8a52601160045260248afd5b60405162461bcd60e51b815260206004820152601760248201527f74676554696d65206265666f72652073616c6520656e640000000000000000006044820152606490fd5b60405162461bcd60e51b815260206004820152601f60248201527f4e6f20544745207665737420666f7220706572696f646963616c2076657374006044820152606490fd5b81156139095760405162461bcd60e51b815260206004820152601060248201526f074676554696d65206973206e6f7420360841b6044820152606490fd5b60405162461bcd60e51b8152602060048201526014602482015273746765416c6c6f636174696f6e203e203130302560601b6044820152606490fd5b60405162461bcd60e51b815260206004820152601a60248201527f6e6f2076657374696e6720666f722061746f6d696320737761700000000000006044820152606490fd5b613ee46010544210614c32565b6138aa565b613ef4904210614be6565b38613882565b8680fd5b503461055c578060031936011261055c57602061059a614aba565b503461055c578060031936011261055c5760206012541515604051908152f35b503461055c578060031936011261055c576020601c54604051908152f35b503461055c578060031936011261055c576020601454604051908152f35b503461055c578060031936011261055c5760206040516177ee8152f35b503461055c578060031936011261055c576020601054604051908152f35b503461055c578060031936011261055c57808052600160209081526040808320338452909152812054613fe59060ff166149ef565b60165442111561411c57600d54801580158091614111575b156140d457614089575b50600e5480614014575080f35b600e829055600c546001600160a01b031661406b5761403c8280808085335af1611a6f614a3b565b6040519081527f6cd92f4bfc3a3d7f3404beaccae716da12e7b98c4d996556639fe71e8c8c35a160203392a280f35b600c5461408490829033906001600160a01b0316615662565b61403c565b81600d556140a2813360018060a01b03600b5416615662565b6040519081527f75301a448908a9c46c60a7f4370ad6eb88c7c9aec9ddae491ba3d71299b97ad860203392a238614007565b60405162461bcd60e51b81526020600482015260156024820152744e6f20746f6b656e7320746f20776974686472617760581b6044820152606490fd5b50600e541515613ffd565b60405162461bcd60e51b815260206004820152601760248201527f526566756e6420706572696f64206e6f7420656e6465640000000000000000006044820152606490fd5b503461055c578060031936011261055c57602061417c615397565b4210604051908152f35b503461055c57602036600319011261055c5760043567ffffffffffffffff8111610c6a576141b89036906004016143bd565b9190600080516020615cee833981519152825260016020526040822060018060a01b03331683526020526141f260ff604084205416614970565b8190825b84811061423657505080614208575080f35b60207f448f3bd350ede14a294c062177c5280fe1eae125d16757da21f5f51d6e89daae91604051908152a180f35b6142556001600160a01b0361424f6118178489876149bc565b166158a9565b614262575b6001016141f6565b9161426e6001916149e0565b92905061425a565b503461055c578060031936011261055c57602060ff60025460a01c166040519015158152f35b503461055c57602036600319011261055c576105d56142bc60043561472b565b6040939193519384938452602084015260606040840152606083019061437c565b503461055c578060031936011261055c5750600c546040516001600160a01b03909116158152602090f35b503461055c578060031936011261055c5760206040516307861f808152f35b905034610c6a576020366003190112610c6a5760043563ffffffff60e01b811680910361144e5760209250637965db0b60e01b811490811561436b575b5015158152f35b6301ffc9a760e01b14905038614364565b919082519283825260005b8481106143a8575050826000602080949584010152601f8019910116010190565b80602080928401015182828601015201614387565b9181601f84011215610b885782359167ffffffffffffffff8311610b88576020808501948460051b010111610b8857565b602435906001600160a01b0382168203610b8857565b600435906001600160a01b0382168203610b8857565b602060408183019282815284518094520192019060005b81811061443e5750505090565b82516001600160a01b0316845260209384019390920191600101614431565b601f5481101561447857601f60005260206000200190600090565b634e487b7160e01b600052603260045260246000fd5b601d5481101561447857601d60005260206000200190600090565b80548210156144785760005260206000200190600090565b60e0810190811067ffffffffffffffff8211176144dd57604052565b634e487b7160e01b600052604160045260246000fd5b90601f8019910116810190811067ffffffffffffffff8211176144dd57604052565b67ffffffffffffffff81116144dd57601f01601f191660200190565b81601f82011215610b885780359061454882614515565b9261455660405194856144f3565b82845260208383010111610b8857816000926020809301838601378301015290565b6060600319820112610b88576004356001600160a01b0381168103610b885791602435916044359067ffffffffffffffff8211610b88576145bb91600401614531565b90565b906040600319830112610b8857600435916024359067ffffffffffffffff8211610b88576145bb91600401614531565b601e5481101561447857601e60005260206000209060021b0190600090565b906020808351928381520192019060005b81811061462b5750505090565b825184526020938401939092019160010161461e565b9060405161464e816144c1565b60c06003829460ff815460018060a01b038116865265ffffffffffff8160a01c166020870152818160d01c161515604087015260d81c161515606085015260018101546080850152600281015460a08501520154910152565b604051906146b66040836144f3565b601a82527f507572636861736520686173206265656e2072657665727465640000000000006020830152565b818102929181159184041417156146f557565b634e487b7160e01b600052601160045260246000fd5b8115614715570490565b634e487b7160e01b600052601260045260246000fd5b7f000000000000000000000000000000000000000000000000000000000000000061492e57614758615605565b156148f557601e548110156148b357614770816145ee565b50546001600160a01b0316330361487157612b0561478d916145ee565b90604082015161482e5760608201516148205760c08201516147dd576080655af3107a40006147c360a0850151601754906146e2565b04920151906040516147d66020826144f3565b6000815290565b90506000906000906040516147f36040826144f3565b601b81527f4e6f20726566756e6420696620746f6b656e7320636c61696d65640000000000602082015290565b6000915081906145bb6146a7565b90506000906000906040516148446040826144f3565b601a81527f507572636861736520616c72656164792066696e616c697a6564000000000000602082015290565b506000906000906040516148866040826144f3565b601e81527f4e6f7420746865206275796572206f6620746869732070757263686173650000602082015290565b506000906000906040516148c86040826144f3565b601781527f507572636861736520646f6573206e6f74206578697374000000000000000000602082015290565b5060009060009060405161490a6040826144f3565b6014815273139bdd081a5b881c99599d5b99081c195c9a5bd960621b602082015290565b506000906000906040516149436040826144f3565b601981527f4e6f20726566756e6420666f722041746f6d6963207377617000000000000000602082015290565b1561497757565b60405162461bcd60e51b815260206004820152601c60248201527f63616c6c6572206973206e6f742057686974656c6973744f776e6572000000006044820152606490fd5b91908110156144785760051b0190565b356001600160a01b0381168103610b885790565b60001981146146f55760010190565b156149f657565b60405162461bcd60e51b815260206004820152601960248201527f63616c6c657220686173206e6f742061646d696e20726f6c65000000000000006044820152606490fd5b3d15614a66573d90614a4c82614515565b91614a5a60405193846144f3565b82523d6000602084013e565b606090565b15614a7257565b60405162461bcd60e51b8152602060048201526013602482015272115512081d1c985b9cd9995c8819985a5b1959606a1b6044820152606490fd5b919082018092116146f557565b7f000000000000000000000000000000000000000000000000000000000000000015614b7057600b546040516370a0823160e01b815230600482015290602090829060249082906001600160a01b03165afa8015614b6457600090614b30575b614b28915060135490614aad565b601454111590565b506020813d602011614b5c575b81614b4a602093836144f3565b81010312610b8857614b289051614b1a565b3d9150614b3d565b6040513d6000823e3d90fd5b600b546040516370a0823160e01b815230600482015290602090829060249082906001600160a01b03165afa908115614b6457600091614bb4575b50601454111590565b90506020813d602011614bde575b81614bcf602093836144f3565b81010312610b88575138614bab565b3d9150614bc2565b15614bed57565b60405162461bcd60e51b815260206004820152601760248201527f76657374696e6720616c726561647920737461727465640000000000000000006044820152606490fd5b15614c3957565b60405162461bcd60e51b815260206004820152601a60248201527f746f6b656e2073616c6520616c726561647920737461727465640000000000006044820152606490fd5b601d54600160401b8110156144dd57614ca2816001614cb99301601d55601d6144a9565b819391549060031b91821b91600019901b19161790565b9055565b805490600160401b8210156144dd5781614ca2916001614cb9940181556144a9565b15614ce657565b60405162461bcd60e51b815260206004820152601860248201527f73616c652068617320746f2062652066696e616c697a656400000000000000006044820152606490fd5b15614d335750565b60405162461bcd60e51b815260206004820152908190614d5790602483019061437c565b0390fd5b919082039182116146f557565b15614d6f57565b60405162461bcd60e51b815260206004820152601a60248201527f656e642064617465206265666f726520737461727420646174650000000000006044820152606490fd5b60405190614dc36040836144f3565b601a82527f70757263686173655f696420646f6573206e6f742065786973740000000000006020830152565b601e54811015615214577f00000000000000000000000000000000000000000000000000000000000000006151d55760115442106151965760ff60005416615157576013546012541161511c5760ff614e47826145ee565b505460d81c16615110576003614e6a6001614e61846145ee565b500154926145ee565b500154818110156150d0576000601d54801560001461502c5750601a54601c5442614e958284614aad565b11614fad57505050815b828211614f5c578211614f1c57614eb591614d5b565b9060008215614eec5750604051614ecd6040826144f3565b600f81526e726561647920746f2072656465656d60881b602082015290565b50604051614efb6040826144f3565b60118152706e6f7468696e6720746f2072656465656d60781b602082015290565b5050600090604051614f2f6040826144f3565b601f81527f49452076657374416d6f756e74203e2070757263686173655f616d6f756e7400602082015290565b505050600090604051614f706060826144f3565b602781527f49452070757263686173655f616d6f756e7452656465656d6564203e207665736020820152661d105b5bdd5b9d60ca1b604082015290565b601994929454421015614fc2575b5050614e9f565b909350655af3107a4000614fd8601854846146e2565b0490819442614fe9601b5483614aad565b1115614ff6575b50614fbb565b8395509061501e612c4b926150186150118661502398614d5b565b9142614d5b565b906146e2565b61470b565b91388080614ff0565b9050601a5461503d601b5482614aad565b421061508e576150506150599142614d5b565b601c549061470b565b908110615067575081614e9f565b61508761507a655af3107a40009261448e565b90549060031b1c846146e2565b0491614e9f565b505050506000906040516150a36040826144f3565b601d81527f76657374696e6720636c696666206e6f74207965742072656163686564000000602082015290565b50506000906040516150e36040826144f3565b601a81527f616c6c20746f6b656e20616c72656164792072656465656d6564000000000000602082015290565b506000906145bb6146a7565b5060009060405161512e6040826144f3565b60198152781b5a5b9a5b5d5b481c985a5cd9481b9bdd081c995858da1959603a1b602082015290565b506000906040516151696040826144f3565b601d81527f746f6b656e2073616c6520636f6e747261637420697320706175736564000000602082015290565b506000906040516151a86040826144f3565b601881527f746f6b656e2073616c65206e6f742066696e616c697a65640000000000000000602082015290565b506000906040516151e76040826144f3565b601981527f68617320746f206265206e6f6e2041746f6d6963207377617000000000000000602082015290565b506000906145bb614db4565b6010544210158061522e5790565b50601154421090565b906040519182815491828252602082019060005260206000209260005b81811061526b575050615269925003836144f3565b565b8454835260019485019487945060209093019201615254565b80518210156144785760209160051b010190565b90816020910312610b8857518015158103610b885790565b6152f392916040519060208201926001600160601b03199060601b16835260348201523060601b6054820152604881526152eb6068826144f3565b519020615307565b6002546001600160a01b0391821691161490565b6041825103615352576145bb91615349917f19457468657265756d205369676e6564204d6573736167653a0a333200000000600052601c52603c600020615b3f565b90929192615b7b565b60405162461bcd60e51b815260206004820152601960248201527f7369676e6174757265206973206e6f74203635206279746573000000000000006044820152606490fd5b60195480156153a35790565b506145bb601a54601b5490614aad565b601a548042106153e857601c5480156153e15761501e6153d39242614d5b565b600181018091116146f55790565b5050600190565b50600090565b600f546153fa916146e2565b600b5460405163313ce56760e01b815290602090829060049082906001600160a01b03165afa908115614b6457600091615449575b5060ff1690604d82116146f5576145bb91600a0a9061470b565b6020813d60201161547e575b81615462602093836144f3565b81010312610c6a57519060ff8216820361055c575060ff61542f565b3d9150615455565b6001600160a01b03811660008181526008602052604090205491929161551d576002549060ff8260a01c16159081156154ff575b506154f6576001600160a01b0316151591826154e2575b50506154dc57600090565b60045490565b6154ef92506000906152b0565b38806154d1565b50505060045490565b61551791506000526006602052604060002054151590565b386154ba565b505050600090565b6001600160a01b038116600081815260086020526040902054929391926155c6576002549060ff8260a01c16159081156155a8575b5061559e576001600160a01b031615159183908361558c575b5050506155805750600090565b806145bb575060045490565b61559693506152b0565b388281615573565b5050505060045490565b6155c091506000526006602052604060002054151590565b3861555a565b50505050600090565b6001600160a01b0316600090815260208052604090206145bb90615237565b601d5480156153e857600181018091116146f55790565b601554421015806156135790565b5060165442111590565b601e54811061563857506000906000906000906145bb614db4565b6001615643826145ee565b5001549161565e6003615655846145ee565b50015492614def565b9091565b60405163a9059cbb60e01b60208201526001600160a01b0392909216602483015260448083019390935291815261526991612ea66064836144f3565b6002600954146156af576002600955565b633ee5aeb560e01b60005260046000fd5b60ff600054166156cc57565b63d93c066560e01b60005260046000fd5b600081815260016020908152604080832033845290915290205460ff16156157025750565b63e2517d3f60e01b6000523360045260245260446000fd5b60008181526001602090815260408083206001600160a01b038616845290915290205460ff166157a25760008181526001602081815260408084206001600160a01b0396909616808552959091528220805460ff19169091179055339291907f2f8788117e7eff1d82e926ec794901d17c78024a50270940304540a733656f0d9080a4600190565b5050600090565b60008181526001602090815260408083206001600160a01b038616845290915290205460ff16156157a25760008181526001602090815260408083206001600160a01b0395909516808452949091528120805460ff19169055339291907ff6391f5c32d9c69d2a47ea670b442974b53935d1edc7fd64eb21e047a839171b9080a4600190565b67ffffffffffffffff81116144dd5760051b60200190565b6040516323b872dd60e01b60208201526001600160a01b03928316602482015292909116604483015260648083019390935291815261526991612ea66084836144f3565b60ff600054161561589857565b638dfc202b60e01b60005260046000fd5b806000526006602052604060002054156000146153e857600554600160401b8110156144dd576158e5614ca282600185940160055560056144a9565b9055600554906000526006602052604060002055600190565b806000526008602052604060002054156000146153e857600754600160401b8110156144dd5761593a614ca282600185940160075560076144a9565b9055600754906000526008602052604060002055600190565b60008061597c9260018060a01b03169360208151910182865af1615975614a3b565b9083615c8c565b80519081151591826159a6575b50506159925750565b635274afe760e01b60005260045260246000fd5b6159b99250602080918301019101615298565b153880615989565b60008181526008602052604090205480156157a25760001981018181116146f5576007546000198101919082116146f557818103615a51575b5050506007548015615a3b5760001901615a158160076144a9565b8154906000199060031b1b19169055600755600052600860205260006040812055600190565b634e487b7160e01b600052603160045260246000fd5b615a73615a62614ca29360076144a9565b90549060031b1c92839260076144a9565b905560005260086020526040600020553880806159fa565b60008181526006602052604090205480156157a25760001981018181116146f5576005546000198101919082116146f557818103615b05575b5050506005548015615a3b5760001901615adf8160056144a9565b8154906000199060031b1b19169055600555600052600660205260006040812055600190565b615b27615b16614ca29360056144a9565b90549060031b1c92839260056144a9565b90556000526006602052604060002055388080615ac4565b8151919060418303615b7057615b6992506020820151906060604084015193015160001a90615c03565b9192909190565b505060009160029190565b9190916004811015615bed5780615b9157509050565b600060018203615bac5763f645eedf60e01b60005260046000fd5b5060028103615bca578263fce698f760e01b60005260045260246000fd5b9091600360009214615bda575050565b6335e2f38360e21b825260045260249150fd5b634e487b7160e01b600052602160045260246000fd5b91907f7fffffffffffffffffffffffffffffff5d576e7357a4501ddfe92f46681b20a08411615c80579160209360809260ff60009560405194855216868401526040830152606082015282805260015afa15614b64576000516001600160a01b03811615615c745790600090600090565b50600090600190600090565b50505060009160039190565b90615cb25750805115615ca157805190602001fd5b630a12f52160e11b60005260046000fd5b81511580615ce4575b615cc3575090565b639996b31560e01b60009081526001600160a01b0391909116600452602490fd5b50803b15615cbb56feb813b807c25079ba97f1770664c6a9e57c59afe74a6295f1ed01c10e3bb6baaea164736f6c634300081b000a2f8788117e7eff1d82e926ec794901d17c78024a50270940304540a733656f0da6eef7e35abe7026729641147f7915573c7e97b47efa546f5f6e3230263bcb49358823ad0653452618750bed6506f24f63ef58f0cce438e3a379e32873da19d2",
  "linkReferences": {},
  "deployedLinkReferences": {}
}