{
  "contractName": "FixedSwapTest",
  "abi": [
    {
      "constant": false,
      "inputs": [
        {
          "name": "_addresses",
          "type": "address[]"
        },
        {
          "name": "_indexes",
          "type": "uint256[]"
        }
      ],
      "name": "remove",
      "outputs": [],
      "payable": false,
      "stateMutability": "nonpayable",
      "type": "function"
    },
    {
      "constant": true,
      "inputs": [],
      "name": "hasWhitelisting",
      "outputs": [
        {
          "name": "",
          "type": "bool"
        }
      ],
      "payable": false,
      "stateMutability": "view",
      "type": "function"
    },
    {
      "constant": true,
      "inputs": [],
      "name": "startDate",
      "outputs": [
        {
          "name": "",
          "type": "uint256"
        }
      ],
      "payable": false,
      "stateMutability": "view",
      "type": "function"
    },
    {
      "constant": true,
      "inputs": [],
      "name": "tokensForSale",
      "outputs": [
        {
          "name": "",
          "type": "uint256"
        }
      ],
      "payable": false,
      "stateMutability": "view",
      "type": "function"
    },
    {
      "constant": true,
      "inputs": [],
      "name": "isSaleFunded",
      "outputs": [
        {
          "name": "",
          "type": "bool"
        }
      ],
      "payable": false,
      "stateMutability": "view",
      "type": "function"
    },
    {
      "constant": true,
      "inputs": [],
      "name": "isTokenSwapAtomic",
      "outputs": [
        {
          "name": "",
          "type": "bool"
        }
      ],
      "payable": false,
      "stateMutability": "view",
      "type": "function"
    },
    {
      "constant": true,
      "inputs": [],
      "name": "individualMinimumAmount",
      "outputs": [
        {
          "name": "",
          "type": "uint256"
        }
      ],
      "payable": false,
      "stateMutability": "view",
      "type": "function"
    },
    {
      "constant": true,
      "inputs": [],
      "name": "decimals",
      "outputs": [
        {
          "name": "",
          "type": "uint256"
        }
      ],
      "payable": false,
      "stateMutability": "view",
      "type": "function"
    },
    {
      "constant": true,
      "inputs": [
        {
          "name": "_address",
          "type": "address"
        }
      ],
      "name": "isWhitelisted",
      "outputs": [
        {
          "name": "",
          "type": "bool"
        }
      ],
      "payable": false,
      "stateMutability": "view",
      "type": "function"
    },
    {
      "constant": false,
      "inputs": [],
      "name": "unpause",
      "outputs": [],
      "payable": false,
      "stateMutability": "nonpayable",
      "type": "function"
    },
    {
      "constant": false,
      "inputs": [],
      "name": "claimOwnership",
      "outputs": [],
      "payable": false,
      "stateMutability": "nonpayable",
      "type": "function"
    },
    {
      "constant": true,
      "inputs": [
        {
          "name": "",
          "type": "address"
        },
        {
          "name": "",
          "type": "uint256"
        }
      ],
      "name": "myPurchases",
      "outputs": [
        {
          "name": "",
          "type": "uint256"
        }
      ],
      "payable": false,
      "stateMutability": "view",
      "type": "function"
    },
    {
      "constant": true,
      "inputs": [],
      "name": "paused",
      "outputs": [
        {
          "name": "",
          "type": "bool"
        }
      ],
      "payable": false,
      "stateMutability": "view",
      "type": "function"
    },
    {
      "constant": true,
      "inputs": [],
      "name": "tradeValue",
      "outputs": [
        {
          "name": "",
          "type": "uint256"
        }
      ],
      "payable": false,
      "stateMutability": "view",
      "type": "function"
    },
    {
      "constant": true,
      "inputs": [],
      "name": "getWhitelistedAddresses",
      "outputs": [
        {
          "name": "",
          "type": "address[]"
        }
      ],
      "payable": false,
      "stateMutability": "view",
      "type": "function"
    },
    {
      "constant": true,
      "inputs": [],
      "name": "tokensAllocated",
      "outputs": [
        {
          "name": "",
          "type": "uint256"
        }
      ],
      "payable": false,
      "stateMutability": "view",
      "type": "function"
    },
    {
      "constant": true,
      "inputs": [],
      "name": "erc20POLS",
      "outputs": [
        {
          "name": "",
          "type": "address"
        }
      ],
      "payable": false,
      "stateMutability": "view",
      "type": "function"
    },
    {
      "constant": true,
      "inputs": [],
      "name": "erc20",
      "outputs": [
        {
          "name": "",
          "type": "address"
        }
      ],
      "payable": false,
      "stateMutability": "view",
      "type": "function"
    },
    {
      "constant": true,
      "inputs": [],
      "name": "tradingDecimals",
      "outputs": [
        {
          "name": "",
          "type": "uint256"
        }
      ],
      "payable": false,
      "stateMutability": "view",
      "type": "function"
    },
    {
      "constant": true,
      "inputs": [
        {
          "name": "",
          "type": "uint256"
        }
      ],
      "name": "purchases",
      "outputs": [
        {
          "name": "amount",
          "type": "uint256"
        },
        {
          "name": "purchaser",
          "type": "address"
        },
        {
          "name": "costAmount",
          "type": "uint256"
        },
        {
          "name": "timestamp",
          "type": "uint256"
        },
        {
          "name": "amountReedemed",
          "type": "uint256"
        },
        {
          "name": "lastTrancheSent",
          "type": "uint256"
        },
        {
          "name": "wasFinalized",
          "type": "bool"
        },
        {
          "name": "reverted",
          "type": "bool"
        }
      ],
      "payable": false,
      "stateMutability": "view",
      "type": "function"
    },
    {
      "constant": false,
      "inputs": [],
      "name": "pause",
      "outputs": [],
      "payable": false,
      "stateMutability": "nonpayable",
      "type": "function"
    },
    {
      "constant": true,
      "inputs": [],
      "name": "owner",
      "outputs": [
        {
          "name": "",
          "type": "address"
        }
      ],
      "payable": false,
      "stateMutability": "view",
      "type": "function"
    },
    {
      "constant": true,
      "inputs": [],
      "name": "minimumRaise",
      "outputs": [
        {
          "name": "",
          "type": "uint256"
        }
      ],
      "payable": false,
      "stateMutability": "view",
      "type": "function"
    },
    {
      "constant": true,
      "inputs": [
        {
          "name": "",
          "type": "uint256"
        }
      ],
      "name": "vestingSchedule",
      "outputs": [
        {
          "name": "",
          "type": "uint256"
        }
      ],
      "payable": false,
      "stateMutability": "view",
      "type": "function"
    },
    {
      "constant": true,
      "inputs": [
        {
          "name": "",
          "type": "address"
        }
      ],
      "name": "whitelist",
      "outputs": [
        {
          "name": "",
          "type": "bool"
        }
      ],
      "payable": false,
      "stateMutability": "view",
      "type": "function"
    },
    {
      "constant": true,
      "inputs": [],
      "name": "feePercentage",
      "outputs": [
        {
          "name": "",
          "type": "uint256"
        }
      ],
      "payable": false,
      "stateMutability": "view",
      "type": "function"
    },
    {
      "constant": true,
      "inputs": [],
      "name": "unsoldTokensReedemed",
      "outputs": [
        {
          "name": "",
          "type": "bool"
        }
      ],
      "payable": false,
      "stateMutability": "view",
      "type": "function"
    },
    {
      "constant": true,
      "inputs": [
        {
          "name": "",
          "type": "uint256"
        }
      ],
      "name": "whitelistedAddresses",
      "outputs": [
        {
          "name": "",
          "type": "address"
        }
      ],
      "payable": false,
      "stateMutability": "view",
      "type": "function"
    },
    {
      "constant": true,
      "inputs": [],
      "name": "endDate",
      "outputs": [
        {
          "name": "",
          "type": "uint256"
        }
      ],
      "payable": false,
      "stateMutability": "view",
      "type": "function"
    },
    {
      "constant": false,
      "inputs": [
        {
          "name": "_addresses",
          "type": "address[]"
        }
      ],
      "name": "add",
      "outputs": [],
      "payable": false,
      "stateMutability": "nonpayable",
      "type": "function"
    },
    {
      "constant": true,
      "inputs": [],
      "name": "vestingTime",
      "outputs": [
        {
          "name": "",
          "type": "uint256"
        }
      ],
      "payable": false,
      "stateMutability": "view",
      "type": "function"
    },
    {
      "constant": true,
      "inputs": [],
      "name": "isPOLSWhitelisted",
      "outputs": [
        {
          "name": "",
          "type": "bool"
        }
      ],
      "payable": false,
      "stateMutability": "view",
      "type": "function"
    },
    {
      "constant": true,
      "inputs": [],
      "name": "proposedOwner",
      "outputs": [
        {
          "name": "",
          "type": "address"
        }
      ],
      "payable": false,
      "stateMutability": "view",
      "type": "function"
    },
    {
      "constant": true,
      "inputs": [
        {
          "name": "",
          "type": "uint256"
        }
      ],
      "name": "purchaseIds",
      "outputs": [
        {
          "name": "",
          "type": "uint256"
        }
      ],
      "payable": false,
      "stateMutability": "view",
      "type": "function"
    },
    {
      "constant": true,
      "inputs": [],
      "name": "erc20v2POLS",
      "outputs": [
        {
          "name": "",
          "type": "address"
        }
      ],
      "payable": false,
      "stateMutability": "view",
      "type": "function"
    },
    {
      "constant": true,
      "inputs": [],
      "name": "individualMaximumAmount",
      "outputs": [
        {
          "name": "",
          "type": "uint256"
        }
      ],
      "payable": false,
      "stateMutability": "view",
      "type": "function"
    },
    {
      "constant": false,
      "inputs": [
        {
          "name": "_hasWhitelisting",
          "type": "bool"
        }
      ],
      "name": "editHasWhitelisting",
      "outputs": [],
      "payable": false,
      "stateMutability": "nonpayable",
      "type": "function"
    },
    {
      "constant": true,
      "inputs": [],
      "name": "erc20TradeAddress",
      "outputs": [
        {
          "name": "",
          "type": "address"
        }
      ],
      "payable": false,
      "stateMutability": "view",
      "type": "function"
    },
    {
      "constant": true,
      "inputs": [],
      "name": "FEE_ADDRESS",
      "outputs": [
        {
          "name": "",
          "type": "address"
        }
      ],
      "payable": false,
      "stateMutability": "view",
      "type": "function"
    },
    {
      "constant": true,
      "inputs": [
        {
          "name": "",
          "type": "uint256"
        }
      ],
      "name": "buyers",
      "outputs": [
        {
          "name": "",
          "type": "address"
        }
      ],
      "payable": false,
      "stateMutability": "view",
      "type": "function"
    },
    {
      "constant": false,
      "inputs": [
        {
          "name": "_proposedOwner",
          "type": "address"
        }
      ],
      "name": "transferOwnership",
      "outputs": [],
      "payable": false,
      "stateMutability": "nonpayable",
      "type": "function"
    },
    {
      "inputs": [
        {
          "name": "_tokenAddress",
          "type": "address"
        },
        {
          "name": "_tradeValue",
          "type": "uint256"
        },
        {
          "name": "_tokensForSale",
          "type": "uint256"
        },
        {
          "name": "_startDate",
          "type": "uint256"
        },
        {
          "name": "_endDate",
          "type": "uint256"
        },
        {
          "name": "_individualMinimumAmount",
          "type": "uint256"
        },
        {
          "name": "_individualMaximumAmount",
          "type": "uint256"
        },
        {
          "name": "_isTokenSwapAtomic",
          "type": "bool"
        },
        {
          "name": "_minimumRaise",
          "type": "uint256"
        },
        {
          "name": "_feeAmount",
          "type": "uint256"
        },
        {
          "name": "_hasWhitelisting",
          "type": "bool"
        },
        {
          "name": "_erc20TradeAddress",
          "type": "address"
        },
        {
          "name": "_isETHTrade",
          "type": "bool"
        },
        {
          "name": "_isPOLSWhitelisted",
          "type": "bool"
        },
        {
          "name": "_vestingTime",
          "type": "uint256"
        },
        {
          "name": "_vestingSchedule",
          "type": "uint256[]"
        }
      ],
      "payable": false,
      "stateMutability": "nonpayable",
      "type": "constructor"
    },
    {
      "anonymous": false,
      "inputs": [
        {
          "indexed": false,
          "name": "amount",
          "type": "uint256"
        },
        {
          "indexed": true,
          "name": "purchaser",
          "type": "address"
        },
        {
          "indexed": false,
          "name": "timestamp",
          "type": "uint256"
        }
      ],
      "name": "PurchaseEvent",
      "type": "event"
    },
    {
      "anonymous": false,
      "inputs": [
        {
          "indexed": true,
          "name": "accounts",
          "type": "address[]"
        }
      ],
      "name": "AddedToWhitelist",
      "type": "event"
    },
    {
      "anonymous": false,
      "inputs": [
        {
          "indexed": true,
          "name": "accounts",
          "type": "address[]"
        }
      ],
      "name": "RemovedFromWhitelist",
      "type": "event"
    },
    {
      "anonymous": false,
      "inputs": [],
      "name": "Pause",
      "type": "event"
    },
    {
      "anonymous": false,
      "inputs": [],
      "name": "Unpause",
      "type": "event"
    },
    {
      "anonymous": false,
      "inputs": [
        {
          "indexed": true,
          "name": "previousOwner",
          "type": "address"
        },
        {
          "indexed": true,
          "name": "newOwner",
          "type": "address"
        }
      ],
      "name": "OwnershipTransferred",
      "type": "event"
    },
    {
      "constant": false,
      "inputs": [
        {
          "name": "_individualMaximumAmount",
          "type": "uint256"
        }
      ],
      "name": "editIndividualMaximumAmount",
      "outputs": [],
      "payable": false,
      "stateMutability": "nonpayable",
      "type": "function"
    },
    {
      "constant": false,
      "inputs": [
        {
          "name": "_endDate",
          "type": "uint256"
        }
      ],
      "name": "editEndDate",
      "outputs": [],
      "payable": false,
      "stateMutability": "nonpayable",
      "type": "function"
    },
    {
      "constant": true,
      "inputs": [
        {
          "name": "purchase_id",
          "type": "uint256"
        }
      ],
      "name": "isBuyer",
      "outputs": [
        {
          "name": "",
          "type": "bool"
        }
      ],
      "payable": false,
      "stateMutability": "view",
      "type": "function"
    },
    {
      "constant": true,
      "inputs": [],
      "name": "totalRaiseCost",
      "outputs": [
        {
          "name": "",
          "type": "uint256"
        }
      ],
      "payable": false,
      "stateMutability": "view",
      "type": "function"
    },
    {
      "constant": true,
      "inputs": [],
      "name": "getCurrentSchedule",
      "outputs": [
        {
          "name": "",
          "type": "uint256"
        }
      ],
      "payable": false,
      "stateMutability": "view",
      "type": "function"
    },
    {
      "constant": true,
      "inputs": [],
      "name": "availableTokens",
      "outputs": [
        {
          "name": "",
          "type": "uint256"
        }
      ],
      "payable": false,
      "stateMutability": "view",
      "type": "function"
    },
    {
      "constant": true,
      "inputs": [],
      "name": "tokensLeft",
      "outputs": [
        {
          "name": "",
          "type": "uint256"
        }
      ],
      "payable": false,
      "stateMutability": "view",
      "type": "function"
    },
    {
      "constant": true,
      "inputs": [],
      "name": "hasMinimumRaise",
      "outputs": [
        {
          "name": "",
          "type": "bool"
        }
      ],
      "payable": false,
      "stateMutability": "view",
      "type": "function"
    },
    {
      "constant": true,
      "inputs": [],
      "name": "minimumRaiseNotAchieved",
      "outputs": [
        {
          "name": "",
          "type": "bool"
        }
      ],
      "payable": false,
      "stateMutability": "view",
      "type": "function"
    },
    {
      "constant": true,
      "inputs": [],
      "name": "minimumRaiseAchieved",
      "outputs": [
        {
          "name": "",
          "type": "bool"
        }
      ],
      "payable": false,
      "stateMutability": "view",
      "type": "function"
    },
    {
      "constant": true,
      "inputs": [],
      "name": "isETHTrade",
      "outputs": [
        {
          "name": "",
          "type": "bool"
        }
      ],
      "payable": false,
      "stateMutability": "view",
      "type": "function"
    },
    {
      "constant": true,
      "inputs": [],
      "name": "hasFinalized",
      "outputs": [
        {
          "name": "",
          "type": "bool"
        }
      ],
      "payable": false,
      "stateMutability": "view",
      "type": "function"
    },
    {
      "constant": true,
      "inputs": [],
      "name": "hasStarted",
      "outputs": [
        {
          "name": "",
          "type": "bool"
        }
      ],
      "payable": false,
      "stateMutability": "view",
      "type": "function"
    },
    {
      "constant": true,
      "inputs": [],
      "name": "isPreStart",
      "outputs": [
        {
          "name": "",
          "type": "bool"
        }
      ],
      "payable": false,
      "stateMutability": "view",
      "type": "function"
    },
    {
      "constant": true,
      "inputs": [],
      "name": "isOpen",
      "outputs": [
        {
          "name": "",
          "type": "bool"
        }
      ],
      "payable": false,
      "stateMutability": "view",
      "type": "function"
    },
    {
      "constant": true,
      "inputs": [],
      "name": "hasMinimumAmount",
      "outputs": [
        {
          "name": "",
          "type": "bool"
        }
      ],
      "payable": false,
      "stateMutability": "view",
      "type": "function"
    },
    {
      "constant": true,
      "inputs": [
        {
          "name": "_amount",
          "type": "uint256"
        }
      ],
      "name": "cost",
      "outputs": [
        {
          "name": "",
          "type": "uint256"
        }
      ],
      "payable": false,
      "stateMutability": "view",
      "type": "function"
    },
    {
      "constant": true,
      "inputs": [
        {
          "name": "_purchase_id",
          "type": "uint256"
        }
      ],
      "name": "getPurchase",
      "outputs": [
        {
          "name": "",
          "type": "uint256"
        },
        {
          "name": "",
          "type": "address"
        },
        {
          "name": "",
          "type": "uint256"
        },
        {
          "name": "",
          "type": "uint256"
        },
        {
          "name": "",
          "type": "uint256"
        },
        {
          "name": "",
          "type": "uint256"
        },
        {
          "name": "",
          "type": "bool"
        },
        {
          "name": "",
          "type": "bool"
        }
      ],
      "payable": false,
      "stateMutability": "view",
      "type": "function"
    },
    {
      "constant": true,
      "inputs": [],
      "name": "getPurchaseIds",
      "outputs": [
        {
          "name": "",
          "type": "uint256[]"
        }
      ],
      "payable": false,
      "stateMutability": "view",
      "type": "function"
    },
    {
      "constant": true,
      "inputs": [],
      "name": "getBuyers",
      "outputs": [
        {
          "name": "",
          "type": "address[]"
        }
      ],
      "payable": false,
      "stateMutability": "view",
      "type": "function"
    },
    {
      "constant": true,
      "inputs": [
        {
          "name": "_address",
          "type": "address"
        }
      ],
      "name": "getMyPurchases",
      "outputs": [
        {
          "name": "",
          "type": "uint256[]"
        }
      ],
      "payable": false,
      "stateMutability": "view",
      "type": "function"
    },
    {
      "constant": true,
      "inputs": [],
      "name": "isAddressPOLSWhitelisted",
      "outputs": [
        {
          "name": "",
          "type": "bool"
        }
      ],
      "payable": false,
      "stateMutability": "view",
      "type": "function"
    },
    {
      "constant": false,
      "inputs": [
        {
          "name": "_amount",
          "type": "uint256"
        }
      ],
      "name": "fund",
      "outputs": [],
      "payable": false,
      "stateMutability": "nonpayable",
      "type": "function"
    },
    {
      "constant": false,
      "inputs": [
        {
          "name": "_amount",
          "type": "uint256"
        }
      ],
      "name": "swap",
      "outputs": [],
      "payable": true,
      "stateMutability": "payable",
      "type": "function"
    },
    {
      "constant": false,
      "inputs": [
        {
          "name": "purchase_id",
          "type": "uint256"
        }
      ],
      "name": "redeemTokens",
      "outputs": [],
      "payable": false,
      "stateMutability": "nonpayable",
      "type": "function"
    },
    {
      "constant": false,
      "inputs": [
        {
          "name": "purchase_id",
          "type": "uint256"
        }
      ],
      "name": "redeemGivenMinimumGoalNotAchieved",
      "outputs": [],
      "payable": false,
      "stateMutability": "nonpayable",
      "type": "function"
    },
    {
      "constant": false,
      "inputs": [],
      "name": "withdrawFunds",
      "outputs": [],
      "payable": false,
      "stateMutability": "nonpayable",
      "type": "function"
    },
    {
      "constant": false,
      "inputs": [],
      "name": "withdrawUnsoldTokens",
      "outputs": [],
      "payable": false,
      "stateMutability": "nonpayable",
      "type": "function"
    },
    {
      "constant": false,
      "inputs": [
        {
          "name": "_tokenAddress",
          "type": "address"
        },
        {
          "name": "_to",
          "type": "address"
        }
      ],
      "name": "removeOtherERC20Tokens",
      "outputs": [],
      "payable": false,
      "stateMutability": "nonpayable",
      "type": "function"
    },
    {
      "constant": false,
      "inputs": [],
      "name": "safePull",
      "outputs": [],
      "payable": true,
      "stateMutability": "payable",
      "type": "function"
    }
  ],
  "bytecode": "0x608060405260018054600160a01b60ff021990811682556004805460ff1990811690915560006005819055600680546001600160a01b03199081167383e6f1e41cdd28eaceb20cb649155049fac3d5aa179091556007805490911673ffa98a091331df4600f87c9164cd27e8a5cd2405179055600d8054909316909255600e8290556012600f55601080548216905560148290556015829055601682905560178290556018919091556019805474aeb39b67f27b641ef9f95fb74f1a46b1ee4efc8300610100600160a81b0319909116179055601a829055601b80549091169055601c55348015620000f057600080fd5b5060405162004bce38038062004bce83398101806040526102008110156200011757600080fd5b810190808051906020019092919080519060200190929190805190602001909291908051906020019092919080519060200190929190805190602001909291908051906020019092919080519060200190929190805190602001909291908051906020019092919080519060200190929190805190602001909291908051906020019092919080519060200190929190805190602001909291908051640100000000811115620001c657600080fd5b82016020810184811115620001da57600080fd5b8151856020820283011164010000000082111715620001f857600080fd5b5050600080546001600160a01b03191633179055600480548a151560ff1990911617905592505050428c116200027a576040517f08c379a000000000000000000000000000000000000000000000000000000000815260040180806020018281038252602c81526020018062004ab5602c913960400191505060405180910390fd5b8c4210620002d4576040517f08c379a000000000000000000000000000000000000000000000000000000000815260040180806020018281038252602d81526020018062004ba1602d913960400191505060405180910390fd5b8b8d106200034357604080517f08c379a000000000000000000000000000000000000000000000000000000000815260206004820152601f60248201527f456e64204461746520686967686572207468616e205374617274204461746500604482015290519081900360640190fd5b60008e11620003b357604080517f08c379a000000000000000000000000000000000000000000000000000000000815260206004820152601d60248201527f546f6b656e7320666f722053616c652073686f756c64206265203e2030000000604482015290519081900360640190fd5b8a8e116200040d576040517f08c379a000000000000000000000000000000000000000000000000000000000815260040180806020018281038252603581526020018062004b6c6035913960400191505060405180910390fd5b8a8a101562000468576040517f08c379a000000000000000000000000000000000000000000000000000000000815260040180806020018281038252603f81526020018062004ae1603f913960400191505060405180910390fd5b8d881115620004c3576040517f08c379a000000000000000000000000000000000000000000000000000000000815260040180806020018281038252602981526020018062004b436029913960400191505060405180910390fd5b601a548710156200053557604080517f08c379a000000000000000000000000000000000000000000000000000000000815260206004820152601d60248201527f4665652050657263656e746167652068617320746f206265203e3d2031000000604482015290519081900360640190fd5b6063871115620005a657604080517f08c379a000000000000000000000000000000000000000000000000000000000815260206004820152601e60248201527f4665652050657263656e746167652068617320746f206265203c203130300000604482015290519081900360640190fd5b600082118015620005b75750603082105b6200060e576040517f08c379a000000000000000000000000000000000000000000000000000000000815260040180806020018281038252603681526020018062004a7f6036913960400191505060405180910390fd5b8051821462000669576040517f08c379a000000000000000000000000000000000000000000000000000000000815260040180806020018281038252602381526020018062004b206023913960400191505060405180910390fd5b60128d905560138c905560188e905560118f905560148b905560158a90556019805460ff19168a151517905588620006a15760168890555b8f600c60006101000a8154816001600160a01b0302191690836001600160a01b03160217905550836200077957600d80546001600160a01b0319166001600160a01b038781169190911791829055604080517f313ce5670000000000000000000000000000000000000000000000000000000081529051929091169163313ce56791600480820192602092909190829003018186803b1580156200074457600080fd5b505afa15801562000759573d6000803e3d6000fd5b505050506040513d60208110156200077057600080fd5b505160ff16600f555b601b805460ff1916841515179055600c54604080517f313ce56700000000000000000000000000000000000000000000000000000000815290516001600160a01b039092169163313ce56791600480820192602092909190829003018186803b158015620007e657600080fd5b505afa158015620007fb573d6000803e3d6000fd5b505050506040513d60208110156200081257600080fd5b505160ff16600e55601a879055601c82905560005b601c5481101562000869578181815181106200083f57fe5b60209081029190910181015160019092016000818152601d90925260409091209190915562000827565b50505050505050505050505050505050506141f5806200088a6000396000f3fe6080604052600436106104105760003560e01c80638392fe311161021e578063c4c1c94f11610123578063e4101de5116100ab578063efbb34d51161007a578063efbb34d514610db7578063f2aa821814610dcc578063f2fde38b14610df6578063f64bfaba14610e29578063fecf415a14610e3e57610410565b8063e4101de514610d4c578063e4847b2f14610d61578063e9ce9f1114610d8d578063eb1edd6114610da257610410565b8063d0a4a895116100f2578063d0a4a89514610cb9578063d153b60c14610cce578063d65fb16014610ce3578063d8ee2a4914610d0d578063e120b54b14610d3757610410565b8063c4c1c94f14610bb5578063c7dab43614610c65578063c8bdbfb614610c7a578063ca1d209d14610c8f57610410565b80639b19251a116101a6578063b367940e11610175578063b367940e14610b19578063b7fd706d14610b2e578063ba4e5c4914610b43578063c24a0f8b14610b6d578063c3ca324f14610b8257610410565b80639b19251a14610a92578063a001ecdd14610ac5578063a6e158f814610ada578063b31f8f9314610b0457610410565b80638e75b131116101ed5780638e75b131146109d15780639097548d146109e6578063917c854d14610a10578063919bd93014610a4b57806394b918de14610a7557610410565b80638392fe31146109685780638456cb59146109925780638a1a5f3f146109a75780638da5cb5b146109bc57610410565b80634089aa9a1161032457806369bb4dc2116102ac57806374fa05fb1161027b57806374fa05fb146108e3578063755e3e28146108f857806375968dbd1461090d578063785e9e861461093e57806378d627e01461095357610410565b806369bb4dc21461083f5780636a93df11146108545780636d028027146108b957806370a898bc146108ce57610410565b80634e71e0c8116102f35780634e71e0c81461079d5780635ac699bb146107b25780635c975abb146107eb5780635dde9649146108005780636295a2f41461082a57610410565b80634089aa9a1461074957806344691f7e1461075e57806346d132fb1461077357806347535d7b1461078857610410565b806321d3002a116103a75780632ebb5c1e116103765780632ebb5c1e14610660578063313ce567146106755780633742a9f71461068a5780633af32abf146107015780633f4ba83a1461073457610410565b806321d3002a1461061957806324600fc31461062e5780632daa8c84146106435780632e1541071461064b57610410565b806312aef8c3116103e357806312aef8c3146105b057806315b57866146105c5578063161a7b2a146105da5780631de18af7146105ef57610410565b806301faac0214610415578063044c0cc51461054b57806307662345146105745780630b97bc8614610589575b600080fd5b34801561042157600080fd5b506105496004803603604081101561043857600080fd5b81019060208101813564010000000081111561045357600080fd5b82018360208201111561046557600080fd5b8035906020019184602083028401116401000000008311171561048757600080fd5b91908080602002602001604051908101604052809392919081815260200183836020028082843760009201919091525092959493602081019350359150506401000000008111156104d757600080fd5b8201836020820111156104e957600080fd5b8035906020019184602083028401116401000000008311171561050b57600080fd5b919080806020026020016040519081016040528093929190818152602001838360200280828437600092019190915250929550610e68945050505050565b005b34801561055757600080fd5b50610560611025565b604080519115158252519081900360200190f35b34801561058057600080fd5b50610560611036565b34801561059557600080fd5b5061059e61103f565b60408051918252519081900360200190f35b3480156105bc57600080fd5b5061059e611045565b3480156105d157600080fd5b5061056061104b565b3480156105e657600080fd5b50610560611053565b3480156105fb57600080fd5b506105496004803603602081101561061257600080fd5b5035611063565b34801561062557600080fd5b506105606113bc565b34801561063a57600080fd5b506105496113c5565b61054961187c565b34801561065757600080fd5b5061059e611b01565b34801561066c57600080fd5b50610560611b07565b34801561068157600080fd5b5061059e611b0f565b34801561069657600080fd5b506106b4600480360360208110156106ad57600080fd5b5035611b15565b604080519889526001600160a01b039097166020890152878701959095526060870193909352608086019190915260a0850152151560c0840152151560e083015251908190036101000190f35b34801561070d57600080fd5b506105606004803603602081101561072457600080fd5b50356001600160a01b0316611c3f565b34801561074057600080fd5b50610549611c5d565b34801561075557600080fd5b50610560611d3f565b34801561076a57600080fd5b50610560611d47565b34801561077f57600080fd5b50610560611d50565b34801561079457600080fd5b50610560611e7a565b3480156107a957600080fd5b50610549611e9a565b3480156107be57600080fd5b5061059e600480360360408110156107d557600080fd5b506001600160a01b038135169060200135611f60565b3480156107f757600080fd5b50610560611f8e565b34801561080c57600080fd5b506105496004803603602081101561082357600080fd5b5035611f9e565b34801561083657600080fd5b5061059e6120a7565b34801561084b57600080fd5b5061059e6120ad565b34801561086057600080fd5b5061086961212c565b60408051602080825283518183015283519192839290830191858101910280838360005b838110156108a557818101518382015260200161088d565b505050509050019250505060405180910390f35b3480156108c557600080fd5b50610869612184565b3480156108da57600080fd5b506105606121e5565b3480156108ef57600080fd5b506105606121ed565b34801561090457600080fd5b5061059e61224a565b34801561091957600080fd5b50610922612250565b604080516001600160a01b039092168252519081900360200190f35b34801561094a57600080fd5b5061092261225f565b34801561095f57600080fd5b5061059e61226e565b34801561097457600080fd5b506106b46004803603602081101561098b57600080fd5b5035612274565b34801561099e57600080fd5b506105496122c7565b3480156109b357600080fd5b5061059e6123b2565b3480156109c857600080fd5b506109226123e9565b3480156109dd57600080fd5b5061059e6123f8565b3480156109f257600080fd5b5061059e60048036036020811015610a0957600080fd5b50356123fe565b348015610a1c57600080fd5b5061054960048036036040811015610a3357600080fd5b506001600160a01b0381358116916020013516612424565b348015610a5757600080fd5b5061059e60048036036020811015610a6e57600080fd5b50356126ae565b61054960048036036020811015610a8b57600080fd5b50356126c0565b348015610a9e57600080fd5b5061056060048036036020811015610ab557600080fd5b50356001600160a01b0316612e68565b348015610ad157600080fd5b5061059e612e7d565b348015610ae657600080fd5b5061054960048036036020811015610afd57600080fd5b5035612e83565b348015610b1057600080fd5b5061059e613302565b348015610b2557600080fd5b5061056061330c565b348015610b3a57600080fd5b50610560613371565b348015610b4f57600080fd5b5061092260048036036020811015610b6657600080fd5b503561337a565b348015610b7957600080fd5b5061059e6133a1565b348015610b8e57600080fd5b5061086960048036036020811015610ba557600080fd5b50356001600160a01b03166133a7565b348015610bc157600080fd5b5061054960048036036020811015610bd857600080fd5b810190602081018135640100000000811115610bf357600080fd5b820183602082011115610c0557600080fd5b80359060200191846020830284011164010000000083111715610c2757600080fd5b919080806020026020016040519081016040528093929190818152602001838360200280828437600092019190915250929550613413945050505050565b348015610c7157600080fd5b5061059e6135c6565b348015610c8657600080fd5b506105496135cc565b348015610c9b57600080fd5b5061054960048036036020811015610cb257600080fd5b50356137b2565b348015610cc557600080fd5b50610560613970565b348015610cda57600080fd5b50610922613979565b348015610cef57600080fd5b5061059e60048036036020811015610d0657600080fd5b5035613988565b348015610d1957600080fd5b5061054960048036036020811015610d3057600080fd5b50356139a6565b348015610d4357600080fd5b506109226139fb565b348015610d5857600080fd5b5061059e613a0a565b348015610d6d57600080fd5b5061054960048036036020811015610d8457600080fd5b50351515613a10565b348015610d9957600080fd5b50610922613a73565b348015610dae57600080fd5b50610922613a82565b348015610dc357600080fd5b5061059e613a96565b348015610dd857600080fd5b5061092260048036036020811015610def57600080fd5b5035613aa3565b348015610e0257600080fd5b5061054960048036036020811015610e1957600080fd5b50356001600160a01b0316613ab0565b348015610e3557600080fd5b50610869613b6d565b348015610e4a57600080fd5b5061056060048036036020811015610e6157600080fd5b5035613bcd565b6000546001600160a01b03163314610eb85760408051600160e51b62461bcd02815260206004820152600f6024820152600080516020614032833981519152604482015290519081900360640190fd5b60005b8251811015610fb7576003828281518110610ed257fe5b602002602001015181548110610ee457fe5b60009182526020909120015483516001600160a01b0390911690849083908110610f0a57fe5b60200260200101516001600160a01b031614610f2557600080fd5b600060026000858481518110610f3757fe5b60200260200101516001600160a01b03166001600160a01b0316815260200190815260200160002060006101000a81548160ff0219169083151502179055506003828281518110610f8457fe5b602002602001015181548110610f9657fe5b600091825260209091200180546001600160a01b0319169055600101610ebb565b508160405180828051906020019060200280838360005b83811015610fe6578181015183820152602001610fce565b505060405194909201849003842095507f17dbdef66bfe28946fe1bf49cc6946533e58c6e0ecbf907152e406b630eb4f27945060009392505050a25050565b600d546001600160a01b0316155b90565b60045460ff1681565b60125481565b60185481565b601654151590565b600d54600160a01b900460ff1681565b61106b611d3f565b6110ad5760408051600160e51b62461bcd02815260206004820152601360248201526000805160206140d7833981519152604482015290519081900360640190fd5b60195460ff16156111085760408051600160e51b62461bcd02815260206004820152601960248201527f48617320746f206265206e6f6e2041746f6d6963207377617000000000000000604482015290519081900360640190fd5b61111061104b565b6111645760408051600160e51b62461bcd02815260206004820152601a60248201527f4d696e696d756d2072616973652068617320746f206578697374000000000000604482015290519081900360640190fd5b61116c6121ed565b6111c05760408051600160e51b62461bcd02815260206004820152601f60248201527f4d696e696d756d2072616973652068617320746f206265207265616368656400604482015290519081900360640190fd5b60008181526008602052604090208054158015906111e35750600681015460ff16155b61122157604051600160e51b62461bcd028152600401808060200182810382526021815260200180613ef26021913960400191505060405180910390fd5b61122a82613bcd565b61127e5760408051600160e51b62461bcd02815260206004820152601460248201527f41646472657373206973206e6f74206275796572000000000000000000000000604482015290519081900360640190fd5b60068101805461ff001960ff19909116600117166101001790556112a0611025565b156112e857600082815260086020526040808220600201549051339282156108fc02929190818181858888f193505050501580156112e2573d6000803e3d6000fd5b506113b8565b600d546000838152600860209081526040808320600201548151600160e01b63a9059cbb028152336004820152602481019190915290516001600160a01b039094169363a9059cbb93604480840194938390030190829087803b15801561134e57600080fd5b505af1158015611362573d6000803e3d6000fd5b505050506040513d602081101561137857600080fd5b50516113b857604051600160e51b62461bcd0281526004018080602001828103825260328152602001806140526032913960400191505060405180910390fd5b5050565b60195460ff1681565b6000546001600160a01b031633146114155760408051600160e51b62461bcd02815260206004820152600f6024820152600080516020614032833981519152604482015290519081900360640190fd5b600154600160a01b900460ff161561146f5760408051600160e51b62461bcd0281526020600482015260126024820152600160721b7112185cc81d1bc81899481d5b9c185d5cd95902604482015290519081900360640190fd5b611477611d3f565b6114b95760408051600160e51b62461bcd02815260206004820152601360248201526000805160206140d7833981519152604482015290519081900360640190fd5b6114c161330c565b6115155760408051600160e51b62461bcd02815260206004820152601f60248201527f4d696e696d756d2072616973652068617320746f206265207265616368656400604482015290519081900360640190fd5b61151d611025565b156115b757601954601a546101009091046001600160a01b0316906108fc9061155b9060649061154f90303190613bed565b9063ffffffff613c5016565b6040518115909202916000818181858888f19350505050158015611583573d6000803e3d6000fd5b506040513390303180156108fc02916000818181858888f193505050501580156115b1573d6000803e3d6000fd5b5061187a565b600d54601954601a5460408051600160e01b6370a0823102815230600482015290516001600160a01b039485169463a9059cbb946101009004169261165e9260649261154f929188916370a0823191602480820192602092909190829003018186803b15801561162657600080fd5b505afa15801561163a573d6000803e3d6000fd5b505050506040513d602081101561165057600080fd5b50519063ffffffff613bed16565b6040518363ffffffff1660e01b815260040180836001600160a01b03166001600160a01b0316815260200182815260200192505050602060405180830381600087803b1580156116ad57600080fd5b505af11580156116c1573d6000803e3d6000fd5b505050506040513d60208110156116d757600080fd5b505161172d5760408051600160e51b62461bcd02815260206004820152601b60248201527f4552433230205472616e73666572206469646ec2b47420776f726b0000000000604482015290519081900360640190fd5b600d5460408051600160e01b6370a0823102815230600482015290516001600160a01b039092169163a9059cbb91339184916370a08231916024808301926020929190829003018186803b15801561178457600080fd5b505afa158015611798573d6000803e3d6000fd5b505050506040513d60208110156117ae57600080fd5b50516040805163ffffffff851660e01b81526001600160a01b03909316600484015260248301919091525160448083019260209291908290030181600087803b1580156117fa57600080fd5b505af115801561180e573d6000803e3d6000fd5b505050506040513d602081101561182457600080fd5b505161187a5760408051600160e51b62461bcd02815260206004820152601b60248201527f4552433230205472616e73666572206469646ec2b47420776f726b0000000000604482015290519081900360640190fd5b565b6000546001600160a01b031633146118cc5760408051600160e51b62461bcd02815260206004820152600f6024820152600080516020614032833981519152604482015290519081900360640190fd5b600154600160a01b900460ff166119235760408051600160e51b62461bcd0281526020600482015260106024820152600160821b6f12185cc81d1bc81899481c185d5cd95902604482015290519081900360640190fd5b6040513390303180156108fc02916000818181858888f19350505050158015611950573d6000803e3d6000fd5b50600c5460408051600160e01b6370a0823102815230600482015290516001600160a01b039092169163a9059cbb91339184916370a08231916024808301926020929190829003018186803b1580156119a857600080fd5b505afa1580156119bc573d6000803e3d6000fd5b505050506040513d60208110156119d257600080fd5b50516040805163ffffffff851660e01b81526001600160a01b03909316600484015260248301919091525160448083019260209291908290030181600087803b158015611a1e57600080fd5b505af1158015611a32573d6000803e3d6000fd5b505050506040513d6020811015611a4857600080fd5b5051611a9e5760408051600160e51b62461bcd02815260206004820152601b60248201527f4552433230205472616e73666572206469646ec2b47420776f726b0000000000604482015290519081900360640190fd5b611aa6611025565b61187a57600d5460408051600160e01b6370a0823102815230600482015290516001600160a01b039092169163a9059cbb91339184916370a08231916024808301926020929190829003018186803b15801561178457600080fd5b60145481565b601254421090565b600e5481565b600080600080600080600080611b29613e33565b50600089815260086020908152604091829020825161010080820185528254825260018301546001600160a01b03169382018490526002830154948201949094526003820154606082015260048201546080820152600582015460a082015260069091015460ff808216151560c0840152939004909216151560e0830152611bfb5760408051600160e51b62461bcd02815260206004820152601760248201527f507572636861736520646f6573206e6f74206578697374000000000000000000604482015290519081900360640190fd5b806000015181602001518260400151836060015184608001518560a001518660c001518760e001519850985098509850985098509850985050919395975091939597565b6001600160a01b031660009081526002602052604090205460ff1690565b6000546001600160a01b03163314611cad5760408051600160e51b62461bcd02815260206004820152600f6024820152600080516020614032833981519152604482015290519081900360640190fd5b600154600160a01b900460ff16611d045760408051600160e51b62461bcd0281526020600482015260106024820152600160821b6f12185cc81d1bc81899481c185d5cd95902604482015290519081900360640190fd5b60018054600160a01b60ff02191690556040517f7805862f689e2f13df9f062ff482ad3ad112aca9e0847911ed832e158c525b3390600090a1565b601354421190565b60125442101590565b601b5460009060ff1615611e725760065460408051600160e01b6370a08231028152336004820152905168a2a15d09519be00000926001600160a01b0316916370a08231916024808301926020929190829003018186803b158015611db457600080fd5b505afa158015611dc8573d6000803e3d6000fd5b505050506040513d6020811015611dde57600080fd5b50511180611e6b575060075460408051600160e01b6370a0823102815233600482015290516801158e460913d00000926001600160a01b0316916370a08231916024808301926020929190829003018186803b158015611e3d57600080fd5b505afa158015611e51573d6000803e3d6000fd5b505050506040513d6020811015611e6757600080fd5b5051115b9050611033565b506001611033565b6000611e84611d47565b8015611e955750611e93611d3f565b155b905090565b6001546001600160a01b03163314611efc5760408051600160e51b62461bcd02815260206004820152601c60248201527f48617320746f206265207468652070726f706f736564206f776e657200000000604482015290519081900360640190fd5b600154600080546040516001600160a01b0393841693909116917f8be0079c531659141344cd1fd0a4f28419497f9722a3daafe3b4186f6b6457e091a360018054600080546001600160a01b03199081166001600160a01b03841617909155169055565b600b6020528160005260406000208181548110611f7957fe5b90600052602060002001600091509150505481565b600154600160a01b900460ff1681565b6000546001600160a01b03163314611fee5760408051600160e51b62461bcd02815260206004820152600f6024820152600080516020614032833981519152604482015290519081900360640190fd5b611ff6611d3f565b1561204b5760408051600160e51b62461bcd02815260206004820152601b60248201527f456e6420446174652068617320616c7265616479207061737365640000000000604482015290519081900360640190fd5b4281116120a25760408051600160e51b62461bcd02815260206004820152601d60248201527f456e6420446174652068617320746f206d6f7265207468616e206e6f77000000604482015290519081900360640190fd5b601355565b60115481565b600c5460408051600160e01b6370a0823102815230600482015290516000926001600160a01b0316916370a08231916024808301926020929190829003018186803b1580156120fb57600080fd5b505afa15801561210f573d6000803e3d6000fd5b505050506040513d602081101561212557600080fd5b5051905090565b6060600a80548060200260200160405190810160405280929190818152602001828054801561217a57602002820191906000526020600020905b815481526020019060010190808311612166575b5050505050905090565b6060600380548060200260200160405190810160405280929190818152602001828054801561217a57602002820191906000526020600020905b81546001600160a01b031681526001909101906020018083116121be575050505050905090565b601454151590565b60006121fa6016546123fe565b6122056017546123fe565b1061224457604051600160e51b62461bcd02815260040180806020018281038252602e815260200180613f95602e913960400191505060405180910390fd5b50600190565b60175481565b6006546001600160a01b031681565b600c546001600160a01b031681565b600f5481565b600860205260009081526040902080546001820154600283015460038401546004850154600586015460069096015494956001600160a01b03909416949293919290919060ff8082169161010090041688565b6000546001600160a01b031633146123175760408051600160e51b62461bcd02815260206004820152600f6024820152600080516020614032833981519152604482015290519081900360640190fd5b600154600160a01b900460ff16156123715760408051600160e51b62461bcd0281526020600482015260126024820152600160721b7112185cc81d1bc81899481d5b9c185d5cd95902604482015290519081900360640190fd5b60018054600160a01b60ff021916600160a01b1790556040517f6985a02210a168e66602d3235cb6db0e70f92b3ba4d376a33c0f3d9434bff62590600090a1565b6000806123d061012c61154f60125442613c9290919063ffffffff16565b90506123e381600163ffffffff613cd416565b91505090565b6000546001600160a01b031681565b60165481565b600061241e600e54600a0a61154f60115485613bed90919063ffffffff16565b92915050565b6000546001600160a01b031633146124745760408051600160e51b62461bcd02815260206004820152600f6024820152600080516020614032833981519152604482015290519081900360640190fd5b61247c611d3f565b6124be5760408051600160e51b62461bcd02815260206004820152601360248201526000805160206140d7833981519152604482015290519081900360640190fd5b600c546001600160a01b038381169116141561250e57604051600160e51b62461bcd02815260040180806020018281038252603b815260200180613eb7603b913960400191505060405180910390fd5b600d546001600160a01b038381169116141561255e57604051600160e51b62461bcd02815260040180806020018281038252603c81526020018061418e603c913960400191505060405180910390fd5b60408051600160e01b6370a08231028152306004820152905183916001600160a01b0383169163a9059cbb91859184916370a08231916024808301926020929190829003018186803b1580156125b357600080fd5b505afa1580156125c7573d6000803e3d6000fd5b505050506040513d60208110156125dd57600080fd5b50516040805163ffffffff851660e01b81526001600160a01b03909316600484015260248301919091525160448083019260209291908290030181600087803b15801561262957600080fd5b505af115801561263d573d6000803e3d6000fd5b505050506040513d602081101561265357600080fd5b50516126a95760408051600160e51b62461bcd02815260206004820152601b60248201527f455243323020546f6b656e207472616e73666572206661696c65640000000000604482015290519081900360640190fd5b505050565b601d6020526000908152604090205481565b600154600160a01b900460ff161561271a5760408051600160e51b62461bcd0281526020600482015260126024820152600160721b7112185cc81d1bc81899481d5b9c185d5cd95902604482015290519081900360640190fd5b600d54600160a01b900460ff1661277b5760408051600160e51b62461bcd02815260206004820152601060248201527f48617320746f2062652066756e64656400000000000000000000000000000000604482015290519081900360640190fd5b612783611e7a565b6127d75760408051600160e51b62461bcd02815260206004820152600e60248201527f48617320746f206265206f70656e000000000000000000000000000000000000604482015290519081900360640190fd5b60045460ff16156127f4576127eb33611c3f565b6127f457600080fd5b60006127fe611025565b1561285457503461280e826123fe565b81101561284f57604051600160e51b62461bcd02815260040180806020018281038252604a815260200180613fe8604a913960600191505060405180910390fd5b612927565b61285d826123fe565b600d5460408051600160e01b6323b872dd0281523360048201523060248201526044810184905290519293506001600160a01b03909116916323b872dd916064808201926020929091908290030181600087803b1580156128bd57600080fd5b505af11580156128d1573d6000803e3d6000fd5b505050506040513d60208110156128e757600080fd5b505161292757604051600160e51b62461bcd028152600401808060200182810382526031815260200180613e866031913960400191505060405180910390fd5b6000821161297f5760408051600160e51b62461bcd02815260206004820152601960248201527f416d6f756e742068617320746f20626520706f73697469766500000000000000604482015290519081900360640190fd5b612987613302565b8211156129c857604051600160e51b62461bcd028152600401808060200182810382526024815260200180613f4b6024913960400191505060405180910390fd5b601454821015612a0c57604051600160e51b62461bcd02815260040180806020018281038252602481526020018061416a6024913960400191505060405180910390fd5b601554821115612a5057604051600160e51b62461bcd028152600401808060200182810382526025815260200180613fc36025913960400191505060405180910390fd5b6060612a5b336133a7565b90506000805b8251811015612b2a57612a72613e33565b60086000858481518110612a8257fe5b602090810291909101810151825281810192909252604090810160002081516101008082018452825480835260018401546001600160a01b0316958301959095526002830154938201939093526003820154606082015260048201546080820152600582015460a082015260069091015460ff808216151560c0840152929004909116151560e08201529150612b1f90849063ffffffff613cd416565b925050600101612a61565b50601554612b3e828663ffffffff613cd416565b1115612b7e57604051600160e51b62461bcd0281526004018080602001828103825260318152602001806141186031913960400191505060405180910390fd5b612b86611d50565b612bc457604051600160e51b62461bcd028152600401808060200182810382526026815260200180613f6f6026913960400191505060405180910390fd5b60195460ff1615612ca657600c5460408051600160e01b63a9059cbb0281523360048201526024810187905290516001600160a01b039092169163a9059cbb916044808201926020929091908290030181600087803b158015612c2657600080fd5b505af1158015612c3a573d6000803e3d6000fd5b505050506040513d6020811015612c5057600080fd5b5051612ca65760408051600160e51b62461bcd02815260206004820152601b60248201527f4552433230207472616e73666572206469646ec2b47420776f726b0000000000604482015290519081900360640190fd5b600554612cba81600163ffffffff613cd416565b600555612cc5613e33565b506040805161010080820183528782523360208084018281528486018a8152426060870190815260006080880181815260a0890182815260195460ff16151560c08b0190815260e08b018481528d8552600889528c85208c5181559751600189810180546001600160a01b03939093166001600160a01b0319938416179055975160028a015595516003890155925160048801559051600587015551600690950180549151151590980261ff001995151560ff19909216919091179490941693909317909555600a80548083019091557fc65a7bb8d6351c1cf70c95a316cc6a92839c986682d98bc35f958f4883f9d2a801889055838252600b83529581208054808801825590825291812090910186905560098054958601815590527f6e1540171b6c0c960b71a7020d9f60077f6af931a8bbf590da0223dacf75c7af9093018054909116909217909155601754612e24908763ffffffff613cd416565b60175560408051878152426020820152815133927fbec109f7ee137de661c6887caa96653c0545050a9908a3b6eb5190440bbec864928290030190a2505050505050565b60026020526000908152604090205460ff1681565b601a5481565b60195460ff1615612ede5760408051600160e51b62461bcd02815260206004820152601960248201527f48617320746f206265206e6f6e2041746f6d6963207377617000000000000000604482015290519081900360640190fd5b612ee6611d3f565b612f285760408051600160e51b62461bcd02815260206004820152601360248201526000805160206140d7833981519152604482015290519081900360640190fd5b600154600160a01b900460ff1615612f825760408051600160e51b62461bcd0281526020600482015260126024820152600160721b7112185cc81d1bc81899481d5b9c185d5cd95902604482015290519081900360640190fd5b612f8a61330c565b612fde5760408051600160e51b62461bcd02815260206004820152601f60248201527f4d696e696d756d2072616973652068617320746f206265207265616368656400604482015290519081900360640190fd5b612fe6613e33565b5060008181526008602090815260409182902082516101008082018552825480835260018401546001600160a01b0316948301949094526002830154948201949094526003820154606082015260048201546080820152600582015460a082015260069091015460ff808216151560c0840152939004909216151560e08301521580159061307657508060c00151155b6130b457604051600160e51b62461bcd028152600401808060200182810382526021815260200180613ef26021913960400191505060405180910390fd5b6130bd82613bcd565b6131115760408051600160e51b62461bcd02815260206004820152601460248201527f41646472657373206973206e6f74206275796572000000000000000000000000604482015290519081900360640190fd5b600061311b6123b2565b9050808260a001511061316257604051600160e51b62461bcd0281526004018080602001828103825260278152602001806140846027913960400191505060405180910390fd5b60a08201516000906001015b8281116131b9576000818152601d602052604090205484516131af916131a2916127109161154f919063ffffffff613bed16565b839063ffffffff613cd416565b915060010161316e565b50825160808401516131d1908363ffffffff613cd416565b14156131f4576000848152600860205260409020600601805460ff191660011790555b6080830151613209908263ffffffff613cd416565b6000858152600860209081526040808320600480820195909555600501869055600c548151600160e01b63a9059cbb02815233958101959095526024850186905290516001600160a01b039091169363a9059cbb9360448083019493928390030190829087803b15801561327c57600080fd5b505af1158015613290573d6000803e3d6000fd5b505050506040513d60208110156132a657600080fd5b50516132fc5760408051600160e51b62461bcd02815260206004820152601560248201527f4552433230207472616e73666572206661696c65640000000000000000000000604482015290519081900360640190fd5b50505050565b6017546018540390565b600061331661104b565b15612244576133266016546123fe565b6133316017546123fe565b101561224457604051600160e51b62461bcd02815260040180806020018281038252602c8152602001806140ab602c913960400191505060405180910390fd5b60105460ff1681565b6003818154811061338757fe5b6000918252602090912001546001600160a01b0316905081565b60135481565b6001600160a01b0381166000908152600b602090815260409182902080548351818402810184019094528084526060939283018282801561340757602002820191906000526020600020905b8154815260200190600101908083116133f3575b50505050509050919050565b6000546001600160a01b031633146134635760408051600160e51b62461bcd02815260206004820152600f6024820152600080516020614032833981519152604482015290519081900360640190fd5b60005b8151811015613559576002600083838151811061347f57fe5b6020908102919091018101516001600160a01b031682528101919091526040016000205460ff161515600114156134b557600080fd5b6001600260008484815181106134c757fe5b60200260200101516001600160a01b03166001600160a01b0316815260200190815260200160002060006101000a81548160ff021916908315150217905550600382828151811061351457fe5b60209081029190910181015182546001808201855560009485529290932090920180546001600160a01b0319166001600160a01b039093169290921790915501613466565b508060405180828051906020019060200280838360005b83811015613588578181015183820152602001613570565b505060405194909201849003842095507fe3c5086a518f78e8aa61952bb9c28a9a0f0022707e537ea961faa918e0d89f6f945060009392505050a250565b601c5481565b6000546001600160a01b0316331461361c5760408051600160e51b62461bcd02815260206004820152600f6024820152600080516020614032833981519152604482015290519081900360640190fd5b613624611d3f565b6136665760408051600160e51b62461bcd02815260206004820152601360248201526000805160206140d7833981519152604482015290519081900360640190fd5b60105460ff161561367657600080fd5b600061368061104b565b801561369f57506136926016546123fe565b61369d6017546123fe565b105b156136ad57506018546136c5565b6017546018546136c29163ffffffff613c9216565b90505b80156137af576010805460ff19166001179055600c5460408051600160e01b63a9059cbb0281523360048201526024810184905290516001600160a01b039092169163a9059cbb916044808201926020929091908290030181600087803b15801561372f57600080fd5b505af1158015613743573d6000803e3d6000fd5b505050506040513d602081101561375957600080fd5b50516137af5760408051600160e51b62461bcd02815260206004820152601560248201527f4552433230207472616e73666572206661696c65640000000000000000000000604482015290519081900360640190fd5b50565b6137ba611b07565b61380e5760408051600160e51b62461bcd02815260206004820152601560248201527f48617320746f206265207072652d737461727465640000000000000000000000604482015290519081900360640190fd5b6018546138298261381d6120ad565b9063ffffffff613cd416565b111561386957604051600160e51b62461bcd028152600401808060200182810382526038815260200180613f136038913960400191505060405180910390fd5b600c5460408051600160e01b6323b872dd0281523360048201523060248201526044810184905290516001600160a01b03909216916323b872dd916064808201926020929091908290030181600087803b1580156138c657600080fd5b505af11580156138da573d6000803e3d6000fd5b505050506040513d60208110156138f057600080fd5b50516139465760408051600160e51b62461bcd02815260206004820152601b60248201527f4661696c656420455243323020746f6b656e207472616e736665720000000000604482015290519081900360640190fd5b6018546139516120ad565b14156137af57600d8054600160a01b60ff021916600160a01b17905550565b601b5460ff1681565b6001546001600160a01b031681565b600a818154811061399557fe5b600091825260209091200154905081565b6000546001600160a01b031633146139f65760408051600160e51b62461bcd02815260206004820152600f6024820152600080516020614032833981519152604482015290519081900360640190fd5b601555565b6007546001600160a01b031681565b60155481565b6000546001600160a01b03163314613a605760408051600160e51b62461bcd02815260206004820152600f6024820152600080516020614032833981519152604482015290519081900360640190fd5b6004805460ff1916911515919091179055565b600d546001600160a01b031681565b60195461010090046001600160a01b031681565b6000611e956018546123fe565b6009818154811061338757fe5b6000546001600160a01b03163314613b005760408051600160e51b62461bcd02815260206004820152600f6024820152600080516020614032833981519152604482015290519081900360640190fd5b336001600160a01b0382161415613b4b57604051600160e51b62461bcd0281526004018080602001828103825260218152602001806141496021913960400191505060405180910390fd5b600180546001600160a01b0319166001600160a01b0392909216919091179055565b6060600980548060200260200160405190810160405280929190818152602001828054801561217a576020028201919060005260206000209081546001600160a01b031681526001909101906020018083116121be575050505050905090565b6000908152600860205260409020600101546001600160a01b0316331490565b600082613bfc5750600061241e565b82820282848281613c0957fe5b0414613c4957604051600160e51b62461bcd0281526004018080602001828103825260218152602001806140f76021913960400191505060405180910390fd5b9392505050565b6000613c4983836040518060400160405280601a81526020017f536166654d6174683a206469766973696f6e206279207a65726f000000000000815250613d31565b6000613c4983836040518060400160405280601e81526020017f536166654d6174683a207375627472616374696f6e206f766572666c6f770000815250613dd6565b600082820183811015613c495760408051600160e51b62461bcd02815260206004820152601b60248201527f536166654d6174683a206164646974696f6e206f766572666c6f770000000000604482015290519081900360640190fd5b60008183613dc057604051600160e51b62461bcd0281526004018080602001828103825283818151815260200191508051906020019080838360005b83811015613d85578181015183820152602001613d6d565b50505050905090810190601f168015613db25780820380516001836020036101000a031916815260200191505b509250505060405180910390fd5b506000838581613dcc57fe5b0495945050505050565b60008184841115613e2b57604051600160e51b62461bcd028152602060048201818152835160248401528351909283926044909101919085019080838360008315613d85578181015183820152602001613d6d565b505050900390565b6040518061010001604052806000815260200160006001600160a01b0316815260200160008152602001600081526020016000815260200160008152602001600015158152602001600015158152509056fe5061796d656e74206f6620455243323020546f6b656e205472616e7366657220776173206e6f7420737563636565646564546f6b656e20416464726573732068617320746f2062652064696666207468616e20746865206572633230207375626a65637420746f2073616c655075726368617365206973206569746865722030206f722066696e616c697a65645472616e73666572656420746f6b656e73206861766520746f20626520657175616c206f72206c657373207468616e2070726f706f736564416d6f756e74206973206c657373207468616e20746f6b656e7320617661696c61626c65416464726573732068617320746f2062652077686974656c697374656420666f7220504f4c53546f74616c526169736520697320626967676572207468616e206d696e696d756d20726169736520616d6f756e74416d6f756e7420697320736d616c6c6572207468616e206d6178696d756d20616d6f756e74557365722068617320746f20636f7665722074686520636f7374206f662074686520737761702c207573652074686520636f73742066756e6374696f6e20746f2064657465726d696e6548617320746f206265206f776e657200000000000000000000000000000000005265747269657665206f6620455243323020546f6b656e205472616e7366657220776173206e6f742073756363656564656443757272656e74205472616e6368652077617320616c7265616479206469737472696275746564546f74616c5261697365206973206c657373207468616e206d696e696d756d20726169736520616d6f756e7448617320746f2062652066696e616c697a656400000000000000000000000000536166654d6174683a206d756c7469706c69636174696f6e206f766572666c6f77416464726573732068617320616c72656164792070617373656420746865206d617820616d6f756e74206f66207377617048617320746f2062652064696666207468616e2063757272656e74206f776e6572416d6f756e7420697320626967676572207468616e206d696e696d756d20616d6f756e74546f6b656e20416464726573732068617320746f2062652064696666207468616e2074686520657263323020616761696e7374207468652073616c65a165627a7a723058204e1360a035ea53eab1c2c9dd9bc2750c2519125c789e4327ecd259bd729aee26002956657374696e672054696d652068617320746f20626520736d616c6c6572207468616e203438202620626967676572207468616e2030456e6420446174652073686f756c642062652066757274686572207468616e2063757272656e742064617465496e646976696475616c204d6178696d696d20414d6f756e742073686f756c64206265203e20496e646976696475616c204d696e696d756d20416d6f756e7456657374696e672068617320746f20626520657175616c20746f206974732073697a654d696e696d756d2052616973652073686f756c64206265203c20546f6b656e7320466f722053616c65546f6b656e7320666f722053616c652073686f756c64206265203e20496e646976696475616c204d696e696d756d20416d6f756e74537461727420446174652073686f756c64206265206265666f7265207468616e2063757272656e742064617465",
  "source": "pragma solidity 0.5.8; \n\n/**\n * @title ERC20Basic\n * @dev Simpler version of ERC20 interface\n * @dev see https://github.com/ethereum/EIPs/issues/179\n */\ncontract ERC20Basic {\n    function decimals() public view returns (uint8);\n    function totalSupply() public view returns (uint256);\n    function balanceOf(address who) public view returns (uint256);\n    function transfer(address to, uint256 value) public returns (bool);\n    event Transfer(address indexed from, address indexed to, uint256 value);\n}\n\n/**\n * @dev Wrappers over Solidity's arithmetic operations with added overflow\n * checks.\n *\n * Arithmetic operations in Solidity wrap on overflow. This can easily result\n * in bugs, because programmers usually assume that an overflow raises an\n * error, which is the standard behavior in high level programming languages.\n * `SafeMath` restores this intuition by reverting the transaction when an\n * operation overflows.\n *\n * Using this library instead of the unchecked operations eliminates an entire\n * class of bugs, so it's recommended to use it always.\n */\nlibrary SafeMath {\n    /**\n     * @dev Returns the addition of two unsigned integers, reverting on\n     * overflow.\n     *\n     * Counterpart to Solidity's `+` operator.\n     *\n     * Requirements:\n     * - Addition cannot overflow.\n     */\n    function add(uint256 a, uint256 b) internal pure returns (uint256) {\n        uint256 c = a + b;\n        require(c >= a, \"SafeMath: addition overflow\");\n\n        return c;\n    }\n\n    /**\n     * @dev Returns the subtraction of two unsigned integers, reverting on\n     * overflow (when the result is negative).\n     *\n     * Counterpart to Solidity's `-` operator.\n     *\n     * Requirements:\n     * - Subtraction cannot overflow.\n     */\n    function sub(uint256 a, uint256 b) internal pure returns (uint256) {\n        return sub(a, b, \"SafeMath: subtraction overflow\");\n    }\n\n    /**\n     * @dev Returns the subtraction of two unsigned integers, reverting with custom message on\n     * overflow (when the result is negative).\n     *\n     * Counterpart to Solidity's `-` operator.\n     *\n     * Requirements:\n     * - Subtraction cannot overflow.\n     *\n     * _Available since v2.4.0._\n     */\n    function sub(uint256 a, uint256 b, string memory errorMessage) internal pure returns (uint256) {\n        require(b <= a, errorMessage);\n        uint256 c = a - b;\n\n        return c;\n    }\n\n    /**\n     * @dev Returns the multiplication of two unsigned integers, reverting on\n     * overflow.\n     *\n     * Counterpart to Solidity's `*` operator.\n     *\n     * Requirements:\n     * - Multiplication cannot overflow.\n     */\n    function mul(uint256 a, uint256 b) internal pure returns (uint256) {\n        // Gas optimization: this is cheaper than requiring 'a' not being zero, but the\n        // benefit is lost if 'b' is also tested.\n        // See: https://github.com/OpenZeppelin/openzeppelin-contracts/pull/522\n        if (a == 0) {\n            return 0;\n        }\n\n        uint256 c = a * b;\n        require(c / a == b, \"SafeMath: multiplication overflow\");\n\n        return c;\n    }\n\n    /**\n     * @dev Returns the integer division of two unsigned integers. Reverts on\n     * division by zero. The result is rounded towards zero.\n     *\n     * Counterpart to Solidity's `/` operator. Note: this function uses a\n     * `revert` opcode (which leaves remaining gas untouched) while Solidity\n     * uses an invalid opcode to revert (consuming all remaining gas).\n     *\n     * Requirements:\n     * - The divisor cannot be zero.\n     */\n    function div(uint256 a, uint256 b) internal pure returns (uint256) {\n        return div(a, b, \"SafeMath: division by zero\");\n    }\n\n    /**\n     * @dev Returns the integer division of two unsigned integers. Reverts with custom message on\n     * division by zero. The result is rounded towards zero.\n     *\n     * Counterpart to Solidity's `/` operator. Note: this function uses a\n     * `revert` opcode (which leaves remaining gas untouched) while Solidity\n     * uses an invalid opcode to revert (consuming all remaining gas).\n     *\n     * Requirements:\n     * - The divisor cannot be zero.\n     *\n     * _Available since v2.4.0._\n     */\n    function div(uint256 a, uint256 b, string memory errorMessage) internal pure returns (uint256) {\n        // Solidity only automatically asserts when dividing by 0\n        require(b > 0, errorMessage);\n        uint256 c = a / b;\n        // assert(a == b * c + a % b); // There is no case in which this doesn't hold\n\n        return c;\n    }\n\n    /**\n     * @dev Returns the remainder of dividing two unsigned integers. (unsigned integer modulo),\n     * Reverts when dividing by zero.\n     *\n     * Counterpart to Solidity's `%` operator. This function uses a `revert`\n     * opcode (which leaves remaining gas untouched) while Solidity uses an\n     * invalid opcode to revert (consuming all remaining gas).\n     *\n     * Requirements:\n     * - The divisor cannot be zero.\n     */\n    function mod(uint256 a, uint256 b) internal pure returns (uint256) {\n        return mod(a, b, \"SafeMath: modulo by zero\");\n    }\n\n    /**\n     * @dev Returns the remainder of dividing two unsigned integers. (unsigned integer modulo),\n     * Reverts with custom message when dividing by zero.\n     *\n     * Counterpart to Solidity's `%` operator. This function uses a `revert`\n     * opcode (which leaves remaining gas untouched) while Solidity uses an\n     * invalid opcode to revert (consuming all remaining gas).\n     *\n     * Requirements:\n     * - The divisor cannot be zero.\n     *\n     * _Available since v2.4.0._\n     */\n    function mod(uint256 a, uint256 b, string memory errorMessage) internal pure returns (uint256) {\n        require(b != 0, errorMessage);\n        return a % b;\n    }\n}\n\n// File: openzeppelin-solidity/contracts/token/ERC20/ERC20.sol\n\n/**\n * @title ERC20 interface\n * @dev see https://github.com/ethereum/EIPs/issues/20\n */\ncontract ERC20 is ERC20Basic {\n  function allowance(address owner, address spender) public view returns (uint256);\n  function transferFrom(address from, address to, uint256 value) public returns (bool);\n  function approve(address spender, uint256 value) public returns (bool);\n  event Approval(address indexed owner, address indexed spender, uint256 value);\n}\n\n// File: openzeppelin-solidity/contracts/ownership/Ownable.sol\n\n/**\n * @title Ownable\n * @dev The Ownable contract has an owner address, and provides basic authorization control\n * functions, this simplifies the implementation of \"user permissions\".\n */\ncontract Ownable {\n    address public owner;\n    address public proposedOwner;\n    event OwnershipTransferred(address indexed previousOwner, address indexed newOwner);\n\n\n    /**\n    * @dev The Ownable constructor sets the original `owner` of the contract to the sender\n    * account.\n    */\n    constructor() public {\n        owner = msg.sender;\n    }\n\n    /**\n    * @dev Throws if called by any account other than the owner.\n    */\n    modifier onlyOwner() {\n        require(msg.sender == owner, \"Has to be owner\");\n        _;\n    }\n\n    function transferOwnership(address _proposedOwner) public onlyOwner {\n        require(msg.sender != _proposedOwner, \"Has to be diff than current owner\");\n        proposedOwner = _proposedOwner;\n    }\n\n    function claimOwnership() public {\n        require(msg.sender == proposedOwner, \"Has to be the proposed owner\");\n        emit OwnershipTransferred(owner, proposedOwner);\n        owner = proposedOwner;\n        proposedOwner = address(0);\n    }\n}\n\n// File: openzeppelin-solidity/contracts/lifecycle/Pausable.sol\n\n/**\n * @title Pausable\n * @dev Base contract which allows children to implement an emergency stop mechanism.\n */\ncontract Pausable is Ownable {\n    event Pause();\n    event Unpause();\n\n    bool public paused = false;\n\n\n    /**\n    * @dev Modifier to make a function callable only when the contract is not paused.\n    */\n    modifier whenNotPaused() {\n        require(!paused, \"Has to be unpaused\");\n        _;\n    }\n\n    /**\n    * @dev Modifier to make a function callable only when the contract is paused.\n    */\n    modifier whenPaused() {\n        require(paused, \"Has to be paused\");\n        _;\n    }\n\n    /**\n    * @dev called by the owner to pause, triggers stopped state\n    */\n    function pause() onlyOwner whenNotPaused public {\n        paused = true;\n        emit Pause();\n    }\n\n    /**\n    * @dev called by the owner to unpause, returns to normal state\n    */\n    function unpause() onlyOwner whenPaused public {\n        paused = false;\n        emit Unpause();\n    }\n}\n\n\ncontract Whitelist is Ownable {\n\n    mapping(address => bool) public whitelist;\n    address[] public whitelistedAddresses;\n    bool public hasWhitelisting = false;\n\n    event AddedToWhitelist(address[] indexed accounts);\n    event RemovedFromWhitelist(address[] indexed accounts);\n\n    modifier onlyWhitelisted() {\n        if(hasWhitelisting){\n            require(isWhitelisted(msg.sender));\n        }\n        _;\n    }\n    \n    constructor (bool _hasWhitelisting) public{\n        hasWhitelisting = _hasWhitelisting;\n    }\n\n    function editHasWhitelisting(bool _hasWhitelisting) external onlyOwner {\n        hasWhitelisting = _hasWhitelisting;\n    }\n  \n    function add(address[] memory _addresses) public onlyOwner {\n        for (uint i = 0; i < _addresses.length; i++) {\n            require(whitelist[_addresses[i]] != true);\n            whitelist[_addresses[i]] = true;\n            whitelistedAddresses.push(_addresses[i]);\n        }\n        emit AddedToWhitelist(_addresses);\n    }\n\n    function remove(address[] memory _addresses, uint256[] memory _indexes) public onlyOwner {\n        for (uint i = 0; i < _addresses.length; i++) {\n            require(_addresses[i] == whitelistedAddresses[_indexes[i]]);\n            whitelist[_addresses[i]] = false;\n            delete whitelistedAddresses[_indexes[i]];\n        }\n        emit RemovedFromWhitelist(_addresses);\n    }\n\n    function getWhitelistedAddresses() public view returns(address[] memory) {\n        return whitelistedAddresses;\n    } \n\n    function isWhitelisted(address _address) public view returns(bool) {\n        return whitelist[_address];\n    }\n}\n\ncontract FixedSwapTest is Pausable, Whitelist {\n    using SafeMath for uint256;\n    uint256 increment = 0;\n\n    ERC20 public erc20POLS = ERC20(address(0x83e6f1E41cdd28eAcEB20Cb649155049Fac3D5Aa));\n    ERC20 public erc20v2POLS = ERC20(address(0xFfA98A091331Df4600F87C9164cD27e8a5CD2405));\n\n    mapping(uint256 => Purchase) public purchases; /* Purchasers mapping */\n    address[] public buyers; /* Current Buyers Addresses */\n    uint256[] public purchaseIds; /* All purchaseIds */\n    mapping(address => uint256[]) public myPurchases; /* Purchasers mapping */\n\n    ERC20 public erc20;\n    ERC20 public erc20TradeAddress; /* Trade Token Vaue */\n    bool public isSaleFunded = false;\n    uint public decimals = 0;\n    uint public tradingDecimals = 18; /* Base wei decimals */\n    bool public unsoldTokensReedemed = false;\n    uint256 public tradeValue; /* Price in Wei */\n    uint256 public startDate; /* Start Date  */\n    uint256 public endDate;  /* End Date  */\n    uint256 public individualMinimumAmount = 0;  /* Minimum Amount Per Address */\n    uint256 public individualMaximumAmount = 0;  /* Minimum Amount Per Address */\n    uint256 public minimumRaise = 0;  /* Minimum Amount of Tokens that have to be sold */\n    uint256 public tokensAllocated = 0; /* Tokens Available for Allocation - Dynamic */\n    uint256 public tokensForSale = 0; /* Tokens Available for Sale */\n    bool    public isTokenSwapAtomic; /* Make token release atomic or not */\n    address payable public FEE_ADDRESS = 0xAEb39b67F27b641Ef9F95fB74F1A46b1EE4Efc83; /* Default Address for Fee Percentage */\n    uint256 public feePercentage = 1; /* Default Fee 1% */\n    bool public isPOLSWhitelisted = false; /* Is whitelisted by pools */\n\n    uint public vestingTime = 1; /* Default, 1 vesting schedule which is the endDate */\n    mapping(uint256 => uint256) public vestingSchedule; /* Vesting Mapping [{1 month, 20.00%}, {2 month, 70.00%}] */\n\n    struct Purchase {\n        uint256 amount;\n        address purchaser;\n        uint256 costAmount;\n        uint256 timestamp;\n        uint256 amountReedemed; /* Amount Reedemed already */\n        uint256 lastTrancheSent; /* Last tranche sent */\n        bool wasFinalized /* Confirm the tokens were sent already */;\n        bool reverted /* Confirm the tokens were sent already */;\n    }\n\n    event PurchaseEvent(uint256 amount, address indexed purchaser, uint256 timestamp);\n\n    constructor(address _tokenAddress, uint256 _tradeValue, uint256 _tokensForSale, uint256 _startDate, \n        uint256 _endDate, uint256 _individualMinimumAmount, uint256 _individualMaximumAmount, bool _isTokenSwapAtomic, uint256 _minimumRaise,\n        uint256 _feeAmount, bool _hasWhitelisting, address _erc20TradeAddress, bool _isETHTrade, bool _isPOLSWhitelisted,\n        uint256 _vestingTime, uint256[] memory _vestingSchedule\n    ) public Whitelist(_hasWhitelisting) {\n        \n        /* Confirmations */\n        require(block.timestamp < _endDate, \"End Date should be further than current date\");\n        require(block.timestamp < _startDate, \"Start Date should be before than current date\");\n        require(_startDate < _endDate, \"End Date higher than Start Date\");\n        require(_tokensForSale > 0, \"Tokens for Sale should be > 0\");\n        require(_tokensForSale > _individualMinimumAmount, \"Tokens for Sale should be > Individual Minimum Amount\");\n        require(_individualMaximumAmount >= _individualMinimumAmount, \"Individual Maximim AMount should be > Individual Minimum Amount\");\n        require(_minimumRaise <= _tokensForSale, \"Minimum Raise should be < Tokens For Sale\");\n        require(_feeAmount >= feePercentage, \"Fee Percentage has to be >= 1\");\n        require(_feeAmount <= 99, \"Fee Percentage has to be < 100\");\n        require(_vestingTime > 0 && _vestingTime < 48, \"Vesting Time has to be smaller than 48 & bigger than 0\");\n        require(_vestingTime == _vestingSchedule.length, \"Vesting has to be equal to its size\");\n\n        startDate = _startDate; \n        endDate = _endDate;\n        tokensForSale = _tokensForSale;\n        tradeValue = _tradeValue;\n\n        individualMinimumAmount = _individualMinimumAmount; \n        individualMaximumAmount = _individualMaximumAmount; \n        isTokenSwapAtomic = _isTokenSwapAtomic;\n\n        if(!_isTokenSwapAtomic){ /* If raise is not atomic swap */\n            minimumRaise = _minimumRaise;\n        }\n        \n        erc20 = ERC20(_tokenAddress);\n        if(!_isETHTrade){\n            erc20TradeAddress = ERC20(_erc20TradeAddress);\n            tradingDecimals =  erc20TradeAddress.decimals();\n        }\n\n        isPOLSWhitelisted = _isPOLSWhitelisted;\n        decimals = erc20.decimals();\n        feePercentage = _feeAmount;\n        vestingTime = _vestingTime;\n\n        for (uint i = 0; i < vestingTime; i++) {\n            vestingSchedule[i+1] = _vestingSchedule[i];\n        }\n    }\n\n      \n    function editIndividualMaximumAmount(uint256 _individualMaximumAmount) external onlyOwner {\n        individualMaximumAmount = _individualMaximumAmount;\n    }\n\n    function editEndDate(uint256 _endDate) external onlyOwner {\n        require(!hasFinalized() , \"End Date has already passed\");\n        require(_endDate > block.timestamp , \"End Date has to more than now\");\n        endDate = _endDate;\n    }\n\n    /**\n    * Modifier to make a function callable only when the contract has Atomic Swaps not available.\n    */\n    modifier isNotAtomicSwap() {\n        require(!isTokenSwapAtomic, \"Has to be non Atomic swap\");\n        _;\n    }\n\n     /**\n    * Modifier to make a function callable only when the contract has Atomic Swaps not available.\n    */\n    modifier isSaleFinalized() {\n        require(hasFinalized(), \"Has to be finalized\");\n        _;\n    }\n\n     /**\n    * Modifier to make a function callable only when the swap time is open.\n    */\n    modifier isSaleOpen() {\n        require(isOpen(), \"Has to be open\");\n        _;\n    }\n\n     /**\n    * Modifier to make a function callable only when the contract has Atomic Swaps not available.\n    */\n    modifier isSalePreStarted() {\n        require(isPreStart(), \"Has to be pre-started\");\n        _;\n    }\n\n    /**\n    * Modifier to make a function callable only when the contract has Atomic Swaps not available.\n    */\n    modifier isFunded() {\n        require(isSaleFunded, \"Has to be funded\");\n        _;\n    }\n\n\n    /* Get Functions */\n    function isBuyer(uint256 purchase_id) public view returns (bool) {\n        return (msg.sender == purchases[purchase_id].purchaser);\n    }\n\n    /* Get Functions */\n    function totalRaiseCost() public view returns (uint256) {\n        return (cost(tokensForSale));\n    }\n\n    function getCurrentSchedule() public view returns (uint256){ \n        uint256 schedule = (block.timestamp.sub(startDate)).div(5 minutes);\n        return schedule.add(1);\n    }\n\n    function availableTokens() public view returns (uint256) {\n        return erc20.balanceOf(address(this));\n    }\n\n    function tokensLeft() public view returns (uint256) {\n        return tokensForSale - tokensAllocated;\n    }\n\n    function hasMinimumRaise() public view returns (bool){\n        return (minimumRaise != 0);\n    }\n\n    /* Verify if minimum raise was not achieved */\n    function minimumRaiseNotAchieved() public view returns (bool){\n        require(cost(tokensAllocated) < cost(minimumRaise), \"TotalRaise is bigger than minimum raise amount\");\n        return true;\n    }\n\n    /* Verify if minimum raise was achieved */\n    function minimumRaiseAchieved() public view returns (bool){\n        if(hasMinimumRaise()){\n            require(cost(tokensAllocated) >= cost(minimumRaise), \"TotalRaise is less than minimum raise amount\");\n        }\n        return true;\n    }\n\n    function isETHTrade() public view returns (bool){\n        return address(erc20TradeAddress) == address(0);\n    }\n\n    function hasFinalized() public view returns (bool){\n        return block.timestamp > endDate;\n    }\n\n    function hasStarted() public view returns (bool){\n        return block.timestamp >= startDate;\n    }\n    \n    function isPreStart() public view returns (bool){\n        return block.timestamp < startDate;\n    }\n\n    function isOpen() public view returns (bool){\n        return hasStarted() && !hasFinalized();\n    }\n\n    function hasMinimumAmount() public view returns (bool){\n       return (individualMinimumAmount != 0);\n    }\n\n    function cost(uint256 _amount) public view returns (uint){\n        return _amount.mul(tradeValue).div(10**decimals); \n    }\n\n    function getPurchase(uint256 _purchase_id) external view returns (uint256, address, uint256, uint256, uint256, uint256, bool, bool){\n        Purchase memory purchase = purchases[_purchase_id];\n        require(purchase.purchaser != address(0), \"Purchase does not exist\");\n        return (purchase.amount, purchase.purchaser, purchase.costAmount, purchase.timestamp, purchase.amountReedemed, purchase.lastTrancheSent, purchase.wasFinalized, purchase.reverted);\n    }\n\n    function getPurchaseIds() public view returns(uint256[] memory) {\n        return purchaseIds;\n    }\n\n    function getBuyers() public view returns(address[] memory) {\n        return buyers;\n    }\n\n    function getMyPurchases(address _address) public view returns(uint256[] memory) {\n        return myPurchases[_address];\n    }\n\n    function isAddressPOLSWhitelisted() public view returns(bool){\n        if(isPOLSWhitelisted){\n            /* Confirm balance held in POLS or V2 POLS is enough */\n            return (erc20POLS.balanceOf(msg.sender) > 3000*10**18) || (erc20v2POLS.balanceOf(msg.sender) > 20*10**18);\n        }else{\n            return true;\n        }\n    }\n\n    /* Fund - Pre Sale Start */\n    function fund(uint256 _amount) public isSalePreStarted {\n        \n        /* Confirm transfered tokens is no more than needed */\n        require(availableTokens().add(_amount) <= tokensForSale, \"Transfered tokens have to be equal or less than proposed\");\n\n        /* Transfer Funds */\n        require(erc20.transferFrom(msg.sender, address(this), _amount), \"Failed ERC20 token transfer\");\n        \n        /* If Amount is equal to needed - sale is ready */\n        if(availableTokens() == tokensForSale){\n            isSaleFunded = true;\n        }\n    }\n    \n    /* Action Functions */\n    function swap(uint256 _amount) payable external whenNotPaused isFunded isSaleOpen onlyWhitelisted {\n        uint256 value;\n        \n        if(isETHTrade()){ \n            /* Is ETH Trade */\n            value = msg.value;\n            /* Confirm the user has funds for the transfer, confirm the value is equal */\n            require(value >= cost(_amount), \"User has to cover the cost of the swap, use the cost function to determine\");\n        }else{ \n            /* is ERC20 Trade */\n            value = cost(_amount);\n            require(erc20TradeAddress.transferFrom(msg.sender, address(this), value), \"Payment of ERC20 Token Transfer was not succeeded\");\n        }\n\n        /* Confirm Amount is positive */\n        require(_amount > 0, \"Amount has to be positive\");\n\n        /* Confirm Amount is less than tokens available */\n        require(_amount <= tokensLeft(), \"Amount is less than tokens available\");\n   \n        /* Confirm Amount is bigger than minimum Amount */\n        require(_amount >= individualMinimumAmount, \"Amount is bigger than minimum amount\");\n\n        /* Confirm Amount is smaller than maximum Amount */\n        require(_amount <= individualMaximumAmount, \"Amount is smaller than maximum amount\");\n\n        /* Verify all user purchases, loop thru them */\n        uint256[] memory _purchases = getMyPurchases(msg.sender);\n        uint256 purchaserTotalAmountPurchased = 0;\n        for (uint i = 0; i < _purchases.length; i++) {\n            Purchase memory _purchase = purchases[_purchases[i]];\n            purchaserTotalAmountPurchased = purchaserTotalAmountPurchased.add(_purchase.amount);\n        }\n        require(purchaserTotalAmountPurchased.add(_amount) <= individualMaximumAmount, \"Address has already passed the max amount of swap\");\n        require(isAddressPOLSWhitelisted(), \"Address has to be whitelisted for POLS\");\n\n        if(isTokenSwapAtomic){\n            /* Confirm transfer */\n            require(erc20.transfer(msg.sender, _amount), \"ERC20 transfer didnt work\");\n        }\n\n        \n        uint256 purchase_id = increment;\n        increment = increment.add(1);\n\n        /* Create new purchase */\n        Purchase memory purchase = Purchase(_amount, msg.sender, value, block.timestamp, 0, 0, isTokenSwapAtomic /* If Atomic Swap */, false);\n        purchases[purchase_id] = purchase;\n        purchaseIds.push(purchase_id);\n        myPurchases[msg.sender].push(purchase_id);\n        buyers.push(msg.sender);\n        tokensAllocated = tokensAllocated.add(_amount);\n        emit PurchaseEvent(_amount, msg.sender, block.timestamp);\n    }\n\n    /* Redeem tokens when the sale was finalized */\n    function redeemTokens(uint256 purchase_id) external isNotAtomicSwap isSaleFinalized whenNotPaused {\n        require(minimumRaiseAchieved(), \"Minimum raise has to be reached\");\n        Purchase memory purchase = purchases[purchase_id];\n        /* Confirm it exists and was not finalized */\n        require((purchase.amount != 0) && !purchase.wasFinalized, \"Purchase is either 0 or finalized\");\n        require(isBuyer(purchase_id), \"Address is not buyer\");\n        uint256 currentSchedule = getCurrentSchedule();\n        require(purchase.lastTrancheSent < currentSchedule , \"Current Tranche was already distributed\");\n        \n        uint256 vestAmount;\n        for(uint i = purchase.lastTrancheSent + 1; i <= currentSchedule; i++){\n            vestAmount = vestAmount.add(purchase.amount.mul(vestingSchedule[i]).div(10000));\n        }\n\n        if(purchase.amountReedemed.add(vestAmount) == purchase.amount){\n            // last tranche\n            purchases[purchase_id].wasFinalized = true;\n        }\n        purchases[purchase_id].amountReedemed = purchase.amountReedemed.add(vestAmount); /* Update Tranche Amount */\n        purchases[purchase_id].lastTrancheSent = currentSchedule; /* Update Tranche Status */\n        require(erc20.transfer(msg.sender, vestAmount), \"ERC20 transfer failed\");\n    }\n\n    /* Retrieve Minumum Amount */\n    function redeemGivenMinimumGoalNotAchieved(uint256 purchase_id) external isSaleFinalized isNotAtomicSwap {\n        require(hasMinimumRaise(), \"Minimum raise has to exist\");\n        require(minimumRaiseNotAchieved(), \"Minimum raise has to be reached\");\n        Purchase storage purchase = purchases[purchase_id];\n        /* Confirm it exists and was not finalized */\n        require((purchase.amount != 0) && !purchase.wasFinalized, \"Purchase is either 0 or finalized\");\n        require(isBuyer(purchase_id), \"Address is not buyer\");\n        purchase.wasFinalized = true;\n        purchase.reverted = true;\n        \n        if(isETHTrade()){\n            msg.sender.transfer(purchases[purchase_id].costAmount);\n        }else{\n            require(erc20TradeAddress.transfer(msg.sender, purchases[purchase_id].costAmount), \"Retrieve of ERC20 Token Transfer was not succeeded\");\n        }\n    }\n\n    /* Admin Functions */\n    function withdrawFunds() external onlyOwner whenNotPaused isSaleFinalized {\n        require(minimumRaiseAchieved(), \"Minimum raise has to be reached\");\n        if(isETHTrade()){\n            FEE_ADDRESS.transfer(address(this).balance.mul(feePercentage).div(100)); /* Fee Address */\n            msg.sender.transfer(address(this).balance);\n        }else{\n            require(erc20TradeAddress.transfer(FEE_ADDRESS, erc20TradeAddress.balanceOf(address(this)).mul(feePercentage).div(100)), \"ERC20 Transfer didnt work\");  /* Fee Address */\n            require(erc20TradeAddress.transfer(msg.sender, erc20TradeAddress.balanceOf(address(this))), \"ERC20 Transfer didnt work\");\n        }\n    }  \n    \n    function withdrawUnsoldTokens() external onlyOwner isSaleFinalized {\n        require(!unsoldTokensReedemed);\n        uint256 unsoldTokens;\n        if(hasMinimumRaise() && \n            (cost(tokensAllocated) < cost(minimumRaise))){ /* Minimum Raise not reached */\n                unsoldTokens = tokensForSale;\n        }else{\n            /* If minimum Raise Achieved Redeem All Tokens minus the ones */\n            unsoldTokens = tokensForSale.sub(tokensAllocated);\n        }\n\n        if(unsoldTokens > 0){\n            unsoldTokensReedemed = true;\n            require(erc20.transfer(msg.sender, unsoldTokens), \"ERC20 transfer failed\");\n        }\n    }   \n\n    function removeOtherERC20Tokens(address _tokenAddress, address _to) external onlyOwner isSaleFinalized {\n        require(_tokenAddress != address(erc20), \"Token Address has to be diff than the erc20 subject to sale\"); // Confirm tokens addresses are different from main sale one\n        require(_tokenAddress != address(erc20TradeAddress), \"Token Address has to be diff than the erc20 against the sale\"); \n        ERC20 erc20Token = ERC20(_tokenAddress);\n        require(erc20Token.transfer(_to, erc20Token.balanceOf(address(this))), \"ERC20 Token transfer failed\");\n    } \n\n    /* Safe Pull function */\n    function safePull() payable external onlyOwner whenPaused {\n        msg.sender.transfer(address(this).balance);\n        require(erc20.transfer(msg.sender, erc20.balanceOf(address(this))), \"ERC20 Transfer didnt work\");\n        if(!isETHTrade()){\n            require(erc20TradeAddress.transfer(msg.sender, erc20TradeAddress.balanceOf(address(this))), \"ERC20 Transfer didnt work\");\n        }\n    }\n}\n",
  "sourcePath": "/Users/ruipedro/Desktop/projects/Staking/erc20/contracts/FixedSwapTest.sol",
  "compiler": {
    "name": "solc",
    "version": "0.5.8+commit.23d335f2.Emscripten.clang"
  },
  "schemaVersion": "3.0.20",
  "updatedAt": "2021-05-21T20:22:11.398Z",
  "devdoc": {
    "methods": {
      "pause()": {
        "details": "called by the owner to pause, triggers stopped state"
      },
      "unpause()": {
        "details": "called by the owner to unpause, returns to normal state"
      }
    }
  },
  "userdoc": {
    "methods": {}
  }
}