{
  "_format": "hh-sol-artifact-1",
  "contractName": "FixedSwap",
  "sourceName": "contracts/FixedSwap.sol",
  "abi": [
    {
      "inputs": [
        {
          "internalType": "address",
          "name": "_tokenAddress",
          "type": "address"
        },
        {
          "internalType": "uint256",
          "name": "_tradeValue",
          "type": "uint256"
        },
        {
          "internalType": "uint256",
          "name": "_tokensForSale",
          "type": "uint256"
        },
        {
          "internalType": "uint256",
          "name": "_startDate",
          "type": "uint256"
        },
        {
          "internalType": "uint256",
          "name": "_endDate",
          "type": "uint256"
        },
        {
          "internalType": "uint256",
          "name": "_individualMinimumAmount",
          "type": "uint256"
        },
        {
          "internalType": "uint256",
          "name": "_individualMaximumAmount",
          "type": "uint256"
        },
        {
          "internalType": "bool",
          "name": "_ignored",
          "type": "bool"
        },
        {
          "internalType": "uint256",
          "name": "_minimumRaise",
          "type": "uint256"
        },
        {
          "internalType": "uint256",
          "name": "_feePercentage",
          "type": "uint256"
        },
        {
          "internalType": "uint32",
          "name": "_flags",
          "type": "uint32"
        },
        {
          "internalType": "address",
          "name": "_erc20TradeAddress",
          "type": "address"
        },
        {
          "internalType": "uint256",
          "name": "_vestingStart",
          "type": "uint256"
        },
        {
          "internalType": "uint256",
          "name": "_vestingCliff",
          "type": "uint256"
        },
        {
          "internalType": "uint256",
          "name": "_vestingDuration",
          "type": "uint256"
        },
        {
          "internalType": "uint256[]",
          "name": "_vestingSchedule",
          "type": "uint256[]"
        }
      ],
      "stateMutability": "nonpayable",
      "type": "constructor"
    },
    {
      "anonymous": false,
      "inputs": [
        {
          "indexed": true,
          "internalType": "uint256",
          "name": "count",
          "type": "uint256"
        }
      ],
      "name": "AddedArrayToBlacklist",
      "type": "event"
    },
    {
      "anonymous": false,
      "inputs": [
        {
          "indexed": true,
          "internalType": "uint256",
          "name": "count",
          "type": "uint256"
        }
      ],
      "name": "AddedArrayToWhitelist",
      "type": "event"
    },
    {
      "anonymous": false,
      "inputs": [
        {
          "indexed": true,
          "internalType": "address",
          "name": "account",
          "type": "address"
        }
      ],
      "name": "AddedToBlacklist",
      "type": "event"
    },
    {
      "anonymous": false,
      "inputs": [
        {
          "indexed": true,
          "internalType": "address",
          "name": "account",
          "type": "address"
        }
      ],
      "name": "AddedToWhitelist",
      "type": "event"
    },
    {
      "anonymous": false,
      "inputs": [
        {
          "indexed": false,
          "internalType": "address",
          "name": "account",
          "type": "address"
        }
      ],
      "name": "Paused",
      "type": "event"
    },
    {
      "anonymous": false,
      "inputs": [
        {
          "indexed": false,
          "internalType": "uint256",
          "name": "amount",
          "type": "uint256"
        },
        {
          "indexed": true,
          "internalType": "address",
          "name": "purchaser",
          "type": "address"
        },
        {
          "indexed": false,
          "internalType": "uint256",
          "name": "timestamp",
          "type": "uint256"
        }
      ],
      "name": "PurchaseEvent",
      "type": "event"
    },
    {
      "anonymous": false,
      "inputs": [
        {
          "indexed": true,
          "internalType": "address",
          "name": "account",
          "type": "address"
        }
      ],
      "name": "RemovedFromBlacklist",
      "type": "event"
    },
    {
      "anonymous": false,
      "inputs": [
        {
          "indexed": true,
          "internalType": "address",
          "name": "account",
          "type": "address"
        }
      ],
      "name": "RemovedFromWhitelist",
      "type": "event"
    },
    {
      "anonymous": false,
      "inputs": [
        {
          "indexed": true,
          "internalType": "bytes32",
          "name": "role",
          "type": "bytes32"
        },
        {
          "indexed": true,
          "internalType": "bytes32",
          "name": "previousAdminRole",
          "type": "bytes32"
        },
        {
          "indexed": true,
          "internalType": "bytes32",
          "name": "newAdminRole",
          "type": "bytes32"
        }
      ],
      "name": "RoleAdminChanged",
      "type": "event"
    },
    {
      "anonymous": false,
      "inputs": [
        {
          "indexed": true,
          "internalType": "bytes32",
          "name": "role",
          "type": "bytes32"
        },
        {
          "indexed": true,
          "internalType": "address",
          "name": "account",
          "type": "address"
        },
        {
          "indexed": true,
          "internalType": "address",
          "name": "sender",
          "type": "address"
        }
      ],
      "name": "RoleGranted",
      "type": "event"
    },
    {
      "anonymous": false,
      "inputs": [
        {
          "indexed": true,
          "internalType": "bytes32",
          "name": "role",
          "type": "bytes32"
        },
        {
          "indexed": true,
          "internalType": "address",
          "name": "account",
          "type": "address"
        },
        {
          "indexed": true,
          "internalType": "address",
          "name": "sender",
          "type": "address"
        }
      ],
      "name": "RoleRevoked",
      "type": "event"
    },
    {
      "anonymous": false,
      "inputs": [
        {
          "indexed": false,
          "internalType": "bool",
          "name": "hasWhitelisting",
          "type": "bool"
        }
      ],
      "name": "SetHasWhitelisting",
      "type": "event"
    },
    {
      "anonymous": false,
      "inputs": [
        {
          "indexed": false,
          "internalType": "address",
          "name": "account",
          "type": "address"
        }
      ],
      "name": "Unpaused",
      "type": "event"
    },
    {
      "inputs": [],
      "name": "DECIMALS_PERCENT_MUL",
      "outputs": [
        {
          "internalType": "uint256",
          "name": "",
          "type": "uint256"
        }
      ],
      "stateMutability": "view",
      "type": "function"
    },
    {
      "inputs": [],
      "name": "DEFAULT_ADMIN_ROLE",
      "outputs": [
        {
          "internalType": "bytes32",
          "name": "",
          "type": "bytes32"
        }
      ],
      "stateMutability": "view",
      "type": "function"
    },
    {
      "inputs": [],
      "name": "FEE_ADDRESS",
      "outputs": [
        {
          "internalType": "address",
          "name": "",
          "type": "address"
        }
      ],
      "stateMutability": "view",
      "type": "function"
    },
    {
      "inputs": [],
      "name": "POLS_TOKEN_ADDRESS",
      "outputs": [
        {
          "internalType": "address",
          "name": "",
          "type": "address"
        }
      ],
      "stateMutability": "view",
      "type": "function"
    },
    {
      "inputs": [],
      "name": "POLS_UNIV2_ADDRESS",
      "outputs": [
        {
          "internalType": "address",
          "name": "",
          "type": "address"
        }
      ],
      "stateMutability": "view",
      "type": "function"
    },
    {
      "inputs": [],
      "name": "PolsStakeAddress",
      "outputs": [
        {
          "internalType": "address",
          "name": "",
          "type": "address"
        }
      ],
      "stateMutability": "view",
      "type": "function"
    },
    {
      "inputs": [],
      "name": "PolsStakeAmount",
      "outputs": [
        {
          "internalType": "uint256",
          "name": "",
          "type": "uint256"
        }
      ],
      "stateMutability": "view",
      "type": "function"
    },
    {
      "inputs": [],
      "name": "PolsStakeRewards",
      "outputs": [
        {
          "internalType": "uint256",
          "name": "",
          "type": "uint256"
        }
      ],
      "stateMutability": "view",
      "type": "function"
    },
    {
      "inputs": [],
      "name": "PolsTokenAddress",
      "outputs": [
        {
          "internalType": "address",
          "name": "",
          "type": "address"
        }
      ],
      "stateMutability": "view",
      "type": "function"
    },
    {
      "inputs": [],
      "name": "PolsTokenAmount",
      "outputs": [
        {
          "internalType": "uint256",
          "name": "",
          "type": "uint256"
        }
      ],
      "stateMutability": "view",
      "type": "function"
    },
    {
      "inputs": [],
      "name": "PolsUniV2Address",
      "outputs": [
        {
          "internalType": "address",
          "name": "",
          "type": "address"
        }
      ],
      "stateMutability": "view",
      "type": "function"
    },
    {
      "inputs": [],
      "name": "PolsUniV2Amount",
      "outputs": [
        {
          "internalType": "uint256",
          "name": "",
          "type": "uint256"
        }
      ],
      "stateMutability": "view",
      "type": "function"
    },
    {
      "inputs": [],
      "name": "WHITELIST_OWNER_ROLE",
      "outputs": [
        {
          "internalType": "bytes32",
          "name": "",
          "type": "bytes32"
        }
      ],
      "stateMutability": "view",
      "type": "function"
    },
    {
      "inputs": [
        {
          "internalType": "address[]",
          "name": "_addresses",
          "type": "address[]"
        }
      ],
      "name": "addArrayToBlacklist",
      "outputs": [],
      "stateMutability": "nonpayable",
      "type": "function"
    },
    {
      "inputs": [
        {
          "internalType": "address[]",
          "name": "_addresses",
          "type": "address[]"
        }
      ],
      "name": "addArrayToWhitelist",
      "outputs": [],
      "stateMutability": "nonpayable",
      "type": "function"
    },
    {
      "inputs": [
        {
          "internalType": "address",
          "name": "_address",
          "type": "address"
        }
      ],
      "name": "addToBlacklist",
      "outputs": [],
      "stateMutability": "nonpayable",
      "type": "function"
    },
    {
      "inputs": [
        {
          "internalType": "address",
          "name": "_address",
          "type": "address"
        }
      ],
      "name": "addToWhitelist",
      "outputs": [],
      "stateMutability": "nonpayable",
      "type": "function"
    },
    {
      "inputs": [],
      "name": "availableTokens",
      "outputs": [
        {
          "internalType": "uint256",
          "name": "",
          "type": "uint256"
        }
      ],
      "stateMutability": "view",
      "type": "function"
    },
    {
      "inputs": [
        {
          "internalType": "uint256",
          "name": "",
          "type": "uint256"
        }
      ],
      "name": "buyers",
      "outputs": [
        {
          "internalType": "address",
          "name": "",
          "type": "address"
        }
      ],
      "stateMutability": "view",
      "type": "function"
    },
    {
      "inputs": [
        {
          "internalType": "uint256",
          "name": "_amount",
          "type": "uint256"
        }
      ],
      "name": "cost",
      "outputs": [
        {
          "internalType": "uint256",
          "name": "",
          "type": "uint256"
        }
      ],
      "stateMutability": "view",
      "type": "function"
    },
    {
      "inputs": [],
      "name": "endDate",
      "outputs": [
        {
          "internalType": "uint256",
          "name": "",
          "type": "uint256"
        }
      ],
      "stateMutability": "view",
      "type": "function"
    },
    {
      "inputs": [],
      "name": "erc20",
      "outputs": [
        {
          "internalType": "contract IERC20",
          "name": "",
          "type": "address"
        }
      ],
      "stateMutability": "view",
      "type": "function"
    },
    {
      "inputs": [],
      "name": "erc20TradeIn",
      "outputs": [
        {
          "internalType": "contract IERC20",
          "name": "",
          "type": "address"
        }
      ],
      "stateMutability": "view",
      "type": "function"
    },
    {
      "inputs": [],
      "name": "feePercentage",
      "outputs": [
        {
          "internalType": "uint256",
          "name": "",
          "type": "uint256"
        }
      ],
      "stateMutability": "view",
      "type": "function"
    },
    {
      "inputs": [
        {
          "internalType": "uint256",
          "name": "_amount",
          "type": "uint256"
        }
      ],
      "name": "fund",
      "outputs": [],
      "stateMutability": "nonpayable",
      "type": "function"
    },
    {
      "inputs": [],
      "name": "getAPIVersion",
      "outputs": [
        {
          "internalType": "uint32",
          "name": "API_VERSION",
          "type": "uint32"
        }
      ],
      "stateMutability": "pure",
      "type": "function"
    },
    {
      "inputs": [],
      "name": "getBlacklistedAddresses",
      "outputs": [
        {
          "internalType": "address[]",
          "name": "",
          "type": "address[]"
        }
      ],
      "stateMutability": "view",
      "type": "function"
    },
    {
      "inputs": [],
      "name": "getBuyers",
      "outputs": [
        {
          "internalType": "address[]",
          "name": "",
          "type": "address[]"
        }
      ],
      "stateMutability": "view",
      "type": "function"
    },
    {
      "inputs": [],
      "name": "getCurrentSchedule",
      "outputs": [
        {
          "internalType": "uint256",
          "name": "schedule",
          "type": "uint256"
        }
      ],
      "stateMutability": "view",
      "type": "function"
    },
    {
      "inputs": [
        {
          "internalType": "address",
          "name": "_address",
          "type": "address"
        }
      ],
      "name": "getMyPurchases",
      "outputs": [
        {
          "internalType": "uint256[]",
          "name": "",
          "type": "uint256[]"
        }
      ],
      "stateMutability": "view",
      "type": "function"
    },
    {
      "inputs": [],
      "name": "getMyPurchases_msgSender",
      "outputs": [
        {
          "internalType": "uint256[]",
          "name": "",
          "type": "uint256[]"
        }
      ],
      "stateMutability": "view",
      "type": "function"
    },
    {
      "inputs": [
        {
          "internalType": "uint256",
          "name": "purchase_id",
          "type": "uint256"
        }
      ],
      "name": "getPurchase",
      "outputs": [
        {
          "internalType": "uint256",
          "name": "amount",
          "type": "uint256"
        },
        {
          "internalType": "address",
          "name": "purchaser",
          "type": "address"
        },
        {
          "internalType": "uint256",
          "name": "costAmount",
          "type": "uint256"
        },
        {
          "internalType": "uint48",
          "name": "timestamp",
          "type": "uint48"
        },
        {
          "internalType": "bool",
          "name": "wasFinalized",
          "type": "bool"
        },
        {
          "internalType": "bool",
          "name": "reverted",
          "type": "bool"
        },
        {
          "internalType": "uint256",
          "name": "amountRedeemed",
          "type": "uint256"
        }
      ],
      "stateMutability": "view",
      "type": "function"
    },
    {
      "inputs": [],
      "name": "getPurchasesCount",
      "outputs": [
        {
          "internalType": "uint256",
          "name": "count",
          "type": "uint256"
        }
      ],
      "stateMutability": "view",
      "type": "function"
    },
    {
      "inputs": [
        {
          "internalType": "uint256",
          "name": "purchase_id",
          "type": "uint256"
        }
      ],
      "name": "getRedeemStatus",
      "outputs": [
        {
          "internalType": "uint256",
          "name": "amount",
          "type": "uint256"
        },
        {
          "internalType": "uint256",
          "name": "amountRedeemed",
          "type": "uint256"
        },
        {
          "internalType": "uint256",
          "name": "vestAmount",
          "type": "uint256"
        },
        {
          "internalType": "string",
          "name": "message",
          "type": "string"
        }
      ],
      "stateMutability": "view",
      "type": "function"
    },
    {
      "inputs": [
        {
          "internalType": "uint256",
          "name": "purchase_id",
          "type": "uint256"
        }
      ],
      "name": "getRedeemableTokensAmount",
      "outputs": [
        {
          "internalType": "uint256",
          "name": "amount",
          "type": "uint256"
        },
        {
          "internalType": "string",
          "name": "message",
          "type": "string"
        }
      ],
      "stateMutability": "view",
      "type": "function"
    },
    {
      "inputs": [
        {
          "internalType": "bytes32",
          "name": "role",
          "type": "bytes32"
        }
      ],
      "name": "getRoleAdmin",
      "outputs": [
        {
          "internalType": "bytes32",
          "name": "",
          "type": "bytes32"
        }
      ],
      "stateMutability": "view",
      "type": "function"
    },
    {
      "inputs": [
        {
          "internalType": "bytes32",
          "name": "role",
          "type": "bytes32"
        },
        {
          "internalType": "uint256",
          "name": "index",
          "type": "uint256"
        }
      ],
      "name": "getRoleMember",
      "outputs": [
        {
          "internalType": "address",
          "name": "",
          "type": "address"
        }
      ],
      "stateMutability": "view",
      "type": "function"
    },
    {
      "inputs": [
        {
          "internalType": "bytes32",
          "name": "role",
          "type": "bytes32"
        }
      ],
      "name": "getRoleMemberCount",
      "outputs": [
        {
          "internalType": "uint256",
          "name": "",
          "type": "uint256"
        }
      ],
      "stateMutability": "view",
      "type": "function"
    },
    {
      "inputs": [],
      "name": "getWhitelistedAddresses",
      "outputs": [
        {
          "internalType": "address[]",
          "name": "",
          "type": "address[]"
        }
      ],
      "stateMutability": "view",
      "type": "function"
    },
    {
      "inputs": [
        {
          "internalType": "bytes32",
          "name": "role",
          "type": "bytes32"
        },
        {
          "internalType": "address",
          "name": "account",
          "type": "address"
        }
      ],
      "name": "grantRole",
      "outputs": [],
      "stateMutability": "nonpayable",
      "type": "function"
    },
    {
      "inputs": [],
      "name": "hasFinalized",
      "outputs": [
        {
          "internalType": "bool",
          "name": "",
          "type": "bool"
        }
      ],
      "stateMutability": "view",
      "type": "function"
    },
    {
      "inputs": [],
      "name": "hasMinimumAmount",
      "outputs": [
        {
          "internalType": "bool",
          "name": "",
          "type": "bool"
        }
      ],
      "stateMutability": "view",
      "type": "function"
    },
    {
      "inputs": [],
      "name": "hasMinimumRaise",
      "outputs": [
        {
          "internalType": "bool",
          "name": "",
          "type": "bool"
        }
      ],
      "stateMutability": "view",
      "type": "function"
    },
    {
      "inputs": [
        {
          "internalType": "bytes32",
          "name": "role",
          "type": "bytes32"
        },
        {
          "internalType": "address",
          "name": "account",
          "type": "address"
        }
      ],
      "name": "hasRole",
      "outputs": [
        {
          "internalType": "bool",
          "name": "",
          "type": "bool"
        }
      ],
      "stateMutability": "view",
      "type": "function"
    },
    {
      "inputs": [],
      "name": "hasStarted",
      "outputs": [
        {
          "internalType": "bool",
          "name": "",
          "type": "bool"
        }
      ],
      "stateMutability": "view",
      "type": "function"
    },
    {
      "inputs": [],
      "name": "hasWhitelisting",
      "outputs": [
        {
          "internalType": "bool",
          "name": "",
          "type": "bool"
        }
      ],
      "stateMutability": "view",
      "type": "function"
    },
    {
      "inputs": [],
      "name": "individualMaximumAmount",
      "outputs": [
        {
          "internalType": "uint256",
          "name": "",
          "type": "uint256"
        }
      ],
      "stateMutability": "view",
      "type": "function"
    },
    {
      "inputs": [],
      "name": "individualMinimumAmount",
      "outputs": [
        {
          "internalType": "uint256",
          "name": "",
          "type": "uint256"
        }
      ],
      "stateMutability": "view",
      "type": "function"
    },
    {
      "inputs": [
        {
          "internalType": "address",
          "name": "_account",
          "type": "address"
        }
      ],
      "name": "isAddressPOLSWhitelisted",
      "outputs": [
        {
          "internalType": "bool",
          "name": "",
          "type": "bool"
        }
      ],
      "stateMutability": "view",
      "type": "function"
    },
    {
      "inputs": [
        {
          "internalType": "address",
          "name": "_address",
          "type": "address"
        }
      ],
      "name": "isBlacklisted",
      "outputs": [
        {
          "internalType": "bool",
          "name": "",
          "type": "bool"
        }
      ],
      "stateMutability": "view",
      "type": "function"
    },
    {
      "inputs": [
        {
          "internalType": "uint256",
          "name": "purchase_id",
          "type": "uint256"
        }
      ],
      "name": "isBuyer",
      "outputs": [
        {
          "internalType": "bool",
          "name": "",
          "type": "bool"
        }
      ],
      "stateMutability": "view",
      "type": "function"
    },
    {
      "inputs": [],
      "name": "isETHTrade",
      "outputs": [
        {
          "internalType": "bool",
          "name": "",
          "type": "bool"
        }
      ],
      "stateMutability": "view",
      "type": "function"
    },
    {
      "inputs": [],
      "name": "isOpen",
      "outputs": [
        {
          "internalType": "bool",
          "name": "",
          "type": "bool"
        }
      ],
      "stateMutability": "view",
      "type": "function"
    },
    {
      "inputs": [],
      "name": "isPOLSWhitelisted",
      "outputs": [
        {
          "internalType": "bool",
          "name": "",
          "type": "bool"
        }
      ],
      "stateMutability": "view",
      "type": "function"
    },
    {
      "inputs": [],
      "name": "isPreStart",
      "outputs": [
        {
          "internalType": "bool",
          "name": "",
          "type": "bool"
        }
      ],
      "stateMutability": "view",
      "type": "function"
    },
    {
      "inputs": [],
      "name": "isSaleFunded",
      "outputs": [
        {
          "internalType": "bool",
          "name": "",
          "type": "bool"
        }
      ],
      "stateMutability": "view",
      "type": "function"
    },
    {
      "inputs": [
        {
          "internalType": "address",
          "name": "_address",
          "type": "address"
        },
        {
          "internalType": "bytes",
          "name": "signature",
          "type": "bytes"
        }
      ],
      "name": "isSignerForAddress",
      "outputs": [
        {
          "internalType": "bool",
          "name": "",
          "type": "bool"
        }
      ],
      "stateMutability": "view",
      "type": "function"
    },
    {
      "inputs": [
        {
          "internalType": "bytes32",
          "name": "hash",
          "type": "bytes32"
        },
        {
          "internalType": "bytes",
          "name": "signature",
          "type": "bytes"
        }
      ],
      "name": "isSignerFromBytes32",
      "outputs": [
        {
          "internalType": "bool",
          "name": "",
          "type": "bool"
        }
      ],
      "stateMutability": "view",
      "type": "function"
    },
    {
      "inputs": [],
      "name": "isTokenSwapAtomic",
      "outputs": [
        {
          "internalType": "bool",
          "name": "",
          "type": "bool"
        }
      ],
      "stateMutability": "view",
      "type": "function"
    },
    {
      "inputs": [
        {
          "internalType": "address",
          "name": "_address",
          "type": "address"
        }
      ],
      "name": "isWhitelisted",
      "outputs": [
        {
          "internalType": "bool",
          "name": "",
          "type": "bool"
        }
      ],
      "stateMutability": "view",
      "type": "function"
    },
    {
      "inputs": [
        {
          "internalType": "address",
          "name": "_address",
          "type": "address"
        },
        {
          "internalType": "bytes",
          "name": "signature",
          "type": "bytes"
        }
      ],
      "name": "isWhitelistedWithSignature",
      "outputs": [
        {
          "internalType": "bool",
          "name": "",
          "type": "bool"
        }
      ],
      "stateMutability": "view",
      "type": "function"
    },
    {
      "inputs": [],
      "name": "minimumRaise",
      "outputs": [
        {
          "internalType": "uint256",
          "name": "",
          "type": "uint256"
        }
      ],
      "stateMutability": "view",
      "type": "function"
    },
    {
      "inputs": [],
      "name": "minimumRaiseAchieved",
      "outputs": [
        {
          "internalType": "bool",
          "name": "",
          "type": "bool"
        }
      ],
      "stateMutability": "view",
      "type": "function"
    },
    {
      "inputs": [],
      "name": "minimumRaiseNotAchieved",
      "outputs": [
        {
          "internalType": "bool",
          "name": "",
          "type": "bool"
        }
      ],
      "stateMutability": "view",
      "type": "function"
    },
    {
      "inputs": [
        {
          "internalType": "address",
          "name": "",
          "type": "address"
        },
        {
          "internalType": "uint256",
          "name": "",
          "type": "uint256"
        }
      ],
      "name": "myPurchases",
      "outputs": [
        {
          "internalType": "uint256",
          "name": "",
          "type": "uint256"
        }
      ],
      "stateMutability": "view",
      "type": "function"
    },
    {
      "inputs": [],
      "name": "pause",
      "outputs": [],
      "stateMutability": "nonpayable",
      "type": "function"
    },
    {
      "inputs": [],
      "name": "paused",
      "outputs": [
        {
          "internalType": "bool",
          "name": "",
          "type": "bool"
        }
      ],
      "stateMutability": "view",
      "type": "function"
    },
    {
      "inputs": [
        {
          "internalType": "uint256",
          "name": "purchase_id",
          "type": "uint256"
        }
      ],
      "name": "purchaseExists",
      "outputs": [
        {
          "internalType": "bool",
          "name": "",
          "type": "bool"
        }
      ],
      "stateMutability": "view",
      "type": "function"
    },
    {
      "inputs": [
        {
          "internalType": "uint256",
          "name": "",
          "type": "uint256"
        }
      ],
      "name": "purchases",
      "outputs": [
        {
          "internalType": "address",
          "name": "purchaser",
          "type": "address"
        },
        {
          "internalType": "uint48",
          "name": "timestamp",
          "type": "uint48"
        },
        {
          "internalType": "bool",
          "name": "wasFinalized",
          "type": "bool"
        },
        {
          "internalType": "bool",
          "name": "reverted",
          "type": "bool"
        },
        {
          "internalType": "uint256",
          "name": "amount",
          "type": "uint256"
        },
        {
          "internalType": "uint256",
          "name": "costAmount",
          "type": "uint256"
        },
        {
          "internalType": "uint256",
          "name": "amountRedeemed",
          "type": "uint256"
        }
      ],
      "stateMutability": "view",
      "type": "function"
    },
    {
      "inputs": [
        {
          "internalType": "bytes32",
          "name": "hash",
          "type": "bytes32"
        },
        {
          "internalType": "bytes",
          "name": "signature",
          "type": "bytes"
        }
      ],
      "name": "recoverSignerAddressFromBytes32",
      "outputs": [
        {
          "internalType": "address",
          "name": "",
          "type": "address"
        }
      ],
      "stateMutability": "pure",
      "type": "function"
    },
    {
      "inputs": [
        {
          "internalType": "uint256",
          "name": "purchase_id",
          "type": "uint256"
        }
      ],
      "name": "redeemGivenMinimumGoalNotAchieved",
      "outputs": [],
      "stateMutability": "nonpayable",
      "type": "function"
    },
    {
      "inputs": [
        {
          "internalType": "uint256",
          "name": "purchase_id",
          "type": "uint256"
        }
      ],
      "name": "redeemTokens",
      "outputs": [],
      "stateMutability": "nonpayable",
      "type": "function"
    },
    {
      "inputs": [
        {
          "internalType": "address",
          "name": "_address",
          "type": "address"
        }
      ],
      "name": "removeFromBlacklist",
      "outputs": [],
      "stateMutability": "nonpayable",
      "type": "function"
    },
    {
      "inputs": [
        {
          "internalType": "address",
          "name": "_address",
          "type": "address"
        }
      ],
      "name": "removeFromWhitelist",
      "outputs": [],
      "stateMutability": "nonpayable",
      "type": "function"
    },
    {
      "inputs": [
        {
          "internalType": "address",
          "name": "_tokenAddress",
          "type": "address"
        },
        {
          "internalType": "address",
          "name": "_to",
          "type": "address"
        }
      ],
      "name": "removeOtherERC20Tokens",
      "outputs": [],
      "stateMutability": "nonpayable",
      "type": "function"
    },
    {
      "inputs": [
        {
          "internalType": "bytes32",
          "name": "role",
          "type": "bytes32"
        },
        {
          "internalType": "address",
          "name": "account",
          "type": "address"
        }
      ],
      "name": "renounceRole",
      "outputs": [],
      "stateMutability": "nonpayable",
      "type": "function"
    },
    {
      "inputs": [
        {
          "internalType": "bytes32",
          "name": "role",
          "type": "bytes32"
        },
        {
          "internalType": "address",
          "name": "account",
          "type": "address"
        }
      ],
      "name": "revokeRole",
      "outputs": [],
      "stateMutability": "nonpayable",
      "type": "function"
    },
    {
      "inputs": [],
      "name": "safePull",
      "outputs": [],
      "stateMutability": "nonpayable",
      "type": "function"
    },
    {
      "inputs": [],
      "name": "safePullETH",
      "outputs": [],
      "stateMutability": "nonpayable",
      "type": "function"
    },
    {
      "inputs": [],
      "name": "safePullSaleToken",
      "outputs": [],
      "stateMutability": "nonpayable",
      "type": "function"
    },
    {
      "inputs": [],
      "name": "safePullTradeToken",
      "outputs": [],
      "stateMutability": "nonpayable",
      "type": "function"
    },
    {
      "inputs": [
        {
          "internalType": "uint256",
          "name": "_endDate",
          "type": "uint256"
        }
      ],
      "name": "setEndDate",
      "outputs": [],
      "stateMutability": "nonpayable",
      "type": "function"
    },
    {
      "inputs": [
        {
          "internalType": "bool",
          "name": "_hasWhitelisting",
          "type": "bool"
        }
      ],
      "name": "setHasWhitelisting",
      "outputs": [],
      "stateMutability": "nonpayable",
      "type": "function"
    },
    {
      "inputs": [
        {
          "internalType": "uint256",
          "name": "_individualMaximumAmount",
          "type": "uint256"
        }
      ],
      "name": "setIndividualMaximumAmount",
      "outputs": [],
      "stateMutability": "nonpayable",
      "type": "function"
    },
    {
      "inputs": [
        {
          "internalType": "address",
          "name": "_PolsStakeAddress",
          "type": "address"
        },
        {
          "internalType": "uint256",
          "name": "_PolsStakeAmount",
          "type": "uint256"
        },
        {
          "internalType": "uint256",
          "name": "_PolsStakeRewards",
          "type": "uint256"
        }
      ],
      "name": "setPolsStakingRequirement",
      "outputs": [],
      "stateMutability": "nonpayable",
      "type": "function"
    },
    {
      "inputs": [
        {
          "internalType": "address",
          "name": "_PolsTokenAddress",
          "type": "address"
        },
        {
          "internalType": "uint256",
          "name": "_PolsTokenAmount",
          "type": "uint256"
        }
      ],
      "name": "setPolsTokenRequirement",
      "outputs": [],
      "stateMutability": "nonpayable",
      "type": "function"
    },
    {
      "inputs": [
        {
          "internalType": "address",
          "name": "_PolsUniV2Address",
          "type": "address"
        },
        {
          "internalType": "uint256",
          "name": "_PolsUniV2Amount",
          "type": "uint256"
        }
      ],
      "name": "setPolsUniV2Requirement",
      "outputs": [],
      "stateMutability": "nonpayable",
      "type": "function"
    },
    {
      "inputs": [
        {
          "internalType": "address",
          "name": "_signerPublicAddress",
          "type": "address"
        }
      ],
      "name": "setSignerPublicAddress",
      "outputs": [],
      "stateMutability": "nonpayable",
      "type": "function"
    },
    {
      "inputs": [
        {
          "internalType": "uint256",
          "name": "_startDate",
          "type": "uint256"
        }
      ],
      "name": "setStartDate",
      "outputs": [],
      "stateMutability": "nonpayable",
      "type": "function"
    },
    {
      "inputs": [
        {
          "internalType": "uint256",
          "name": "_vestingStart",
          "type": "uint256"
        },
        {
          "internalType": "uint256",
          "name": "_vestingCliff",
          "type": "uint256"
        },
        {
          "internalType": "uint256",
          "name": "_vestingDuration",
          "type": "uint256"
        },
        {
          "internalType": "uint256[]",
          "name": "_vestingSchedule",
          "type": "uint256[]"
        }
      ],
      "name": "setVesting",
      "outputs": [],
      "stateMutability": "nonpayable",
      "type": "function"
    },
    {
      "inputs": [],
      "name": "signerPublicAddress",
      "outputs": [
        {
          "internalType": "address",
          "name": "",
          "type": "address"
        }
      ],
      "stateMutability": "view",
      "type": "function"
    },
    {
      "inputs": [],
      "name": "startDate",
      "outputs": [
        {
          "internalType": "uint256",
          "name": "",
          "type": "uint256"
        }
      ],
      "stateMutability": "view",
      "type": "function"
    },
    {
      "inputs": [
        {
          "internalType": "uint256",
          "name": "_amount",
          "type": "uint256"
        },
        {
          "internalType": "bytes",
          "name": "signature",
          "type": "bytes"
        }
      ],
      "name": "swap",
      "outputs": [],
      "stateMutability": "payable",
      "type": "function"
    },
    {
      "inputs": [],
      "name": "tokensAllocated",
      "outputs": [
        {
          "internalType": "uint256",
          "name": "",
          "type": "uint256"
        }
      ],
      "stateMutability": "view",
      "type": "function"
    },
    {
      "inputs": [],
      "name": "tokensForSale",
      "outputs": [
        {
          "internalType": "uint256",
          "name": "",
          "type": "uint256"
        }
      ],
      "stateMutability": "view",
      "type": "function"
    },
    {
      "inputs": [],
      "name": "tokensLeft",
      "outputs": [
        {
          "internalType": "uint256",
          "name": "",
          "type": "uint256"
        }
      ],
      "stateMutability": "view",
      "type": "function"
    },
    {
      "inputs": [],
      "name": "totalRaiseCost",
      "outputs": [
        {
          "internalType": "uint256",
          "name": "",
          "type": "uint256"
        }
      ],
      "stateMutability": "view",
      "type": "function"
    },
    {
      "inputs": [],
      "name": "tradeValue",
      "outputs": [
        {
          "internalType": "uint256",
          "name": "",
          "type": "uint256"
        }
      ],
      "stateMutability": "view",
      "type": "function"
    },
    {
      "inputs": [],
      "name": "unpause",
      "outputs": [],
      "stateMutability": "nonpayable",
      "type": "function"
    },
    {
      "inputs": [],
      "name": "unsoldTokensRedeemed",
      "outputs": [
        {
          "internalType": "bool",
          "name": "",
          "type": "bool"
        }
      ],
      "stateMutability": "view",
      "type": "function"
    },
    {
      "inputs": [],
      "name": "updateFundStatus",
      "outputs": [],
      "stateMutability": "nonpayable",
      "type": "function"
    },
    {
      "inputs": [],
      "name": "vestingCliff",
      "outputs": [
        {
          "internalType": "uint256",
          "name": "",
          "type": "uint256"
        }
      ],
      "stateMutability": "view",
      "type": "function"
    },
    {
      "inputs": [],
      "name": "vestingDuration",
      "outputs": [
        {
          "internalType": "uint256",
          "name": "",
          "type": "uint256"
        }
      ],
      "stateMutability": "view",
      "type": "function"
    },
    {
      "inputs": [
        {
          "internalType": "uint256",
          "name": "",
          "type": "uint256"
        }
      ],
      "name": "vestingSchedule",
      "outputs": [
        {
          "internalType": "uint256",
          "name": "",
          "type": "uint256"
        }
      ],
      "stateMutability": "view",
      "type": "function"
    },
    {
      "inputs": [],
      "name": "vestingStart",
      "outputs": [
        {
          "internalType": "uint256",
          "name": "",
          "type": "uint256"
        }
      ],
      "stateMutability": "view",
      "type": "function"
    },
    {
      "inputs": [],
      "name": "vestingTime",
      "outputs": [
        {
          "internalType": "uint256",
          "name": "",
          "type": "uint256"
        }
      ],
      "stateMutability": "view",
      "type": "function"
    },
    {
      "inputs": [],
      "name": "withdrawFunds",
      "outputs": [],
      "stateMutability": "nonpayable",
      "type": "function"
    },
    {
      "inputs": [],
      "name": "withdrawUnsoldTokens",
      "outputs": [],
      "stateMutability": "nonpayable",
      "type": "function"
    }
  ],
  "bytecode": "0x60806040526002805460ff60a01b1916905560006016553480156200002357600080fd5b5060405162006d8f38038062006d8f83398181016040526102008110156200004a57600080fd5b81019080805190602001909291908051906020019092919080519060200190929190805190602001909291908051906020019092919080519060200190929190805190602001909291908051906020019092919080519060200190929190805190602001909291908051906020019092919080519060200190929190805190602001909291908051906020019092919080519060200190929190805160405193929190846401000000008211156200010157600080fd5b9083019060208201858111156200011757600080fd5b82518660208202830111640100000000821117156200013557600080fd5b82525081516020918201928201910280838360005b83811015620001645781810151838201526020016200014a565b505050509190910160405250506000805460ff1916905550506002805460ff60a01b19168782161515600160a01b810291909117909155620001c77fb813b807c25079ba97f1770664c6a9e57c59afe74a6295f1ed01c10e3bb6baae3362000512565b50620001d560003362000512565b8c42106200022a576040805162461bcd60e51b815260206004820152601960248201527f7374617274206461746520697320696e20746865207061737400000000000000604482015290519081900360640190fd5b60008e1162000274576040805162461bcd60e51b81526020600482015260116024820152706e6f20746f6b656e20666f722073616c6560781b604482015290519081900360640190fd5b8a8e1015620002ca576040805162461bcd60e51b815260206004820152601e60248201527f746f6b656e73466f7253616c65203c20696e646976696475616c206d696e0000604482015290519081900360640190fd5b8d88111562000320576040805162461bcd60e51b815260206004820152601c60248201527f6d696e696d756d5261697365203e20746f6b656e73466f7253616c6500000000604482015290519081900360640190fd5b606387111562000377576040805162461bcd60e51b815260206004820152601e60248201527f4665652050657263656e746167652068617320746f206265203c203130300000604482015290519081900360640190fd5b60088663ffffffff1610620003d3576040805162461bcd60e51b815260206004820152601560248201527f756e737570706f7274656420666c616773207365740000000000000000000000604482015290519081900360640190fd5b60158b9055620003e38a62000522565b60138d9055620003f38c620005cd565b60198e905560128f905560018616156200041a576011805460ff191660011790556200042d565b60178890556200042d84848484620006cc565b8f600e60006101000a8154816001600160a01b0302191690836001600160a01b0316021790555060006001600160a01b0316856001600160a01b0316146200048b57600f80546001600160a01b0319166001600160a01b0387161790555b6004861615620004f6576011805461ff001916610100179055620004cd7383e6f1e41cdd28eaceb20cb649155049fac3d5aa68a2a15d09519be0000062000a64565b620004f673ffa98a091331df4600f87c9164cd27e8a5cd24056801158e460913d0000062000ad8565b5050506010939093555062000d869a5050505050505050505050565b6200051e828262000b4c565b5050565b6200052f60003362000bc7565b62000570576040805162461bcd60e51b8152602060048201526019602482015260008051602062006d6f833981519152604482015290519081900360640190fd5b601554811015620005c8576040805162461bcd60e51b815260206004820152601b60248201527f696e646976696475616c206d6178203c206d696e20616d6f756e740000000000604482015290519081900360640190fd5b601655565b620005da60003362000bc7565b6200061b576040805162461bcd60e51b8152602060048201526019602482015260008051602062006d6f833981519152604482015290519081900360640190fd5b80421062000670576040805162461bcd60e51b815260206004820181905260248201527f656e6420646174652068617320746f20626520696e2074686520667574757265604482015290519081900360640190fd5b8060135410620006c7576040805162461bcd60e51b815260206004820152601a60248201527f656e642064617465206265666f72652073746172742064617465000000000000604482015290519081900360640190fd5b601455565b620006d960003362000bc7565b6200071a576040805162461bcd60e51b8152602060048201526019602482015260008051602062006d6f833981519152604482015290519081900360640190fd5b601354421062000771576040805162461bcd60e51b815260206004820152601a60248201527f746f6b656e2073616c6520616c72656164792073746172746564000000000000604482015290519081900360640190fd5b6014548385011015620007cb576040805162461bcd60e51b815260206004820152601b60248201527f76657374696e67436c696666206265666f726520656e64446174650000000000604482015290519081900360640190fd5b8183111562000821576040805162461bcd60e51b815260206004820152601e60248201527f76657374696e67436c696666203e2076657374696e674475726174696f6e0000604482015290519081900360640190fd5b6312cff7806200086e82516000146200085657620008506001845162000bf660201b6200506f1790919060201c565b62000859565b60015b8462000c5160201b620050c91790919060201c565b10620008c1576040805162461bcd60e51b815260206004820152601d60248201527f746f74616c2076657374696e672074696d65203e203130207965617273000000604482015290519081900360640190fd5b601a849055601b839055601c829055620008de601d600062000d48565b600181511062000a5e5760008211620009295760405162461bcd60e51b815260040180806020018281038252603481526020018062006cfa6034913960400191505060405180910390fd5b6000816000815181106200093957fe5b6020026020010151905064e8d4a510006064028110620009a0576040805162461bcd60e51b815260206004820152601c60248201527f66697273742076657374696e6720706572696f64203e3d203130302500000000604482015290519081900360640190fd5b601d80546001818101835560009290925260008051602062006d2e833981519152018290555b825181101562000a5b5762000a19838281518110620009e157fe5b6020026020010151601d6001840381548110620009fa57fe5b906000526020600020015462000bf660201b6200506f1790919060201c565b9150655af3107a4000821062000a2f5762000a5b565b601d80546001818101835560009290925260008051602062006d2e8339815191520183905501620009c6565b50505b50505050565b62000a7160003362000bc7565b62000ab2576040805162461bcd60e51b8152602060048201526019602482015260008051602062006d6f833981519152604482015290519081900360640190fd5b600780546001600160a01b0319166001600160a01b039390931692909217909155600855565b62000ae560003362000bc7565b62000b26576040805162461bcd60e51b8152602060048201526019602482015260008051602062006d6f833981519152604482015290519081900360640190fd5b600980546001600160a01b0319166001600160a01b039390931692909217909155600a55565b600082815260016020908152604090912062000b739183906200512262000caf821b17901c565b156200051e5762000b8362000cc6565b6001600160a01b0316816001600160a01b0316837f2f8788117e7eff1d82e926ec794901d17c78024a50270940304540a733656f0d60405160405180910390a45050565b6000828152600160209081526040822062000bed9184906200513762000cca821b17901c565b90505b92915050565b60008282018381101562000bed576040805162461bcd60e51b815260206004820152601b60248201527f536166654d6174683a206164646974696f6e206f766572666c6f770000000000604482015290519081900360640190fd5b60008262000c625750600062000bf0565b8282028284828162000c7057fe5b041462000bed5760405162461bcd60e51b815260040180806020018281038252602181526020018062006d4e6021913960400191505060405180910390fd5b600062000bed836001600160a01b03841662000ce1565b3390565b600062000bed836001600160a01b03841662000d30565b600062000cef838362000d30565b62000d275750815460018181018455600084815260208082209093018490558454848252828601909352604090209190915562000bf0565b50600062000bf0565b60009081526001919091016020526040902054151590565b508054600082559060005260206000209081019062000d68919062000d6b565b50565b5b8082111562000d82576000815560010162000d6c565b5090565b615f648062000d966000396000f3fe6080604052600436106106675760003560e01c806382d95df511610344578063bd0fcfd1116101b6578063e4101de511610102578063f267d48c116100a0578063f64bfaba1161007a578063f64bfaba14611a11578063fce9d11b14611a26578063fe575a8714611a3b578063fecf415a14611a6e57610667565b8063f267d48c146119bd578063f2aa8218146119d2578063f3640e74146119fc57610667565b8063e8b882f4116100dc578063e8b882f414611969578063eb1edd611461197e578063eee95be614611993578063efbb34d5146119a857610667565b8063e4101de514611869578063e43252d71461187e578063e4a80252146118b157610667565b8063ca15c8731161016f578063d47eb3d511610149578063d47eb3d51461173a578063d547741f1461174f578063dbb57ac814611788578063dc91b0721461183f57610667565b8063ca15c873146116d1578063ca1d209d146116fb578063d0a4a8951461172557610667565b8063bd0fcfd114611635578063bf135abe1461164a578063c24a0f8b1461165f578063c3ca324f14611674578063c7dab436146116a7578063c8bdbfb6146116bc57610667565b80639483841411610290578063a96c58651161022e578063b367940e11610208578063b367940e1461152d578063b869178714611542578063ba40a96a14611575578063bd0625ab1461158a57610667565b8063a96c5865146114d5578063b0b12ac3146114ea578063b31f8f931461151857610667565b8063a001ecdd1161026a578063a001ecdd1461146c578063a1c09bf114611481578063a217fddf14611496578063a6e158f8146114ab57610667565b8063948384141461139457806396a32bc4146113a95780639d90a46e146113be57610667565b80638ab1d681116102fd5780639097548d116102d75780639097548d146112cc578063917c854d146112f6578063919bd9301461133157806391d148541461135b57610667565b80638ab1d681146112545780638e75b131146112875780639010d07c1461129c57610667565b806382d95df51461113f5780638392fe31146111695780638456cb59146111dc5780638855ccaa146111f157806388b0fe2b1461122a5780638a1a5f3f1461123f57610667565b80633784f000116104dd5780635c975abb1161042957806370a898bc116103c757806376807e5f116103a157806376807e5f14611048578063785e9e861461105d578063799bb232146110725780637f7b27121461112a57610667565b806370a898bc1461100957806374fa05fb1461101e578063755e3e281461103357610667565b806368673e7d1161040357806368673e7d14610ef257806369bb4dc214610fb35780636d02802714610fc85780636eaaabd514610fdd57610667565b80635c975abb14610e075780636295a2f414610e1c578063658f2dfe14610e3157610667565b80634089aa9a116104965780634588f688116104705780634588f68814610d7157806347535d7b14610d86578063537df3b614610d9b5780635ac699bb14610dce57610667565b80634089aa9a14610d1457806344337ea114610d2957806344691f7e14610d5c57610667565b80633784f00014610b7f5780633abcb8e814610ba95780633af32abf14610bbe5780633b6577c814610bf15780633bbab17914610c9a5780633f4ba83a14610cff57610667565b806321710d27116105b75780632daa8c84116105555780632f2ff15d1161052f5780632f2ff15d14610a8357806331d06af314610abc57806336568abe14610ad15780633742a9f714610b0a57610667565b80632daa8c8414610a445780632e15410714610a595780632ebb5c1e14610a6e57610667565b8063248a9ca311610591578063248a9ca3146109a8578063254800d4146109d25780632593ea17146109e7578063273e96e914610a1157610667565b806321710d271461094d57806321d3002a1461097e57806324600fc31461099357610667565b80631164d20c116106245780631514617e116105fe5780631514617e146108e457806315b57866146108f9578063161a7b2a1461090e5780631de18af71461092357610667565b80631164d20c146107f957806312aef8c3146108ba57806313430f01146108cf57610667565b80630274fa981461066c578063044c0cc5146106ad57806307662345146106d657806308abd7ff146106eb5780630b97bc86146107995780630dfb6d74146107c0575b600080fd5b34801561067857600080fd5b506106ab6004803603606081101561068f57600080fd5b506001600160a01b038135169060208101359060400135611a98565b005b3480156106b957600080fd5b506106c2611b0b565b604080519115158252519081900360200190f35b3480156106e257600080fd5b506106c2611b1c565b3480156106f757600080fd5b506106ab6004803603602081101561070e57600080fd5b810190602081018135600160201b81111561072857600080fd5b82018360208201111561073a57600080fd5b803590602001918460208302840111600160201b8311171561075b57600080fd5b919080806020026020016040519081016040528093929190818152602001838360200280828437600092019190915250929550611b2c945050505050565b3480156107a557600080fd5b506107ae611c02565b60408051918252519081900360200190f35b3480156107cc57600080fd5b506106ab600480360360408110156107e357600080fd5b506001600160a01b038135169060200135611c08565b34801561080557600080fd5b506106c26004803603604081101561081c57600080fd5b6001600160a01b038235169190810190604081016020820135600160201b81111561084657600080fd5b82018360208201111561085857600080fd5b803590602001918460018302840111600160201b8311171561087957600080fd5b91908080601f016020809104026020016040519081016040528093929190818152602001838380828437600092019190915250929550611c78945050505050565b3480156108c657600080fd5b506107ae611ca9565b3480156108db57600080fd5b506107ae611caf565b3480156108f057600080fd5b506107ae611cb5565b34801561090557600080fd5b506106c2611cbb565b34801561091a57600080fd5b506106c2611cc3565b34801561092f57600080fd5b506106ab6004803603602081101561094657600080fd5b5035611cd2565b34801561095957600080fd5b50610962612004565b604080516001600160a01b039092168252519081900360200190f35b34801561098a57600080fd5b506106c261201c565b34801561099f57600080fd5b506106ab612025565b3480156109b457600080fd5b506107ae600480360360208110156109cb57600080fd5b5035612349565b3480156109de57600080fd5b506107ae612361565b3480156109f357600080fd5b506106c260048036036020811015610a0a57600080fd5b5035612367565b348015610a1d57600080fd5b506106c260048036036020811015610a3457600080fd5b50356001600160a01b031661236e565b348015610a5057600080fd5b506106ab6125e7565b348015610a6557600080fd5b506107ae61279b565b348015610a7a57600080fd5b506106c26127a1565b348015610a8f57600080fd5b506106ab60048036036040811015610aa657600080fd5b50803590602001356001600160a01b03166127a9565b348015610ac857600080fd5b50610962612811565b348015610add57600080fd5b506106ab60048036036040811015610af457600080fd5b50803590602001356001600160a01b0316612820565b348015610b1657600080fd5b50610b3460048036036020811015610b2d57600080fd5b5035612881565b604080519788526001600160a01b0390961660208801528686019490945265ffffffffffff909216606086015215156080850152151560a084015260c0830152519081900360e00190f35b348015610b8b57600080fd5b506106ab60048036036020811015610ba257600080fd5b5035612998565b348015610bb557600080fd5b506107ae612a91565b348015610bca57600080fd5b506106c260048036036020811015610be157600080fd5b50356001600160a01b0316612a97565b348015610bfd57600080fd5b50610c1b60048036036020811015610c1457600080fd5b5035612aa4565b6040518083815260200180602001828103825283818151815260200191508051906020019080838360005b83811015610c5e578181015183820152602001610c46565b50505050905090810190601f168015610c8b5780820380516001836020036101000a031916815260200191505b50935050505060405180910390f35b348015610ca657600080fd5b50610caf612e9e565b60408051602080825283518183015283519192839290830191858101910280838360005b83811015610ceb578181015183820152602001610cd3565b505050509050019250505060405180910390f35b348015610d0b57600080fd5b506106ab612eaf565b348015610d2057600080fd5b506106c2612f01565b348015610d3557600080fd5b506106ab60048036036020811015610d4c57600080fd5b50356001600160a01b0316612f09565b348015610d6857600080fd5b506106c2612fa8565b348015610d7d57600080fd5b50610962612fb1565b348015610d9257600080fd5b506106c2612fc0565b348015610da757600080fd5b506106ab60048036036020811015610dbe57600080fd5b50356001600160a01b0316612fdf565b348015610dda57600080fd5b506107ae60048036036040811015610df157600080fd5b506001600160a01b03813516906020013561307d565b348015610e1357600080fd5b506106c26130ad565b348015610e2857600080fd5b506107ae6130b6565b348015610e3d57600080fd5b506106ab60048036036080811015610e5457600080fd5b81359160208101359160408201359190810190608081016060820135600160201b811115610e8157600080fd5b820183602082011115610e9357600080fd5b803590602001918460208302840111600160201b83111715610eb457600080fd5b9190808060200260200160405190810160405280939291908181526020018383602002808284376000920191909152509295506130bc945050505050565b348015610efe57600080fd5b506106c260048036036040811015610f1557600080fd5b6001600160a01b038235169190810190604081016020820135600160201b811115610f3f57600080fd5b820183602082011115610f5157600080fd5b803590602001918460018302840111600160201b83111715610f7257600080fd5b91908080601f01602080910402602001604051908101604052809392919081815260200183838082843760009201919091525092955061343a945050505050565b348015610fbf57600080fd5b506107ae613479565b348015610fd457600080fd5b50610caf6134f5565b348015610fe957600080fd5b506106ab6004803603602081101561100057600080fd5b50351515613501565b34801561101557600080fd5b506106c26135ab565b34801561102a57600080fd5b506106c26135b3565b34801561103f57600080fd5b506107ae6135bd565b34801561105457600080fd5b506106ab6135c3565b34801561106957600080fd5b5061096261365d565b34801561107e57600080fd5b506109626004803603604081101561109557600080fd5b81359190810190604081016020820135600160201b8111156110b657600080fd5b8201836020820111156110c857600080fd5b803590602001918460018302840111600160201b831117156110e957600080fd5b91908080601f01602080910402602001604051908101604052809392919081815260200183838082843760009201919091525092955061366c945050505050565b34801561113657600080fd5b506107ae6136d7565b34801561114b57600080fd5b506106ab6004803603602081101561116257600080fd5b50356136e0565b34801561117557600080fd5b506111936004803603602081101561118c57600080fd5b50356137c3565b604080516001600160a01b03909816885265ffffffffffff9096166020880152931515868601529115156060860152608085015260a084015260c0830152519081900360e00190f35b3480156111e857600080fd5b506106ab61382a565b3480156111fd57600080fd5b506106ab6004803603604081101561121457600080fd5b506001600160a01b03813516906020013561387c565b34801561123657600080fd5b506106ab6138ec565b34801561124b57600080fd5b506107ae6139d7565b34801561126057600080fd5b506106ab6004803603602081101561127757600080fd5b50356001600160a01b0316613a12565b34801561129357600080fd5b506107ae613ab0565b3480156112a857600080fd5b50610962600480360360408110156112bf57600080fd5b5080359060200135613ab6565b3480156112d857600080fd5b506107ae600480360360208110156112ef57600080fd5b5035613ace565b34801561130257600080fd5b506106ab6004803603604081101561131957600080fd5b506001600160a01b0381358116916020013516613b64565b34801561133d57600080fd5b506107ae6004803603602081101561135457600080fd5b5035613d49565b34801561136757600080fd5b506106c26004803603604081101561137e57600080fd5b50803590602001356001600160a01b0316613d6a565b3480156113a057600080fd5b506106c2613d82565b3480156113b557600080fd5b506106ab613d92565b3480156113ca57600080fd5b506106ab600480360360208110156113e157600080fd5b810190602081018135600160201b8111156113fb57600080fd5b82018360208201111561140d57600080fd5b803590602001918460208302840111600160201b8311171561142e57600080fd5b919080806020026020016040519081016040528093929190818152602001838360200280828437600092019190915250929550613e58945050505050565b34801561147857600080fd5b506107ae613f2d565b34801561148d57600080fd5b506107ae613f33565b3480156114a257600080fd5b506107ae613f39565b3480156114b757600080fd5b506106ab600480360360208110156114ce57600080fd5b5035613f3e565b3480156114e157600080fd5b506107ae614245565b3480156114f657600080fd5b506114ff61424b565b6040805163ffffffff9092168252519081900360200190f35b34801561152457600080fd5b506107ae614252565b34801561153957600080fd5b506106c261425c565b34801561154e57600080fd5b506106ab6004803603602081101561156557600080fd5b50356001600160a01b0316614267565b34801561158157600080fd5b506109626142e0565b6106ab600480360360408110156115a057600080fd5b81359190810190604081016020820135600160201b8111156115c157600080fd5b8201836020820111156115d357600080fd5b803590602001918460018302840111600160201b831117156115f457600080fd5b91908080601f0160208091040260200160405190810160405280939291908181526020018383808284376000920191909152509295506142ef945050505050565b34801561164157600080fd5b50610962614997565b34801561165657600080fd5b506109626149af565b34801561166b57600080fd5b506107ae6149be565b34801561168057600080fd5b50610caf6004803603602081101561169757600080fd5b50356001600160a01b03166149c4565b3480156116b357600080fd5b506107ae614a2e565b3480156116c857600080fd5b506106ab614a4a565b3480156116dd57600080fd5b506107ae600480360360208110156116f457600080fd5b5035614b4c565b34801561170757600080fd5b506106ab6004803603602081101561171e57600080fd5b5035614b63565b34801561173157600080fd5b506106c2614c44565b34801561174657600080fd5b50610962614c52565b34801561175b57600080fd5b506106ab6004803603604081101561177257600080fd5b50803590602001356001600160a01b0316614c61565b34801561179457600080fd5b506117b2600480360360208110156117ab57600080fd5b5035614cba565b6040518085815260200184815260200183815260200180602001828103825283818151815260200191508051906020019080838360005b838110156118015781810151838201526020016117e9565b50505050905090810190601f16801561182e5780820380516001836020036101000a031916815260200191505b509550505050505060405180910390f35b34801561184b57600080fd5b506106ab6004803603602081101561186257600080fd5b5035614d67565b34801561187557600080fd5b506107ae614e0d565b34801561188a57600080fd5b506106ab600480360360208110156118a157600080fd5b50356001600160a01b0316614e13565b3480156118bd57600080fd5b506106c2600480360360408110156118d457600080fd5b81359190810190604081016020820135600160201b8111156118f557600080fd5b82018360208201111561190757600080fd5b803590602001918460018302840111600160201b8311171561192857600080fd5b91908080601f016020809104026020016040519081016040528093929190818152602001838380828437600092019190915250929550614eb1945050505050565b34801561197557600080fd5b506107ae614edb565b34801561198a57600080fd5b50610962614eed565b34801561199f57600080fd5b506106ab614f05565b3480156119b457600080fd5b506107ae614f81565b3480156119c957600080fd5b506107ae614f8e565b3480156119de57600080fd5b50610962600480360360208110156119f557600080fd5b5035614f94565b348015611a0857600080fd5b506107ae614fbe565b348015611a1d57600080fd5b50610caf614fc4565b348015611a3257600080fd5b50610caf615026565b348015611a4757600080fd5b506106c260048036036020811015611a5e57600080fd5b50356001600160a01b0316615031565b348015611a7a57600080fd5b506106c260048036036020811015611a9157600080fd5b503561503e565b611aa3600033613d6a565b611ae2576040805162461bcd60e51b81526020600482015260196024820152600080516020615ee0833981519152604482015290519081900360640190fd5b600b80546001600160a01b0319166001600160a01b039490941693909317909255600c55600d55565b600f546001600160a01b0316155b90565b600254600160a01b900460ff1681565b611b44600080516020615e7683398151915233613d6a565b611b83576040805162461bcd60e51b815260206004820152601c6024820152600080516020615da3833981519152604482015290519081900360640190fd5b6000805b8251811015611bcb57611bb7838281518110611b9f57fe5b6020026020010151600361512290919063ffffffff16565b15611bc3576001909101905b600101611b87565b508015611bfe5760405181907f448f3bd350ede14a294c062177c5280fe1eae125d16757da21f5f51d6e89daae90600090a25b5050565b60135481565b611c13600033613d6a565b611c52576040805162461bcd60e51b81526020600482015260196024820152600080516020615ee0833981519152604482015290519081900360640190fd5b600980546001600160a01b0319166001600160a01b039390931692909217909155600a55565b6002546000906001600160a01b038085169116611c95828561366c565b6001600160a01b0316149150505b92915050565b60195481565b600c5481565b601c5481565b601754151590565b60115462010000900460ff1681565b611cda612f01565b611d19576040805162461bcd60e51b81526020600482015260186024820152600080516020615e96833981519152604482015290519081900360640190fd5b60115460ff1615611d71576040805162461bcd60e51b815260206004820152601e60248201527f73616c652068617320746f206265206e6f6e2041746f6d696320737761700000604482015290519081900360640190fd5b611d7a8161503e565b611dc2576040805162461bcd60e51b815260206004820152601460248201527330b2323932b9b99034b9903737ba10313abcb2b960611b604482015290519081900360640190fd5b611dca611cbb565b611e1b576040805162461bcd60e51b815260206004820152601d60248201527f6e6f206d696e696d756d20726169736520686173206265656e20736574000000604482015290519081900360640190fd5b611e236135b3565b611e74576040805162461bcd60e51b815260206004820152601e60248201527f6d696e696d756d20726169736520686173206265656e20726561636865640000604482015290519081900360640190fd5b6000601e8281548110611e8357fe5b906000526020600020906004020190506000816001015411611eec576040805162461bcd60e51b815260206004820152601760248201527f707572636861736520616d6f756e74206973207a65726f000000000000000000604482015290519081900360640190fd5b8054600160d01b900460ff1615611f42576040805162461bcd60e51b81526020600482015260156024820152741c1d5c98da185cd9481a5cc8199a5b985b1a5e9959605a1b604482015290519081900360640190fd5b805460ff60d81b1960ff60d01b19909116600160d01b1716600160d81b178155611f6a611b0b565b15611fcc57336001600160a01b03166108fc601e8481548110611f8957fe5b9060005260206000209060040201600201549081150290604051600060405180830381858888f19350505050158015611fc6573d6000803e3d6000fd5b50611bfe565b611bfe33601e8481548110611fdd57fe5b6000918252602090912060026004909202010154600f546001600160a01b0316919061514c565b73ffa98a091331df4600f87c9164cd27e8a5cd240581565b60115460ff1681565b612030600033613d6a565b61206f576040805162461bcd60e51b81526020600482015260196024820152600080516020615ee0833981519152604482015290519081900360640190fd5b6120776130ad565b156120bc576040805162461bcd60e51b815260206004820152601060248201526f14185d5cd8589b194e881c185d5cd95960821b604482015290519081900360640190fd5b6120c4612f01565b612103576040805162461bcd60e51b81526020600482015260186024820152600080516020615e96833981519152604482015290519081900360640190fd5b61210b61425c565b612158576040805162461bcd60e51b81526020600482015260196024820152781b5a5b9a5b5d5b481c985a5cd9481b9bdd081c995858da1959603a1b604482015290519081900360640190fd5b612160611b0b565b156122015773aeb39b67f27b641ef9f95fb74f1a46b1ee4efc836001600160a01b03166108fc6121a660646121a0601054476150c990919063ffffffff16565b906151a3565b6040518115909202916000818181858888f193505050501580156121ce573d6000803e3d6000fd5b5060405133904780156108fc02916000818181858888f193505050501580156121fb573d6000803e3d6000fd5b50612347565b601054600f54604080516370a0823160e01b815230600482015290516122b79373aeb39b67f27b641ef9f95fb74f1a46b1ee4efc83936122a4936064936121a093926001600160a01b0316916370a08231916024808301926020929190829003018186803b15801561227257600080fd5b505afa158015612286573d6000803e3d6000fd5b505050506040513d602081101561229c57600080fd5b5051906150c9565b600f546001600160a01b0316919061514c565b600f54604080516370a0823160e01b815230600482015290516123479233926001600160a01b03909116916370a0823191602480820192602092909190829003018186803b15801561230857600080fd5b505afa15801561231c573d6000803e3d6000fd5b505050506040513d602081101561233257600080fd5b5051600f546001600160a01b0316919061514c565b565b6000818152600160205260409020600201545b919050565b601a5481565b601e541190565b601154600090610100900460ff166123885750600161235c565b600b546001600160a01b0316156124ab57600c54600b54604080516370a0823160e01b81526001600160a01b038681166004830152915191909216916370a08231916024808301926020929190829003018186803b1580156123e957600080fd5b505afa1580156123fd573d6000803e3d6000fd5b505050506040513d602081101561241357600080fd5b5051106124225750600161235c565b600d54600b546040805163f6a3f3cf60e01b81526001600160a01b0386811660048301529151919092169163f6a3f3cf916024808301926020929190829003018186803b15801561247257600080fd5b505afa158015612486573d6000803e3d6000fd5b505050506040513d602081101561249c57600080fd5b5051106124ab5750600161235c565b6009546001600160a01b03161561254557600a54600954604080516370a0823160e01b81526001600160a01b038681166004830152915191909216916370a08231916024808301926020929190829003018186803b15801561250c57600080fd5b505afa158015612520573d6000803e3d6000fd5b505050506040513d602081101561253657600080fd5b5051106125455750600161235c565b6007546001600160a01b0316156125df57600854600754604080516370a0823160e01b81526001600160a01b038681166004830152915191909216916370a08231916024808301926020929190829003018186803b1580156125a657600080fd5b505afa1580156125ba573d6000803e3d6000fd5b505050506040513d60208110156125d057600080fd5b5051106125df5750600161235c565b506000919050565b6125f2600033613d6a565b612631576040805162461bcd60e51b81526020600482015260196024820152600080516020615ee0833981519152604482015290519081900360640190fd5b6126396130ad565b612681576040805162461bcd60e51b815260206004820152601460248201527314185d5cd8589b194e881b9bdd081c185d5cd95960621b604482015290519081900360640190fd5b60405133904780156108fc02916000818181858888f193505050501580156126ad573d6000803e3d6000fd5b50600e54604080516370a0823160e01b8152306004820152905161273e9233926001600160a01b03909116916370a0823191602480820192602092909190829003018186803b1580156126ff57600080fd5b505afa158015612713573d6000803e3d6000fd5b505050506040513d602081101561272957600080fd5b5051600e546001600160a01b0316919061514c565b612746611b0b565b61234757600f54604080516370a0823160e01b815230600482015290516123479233926001600160a01b03909116916370a0823191602480820192602092909190829003018186803b15801561230857600080fd5b60155481565b601354421090565b6000828152600160205260409020600201546127cc906127c761520a565b613d6a565b6128075760405162461bcd60e51b815260040180806020018281038252602f815260200180615ca6602f913960400191505060405180910390fd5b611bfe828261520e565b600b546001600160a01b031681565b61282861520a565b6001600160a01b0316816001600160a01b0316146128775760405162461bcd60e51b815260040180806020018281038252602f815260200180615f00602f913960400191505060405180910390fd5b611bfe8282615277565b600080600080600080600061289588612367565b6128e3576040805162461bcd60e51b815260206004820152601a6024820152791c1d5c98da185cd957da5908191bd95cc81b9bdd08195e1a5cdd60321b604482015290519081900360640190fd5b6000601e89815481106128f257fe5b60009182526020918290206040805160e08101825260049390930290910180546001600160a01b03811680855265ffffffffffff600160a01b83041695850186905260ff600160d01b830481161515948601859052600160d81b909204909116151560608501819052600183015460808601819052600284015460a0870181905260039094015460c09096018690529f919e50919c50939a509098509650945092505050565b6129a3600033613d6a565b6129e2576040805162461bcd60e51b81526020600482015260196024820152600080516020615ee0833981519152604482015290519081900360640190fd5b804210612a36576040805162461bcd60e51b815260206004820181905260248201527f656e6420646174652068617320746f20626520696e2074686520667574757265604482015290519081900360640190fd5b8060135410612a8c576040805162461bcd60e51b815260206004820152601a60248201527f656e642064617465206265666f72652073746172742064617465000000000000604482015290519081900360640190fd5b601455565b600a5481565b6000611ca3600383615137565b60006060612ab183612367565b612af057505060408051808201909152601a8152791c1d5c98da185cd957da5908191bd95cc81b9bdd08195e1a5cdd60321b6020820152600090612e99565b60115460ff1615612b3957505060408051808201909152601981527f68617320746f206265206e6f6e2041746f6d69632073776170000000000000006020820152600090612e99565b612b41612f01565b612b8357505060408051808201909152601881527f746f6b656e2073616c65206e6f742066696e616c697a656400000000000000006020820152600090612e99565b612b8b6130ad565b15612bce57505060408051808201909152601d81527f746f6b656e2073616c6520636f6e7472616374206973207061757365640000006020820152600090612e99565b612bd66135b3565b15612c155750506040805180820190915260198152781b5a5b9a5b5d5b481c985a5cd9481b9bdd081c995858da1959603a1b6020820152600090612e99565b6000601e8481548110612c2457fe5b90600052602060002090600402016001015490506000601e8581548110612c4757fe5b9060005260206000209060040201600301549050818110612ca55760006040518060400160405280601a81526020017f616c6c20746f6b656e20616c72656164792072656465656d6564000000000000815250935093505050612e99565b601a54421015612cf25760006040518060400160405280601e81526020017f76657374696e6720706572696f64206e6f742079657420737461727465640000815250935093505050612e99565b601b54601a54612d019161506f565b421015612d4b5760006040518060400160405280601d81526020017f76657374696e6720636c696666206e6f74207965742072656163686564000000815250935093505050612e99565b601d54600090612db25742612d6d601c54601a5461506f90919063ffffffff16565b11612d8357612d7c83836152e0565b9050612dad565b612daa82612da4601c546121a0601a544203886150c990919063ffffffff16565b906152e0565b90505b612e6b565b6000601c54601a54420381612dc357fe5b601d5491900491508110612de257612ddb84846152e0565b9150612e69565b6000612e1a64e8d4a510006064026121a0601d8581548110612e0057fe5b9060005260206000200154886150c990919063ffffffff16565b905083811015612e5b5760405162461bcd60e51b815260040180806020018281038252602c815260200180615e4a602c913960400191505060405180910390fd5b612e6581856152e0565b9250505b505b60408051808201909152600f81526e726561647920746f2072656465656d60881b6020820152909450925050505b915091565b6060612eaa600561533d565b905090565b612eba600033613d6a565b612ef9576040805162461bcd60e51b81526020600482015260196024820152600080516020615ee0833981519152604482015290519081900360640190fd5b6123476153dd565b601454421190565b612f21600080516020615e7683398151915233613d6a565b612f60576040805162461bcd60e51b815260206004820152601c6024820152600080516020615da3833981519152604482015290519081900360640190fd5b612f6b600582615122565b15612fa5576040516001600160a01b038216907ff9b68063b051b82957fa193585681240904fed808db8b30fc5a2d2202c6ed62790600090a25b50565b60135442101590565b6009546001600160a01b031681565b6000612fca612fa8565b8015612eaa5750612fd9612f01565b15905090565b612ff7600080516020615e7683398151915233613d6a565b613036576040805162461bcd60e51b815260206004820152601c6024820152600080516020615da3833981519152604482015290519081900360640190fd5b61304160058261547d565b15612fa5576040516001600160a01b038216907f2b6bf71b58b3583add364b3d9060ebf8019650f65f5be35f5464b9cb3e4ba2d490600090a250565b60208052816000526040600020818154811061309857600080fd5b90600052602060002001600091509150505481565b60005460ff1690565b60125481565b6130c7600033613d6a565b613106576040805162461bcd60e51b81526020600482015260196024820152600080516020615ee0833981519152604482015290519081900360640190fd5b601354421061315c576040805162461bcd60e51b815260206004820152601a60248201527f746f6b656e2073616c6520616c72656164792073746172746564000000000000604482015290519081900360640190fd5b60145483850110156131b5576040805162461bcd60e51b815260206004820152601b60248201527f76657374696e67436c696666206265666f726520656e64446174650000000000604482015290519081900360640190fd5b8183111561320a576040805162461bcd60e51b815260206004820152601e60248201527f76657374696e67436c696666203e2076657374696e674475726174696f6e0000604482015290519081900360640190fd5b6312cff780613237825160001461322d57825161322890600161506f565b613230565b60015b84906150c9565b10613289576040805162461bcd60e51b815260206004820152601d60248201527f746f74616c2076657374696e672074696d65203e203130207965617273000000604482015290519081900360640190fd5b601a849055601b839055601c8290556132a4601d6000615c55565b600181511061343457600082116132ec5760405162461bcd60e51b8152600401808060200182810382526034815260200180615cd56034913960400191505060405180910390fd5b6000816000815181106132fb57fe5b6020026020010151905064e8d4a510006064028110613361576040805162461bcd60e51b815260206004820152601c60248201527f66697273742076657374696e6720706572696f64203e3d203130302500000000604482015290519081900360640190fd5b601d8054600181810183556000929092527f6d4407e7be21f808e6509aa9fa9143369579dd7d760fe20a2c09680fc146134f018290555b8251811015613431576133e18382815181106133b057fe5b6020026020010151601d60018403815481106133c857fe5b906000526020600020015461506f90919063ffffffff16565b9150655af3107a400082106133f557613431565b601d8054600181810183556000929092527f6d4407e7be21f808e6509aa9fa9143369579dd7d760fe20a2c09680fc146134f0183905501613398565b50505b50505050565b600061344583615031565b1561345257506000611ca3565b61345b83612a97565b1561346857506001611ca3565b6134728383611c78565b9392505050565b600e54604080516370a0823160e01b815230600482015290516000926001600160a01b0316916370a08231916024808301926020929190829003018186803b1580156134c457600080fd5b505afa1580156134d8573d6000803e3d6000fd5b505050506040513d60208110156134ee57600080fd5b5051905090565b6060612eaa600361533d565b613519600080516020615e7683398151915233613d6a565b613558576040805162461bcd60e51b815260206004820152601c6024820152600080516020615da3833981519152604482015290519081900360640190fd5b60028054821515600160a01b810260ff60a01b199092169190911790915560408051918252517fe905f7f52156c346547b9deb6fb3e2459db941ec55d073fd465129bf4b49fae69181900360200190a150565b601554151590565b6017546018541090565b60185481565b6135ce600033613d6a565b61360d576040805162461bcd60e51b81526020600482015260196024820152600080516020615ee0833981519152604482015290519081900360640190fd5b6136156130ad565b6122b7576040805162461bcd60e51b815260206004820152601460248201527314185d5cd8589b194e881b9bdd081c185d5cd95960621b604482015290519081900360640190fd5b600e546001600160a01b031681565b600081516041146136c4576040805162461bcd60e51b815260206004820152601960248201527f7369676e6174757265206973206e6f7420363520627974657300000000000000604482015290519081900360640190fd5b613472826136d185615492565b906154e3565b64e8d4a5100081565b6136eb600033613d6a565b61372a576040805162461bcd60e51b81526020600482015260196024820152600080516020615ee0833981519152604482015290519081900360640190fd5b8042106137685760405162461bcd60e51b8152600401808060200182810382526022815260200180615d096022913960400191505060405180910390fd5b60145481106137be576040805162461bcd60e51b815260206004820152601a60248201527f656e642064617465206265666f72652073746172742064617465000000000000604482015290519081900360640190fd5b601355565b601e81815481106137d357600080fd5b600091825260209091206004909102018054600182015460028301546003909301546001600160a01b038316945065ffffffffffff600160a01b8404169360ff600160d01b8504811694600160d81b900416929187565b613835600033613d6a565b613874576040805162461bcd60e51b81526020600482015260196024820152600080516020615ee0833981519152604482015290519081900360640190fd5b612347615563565b613887600033613d6a565b6138c6576040805162461bcd60e51b81526020600482015260196024820152600080516020615ee0833981519152604482015290519081900360640190fd5b600780546001600160a01b0319166001600160a01b039390931692909217909155600855565b6138f7600033613d6a565b613936576040805162461bcd60e51b81526020600482015260196024820152600080516020615ee0833981519152604482015290519081900360640190fd5b61393e6130ad565b613986576040805162461bcd60e51b815260206004820152601460248201527314185d5cd8589b194e881b9bdd081c185d5cd95960621b604482015290519081900360640190fd5b600e54604080516370a0823160e01b815230600482015290516123479233926001600160a01b03909116916370a0823191602480820192602092909190829003018186803b1580156126ff57600080fd5b6000601a544210156139eb57506000611b19565b601c546139fa57506001611b19565b601c54601a54420381613a0957fe5b04600101905090565b613a2a600080516020615e7683398151915233613d6a565b613a69576040805162461bcd60e51b815260206004820152601c6024820152600080516020615da3833981519152604482015290519081900360640190fd5b613a7460038261547d565b15612fa5576040516001600160a01b038216907fcdd2e9b91a56913d370075169cefa1602ba36be5301664f752192bb1709df75790600090a250565b60175481565b600082815260016020526040812061347290836155e6565b6000611ca3600e60009054906101000a90046001600160a01b03166001600160a01b031663313ce5676040518163ffffffff1660e01b815260040160206040518083038186803b158015613b2157600080fd5b505afa158015613b35573d6000803e3d6000fd5b505050506040513d6020811015613b4b57600080fd5b505160125460ff909116600a0a906121a09085906150c9565b613b6f600033613d6a565b613bae576040805162461bcd60e51b81526020600482015260196024820152600080516020615ee0833981519152604482015290519081900360640190fd5b613bb6612f01565b613bf5576040805162461bcd60e51b81526020600482015260186024820152600080516020615e96833981519152604482015290519081900360640190fd5b600e546001600160a01b0383811691161415613c58576040805162461bcd60e51b815260206004820152601b60248201527f746f6b656e2069732074686520746f6b656e20666f722073616c650000000000604482015290519081900360640190fd5b600f546001600160a01b0383811691161415613cbb576040805162461bcd60e51b815260206004820152601b60248201527f746f6b656e206973207468652074726164652d696e20746f6b656e0000000000604482015290519081900360640190fd5b611bfe81836001600160a01b03166370a08231306040518263ffffffff1660e01b815260040180826001600160a01b0316815260200191505060206040518083038186803b158015613d0c57600080fd5b505afa158015613d20573d6000803e3d6000fd5b505050506040513d6020811015613d3657600080fd5b50516001600160a01b038516919061514c565b601d8181548110613d5957600080fd5b600091825260209091200154905081565b60008281526001602052604081206134729083615137565b6011546301000000900460ff1681565b613d9d600033613d6a565b613ddc576040805162461bcd60e51b81526020600482015260196024820152600080516020615ee0833981519152604482015290519081900360640190fd5b613de46130ad565b613e2c576040805162461bcd60e51b815260206004820152601460248201527314185d5cd8589b194e881b9bdd081c185d5cd95960621b604482015290519081900360640190fd5b60405133904780156108fc02916000818181858888f19350505050158015612fa5573d6000803e3d6000fd5b613e70600080516020615e7683398151915233613d6a565b613eaf576040805162461bcd60e51b815260206004820152601c6024820152600080516020615da3833981519152604482015290519081900360640190fd5b6000805b8251811015613ef757613ee3838281518110613ecb57fe5b6020026020010151600561512290919063ffffffff16565b15613eef576001909101905b600101613eb3565b508015611bfe5760405181907fc2f03ca34d335e49d4d629b85db054d1ffb679b4fec2e06fe10d0e618b175ecb90600090a25050565b60105481565b601e5490565b600081565b60115460ff1615613f96576040805162461bcd60e51b815260206004820152601e60248201527f73616c652068617320746f206265206e6f6e2041746f6d696320737761700000604482015290519081900360640190fd5b613f9e612f01565b613fdd576040805162461bcd60e51b81526020600482015260186024820152600080516020615e96833981519152604482015290519081900360640190fd5b613fe56130ad565b1561402a576040805162461bcd60e51b815260206004820152601060248201526f14185d5cd8589b194e881c185d5cd95960821b604482015290519081900360640190fd5b6140338161503e565b61407b576040805162461bcd60e51b815260206004820152601460248201527320b2323932b9b99034b9903737ba10313abcb2b960611b604482015290519081900360640190fd5b60008061408783612aa4565b915091506000821181906141195760405162461bcd60e51b81526004018080602001828103825283818151815260200191508051906020019080838360005b838110156140de5781810151838201526020016140c6565b50505050905090810190601f16801561410b5780820380516001836020036101000a031916815260200191505b509250505060405180910390fd5b506000601e848154811061412957fe5b90600052602060002090600402016001015490506000601e858154811061414c57fe5b906000526020600020906004020160030154905081614174858361506f90919063ffffffff16565b11156141b15760405162461bcd60e51b8152600401808060200182810382526044815260200180615e066044913960600191505060405180910390fd5b816141bc828661506f565b14156141fc576001601e86815481106141d157fe5b600091825260209091206004909102018054911515600160d01b0260ff60d01b199092169190911790555b614206818561506f565b601e868154811061421357fe5b6000918252602090912060036004909202010155600e5461423e906001600160a01b0316338661514c565b5050505050565b60085481565b622932e090565b6018546019540390565b601754601854101590565b61427f600080516020615e7683398151915233613d6a565b6142be576040805162461bcd60e51b815260206004820152601c6024820152600080516020615da3833981519152604482015290519081900360640190fd5b600280546001600160a01b0319166001600160a01b0392909216919091179055565b6002546001600160a01b031681565b6142f76130ad565b1561433c576040805162461bcd60e51b815260206004820152601060248201526f14185d5cd8589b194e881c185d5cd95960821b604482015290519081900360640190fd5b60115462010000900460ff16614399576040805162461bcd60e51b815260206004820152601860248201527f746f6b656e2073616c65206973206e6f742066756e6465640000000000000000604482015290519081900360640190fd5b6143a1612fc0565b6143e8576040805162461bcd60e51b815260206004820152601360248201527239b0b632903430b9903a379031329037b832b760691b604482015290519081900360640190fd5b6002548190600160a01b900460ff16156144b9576002546001600160a01b031661446b5761441533612a97565b614466576040805162461bcd60e51b815260206004820152601960248201527f6e6f74206f6e206f6e2d636861696e2077686974656c69737400000000000000604482015290519081900360640190fd5b6144b9565b614475338261343a565b6144b9576040805162461bcd60e51b815260206004820152601060248201526f1b9bdd081bdb881dda1a5d195b1a5cdd60821b604482015290519081900360640190fd5b60006144c43361236e565b614515576040805162461bcd60e51b815260206004820181905260248201527f61646472657373206e6f742077686974656c697374656420666f7220504f4c53604482015290519081900360640190fd5b61451d611b0b565b1561457c57503461452d84613ace565b811015614577576040805162461bcd60e51b81526020600482015260136024820152721b9bdd08195b9bdd59da08115512081cd95b9d606a1b604482015290519081900360640190fd5b6145a0565b61458584613ace565b600f549091506145a0906001600160a01b03163330846155f2565b6145a8614252565b8411156145fc576040805162461bcd60e51b815260206004820152601960248201527f616d6f756e74203e20746f6b656e7320617661696c61626c6500000000000000604482015290519081900360640190fd5b601554841015614653576040805162461bcd60e51b815260206004820152601760248201527f616d6f756e74203c206d696e696d756d20616d6f756e74000000000000000000604482015290519081900360640190fd5b6016548411156146aa576040805162461bcd60e51b815260206004820152601760248201527f616d6f756e74203e206d6178696d756d20616d6f756e74000000000000000000604482015290519081900360640190fd5b33600090815260208080526040808320805482518185028101850190935280835291929091908301828280156146ff57602002820191906000526020600020905b8154815260200190600101908083116146eb575b505050505090506000805b825181101561476157614757601e84838151811061472457fe5b60200260200101518154811061473657fe5b9060005260206000209060040201600101548361506f90919063ffffffff16565b915060010161470a565b5060165461476f828861506f565b11156147c2576040805162461bcd60e51b815260206004820152601f60248201527f616d6f756e7420676f6573206f76657220696e646976696475616c206d617800604482015290519081900360640190fd5b60115460ff16156147e457600e546147e4906001600160a01b0316338861514c565b601e6040518060e00160405280336001600160a01b031681526020016148094261564c565b65ffffffffffff908116825260115460ff1615156020808401919091526000604080850182905260608086018e905260808087018c905260a0968701849052885460018181018b55998552858520895160049092020180548a8801518b870151958c01511515600160d81b0260ff60d81b19961515600160d01b0260ff60d01b1992909b16600160a01b0265ffffffffffff60a01b196001600160a01b039096166001600160a01b03199485161795909516949094171698909817939093161782558701518189015594860151600286015560c09095015160039094019390935533808452818052938320601e548154808801835591855291842060001992909201910155601f805494850181559091527fa03837a25210ee280c2113ff4b77ca23440b19d4866cca721c801278fd08d8079092018054909216179055601854614953908761506f565b60185560408051878152426020820152815133927fbec109f7ee137de661c6887caa96653c0545050a9908a3b6eb5190440bbec864928290030190a2505050505050565b7383e6f1e41cdd28eaceb20cb649155049fac3d5aa81565b600f546001600160a01b031681565b60145481565b6001600160a01b03811660009081526020808052604091829020805483518184028101840190945280845260609392830182828015614a2257602002820191906000526020600020905b815481526020019060010190808311614a0e575b50505050509050919050565b601d54600090614a4057506000611b19565b50601d5460010190565b614a55600033613d6a565b614a94576040805162461bcd60e51b81526020600482015260196024820152600080516020615ee0833981519152604482015290519081900360640190fd5b614a9c612f01565b614adb576040805162461bcd60e51b81526020600482015260186024820152600080516020615e96833981519152604482015290519081900360640190fd5b6011546301000000900460ff1615614af257600080fd5b6000614afc6135b3565b15614b0a5750601954614b1c565b601854601954614b19916152e0565b90505b8015612fa5576011805463ff00000019166301000000179055600e54612fa5906001600160a01b0316338361514c565b6000818152600160205260408120611ca3906156ad565b614b6b6127a1565b614bbc576040805162461bcd60e51b815260206004820152601a60248201527f6e6f74206265666f72652073746172742074696d652f64617465000000000000604482015290519081900360640190fd5b601954614bd182614bcb613479565b9061506f565b1115614c24576040805162461bcd60e51b815260206004820181905260248201527f6d6f726520746f6b656e73207468616e206e656564656420666f722073616c65604482015290519081900360640190fd5b600e54614c3c906001600160a01b03163330846155f2565b612fa5614f05565b601154610100900460ff1681565b6007546001600160a01b031681565b600082815260016020526040902060020154614c7f906127c761520a565b6128775760405162461bcd60e51b8152600401808060200182810382526030815260200180615d736030913960400191505060405180910390fd5b60008060006060614cca85612367565b614d0f57505060408051808201909152601a8152791c1d5c98da185cd957da5908191bd95cc81b9bdd08195e1a5cdd60321b6020820152600092508291508190614d60565b601e8581548110614d1c57fe5b9060005260206000209060040201600101549350601e8581548110614d3d57fe5b9060005260206000209060040201600301549250614d5a85612aa4565b90925090505b9193509193565b614d72600033613d6a565b614db1576040805162461bcd60e51b81526020600482015260196024820152600080516020615ee0833981519152604482015290519081900360640190fd5b601554811015614e08576040805162461bcd60e51b815260206004820152601b60248201527f696e646976696475616c206d6178203c206d696e20616d6f756e740000000000604482015290519081900360640190fd5b601655565b60165481565b614e2b600080516020615e7683398151915233613d6a565b614e6a576040805162461bcd60e51b815260206004820152601c6024820152600080516020615da3833981519152604482015290519081900360640190fd5b614e75600382615122565b15612fa5576040516001600160a01b038216907fa850ae9193f515cbae8d35e8925bd2be26627fc91bce650b8652ed254e9cab0390600090a250565b6002546000906001600160a01b0316614eca848461366c565b6001600160a01b0316149392505050565b600080516020615e7683398151915281565b73aeb39b67f27b641ef9f95fb74f1a46b1ee4efc8381565b614f0d6127a1565b614f5e576040805162461bcd60e51b815260206004820152601a60248201527f6e6f74206265666f72652073746172742074696d652f64617465000000000000604482015290519081900360640190fd5b601954614f69613479565b10612347576011805462ff0000191662010000179055565b6000612eaa601954613ace565b600d5481565b601f8181548110614fa457600080fd5b6000918252602090912001546001600160a01b0316905081565b601b5481565b6060601f80548060200260200160405190810160405280929190818152602001828054801561501c57602002820191906000526020600020905b81546001600160a01b03168152600190910190602001808311614ffe575b5050505050905090565b6060612eaa336149c4565b6000611ca3600583615137565b6000601e828154811061504d57fe5b60009182526020909120600490910201546001600160a01b0316331492915050565b600082820183811015613472576040805162461bcd60e51b815260206004820152601b60248201527f536166654d6174683a206164646974696f6e206f766572666c6f770000000000604482015290519081900360640190fd5b6000826150d857506000611ca3565b828202828482816150e557fe5b04146134725760405162461bcd60e51b8152600401808060200182810382526021815260200180615de56021913960400191505060405180910390fd5b6000613472836001600160a01b0384166156b8565b6000613472836001600160a01b038416615702565b604080516001600160a01b038416602482015260448082018490528251808303909101815260649091019091526020810180516001600160e01b031663a9059cbb60e01b17905261519e90849061571a565b505050565b60008082116151f9576040805162461bcd60e51b815260206004820152601a60248201527f536166654d6174683a206469766973696f6e206279207a65726f000000000000604482015290519081900360640190fd5b81838161520257fe5b049392505050565b3390565b60008281526001602052604090206152269082615122565b15611bfe5761523361520a565b6001600160a01b0316816001600160a01b0316837f2f8788117e7eff1d82e926ec794901d17c78024a50270940304540a733656f0d60405160405180910390a45050565b600082815260016020526040902061528f908261547d565b15611bfe5761529c61520a565b6001600160a01b0316816001600160a01b0316837ff6391f5c32d9c69d2a47ea670b442974b53935d1edc7fd64eb21e047a839171b60405160405180910390a45050565b600082821115615337576040805162461bcd60e51b815260206004820152601e60248201527f536166654d6174683a207375627472616374696f6e206f766572666c6f770000604482015290519081900360640190fd5b50900390565b6060600061534a836156ad565b67ffffffffffffffff8111801561536057600080fd5b5060405190808252806020026020018201604052801561538a578160200160208202803683370190505b50905060005b615399846156ad565b8110156153d6576153aa84826155e6565b8282815181106153b657fe5b6001600160a01b0390921660209283029190910190910152600101615390565b5092915050565b6153e56130ad565b61542d576040805162461bcd60e51b815260206004820152601460248201527314185d5cd8589b194e881b9bdd081c185d5cd95960621b604482015290519081900360640190fd5b6000805460ff191690557f5db9ee0a495bf2e6ff9c91a7834c1ba4fdd244a5e8aa4e537bd38aeae4b073aa61546061520a565b604080516001600160a01b039092168252519081900360200190a1565b6000613472836001600160a01b0384166157cb565b604080517f19457468657265756d205369676e6564204d6573736167653a0a333200000000602080830191909152603c8083019490945282518083039094018452605c909101909152815191012090565b6000815160411461553b576040805162461bcd60e51b815260206004820152601f60248201527f45434453413a20696e76616c6964207369676e6174757265206c656e67746800604482015290519081900360640190fd5b60208201516040830151606084015160001a61555986828585615891565b9695505050505050565b61556b6130ad565b156155b0576040805162461bcd60e51b815260206004820152601060248201526f14185d5cd8589b194e881c185d5cd95960821b604482015290519081900360640190fd5b6000805460ff191660011790557f62e78cea01bee320cd4e420270b5ea74000d11b0c9f74754ebdbfc544b05a25861546061520a565b60006134728383615a0f565b604080516001600160a01b0380861660248301528416604482015260648082018490528251808303909101815260849091019091526020810180516001600160e01b03166323b872dd60e01b17905261343490859061571a565b6000660100000000000082106156a9576040805162461bcd60e51b815260206004820152601c60248201527f76616c756520646f65736e27742066697420696e203438206269747300000000604482015290519081900360640190fd5b5090565b6000611ca382615a73565b60006156c48383615702565b6156fa57508154600181810184556000848152602080822090930184905584548482528286019093526040902091909155611ca3565b506000611ca3565b60009081526001919091016020526040902054151590565b600061576f826040518060400160405280602081526020017f5361666545524332303a206c6f772d6c6576656c2063616c6c206661696c6564815250856001600160a01b0316615a779092919063ffffffff16565b80519091501561519e5780806020019051602081101561578e57600080fd5b505161519e5760405162461bcd60e51b815260040180806020018281038252602a815260200180615eb6602a913960400191505060405180910390fd5b6000818152600183016020526040812054801561588757835460001980830191908101906000908790839081106157fe57fe5b906000526020600020015490508087600001848154811061581b57fe5b60009182526020808320909101929092558281526001898101909252604090209084019055865487908061584b57fe5b60019003818190600052602060002001600090559055866001016000878152602001908152602001600020600090556001945050505050611ca3565b6000915050611ca3565b60007f7fffffffffffffffffffffffffffffff5d576e7357a4501ddfe92f46681b20a08211156158f25760405162461bcd60e51b8152600401808060200182810382526022815260200180615d2b6022913960400191505060405180910390fd5b8360ff16601b148061590757508360ff16601c145b6159425760405162461bcd60e51b8152600401808060200182810382526022815260200180615dc36022913960400191505060405180910390fd5b600060018686868660405160008152602001604052604051808581526020018460ff1681526020018381526020018281526020019450505050506020604051602081039080840390855afa15801561599e573d6000803e3d6000fd5b5050604051601f1901519150506001600160a01b038116615a06576040805162461bcd60e51b815260206004820152601860248201527f45434453413a20696e76616c6964207369676e61747572650000000000000000604482015290519081900360640190fd5b95945050505050565b81546000908210615a515760405162461bcd60e51b8152600401808060200182810382526022815260200180615c846022913960400191505060405180910390fd5b826000018281548110615a6057fe5b9060005260206000200154905092915050565b5490565b6060615a868484600085615a8e565b949350505050565b606082471015615acf5760405162461bcd60e51b8152600401808060200182810382526026815260200180615d4d6026913960400191505060405180910390fd5b615ad885615be9565b615b29576040805162461bcd60e51b815260206004820152601d60248201527f416464726573733a2063616c6c20746f206e6f6e2d636f6e7472616374000000604482015290519081900360640190fd5b600080866001600160a01b031685876040518082805190602001908083835b60208310615b675780518252601f199092019160209182019101615b48565b6001836020036101000a03801982511681845116808217855250505050505090500191505060006040518083038185875af1925050503d8060008114615bc9576040519150601f19603f3d011682016040523d82523d6000602084013e615bce565b606091505b5091509150615bde828286615bef565b979650505050505050565b3b151590565b60608315615bfe575081613472565b825115615c0e5782518084602001fd5b60405162461bcd60e51b81526020600482018181528451602484015284518593919283926044019190850190808383600083156140de5781810151838201526020016140c6565b5080546000825590600052602060002090810190612fa591905b808211156156a95760008155600101615c6f56fe456e756d657261626c655365743a20696e646578206f7574206f6620626f756e6473416363657373436f6e74726f6c3a2073656e646572206d75737420626520616e2061646d696e20746f206772616e7476657374696e6720696e74657276616c6c732070726f76696465642c206275742076657374696e674475726174696f6e203d2030737461727420646174652068617320746f20626520696e207468652066757475726545434453413a20696e76616c6964207369676e6174757265202773272076616c7565416464726573733a20696e73756666696369656e742062616c616e636520666f722063616c6c416363657373436f6e74726f6c3a2073656e646572206d75737420626520616e2061646d696e20746f207265766f6b6563616c6c6572206973206e6f742057686974656c6973744f776e65720000000045434453413a20696e76616c6964207369676e6174757265202776272076616c7565536166654d6174683a206d756c7469706c69636174696f6e206f766572666c6f77494e5445524e414c204552524f52203a20616d6f756e7452656465656d656420776f756c64206265206c6172676572207468656e20707572636861736520616d6f756e74494e5445524e414c204552524f5220696e2076657374696e6720616d6f756e742063616c63756c6174696f6eb813b807c25079ba97f1770664c6a9e57c59afe74a6295f1ed01c10e3bb6baae73616c652068617320746f2062652066696e616c697a656400000000000000005361666545524332303a204552433230206f7065726174696f6e20646964206e6f74207375636365656463616c6c657220686173206e6f742061646d696e20726f6c6500000000000000416363657373436f6e74726f6c3a2063616e206f6e6c792072656e6f756e636520726f6c657320666f722073656c66a2646970667358221220f6f6c9a9c5d760d7a6d72f9769a1d700063c5e936de8f158ff0489d903f96a5a64736f6c6343000706003376657374696e6720696e74657276616c6c732070726f76696465642c206275742076657374696e674475726174696f6e203d20306d4407e7be21f808e6509aa9fa9143369579dd7d760fe20a2c09680fc146134f536166654d6174683a206d756c7469706c69636174696f6e206f766572666c6f7763616c6c657220686173206e6f742061646d696e20726f6c6500000000000000",
  "linkReferences": {},
  "deployedLinkReferences": {}
}