{
  "_format": "hh-sol-artifact-1",
  "contractName": "FixedSwap",
  "sourceName": "contracts/FixedSwap.sol",
  "abi": [
    {
      "inputs": [
        {
          "internalType": "address",
          "name": "_tokenAddress",
          "type": "address"
        },
        {
          "internalType": "uint256",
          "name": "_tradeValue",
          "type": "uint256"
        },
        {
          "internalType": "uint256",
          "name": "_tokensForSale",
          "type": "uint256"
        },
        {
          "internalType": "uint256",
          "name": "_startDate",
          "type": "uint256"
        },
        {
          "internalType": "uint256",
          "name": "_endDate",
          "type": "uint256"
        },
        {
          "internalType": "uint256",
          "name": "_individualMinimumAmount",
          "type": "uint256"
        },
        {
          "internalType": "uint256",
          "name": "_individualMaximumAmount",
          "type": "uint256"
        },
        {
          "internalType": "bool",
          "name": "_ignored",
          "type": "bool"
        },
        {
          "internalType": "uint256",
          "name": "_minimumRaise",
          "type": "uint256"
        },
        {
          "internalType": "uint256",
          "name": "_feePercentage",
          "type": "uint256"
        },
        {
          "internalType": "uint32",
          "name": "_flags",
          "type": "uint32"
        },
        {
          "internalType": "address",
          "name": "_erc20TradeAddress",
          "type": "address"
        }
      ],
      "stateMutability": "nonpayable",
      "type": "constructor"
    },
    {
      "anonymous": false,
      "inputs": [
        {
          "indexed": false,
          "internalType": "uint256",
          "name": "count",
          "type": "uint256"
        }
      ],
      "name": "AddedArrayToBlacklist",
      "type": "event"
    },
    {
      "anonymous": false,
      "inputs": [
        {
          "indexed": false,
          "internalType": "uint256",
          "name": "count",
          "type": "uint256"
        }
      ],
      "name": "AddedArrayToWhitelist",
      "type": "event"
    },
    {
      "anonymous": false,
      "inputs": [
        {
          "indexed": true,
          "internalType": "address",
          "name": "account",
          "type": "address"
        }
      ],
      "name": "AddedToBlacklist",
      "type": "event"
    },
    {
      "anonymous": false,
      "inputs": [
        {
          "indexed": true,
          "internalType": "address",
          "name": "account",
          "type": "address"
        }
      ],
      "name": "AddedToWhitelist",
      "type": "event"
    },
    {
      "anonymous": false,
      "inputs": [
        {
          "indexed": false,
          "internalType": "address",
          "name": "account",
          "type": "address"
        }
      ],
      "name": "Paused",
      "type": "event"
    },
    {
      "anonymous": false,
      "inputs": [
        {
          "indexed": false,
          "internalType": "uint256",
          "name": "amount",
          "type": "uint256"
        },
        {
          "indexed": true,
          "internalType": "address",
          "name": "purchaser",
          "type": "address"
        },
        {
          "indexed": false,
          "internalType": "uint256",
          "name": "timestamp",
          "type": "uint256"
        }
      ],
      "name": "PurchaseEvent",
      "type": "event"
    },
    {
      "anonymous": false,
      "inputs": [
        {
          "indexed": true,
          "internalType": "address",
          "name": "account",
          "type": "address"
        }
      ],
      "name": "RemovedFromBlacklist",
      "type": "event"
    },
    {
      "anonymous": false,
      "inputs": [
        {
          "indexed": true,
          "internalType": "address",
          "name": "account",
          "type": "address"
        }
      ],
      "name": "RemovedFromWhitelist",
      "type": "event"
    },
    {
      "anonymous": false,
      "inputs": [
        {
          "indexed": true,
          "internalType": "bytes32",
          "name": "role",
          "type": "bytes32"
        },
        {
          "indexed": true,
          "internalType": "bytes32",
          "name": "previousAdminRole",
          "type": "bytes32"
        },
        {
          "indexed": true,
          "internalType": "bytes32",
          "name": "newAdminRole",
          "type": "bytes32"
        }
      ],
      "name": "RoleAdminChanged",
      "type": "event"
    },
    {
      "anonymous": false,
      "inputs": [
        {
          "indexed": true,
          "internalType": "bytes32",
          "name": "role",
          "type": "bytes32"
        },
        {
          "indexed": true,
          "internalType": "address",
          "name": "account",
          "type": "address"
        },
        {
          "indexed": true,
          "internalType": "address",
          "name": "sender",
          "type": "address"
        }
      ],
      "name": "RoleGranted",
      "type": "event"
    },
    {
      "anonymous": false,
      "inputs": [
        {
          "indexed": true,
          "internalType": "bytes32",
          "name": "role",
          "type": "bytes32"
        },
        {
          "indexed": true,
          "internalType": "address",
          "name": "account",
          "type": "address"
        },
        {
          "indexed": true,
          "internalType": "address",
          "name": "sender",
          "type": "address"
        }
      ],
      "name": "RoleRevoked",
      "type": "event"
    },
    {
      "anonymous": false,
      "inputs": [
        {
          "indexed": false,
          "internalType": "bool",
          "name": "hasWhitelisting",
          "type": "bool"
        }
      ],
      "name": "SetHasWhitelisting",
      "type": "event"
    },
    {
      "anonymous": false,
      "inputs": [
        {
          "indexed": false,
          "internalType": "address",
          "name": "account",
          "type": "address"
        }
      ],
      "name": "Unpaused",
      "type": "event"
    },
    {
      "inputs": [],
      "name": "DECIMALS_PERCENT_MUL",
      "outputs": [
        {
          "internalType": "uint256",
          "name": "",
          "type": "uint256"
        }
      ],
      "stateMutability": "view",
      "type": "function"
    },
    {
      "inputs": [],
      "name": "DEFAULT_ADMIN_ROLE",
      "outputs": [
        {
          "internalType": "bytes32",
          "name": "",
          "type": "bytes32"
        }
      ],
      "stateMutability": "view",
      "type": "function"
    },
    {
      "inputs": [],
      "name": "FEE_ADDRESS",
      "outputs": [
        {
          "internalType": "address",
          "name": "",
          "type": "address"
        }
      ],
      "stateMutability": "view",
      "type": "function"
    },
    {
      "inputs": [],
      "name": "PolsStakeAddress",
      "outputs": [
        {
          "internalType": "address",
          "name": "",
          "type": "address"
        }
      ],
      "stateMutability": "view",
      "type": "function"
    },
    {
      "inputs": [],
      "name": "PolsStakeAmount",
      "outputs": [
        {
          "internalType": "uint256",
          "name": "",
          "type": "uint256"
        }
      ],
      "stateMutability": "view",
      "type": "function"
    },
    {
      "inputs": [],
      "name": "PolsStakeRewards",
      "outputs": [
        {
          "internalType": "uint256",
          "name": "",
          "type": "uint256"
        }
      ],
      "stateMutability": "view",
      "type": "function"
    },
    {
      "inputs": [],
      "name": "WHITELIST_OWNER_ROLE",
      "outputs": [
        {
          "internalType": "bytes32",
          "name": "",
          "type": "bytes32"
        }
      ],
      "stateMutability": "view",
      "type": "function"
    },
    {
      "inputs": [
        {
          "internalType": "address[]",
          "name": "_addresses",
          "type": "address[]"
        }
      ],
      "name": "addArrayToBlacklist",
      "outputs": [],
      "stateMutability": "nonpayable",
      "type": "function"
    },
    {
      "inputs": [
        {
          "internalType": "address[]",
          "name": "_addresses",
          "type": "address[]"
        }
      ],
      "name": "addArrayToWhitelist",
      "outputs": [],
      "stateMutability": "nonpayable",
      "type": "function"
    },
    {
      "inputs": [
        {
          "internalType": "address",
          "name": "_address",
          "type": "address"
        }
      ],
      "name": "addToBlacklist",
      "outputs": [],
      "stateMutability": "nonpayable",
      "type": "function"
    },
    {
      "inputs": [
        {
          "internalType": "address",
          "name": "_address",
          "type": "address"
        }
      ],
      "name": "addToWhitelist",
      "outputs": [],
      "stateMutability": "nonpayable",
      "type": "function"
    },
    {
      "inputs": [],
      "name": "availableTokens",
      "outputs": [
        {
          "internalType": "uint256",
          "name": "",
          "type": "uint256"
        }
      ],
      "stateMutability": "view",
      "type": "function"
    },
    {
      "inputs": [
        {
          "internalType": "uint256",
          "name": "",
          "type": "uint256"
        }
      ],
      "name": "buyers",
      "outputs": [
        {
          "internalType": "address",
          "name": "",
          "type": "address"
        }
      ],
      "stateMutability": "view",
      "type": "function"
    },
    {
      "inputs": [
        {
          "internalType": "uint256",
          "name": "_amount",
          "type": "uint256"
        }
      ],
      "name": "cost",
      "outputs": [
        {
          "internalType": "uint256",
          "name": "",
          "type": "uint256"
        }
      ],
      "stateMutability": "view",
      "type": "function"
    },
    {
      "inputs": [
        {
          "internalType": "address",
          "name": "_account",
          "type": "address"
        },
        {
          "internalType": "uint256",
          "name": "_accountMaximunAllocation",
          "type": "uint256"
        },
        {
          "internalType": "bytes",
          "name": "_signature",
          "type": "bytes"
        }
      ],
      "name": "determineAccountMaximunAllocation",
      "outputs": [
        {
          "internalType": "uint256",
          "name": "",
          "type": "uint256"
        }
      ],
      "stateMutability": "view",
      "type": "function"
    },
    {
      "inputs": [],
      "name": "endDate",
      "outputs": [
        {
          "internalType": "uint256",
          "name": "",
          "type": "uint256"
        }
      ],
      "stateMutability": "view",
      "type": "function"
    },
    {
      "inputs": [],
      "name": "erc20",
      "outputs": [
        {
          "internalType": "contract IERC20",
          "name": "",
          "type": "address"
        }
      ],
      "stateMutability": "view",
      "type": "function"
    },
    {
      "inputs": [],
      "name": "erc20TradeIn",
      "outputs": [
        {
          "internalType": "contract IERC20",
          "name": "",
          "type": "address"
        }
      ],
      "stateMutability": "view",
      "type": "function"
    },
    {
      "inputs": [],
      "name": "feePercentage",
      "outputs": [
        {
          "internalType": "uint256",
          "name": "",
          "type": "uint256"
        }
      ],
      "stateMutability": "view",
      "type": "function"
    },
    {
      "inputs": [
        {
          "internalType": "uint256",
          "name": "_amount",
          "type": "uint256"
        }
      ],
      "name": "fund",
      "outputs": [],
      "stateMutability": "nonpayable",
      "type": "function"
    },
    {
      "inputs": [],
      "name": "getAPIVersion",
      "outputs": [
        {
          "internalType": "uint32",
          "name": "API_VERSION",
          "type": "uint32"
        }
      ],
      "stateMutability": "pure",
      "type": "function"
    },
    {
      "inputs": [],
      "name": "getBlacklistedAddresses",
      "outputs": [
        {
          "internalType": "address[]",
          "name": "",
          "type": "address[]"
        }
      ],
      "stateMutability": "view",
      "type": "function"
    },
    {
      "inputs": [],
      "name": "getBuyers",
      "outputs": [
        {
          "internalType": "address[]",
          "name": "",
          "type": "address[]"
        }
      ],
      "stateMutability": "view",
      "type": "function"
    },
    {
      "inputs": [],
      "name": "getCurrentSchedule",
      "outputs": [
        {
          "internalType": "uint256",
          "name": "schedule",
          "type": "uint256"
        }
      ],
      "stateMutability": "view",
      "type": "function"
    },
    {
      "inputs": [
        {
          "internalType": "address",
          "name": "_address",
          "type": "address"
        }
      ],
      "name": "getMyPurchases",
      "outputs": [
        {
          "internalType": "uint256[]",
          "name": "",
          "type": "uint256[]"
        }
      ],
      "stateMutability": "view",
      "type": "function"
    },
    {
      "inputs": [],
      "name": "getMyPurchases_msgSender",
      "outputs": [
        {
          "internalType": "uint256[]",
          "name": "",
          "type": "uint256[]"
        }
      ],
      "stateMutability": "view",
      "type": "function"
    },
    {
      "inputs": [
        {
          "internalType": "uint256",
          "name": "purchase_id",
          "type": "uint256"
        }
      ],
      "name": "getPurchase",
      "outputs": [
        {
          "internalType": "uint256",
          "name": "amount",
          "type": "uint256"
        },
        {
          "internalType": "address",
          "name": "purchaser",
          "type": "address"
        },
        {
          "internalType": "uint256",
          "name": "costAmount",
          "type": "uint256"
        },
        {
          "internalType": "uint48",
          "name": "timestamp",
          "type": "uint48"
        },
        {
          "internalType": "bool",
          "name": "wasFinalized",
          "type": "bool"
        },
        {
          "internalType": "bool",
          "name": "reverted",
          "type": "bool"
        },
        {
          "internalType": "uint256",
          "name": "amountRedeemed",
          "type": "uint256"
        }
      ],
      "stateMutability": "view",
      "type": "function"
    },
    {
      "inputs": [],
      "name": "getPurchasesCount",
      "outputs": [
        {
          "internalType": "uint256",
          "name": "count",
          "type": "uint256"
        }
      ],
      "stateMutability": "view",
      "type": "function"
    },
    {
      "inputs": [
        {
          "internalType": "uint256",
          "name": "purchase_id",
          "type": "uint256"
        }
      ],
      "name": "getRedeemStatus",
      "outputs": [
        {
          "internalType": "uint256",
          "name": "amount",
          "type": "uint256"
        },
        {
          "internalType": "uint256",
          "name": "amountRedeemed",
          "type": "uint256"
        },
        {
          "internalType": "uint256",
          "name": "vestAmount",
          "type": "uint256"
        },
        {
          "internalType": "string",
          "name": "message",
          "type": "string"
        }
      ],
      "stateMutability": "view",
      "type": "function"
    },
    {
      "inputs": [
        {
          "internalType": "uint256",
          "name": "purchase_id",
          "type": "uint256"
        }
      ],
      "name": "getRedeemableTokensAmount",
      "outputs": [
        {
          "internalType": "uint256",
          "name": "amount",
          "type": "uint256"
        },
        {
          "internalType": "string",
          "name": "message",
          "type": "string"
        }
      ],
      "stateMutability": "view",
      "type": "function"
    },
    {
      "inputs": [
        {
          "internalType": "bytes32",
          "name": "role",
          "type": "bytes32"
        }
      ],
      "name": "getRoleAdmin",
      "outputs": [
        {
          "internalType": "bytes32",
          "name": "",
          "type": "bytes32"
        }
      ],
      "stateMutability": "view",
      "type": "function"
    },
    {
      "inputs": [
        {
          "internalType": "uint256",
          "name": "_value",
          "type": "uint256"
        }
      ],
      "name": "getTokenAmountForETH",
      "outputs": [
        {
          "internalType": "uint256",
          "name": "",
          "type": "uint256"
        }
      ],
      "stateMutability": "view",
      "type": "function"
    },
    {
      "inputs": [],
      "name": "getWhitelistedAddresses",
      "outputs": [
        {
          "internalType": "address[]",
          "name": "",
          "type": "address[]"
        }
      ],
      "stateMutability": "view",
      "type": "function"
    },
    {
      "inputs": [
        {
          "internalType": "bytes32",
          "name": "role",
          "type": "bytes32"
        },
        {
          "internalType": "address",
          "name": "account",
          "type": "address"
        }
      ],
      "name": "grantRole",
      "outputs": [],
      "stateMutability": "nonpayable",
      "type": "function"
    },
    {
      "inputs": [],
      "name": "hasFinalized",
      "outputs": [
        {
          "internalType": "bool",
          "name": "",
          "type": "bool"
        }
      ],
      "stateMutability": "view",
      "type": "function"
    },
    {
      "inputs": [],
      "name": "hasMinimumAmount",
      "outputs": [
        {
          "internalType": "bool",
          "name": "",
          "type": "bool"
        }
      ],
      "stateMutability": "view",
      "type": "function"
    },
    {
      "inputs": [],
      "name": "hasMinimumRaise",
      "outputs": [
        {
          "internalType": "bool",
          "name": "",
          "type": "bool"
        }
      ],
      "stateMutability": "view",
      "type": "function"
    },
    {
      "inputs": [
        {
          "internalType": "bytes32",
          "name": "role",
          "type": "bytes32"
        },
        {
          "internalType": "address",
          "name": "account",
          "type": "address"
        }
      ],
      "name": "hasRole",
      "outputs": [
        {
          "internalType": "bool",
          "name": "",
          "type": "bool"
        }
      ],
      "stateMutability": "view",
      "type": "function"
    },
    {
      "inputs": [],
      "name": "hasStarted",
      "outputs": [
        {
          "internalType": "bool",
          "name": "",
          "type": "bool"
        }
      ],
      "stateMutability": "view",
      "type": "function"
    },
    {
      "inputs": [],
      "name": "hasWhitelisting",
      "outputs": [
        {
          "internalType": "bool",
          "name": "",
          "type": "bool"
        }
      ],
      "stateMutability": "view",
      "type": "function"
    },
    {
      "inputs": [],
      "name": "individualMaximumAmount",
      "outputs": [
        {
          "internalType": "uint256",
          "name": "",
          "type": "uint256"
        }
      ],
      "stateMutability": "view",
      "type": "function"
    },
    {
      "inputs": [],
      "name": "individualMinimumAmount",
      "outputs": [
        {
          "internalType": "uint256",
          "name": "",
          "type": "uint256"
        }
      ],
      "stateMutability": "view",
      "type": "function"
    },
    {
      "inputs": [
        {
          "internalType": "address",
          "name": "_account",
          "type": "address"
        }
      ],
      "name": "isAddressPOLSWhitelisted",
      "outputs": [
        {
          "internalType": "bool",
          "name": "",
          "type": "bool"
        }
      ],
      "stateMutability": "view",
      "type": "function"
    },
    {
      "inputs": [
        {
          "internalType": "address",
          "name": "_address",
          "type": "address"
        }
      ],
      "name": "isBlacklisted",
      "outputs": [
        {
          "internalType": "bool",
          "name": "",
          "type": "bool"
        }
      ],
      "stateMutability": "view",
      "type": "function"
    },
    {
      "inputs": [
        {
          "internalType": "uint256",
          "name": "purchase_id",
          "type": "uint256"
        }
      ],
      "name": "isBuyer",
      "outputs": [
        {
          "internalType": "bool",
          "name": "",
          "type": "bool"
        }
      ],
      "stateMutability": "view",
      "type": "function"
    },
    {
      "inputs": [],
      "name": "isETHTrade",
      "outputs": [
        {
          "internalType": "bool",
          "name": "",
          "type": "bool"
        }
      ],
      "stateMutability": "view",
      "type": "function"
    },
    {
      "inputs": [],
      "name": "isOpen",
      "outputs": [
        {
          "internalType": "bool",
          "name": "",
          "type": "bool"
        }
      ],
      "stateMutability": "view",
      "type": "function"
    },
    {
      "inputs": [],
      "name": "isPOLSWhitelisted",
      "outputs": [
        {
          "internalType": "bool",
          "name": "",
          "type": "bool"
        }
      ],
      "stateMutability": "view",
      "type": "function"
    },
    {
      "inputs": [],
      "name": "isPreStart",
      "outputs": [
        {
          "internalType": "bool",
          "name": "",
          "type": "bool"
        }
      ],
      "stateMutability": "view",
      "type": "function"
    },
    {
      "inputs": [],
      "name": "isSaleFunded",
      "outputs": [
        {
          "internalType": "bool",
          "name": "",
          "type": "bool"
        }
      ],
      "stateMutability": "view",
      "type": "function"
    },
    {
      "inputs": [
        {
          "internalType": "address",
          "name": "_userAccountAaddress",
          "type": "address"
        },
        {
          "internalType": "uint256",
          "name": "_accountMaximunAllocation",
          "type": "uint256"
        },
        {
          "internalType": "bytes",
          "name": "signature",
          "type": "bytes"
        }
      ],
      "name": "isSignerForAddressMaxAlloc",
      "outputs": [
        {
          "internalType": "bool",
          "name": "",
          "type": "bool"
        }
      ],
      "stateMutability": "view",
      "type": "function"
    },
    {
      "inputs": [
        {
          "internalType": "bytes32",
          "name": "hash",
          "type": "bytes32"
        },
        {
          "internalType": "bytes",
          "name": "signature",
          "type": "bytes"
        }
      ],
      "name": "isSignerFromBytes32",
      "outputs": [
        {
          "internalType": "bool",
          "name": "",
          "type": "bool"
        }
      ],
      "stateMutability": "view",
      "type": "function"
    },
    {
      "inputs": [],
      "name": "isTokenSwapAtomic",
      "outputs": [
        {
          "internalType": "bool",
          "name": "",
          "type": "bool"
        }
      ],
      "stateMutability": "view",
      "type": "function"
    },
    {
      "inputs": [
        {
          "internalType": "address",
          "name": "_address",
          "type": "address"
        }
      ],
      "name": "isWhitelisted",
      "outputs": [
        {
          "internalType": "bool",
          "name": "",
          "type": "bool"
        }
      ],
      "stateMutability": "view",
      "type": "function"
    },
    {
      "inputs": [],
      "name": "localETHDepositArbitrum",
      "outputs": [
        {
          "internalType": "address",
          "name": "",
          "type": "address"
        }
      ],
      "stateMutability": "view",
      "type": "function"
    },
    {
      "inputs": [],
      "name": "localETHDepositOptimism",
      "outputs": [
        {
          "internalType": "address",
          "name": "",
          "type": "address"
        }
      ],
      "stateMutability": "view",
      "type": "function"
    },
    {
      "inputs": [],
      "name": "minimumRaise",
      "outputs": [
        {
          "internalType": "uint256",
          "name": "",
          "type": "uint256"
        }
      ],
      "stateMutability": "view",
      "type": "function"
    },
    {
      "inputs": [],
      "name": "minimumRaiseAchieved",
      "outputs": [
        {
          "internalType": "bool",
          "name": "",
          "type": "bool"
        }
      ],
      "stateMutability": "view",
      "type": "function"
    },
    {
      "inputs": [],
      "name": "minimumRaiseNotAchieved",
      "outputs": [
        {
          "internalType": "bool",
          "name": "",
          "type": "bool"
        }
      ],
      "stateMutability": "view",
      "type": "function"
    },
    {
      "inputs": [
        {
          "internalType": "address",
          "name": "",
          "type": "address"
        },
        {
          "internalType": "uint256",
          "name": "",
          "type": "uint256"
        }
      ],
      "name": "myPurchases",
      "outputs": [
        {
          "internalType": "uint256",
          "name": "",
          "type": "uint256"
        }
      ],
      "stateMutability": "view",
      "type": "function"
    },
    {
      "inputs": [
        {
          "components": [
            {
              "internalType": "bytes32",
              "name": "sourceTxHash",
              "type": "bytes32"
            },
            {
              "internalType": "string",
              "name": "sourceChain",
              "type": "string"
            },
            {
              "internalType": "string",
              "name": "destChain",
              "type": "string"
            },
            {
              "internalType": "uint64",
              "name": "nonce",
              "type": "uint64"
            },
            {
              "internalType": "address",
              "name": "from",
              "type": "address"
            },
            {
              "internalType": "address",
              "name": "to",
              "type": "address"
            },
            {
              "internalType": "uint256",
              "name": "value",
              "type": "uint256"
            },
            {
              "internalType": "uint256",
              "name": "paid",
              "type": "uint256"
            },
            {
              "internalType": "uint64",
              "name": "gasLimit",
              "type": "uint64"
            },
            {
              "internalType": "bytes",
              "name": "data",
              "type": "bytes"
            }
          ],
          "internalType": "struct OmniCodec.Tx",
          "name": "_xtx",
          "type": "tuple"
        },
        {
          "internalType": "address",
          "name": "_sender",
          "type": "address"
        },
        {
          "internalType": "uint256",
          "name": "_gasSpent",
          "type": "uint256"
        }
      ],
      "name": "onXChainTxReverted",
      "outputs": [],
      "stateMutability": "nonpayable",
      "type": "function"
    },
    {
      "inputs": [
        {
          "components": [
            {
              "internalType": "bytes32",
              "name": "sourceTxHash",
              "type": "bytes32"
            },
            {
              "internalType": "string",
              "name": "sourceChain",
              "type": "string"
            },
            {
              "internalType": "string",
              "name": "destChain",
              "type": "string"
            },
            {
              "internalType": "uint64",
              "name": "nonce",
              "type": "uint64"
            },
            {
              "internalType": "address",
              "name": "from",
              "type": "address"
            },
            {
              "internalType": "address",
              "name": "to",
              "type": "address"
            },
            {
              "internalType": "uint256",
              "name": "value",
              "type": "uint256"
            },
            {
              "internalType": "uint256",
              "name": "paid",
              "type": "uint256"
            },
            {
              "internalType": "uint64",
              "name": "gasLimit",
              "type": "uint64"
            },
            {
              "internalType": "bytes",
              "name": "data",
              "type": "bytes"
            }
          ],
          "internalType": "struct OmniCodec.Tx",
          "name": "_xtx",
          "type": "tuple"
        },
        {
          "internalType": "address",
          "name": "_sender",
          "type": "address"
        },
        {
          "internalType": "bytes",
          "name": "_returnValue",
          "type": "bytes"
        },
        {
          "internalType": "uint256",
          "name": "_gasSpent",
          "type": "uint256"
        }
      ],
      "name": "onXChainTxSuccess",
      "outputs": [],
      "stateMutability": "nonpayable",
      "type": "function"
    },
    {
      "inputs": [],
      "name": "pause",
      "outputs": [],
      "stateMutability": "nonpayable",
      "type": "function"
    },
    {
      "inputs": [],
      "name": "paused",
      "outputs": [
        {
          "internalType": "bool",
          "name": "",
          "type": "bool"
        }
      ],
      "stateMutability": "view",
      "type": "function"
    },
    {
      "inputs": [
        {
          "internalType": "uint256",
          "name": "purchase_id",
          "type": "uint256"
        }
      ],
      "name": "purchaseExists",
      "outputs": [
        {
          "internalType": "bool",
          "name": "",
          "type": "bool"
        }
      ],
      "stateMutability": "view",
      "type": "function"
    },
    {
      "inputs": [
        {
          "internalType": "uint256",
          "name": "",
          "type": "uint256"
        }
      ],
      "name": "purchases",
      "outputs": [
        {
          "internalType": "address",
          "name": "purchaser",
          "type": "address"
        },
        {
          "internalType": "uint48",
          "name": "timestamp",
          "type": "uint48"
        },
        {
          "internalType": "bool",
          "name": "wasFinalized",
          "type": "bool"
        },
        {
          "internalType": "bool",
          "name": "reverted",
          "type": "bool"
        },
        {
          "internalType": "uint256",
          "name": "amount",
          "type": "uint256"
        },
        {
          "internalType": "uint256",
          "name": "costAmount",
          "type": "uint256"
        },
        {
          "internalType": "uint256",
          "name": "amountRedeemed",
          "type": "uint256"
        }
      ],
      "stateMutability": "view",
      "type": "function"
    },
    {
      "inputs": [
        {
          "internalType": "bytes32",
          "name": "hash",
          "type": "bytes32"
        },
        {
          "internalType": "bytes",
          "name": "signature",
          "type": "bytes"
        }
      ],
      "name": "recoverSignerAddressFromBytes32",
      "outputs": [
        {
          "internalType": "address",
          "name": "",
          "type": "address"
        }
      ],
      "stateMutability": "pure",
      "type": "function"
    },
    {
      "inputs": [
        {
          "internalType": "uint256",
          "name": "purchase_id",
          "type": "uint256"
        }
      ],
      "name": "redeemTokens",
      "outputs": [],
      "stateMutability": "nonpayable",
      "type": "function"
    },
    {
      "inputs": [
        {
          "internalType": "address",
          "name": "_address",
          "type": "address"
        }
      ],
      "name": "removeFromBlacklist",
      "outputs": [],
      "stateMutability": "nonpayable",
      "type": "function"
    },
    {
      "inputs": [
        {
          "internalType": "address",
          "name": "_address",
          "type": "address"
        }
      ],
      "name": "removeFromWhitelist",
      "outputs": [],
      "stateMutability": "nonpayable",
      "type": "function"
    },
    {
      "inputs": [
        {
          "internalType": "address",
          "name": "_tokenAddress",
          "type": "address"
        },
        {
          "internalType": "address",
          "name": "_to",
          "type": "address"
        }
      ],
      "name": "removeOtherERC20Tokens",
      "outputs": [],
      "stateMutability": "nonpayable",
      "type": "function"
    },
    {
      "inputs": [
        {
          "internalType": "bytes32",
          "name": "role",
          "type": "bytes32"
        },
        {
          "internalType": "address",
          "name": "account",
          "type": "address"
        }
      ],
      "name": "renounceRole",
      "outputs": [],
      "stateMutability": "nonpayable",
      "type": "function"
    },
    {
      "inputs": [
        {
          "internalType": "bytes32",
          "name": "role",
          "type": "bytes32"
        },
        {
          "internalType": "address",
          "name": "account",
          "type": "address"
        }
      ],
      "name": "revokeRole",
      "outputs": [],
      "stateMutability": "nonpayable",
      "type": "function"
    },
    {
      "inputs": [],
      "name": "safePullETH",
      "outputs": [],
      "stateMutability": "nonpayable",
      "type": "function"
    },
    {
      "inputs": [],
      "name": "safePullSaleToken",
      "outputs": [],
      "stateMutability": "nonpayable",
      "type": "function"
    },
    {
      "inputs": [],
      "name": "safePullTradeToken",
      "outputs": [],
      "stateMutability": "nonpayable",
      "type": "function"
    },
    {
      "inputs": [
        {
          "internalType": "uint256",
          "name": "_endDate",
          "type": "uint256"
        }
      ],
      "name": "setEndDate",
      "outputs": [],
      "stateMutability": "nonpayable",
      "type": "function"
    },
    {
      "inputs": [
        {
          "internalType": "bool",
          "name": "_hasWhitelisting",
          "type": "bool"
        }
      ],
      "name": "setHasWhitelisting",
      "outputs": [],
      "stateMutability": "nonpayable",
      "type": "function"
    },
    {
      "inputs": [
        {
          "internalType": "uint256",
          "name": "_individualMaximumAmount",
          "type": "uint256"
        }
      ],
      "name": "setIndividualMaximumAmount",
      "outputs": [],
      "stateMutability": "nonpayable",
      "type": "function"
    },
    {
      "inputs": [
        {
          "internalType": "address",
          "name": "_localETHDepositArbitrum",
          "type": "address"
        }
      ],
      "name": "setLocalETHDepositArbitrum",
      "outputs": [],
      "stateMutability": "nonpayable",
      "type": "function"
    },
    {
      "inputs": [
        {
          "internalType": "address",
          "name": "_localETHDepositOptimism",
          "type": "address"
        }
      ],
      "name": "setLocalETHDepositOptimism",
      "outputs": [],
      "stateMutability": "nonpayable",
      "type": "function"
    },
    {
      "inputs": [
        {
          "internalType": "address",
          "name": "_PolsStakeAddress",
          "type": "address"
        },
        {
          "internalType": "uint256",
          "name": "_PolsStakeAmount",
          "type": "uint256"
        },
        {
          "internalType": "uint256",
          "name": "_PolsStakeRewards",
          "type": "uint256"
        }
      ],
      "name": "setPolsStakingRequirement",
      "outputs": [],
      "stateMutability": "nonpayable",
      "type": "function"
    },
    {
      "inputs": [
        {
          "internalType": "address",
          "name": "_signerPublicAddress",
          "type": "address"
        }
      ],
      "name": "setSignerPublicAddress",
      "outputs": [],
      "stateMutability": "nonpayable",
      "type": "function"
    },
    {
      "inputs": [
        {
          "internalType": "address",
          "name": "_stakingRewardsAddress",
          "type": "address"
        }
      ],
      "name": "setStakingRewards",
      "outputs": [],
      "stateMutability": "nonpayable",
      "type": "function"
    },
    {
      "inputs": [
        {
          "internalType": "uint256",
          "name": "_startDate",
          "type": "uint256"
        }
      ],
      "name": "setStartDate",
      "outputs": [],
      "stateMutability": "nonpayable",
      "type": "function"
    },
    {
      "inputs": [
        {
          "internalType": "uint256",
          "name": "_tradeValue",
          "type": "uint256"
        }
      ],
      "name": "setTradeValue",
      "outputs": [],
      "stateMutability": "nonpayable",
      "type": "function"
    },
    {
      "inputs": [
        {
          "internalType": "uint256",
          "name": "_vestingStart",
          "type": "uint256"
        },
        {
          "internalType": "uint256",
          "name": "_vestingCliff",
          "type": "uint256"
        },
        {
          "internalType": "uint256",
          "name": "_vestingDuration",
          "type": "uint256"
        },
        {
          "internalType": "uint256[]",
          "name": "_vestingSchedule",
          "type": "uint256[]"
        }
      ],
      "name": "setVesting",
      "outputs": [],
      "stateMutability": "nonpayable",
      "type": "function"
    },
    {
      "inputs": [],
      "name": "signerPublicAddress",
      "outputs": [
        {
          "internalType": "address",
          "name": "",
          "type": "address"
        }
      ],
      "stateMutability": "view",
      "type": "function"
    },
    {
      "inputs": [],
      "name": "stakingRewardsAddress",
      "outputs": [
        {
          "internalType": "address",
          "name": "",
          "type": "address"
        }
      ],
      "stateMutability": "view",
      "type": "function"
    },
    {
      "inputs": [],
      "name": "startDate",
      "outputs": [
        {
          "internalType": "uint256",
          "name": "",
          "type": "uint256"
        }
      ],
      "stateMutability": "view",
      "type": "function"
    },
    {
      "inputs": [
        {
          "internalType": "bytes4",
          "name": "interfaceId",
          "type": "bytes4"
        }
      ],
      "name": "supportsInterface",
      "outputs": [
        {
          "internalType": "bool",
          "name": "",
          "type": "bool"
        }
      ],
      "stateMutability": "view",
      "type": "function"
    },
    {
      "inputs": [
        {
          "internalType": "uint256",
          "name": "_amount",
          "type": "uint256"
        },
        {
          "internalType": "bytes",
          "name": "_signature",
          "type": "bytes"
        }
      ],
      "name": "swap",
      "outputs": [],
      "stateMutability": "payable",
      "type": "function"
    },
    {
      "inputs": [
        {
          "internalType": "uint256",
          "name": "_amount",
          "type": "uint256"
        },
        {
          "internalType": "uint256",
          "name": "_accountMaxAmount",
          "type": "uint256"
        },
        {
          "internalType": "bytes",
          "name": "_signature",
          "type": "bytes"
        }
      ],
      "name": "swapWithSig",
      "outputs": [],
      "stateMutability": "payable",
      "type": "function"
    },
    {
      "inputs": [
        {
          "internalType": "address",
          "name": "userAccount",
          "type": "address"
        },
        {
          "internalType": "uint256",
          "name": "value",
          "type": "uint256"
        }
      ],
      "name": "swapXchain",
      "outputs": [],
      "stateMutability": "nonpayable",
      "type": "function"
    },
    {
      "inputs": [],
      "name": "tokensAllocated",
      "outputs": [
        {
          "internalType": "uint256",
          "name": "",
          "type": "uint256"
        }
      ],
      "stateMutability": "view",
      "type": "function"
    },
    {
      "inputs": [],
      "name": "tokensForSale",
      "outputs": [
        {
          "internalType": "uint256",
          "name": "",
          "type": "uint256"
        }
      ],
      "stateMutability": "view",
      "type": "function"
    },
    {
      "inputs": [],
      "name": "tokensLeft",
      "outputs": [
        {
          "internalType": "uint256",
          "name": "",
          "type": "uint256"
        }
      ],
      "stateMutability": "view",
      "type": "function"
    },
    {
      "inputs": [],
      "name": "totalRaiseCost",
      "outputs": [
        {
          "internalType": "uint256",
          "name": "",
          "type": "uint256"
        }
      ],
      "stateMutability": "view",
      "type": "function"
    },
    {
      "inputs": [],
      "name": "tradeValue",
      "outputs": [
        {
          "internalType": "uint256",
          "name": "",
          "type": "uint256"
        }
      ],
      "stateMutability": "view",
      "type": "function"
    },
    {
      "inputs": [
        {
          "internalType": "uint256",
          "name": "purchase_id",
          "type": "uint256"
        },
        {
          "internalType": "bool",
          "name": "stake",
          "type": "bool"
        }
      ],
      "name": "transferTokens",
      "outputs": [],
      "stateMutability": "nonpayable",
      "type": "function"
    },
    {
      "inputs": [],
      "name": "unpause",
      "outputs": [],
      "stateMutability": "nonpayable",
      "type": "function"
    },
    {
      "inputs": [],
      "name": "unsoldTokensRedeemed",
      "outputs": [
        {
          "internalType": "bool",
          "name": "",
          "type": "bool"
        }
      ],
      "stateMutability": "view",
      "type": "function"
    },
    {
      "inputs": [],
      "name": "vestingCliff",
      "outputs": [
        {
          "internalType": "uint256",
          "name": "",
          "type": "uint256"
        }
      ],
      "stateMutability": "view",
      "type": "function"
    },
    {
      "inputs": [],
      "name": "vestingDuration",
      "outputs": [
        {
          "internalType": "uint256",
          "name": "",
          "type": "uint256"
        }
      ],
      "stateMutability": "view",
      "type": "function"
    },
    {
      "inputs": [
        {
          "internalType": "uint256",
          "name": "",
          "type": "uint256"
        }
      ],
      "name": "vestingSchedule",
      "outputs": [
        {
          "internalType": "uint256",
          "name": "",
          "type": "uint256"
        }
      ],
      "stateMutability": "view",
      "type": "function"
    },
    {
      "inputs": [],
      "name": "vestingStart",
      "outputs": [
        {
          "internalType": "uint256",
          "name": "",
          "type": "uint256"
        }
      ],
      "stateMutability": "view",
      "type": "function"
    },
    {
      "inputs": [],
      "name": "vestingTime",
      "outputs": [
        {
          "internalType": "uint256",
          "name": "",
          "type": "uint256"
        }
      ],
      "stateMutability": "view",
      "type": "function"
    },
    {
      "inputs": [],
      "name": "withdrawFunds",
      "outputs": [],
      "stateMutability": "nonpayable",
      "type": "function"
    },
    {
      "inputs": [],
      "name": "withdrawUnsoldTokens",
      "outputs": [],
      "stateMutability": "nonpayable",
      "type": "function"
    }
  ],
  "bytecode": "0x6080346200070e57601f62005d7338819003918201601f19168301916001600160401b038311848410176200071357808492610180946040528339810103126200070e576200004e8162000729565b90602081015191604082015192606083015160808401519160a08501519560c08601519360e0870151801515036200070e5761010087015193610120880151986101408901519863ffffffff8a168a036200070e57610160620000b2910162000729565b6000805460ff191681556002805460ff60a01b1990811690915533825260008051602062005d3383398151915260205260409091205491989160ff1615620006ba575b7389b41a6e5ab74fcb9771a3356986185f67f9214c60005260008051602062005d3383398151915260205260008051602062005cf38339815191525460ff161562000645575b60028054919091168b8216151560a01b60ff60a01b16179055600382905533600090815260008051602062005d33833981519152602052604090205460ff16156200060057818110620005bb5760045533600090815260008051602062005cd3833981519152602052604090205460ff161562000578575b7389b41a6e5ab74fcb9771a3356986185f67f9214c60005260008051602062005cd383398151915260205260008051602062005d538339815191525460ff161562000514575b81421015620004cf5783156200049657831062000451578285116200040c5760638911620003c757600863ffffffff891610156200038257601481905533600090815260008051602062005cd3833981519152602052604090205460ff16156200033d57811115620002f8576015556018556013556001841615620002ef5750600160ff1960125416176012555b600f80546001600160a01b03199081166001600160a01b039485161790915591169081620002df575b505061ff0060046012549216151560081b169061ff0019161760125560115560405161557490816200073f8239f35b60105416176010553880620002b0565b60165562000287565b60405162461bcd60e51b815260206004820152601a60248201527f656e642064617465206265666f726520737461727420646174650000000000006044820152606490fd5b60405162461bcd60e51b815260206004820152601960248201527f63616c6c657220686173206e6f742061646d696e20726f6c65000000000000006044820152606490fd5b60405162461bcd60e51b815260206004820152601560248201527f756e737570706f7274656420666c6167732073657400000000000000000000006044820152606490fd5b60405162461bcd60e51b815260206004820152601e60248201527f4665652050657263656e746167652068617320746f206265203c2031303000006044820152606490fd5b60405162461bcd60e51b815260206004820152601c60248201527f6d696e696d756d5261697365203e20746f6b656e73466f7253616c65000000006044820152606490fd5b60405162461bcd60e51b815260206004820152601e60248201527f746f6b656e73466f7253616c65203c20696e646976696475616c206d696e00006044820152606490fd5b60405162461bcd60e51b81526020600482015260116024820152706e6f20746f6b656e20666f722073616c6560781b6044820152606490fd5b60405162461bcd60e51b815260206004820152601960248201527f7374617274206461746520697320696e207468652070617374000000000000006044820152606490fd5b7389b41a6e5ab74fcb9771a3356986185f67f9214c600081815260008051602062005cd383398151915260205260008051602062005d53833981519152805460ff1916600117905533919060008051602062005cb38339815191528180a4620001f9565b33600081815260008051602062005cd383398151915260205260408120805460ff19166001179055819060008051602062005cb38339815191528180a4620001b3565b60405162461bcd60e51b815260206004820152601b60248201527f696e646976696475616c206d6178203c206d696e20616d6f756e7400000000006044820152606490fd5b60405162461bcd60e51b815260206004820152601c60248201527f63616c6c6572206973206e6f742057686974656c6973744f776e6572000000006044820152606490fd5b7389b41a6e5ab74fcb9771a3356986185f67f9214c600081815260008051602062005d3383398151915260205260008051602062005cf3833981519152805460ff1916600117905533919060008051602062005d138339815191529060008051602062005cb38339815191529080a46200013b565b33600081815260008051602062005d3383398151915260205260408120805460ff19166001179055819060008051602062005d138339815191529060008051602062005cb38339815191529080a4620000f5565b600080fd5b634e487b7160e01b600052604160045260246000fd5b51906001600160a01b03821682036200070e5756fe608060408181526004918236101561001657600080fd5b600090813560e01c90816301ffc9a714613721575080630274fa98146136d7578063044c0cc5146136ad5780630766234514613686578063082392101461162957806308abd7ff146135ac5780630b97bc861461358d57806312aef8c31461356e57806313430f011461354f5780631514617e1461353057806315b578661461350f578063161a7b2a146134e85780631ee5dfcd146130365780632140f89f14612fe457806321d3002a14612fc057806324600fc314612de0578063248a9ca314612db6578063254800d414612d975780632593ea1714612d73578063273e96e914612d4d5780632e15410714612d2e5780632ebb5c1e14612d0d5780632f2ff15d14612c605780633070b98d1461294457806331d06af31461291b57806336568abe1461288a5780633742a9f7146127865780633784f000146127325780633af32abf146126f55780633b6577c8146126bb5780633bbab179146126545780633f4ba83a146125e85780634089aa9a146125c657806344337ea11461256557806344691f7e1461254357806347535d7b14612526578063537df3b6146124c55780635ac699bb1461247d5780635c975abb1461245b5780635f635f9a146120eb5780636295a2f4146120cc578063658f2dfe14611cac5780636901c28d14611c8357806369bb4dc214611c665780636d02802714611bdd5780636eaaabd514611b4c5780636fb83a5714611b0e57806370a898bc14611aed57806374fa05fb14611aca578063751ef93d14611aa5578063755e3e2814611a8657806376807e5f14611a07578063785e9e86146119de578063788bff68146119b5578063799bb2321461198e5780637f7b27121461196e57806382974f301461194557806382d95df5146118975780638392fe311461180f5780638456cb59146117a057806388b0fe2b146116e55780638a1a5f3f146116c85780638ab1d681146116675780638e75b131146116485780639097548d14611629578063917c854d146114bd578063919bd9301461148457806391d148541461143d578063948384141461141657806396a32bc4146113b05780639baf1979146113945780639d90a46e146112ba5780639e0552aa1461126e578063a001ecdd1461124f578063a1c09bf114611230578063a217fddf14611215578063a6e158f814611074578063b0b12ac314611056578063b31f8f9314611032578063b367940e1461100e578063b869178714610fd0578063ba40a96a14610fa7578063bd0625ab14610bfc578063bf135abe14610bd3578063c24a0f8b14610bb4578063c3ca324f14610b8d578063c7dab43614610b70578063c8bdbfb614610ac6578063ca1d209d14610a02578063d0a4a895146109db578063d10dbdf5146109a0578063d547741f14610962578063d8bdbd2814610924578063dbb57ac8146108e0578063dc91b0721461084b578063e12917e2146107f2578063e4101de5146107d4578063e43252d71461074a578063e4a8025214610718578063e8b882f4146106ef578063eb1edd61146106c0578063efbb34d514610699578063f267d48c1461067a578063f2aa82181461061f578063f3640e7414610600578063f64bfaba14610574578063fce9d11b14610546578063fe575a87146105085763fecf415a146104d357600080fd5b3461050557602036600319011261050557506104f160209235613c0d565b5060018060a01b0390541633149051908152f35b80fd5b5090346105425760203660031901126105425760209181906001600160a01b03610530613775565b16815260088452205415159051908152f35b5080fd5b5090346105425781600319360112610542576105709061056533614336565b905191829182613c47565b0390f35b50346105055780600319360112610505578151918291601e54808552602080950194601e83527f50bb669a95c7b50b7e8a6f09454034b2b14cf2b85c730dca9a539ca82cb6e35092905b8282106105e05761057086866105d6828b0383613821565b5191829182613a82565b83546001600160a01b0316875295860195600193840193909101906105be565b509034610542578160031936011261054257602090601a549051908152f35b5091346106765760203660031901126106765735601e5481101561067657601e6020935260018060a01b03907f50bb669a95c7b50b7e8a6f09454034b2b14cf2b85c730dca9a539ca82cb6e3500154169051908152f35b8280fd5b509034610542578160031936011261054257602090600e549051908152f35b5090346105425781600319360112610542576020906106b960185461429f565b9051908152f35b5090346105425781600319360112610542576020905173aeb39b67f27b641ef9f95fb74f1a46b1ee4efc838152f35b509034610542578160031936011261054257602090516000805160206155488339815191528152f35b5090346105425760209061073461072e36613bde565b90615117565b60018060a01b0380600254169116149051908152f35b5090346105425760203660031901126105425761079360ff61076a613775565b926000805160206155488339815191528552600160205280852033865260205284205416614e99565b6001600160a01b03166107a581614ee5565b6107ad575080f35b7fa850ae9193f515cbae8d35e8925bd2be26627fc91bce650b8652ed254e9cab038280a280f35b50913461067657826003193601126106765760209250549051908152f35b5090346105425760203660031901126105425761082d60ff610812613775565b928480526001602052808520338652602052842054166140a3565b60018060a01b03166001600160601b0360a01b600a541617600a5580f35b509134610676576020366003190112610676578035916000805160206155488339815191528452600160205280842033855260205261088f60ff8286205416614e99565b600354831061089d57505580f35b906020606492519162461bcd60e51b8352820152601b60248201527f696e646976696475616c206d6178203c206d696e20616d6f756e7400000000006044820152fd5b503461050557602036600319011261050557506109006105709235614dbf565b91949293805195869586526020860152840152608060608401526080830190613a5d565b5090346105425760203660031901126105425761094460ff610812613775565b60018060a01b03166001600160601b0360a01b600b541617600b5580f35b5091903461067657806003193601126106765761099d91356109986001610987613790565b938387528160205286200154613c82565b613f7d565b80f35b509190346106765760203660031901126106765760ff6109d4918480526001602052808520338652602052842054166140a3565b3560135580f35b50903461054257816003193601126105425760209060ff60125460081c1690519015158152f35b50913461067657602036600319011261067657803591610a256014544210614057565b610a3683610a31614210565b61401c565b60185410610a8357600f548490610a5b908590309033906001600160a01b03166144aa565b610a63614210565b6018541115610a6f5780f35b6201000062ff000019601254161760125580f35b906020606492519162461bcd60e51b8352820152602060248201527f6d6f726520746f6b656e73207468616e206e656564656420666f722073616c656044820152fd5b50903461054257816003193601126105425760ff610af8918380526001602052808420338552602052832054166140a3565b610b06601554421015614e04565b60125460ff8160181c1661054257601754601654811015610b5f57506018545b80610b2f578280f35b63ff00000019909116630100000017601255600f54610b59919033906001600160a01b0316614964565b81808280f35b610b6b906018546141a9565b610b26565b5090346105425781600319360112610542576020906106b961403a565b5090346105425760203660031901126105425761057090610565610baf613775565b614336565b5090346105425781600319360112610542576020906015549051908152f35b50903461054257816003193601126105425760105490516001600160a01b039091168152602090f35b508290826003193601126105055781359160249182356001600160401b03811161054257610c2d90369084016138fa565b610c35614920565b60ff60125460101c1615610f6a57610c4b614288565b15610f3257610c5933614399565b15610ef057610c6890336153d2565b938415610ebe576010546001600160a01b039690871680610ea157503494610c8f8361429f565b8610610e69575b610cb0610ca8601854601754906141a9565b8411156146be565b610cbe60035484101561470a565b610cca87841115614756565b338452602090601f8252828520968351808985829b54938481520190895285892092895b87828210610e5357505050610d0592500389613821565b8599869a5b89518c1015610d4557610d39610d3f916001610d308f610d2a908f6147a2565b51613c0d565b5001549061401c565b9b61419a565b9a610d0a565b90610d5f8b610d5889610dba969561401c565b11156147b6565b8660ff60125416610e3d575b5050610d764261499d565b9060ff6012541665ffffffffffff875193610d90856137ba565b338552168684015215158683015287606083015286608083015260a08201528660c0820152614802565b338552601f825282852090601d54966000198801978811610e2c5750507fbec109f7ee137de661c6887caa96653c0545050a9908a3b6eb5190440bbec864939495610e0491614178565b610e0d336148bc565b610e198460175461401c565b601755815193845242908401523392a280f35b634e487b7160e01b87526011905285fd5b610e4c913390600f5416614964565b8886610d6b565b855484526001958601958e955093019201610cee565b601385916020606494519362461bcd60e51b8552840152820152721b9bdd08195b9bdd59da08115512081cd95b9d606a1b6044820152fd5b94610eb9610eae8461429f565b8097309033906144aa565b610c96565b855162461bcd60e51b8152602081850152600d818601526c37379030b63637b1b0ba34b7b760991b6044820152606490fd5b855162461bcd60e51b81526020818501819052818601527f61646472657373206e6f742077686974656c697374656420666f7220504f4c536044820152606490fd5b855162461bcd60e51b81526020818501526013818601527239b0b632903430b9903a379031329037b832b760691b6044820152606490fd5b855162461bcd60e51b8152602081850152601881860152771d1bdad95b881cd85b19481a5cc81b9bdd08199d5b99195960421b6044820152606490fd5b50903461054257816003193601126105425760025490516001600160a01b039091168152602090f35b50903461054257602036600319011261054257610ff060ff61076a613775565b60018060a01b03166001600160601b0360a01b600254161760025580f35b50903461054257816003193601126105425760209060175460165411159051908152f35b5090346105425781600319360112610542576020906106b9601854601754906141a9565b5090346105425781600319360112610542576020905162325aa08152f35b50823461054257602036600319011261054257803561109281613c0d565b50546001600160a01b039190821633036111db576110af81614a35565b819491156111b5575060016110c383613c0d565b50015460036110d184613c0d565b50015491816110e0878561401c565b1161113f575061099d95965061110b8583611111936111018360039761401c565b1461111f5761401c565b92613c0d565b5001553390600f5416614964565b61112886613c0d565b50805460ff60d01b1916600160d01b17905561401c565b60a490602089519162461bcd60e51b8352820152604460248201527f494e5445524e414c204552524f52203a20616d6f756e7452656465656d65642060448201527f776f756c64206265206c6172676572207468656e20707572636861736520616d6064820152631bdd5b9d60e21b6084820152fd5b906111d7602092885193849362461bcd60e51b85528401526024830190613a5d565b0390fd5b845162461bcd60e51b8152602081850152601460248201527320b2323932b9b99034b9903737ba10313abcb2b960611b6044820152606490fd5b50903461054257816003193601126105425751908152602090f35b509034610542578160031936011261054257602090601d549051908152f35b5090346105425781600319360112610542576020906011549051908152f35b508234610542576060366003190112610542578035906001600160401b0382116106765761129e91369101613955565b506112a7613790565b506001614849608e1b0133036105055780f35b509034610542576112ca36613859565b906000805160206155488339815191528352600191826020528184203385526020526112fb60ff8386205416614e99565b839283815b611341575b50505081611311578280f35b7fc2f03ca34d335e49d4d629b85db054d1ffb679b4fec2e06fe10d0e618b175ecb9160209151908152a181808280f35b825181101561138f576113666001600160a01b0361135f83866147a2565b5116614f4b565b61137a575b6113749061419a565b81611300565b936113876113749161419a565b94905061136b565b611305565b509034610542576020906106b96113aa36613b99565b916154a4565b50903461054257816003193601126105425781805260016020528082203383526020526113e260ff82842054166140a3565b6113ea614e50565b818080804781811561140d575b3390f115611403575080f35b51903d90823e3d90fd5b506108fc6113f7565b50903461054257816003193601126105425760209060ff60125460181c1690519015158152f35b5091346106765781600319360112610676578160209360ff9261145e613790565b90358252600186528282206001600160a01b039091168252855220549151911615158152f35b509134610676576020366003190112610676573591601c5483101561050557506114af602092613ac6565b91905490519160031b1c8152f35b509190346106765780600319360112610676576114d8613775565b6114e0613790565b90848052602060018152838620338752815261150160ff85882054166140a3565b61150f601554421015614e04565b600f546001600160a01b039283169290811683146115e6576010541682146115a4578351946370a0823160e01b865230908601528085602481855afa93841561159b57508593611565575b5061099d9350614964565b90925083813d8311611594575b61157c8183613821565b810103126115905761099d9251913861155a565b8380fd5b503d611572565b513d87823e3d90fd5b8460649185519162461bcd60e51b8352820152601b60248201527f746f6b656e206973207468652074726164652d696e20746f6b656e00000000006044820152fd5b845162461bcd60e51b8152808701839052601b60248201527f746f6b656e2069732074686520746f6b656e20666f722073616c6500000000006044820152606490fd5b503461050557602036600319011261050557506106b96020923561429f565b5090346105425781600319360112610542576020906016549051908152f35b5090346105425760203660031901126105425761168760ff61076a613775565b6001600160a01b03166116998161506e565b6116a1575080f35b7fcdd2e9b91a56913d370075169cefa1602ba36be5301664f752192bb1709df7578280a280f35b5090346105425781600319360112610542576020906106b96141d6565b50919034610676578260031936011261067657828052602060018152818420338552815261171860ff83862054166140a3565b611720614e50565b600f5482516370a0823160e01b815230948101949094526001600160a01b0316908084602481855afa92831561179757508492611765575b5061099d92503390614964565b90915082813d8311611790575b61177c8183613821565b810103126106765761099d91519038611758565b503d611772565b513d86823e3d90fd5b50903461054257816003193601126105425760207f62e78cea01bee320cd4e420270b5ea74000d11b0c9f74754ebdbfc544b05a258918380526001825280842033855282526117f460ff82862054166140a3565b6117fc614920565b835460ff1916600117845551338152a180f35b509134610676576020366003190112610676573591601d54831015610505575061183a60e092613c0d565b50805490600181015460ff600360028401549301549385519560018060a01b038216875265ffffffffffff8260a01c166020880152828260d01c1615159087015260d81c1615156060850152608084015260a083015260c0820152f35b509134610676576020366003190112610676578035916118ba6014544210614057565b83805260016020528084203385526020526118da60ff82862054166140a3565b824210156118f75750506118f160155482106140ef565b60145580f35b906020608492519162461bcd60e51b8352820152602260248201527f737461727420646174652068617320746f20626520696e207468652066757475604482015261726560f01b6064820152fd5b509034610542578160031936011261054257600b5490516001600160a01b039091168152602090f35b5090346105425781600319360112610542576020905164e8d4a510008152f35b509034610542576020906119a461072e36613bde565b90516001600160a01b039091168152f35b50903461054257816003193601126105425760095490516001600160a01b039091168152602090f35b509034610542578160031936011261054257600f5490516001600160a01b039091168152602090f35b509190346106765782600319360112610676578280526020600181528184203385528152611a3a60ff83862054166140a3565b611a42614e50565b60105482516370a0823160e01b815230948101949094526001600160a01b0316908084602481855afa92831561179757508492611765575061099d92503390614964565b5090346105425781600319360112610542576020906017549051908152f35b50903461054257602090611ac1611abb36613b99565b9161537d565b90519015158152f35b509034610542578160031936011261054257602090601754601654119051908152f35b50903461054257816003193601126105425760209060035415159051908152f35b50903461054257602036600319011261054257611b2e60ff610812613775565b60018060a01b03166001600160601b0360a01b600954161760095580f35b509134610676576020366003190112610676573590811515809203610676577fe905f7f52156c346547b9deb6fb3e2459db941ec55d073fd465129bf4b49fae6916020916000805160206155488339815191528552600183528085203386528352611bbc60ff8287205416614e99565b6002805460ff60a01b191660a084901b60ff60a01b1617905551908152a180f35b5034610505578060031936011261050557600554611bfa81613842565b91611c0784519384613821565b818352601f19611c1683613842565b013660208501375b818110611c32578351806105708582613a82565b80611c3f611c6192613b4a565b905460039190911b1c6001600160a01b0316611c5b82866147a2565b5261419a565b611c1e565b5090346105425781600319360112610542576020906106b9614210565b509034610542578160031936011261054257600a5490516001600160a01b039091168152602090f35b5091346106765760803660031901126106765780359060248035916044908135948760648035946001600160401b039889871161159057366023880112156115905786860135998a116115905760059836898c8c1b8a0101116120c8578b95611d186014544210614057565b858052611d3960ff6001986020988a8a528181203382528a522054166140a3565b60ff6012541661208757601954801590811561207d575b501561203c5780611fe8575b828211611fa7578b159291908315611f7c576312cff780611d7e895b85613ff3565b1015611f3c57601955601a5580601b55601c548d601c558d81611ef6575b5050858b1015611daa578c80f35b15611e9957611e87578686013592655af3107a40009a8b851015611e495750505050611dd59061413b565b858110611de6575b80808080808c80f35b6000198101818111611e3757611dfe611e1291613ac6565b90548684891b870101359160031b1c61401c565b9087821015611e3157611e27611e2c9261413b565b61419a565b611dd5565b50611ddd565b634e487b7160e01b8952601183528489fd5b91601c897f66697273742076657374696e6720706572696f64203e3d203130302500000000938995519562461bcd60e51b8752860152840152820152fd5b634e487b7160e01b8b5260328552868bfd5b5084917f76657374696e6720696e74657276616c6c732070726f76696465642c206275747302076657374696e674475726174696f6e203d20360641b9260348a6084978f519762461bcd60e51b8952880152860152840152820152fd5b601c81527f0e4562a10381dec21b205ed72637e6b1b523bdd0e4d4d50af5cd23dd4500a2119182019188915b838210611f3157915050611d9c565b81550187908f611f22565b8d5162461bcd60e51b8152808a01889052601d818d01527f746f74616c2076657374696e672074696d65203e203130207965617273000000818701528690fd5b878d01808e11611f9457611d7e6312cff78091611d78565b50634e487b7160e01b8f52601189528a8ffd5b5050507f76657374696e67436c696666203e2076657374696e674475726174696f6e00008591601e89868e519562461bcd60e51b8752860152840152820152fd5b611ff2828261401c565b6015541115611d5c575050507f76657374696e67436c696666206265666f726520656e644461746500000000008591601b89868e519562461bcd60e51b8752860152840152820152fd5b5050507f76657374696e6720616c726561647920737461727465640000000000000000008591601789868e519562461bcd60e51b8752860152840152820152fd5b9050421038611d50565b5050507f6e6f2076657374696e6720666f722061746f6d696320737761700000000000008591601a89868e519562461bcd60e51b8752860152840152820152fd5b8480fd5b5090346105425781600319360112610542576020906013549051908152f35b50829060603660031901126105055781359160449182356001600160401b0381116105425761211d90369084016138fa565b612125614920565b60ff60125460101c161561241e5761213b614288565b156123e65761214933614399565b156123a45761215b90602435336154a4565b938415612372576010546001600160a01b039690871680612354575034946121828361429f565b861061231c57505b6121a461219c601854601754906141a9565b8311156146be565b6121b260035483101561470a565b6121be86831115614756565b3383526020601f8152818420958251808884829a54938481520190885284882092885b86828210612306575050506121f892500388613821565b849885995b88518b10156122285761221c612222916001610d30610d2a8f8e6147a2565b9a61419a565b996121fd565b9061223b8a610d5888612296969561401c565b8560ff601254166122f0575b50506122524261499d565b9060ff6012541665ffffffffffff86519361226c856137ba565b338552168584015215158583015286606083015285608083015260a08201528560c0820152614802565b338452601f8152818420601d546000198101919082116122dd577fbec109f7ee137de661c6887caa96653c0545050a9908a3b6eb5190440bbec864939291610e0491614178565b634e487b7160e01b865260118752602486fd5b6122ff913390600f5416614964565b8785612247565b855484526001958601958d9550930192016121e1565b721b9bdd08195b9bdd59da08115512081cd95b9d606a1b85916020606494519362461bcd60e51b855284015260136024840152820152fd5b945061236d6123628361429f565b8096309033906144aa565b61218a565b855162461bcd60e51b8152602081850152600d60248201526c37379030b63637b1b0ba34b7b760991b81860152606490fd5b855162461bcd60e51b8152602081850181905260248201527f61646472657373206e6f742077686974656c697374656420666f7220504f4c5381860152606490fd5b855162461bcd60e51b8152602081850152601360248201527239b0b632903430b9903a379031329037b832b760691b81860152606490fd5b855162461bcd60e51b815260208185015260186024820152771d1bdad95b881cd85b19481a5cc81b9bdd08199d5b99195960421b81860152606490fd5b50903461054257816003193601126105425760ff602092541690519015158152f35b509034610542578060031936011261054257612497613775565b6001600160a01b03168252601f6020528082208054602435939084101561050557506020926114af91613b81565b509034610542576020366003190112610542576124e560ff61076a613775565b6001600160a01b03166124f781614f98565b6124ff575080f35b7f2b6bf71b58b3583add364b3d9060ebf8019650f65f5be35f5464b9cb3e4ba2d48280a280f35b509034610542578160031936011261054257602090611ac1614288565b5090346105425781600319360112610542576020906014544210159051908152f35b5090346105425760203660031901126105425761258560ff61076a613775565b6001600160a01b031661259781614f4b565b61259f575080f35b7ff9b68063b051b82957fa193585681240904fed808db8b30fc5a2d2202c6ed6278280a280f35b5090346105425781600319360112610542576020906015544210159051908152f35b50903461054257816003193601126105425760207f5db9ee0a495bf2e6ff9c91a7834c1ba4fdd244a5e8aa4e537bd38aeae4b073aa9183805260018252808420338552825261263c60ff82862054166140a3565b612644614e50565b835460ff1916845551338152a180f35b503461050557806003193601126105055760075461267181613842565b9161267e84519384613821565b818352601f1961268d83613842565b013660208501375b8181106126a9578351806105708582613a82565b80611c3f6126b692613b13565b612695565b5082903461050557602036600319011261050557506126dd6105709135614a35565b83929192519384938452806020850152830190613a5d565b50903461054257602036600319011261054257602090611ac16001600160a01b0361271e613775565b166000526006602052604060002054151590565b509134610676576020366003190112610676576127809035809261277a60ff60145492612760844210614057565b8780526001602052808820338952602052872054166140a3565b106140ef565b60155580f35b508290346105055760203660031901126105055750803590601d548210156128475760e08360c06127b685613c0d565b508251926127c3846137ba565b81549060018060a01b0382169283865265ffffffffffff8360a01c169182602088015260ff808560d01c1615159485838a015260d81c1615159485606089015260018301549788608082015260036002850154948560a084015201549788910152815197885260208801528601526060850152608084015260a083015260c0820152f35b606490602084519162461bcd60e51b8352820152601a60248201527f70757263686173655f696420646f6573206e6f742065786973740000000000006044820152fd5b5082346105425782600319360112610542576128a4613790565b90336001600160a01b038316036128c0579061099d9135613f7d565b608490602085519162461bcd60e51b8352820152602f60248201527f416363657373436f6e74726f6c3a2063616e206f6e6c792072656e6f756e636560448201526e103937b632b9903337b91039b2b63360891b6064820152fd5b509034610542578160031936011261054257600c5490516001600160a01b039091168152602090f35b5090346105425780600319360112610542578235906024938435918215928315036120c85761297284613c0d565b50546001600160a01b03939084163303612c275761298f85614a35565b81969115612c06575060016129a382613c0d565b50015460036129b183613c0d565b50015490806129c0898461401c565b11612b915761110b88836129da936111018360039761401c565b500155156129f557505061099d9293503390600f5416614964565b9180600994929454168015612b455781600f54168451636eb1769f60e11b815230878201528289820152602081604481855afa908115612b3b579085918991612b01575b50612a4c612a91949392612a8c9261401c565b875163095ea7b360e01b6020808301919091526001600160a01b039095168c8201908152948501919091529283906040015b03601f198101845283613821565b61451c565b6009541690813b156120c857829160448694928593519586938492638b1e31c760e01b845289840152338b8401525af1908115612af85750612ad5575b5050905080f35b6001600160401b0310612ae85780612ace565b634e487b7160e01b825260419052fd5b513d85823e3d90fd5b9150506020813d8211612b33575b81612b1c60209383613821565b81010312612b2f57518490612a4c612a39565b8780fd5b3d9150612b0f565b86513d8a823e3d90fd5b835162461bcd60e51b81526020818701526021818901527f4e6f2049444f207374616b696e6720636f6e747261637420617661696c61626c6044820152606560f81b6064820152608490fd5b60a48660448c602089519362461bcd60e51b85528401528201527f494e5445524e414c204552524f52203a20616d6f756e7452656465656d65642060448201527f776f756c64206265206c6172676572207468656e20707572636861736520616d6064820152631bdd5b9d60e21b6084820152fd5b835162461bcd60e51b81526020818701529081906111d790828c0190613a5d565b815162461bcd60e51b81526020818501526014818901527320b2323932b9b99034b9903737ba10313abcb2b960611b6044820152606490fd5b5091346106765781600319360112610676573590612c7c613790565b908284526001602052612c9460018286200154613c82565b828452600160209081528185206001600160a01b039093168086529290528084205460ff1615612cc2578380f35b82845260016020528084208285526020528320600160ff1982541617905533917f2f8788117e7eff1d82e926ec794901d17c78024a50270940304540a733656f0d8480a43880808380f35b50903461054257816003193601126105425760209060145442109051908152f35b5090346105425781600319360112610542576020906003549051908152f35b50903461054257602036600319011261054257602090611ac1612d6e613775565b614399565b5091346106765760203660031901126106765760209250601d549035109051908152f35b5090346105425781600319360112610542576020906019549051908152f35b50913461067657602036600319011261067657816020936001923581528285522001549051908152f35b50919034610676578260031936011261067657828052602091600183528184203385528352612e1460ff83862054166140a3565b612e1c614920565b612e2a601554421015614e04565b60175460165411612f83576010546001600160a01b03908116939084612ea8575050509050818080806064612e624760115490613ff3565b04818115612e9f575b73aeb39b67f27b641ef9f95fb74f1a46b1ee4efc8390f11561140357818080804781811561140d573390f115611403575080f35b506108fc612e6b565b83516370a0823160e01b8082523085830152958382602481845afa918215612b3b578892612f53575b506064612ee4612f219360115490613ff3565b049086519163a9059cbb60e01b8684015273aeb39b67f27b641ef9f95fb74f1a46b1ee4efc836024840152604483015260448252612a8c82613806565b6010541691835194855230908501528084602481855afa92831561179757508492611765575061099d92503390614964565b91508382813d8311612f7c575b612f6a8183613821565b81010312612b2f579051906064612ed1565b503d612f60565b82606492519162461bcd60e51b835282015260196024820152781b5a5b9a5b5d5b481c985a5cd9481b9bdd081c995858da1959603a1b6044820152fd5b50903461054257816003193601126105425760209060ff6012541690519015158152f35b508234610542576080366003190112610542576001600160401b03908035828111611590576130169036908301613955565b5061301f613790565b50604435918211610676576112a7913691016138fa565b509190346106765760031992818436011261050557613053613775565b906024803593613061614920565b6010546001600160a01b03979088166134a65781516304799eaf60e31b8152878101839052600f60448201526e617262697472756d2d676f65726c6960881b606482015260848101918183030184820152806130dc602093604090600f81526e6f7074696d69736d2d676f65726c6960881b60208201520190565b039082816001614849608e1b019381855afa90811561349c57869161347f575b50156120c8578251631902057760e01b90818152838a820152838180613141898201604090600f81526e617262697472756d2d676f65726c6960881b60208201520190565b0381865afa90811561347557908492918891613458575b50613402575b84519283918252828b8301528180613195898201604090600f81526e6f7074696d69736d2d676f65726c6960881b60208201520190565b03915afa9081156133f85785916133cb575b5061337e575b6131b68661429f565b906131c961219c601854601754906141a9565b6131d760035483101561470a565b681043561a8829300000976131ee89841115614756565b89871694858752601f8352848720988551808b86829d549384815201908b52868b20928b5b888282106133625750505061322a9250038b613821565b879b889c5b8d8c51111561325c57613250613256918f610d308f600192610d2a916147a2565b9d61419a565b9c61322f565b9061326f8d610d58896132cc969561401c565b868b60ff6012541661334d575b5050506132884261499d565b9060ff6012541665ffffffffffff8951936132a2856137ba565b8b8552168784015215158883015289606083015286608083015260a08201528860c0820152614802565b858752601f835284872090601d5492600019840193841161333c5750509661331a61331f927fbec109f7ee137de661c6887caa96653c0545050a9908a3b6eb5190440bbec864979899614178565b6148bc565b61332b8260175461401c565b60175582519182524290820152a280f35b634e487b7160e01b89526011905287fd5b61335a92600f5416614964565b8a868b61327c565b6001929450829193865481520194019101918d92939193613213565b87600b54163303156131ad57606492601a918893519362461bcd60e51b85528401528201527f77726f6e6720636f6e7472616374206f6e204f7074696d69736d0000000000006044820152fd5b6133eb9150823d84116133f1575b6133e38183613821565b810190614504565b386131a7565b503d6133d9565b83513d87823e3d90fd5b905089600a5416330361341657829061315e565b835162461bcd60e51b8152808a01849052601a818701527f77726f6e6720636f6e7472616374206f6e20417262697472756d0000000000006044820152606490fd5b61346f9150833d85116133f1576133e38183613821565b38613158565b85513d89823e3d90fd5b6134969150833d85116133f1576133e38183613821565b386130fc565b84513d88823e3d90fd5b815162461bcd60e51b8152602081890152601e818501527f746f6b656e2073616c65206e6f742073657420746f20455448547261646500006044820152606490fd5b50903461054257816003193601126105425760209060ff60125460101c1690519015158152f35b50903461054257816003193601126105425760209060165415159051908152f35b509034610542578160031936011261054257602090601b549051908152f35b509034610542578160031936011261054257602090600d549051908152f35b5090346105425781600319360112610542576020906018549051908152f35b5090346105425781600319360112610542576020906014549051908152f35b509034610542576135bc36613859565b906000805160206155488339815191528352600191826020528184203385526020526135ed60ff8386205416614e99565b839283815b613633575b50505081613603578280f35b7f448f3bd350ede14a294c062177c5280fe1eae125d16757da21f5f51d6e89daae9160209151908152a181808280f35b8251811015613681576136586001600160a01b0361365183866147a2565b5116614ee5565b61366c575b6136669061419a565b816135f2565b936136796136669161419a565b94905061365d565b6135f7565b50903461054257816003193601126105425760209060ff60025460a01c1690519015158152f35b50903461054257816003193601126105425760105490516001600160a01b03909116158152602090f35b509034610542576060366003190112610542576136f760ff610812613775565b60018060a01b03166001600160601b0360a01b600c541617600c55602435600d55604435600e5580f35b90508334610676576020366003190112610676573563ffffffff60e01b81168091036106765760209250637965db0b60e01b8114908115613764575b5015158152f35b6301ffc9a760e01b1490508361375d565b600435906001600160a01b038216820361378b57565b600080fd5b602435906001600160a01b038216820361378b57565b35906001600160a01b038216820361378b57565b60e081019081106001600160401b038211176137d557604052565b634e487b7160e01b600052604160045260246000fd5b604081019081106001600160401b038211176137d557604052565b608081019081106001600160401b038211176137d557604052565b90601f801991011681019081106001600160401b038211176137d557604052565b6001600160401b0381116137d55760051b60200190565b60208060031983011261378b57600435916001600160401b03831161378b578060238401121561378b57826004013561389181613842565b9361389f6040519586613821565b81855260248486019260051b82010192831161378b57602401905b8282106138c8575050505090565b8380916138d4846137a6565b8152019101906138ba565b6001600160401b0381116137d557601f01601f191660200190565b81601f8201121561378b57803590613911826138df565b9261391f6040519485613821565b8284526020838301011161378b57816000926020809301838601378301015290565b35906001600160401b038216820361378b57565b91909161014090818185031261378b57604051918201906001600160401b0391838110838211176137d557604052829481358452602082013583811161378b57816139a19184016138fa565b6020850152604082013583811161378b57816139be9184016138fa565b60408501526139cf60608301613941565b60608501526139e0608083016137a6565b60808501526139f160a083016137a6565b60a085015260c082013560c085015260e082013560e0850152610100613a18818401613941565b90850152610120928383013590811161378b57613a3592016138fa565b910152565b60005b838110613a4d5750506000910152565b8181015183820152602001613a3d565b90602091613a7681518092818552858086019101613a3a565b601f01601f1916010190565b6020908160408183019282815285518094520193019160005b828110613aa9575050505090565b83516001600160a01b031685529381019392810192600101613a9b565b601c54811015613afd57601c6000527f0e4562a10381dec21b205ed72637e6b1b523bdd0e4d4d50af5cd23dd4500a2110190600090565b634e487b7160e01b600052603260045260246000fd5b600754811015613afd5760076000527fa66cc928b5edb82af9bd49922954155ab7b0942694bea4ce44661d9a8736c6880190600090565b600554811015613afd5760056000527f036b6384b5eca791c62761152d0c79bb0604c104a5fb6f4eb0703f3154bb3db00190600090565b8054821015613afd5760005260206000200190600090565b606060031982011261378b576004356001600160a01b038116810361378b579160243591604435906001600160401b03821161378b57613bdb916004016138fa565b90565b90604060031983011261378b5760043591602435906001600160401b03821161378b57613bdb916004016138fa565b601d54811015613afd57601d60005260021b7f6d4407e7be21f808e6509aa9fa9143369579dd7d760fe20a2c09680fc146134f0190600090565b6020908160408183019282815285518094520193019160005b828110613c6e575050505090565b835185529381019392810192600101613c60565b6000818152600191602091838352604093848220338352845260ff858320541615613cae575050505050565b33855193606085018581106001600160401b03821117613f69578752602a85528585019187368437855115613f5557603083538551841015613f55576078602187015360295b848111613eeb5750613ea957865192613d0c84613806565b60428452868401946060368737845115613e9557603086538451821015613e955790607860218601536041915b818311613e2757505050613de5576111d7938693613dc993613dba604894613d919a519a8b957f416363657373436f6e74726f6c3a206163636f756e74200000000000000000008c8801525180926037880190613a3a565b8401917001034b99036b4b9b9b4b733903937b6329607d1b603784015251809386840190613a3a565b01036028810187520185613821565b5192839262461bcd60e51b845260048401526024830190613a5d565b60648587519062461bcd60e51b825280600483015260248201527f537472696e67733a20686578206c656e67746820696e73756666696369656e746044820152fd5b909192600f81166010811015613e81576f181899199a1a9b1b9c1cb0b131b232b360811b901a613e578588614029565b5360041c928015613e6d57600019019190613d39565b634e487b7160e01b82526011600452602482fd5b634e487b7160e01b83526032600452602483fd5b634e487b7160e01b81526032600452602490fd5b60648688519062461bcd60e51b825280600483015260248201527f537472696e67733a20686578206c656e67746820696e73756666696369656e746044820152fd5b90600f81166010811015613f41576f181899199a1a9b1b9c1cb0b131b232b360811b901a613f198389614029565b5360041c908015613f2d5760001901613cf4565b634e487b7160e01b86526011600452602486fd5b634e487b7160e01b87526032600452602487fd5b634e487b7160e01b85526032600452602485fd5b634e487b7160e01b85526041600452602485fd5b906000918083526001602052604083209160018060a01b03169182845260205260ff604084205416613fae57505050565b8083526001602052604083208284526020526040832060ff1981541690557ff6391f5c32d9c69d2a47ea670b442974b53935d1edc7fd64eb21e047a839171b339380a4565b8181029291811591840414171561400657565b634e487b7160e01b600052601160045260246000fd5b9190820180921161400657565b908151811015613afd570160200190565b601c54801561405157600181018091116140065790565b50600090565b1561405e57565b60405162461bcd60e51b815260206004820152601a60248201527f746f6b656e2073616c6520616c726561647920737461727465640000000000006044820152606490fd5b156140aa57565b60405162461bcd60e51b815260206004820152601960248201527f63616c6c657220686173206e6f742061646d696e20726f6c65000000000000006044820152606490fd5b156140f657565b60405162461bcd60e51b815260206004820152601a60248201527f656e642064617465206265666f726520737461727420646174650000000000006044820152606490fd5b601c54600160401b8110156137d55761415d8160016141749301601c55613ac6565b819391549060031b91821b91600019901b19161790565b9055565b805490600160401b8210156137d5578161415d91600161417494018155613b81565b60001981146140065760010190565b9190820391821161400657565b81156141c0570490565b634e487b7160e01b600052601260045260246000fd5b60195480421061405157601b548015614209576141f66141fb92426141a9565b6141b6565b600181018091116140065790565b5050600190565b600f546040516370a0823160e01b815230600482015290602090829060249082906001600160a01b03165afa90811561427c5760009161424e575090565b906020823d8211614274575b8161426760209383613821565b8101031261050557505190565b3d915061425a565b6040513d6000823e3d90fd5b601454421015806142965790565b50601554421090565b6013546142ab91613ff3565b600f5460405163313ce56760e01b815290602090829060049082906001600160a01b03165afa90811561427c576000916142fa575b5060ff1690604d821161400657613bdb91600a0a906141b6565b6020813d821161432e575b8161431260209383613821565b8101031261054257519060ff82168203610505575060ff6142e0565b3d9150614305565b60018060a01b03166000526020601f81526040600020906040518092839183825491828152019160005283600020936000905b82821061437f57505050613bdb92500382613821565b855484526001958601958795509381019390910190614369565b60ff60125460081c16156144a457600c546001600160a01b039081169190826143c5575b505050600090565b6040516370a0823160e01b81529116600482018190526020918281602481875afa90811561427c57600091614477575b50600d54111561446f57819060246040518095819363f6a3f3cf60e01b835260048301525afa90811561427c57600091614443575b509050600e54111561443e573880806143bd565b600190565b82813d8311614468575b6144578183613821565b81010312610505575051803861442a565b503d61444d565b505050600190565b908382813d831161449d575b61448d8183613821565b81010312610505575051386143f5565b503d614483565b50600190565b6040516323b872dd60e01b60208201526001600160a01b03928316602482015292909116604483015260648083019390935291815260a08101918183106001600160401b038411176137d5576145029260405261451c565b565b9081602091031261378b5751801515810361378b5790565b604051614599916001600160a01b0316614535826137eb565b6000806020958685527f5361666545524332303a206c6f772d6c6576656c2063616c6c206661696c656487860152868151910182855af13d15614621573d9161457d836138df565b9261458b6040519485613821565b83523d60008785013e614625565b805190828215928315614609575b505050156145b25750565b6084906040519062461bcd60e51b82526004820152602a60248201527f5361666545524332303a204552433230206f7065726174696f6e20646964206e6044820152691bdd081cdd58d8d9595960b21b6064820152fd5b6146199350820181019101614504565b3882816145a7565b6060915b919290156146875750815115614639575090565b3b156146425790565b60405162461bcd60e51b815260206004820152601d60248201527f416464726573733a2063616c6c20746f206e6f6e2d636f6e74726163740000006044820152606490fd5b82519091501561469a5750805190602001fd5b60405162461bcd60e51b8152602060048201529081906111d7906024830190613a5d565b156146c557565b60405162461bcd60e51b815260206004820152601960248201527f616d6f756e74203e20746f6b656e7320617661696c61626c65000000000000006044820152606490fd5b1561471157565b60405162461bcd60e51b815260206004820152601760248201527f616d6f756e74203c206d696e696d756d20616d6f756e740000000000000000006044820152606490fd5b1561475d57565b60405162461bcd60e51b815260206004820152601760248201527f616d6f756e74203e206d6178696d756d20616d6f756e740000000000000000006044820152606490fd5b8051821015613afd5760209160051b010190565b156147bd57565b60405162461bcd60e51b815260206004820152601f60248201527f616d6f756e7420676f6573206f76657220696e646976696475616c206d6178006044820152606490fd5b601d54600160401b8110156137d5578060016148219201601d55613c0d565b9190916148a657805182546020830151604084015160608501516001600160e01b03199093166001600160a01b03949094169390931760a091821b65ffffffffffff60a01b161792151560d01b60ff60d01b169290921790151560d81b60ff60d81b1617835560808201516001840155810151600283015560c0015160039190910155565b634e487b7160e01b600052600060045260246000fd5b601e54600160401b8110156137d5576001810180601e55811015613afd57601e6000527f50bb669a95c7b50b7e8a6f09454034b2b14cf2b85c730dca9a539ca82cb6e3500180546001600160a01b0319166001600160a01b03909216919091179055565b60ff6000541661492c57565b60405162461bcd60e51b815260206004820152601060248201526f14185d5cd8589b194e881c185d5cd95960821b6044820152606490fd5b60405163a9059cbb60e01b60208201526001600160a01b039092166024830152604482019290925261450291612a8c8260648101612a7e565b66010000000000008110156149b75765ffffffffffff1690565b60405162461bcd60e51b815260206004820152601c60248201527f76616c756520646f65736e27742066697420696e2034382062697473000000006044820152606490fd5b60405190614a09826137eb565b601a82527f70757263686173655f696420646f6573206e6f742065786973740000000000006020830152565b601d54811015614db35760ff60125416614d76576015544210614d395760009060ff825416614cfe5760175460165411614cc7576003614a826001614a7984613c0d565b50015492613c0d565b5001549080821015614c8b5760195492834210614c4d57614aa5601a548561401c565b4210614c0f5750601c5480614b575750601b5442614ac3828661401c565b11614b335750614ad392506141a9565b8015614b055790604051614ae6816137eb565b600f81526e726561647920746f2072656465656d60881b602082015290565b90604051614b12816137eb565b60118152706e6f7468696e6720746f2072656465656d60781b602082015290565b6141f6614b4d92614b47614b5296426141a9565b90613ff3565b6141a9565b614ad3565b909192614b67614b7091426141a9565b601b54906141b6565b908110614b82575090614b52916141a9565b655af3107a400091614b96614ba392613ac6565b90549060031b1c90613ff3565b0490808210614bb557614b52916141a9565b60405162461bcd60e51b815260206004820152602c60248201527f494e5445524e414c204552524f5220696e2076657374696e6720616d6f756e7460448201526b1031b0b631bab630ba34b7b760a11b6064820152608490fd5b9250505090604051614c20816137eb565b601d81527f76657374696e6720636c696666206e6f74207965742072656163686564000000602082015290565b9250505090604051614c5e816137eb565b601e81527f76657374696e6720706572696f64206e6f742079657420737461727465640000602082015290565b505090604051614c9a816137eb565b601a81527f616c6c20746f6b656e20616c72656164792072656465656d6564000000000000602082015290565b5090604051614cd5816137eb565b60198152781b5a5b9a5b5d5b481c985a5cd9481b9bdd081c995858da1959603a1b602082015290565b5090604051614d0c816137eb565b601d81527f746f6b656e2073616c6520636f6e747261637420697320706175736564000000602082015290565b50600090604051614d49816137eb565b601881527f746f6b656e2073616c65206e6f742066696e616c697a65640000000000000000602082015290565b50600090604051614d86816137eb565b601981527f68617320746f206265206e6f6e2041746f6d6963207377617000000000000000602082015290565b50600090613bdb6149fc565b601d548110614dda5750600090600090600090613bdb6149fc565b6001614de582613c0d565b50015491614e006003614df784613c0d565b50015492614a35565b9091565b15614e0b57565b60405162461bcd60e51b815260206004820152601860248201527f73616c652068617320746f2062652066696e616c697a656400000000000000006044820152606490fd5b60ff6000541615614e5d57565b60405162461bcd60e51b815260206004820152601460248201527314185d5cd8589b194e881b9bdd081c185d5cd95960621b6044820152606490fd5b15614ea057565b60405162461bcd60e51b815260206004820152601c60248201527f63616c6c6572206973206e6f742057686974656c6973744f776e6572000000006044820152606490fd5b600081815260066020526040812054614f4657600554600160401b811015614f32579082614f1e61415d84600160409601600555613b4a565b905560055492815260066020522055600190565b634e487b7160e01b82526041600452602482fd5b905090565b600081815260086020526040812054614f4657600754600160401b811015614f32579082614f8461415d84600160409601600755613b13565b905560075492815260086020522055600190565b600081815260086020526040812054909190801561506957600019908082018181116150555760075490838201918211613f2d57808203615021575b505050600754801561500d57810190614fec82613b13565b909182549160031b1b19169055600755815260086020526040812055600190565b634e487b7160e01b84526031600452602484fd5b61503f61503061415d93613b13565b90549060031b1c928392613b13565b9055845260086020526040842055388080614fd4565b634e487b7160e01b85526011600452602485fd5b505090565b600081815260066020526040812054909190801561506957600019908082018181116150555760055490838201918211613f2d578082036150e3575b505050600554801561500d578101906150c282613b4a565b909182549160031b1b19169055600555815260066020526040812055600190565b6151016150f261415d93613b4a565b90549060031b1c928392613b4a565b90558452600660205260408420553880806150aa565b604182510361516157613bdb91615159917f19457468657265756d205369676e6564204d6573736167653a0a333200000000600052601c52603c6000206152c0565b9190916151a6565b60405162461bcd60e51b815260206004820152601960248201527f7369676e6174757265206973206e6f74203635206279746573000000000000006044820152606490fd5b60058110156152aa57806151b75750565b600181036152045760405162461bcd60e51b815260206004820152601860248201527f45434453413a20696e76616c6964207369676e617475726500000000000000006044820152606490fd5b600281036152515760405162461bcd60e51b815260206004820152601f60248201527f45434453413a20696e76616c6964207369676e6174757265206c656e677468006044820152606490fd5b60031461525a57565b60405162461bcd60e51b815260206004820152602260248201527f45434453413a20696e76616c6964207369676e6174757265202773272076616c604482015261756560f01b6064820152608490fd5b634e487b7160e01b600052602160045260246000fd5b9060418151146000146152ea57614e00916020820151906060604084015193015160001a906152f4565b5050600090600290565b9291907f7fffffffffffffffffffffffffffffff5d576e7357a4501ddfe92f46681b20a083116153715791608094939160ff602094604051948552168484015260408301526060820152600093849182805260015afa156153645781516001600160a01b038116156144a4579190565b50604051903d90823e3d90fd5b50505050600090600390565b6153be92916040519060208201926001600160601b03199060601b16835260348201523060601b6054820152604881526153b681613806565b519020615117565b6002546001600160a01b0391821691161490565b6001600160a01b0380821660008181526008602052604090205492939261549b576002549060ff8260a01c161590811561547d575b5061547357811691821515938461542c575b5050505061542657600090565b60045490565b6154689293945060405160208101916001600160601b03199060601b168252600060348201523060601b6054820152604881526153b681613806565b161438808080615419565b5050505060045490565b61549591506000526006602052604060002054151590565b38615407565b50505050600090565b909160018060a01b038083169081600052600860205260406000205461553d576002549160ff8360a01c161590811561551f575b506155145784911615159283615502575b5050506154f65750600090565b80613bdb575060045490565b61550c935061537d565b3882816154e9565b505050505060045490565b61553791506000526006602052604060002054151590565b386154d8565b505050505060009056feb813b807c25079ba97f1770664c6a9e57c59afe74a6295f1ed01c10e3bb6baaea164736f6c6343000813000a2f8788117e7eff1d82e926ec794901d17c78024a50270940304540a733656f0da6eef7e35abe7026729641147f7915573c7e97b47efa546f5f6e3230263bcb493acbad85bd32baf6e5d5ba94bd47682ad030e73e3fc17231cdb7884e58d4e082b813b807c25079ba97f1770664c6a9e57c59afe74a6295f1ed01c10e3bb6baae358823ad0653452618750bed6506f24f63ef58f0cce438e3a379e32873da19d245b3d3a903390c195d0bfd3836d4bf6ddb42d6e2323e6bd9571885c64405cb85",
  "linkReferences": {},
  "deployedLinkReferences": {}
}