{
  "_format": "hh-sol-artifact-1",
  "contractName": "FixedSwap",
  "sourceName": "contracts/FixedSwap.sol",
  "abi": [
    {
      "inputs": [
        {
          "internalType": "address",
          "name": "_tokenAddress",
          "type": "address"
        },
        {
          "internalType": "uint256",
          "name": "_tradeValue",
          "type": "uint256"
        },
        {
          "internalType": "uint256",
          "name": "_tokensForSale",
          "type": "uint256"
        },
        {
          "internalType": "uint256",
          "name": "_startDate",
          "type": "uint256"
        },
        {
          "internalType": "uint256",
          "name": "_endDate",
          "type": "uint256"
        },
        {
          "internalType": "uint256",
          "name": "_individualMinimumAmount",
          "type": "uint256"
        },
        {
          "internalType": "uint256",
          "name": "_individualMaximumAmount",
          "type": "uint256"
        },
        {
          "internalType": "bool",
          "name": "_ignored",
          "type": "bool"
        },
        {
          "internalType": "uint256",
          "name": "_minimumRaise",
          "type": "uint256"
        },
        {
          "internalType": "uint256",
          "name": "_feePercentage",
          "type": "uint256"
        },
        {
          "internalType": "uint32",
          "name": "_flags",
          "type": "uint32"
        },
        {
          "internalType": "address",
          "name": "_erc20TradeAddress",
          "type": "address"
        },
        {
          "internalType": "uint256",
          "name": "_vestingStart",
          "type": "uint256"
        },
        {
          "internalType": "uint256",
          "name": "_vestingCliff",
          "type": "uint256"
        },
        {
          "internalType": "uint256",
          "name": "_vestingDuration",
          "type": "uint256"
        },
        {
          "internalType": "uint256[]",
          "name": "_vestingSchedule",
          "type": "uint256[]"
        }
      ],
      "stateMutability": "nonpayable",
      "type": "constructor"
    },
    {
      "anonymous": false,
      "inputs": [
        {
          "indexed": true,
          "internalType": "uint256",
          "name": "count",
          "type": "uint256"
        }
      ],
      "name": "AddedArrayToBlacklist",
      "type": "event"
    },
    {
      "anonymous": false,
      "inputs": [
        {
          "indexed": true,
          "internalType": "uint256",
          "name": "count",
          "type": "uint256"
        }
      ],
      "name": "AddedArrayToWhitelist",
      "type": "event"
    },
    {
      "anonymous": false,
      "inputs": [
        {
          "indexed": true,
          "internalType": "address",
          "name": "account",
          "type": "address"
        }
      ],
      "name": "AddedToBlacklist",
      "type": "event"
    },
    {
      "anonymous": false,
      "inputs": [
        {
          "indexed": true,
          "internalType": "address",
          "name": "account",
          "type": "address"
        }
      ],
      "name": "AddedToWhitelist",
      "type": "event"
    },
    {
      "anonymous": false,
      "inputs": [
        {
          "indexed": false,
          "internalType": "address",
          "name": "account",
          "type": "address"
        }
      ],
      "name": "Paused",
      "type": "event"
    },
    {
      "anonymous": false,
      "inputs": [
        {
          "indexed": false,
          "internalType": "uint256",
          "name": "amount",
          "type": "uint256"
        },
        {
          "indexed": true,
          "internalType": "address",
          "name": "purchaser",
          "type": "address"
        },
        {
          "indexed": false,
          "internalType": "uint256",
          "name": "timestamp",
          "type": "uint256"
        }
      ],
      "name": "PurchaseEvent",
      "type": "event"
    },
    {
      "anonymous": false,
      "inputs": [
        {
          "indexed": true,
          "internalType": "address",
          "name": "account",
          "type": "address"
        }
      ],
      "name": "RemovedFromBlacklist",
      "type": "event"
    },
    {
      "anonymous": false,
      "inputs": [
        {
          "indexed": true,
          "internalType": "address",
          "name": "account",
          "type": "address"
        }
      ],
      "name": "RemovedFromWhitelist",
      "type": "event"
    },
    {
      "anonymous": false,
      "inputs": [
        {
          "indexed": true,
          "internalType": "bytes32",
          "name": "role",
          "type": "bytes32"
        },
        {
          "indexed": true,
          "internalType": "bytes32",
          "name": "previousAdminRole",
          "type": "bytes32"
        },
        {
          "indexed": true,
          "internalType": "bytes32",
          "name": "newAdminRole",
          "type": "bytes32"
        }
      ],
      "name": "RoleAdminChanged",
      "type": "event"
    },
    {
      "anonymous": false,
      "inputs": [
        {
          "indexed": true,
          "internalType": "bytes32",
          "name": "role",
          "type": "bytes32"
        },
        {
          "indexed": true,
          "internalType": "address",
          "name": "account",
          "type": "address"
        },
        {
          "indexed": true,
          "internalType": "address",
          "name": "sender",
          "type": "address"
        }
      ],
      "name": "RoleGranted",
      "type": "event"
    },
    {
      "anonymous": false,
      "inputs": [
        {
          "indexed": true,
          "internalType": "bytes32",
          "name": "role",
          "type": "bytes32"
        },
        {
          "indexed": true,
          "internalType": "address",
          "name": "account",
          "type": "address"
        },
        {
          "indexed": true,
          "internalType": "address",
          "name": "sender",
          "type": "address"
        }
      ],
      "name": "RoleRevoked",
      "type": "event"
    },
    {
      "anonymous": false,
      "inputs": [
        {
          "indexed": false,
          "internalType": "bool",
          "name": "hasWhitelisting",
          "type": "bool"
        }
      ],
      "name": "SetHasWhitelisting",
      "type": "event"
    },
    {
      "anonymous": false,
      "inputs": [
        {
          "indexed": false,
          "internalType": "address",
          "name": "account",
          "type": "address"
        }
      ],
      "name": "Unpaused",
      "type": "event"
    },
    {
      "inputs": [],
      "name": "DECIMALS_PERCENT_MUL",
      "outputs": [
        {
          "internalType": "uint256",
          "name": "",
          "type": "uint256"
        }
      ],
      "stateMutability": "view",
      "type": "function"
    },
    {
      "inputs": [],
      "name": "DEFAULT_ADMIN_ROLE",
      "outputs": [
        {
          "internalType": "bytes32",
          "name": "",
          "type": "bytes32"
        }
      ],
      "stateMutability": "view",
      "type": "function"
    },
    {
      "inputs": [],
      "name": "FEE_ADDRESS",
      "outputs": [
        {
          "internalType": "address",
          "name": "",
          "type": "address"
        }
      ],
      "stateMutability": "view",
      "type": "function"
    },
    {
      "inputs": [],
      "name": "POLS_TOKEN_ADDRESS",
      "outputs": [
        {
          "internalType": "address",
          "name": "",
          "type": "address"
        }
      ],
      "stateMutability": "view",
      "type": "function"
    },
    {
      "inputs": [],
      "name": "POLS_UNIV2_ADDRESS",
      "outputs": [
        {
          "internalType": "address",
          "name": "",
          "type": "address"
        }
      ],
      "stateMutability": "view",
      "type": "function"
    },
    {
      "inputs": [],
      "name": "PolsStakeAddress",
      "outputs": [
        {
          "internalType": "address",
          "name": "",
          "type": "address"
        }
      ],
      "stateMutability": "view",
      "type": "function"
    },
    {
      "inputs": [],
      "name": "PolsStakeAmount",
      "outputs": [
        {
          "internalType": "uint256",
          "name": "",
          "type": "uint256"
        }
      ],
      "stateMutability": "view",
      "type": "function"
    },
    {
      "inputs": [],
      "name": "PolsStakeRewards",
      "outputs": [
        {
          "internalType": "uint256",
          "name": "",
          "type": "uint256"
        }
      ],
      "stateMutability": "view",
      "type": "function"
    },
    {
      "inputs": [],
      "name": "PolsTokenAddress",
      "outputs": [
        {
          "internalType": "address",
          "name": "",
          "type": "address"
        }
      ],
      "stateMutability": "view",
      "type": "function"
    },
    {
      "inputs": [],
      "name": "PolsTokenAmount",
      "outputs": [
        {
          "internalType": "uint256",
          "name": "",
          "type": "uint256"
        }
      ],
      "stateMutability": "view",
      "type": "function"
    },
    {
      "inputs": [],
      "name": "PolsUniV2Address",
      "outputs": [
        {
          "internalType": "address",
          "name": "",
          "type": "address"
        }
      ],
      "stateMutability": "view",
      "type": "function"
    },
    {
      "inputs": [],
      "name": "PolsUniV2Amount",
      "outputs": [
        {
          "internalType": "uint256",
          "name": "",
          "type": "uint256"
        }
      ],
      "stateMutability": "view",
      "type": "function"
    },
    {
      "inputs": [],
      "name": "WHITELIST_OWNER_ROLE",
      "outputs": [
        {
          "internalType": "bytes32",
          "name": "",
          "type": "bytes32"
        }
      ],
      "stateMutability": "view",
      "type": "function"
    },
    {
      "inputs": [
        {
          "internalType": "address[]",
          "name": "_addresses",
          "type": "address[]"
        }
      ],
      "name": "addArrayToBlacklist",
      "outputs": [],
      "stateMutability": "nonpayable",
      "type": "function"
    },
    {
      "inputs": [
        {
          "internalType": "address[]",
          "name": "_addresses",
          "type": "address[]"
        }
      ],
      "name": "addArrayToWhitelist",
      "outputs": [],
      "stateMutability": "nonpayable",
      "type": "function"
    },
    {
      "inputs": [
        {
          "internalType": "address",
          "name": "_address",
          "type": "address"
        }
      ],
      "name": "addToBlacklist",
      "outputs": [],
      "stateMutability": "nonpayable",
      "type": "function"
    },
    {
      "inputs": [
        {
          "internalType": "address",
          "name": "_address",
          "type": "address"
        }
      ],
      "name": "addToWhitelist",
      "outputs": [],
      "stateMutability": "nonpayable",
      "type": "function"
    },
    {
      "inputs": [],
      "name": "availableTokens",
      "outputs": [
        {
          "internalType": "uint256",
          "name": "",
          "type": "uint256"
        }
      ],
      "stateMutability": "view",
      "type": "function"
    },
    {
      "inputs": [
        {
          "internalType": "uint256",
          "name": "",
          "type": "uint256"
        }
      ],
      "name": "buyers",
      "outputs": [
        {
          "internalType": "address",
          "name": "",
          "type": "address"
        }
      ],
      "stateMutability": "view",
      "type": "function"
    },
    {
      "inputs": [
        {
          "internalType": "uint256",
          "name": "_amount",
          "type": "uint256"
        }
      ],
      "name": "cost",
      "outputs": [
        {
          "internalType": "uint256",
          "name": "",
          "type": "uint256"
        }
      ],
      "stateMutability": "view",
      "type": "function"
    },
    {
      "inputs": [],
      "name": "endDate",
      "outputs": [
        {
          "internalType": "uint256",
          "name": "",
          "type": "uint256"
        }
      ],
      "stateMutability": "view",
      "type": "function"
    },
    {
      "inputs": [],
      "name": "erc20",
      "outputs": [
        {
          "internalType": "contract IERC20",
          "name": "",
          "type": "address"
        }
      ],
      "stateMutability": "view",
      "type": "function"
    },
    {
      "inputs": [],
      "name": "erc20TradeIn",
      "outputs": [
        {
          "internalType": "contract IERC20",
          "name": "",
          "type": "address"
        }
      ],
      "stateMutability": "view",
      "type": "function"
    },
    {
      "inputs": [],
      "name": "feePercentage",
      "outputs": [
        {
          "internalType": "uint256",
          "name": "",
          "type": "uint256"
        }
      ],
      "stateMutability": "view",
      "type": "function"
    },
    {
      "inputs": [
        {
          "internalType": "uint256",
          "name": "_amount",
          "type": "uint256"
        }
      ],
      "name": "fund",
      "outputs": [],
      "stateMutability": "nonpayable",
      "type": "function"
    },
    {
      "inputs": [],
      "name": "getAPIVersion",
      "outputs": [
        {
          "internalType": "uint32",
          "name": "API_VERSION",
          "type": "uint32"
        }
      ],
      "stateMutability": "pure",
      "type": "function"
    },
    {
      "inputs": [],
      "name": "getBlacklistedAddresses",
      "outputs": [
        {
          "internalType": "address[]",
          "name": "",
          "type": "address[]"
        }
      ],
      "stateMutability": "view",
      "type": "function"
    },
    {
      "inputs": [],
      "name": "getBuyers",
      "outputs": [
        {
          "internalType": "address[]",
          "name": "",
          "type": "address[]"
        }
      ],
      "stateMutability": "view",
      "type": "function"
    },
    {
      "inputs": [],
      "name": "getCurrentSchedule",
      "outputs": [
        {
          "internalType": "uint256",
          "name": "schedule",
          "type": "uint256"
        }
      ],
      "stateMutability": "view",
      "type": "function"
    },
    {
      "inputs": [
        {
          "internalType": "address",
          "name": "_address",
          "type": "address"
        }
      ],
      "name": "getMyPurchases",
      "outputs": [
        {
          "internalType": "uint256[]",
          "name": "",
          "type": "uint256[]"
        }
      ],
      "stateMutability": "view",
      "type": "function"
    },
    {
      "inputs": [],
      "name": "getMyPurchases_msgSender",
      "outputs": [
        {
          "internalType": "uint256[]",
          "name": "",
          "type": "uint256[]"
        }
      ],
      "stateMutability": "view",
      "type": "function"
    },
    {
      "inputs": [
        {
          "internalType": "uint256",
          "name": "purchase_id",
          "type": "uint256"
        }
      ],
      "name": "getPurchase",
      "outputs": [
        {
          "internalType": "uint256",
          "name": "amount",
          "type": "uint256"
        },
        {
          "internalType": "address",
          "name": "purchaser",
          "type": "address"
        },
        {
          "internalType": "uint256",
          "name": "costAmount",
          "type": "uint256"
        },
        {
          "internalType": "uint48",
          "name": "timestamp",
          "type": "uint48"
        },
        {
          "internalType": "bool",
          "name": "wasFinalized",
          "type": "bool"
        },
        {
          "internalType": "bool",
          "name": "reverted",
          "type": "bool"
        },
        {
          "internalType": "uint256",
          "name": "amountRedeemed",
          "type": "uint256"
        }
      ],
      "stateMutability": "view",
      "type": "function"
    },
    {
      "inputs": [],
      "name": "getPurchasesCount",
      "outputs": [
        {
          "internalType": "uint256",
          "name": "count",
          "type": "uint256"
        }
      ],
      "stateMutability": "view",
      "type": "function"
    },
    {
      "inputs": [
        {
          "internalType": "uint256",
          "name": "purchase_id",
          "type": "uint256"
        }
      ],
      "name": "getRedeemStatus",
      "outputs": [
        {
          "internalType": "uint256",
          "name": "amount",
          "type": "uint256"
        },
        {
          "internalType": "uint256",
          "name": "amountRedeemed",
          "type": "uint256"
        },
        {
          "internalType": "uint256",
          "name": "vestAmount",
          "type": "uint256"
        },
        {
          "internalType": "string",
          "name": "message",
          "type": "string"
        }
      ],
      "stateMutability": "view",
      "type": "function"
    },
    {
      "inputs": [
        {
          "internalType": "uint256",
          "name": "purchase_id",
          "type": "uint256"
        }
      ],
      "name": "getRedeemableTokensAmount",
      "outputs": [
        {
          "internalType": "uint256",
          "name": "amount",
          "type": "uint256"
        },
        {
          "internalType": "string",
          "name": "message",
          "type": "string"
        }
      ],
      "stateMutability": "view",
      "type": "function"
    },
    {
      "inputs": [
        {
          "internalType": "bytes32",
          "name": "role",
          "type": "bytes32"
        }
      ],
      "name": "getRoleAdmin",
      "outputs": [
        {
          "internalType": "bytes32",
          "name": "",
          "type": "bytes32"
        }
      ],
      "stateMutability": "view",
      "type": "function"
    },
    {
      "inputs": [
        {
          "internalType": "bytes32",
          "name": "role",
          "type": "bytes32"
        },
        {
          "internalType": "uint256",
          "name": "index",
          "type": "uint256"
        }
      ],
      "name": "getRoleMember",
      "outputs": [
        {
          "internalType": "address",
          "name": "",
          "type": "address"
        }
      ],
      "stateMutability": "view",
      "type": "function"
    },
    {
      "inputs": [
        {
          "internalType": "bytes32",
          "name": "role",
          "type": "bytes32"
        }
      ],
      "name": "getRoleMemberCount",
      "outputs": [
        {
          "internalType": "uint256",
          "name": "",
          "type": "uint256"
        }
      ],
      "stateMutability": "view",
      "type": "function"
    },
    {
      "inputs": [],
      "name": "getWhitelistedAddresses",
      "outputs": [
        {
          "internalType": "address[]",
          "name": "",
          "type": "address[]"
        }
      ],
      "stateMutability": "view",
      "type": "function"
    },
    {
      "inputs": [
        {
          "internalType": "bytes32",
          "name": "role",
          "type": "bytes32"
        },
        {
          "internalType": "address",
          "name": "account",
          "type": "address"
        }
      ],
      "name": "grantRole",
      "outputs": [],
      "stateMutability": "nonpayable",
      "type": "function"
    },
    {
      "inputs": [],
      "name": "hasFinalized",
      "outputs": [
        {
          "internalType": "bool",
          "name": "",
          "type": "bool"
        }
      ],
      "stateMutability": "view",
      "type": "function"
    },
    {
      "inputs": [],
      "name": "hasMinimumAmount",
      "outputs": [
        {
          "internalType": "bool",
          "name": "",
          "type": "bool"
        }
      ],
      "stateMutability": "view",
      "type": "function"
    },
    {
      "inputs": [],
      "name": "hasMinimumRaise",
      "outputs": [
        {
          "internalType": "bool",
          "name": "",
          "type": "bool"
        }
      ],
      "stateMutability": "view",
      "type": "function"
    },
    {
      "inputs": [
        {
          "internalType": "bytes32",
          "name": "role",
          "type": "bytes32"
        },
        {
          "internalType": "address",
          "name": "account",
          "type": "address"
        }
      ],
      "name": "hasRole",
      "outputs": [
        {
          "internalType": "bool",
          "name": "",
          "type": "bool"
        }
      ],
      "stateMutability": "view",
      "type": "function"
    },
    {
      "inputs": [],
      "name": "hasStarted",
      "outputs": [
        {
          "internalType": "bool",
          "name": "",
          "type": "bool"
        }
      ],
      "stateMutability": "view",
      "type": "function"
    },
    {
      "inputs": [],
      "name": "hasWhitelisting",
      "outputs": [
        {
          "internalType": "bool",
          "name": "",
          "type": "bool"
        }
      ],
      "stateMutability": "view",
      "type": "function"
    },
    {
      "inputs": [],
      "name": "individualMaximumAmount",
      "outputs": [
        {
          "internalType": "uint256",
          "name": "",
          "type": "uint256"
        }
      ],
      "stateMutability": "view",
      "type": "function"
    },
    {
      "inputs": [],
      "name": "individualMinimumAmount",
      "outputs": [
        {
          "internalType": "uint256",
          "name": "",
          "type": "uint256"
        }
      ],
      "stateMutability": "view",
      "type": "function"
    },
    {
      "inputs": [
        {
          "internalType": "address",
          "name": "_account",
          "type": "address"
        }
      ],
      "name": "isAddressPOLSWhitelisted",
      "outputs": [
        {
          "internalType": "bool",
          "name": "",
          "type": "bool"
        }
      ],
      "stateMutability": "view",
      "type": "function"
    },
    {
      "inputs": [
        {
          "internalType": "address",
          "name": "_address",
          "type": "address"
        }
      ],
      "name": "isBlacklisted",
      "outputs": [
        {
          "internalType": "bool",
          "name": "",
          "type": "bool"
        }
      ],
      "stateMutability": "view",
      "type": "function"
    },
    {
      "inputs": [
        {
          "internalType": "uint256",
          "name": "purchase_id",
          "type": "uint256"
        }
      ],
      "name": "isBuyer",
      "outputs": [
        {
          "internalType": "bool",
          "name": "",
          "type": "bool"
        }
      ],
      "stateMutability": "view",
      "type": "function"
    },
    {
      "inputs": [],
      "name": "isETHTrade",
      "outputs": [
        {
          "internalType": "bool",
          "name": "",
          "type": "bool"
        }
      ],
      "stateMutability": "view",
      "type": "function"
    },
    {
      "inputs": [],
      "name": "isOpen",
      "outputs": [
        {
          "internalType": "bool",
          "name": "",
          "type": "bool"
        }
      ],
      "stateMutability": "view",
      "type": "function"
    },
    {
      "inputs": [],
      "name": "isPOLSWhitelisted",
      "outputs": [
        {
          "internalType": "bool",
          "name": "",
          "type": "bool"
        }
      ],
      "stateMutability": "view",
      "type": "function"
    },
    {
      "inputs": [],
      "name": "isPreStart",
      "outputs": [
        {
          "internalType": "bool",
          "name": "",
          "type": "bool"
        }
      ],
      "stateMutability": "view",
      "type": "function"
    },
    {
      "inputs": [],
      "name": "isSaleFunded",
      "outputs": [
        {
          "internalType": "bool",
          "name": "",
          "type": "bool"
        }
      ],
      "stateMutability": "view",
      "type": "function"
    },
    {
      "inputs": [
        {
          "internalType": "address",
          "name": "_address",
          "type": "address"
        },
        {
          "internalType": "bytes",
          "name": "signature",
          "type": "bytes"
        }
      ],
      "name": "isSignerForAddress",
      "outputs": [
        {
          "internalType": "bool",
          "name": "",
          "type": "bool"
        }
      ],
      "stateMutability": "view",
      "type": "function"
    },
    {
      "inputs": [
        {
          "internalType": "bytes32",
          "name": "hash",
          "type": "bytes32"
        },
        {
          "internalType": "bytes",
          "name": "signature",
          "type": "bytes"
        }
      ],
      "name": "isSignerFromBytes32",
      "outputs": [
        {
          "internalType": "bool",
          "name": "",
          "type": "bool"
        }
      ],
      "stateMutability": "view",
      "type": "function"
    },
    {
      "inputs": [],
      "name": "isTokenSwapAtomic",
      "outputs": [
        {
          "internalType": "bool",
          "name": "",
          "type": "bool"
        }
      ],
      "stateMutability": "view",
      "type": "function"
    },
    {
      "inputs": [
        {
          "internalType": "address",
          "name": "_address",
          "type": "address"
        }
      ],
      "name": "isWhitelisted",
      "outputs": [
        {
          "internalType": "bool",
          "name": "",
          "type": "bool"
        }
      ],
      "stateMutability": "view",
      "type": "function"
    },
    {
      "inputs": [
        {
          "internalType": "address",
          "name": "_address",
          "type": "address"
        },
        {
          "internalType": "bytes",
          "name": "signature",
          "type": "bytes"
        }
      ],
      "name": "isWhitelistedWithSignature",
      "outputs": [
        {
          "internalType": "bool",
          "name": "",
          "type": "bool"
        }
      ],
      "stateMutability": "view",
      "type": "function"
    },
    {
      "inputs": [
        {
          "internalType": "address",
          "name": "_address",
          "type": "address"
        },
        {
          "internalType": "bytes",
          "name": "signature",
          "type": "bytes"
        }
      ],
      "name": "isWhitelistedWithSignature_test",
      "outputs": [
        {
          "internalType": "string",
          "name": "",
          "type": "string"
        }
      ],
      "stateMutability": "view",
      "type": "function"
    },
    {
      "inputs": [],
      "name": "minimumRaise",
      "outputs": [
        {
          "internalType": "uint256",
          "name": "",
          "type": "uint256"
        }
      ],
      "stateMutability": "view",
      "type": "function"
    },
    {
      "inputs": [],
      "name": "minimumRaiseAchieved",
      "outputs": [
        {
          "internalType": "bool",
          "name": "",
          "type": "bool"
        }
      ],
      "stateMutability": "view",
      "type": "function"
    },
    {
      "inputs": [],
      "name": "minimumRaiseNotAchieved",
      "outputs": [
        {
          "internalType": "bool",
          "name": "",
          "type": "bool"
        }
      ],
      "stateMutability": "view",
      "type": "function"
    },
    {
      "inputs": [
        {
          "internalType": "address",
          "name": "",
          "type": "address"
        },
        {
          "internalType": "uint256",
          "name": "",
          "type": "uint256"
        }
      ],
      "name": "myPurchases",
      "outputs": [
        {
          "internalType": "uint256",
          "name": "",
          "type": "uint256"
        }
      ],
      "stateMutability": "view",
      "type": "function"
    },
    {
      "inputs": [],
      "name": "paused",
      "outputs": [
        {
          "internalType": "bool",
          "name": "",
          "type": "bool"
        }
      ],
      "stateMutability": "view",
      "type": "function"
    },
    {
      "inputs": [
        {
          "internalType": "uint256",
          "name": "purchase_id",
          "type": "uint256"
        }
      ],
      "name": "purchaseExists",
      "outputs": [
        {
          "internalType": "bool",
          "name": "",
          "type": "bool"
        }
      ],
      "stateMutability": "view",
      "type": "function"
    },
    {
      "inputs": [
        {
          "internalType": "uint256",
          "name": "",
          "type": "uint256"
        }
      ],
      "name": "purchases",
      "outputs": [
        {
          "internalType": "address",
          "name": "purchaser",
          "type": "address"
        },
        {
          "internalType": "uint48",
          "name": "timestamp",
          "type": "uint48"
        },
        {
          "internalType": "bool",
          "name": "wasFinalized",
          "type": "bool"
        },
        {
          "internalType": "bool",
          "name": "reverted",
          "type": "bool"
        },
        {
          "internalType": "uint256",
          "name": "amount",
          "type": "uint256"
        },
        {
          "internalType": "uint256",
          "name": "costAmount",
          "type": "uint256"
        },
        {
          "internalType": "uint256",
          "name": "amountRedeemed",
          "type": "uint256"
        }
      ],
      "stateMutability": "view",
      "type": "function"
    },
    {
      "inputs": [
        {
          "internalType": "bytes32",
          "name": "hash",
          "type": "bytes32"
        },
        {
          "internalType": "bytes",
          "name": "signature",
          "type": "bytes"
        }
      ],
      "name": "recoverSignerAddressFromBytes32",
      "outputs": [
        {
          "internalType": "address",
          "name": "",
          "type": "address"
        }
      ],
      "stateMutability": "pure",
      "type": "function"
    },
    {
      "inputs": [
        {
          "internalType": "uint256",
          "name": "purchase_id",
          "type": "uint256"
        }
      ],
      "name": "redeemGivenMinimumGoalNotAchieved",
      "outputs": [],
      "stateMutability": "nonpayable",
      "type": "function"
    },
    {
      "inputs": [
        {
          "internalType": "uint256",
          "name": "purchase_id",
          "type": "uint256"
        }
      ],
      "name": "redeemTokens",
      "outputs": [],
      "stateMutability": "nonpayable",
      "type": "function"
    },
    {
      "inputs": [
        {
          "internalType": "address",
          "name": "_address",
          "type": "address"
        }
      ],
      "name": "removeFromBlacklist",
      "outputs": [],
      "stateMutability": "nonpayable",
      "type": "function"
    },
    {
      "inputs": [
        {
          "internalType": "address",
          "name": "_address",
          "type": "address"
        }
      ],
      "name": "removeFromWhitelist",
      "outputs": [],
      "stateMutability": "nonpayable",
      "type": "function"
    },
    {
      "inputs": [
        {
          "internalType": "address",
          "name": "_tokenAddress",
          "type": "address"
        },
        {
          "internalType": "address",
          "name": "_to",
          "type": "address"
        }
      ],
      "name": "removeOtherERC20Tokens",
      "outputs": [],
      "stateMutability": "nonpayable",
      "type": "function"
    },
    {
      "inputs": [
        {
          "internalType": "bytes32",
          "name": "role",
          "type": "bytes32"
        },
        {
          "internalType": "address",
          "name": "account",
          "type": "address"
        }
      ],
      "name": "renounceRole",
      "outputs": [],
      "stateMutability": "nonpayable",
      "type": "function"
    },
    {
      "inputs": [
        {
          "internalType": "bytes32",
          "name": "role",
          "type": "bytes32"
        },
        {
          "internalType": "address",
          "name": "account",
          "type": "address"
        }
      ],
      "name": "revokeRole",
      "outputs": [],
      "stateMutability": "nonpayable",
      "type": "function"
    },
    {
      "inputs": [],
      "name": "safePull",
      "outputs": [],
      "stateMutability": "nonpayable",
      "type": "function"
    },
    {
      "inputs": [],
      "name": "safePullETH",
      "outputs": [],
      "stateMutability": "nonpayable",
      "type": "function"
    },
    {
      "inputs": [],
      "name": "safePullSaleToken",
      "outputs": [],
      "stateMutability": "nonpayable",
      "type": "function"
    },
    {
      "inputs": [],
      "name": "safePullTradeToken",
      "outputs": [],
      "stateMutability": "nonpayable",
      "type": "function"
    },
    {
      "inputs": [
        {
          "internalType": "uint256",
          "name": "_endDate",
          "type": "uint256"
        }
      ],
      "name": "setEndDate",
      "outputs": [],
      "stateMutability": "nonpayable",
      "type": "function"
    },
    {
      "inputs": [
        {
          "internalType": "bool",
          "name": "_hasWhitelisting",
          "type": "bool"
        }
      ],
      "name": "setHasWhitelisting",
      "outputs": [],
      "stateMutability": "nonpayable",
      "type": "function"
    },
    {
      "inputs": [
        {
          "internalType": "uint256",
          "name": "_individualMaximumAmount",
          "type": "uint256"
        }
      ],
      "name": "setIndividualMaximumAmount",
      "outputs": [],
      "stateMutability": "nonpayable",
      "type": "function"
    },
    {
      "inputs": [
        {
          "internalType": "address",
          "name": "_PolsStakeAddress",
          "type": "address"
        },
        {
          "internalType": "uint256",
          "name": "_PolsStakeAmount",
          "type": "uint256"
        },
        {
          "internalType": "uint256",
          "name": "_PolsStakeRewards",
          "type": "uint256"
        }
      ],
      "name": "setPolsStakingRequirement",
      "outputs": [],
      "stateMutability": "nonpayable",
      "type": "function"
    },
    {
      "inputs": [
        {
          "internalType": "address",
          "name": "_PolsTokenAddress",
          "type": "address"
        },
        {
          "internalType": "uint256",
          "name": "_PolsTokenAmount",
          "type": "uint256"
        }
      ],
      "name": "setPolsTokenRequirement",
      "outputs": [],
      "stateMutability": "nonpayable",
      "type": "function"
    },
    {
      "inputs": [
        {
          "internalType": "address",
          "name": "_PolsUniV2Address",
          "type": "address"
        },
        {
          "internalType": "uint256",
          "name": "_PolsUniV2Amount",
          "type": "uint256"
        }
      ],
      "name": "setPolsUniV2Requirement",
      "outputs": [],
      "stateMutability": "nonpayable",
      "type": "function"
    },
    {
      "inputs": [
        {
          "internalType": "address",
          "name": "_signerPublicAddress",
          "type": "address"
        }
      ],
      "name": "setSignerPublicAddress",
      "outputs": [],
      "stateMutability": "nonpayable",
      "type": "function"
    },
    {
      "inputs": [
        {
          "internalType": "uint256",
          "name": "_vestingStart",
          "type": "uint256"
        },
        {
          "internalType": "uint256",
          "name": "_vestingCliff",
          "type": "uint256"
        },
        {
          "internalType": "uint256",
          "name": "_vestingDuration",
          "type": "uint256"
        },
        {
          "internalType": "uint256[]",
          "name": "_vestingSchedule",
          "type": "uint256[]"
        }
      ],
      "name": "setVesting",
      "outputs": [],
      "stateMutability": "nonpayable",
      "type": "function"
    },
    {
      "inputs": [],
      "name": "signerPublicAddress",
      "outputs": [
        {
          "internalType": "address",
          "name": "",
          "type": "address"
        }
      ],
      "stateMutability": "view",
      "type": "function"
    },
    {
      "inputs": [],
      "name": "startDate",
      "outputs": [
        {
          "internalType": "uint256",
          "name": "",
          "type": "uint256"
        }
      ],
      "stateMutability": "view",
      "type": "function"
    },
    {
      "inputs": [
        {
          "internalType": "uint256",
          "name": "_amount",
          "type": "uint256"
        },
        {
          "internalType": "bytes",
          "name": "signature",
          "type": "bytes"
        }
      ],
      "name": "swap",
      "outputs": [],
      "stateMutability": "payable",
      "type": "function"
    },
    {
      "inputs": [],
      "name": "tokensAllocated",
      "outputs": [
        {
          "internalType": "uint256",
          "name": "",
          "type": "uint256"
        }
      ],
      "stateMutability": "view",
      "type": "function"
    },
    {
      "inputs": [],
      "name": "tokensForSale",
      "outputs": [
        {
          "internalType": "uint256",
          "name": "",
          "type": "uint256"
        }
      ],
      "stateMutability": "view",
      "type": "function"
    },
    {
      "inputs": [],
      "name": "tokensLeft",
      "outputs": [
        {
          "internalType": "uint256",
          "name": "",
          "type": "uint256"
        }
      ],
      "stateMutability": "view",
      "type": "function"
    },
    {
      "inputs": [],
      "name": "totalRaiseCost",
      "outputs": [
        {
          "internalType": "uint256",
          "name": "",
          "type": "uint256"
        }
      ],
      "stateMutability": "view",
      "type": "function"
    },
    {
      "inputs": [],
      "name": "tradeValue",
      "outputs": [
        {
          "internalType": "uint256",
          "name": "",
          "type": "uint256"
        }
      ],
      "stateMutability": "view",
      "type": "function"
    },
    {
      "inputs": [],
      "name": "unsoldTokensRedeemed",
      "outputs": [
        {
          "internalType": "bool",
          "name": "",
          "type": "bool"
        }
      ],
      "stateMutability": "view",
      "type": "function"
    },
    {
      "inputs": [],
      "name": "updateFundStatus",
      "outputs": [],
      "stateMutability": "nonpayable",
      "type": "function"
    },
    {
      "inputs": [],
      "name": "vestingCliff",
      "outputs": [
        {
          "internalType": "uint256",
          "name": "",
          "type": "uint256"
        }
      ],
      "stateMutability": "view",
      "type": "function"
    },
    {
      "inputs": [],
      "name": "vestingDuration",
      "outputs": [
        {
          "internalType": "uint256",
          "name": "",
          "type": "uint256"
        }
      ],
      "stateMutability": "view",
      "type": "function"
    },
    {
      "inputs": [
        {
          "internalType": "uint256",
          "name": "",
          "type": "uint256"
        }
      ],
      "name": "vestingSchedule",
      "outputs": [
        {
          "internalType": "uint256",
          "name": "",
          "type": "uint256"
        }
      ],
      "stateMutability": "view",
      "type": "function"
    },
    {
      "inputs": [],
      "name": "vestingStart",
      "outputs": [
        {
          "internalType": "uint256",
          "name": "",
          "type": "uint256"
        }
      ],
      "stateMutability": "view",
      "type": "function"
    },
    {
      "inputs": [],
      "name": "vestingTime",
      "outputs": [
        {
          "internalType": "uint256",
          "name": "",
          "type": "uint256"
        }
      ],
      "stateMutability": "view",
      "type": "function"
    },
    {
      "inputs": [],
      "name": "withdrawFunds",
      "outputs": [],
      "stateMutability": "nonpayable",
      "type": "function"
    },
    {
      "inputs": [],
      "name": "withdrawUnsoldTokens",
      "outputs": [],
      "stateMutability": "nonpayable",
      "type": "function"
    }
  ],
  "bytecode": "0x60806040526002805460ff60a01b1916905560006016553480156200002357600080fd5b5060405162006a0038038062006a0083398181016040526102008110156200004a57600080fd5b81019080805190602001909291908051906020019092919080519060200190929190805190602001909291908051906020019092919080519060200190929190805190602001909291908051906020019092919080519060200190929190805190602001909291908051906020019092919080519060200190929190805190602001909291908051906020019092919080519060200190929190805160405193929190846401000000008211156200010157600080fd5b9083019060208201858111156200011757600080fd5b82518660208202830111640100000000821117156200013557600080fd5b82525081516020918201928201910280838360005b83811015620001645781810151838201526020016200014a565b505050509190910160405250506000805460ff1916905550506002805460ff60a01b19168782161515600160a01b810291909117909155620001c77fb813b807c25079ba97f1770664c6a9e57c59afe74a6295f1ed01c10e3bb6baae3362000512565b50620001d560003362000512565b8c42106200022a576040805162461bcd60e51b815260206004820152601960248201527f7374617274206461746520697320696e20746865207061737400000000000000604482015290519081900360640190fd5b60008e1162000274576040805162461bcd60e51b81526020600482015260116024820152706e6f20746f6b656e20666f722073616c6560781b604482015290519081900360640190fd5b8a8e1015620002ca576040805162461bcd60e51b815260206004820152601e60248201527f746f6b656e73466f7253616c65203c20696e646976696475616c206d696e0000604482015290519081900360640190fd5b8d88111562000320576040805162461bcd60e51b815260206004820152601c60248201527f6d696e696d756d5261697365203e20746f6b656e73466f7253616c6500000000604482015290519081900360640190fd5b606387111562000377576040805162461bcd60e51b815260206004820152601e60248201527f4665652050657263656e746167652068617320746f206265203c203130300000604482015290519081900360640190fd5b60088663ffffffff1610620003d3576040805162461bcd60e51b815260206004820152601560248201527f756e737570706f7274656420666c616773207365740000000000000000000000604482015290519081900360640190fd5b60158b9055620003e38a62000522565b60138d9055620003f38c620005b8565b60198e905560128f905560018616156200041a576011805460ff191660011790556200042d565b60178890556200042d84848484620006b7565b8f600e60006101000a8154816001600160a01b0302191690836001600160a01b0316021790555060006001600160a01b0316856001600160a01b0316146200048b57600f80546001600160a01b0319166001600160a01b0387161790555b6004861615620004f6576011805461ff001916610100179055620004cd7383e6f1e41cdd28eaceb20cb649155049fac3d5aa68a2a15d09519be00000620009ca565b620004f673ffa98a091331df4600f87c9164cd27e8a5cd24056801158e460913d0000062000a3e565b5050506010939093555062000c979a5050505050505050505050565b6200051e828262000ab2565b5050565b6200052f60003362000b2d565b62000570576040805162461bcd60e51b81526020600482015260196024820152600080516020620069e0833981519152604482015290519081900360640190fd5b601554811015620005b35760405162461bcd60e51b81526004018080602001828103825260318152602001806200698f6031913960400191505060405180910390fd5b601655565b620005c560003362000b2d565b62000606576040805162461bcd60e51b81526020600482015260196024820152600080516020620069e0833981519152604482015290519081900360640190fd5b8042106200065b576040805162461bcd60e51b815260206004820181905260248201527f656e6420646174652068617320746f20626520696e2074686520667574757265604482015290519081900360640190fd5b8060135410620006b2576040805162461bcd60e51b815260206004820152601a60248201527f656e642064617465206265666f72652073746172742064617465000000000000604482015290519081900360640190fd5b601455565b620006c460003362000b2d565b62000705576040805162461bcd60e51b81526020600482015260196024820152600080516020620069e0833981519152604482015290519081900360640190fd5b6200070f62000b5c565b1562000762576040805162461bcd60e51b815260206004820152601a60248201527f746f6b656e2073616c6520616c72656164792073746172746564000000000000604482015290519081900360640190fd5b81831115620007b8576040805162461bcd60e51b815260206004820152601e60248201527f76657374696e67436c696666203e2076657374696e674475726174696f6e0000604482015290519081900360640190fd5b6312cff7808151600014620007cf578151620007d2565b60015b83021062000827576040805162461bcd60e51b815260206004820152601d60248201527f746f74616c2076657374696e672074696d65203e203130207965617273000000604482015290519081900360640190fd5b601a849055601b839055601c82905562000844601d600062000c59565b6001815110620009c457600082116200088f5760405162461bcd60e51b81526004018080602001828103825260348152602001806200695b6034913960400191505060405180910390fd5b6000816000815181106200089f57fe5b6020026020010151905064e8d4a51000606402811062000906576040805162461bcd60e51b815260206004820152601c60248201527f66697273742076657374696e6720706572696f64203e3d203130302500000000604482015290519081900360640190fd5b601d805460018181018355600092909252600080516020620069c0833981519152018290555b8251811015620009c1576200097f8382815181106200094757fe5b6020026020010151601d60018403815481106200096057fe5b906000526020600020015462000b6560201b62004ed31790919060201c565b9150655af3107a400082106200099557620009c1565b601d805460018181018355600092909252600080516020620069c083398151915201839055016200092c565b50505b50505050565b620009d760003362000b2d565b62000a18576040805162461bcd60e51b81526020600482015260196024820152600080516020620069e0833981519152604482015290519081900360640190fd5b600780546001600160a01b0319166001600160a01b039390931692909217909155600855565b62000a4b60003362000b2d565b62000a8c576040805162461bcd60e51b81526020600482015260196024820152600080516020620069e0833981519152604482015290519081900360640190fd5b600980546001600160a01b0319166001600160a01b039390931692909217909155600a55565b600082815260016020908152604090912062000ad991839062004f2d62000bc0821b17901c565b156200051e5762000ae962000bd7565b6001600160a01b0316816001600160a01b0316837f2f8788117e7eff1d82e926ec794901d17c78024a50270940304540a733656f0d60405160405180910390a45050565b6000828152600160209081526040822062000b5391849062004f4262000bdb821b17901c565b90505b92915050565b60135442101590565b60008282018381101562000b53576040805162461bcd60e51b815260206004820152601b60248201527f536166654d6174683a206164646974696f6e206f766572666c6f770000000000604482015290519081900360640190fd5b600062000b53836001600160a01b03841662000bf2565b3390565b600062000b53836001600160a01b03841662000c41565b600062000c00838362000c41565b62000c385750815460018181018455600084815260208082209093018490558454848252828601909352604090209190915562000b56565b50600062000b56565b60009081526001919091016020526040902054151590565b508054600082559060005260206000209081019062000c79919062000c7c565b50565b5b8082111562000c93576000815560010162000c7d565b5090565b615cb48062000ca76000396000f3fe6080604052600436106106315760003560e01c80637f7b271211610329578063bd0fcfd1116101b6578063e4101de511610102578063f267d48c116100a0578063f64bfaba1161007a578063f64bfaba14611abd578063fce9d11b14611ad2578063fe575a8714611ae7578063fecf415a14611b1a57610631565b8063f267d48c14611a69578063f2aa821814611a7e578063f3640e7414611aa857610631565b8063e8b882f4116100dc578063e8b882f414611a15578063eb1edd6114611a2a578063eee95be614611a3f578063efbb34d514611a5457610631565b8063e4101de514611915578063e43252d71461192a578063e4a802521461195d57610631565b8063ca15c8731161016f578063d47eb3d511610149578063d47eb3d5146117e6578063d547741f146117fb578063dbb57ac814611834578063dc91b072146118eb57610631565b8063ca15c8731461177d578063ca1d209d146117a7578063d0a4a895146117d157610631565b8063bd0fcfd1146116e1578063bf135abe146116f6578063c24a0f8b1461170b578063c3ca324f14611720578063c7dab43614611753578063c8bdbfb61461176857610631565b806396a32bc411610275578063a96c58651161022e578063b367940e11610208578063b367940e146115d9578063b8691787146115ee578063ba40a96a14611621578063bd0625ab1461163657610631565b8063a96c586514611581578063b0b12ac314611596578063b31f8f93146115c457610631565b806396a32bc4146114555780639d90a46e1461146a578063a001ecdd14611518578063a1c09bf11461152d578063a217fddf14611542578063a6e158f81461155757610631565b80638e75b131116102e2578063917c854d116102bc578063917c854d146113a2578063919bd930146113dd57806391d1485414611407578063948384141461144057610631565b80638e75b131146113335780639010d07c146113485780639097548d1461137857610631565b80637f7b2712146112155780638392fe311461122a5780638855ccaa1461129d57806388b0fe2b146112d65780638a1a5f3f146112eb5780638ab1d6811461130057610631565b806336568abe116104c25780635ac699bb1161040e5780636eaaabd5116103ac578063755e3e2811610386578063755e3e281461111e57806376807e5f14611133578063785e9e8614611148578063799bb2321461115d57610631565b80636eaaabd5146110c857806370a898bc146110f457806374fa05fb1461110957610631565b8063658f2dfe116103e8578063658f2dfe14610f1c57806368673e7d14610fdd57806369bb4dc21461109e5780636d028027146110b357610631565b80635ac699bb14610eb95780635c975abb14610ef25780636295a2f414610f0757610631565b80633bbab1791161047b57806344691f7e1161045557806344691f7e14610e475780634588f68814610e5c57806347535d7b14610e71578063537df3b614610e8657610631565b80633bbab17914610d9a5780634089aa9a14610dff57806344337ea114610e1457610631565b806336568abe14610bd15780633742a9f714610c0a5780633784f00014610c7f5780633abcb8e814610ca95780633af32abf14610cbe5780633b6577c814610cf157610631565b806321710d2711610581578063273e96e91161053a5780632e154107116105145780632e15410714610b595780632ebb5c1e14610b6e5780632f2ff15d14610b8357806331d06af314610bbc57610631565b8063273e96e9146109db5780632b12803414610a0e5780632daa8c8414610b4457610631565b806321710d271461091757806321d3002a1461094857806324600fc31461095d578063248a9ca314610972578063254800d41461099c5780632593ea17146109b157610631565b80631164d20c116105ee5780631514617e116105c85780631514617e146108ae57806315b57866146108c3578063161a7b2a146108d85780631de18af7146108ed57610631565b80631164d20c146107c357806312aef8c31461088457806313430f011461089957610631565b80630274fa9814610636578063044c0cc51461067757806307662345146106a057806308abd7ff146106b55780630b97bc86146107635780630dfb6d741461078a575b600080fd5b34801561064257600080fd5b506106756004803603606081101561065957600080fd5b506001600160a01b038135169060208101359060400135611b44565b005b34801561068357600080fd5b5061068c611bb7565b604080519115158252519081900360200190f35b3480156106ac57600080fd5b5061068c611bc8565b3480156106c157600080fd5b50610675600480360360208110156106d857600080fd5b810190602081018135600160201b8111156106f257600080fd5b82018360208201111561070457600080fd5b803590602001918460208302840111600160201b8311171561072557600080fd5b919080806020026020016040519081016040528093929190818152602001838360200280828437600092019190915250929550611bd8945050505050565b34801561076f57600080fd5b50610778611cae565b60408051918252519081900360200190f35b34801561079657600080fd5b50610675600480360360408110156107ad57600080fd5b506001600160a01b038135169060200135611cb4565b3480156107cf57600080fd5b5061068c600480360360408110156107e657600080fd5b6001600160a01b038235169190810190604081016020820135600160201b81111561081057600080fd5b82018360208201111561082257600080fd5b803590602001918460018302840111600160201b8311171561084357600080fd5b91908080601f016020809104026020016040519081016040528093929190818152602001838380828437600092019190915250929550611d24945050505050565b34801561089057600080fd5b50610778611d55565b3480156108a557600080fd5b50610778611d5b565b3480156108ba57600080fd5b50610778611d61565b3480156108cf57600080fd5b5061068c611d67565b3480156108e457600080fd5b5061068c611d6f565b3480156108f957600080fd5b506106756004803603602081101561091057600080fd5b5035611d7e565b34801561092357600080fd5b5061092c6120b0565b604080516001600160a01b039092168252519081900360200190f35b34801561095457600080fd5b5061068c6120c8565b34801561096957600080fd5b506106756120d1565b34801561097e57600080fd5b506107786004803603602081101561099557600080fd5b50356123f5565b3480156109a857600080fd5b5061077861240d565b3480156109bd57600080fd5b5061068c600480360360208110156109d457600080fd5b5035612413565b3480156109e757600080fd5b5061068c600480360360208110156109fe57600080fd5b50356001600160a01b031661241a565b348015610a1a57600080fd5b50610acf60048036036040811015610a3157600080fd5b6001600160a01b038235169190810190604081016020820135600160201b811115610a5b57600080fd5b820183602082011115610a6d57600080fd5b803590602001918460018302840111600160201b83111715610a8e57600080fd5b91908080601f016020809104026020016040519081016040528093929190818152602001838380828437600092019190915250929550612693945050505050565b6040805160208082528351818301528351919283929083019185019080838360005b83811015610b09578181015183820152602001610af1565b50505050905090810190601f168015610b365780820380516001836020036101000a031916815260200191505b509250505060405180910390f35b348015610b5057600080fd5b506106756126f2565b348015610b6557600080fd5b506107786128a6565b348015610b7a57600080fd5b5061068c6128ac565b348015610b8f57600080fd5b5061067560048036036040811015610ba657600080fd5b50803590602001356001600160a01b03166128b4565b348015610bc857600080fd5b5061092c61291c565b348015610bdd57600080fd5b5061067560048036036040811015610bf457600080fd5b50803590602001356001600160a01b031661292b565b348015610c1657600080fd5b50610c3460048036036020811015610c2d57600080fd5b503561298c565b604080519788526001600160a01b0390961660208801528686019490945265ffffffffffff909216606086015215156080850152151560a084015260c0830152519081900360e00190f35b348015610c8b57600080fd5b5061067560048036036020811015610ca257600080fd5b5035612aa3565b348015610cb557600080fd5b50610778612b9c565b348015610cca57600080fd5b5061068c60048036036020811015610ce157600080fd5b50356001600160a01b0316612ba2565b348015610cfd57600080fd5b50610d1b60048036036020811015610d1457600080fd5b5035612baf565b6040518083815260200180602001828103825283818151815260200191508051906020019080838360005b83811015610d5e578181015183820152602001610d46565b50505050905090810190601f168015610d8b5780820380516001836020036101000a031916815260200191505b50935050505060405180910390f35b348015610da657600080fd5b50610daf612f91565b60408051602080825283518183015283519192839290830191858101910280838360005b83811015610deb578181015183820152602001610dd3565b505050509050019250505060405180910390f35b348015610e0b57600080fd5b5061068c612fa2565b348015610e2057600080fd5b5061067560048036036020811015610e3757600080fd5b50356001600160a01b0316612faa565b348015610e5357600080fd5b5061068c613049565b348015610e6857600080fd5b5061092c613052565b348015610e7d57600080fd5b5061068c613061565b348015610e9257600080fd5b5061067560048036036020811015610ea957600080fd5b50356001600160a01b0316613080565b348015610ec557600080fd5b5061077860048036036040811015610edc57600080fd5b506001600160a01b03813516906020013561311e565b348015610efe57600080fd5b5061068c61314e565b348015610f1357600080fd5b50610778613157565b348015610f2857600080fd5b5061067560048036036080811015610f3f57600080fd5b81359160208101359160408201359190810190608081016060820135600160201b811115610f6c57600080fd5b820183602082011115610f7e57600080fd5b803590602001918460208302840111600160201b83111715610f9f57600080fd5b91908080602002602001604051908101604052809392919081815260200183836020028082843760009201919091525092955061315d945050505050565b348015610fe957600080fd5b5061068c6004803603604081101561100057600080fd5b6001600160a01b038235169190810190604081016020820135600160201b81111561102a57600080fd5b82018360208201111561103c57600080fd5b803590602001918460018302840111600160201b8311171561105d57600080fd5b91908080601f016020809104026020016040519081016040528093929190818152602001838380828437600092019190915250929550613473945050505050565b3480156110aa57600080fd5b506107786134ab565b3480156110bf57600080fd5b50610daf613527565b3480156110d457600080fd5b50610675600480360360208110156110eb57600080fd5b50351515613533565b34801561110057600080fd5b5061068c6135dd565b34801561111557600080fd5b5061068c6135e5565b34801561112a57600080fd5b506107786135ef565b34801561113f57600080fd5b506106756135f5565b34801561115457600080fd5b5061092c61368f565b34801561116957600080fd5b5061092c6004803603604081101561118057600080fd5b81359190810190604081016020820135600160201b8111156111a157600080fd5b8201836020820111156111b357600080fd5b803590602001918460018302840111600160201b831117156111d457600080fd5b91908080601f01602080910402602001604051908101604052809392919081815260200183838082843760009201919091525092955061369e945050505050565b34801561122157600080fd5b50610778613709565b34801561123657600080fd5b506112546004803603602081101561124d57600080fd5b5035613712565b604080516001600160a01b03909816885265ffffffffffff9096166020880152931515868601529115156060860152608085015260a084015260c0830152519081900360e00190f35b3480156112a957600080fd5b50610675600480360360408110156112c057600080fd5b506001600160a01b038135169060200135613779565b3480156112e257600080fd5b506106756137e9565b3480156112f757600080fd5b506107786138d4565b34801561130c57600080fd5b506106756004803603602081101561132357600080fd5b50356001600160a01b031661390f565b34801561133f57600080fd5b506107786139ad565b34801561135457600080fd5b5061092c6004803603604081101561136b57600080fd5b50803590602001356139b3565b34801561138457600080fd5b506107786004803603602081101561139b57600080fd5b50356139cb565b3480156113ae57600080fd5b50610675600480360360408110156113c557600080fd5b506001600160a01b0381358116916020013516613a61565b3480156113e957600080fd5b506107786004803603602081101561140057600080fd5b5035613c46565b34801561141357600080fd5b5061068c6004803603604081101561142a57600080fd5b50803590602001356001600160a01b0316613c67565b34801561144c57600080fd5b5061068c613c7f565b34801561146157600080fd5b50610675613c8f565b34801561147657600080fd5b506106756004803603602081101561148d57600080fd5b810190602081018135600160201b8111156114a757600080fd5b8201836020820111156114b957600080fd5b803590602001918460208302840111600160201b831117156114da57600080fd5b919080806020026020016040519081016040528093929190818152602001838360200280828437600092019190915250929550613d55945050505050565b34801561152457600080fd5b50610778613e2a565b34801561153957600080fd5b50610778613e30565b34801561154e57600080fd5b50610778613e36565b34801561156357600080fd5b506106756004803603602081101561157a57600080fd5b5035613e3b565b34801561158d57600080fd5b50610778614142565b3480156115a257600080fd5b506115ab614148565b6040805163ffffffff9092168252519081900360200190f35b3480156115d057600080fd5b5061077861414f565b3480156115e557600080fd5b5061068c614159565b3480156115fa57600080fd5b506106756004803603602081101561161157600080fd5b50356001600160a01b0316614164565b34801561162d57600080fd5b5061092c6141dd565b6106756004803603604081101561164c57600080fd5b81359190810190604081016020820135600160201b81111561166d57600080fd5b82018360208201111561167f57600080fd5b803590602001918460018302840111600160201b831117156116a057600080fd5b91908080601f0160208091040260200160405190810160405280939291908181526020018383808284376000920191909152509295506141ec945050505050565b3480156116ed57600080fd5b5061092c614811565b34801561170257600080fd5b5061092c614829565b34801561171757600080fd5b50610778614838565b34801561172c57600080fd5b50610daf6004803603602081101561174357600080fd5b50356001600160a01b031661483e565b34801561175f57600080fd5b506107786148a8565b34801561177457600080fd5b506106756148c4565b34801561178957600080fd5b50610778600480360360208110156117a057600080fd5b50356149c6565b3480156117b357600080fd5b50610675600480360360208110156117ca57600080fd5b50356149dd565b3480156117dd57600080fd5b5061068c614abe565b3480156117f257600080fd5b5061092c614acc565b34801561180757600080fd5b506106756004803603604081101561181e57600080fd5b50803590602001356001600160a01b0316614adb565b34801561184057600080fd5b5061185e6004803603602081101561185757600080fd5b5035614b34565b6040518085815260200184815260200183815260200180602001828103825283818151815260200191508051906020019080838360005b838110156118ad578181015183820152602001611895565b50505050905090810190601f1680156118da5780820380516001836020036101000a031916815260200191505b509550505050505060405180910390f35b3480156118f757600080fd5b506106756004803603602081101561190e57600080fd5b5035614be1565b34801561192157600080fd5b50610778614c71565b34801561193657600080fd5b506106756004803603602081101561194d57600080fd5b50356001600160a01b0316614c77565b34801561196957600080fd5b5061068c6004803603604081101561198057600080fd5b81359190810190604081016020820135600160201b8111156119a157600080fd5b8201836020820111156119b357600080fd5b803590602001918460018302840111600160201b831117156119d457600080fd5b91908080601f016020809104026020016040519081016040528093929190818152602001838380828437600092019190915250929550614d15945050505050565b348015611a2157600080fd5b50610778614d3f565b348015611a3657600080fd5b5061092c614d51565b348015611a4b57600080fd5b50610675614d69565b348015611a6057600080fd5b50610778614de5565b348015611a7557600080fd5b50610778614df2565b348015611a8a57600080fd5b5061092c60048036036020811015611aa157600080fd5b5035614df8565b348015611ab457600080fd5b50610778614e22565b348015611ac957600080fd5b50610daf614e28565b348015611ade57600080fd5b50610daf614e8a565b348015611af357600080fd5b5061068c60048036036020811015611b0a57600080fd5b50356001600160a01b0316614e95565b348015611b2657600080fd5b5061068c60048036036020811015611b3d57600080fd5b5035614ea2565b611b4f600033613c67565b611b8e576040805162461bcd60e51b81526020600482015260196024820152600080516020615c30833981519152604482015290519081900360640190fd5b600b80546001600160a01b0319166001600160a01b039490941693909317909255600c55600d55565b600f546001600160a01b0316155b90565b600254600160a01b900460ff1681565b611bf0600080516020615bc683398151915233613c67565b611c2f576040805162461bcd60e51b815260206004820152601c6024820152600080516020615af3833981519152604482015290519081900360640190fd5b6000805b8251811015611c7757611c63838281518110611c4b57fe5b60200260200101516003614f2d90919063ffffffff16565b15611c6f576001909101905b600101611c33565b508015611caa5760405181907f448f3bd350ede14a294c062177c5280fe1eae125d16757da21f5f51d6e89daae90600090a25b5050565b60135481565b611cbf600033613c67565b611cfe576040805162461bcd60e51b81526020600482015260196024820152600080516020615c30833981519152604482015290519081900360640190fd5b600980546001600160a01b0319166001600160a01b039390931692909217909155600a55565b6002546000906001600160a01b038085169116611d41828561369e565b6001600160a01b0316149150505b92915050565b60195481565b600c5481565b601c5481565b601754151590565b60115462010000900460ff1681565b611d86612fa2565b611dc5576040805162461bcd60e51b81526020600482015260186024820152600080516020615be6833981519152604482015290519081900360640190fd5b60115460ff1615611e1d576040805162461bcd60e51b815260206004820152601e60248201527f73616c652068617320746f206265206e6f6e2041746f6d696320737761700000604482015290519081900360640190fd5b611e2681614ea2565b611e6e576040805162461bcd60e51b815260206004820152601460248201527330b2323932b9b99034b9903737ba10313abcb2b960611b604482015290519081900360640190fd5b611e76611d67565b611ec7576040805162461bcd60e51b815260206004820152601d60248201527f6e6f206d696e696d756d20726169736520686173206265656e20736574000000604482015290519081900360640190fd5b611ecf6135e5565b611f20576040805162461bcd60e51b815260206004820152601e60248201527f6d696e696d756d20726169736520686173206265656e20726561636865640000604482015290519081900360640190fd5b6000601e8281548110611f2f57fe5b906000526020600020906004020190506000816001015411611f98576040805162461bcd60e51b815260206004820152601760248201527f707572636861736520616d6f756e74206973207a65726f000000000000000000604482015290519081900360640190fd5b8054600160d01b900460ff1615611fee576040805162461bcd60e51b81526020600482015260156024820152741c1d5c98da185cd9481a5cc8199a5b985b1a5e9959605a1b604482015290519081900360640190fd5b805460ff60d81b1960ff60d01b19909116600160d01b1716600160d81b178155612016611bb7565b1561207857336001600160a01b03166108fc601e848154811061203557fe5b9060005260206000209060040201600201549081150290604051600060405180830381858888f19350505050158015612072573d6000803e3d6000fd5b50611caa565b611caa33601e848154811061208957fe5b6000918252602090912060026004909202010154600f546001600160a01b03169190614f57565b73ffa98a091331df4600f87c9164cd27e8a5cd240581565b60115460ff1681565b6120dc600033613c67565b61211b576040805162461bcd60e51b81526020600482015260196024820152600080516020615c30833981519152604482015290519081900360640190fd5b61212361314e565b15612168576040805162461bcd60e51b815260206004820152601060248201526f14185d5cd8589b194e881c185d5cd95960821b604482015290519081900360640190fd5b612170612fa2565b6121af576040805162461bcd60e51b81526020600482015260186024820152600080516020615be6833981519152604482015290519081900360640190fd5b6121b7614159565b612204576040805162461bcd60e51b81526020600482015260196024820152781b5a5b9a5b5d5b481c985a5cd9481b9bdd081c995858da1959603a1b604482015290519081900360640190fd5b61220c611bb7565b156122ad5773aeb39b67f27b641ef9f95fb74f1a46b1ee4efc836001600160a01b03166108fc612252606461224c60105447614fae90919063ffffffff16565b90615007565b6040518115909202916000818181858888f1935050505015801561227a573d6000803e3d6000fd5b5060405133904780156108fc02916000818181858888f193505050501580156122a7573d6000803e3d6000fd5b506123f3565b601054600f54604080516370a0823160e01b815230600482015290516123639373aeb39b67f27b641ef9f95fb74f1a46b1ee4efc83936123509360649361224c93926001600160a01b0316916370a08231916024808301926020929190829003018186803b15801561231e57600080fd5b505afa158015612332573d6000803e3d6000fd5b505050506040513d602081101561234857600080fd5b505190614fae565b600f546001600160a01b03169190614f57565b600f54604080516370a0823160e01b815230600482015290516123f39233926001600160a01b03909116916370a0823191602480820192602092909190829003018186803b1580156123b457600080fd5b505afa1580156123c8573d6000803e3d6000fd5b505050506040513d60208110156123de57600080fd5b5051600f546001600160a01b03169190614f57565b565b6000818152600160205260409020600201545b919050565b601a5481565b601e541190565b601154600090610100900460ff1661243457506001612408565b600b546001600160a01b03161561255757600c54600b54604080516370a0823160e01b81526001600160a01b038681166004830152915191909216916370a08231916024808301926020929190829003018186803b15801561249557600080fd5b505afa1580156124a9573d6000803e3d6000fd5b505050506040513d60208110156124bf57600080fd5b5051106124ce57506001612408565b600d54600b546040805163f6a3f3cf60e01b81526001600160a01b0386811660048301529151919092169163f6a3f3cf916024808301926020929190829003018186803b15801561251e57600080fd5b505afa158015612532573d6000803e3d6000fd5b505050506040513d602081101561254857600080fd5b50511061255757506001612408565b6009546001600160a01b0316156125f157600a54600954604080516370a0823160e01b81526001600160a01b038681166004830152915191909216916370a08231916024808301926020929190829003018186803b1580156125b857600080fd5b505afa1580156125cc573d6000803e3d6000fd5b505050506040513d60208110156125e257600080fd5b5051106125f157506001612408565b6007546001600160a01b03161561268b57600854600754604080516370a0823160e01b81526001600160a01b038681166004830152915191909216916370a08231916024808301926020929190829003018186803b15801561265257600080fd5b505afa158015612666573d6000803e3d6000fd5b505050506040513d602081101561267c57600080fd5b50511061268b57506001612408565b506000919050565b606061269f8383613473565b6126c957604051806040016040528060088152602001671c995a9958dd195960c21b8152506126eb565b604051806040016040528060088152602001671858d8d95c1d195960c21b8152505b9392505050565b6126fd600033613c67565b61273c576040805162461bcd60e51b81526020600482015260196024820152600080516020615c30833981519152604482015290519081900360640190fd5b61274461314e565b61278c576040805162461bcd60e51b815260206004820152601460248201527314185d5cd8589b194e881b9bdd081c185d5cd95960621b604482015290519081900360640190fd5b60405133904780156108fc02916000818181858888f193505050501580156127b8573d6000803e3d6000fd5b50600e54604080516370a0823160e01b815230600482015290516128499233926001600160a01b03909116916370a0823191602480820192602092909190829003018186803b15801561280a57600080fd5b505afa15801561281e573d6000803e3d6000fd5b505050506040513d602081101561283457600080fd5b5051600e546001600160a01b03169190614f57565b612851611bb7565b6123f357600f54604080516370a0823160e01b815230600482015290516123f39233926001600160a01b03909116916370a0823191602480820192602092909190829003018186803b1580156123b457600080fd5b60155481565b601354421090565b6000828152600160205260409020600201546128d7906128d261506e565b613c67565b6129125760405162461bcd60e51b815260040180806020018281038252602f8152602001806159e7602f913960400191505060405180910390fd5b611caa8282615072565b600b546001600160a01b031681565b61293361506e565b6001600160a01b0316816001600160a01b0316146129825760405162461bcd60e51b815260040180806020018281038252602f815260200180615c50602f913960400191505060405180910390fd5b611caa82826150db565b60008060008060008060006129a088612413565b6129ee576040805162461bcd60e51b815260206004820152601a6024820152791c1d5c98da185cd957da5908191bd95cc81b9bdd08195e1a5cdd60321b604482015290519081900360640190fd5b6000601e89815481106129fd57fe5b60009182526020918290206040805160e08101825260049390930290910180546001600160a01b03811680855265ffffffffffff600160a01b83041695850186905260ff600160d01b830481161515948601859052600160d81b909204909116151560608501819052600183015460808601819052600284015460a0870181905260039094015460c09096018690529f919e50919c50939a509098509650945092505050565b612aae600033613c67565b612aed576040805162461bcd60e51b81526020600482015260196024820152600080516020615c30833981519152604482015290519081900360640190fd5b804210612b41576040805162461bcd60e51b815260206004820181905260248201527f656e6420646174652068617320746f20626520696e2074686520667574757265604482015290519081900360640190fd5b8060135410612b97576040805162461bcd60e51b815260206004820152601a60248201527f656e642064617465206265666f72652073746172742064617465000000000000604482015290519081900360640190fd5b601455565b600a5481565b6000611d4f600383614f42565b60006060612bbc83612413565b612bfb57505060408051808201909152601a8152791c1d5c98da185cd957da5908191bd95cc81b9bdd08195e1a5cdd60321b6020820152600090612f8c565b60115460ff1615612c4457505060408051808201909152601981527f68617320746f206265206e6f6e2041746f6d69632073776170000000000000006020820152600090612f8c565b612c4c612fa2565b612c8e57505060408051808201909152601881527f746f6b656e2073616c65206e6f742066696e616c697a656400000000000000006020820152600090612f8c565b612c9661314e565b15612cd957505060408051808201909152601d81527f746f6b656e2073616c6520636f6e7472616374206973207061757365640000006020820152600090612f8c565b612ce16135e5565b15612d205750506040805180820190915260198152781b5a5b9a5b5d5b481c985a5cd9481b9bdd081c995858da1959603a1b6020820152600090612f8c565b6000601e8481548110612d2f57fe5b90600052602060002090600402016001015490506000601e8581548110612d5257fe5b9060005260206000209060040201600301549050818110612db05760006040518060400160405280601a81526020017f616c6c20746f6b656e20616c72656164792072656465656d6564000000000000815250935093505050612f8c565b601a54421015612dfd5760006040518060400160405280601e81526020017f76657374696e6720706572696f64206e6f742079657420737461727465640000815250935093505050612f8c565b601b54601a5401421015612e4e5760006040518060400160405280601d81526020017f76657374696e6720636c696666206e6f74207965742072656163686564000000815250935093505050612f8c565b601d54600090612ea55742601c54601a540111612e7657612e6f8383615144565b9050612ea0565b612e9d82612e97601c5461224c601a54420388614fae90919063ffffffff16565b90615144565b90505b612f5e565b6000601c54601a54420381612eb657fe5b601d5491900491508110612ed557612ece8484615144565b9150612f5c565b6000612f0d64e8d4a5100060640261224c601d8581548110612ef357fe5b906000526020600020015488614fae90919063ffffffff16565b905083811015612f4e5760405162461bcd60e51b815260040180806020018281038252602c815260200180615b9a602c913960400191505060405180910390fd5b612f588185615144565b9250505b505b60408051808201909152600f81526e726561647920746f2072656465656d60881b6020820152909450925050505b915091565b6060612f9d60056151a1565b905090565b601454421190565b612fc2600080516020615bc683398151915233613c67565b613001576040805162461bcd60e51b815260206004820152601c6024820152600080516020615af3833981519152604482015290519081900360640190fd5b61300c600582614f2d565b15613046576040516001600160a01b038216907ff9b68063b051b82957fa193585681240904fed808db8b30fc5a2d2202c6ed62790600090a25b50565b60135442101590565b6009546001600160a01b031681565b600061306b613049565b8015612f9d575061307a612fa2565b15905090565b613098600080516020615bc683398151915233613c67565b6130d7576040805162461bcd60e51b815260206004820152601c6024820152600080516020615af3833981519152604482015290519081900360640190fd5b6130e2600582615241565b15613046576040516001600160a01b038216907f2b6bf71b58b3583add364b3d9060ebf8019650f65f5be35f5464b9cb3e4ba2d490600090a250565b60208052816000526040600020818154811061313957600080fd5b90600052602060002001600091509150505481565b60005460ff1690565b60125481565b613168600033613c67565b6131a7576040805162461bcd60e51b81526020600482015260196024820152600080516020615c30833981519152604482015290519081900360640190fd5b6131af613049565b15613201576040805162461bcd60e51b815260206004820152601a60248201527f746f6b656e2073616c6520616c72656164792073746172746564000000000000604482015290519081900360640190fd5b81831115613256576040805162461bcd60e51b815260206004820152601e60248201527f76657374696e67436c696666203e2076657374696e674475726174696f6e0000604482015290519081900360640190fd5b6312cff780815160001461326b57815161326e565b60015b8302106132c2576040805162461bcd60e51b815260206004820152601d60248201527f746f74616c2076657374696e672074696d65203e203130207965617273000000604482015290519081900360640190fd5b601a849055601b839055601c8290556132dd601d6000615996565b600181511061346d57600082116133255760405162461bcd60e51b8152600401808060200182810382526034815260200180615a166034913960400191505060405180910390fd5b60008160008151811061333457fe5b6020026020010151905064e8d4a51000606402811061339a576040805162461bcd60e51b815260206004820152601c60248201527f66697273742076657374696e6720706572696f64203e3d203130302500000000604482015290519081900360640190fd5b601d8054600181810183556000929092527f6d4407e7be21f808e6509aa9fa9143369579dd7d760fe20a2c09680fc146134f018290555b825181101561346a5761341a8382815181106133e957fe5b6020026020010151601d600184038154811061340157fe5b9060005260206000200154614ed390919063ffffffff16565b9150655af3107a4000821061342e5761346a565b601d8054600181810183556000929092527f6d4407e7be21f808e6509aa9fa9143369579dd7d760fe20a2c09680fc146134f01839055016133d1565b50505b50505050565b600061347e83614e95565b1561348b57506000611d4f565b61349483612ba2565b156134a157506001611d4f565b6126eb8383611d24565b600e54604080516370a0823160e01b815230600482015290516000926001600160a01b0316916370a08231916024808301926020929190829003018186803b1580156134f657600080fd5b505afa15801561350a573d6000803e3d6000fd5b505050506040513d602081101561352057600080fd5b5051905090565b6060612f9d60036151a1565b61354b600080516020615bc683398151915233613c67565b61358a576040805162461bcd60e51b815260206004820152601c6024820152600080516020615af3833981519152604482015290519081900360640190fd5b60028054821515600160a01b810260ff60a01b199092169190911790915560408051918252517fe905f7f52156c346547b9deb6fb3e2459db941ec55d073fd465129bf4b49fae69181900360200190a150565b601554151590565b6017546018541090565b60185481565b613600600033613c67565b61363f576040805162461bcd60e51b81526020600482015260196024820152600080516020615c30833981519152604482015290519081900360640190fd5b61364761314e565b612363576040805162461bcd60e51b815260206004820152601460248201527314185d5cd8589b194e881b9bdd081c185d5cd95960621b604482015290519081900360640190fd5b600e546001600160a01b031681565b600081516041146136f6576040805162461bcd60e51b815260206004820152601960248201527f7369676e6174757265206973206e6f7420363520627974657300000000000000604482015290519081900360640190fd5b6126eb8261370385615256565b906152a7565b64e8d4a5100081565b601e818154811061372257600080fd5b600091825260209091206004909102018054600182015460028301546003909301546001600160a01b038316945065ffffffffffff600160a01b8404169360ff600160d01b8504811694600160d81b900416929187565b613784600033613c67565b6137c3576040805162461bcd60e51b81526020600482015260196024820152600080516020615c30833981519152604482015290519081900360640190fd5b600780546001600160a01b0319166001600160a01b039390931692909217909155600855565b6137f4600033613c67565b613833576040805162461bcd60e51b81526020600482015260196024820152600080516020615c30833981519152604482015290519081900360640190fd5b61383b61314e565b613883576040805162461bcd60e51b815260206004820152601460248201527314185d5cd8589b194e881b9bdd081c185d5cd95960621b604482015290519081900360640190fd5b600e54604080516370a0823160e01b815230600482015290516123f39233926001600160a01b03909116916370a0823191602480820192602092909190829003018186803b15801561280a57600080fd5b6000601a544210156138e857506000611bc5565b601c546138f757506001611bc5565b601c54601a5442038161390657fe5b04600101905090565b613927600080516020615bc683398151915233613c67565b613966576040805162461bcd60e51b815260206004820152601c6024820152600080516020615af3833981519152604482015290519081900360640190fd5b613971600382615241565b15613046576040516001600160a01b038216907fcdd2e9b91a56913d370075169cefa1602ba36be5301664f752192bb1709df75790600090a250565b60175481565b60008281526001602052604081206126eb9083615327565b6000611d4f600e60009054906101000a90046001600160a01b03166001600160a01b031663313ce5676040518163ffffffff1660e01b815260040160206040518083038186803b158015613a1e57600080fd5b505afa158015613a32573d6000803e3d6000fd5b505050506040513d6020811015613a4857600080fd5b505160125460ff909116600a0a9061224c908590614fae565b613a6c600033613c67565b613aab576040805162461bcd60e51b81526020600482015260196024820152600080516020615c30833981519152604482015290519081900360640190fd5b613ab3612fa2565b613af2576040805162461bcd60e51b81526020600482015260186024820152600080516020615be6833981519152604482015290519081900360640190fd5b600e546001600160a01b0383811691161415613b55576040805162461bcd60e51b815260206004820152601b60248201527f746f6b656e2069732074686520746f6b656e20666f722073616c650000000000604482015290519081900360640190fd5b600f546001600160a01b0383811691161415613bb8576040805162461bcd60e51b815260206004820152601b60248201527f746f6b656e206973207468652074726164652d696e20746f6b656e0000000000604482015290519081900360640190fd5b611caa81836001600160a01b03166370a08231306040518263ffffffff1660e01b815260040180826001600160a01b0316815260200191505060206040518083038186803b158015613c0957600080fd5b505afa158015613c1d573d6000803e3d6000fd5b505050506040513d6020811015613c3357600080fd5b50516001600160a01b0385169190614f57565b601d8181548110613c5657600080fd5b600091825260209091200154905081565b60008281526001602052604081206126eb9083614f42565b6011546301000000900460ff1681565b613c9a600033613c67565b613cd9576040805162461bcd60e51b81526020600482015260196024820152600080516020615c30833981519152604482015290519081900360640190fd5b613ce161314e565b613d29576040805162461bcd60e51b815260206004820152601460248201527314185d5cd8589b194e881b9bdd081c185d5cd95960621b604482015290519081900360640190fd5b60405133904780156108fc02916000818181858888f19350505050158015613046573d6000803e3d6000fd5b613d6d600080516020615bc683398151915233613c67565b613dac576040805162461bcd60e51b815260206004820152601c6024820152600080516020615af3833981519152604482015290519081900360640190fd5b6000805b8251811015613df457613de0838281518110613dc857fe5b60200260200101516005614f2d90919063ffffffff16565b15613dec576001909101905b600101613db0565b508015611caa5760405181907fc2f03ca34d335e49d4d629b85db054d1ffb679b4fec2e06fe10d0e618b175ecb90600090a25050565b60105481565b601e5490565b600081565b60115460ff1615613e93576040805162461bcd60e51b815260206004820152601e60248201527f73616c652068617320746f206265206e6f6e2041746f6d696320737761700000604482015290519081900360640190fd5b613e9b612fa2565b613eda576040805162461bcd60e51b81526020600482015260186024820152600080516020615be6833981519152604482015290519081900360640190fd5b613ee261314e565b15613f27576040805162461bcd60e51b815260206004820152601060248201526f14185d5cd8589b194e881c185d5cd95960821b604482015290519081900360640190fd5b613f3081614ea2565b613f78576040805162461bcd60e51b815260206004820152601460248201527320b2323932b9b99034b9903737ba10313abcb2b960611b604482015290519081900360640190fd5b600080613f8483612baf565b915091506000821181906140165760405162461bcd60e51b81526004018080602001828103825283818151815260200191508051906020019080838360005b83811015613fdb578181015183820152602001613fc3565b50505050905090810190601f1680156140085780820380516001836020036101000a031916815260200191505b509250505060405180910390fd5b506000601e848154811061402657fe5b90600052602060002090600402016001015490506000601e858154811061404957fe5b9060005260206000209060040201600301549050816140718583614ed390919063ffffffff16565b11156140ae5760405162461bcd60e51b8152600401808060200182810382526044815260200180615b566044913960600191505060405180910390fd5b816140b98286614ed3565b14156140f9576001601e86815481106140ce57fe5b600091825260209091206004909102018054911515600160d01b0260ff60d01b199092169190911790555b6141038185614ed3565b601e868154811061411057fe5b6000918252602090912060036004909202010155600e5461413b906001600160a01b03163386614f57565b5050505050565b60085481565b622932e090565b6018546019540390565b601754601854101590565b61417c600080516020615bc683398151915233613c67565b6141bb576040805162461bcd60e51b815260206004820152601c6024820152600080516020615af3833981519152604482015290519081900360640190fd5b600280546001600160a01b0319166001600160a01b0392909216919091179055565b6002546001600160a01b031681565b6141f461314e565b15614239576040805162461bcd60e51b815260206004820152601060248201526f14185d5cd8589b194e881c185d5cd95960821b604482015290519081900360640190fd5b60115462010000900460ff16614296576040805162461bcd60e51b815260206004820152601860248201527f746f6b656e2073616c65206973206e6f742066756e6465640000000000000000604482015290519081900360640190fd5b61429e613061565b6142e5576040805162461bcd60e51b815260206004820152601360248201527239b0b632903430b9903a379031329037b832b760691b604482015290519081900360640190fd5b6002548190600160a01b900460ff1615614333576002546001600160a01b03166143205761431233612ba2565b61431b57600080fd5b614333565b61432a3382613473565b61433357600080fd5b600061433e3361241a565b61438f576040805162461bcd60e51b815260206004820181905260248201527f61646472657373206e6f742077686974656c697374656420666f7220504f4c53604482015290519081900360640190fd5b614397611bb7565b156143f65750346143a7846139cb565b8110156143f1576040805162461bcd60e51b81526020600482015260136024820152721b9bdd08195b9bdd59da08115512081cd95b9d606a1b604482015290519081900360640190fd5b61441a565b6143ff846139cb565b600f5490915061441a906001600160a01b0316333084615333565b61442261414f565b841115614476576040805162461bcd60e51b815260206004820152601960248201527f616d6f756e74203e20746f6b656e7320617661696c61626c6500000000000000604482015290519081900360640190fd5b6015548410156144cd576040805162461bcd60e51b815260206004820152601760248201527f616d6f756e74203c206d696e696d756d20616d6f756e74000000000000000000604482015290519081900360640190fd5b601654841115614524576040805162461bcd60e51b815260206004820152601760248201527f616d6f756e74203e206d6178696d756d20616d6f756e74000000000000000000604482015290519081900360640190fd5b336000908152602080805260408083208054825181850281018501909352808352919290919083018282801561457957602002820191906000526020600020905b815481526020019060010190808311614565575b505050505090506000805b82518110156145db576145d1601e84838151811061459e57fe5b6020026020010151815481106145b057fe5b90600052602060002090600402016001015483614ed390919063ffffffff16565b9150600101614584565b506016546145e98288614ed3565b111561463c576040805162461bcd60e51b815260206004820152601f60248201527f616d6f756e7420676f6573206f76657220696e646976696475616c206d617800604482015290519081900360640190fd5b60115460ff161561465e57600e5461465e906001600160a01b03163388614f57565b601e6040518060e00160405280336001600160a01b031681526020016146834261538d565b65ffffffffffff908116825260115460ff1615156020808401919091526000604080850182905260608086018e905260808087018c905260a0968701849052885460018181018b55998552858520895160049092020180548a8801518b870151958c01511515600160d81b0260ff60d81b19961515600160d01b0260ff60d01b1992909b16600160a01b0265ffffffffffff60a01b196001600160a01b039096166001600160a01b03199485161795909516949094171698909817939093161782558701518189015594860151600286015560c09095015160039094019390935533808452818052938320601e548154808801835591855291842060001992909201910155601f805494850181559091527fa03837a25210ee280c2113ff4b77ca23440b19d4866cca721c801278fd08d80790920180549092161790556018546147cd9087614ed3565b60185560408051878152426020820152815133927fbec109f7ee137de661c6887caa96653c0545050a9908a3b6eb5190440bbec864928290030190a2505050505050565b7383e6f1e41cdd28eaceb20cb649155049fac3d5aa81565b600f546001600160a01b031681565b60145481565b6001600160a01b0381166000908152602080805260409182902080548351818402810184019094528084526060939283018282801561489c57602002820191906000526020600020905b815481526020019060010190808311614888575b50505050509050919050565b601d546000906148ba57506000611bc5565b50601d5460010190565b6148cf600033613c67565b61490e576040805162461bcd60e51b81526020600482015260196024820152600080516020615c30833981519152604482015290519081900360640190fd5b614916612fa2565b614955576040805162461bcd60e51b81526020600482015260186024820152600080516020615be6833981519152604482015290519081900360640190fd5b6011546301000000900460ff161561496c57600080fd5b60006149766135e5565b156149845750601954614996565b60185460195461499391615144565b90505b8015613046576011805463ff00000019166301000000179055600e54613046906001600160a01b03163383614f57565b6000818152600160205260408120611d4f906153ee565b6149e56128ac565b614a36576040805162461bcd60e51b815260206004820152601a60248201527f6e6f74206265666f72652073746172742074696d652f64617465000000000000604482015290519081900360640190fd5b601954614a4b82614a456134ab565b90614ed3565b1115614a9e576040805162461bcd60e51b815260206004820181905260248201527f6d6f726520746f6b656e73207468616e206e656564656420666f722073616c65604482015290519081900360640190fd5b600e54614ab6906001600160a01b0316333084615333565b613046614d69565b601154610100900460ff1681565b6007546001600160a01b031681565b600082815260016020526040902060020154614af9906128d261506e565b6129825760405162461bcd60e51b8152600401808060200182810382526030815260200180615ac36030913960400191505060405180910390fd5b60008060006060614b4485612413565b614b8957505060408051808201909152601a8152791c1d5c98da185cd957da5908191bd95cc81b9bdd08195e1a5cdd60321b6020820152600092508291508190614bda565b601e8581548110614b9657fe5b9060005260206000209060040201600101549350601e8581548110614bb757fe5b9060005260206000209060040201600301549250614bd485612baf565b90925090505b9193509193565b614bec600033613c67565b614c2b576040805162461bcd60e51b81526020600482015260196024820152600080516020615c30833981519152604482015290519081900360640190fd5b601554811015614c6c5760405162461bcd60e51b8152600401808060200182810382526031815260200180615a4a6031913960400191505060405180910390fd5b601655565b60165481565b614c8f600080516020615bc683398151915233613c67565b614cce576040805162461bcd60e51b815260206004820152601c6024820152600080516020615af3833981519152604482015290519081900360640190fd5b614cd9600382614f2d565b15613046576040516001600160a01b038216907fa850ae9193f515cbae8d35e8925bd2be26627fc91bce650b8652ed254e9cab0390600090a250565b6002546000906001600160a01b0316614d2e848461369e565b6001600160a01b0316149392505050565b600080516020615bc683398151915281565b73aeb39b67f27b641ef9f95fb74f1a46b1ee4efc8381565b614d716128ac565b614dc2576040805162461bcd60e51b815260206004820152601a60248201527f6e6f74206265666f72652073746172742074696d652f64617465000000000000604482015290519081900360640190fd5b601954614dcd6134ab565b106123f3576011805462ff0000191662010000179055565b6000612f9d6019546139cb565b600d5481565b601f8181548110614e0857600080fd5b6000918252602090912001546001600160a01b0316905081565b601b5481565b6060601f805480602002602001604051908101604052809291908181526020018280548015614e8057602002820191906000526020600020905b81546001600160a01b03168152600190910190602001808311614e62575b5050505050905090565b6060612f9d3361483e565b6000611d4f600583614f42565b6000601e8281548110614eb157fe5b60009182526020909120600490910201546001600160a01b0316331492915050565b6000828201838110156126eb576040805162461bcd60e51b815260206004820152601b60248201527f536166654d6174683a206164646974696f6e206f766572666c6f770000000000604482015290519081900360640190fd5b60006126eb836001600160a01b0384166153f9565b60006126eb836001600160a01b038416615443565b604080516001600160a01b038416602482015260448082018490528251808303909101815260649091019091526020810180516001600160e01b031663a9059cbb60e01b179052614fa990849061545b565b505050565b600082614fbd57506000611d4f565b82820282848281614fca57fe5b04146126eb5760405162461bcd60e51b8152600401808060200182810382526021815260200180615b356021913960400191505060405180910390fd5b600080821161505d576040805162461bcd60e51b815260206004820152601a60248201527f536166654d6174683a206469766973696f6e206279207a65726f000000000000604482015290519081900360640190fd5b81838161506657fe5b049392505050565b3390565b600082815260016020526040902061508a9082614f2d565b15611caa5761509761506e565b6001600160a01b0316816001600160a01b0316837f2f8788117e7eff1d82e926ec794901d17c78024a50270940304540a733656f0d60405160405180910390a45050565b60008281526001602052604090206150f39082615241565b15611caa5761510061506e565b6001600160a01b0316816001600160a01b0316837ff6391f5c32d9c69d2a47ea670b442974b53935d1edc7fd64eb21e047a839171b60405160405180910390a45050565b60008282111561519b576040805162461bcd60e51b815260206004820152601e60248201527f536166654d6174683a207375627472616374696f6e206f766572666c6f770000604482015290519081900360640190fd5b50900390565b606060006151ae836153ee565b67ffffffffffffffff811180156151c457600080fd5b506040519080825280602002602001820160405280156151ee578160200160208202803683370190505b50905060005b6151fd846153ee565b81101561523a5761520e8482615327565b82828151811061521a57fe5b6001600160a01b03909216602092830291909101909101526001016151f4565b5092915050565b60006126eb836001600160a01b03841661550c565b604080517f19457468657265756d205369676e6564204d6573736167653a0a333200000000602080830191909152603c8083019490945282518083039094018452605c909101909152815191012090565b600081516041146152ff576040805162461bcd60e51b815260206004820152601f60248201527f45434453413a20696e76616c6964207369676e6174757265206c656e67746800604482015290519081900360640190fd5b60208201516040830151606084015160001a61531d868285856155d2565b9695505050505050565b60006126eb8383615750565b604080516001600160a01b0380861660248301528416604482015260648082018490528251808303909101815260849091019091526020810180516001600160e01b03166323b872dd60e01b17905261346d90859061545b565b6000660100000000000082106153ea576040805162461bcd60e51b815260206004820152601c60248201527f76616c756520646f65736e27742066697420696e203438206269747300000000604482015290519081900360640190fd5b5090565b6000611d4f826157b4565b60006154058383615443565b61543b57508154600181810184556000848152602080822090930184905584548482528286019093526040902091909155611d4f565b506000611d4f565b60009081526001919091016020526040902054151590565b60006154b0826040518060400160405280602081526020017f5361666545524332303a206c6f772d6c6576656c2063616c6c206661696c6564815250856001600160a01b03166157b89092919063ffffffff16565b805190915015614fa9578080602001905160208110156154cf57600080fd5b5051614fa95760405162461bcd60e51b815260040180806020018281038252602a815260200180615c06602a913960400191505060405180910390fd5b600081815260018301602052604081205480156155c8578354600019808301919081019060009087908390811061553f57fe5b906000526020600020015490508087600001848154811061555c57fe5b60009182526020808320909101929092558281526001898101909252604090209084019055865487908061558c57fe5b60019003818190600052602060002001600090559055866001016000878152602001908152602001600020600090556001945050505050611d4f565b6000915050611d4f565b60007f7fffffffffffffffffffffffffffffff5d576e7357a4501ddfe92f46681b20a08211156156335760405162461bcd60e51b8152600401808060200182810382526022815260200180615a7b6022913960400191505060405180910390fd5b8360ff16601b148061564857508360ff16601c145b6156835760405162461bcd60e51b8152600401808060200182810382526022815260200180615b136022913960400191505060405180910390fd5b600060018686868660405160008152602001604052604051808581526020018460ff1681526020018381526020018281526020019450505050506020604051602081039080840390855afa1580156156df573d6000803e3d6000fd5b5050604051601f1901519150506001600160a01b038116615747576040805162461bcd60e51b815260206004820152601860248201527f45434453413a20696e76616c6964207369676e61747572650000000000000000604482015290519081900360640190fd5b95945050505050565b815460009082106157925760405162461bcd60e51b81526004018080602001828103825260228152602001806159c56022913960400191505060405180910390fd5b8260000182815481106157a157fe5b9060005260206000200154905092915050565b5490565b60606157c784846000856157cf565b949350505050565b6060824710156158105760405162461bcd60e51b8152600401808060200182810382526026815260200180615a9d6026913960400191505060405180910390fd5b6158198561592a565b61586a576040805162461bcd60e51b815260206004820152601d60248201527f416464726573733a2063616c6c20746f206e6f6e2d636f6e7472616374000000604482015290519081900360640190fd5b600080866001600160a01b031685876040518082805190602001908083835b602083106158a85780518252601f199092019160209182019101615889565b6001836020036101000a03801982511681845116808217855250505050505090500191505060006040518083038185875af1925050503d806000811461590a576040519150601f19603f3d011682016040523d82523d6000602084013e61590f565b606091505b509150915061591f828286615930565b979650505050505050565b3b151590565b6060831561593f5750816126eb565b82511561594f5782518084602001fd5b60405162461bcd60e51b8152602060048201818152845160248401528451859391928392604401919085019080838360008315613fdb578181015183820152602001613fc3565b508054600082559060005260206000209081019061304691905b808211156153ea57600081556001016159b056fe456e756d657261626c655365743a20696e646578206f7574206f6620626f756e6473416363657373436f6e74726f6c3a2073656e646572206d75737420626520616e2061646d696e20746f206772616e7476657374696e6720696e74657276616c6c732070726f76696465642c206275742076657374696e674475726174696f6e203d2030696e646976696475616c4d6178696d756d416d6f756e74203c20696e646976696475616c4d696e696d756d416d6f756e7445434453413a20696e76616c6964207369676e6174757265202773272076616c7565416464726573733a20696e73756666696369656e742062616c616e636520666f722063616c6c416363657373436f6e74726f6c3a2073656e646572206d75737420626520616e2061646d696e20746f207265766f6b6563616c6c6572206973206e6f742057686974656c6973744f776e65720000000045434453413a20696e76616c6964207369676e6174757265202776272076616c7565536166654d6174683a206d756c7469706c69636174696f6e206f766572666c6f77494e5445524e414c204552524f52203a20616d6f756e7452656465656d656420776f756c64206265206c6172676572207468656e20707572636861736520616d6f756e74494e5445524e414c204552524f5220696e2076657374696e6720616d6f756e742063616c63756c6174696f6eb813b807c25079ba97f1770664c6a9e57c59afe74a6295f1ed01c10e3bb6baae73616c652068617320746f2062652066696e616c697a656400000000000000005361666545524332303a204552433230206f7065726174696f6e20646964206e6f74207375636365656463616c6c657220686173206e6f742061646d696e20726f6c6500000000000000416363657373436f6e74726f6c3a2063616e206f6e6c792072656e6f756e636520726f6c657320666f722073656c66a2646970667358221220143d46c11d1f21a961ab165d4015a01b01cc3d785afa7b48031b83b47059718264736f6c6343000706003376657374696e6720696e74657276616c6c732070726f76696465642c206275742076657374696e674475726174696f6e203d2030696e646976696475616c4d6178696d756d416d6f756e74203c20696e646976696475616c4d696e696d756d416d6f756e746d4407e7be21f808e6509aa9fa9143369579dd7d760fe20a2c09680fc146134f63616c6c657220686173206e6f742061646d696e20726f6c6500000000000000",
  "linkReferences": {},
  "deployedLinkReferences": {}
}