{
  "_format": "hh-sol-artifact-1",
  "contractName": "FixedSwap",
  "sourceName": "contracts/FixedSwap.sol",
  "abi": [
    {
      "inputs": [
        {
          "internalType": "address",
          "name": "_tokenAddress",
          "type": "address"
        },
        {
          "internalType": "uint256",
          "name": "_tradeValue",
          "type": "uint256"
        },
        {
          "internalType": "uint256",
          "name": "_tokensForSale",
          "type": "uint256"
        },
        {
          "internalType": "uint256",
          "name": "_startDate",
          "type": "uint256"
        },
        {
          "internalType": "uint256",
          "name": "_endDate",
          "type": "uint256"
        },
        {
          "internalType": "uint256",
          "name": "_individualMinimumAmount",
          "type": "uint256"
        },
        {
          "internalType": "uint256",
          "name": "_individualMaximumAmount",
          "type": "uint256"
        },
        {
          "internalType": "bool",
          "name": "_ignored",
          "type": "bool"
        },
        {
          "internalType": "uint256",
          "name": "_minimumRaise",
          "type": "uint256"
        },
        {
          "internalType": "uint256",
          "name": "_feePercentage",
          "type": "uint256"
        },
        {
          "internalType": "uint32",
          "name": "_flags",
          "type": "uint32"
        },
        {
          "internalType": "address",
          "name": "_erc20TradeAddress",
          "type": "address"
        }
      ],
      "stateMutability": "nonpayable",
      "type": "constructor"
    },
    {
      "anonymous": false,
      "inputs": [
        {
          "indexed": false,
          "internalType": "uint256",
          "name": "count",
          "type": "uint256"
        }
      ],
      "name": "AddedArrayToBlacklist",
      "type": "event"
    },
    {
      "anonymous": false,
      "inputs": [
        {
          "indexed": false,
          "internalType": "uint256",
          "name": "count",
          "type": "uint256"
        }
      ],
      "name": "AddedArrayToWhitelist",
      "type": "event"
    },
    {
      "anonymous": false,
      "inputs": [
        {
          "indexed": true,
          "internalType": "address",
          "name": "account",
          "type": "address"
        }
      ],
      "name": "AddedToBlacklist",
      "type": "event"
    },
    {
      "anonymous": false,
      "inputs": [
        {
          "indexed": true,
          "internalType": "address",
          "name": "account",
          "type": "address"
        }
      ],
      "name": "AddedToWhitelist",
      "type": "event"
    },
    {
      "anonymous": false,
      "inputs": [
        {
          "indexed": false,
          "internalType": "address",
          "name": "account",
          "type": "address"
        }
      ],
      "name": "Paused",
      "type": "event"
    },
    {
      "anonymous": false,
      "inputs": [
        {
          "indexed": false,
          "internalType": "uint256",
          "name": "amount",
          "type": "uint256"
        },
        {
          "indexed": true,
          "internalType": "address",
          "name": "purchaser",
          "type": "address"
        },
        {
          "indexed": false,
          "internalType": "uint256",
          "name": "timestamp",
          "type": "uint256"
        }
      ],
      "name": "PurchaseEvent",
      "type": "event"
    },
    {
      "anonymous": false,
      "inputs": [
        {
          "indexed": true,
          "internalType": "address",
          "name": "account",
          "type": "address"
        }
      ],
      "name": "RemovedFromBlacklist",
      "type": "event"
    },
    {
      "anonymous": false,
      "inputs": [
        {
          "indexed": true,
          "internalType": "address",
          "name": "account",
          "type": "address"
        }
      ],
      "name": "RemovedFromWhitelist",
      "type": "event"
    },
    {
      "anonymous": false,
      "inputs": [
        {
          "indexed": true,
          "internalType": "bytes32",
          "name": "role",
          "type": "bytes32"
        },
        {
          "indexed": true,
          "internalType": "bytes32",
          "name": "previousAdminRole",
          "type": "bytes32"
        },
        {
          "indexed": true,
          "internalType": "bytes32",
          "name": "newAdminRole",
          "type": "bytes32"
        }
      ],
      "name": "RoleAdminChanged",
      "type": "event"
    },
    {
      "anonymous": false,
      "inputs": [
        {
          "indexed": true,
          "internalType": "bytes32",
          "name": "role",
          "type": "bytes32"
        },
        {
          "indexed": true,
          "internalType": "address",
          "name": "account",
          "type": "address"
        },
        {
          "indexed": true,
          "internalType": "address",
          "name": "sender",
          "type": "address"
        }
      ],
      "name": "RoleGranted",
      "type": "event"
    },
    {
      "anonymous": false,
      "inputs": [
        {
          "indexed": true,
          "internalType": "bytes32",
          "name": "role",
          "type": "bytes32"
        },
        {
          "indexed": true,
          "internalType": "address",
          "name": "account",
          "type": "address"
        },
        {
          "indexed": true,
          "internalType": "address",
          "name": "sender",
          "type": "address"
        }
      ],
      "name": "RoleRevoked",
      "type": "event"
    },
    {
      "anonymous": false,
      "inputs": [
        {
          "indexed": false,
          "internalType": "uint256",
          "name": "endDate",
          "type": "uint256"
        }
      ],
      "name": "SetEndDateEvent",
      "type": "event"
    },
    {
      "anonymous": false,
      "inputs": [
        {
          "indexed": false,
          "internalType": "bool",
          "name": "hasWhitelisting",
          "type": "bool"
        }
      ],
      "name": "SetHasWhitelisting",
      "type": "event"
    },
    {
      "anonymous": false,
      "inputs": [
        {
          "indexed": false,
          "internalType": "address",
          "name": "stakingRewardsAddress",
          "type": "address"
        }
      ],
      "name": "SetStakingRewardsEvent",
      "type": "event"
    },
    {
      "anonymous": false,
      "inputs": [
        {
          "indexed": false,
          "internalType": "uint256",
          "name": "startDate",
          "type": "uint256"
        }
      ],
      "name": "SetStartDateEvent",
      "type": "event"
    },
    {
      "anonymous": false,
      "inputs": [
        {
          "indexed": false,
          "internalType": "uint256",
          "name": "tradeValue",
          "type": "uint256"
        }
      ],
      "name": "SetTradeValueEvent",
      "type": "event"
    },
    {
      "anonymous": false,
      "inputs": [
        {
          "indexed": false,
          "internalType": "uint256",
          "name": "tgeAllocation",
          "type": "uint256"
        },
        {
          "indexed": false,
          "internalType": "uint256",
          "name": "tgeTime",
          "type": "uint256"
        },
        {
          "indexed": false,
          "internalType": "uint256",
          "name": "vestingStart",
          "type": "uint256"
        },
        {
          "indexed": false,
          "internalType": "uint256",
          "name": "vestingCliff",
          "type": "uint256"
        },
        {
          "indexed": false,
          "internalType": "uint256",
          "name": "vestingDuration",
          "type": "uint256"
        },
        {
          "indexed": false,
          "internalType": "uint256[]",
          "name": "vestingSchedule",
          "type": "uint256[]"
        }
      ],
      "name": "SetVestingEvent",
      "type": "event"
    },
    {
      "anonymous": false,
      "inputs": [
        {
          "indexed": false,
          "internalType": "address",
          "name": "account",
          "type": "address"
        }
      ],
      "name": "Unpaused",
      "type": "event"
    },
    {
      "inputs": [],
      "name": "DECIMALS_PERCENT_MUL",
      "outputs": [
        {
          "internalType": "uint256",
          "name": "",
          "type": "uint256"
        }
      ],
      "stateMutability": "view",
      "type": "function"
    },
    {
      "inputs": [],
      "name": "DEFAULT_ADMIN_ROLE",
      "outputs": [
        {
          "internalType": "bytes32",
          "name": "",
          "type": "bytes32"
        }
      ],
      "stateMutability": "view",
      "type": "function"
    },
    {
      "inputs": [],
      "name": "FEE_ADDRESS",
      "outputs": [
        {
          "internalType": "address",
          "name": "",
          "type": "address"
        }
      ],
      "stateMutability": "view",
      "type": "function"
    },
    {
      "inputs": [],
      "name": "FLAGS",
      "outputs": [
        {
          "internalType": "uint256",
          "name": "",
          "type": "uint256"
        }
      ],
      "stateMutability": "view",
      "type": "function"
    },
    {
      "inputs": [],
      "name": "MAX_TOTAL_VESTING_TIME",
      "outputs": [
        {
          "internalType": "uint256",
          "name": "",
          "type": "uint256"
        }
      ],
      "stateMutability": "view",
      "type": "function"
    },
    {
      "inputs": [],
      "name": "PolsStakeAddress",
      "outputs": [
        {
          "internalType": "address",
          "name": "",
          "type": "address"
        }
      ],
      "stateMutability": "view",
      "type": "function"
    },
    {
      "inputs": [],
      "name": "PolsStakeAmount",
      "outputs": [
        {
          "internalType": "uint256",
          "name": "",
          "type": "uint256"
        }
      ],
      "stateMutability": "view",
      "type": "function"
    },
    {
      "inputs": [],
      "name": "PolsStakeRewards",
      "outputs": [
        {
          "internalType": "uint256",
          "name": "",
          "type": "uint256"
        }
      ],
      "stateMutability": "view",
      "type": "function"
    },
    {
      "inputs": [],
      "name": "WHITELIST_OWNER_ROLE",
      "outputs": [
        {
          "internalType": "bytes32",
          "name": "",
          "type": "bytes32"
        }
      ],
      "stateMutability": "view",
      "type": "function"
    },
    {
      "inputs": [
        {
          "internalType": "address[]",
          "name": "_addresses",
          "type": "address[]"
        }
      ],
      "name": "addArrayToBlacklist",
      "outputs": [],
      "stateMutability": "nonpayable",
      "type": "function"
    },
    {
      "inputs": [
        {
          "internalType": "address[]",
          "name": "_addresses",
          "type": "address[]"
        }
      ],
      "name": "addArrayToWhitelist",
      "outputs": [],
      "stateMutability": "nonpayable",
      "type": "function"
    },
    {
      "inputs": [
        {
          "internalType": "address",
          "name": "_address",
          "type": "address"
        }
      ],
      "name": "addToBlacklist",
      "outputs": [],
      "stateMutability": "nonpayable",
      "type": "function"
    },
    {
      "inputs": [
        {
          "internalType": "address",
          "name": "_address",
          "type": "address"
        }
      ],
      "name": "addToWhitelist",
      "outputs": [],
      "stateMutability": "nonpayable",
      "type": "function"
    },
    {
      "inputs": [],
      "name": "allowLateVestingChange",
      "outputs": [
        {
          "internalType": "bool",
          "name": "",
          "type": "bool"
        }
      ],
      "stateMutability": "view",
      "type": "function"
    },
    {
      "inputs": [],
      "name": "allowSaleStartwithoutFunding",
      "outputs": [
        {
          "internalType": "bool",
          "name": "",
          "type": "bool"
        }
      ],
      "stateMutability": "view",
      "type": "function"
    },
    {
      "inputs": [],
      "name": "availableTokens",
      "outputs": [
        {
          "internalType": "uint256",
          "name": "",
          "type": "uint256"
        }
      ],
      "stateMutability": "view",
      "type": "function"
    },
    {
      "inputs": [
        {
          "internalType": "uint256",
          "name": "",
          "type": "uint256"
        }
      ],
      "name": "buyers",
      "outputs": [
        {
          "internalType": "address",
          "name": "",
          "type": "address"
        }
      ],
      "stateMutability": "view",
      "type": "function"
    },
    {
      "inputs": [
        {
          "internalType": "uint256",
          "name": "_amount",
          "type": "uint256"
        }
      ],
      "name": "cost",
      "outputs": [
        {
          "internalType": "uint256",
          "name": "",
          "type": "uint256"
        }
      ],
      "stateMutability": "view",
      "type": "function"
    },
    {
      "inputs": [
        {
          "internalType": "address",
          "name": "_account",
          "type": "address"
        },
        {
          "internalType": "uint256",
          "name": "_accountMaximunAllocation",
          "type": "uint256"
        },
        {
          "internalType": "bytes",
          "name": "_signature",
          "type": "bytes"
        }
      ],
      "name": "determineAccountMaximunAllocation",
      "outputs": [
        {
          "internalType": "uint256",
          "name": "",
          "type": "uint256"
        }
      ],
      "stateMutability": "view",
      "type": "function"
    },
    {
      "inputs": [],
      "name": "endDate",
      "outputs": [
        {
          "internalType": "uint256",
          "name": "",
          "type": "uint256"
        }
      ],
      "stateMutability": "view",
      "type": "function"
    },
    {
      "inputs": [],
      "name": "erc20",
      "outputs": [
        {
          "internalType": "contract IERC20",
          "name": "",
          "type": "address"
        }
      ],
      "stateMutability": "view",
      "type": "function"
    },
    {
      "inputs": [],
      "name": "erc20TradeIn",
      "outputs": [
        {
          "internalType": "contract IERC20",
          "name": "",
          "type": "address"
        }
      ],
      "stateMutability": "view",
      "type": "function"
    },
    {
      "inputs": [],
      "name": "feePercentage",
      "outputs": [
        {
          "internalType": "uint256",
          "name": "",
          "type": "uint256"
        }
      ],
      "stateMutability": "view",
      "type": "function"
    },
    {
      "inputs": [
        {
          "internalType": "uint256",
          "name": "_amount",
          "type": "uint256"
        }
      ],
      "name": "fund",
      "outputs": [],
      "stateMutability": "nonpayable",
      "type": "function"
    },
    {
      "inputs": [],
      "name": "fundFull",
      "outputs": [],
      "stateMutability": "nonpayable",
      "type": "function"
    },
    {
      "inputs": [],
      "name": "getBlacklistedAddresses",
      "outputs": [
        {
          "internalType": "address[]",
          "name": "",
          "type": "address[]"
        }
      ],
      "stateMutability": "view",
      "type": "function"
    },
    {
      "inputs": [],
      "name": "getBuyers",
      "outputs": [
        {
          "internalType": "address[]",
          "name": "",
          "type": "address[]"
        }
      ],
      "stateMutability": "view",
      "type": "function"
    },
    {
      "inputs": [],
      "name": "getCurrentSchedule",
      "outputs": [
        {
          "internalType": "uint256",
          "name": "schedule",
          "type": "uint256"
        }
      ],
      "stateMutability": "view",
      "type": "function"
    },
    {
      "inputs": [
        {
          "internalType": "address",
          "name": "_address",
          "type": "address"
        }
      ],
      "name": "getMyPurchases",
      "outputs": [
        {
          "internalType": "uint256[]",
          "name": "",
          "type": "uint256[]"
        }
      ],
      "stateMutability": "view",
      "type": "function"
    },
    {
      "inputs": [],
      "name": "getMyPurchases_msgSender",
      "outputs": [
        {
          "internalType": "uint256[]",
          "name": "",
          "type": "uint256[]"
        }
      ],
      "stateMutability": "view",
      "type": "function"
    },
    {
      "inputs": [
        {
          "internalType": "uint256",
          "name": "purchase_id",
          "type": "uint256"
        }
      ],
      "name": "getPurchase",
      "outputs": [
        {
          "internalType": "uint256",
          "name": "amount",
          "type": "uint256"
        },
        {
          "internalType": "address",
          "name": "purchaser",
          "type": "address"
        },
        {
          "internalType": "uint256",
          "name": "costAmount",
          "type": "uint256"
        },
        {
          "internalType": "uint48",
          "name": "timestamp",
          "type": "uint48"
        },
        {
          "internalType": "bool",
          "name": "wasFinalized",
          "type": "bool"
        },
        {
          "internalType": "bool",
          "name": "reverted",
          "type": "bool"
        },
        {
          "internalType": "uint256",
          "name": "amountRedeemed",
          "type": "uint256"
        }
      ],
      "stateMutability": "view",
      "type": "function"
    },
    {
      "inputs": [],
      "name": "getPurchasesCount",
      "outputs": [
        {
          "internalType": "uint256",
          "name": "count",
          "type": "uint256"
        }
      ],
      "stateMutability": "view",
      "type": "function"
    },
    {
      "inputs": [
        {
          "internalType": "uint256",
          "name": "purchase_id",
          "type": "uint256"
        }
      ],
      "name": "getRedeemStatus",
      "outputs": [
        {
          "internalType": "uint256",
          "name": "amount",
          "type": "uint256"
        },
        {
          "internalType": "uint256",
          "name": "amountRedeemed",
          "type": "uint256"
        },
        {
          "internalType": "uint256",
          "name": "vestAmount",
          "type": "uint256"
        },
        {
          "internalType": "string",
          "name": "message",
          "type": "string"
        }
      ],
      "stateMutability": "view",
      "type": "function"
    },
    {
      "inputs": [
        {
          "internalType": "uint256",
          "name": "purchase_id",
          "type": "uint256"
        }
      ],
      "name": "getRedeemableTokensAmount",
      "outputs": [
        {
          "internalType": "uint256",
          "name": "amount",
          "type": "uint256"
        },
        {
          "internalType": "string",
          "name": "message",
          "type": "string"
        }
      ],
      "stateMutability": "view",
      "type": "function"
    },
    {
      "inputs": [
        {
          "internalType": "bytes32",
          "name": "role",
          "type": "bytes32"
        }
      ],
      "name": "getRoleAdmin",
      "outputs": [
        {
          "internalType": "bytes32",
          "name": "",
          "type": "bytes32"
        }
      ],
      "stateMutability": "view",
      "type": "function"
    },
    {
      "inputs": [],
      "name": "getVersion",
      "outputs": [
        {
          "internalType": "uint32",
          "name": "API_VERSION",
          "type": "uint32"
        }
      ],
      "stateMutability": "pure",
      "type": "function"
    },
    {
      "inputs": [],
      "name": "getVestingEndTime",
      "outputs": [
        {
          "internalType": "uint256",
          "name": "",
          "type": "uint256"
        }
      ],
      "stateMutability": "view",
      "type": "function"
    },
    {
      "inputs": [],
      "name": "getVestingStartTime",
      "outputs": [
        {
          "internalType": "uint256",
          "name": "",
          "type": "uint256"
        }
      ],
      "stateMutability": "view",
      "type": "function"
    },
    {
      "inputs": [],
      "name": "getWhitelistedAddresses",
      "outputs": [
        {
          "internalType": "address[]",
          "name": "",
          "type": "address[]"
        }
      ],
      "stateMutability": "view",
      "type": "function"
    },
    {
      "inputs": [
        {
          "internalType": "bytes32",
          "name": "role",
          "type": "bytes32"
        },
        {
          "internalType": "address",
          "name": "account",
          "type": "address"
        }
      ],
      "name": "grantRole",
      "outputs": [],
      "stateMutability": "nonpayable",
      "type": "function"
    },
    {
      "inputs": [],
      "name": "hasFinalized",
      "outputs": [
        {
          "internalType": "bool",
          "name": "",
          "type": "bool"
        }
      ],
      "stateMutability": "view",
      "type": "function"
    },
    {
      "inputs": [],
      "name": "hasMinimumAmount",
      "outputs": [
        {
          "internalType": "bool",
          "name": "",
          "type": "bool"
        }
      ],
      "stateMutability": "view",
      "type": "function"
    },
    {
      "inputs": [],
      "name": "hasMinimumRaise",
      "outputs": [
        {
          "internalType": "bool",
          "name": "",
          "type": "bool"
        }
      ],
      "stateMutability": "view",
      "type": "function"
    },
    {
      "inputs": [
        {
          "internalType": "bytes32",
          "name": "role",
          "type": "bytes32"
        },
        {
          "internalType": "address",
          "name": "account",
          "type": "address"
        }
      ],
      "name": "hasRole",
      "outputs": [
        {
          "internalType": "bool",
          "name": "",
          "type": "bool"
        }
      ],
      "stateMutability": "view",
      "type": "function"
    },
    {
      "inputs": [],
      "name": "hasStarted",
      "outputs": [
        {
          "internalType": "bool",
          "name": "",
          "type": "bool"
        }
      ],
      "stateMutability": "view",
      "type": "function"
    },
    {
      "inputs": [],
      "name": "hasWhitelisting",
      "outputs": [
        {
          "internalType": "bool",
          "name": "",
          "type": "bool"
        }
      ],
      "stateMutability": "view",
      "type": "function"
    },
    {
      "inputs": [],
      "name": "individualMaximumAmount",
      "outputs": [
        {
          "internalType": "uint256",
          "name": "",
          "type": "uint256"
        }
      ],
      "stateMutability": "view",
      "type": "function"
    },
    {
      "inputs": [],
      "name": "individualMinimumAmount",
      "outputs": [
        {
          "internalType": "uint256",
          "name": "",
          "type": "uint256"
        }
      ],
      "stateMutability": "view",
      "type": "function"
    },
    {
      "inputs": [],
      "name": "isBeforeVestingStart",
      "outputs": [
        {
          "internalType": "bool",
          "name": "",
          "type": "bool"
        }
      ],
      "stateMutability": "view",
      "type": "function"
    },
    {
      "inputs": [
        {
          "internalType": "address",
          "name": "_address",
          "type": "address"
        }
      ],
      "name": "isBlacklisted",
      "outputs": [
        {
          "internalType": "bool",
          "name": "",
          "type": "bool"
        }
      ],
      "stateMutability": "view",
      "type": "function"
    },
    {
      "inputs": [
        {
          "internalType": "uint256",
          "name": "purchase_id",
          "type": "uint256"
        }
      ],
      "name": "isBuyer",
      "outputs": [
        {
          "internalType": "bool",
          "name": "",
          "type": "bool"
        }
      ],
      "stateMutability": "view",
      "type": "function"
    },
    {
      "inputs": [],
      "name": "isETHTrade",
      "outputs": [
        {
          "internalType": "bool",
          "name": "",
          "type": "bool"
        }
      ],
      "stateMutability": "view",
      "type": "function"
    },
    {
      "inputs": [],
      "name": "isOpen",
      "outputs": [
        {
          "internalType": "bool",
          "name": "",
          "type": "bool"
        }
      ],
      "stateMutability": "view",
      "type": "function"
    },
    {
      "inputs": [],
      "name": "isPreStart",
      "outputs": [
        {
          "internalType": "bool",
          "name": "",
          "type": "bool"
        }
      ],
      "stateMutability": "view",
      "type": "function"
    },
    {
      "inputs": [],
      "name": "isSaleFunded",
      "outputs": [
        {
          "internalType": "bool",
          "name": "",
          "type": "bool"
        }
      ],
      "stateMutability": "view",
      "type": "function"
    },
    {
      "inputs": [
        {
          "internalType": "address",
          "name": "_userAccountAaddress",
          "type": "address"
        },
        {
          "internalType": "uint256",
          "name": "_accountMaximunAllocation",
          "type": "uint256"
        },
        {
          "internalType": "bytes",
          "name": "signature",
          "type": "bytes"
        }
      ],
      "name": "isSignerForAddressMaxAlloc",
      "outputs": [
        {
          "internalType": "bool",
          "name": "",
          "type": "bool"
        }
      ],
      "stateMutability": "view",
      "type": "function"
    },
    {
      "inputs": [
        {
          "internalType": "bytes32",
          "name": "hash",
          "type": "bytes32"
        },
        {
          "internalType": "bytes",
          "name": "signature",
          "type": "bytes"
        }
      ],
      "name": "isSignerFromBytes32",
      "outputs": [
        {
          "internalType": "bool",
          "name": "",
          "type": "bool"
        }
      ],
      "stateMutability": "view",
      "type": "function"
    },
    {
      "inputs": [],
      "name": "isTokenSwapAtomic",
      "outputs": [
        {
          "internalType": "bool",
          "name": "",
          "type": "bool"
        }
      ],
      "stateMutability": "view",
      "type": "function"
    },
    {
      "inputs": [
        {
          "internalType": "address",
          "name": "_address",
          "type": "address"
        }
      ],
      "name": "isWhitelisted",
      "outputs": [
        {
          "internalType": "bool",
          "name": "",
          "type": "bool"
        }
      ],
      "stateMutability": "view",
      "type": "function"
    },
    {
      "inputs": [],
      "name": "minimumRaise",
      "outputs": [
        {
          "internalType": "uint256",
          "name": "",
          "type": "uint256"
        }
      ],
      "stateMutability": "view",
      "type": "function"
    },
    {
      "inputs": [],
      "name": "minimumRaiseAchieved",
      "outputs": [
        {
          "internalType": "bool",
          "name": "",
          "type": "bool"
        }
      ],
      "stateMutability": "view",
      "type": "function"
    },
    {
      "inputs": [],
      "name": "minimumRaiseNotAchieved",
      "outputs": [
        {
          "internalType": "bool",
          "name": "",
          "type": "bool"
        }
      ],
      "stateMutability": "view",
      "type": "function"
    },
    {
      "inputs": [
        {
          "internalType": "address",
          "name": "",
          "type": "address"
        },
        {
          "internalType": "uint256",
          "name": "",
          "type": "uint256"
        }
      ],
      "name": "myPurchases",
      "outputs": [
        {
          "internalType": "uint256",
          "name": "",
          "type": "uint256"
        }
      ],
      "stateMutability": "view",
      "type": "function"
    },
    {
      "inputs": [],
      "name": "pause",
      "outputs": [],
      "stateMutability": "nonpayable",
      "type": "function"
    },
    {
      "inputs": [],
      "name": "paused",
      "outputs": [
        {
          "internalType": "bool",
          "name": "",
          "type": "bool"
        }
      ],
      "stateMutability": "view",
      "type": "function"
    },
    {
      "inputs": [
        {
          "internalType": "uint256",
          "name": "purchase_id",
          "type": "uint256"
        }
      ],
      "name": "purchaseExists",
      "outputs": [
        {
          "internalType": "bool",
          "name": "",
          "type": "bool"
        }
      ],
      "stateMutability": "view",
      "type": "function"
    },
    {
      "inputs": [
        {
          "internalType": "uint256",
          "name": "",
          "type": "uint256"
        }
      ],
      "name": "purchases",
      "outputs": [
        {
          "internalType": "address",
          "name": "purchaser",
          "type": "address"
        },
        {
          "internalType": "uint48",
          "name": "timestamp",
          "type": "uint48"
        },
        {
          "internalType": "bool",
          "name": "wasFinalized",
          "type": "bool"
        },
        {
          "internalType": "bool",
          "name": "reverted",
          "type": "bool"
        },
        {
          "internalType": "uint256",
          "name": "amount",
          "type": "uint256"
        },
        {
          "internalType": "uint256",
          "name": "costAmount",
          "type": "uint256"
        },
        {
          "internalType": "uint256",
          "name": "amountRedeemed",
          "type": "uint256"
        }
      ],
      "stateMutability": "view",
      "type": "function"
    },
    {
      "inputs": [
        {
          "internalType": "bytes32",
          "name": "hash",
          "type": "bytes32"
        },
        {
          "internalType": "bytes",
          "name": "signature",
          "type": "bytes"
        }
      ],
      "name": "recoverSignerAddressFromBytes32",
      "outputs": [
        {
          "internalType": "address",
          "name": "",
          "type": "address"
        }
      ],
      "stateMutability": "pure",
      "type": "function"
    },
    {
      "inputs": [
        {
          "internalType": "uint256",
          "name": "purchase_id",
          "type": "uint256"
        }
      ],
      "name": "redeemGivenMinimumGoalNotAchieved",
      "outputs": [],
      "stateMutability": "nonpayable",
      "type": "function"
    },
    {
      "inputs": [
        {
          "internalType": "uint256",
          "name": "purchase_id",
          "type": "uint256"
        }
      ],
      "name": "redeemTokens",
      "outputs": [],
      "stateMutability": "nonpayable",
      "type": "function"
    },
    {
      "inputs": [
        {
          "internalType": "address",
          "name": "_address",
          "type": "address"
        }
      ],
      "name": "removeFromBlacklist",
      "outputs": [],
      "stateMutability": "nonpayable",
      "type": "function"
    },
    {
      "inputs": [
        {
          "internalType": "address",
          "name": "_address",
          "type": "address"
        }
      ],
      "name": "removeFromWhitelist",
      "outputs": [],
      "stateMutability": "nonpayable",
      "type": "function"
    },
    {
      "inputs": [
        {
          "internalType": "address",
          "name": "_tokenAddress",
          "type": "address"
        },
        {
          "internalType": "address",
          "name": "_to",
          "type": "address"
        }
      ],
      "name": "removeOtherERC20Tokens",
      "outputs": [],
      "stateMutability": "nonpayable",
      "type": "function"
    },
    {
      "inputs": [
        {
          "internalType": "bytes32",
          "name": "role",
          "type": "bytes32"
        },
        {
          "internalType": "address",
          "name": "account",
          "type": "address"
        }
      ],
      "name": "renounceRole",
      "outputs": [],
      "stateMutability": "nonpayable",
      "type": "function"
    },
    {
      "inputs": [
        {
          "internalType": "bytes32",
          "name": "role",
          "type": "bytes32"
        },
        {
          "internalType": "address",
          "name": "account",
          "type": "address"
        }
      ],
      "name": "revokeRole",
      "outputs": [],
      "stateMutability": "nonpayable",
      "type": "function"
    },
    {
      "inputs": [],
      "name": "safePullETH",
      "outputs": [],
      "stateMutability": "nonpayable",
      "type": "function"
    },
    {
      "inputs": [],
      "name": "safePullSaleToken",
      "outputs": [],
      "stateMutability": "nonpayable",
      "type": "function"
    },
    {
      "inputs": [],
      "name": "safePullTradeToken",
      "outputs": [],
      "stateMutability": "nonpayable",
      "type": "function"
    },
    {
      "inputs": [
        {
          "internalType": "uint256",
          "name": "_endDate",
          "type": "uint256"
        }
      ],
      "name": "setEndDate",
      "outputs": [],
      "stateMutability": "nonpayable",
      "type": "function"
    },
    {
      "inputs": [
        {
          "internalType": "bool",
          "name": "_hasWhitelisting",
          "type": "bool"
        }
      ],
      "name": "setHasWhitelisting",
      "outputs": [],
      "stateMutability": "nonpayable",
      "type": "function"
    },
    {
      "inputs": [
        {
          "internalType": "uint256",
          "name": "_individualMaximumAmount",
          "type": "uint256"
        }
      ],
      "name": "setIndividualMaximumAmount",
      "outputs": [],
      "stateMutability": "nonpayable",
      "type": "function"
    },
    {
      "inputs": [
        {
          "internalType": "address",
          "name": "_PolsStakeAddress",
          "type": "address"
        },
        {
          "internalType": "uint256",
          "name": "_PolsStakeAmount",
          "type": "uint256"
        },
        {
          "internalType": "uint256",
          "name": "_PolsStakeRewards",
          "type": "uint256"
        }
      ],
      "name": "setPolsStakingRequirement",
      "outputs": [],
      "stateMutability": "nonpayable",
      "type": "function"
    },
    {
      "inputs": [
        {
          "internalType": "address",
          "name": "_tokenAddress",
          "type": "address"
        }
      ],
      "name": "setSaleTokenAddress",
      "outputs": [],
      "stateMutability": "nonpayable",
      "type": "function"
    },
    {
      "inputs": [
        {
          "internalType": "address",
          "name": "_signerPublicAddress",
          "type": "address"
        }
      ],
      "name": "setSignerPublicAddress",
      "outputs": [],
      "stateMutability": "nonpayable",
      "type": "function"
    },
    {
      "inputs": [
        {
          "internalType": "address",
          "name": "_stakingRewardsAddress",
          "type": "address"
        }
      ],
      "name": "setStakingRewards",
      "outputs": [],
      "stateMutability": "nonpayable",
      "type": "function"
    },
    {
      "inputs": [
        {
          "internalType": "uint256",
          "name": "_startDate",
          "type": "uint256"
        }
      ],
      "name": "setStartDate",
      "outputs": [],
      "stateMutability": "nonpayable",
      "type": "function"
    },
    {
      "inputs": [
        {
          "internalType": "uint256",
          "name": "_tradeValue",
          "type": "uint256"
        }
      ],
      "name": "setTradeValue",
      "outputs": [],
      "stateMutability": "nonpayable",
      "type": "function"
    },
    {
      "inputs": [
        {
          "internalType": "uint256",
          "name": "_tgeAllocation",
          "type": "uint256"
        },
        {
          "internalType": "uint256",
          "name": "_tgeTime",
          "type": "uint256"
        },
        {
          "internalType": "uint256",
          "name": "_vestingStart",
          "type": "uint256"
        },
        {
          "internalType": "uint256",
          "name": "_vestingCliff",
          "type": "uint256"
        },
        {
          "internalType": "uint256",
          "name": "_vestingDuration",
          "type": "uint256"
        },
        {
          "internalType": "uint256[]",
          "name": "_vestingSchedule",
          "type": "uint256[]"
        }
      ],
      "name": "setVesting",
      "outputs": [],
      "stateMutability": "nonpayable",
      "type": "function"
    },
    {
      "inputs": [],
      "name": "signerPublicAddress",
      "outputs": [
        {
          "internalType": "address",
          "name": "",
          "type": "address"
        }
      ],
      "stateMutability": "view",
      "type": "function"
    },
    {
      "inputs": [],
      "name": "stakingRewardsAddress",
      "outputs": [
        {
          "internalType": "address",
          "name": "",
          "type": "address"
        }
      ],
      "stateMutability": "view",
      "type": "function"
    },
    {
      "inputs": [],
      "name": "startDate",
      "outputs": [
        {
          "internalType": "uint256",
          "name": "",
          "type": "uint256"
        }
      ],
      "stateMutability": "view",
      "type": "function"
    },
    {
      "inputs": [
        {
          "internalType": "bytes4",
          "name": "interfaceId",
          "type": "bytes4"
        }
      ],
      "name": "supportsInterface",
      "outputs": [
        {
          "internalType": "bool",
          "name": "",
          "type": "bool"
        }
      ],
      "stateMutability": "view",
      "type": "function"
    },
    {
      "inputs": [
        {
          "internalType": "uint256",
          "name": "_amount",
          "type": "uint256"
        },
        {
          "internalType": "bytes",
          "name": "_signature",
          "type": "bytes"
        }
      ],
      "name": "swap",
      "outputs": [],
      "stateMutability": "payable",
      "type": "function"
    },
    {
      "inputs": [
        {
          "internalType": "uint256",
          "name": "_amount",
          "type": "uint256"
        },
        {
          "internalType": "uint256",
          "name": "_accountMaxAmount",
          "type": "uint256"
        },
        {
          "internalType": "bytes",
          "name": "_signature",
          "type": "bytes"
        }
      ],
      "name": "swapWithSig",
      "outputs": [],
      "stateMutability": "payable",
      "type": "function"
    },
    {
      "inputs": [],
      "name": "tgeAllocation",
      "outputs": [
        {
          "internalType": "uint256",
          "name": "",
          "type": "uint256"
        }
      ],
      "stateMutability": "view",
      "type": "function"
    },
    {
      "inputs": [],
      "name": "tgeTime",
      "outputs": [
        {
          "internalType": "uint256",
          "name": "",
          "type": "uint256"
        }
      ],
      "stateMutability": "view",
      "type": "function"
    },
    {
      "inputs": [],
      "name": "tokensAllocated",
      "outputs": [
        {
          "internalType": "uint256",
          "name": "",
          "type": "uint256"
        }
      ],
      "stateMutability": "view",
      "type": "function"
    },
    {
      "inputs": [],
      "name": "tokensForSale",
      "outputs": [
        {
          "internalType": "uint256",
          "name": "",
          "type": "uint256"
        }
      ],
      "stateMutability": "view",
      "type": "function"
    },
    {
      "inputs": [],
      "name": "tokensLeft",
      "outputs": [
        {
          "internalType": "uint256",
          "name": "",
          "type": "uint256"
        }
      ],
      "stateMutability": "view",
      "type": "function"
    },
    {
      "inputs": [],
      "name": "totalRaiseCost",
      "outputs": [
        {
          "internalType": "uint256",
          "name": "",
          "type": "uint256"
        }
      ],
      "stateMutability": "view",
      "type": "function"
    },
    {
      "inputs": [],
      "name": "tradeValue",
      "outputs": [
        {
          "internalType": "uint256",
          "name": "",
          "type": "uint256"
        }
      ],
      "stateMutability": "view",
      "type": "function"
    },
    {
      "inputs": [
        {
          "internalType": "uint256",
          "name": "purchase_id",
          "type": "uint256"
        },
        {
          "internalType": "bool",
          "name": "stake",
          "type": "bool"
        }
      ],
      "name": "transferTokens",
      "outputs": [],
      "stateMutability": "nonpayable",
      "type": "function"
    },
    {
      "inputs": [],
      "name": "unpause",
      "outputs": [],
      "stateMutability": "nonpayable",
      "type": "function"
    },
    {
      "inputs": [],
      "name": "unsoldTokensRedeemed",
      "outputs": [
        {
          "internalType": "bool",
          "name": "",
          "type": "bool"
        }
      ],
      "stateMutability": "view",
      "type": "function"
    },
    {
      "inputs": [],
      "name": "vestingCliff",
      "outputs": [
        {
          "internalType": "uint256",
          "name": "",
          "type": "uint256"
        }
      ],
      "stateMutability": "view",
      "type": "function"
    },
    {
      "inputs": [],
      "name": "vestingDuration",
      "outputs": [
        {
          "internalType": "uint256",
          "name": "",
          "type": "uint256"
        }
      ],
      "stateMutability": "view",
      "type": "function"
    },
    {
      "inputs": [
        {
          "internalType": "uint256",
          "name": "",
          "type": "uint256"
        }
      ],
      "name": "vestingSchedule",
      "outputs": [
        {
          "internalType": "uint256",
          "name": "",
          "type": "uint256"
        }
      ],
      "stateMutability": "view",
      "type": "function"
    },
    {
      "inputs": [],
      "name": "vestingStart",
      "outputs": [
        {
          "internalType": "uint256",
          "name": "",
          "type": "uint256"
        }
      ],
      "stateMutability": "view",
      "type": "function"
    },
    {
      "inputs": [],
      "name": "vestingTime",
      "outputs": [
        {
          "internalType": "uint256",
          "name": "",
          "type": "uint256"
        }
      ],
      "stateMutability": "view",
      "type": "function"
    },
    {
      "inputs": [],
      "name": "withdrawFunds",
      "outputs": [],
      "stateMutability": "nonpayable",
      "type": "function"
    },
    {
      "inputs": [],
      "name": "withdrawUnsoldTokens",
      "outputs": [],
      "stateMutability": "nonpayable",
      "type": "function"
    }
  ],
  "bytecode": "0x6101203461063657601f615df938819003918201601f19168301916001600160401b0383118484101761063b57808492610180946040528339810103126106365761004981610651565b602082015190604083015160608401519360808101519160a08201519160c08101519560e0820151801515036106365761010082015192610120830151986101408401519563ffffffff871694858803610636576101606100aa9101610651565b6000805460ff191681556002805460ff60a01b19169055338152600080516020615dd98339815191526020526040902054909a9060ff16156105d4575b6002805460ff60a01b1916898216151560a01b60ff60a01b161790556003829055336000908152600080516020615dd9833981519152602052604090205460ff161561058f5781811061054a57600455336000908152600080516020615db9833981519152602052604090205460ff161561050a575b814210156104c557821561048c578210610447578185116104025760638a116103bd576020841015610378576010819055336000908152600080516020615db9833981519152602052604090205460ff1615610333578611156102ee577fa8a30fc464c735231b45b2154d25ba95fbc6860f3b226667372cfc3977f2124b602087601098601155604051908152a1601455600f5560805260018216156102e65750600160c0525b60088116151560e05216151561010052600d80546001600160a01b0319166001600160a01b0392831617905516806102cc575b5060a05260405161573390816106668239608051816117cb015260a0518181816116ab01528181612dfb0152612ea8015260c051818181610de10152818161225601528181613091015281816130db015281816133fe015281816141db015261451d015260e0518181816113770152818161238601526130540152610100518181816109360152818161301701526133d70152f35b600e80546001600160a01b03191691909117905538610237565b601255610204565b60405162461bcd60e51b815260206004820152601a60248201527f656e642064617465206265666f726520737461727420646174650000000000006044820152606490fd5b60405162461bcd60e51b815260206004820152601960248201527f63616c6c657220686173206e6f742061646d696e20726f6c65000000000000006044820152606490fd5b60405162461bcd60e51b815260206004820152601560248201527f756e737570706f7274656420666c6167732073657400000000000000000000006044820152606490fd5b60405162461bcd60e51b815260206004820152601e60248201527f4665652050657263656e746167652068617320746f206265203c2031303000006044820152606490fd5b60405162461bcd60e51b815260206004820152601c60248201527f6d696e696d756d5261697365203e20746f6b656e73466f7253616c65000000006044820152606490fd5b60405162461bcd60e51b815260206004820152601e60248201527f746f6b656e73466f7253616c65203c20696e646976696475616c206d696e00006044820152606490fd5b60405162461bcd60e51b81526020600482015260116024820152706e6f20746f6b656e20666f722073616c6560781b6044820152606490fd5b60405162461bcd60e51b815260206004820152601960248201527f7374617274206461746520697320696e207468652070617374000000000000006044820152606490fd5b336000818152600080516020615db983398151915260205260408120805460ff191660011790558190600080516020615d998339815191528180a461015d565b60405162461bcd60e51b815260206004820152601b60248201527f696e646976696475616c206d6178203c206d696e20616d6f756e7400000000006044820152606490fd5b60405162461bcd60e51b815260206004820152601c60248201527f63616c6c6572206973206e6f742057686974656c6973744f776e6572000000006044820152606490fd5b336000818152600080516020615dd983398151915260205260408120805460ff1916600117905581907fb813b807c25079ba97f1770664c6a9e57c59afe74a6295f1ed01c10e3bb6baae90600080516020615d998339815191529080a46100e7565b600080fd5b634e487b7160e01b600052604160045260246000fd5b51906001600160a01b03821682036106365756fe608080604052600436101561001357600080fd5b600090813560e01c90816301ffc9a714613d5d575080630274fa9814613cf5578063034e529014613cd6578063044c0cc514613cab5780630766234514613c8557806308abd7ff14613bbc57806309b56e0b14613b975780630b97bc8614613b795780630d8e6e2c14613b5c57806312aef8c314613b3e57806313430f0114613b205780631514617e14613b0257806315b5786614613ae2578063161a7b2a14613ac75780631a808187146133395780631de18af7146130b657806321d3002a14613079578063230005d31461303c5780632438a3f614612fff57806324600fc314612d8a578063248a9ca314612d5c578063254800d414612d3e5780632593ea1714612d1b5780632e15410714612cfd5780632ebb5c1e14612cdd5780632f2ff15d14612c1b5780633070b98d146129ce5780633113076a1461295d5780633163e3a81461293f57806331d06af31461291657806336568abe146128835780633742a9f71461277d5780633784f000146126fc5780633af32abf146126c15780633b6577c8146126875780633bbab179146126035780633f4ba83a1461258f5780634089aa9a1461256e57806344337ea1146124df57806344691f7e146124be57806347535d7b146124a3578063537df3b6146124145780635ac699bb146123cc5780635c975abb146123aa5780635f635f9a1461220e5780636295a2f4146121f057806369bb4dc2146121675780636d028027146120e35780636eaaabd51461204a5780636fb83a5714611fc157806370a898bc14611fa157806374fa05fb14611f7f578063751ef93d14611f65578063755e3e2814611f4757806376807e5f14611ec6578063785e9e8614611e9d578063788bff6814611e74578063799bb23214611e4e5780637f7b271214611e2e5780638158f2b814611e1057806382d95df514611d3c5780638307dc9814611d215780638392fe3114611c965780638456cb5914611c1f57806388b0fe2b14611b675780638a1a5f3f14611b4c5780638ab1d68114611abd5780638e75b13114611a9f5780639097548d14611a80578063917c854d14611906578063919bd930146118cc57806391d1485414611880578063948384141461185a57806396a32bc4146117ee5780639728538f146117b35780639baf1979146117995780639d90a46e146116ce578063a001ecdd14611693578063a1c09bf114611675578063a217fddf14611659578063a6e158f8146114b4578063b31f8f9314611492578063b367940e1461146f578063b869178714611403578063ba40a96a146113da578063bd0625ab14610d99578063bf135abe14610d70578063c0e6498914610c81578063c24a0f8b14610c63578063c3ca324f14610c3e578063c7dab43614610c23578063c8bdbfb614610b70578063ca1d209d14610a7b578063d10dbdf514610a05578063d547741f146109bc578063d623786d146108e2578063dbb57ac81461089b578063dc91b072146107f8578063e4101de5146107da578063e43252d71461074b578063e4a8025214610717578063e8b882f4146106ee578063eb1edd61146106bf578063efbb34d514610699578063f267d48c1461067b578063f2aa821814610637578063f3640e7414610619578063f64bfaba1461058f578063fce9d11b14610562578063fe575a871461051d5763fecf415a146104e657600080fd5b3461051a57602036600319011261051a575060206105056004356140a2565b5060018060a01b039054163314604051908152f35b80fd5b503461051a57602036600319011261051a5760206105586001600160a01b03610544613db2565b166000526008602052604060002054151590565b6040519015158152f35b503461051a578060031936011261051a5761058b61057f33614c7b565b604051918291826140c1565b0390f35b503461051a578060031936011261051a5760405180916020601c54928381520191601c82527f0e4562a10381dec21b205ed72637e6b1b523bdd0e4d4d50af5cd23dd4500a211915b8181106105fa5761058b856105ee81870382613e10565b60405191829182613f22565b82546001600160a01b03168452602090930192600192830192016105d7565b503461051a578060031936011261051a576020601854604051908152f35b503461051a57602036600319011261051a5760043590601c5482101561051a57602061066283613f96565b905460405160039290921b1c6001600160a01b03168152f35b503461051a578060031936011261051a576020600c54604051908152f35b503461051a578060031936011261051a5760206106b7601454614a9a565b604051908152f35b503461051a578060031936011261051a57602060405173aeb39b67f27b641ef9f95fb74f1a46b1ee4efc838152f35b503461051a578060031936011261051a5760206040516000805160206157078339815191528152f35b503461051a57602061073161072b36614072565b906149b4565b6002546040516001600160a01b0392831691909216148152f35b503461051a57602036600319011261051a57610765613db2565b600080516020615707833981519152825260016020908152604080842033600090815292529020546107999060ff16614147565b6001600160a01b03166107ab81615167565b6107b3575080f35b7fa850ae9193f515cbae8d35e8925bd2be26627fc91bce650b8652ed254e9cab038280a280f35b503461051a578060031936011261051a576020600454604051908152f35b503461051a57602036600319011261051a57600435600080516020615707833981519152825260016020526040822060018060a01b03331660005260205261084760ff60406000205416614147565b60035481106108565760045580f35b60405162461bcd60e51b815260206004820152601b60248201527f696e646976696475616c206d6178203c206d696e20616d6f756e7400000000006044820152606490fd5b503461051a57602036600319011261051a5761058b6108bb600435614cf1565b90604094929451948594855260208501526040840152608060608401526080830190613efd565b503461051a57602036600319011261051a576108fc613db2565b81805260016020908152604080842033600090815292529020546109229060ff166140fb565b61093461092d614a43565b4210614305565b7f0000000000000000000000000000000000000000000000000000000000000000156109785760018060a01b03166001600160601b0360a01b600d541617600d5580f35b606460405162461bcd60e51b815260206004820152602060248201527f746f6b656e2061646472657373206368616e6765206e6f7420616c6c6f7765646044820152fd5b503461051a57604036600319011261051a57610a026004356109dc613dc8565b906109fd6109f882600052600160205260016040600020015490565b614db5565b615054565b80f35b503461051a57602036600319011261051a577ffd6fc945a36da5e54e8c65e37d56829b185977f4df3f8244caaae06f42d549c56020600435610a4a6010544210614351565b8380526001825260408085203360009081529084522054610a6d9060ff166140fb565b80600f55604051908152a180f35b503461051a57602036600319011261051a5760043560018060a01b03600d5416906040516370a0823160e01b8152306004820152602081602481865afa8015610b655782908590610b2a575b610ad192506141cc565b60145410610ae657610a0291309033906150da565b606460405162461bcd60e51b815260206004820152602060248201527f6d6f726520746f6b656e73207468616e206e656564656420666f722073616c656044820152fd5b50506020813d602011610b5d575b81610b4560209383613e10565b81010312610b585781610ad19151610ac7565b600080fd5b3d9150610b38565b6040513d86823e3d90fd5b503461051a578060031936011261051a578080526001602090815260408083203360009081529252902054610ba79060ff166140fb565b610bb560115442101561441e565b600e5460ff8160a01c16610c1f57601354601254811015610c0e57506014545b80610bde578280f35b60ff60a01b19909116600160a01b17600e55600d54610c08919033906001600160a01b0316614d36565b38808280f35b610c1a90601454614411565b610bd5565b5080fd5b503461051a578060031936011261051a5760206106b7614cda565b503461051a57602036600319011261051a5761058b61057f610c5e613db2565b614c7b565b503461051a578060031936011261051a576020601154604051908152f35b503461051a578060031936011261051a57600d546040516370a0823160e01b8152306004820152906001600160a01b0316602082602481845afa918215610d65578392610d31575b5060145480831015610cec57610a0292610ce291614411565b90309033906150da565b60405162461bcd60e51b815260206004820152601d60248201527f636f6e747261637420616c72656164792066756c6c792066756e6465640000006044820152606490fd5b9091506020813d602011610d5d575b81610d4d60209383613e10565b81010312610b5857519038610cc9565b3d9150610d40565b6040513d85823e3d90fd5b503461051a578060031936011261051a57600e546040516001600160a01b039091168152602090f35b50604036600319011261051a5760043560243567ffffffffffffffff81116113d657610dc9903690600401613fe5565b91610dd2614d71565b610dda614946565b1561139b577f000000000000000000000000000000000000000000000000000000000000000090811593848095611374575b8015611366575b1561132157610e229033614b32565b9283156112ec57600e546001600160a01b03166112dd573492610e4482614a9a565b34106112a2575b610e5a60145460135490614411565b821161125d576003548210611218578482116111d357338352601d60205260408320936040518086602082985493848152019087526020872092875b8181106111ba575050610eab92500386613e10565b839684975b8651891015610ee457610edc60019182610ed3610ecd8d8c614193565b516140a2565b500154906141cc565b980197610eb0565b610eef8589926141cc565b116111755766010000000000004210156111305760405190610f1082613dde565b338252602082019065ffffffffffff42168252604083019015815260608301878152608084019087825260a085019286845260c08601948a8652601b54600160401b81101561111c57806001610f699201601b556140a2565b97909761110857518754915192516001600160d81b03199092166001600160a01b03919091161760a09290921b65ffffffffffff60a01b169190911790151560d01b60ff60d01b16178555600393929190610fd99051865460ff60d81b191690151560d81b60ff60d81b16178655565b51600185015551600284015551910155338452601d60205260408420601b546000198101919082116110f4579061100f916143ef565b601c54600160401b8110156110e05780600161102e9201601c55613f96565b81549060031b9033821b9160018060a01b03901b1916179055611053836013546141cc565b601355600e546001600160a01b03166110c0575b506110a2575b6040519081524260208201527fbec109f7ee137de661c6887caa96653c0545050a9908a3b6eb5190440bbec86460403392a280f35b600d546110bb90829033906001600160a01b0316614d36565b61106d565b600e546110da9190309033906001600160a01b03166150da565b83611067565b634e487b7160e01b85526041600452602485fd5b634e487b7160e01b86526011600452602486fd5b634e487b7160e01b8c5260048c905260248cfd5b634e487b7160e01b8c52604160045260248cfd5b60405162461bcd60e51b815260206004820152601c60248201527f76616c756520646f65736e27742066697420696e2034382062697473000000006044820152606490fd5b60405162461bcd60e51b815260206004820152601f60248201527f616d6f756e7420676f6573206f76657220696e646976696475616c206d6178006044820152606490fd5b845483526001948501948a945060209093019201610e96565b60405162461bcd60e51b815260206004820152601760248201527f616d6f756e74203e206d6178696d756d20616d6f756e740000000000000000006044820152606490fd5b60405162461bcd60e51b815260206004820152601760248201527f616d6f756e74203c206d696e696d756d20616d6f756e740000000000000000006044820152606490fd5b60405162461bcd60e51b815260206004820152601960248201527f616d6f756e74203e20746f6b656e7320617661696c61626c65000000000000006044820152606490fd5b60405162461bcd60e51b81526020600482015260136024820152721b9bdd08195b9bdd59da08115512081cd95b9d606a1b6044820152606490fd5b6112e681614a9a565b92610e4b565b60405162461bcd60e51b815260206004820152600d60248201526c37379030b63637b1b0ba34b7b760991b6044820152606490fd5b60405162461bcd60e51b815260206004820152601c60248201527f66756e64696e6720726571756972656d656e7473206e6f74206d6574000000006044820152606490fd5b5061136f6141d9565b610e13565b507f0000000000000000000000000000000000000000000000000000000000000000610e0c565b60405162461bcd60e51b815260206004820152601360248201527239b0b632903430b9903a379031329037b832b760691b6044820152606490fd5b8280fd5b503461051a578060031936011261051a576002546040516001600160a01b039091168152602090f35b503461051a57602036600319011261051a5761141d613db2565b600080516020615707833981519152825260016020908152604080842033600090815292529020546114519060ff16614147565b60018060a01b03166001600160601b0360a01b600254161760025580f35b503461051a578060031936011261051a5760206013546012541115604051908152f35b503461051a578060031936011261051a5760206106b760145460135490614411565b503461051a57602036600319011261051a576004356114d2816140a2565b50546001600160a01b0316330361161d576114ec81614511565b81156115f5575060016114fe836140a2565b50015491600361150d826140a2565b5001548361151b84836141cc565b1161157e576115486115428483610a0297611538836003976141cc565b1461155e576141cc565b926140a2565b500155600d5433906001600160a01b0316614d36565b611567866140a2565b50805460ff60d01b1916600160d01b1790556141cc565b60a460405162461bcd60e51b815260206004820152604460248201527f494e5445524e414c204552524f52203a20616d6f756e7452656465656d65642060448201527f776f756c64206265206c6172676572207468656e20707572636861736520616d6064820152631bdd5b9d60e21b6084820152fd5b60405162461bcd60e51b815260206004820152908190611619906024830190613efd565b0390fd5b60405162461bcd60e51b815260206004820152601460248201527320b2323932b9b99034b9903737ba10313abcb2b960611b6044820152606490fd5b503461051a578060031936011261051a57602090604051908152f35b503461051a578060031936011261051a576020601b54604051908152f35b503461051a578060031936011261051a5760206040517f00000000000000000000000000000000000000000000000000000000000000008152f35b503461051a576116dd36613e4a565b90600080516020615707833981519152815260016020526040812060018060a01b03331660005260205261171860ff60406000205416614147565b80815b8351811015611761576117406001600160a01b036117398387614193565b51166151bc565b61174d575b60010161171b565b906117596001916141a7565b919050611745565b508061176b575080f35b60207fc2f03ca34d335e49d4d629b85db054d1ffb679b4fec2e06fe10d0e618b175ecb91604051908152a180f35b503461051a5760206106b76117ad3661402c565b91614bd1565b503461051a578060031936011261051a5760206040517f00000000000000000000000000000000000000000000000000000000000000008152f35b503461051a578060031936011261051a5780805260016020908152604080832033600090815292529020546118259060ff166140fb565b61182d61511e565b8080808047818115611851575b3390f1156118455780f35b604051903d90823e3d90fd5b506108fc61183a565b503461051a578060031936011261051a57602060ff600e5460a01c166040519015158152f35b503461051a57604036600319011261051a57604061189c613dc8565b9160043581526001602052209060018060a01b0316600052602052602060ff604060002054166040519015158152f35b503461051a57602036600319011261051a5760043590601a5482101561051a5760206118f783613f65565b90549060031b1c604051908152f35b503461051a57604036600319011261051a57611920613db2565b611928613dc8565b9082805260016020526040832060018060a01b03331660005260205261195560ff604060002054166140fb565b61196360115442101561441e565b600d546001600160a01b0391821691168114611a3b57600e546001600160a01b031681146119f6576040516370a0823160e01b815230600482015291602083602481855afa918215610b655784926119c0575b610a029350614d36565b91506020833d6020116119ee575b816119db60209383613e10565b81010312610b5857610a029251916119b6565b3d91506119ce565b60405162461bcd60e51b815260206004820152601b60248201527f746f6b656e206973207468652074726164652d696e20746f6b656e00000000006044820152606490fd5b60405162461bcd60e51b815260206004820152601b60248201527f746f6b656e2069732074686520746f6b656e20666f722073616c6500000000006044820152606490fd5b503461051a57602036600319011261051a5760206106b7600435614a9a565b503461051a578060031936011261051a576020601254604051908152f35b503461051a57602036600319011261051a57611ad7613db2565b60008051602061570783398151915282526001602090815260408084203360009081529252902054611b0b9060ff16614147565b6001600160a01b0316611b1d816153fe565b611b25575080f35b7fcdd2e9b91a56913d370075169cefa1602ba36be5301664f752192bb1709df7578280a280f35b503461051a578060031936011261051a5760206106b7614a5f565b503461051a578060031936011261051a578080526001602090815260408083203360009081529252902054611b9e9060ff166140fb565b611ba661511e565b600d546040516370a0823160e01b8152306004820152906001600160a01b0316602082602481845afa908115610d65578391611be9575b610a0292503390614d36565b90506020823d602011611c17575b81611c0460209383613e10565b81010312610b5857610a02915190611bdd565b3d9150611bf7565b503461051a578060031936011261051a578080526001602090815260408083203360009081529252902054611c569060ff166140fb565b611c5e614d71565b600160ff198254161781557f62e78cea01bee320cd4e420270b5ea74000d11b0c9f74754ebdbfc544b05a2586020604051338152a180f35b503461051a57602036600319011261051a5760043590601b5482101561051a5760e0611cc1836140a2565b50805490600181015490600360028201549101549160ff6040519460018060a01b038116865265ffffffffffff8160a01c166020870152818160d01c161515604087015260d81c1615156060850152608084015260a083015260c0820152f35b503461051a578060031936011261051a5760206106b7614a43565b503461051a57602036600319011261051a57600435611d5e6010544210614351565b8180526001602090815260408084203360009081529252902054611d849060ff166140fb565b80421015611dcb5760207ff18a09eaf82fdb00baab509d15db4abfd6aba1bf424d6bbc88295fa0f8a400d791611dbd601154821061448a565b80601055604051908152a180f35b60405162461bcd60e51b815260206004820152601c60248201527f73746172742064617465206e6f7420696e2074686520667574757265000000006044820152606490fd5b503461051a578060031936011261051a576020601554604051908152f35b503461051a578060031936011261051a57602060405164e8d4a510008152f35b503461051a576020611e6261072b36614072565b6040516001600160a01b039091168152f35b503461051a578060031936011261051a576009546040516001600160a01b039091168152602090f35b503461051a578060031936011261051a57600d546040516001600160a01b039091168152602090f35b503461051a578060031936011261051a578080526001602090815260408083203360009081529252902054611efd9060ff166140fb565b611f0561511e565b600e546040516370a0823160e01b8152306004820152906001600160a01b0316602082602481845afa908115610d65578391611be957610a0292503390614d36565b503461051a578060031936011261051a576020601354604051908152f35b503461051a576020610558611f793661402c565b9161495d565b503461051a578060031936011261051a57602060135460125411604051908152f35b503461051a578060031936011261051a5760206003541515604051908152f35b503461051a57602036600319011261051a577ff62d9d6092e49a0a9a72b4e4f020f4173b0f35e505c41e59b60aeed8386029656020611ffe613db2565b83805260018252604080852033600090815290845220546120219060ff166140fb565b600980546001600160a01b0319166001600160a01b03929092169182179055604051908152a180f35b503461051a57602036600319011261051a57600435801515809103610c1f57600080516020615707833981519152825260016020908152604080842033600090815290835220547fe905f7f52156c346547b9deb6fb3e2459db941ec55d073fd465129bf4b49fae692906120c09060ff16614147565b6002805460ff60a01b191660a083901b60ff60a01b16179055604051908152a180f35b503461051a578060031936011261051a5760055461210081613e32565b9161210e6040519384613e10565b818352601f1961211d83613e32565b013660208501375b81811061213a576040518061058b8582613f22565b806121486001926005613fb1565b838060a01b0391549060031b1c166121608286614193565b5201612125565b503461051a578060031936011261051a57600d546040516370a0823160e01b81523060048201529190602090839060249082906001600160a01b03165afa90811561184557906121bd575b602090604051908152f35b506020813d6020116121e8575b816121d760209383613e10565b81010312610b5857602090516121b2565b3d91506121ca565b503461051a578060031936011261051a576020600f54604051908152f35b50606036600319011261051a5760043560443567ffffffffffffffff81116113d65761223e903690600401613fe5565b91612247614d71565b61224f614946565b1561139b577f000000000000000000000000000000000000000000000000000000000000000090811593848095612383575b8015612375575b156113215761229a9060243533614bd1565b9283156112ec57600e546001600160a01b03166123665734926122bc82614a9a565b34106112a2575b6122d260145460135490614411565b821161125d576003548210611218578482116111d357338352601d60205260408320936040518086602082985493848152019087526020872092875b81811061234d57505061232392500386613e10565b839684975b8651891015610ee45761234560019182610ed3610ecd8d8c614193565b980197612328565b845483526001948501948a94506020909301920161230e565b61236f81614a9a565b926122c3565b5061237e6141d9565b612288565b507f0000000000000000000000000000000000000000000000000000000000000000612281565b503461051a578060031936011261051a5760ff60209154166040519015158152f35b503461051a57604036600319011261051a576123e6613db2565b6001600160a01b03168152601d602052604081208054602435929083101561051a5760206118f78484613fb1565b503461051a57602036600319011261051a5761242e613db2565b600080516020615707833981519152825260016020908152604080842033600090815292529020546124629060ff16614147565b6001600160a01b03166124748161532d565b61247c575080f35b7f2b6bf71b58b3583add364b3d9060ebf8019650f65f5be35f5464b9cb3e4ba2d48280a280f35b503461051a578060031936011261051a576020610558614946565b503461051a578060031936011261051a576020601054421015604051908152f35b503461051a57602036600319011261051a576124f9613db2565b6000805160206157078339815191528252600160209081526040808420336000908152925290205461252d9060ff16614147565b6001600160a01b031661253f816151bc565b612547575080f35b7ff9b68063b051b82957fa193585681240904fed808db8b30fc5a2d2202c6ed6278280a280f35b503461051a578060031936011261051a576020601154421015604051908152f35b503461051a578060031936011261051a5780805260016020908152604080832033600090815292529020546125c69060ff166140fb565b6125ce61511e565b60ff1981541681557f5db9ee0a495bf2e6ff9c91a7834c1ba4fdd244a5e8aa4e537bd38aeae4b073aa6020604051338152a180f35b503461051a578060031936011261051a5760075461262081613e32565b9161262e6040519384613e10565b818352601f1961263d83613e32565b013660208501375b81811061265a576040518061058b8582613f22565b806126686001926007613fb1565b838060a01b0391549060031b1c166126808286614193565b5201612645565b503461051a57602036600319011261051a576126a4600435614511565b9061058b6040519283928352604060208401526040830190613efd565b503461051a57602036600319011261051a5760206105586001600160a01b036126e8613db2565b166000526006602052604060002054151590565b503461051a57602036600319011261051a577fa8a30fc464c735231b45b2154d25ba95fbc6860f3b226667372cfc3977f2124b602060043561276f81601054612746814210614351565b86805260018552604080882033600090815290875220546127699060ff166140fb565b1061448a565b80601155604051908152a180f35b503461051a57602036600319011261051a57600435601b5481101561283e576127a760e0916140a2565b5060c0604051916127b783613dde565b805460018060a01b0381169182855265ffffffffffff8260a01c169081602087015260ff808460d01c1615159384604089015260d81c1615159384606088015260018201549687608082015260036002840154938460a084015201549687910152604051968752602087015260408601526060850152608084015260a083015260c0820152f35b60405162461bcd60e51b815260206004820152601a60248201527f70757263686173655f696420646f6573206e6f742065786973740000000000006044820152606490fd5b503461051a57604036600319011261051a5761289d613dc8565b336001600160a01b038216036128b957610a0290600435615054565b60405162461bcd60e51b815260206004820152602f60248201527f416363657373436f6e74726f6c3a2063616e206f6e6c792072656e6f756e636560448201526e103937b632b9903337b91039b2b63360891b6064820152608490fd5b503461051a578060031936011261051a57600a546040516001600160a01b039091168152602090f35b503461051a578060031936011261051a576020601654604051908152f35b503461051a578060031936011261051a576017549060195490601a5490811560001461299d5750506020916129976106b79260019061439d565b906141cc565b600182018092116129ba5750916129976106b7926020949061439d565b634e487b7160e01b81526011600452602490fd5b503461051a57604036600319011261051a576004356024358015908115036113d6576129f9826140a2565b50546001600160a01b0316330361161d57612a1382614511565b819391156115f557506001612a27826140a2565b5001546003612a35836140a2565b5001549080612a4486846141cc565b1161157e576115428583612a5e93611538836003976141cc565b50015515612a7e57600d54610a02919033906001600160a01b0316614d36565b6009546001600160a01b0316908115612bcc57600d54604051636eb1769f60e11b815230600482015260248101849052849390916001600160a01b0316602083604481845afa8015612bc15784938691612b84575b50612ae4612b2294612b1d926141cc565b60405163095ea7b360e01b60208201526001600160a01b039094166024850152604484015282606481015b03601f198101845283613e10565b615211565b6009546001600160a01b031690813b15612b80578291604483926040519586938492638b1e31c760e01b845260048401523360248401525af18015612b7357612b6a57505080f35b610a0291613e10565b50604051903d90823e3d90fd5b5050fd5b9350506020833d602011612bb9575b81612ba060209383613e10565b81010312612bb5579151839290612ae4612ad3565b8480fd5b3d9150612b93565b6040513d87823e3d90fd5b60405162461bcd60e51b815260206004820152602160248201527f4e6f2049444f207374616b696e6720636f6e747261637420617661696c61626c6044820152606560f81b6064820152608490fd5b503461051a57604036600319011261051a57600435612c38613dc8565b90612c546109f882600052600160205260016040600020015490565b8083526001602090815260408085206001600160a01b038516865290915283205460ff1615612c81578280f35b8083526001602081815260408086206001600160a01b0395909516808752949091528420805460ff191690911790553391907f2f8788117e7eff1d82e926ec794901d17c78024a50270940304540a733656f0d8480a438808280f35b503461051a578060031936011261051a5760206010544210604051908152f35b503461051a578060031936011261051a576020600354604051908152f35b503461051a57602036600319011261051a576020601b5460043510604051908152f35b503461051a578060031936011261051a576020601754604051908152f35b503461051a57602036600319011261051a5760206106b7600435600052600160205260016040600020015490565b503461051a578060031936011261051a57808052600160209081526040808320338452909152812054612dbf9060ff166140fb565b612dc7614d71565b612dd560115442101561441e565b60135460125411612fbe57600e546001600160a01b0316612e6557808080806064612e207f00000000000000000000000000000000000000000000000000000000000000004761439d565b04818115612e5c575b73aeb39b67f27b641ef9f95fb74f1a46b1ee4efc8390f115611845578080808047818115611851573390f1156118455780f35b506108fc612e29565b600e546040516370a0823160e01b8152306004820152906001600160a01b0316602082602481845afa918215610d65578392612f89575b506064612ecd612f11937f00000000000000000000000000000000000000000000000000000000000000009061439d565b60405163a9059cbb60e01b602082015273aeb39b67f27b641ef9f95fb74f1a46b1ee4efc836024820152919004604480830191909152815290612b1d606483613e10565b600e546040516370a0823160e01b8152306004820152906001600160a01b0316602082602481845afa908115610d65578391612f5357610a0292503390614d36565b90506020823d602011612f81575b81612f6e60209383613e10565b810103126113d657610a02915190611bdd565b3d9150612f61565b91506020823d602011612fb6575b81612fa460209383613e10565b810103126113d6579051906064612e9c565b3d9150612f97565b60405162461bcd60e51b81526020600482015260196024820152781b5a5b9a5b5d5b481c985a5cd9481b9bdd081c995858da1959603a1b6044820152606490fd5b503461051a578060031936011261051a5760206040517f000000000000000000000000000000000000000000000000000000000000000015158152f35b503461051a578060031936011261051a5760206040517f000000000000000000000000000000000000000000000000000000000000000015158152f35b503461051a578060031936011261051a5760206040517f000000000000000000000000000000000000000000000000000000000000000015158152f35b503461051a57602036600319011261051a576004356130d960115442101561441e565b7f00000000000000000000000000000000000000000000000000000000000000006132f457613107816140a2565b50546001600160a01b031633036132b857601254801561327357601354101561322e57613133906140a2565b506001810154156131e95780549060ff8260d01c166131ac5761ffff60d01b1990911661010160d01b178155600e548291906001600160a01b031661318c578180600281930154818115611851573390f1156118455780f35b600e5460029190910154610a0292509033906001600160a01b0316614d36565b60405162461bcd60e51b81526020600482015260156024820152741c1d5c98da185cd9481a5cc8199a5b985b1a5e9959605a1b6044820152606490fd5b60405162461bcd60e51b815260206004820152601760248201527f707572636861736520616d6f756e74206973207a65726f0000000000000000006044820152606490fd5b60405162461bcd60e51b815260206004820152601e60248201527f6d696e696d756d20726169736520686173206265656e207265616368656400006044820152606490fd5b60405162461bcd60e51b815260206004820152601d60248201527f6e6f206d696e696d756d20726169736520686173206265656e207365740000006044820152606490fd5b60405162461bcd60e51b815260206004820152601460248201527330b2323932b9b99034b9903737ba10313abcb2b960611b6044820152606490fd5b60405162461bcd60e51b815260206004820152601e60248201527f73616c652068617320746f206265206e6f6e2041746f6d6963207377617000006044820152606490fd5b503461051a5760c036600319011261051a5760243560043560a43560443560843560643567ffffffffffffffff8411613ac35736602385011215613ac35783600401359267ffffffffffffffff8411613abf5760248501968460051b953660248883010111613abb57898052600160209081526040808c20338d529091528a20546133c69060ff166140fb565b6133ce614a43565b80613aaa575b507f000000000000000000000000000000000000000000000000000000000000000015613a98575b7f0000000000000000000000000000000000000000000000000000000000000000613a5357655af3107a40008811613a175787158015906139d957866139945760115480841061394f576307861f80810180911161393b578311613902575b601589905582156138bf5750601154821061387a5761347a84846141cc565b8211613835575b8160165561348f84846141cc565b6011548091106137f0578585116137ab578615908115613794576134be6134b860015b8961439d565b866141cc565b6307861f808201809211613780571161373b57836017558460185585601955601a548b601a55806136db575b506001871015613562575b5050604051968752602087015260408601526060850152608084015260c060a08401528060c084015260018060fb1b031061355e57818160e0927f507910142e585ee6be1b7c9f72cbf219e8cb55016324498741bfa51f1c30eace95848401378101030190a180f35b8380fd5b8593919997959a989694929a1561367957613665578635655af3107a400081101561362057613590906143b0565b60015b848110156136115760001981018181116135fd576135b36135ca91613f65565b90549060031b1c60248360051b8d010135906141cc565b655af3107a40008110156135ea57906135e46001926143b0565b01613593565b50509193959750919395975b38806134f5565b634e487b7160e01b8a52601160045260248afd5b509193959750919395976135f6565b60405162461bcd60e51b815260206004820152601c60248201527f66697273742076657374696e6720706572696f64203e3d2031303025000000006044820152606490fd5b634e487b7160e01b88526032600452602488fd5b60405162461bcd60e51b815260206004820152603460248201527f76657374696e6720696e74657276616c6c732070726f76696465642c2062757460448201527302076657374696e674475726174696f6e203d20360641b6064820152608490fd5b601a8c527f057c384a7d1c54f3a1b2e5e67b2617b8224fdfd1ea7234eea573a6ff665ff63e017f057c384a7d1c54f3a1b2e5e67b2617b8224fdfd1ea7234eea573a6ff665ff63e5b81811061373057506134ea565b8c8155600101613723565b60405162461bcd60e51b815260206004820152601960248201527f76657374696e6720656e642074696d6520746f6f206c617465000000000000006044820152606490fd5b634e487b7160e01b8d52601160045260248dfd5b60018801808911613780576134b86134be916134b2565b60405162461bcd60e51b815260206004820152601e60248201527f76657374696e67436c696666203e2076657374696e674475726174696f6e00006044820152606490fd5b60405162461bcd60e51b815260206004820152601760248201527f76657374696e67206265666f72652073616c6520656e640000000000000000006044820152606490fd5b60405162461bcd60e51b815260206004820152601860248201527f74676554696d65206166746572207665737420636c69666600000000000000006044820152606490fd5b60405162461bcd60e51b815260206004820152601b60248201527f74676554696d65206265666f72652073616c6520656e644461746500000000006044820152606490fd5b156134815760405162461bcd60e51b81526020600482015260166024820152750746765416c6c6f636174696f6e206973206e6f7420360541b6044820152606490fd5b60405162461bcd60e51b81526020600482015260116024820152707467652074696d6520746f6f206c61746560781b6044820152606490fd5b634e487b7160e01b8c52601160045260248cfd5b60405162461bcd60e51b815260206004820152601760248201527f74676554696d65206265666f72652073616c6520656e640000000000000000006044820152606490fd5b60405162461bcd60e51b815260206004820152601f60248201527f4e6f20544745207665737420666f7220706572696f646963616c2076657374006044820152606490fd5b821561345b5760405162461bcd60e51b815260206004820152601060248201526f074676554696d65206973206e6f7420360841b6044820152606490fd5b60405162461bcd60e51b8152602060048201526014602482015273746765416c6c6f636174696f6e203e203130302560601b6044820152606490fd5b60405162461bcd60e51b815260206004820152601a60248201527f6e6f2076657374696e6720666f722061746f6d696320737761700000000000006044820152606490fd5b613aa56010544210614351565b6133fc565b613ab5904210614305565b386133d4565b8980fd5b8780fd5b8680fd5b503461051a578060031936011261051a5760206105586141d9565b503461051a578060031936011261051a5760206012541515604051908152f35b503461051a578060031936011261051a576020601954604051908152f35b503461051a578060031936011261051a576020600b54604051908152f35b503461051a578060031936011261051a576020601454604051908152f35b503461051a578060031936011261051a5760206040516177248152f35b503461051a578060031936011261051a576020601054604051908152f35b503461051a578060031936011261051a576020613bb2614a43565b4210604051908152f35b503461051a57613bcb36613e4a565b90600080516020615707833981519152815260016020526040812060018060a01b0333168252602052613c0460ff604083205416614147565b80815b8351811015613c4d57613c2c6001600160a01b03613c258387614193565b5116615167565b613c39575b600101613c07565b90613c456001916141a7565b919050613c31565b5080613c57575080f35b60207f448f3bd350ede14a294c062177c5280fe1eae125d16757da21f5f51d6e89daae91604051908152a180f35b503461051a578060031936011261051a57602060ff60025460a01c166040519015158152f35b503461051a578060031936011261051a5750600e546040516001600160a01b03909116158152602090f35b503461051a578060031936011261051a5760206040516307861f808152f35b503461051a57606036600319011261051a57613d0f613db2565b818052600160209081526040808420338552909152822054613d339060ff166140fb565b60018060a01b03166001600160601b0360a01b600a541617600a55602435600b55604435600c5580f35b905034610c1f576020366003190112610c1f5760043563ffffffff60e01b81168091036113d65760209250637965db0b60e01b8114908115613da1575b5015158152f35b6301ffc9a760e01b14905038613d9a565b600435906001600160a01b0382168203610b5857565b602435906001600160a01b0382168203610b5857565b60e0810190811067ffffffffffffffff821117613dfa57604052565b634e487b7160e01b600052604160045260246000fd5b90601f8019910116810190811067ffffffffffffffff821117613dfa57604052565b67ffffffffffffffff8111613dfa5760051b60200190565b6020600319820112610b58576004359067ffffffffffffffff8211610b585780602383011215610b5857816004013590613e8382613e32565b92613e916040519485613e10565b8284526024602085019360051b820101918211610b5857602401915b818310613eba5750505090565b82356001600160a01b0381168103610b5857815260209283019201613ead565b60005b838110613eed5750506000910152565b8181015183820152602001613edd565b90602091613f1681518092818552858086019101613eda565b601f01601f1916010190565b602060408183019282815284518094520192019060005b818110613f465750505090565b82516001600160a01b0316845260209384019390920191600101613f39565b601a54811015613f8057601a60005260206000200190600090565b634e487b7160e01b600052603260045260246000fd5b601c54811015613f8057601c60005260206000200190600090565b8054821015613f805760005260206000200190600090565b67ffffffffffffffff8111613dfa57601f01601f191660200190565b81601f82011215610b5857803590613ffc82613fc9565b9261400a6040519485613e10565b82845260208383010111610b5857816000926020809301838601378301015290565b6060600319820112610b58576004356001600160a01b0381168103610b585791602435916044359067ffffffffffffffff8211610b585761406f91600401613fe5565b90565b906040600319830112610b5857600435916024359067ffffffffffffffff8211610b585761406f91600401613fe5565b601b54811015613f8057601b60005260206000209060021b0190600090565b602060408183019282815284518094520192019060005b8181106140e55750505090565b82518452602093840193909201916001016140d8565b1561410257565b60405162461bcd60e51b815260206004820152601960248201527f63616c6c657220686173206e6f742061646d696e20726f6c65000000000000006044820152606490fd5b1561414e57565b60405162461bcd60e51b815260206004820152601c60248201527f63616c6c6572206973206e6f742057686974656c6973744f776e6572000000006044820152606490fd5b8051821015613f805760209160051b010190565b60001981146141b65760010190565b634e487b7160e01b600052601160045260246000fd5b919082018092116141b657565b7f00000000000000000000000000000000000000000000000000000000000000001561428f57600d546040516370a0823160e01b815230600482015290602090829060249082906001600160a01b03165afa80156142835760009061424f575b6142479150601354906141cc565b601454111590565b506020813d60201161427b575b8161426960209383613e10565b81010312610b58576142479051614239565b3d915061425c565b6040513d6000823e3d90fd5b600d546040516370a0823160e01b815230600482015290602090829060249082906001600160a01b03165afa908115614283576000916142d3575b50601454111590565b90506020813d6020116142fd575b816142ee60209383613e10565b81010312610b585751386142ca565b3d91506142e1565b1561430c57565b60405162461bcd60e51b815260206004820152601760248201527f76657374696e6720616c726561647920737461727465640000000000000000006044820152606490fd5b1561435857565b60405162461bcd60e51b815260206004820152601a60248201527f746f6b656e2073616c6520616c726561647920737461727465640000000000006044820152606490fd5b818102929181159184041417156141b657565b601a54600160401b811015613dfa576143d48160016143eb9301601a55601a613fb1565b819391549060031b91821b91600019901b19161790565b9055565b805490600160401b821015613dfa57816143d49160016143eb94018155613fb1565b919082039182116141b657565b1561442557565b60405162461bcd60e51b815260206004820152601860248201527f73616c652068617320746f2062652066696e616c697a656400000000000000006044820152606490fd5b8115614474570490565b634e487b7160e01b600052601260045260246000fd5b1561449157565b60405162461bcd60e51b815260206004820152601a60248201527f656e642064617465206265666f726520737461727420646174650000000000006044820152606490fd5b604051906144e5604083613e10565b601a82527f70757263686173655f696420646f6573206e6f742065786973740000000000006020830152565b601b5481101561493a577f00000000000000000000000000000000000000000000000000000000000000006148fb5760115442106148bc5760ff6000541661487d5760135460125411614842576003614577600161456e846140a2565b500154926140a2565b50015481811015614802576000601a54801560001461475d5750601754601954426145a282846141cc565b116146de57505050815b82821161467f578211614629576145c291614411565b90600082156145f957506040516145da604082613e10565b600f81526e726561647920746f2072656465656d60881b602082015290565b50604051614608604082613e10565b60118152706e6f7468696e6720746f2072656465656d60781b602082015290565b505060009060405161463c606082613e10565b602d81527f494e5445524e414c204552524f52203a2076657374416d6f756e74203e20707560208201526c1c98da185cd957d85b5bdd5b9d609a1b604082015290565b505050600090604051614693606082613e10565b603581527f494e5445524e414c204552524f52203a2070757263686173655f616d6f756e7460208201527414995919595b5959080f881d995cdd105b5bdd5b9d605a1b604082015290565b6016949294544210156146f3575b50506145ac565b909350655af3107a40006147096015548461439d565b049081944261471a601854836141cc565b1115614727575b506146ec565b8395509061474f612997926147496147428661475498614411565b9142614411565b9061439d565b61446a565b91388080614721565b9060175461476d601854826141cc565b42106147c1576147806147899142614411565b6019549061446a565b918210614798575050816145ac565b6147b86147ab655af3107a400093613f65565b90549060031b1c8561439d565b905004916145ac565b5093925050506040516147d5604082613e10565b601d81527f76657374696e6720636c696666206e6f74207965742072656163686564000000602082015290565b5050600090604051614815604082613e10565b601a81527f616c6c20746f6b656e20616c72656164792072656465656d6564000000000000602082015290565b50600090604051614854604082613e10565b60198152781b5a5b9a5b5d5b481c985a5cd9481b9bdd081c995858da1959603a1b602082015290565b5060009060405161488f604082613e10565b601d81527f746f6b656e2073616c6520636f6e747261637420697320706175736564000000602082015290565b506000906040516148ce604082613e10565b601881527f746f6b656e2073616c65206e6f742066696e616c697a65640000000000000000602082015290565b5060009060405161490d604082613e10565b601981527f68617320746f206265206e6f6e2041746f6d6963207377617000000000000000602082015290565b5060009061406f6144d6565b601054421015806149545790565b50601154421090565b6149a092916040519060208201926001600160601b03199060601b16835260348201523060601b605482015260488152614998606882613e10565b5190206149b4565b6002546001600160a01b0391821691161490565b60418251036149fe5761406f916149f6917f19457468657265756d205369676e6564204d6573736167653a0a333200000000600052601c52603c6000206154b2565b9190916154e6565b60405162461bcd60e51b815260206004820152601960248201527f7369676e6174757265206973206e6f74203635206279746573000000000000006044820152606490fd5b6016548015614a4f5790565b5061406f601754601854906141cc565b601754804210614a94576019548015614a8d5761474f614a7f9242614411565b600181018091116141b65790565b5050600190565b50600090565b600f54614aa69161439d565b600d5460405163313ce56760e01b815290602090829060049082906001600160a01b03165afa90811561428357600091614af5575b5060ff1690604d82116141b65761406f91600a0a9061446a565b6020813d602011614b2a575b81614b0e60209383613e10565b81010312610c1f57519060ff8216820361051a575060ff614adb565b3d9150614b01565b6001600160a01b038116600081815260086020526040902054919291614bc9576002549060ff8260a01c1615908115614bab575b50614ba2576001600160a01b031615159182614b8e575b5050614b8857600090565b60045490565b614b9b925060009061495d565b3880614b7d565b50505060045490565b614bc391506000526006602052604060002054151590565b38614b66565b505050600090565b6001600160a01b03811660008181526008602052604090205492939192614c72576002549060ff8260a01c1615908115614c54575b50614c4a576001600160a01b0316151591839083614c38575b505050614c2c5750600090565b8061406f575060045490565b614c42935061495d565b388281614c1f565b5050505060045490565b614c6c91506000526006602052604060002054151590565b38614c06565b50505050600090565b60018060a01b0316600052601d60205260406000206040518082602082945493848152019060005260206000209260005b818110614cc157505061406f92500382613e10565b8454835260019485019486945060209093019201614cac565b601a548015614a9457600181018091116141b65790565b601b548110614d0c575060009060009060009061406f6144d6565b6001614d17826140a2565b50015491614d326003614d29846140a2565b50015492614511565b9091565b60405163a9059cbb60e01b60208201526001600160a01b0390921660248301526044820192909252614d6f91612b1d8260648101612b0f565b565b60ff60005416614d7d57565b60405162461bcd60e51b815260206004820152601060248201526f14185d5cd8589b194e881c185d5cd95960821b6044820152606490fd5b600081815260016020908152604080832033845290915290205460ff1615614dda5750565b3390600090614de9602a613fc9565b92614df76040519485613e10565b602a8452614e05602a613fc9565b602085019390601f1901368537845115614ffc5760308453845160011015614ffc57607860218601536029905b60018211615010575050614f4c57600090614e4d6042613fc9565b90614e5b6040519283613e10565b60428252614e696042613fc9565b602083019390601f1901368537825115614ffc5760308453825160011015614ffc57607860218401536041905b60018211614f90575050614f4c57611619936037614f2c9383614f1b614ef297601196506040519889967f416363657373436f6e74726f6c3a206163636f756e7420000000000000000000602089015251809287890190613eda565b8501917001034b99036b4b9b9b4b733903937b6329607d1b858401525180936048840190613eda565b01010301601f198101835282613e10565b60405162461bcd60e51b8152602060048201529182916024830190613efd565b606460405162461bcd60e51b815260206004820152602060248201527f537472696e67733a20686578206c656e67746820696e73756666696369656e746044820152fd5b9091600f81166010811015614fe8576f181899199a1a9b1b9c1cb0b131b232b360811b901a614fbf8486615600565b5360041c918015614fd4576000190190614e96565b634e487b7160e01b82526011600452602482fd5b634e487b7160e01b83526032600452602483fd5b634e487b7160e01b81526032600452602490fd5b9091600f81166010811015614fe8576f181899199a1a9b1b9c1cb0b131b232b360811b901a61503f8488615600565b5360041c918015614fd4576000190190614e32565b806000526001602052604060002060018060a01b03831660005260205260ff60406000205416615082575050565b60008181526001602090815260408083206001600160a01b0395909516808452949091528120805460ff19169055339291907ff6391f5c32d9c69d2a47ea670b442974b53935d1edc7fd64eb21e047a839171b9080a4565b6040516323b872dd60e01b60208201526001600160a01b039283166024820152929091166044830152606480830193909352918152614d6f91612b1d608483613e10565b60ff600054161561512b57565b60405162461bcd60e51b815260206004820152601460248201527314185d5cd8589b194e881b9bdd081c185d5cd95960621b6044820152606490fd5b80600052600660205260406000205415600014614a9457600554600160401b811015613dfa576151a36143d48260018594016005556005613fb1565b9055600554906000526006602052604060002055600190565b80600052600860205260406000205415600014614a9457600754600160401b811015613dfa576151f86143d48260018594016007556007613fb1565b9055600754906000526008602052604060002055600190565b604080519092615295926001600160a01b03169060009081906152348786613e10565b602085527f5361666545524332303a206c6f772d6c6576656c2063616c6c206661696c6564602086015260208151910182855af13d15615325573d9161527983613fc9565b9261528687519485613e10565b83523d6000602085013e615691565b8051908115918215615302575b5050156152ac5750565b5162461bcd60e51b815260206004820152602a60248201527f5361666545524332303a204552433230206f7065726174696f6e20646964206e6044820152691bdd081cdd58d8d9595960b21b6064820152608490fd5b8192509060209181010312610b5857602001518015158103610b585738806152a2565b606091615691565b60008181526008602052604090205480156153f75760001981018181116141b6576007546000198101919082116141b6578082036153bd575b50505060075480156153a75760001901615381816007613fb1565b8154906000199060031b1b19169055600755600052600860205260006040812055600190565b634e487b7160e01b600052603160045260246000fd5b6153df6153ce6143d4936007613fb1565b90549060031b1c9283926007613fb1565b90556000526008602052604060002055388080615366565b5050600090565b60008181526006602052604090205480156153f75760001981018181116141b6576005546000198101919082116141b657808203615478575b50505060055480156153a75760001901615452816005613fb1565b8154906000199060031b1b19169055600555600052600660205260006040812055600190565b61549a6154896143d4936005613fb1565b90549060031b1c9283926005613fb1565b90556000526006602052604060002055388080615437565b9060418151146000146154dc57614d32916020820151906060604084015193015160001a90615611565b5050600090600290565b60058110156155ea57806154f75750565b600181036155445760405162461bcd60e51b815260206004820152601860248201527f45434453413a20696e76616c6964207369676e617475726500000000000000006044820152606490fd5b600281036155915760405162461bcd60e51b815260206004820152601f60248201527f45434453413a20696e76616c6964207369676e6174757265206c656e677468006044820152606490fd5b60031461559a57565b60405162461bcd60e51b815260206004820152602260248201527f45434453413a20696e76616c6964207369676e6174757265202773272076616c604482015261756560f01b6064820152608490fd5b634e487b7160e01b600052602160045260246000fd5b908151811015613f80570160200190565b7f7fffffffffffffffffffffffffffffff5d576e7357a4501ddfe92f46681b20a084116156855760209360009360ff60809460405194855216868401526040830152606082015282805260015afa15614283576000516001600160a01b0381161561567c5790600090565b50600090600190565b50505050600090600390565b919290156156f357508151156156a5575090565b3b156156ae5790565b60405162461bcd60e51b815260206004820152601d60248201527f416464726573733a2063616c6c20746f206e6f6e2d636f6e74726163740000006044820152606490fd5b8251909150156115f55750805190602001fdfeb813b807c25079ba97f1770664c6a9e57c59afe74a6295f1ed01c10e3bb6baaea164736f6c634300081a000a2f8788117e7eff1d82e926ec794901d17c78024a50270940304540a733656f0da6eef7e35abe7026729641147f7915573c7e97b47efa546f5f6e3230263bcb49358823ad0653452618750bed6506f24f63ef58f0cce438e3a379e32873da19d2",
  "linkReferences": {},
  "deployedLinkReferences": {}
}