{
  "_format": "hh-sol-artifact-1",
  "contractName": "FixedSwap",
  "sourceName": "contracts/FixedSwap.sol",
  "abi": [
    {
      "inputs": [
        {
          "internalType": "address",
          "name": "_tokenAddress",
          "type": "address"
        },
        {
          "internalType": "uint256",
          "name": "_tradeValue",
          "type": "uint256"
        },
        {
          "internalType": "uint256",
          "name": "_tokensForSale",
          "type": "uint256"
        },
        {
          "internalType": "uint256",
          "name": "_startDate",
          "type": "uint256"
        },
        {
          "internalType": "uint256",
          "name": "_endDate",
          "type": "uint256"
        },
        {
          "internalType": "uint256",
          "name": "_individualMinimumAmount",
          "type": "uint256"
        },
        {
          "internalType": "uint256",
          "name": "_individualMaximumAmount",
          "type": "uint256"
        },
        {
          "internalType": "bool",
          "name": "_ignored",
          "type": "bool"
        },
        {
          "internalType": "uint256",
          "name": "_minimumRaise",
          "type": "uint256"
        },
        {
          "internalType": "uint256",
          "name": "_feePercentage",
          "type": "uint256"
        },
        {
          "internalType": "uint32",
          "name": "_flags",
          "type": "uint32"
        },
        {
          "internalType": "address",
          "name": "_erc20TradeAddress",
          "type": "address"
        },
        {
          "internalType": "uint256",
          "name": "_vestingStart",
          "type": "uint256"
        },
        {
          "internalType": "uint256",
          "name": "_vestingCliff",
          "type": "uint256"
        },
        {
          "internalType": "uint256",
          "name": "_vestingDuration",
          "type": "uint256"
        },
        {
          "internalType": "uint256[]",
          "name": "_vestingSchedule",
          "type": "uint256[]"
        }
      ],
      "stateMutability": "nonpayable",
      "type": "constructor"
    },
    {
      "anonymous": false,
      "inputs": [
        {
          "indexed": false,
          "internalType": "uint256",
          "name": "count",
          "type": "uint256"
        }
      ],
      "name": "AddedArrayToBlacklist",
      "type": "event"
    },
    {
      "anonymous": false,
      "inputs": [
        {
          "indexed": false,
          "internalType": "uint256",
          "name": "count",
          "type": "uint256"
        }
      ],
      "name": "AddedArrayToWhitelist",
      "type": "event"
    },
    {
      "anonymous": false,
      "inputs": [
        {
          "indexed": true,
          "internalType": "address",
          "name": "account",
          "type": "address"
        }
      ],
      "name": "AddedToBlacklist",
      "type": "event"
    },
    {
      "anonymous": false,
      "inputs": [
        {
          "indexed": true,
          "internalType": "address",
          "name": "account",
          "type": "address"
        }
      ],
      "name": "AddedToWhitelist",
      "type": "event"
    },
    {
      "anonymous": false,
      "inputs": [
        {
          "indexed": false,
          "internalType": "address",
          "name": "account",
          "type": "address"
        }
      ],
      "name": "Paused",
      "type": "event"
    },
    {
      "anonymous": false,
      "inputs": [
        {
          "indexed": false,
          "internalType": "uint256",
          "name": "amount",
          "type": "uint256"
        },
        {
          "indexed": true,
          "internalType": "address",
          "name": "purchaser",
          "type": "address"
        },
        {
          "indexed": false,
          "internalType": "uint256",
          "name": "timestamp",
          "type": "uint256"
        }
      ],
      "name": "PurchaseEvent",
      "type": "event"
    },
    {
      "anonymous": false,
      "inputs": [
        {
          "indexed": true,
          "internalType": "address",
          "name": "account",
          "type": "address"
        }
      ],
      "name": "RemovedFromBlacklist",
      "type": "event"
    },
    {
      "anonymous": false,
      "inputs": [
        {
          "indexed": true,
          "internalType": "address",
          "name": "account",
          "type": "address"
        }
      ],
      "name": "RemovedFromWhitelist",
      "type": "event"
    },
    {
      "anonymous": false,
      "inputs": [
        {
          "indexed": true,
          "internalType": "bytes32",
          "name": "role",
          "type": "bytes32"
        },
        {
          "indexed": true,
          "internalType": "bytes32",
          "name": "previousAdminRole",
          "type": "bytes32"
        },
        {
          "indexed": true,
          "internalType": "bytes32",
          "name": "newAdminRole",
          "type": "bytes32"
        }
      ],
      "name": "RoleAdminChanged",
      "type": "event"
    },
    {
      "anonymous": false,
      "inputs": [
        {
          "indexed": true,
          "internalType": "bytes32",
          "name": "role",
          "type": "bytes32"
        },
        {
          "indexed": true,
          "internalType": "address",
          "name": "account",
          "type": "address"
        },
        {
          "indexed": true,
          "internalType": "address",
          "name": "sender",
          "type": "address"
        }
      ],
      "name": "RoleGranted",
      "type": "event"
    },
    {
      "anonymous": false,
      "inputs": [
        {
          "indexed": true,
          "internalType": "bytes32",
          "name": "role",
          "type": "bytes32"
        },
        {
          "indexed": true,
          "internalType": "address",
          "name": "account",
          "type": "address"
        },
        {
          "indexed": true,
          "internalType": "address",
          "name": "sender",
          "type": "address"
        }
      ],
      "name": "RoleRevoked",
      "type": "event"
    },
    {
      "anonymous": false,
      "inputs": [
        {
          "indexed": false,
          "internalType": "bool",
          "name": "hasWhitelisting",
          "type": "bool"
        }
      ],
      "name": "SetHasWhitelisting",
      "type": "event"
    },
    {
      "anonymous": false,
      "inputs": [
        {
          "indexed": false,
          "internalType": "address",
          "name": "account",
          "type": "address"
        }
      ],
      "name": "Unpaused",
      "type": "event"
    },
    {
      "inputs": [],
      "name": "DECIMALS_PERCENT_MUL",
      "outputs": [
        {
          "internalType": "uint256",
          "name": "",
          "type": "uint256"
        }
      ],
      "stateMutability": "view",
      "type": "function"
    },
    {
      "inputs": [],
      "name": "DEFAULT_ADMIN_ROLE",
      "outputs": [
        {
          "internalType": "bytes32",
          "name": "",
          "type": "bytes32"
        }
      ],
      "stateMutability": "view",
      "type": "function"
    },
    {
      "inputs": [],
      "name": "FEE_ADDRESS",
      "outputs": [
        {
          "internalType": "address",
          "name": "",
          "type": "address"
        }
      ],
      "stateMutability": "view",
      "type": "function"
    },
    {
      "inputs": [],
      "name": "POLS_TOKEN_ADDRESS",
      "outputs": [
        {
          "internalType": "address",
          "name": "",
          "type": "address"
        }
      ],
      "stateMutability": "view",
      "type": "function"
    },
    {
      "inputs": [],
      "name": "POLS_UNIV2_ADDRESS",
      "outputs": [
        {
          "internalType": "address",
          "name": "",
          "type": "address"
        }
      ],
      "stateMutability": "view",
      "type": "function"
    },
    {
      "inputs": [],
      "name": "PolsStakeAddress",
      "outputs": [
        {
          "internalType": "address",
          "name": "",
          "type": "address"
        }
      ],
      "stateMutability": "view",
      "type": "function"
    },
    {
      "inputs": [],
      "name": "PolsStakeAmount",
      "outputs": [
        {
          "internalType": "uint256",
          "name": "",
          "type": "uint256"
        }
      ],
      "stateMutability": "view",
      "type": "function"
    },
    {
      "inputs": [],
      "name": "PolsStakeRewards",
      "outputs": [
        {
          "internalType": "uint256",
          "name": "",
          "type": "uint256"
        }
      ],
      "stateMutability": "view",
      "type": "function"
    },
    {
      "inputs": [],
      "name": "PolsTokenAddress",
      "outputs": [
        {
          "internalType": "address",
          "name": "",
          "type": "address"
        }
      ],
      "stateMutability": "view",
      "type": "function"
    },
    {
      "inputs": [],
      "name": "PolsTokenAmount",
      "outputs": [
        {
          "internalType": "uint256",
          "name": "",
          "type": "uint256"
        }
      ],
      "stateMutability": "view",
      "type": "function"
    },
    {
      "inputs": [],
      "name": "PolsUniV2Address",
      "outputs": [
        {
          "internalType": "address",
          "name": "",
          "type": "address"
        }
      ],
      "stateMutability": "view",
      "type": "function"
    },
    {
      "inputs": [],
      "name": "PolsUniV2Amount",
      "outputs": [
        {
          "internalType": "uint256",
          "name": "",
          "type": "uint256"
        }
      ],
      "stateMutability": "view",
      "type": "function"
    },
    {
      "inputs": [],
      "name": "WHITELIST_OWNER_ROLE",
      "outputs": [
        {
          "internalType": "bytes32",
          "name": "",
          "type": "bytes32"
        }
      ],
      "stateMutability": "view",
      "type": "function"
    },
    {
      "inputs": [
        {
          "internalType": "address[]",
          "name": "_addresses",
          "type": "address[]"
        }
      ],
      "name": "addArrayToBlacklist",
      "outputs": [],
      "stateMutability": "nonpayable",
      "type": "function"
    },
    {
      "inputs": [
        {
          "internalType": "address[]",
          "name": "_addresses",
          "type": "address[]"
        }
      ],
      "name": "addArrayToWhitelist",
      "outputs": [],
      "stateMutability": "nonpayable",
      "type": "function"
    },
    {
      "inputs": [
        {
          "internalType": "address",
          "name": "_address",
          "type": "address"
        }
      ],
      "name": "addToBlacklist",
      "outputs": [],
      "stateMutability": "nonpayable",
      "type": "function"
    },
    {
      "inputs": [
        {
          "internalType": "address",
          "name": "_address",
          "type": "address"
        }
      ],
      "name": "addToWhitelist",
      "outputs": [],
      "stateMutability": "nonpayable",
      "type": "function"
    },
    {
      "inputs": [],
      "name": "availableTokens",
      "outputs": [
        {
          "internalType": "uint256",
          "name": "",
          "type": "uint256"
        }
      ],
      "stateMutability": "view",
      "type": "function"
    },
    {
      "inputs": [
        {
          "internalType": "uint256",
          "name": "",
          "type": "uint256"
        }
      ],
      "name": "buyers",
      "outputs": [
        {
          "internalType": "address",
          "name": "",
          "type": "address"
        }
      ],
      "stateMutability": "view",
      "type": "function"
    },
    {
      "inputs": [
        {
          "internalType": "uint256",
          "name": "_amount",
          "type": "uint256"
        }
      ],
      "name": "cost",
      "outputs": [
        {
          "internalType": "uint256",
          "name": "",
          "type": "uint256"
        }
      ],
      "stateMutability": "view",
      "type": "function"
    },
    {
      "inputs": [],
      "name": "endDate",
      "outputs": [
        {
          "internalType": "uint256",
          "name": "",
          "type": "uint256"
        }
      ],
      "stateMutability": "view",
      "type": "function"
    },
    {
      "inputs": [],
      "name": "erc20",
      "outputs": [
        {
          "internalType": "contract IERC20",
          "name": "",
          "type": "address"
        }
      ],
      "stateMutability": "view",
      "type": "function"
    },
    {
      "inputs": [],
      "name": "erc20TradeIn",
      "outputs": [
        {
          "internalType": "contract IERC20",
          "name": "",
          "type": "address"
        }
      ],
      "stateMutability": "view",
      "type": "function"
    },
    {
      "inputs": [],
      "name": "feePercentage",
      "outputs": [
        {
          "internalType": "uint256",
          "name": "",
          "type": "uint256"
        }
      ],
      "stateMutability": "view",
      "type": "function"
    },
    {
      "inputs": [
        {
          "internalType": "uint256",
          "name": "_amount",
          "type": "uint256"
        }
      ],
      "name": "fund",
      "outputs": [],
      "stateMutability": "nonpayable",
      "type": "function"
    },
    {
      "inputs": [],
      "name": "getAPIVersion",
      "outputs": [
        {
          "internalType": "uint32",
          "name": "API_VERSION",
          "type": "uint32"
        }
      ],
      "stateMutability": "pure",
      "type": "function"
    },
    {
      "inputs": [],
      "name": "getBlacklistedAddresses",
      "outputs": [
        {
          "internalType": "address[]",
          "name": "",
          "type": "address[]"
        }
      ],
      "stateMutability": "view",
      "type": "function"
    },
    {
      "inputs": [],
      "name": "getBuyers",
      "outputs": [
        {
          "internalType": "address[]",
          "name": "",
          "type": "address[]"
        }
      ],
      "stateMutability": "view",
      "type": "function"
    },
    {
      "inputs": [],
      "name": "getCurrentSchedule",
      "outputs": [
        {
          "internalType": "uint256",
          "name": "schedule",
          "type": "uint256"
        }
      ],
      "stateMutability": "view",
      "type": "function"
    },
    {
      "inputs": [
        {
          "internalType": "address",
          "name": "_address",
          "type": "address"
        }
      ],
      "name": "getMyPurchases",
      "outputs": [
        {
          "internalType": "uint256[]",
          "name": "",
          "type": "uint256[]"
        }
      ],
      "stateMutability": "view",
      "type": "function"
    },
    {
      "inputs": [],
      "name": "getMyPurchases_msgSender",
      "outputs": [
        {
          "internalType": "uint256[]",
          "name": "",
          "type": "uint256[]"
        }
      ],
      "stateMutability": "view",
      "type": "function"
    },
    {
      "inputs": [
        {
          "internalType": "uint256",
          "name": "purchase_id",
          "type": "uint256"
        }
      ],
      "name": "getPurchase",
      "outputs": [
        {
          "internalType": "uint256",
          "name": "amount",
          "type": "uint256"
        },
        {
          "internalType": "address",
          "name": "purchaser",
          "type": "address"
        },
        {
          "internalType": "uint256",
          "name": "costAmount",
          "type": "uint256"
        },
        {
          "internalType": "uint48",
          "name": "timestamp",
          "type": "uint48"
        },
        {
          "internalType": "bool",
          "name": "wasFinalized",
          "type": "bool"
        },
        {
          "internalType": "bool",
          "name": "reverted",
          "type": "bool"
        },
        {
          "internalType": "uint256",
          "name": "amountRedeemed",
          "type": "uint256"
        }
      ],
      "stateMutability": "view",
      "type": "function"
    },
    {
      "inputs": [],
      "name": "getPurchasesCount",
      "outputs": [
        {
          "internalType": "uint256",
          "name": "count",
          "type": "uint256"
        }
      ],
      "stateMutability": "view",
      "type": "function"
    },
    {
      "inputs": [
        {
          "internalType": "uint256",
          "name": "purchase_id",
          "type": "uint256"
        }
      ],
      "name": "getRedeemStatus",
      "outputs": [
        {
          "internalType": "uint256",
          "name": "amount",
          "type": "uint256"
        },
        {
          "internalType": "uint256",
          "name": "amountRedeemed",
          "type": "uint256"
        },
        {
          "internalType": "uint256",
          "name": "vestAmount",
          "type": "uint256"
        },
        {
          "internalType": "string",
          "name": "message",
          "type": "string"
        }
      ],
      "stateMutability": "view",
      "type": "function"
    },
    {
      "inputs": [
        {
          "internalType": "uint256",
          "name": "purchase_id",
          "type": "uint256"
        }
      ],
      "name": "getRedeemableTokensAmount",
      "outputs": [
        {
          "internalType": "uint256",
          "name": "amount",
          "type": "uint256"
        },
        {
          "internalType": "string",
          "name": "message",
          "type": "string"
        }
      ],
      "stateMutability": "view",
      "type": "function"
    },
    {
      "inputs": [
        {
          "internalType": "bytes32",
          "name": "role",
          "type": "bytes32"
        }
      ],
      "name": "getRoleAdmin",
      "outputs": [
        {
          "internalType": "bytes32",
          "name": "",
          "type": "bytes32"
        }
      ],
      "stateMutability": "view",
      "type": "function"
    },
    {
      "inputs": [
        {
          "internalType": "bytes32",
          "name": "role",
          "type": "bytes32"
        },
        {
          "internalType": "uint256",
          "name": "index",
          "type": "uint256"
        }
      ],
      "name": "getRoleMember",
      "outputs": [
        {
          "internalType": "address",
          "name": "",
          "type": "address"
        }
      ],
      "stateMutability": "view",
      "type": "function"
    },
    {
      "inputs": [
        {
          "internalType": "bytes32",
          "name": "role",
          "type": "bytes32"
        }
      ],
      "name": "getRoleMemberCount",
      "outputs": [
        {
          "internalType": "uint256",
          "name": "",
          "type": "uint256"
        }
      ],
      "stateMutability": "view",
      "type": "function"
    },
    {
      "inputs": [],
      "name": "getWhitelistedAddresses",
      "outputs": [
        {
          "internalType": "address[]",
          "name": "",
          "type": "address[]"
        }
      ],
      "stateMutability": "view",
      "type": "function"
    },
    {
      "inputs": [
        {
          "internalType": "bytes32",
          "name": "role",
          "type": "bytes32"
        },
        {
          "internalType": "address",
          "name": "account",
          "type": "address"
        }
      ],
      "name": "grantRole",
      "outputs": [],
      "stateMutability": "nonpayable",
      "type": "function"
    },
    {
      "inputs": [],
      "name": "hasFinalized",
      "outputs": [
        {
          "internalType": "bool",
          "name": "",
          "type": "bool"
        }
      ],
      "stateMutability": "view",
      "type": "function"
    },
    {
      "inputs": [],
      "name": "hasMinimumAmount",
      "outputs": [
        {
          "internalType": "bool",
          "name": "",
          "type": "bool"
        }
      ],
      "stateMutability": "view",
      "type": "function"
    },
    {
      "inputs": [],
      "name": "hasMinimumRaise",
      "outputs": [
        {
          "internalType": "bool",
          "name": "",
          "type": "bool"
        }
      ],
      "stateMutability": "view",
      "type": "function"
    },
    {
      "inputs": [
        {
          "internalType": "bytes32",
          "name": "role",
          "type": "bytes32"
        },
        {
          "internalType": "address",
          "name": "account",
          "type": "address"
        }
      ],
      "name": "hasRole",
      "outputs": [
        {
          "internalType": "bool",
          "name": "",
          "type": "bool"
        }
      ],
      "stateMutability": "view",
      "type": "function"
    },
    {
      "inputs": [],
      "name": "hasStarted",
      "outputs": [
        {
          "internalType": "bool",
          "name": "",
          "type": "bool"
        }
      ],
      "stateMutability": "view",
      "type": "function"
    },
    {
      "inputs": [],
      "name": "hasWhitelisting",
      "outputs": [
        {
          "internalType": "bool",
          "name": "",
          "type": "bool"
        }
      ],
      "stateMutability": "view",
      "type": "function"
    },
    {
      "inputs": [],
      "name": "individualMaximumAmount",
      "outputs": [
        {
          "internalType": "uint256",
          "name": "",
          "type": "uint256"
        }
      ],
      "stateMutability": "view",
      "type": "function"
    },
    {
      "inputs": [],
      "name": "individualMinimumAmount",
      "outputs": [
        {
          "internalType": "uint256",
          "name": "",
          "type": "uint256"
        }
      ],
      "stateMutability": "view",
      "type": "function"
    },
    {
      "inputs": [
        {
          "internalType": "address",
          "name": "_account",
          "type": "address"
        }
      ],
      "name": "isAddressPOLSWhitelisted",
      "outputs": [
        {
          "internalType": "bool",
          "name": "",
          "type": "bool"
        }
      ],
      "stateMutability": "view",
      "type": "function"
    },
    {
      "inputs": [
        {
          "internalType": "address",
          "name": "_address",
          "type": "address"
        }
      ],
      "name": "isBlacklisted",
      "outputs": [
        {
          "internalType": "bool",
          "name": "",
          "type": "bool"
        }
      ],
      "stateMutability": "view",
      "type": "function"
    },
    {
      "inputs": [
        {
          "internalType": "uint256",
          "name": "purchase_id",
          "type": "uint256"
        }
      ],
      "name": "isBuyer",
      "outputs": [
        {
          "internalType": "bool",
          "name": "",
          "type": "bool"
        }
      ],
      "stateMutability": "view",
      "type": "function"
    },
    {
      "inputs": [],
      "name": "isETHTrade",
      "outputs": [
        {
          "internalType": "bool",
          "name": "",
          "type": "bool"
        }
      ],
      "stateMutability": "view",
      "type": "function"
    },
    {
      "inputs": [],
      "name": "isOpen",
      "outputs": [
        {
          "internalType": "bool",
          "name": "",
          "type": "bool"
        }
      ],
      "stateMutability": "view",
      "type": "function"
    },
    {
      "inputs": [],
      "name": "isPOLSWhitelisted",
      "outputs": [
        {
          "internalType": "bool",
          "name": "",
          "type": "bool"
        }
      ],
      "stateMutability": "view",
      "type": "function"
    },
    {
      "inputs": [],
      "name": "isPreStart",
      "outputs": [
        {
          "internalType": "bool",
          "name": "",
          "type": "bool"
        }
      ],
      "stateMutability": "view",
      "type": "function"
    },
    {
      "inputs": [],
      "name": "isSaleFunded",
      "outputs": [
        {
          "internalType": "bool",
          "name": "",
          "type": "bool"
        }
      ],
      "stateMutability": "view",
      "type": "function"
    },
    {
      "inputs": [
        {
          "internalType": "address",
          "name": "_address",
          "type": "address"
        },
        {
          "internalType": "bytes",
          "name": "signature",
          "type": "bytes"
        }
      ],
      "name": "isSignerForAddress",
      "outputs": [
        {
          "internalType": "bool",
          "name": "",
          "type": "bool"
        }
      ],
      "stateMutability": "view",
      "type": "function"
    },
    {
      "inputs": [
        {
          "internalType": "bytes32",
          "name": "hash",
          "type": "bytes32"
        },
        {
          "internalType": "bytes",
          "name": "signature",
          "type": "bytes"
        }
      ],
      "name": "isSignerFromBytes32",
      "outputs": [
        {
          "internalType": "bool",
          "name": "",
          "type": "bool"
        }
      ],
      "stateMutability": "view",
      "type": "function"
    },
    {
      "inputs": [],
      "name": "isTokenSwapAtomic",
      "outputs": [
        {
          "internalType": "bool",
          "name": "",
          "type": "bool"
        }
      ],
      "stateMutability": "view",
      "type": "function"
    },
    {
      "inputs": [
        {
          "internalType": "address",
          "name": "_address",
          "type": "address"
        }
      ],
      "name": "isWhitelisted",
      "outputs": [
        {
          "internalType": "bool",
          "name": "",
          "type": "bool"
        }
      ],
      "stateMutability": "view",
      "type": "function"
    },
    {
      "inputs": [
        {
          "internalType": "address",
          "name": "_address",
          "type": "address"
        },
        {
          "internalType": "bytes",
          "name": "signature",
          "type": "bytes"
        }
      ],
      "name": "isWhitelistedWithSignature",
      "outputs": [
        {
          "internalType": "bool",
          "name": "",
          "type": "bool"
        }
      ],
      "stateMutability": "view",
      "type": "function"
    },
    {
      "inputs": [],
      "name": "minimumRaise",
      "outputs": [
        {
          "internalType": "uint256",
          "name": "",
          "type": "uint256"
        }
      ],
      "stateMutability": "view",
      "type": "function"
    },
    {
      "inputs": [],
      "name": "minimumRaiseAchieved",
      "outputs": [
        {
          "internalType": "bool",
          "name": "",
          "type": "bool"
        }
      ],
      "stateMutability": "view",
      "type": "function"
    },
    {
      "inputs": [],
      "name": "minimumRaiseNotAchieved",
      "outputs": [
        {
          "internalType": "bool",
          "name": "",
          "type": "bool"
        }
      ],
      "stateMutability": "view",
      "type": "function"
    },
    {
      "inputs": [
        {
          "internalType": "address",
          "name": "",
          "type": "address"
        },
        {
          "internalType": "uint256",
          "name": "",
          "type": "uint256"
        }
      ],
      "name": "myPurchases",
      "outputs": [
        {
          "internalType": "uint256",
          "name": "",
          "type": "uint256"
        }
      ],
      "stateMutability": "view",
      "type": "function"
    },
    {
      "inputs": [],
      "name": "pause",
      "outputs": [],
      "stateMutability": "nonpayable",
      "type": "function"
    },
    {
      "inputs": [],
      "name": "paused",
      "outputs": [
        {
          "internalType": "bool",
          "name": "",
          "type": "bool"
        }
      ],
      "stateMutability": "view",
      "type": "function"
    },
    {
      "inputs": [
        {
          "internalType": "uint256",
          "name": "purchase_id",
          "type": "uint256"
        }
      ],
      "name": "purchaseExists",
      "outputs": [
        {
          "internalType": "bool",
          "name": "",
          "type": "bool"
        }
      ],
      "stateMutability": "view",
      "type": "function"
    },
    {
      "inputs": [
        {
          "internalType": "uint256",
          "name": "",
          "type": "uint256"
        }
      ],
      "name": "purchases",
      "outputs": [
        {
          "internalType": "address",
          "name": "purchaser",
          "type": "address"
        },
        {
          "internalType": "uint48",
          "name": "timestamp",
          "type": "uint48"
        },
        {
          "internalType": "bool",
          "name": "wasFinalized",
          "type": "bool"
        },
        {
          "internalType": "bool",
          "name": "reverted",
          "type": "bool"
        },
        {
          "internalType": "uint256",
          "name": "amount",
          "type": "uint256"
        },
        {
          "internalType": "uint256",
          "name": "costAmount",
          "type": "uint256"
        },
        {
          "internalType": "uint256",
          "name": "amountRedeemed",
          "type": "uint256"
        }
      ],
      "stateMutability": "view",
      "type": "function"
    },
    {
      "inputs": [
        {
          "internalType": "bytes32",
          "name": "hash",
          "type": "bytes32"
        },
        {
          "internalType": "bytes",
          "name": "signature",
          "type": "bytes"
        }
      ],
      "name": "recoverSignerAddressFromBytes32",
      "outputs": [
        {
          "internalType": "address",
          "name": "",
          "type": "address"
        }
      ],
      "stateMutability": "pure",
      "type": "function"
    },
    {
      "inputs": [
        {
          "internalType": "uint256",
          "name": "purchase_id",
          "type": "uint256"
        }
      ],
      "name": "redeemGivenMinimumGoalNotAchieved",
      "outputs": [],
      "stateMutability": "nonpayable",
      "type": "function"
    },
    {
      "inputs": [
        {
          "internalType": "uint256",
          "name": "purchase_id",
          "type": "uint256"
        }
      ],
      "name": "redeemTokens",
      "outputs": [],
      "stateMutability": "nonpayable",
      "type": "function"
    },
    {
      "inputs": [
        {
          "internalType": "address",
          "name": "_address",
          "type": "address"
        }
      ],
      "name": "removeFromBlacklist",
      "outputs": [],
      "stateMutability": "nonpayable",
      "type": "function"
    },
    {
      "inputs": [
        {
          "internalType": "address",
          "name": "_address",
          "type": "address"
        }
      ],
      "name": "removeFromWhitelist",
      "outputs": [],
      "stateMutability": "nonpayable",
      "type": "function"
    },
    {
      "inputs": [
        {
          "internalType": "address",
          "name": "_tokenAddress",
          "type": "address"
        },
        {
          "internalType": "address",
          "name": "_to",
          "type": "address"
        }
      ],
      "name": "removeOtherERC20Tokens",
      "outputs": [],
      "stateMutability": "nonpayable",
      "type": "function"
    },
    {
      "inputs": [
        {
          "internalType": "bytes32",
          "name": "role",
          "type": "bytes32"
        },
        {
          "internalType": "address",
          "name": "account",
          "type": "address"
        }
      ],
      "name": "renounceRole",
      "outputs": [],
      "stateMutability": "nonpayable",
      "type": "function"
    },
    {
      "inputs": [
        {
          "internalType": "bytes32",
          "name": "role",
          "type": "bytes32"
        },
        {
          "internalType": "address",
          "name": "account",
          "type": "address"
        }
      ],
      "name": "revokeRole",
      "outputs": [],
      "stateMutability": "nonpayable",
      "type": "function"
    },
    {
      "inputs": [],
      "name": "safePullETH",
      "outputs": [],
      "stateMutability": "nonpayable",
      "type": "function"
    },
    {
      "inputs": [],
      "name": "safePullSaleToken",
      "outputs": [],
      "stateMutability": "nonpayable",
      "type": "function"
    },
    {
      "inputs": [],
      "name": "safePullTradeToken",
      "outputs": [],
      "stateMutability": "nonpayable",
      "type": "function"
    },
    {
      "inputs": [
        {
          "internalType": "uint256",
          "name": "_endDate",
          "type": "uint256"
        }
      ],
      "name": "setEndDate",
      "outputs": [],
      "stateMutability": "nonpayable",
      "type": "function"
    },
    {
      "inputs": [
        {
          "internalType": "bool",
          "name": "_hasWhitelisting",
          "type": "bool"
        }
      ],
      "name": "setHasWhitelisting",
      "outputs": [],
      "stateMutability": "nonpayable",
      "type": "function"
    },
    {
      "inputs": [
        {
          "internalType": "uint256",
          "name": "_individualMaximumAmount",
          "type": "uint256"
        }
      ],
      "name": "setIndividualMaximumAmount",
      "outputs": [],
      "stateMutability": "nonpayable",
      "type": "function"
    },
    {
      "inputs": [
        {
          "internalType": "address",
          "name": "_PolsStakeAddress",
          "type": "address"
        },
        {
          "internalType": "uint256",
          "name": "_PolsStakeAmount",
          "type": "uint256"
        },
        {
          "internalType": "uint256",
          "name": "_PolsStakeRewards",
          "type": "uint256"
        }
      ],
      "name": "setPolsStakingRequirement",
      "outputs": [],
      "stateMutability": "nonpayable",
      "type": "function"
    },
    {
      "inputs": [
        {
          "internalType": "address",
          "name": "_PolsTokenAddress",
          "type": "address"
        },
        {
          "internalType": "uint256",
          "name": "_PolsTokenAmount",
          "type": "uint256"
        }
      ],
      "name": "setPolsTokenRequirement",
      "outputs": [],
      "stateMutability": "nonpayable",
      "type": "function"
    },
    {
      "inputs": [
        {
          "internalType": "address",
          "name": "_PolsUniV2Address",
          "type": "address"
        },
        {
          "internalType": "uint256",
          "name": "_PolsUniV2Amount",
          "type": "uint256"
        }
      ],
      "name": "setPolsUniV2Requirement",
      "outputs": [],
      "stateMutability": "nonpayable",
      "type": "function"
    },
    {
      "inputs": [
        {
          "internalType": "address",
          "name": "_signerPublicAddress",
          "type": "address"
        }
      ],
      "name": "setSignerPublicAddress",
      "outputs": [],
      "stateMutability": "nonpayable",
      "type": "function"
    },
    {
      "inputs": [
        {
          "internalType": "address",
          "name": "_stakingRewardsAddress",
          "type": "address"
        }
      ],
      "name": "setStakingRewards",
      "outputs": [],
      "stateMutability": "nonpayable",
      "type": "function"
    },
    {
      "inputs": [
        {
          "internalType": "uint256",
          "name": "_startDate",
          "type": "uint256"
        }
      ],
      "name": "setStartDate",
      "outputs": [],
      "stateMutability": "nonpayable",
      "type": "function"
    },
    {
      "inputs": [
        {
          "internalType": "uint256",
          "name": "_vestingStart",
          "type": "uint256"
        },
        {
          "internalType": "uint256",
          "name": "_vestingCliff",
          "type": "uint256"
        },
        {
          "internalType": "uint256",
          "name": "_vestingDuration",
          "type": "uint256"
        },
        {
          "internalType": "uint256[]",
          "name": "_vestingSchedule",
          "type": "uint256[]"
        }
      ],
      "name": "setVesting",
      "outputs": [],
      "stateMutability": "nonpayable",
      "type": "function"
    },
    {
      "inputs": [],
      "name": "signerPublicAddress",
      "outputs": [
        {
          "internalType": "address",
          "name": "",
          "type": "address"
        }
      ],
      "stateMutability": "view",
      "type": "function"
    },
    {
      "inputs": [],
      "name": "stakingRewardsAddress",
      "outputs": [
        {
          "internalType": "address",
          "name": "",
          "type": "address"
        }
      ],
      "stateMutability": "view",
      "type": "function"
    },
    {
      "inputs": [],
      "name": "startDate",
      "outputs": [
        {
          "internalType": "uint256",
          "name": "",
          "type": "uint256"
        }
      ],
      "stateMutability": "view",
      "type": "function"
    },
    {
      "inputs": [
        {
          "internalType": "uint256",
          "name": "_amount",
          "type": "uint256"
        },
        {
          "internalType": "bytes",
          "name": "signature",
          "type": "bytes"
        }
      ],
      "name": "swap",
      "outputs": [],
      "stateMutability": "payable",
      "type": "function"
    },
    {
      "inputs": [],
      "name": "tokensAllocated",
      "outputs": [
        {
          "internalType": "uint256",
          "name": "",
          "type": "uint256"
        }
      ],
      "stateMutability": "view",
      "type": "function"
    },
    {
      "inputs": [],
      "name": "tokensForSale",
      "outputs": [
        {
          "internalType": "uint256",
          "name": "",
          "type": "uint256"
        }
      ],
      "stateMutability": "view",
      "type": "function"
    },
    {
      "inputs": [],
      "name": "tokensLeft",
      "outputs": [
        {
          "internalType": "uint256",
          "name": "",
          "type": "uint256"
        }
      ],
      "stateMutability": "view",
      "type": "function"
    },
    {
      "inputs": [],
      "name": "totalRaiseCost",
      "outputs": [
        {
          "internalType": "uint256",
          "name": "",
          "type": "uint256"
        }
      ],
      "stateMutability": "view",
      "type": "function"
    },
    {
      "inputs": [],
      "name": "tradeValue",
      "outputs": [
        {
          "internalType": "uint256",
          "name": "",
          "type": "uint256"
        }
      ],
      "stateMutability": "view",
      "type": "function"
    },
    {
      "inputs": [
        {
          "internalType": "uint256",
          "name": "purchase_id",
          "type": "uint256"
        },
        {
          "internalType": "bool",
          "name": "stake",
          "type": "bool"
        }
      ],
      "name": "transferTokens",
      "outputs": [],
      "stateMutability": "nonpayable",
      "type": "function"
    },
    {
      "inputs": [],
      "name": "unpause",
      "outputs": [],
      "stateMutability": "nonpayable",
      "type": "function"
    },
    {
      "inputs": [],
      "name": "unsoldTokensRedeemed",
      "outputs": [
        {
          "internalType": "bool",
          "name": "",
          "type": "bool"
        }
      ],
      "stateMutability": "view",
      "type": "function"
    },
    {
      "inputs": [],
      "name": "updateFundStatus",
      "outputs": [],
      "stateMutability": "nonpayable",
      "type": "function"
    },
    {
      "inputs": [],
      "name": "vestingCliff",
      "outputs": [
        {
          "internalType": "uint256",
          "name": "",
          "type": "uint256"
        }
      ],
      "stateMutability": "view",
      "type": "function"
    },
    {
      "inputs": [],
      "name": "vestingDuration",
      "outputs": [
        {
          "internalType": "uint256",
          "name": "",
          "type": "uint256"
        }
      ],
      "stateMutability": "view",
      "type": "function"
    },
    {
      "inputs": [
        {
          "internalType": "uint256",
          "name": "",
          "type": "uint256"
        }
      ],
      "name": "vestingSchedule",
      "outputs": [
        {
          "internalType": "uint256",
          "name": "",
          "type": "uint256"
        }
      ],
      "stateMutability": "view",
      "type": "function"
    },
    {
      "inputs": [],
      "name": "vestingStart",
      "outputs": [
        {
          "internalType": "uint256",
          "name": "",
          "type": "uint256"
        }
      ],
      "stateMutability": "view",
      "type": "function"
    },
    {
      "inputs": [],
      "name": "vestingTime",
      "outputs": [
        {
          "internalType": "uint256",
          "name": "",
          "type": "uint256"
        }
      ],
      "stateMutability": "view",
      "type": "function"
    },
    {
      "inputs": [],
      "name": "withdrawFunds",
      "outputs": [],
      "stateMutability": "nonpayable",
      "type": "function"
    },
    {
      "inputs": [],
      "name": "withdrawUnsoldTokens",
      "outputs": [],
      "stateMutability": "nonpayable",
      "type": "function"
    }
  ],
  "bytecode": "0x60806040526002805460ff60a01b191690553480156200001e57600080fd5b5060405162006de838038062006de883398181016040526102008110156200004557600080fd5b8101908080519060200190929190805190602001909291908051906020019092919080519060200190929190805190602001909291908051906020019092919080519060200190929190805190602001909291908051906020019092919080519060200190929190805190602001909291908051906020019092919080519060200190929190805190602001909291908051906020019092919080516040519392919084640100000000821115620000fc57600080fd5b9083019060208201858111156200011257600080fd5b82518660208202830111640100000000821117156200013057600080fd5b82525081516020918201928201910280838360005b838110156200015f57818101518382015260200162000145565b505050509190910160405250506000805460ff1916905550506002805460ff60a01b19168782161515600160a01b810291909117909155620001c27fb813b807c25079ba97f1770664c6a9e57c59afe74a6295f1ed01c10e3bb6baae336200050d565b50620001d06000336200050d565b8c421062000225576040805162461bcd60e51b815260206004820152601960248201527f7374617274206461746520697320696e20746865207061737400000000000000604482015290519081900360640190fd5b60008e116200026f576040805162461bcd60e51b81526020600482015260116024820152706e6f20746f6b656e20666f722073616c6560781b604482015290519081900360640190fd5b8a8e1015620002c5576040805162461bcd60e51b815260206004820152601e60248201527f746f6b656e73466f7253616c65203c20696e646976696475616c206d696e0000604482015290519081900360640190fd5b8d8811156200031b576040805162461bcd60e51b815260206004820152601c60248201527f6d696e696d756d5261697365203e20746f6b656e73466f7253616c6500000000604482015290519081900360640190fd5b606387111562000372576040805162461bcd60e51b815260206004820152601e60248201527f4665652050657263656e746167652068617320746f206265203c203130300000604482015290519081900360640190fd5b60088663ffffffff1610620003ce576040805162461bcd60e51b815260206004820152601560248201527f756e737570706f7274656420666c616773207365740000000000000000000000604482015290519081900360640190fd5b60168b9055620003de8a6200051d565b60148d9055620003ee8c620005c8565b601a8e905560138f9055600186161562000415576012805460ff1916600117905562000428565b60188890556200042884848484620006c7565b8f600f60006101000a8154816001600160a01b0302191690836001600160a01b0316021790555060006001600160a01b0316856001600160a01b0316146200048657601080546001600160a01b0319166001600160a01b0387161790555b6004861615620004f1576012805461ff001916610100179055620004c87383e6f1e41cdd28eaceb20cb649155049fac3d5aa68a2a15d09519be0000062000a6b565b620004f173ffa98a091331df4600f87c9164cd27e8a5cd24056801158e460913d0000062000adf565b5050506011939093555062000d8d9a5050505050505050505050565b62000519828262000b53565b5050565b6200052a60003362000bce565b6200056b576040805162461bcd60e51b8152602060048201526019602482015260008051602062006dc8833981519152604482015290519081900360640190fd5b601654811015620005c3576040805162461bcd60e51b815260206004820152601b60248201527f696e646976696475616c206d6178203c206d696e20616d6f756e740000000000604482015290519081900360640190fd5b601755565b620005d560003362000bce565b62000616576040805162461bcd60e51b8152602060048201526019602482015260008051602062006dc8833981519152604482015290519081900360640190fd5b8042106200066b576040805162461bcd60e51b815260206004820181905260248201527f656e6420646174652068617320746f20626520696e2074686520667574757265604482015290519081900360640190fd5b8060145410620006c2576040805162461bcd60e51b815260206004820152601a60248201527f656e642064617465206265666f72652073746172742064617465000000000000604482015290519081900360640190fd5b601555565b620006d460003362000bce565b62000715576040805162461bcd60e51b8152602060048201526019602482015260008051602062006dc8833981519152604482015290519081900360640190fd5b601b541580620007265750601b5442105b62000778576040805162461bcd60e51b815260206004820152601760248201527f76657374696e6720616c72656164792073746172746564000000000000000000604482015290519081900360640190fd5b6015548385011015620007d2576040805162461bcd60e51b815260206004820152601b60248201527f76657374696e67436c696666206265666f726520656e64446174650000000000604482015290519081900360640190fd5b8183111562000828576040805162461bcd60e51b815260206004820152601e60248201527f76657374696e67436c696666203e2076657374696e674475726174696f6e0000604482015290519081900360640190fd5b6312cff7806200087582516000146200085d57620008576001845162000bfd60201b620050c01790919060201c565b62000860565b60015b8462000c5860201b6200511a1790919060201c565b10620008c8576040805162461bcd60e51b815260206004820152601d60248201527f746f74616c2076657374696e672074696d65203e203130207965617273000000604482015290519081900360640190fd5b601b849055601c839055601d829055620008e5601e600062000d4f565b600181511062000a655760008211620009305760405162461bcd60e51b815260040180806020018281038252603481526020018062006d536034913960400191505060405180910390fd5b6000816000815181106200094057fe5b6020026020010151905064e8d4a510006064028110620009a7576040805162461bcd60e51b815260206004820152601c60248201527f66697273742076657374696e6720706572696f64203e3d203130302500000000604482015290519081900360640190fd5b601e80546001818101835560009290925260008051602062006d87833981519152018290555b825181101562000a625762000a20838281518110620009e857fe5b6020026020010151601e600184038154811062000a0157fe5b906000526020600020015462000bfd60201b620050c01790919060201c565b9150655af3107a4000821062000a365762000a62565b601e80546001818101835560009290925260008051602062006d878339815191520183905501620009cd565b50505b50505050565b62000a7860003362000bce565b62000ab9576040805162461bcd60e51b8152602060048201526019602482015260008051602062006dc8833981519152604482015290519081900360640190fd5b600880546001600160a01b0319166001600160a01b039390931692909217909155600955565b62000aec60003362000bce565b62000b2d576040805162461bcd60e51b8152602060048201526019602482015260008051602062006dc8833981519152604482015290519081900360640190fd5b600a80546001600160a01b0319166001600160a01b039390931692909217909155600b55565b600082815260016020908152604090912062000b7a9183906200517362000cb6821b17901c565b15620005195762000b8a62000ccd565b6001600160a01b0316816001600160a01b0316837f2f8788117e7eff1d82e926ec794901d17c78024a50270940304540a733656f0d60405160405180910390a45050565b6000828152600160209081526040822062000bf49184906200518862000cd1821b17901c565b90505b92915050565b60008282018381101562000bf4576040805162461bcd60e51b815260206004820152601b60248201527f536166654d6174683a206164646974696f6e206f766572666c6f770000000000604482015290519081900360640190fd5b60008262000c695750600062000bf7565b8282028284828162000c7757fe5b041462000bf45760405162461bcd60e51b815260040180806020018281038252602181526020018062006da76021913960400191505060405180910390fd5b600062000bf4836001600160a01b03841662000ce8565b3390565b600062000bf4836001600160a01b03841662000d37565b600062000cf6838362000d37565b62000d2e5750815460018181018455600084815260208082209093018490558454848252828601909352604090209190915562000bf7565b50600062000bf7565b60009081526001919091016020526040902054151590565b508054600082559060005260206000209081019062000d6f919062000d72565b50565b5b8082111562000d89576000815560010162000d73565b5090565b615fb68062000d9d6000396000f3fe60806040526004361061069d5760003560e01c80637f7b27121161035f578063bd0625ab116101d1578063e4101de511610102578063f267d48c116100a0578063f64bfaba1161007a578063f64bfaba14611aac578063fce9d11b14611ac1578063fe575a8714611ad6578063fecf415a14611b095761069d565b8063f267d48c14611a58578063f2aa821814611a6d578063f3640e7414611a975761069d565b8063e8b882f4116100dc578063e8b882f414611a04578063eb1edd6114611a19578063eee95be614611a2e578063efbb34d514611a435761069d565b8063e4101de514611904578063e43252d714611919578063e4a802521461194c5761069d565b8063ca15c8731161016f578063d47eb3d511610149578063d47eb3d5146117d5578063d547741f146117ea578063dbb57ac814611823578063dc91b072146118da5761069d565b8063ca15c8731461176c578063ca1d209d14611796578063d0a4a895146117c05761069d565b8063c24a0f8b116101ab578063c24a0f8b146116fa578063c3ca324f1461170f578063c7dab43614611742578063c8bdbfb6146117575761069d565b8063bd0625ab14611625578063bd0fcfd1146116d0578063bf135abe146116e55761069d565b806391d14854116102ab578063a6e158f811610249578063b31f8f9311610223578063b31f8f93146115b3578063b367940e146115c8578063b8691787146115dd578063ba40a96a146116105761069d565b8063a6e158f814611546578063a96c586514611570578063b0b12ac3146115855761069d565b80639d90a46e116102855780639d90a46e14611459578063a001ecdd14611507578063a1c09bf11461151c578063a217fddf146115315761069d565b806391d14854146113f6578063948384141461142f57806396a32bc4146114445761069d565b80638a1a5f3f116103185780639010d07c116102f25780639010d07c146113375780639097548d14611367578063917c854d14611391578063919bd930146113cc5761069d565b80638a1a5f3f146112da5780638ab1d681146112ef5780638e75b131146113225761069d565b80637f7b2712146111c557806382d95df5146111da5780638392fe31146112045780638456cb59146112775780638855ccaa1461128c57806388b0fe2b146112c55761069d565b80633784f000116105135780636295a2f41161044457806370a898bc116103e257806376807e5f116103bc57806376807e5f146110ce578063785e9e86146110e3578063788bff68146110f8578063799bb2321461110d5761069d565b806370a898bc1461108f57806374fa05fb146110a4578063755e3e28146110b95761069d565b806369bb4dc21161041e57806369bb4dc2146110065780636d0280271461101b5780636eaaabd5146110305780636fb83a571461105c5761069d565b80636295a2f414610e6f578063658f2dfe14610e8457806368673e7d14610f455761069d565b806344337ea1116104b157806347535d7b1161048b57806347535d7b14610dd9578063537df3b614610dee5780635ac699bb14610e215780635c975abb14610e5a5761069d565b806344337ea114610d7c57806344691f7e14610daf5780634588f68814610dc45761069d565b80633b6577c8116104ed5780633b6577c814610c445780633bbab17914610ced5780633f4ba83a14610d525780634089aa9a14610d675761069d565b80633784f00014610bd25780633abcb8e814610bfc5780633af32abf14610c115761069d565b806321710d27116105ed5780632e1541071161058b5780633070b98d116105655780633070b98d14610add57806331d06af314610b0f57806336568abe14610b245780633742a9f714610b5d5761069d565b80632e15410714610a7a5780632ebb5c1e14610a8f5780632f2ff15d14610aa45761069d565b8063248a9ca3116105c7578063248a9ca3146109de578063254800d414610a085780632593ea1714610a1d578063273e96e914610a475761069d565b806321710d271461098357806321d3002a146109b457806324600fc3146109c95761069d565b80631164d20c1161065a5780631514617e116106345780631514617e1461091a57806315b578661461092f578063161a7b2a146109445780631de18af7146109595761069d565b80631164d20c1461082f57806312aef8c3146108f057806313430f01146109055761069d565b80630274fa98146106a2578063044c0cc5146106e3578063076623451461070c57806308abd7ff146107215780630b97bc86146107cf5780630dfb6d74146107f6575b600080fd5b3480156106ae57600080fd5b506106e1600480360360608110156106c557600080fd5b506001600160a01b038135169060208101359060400135611b33565b005b3480156106ef57600080fd5b506106f8611ba6565b604080519115158252519081900360200190f35b34801561071857600080fd5b506106f8611bb7565b34801561072d57600080fd5b506106e16004803603602081101561074457600080fd5b810190602081018135600160201b81111561075e57600080fd5b82018360208201111561077057600080fd5b803590602001918460208302840111600160201b8311171561079157600080fd5b919080806020026020016040519081016040528093929190818152602001838360200280828437600092019190915250929550611bc7945050505050565b3480156107db57600080fd5b506107e4611ca5565b60408051918252519081900360200190f35b34801561080257600080fd5b506106e16004803603604081101561081957600080fd5b506001600160a01b038135169060200135611cab565b34801561083b57600080fd5b506106f86004803603604081101561085257600080fd5b6001600160a01b038235169190810190604081016020820135600160201b81111561087c57600080fd5b82018360208201111561088e57600080fd5b803590602001918460018302840111600160201b831117156108af57600080fd5b91908080601f016020809104026020016040519081016040528093929190818152602001838380828437600092019190915250929550611d1b945050505050565b3480156108fc57600080fd5b506107e4611d4c565b34801561091157600080fd5b506107e4611d52565b34801561092657600080fd5b506107e4611d58565b34801561093b57600080fd5b506106f8611d5e565b34801561095057600080fd5b506106f8611d66565b34801561096557600080fd5b506106e16004803603602081101561097c57600080fd5b5035611d75565b34801561098f57600080fd5b50610998612074565b604080516001600160a01b039092168252519081900360200190f35b3480156109c057600080fd5b506106f861208c565b3480156109d557600080fd5b506106e1612095565b3480156109ea57600080fd5b506107e460048036036020811015610a0157600080fd5b50356123c6565b348015610a1457600080fd5b506107e46123de565b348015610a2957600080fd5b506106f860048036036020811015610a4057600080fd5b50356123e4565b348015610a5357600080fd5b506106f860048036036020811015610a6a57600080fd5b50356001600160a01b03166123eb565b348015610a8657600080fd5b506107e4612664565b348015610a9b57600080fd5b506106f861266a565b348015610ab057600080fd5b506106e160048036036040811015610ac757600080fd5b50803590602001356001600160a01b0316612672565b348015610ae957600080fd5b506106e160048036036040811015610b0057600080fd5b508035906020013515156126da565b348015610b1b57600080fd5b50610998612a38565b348015610b3057600080fd5b506106e160048036036040811015610b4757600080fd5b50803590602001356001600160a01b0316612a47565b348015610b6957600080fd5b50610b8760048036036020811015610b8057600080fd5b5035612aa8565b604080519788526001600160a01b0390961660208801528686019490945265ffffffffffff909216606086015215156080850152151560a084015260c0830152519081900360e00190f35b348015610bde57600080fd5b506106e160048036036020811015610bf557600080fd5b5035612bbf565b348015610c0857600080fd5b506107e4612cb8565b348015610c1d57600080fd5b506106f860048036036020811015610c3457600080fd5b50356001600160a01b0316612cbe565b348015610c5057600080fd5b50610c6e60048036036020811015610c6757600080fd5b5035612ccb565b6040518083815260200180602001828103825283818151815260200191508051906020019080838360005b83811015610cb1578181015183820152602001610c99565b50505050905090810190601f168015610cde5780820380516001836020036101000a031916815260200191505b50935050505060405180910390f35b348015610cf957600080fd5b50610d02613102565b60408051602080825283518183015283519192839290830191858101910280838360005b83811015610d3e578181015183820152602001610d26565b505050509050019250505060405180910390f35b348015610d5e57600080fd5b506106e1613113565b348015610d7357600080fd5b506106f8613165565b348015610d8857600080fd5b506106e160048036036020811015610d9f57600080fd5b50356001600160a01b031661316e565b348015610dbb57600080fd5b506106f861320d565b348015610dd057600080fd5b50610998613216565b348015610de557600080fd5b506106f8613225565b348015610dfa57600080fd5b506106e160048036036020811015610e1157600080fd5b50356001600160a01b0316613244565b348015610e2d57600080fd5b506107e460048036036040811015610e4457600080fd5b506001600160a01b0381351690602001356132e2565b348015610e6657600080fd5b506106f8613313565b348015610e7b57600080fd5b506107e461331c565b348015610e9057600080fd5b506106e160048036036080811015610ea757600080fd5b81359160208101359160408201359190810190608081016060820135600160201b811115610ed457600080fd5b820183602082011115610ee657600080fd5b803590602001918460208302840111600160201b83111715610f0757600080fd5b919080806020026020016040519081016040528093929190818152602001838360200280828437600092019190915250929550613322945050505050565b348015610f5157600080fd5b506106f860048036036040811015610f6857600080fd5b6001600160a01b038235169190810190604081016020820135600160201b811115610f9257600080fd5b820183602082011115610fa457600080fd5b803590602001918460018302840111600160201b83111715610fc557600080fd5b91908080601f0160208091040260200160405190810160405280939291908181526020018383808284376000920191909152509295506136a8945050505050565b34801561101257600080fd5b506107e46136e7565b34801561102757600080fd5b50610d02613763565b34801561103c57600080fd5b506106e16004803603602081101561105357600080fd5b5035151561376f565b34801561106857600080fd5b506106e16004803603602081101561107f57600080fd5b50356001600160a01b0316613819565b34801561109b57600080fd5b506106f8613885565b3480156110b057600080fd5b506106f861388d565b3480156110c557600080fd5b506107e4613897565b3480156110da57600080fd5b506106e161389d565b3480156110ef57600080fd5b50610998613937565b34801561110457600080fd5b50610998613946565b34801561111957600080fd5b506109986004803603604081101561113057600080fd5b81359190810190604081016020820135600160201b81111561115157600080fd5b82018360208201111561116357600080fd5b803590602001918460018302840111600160201b8311171561118457600080fd5b91908080601f016020809104026020016040519081016040528093929190818152602001838380828437600092019190915250929550613955945050505050565b3480156111d157600080fd5b506107e46139c0565b3480156111e657600080fd5b506106e1600480360360208110156111fd57600080fd5b50356139c9565b34801561121057600080fd5b5061122e6004803603602081101561122757600080fd5b5035613aac565b604080516001600160a01b03909816885265ffffffffffff9096166020880152931515868601529115156060860152608085015260a084015260c0830152519081900360e00190f35b34801561128357600080fd5b506106e1613b13565b34801561129857600080fd5b506106e1600480360360408110156112af57600080fd5b506001600160a01b038135169060200135613b65565b3480156112d157600080fd5b506106e1613bd5565b3480156112e657600080fd5b506107e4613cff565b3480156112fb57600080fd5b506106e16004803603602081101561131257600080fd5b50356001600160a01b0316613d3a565b34801561132e57600080fd5b506107e4613dd8565b34801561134357600080fd5b506109986004803603604081101561135a57600080fd5b5080359060200135613dde565b34801561137357600080fd5b506107e46004803603602081101561138a57600080fd5b5035613df6565b34801561139d57600080fd5b506106e1600480360360408110156113b457600080fd5b506001600160a01b0381358116916020013516613e8c565b3480156113d857600080fd5b506107e4600480360360208110156113ef57600080fd5b503561407e565b34801561140257600080fd5b506106f86004803603604081101561141957600080fd5b50803590602001356001600160a01b031661409f565b34801561143b57600080fd5b506106f86140b7565b34801561145057600080fd5b506106e16140c7565b34801561146557600080fd5b506106e16004803603602081101561147c57600080fd5b810190602081018135600160201b81111561149657600080fd5b8201836020820111156114a857600080fd5b803590602001918460208302840111600160201b831117156114c957600080fd5b91908080602002602001604051908101604052809392919081815260200183836020028082843760009201919091525092955061418d945050505050565b34801561151357600080fd5b506107e461426a565b34801561152857600080fd5b506107e4614270565b34801561153d57600080fd5b506107e4614276565b34801561155257600080fd5b506106e16004803603602081101561156957600080fd5b503561427b565b34801561157c57600080fd5b506107e4614286565b34801561159157600080fd5b5061159a61428c565b6040805163ffffffff9092168252519081900360200190f35b3480156115bf57600080fd5b506107e4614293565b3480156115d457600080fd5b506106f861429d565b3480156115e957600080fd5b506106e16004803603602081101561160057600080fd5b50356001600160a01b03166142a8565b34801561161c57600080fd5b50610998614321565b6106e16004803603604081101561163b57600080fd5b81359190810190604081016020820135600160201b81111561165c57600080fd5b82018360208201111561166e57600080fd5b803590602001918460018302840111600160201b8311171561168f57600080fd5b91908080601f016020809104026020016040519081016040528093929190818152602001838380828437600092019190915250929550614330945050505050565b3480156116dc57600080fd5b506109986149d9565b3480156116f157600080fd5b506109986149f1565b34801561170657600080fd5b506107e4614a00565b34801561171b57600080fd5b50610d026004803603602081101561173257600080fd5b50356001600160a01b0316614a06565b34801561174e57600080fd5b506107e4614a72565b34801561176357600080fd5b506106e1614a8e565b34801561177857600080fd5b506107e46004803603602081101561178f57600080fd5b5035614b9d565b3480156117a257600080fd5b506106e1600480360360208110156117b957600080fd5b5035614bb4565b3480156117cc57600080fd5b506106f8614c95565b3480156117e157600080fd5b50610998614ca3565b3480156117f657600080fd5b506106e16004803603604081101561180d57600080fd5b50803590602001356001600160a01b0316614cb2565b34801561182f57600080fd5b5061184d6004803603602081101561184657600080fd5b5035614d0b565b6040518085815260200184815260200183815260200180602001828103825283818151815260200191508051906020019080838360005b8381101561189c578181015183820152602001611884565b50505050905090810190601f1680156118c95780820380516001836020036101000a031916815260200191505b509550505050505060405180910390f35b3480156118e657600080fd5b506106e1600480360360208110156118fd57600080fd5b5035614db8565b34801561191057600080fd5b506107e4614e5e565b34801561192557600080fd5b506106e16004803603602081101561193c57600080fd5b50356001600160a01b0316614e64565b34801561195857600080fd5b506106f86004803603604081101561196f57600080fd5b81359190810190604081016020820135600160201b81111561199057600080fd5b8201836020820111156119a257600080fd5b803590602001918460018302840111600160201b831117156119c357600080fd5b91908080601f016020809104026020016040519081016040528093929190818152602001838380828437600092019190915250929550614f02945050505050565b348015611a1057600080fd5b506107e4614f2c565b348015611a2557600080fd5b50610998614f3e565b348015611a3a57600080fd5b506106e1614f56565b348015611a4f57600080fd5b506107e4614fd2565b348015611a6457600080fd5b506107e4614fdf565b348015611a7957600080fd5b5061099860048036036020811015611a9057600080fd5b5035614fe5565b348015611aa357600080fd5b506107e461500f565b348015611ab857600080fd5b50610d02615015565b348015611acd57600080fd5b50610d02615077565b348015611ae257600080fd5b506106f860048036036020811015611af957600080fd5b50356001600160a01b0316615082565b348015611b1557600080fd5b506106f860048036036020811015611b2c57600080fd5b503561508f565b611b3e60003361409f565b611b7d576040805162461bcd60e51b81526020600482015260196024820152600080516020615f11833981519152604482015290519081900360640190fd5b600c80546001600160a01b0319166001600160a01b039490941693909317909255600d55600e55565b6010546001600160a01b0316155b90565b600254600160a01b900460ff1681565b611bdf600080516020615ec78339815191523361409f565b611c1e576040805162461bcd60e51b815260206004820152601c6024820152600080516020615df4833981519152604482015290519081900360640190fd5b6000805b8251811015611c6657611c52838281518110611c3a57fe5b6020026020010151600361517390919063ffffffff16565b15611c5e576001909101905b600101611c22565b508015611ca1576040805182815290517f448f3bd350ede14a294c062177c5280fe1eae125d16757da21f5f51d6e89daae9181900360200190a15b5050565b60145481565b611cb660003361409f565b611cf5576040805162461bcd60e51b81526020600482015260196024820152600080516020615f11833981519152604482015290519081900360640190fd5b600a80546001600160a01b0319166001600160a01b039390931692909217909155600b55565b6002546000906001600160a01b038085169116611d388285613955565b6001600160a01b0316149150505b92915050565b601a5481565b600d5481565b601d5481565b601854151590565b60125462010000900460ff1681565b611d7d613165565b611dc9576040805162461bcd60e51b81526020600482015260186024820152771cd85b19481a185cc81d1bc8189948199a5b985b1a5e995960421b604482015290519081900360640190fd5b60125460ff1615611e21576040805162461bcd60e51b815260206004820152601e60248201527f73616c652068617320746f206265206e6f6e2041746f6d696320737761700000604482015290519081900360640190fd5b611e2a8161508f565b611e72576040805162461bcd60e51b815260206004820152601460248201527330b2323932b9b99034b9903737ba10313abcb2b960611b604482015290519081900360640190fd5b611e7a611d5e565b611ecb576040805162461bcd60e51b815260206004820152601d60248201527f6e6f206d696e696d756d20726169736520686173206265656e20736574000000604482015290519081900360640190fd5b611ed361388d565b611f24576040805162461bcd60e51b815260206004820152601e60248201527f6d696e696d756d20726169736520686173206265656e20726561636865640000604482015290519081900360640190fd5b6000601f8281548110611f3357fe5b906000526020600020906004020190506000816001015411611f9c576040805162461bcd60e51b815260206004820152601760248201527f707572636861736520616d6f756e74206973207a65726f000000000000000000604482015290519081900360640190fd5b8054600160d01b900460ff1615611ff2576040805162461bcd60e51b81526020600482015260156024820152741c1d5c98da185cd9481a5cc8199a5b985b1a5e9959605a1b604482015290519081900360640190fd5b805460ff60d81b1960ff60d01b19909116600160d01b1716600160d81b17815561201a611ba6565b15612055576002810154604051339180156108fc02916000818181858888f1935050505015801561204f573d6000803e3d6000fd5b50611ca1565b6002810154601054611ca1916001600160a01b0390911690339061519d565b73ffa98a091331df4600f87c9164cd27e8a5cd240581565b60125460ff1681565b6120a060003361409f565b6120df576040805162461bcd60e51b81526020600482015260196024820152600080516020615f11833981519152604482015290519081900360640190fd5b6120e7613313565b1561212c576040805162461bcd60e51b815260206004820152601060248201526f14185d5cd8589b194e881c185d5cd95960821b604482015290519081900360640190fd5b612134613165565b612180576040805162461bcd60e51b81526020600482015260186024820152771cd85b19481a185cc81d1bc8189948199a5b985b1a5e995960421b604482015290519081900360640190fd5b61218861429d565b6121d5576040805162461bcd60e51b81526020600482015260196024820152781b5a5b9a5b5d5b481c985a5cd9481b9bdd081c995858da1959603a1b604482015290519081900360640190fd5b6121dd611ba6565b1561227e5773aeb39b67f27b641ef9f95fb74f1a46b1ee4efc836001600160a01b03166108fc612223606461221d6011544761511a90919063ffffffff16565b906151f4565b6040518115909202916000818181858888f1935050505015801561224b573d6000803e3d6000fd5b5060405133904780156108fc02916000818181858888f19350505050158015612278573d6000803e3d6000fd5b506123c4565b601154601054604080516370a0823160e01b815230600482015290516123349373aeb39b67f27b641ef9f95fb74f1a46b1ee4efc83936123219360649361221d93926001600160a01b0316916370a08231916024808301926020929190829003018186803b1580156122ef57600080fd5b505afa158015612303573d6000803e3d6000fd5b505050506040513d602081101561231957600080fd5b50519061511a565b6010546001600160a01b0316919061519d565b601054604080516370a0823160e01b815230600482015290516123c49233926001600160a01b03909116916370a0823191602480820192602092909190829003018186803b15801561238557600080fd5b505afa158015612399573d6000803e3d6000fd5b505050506040513d60208110156123af57600080fd5b50516010546001600160a01b0316919061519d565b565b6000818152600160205260409020600201545b919050565b601b5481565b601f541190565b601254600090610100900460ff16612405575060016123d9565b600c546001600160a01b03161561252857600d54600c54604080516370a0823160e01b81526001600160a01b038681166004830152915191909216916370a08231916024808301926020929190829003018186803b15801561246657600080fd5b505afa15801561247a573d6000803e3d6000fd5b505050506040513d602081101561249057600080fd5b50511061249f575060016123d9565b600e54600c546040805163f6a3f3cf60e01b81526001600160a01b0386811660048301529151919092169163f6a3f3cf916024808301926020929190829003018186803b1580156124ef57600080fd5b505afa158015612503573d6000803e3d6000fd5b505050506040513d602081101561251957600080fd5b505110612528575060016123d9565b600a546001600160a01b0316156125c257600b54600a54604080516370a0823160e01b81526001600160a01b038681166004830152915191909216916370a08231916024808301926020929190829003018186803b15801561258957600080fd5b505afa15801561259d573d6000803e3d6000fd5b505050506040513d60208110156125b357600080fd5b5051106125c2575060016123d9565b6008546001600160a01b03161561265c57600954600854604080516370a0823160e01b81526001600160a01b038681166004830152915191909216916370a08231916024808301926020929190829003018186803b15801561262357600080fd5b505afa158015612637573d6000803e3d6000fd5b505050506040513d602081101561264d57600080fd5b50511061265c575060016123d9565b506000919050565b60165481565b601454421090565b6000828152600160205260409020600201546126959061269061525b565b61409f565b6126d05760405162461bcd60e51b815260040180806020018281038252602f815260200180615cf7602f913960400191505060405180910390fd5b611ca1828261525f565b6126e38261508f565b61272b576040805162461bcd60e51b815260206004820152601460248201527320b2323932b9b99034b9903737ba10313abcb2b960611b604482015290519081900360640190fd5b60008061273784612ccb565b915091506000821181906127c95760405162461bcd60e51b81526004018080602001828103825283818151815260200191508051906020019080838360005b8381101561278e578181015183820152602001612776565b50505050905090810190601f1680156127bb5780820380516001836020036101000a031916815260200191505b509250505060405180910390fd5b506000601f85815481106127d957fe5b90600052602060002090600402016001015490506000601f86815481106127fc57fe5b90600052602060002090600402016003015490508161282485836150c090919063ffffffff16565b11156128615760405162461bcd60e51b8152600401808060200182810382526044815260200180615e576044913960600191505060405180910390fd5b8161286c82866150c0565b14156128ac576001601f878154811061288157fe5b600091825260209091206004909102018054911515600160d01b0260ff60d01b199092169190911790555b6128b681856150c0565b601f87815481106128c357fe5b6000918252602090912060036004909202010155846128f857600f546128f3906001600160a01b0316338661519d565b612a30565b6007546001600160a01b031661293f5760405162461bcd60e51b8152600401808060200182810382526021815260200180615f316021913960400191505060405180910390fd5b600f546007546040805163095ea7b360e01b81526001600160a01b039283166004820152602481018890529051919092169163095ea7b39160448083019260209291908290030181600087803b15801561299857600080fd5b505af11580156129ac573d6000803e3d6000fd5b505050506040513d60208110156129c257600080fd5b505060075460408051638b1e31c760e01b81526004810187905233602482015290516001600160a01b0390921691638b1e31c79160448082019260009290919082900301818387803b158015612a1757600080fd5b505af1158015612a2b573d6000803e3d6000fd5b505050505b505050505050565b600c546001600160a01b031681565b612a4f61525b565b6001600160a01b0316816001600160a01b031614612a9e5760405162461bcd60e51b815260040180806020018281038252602f815260200180615f52602f913960400191505060405180910390fd5b611ca182826152c8565b6000806000806000806000612abc886123e4565b612b0a576040805162461bcd60e51b815260206004820152601a6024820152791c1d5c98da185cd957da5908191bd95cc81b9bdd08195e1a5cdd60321b604482015290519081900360640190fd5b6000601f8981548110612b1957fe5b60009182526020918290206040805160e08101825260049390930290910180546001600160a01b03811680855265ffffffffffff600160a01b83041695850186905260ff600160d01b830481161515948601859052600160d81b909204909116151560608501819052600183015460808601819052600284015460a0870181905260039094015460c09096018690529f919e50919c50939a509098509650945092505050565b612bca60003361409f565b612c09576040805162461bcd60e51b81526020600482015260196024820152600080516020615f11833981519152604482015290519081900360640190fd5b804210612c5d576040805162461bcd60e51b815260206004820181905260248201527f656e6420646174652068617320746f20626520696e2074686520667574757265604482015290519081900360640190fd5b8060145410612cb3576040805162461bcd60e51b815260206004820152601a60248201527f656e642064617465206265666f72652073746172742064617465000000000000604482015290519081900360640190fd5b601555565b600b5481565b6000611d46600383615188565b60006060612cd8836123e4565b612d1757505060408051808201909152601a8152791c1d5c98da185cd957da5908191bd95cc81b9bdd08195e1a5cdd60321b60208201526000906130fd565b60125460ff1615612d6057505060408051808201909152601981527f68617320746f206265206e6f6e2041746f6d696320737761700000000000000060208201526000906130fd565b612d68613165565b612daa57505060408051808201909152601881527f746f6b656e2073616c65206e6f742066696e616c697a6564000000000000000060208201526000906130fd565b612db2613313565b15612df557505060408051808201909152601d81527f746f6b656e2073616c6520636f6e74726163742069732070617573656400000060208201526000906130fd565b612dfd61388d565b15612e3c5750506040805180820190915260198152781b5a5b9a5b5d5b481c985a5cd9481b9bdd081c995858da1959603a1b60208201526000906130fd565b6000601f8481548110612e4b57fe5b90600052602060002090600402016001015490506000601f8581548110612e6e57fe5b9060005260206000209060040201600301549050818110612ecc5760006040518060400160405280601a81526020017f616c6c20746f6b656e20616c72656164792072656465656d65640000000000008152509350935050506130fd565b601b54421015612f195760006040518060400160405280601e81526020017f76657374696e6720706572696f64206e6f7420796574207374617274656400008152509350935050506130fd565b601c54601b54612f28916150c0565b421015612f725760006040518060400160405280601d81526020017f76657374696e6720636c696666206e6f742079657420726561636865640000008152509350935050506130fd565b601e54600090612fd95742612f94601d54601b546150c090919063ffffffff16565b11612faa57612fa38383615331565b9050612fd4565b612fd182612fcb601d5461221d601b5442038861511a90919063ffffffff16565b90615331565b90505b613092565b6000601d54601b54420381612fea57fe5b601e5491900491508110613009576130028484615331565b9150613090565b600061304164e8d4a5100060640261221d601e858154811061302757fe5b90600052602060002001548861511a90919063ffffffff16565b9050838110156130825760405162461bcd60e51b815260040180806020018281038252602c815260200180615e9b602c913960400191505060405180910390fd5b61308c8185615331565b9250505b505b80156130cd57806040518060400160405280600f81526020016e726561647920746f2072656465656d60881b815250945094505050506130fd565b6040805180820190915260118152706e6f7468696e6720746f2072656465656d60781b6020820152909450925050505b915091565b606061310e600561538e565b905090565b61311e60003361409f565b61315d576040805162461bcd60e51b81526020600482015260196024820152600080516020615f11833981519152604482015290519081900360640190fd5b6123c461542e565b60155442101590565b613186600080516020615ec78339815191523361409f565b6131c5576040805162461bcd60e51b815260206004820152601c6024820152600080516020615df4833981519152604482015290519081900360640190fd5b6131d0600582615173565b1561320a576040516001600160a01b038216907ff9b68063b051b82957fa193585681240904fed808db8b30fc5a2d2202c6ed62790600090a25b50565b60145442101590565b600a546001600160a01b031681565b600061322f61320d565b801561310e575061323e613165565b15905090565b61325c600080516020615ec78339815191523361409f565b61329b576040805162461bcd60e51b815260206004820152601c6024820152600080516020615df4833981519152604482015290519081900360640190fd5b6132a66005826154ce565b1561320a576040516001600160a01b038216907f2b6bf71b58b3583add364b3d9060ebf8019650f65f5be35f5464b9cb3e4ba2d490600090a250565b602160205281600052604060002081815481106132fe57600080fd5b90600052602060002001600091509150505481565b60005460ff1690565b60135481565b61332d60003361409f565b61336c576040805162461bcd60e51b81526020600482015260196024820152600080516020615f11833981519152604482015290519081900360640190fd5b601b54158061337c5750601b5442105b6133cd576040805162461bcd60e51b815260206004820152601760248201527f76657374696e6720616c72656164792073746172746564000000000000000000604482015290519081900360640190fd5b6015548385011015613426576040805162461bcd60e51b815260206004820152601b60248201527f76657374696e67436c696666206265666f726520656e64446174650000000000604482015290519081900360640190fd5b8183111561347b576040805162461bcd60e51b815260206004820152601e60248201527f76657374696e67436c696666203e2076657374696e674475726174696f6e0000604482015290519081900360640190fd5b6312cff7806134a8825160001461349e5782516134999060016150c0565b6134a1565b60015b849061511a565b106134fa576040805162461bcd60e51b815260206004820152601d60248201527f746f74616c2076657374696e672074696d65203e203130207965617273000000604482015290519081900360640190fd5b601b849055601c839055601d829055613515601e6000615ca6565b60018151106136a2576000821161355d5760405162461bcd60e51b8152600401808060200182810382526034815260200180615d266034913960400191505060405180910390fd5b60008160008151811061356c57fe5b6020026020010151905064e8d4a5100060640281106135d2576040805162461bcd60e51b815260206004820152601c60248201527f66697273742076657374696e6720706572696f64203e3d203130302500000000604482015290519081900360640190fd5b601e8054600181810183556000929092527f50bb669a95c7b50b7e8a6f09454034b2b14cf2b85c730dca9a539ca82cb6e350018290555b8251811015612a305761365283828151811061362157fe5b6020026020010151601e600184038154811061363957fe5b90600052602060002001546150c090919063ffffffff16565b9150655af3107a4000821061366657612a30565b601e8054600181810183556000929092527f50bb669a95c7b50b7e8a6f09454034b2b14cf2b85c730dca9a539ca82cb6e3500183905501613609565b50505050565b60006136b383615082565b156136c057506000611d46565b6136c983612cbe565b156136d657506001611d46565b6136e08383611d1b565b9392505050565b600f54604080516370a0823160e01b815230600482015290516000926001600160a01b0316916370a08231916024808301926020929190829003018186803b15801561373257600080fd5b505afa158015613746573d6000803e3d6000fd5b505050506040513d602081101561375c57600080fd5b5051905090565b606061310e600361538e565b613787600080516020615ec78339815191523361409f565b6137c6576040805162461bcd60e51b815260206004820152601c6024820152600080516020615df4833981519152604482015290519081900360640190fd5b60028054821515600160a01b810260ff60a01b199092169190911790915560408051918252517fe905f7f52156c346547b9deb6fb3e2459db941ec55d073fd465129bf4b49fae69181900360200190a150565b61382460003361409f565b613863576040805162461bcd60e51b81526020600482015260196024820152600080516020615f11833981519152604482015290519081900360640190fd5b600780546001600160a01b0319166001600160a01b0392909216919091179055565b601654151590565b6018546019541090565b60195481565b6138a860003361409f565b6138e7576040805162461bcd60e51b81526020600482015260196024820152600080516020615f11833981519152604482015290519081900360640190fd5b6138ef613313565b612334576040805162461bcd60e51b815260206004820152601460248201527314185d5cd8589b194e881b9bdd081c185d5cd95960621b604482015290519081900360640190fd5b600f546001600160a01b031681565b6007546001600160a01b031681565b600081516041146139ad576040805162461bcd60e51b815260206004820152601960248201527f7369676e6174757265206973206e6f7420363520627974657300000000000000604482015290519081900360640190fd5b6136e0826139ba856154e3565b90615534565b64e8d4a5100081565b6139d460003361409f565b613a13576040805162461bcd60e51b81526020600482015260196024820152600080516020615f11833981519152604482015290519081900360640190fd5b804210613a515760405162461bcd60e51b8152600401808060200182810382526022815260200180615d5a6022913960400191505060405180910390fd5b6015548110613aa7576040805162461bcd60e51b815260206004820152601a60248201527f656e642064617465206265666f72652073746172742064617465000000000000604482015290519081900360640190fd5b601455565b601f8181548110613abc57600080fd5b600091825260209091206004909102018054600182015460028301546003909301546001600160a01b038316945065ffffffffffff600160a01b8404169360ff600160d01b8504811694600160d81b900416929187565b613b1e60003361409f565b613b5d576040805162461bcd60e51b81526020600482015260196024820152600080516020615f11833981519152604482015290519081900360640190fd5b6123c46155b4565b613b7060003361409f565b613baf576040805162461bcd60e51b81526020600482015260196024820152600080516020615f11833981519152604482015290519081900360640190fd5b600880546001600160a01b0319166001600160a01b039390931692909217909155600955565b613be060003361409f565b613c1f576040805162461bcd60e51b81526020600482015260196024820152600080516020615f11833981519152604482015290519081900360640190fd5b613c27613313565b613c6f576040805162461bcd60e51b815260206004820152601460248201527314185d5cd8589b194e881b9bdd081c185d5cd95960621b604482015290519081900360640190fd5b600f54604080516370a0823160e01b815230600482015290516123c49233926001600160a01b03909116916370a0823191602480820192602092909190829003018186803b158015613cc057600080fd5b505afa158015613cd4573d6000803e3d6000fd5b505050506040513d6020811015613cea57600080fd5b5051600f546001600160a01b0316919061519d565b6000601b54421015613d1357506000611bb4565b601d54613d2257506001611bb4565b601d54601b54420381613d3157fe5b04600101905090565b613d52600080516020615ec78339815191523361409f565b613d91576040805162461bcd60e51b815260206004820152601c6024820152600080516020615df4833981519152604482015290519081900360640190fd5b613d9c6003826154ce565b1561320a576040516001600160a01b038216907fcdd2e9b91a56913d370075169cefa1602ba36be5301664f752192bb1709df75790600090a250565b60185481565b60008281526001602052604081206136e09083615637565b6000611d46600f60009054906101000a90046001600160a01b03166001600160a01b031663313ce5676040518163ffffffff1660e01b815260040160206040518083038186803b158015613e4957600080fd5b505afa158015613e5d573d6000803e3d6000fd5b505050506040513d6020811015613e7357600080fd5b505160135460ff909116600a0a9061221d90859061511a565b613e9760003361409f565b613ed6576040805162461bcd60e51b81526020600482015260196024820152600080516020615f11833981519152604482015290519081900360640190fd5b613ede613165565b613f2a576040805162461bcd60e51b81526020600482015260186024820152771cd85b19481a185cc81d1bc8189948199a5b985b1a5e995960421b604482015290519081900360640190fd5b600f546001600160a01b0383811691161415613f8d576040805162461bcd60e51b815260206004820152601b60248201527f746f6b656e2069732074686520746f6b656e20666f722073616c650000000000604482015290519081900360640190fd5b6010546001600160a01b0383811691161415613ff0576040805162461bcd60e51b815260206004820152601b60248201527f746f6b656e206973207468652074726164652d696e20746f6b656e0000000000604482015290519081900360640190fd5b611ca181836001600160a01b03166370a08231306040518263ffffffff1660e01b815260040180826001600160a01b0316815260200191505060206040518083038186803b15801561404157600080fd5b505afa158015614055573d6000803e3d6000fd5b505050506040513d602081101561406b57600080fd5b50516001600160a01b038516919061519d565b601e818154811061408e57600080fd5b600091825260209091200154905081565b60008281526001602052604081206136e09083615188565b6012546301000000900460ff1681565b6140d260003361409f565b614111576040805162461bcd60e51b81526020600482015260196024820152600080516020615f11833981519152604482015290519081900360640190fd5b614119613313565b614161576040805162461bcd60e51b815260206004820152601460248201527314185d5cd8589b194e881b9bdd081c185d5cd95960621b604482015290519081900360640190fd5b60405133904780156108fc02916000818181858888f1935050505015801561320a573d6000803e3d6000fd5b6141a5600080516020615ec78339815191523361409f565b6141e4576040805162461bcd60e51b815260206004820152601c6024820152600080516020615df4833981519152604482015290519081900360640190fd5b6000805b825181101561422c5761421883828151811061420057fe5b6020026020010151600561517390919063ffffffff16565b15614224576001909101905b6001016141e8565b508015611ca1576040805182815290517fc2f03ca34d335e49d4d629b85db054d1ffb679b4fec2e06fe10d0e618b175ecb9181900360200190a15050565b60115481565b601f5490565b600081565b61320a8160006126da565b60095481565b622f4d6090565b601954601a540390565b601854601954101590565b6142c0600080516020615ec78339815191523361409f565b6142ff576040805162461bcd60e51b815260206004820152601c6024820152600080516020615df4833981519152604482015290519081900360640190fd5b600280546001600160a01b0319166001600160a01b0392909216919091179055565b6002546001600160a01b031681565b614338613313565b1561437d576040805162461bcd60e51b815260206004820152601060248201526f14185d5cd8589b194e881c185d5cd95960821b604482015290519081900360640190fd5b60125462010000900460ff166143da576040805162461bcd60e51b815260206004820152601860248201527f746f6b656e2073616c65206973206e6f742066756e6465640000000000000000604482015290519081900360640190fd5b6143e2613225565b614429576040805162461bcd60e51b815260206004820152601360248201527239b0b632903430b9903a379031329037b832b760691b604482015290519081900360640190fd5b6002548190600160a01b900460ff16156144fa576002546001600160a01b03166144ac5761445633612cbe565b6144a7576040805162461bcd60e51b815260206004820152601960248201527f6e6f74206f6e206f6e2d636861696e2077686974656c69737400000000000000604482015290519081900360640190fd5b6144fa565b6144b633826136a8565b6144fa576040805162461bcd60e51b815260206004820152601060248201526f1b9bdd081bdb881dda1a5d195b1a5cdd60821b604482015290519081900360640190fd5b6000614505336123eb565b614556576040805162461bcd60e51b815260206004820181905260248201527f61646472657373206e6f742077686974656c697374656420666f7220504f4c53604482015290519081900360640190fd5b61455e611ba6565b156145bd57503461456e84613df6565b8110156145b8576040805162461bcd60e51b81526020600482015260136024820152721b9bdd08195b9bdd59da08115512081cd95b9d606a1b604482015290519081900360640190fd5b6145e1565b6145c684613df6565b6010549091506145e1906001600160a01b0316333084615643565b6145e9614293565b84111561463d576040805162461bcd60e51b815260206004820152601960248201527f616d6f756e74203e20746f6b656e7320617661696c61626c6500000000000000604482015290519081900360640190fd5b601654841015614694576040805162461bcd60e51b815260206004820152601760248201527f616d6f756e74203c206d696e696d756d20616d6f756e74000000000000000000604482015290519081900360640190fd5b6017548411156146eb576040805162461bcd60e51b815260206004820152601760248201527f616d6f756e74203e206d6178696d756d20616d6f756e74000000000000000000604482015290519081900360640190fd5b3360009081526021602090815260408083208054825181850281018501909352808352919290919083018282801561474257602002820191906000526020600020905b81548152602001906001019080831161472e575b505050505090506000805b82518110156147a45761479a601f84838151811061476757fe5b60200260200101518154811061477957fe5b906000526020600020906004020160010154836150c090919063ffffffff16565b915060010161474d565b506017546147b282886150c0565b1115614805576040805162461bcd60e51b815260206004820152601f60248201527f616d6f756e7420676f6573206f76657220696e646976696475616c206d617800604482015290519081900360640190fd5b60125460ff161561482757600f54614827906001600160a01b0316338861519d565b601f6040518060e00160405280336001600160a01b0316815260200161484c4261569d565b65ffffffffffff908116825260125460ff1615156020808401919091526000604080850182905260608086018e905260808087018c905260a0968701849052885460018181018b55998552858520895160049092020180548a8801518b870151958c01511515600160d81b0260ff60d81b19961515600160d01b0260ff60d01b1992909b16600160a01b0265ffffffffffff60a01b196001600160a01b039096166001600160a01b03199485161795909516949094171698909817939093161782558701518189015594860151600286015560c0909501516003909401939093553380845260218252938320601f548154808801835591855282852060001991909101910155805494850181559091527fc97bfaf2f8ee708c303a06d134f5ecd8389ae0432af62dc132a24118292866bb909201805490921617905560195461499590876150c0565b60195560408051878152426020820152815133927fbec109f7ee137de661c6887caa96653c0545050a9908a3b6eb5190440bbec864928290030190a2505050505050565b7383e6f1e41cdd28eaceb20cb649155049fac3d5aa81565b6010546001600160a01b031681565b60155481565b6001600160a01b038116600090815260216020908152604091829020805483518184028101840190945280845260609392830182828015614a6657602002820191906000526020600020905b815481526020019060010190808311614a52575b50505050509050919050565b601e54600090614a8457506000611bb4565b50601e5460010190565b614a9960003361409f565b614ad8576040805162461bcd60e51b81526020600482015260196024820152600080516020615f11833981519152604482015290519081900360640190fd5b614ae0613165565b614b2c576040805162461bcd60e51b81526020600482015260186024820152771cd85b19481a185cc81d1bc8189948199a5b985b1a5e995960421b604482015290519081900360640190fd5b6012546301000000900460ff1615614b4357600080fd5b6000614b4d61388d565b15614b5b5750601a54614b6d565b601954601a54614b6a91615331565b90505b801561320a576012805463ff00000019166301000000179055600f5461320a906001600160a01b0316338361519d565b6000818152600160205260408120611d46906156fe565b614bbc61266a565b614c0d576040805162461bcd60e51b815260206004820152601a60248201527f6e6f74206265666f72652073746172742074696d652f64617465000000000000604482015290519081900360640190fd5b601a54614c2282614c1c6136e7565b906150c0565b1115614c75576040805162461bcd60e51b815260206004820181905260248201527f6d6f726520746f6b656e73207468616e206e656564656420666f722073616c65604482015290519081900360640190fd5b600f54614c8d906001600160a01b0316333084615643565b61320a614f56565b601254610100900460ff1681565b6008546001600160a01b031681565b600082815260016020526040902060020154614cd09061269061525b565b612a9e5760405162461bcd60e51b8152600401808060200182810382526030815260200180615dc46030913960400191505060405180910390fd5b60008060006060614d1b856123e4565b614d6057505060408051808201909152601a8152791c1d5c98da185cd957da5908191bd95cc81b9bdd08195e1a5cdd60321b6020820152600092508291508190614db1565b601f8581548110614d6d57fe5b9060005260206000209060040201600101549350601f8581548110614d8e57fe5b9060005260206000209060040201600301549250614dab85612ccb565b90925090505b9193509193565b614dc360003361409f565b614e02576040805162461bcd60e51b81526020600482015260196024820152600080516020615f11833981519152604482015290519081900360640190fd5b601654811015614e59576040805162461bcd60e51b815260206004820152601b60248201527f696e646976696475616c206d6178203c206d696e20616d6f756e740000000000604482015290519081900360640190fd5b601755565b60175481565b614e7c600080516020615ec78339815191523361409f565b614ebb576040805162461bcd60e51b815260206004820152601c6024820152600080516020615df4833981519152604482015290519081900360640190fd5b614ec6600382615173565b1561320a576040516001600160a01b038216907fa850ae9193f515cbae8d35e8925bd2be26627fc91bce650b8652ed254e9cab0390600090a250565b6002546000906001600160a01b0316614f1b8484613955565b6001600160a01b0316149392505050565b600080516020615ec783398151915281565b73aeb39b67f27b641ef9f95fb74f1a46b1ee4efc8381565b614f5e61266a565b614faf576040805162461bcd60e51b815260206004820152601a60248201527f6e6f74206265666f72652073746172742074696d652f64617465000000000000604482015290519081900360640190fd5b601a54614fba6136e7565b106123c4576012805462ff0000191662010000179055565b600061310e601a54613df6565b600e5481565b60208181548110614ff557600080fd5b6000918252602090912001546001600160a01b0316905081565b601c5481565b6060602080548060200260200160405190810160405280929190818152602001828054801561506d57602002820191906000526020600020905b81546001600160a01b0316815260019091019060200180831161504f575b5050505050905090565b606061310e33614a06565b6000611d46600583615188565b6000601f828154811061509e57fe5b60009182526020909120600490910201546001600160a01b0316331492915050565b6000828201838110156136e0576040805162461bcd60e51b815260206004820152601b60248201527f536166654d6174683a206164646974696f6e206f766572666c6f770000000000604482015290519081900360640190fd5b60008261512957506000611d46565b8282028284828161513657fe5b04146136e05760405162461bcd60e51b8152600401808060200182810382526021815260200180615e366021913960400191505060405180910390fd5b60006136e0836001600160a01b038416615709565b60006136e0836001600160a01b038416615753565b604080516001600160a01b038416602482015260448082018490528251808303909101815260649091019091526020810180516001600160e01b031663a9059cbb60e01b1790526151ef90849061576b565b505050565b600080821161524a576040805162461bcd60e51b815260206004820152601a60248201527f536166654d6174683a206469766973696f6e206279207a65726f000000000000604482015290519081900360640190fd5b81838161525357fe5b049392505050565b3390565b60008281526001602052604090206152779082615173565b15611ca15761528461525b565b6001600160a01b0316816001600160a01b0316837f2f8788117e7eff1d82e926ec794901d17c78024a50270940304540a733656f0d60405160405180910390a45050565b60008281526001602052604090206152e090826154ce565b15611ca1576152ed61525b565b6001600160a01b0316816001600160a01b0316837ff6391f5c32d9c69d2a47ea670b442974b53935d1edc7fd64eb21e047a839171b60405160405180910390a45050565b600082821115615388576040805162461bcd60e51b815260206004820152601e60248201527f536166654d6174683a207375627472616374696f6e206f766572666c6f770000604482015290519081900360640190fd5b50900390565b6060600061539b836156fe565b67ffffffffffffffff811180156153b157600080fd5b506040519080825280602002602001820160405280156153db578160200160208202803683370190505b50905060005b6153ea846156fe565b811015615427576153fb8482615637565b82828151811061540757fe5b6001600160a01b03909216602092830291909101909101526001016153e1565b5092915050565b615436613313565b61547e576040805162461bcd60e51b815260206004820152601460248201527314185d5cd8589b194e881b9bdd081c185d5cd95960621b604482015290519081900360640190fd5b6000805460ff191690557f5db9ee0a495bf2e6ff9c91a7834c1ba4fdd244a5e8aa4e537bd38aeae4b073aa6154b161525b565b604080516001600160a01b039092168252519081900360200190a1565b60006136e0836001600160a01b03841661581c565b604080517f19457468657265756d205369676e6564204d6573736167653a0a333200000000602080830191909152603c8083019490945282518083039094018452605c909101909152815191012090565b6000815160411461558c576040805162461bcd60e51b815260206004820152601f60248201527f45434453413a20696e76616c6964207369676e6174757265206c656e67746800604482015290519081900360640190fd5b60208201516040830151606084015160001a6155aa868285856158e2565b9695505050505050565b6155bc613313565b15615601576040805162461bcd60e51b815260206004820152601060248201526f14185d5cd8589b194e881c185d5cd95960821b604482015290519081900360640190fd5b6000805460ff191660011790557f62e78cea01bee320cd4e420270b5ea74000d11b0c9f74754ebdbfc544b05a2586154b161525b565b60006136e08383615a60565b604080516001600160a01b0380861660248301528416604482015260648082018490528251808303909101815260849091019091526020810180516001600160e01b03166323b872dd60e01b1790526136a290859061576b565b6000660100000000000082106156fa576040805162461bcd60e51b815260206004820152601c60248201527f76616c756520646f65736e27742066697420696e203438206269747300000000604482015290519081900360640190fd5b5090565b6000611d4682615ac4565b60006157158383615753565b61574b57508154600181810184556000848152602080822090930184905584548482528286019093526040902091909155611d46565b506000611d46565b60009081526001919091016020526040902054151590565b60006157c0826040518060400160405280602081526020017f5361666545524332303a206c6f772d6c6576656c2063616c6c206661696c6564815250856001600160a01b0316615ac89092919063ffffffff16565b8051909150156151ef578080602001905160208110156157df57600080fd5b50516151ef5760405162461bcd60e51b815260040180806020018281038252602a815260200180615ee7602a913960400191505060405180910390fd5b600081815260018301602052604081205480156158d8578354600019808301919081019060009087908390811061584f57fe5b906000526020600020015490508087600001848154811061586c57fe5b60009182526020808320909101929092558281526001898101909252604090209084019055865487908061589c57fe5b60019003818190600052602060002001600090559055866001016000878152602001908152602001600020600090556001945050505050611d46565b6000915050611d46565b60007f7fffffffffffffffffffffffffffffff5d576e7357a4501ddfe92f46681b20a08211156159435760405162461bcd60e51b8152600401808060200182810382526022815260200180615d7c6022913960400191505060405180910390fd5b8360ff16601b148061595857508360ff16601c145b6159935760405162461bcd60e51b8152600401808060200182810382526022815260200180615e146022913960400191505060405180910390fd5b600060018686868660405160008152602001604052604051808581526020018460ff1681526020018381526020018281526020019450505050506020604051602081039080840390855afa1580156159ef573d6000803e3d6000fd5b5050604051601f1901519150506001600160a01b038116615a57576040805162461bcd60e51b815260206004820152601860248201527f45434453413a20696e76616c6964207369676e61747572650000000000000000604482015290519081900360640190fd5b95945050505050565b81546000908210615aa25760405162461bcd60e51b8152600401808060200182810382526022815260200180615cd56022913960400191505060405180910390fd5b826000018281548110615ab157fe5b9060005260206000200154905092915050565b5490565b6060615ad78484600085615adf565b949350505050565b606082471015615b205760405162461bcd60e51b8152600401808060200182810382526026815260200180615d9e6026913960400191505060405180910390fd5b615b2985615c3a565b615b7a576040805162461bcd60e51b815260206004820152601d60248201527f416464726573733a2063616c6c20746f206e6f6e2d636f6e7472616374000000604482015290519081900360640190fd5b600080866001600160a01b031685876040518082805190602001908083835b60208310615bb85780518252601f199092019160209182019101615b99565b6001836020036101000a03801982511681845116808217855250505050505090500191505060006040518083038185875af1925050503d8060008114615c1a576040519150601f19603f3d011682016040523d82523d6000602084013e615c1f565b606091505b5091509150615c2f828286615c40565b979650505050505050565b3b151590565b60608315615c4f5750816136e0565b825115615c5f5782518084602001fd5b60405162461bcd60e51b815260206004820181815284516024840152845185939192839260440191908501908083836000831561278e578181015183820152602001612776565b508054600082559060005260206000209081019061320a91905b808211156156fa5760008155600101615cc056fe456e756d657261626c655365743a20696e646578206f7574206f6620626f756e6473416363657373436f6e74726f6c3a2073656e646572206d75737420626520616e2061646d696e20746f206772616e7476657374696e6720696e74657276616c6c732070726f76696465642c206275742076657374696e674475726174696f6e203d2030737461727420646174652068617320746f20626520696e207468652066757475726545434453413a20696e76616c6964207369676e6174757265202773272076616c7565416464726573733a20696e73756666696369656e742062616c616e636520666f722063616c6c416363657373436f6e74726f6c3a2073656e646572206d75737420626520616e2061646d696e20746f207265766f6b6563616c6c6572206973206e6f742057686974656c6973744f776e65720000000045434453413a20696e76616c6964207369676e6174757265202776272076616c7565536166654d6174683a206d756c7469706c69636174696f6e206f766572666c6f77494e5445524e414c204552524f52203a20616d6f756e7452656465656d656420776f756c64206265206c6172676572207468656e20707572636861736520616d6f756e74494e5445524e414c204552524f5220696e2076657374696e6720616d6f756e742063616c63756c6174696f6eb813b807c25079ba97f1770664c6a9e57c59afe74a6295f1ed01c10e3bb6baae5361666545524332303a204552433230206f7065726174696f6e20646964206e6f74207375636365656463616c6c657220686173206e6f742061646d696e20726f6c65000000000000004e6f2049444f207374616b696e6720636f6e747261637420617661696c61626c65416363657373436f6e74726f6c3a2063616e206f6e6c792072656e6f756e636520726f6c657320666f722073656c66a2646970667358221220e7a265bac17b7688a88777ac799c35c4efecc8111419e3ad33301c001a72d06e64736f6c6343000706003376657374696e6720696e74657276616c6c732070726f76696465642c206275742076657374696e674475726174696f6e203d203050bb669a95c7b50b7e8a6f09454034b2b14cf2b85c730dca9a539ca82cb6e350536166654d6174683a206d756c7469706c69636174696f6e206f766572666c6f7763616c6c657220686173206e6f742061646d696e20726f6c6500000000000000",
  "linkReferences": {},
  "deployedLinkReferences": {}
}