{
  "_format": "hh-sol-artifact-1",
  "contractName": "FixedNFTSwap",
  "sourceName": "contracts/FixedNFTSwap.sol",
  "abi": [
    {
      "inputs": [
        {
          "internalType": "uint256",
          "name": "_startDate",
          "type": "uint256"
        },
        {
          "internalType": "uint256",
          "name": "_endDate",
          "type": "uint256"
        },
        {
          "internalType": "uint256",
          "name": "_distributionDate",
          "type": "uint256"
        },
        {
          "internalType": "uint256",
          "name": "_individualMaximumAmount",
          "type": "uint256"
        },
        {
          "internalType": "uint256",
          "name": "_minimumRaise",
          "type": "uint256"
        },
        {
          "internalType": "uint256",
          "name": "_feePercentage",
          "type": "uint256"
        },
        {
          "internalType": "bool",
          "name": "_hasWhitelisting",
          "type": "bool"
        },
        {
          "internalType": "address",
          "name": "_erc20TradeAddress",
          "type": "address"
        },
        {
          "internalType": "uint256[]",
          "name": "_categoryIds",
          "type": "uint256[]"
        },
        {
          "internalType": "uint256[]",
          "name": "_categoriesSupply",
          "type": "uint256[]"
        },
        {
          "internalType": "uint256[]",
          "name": "_categoriesPrice",
          "type": "uint256[]"
        }
      ],
      "stateMutability": "nonpayable",
      "type": "constructor"
    },
    {
      "anonymous": false,
      "inputs": [
        {
          "indexed": false,
          "internalType": "uint256",
          "name": "count",
          "type": "uint256"
        }
      ],
      "name": "AddedArrayToBlacklist",
      "type": "event"
    },
    {
      "anonymous": false,
      "inputs": [
        {
          "indexed": false,
          "internalType": "uint256",
          "name": "count",
          "type": "uint256"
        }
      ],
      "name": "AddedArrayToWhitelist",
      "type": "event"
    },
    {
      "anonymous": false,
      "inputs": [
        {
          "indexed": true,
          "internalType": "address",
          "name": "account",
          "type": "address"
        }
      ],
      "name": "AddedToBlacklist",
      "type": "event"
    },
    {
      "anonymous": false,
      "inputs": [
        {
          "indexed": true,
          "internalType": "address",
          "name": "account",
          "type": "address"
        }
      ],
      "name": "AddedToWhitelist",
      "type": "event"
    },
    {
      "anonymous": false,
      "inputs": [
        {
          "indexed": false,
          "internalType": "address",
          "name": "account",
          "type": "address"
        }
      ],
      "name": "Paused",
      "type": "event"
    },
    {
      "anonymous": false,
      "inputs": [
        {
          "indexed": false,
          "internalType": "uint256",
          "name": "amount",
          "type": "uint256"
        },
        {
          "indexed": false,
          "internalType": "uint256",
          "name": "spentTokens",
          "type": "uint256"
        },
        {
          "indexed": true,
          "internalType": "uint256",
          "name": "categoryId",
          "type": "uint256"
        },
        {
          "indexed": true,
          "internalType": "address",
          "name": "purchaser",
          "type": "address"
        },
        {
          "indexed": false,
          "internalType": "uint256",
          "name": "timestamp",
          "type": "uint256"
        }
      ],
      "name": "PurchaseEvent",
      "type": "event"
    },
    {
      "anonymous": false,
      "inputs": [
        {
          "indexed": true,
          "internalType": "address",
          "name": "account",
          "type": "address"
        }
      ],
      "name": "RemovedFromBlacklist",
      "type": "event"
    },
    {
      "anonymous": false,
      "inputs": [
        {
          "indexed": true,
          "internalType": "address",
          "name": "account",
          "type": "address"
        }
      ],
      "name": "RemovedFromWhitelist",
      "type": "event"
    },
    {
      "anonymous": false,
      "inputs": [
        {
          "indexed": true,
          "internalType": "bytes32",
          "name": "role",
          "type": "bytes32"
        },
        {
          "indexed": true,
          "internalType": "bytes32",
          "name": "previousAdminRole",
          "type": "bytes32"
        },
        {
          "indexed": true,
          "internalType": "bytes32",
          "name": "newAdminRole",
          "type": "bytes32"
        }
      ],
      "name": "RoleAdminChanged",
      "type": "event"
    },
    {
      "anonymous": false,
      "inputs": [
        {
          "indexed": true,
          "internalType": "bytes32",
          "name": "role",
          "type": "bytes32"
        },
        {
          "indexed": true,
          "internalType": "address",
          "name": "account",
          "type": "address"
        },
        {
          "indexed": true,
          "internalType": "address",
          "name": "sender",
          "type": "address"
        }
      ],
      "name": "RoleGranted",
      "type": "event"
    },
    {
      "anonymous": false,
      "inputs": [
        {
          "indexed": true,
          "internalType": "bytes32",
          "name": "role",
          "type": "bytes32"
        },
        {
          "indexed": true,
          "internalType": "address",
          "name": "account",
          "type": "address"
        },
        {
          "indexed": true,
          "internalType": "address",
          "name": "sender",
          "type": "address"
        }
      ],
      "name": "RoleRevoked",
      "type": "event"
    },
    {
      "anonymous": false,
      "inputs": [
        {
          "indexed": false,
          "internalType": "bool",
          "name": "hasWhitelisting",
          "type": "bool"
        }
      ],
      "name": "SetHasWhitelisting",
      "type": "event"
    },
    {
      "anonymous": false,
      "inputs": [
        {
          "indexed": false,
          "internalType": "address",
          "name": "account",
          "type": "address"
        }
      ],
      "name": "Unpaused",
      "type": "event"
    },
    {
      "inputs": [],
      "name": "DEFAULT_ADMIN_ROLE",
      "outputs": [
        {
          "internalType": "bytes32",
          "name": "",
          "type": "bytes32"
        }
      ],
      "stateMutability": "view",
      "type": "function"
    },
    {
      "inputs": [],
      "name": "FEE_ADDRESS",
      "outputs": [
        {
          "internalType": "address",
          "name": "",
          "type": "address"
        }
      ],
      "stateMutability": "view",
      "type": "function"
    },
    {
      "inputs": [],
      "name": "WHITELIST_OWNER_ROLE",
      "outputs": [
        {
          "internalType": "bytes32",
          "name": "",
          "type": "bytes32"
        }
      ],
      "stateMutability": "view",
      "type": "function"
    },
    {
      "inputs": [
        {
          "internalType": "address[]",
          "name": "_addresses",
          "type": "address[]"
        }
      ],
      "name": "addArrayToBlacklist",
      "outputs": [],
      "stateMutability": "nonpayable",
      "type": "function"
    },
    {
      "inputs": [
        {
          "internalType": "address[]",
          "name": "_addresses",
          "type": "address[]"
        }
      ],
      "name": "addArrayToWhitelist",
      "outputs": [],
      "stateMutability": "nonpayable",
      "type": "function"
    },
    {
      "inputs": [
        {
          "internalType": "address",
          "name": "_address",
          "type": "address"
        }
      ],
      "name": "addToBlacklist",
      "outputs": [],
      "stateMutability": "nonpayable",
      "type": "function"
    },
    {
      "inputs": [
        {
          "internalType": "address",
          "name": "_address",
          "type": "address"
        }
      ],
      "name": "addToWhitelist",
      "outputs": [],
      "stateMutability": "nonpayable",
      "type": "function"
    },
    {
      "inputs": [
        {
          "internalType": "uint256",
          "name": "",
          "type": "uint256"
        }
      ],
      "name": "buyers",
      "outputs": [
        {
          "internalType": "address",
          "name": "",
          "type": "address"
        }
      ],
      "stateMutability": "view",
      "type": "function"
    },
    {
      "inputs": [
        {
          "internalType": "uint256",
          "name": "",
          "type": "uint256"
        }
      ],
      "name": "categories",
      "outputs": [
        {
          "internalType": "uint256",
          "name": "categoryId",
          "type": "uint256"
        },
        {
          "internalType": "uint256",
          "name": "supply",
          "type": "uint256"
        },
        {
          "internalType": "uint256",
          "name": "price",
          "type": "uint256"
        }
      ],
      "stateMutability": "view",
      "type": "function"
    },
    {
      "inputs": [
        {
          "internalType": "uint256",
          "name": "",
          "type": "uint256"
        }
      ],
      "name": "categoryIds",
      "outputs": [
        {
          "internalType": "uint256",
          "name": "",
          "type": "uint256"
        }
      ],
      "stateMutability": "view",
      "type": "function"
    },
    {
      "inputs": [
        {
          "internalType": "uint256",
          "name": "_amount",
          "type": "uint256"
        },
        {
          "internalType": "uint256",
          "name": "_categoryId",
          "type": "uint256"
        }
      ],
      "name": "cost",
      "outputs": [
        {
          "internalType": "uint256",
          "name": "",
          "type": "uint256"
        }
      ],
      "stateMutability": "view",
      "type": "function"
    },
    {
      "inputs": [],
      "name": "distributionDate",
      "outputs": [
        {
          "internalType": "uint256",
          "name": "",
          "type": "uint256"
        }
      ],
      "stateMutability": "view",
      "type": "function"
    },
    {
      "inputs": [],
      "name": "endDate",
      "outputs": [
        {
          "internalType": "uint256",
          "name": "",
          "type": "uint256"
        }
      ],
      "stateMutability": "view",
      "type": "function"
    },
    {
      "inputs": [],
      "name": "erc20TradeIn",
      "outputs": [
        {
          "internalType": "contract IERC20",
          "name": "",
          "type": "address"
        }
      ],
      "stateMutability": "view",
      "type": "function"
    },
    {
      "inputs": [],
      "name": "feePercentage",
      "outputs": [
        {
          "internalType": "uint256",
          "name": "",
          "type": "uint256"
        }
      ],
      "stateMutability": "view",
      "type": "function"
    },
    {
      "inputs": [],
      "name": "getAPIVersion",
      "outputs": [
        {
          "internalType": "uint32",
          "name": "API_VERSION",
          "type": "uint32"
        }
      ],
      "stateMutability": "pure",
      "type": "function"
    },
    {
      "inputs": [],
      "name": "getBlacklistedAddresses",
      "outputs": [
        {
          "internalType": "address[]",
          "name": "",
          "type": "address[]"
        }
      ],
      "stateMutability": "view",
      "type": "function"
    },
    {
      "inputs": [],
      "name": "getBuyers",
      "outputs": [
        {
          "internalType": "address[]",
          "name": "",
          "type": "address[]"
        }
      ],
      "stateMutability": "view",
      "type": "function"
    },
    {
      "inputs": [],
      "name": "getCategoryIds",
      "outputs": [
        {
          "internalType": "uint256[]",
          "name": "",
          "type": "uint256[]"
        }
      ],
      "stateMutability": "view",
      "type": "function"
    },
    {
      "inputs": [
        {
          "internalType": "address",
          "name": "_address",
          "type": "address"
        },
        {
          "internalType": "uint256",
          "name": "_categoryId",
          "type": "uint256"
        }
      ],
      "name": "getIsClaimedCategoryForUser",
      "outputs": [
        {
          "internalType": "bool",
          "name": "",
          "type": "bool"
        }
      ],
      "stateMutability": "view",
      "type": "function"
    },
    {
      "inputs": [
        {
          "internalType": "address",
          "name": "_address",
          "type": "address"
        }
      ],
      "name": "getMyPurchases",
      "outputs": [
        {
          "internalType": "uint256[]",
          "name": "",
          "type": "uint256[]"
        }
      ],
      "stateMutability": "view",
      "type": "function"
    },
    {
      "inputs": [
        {
          "internalType": "uint256",
          "name": "purchaseId",
          "type": "uint256"
        }
      ],
      "name": "getPurchase",
      "outputs": [
        {
          "internalType": "address",
          "name": "purchaser",
          "type": "address"
        },
        {
          "internalType": "uint48",
          "name": "timestamp",
          "type": "uint48"
        },
        {
          "internalType": "bool",
          "name": "reverted",
          "type": "bool"
        },
        {
          "internalType": "uint256",
          "name": "categoryId",
          "type": "uint256"
        },
        {
          "internalType": "uint256",
          "name": "amountPurchased",
          "type": "uint256"
        },
        {
          "internalType": "uint256",
          "name": "amountContributed",
          "type": "uint256"
        }
      ],
      "stateMutability": "view",
      "type": "function"
    },
    {
      "inputs": [],
      "name": "getPurchasesCount",
      "outputs": [
        {
          "internalType": "uint256",
          "name": "count",
          "type": "uint256"
        }
      ],
      "stateMutability": "view",
      "type": "function"
    },
    {
      "inputs": [
        {
          "internalType": "uint256",
          "name": "purchaseId",
          "type": "uint256"
        }
      ],
      "name": "getRedeemableTokensAmount",
      "outputs": [
        {
          "internalType": "uint256",
          "name": "amount",
          "type": "uint256"
        },
        {
          "internalType": "uint256",
          "name": "categoryId",
          "type": "uint256"
        },
        {
          "internalType": "string",
          "name": "message",
          "type": "string"
        }
      ],
      "stateMutability": "view",
      "type": "function"
    },
    {
      "inputs": [
        {
          "internalType": "bytes32",
          "name": "role",
          "type": "bytes32"
        }
      ],
      "name": "getRoleAdmin",
      "outputs": [
        {
          "internalType": "bytes32",
          "name": "",
          "type": "bytes32"
        }
      ],
      "stateMutability": "view",
      "type": "function"
    },
    {
      "inputs": [
        {
          "internalType": "bytes32",
          "name": "role",
          "type": "bytes32"
        },
        {
          "internalType": "uint256",
          "name": "index",
          "type": "uint256"
        }
      ],
      "name": "getRoleMember",
      "outputs": [
        {
          "internalType": "address",
          "name": "",
          "type": "address"
        }
      ],
      "stateMutability": "view",
      "type": "function"
    },
    {
      "inputs": [
        {
          "internalType": "bytes32",
          "name": "role",
          "type": "bytes32"
        }
      ],
      "name": "getRoleMemberCount",
      "outputs": [
        {
          "internalType": "uint256",
          "name": "",
          "type": "uint256"
        }
      ],
      "stateMutability": "view",
      "type": "function"
    },
    {
      "inputs": [],
      "name": "getWhitelistedAddresses",
      "outputs": [
        {
          "internalType": "address[]",
          "name": "",
          "type": "address[]"
        }
      ],
      "stateMutability": "view",
      "type": "function"
    },
    {
      "inputs": [
        {
          "internalType": "bytes32",
          "name": "role",
          "type": "bytes32"
        },
        {
          "internalType": "address",
          "name": "account",
          "type": "address"
        }
      ],
      "name": "grantRole",
      "outputs": [],
      "stateMutability": "nonpayable",
      "type": "function"
    },
    {
      "inputs": [],
      "name": "hasDistributed",
      "outputs": [
        {
          "internalType": "bool",
          "name": "",
          "type": "bool"
        }
      ],
      "stateMutability": "view",
      "type": "function"
    },
    {
      "inputs": [],
      "name": "hasFinalized",
      "outputs": [
        {
          "internalType": "bool",
          "name": "",
          "type": "bool"
        }
      ],
      "stateMutability": "view",
      "type": "function"
    },
    {
      "inputs": [],
      "name": "hasMinimumRaise",
      "outputs": [
        {
          "internalType": "bool",
          "name": "",
          "type": "bool"
        }
      ],
      "stateMutability": "view",
      "type": "function"
    },
    {
      "inputs": [
        {
          "internalType": "bytes32",
          "name": "role",
          "type": "bytes32"
        },
        {
          "internalType": "address",
          "name": "account",
          "type": "address"
        }
      ],
      "name": "hasRole",
      "outputs": [
        {
          "internalType": "bool",
          "name": "",
          "type": "bool"
        }
      ],
      "stateMutability": "view",
      "type": "function"
    },
    {
      "inputs": [],
      "name": "hasStarted",
      "outputs": [
        {
          "internalType": "bool",
          "name": "",
          "type": "bool"
        }
      ],
      "stateMutability": "view",
      "type": "function"
    },
    {
      "inputs": [],
      "name": "hasWhitelisting",
      "outputs": [
        {
          "internalType": "bool",
          "name": "",
          "type": "bool"
        }
      ],
      "stateMutability": "view",
      "type": "function"
    },
    {
      "inputs": [],
      "name": "individualMaximumAmount",
      "outputs": [
        {
          "internalType": "uint256",
          "name": "",
          "type": "uint256"
        }
      ],
      "stateMutability": "view",
      "type": "function"
    },
    {
      "inputs": [
        {
          "internalType": "address",
          "name": "_address",
          "type": "address"
        }
      ],
      "name": "isBlacklisted",
      "outputs": [
        {
          "internalType": "bool",
          "name": "",
          "type": "bool"
        }
      ],
      "stateMutability": "view",
      "type": "function"
    },
    {
      "inputs": [
        {
          "internalType": "uint256",
          "name": "purchaseId",
          "type": "uint256"
        }
      ],
      "name": "isBuyer",
      "outputs": [
        {
          "internalType": "bool",
          "name": "",
          "type": "bool"
        }
      ],
      "stateMutability": "view",
      "type": "function"
    },
    {
      "inputs": [],
      "name": "isETHTrade",
      "outputs": [
        {
          "internalType": "bool",
          "name": "",
          "type": "bool"
        }
      ],
      "stateMutability": "view",
      "type": "function"
    },
    {
      "inputs": [],
      "name": "isOpen",
      "outputs": [
        {
          "internalType": "bool",
          "name": "",
          "type": "bool"
        }
      ],
      "stateMutability": "view",
      "type": "function"
    },
    {
      "inputs": [],
      "name": "isPreStart",
      "outputs": [
        {
          "internalType": "bool",
          "name": "",
          "type": "bool"
        }
      ],
      "stateMutability": "view",
      "type": "function"
    },
    {
      "inputs": [
        {
          "internalType": "address",
          "name": "_userAccountAaddress",
          "type": "address"
        },
        {
          "internalType": "uint256",
          "name": "_accountMaximunAllocation",
          "type": "uint256"
        },
        {
          "internalType": "bytes",
          "name": "signature",
          "type": "bytes"
        }
      ],
      "name": "isSignerForAddressMaxAlloc",
      "outputs": [
        {
          "internalType": "bool",
          "name": "",
          "type": "bool"
        }
      ],
      "stateMutability": "view",
      "type": "function"
    },
    {
      "inputs": [
        {
          "internalType": "bytes32",
          "name": "hash",
          "type": "bytes32"
        },
        {
          "internalType": "bytes",
          "name": "signature",
          "type": "bytes"
        }
      ],
      "name": "isSignerFromBytes32",
      "outputs": [
        {
          "internalType": "bool",
          "name": "",
          "type": "bool"
        }
      ],
      "stateMutability": "view",
      "type": "function"
    },
    {
      "inputs": [
        {
          "internalType": "address",
          "name": "_address",
          "type": "address"
        }
      ],
      "name": "isWhitelisted",
      "outputs": [
        {
          "internalType": "bool",
          "name": "",
          "type": "bool"
        }
      ],
      "stateMutability": "view",
      "type": "function"
    },
    {
      "inputs": [
        {
          "internalType": "address",
          "name": "_userAccountAaddress",
          "type": "address"
        },
        {
          "internalType": "uint256",
          "name": "_accountMaximunAllocation",
          "type": "uint256"
        },
        {
          "internalType": "bytes",
          "name": "signature",
          "type": "bytes"
        }
      ],
      "name": "isWhitelistedWithSignatureMaxAlloc",
      "outputs": [
        {
          "internalType": "bool",
          "name": "",
          "type": "bool"
        }
      ],
      "stateMutability": "view",
      "type": "function"
    },
    {
      "inputs": [],
      "name": "maximumRaise",
      "outputs": [
        {
          "internalType": "uint256",
          "name": "",
          "type": "uint256"
        }
      ],
      "stateMutability": "view",
      "type": "function"
    },
    {
      "inputs": [],
      "name": "minimumRaise",
      "outputs": [
        {
          "internalType": "uint256",
          "name": "",
          "type": "uint256"
        }
      ],
      "stateMutability": "view",
      "type": "function"
    },
    {
      "inputs": [],
      "name": "minimumRaiseAchieved",
      "outputs": [
        {
          "internalType": "bool",
          "name": "",
          "type": "bool"
        }
      ],
      "stateMutability": "view",
      "type": "function"
    },
    {
      "inputs": [],
      "name": "minimumRaiseNotAchieved",
      "outputs": [
        {
          "internalType": "bool",
          "name": "",
          "type": "bool"
        }
      ],
      "stateMutability": "view",
      "type": "function"
    },
    {
      "inputs": [
        {
          "internalType": "address",
          "name": "",
          "type": "address"
        },
        {
          "internalType": "uint256",
          "name": "",
          "type": "uint256"
        }
      ],
      "name": "myPurchases",
      "outputs": [
        {
          "internalType": "uint256",
          "name": "",
          "type": "uint256"
        }
      ],
      "stateMutability": "view",
      "type": "function"
    },
    {
      "inputs": [],
      "name": "pause",
      "outputs": [],
      "stateMutability": "nonpayable",
      "type": "function"
    },
    {
      "inputs": [],
      "name": "paused",
      "outputs": [
        {
          "internalType": "bool",
          "name": "",
          "type": "bool"
        }
      ],
      "stateMutability": "view",
      "type": "function"
    },
    {
      "inputs": [
        {
          "internalType": "uint256",
          "name": "purchaseId",
          "type": "uint256"
        }
      ],
      "name": "purchaseExists",
      "outputs": [
        {
          "internalType": "bool",
          "name": "",
          "type": "bool"
        }
      ],
      "stateMutability": "view",
      "type": "function"
    },
    {
      "inputs": [
        {
          "internalType": "address",
          "name": "",
          "type": "address"
        },
        {
          "internalType": "uint256",
          "name": "",
          "type": "uint256"
        }
      ],
      "name": "purchasedCategoriesByUser",
      "outputs": [
        {
          "internalType": "uint256",
          "name": "",
          "type": "uint256"
        }
      ],
      "stateMutability": "view",
      "type": "function"
    },
    {
      "inputs": [
        {
          "internalType": "uint256",
          "name": "",
          "type": "uint256"
        }
      ],
      "name": "purchases",
      "outputs": [
        {
          "internalType": "address",
          "name": "purchaser",
          "type": "address"
        },
        {
          "internalType": "uint48",
          "name": "timestamp",
          "type": "uint48"
        },
        {
          "internalType": "bool",
          "name": "reverted",
          "type": "bool"
        },
        {
          "internalType": "uint256",
          "name": "categoryId",
          "type": "uint256"
        },
        {
          "internalType": "uint256",
          "name": "amountPurchased",
          "type": "uint256"
        },
        {
          "internalType": "uint256",
          "name": "amountContributed",
          "type": "uint256"
        }
      ],
      "stateMutability": "view",
      "type": "function"
    },
    {
      "inputs": [
        {
          "internalType": "bytes32",
          "name": "hash",
          "type": "bytes32"
        },
        {
          "internalType": "bytes",
          "name": "signature",
          "type": "bytes"
        }
      ],
      "name": "recoverSignerAddressFromBytes32",
      "outputs": [
        {
          "internalType": "address",
          "name": "",
          "type": "address"
        }
      ],
      "stateMutability": "pure",
      "type": "function"
    },
    {
      "inputs": [
        {
          "internalType": "uint256",
          "name": "purchaseId",
          "type": "uint256"
        }
      ],
      "name": "redeemGivenMinimumGoalNotAchieved",
      "outputs": [],
      "stateMutability": "nonpayable",
      "type": "function"
    },
    {
      "inputs": [
        {
          "internalType": "address",
          "name": "_address",
          "type": "address"
        }
      ],
      "name": "removeFromBlacklist",
      "outputs": [],
      "stateMutability": "nonpayable",
      "type": "function"
    },
    {
      "inputs": [
        {
          "internalType": "address",
          "name": "_address",
          "type": "address"
        }
      ],
      "name": "removeFromWhitelist",
      "outputs": [],
      "stateMutability": "nonpayable",
      "type": "function"
    },
    {
      "inputs": [
        {
          "internalType": "address",
          "name": "_tokenAddress",
          "type": "address"
        },
        {
          "internalType": "address",
          "name": "_to",
          "type": "address"
        }
      ],
      "name": "removeOtherERC20Tokens",
      "outputs": [],
      "stateMutability": "nonpayable",
      "type": "function"
    },
    {
      "inputs": [
        {
          "internalType": "bytes32",
          "name": "role",
          "type": "bytes32"
        },
        {
          "internalType": "address",
          "name": "account",
          "type": "address"
        }
      ],
      "name": "renounceRole",
      "outputs": [],
      "stateMutability": "nonpayable",
      "type": "function"
    },
    {
      "inputs": [
        {
          "internalType": "bytes32",
          "name": "role",
          "type": "bytes32"
        },
        {
          "internalType": "address",
          "name": "account",
          "type": "address"
        }
      ],
      "name": "revokeRole",
      "outputs": [],
      "stateMutability": "nonpayable",
      "type": "function"
    },
    {
      "inputs": [],
      "name": "safePullETH",
      "outputs": [],
      "stateMutability": "nonpayable",
      "type": "function"
    },
    {
      "inputs": [],
      "name": "safePullTradeToken",
      "outputs": [],
      "stateMutability": "nonpayable",
      "type": "function"
    },
    {
      "inputs": [
        {
          "internalType": "uint256[]",
          "name": "_categoryIds",
          "type": "uint256[]"
        },
        {
          "internalType": "uint256[]",
          "name": "_categoriesSupply",
          "type": "uint256[]"
        },
        {
          "internalType": "uint256[]",
          "name": "_categoriesPrice",
          "type": "uint256[]"
        }
      ],
      "name": "setCategories",
      "outputs": [],
      "stateMutability": "nonpayable",
      "type": "function"
    },
    {
      "inputs": [
        {
          "internalType": "uint256",
          "name": "_distributionDate",
          "type": "uint256"
        }
      ],
      "name": "setDistributionDate",
      "outputs": [],
      "stateMutability": "nonpayable",
      "type": "function"
    },
    {
      "inputs": [
        {
          "internalType": "uint256",
          "name": "_endDate",
          "type": "uint256"
        }
      ],
      "name": "setEndDate",
      "outputs": [],
      "stateMutability": "nonpayable",
      "type": "function"
    },
    {
      "inputs": [
        {
          "internalType": "bool",
          "name": "_hasWhitelisting",
          "type": "bool"
        }
      ],
      "name": "setHasWhitelisting",
      "outputs": [],
      "stateMutability": "nonpayable",
      "type": "function"
    },
    {
      "inputs": [
        {
          "internalType": "uint256",
          "name": "_individualMaximumAmount",
          "type": "uint256"
        }
      ],
      "name": "setIndividualMaximumAmount",
      "outputs": [],
      "stateMutability": "nonpayable",
      "type": "function"
    },
    {
      "inputs": [
        {
          "internalType": "address",
          "name": "_signerPublicAddress",
          "type": "address"
        }
      ],
      "name": "setSignerPublicAddress",
      "outputs": [],
      "stateMutability": "nonpayable",
      "type": "function"
    },
    {
      "inputs": [
        {
          "internalType": "uint256",
          "name": "_startDate",
          "type": "uint256"
        }
      ],
      "name": "setStartDate",
      "outputs": [],
      "stateMutability": "nonpayable",
      "type": "function"
    },
    {
      "inputs": [
        {
          "internalType": "address",
          "name": "_user",
          "type": "address"
        },
        {
          "internalType": "uint256",
          "name": "_categoryId",
          "type": "uint256"
        }
      ],
      "name": "setUserClaimedCategory",
      "outputs": [],
      "stateMutability": "nonpayable",
      "type": "function"
    },
    {
      "inputs": [],
      "name": "signerPublicAddress",
      "outputs": [
        {
          "internalType": "address",
          "name": "",
          "type": "address"
        }
      ],
      "stateMutability": "view",
      "type": "function"
    },
    {
      "inputs": [
        {
          "internalType": "uint256",
          "name": "",
          "type": "uint256"
        }
      ],
      "name": "soldByCategoryId",
      "outputs": [
        {
          "internalType": "uint256",
          "name": "",
          "type": "uint256"
        }
      ],
      "stateMutability": "view",
      "type": "function"
    },
    {
      "inputs": [],
      "name": "startDate",
      "outputs": [
        {
          "internalType": "uint256",
          "name": "",
          "type": "uint256"
        }
      ],
      "stateMutability": "view",
      "type": "function"
    },
    {
      "inputs": [
        {
          "internalType": "uint256",
          "name": "_amount",
          "type": "uint256"
        },
        {
          "internalType": "uint256",
          "name": "_categoryId",
          "type": "uint256"
        },
        {
          "internalType": "uint256",
          "name": "_accountMaxAmount",
          "type": "uint256"
        },
        {
          "internalType": "bytes",
          "name": "_signature",
          "type": "bytes"
        }
      ],
      "name": "swapWithSig",
      "outputs": [],
      "stateMutability": "payable",
      "type": "function"
    },
    {
      "inputs": [],
      "name": "tokensAllocated",
      "outputs": [
        {
          "internalType": "uint256",
          "name": "",
          "type": "uint256"
        }
      ],
      "stateMutability": "view",
      "type": "function"
    },
    {
      "inputs": [
        {
          "internalType": "uint256",
          "name": "_categoryId",
          "type": "uint256"
        }
      ],
      "name": "tokensLeft",
      "outputs": [
        {
          "internalType": "uint256",
          "name": "",
          "type": "uint256"
        }
      ],
      "stateMutability": "view",
      "type": "function"
    },
    {
      "inputs": [],
      "name": "totalRaiseCost",
      "outputs": [
        {
          "internalType": "uint256",
          "name": "",
          "type": "uint256"
        }
      ],
      "stateMutability": "view",
      "type": "function"
    },
    {
      "inputs": [],
      "name": "unpause",
      "outputs": [],
      "stateMutability": "nonpayable",
      "type": "function"
    },
    {
      "inputs": [],
      "name": "withdrawFunds",
      "outputs": [],
      "stateMutability": "nonpayable",
      "type": "function"
    }
  ],
  "bytecode": "0x60806040526002805460ff60a01b191690553480156200001e57600080fd5b50604051620055a9380380620055a983398181016040526101608110156200004557600080fd5b815160208301516040808501516060860151608087015160a088015160c089015160e08a01516101008b0180519751999b989a969995989497939692959194919392820192846401000000008211156200009e57600080fd5b908301906020820185811115620000b457600080fd5b8251866020820283011164010000000082111715620000d257600080fd5b82525081516020918201928201910280838360005b8381101562000101578181015183820152602001620000e7565b50505050905001604052602001805160405193929190846401000000008211156200012b57600080fd5b9083019060208201858111156200014157600080fd5b82518660208202830111640100000000821117156200015f57600080fd5b82525081516020918201928201910280838360005b838110156200018e57818101518382015260200162000174565b5050505090500160405260200180516040519392919084640100000000821115620001b857600080fd5b908301906020820185811115620001ce57600080fd5b8251866020820283011164010000000082111715620001ec57600080fd5b82525081516020918201928201910280838360005b838110156200021b57818101518382015260200162000201565b505050509190910160405250506000805460ff1916905550506002805460ff60a01b1916600160a01b8715150217905584620002787fb813b807c25079ba97f1770664c6a9e57c59afe74a6295f1ed01c10e3bb6baae3362000578565b506200028660003362000578565b8a4210620002db576040805162461bcd60e51b815260206004820152601960248201527f7374617274206461746520697320696e20746865207061737400000000000000604482015290519081900360640190fd5b606386111562000332576040805162461bcd60e51b815260206004820152601e60248201527f4665652050657263656e746167652068617320746f206265203c203130300000604482015290519081900360640190fd5b600a83511115620003755760405162461bcd60e51b8152600401808060200182810382526023815260200180620055866023913960400191505060405180910390fd5b8151835114801562000388575080518351145b620003da576040805162461bcd60e51b815260206004820152601460248201527f43617465676f72696573206d6973736d61746368000000000000000000000000604482015290519081900360640190fd5b6000805b8451811015620004f357600060405180606001604052808784815181106200040257fe5b602002602001015181526020018684815181106200041c57fe5b602002602001015181526020018584815181106200043657fe5b6020026020010151815250905080601360008885815181106200045557fe5b60200260200101518152602001908152602001600020600082015181600001556020820151816001015560408201518160020155905050620004e7620004d2858481518110620004a157fe5b6020026020010151878581518110620004b657fe5b60200260200101516200058860201b62003d141790919060201c565b84620005ef60201b62003d6d1790919060201c565b925050600101620003de565b5083516200050990601290602087019062000941565b50600d8890556200051a896200064a565b60098c90556200052a8b620006ae565b600b8a90556001600160a01b038516156200055b57600780546001600160a01b0319166001600160a01b0387161790555b600896909655505050600f9290925550620009a895505050505050565b62000584828262000807565b5050565b6000826200059957506000620005e9565b82820282848281620005a757fe5b0414620005e65760405162461bcd60e51b8152600401808060200182810382526021815260200180620055656021913960400191505060405180910390fd5b90505b92915050565b600082820183811015620005e6576040805162461bcd60e51b815260206004820152601b60248201527f536166654d6174683a206164646974696f6e206f766572666c6f770000000000604482015290519081900360640190fd5b6200065760003362000882565b620006a9576040805162461bcd60e51b815260206004820152601960248201527f63616c6c657220686173206e6f742061646d696e20726f6c6500000000000000604482015290519081900360640190fd5b600c55565b620006bb60003362000882565b6200070d576040805162461bcd60e51b815260206004820152601960248201527f63616c6c657220686173206e6f742061646d696e20726f6c6500000000000000604482015290519081900360640190fd5b80421062000762576040805162461bcd60e51b815260206004820181905260248201527f656e6420646174652068617320746f20626520696e2074686520667574757265604482015290519081900360640190fd5b8060095410620007b9576040805162461bcd60e51b815260206004820152601a60248201527f656e642064617465206265666f72652073746172742064617465000000000000604482015290519081900360640190fd5b600954421062000802576040805162461bcd60e51b815260206004820152600f60248201526e185b1c9958591e481cdd185c9d1959608a1b604482015290519081900360640190fd5b600a55565b60008281526001602090815260409091206200082e91839062003dc7620008a8821b17901c565b1562000584576200083e620008bf565b6001600160a01b0316816001600160a01b0316837f2f8788117e7eff1d82e926ec794901d17c78024a50270940304540a733656f0d60405160405180910390a45050565b60008281526001602090815260408220620005e691849062003ddc620008c3821b17901c565b6000620005e6836001600160a01b038416620008da565b3390565b6000620005e6836001600160a01b03841662000929565b6000620008e8838362000929565b6200092057508154600181810184556000848152602080822090930184905584548482528286019093526040902091909155620005e9565b506000620005e9565b60009081526001919091016020526040902054151590565b8280548282559060005260206000209081019282156200097f579160200282015b828111156200097f57825182559160200191906001019062000962565b506200098d92915062000991565b5090565b5b808211156200098d576000815560010162000992565b614bad80620009b86000396000f3fe60806040526004361061047e5760003560e01c80637ad0250c11610255578063bbea928c11610144578063e4101de5116100c1578063ecfd274211610085578063ecfd2742146115d4578063efbb34d51461160d578063f2aa821814611622578063f64bfaba1461164c578063fe575a8714611661578063fecf415a146116945761047e565b8063e4101de5146114aa578063e43252d7146114bf578063e4a80252146114f2578063e8b882f4146115aa578063eb1edd61146115bf5761047e565b8063ca15c87311610108578063ca15c873146113de578063d547741f14611408578063d63098dd14611441578063dc91b0721461146b578063e34c8dbf146114955761047e565b8063bbea928c14611324578063bf135abe14611339578063c24a0f8b1461134e578063c3ca324f14611363578063c6cdbe5e146113965761047e565b80639d90a46e116101d2578063abadefff11610196578063abadefff146111e2578063b0b12ac314611299578063b367940e146112c7578063b8691787146112dc578063ba40a96a1461130f5761047e565b80639d90a46e146110cb578063a001ecdd14611179578063a1c09bf11461118e578063a217fddf146111a3578063a4f13dcd146111b85761047e565b80638e75b131116102195780638e75b13114610ffd5780639010d07c14611012578063917c854d1461104257806391d148541461107d57806396a32bc4146110b65761047e565b80637ad0250c14610f3757806382d95df514610f615780638392fe3114610f8b5780638456cb5914610fb55780638ab1d68114610fca5761047e565b80633ec02e14116103715780635c975abb116102ee57806374fa05fb116102b257806374fa05fb14610d5e578063751ef93d14610d73578063755e3e2814610e3957806376807e5f14610e4e578063799bb23214610e635761047e565b80635c975abb14610c185780635e7446d714610c2d5780636690a65314610c575780636d02802714610d1d5780636eaaabd514610d325761047e565b806347535d7b1161033557806347535d7b14610b49578063503240bd14610b5e57806353505bc914610b97578063537df3b614610bac5780635ac699bb14610bdf5761047e565b80633ec02e1414610aa75780633f4ba83a14610ad75780634089aa9a14610aec57806344337ea114610b0157806344691f7e14610b345761047e565b80632593ea17116103ff5780633742a9f7116103c35780633742a9f7146108c75780633784f000146109355780633af32abf1461095f5780633b6577c8146109925780633bbab17914610a425761047e565b80632593ea17146108015780632a92efd21461082b5780632ebb5c1e146108405780632f2ff15d1461085557806336568abe1461088e5761047e565b806315b578661161044657806315b57866146105d15780631de18af7146105e65780632448cbc61461061057806324600fc3146107c2578063248a9ca3146107d75761047e565b8063044c0cc51461048357806307662345146104ac57806308abd7ff146104c15780630b97bc86146105715780630cbe815614610598575b600080fd5b34801561048f57600080fd5b506104986116be565b604080519115158252519081900360200190f35b3480156104b857600080fd5b506104986116ce565b3480156104cd57600080fd5b5061056f600480360360208110156104e457600080fd5b810190602081018135600160201b8111156104fe57600080fd5b82018360208201111561051057600080fd5b803590602001918460208302840111600160201b8311171561053157600080fd5b9190808060200260200160405190810160405280939291908181526020018383602002808284376000920191909152509295506116de945050505050565b005b34801561057d57600080fd5b506105866117bc565b60408051918252519081900360200190f35b3480156105a457600080fd5b5061056f600480360360408110156105bb57600080fd5b506001600160a01b0381351690602001356117c2565b3480156105dd57600080fd5b50610498611925565b3480156105f257600080fd5b5061056f6004803603602081101561060957600080fd5b503561192d565b34801561061c57600080fd5b5061056f6004803603606081101561063357600080fd5b810190602081018135600160201b81111561064d57600080fd5b82018360208201111561065f57600080fd5b803590602001918460208302840111600160201b8311171561068057600080fd5b9190808060200260200160405190810160405280939291908181526020018383602002808284376000920191909152509295949360208101935035915050600160201b8111156106cf57600080fd5b8201836020820111156106e157600080fd5b803590602001918460208302840111600160201b8311171561070257600080fd5b9190808060200260200160405190810160405280939291908181526020018383602002808284376000920191909152509295949360208101935035915050600160201b81111561075157600080fd5b82018360208201111561076357600080fd5b803590602001918460208302840111600160201b8311171561078457600080fd5b919080806020026020016040519081016040528093929190818152602001838360200280828437600092019190915250929550611b6f945050505050565b3480156107ce57600080fd5b5061056f611dbf565b3480156107e357600080fd5b50610586600480360360208110156107fa57600080fd5b50356120f0565b34801561080d57600080fd5b506104986004803603602081101561082457600080fd5b5035612105565b34801561083757600080fd5b5061049861210c565b34801561084c57600080fd5b50610498612115565b34801561086157600080fd5b5061056f6004803603604081101561087857600080fd5b50803590602001356001600160a01b031661211d565b34801561089a57600080fd5b5061056f600480360360408110156108b157600080fd5b50803590602001356001600160a01b0316612185565b3480156108d357600080fd5b506108f1600480360360208110156108ea57600080fd5b50356121e6565b604080516001600160a01b03909716875265ffffffffffff9095166020870152921515858501526060850191909152608084015260a0830152519081900360c00190f35b34801561094157600080fd5b5061056f6004803603602081101561095857600080fd5b50356122e4565b34801561096b57600080fd5b506104986004803603602081101561098257600080fd5b50356001600160a01b0316612425565b34801561099e57600080fd5b506109bc600480360360208110156109b557600080fd5b5035612438565b6040518084815260200183815260200180602001828103825283818151815260200191508051906020019080838360005b83811015610a055781810151838201526020016109ed565b50505050905090810190601f168015610a325780820380516001836020036101000a031916815260200191505b5094505050505060405180910390f35b348015610a4e57600080fd5b50610a57612624565b60408051602080825283518183015283519192839290830191858101910280838360005b83811015610a93578181015183820152602001610a7b565b505050509050019250505060405180910390f35b348015610ab357600080fd5b5061058660048036036040811015610aca57600080fd5b5080359060200135612635565b348015610ae357600080fd5b5061056f6126bc565b348015610af857600080fd5b5061049861270e565b348015610b0d57600080fd5b5061056f60048036036020811015610b2457600080fd5b50356001600160a01b0316612717565b348015610b4057600080fd5b506104986127b6565b348015610b5557600080fd5b506104986127bf565b348015610b6a57600080fd5b5061049860048036036040811015610b8157600080fd5b506001600160a01b0381351690602001356127de565b348015610ba357600080fd5b50610586612809565b348015610bb857600080fd5b5061056f60048036036020811015610bcf57600080fd5b50356001600160a01b031661280f565b348015610beb57600080fd5b5061058660048036036040811015610c0257600080fd5b506001600160a01b0381351690602001356128ad565b348015610c2457600080fd5b506104986128de565b348015610c3957600080fd5b5061058660048036036020811015610c5057600080fd5b50356128e7565b348015610c6357600080fd5b5061049860048036036060811015610c7a57600080fd5b6001600160a01b0382351691602081013591810190606081016040820135600160201b811115610ca957600080fd5b820183602082011115610cbb57600080fd5b803590602001918460018302840111600160201b83111715610cdc57600080fd5b91908080601f016020809104026020016040519081016040528093929190818152602001838380828437600092019190915250929550612909945050505050565b348015610d2957600080fd5b50610a5761294c565b348015610d3e57600080fd5b5061056f60048036036020811015610d5557600080fd5b50351515612958565b348015610d6a57600080fd5b50610498612a02565b348015610d7f57600080fd5b5061049860048036036060811015610d9657600080fd5b6001600160a01b0382351691602081013591810190606081016040820135600160201b811115610dc557600080fd5b820183602082011115610dd757600080fd5b803590602001918460018302840111600160201b83111715610df857600080fd5b91908080601f016020809104026020016040519081016040528093929190818152602001838380828437600092019190915250929550612a0c945050505050565b348015610e4557600080fd5b50610586612a81565b348015610e5a57600080fd5b5061056f612a87565b348015610e6f57600080fd5b50610f1b60048036036040811015610e8657600080fd5b81359190810190604081016020820135600160201b811115610ea757600080fd5b820183602082011115610eb957600080fd5b803590602001918460018302840111600160201b83111715610eda57600080fd5b91908080601f016020809104026020016040519081016040528093929190818152602001838380828437600092019190915250929550612b21945050505050565b604080516001600160a01b039092168252519081900360200190f35b348015610f4357600080fd5b5061056f60048036036020811015610f5a57600080fd5b5035612b8c565b348015610f6d57600080fd5b5061056f60048036036020811015610f8457600080fd5b5035612cb2565b348015610f9757600080fd5b506108f160048036036020811015610fae57600080fd5b5035612ddd565b348015610fc157600080fd5b5061056f612e3b565b348015610fd657600080fd5b5061056f60048036036020811015610fed57600080fd5b50356001600160a01b0316612e8d565b34801561100957600080fd5b50610586612f2b565b34801561101e57600080fd5b50610f1b6004803603604081101561103557600080fd5b5080359060200135612f31565b34801561104e57600080fd5b5061056f6004803603604081101561106557600080fd5b506001600160a01b0381358116916020013516612f49565b34801561108957600080fd5b50610498600480360360408110156110a057600080fd5b50803590602001356001600160a01b03166130d8565b3480156110c257600080fd5b5061056f6130f0565b3480156110d757600080fd5b5061056f600480360360208110156110ee57600080fd5b810190602081018135600160201b81111561110857600080fd5b82018360208201111561111a57600080fd5b803590602001918460208302840111600160201b8311171561113b57600080fd5b9190808060200260200160405190810160405280939291908181526020018383602002808284376000920191909152509295506131b6945050505050565b34801561118557600080fd5b50610586613293565b34801561119a57600080fd5b50610586613299565b3480156111af57600080fd5b5061058661329f565b3480156111c457600080fd5b50610586600480360360208110156111db57600080fd5b50356132a4565b61056f600480360360808110156111f857600080fd5b81359160208101359160408201359190810190608081016060820135600160201b81111561122557600080fd5b82018360208201111561123757600080fd5b803590602001918460018302840111600160201b8311171561125857600080fd5b91908080601f0160208091040260200160405190810160405280939291908181526020018383808284376000920191909152509295506132b6945050505050565b3480156112a557600080fd5b506112ae6138b2565b6040805163ffffffff9092168252519081900360200190f35b3480156112d357600080fd5b506104986138b9565b3480156112e857600080fd5b5061056f600480360360208110156112ff57600080fd5b50356001600160a01b03166138c4565b34801561131b57600080fd5b50610f1b61393d565b34801561133057600080fd5b50610a5761394c565b34801561134557600080fd5b50610f1b6139a4565b34801561135a57600080fd5b506105866139b3565b34801561136f57600080fd5b50610a576004803603602081101561138657600080fd5b50356001600160a01b03166139b9565b3480156113a257600080fd5b506113c0600480360360208110156113b957600080fd5b5035613a25565b60408051938452602084019290925282820152519081900360600190f35b3480156113ea57600080fd5b506105866004803603602081101561140157600080fd5b5035613a46565b34801561141457600080fd5b5061056f6004803603604081101561142b57600080fd5b50803590602001356001600160a01b0316613a5d565b34801561144d57600080fd5b506105866004803603602081101561146457600080fd5b5035613ab6565b34801561147757600080fd5b5061056f6004803603602081101561148e57600080fd5b5035613ad7565b3480156114a157600080fd5b50610586613b26565b3480156114b657600080fd5b50610586613b2c565b3480156114cb57600080fd5b5061056f600480360360208110156114e257600080fd5b50356001600160a01b0316613b32565b3480156114fe57600080fd5b506104986004803603604081101561151557600080fd5b81359190810190604081016020820135600160201b81111561153657600080fd5b82018360208201111561154857600080fd5b803590602001918460018302840111600160201b8311171561156957600080fd5b91908080601f016020809104026020016040519081016040528093929190818152602001838380828437600092019190915250929550613bd0945050505050565b3480156115b657600080fd5b50610586613bfa565b3480156115cb57600080fd5b50610f1b613c0c565b3480156115e057600080fd5b50610586600480360360408110156115f757600080fd5b506001600160a01b038135169060200135613c24565b34801561161957600080fd5b50610586613c41565b34801561162e57600080fd5b50610f1b6004803603602081101561164557600080fd5b5035613c4b565b34801561165857600080fd5b50610a57613c75565b34801561166d57600080fd5b506104986004803603602081101561168457600080fd5b50356001600160a01b0316613cd6565b3480156116a057600080fd5b50610498600480360360208110156116b757600080fd5b5035613ce3565b6007546001600160a01b03161590565b600254600160a01b900460ff1681565b6116f6600080516020614adf833981519152336130d8565b611735576040805162461bcd60e51b815260206004820152601c6024820152600080516020614a59833981519152604482015290519081900360640190fd5b6000805b825181101561177d5761176983828151811061175157fe5b60200260200101516003613dc790919063ffffffff16565b15611775576001909101905b600101611739565b5080156117b8576040805182815290517f448f3bd350ede14a294c062177c5280fe1eae125d16757da21f5f51d6e89daae9181900360200190a15b5050565b60095481565b6117cd6000336130d8565b61180c576040805162461bcd60e51b81526020600482015260196024820152600080516020614b29833981519152604482015290519081900360640190fd5b61181461270e565b611860576040805162461bcd60e51b81526020600482015260186024820152771cd85b19481a185cc81d1bc8189948199a5b985b1a5e995960421b604482015290519081900360640190fd5b6118686138b9565b6118b5576040805162461bcd60e51b81526020600482015260196024820152781b5a5b9a5b5d5b481c985a5cd9481b9bdd081c995858da1959603a1b604482015290519081900360640190fd5b600b5442116118f55760405162461bcd60e51b815260040180806020018281038252602381526020018061495f6023913960400191505060405180910390fd5b6001600160a01b03909116600090815260176020908152604080832093835292905220805460ff19166001179055565b600d54151590565b61193561270e565b611981576040805162461bcd60e51b81526020600482015260186024820152771cd85b19481a185cc81d1bc8189948199a5b985b1a5e995960421b604482015290519081900360640190fd5b61198a81613ce3565b6119d2576040805162461bcd60e51b815260206004820152601460248201527330b2323932b9b99034b9903737ba10313abcb2b960611b604482015290519081900360640190fd5b6119da611925565b611a2b576040805162461bcd60e51b815260206004820152601d60248201527f6e6f206d696e696d756d20726169736520686173206265656e20736574000000604482015290519081900360640190fd5b611a33612a02565b611a84576040805162461bcd60e51b815260206004820152601e60248201527f6d696e696d756d20726169736520686173206265656e20726561636865640000604482015290519081900360640190fd5b600060108281548110611a9357fe5b906000526020600020906004020190506000816003015411611afc576040805162461bcd60e51b815260206004820152601760248201527f707572636861736520616d6f756e74206973207a65726f000000000000000000604482015290519081900360640190fd5b805460ff60d01b1916600160d01b178155611b156116be565b15611b50576003810154604051339180156108fc02916000818181858888f19350505050158015611b4a573d6000803e3d6000fd5b506117b8565b60038101546007546117b8916001600160a01b03909116903390613df1565b611b7a6000336130d8565b611bb9576040805162461bcd60e51b81526020600482015260196024820152600080516020614b29833981519152604482015290519081900360640190fd5b611bc1612115565b611c12576040805162461bcd60e51b815260206004820152601a60248201527f6e6f74206265666f72652073746172742074696d652f64617465000000000000604482015290519081900360640190fd5b600a83511115611c535760405162461bcd60e51b8152600401808060200182810382526023815260200180614abc6023913960400191505060405180910390fd5b81518351148015611c65575080518351145b611cad576040805162461bcd60e51b8152602060048201526014602482015273086c2e8cacedee4d2cae640dad2e6e6dac2e8c6d60631b604482015290519081900360640190fd5b6000805b8451811015611da2576040518060600160405280868381518110611cd157fe5b60200260200101518152602001858381518110611cea57fe5b60200260200101518152602001848381518110611d0357fe5b602002602001015181525060136000878481518110611d1e57fe5b60200260200101518152602001908152602001600020600082015181600001556020820151816001015560408201518160020155905050611d98611d91848381518110611d6757fe5b6020026020010151868481518110611d7b57fe5b6020026020010151613d1490919063ffffffff16565b8390613d6d565b9150600101611cb1565b508351611db6906012906020870190614894565b50600f55505050565b611dca6000336130d8565b611e09576040805162461bcd60e51b81526020600482015260196024820152600080516020614b29833981519152604482015290519081900360640190fd5b611e116128de565b15611e56576040805162461bcd60e51b815260206004820152601060248201526f14185d5cd8589b194e881c185d5cd95960821b604482015290519081900360640190fd5b611e5e61270e565b611eaa576040805162461bcd60e51b81526020600482015260186024820152771cd85b19481a185cc81d1bc8189948199a5b985b1a5e995960421b604482015290519081900360640190fd5b611eb26138b9565b611eff576040805162461bcd60e51b81526020600482015260196024820152781b5a5b9a5b5d5b481c985a5cd9481b9bdd081c995858da1959603a1b604482015290519081900360640190fd5b611f076116be565b15611fa85773aeb39b67f27b641ef9f95fb74f1a46b1ee4efc836001600160a01b03166108fc611f4d6064611f4760085447613d1490919063ffffffff16565b90613e48565b6040518115909202916000818181858888f19350505050158015611f75573d6000803e3d6000fd5b5060405133904780156108fc02916000818181858888f19350505050158015611fa2573d6000803e3d6000fd5b506120ee565b600854600754604080516370a0823160e01b8152306004820152905161205e9373aeb39b67f27b641ef9f95fb74f1a46b1ee4efc839361204b93606493611f4793926001600160a01b0316916370a08231916024808301926020929190829003018186803b15801561201957600080fd5b505afa15801561202d573d6000803e3d6000fd5b505050506040513d602081101561204357600080fd5b505190613d14565b6007546001600160a01b03169190613df1565b600754604080516370a0823160e01b815230600482015290516120ee9233926001600160a01b03909116916370a0823191602480820192602092909190829003018186803b1580156120af57600080fd5b505afa1580156120c3573d6000803e3d6000fd5b505050506040513d60208110156120d957600080fd5b50516007546001600160a01b03169190613df1565b565b60009081526001602052604090206002015490565b6010541190565b600b5442101590565b600954421090565b6000828152600160205260409020600201546121409061213b613eaf565b6130d8565b61217b5760405162461bcd60e51b815260040180806020018281038252602f81526020018061490e602f913960400191505060405180910390fd5b6117b88282613eb3565b61218d613eaf565b6001600160a01b0316816001600160a01b0316146121dc5760405162461bcd60e51b815260040180806020018281038252602f815260200180614b49602f913960400191505060405180910390fd5b6117b88282613f1c565b6000806000806000806121f887612105565b612245576040805162461bcd60e51b81526020600482015260196024820152781c1d5c98da185cd9525908191bd95cc81b9bdd08195e1a5cdd603a1b604482015290519081900360640190fd5b60006010888154811061225457fe5b60009182526020918290206040805160c08101825260049390930290910180546001600160a01b038116808552600160a01b820465ffffffffffff16958501869052600160d01b90910460ff16151592840183905260018201546060850181905260028301546080860181905260039093015460a0909501859052909d949c50919a509098509650945092505050565b6122ef6000336130d8565b61232e576040805162461bcd60e51b81526020600482015260196024820152600080516020614b29833981519152604482015290519081900360640190fd5b804210612382576040805162461bcd60e51b815260206004820181905260248201527f656e6420646174652068617320746f20626520696e2074686520667574757265604482015290519081900360640190fd5b80600954106123d8576040805162461bcd60e51b815260206004820152601a60248201527f656e642064617465206265666f72652073746172742064617465000000000000604482015290519081900360640190fd5b6009544210612420576040805162461bcd60e51b815260206004820152600f60248201526e185b1c9958591e481cdd185c9d1959608a1b604482015290519081900360640190fd5b600a55565b6000612432600383613ddc565b92915050565b600080606061244684612105565b6124875750506040805180820190915260198152781c1d5c98da185cd9525908191bd95cc81b9bdd08195e1a5cdd603a1b602082015260009150819061261d565b61248f61270e565b6124d457505060408051808201909152601881527f746f6b656e2073616c65206e6f742066696e616c697a65640000000000000000602082015260009150819061261d565b6124dc6128de565b1561252257505060408051808201909152601d81527f746f6b656e2073616c6520636f6e747261637420697320706175736564000000602082015260009150819061261d565b61252a612a02565b1561256c5750506040805180820190915260198152781b5a5b9a5b5d5b481c985a5cd9481b9bdd081c995858da1959603a1b602082015260009150819061261d565b60006010858154811061257b57fe5b906000526020600020906004020160020154905060006010868154811061259e57fe5b906000526020600020906004020160010154905060008211156125ed5760408051808201909152600f81526e726561647920746f2072656465656d60881b60208201529194509250905061261d565b6040805180820190915260118152706e6f7468696e6720746f2072656465656d60781b6020820152919450925090505b9193909250565b60606126306005613f85565b905090565b600081815260136020526040812060010154612698576040805162461bcd60e51b815260206004820152601760248201527f43617465676f727920646f6573206e6f74206578697374000000000000000000604482015290519081900360640190fd5b6000828152601360205260409020600201546126b48185613d14565b949350505050565b6126c76000336130d8565b612706576040805162461bcd60e51b81526020600482015260196024820152600080516020614b29833981519152604482015290519081900360640190fd5b6120ee614025565b600a5442101590565b61272f600080516020614adf833981519152336130d8565b61276e576040805162461bcd60e51b815260206004820152601c6024820152600080516020614a59833981519152604482015290519081900360640190fd5b612779600582613dc7565b156127b3576040516001600160a01b038216907ff9b68063b051b82957fa193585681240904fed808db8b30fc5a2d2202c6ed62790600090a25b50565b60095442101590565b60006127c96127b6565b801561263057506127d861270e565b15905090565b6001600160a01b03919091166000908152601760209081526040808320938352929052205460ff1690565b600f5481565b612827600080516020614adf833981519152336130d8565b612866576040805162461bcd60e51b815260206004820152601c6024820152600080516020614a59833981519152604482015290519081900360640190fd5b6128716005826140c5565b156127b3576040516001600160a01b038216907f2b6bf71b58b3583add364b3d9060ebf8019650f65f5be35f5464b9cb3e4ba2d490600090a250565b601460205281600052604060002081815481106128c957600080fd5b90600052602060002001600091509150505481565b60005460ff1690565b6000908152601660209081526040808320546013909252909120600101540390565b600061291484613cd6565b1561292157506000612945565b61292a84612425565b1561293757506001612945565b612942848484612a0c565b90505b9392505050565b60606126306003613f85565b612970600080516020614adf833981519152336130d8565b6129af576040805162461bcd60e51b815260206004820152601c6024820152600080516020614a59833981519152604482015290519081900360640190fd5b60028054821515600160a01b810260ff60a01b199092169190911790915560408051918252517fe905f7f52156c346547b9deb6fb3e2459db941ec55d073fd465129bf4b49fae69181900360200190a150565b600d54600e541090565b60408051606085811b6bffffffffffffffffffffffff1916602080840191909152603483018690523090911b60548301528251808303604801815260689092019092528051910120600254600091906001600160a01b0316612a6e8285612b21565b6001600160a01b03161495945050505050565b600e5481565b612a926000336130d8565b612ad1576040805162461bcd60e51b81526020600482015260196024820152600080516020614b29833981519152604482015290519081900360640190fd5b612ad96128de565b61205e576040805162461bcd60e51b815260206004820152601460248201527314185d5cd8589b194e881b9bdd081c185d5cd95960621b604482015290519081900360640190fd5b60008151604114612b79576040805162461bcd60e51b815260206004820152601960248201527f7369676e6174757265206973206e6f7420363520627974657300000000000000604482015290519081900360640190fd5b61294582612b86856140da565b9061412b565b612b976000336130d8565b612bd6576040805162461bcd60e51b81526020600482015260196024820152600080516020614b29833981519152604482015290519081900360640190fd5b612bde612115565b612c2f576040805162461bcd60e51b815260206004820152601a60248201527f6e6f74206265666f72652073746172742074696d652f64617465000000000000604482015290519081900360640190fd5b804210612c6d5760405162461bcd60e51b8152600401808060200182810382526029815260200180614a006029913960400191505060405180910390fd5b600a548111612cad5760405162461bcd60e51b815260040180806020018281038252602a8152602001806149b4602a913960400191505060405180910390fd5b600b55565b612cbd6000336130d8565b612cfc576040805162461bcd60e51b81526020600482015260196024820152600080516020614b29833981519152604482015290519081900360640190fd5b804210612d3a5760405162461bcd60e51b815260040180806020018281038252602281526020018061493d6022913960400191505060405180910390fd5b600a548110612d90576040805162461bcd60e51b815260206004820152601a60248201527f656e642064617465206265666f72652073746172742064617465000000000000604482015290519081900360640190fd5b6009544210612dd8576040805162461bcd60e51b815260206004820152600f60248201526e185b1c9958591e481cdd185c9d1959608a1b604482015290519081900360640190fd5b600955565b60108181548110612ded57600080fd5b600091825260209091206004909102018054600182015460028301546003909301546001600160a01b0383169450600160a01b830465ffffffffffff1693600160d01b90930460ff16929086565b612e466000336130d8565b612e85576040805162461bcd60e51b81526020600482015260196024820152600080516020614b29833981519152604482015290519081900360640190fd5b6120ee6141ab565b612ea5600080516020614adf833981519152336130d8565b612ee4576040805162461bcd60e51b815260206004820152601c6024820152600080516020614a59833981519152604482015290519081900360640190fd5b612eef6003826140c5565b156127b3576040516001600160a01b038216907fcdd2e9b91a56913d370075169cefa1602ba36be5301664f752192bb1709df75790600090a250565b600d5481565b6000828152600160205260408120612945908361422e565b612f546000336130d8565b612f93576040805162461bcd60e51b81526020600482015260196024820152600080516020614b29833981519152604482015290519081900360640190fd5b612f9b61270e565b612fe7576040805162461bcd60e51b81526020600482015260186024820152771cd85b19481a185cc81d1bc8189948199a5b985b1a5e995960421b604482015290519081900360640190fd5b6007546001600160a01b038381169116141561304a576040805162461bcd60e51b815260206004820152601b60248201527f746f6b656e206973207468652074726164652d696e20746f6b656e0000000000604482015290519081900360640190fd5b6117b881836001600160a01b03166370a08231306040518263ffffffff1660e01b815260040180826001600160a01b0316815260200191505060206040518083038186803b15801561309b57600080fd5b505afa1580156130af573d6000803e3d6000fd5b505050506040513d60208110156130c557600080fd5b50516001600160a01b0385169190613df1565b60008281526001602052604081206129459083613ddc565b6130fb6000336130d8565b61313a576040805162461bcd60e51b81526020600482015260196024820152600080516020614b29833981519152604482015290519081900360640190fd5b6131426128de565b61318a576040805162461bcd60e51b815260206004820152601460248201527314185d5cd8589b194e881b9bdd081c185d5cd95960621b604482015290519081900360640190fd5b60405133904780156108fc02916000818181858888f193505050501580156127b3573d6000803e3d6000fd5b6131ce600080516020614adf833981519152336130d8565b61320d576040805162461bcd60e51b815260206004820152601c6024820152600080516020614a59833981519152604482015290519081900360640190fd5b6000805b82518110156132555761324183828151811061322957fe5b60200260200101516005613dc790919063ffffffff16565b1561324d576001909101905b600101613211565b5080156117b8576040805182815290517fc2f03ca34d335e49d4d629b85db054d1ffb679b4fec2e06fe10d0e618b175ecb9181900360200190a15050565b60085481565b60105490565b600081565b60166020526000908152604090205481565b6132be6128de565b15613303576040805162461bcd60e51b815260206004820152601060248201526f14185d5cd8589b194e881c185d5cd95960821b604482015290519081900360640190fd5b61330b6127bf565b613352576040805162461bcd60e51b815260206004820152601360248201527239b0b632903430b9903a379031329037b832b760691b604482015290519081900360640190fd5b60025482908290600160a01b900460ff161561341d576002546001600160a01b03166133d75761338133612425565b6133d2576040805162461bcd60e51b815260206004820152601960248201527f6e6f74206f6e206f6e2d636861696e2077686974656c69737400000000000000604482015290519081900360640190fd5b61341d565b6133e2338383612909565b61341d5760405162461bcd60e51b81526004018080602001828103825260328152602001806149826032913960400191505060405180910390fd5b60006134298787612635565b90506134336116be565b1561348557803414613480576040805162461bcd60e51b8152602060048201526011602482015270496e76616c6964204554482076616c756560781b604482015290519081900360640190fd5b61349d565b60075461349d906001600160a01b031633308461423a565b6134a6866128e7565b8711156134fa576040805162461bcd60e51b815260206004820152601960248201527f616d6f756e74203e20746f6b656e7320617661696c61626c6500000000000000604482015290519081900360640190fd5b3360009081526014602090815260408083208054825181850281018501909352808352919290919083018282801561355157602002820191906000526020600020905b81548152602001906001019080831161353d575b505050505090506000805b82518110156135b3576135a9601084838151811061357657fe5b60200260200101518154811061358857fe5b90600052602060002090600402016003015483613d6d90919063ffffffff16565b915060010161355c565b5086156135c057866135c4565b600c545b6135ce8285613d6d565b1115613621576040805162461bcd60e51b815260206004820152601f60248201527f616d6f756e7420676f6573206f76657220696e646976696475616c206d617800604482015290519081900360640190fd5b60106040518060c00160405280336001600160a01b031681526020016136464261429a565b65ffffffffffff1681526020016000151581526020018a81526020018b815260200185815250908060018154018082558091505060019003906000526020600020906004020160009091909190915060008201518160000160006101000a8154816001600160a01b0302191690836001600160a01b0316021790555060208201518160000160146101000a81548165ffffffffffff021916908365ffffffffffff160217905550604082015181600001601a6101000a81548160ff021916908315150217905550606082015181600101556080820151816002015560a08201518160030155505060146000336001600160a01b03166001600160a01b0316815260200190815260200160002060016010805490500390806001815401808255809150506001900390600052602060002001600090919091909150556137ca8960156000336001600160a01b03166001600160a01b0316815260200190815260200160002060008b815260200190815260200160002054613d6d90919063ffffffff16565b3360008181526015602090815260408083208d84529091528120929092556011805460018101825592527f31ecc21a745e3968a04e9570e4425bc18fa8019c68028196b546d1669c200c6890910180546001600160a01b0319169091179055600e546138369084613d6d565b600e55600088815260166020526040902054613852908a613d6d565b6000898152601660209081526040918290209290925580518b815291820185905242828201525133918a917f3bd2ec39d671793c1c2b079177f138b819f053d317a62217f8f47f45b5e57d9e9181900360600190a3505050505050505050565b622f4d6090565b600d54600e54101590565b6138dc600080516020614adf833981519152336130d8565b61391b576040805162461bcd60e51b815260206004820152601c6024820152600080516020614a59833981519152604482015290519081900360640190fd5b600280546001600160a01b0319166001600160a01b0392909216919091179055565b6002546001600160a01b031681565b6060601280548060200260200160405190810160405280929190818152602001828054801561399a57602002820191906000526020600020905b815481526020019060010190808311613986575b5050505050905090565b6007546001600160a01b031681565b600a5481565b6001600160a01b038116600090815260146020908152604091829020805483518184028101840190945280845260609392830182828015613a1957602002820191906000526020600020905b815481526020019060010190808311613a05575b50505050509050919050565b60136020526000908152604090208054600182015460029092015490919083565b6000818152600160205260408120612432906142fb565b600082815260016020526040902060020154613a7b9061213b613eaf565b6121dc5760405162461bcd60e51b8152600401808060200182810382526030815260200180614a296030913960400191505060405180910390fd5b60128181548110613ac657600080fd5b600091825260209091200154905081565b613ae26000336130d8565b613b21576040805162461bcd60e51b81526020600482015260196024820152600080516020614b29833981519152604482015290519081900360640190fd5b600c55565b600b5481565b600c5481565b613b4a600080516020614adf833981519152336130d8565b613b89576040805162461bcd60e51b815260206004820152601c6024820152600080516020614a59833981519152604482015290519081900360640190fd5b613b94600382613dc7565b156127b3576040516001600160a01b038216907fa850ae9193f515cbae8d35e8925bd2be26627fc91bce650b8652ed254e9cab0390600090a250565b6002546000906001600160a01b0316613be98484612b21565b6001600160a01b0316149392505050565b600080516020614adf83398151915281565b73aeb39b67f27b641ef9f95fb74f1a46b1ee4efc8381565b601560209081526000928352604080842090915290825290205481565b600e54600f540390565b60118181548110613c5b57600080fd5b6000918252602090912001546001600160a01b0316905081565b6060601180548060200260200160405190810160405280929190818152602001828054801561399a57602002820191906000526020600020905b81546001600160a01b03168152600190910190602001808311613caf575050505050905090565b6000612432600583613ddc565b600060108281548110613cf257fe5b60009182526020909120600490910201546001600160a01b0316331492915050565b600082613d2357506000612432565b82820282848281613d3057fe5b04146129455760405162461bcd60e51b8152600401808060200182810382526021815260200180614a9b6021913960400191505060405180910390fd5b600082820183811015612945576040805162461bcd60e51b815260206004820152601b60248201527f536166654d6174683a206164646974696f6e206f766572666c6f770000000000604482015290519081900360640190fd5b6000612945836001600160a01b038416614306565b6000612945836001600160a01b038416614350565b604080516001600160a01b038416602482015260448082018490528251808303909101815260649091019091526020810180516001600160e01b031663a9059cbb60e01b179052613e43908490614368565b505050565b6000808211613e9e576040805162461bcd60e51b815260206004820152601a60248201527f536166654d6174683a206469766973696f6e206279207a65726f000000000000604482015290519081900360640190fd5b818381613ea757fe5b049392505050565b3390565b6000828152600160205260409020613ecb9082613dc7565b156117b857613ed8613eaf565b6001600160a01b0316816001600160a01b0316837f2f8788117e7eff1d82e926ec794901d17c78024a50270940304540a733656f0d60405160405180910390a45050565b6000828152600160205260409020613f3490826140c5565b156117b857613f41613eaf565b6001600160a01b0316816001600160a01b0316837ff6391f5c32d9c69d2a47ea670b442974b53935d1edc7fd64eb21e047a839171b60405160405180910390a45050565b60606000613f92836142fb565b67ffffffffffffffff81118015613fa857600080fd5b50604051908082528060200260200182016040528015613fd2578160200160208202803683370190505b50905060005b613fe1846142fb565b81101561401e57613ff2848261422e565b828281518110613ffe57fe5b6001600160a01b0390921660209283029190910190910152600101613fd8565b5092915050565b61402d6128de565b614075576040805162461bcd60e51b815260206004820152601460248201527314185d5cd8589b194e881b9bdd081c185d5cd95960621b604482015290519081900360640190fd5b6000805460ff191690557f5db9ee0a495bf2e6ff9c91a7834c1ba4fdd244a5e8aa4e537bd38aeae4b073aa6140a8613eaf565b604080516001600160a01b039092168252519081900360200190a1565b6000612945836001600160a01b038416614419565b604080517f19457468657265756d205369676e6564204d6573736167653a0a333200000000602080830191909152603c8083019490945282518083039094018452605c909101909152815191012090565b60008151604114614183576040805162461bcd60e51b815260206004820152601f60248201527f45434453413a20696e76616c6964207369676e6174757265206c656e67746800604482015290519081900360640190fd5b60208201516040830151606084015160001a6141a1868285856144df565b9695505050505050565b6141b36128de565b156141f8576040805162461bcd60e51b815260206004820152601060248201526f14185d5cd8589b194e881c185d5cd95960821b604482015290519081900360640190fd5b6000805460ff191660011790557f62e78cea01bee320cd4e420270b5ea74000d11b0c9f74754ebdbfc544b05a2586140a8613eaf565b6000612945838361465d565b604080516001600160a01b0380861660248301528416604482015260648082018490528251808303909101815260849091019091526020810180516001600160e01b03166323b872dd60e01b179052614294908590614368565b50505050565b6000660100000000000082106142f7576040805162461bcd60e51b815260206004820152601c60248201527f76616c756520646f65736e27742066697420696e203438206269747300000000604482015290519081900360640190fd5b5090565b6000612432826146c1565b60006143128383614350565b61434857508154600181810184556000848152602080822090930184905584548482528286019093526040902091909155612432565b506000612432565b60009081526001919091016020526040902054151590565b60006143bd826040518060400160405280602081526020017f5361666545524332303a206c6f772d6c6576656c2063616c6c206661696c6564815250856001600160a01b03166146c59092919063ffffffff16565b805190915015613e43578080602001905160208110156143dc57600080fd5b5051613e435760405162461bcd60e51b815260040180806020018281038252602a815260200180614aff602a913960400191505060405180910390fd5b600081815260018301602052604081205480156144d5578354600019808301919081019060009087908390811061444c57fe5b906000526020600020015490508087600001848154811061446957fe5b60009182526020808320909101929092558281526001898101909252604090209084019055865487908061449957fe5b60019003818190600052602060002001600090559055866001016000878152602001908152602001600020600090556001945050505050612432565b6000915050612432565b60007f7fffffffffffffffffffffffffffffff5d576e7357a4501ddfe92f46681b20a08211156145405760405162461bcd60e51b81526004018080602001828103825260228152602001806149de6022913960400191505060405180910390fd5b8360ff16601b148061455557508360ff16601c145b6145905760405162461bcd60e51b8152600401808060200182810382526022815260200180614a796022913960400191505060405180910390fd5b600060018686868660405160008152602001604052604051808581526020018460ff1681526020018381526020018281526020019450505050506020604051602081039080840390855afa1580156145ec573d6000803e3d6000fd5b5050604051601f1901519150506001600160a01b038116614654576040805162461bcd60e51b815260206004820152601860248201527f45434453413a20696e76616c6964207369676e61747572650000000000000000604482015290519081900360640190fd5b95945050505050565b8154600090821061469f5760405162461bcd60e51b81526004018080602001828103825260228152602001806148ec6022913960400191505060405180910390fd5b8260000182815481106146ae57fe5b9060005260206000200154905092915050565b5490565b60606129428484600085856146d9856147ea565b61472a576040805162461bcd60e51b815260206004820152601d60248201527f416464726573733a2063616c6c20746f206e6f6e2d636f6e7472616374000000604482015290519081900360640190fd5b600080866001600160a01b031685876040518082805190602001908083835b602083106147685780518252601f199092019160209182019101614749565b6001836020036101000a03801982511681845116808217855250505050505090500191505060006040518083038185875af1925050503d80600081146147ca576040519150601f19603f3d011682016040523d82523d6000602084013e6147cf565b606091505b50915091506147df8282866147f0565b979650505050505050565b3b151590565b606083156147ff575081612945565b82511561480f5782518084602001fd5b8160405162461bcd60e51b81526004018080602001828103825283818151815260200191508051906020019080838360005b83811015614859578181015183820152602001614841565b50505050905090810190601f1680156148865780820380516001836020036101000a031916815260200191505b509250505060405180910390fd5b8280548282559060005260206000209081019282156148cf579160200282015b828111156148cf5782518255916020019190600101906148b4565b506142f79291505b808211156142f757600081556001016148d756fe456e756d657261626c655365743a20696e646578206f7574206f6620626f756e6473416363657373436f6e74726f6c3a2073656e646572206d75737420626520616e2061646d696e20746f206772616e74737461727420646174652068617320746f20626520696e2074686520667574757265646973747269627574696f6e2064617465206d757374206265207375727061737365646e6f74206f6e206f66662d636861696e2077686974656c697374206f722077726f6e67206d617820616c6c6f636174696f6e646973747269627574696f6e20646174652068617320746f20626520616674657220656e64206461746545434453413a20696e76616c6964207369676e6174757265202773272076616c7565646973747269627574696f6e20646174652068617320746f20626520696e2074686520667574757265416363657373436f6e74726f6c3a2073656e646572206d75737420626520616e2061646d696e20746f207265766f6b6563616c6c6572206973206e6f742057686974656c6973744f776e65720000000045434453413a20696e76616c6964207369676e6174757265202776272076616c7565536166654d6174683a206d756c7469706c69636174696f6e206f766572666c6f7743616e6e6f742068617665206d6f7265207468616e2031302063617465676f72696573b813b807c25079ba97f1770664c6a9e57c59afe74a6295f1ed01c10e3bb6baae5361666545524332303a204552433230206f7065726174696f6e20646964206e6f74207375636365656463616c6c657220686173206e6f742061646d696e20726f6c6500000000000000416363657373436f6e74726f6c3a2063616e206f6e6c792072656e6f756e636520726f6c657320666f722073656c66a2646970667358221220d26d2810f582b621377029f9f7abfbdb208ffc2d7f01b88884bfa1c17ae9fdc764736f6c63430007060033536166654d6174683a206d756c7469706c69636174696f6e206f766572666c6f7743616e6e6f742068617665206d6f7265207468616e2031302063617465676f72696573",
  "linkReferences": {},
  "deployedLinkReferences": {}
}