{
  "_format": "hh-sol-artifact-1",
  "contractName": "FixedSwap",
  "sourceName": "contracts/FixedSwap.sol",
  "abi": [
    {
      "inputs": [
        {
          "internalType": "address",
          "name": "_tokenAddress",
          "type": "address"
        },
        {
          "internalType": "uint256",
          "name": "_tradeValue",
          "type": "uint256"
        },
        {
          "internalType": "uint256",
          "name": "_tokensForSale",
          "type": "uint256"
        },
        {
          "internalType": "uint256",
          "name": "_startDate",
          "type": "uint256"
        },
        {
          "internalType": "uint256",
          "name": "_endDate",
          "type": "uint256"
        },
        {
          "internalType": "uint256",
          "name": "_individualMinimumAmount",
          "type": "uint256"
        },
        {
          "internalType": "uint256",
          "name": "_individualMaximumAmount",
          "type": "uint256"
        },
        {
          "internalType": "bool",
          "name": "_ignored",
          "type": "bool"
        },
        {
          "internalType": "uint256",
          "name": "_minimumRaise",
          "type": "uint256"
        },
        {
          "internalType": "uint256",
          "name": "_feePercentage",
          "type": "uint256"
        },
        {
          "internalType": "uint32",
          "name": "_flags",
          "type": "uint32"
        },
        {
          "internalType": "address",
          "name": "_erc20TradeAddress",
          "type": "address"
        }
      ],
      "stateMutability": "nonpayable",
      "type": "constructor"
    },
    {
      "anonymous": false,
      "inputs": [
        {
          "indexed": false,
          "internalType": "uint256",
          "name": "count",
          "type": "uint256"
        }
      ],
      "name": "AddedArrayToBlacklist",
      "type": "event"
    },
    {
      "anonymous": false,
      "inputs": [
        {
          "indexed": false,
          "internalType": "uint256",
          "name": "count",
          "type": "uint256"
        }
      ],
      "name": "AddedArrayToWhitelist",
      "type": "event"
    },
    {
      "anonymous": false,
      "inputs": [
        {
          "indexed": true,
          "internalType": "address",
          "name": "account",
          "type": "address"
        }
      ],
      "name": "AddedToBlacklist",
      "type": "event"
    },
    {
      "anonymous": false,
      "inputs": [
        {
          "indexed": true,
          "internalType": "address",
          "name": "account",
          "type": "address"
        }
      ],
      "name": "AddedToWhitelist",
      "type": "event"
    },
    {
      "anonymous": false,
      "inputs": [
        {
          "indexed": false,
          "internalType": "address",
          "name": "account",
          "type": "address"
        }
      ],
      "name": "Paused",
      "type": "event"
    },
    {
      "anonymous": false,
      "inputs": [
        {
          "indexed": false,
          "internalType": "uint256",
          "name": "amount",
          "type": "uint256"
        },
        {
          "indexed": true,
          "internalType": "address",
          "name": "purchaser",
          "type": "address"
        },
        {
          "indexed": false,
          "internalType": "uint256",
          "name": "timestamp",
          "type": "uint256"
        }
      ],
      "name": "PurchaseEvent",
      "type": "event"
    },
    {
      "anonymous": false,
      "inputs": [
        {
          "indexed": true,
          "internalType": "address",
          "name": "account",
          "type": "address"
        }
      ],
      "name": "RemovedFromBlacklist",
      "type": "event"
    },
    {
      "anonymous": false,
      "inputs": [
        {
          "indexed": true,
          "internalType": "address",
          "name": "account",
          "type": "address"
        }
      ],
      "name": "RemovedFromWhitelist",
      "type": "event"
    },
    {
      "anonymous": false,
      "inputs": [
        {
          "indexed": true,
          "internalType": "bytes32",
          "name": "role",
          "type": "bytes32"
        },
        {
          "indexed": true,
          "internalType": "bytes32",
          "name": "previousAdminRole",
          "type": "bytes32"
        },
        {
          "indexed": true,
          "internalType": "bytes32",
          "name": "newAdminRole",
          "type": "bytes32"
        }
      ],
      "name": "RoleAdminChanged",
      "type": "event"
    },
    {
      "anonymous": false,
      "inputs": [
        {
          "indexed": true,
          "internalType": "bytes32",
          "name": "role",
          "type": "bytes32"
        },
        {
          "indexed": true,
          "internalType": "address",
          "name": "account",
          "type": "address"
        },
        {
          "indexed": true,
          "internalType": "address",
          "name": "sender",
          "type": "address"
        }
      ],
      "name": "RoleGranted",
      "type": "event"
    },
    {
      "anonymous": false,
      "inputs": [
        {
          "indexed": true,
          "internalType": "bytes32",
          "name": "role",
          "type": "bytes32"
        },
        {
          "indexed": true,
          "internalType": "address",
          "name": "account",
          "type": "address"
        },
        {
          "indexed": true,
          "internalType": "address",
          "name": "sender",
          "type": "address"
        }
      ],
      "name": "RoleRevoked",
      "type": "event"
    },
    {
      "anonymous": false,
      "inputs": [
        {
          "indexed": false,
          "internalType": "bool",
          "name": "hasWhitelisting",
          "type": "bool"
        }
      ],
      "name": "SetHasWhitelisting",
      "type": "event"
    },
    {
      "anonymous": false,
      "inputs": [
        {
          "indexed": false,
          "internalType": "address",
          "name": "account",
          "type": "address"
        }
      ],
      "name": "Unpaused",
      "type": "event"
    },
    {
      "inputs": [],
      "name": "DECIMALS_PERCENT_MUL",
      "outputs": [
        {
          "internalType": "uint256",
          "name": "",
          "type": "uint256"
        }
      ],
      "stateMutability": "view",
      "type": "function"
    },
    {
      "inputs": [],
      "name": "DEFAULT_ADMIN_ROLE",
      "outputs": [
        {
          "internalType": "bytes32",
          "name": "",
          "type": "bytes32"
        }
      ],
      "stateMutability": "view",
      "type": "function"
    },
    {
      "inputs": [],
      "name": "FEE_ADDRESS",
      "outputs": [
        {
          "internalType": "address",
          "name": "",
          "type": "address"
        }
      ],
      "stateMutability": "view",
      "type": "function"
    },
    {
      "inputs": [],
      "name": "PolsStakeAddress",
      "outputs": [
        {
          "internalType": "address",
          "name": "",
          "type": "address"
        }
      ],
      "stateMutability": "view",
      "type": "function"
    },
    {
      "inputs": [],
      "name": "PolsStakeAmount",
      "outputs": [
        {
          "internalType": "uint256",
          "name": "",
          "type": "uint256"
        }
      ],
      "stateMutability": "view",
      "type": "function"
    },
    {
      "inputs": [],
      "name": "PolsStakeRewards",
      "outputs": [
        {
          "internalType": "uint256",
          "name": "",
          "type": "uint256"
        }
      ],
      "stateMutability": "view",
      "type": "function"
    },
    {
      "inputs": [],
      "name": "WHITELIST_OWNER_ROLE",
      "outputs": [
        {
          "internalType": "bytes32",
          "name": "",
          "type": "bytes32"
        }
      ],
      "stateMutability": "view",
      "type": "function"
    },
    {
      "inputs": [
        {
          "internalType": "address[]",
          "name": "_addresses",
          "type": "address[]"
        }
      ],
      "name": "addArrayToBlacklist",
      "outputs": [],
      "stateMutability": "nonpayable",
      "type": "function"
    },
    {
      "inputs": [
        {
          "internalType": "address[]",
          "name": "_addresses",
          "type": "address[]"
        }
      ],
      "name": "addArrayToWhitelist",
      "outputs": [],
      "stateMutability": "nonpayable",
      "type": "function"
    },
    {
      "inputs": [
        {
          "internalType": "address",
          "name": "_address",
          "type": "address"
        }
      ],
      "name": "addToBlacklist",
      "outputs": [],
      "stateMutability": "nonpayable",
      "type": "function"
    },
    {
      "inputs": [
        {
          "internalType": "address",
          "name": "_address",
          "type": "address"
        }
      ],
      "name": "addToWhitelist",
      "outputs": [],
      "stateMutability": "nonpayable",
      "type": "function"
    },
    {
      "inputs": [],
      "name": "availableTokens",
      "outputs": [
        {
          "internalType": "uint256",
          "name": "",
          "type": "uint256"
        }
      ],
      "stateMutability": "view",
      "type": "function"
    },
    {
      "inputs": [
        {
          "internalType": "uint256",
          "name": "",
          "type": "uint256"
        }
      ],
      "name": "buyers",
      "outputs": [
        {
          "internalType": "address",
          "name": "",
          "type": "address"
        }
      ],
      "stateMutability": "view",
      "type": "function"
    },
    {
      "inputs": [
        {
          "internalType": "uint256",
          "name": "_amount",
          "type": "uint256"
        }
      ],
      "name": "cost",
      "outputs": [
        {
          "internalType": "uint256",
          "name": "",
          "type": "uint256"
        }
      ],
      "stateMutability": "view",
      "type": "function"
    },
    {
      "inputs": [
        {
          "internalType": "address",
          "name": "_account",
          "type": "address"
        },
        {
          "internalType": "uint256",
          "name": "_accountMaximunAllocation",
          "type": "uint256"
        },
        {
          "internalType": "bytes",
          "name": "_signature",
          "type": "bytes"
        }
      ],
      "name": "determineAccountMaximunAllocation",
      "outputs": [
        {
          "internalType": "uint256",
          "name": "",
          "type": "uint256"
        }
      ],
      "stateMutability": "view",
      "type": "function"
    },
    {
      "inputs": [],
      "name": "endDate",
      "outputs": [
        {
          "internalType": "uint256",
          "name": "",
          "type": "uint256"
        }
      ],
      "stateMutability": "view",
      "type": "function"
    },
    {
      "inputs": [],
      "name": "erc20",
      "outputs": [
        {
          "internalType": "contract IERC20",
          "name": "",
          "type": "address"
        }
      ],
      "stateMutability": "view",
      "type": "function"
    },
    {
      "inputs": [],
      "name": "erc20TradeIn",
      "outputs": [
        {
          "internalType": "contract IERC20",
          "name": "",
          "type": "address"
        }
      ],
      "stateMutability": "view",
      "type": "function"
    },
    {
      "inputs": [],
      "name": "feePercentage",
      "outputs": [
        {
          "internalType": "uint256",
          "name": "",
          "type": "uint256"
        }
      ],
      "stateMutability": "view",
      "type": "function"
    },
    {
      "inputs": [
        {
          "internalType": "uint256",
          "name": "_amount",
          "type": "uint256"
        }
      ],
      "name": "fund",
      "outputs": [],
      "stateMutability": "nonpayable",
      "type": "function"
    },
    {
      "inputs": [],
      "name": "getAPIVersion",
      "outputs": [
        {
          "internalType": "uint32",
          "name": "API_VERSION",
          "type": "uint32"
        }
      ],
      "stateMutability": "pure",
      "type": "function"
    },
    {
      "inputs": [],
      "name": "getBlacklistedAddresses",
      "outputs": [
        {
          "internalType": "address[]",
          "name": "",
          "type": "address[]"
        }
      ],
      "stateMutability": "view",
      "type": "function"
    },
    {
      "inputs": [],
      "name": "getBuyers",
      "outputs": [
        {
          "internalType": "address[]",
          "name": "",
          "type": "address[]"
        }
      ],
      "stateMutability": "view",
      "type": "function"
    },
    {
      "inputs": [],
      "name": "getCurrentSchedule",
      "outputs": [
        {
          "internalType": "uint256",
          "name": "schedule",
          "type": "uint256"
        }
      ],
      "stateMutability": "view",
      "type": "function"
    },
    {
      "inputs": [
        {
          "internalType": "address",
          "name": "_address",
          "type": "address"
        }
      ],
      "name": "getMyPurchases",
      "outputs": [
        {
          "internalType": "uint256[]",
          "name": "",
          "type": "uint256[]"
        }
      ],
      "stateMutability": "view",
      "type": "function"
    },
    {
      "inputs": [],
      "name": "getMyPurchases_msgSender",
      "outputs": [
        {
          "internalType": "uint256[]",
          "name": "",
          "type": "uint256[]"
        }
      ],
      "stateMutability": "view",
      "type": "function"
    },
    {
      "inputs": [
        {
          "internalType": "uint256",
          "name": "purchase_id",
          "type": "uint256"
        }
      ],
      "name": "getPurchase",
      "outputs": [
        {
          "internalType": "uint256",
          "name": "amount",
          "type": "uint256"
        },
        {
          "internalType": "address",
          "name": "purchaser",
          "type": "address"
        },
        {
          "internalType": "uint256",
          "name": "costAmount",
          "type": "uint256"
        },
        {
          "internalType": "uint48",
          "name": "timestamp",
          "type": "uint48"
        },
        {
          "internalType": "bool",
          "name": "wasFinalized",
          "type": "bool"
        },
        {
          "internalType": "bool",
          "name": "reverted",
          "type": "bool"
        },
        {
          "internalType": "uint256",
          "name": "amountRedeemed",
          "type": "uint256"
        }
      ],
      "stateMutability": "view",
      "type": "function"
    },
    {
      "inputs": [],
      "name": "getPurchasesCount",
      "outputs": [
        {
          "internalType": "uint256",
          "name": "count",
          "type": "uint256"
        }
      ],
      "stateMutability": "view",
      "type": "function"
    },
    {
      "inputs": [
        {
          "internalType": "uint256",
          "name": "purchase_id",
          "type": "uint256"
        }
      ],
      "name": "getRedeemStatus",
      "outputs": [
        {
          "internalType": "uint256",
          "name": "amount",
          "type": "uint256"
        },
        {
          "internalType": "uint256",
          "name": "amountRedeemed",
          "type": "uint256"
        },
        {
          "internalType": "uint256",
          "name": "vestAmount",
          "type": "uint256"
        },
        {
          "internalType": "string",
          "name": "message",
          "type": "string"
        }
      ],
      "stateMutability": "view",
      "type": "function"
    },
    {
      "inputs": [
        {
          "internalType": "uint256",
          "name": "purchase_id",
          "type": "uint256"
        }
      ],
      "name": "getRedeemableTokensAmount",
      "outputs": [
        {
          "internalType": "uint256",
          "name": "amount",
          "type": "uint256"
        },
        {
          "internalType": "string",
          "name": "message",
          "type": "string"
        }
      ],
      "stateMutability": "view",
      "type": "function"
    },
    {
      "inputs": [
        {
          "internalType": "bytes32",
          "name": "role",
          "type": "bytes32"
        }
      ],
      "name": "getRoleAdmin",
      "outputs": [
        {
          "internalType": "bytes32",
          "name": "",
          "type": "bytes32"
        }
      ],
      "stateMutability": "view",
      "type": "function"
    },
    {
      "inputs": [
        {
          "internalType": "uint256",
          "name": "_value",
          "type": "uint256"
        }
      ],
      "name": "getTokenAmountForETH",
      "outputs": [
        {
          "internalType": "uint256",
          "name": "",
          "type": "uint256"
        }
      ],
      "stateMutability": "view",
      "type": "function"
    },
    {
      "inputs": [],
      "name": "getWhitelistedAddresses",
      "outputs": [
        {
          "internalType": "address[]",
          "name": "",
          "type": "address[]"
        }
      ],
      "stateMutability": "view",
      "type": "function"
    },
    {
      "inputs": [
        {
          "internalType": "bytes32",
          "name": "role",
          "type": "bytes32"
        },
        {
          "internalType": "address",
          "name": "account",
          "type": "address"
        }
      ],
      "name": "grantRole",
      "outputs": [],
      "stateMutability": "nonpayable",
      "type": "function"
    },
    {
      "inputs": [],
      "name": "hasFinalized",
      "outputs": [
        {
          "internalType": "bool",
          "name": "",
          "type": "bool"
        }
      ],
      "stateMutability": "view",
      "type": "function"
    },
    {
      "inputs": [],
      "name": "hasMinimumAmount",
      "outputs": [
        {
          "internalType": "bool",
          "name": "",
          "type": "bool"
        }
      ],
      "stateMutability": "view",
      "type": "function"
    },
    {
      "inputs": [],
      "name": "hasMinimumRaise",
      "outputs": [
        {
          "internalType": "bool",
          "name": "",
          "type": "bool"
        }
      ],
      "stateMutability": "view",
      "type": "function"
    },
    {
      "inputs": [
        {
          "internalType": "bytes32",
          "name": "role",
          "type": "bytes32"
        },
        {
          "internalType": "address",
          "name": "account",
          "type": "address"
        }
      ],
      "name": "hasRole",
      "outputs": [
        {
          "internalType": "bool",
          "name": "",
          "type": "bool"
        }
      ],
      "stateMutability": "view",
      "type": "function"
    },
    {
      "inputs": [],
      "name": "hasStarted",
      "outputs": [
        {
          "internalType": "bool",
          "name": "",
          "type": "bool"
        }
      ],
      "stateMutability": "view",
      "type": "function"
    },
    {
      "inputs": [],
      "name": "hasWhitelisting",
      "outputs": [
        {
          "internalType": "bool",
          "name": "",
          "type": "bool"
        }
      ],
      "stateMutability": "view",
      "type": "function"
    },
    {
      "inputs": [],
      "name": "individualMaximumAmount",
      "outputs": [
        {
          "internalType": "uint256",
          "name": "",
          "type": "uint256"
        }
      ],
      "stateMutability": "view",
      "type": "function"
    },
    {
      "inputs": [],
      "name": "individualMinimumAmount",
      "outputs": [
        {
          "internalType": "uint256",
          "name": "",
          "type": "uint256"
        }
      ],
      "stateMutability": "view",
      "type": "function"
    },
    {
      "inputs": [
        {
          "internalType": "address",
          "name": "_account",
          "type": "address"
        }
      ],
      "name": "isAddressPOLSWhitelisted",
      "outputs": [
        {
          "internalType": "bool",
          "name": "",
          "type": "bool"
        }
      ],
      "stateMutability": "view",
      "type": "function"
    },
    {
      "inputs": [
        {
          "internalType": "address",
          "name": "_address",
          "type": "address"
        }
      ],
      "name": "isBlacklisted",
      "outputs": [
        {
          "internalType": "bool",
          "name": "",
          "type": "bool"
        }
      ],
      "stateMutability": "view",
      "type": "function"
    },
    {
      "inputs": [
        {
          "internalType": "uint256",
          "name": "purchase_id",
          "type": "uint256"
        }
      ],
      "name": "isBuyer",
      "outputs": [
        {
          "internalType": "bool",
          "name": "",
          "type": "bool"
        }
      ],
      "stateMutability": "view",
      "type": "function"
    },
    {
      "inputs": [],
      "name": "isETHTrade",
      "outputs": [
        {
          "internalType": "bool",
          "name": "",
          "type": "bool"
        }
      ],
      "stateMutability": "view",
      "type": "function"
    },
    {
      "inputs": [],
      "name": "isOpen",
      "outputs": [
        {
          "internalType": "bool",
          "name": "",
          "type": "bool"
        }
      ],
      "stateMutability": "view",
      "type": "function"
    },
    {
      "inputs": [],
      "name": "isPOLSWhitelisted",
      "outputs": [
        {
          "internalType": "bool",
          "name": "",
          "type": "bool"
        }
      ],
      "stateMutability": "view",
      "type": "function"
    },
    {
      "inputs": [],
      "name": "isPreStart",
      "outputs": [
        {
          "internalType": "bool",
          "name": "",
          "type": "bool"
        }
      ],
      "stateMutability": "view",
      "type": "function"
    },
    {
      "inputs": [],
      "name": "isSaleFunded",
      "outputs": [
        {
          "internalType": "bool",
          "name": "",
          "type": "bool"
        }
      ],
      "stateMutability": "view",
      "type": "function"
    },
    {
      "inputs": [
        {
          "internalType": "address",
          "name": "_userAccountAaddress",
          "type": "address"
        },
        {
          "internalType": "uint256",
          "name": "_accountMaximunAllocation",
          "type": "uint256"
        },
        {
          "internalType": "bytes",
          "name": "signature",
          "type": "bytes"
        }
      ],
      "name": "isSignerForAddressMaxAlloc",
      "outputs": [
        {
          "internalType": "bool",
          "name": "",
          "type": "bool"
        }
      ],
      "stateMutability": "view",
      "type": "function"
    },
    {
      "inputs": [
        {
          "internalType": "bytes32",
          "name": "hash",
          "type": "bytes32"
        },
        {
          "internalType": "bytes",
          "name": "signature",
          "type": "bytes"
        }
      ],
      "name": "isSignerFromBytes32",
      "outputs": [
        {
          "internalType": "bool",
          "name": "",
          "type": "bool"
        }
      ],
      "stateMutability": "view",
      "type": "function"
    },
    {
      "inputs": [],
      "name": "isTokenSwapAtomic",
      "outputs": [
        {
          "internalType": "bool",
          "name": "",
          "type": "bool"
        }
      ],
      "stateMutability": "view",
      "type": "function"
    },
    {
      "inputs": [
        {
          "internalType": "address",
          "name": "_address",
          "type": "address"
        }
      ],
      "name": "isWhitelisted",
      "outputs": [
        {
          "internalType": "bool",
          "name": "",
          "type": "bool"
        }
      ],
      "stateMutability": "view",
      "type": "function"
    },
    {
      "inputs": [],
      "name": "localETHDepositArbitrum",
      "outputs": [
        {
          "internalType": "address",
          "name": "",
          "type": "address"
        }
      ],
      "stateMutability": "view",
      "type": "function"
    },
    {
      "inputs": [],
      "name": "localETHDepositOptimism",
      "outputs": [
        {
          "internalType": "address",
          "name": "",
          "type": "address"
        }
      ],
      "stateMutability": "view",
      "type": "function"
    },
    {
      "inputs": [],
      "name": "minimumRaise",
      "outputs": [
        {
          "internalType": "uint256",
          "name": "",
          "type": "uint256"
        }
      ],
      "stateMutability": "view",
      "type": "function"
    },
    {
      "inputs": [],
      "name": "minimumRaiseAchieved",
      "outputs": [
        {
          "internalType": "bool",
          "name": "",
          "type": "bool"
        }
      ],
      "stateMutability": "view",
      "type": "function"
    },
    {
      "inputs": [],
      "name": "minimumRaiseNotAchieved",
      "outputs": [
        {
          "internalType": "bool",
          "name": "",
          "type": "bool"
        }
      ],
      "stateMutability": "view",
      "type": "function"
    },
    {
      "inputs": [
        {
          "internalType": "address",
          "name": "",
          "type": "address"
        },
        {
          "internalType": "uint256",
          "name": "",
          "type": "uint256"
        }
      ],
      "name": "myPurchases",
      "outputs": [
        {
          "internalType": "uint256",
          "name": "",
          "type": "uint256"
        }
      ],
      "stateMutability": "view",
      "type": "function"
    },
    {
      "inputs": [
        {
          "components": [
            {
              "internalType": "bytes32",
              "name": "sourceTxHash",
              "type": "bytes32"
            },
            {
              "internalType": "string",
              "name": "sourceChain",
              "type": "string"
            },
            {
              "internalType": "string",
              "name": "destChain",
              "type": "string"
            },
            {
              "internalType": "uint64",
              "name": "nonce",
              "type": "uint64"
            },
            {
              "internalType": "address",
              "name": "from",
              "type": "address"
            },
            {
              "internalType": "address",
              "name": "to",
              "type": "address"
            },
            {
              "internalType": "uint256",
              "name": "value",
              "type": "uint256"
            },
            {
              "internalType": "uint256",
              "name": "paid",
              "type": "uint256"
            },
            {
              "internalType": "uint64",
              "name": "gasLimit",
              "type": "uint64"
            },
            {
              "internalType": "bytes",
              "name": "data",
              "type": "bytes"
            }
          ],
          "internalType": "struct OmniCodec.Tx",
          "name": "_xtx",
          "type": "tuple"
        },
        {
          "internalType": "address",
          "name": "_sender",
          "type": "address"
        },
        {
          "internalType": "uint256",
          "name": "_gasSpent",
          "type": "uint256"
        }
      ],
      "name": "onXChainTxReverted",
      "outputs": [],
      "stateMutability": "nonpayable",
      "type": "function"
    },
    {
      "inputs": [
        {
          "components": [
            {
              "internalType": "bytes32",
              "name": "sourceTxHash",
              "type": "bytes32"
            },
            {
              "internalType": "string",
              "name": "sourceChain",
              "type": "string"
            },
            {
              "internalType": "string",
              "name": "destChain",
              "type": "string"
            },
            {
              "internalType": "uint64",
              "name": "nonce",
              "type": "uint64"
            },
            {
              "internalType": "address",
              "name": "from",
              "type": "address"
            },
            {
              "internalType": "address",
              "name": "to",
              "type": "address"
            },
            {
              "internalType": "uint256",
              "name": "value",
              "type": "uint256"
            },
            {
              "internalType": "uint256",
              "name": "paid",
              "type": "uint256"
            },
            {
              "internalType": "uint64",
              "name": "gasLimit",
              "type": "uint64"
            },
            {
              "internalType": "bytes",
              "name": "data",
              "type": "bytes"
            }
          ],
          "internalType": "struct OmniCodec.Tx",
          "name": "_xtx",
          "type": "tuple"
        },
        {
          "internalType": "address",
          "name": "_sender",
          "type": "address"
        },
        {
          "internalType": "bytes",
          "name": "_returnValue",
          "type": "bytes"
        },
        {
          "internalType": "uint256",
          "name": "_gasSpent",
          "type": "uint256"
        }
      ],
      "name": "onXChainTxSuccess",
      "outputs": [],
      "stateMutability": "nonpayable",
      "type": "function"
    },
    {
      "inputs": [],
      "name": "pause",
      "outputs": [],
      "stateMutability": "nonpayable",
      "type": "function"
    },
    {
      "inputs": [],
      "name": "paused",
      "outputs": [
        {
          "internalType": "bool",
          "name": "",
          "type": "bool"
        }
      ],
      "stateMutability": "view",
      "type": "function"
    },
    {
      "inputs": [
        {
          "internalType": "uint256",
          "name": "purchase_id",
          "type": "uint256"
        }
      ],
      "name": "purchaseExists",
      "outputs": [
        {
          "internalType": "bool",
          "name": "",
          "type": "bool"
        }
      ],
      "stateMutability": "view",
      "type": "function"
    },
    {
      "inputs": [
        {
          "internalType": "uint256",
          "name": "",
          "type": "uint256"
        }
      ],
      "name": "purchases",
      "outputs": [
        {
          "internalType": "address",
          "name": "purchaser",
          "type": "address"
        },
        {
          "internalType": "uint48",
          "name": "timestamp",
          "type": "uint48"
        },
        {
          "internalType": "bool",
          "name": "wasFinalized",
          "type": "bool"
        },
        {
          "internalType": "bool",
          "name": "reverted",
          "type": "bool"
        },
        {
          "internalType": "uint256",
          "name": "amount",
          "type": "uint256"
        },
        {
          "internalType": "uint256",
          "name": "costAmount",
          "type": "uint256"
        },
        {
          "internalType": "uint256",
          "name": "amountRedeemed",
          "type": "uint256"
        }
      ],
      "stateMutability": "view",
      "type": "function"
    },
    {
      "inputs": [
        {
          "internalType": "bytes32",
          "name": "hash",
          "type": "bytes32"
        },
        {
          "internalType": "bytes",
          "name": "signature",
          "type": "bytes"
        }
      ],
      "name": "recoverSignerAddressFromBytes32",
      "outputs": [
        {
          "internalType": "address",
          "name": "",
          "type": "address"
        }
      ],
      "stateMutability": "pure",
      "type": "function"
    },
    {
      "inputs": [
        {
          "internalType": "uint256",
          "name": "purchase_id",
          "type": "uint256"
        }
      ],
      "name": "redeemGivenMinimumGoalNotAchieved",
      "outputs": [],
      "stateMutability": "nonpayable",
      "type": "function"
    },
    {
      "inputs": [
        {
          "internalType": "uint256",
          "name": "purchase_id",
          "type": "uint256"
        }
      ],
      "name": "redeemTokens",
      "outputs": [],
      "stateMutability": "nonpayable",
      "type": "function"
    },
    {
      "inputs": [
        {
          "internalType": "address",
          "name": "_address",
          "type": "address"
        }
      ],
      "name": "removeFromBlacklist",
      "outputs": [],
      "stateMutability": "nonpayable",
      "type": "function"
    },
    {
      "inputs": [
        {
          "internalType": "address",
          "name": "_address",
          "type": "address"
        }
      ],
      "name": "removeFromWhitelist",
      "outputs": [],
      "stateMutability": "nonpayable",
      "type": "function"
    },
    {
      "inputs": [
        {
          "internalType": "address",
          "name": "_tokenAddress",
          "type": "address"
        },
        {
          "internalType": "address",
          "name": "_to",
          "type": "address"
        }
      ],
      "name": "removeOtherERC20Tokens",
      "outputs": [],
      "stateMutability": "nonpayable",
      "type": "function"
    },
    {
      "inputs": [
        {
          "internalType": "bytes32",
          "name": "role",
          "type": "bytes32"
        },
        {
          "internalType": "address",
          "name": "account",
          "type": "address"
        }
      ],
      "name": "renounceRole",
      "outputs": [],
      "stateMutability": "nonpayable",
      "type": "function"
    },
    {
      "inputs": [
        {
          "internalType": "bytes32",
          "name": "role",
          "type": "bytes32"
        },
        {
          "internalType": "address",
          "name": "account",
          "type": "address"
        }
      ],
      "name": "revokeRole",
      "outputs": [],
      "stateMutability": "nonpayable",
      "type": "function"
    },
    {
      "inputs": [],
      "name": "safePullETH",
      "outputs": [],
      "stateMutability": "nonpayable",
      "type": "function"
    },
    {
      "inputs": [],
      "name": "safePullSaleToken",
      "outputs": [],
      "stateMutability": "nonpayable",
      "type": "function"
    },
    {
      "inputs": [],
      "name": "safePullTradeToken",
      "outputs": [],
      "stateMutability": "nonpayable",
      "type": "function"
    },
    {
      "inputs": [
        {
          "internalType": "uint256",
          "name": "_endDate",
          "type": "uint256"
        }
      ],
      "name": "setEndDate",
      "outputs": [],
      "stateMutability": "nonpayable",
      "type": "function"
    },
    {
      "inputs": [
        {
          "internalType": "bool",
          "name": "_hasWhitelisting",
          "type": "bool"
        }
      ],
      "name": "setHasWhitelisting",
      "outputs": [],
      "stateMutability": "nonpayable",
      "type": "function"
    },
    {
      "inputs": [
        {
          "internalType": "uint256",
          "name": "_individualMaximumAmount",
          "type": "uint256"
        }
      ],
      "name": "setIndividualMaximumAmount",
      "outputs": [],
      "stateMutability": "nonpayable",
      "type": "function"
    },
    {
      "inputs": [
        {
          "internalType": "address",
          "name": "_localETHDepositArbitrum",
          "type": "address"
        }
      ],
      "name": "setLocalETHDepositArbitrum",
      "outputs": [],
      "stateMutability": "nonpayable",
      "type": "function"
    },
    {
      "inputs": [
        {
          "internalType": "address",
          "name": "_localETHDepositOptimism",
          "type": "address"
        }
      ],
      "name": "setLocalETHDepositOptimism",
      "outputs": [],
      "stateMutability": "nonpayable",
      "type": "function"
    },
    {
      "inputs": [
        {
          "internalType": "address",
          "name": "_PolsStakeAddress",
          "type": "address"
        },
        {
          "internalType": "uint256",
          "name": "_PolsStakeAmount",
          "type": "uint256"
        },
        {
          "internalType": "uint256",
          "name": "_PolsStakeRewards",
          "type": "uint256"
        }
      ],
      "name": "setPolsStakingRequirement",
      "outputs": [],
      "stateMutability": "nonpayable",
      "type": "function"
    },
    {
      "inputs": [
        {
          "internalType": "address",
          "name": "_signerPublicAddress",
          "type": "address"
        }
      ],
      "name": "setSignerPublicAddress",
      "outputs": [],
      "stateMutability": "nonpayable",
      "type": "function"
    },
    {
      "inputs": [
        {
          "internalType": "address",
          "name": "_stakingRewardsAddress",
          "type": "address"
        }
      ],
      "name": "setStakingRewards",
      "outputs": [],
      "stateMutability": "nonpayable",
      "type": "function"
    },
    {
      "inputs": [
        {
          "internalType": "uint256",
          "name": "_startDate",
          "type": "uint256"
        }
      ],
      "name": "setStartDate",
      "outputs": [],
      "stateMutability": "nonpayable",
      "type": "function"
    },
    {
      "inputs": [
        {
          "internalType": "uint256",
          "name": "_vestingStart",
          "type": "uint256"
        },
        {
          "internalType": "uint256",
          "name": "_vestingCliff",
          "type": "uint256"
        },
        {
          "internalType": "uint256",
          "name": "_vestingDuration",
          "type": "uint256"
        },
        {
          "internalType": "uint256[]",
          "name": "_vestingSchedule",
          "type": "uint256[]"
        }
      ],
      "name": "setVesting",
      "outputs": [],
      "stateMutability": "nonpayable",
      "type": "function"
    },
    {
      "inputs": [],
      "name": "signerPublicAddress",
      "outputs": [
        {
          "internalType": "address",
          "name": "",
          "type": "address"
        }
      ],
      "stateMutability": "view",
      "type": "function"
    },
    {
      "inputs": [],
      "name": "stakingRewardsAddress",
      "outputs": [
        {
          "internalType": "address",
          "name": "",
          "type": "address"
        }
      ],
      "stateMutability": "view",
      "type": "function"
    },
    {
      "inputs": [],
      "name": "startDate",
      "outputs": [
        {
          "internalType": "uint256",
          "name": "",
          "type": "uint256"
        }
      ],
      "stateMutability": "view",
      "type": "function"
    },
    {
      "inputs": [
        {
          "internalType": "bytes4",
          "name": "interfaceId",
          "type": "bytes4"
        }
      ],
      "name": "supportsInterface",
      "outputs": [
        {
          "internalType": "bool",
          "name": "",
          "type": "bool"
        }
      ],
      "stateMutability": "view",
      "type": "function"
    },
    {
      "inputs": [
        {
          "internalType": "uint256",
          "name": "_amount",
          "type": "uint256"
        },
        {
          "internalType": "bytes",
          "name": "_signature",
          "type": "bytes"
        }
      ],
      "name": "swap",
      "outputs": [],
      "stateMutability": "payable",
      "type": "function"
    },
    {
      "inputs": [
        {
          "internalType": "uint256",
          "name": "_amount",
          "type": "uint256"
        },
        {
          "internalType": "uint256",
          "name": "_accountMaxAmount",
          "type": "uint256"
        },
        {
          "internalType": "bytes",
          "name": "_signature",
          "type": "bytes"
        }
      ],
      "name": "swapWithSig",
      "outputs": [],
      "stateMutability": "payable",
      "type": "function"
    },
    {
      "inputs": [
        {
          "internalType": "address",
          "name": "userAccount",
          "type": "address"
        },
        {
          "internalType": "uint256",
          "name": "value",
          "type": "uint256"
        }
      ],
      "name": "swapXchain",
      "outputs": [],
      "stateMutability": "nonpayable",
      "type": "function"
    },
    {
      "inputs": [],
      "name": "tokensAllocated",
      "outputs": [
        {
          "internalType": "uint256",
          "name": "",
          "type": "uint256"
        }
      ],
      "stateMutability": "view",
      "type": "function"
    },
    {
      "inputs": [],
      "name": "tokensForSale",
      "outputs": [
        {
          "internalType": "uint256",
          "name": "",
          "type": "uint256"
        }
      ],
      "stateMutability": "view",
      "type": "function"
    },
    {
      "inputs": [],
      "name": "tokensLeft",
      "outputs": [
        {
          "internalType": "uint256",
          "name": "",
          "type": "uint256"
        }
      ],
      "stateMutability": "view",
      "type": "function"
    },
    {
      "inputs": [],
      "name": "totalRaiseCost",
      "outputs": [
        {
          "internalType": "uint256",
          "name": "",
          "type": "uint256"
        }
      ],
      "stateMutability": "view",
      "type": "function"
    },
    {
      "inputs": [],
      "name": "tradeValue",
      "outputs": [
        {
          "internalType": "uint256",
          "name": "",
          "type": "uint256"
        }
      ],
      "stateMutability": "view",
      "type": "function"
    },
    {
      "inputs": [
        {
          "internalType": "uint256",
          "name": "purchase_id",
          "type": "uint256"
        },
        {
          "internalType": "bool",
          "name": "stake",
          "type": "bool"
        }
      ],
      "name": "transferTokens",
      "outputs": [],
      "stateMutability": "nonpayable",
      "type": "function"
    },
    {
      "inputs": [],
      "name": "unpause",
      "outputs": [],
      "stateMutability": "nonpayable",
      "type": "function"
    },
    {
      "inputs": [],
      "name": "unsoldTokensRedeemed",
      "outputs": [
        {
          "internalType": "bool",
          "name": "",
          "type": "bool"
        }
      ],
      "stateMutability": "view",
      "type": "function"
    },
    {
      "inputs": [],
      "name": "vestingCliff",
      "outputs": [
        {
          "internalType": "uint256",
          "name": "",
          "type": "uint256"
        }
      ],
      "stateMutability": "view",
      "type": "function"
    },
    {
      "inputs": [],
      "name": "vestingDuration",
      "outputs": [
        {
          "internalType": "uint256",
          "name": "",
          "type": "uint256"
        }
      ],
      "stateMutability": "view",
      "type": "function"
    },
    {
      "inputs": [
        {
          "internalType": "uint256",
          "name": "",
          "type": "uint256"
        }
      ],
      "name": "vestingSchedule",
      "outputs": [
        {
          "internalType": "uint256",
          "name": "",
          "type": "uint256"
        }
      ],
      "stateMutability": "view",
      "type": "function"
    },
    {
      "inputs": [],
      "name": "vestingStart",
      "outputs": [
        {
          "internalType": "uint256",
          "name": "",
          "type": "uint256"
        }
      ],
      "stateMutability": "view",
      "type": "function"
    },
    {
      "inputs": [],
      "name": "vestingTime",
      "outputs": [
        {
          "internalType": "uint256",
          "name": "",
          "type": "uint256"
        }
      ],
      "stateMutability": "view",
      "type": "function"
    },
    {
      "inputs": [],
      "name": "withdrawFunds",
      "outputs": [],
      "stateMutability": "nonpayable",
      "type": "function"
    },
    {
      "inputs": [],
      "name": "withdrawUnsoldTokens",
      "outputs": [],
      "stateMutability": "nonpayable",
      "type": "function"
    }
  ],
  "bytecode": "0x6080346200070e57601f62005f8438819003918201601f19168301916001600160401b038311848410176200071357808492610180946040528339810103126200070e576200004e8162000729565b90602081015191604082015192606083015160808401519160a08501519560c08601519360e0870151801515036200070e5761010087015193610120880151986101408901519863ffffffff8a168a036200070e57610160620000b2910162000729565b6000805460ff191681556002805460ff60a01b1990811690915533825260008051602062005f4483398151915260205260409091205491989160ff1615620006ba575b7389b41a6e5ab74fcb9771a3356986185f67f9214c60005260008051602062005f4483398151915260205260008051602062005f048339815191525460ff161562000645575b60028054919091168b8216151560a01b60ff60a01b16179055600382905533600090815260008051602062005f44833981519152602052604090205460ff16156200060057818110620005bb5760045533600090815260008051602062005ee4833981519152602052604090205460ff161562000578575b7389b41a6e5ab74fcb9771a3356986185f67f9214c60005260008051602062005ee483398151915260205260008051602062005f648339815191525460ff161562000514575b81421015620004cf5783156200049657831062000451578285116200040c5760638911620003c757600863ffffffff891610156200038257601481905533600090815260008051602062005ee4833981519152602052604090205460ff16156200033d57811115620002f8576015556018556013556001841615620002ef5750600160ff1960125416176012555b600f80546001600160a01b03199081166001600160a01b039485161790915591169081620002df575b505061ff0060046012549216151560081b169061ff0019161760125560115560405161578590816200073f8239f35b60105416176010553880620002b0565b60165562000287565b60405162461bcd60e51b815260206004820152601a60248201527f656e642064617465206265666f726520737461727420646174650000000000006044820152606490fd5b60405162461bcd60e51b815260206004820152601960248201527f63616c6c657220686173206e6f742061646d696e20726f6c65000000000000006044820152606490fd5b60405162461bcd60e51b815260206004820152601560248201527f756e737570706f7274656420666c6167732073657400000000000000000000006044820152606490fd5b60405162461bcd60e51b815260206004820152601e60248201527f4665652050657263656e746167652068617320746f206265203c2031303000006044820152606490fd5b60405162461bcd60e51b815260206004820152601c60248201527f6d696e696d756d5261697365203e20746f6b656e73466f7253616c65000000006044820152606490fd5b60405162461bcd60e51b815260206004820152601e60248201527f746f6b656e73466f7253616c65203c20696e646976696475616c206d696e00006044820152606490fd5b60405162461bcd60e51b81526020600482015260116024820152706e6f20746f6b656e20666f722073616c6560781b6044820152606490fd5b60405162461bcd60e51b815260206004820152601960248201527f7374617274206461746520697320696e207468652070617374000000000000006044820152606490fd5b7389b41a6e5ab74fcb9771a3356986185f67f9214c600081815260008051602062005ee483398151915260205260008051602062005f64833981519152805460ff1916600117905533919060008051602062005ec48339815191528180a4620001f9565b33600081815260008051602062005ee483398151915260205260408120805460ff19166001179055819060008051602062005ec48339815191528180a4620001b3565b60405162461bcd60e51b815260206004820152601b60248201527f696e646976696475616c206d6178203c206d696e20616d6f756e7400000000006044820152606490fd5b60405162461bcd60e51b815260206004820152601c60248201527f63616c6c6572206973206e6f742057686974656c6973744f776e6572000000006044820152606490fd5b7389b41a6e5ab74fcb9771a3356986185f67f9214c600081815260008051602062005f4483398151915260205260008051602062005f04833981519152805460ff1916600117905533919060008051602062005f248339815191529060008051602062005ec48339815191529080a46200013b565b33600081815260008051602062005f4483398151915260205260408120805460ff19166001179055819060008051602062005f248339815191529060008051602062005ec48339815191529080a4620000f5565b600080fd5b634e487b7160e01b600052604160045260246000fd5b51906001600160a01b03821682036200070e5756fe608060408181526004918236101561001657600080fd5b600090813560e01c90816301ffc9a714613932575080630274fa98146138e8578063044c0cc5146138be578063076623451461389757806308239210146115ee57806308abd7ff146137bd5780630b97bc861461379e57806312aef8c31461377f57806313430f01146137605780631514617e1461374157806315b5786614613720578063161a7b2a146136f95780631de18af7146134ad5780631ee5dfcd14612ffb5780632140f89f14612fa957806321d3002a14612f8557806324600fc314612da5578063248a9ca314612d7b578063254800d414612d5c5780632593ea1714612d38578063273e96e914612d125780632e15410714612cf35780632ebb5c1e14612cd25780632f2ff15d14612c255780633070b98d1461290957806331d06af3146128e057806336568abe1461284f5780633742a9f71461274b5780633784f000146126f75780633af32abf146126ba5780633b6577c8146126805780633bbab179146126195780633f4ba83a146125ad5780634089aa9a1461258b57806344337ea11461252a57806344691f7e1461250857806347535d7b146124eb578063537df3b61461248a5780635ac699bb146124425780635c975abb146124205780635f635f9a146120b05780636295a2f414612091578063658f2dfe14611c715780636901c28d14611c4857806369bb4dc214611c2b5780636d02802714611ba25780636eaaabd514611b115780636fb83a5714611ad357806370a898bc14611ab257806374fa05fb14611a8f578063751ef93d14611a6a578063755e3e2814611a4b57806376807e5f146119cc578063785e9e86146119a3578063788bff681461197a578063799bb232146119535780637f7b27121461193357806382974f301461190a57806382d95df51461185c5780638392fe31146117d45780638456cb591461176557806388b0fe2b146116aa5780638a1a5f3f1461168d5780638ab1d6811461162c5780638e75b1311461160d5780639097548d146115ee578063917c854d14611482578063919bd9301461144957806391d148541461140257806394838414146113db57806396a32bc4146113755780639baf1979146113595780639d90a46e1461127f5780639e0552aa14611233578063a001ecdd14611214578063a1c09bf1146111f5578063a217fddf146111da578063a6e158f814611039578063b0b12ac31461101b578063b31f8f9314610ff7578063b367940e14610fd3578063b869178714610f95578063ba40a96a14610f6c578063bd0625ab14610bc1578063bf135abe14610b98578063c24a0f8b14610b79578063c3ca324f14610b52578063c7dab43614610b35578063c8bdbfb614610a8b578063ca1d209d146109c7578063d0a4a895146109a0578063d547741f14610962578063d8bdbd2814610924578063dbb57ac8146108e0578063dc91b0721461084b578063e12917e2146107f2578063e4101de5146107d4578063e43252d71461074a578063e4a8025214610718578063e8b882f4146106ef578063eb1edd61146106c0578063efbb34d514610699578063f267d48c1461067a578063f2aa82181461061f578063f3640e7414610600578063f64bfaba14610574578063fce9d11b14610546578063fe575a87146105085763fecf415a146104d357600080fd5b3461050557602036600319011261050557506104f160209235613e1e565b5060018060a01b0390541633149051908152f35b80fd5b5090346105425760203660031901126105425760209181906001600160a01b03610530613986565b16815260088452205415159051908152f35b5080fd5b5090346105425781600319360112610542576105709061056533614547565b905191829182613e58565b0390f35b50346105055780600319360112610505578151918291601e54808552602080950194601e83527f50bb669a95c7b50b7e8a6f09454034b2b14cf2b85c730dca9a539ca82cb6e35092905b8282106105e05761057086866105d6828b0383613a32565b5191829182613c93565b83546001600160a01b0316875295860195600193840193909101906105be565b509034610542578160031936011261054257602090601a549051908152f35b5091346106765760203660031901126106765735601e5481101561067657601e6020935260018060a01b03907f50bb669a95c7b50b7e8a6f09454034b2b14cf2b85c730dca9a539ca82cb6e3500154169051908152f35b8280fd5b509034610542578160031936011261054257602090600e549051908152f35b5090346105425781600319360112610542576020906106b96018546144b0565b9051908152f35b5090346105425781600319360112610542576020905173aeb39b67f27b641ef9f95fb74f1a46b1ee4efc838152f35b509034610542578160031936011261054257602090516000805160206157598339815191528152f35b5090346105425760209061073461072e36613def565b90615328565b60018060a01b0380600254169116149051908152f35b5090346105425760203660031901126105425761079360ff61076a613986565b9260008051602061575983398151915285526001602052808520338652602052842054166150aa565b6001600160a01b03166107a5816150f6565b6107ad575080f35b7fa850ae9193f515cbae8d35e8925bd2be26627fc91bce650b8652ed254e9cab038280a280f35b50913461067657826003193601126106765760209250549051908152f35b5090346105425760203660031901126105425761082d60ff610812613986565b928480526001602052808520338652602052842054166142b4565b60018060a01b03166001600160601b0360a01b600a541617600a5580f35b509134610676576020366003190112610676578035916000805160206157598339815191528452600160205280842033855260205261088f60ff82862054166150aa565b600354831061089d57505580f35b906020606492519162461bcd60e51b8352820152601b60248201527f696e646976696475616c206d6178203c206d696e20616d6f756e7400000000006044820152fd5b503461050557602036600319011261050557506109006105709235614fd0565b91949293805195869586526020860152840152608060608401526080830190613c6e565b5090346105425760203660031901126105425761094460ff610812613986565b60018060a01b03166001600160601b0360a01b600b541617600b5580f35b5091903461067657806003193601126106765761099d913561099860016109876139a1565b938387528160205286200154613e93565b61418e565b80f35b50903461054257816003193601126105425760209060ff60125460081c1690519015158152f35b509134610676576020366003190112610676578035916109ea6014544210614268565b6109fb836109f6614421565b61422d565b60185410610a4857600f548490610a20908590309033906001600160a01b03166146bb565b610a28614421565b6018541115610a345780f35b6201000062ff000019601254161760125580f35b906020606492519162461bcd60e51b8352820152602060248201527f6d6f726520746f6b656e73207468616e206e656564656420666f722073616c656044820152fd5b50903461054257816003193601126105425760ff610abd918380526001602052808420338552602052832054166142b4565b610acb601554421015615015565b60125460ff8160181c1661054257601754601654811015610b2457506018545b80610af4578280f35b63ff00000019909116630100000017601255600f54610b1e919033906001600160a01b0316614b75565b81808280f35b610b30906018546143ba565b610aeb565b5090346105425781600319360112610542576020906106b961424b565b5090346105425760203660031901126105425761057090610565610b74613986565b614547565b5090346105425781600319360112610542576020906015549051908152f35b50903461054257816003193601126105425760105490516001600160a01b039091168152602090f35b508290826003193601126105055781359160249182356001600160401b03811161054257610bf29036908401613b0b565b610bfa614b31565b60ff60125460101c1615610f2f57610c10614499565b15610ef757610c1e336145aa565b15610eb557610c2d90336155e3565b938415610e83576010546001600160a01b039690871680610e6657503494610c54836144b0565b8610610e2e575b610c75610c6d601854601754906143ba565b8411156148cf565b610c8360035484101561491b565b610c8f87841115614967565b338452602090601f8252828520968351808985829b54938481520190895285892092895b87828210610e1857505050610cca92500389613a32565b8599869a5b89518c1015610d0a57610cfe610d04916001610cf58f610cef908f6149b3565b51613e1e565b5001549061422d565b9b6143ab565b9a610ccf565b90610d248b610d1d89610d7f969561422d565b11156149c7565b8660ff60125416610e02575b5050610d3b42614bae565b9060ff6012541665ffffffffffff875193610d55856139cb565b338552168684015215158683015287606083015286608083015260a08201528660c0820152614a13565b338552601f825282852090601d54966000198801978811610df15750507fbec109f7ee137de661c6887caa96653c0545050a9908a3b6eb5190440bbec864939495610dc991614389565b610dd233614acd565b610dde8460175461422d565b601755815193845242908401523392a280f35b634e487b7160e01b87526011905285fd5b610e11913390600f5416614b75565b8886610d30565b855484526001958601958e955093019201610cb3565b601385916020606494519362461bcd60e51b8552840152820152721b9bdd08195b9bdd59da08115512081cd95b9d606a1b6044820152fd5b94610e7e610e73846144b0565b8097309033906146bb565b610c5b565b855162461bcd60e51b8152602081850152600d818601526c37379030b63637b1b0ba34b7b760991b6044820152606490fd5b855162461bcd60e51b81526020818501819052818601527f61646472657373206e6f742077686974656c697374656420666f7220504f4c536044820152606490fd5b855162461bcd60e51b81526020818501526013818601527239b0b632903430b9903a379031329037b832b760691b6044820152606490fd5b855162461bcd60e51b8152602081850152601881860152771d1bdad95b881cd85b19481a5cc81b9bdd08199d5b99195960421b6044820152606490fd5b50903461054257816003193601126105425760025490516001600160a01b039091168152602090f35b50903461054257602036600319011261054257610fb560ff61076a613986565b60018060a01b03166001600160601b0360a01b600254161760025580f35b50903461054257816003193601126105425760209060175460165411159051908152f35b5090346105425781600319360112610542576020906106b9601854601754906143ba565b5090346105425781600319360112610542576020905162325aa08152f35b50823461054257602036600319011261054257803561105781613e1e565b50546001600160a01b039190821633036111a05761107481614c46565b8194911561117a5750600161108883613e1e565b500154600361109684613e1e565b50015491816110a5878561422d565b11611104575061099d9596506110d085836110d6936110c68360039761422d565b146110e45761422d565b92613e1e565b5001553390600f5416614b75565b6110ed86613e1e565b50805460ff60d01b1916600160d01b17905561422d565b60a490602089519162461bcd60e51b8352820152604460248201527f494e5445524e414c204552524f52203a20616d6f756e7452656465656d65642060448201527f776f756c64206265206c6172676572207468656e20707572636861736520616d6064820152631bdd5b9d60e21b6084820152fd5b9061119c602092885193849362461bcd60e51b85528401526024830190613c6e565b0390fd5b845162461bcd60e51b8152602081850152601460248201527320b2323932b9b99034b9903737ba10313abcb2b960611b6044820152606490fd5b50903461054257816003193601126105425751908152602090f35b509034610542578160031936011261054257602090601d549051908152f35b5090346105425781600319360112610542576020906011549051908152f35b508234610542576060366003190112610542578035906001600160401b0382116106765761126391369101613b66565b5061126c6139a1565b506001614849608e1b0133036105055780f35b5090346105425761128f36613a6a565b906000805160206157598339815191528352600191826020528184203385526020526112c060ff83862054166150aa565b839283815b611306575b505050816112d6578280f35b7fc2f03ca34d335e49d4d629b85db054d1ffb679b4fec2e06fe10d0e618b175ecb9160209151908152a181808280f35b82518110156113545761132b6001600160a01b0361132483866149b3565b511661515c565b61133f575b611339906143ab565b816112c5565b9361134c611339916143ab565b949050611330565b6112ca565b509034610542576020906106b961136f36613daa565b916156b5565b50903461054257816003193601126105425781805260016020528082203383526020526113a760ff82842054166142b4565b6113af615061565b81808080478181156113d2575b3390f1156113c8575080f35b51903d90823e3d90fd5b506108fc6113bc565b50903461054257816003193601126105425760209060ff60125460181c1690519015158152f35b5091346106765781600319360112610676578160209360ff926114236139a1565b90358252600186528282206001600160a01b039091168252855220549151911615158152f35b509134610676576020366003190112610676573591601c548310156105055750611474602092613cd7565b91905490519160031b1c8152f35b5091903461067657806003193601126106765761149d613986565b6114a56139a1565b9084805260206001815283862033875281526114c660ff85882054166142b4565b6114d4601554421015615015565b600f546001600160a01b039283169290811683146115ab57601054168214611569578351946370a0823160e01b865230908601528085602481855afa9384156115605750859361152a575b5061099d9350614b75565b90925083813d8311611559575b6115418183613a32565b810103126115555761099d9251913861151f565b8380fd5b503d611537565b513d87823e3d90fd5b8460649185519162461bcd60e51b8352820152601b60248201527f746f6b656e206973207468652074726164652d696e20746f6b656e00000000006044820152fd5b845162461bcd60e51b8152808701839052601b60248201527f746f6b656e2069732074686520746f6b656e20666f722073616c6500000000006044820152606490fd5b503461050557602036600319011261050557506106b9602092356144b0565b5090346105425781600319360112610542576020906016549051908152f35b5090346105425760203660031901126105425761164c60ff61076a613986565b6001600160a01b031661165e8161527f565b611666575080f35b7fcdd2e9b91a56913d370075169cefa1602ba36be5301664f752192bb1709df7578280a280f35b5090346105425781600319360112610542576020906106b96143e7565b5091903461067657826003193601126106765782805260206001815281842033855281526116dd60ff83862054166142b4565b6116e5615061565b600f5482516370a0823160e01b815230948101949094526001600160a01b0316908084602481855afa92831561175c5750849261172a575b5061099d92503390614b75565b90915082813d8311611755575b6117418183613a32565b810103126106765761099d9151903861171d565b503d611737565b513d86823e3d90fd5b50903461054257816003193601126105425760207f62e78cea01bee320cd4e420270b5ea74000d11b0c9f74754ebdbfc544b05a258918380526001825280842033855282526117b960ff82862054166142b4565b6117c1614b31565b835460ff1916600117845551338152a180f35b509134610676576020366003190112610676573591601d5483101561050557506117ff60e092613e1e565b50805490600181015460ff600360028401549301549385519560018060a01b038216875265ffffffffffff8260a01c166020880152828260d01c1615159087015260d81c1615156060850152608084015260a083015260c0820152f35b5091346106765760203660031901126106765780359161187f6014544210614268565b838052600160205280842033855260205261189f60ff82862054166142b4565b824210156118bc5750506118b66015548210614300565b60145580f35b906020608492519162461bcd60e51b8352820152602260248201527f737461727420646174652068617320746f20626520696e207468652066757475604482015261726560f01b6064820152fd5b509034610542578160031936011261054257600b5490516001600160a01b039091168152602090f35b5090346105425781600319360112610542576020905164e8d4a510008152f35b5090346105425760209061196961072e36613def565b90516001600160a01b039091168152f35b50903461054257816003193601126105425760095490516001600160a01b039091168152602090f35b509034610542578160031936011261054257600f5490516001600160a01b039091168152602090f35b5091903461067657826003193601126106765782805260206001815281842033855281526119ff60ff83862054166142b4565b611a07615061565b60105482516370a0823160e01b815230948101949094526001600160a01b0316908084602481855afa92831561175c5750849261172a575061099d92503390614b75565b5090346105425781600319360112610542576020906017549051908152f35b50903461054257602090611a86611a8036613daa565b9161558e565b90519015158152f35b509034610542578160031936011261054257602090601754601654119051908152f35b50903461054257816003193601126105425760209060035415159051908152f35b50903461054257602036600319011261054257611af360ff610812613986565b60018060a01b03166001600160601b0360a01b600954161760095580f35b509134610676576020366003190112610676573590811515809203610676577fe905f7f52156c346547b9deb6fb3e2459db941ec55d073fd465129bf4b49fae6916020916000805160206157598339815191528552600183528085203386528352611b8160ff82872054166150aa565b6002805460ff60a01b191660a084901b60ff60a01b1617905551908152a180f35b5034610505578060031936011261050557600554611bbf81613a53565b91611bcc84519384613a32565b818352601f19611bdb83613a53565b013660208501375b818110611bf7578351806105708582613c93565b80611c04611c2692613d5b565b905460039190911b1c6001600160a01b0316611c2082866149b3565b526143ab565b611be3565b5090346105425781600319360112610542576020906106b9614421565b509034610542578160031936011261054257600a5490516001600160a01b039091168152602090f35b5091346106765760803660031901126106765780359060248035916044908135948760648035946001600160401b039889871161155557366023880112156115555786860135998a116115555760059836898c8c1b8a01011161208d578b95611cdd6014544210614268565b858052611cfe60ff6001986020988a8a528181203382528a522054166142b4565b60ff6012541661204c576019548015908115612042575b50156120015780611fad575b828211611f6c578b159291908315611f41576312cff780611d43895b85614204565b1015611f0157601955601a5580601b55601c548d601c558d81611ebb575b5050858b1015611d6f578c80f35b15611e5e57611e4c578686013592655af3107a40009a8b851015611e0e5750505050611d9a9061434c565b858110611dab575b80808080808c80f35b6000198101818111611dfc57611dc3611dd791613cd7565b90548684891b870101359160031b1c61422d565b9087821015611df657611dec611df19261434c565b6143ab565b611d9a565b50611da2565b634e487b7160e01b8952601183528489fd5b91601c897f66697273742076657374696e6720706572696f64203e3d203130302500000000938995519562461bcd60e51b8752860152840152820152fd5b634e487b7160e01b8b5260328552868bfd5b5084917f76657374696e6720696e74657276616c6c732070726f76696465642c206275747302076657374696e674475726174696f6e203d20360641b9260348a6084978f519762461bcd60e51b8952880152860152840152820152fd5b601c81527f0e4562a10381dec21b205ed72637e6b1b523bdd0e4d4d50af5cd23dd4500a2119182019188915b838210611ef657915050611d61565b81550187908f611ee7565b8d5162461bcd60e51b8152808a01889052601d818d01527f746f74616c2076657374696e672074696d65203e203130207965617273000000818701528690fd5b878d01808e11611f5957611d436312cff78091611d3d565b50634e487b7160e01b8f52601189528a8ffd5b5050507f76657374696e67436c696666203e2076657374696e674475726174696f6e00008591601e89868e519562461bcd60e51b8752860152840152820152fd5b611fb7828261422d565b6015541115611d21575050507f76657374696e67436c696666206265666f726520656e644461746500000000008591601b89868e519562461bcd60e51b8752860152840152820152fd5b5050507f76657374696e6720616c726561647920737461727465640000000000000000008591601789868e519562461bcd60e51b8752860152840152820152fd5b9050421038611d15565b5050507f6e6f2076657374696e6720666f722061746f6d696320737761700000000000008591601a89868e519562461bcd60e51b8752860152840152820152fd5b8480fd5b5090346105425781600319360112610542576020906013549051908152f35b50829060603660031901126105055781359160449182356001600160401b038111610542576120e29036908401613b0b565b6120ea614b31565b60ff60125460101c16156123e357612100614499565b156123ab5761210e336145aa565b156123695761212090602435336156b5565b938415612337576010546001600160a01b03969087168061231957503494612147836144b0565b86106122e157505b612169612161601854601754906143ba565b8311156148cf565b61217760035483101561491b565b61218386831115614967565b3383526020601f8152818420958251808884829a54938481520190885284882092885b868282106122cb575050506121bd92500388613a32565b849885995b88518b10156121ed576121e16121e7916001610cf5610cef8f8e6149b3565b9a6143ab565b996121c2565b906122008a610d1d8861225b969561422d565b8560ff601254166122b5575b505061221742614bae565b9060ff6012541665ffffffffffff865193612231856139cb565b338552168584015215158583015286606083015285608083015260a08201528560c0820152614a13565b338452601f8152818420601d546000198101919082116122a2577fbec109f7ee137de661c6887caa96653c0545050a9908a3b6eb5190440bbec864939291610dc991614389565b634e487b7160e01b865260118752602486fd5b6122c4913390600f5416614b75565b878561220c565b855484526001958601958d9550930192016121a6565b721b9bdd08195b9bdd59da08115512081cd95b9d606a1b85916020606494519362461bcd60e51b855284015260136024840152820152fd5b9450612332612327836144b0565b8096309033906146bb565b61214f565b855162461bcd60e51b8152602081850152600d60248201526c37379030b63637b1b0ba34b7b760991b81860152606490fd5b855162461bcd60e51b8152602081850181905260248201527f61646472657373206e6f742077686974656c697374656420666f7220504f4c5381860152606490fd5b855162461bcd60e51b8152602081850152601360248201527239b0b632903430b9903a379031329037b832b760691b81860152606490fd5b855162461bcd60e51b815260208185015260186024820152771d1bdad95b881cd85b19481a5cc81b9bdd08199d5b99195960421b81860152606490fd5b50903461054257816003193601126105425760ff602092541690519015158152f35b50903461054257806003193601126105425761245c613986565b6001600160a01b03168252601f60205280822080546024359390841015610505575060209261147491613d92565b509034610542576020366003190112610542576124aa60ff61076a613986565b6001600160a01b03166124bc816151a9565b6124c4575080f35b7f2b6bf71b58b3583add364b3d9060ebf8019650f65f5be35f5464b9cb3e4ba2d48280a280f35b509034610542578160031936011261054257602090611a86614499565b5090346105425781600319360112610542576020906014544210159051908152f35b5090346105425760203660031901126105425761254a60ff61076a613986565b6001600160a01b031661255c8161515c565b612564575080f35b7ff9b68063b051b82957fa193585681240904fed808db8b30fc5a2d2202c6ed6278280a280f35b5090346105425781600319360112610542576020906015544210159051908152f35b50903461054257816003193601126105425760207f5db9ee0a495bf2e6ff9c91a7834c1ba4fdd244a5e8aa4e537bd38aeae4b073aa9183805260018252808420338552825261260160ff82862054166142b4565b612609615061565b835460ff1916845551338152a180f35b503461050557806003193601126105055760075461263681613a53565b9161264384519384613a32565b818352601f1961265283613a53565b013660208501375b81811061266e578351806105708582613c93565b80611c0461267b92613d24565b61265a565b5082903461050557602036600319011261050557506126a26105709135614c46565b83929192519384938452806020850152830190613c6e565b50903461054257602036600319011261054257602090611a866001600160a01b036126e3613986565b166000526006602052604060002054151590565b509134610676576020366003190112610676576127459035809261273f60ff60145492612725844210614268565b8780526001602052808820338952602052872054166142b4565b10614300565b60155580f35b508290346105055760203660031901126105055750803590601d5482101561280c5760e08360c061277b85613e1e565b50825192612788846139cb565b81549060018060a01b0382169283865265ffffffffffff8360a01c169182602088015260ff808560d01c1615159485838a015260d81c1615159485606089015260018301549788608082015260036002850154948560a084015201549788910152815197885260208801528601526060850152608084015260a083015260c0820152f35b606490602084519162461bcd60e51b8352820152601a60248201527f70757263686173655f696420646f6573206e6f742065786973740000000000006044820152fd5b5082346105425782600319360112610542576128696139a1565b90336001600160a01b03831603612885579061099d913561418e565b608490602085519162461bcd60e51b8352820152602f60248201527f416363657373436f6e74726f6c3a2063616e206f6e6c792072656e6f756e636560448201526e103937b632b9903337b91039b2b63360891b6064820152fd5b509034610542578160031936011261054257600c5490516001600160a01b039091168152602090f35b50903461054257806003193601126105425782359060249384359182159283150361208d5761293784613e1e565b50546001600160a01b03939084163303612bec5761295485614c46565b81969115612bcb5750600161296882613e1e565b500154600361297683613e1e565b5001549080612985898461422d565b11612b56576110d0888361299f936110c68360039761422d565b500155156129ba57505061099d9293503390600f5416614b75565b9180600994929454168015612b0a5781600f54168451636eb1769f60e11b815230878201528289820152602081604481855afa908115612b00579085918991612ac6575b50612a11612a56949392612a519261422d565b875163095ea7b360e01b6020808301919091526001600160a01b039095168c8201908152948501919091529283906040015b03601f198101845283613a32565b61472d565b6009541690813b1561208d57829160448694928593519586938492638b1e31c760e01b845289840152338b8401525af1908115612abd5750612a9a575b5050905080f35b6001600160401b0310612aad5780612a93565b634e487b7160e01b825260419052fd5b513d85823e3d90fd5b9150506020813d8211612af8575b81612ae160209383613a32565b81010312612af457518490612a116129fe565b8780fd5b3d9150612ad4565b86513d8a823e3d90fd5b835162461bcd60e51b81526020818701526021818901527f4e6f2049444f207374616b696e6720636f6e747261637420617661696c61626c6044820152606560f81b6064820152608490fd5b60a48660448c602089519362461bcd60e51b85528401528201527f494e5445524e414c204552524f52203a20616d6f756e7452656465656d65642060448201527f776f756c64206265206c6172676572207468656e20707572636861736520616d6064820152631bdd5b9d60e21b6084820152fd5b835162461bcd60e51b815260208187015290819061119c90828c0190613c6e565b815162461bcd60e51b81526020818501526014818901527320b2323932b9b99034b9903737ba10313abcb2b960611b6044820152606490fd5b5091346106765781600319360112610676573590612c416139a1565b908284526001602052612c5960018286200154613e93565b828452600160209081528185206001600160a01b039093168086529290528084205460ff1615612c87578380f35b82845260016020528084208285526020528320600160ff1982541617905533917f2f8788117e7eff1d82e926ec794901d17c78024a50270940304540a733656f0d8480a43880808380f35b50903461054257816003193601126105425760209060145442109051908152f35b5090346105425781600319360112610542576020906003549051908152f35b50903461054257602036600319011261054257602090611a86612d33613986565b6145aa565b5091346106765760203660031901126106765760209250601d549035109051908152f35b5090346105425781600319360112610542576020906019549051908152f35b50913461067657602036600319011261067657816020936001923581528285522001549051908152f35b50919034610676578260031936011261067657828052602091600183528184203385528352612dd960ff83862054166142b4565b612de1614b31565b612def601554421015615015565b60175460165411612f48576010546001600160a01b03908116939084612e6d575050509050818080806064612e274760115490614204565b04818115612e64575b73aeb39b67f27b641ef9f95fb74f1a46b1ee4efc8390f1156113c85781808080478181156113d2573390f1156113c8575080f35b506108fc612e30565b83516370a0823160e01b8082523085830152958382602481845afa918215612b00578892612f18575b506064612ea9612ee69360115490614204565b049086519163a9059cbb60e01b8684015273aeb39b67f27b641ef9f95fb74f1a46b1ee4efc836024840152604483015260448252612a5182613a17565b6010541691835194855230908501528084602481855afa92831561175c5750849261172a575061099d92503390614b75565b91508382813d8311612f41575b612f2f8183613a32565b81010312612af4579051906064612e96565b503d612f25565b82606492519162461bcd60e51b835282015260196024820152781b5a5b9a5b5d5b481c985a5cd9481b9bdd081c995858da1959603a1b6044820152fd5b50903461054257816003193601126105425760209060ff6012541690519015158152f35b508234610542576080366003190112610542576001600160401b0390803582811161155557612fdb9036908301613b66565b50612fe46139a1565b506044359182116106765761126c91369101613b0b565b509190346106765760031992818436011261050557613018613986565b906024803593613026614b31565b6010546001600160a01b039790881661346b5781516304799eaf60e31b8152878101839052600f60448201526e617262697472756d2d676f65726c6960881b606482015260848101918183030184820152806130a1602093604090600f81526e6f7074696d69736d2d676f65726c6960881b60208201520190565b039082816001614849608e1b019381855afa908115613461578691613444575b501561208d578251631902057760e01b90818152838a820152838180613106898201604090600f81526e617262697472756d2d676f65726c6960881b60208201520190565b0381865afa90811561343a5790849291889161341d575b506133c7575b84519283918252828b830152818061315a898201604090600f81526e6f7074696d69736d2d676f65726c6960881b60208201520190565b03915afa9081156133bd578591613390575b50613343575b61317b866144b0565b9061318e612161601854601754906143ba565b61319c60035483101561491b565b681043561a8829300000976131b389841115614967565b89871694858752601f8352848720988551808b86829d549384815201908b52868b20928b5b88828210613327575050506131ef9250038b613a32565b879b889c5b8d8c5111156132215761321561321b918f610cf58f600192610cef916149b3565b9d6143ab565b9c6131f4565b906132348d610d1d89613291969561422d565b868b60ff60125416613312575b50505061324d42614bae565b9060ff6012541665ffffffffffff895193613267856139cb565b8b8552168784015215158883015289606083015286608083015260a08201528860c0820152614a13565b858752601f835284872090601d54926000198401938411613301575050966132df6132e4927fbec109f7ee137de661c6887caa96653c0545050a9908a3b6eb5190440bbec864979899614389565b614acd565b6132f08260175461422d565b60175582519182524290820152a280f35b634e487b7160e01b89526011905287fd5b61331f92600f5416614b75565b8a868b613241565b6001929450829193865481520194019101918d929391936131d8565b87600b541633031561317257606492601a918893519362461bcd60e51b85528401528201527f77726f6e6720636f6e7472616374206f6e204f7074696d69736d0000000000006044820152fd5b6133b09150823d84116133b6575b6133a88183613a32565b810190614715565b3861316c565b503d61339e565b83513d87823e3d90fd5b905089600a541633036133db578290613123565b835162461bcd60e51b8152808a01849052601a818701527f77726f6e6720636f6e7472616374206f6e20417262697472756d0000000000006044820152606490fd5b6134349150833d85116133b6576133a88183613a32565b3861311d565b85513d89823e3d90fd5b61345b9150833d85116133b6576133a88183613a32565b386130c1565b84513d88823e3d90fd5b815162461bcd60e51b8152602081890152601e818501527f746f6b656e2073616c65206e6f742073657420746f20455448547261646500006044820152606490fd5b50913461067657602080600319360112611555578135906134d2601554421015615015565b60ff601254166136b7576134e582613e1e565b50546001600160a01b0392908316330361367d57601654801561363a5760175410156135f75761351490613e1e565b50926001840154156135b65783549160ff8360d01c1661357c57505061ffff60d01b191661010160d01b1782556010548492911680613569575081806002819301548181156113d2573390f1156113c8575080f35b915061099d925060020154903390614b75565b855162461bcd60e51b81529182015260156024820152741c1d5c98da185cd9481a5cc8199a5b985b1a5e9959605a1b604482015260649150fd5b60649185519162461bcd60e51b8352820152601760248201527f707572636861736520616d6f756e74206973207a65726f0000000000000000006044820152fd5b845162461bcd60e51b8152808501839052601e60248201527f6d696e696d756d20726169736520686173206265656e207265616368656400006044820152606490fd5b855162461bcd60e51b8152808601849052601d60248201527f6e6f206d696e696d756d20726169736520686173206265656e207365740000006044820152606490fd5b845162461bcd60e51b8152808501839052601460248201527330b2323932b9b99034b9903737ba10313abcb2b960611b6044820152606490fd5b9050606492519162461bcd60e51b8352820152601e60248201527f73616c652068617320746f206265206e6f6e2041746f6d6963207377617000006044820152fd5b50903461054257816003193601126105425760209060ff60125460101c1690519015158152f35b50903461054257816003193601126105425760209060165415159051908152f35b509034610542578160031936011261054257602090601b549051908152f35b509034610542578160031936011261054257602090600d549051908152f35b5090346105425781600319360112610542576020906018549051908152f35b5090346105425781600319360112610542576020906014549051908152f35b509034610542576137cd36613a6a565b906000805160206157598339815191528352600191826020528184203385526020526137fe60ff83862054166150aa565b839283815b613844575b50505081613814578280f35b7f448f3bd350ede14a294c062177c5280fe1eae125d16757da21f5f51d6e89daae9160209151908152a181808280f35b8251811015613892576138696001600160a01b0361386283866149b3565b51166150f6565b61387d575b613877906143ab565b81613803565b9361388a613877916143ab565b94905061386e565b613808565b50903461054257816003193601126105425760209060ff60025460a01c1690519015158152f35b50903461054257816003193601126105425760105490516001600160a01b03909116158152602090f35b5090346105425760603660031901126105425761390860ff610812613986565b60018060a01b03166001600160601b0360a01b600c541617600c55602435600d55604435600e5580f35b90508334610676576020366003190112610676573563ffffffff60e01b81168091036106765760209250637965db0b60e01b8114908115613975575b5015158152f35b6301ffc9a760e01b1490508361396e565b600435906001600160a01b038216820361399c57565b600080fd5b602435906001600160a01b038216820361399c57565b35906001600160a01b038216820361399c57565b60e081019081106001600160401b038211176139e657604052565b634e487b7160e01b600052604160045260246000fd5b604081019081106001600160401b038211176139e657604052565b608081019081106001600160401b038211176139e657604052565b90601f801991011681019081106001600160401b038211176139e657604052565b6001600160401b0381116139e65760051b60200190565b60208060031983011261399c57600435916001600160401b03831161399c578060238401121561399c578260040135613aa281613a53565b93613ab06040519586613a32565b81855260248486019260051b82010192831161399c57602401905b828210613ad9575050505090565b838091613ae5846139b7565b815201910190613acb565b6001600160401b0381116139e657601f01601f191660200190565b81601f8201121561399c57803590613b2282613af0565b92613b306040519485613a32565b8284526020838301011161399c57816000926020809301838601378301015290565b35906001600160401b038216820361399c57565b91909161014090818185031261399c57604051918201906001600160401b0391838110838211176139e657604052829481358452602082013583811161399c5781613bb2918401613b0b565b6020850152604082013583811161399c5781613bcf918401613b0b565b6040850152613be060608301613b52565b6060850152613bf1608083016139b7565b6080850152613c0260a083016139b7565b60a085015260c082013560c085015260e082013560e0850152610100613c29818401613b52565b90850152610120928383013590811161399c57613c469201613b0b565b910152565b60005b838110613c5e5750506000910152565b8181015183820152602001613c4e565b90602091613c8781518092818552858086019101613c4b565b601f01601f1916010190565b6020908160408183019282815285518094520193019160005b828110613cba575050505090565b83516001600160a01b031685529381019392810192600101613cac565b601c54811015613d0e57601c6000527f0e4562a10381dec21b205ed72637e6b1b523bdd0e4d4d50af5cd23dd4500a2110190600090565b634e487b7160e01b600052603260045260246000fd5b600754811015613d0e5760076000527fa66cc928b5edb82af9bd49922954155ab7b0942694bea4ce44661d9a8736c6880190600090565b600554811015613d0e5760056000527f036b6384b5eca791c62761152d0c79bb0604c104a5fb6f4eb0703f3154bb3db00190600090565b8054821015613d0e5760005260206000200190600090565b606060031982011261399c576004356001600160a01b038116810361399c579160243591604435906001600160401b03821161399c57613dec91600401613b0b565b90565b90604060031983011261399c5760043591602435906001600160401b03821161399c57613dec91600401613b0b565b601d54811015613d0e57601d60005260021b7f6d4407e7be21f808e6509aa9fa9143369579dd7d760fe20a2c09680fc146134f0190600090565b6020908160408183019282815285518094520193019160005b828110613e7f575050505090565b835185529381019392810192600101613e71565b6000818152600191602091838352604093848220338352845260ff858320541615613ebf575050505050565b33855193606085018581106001600160401b0382111761417a578752602a8552858501918736843785511561416657603083538551841015614166576078602187015360295b8481116140fc57506140ba57865192613f1d84613a17565b604284528684019460603687378451156140a6576030865384518210156140a65790607860218601536041915b81831161403857505050613ff65761119c938693613fda93613fcb604894613fa29a519a8b957f416363657373436f6e74726f6c3a206163636f756e74200000000000000000008c8801525180926037880190613c4b565b8401917001034b99036b4b9b9b4b733903937b6329607d1b603784015251809386840190613c4b565b01036028810187520185613a32565b5192839262461bcd60e51b845260048401526024830190613c6e565b60648587519062461bcd60e51b825280600483015260248201527f537472696e67733a20686578206c656e67746820696e73756666696369656e746044820152fd5b909192600f81166010811015614092576f181899199a1a9b1b9c1cb0b131b232b360811b901a614068858861423a565b5360041c92801561407e57600019019190613f4a565b634e487b7160e01b82526011600452602482fd5b634e487b7160e01b83526032600452602483fd5b634e487b7160e01b81526032600452602490fd5b60648688519062461bcd60e51b825280600483015260248201527f537472696e67733a20686578206c656e67746820696e73756666696369656e746044820152fd5b90600f81166010811015614152576f181899199a1a9b1b9c1cb0b131b232b360811b901a61412a838961423a565b5360041c90801561413e5760001901613f05565b634e487b7160e01b86526011600452602486fd5b634e487b7160e01b87526032600452602487fd5b634e487b7160e01b85526032600452602485fd5b634e487b7160e01b85526041600452602485fd5b906000918083526001602052604083209160018060a01b03169182845260205260ff6040842054166141bf57505050565b8083526001602052604083208284526020526040832060ff1981541690557ff6391f5c32d9c69d2a47ea670b442974b53935d1edc7fd64eb21e047a839171b339380a4565b8181029291811591840414171561421757565b634e487b7160e01b600052601160045260246000fd5b9190820180921161421757565b908151811015613d0e570160200190565b601c54801561426257600181018091116142175790565b50600090565b1561426f57565b60405162461bcd60e51b815260206004820152601a60248201527f746f6b656e2073616c6520616c726561647920737461727465640000000000006044820152606490fd5b156142bb57565b60405162461bcd60e51b815260206004820152601960248201527f63616c6c657220686173206e6f742061646d696e20726f6c65000000000000006044820152606490fd5b1561430757565b60405162461bcd60e51b815260206004820152601a60248201527f656e642064617465206265666f726520737461727420646174650000000000006044820152606490fd5b601c54600160401b8110156139e65761436e8160016143859301601c55613cd7565b819391549060031b91821b91600019901b19161790565b9055565b805490600160401b8210156139e6578161436e91600161438594018155613d92565b60001981146142175760010190565b9190820391821161421757565b81156143d1570490565b634e487b7160e01b600052601260045260246000fd5b60195480421061426257601b54801561441a5761440761440c92426143ba565b6143c7565b600181018091116142175790565b5050600190565b600f546040516370a0823160e01b815230600482015290602090829060249082906001600160a01b03165afa90811561448d5760009161445f575090565b906020823d8211614485575b8161447860209383613a32565b8101031261050557505190565b3d915061446b565b6040513d6000823e3d90fd5b601454421015806144a75790565b50601554421090565b6013546144bc91614204565b600f5460405163313ce56760e01b815290602090829060049082906001600160a01b03165afa90811561448d5760009161450b575b5060ff1690604d821161421757613dec91600a0a906143c7565b6020813d821161453f575b8161452360209383613a32565b8101031261054257519060ff82168203610505575060ff6144f1565b3d9150614516565b60018060a01b03166000526020601f81526040600020906040518092839183825491828152019160005283600020936000905b82821061459057505050613dec92500382613a32565b85548452600195860195879550938101939091019061457a565b60ff60125460081c16156146b557600c546001600160a01b039081169190826145d6575b505050600090565b6040516370a0823160e01b81529116600482018190526020918281602481875afa90811561448d57600091614688575b50600d54111561468057819060246040518095819363f6a3f3cf60e01b835260048301525afa90811561448d57600091614654575b509050600e54111561464f573880806145ce565b600190565b82813d8311614679575b6146688183613a32565b81010312610505575051803861463b565b503d61465e565b505050600190565b908382813d83116146ae575b61469e8183613a32565b8101031261050557505138614606565b503d614694565b50600190565b6040516323b872dd60e01b60208201526001600160a01b03928316602482015292909116604483015260648083019390935291815260a08101918183106001600160401b038411176139e6576147139260405261472d565b565b9081602091031261399c5751801515810361399c5790565b6040516147aa916001600160a01b0316614746826139fc565b6000806020958685527f5361666545524332303a206c6f772d6c6576656c2063616c6c206661696c656487860152868151910182855af13d15614832573d9161478e83613af0565b9261479c6040519485613a32565b83523d60008785013e614836565b80519082821592831561481a575b505050156147c35750565b6084906040519062461bcd60e51b82526004820152602a60248201527f5361666545524332303a204552433230206f7065726174696f6e20646964206e6044820152691bdd081cdd58d8d9595960b21b6064820152fd5b61482a9350820181019101614715565b3882816147b8565b6060915b91929015614898575081511561484a575090565b3b156148535790565b60405162461bcd60e51b815260206004820152601d60248201527f416464726573733a2063616c6c20746f206e6f6e2d636f6e74726163740000006044820152606490fd5b8251909150156148ab5750805190602001fd5b60405162461bcd60e51b81526020600482015290819061119c906024830190613c6e565b156148d657565b60405162461bcd60e51b815260206004820152601960248201527f616d6f756e74203e20746f6b656e7320617661696c61626c65000000000000006044820152606490fd5b1561492257565b60405162461bcd60e51b815260206004820152601760248201527f616d6f756e74203c206d696e696d756d20616d6f756e740000000000000000006044820152606490fd5b1561496e57565b60405162461bcd60e51b815260206004820152601760248201527f616d6f756e74203e206d6178696d756d20616d6f756e740000000000000000006044820152606490fd5b8051821015613d0e5760209160051b010190565b156149ce57565b60405162461bcd60e51b815260206004820152601f60248201527f616d6f756e7420676f6573206f76657220696e646976696475616c206d6178006044820152606490fd5b601d54600160401b8110156139e657806001614a329201601d55613e1e565b919091614ab757805182546020830151604084015160608501516001600160e01b03199093166001600160a01b03949094169390931760a091821b65ffffffffffff60a01b161792151560d01b60ff60d01b169290921790151560d81b60ff60d81b1617835560808201516001840155810151600283015560c0015160039190910155565b634e487b7160e01b600052600060045260246000fd5b601e54600160401b8110156139e6576001810180601e55811015613d0e57601e6000527f50bb669a95c7b50b7e8a6f09454034b2b14cf2b85c730dca9a539ca82cb6e3500180546001600160a01b0319166001600160a01b03909216919091179055565b60ff60005416614b3d57565b60405162461bcd60e51b815260206004820152601060248201526f14185d5cd8589b194e881c185d5cd95960821b6044820152606490fd5b60405163a9059cbb60e01b60208201526001600160a01b039092166024830152604482019290925261471391612a518260648101612a43565b6601000000000000811015614bc85765ffffffffffff1690565b60405162461bcd60e51b815260206004820152601c60248201527f76616c756520646f65736e27742066697420696e2034382062697473000000006044820152606490fd5b60405190614c1a826139fc565b601a82527f70757263686173655f696420646f6573206e6f742065786973740000000000006020830152565b601d54811015614fc45760ff60125416614f87576015544210614f4a5760009060ff825416614f0f5760175460165411614ed8576003614c936001614c8a84613e1e565b50015492613e1e565b5001549080821015614e9c5760195492834210614e5e57614cb6601a548561422d565b4210614e205750601c5480614d685750601b5442614cd4828661422d565b11614d445750614ce492506143ba565b8015614d165790604051614cf7816139fc565b600f81526e726561647920746f2072656465656d60881b602082015290565b90604051614d23816139fc565b60118152706e6f7468696e6720746f2072656465656d60781b602082015290565b614407614d5e92614d58614d6396426143ba565b90614204565b6143ba565b614ce4565b909192614d78614d8191426143ba565b601b54906143c7565b908110614d93575090614d63916143ba565b655af3107a400091614da7614db492613cd7565b90549060031b1c90614204565b0490808210614dc657614d63916143ba565b60405162461bcd60e51b815260206004820152602c60248201527f494e5445524e414c204552524f5220696e2076657374696e6720616d6f756e7460448201526b1031b0b631bab630ba34b7b760a11b6064820152608490fd5b9250505090604051614e31816139fc565b601d81527f76657374696e6720636c696666206e6f74207965742072656163686564000000602082015290565b9250505090604051614e6f816139fc565b601e81527f76657374696e6720706572696f64206e6f742079657420737461727465640000602082015290565b505090604051614eab816139fc565b601a81527f616c6c20746f6b656e20616c72656164792072656465656d6564000000000000602082015290565b5090604051614ee6816139fc565b60198152781b5a5b9a5b5d5b481c985a5cd9481b9bdd081c995858da1959603a1b602082015290565b5090604051614f1d816139fc565b601d81527f746f6b656e2073616c6520636f6e747261637420697320706175736564000000602082015290565b50600090604051614f5a816139fc565b601881527f746f6b656e2073616c65206e6f742066696e616c697a65640000000000000000602082015290565b50600090604051614f97816139fc565b601981527f68617320746f206265206e6f6e2041746f6d6963207377617000000000000000602082015290565b50600090613dec614c0d565b601d548110614feb5750600090600090600090613dec614c0d565b6001614ff682613e1e565b50015491615011600361500884613e1e565b50015492614c46565b9091565b1561501c57565b60405162461bcd60e51b815260206004820152601860248201527f73616c652068617320746f2062652066696e616c697a656400000000000000006044820152606490fd5b60ff600054161561506e57565b60405162461bcd60e51b815260206004820152601460248201527314185d5cd8589b194e881b9bdd081c185d5cd95960621b6044820152606490fd5b156150b157565b60405162461bcd60e51b815260206004820152601c60248201527f63616c6c6572206973206e6f742057686974656c6973744f776e6572000000006044820152606490fd5b60008181526006602052604081205461515757600554600160401b81101561514357908261512f61436e84600160409601600555613d5b565b905560055492815260066020522055600190565b634e487b7160e01b82526041600452602482fd5b905090565b60008181526008602052604081205461515757600754600160401b81101561514357908261519561436e84600160409601600755613d24565b905560075492815260086020522055600190565b600081815260086020526040812054909190801561527a5760001990808201818111615266576007549083820191821161413e57808203615232575b505050600754801561521e578101906151fd82613d24565b909182549160031b1b19169055600755815260086020526040812055600190565b634e487b7160e01b84526031600452602484fd5b61525061524161436e93613d24565b90549060031b1c928392613d24565b90558452600860205260408420553880806151e5565b634e487b7160e01b85526011600452602485fd5b505090565b600081815260066020526040812054909190801561527a5760001990808201818111615266576005549083820191821161413e578082036152f4575b505050600554801561521e578101906152d382613d5b565b909182549160031b1b19169055600555815260066020526040812055600190565b61531261530361436e93613d5b565b90549060031b1c928392613d5b565b90558452600660205260408420553880806152bb565b604182510361537257613dec9161536a917f19457468657265756d205369676e6564204d6573736167653a0a333200000000600052601c52603c6000206154d1565b9190916153b7565b60405162461bcd60e51b815260206004820152601960248201527f7369676e6174757265206973206e6f74203635206279746573000000000000006044820152606490fd5b60058110156154bb57806153c85750565b600181036154155760405162461bcd60e51b815260206004820152601860248201527f45434453413a20696e76616c6964207369676e617475726500000000000000006044820152606490fd5b600281036154625760405162461bcd60e51b815260206004820152601f60248201527f45434453413a20696e76616c6964207369676e6174757265206c656e677468006044820152606490fd5b60031461546b57565b60405162461bcd60e51b815260206004820152602260248201527f45434453413a20696e76616c6964207369676e6174757265202773272076616c604482015261756560f01b6064820152608490fd5b634e487b7160e01b600052602160045260246000fd5b9060418151146000146154fb57615011916020820151906060604084015193015160001a90615505565b5050600090600290565b9291907f7fffffffffffffffffffffffffffffff5d576e7357a4501ddfe92f46681b20a083116155825791608094939160ff602094604051948552168484015260408301526060820152600093849182805260015afa156155755781516001600160a01b038116156146b5579190565b50604051903d90823e3d90fd5b50505050600090600390565b6155cf92916040519060208201926001600160601b03199060601b16835260348201523060601b6054820152604881526155c781613a17565b519020615328565b6002546001600160a01b0391821691161490565b6001600160a01b038082166000818152600860205260409020549293926156ac576002549060ff8260a01c161590811561568e575b5061568457811691821515938461563d575b5050505061563757600090565b60045490565b6156799293945060405160208101916001600160601b03199060601b168252600060348201523060601b6054820152604881526155c781613a17565b16143880808061562a565b5050505060045490565b6156a691506000526006602052604060002054151590565b38615618565b50505050600090565b909160018060a01b038083169081600052600860205260406000205461574e576002549160ff8360a01c1615908115615730575b506157255784911615159283615713575b5050506157075750600090565b80613dec575060045490565b61571d935061558e565b3882816156fa565b505050505060045490565b61574891506000526006602052604060002054151590565b386156e9565b505050505060009056feb813b807c25079ba97f1770664c6a9e57c59afe74a6295f1ed01c10e3bb6baaea164736f6c6343000813000a2f8788117e7eff1d82e926ec794901d17c78024a50270940304540a733656f0da6eef7e35abe7026729641147f7915573c7e97b47efa546f5f6e3230263bcb493acbad85bd32baf6e5d5ba94bd47682ad030e73e3fc17231cdb7884e58d4e082b813b807c25079ba97f1770664c6a9e57c59afe74a6295f1ed01c10e3bb6baae358823ad0653452618750bed6506f24f63ef58f0cce438e3a379e32873da19d245b3d3a903390c195d0bfd3836d4bf6ddb42d6e2323e6bd9571885c64405cb85",
  "linkReferences": {},
  "deployedLinkReferences": {}
}