{
  "_format": "hh-sol-artifact-1",
  "contractName": "FixedSwap",
  "sourceName": "contracts/FixedSwap.sol",
  "abi": [
    {
      "inputs": [
        {
          "internalType": "address",
          "name": "_tokenAddress",
          "type": "address"
        },
        {
          "internalType": "uint256",
          "name": "_tradeValue",
          "type": "uint256"
        },
        {
          "internalType": "uint256",
          "name": "_tokensForSale",
          "type": "uint256"
        },
        {
          "internalType": "uint256",
          "name": "_startDate",
          "type": "uint256"
        },
        {
          "internalType": "uint256",
          "name": "_endDate",
          "type": "uint256"
        },
        {
          "internalType": "uint256",
          "name": "_individualMinimumAmount",
          "type": "uint256"
        },
        {
          "internalType": "uint256",
          "name": "_individualMaximumAmount",
          "type": "uint256"
        },
        {
          "internalType": "bool",
          "name": "_ignored",
          "type": "bool"
        },
        {
          "internalType": "uint256",
          "name": "_minimumRaise",
          "type": "uint256"
        },
        {
          "internalType": "uint256",
          "name": "_feePercentage",
          "type": "uint256"
        },
        {
          "internalType": "uint32",
          "name": "_flags",
          "type": "uint32"
        },
        {
          "internalType": "address",
          "name": "_erc20TradeAddress",
          "type": "address"
        }
      ],
      "stateMutability": "nonpayable",
      "type": "constructor"
    },
    {
      "anonymous": false,
      "inputs": [
        {
          "indexed": false,
          "internalType": "uint256",
          "name": "count",
          "type": "uint256"
        }
      ],
      "name": "AddedArrayToBlacklist",
      "type": "event"
    },
    {
      "anonymous": false,
      "inputs": [
        {
          "indexed": false,
          "internalType": "uint256",
          "name": "count",
          "type": "uint256"
        }
      ],
      "name": "AddedArrayToWhitelist",
      "type": "event"
    },
    {
      "anonymous": false,
      "inputs": [
        {
          "indexed": true,
          "internalType": "address",
          "name": "account",
          "type": "address"
        }
      ],
      "name": "AddedToBlacklist",
      "type": "event"
    },
    {
      "anonymous": false,
      "inputs": [
        {
          "indexed": true,
          "internalType": "address",
          "name": "account",
          "type": "address"
        }
      ],
      "name": "AddedToWhitelist",
      "type": "event"
    },
    {
      "anonymous": false,
      "inputs": [
        {
          "indexed": false,
          "internalType": "address",
          "name": "account",
          "type": "address"
        }
      ],
      "name": "Paused",
      "type": "event"
    },
    {
      "anonymous": false,
      "inputs": [
        {
          "indexed": false,
          "internalType": "uint256",
          "name": "amount",
          "type": "uint256"
        },
        {
          "indexed": true,
          "internalType": "address",
          "name": "purchaser",
          "type": "address"
        },
        {
          "indexed": false,
          "internalType": "uint256",
          "name": "timestamp",
          "type": "uint256"
        }
      ],
      "name": "PurchaseEvent",
      "type": "event"
    },
    {
      "anonymous": false,
      "inputs": [
        {
          "indexed": true,
          "internalType": "address",
          "name": "account",
          "type": "address"
        }
      ],
      "name": "RemovedFromBlacklist",
      "type": "event"
    },
    {
      "anonymous": false,
      "inputs": [
        {
          "indexed": true,
          "internalType": "address",
          "name": "account",
          "type": "address"
        }
      ],
      "name": "RemovedFromWhitelist",
      "type": "event"
    },
    {
      "anonymous": false,
      "inputs": [
        {
          "indexed": true,
          "internalType": "bytes32",
          "name": "role",
          "type": "bytes32"
        },
        {
          "indexed": true,
          "internalType": "bytes32",
          "name": "previousAdminRole",
          "type": "bytes32"
        },
        {
          "indexed": true,
          "internalType": "bytes32",
          "name": "newAdminRole",
          "type": "bytes32"
        }
      ],
      "name": "RoleAdminChanged",
      "type": "event"
    },
    {
      "anonymous": false,
      "inputs": [
        {
          "indexed": true,
          "internalType": "bytes32",
          "name": "role",
          "type": "bytes32"
        },
        {
          "indexed": true,
          "internalType": "address",
          "name": "account",
          "type": "address"
        },
        {
          "indexed": true,
          "internalType": "address",
          "name": "sender",
          "type": "address"
        }
      ],
      "name": "RoleGranted",
      "type": "event"
    },
    {
      "anonymous": false,
      "inputs": [
        {
          "indexed": true,
          "internalType": "bytes32",
          "name": "role",
          "type": "bytes32"
        },
        {
          "indexed": true,
          "internalType": "address",
          "name": "account",
          "type": "address"
        },
        {
          "indexed": true,
          "internalType": "address",
          "name": "sender",
          "type": "address"
        }
      ],
      "name": "RoleRevoked",
      "type": "event"
    },
    {
      "anonymous": false,
      "inputs": [
        {
          "indexed": false,
          "internalType": "bool",
          "name": "hasWhitelisting",
          "type": "bool"
        }
      ],
      "name": "SetHasWhitelisting",
      "type": "event"
    },
    {
      "anonymous": false,
      "inputs": [
        {
          "indexed": false,
          "internalType": "address",
          "name": "account",
          "type": "address"
        }
      ],
      "name": "Unpaused",
      "type": "event"
    },
    {
      "inputs": [],
      "name": "DECIMALS_PERCENT_MUL",
      "outputs": [
        {
          "internalType": "uint256",
          "name": "",
          "type": "uint256"
        }
      ],
      "stateMutability": "view",
      "type": "function"
    },
    {
      "inputs": [],
      "name": "DEFAULT_ADMIN_ROLE",
      "outputs": [
        {
          "internalType": "bytes32",
          "name": "",
          "type": "bytes32"
        }
      ],
      "stateMutability": "view",
      "type": "function"
    },
    {
      "inputs": [],
      "name": "FEE_ADDRESS",
      "outputs": [
        {
          "internalType": "address",
          "name": "",
          "type": "address"
        }
      ],
      "stateMutability": "view",
      "type": "function"
    },
    {
      "inputs": [],
      "name": "PolsStakeAddress",
      "outputs": [
        {
          "internalType": "address",
          "name": "",
          "type": "address"
        }
      ],
      "stateMutability": "view",
      "type": "function"
    },
    {
      "inputs": [],
      "name": "PolsStakeAmount",
      "outputs": [
        {
          "internalType": "uint256",
          "name": "",
          "type": "uint256"
        }
      ],
      "stateMutability": "view",
      "type": "function"
    },
    {
      "inputs": [],
      "name": "PolsStakeRewards",
      "outputs": [
        {
          "internalType": "uint256",
          "name": "",
          "type": "uint256"
        }
      ],
      "stateMutability": "view",
      "type": "function"
    },
    {
      "inputs": [],
      "name": "WHITELIST_OWNER_ROLE",
      "outputs": [
        {
          "internalType": "bytes32",
          "name": "",
          "type": "bytes32"
        }
      ],
      "stateMutability": "view",
      "type": "function"
    },
    {
      "inputs": [
        {
          "internalType": "address[]",
          "name": "_addresses",
          "type": "address[]"
        }
      ],
      "name": "addArrayToBlacklist",
      "outputs": [],
      "stateMutability": "nonpayable",
      "type": "function"
    },
    {
      "inputs": [
        {
          "internalType": "address[]",
          "name": "_addresses",
          "type": "address[]"
        }
      ],
      "name": "addArrayToWhitelist",
      "outputs": [],
      "stateMutability": "nonpayable",
      "type": "function"
    },
    {
      "inputs": [
        {
          "internalType": "address",
          "name": "_address",
          "type": "address"
        }
      ],
      "name": "addToBlacklist",
      "outputs": [],
      "stateMutability": "nonpayable",
      "type": "function"
    },
    {
      "inputs": [
        {
          "internalType": "address",
          "name": "_address",
          "type": "address"
        }
      ],
      "name": "addToWhitelist",
      "outputs": [],
      "stateMutability": "nonpayable",
      "type": "function"
    },
    {
      "inputs": [],
      "name": "availableTokens",
      "outputs": [
        {
          "internalType": "uint256",
          "name": "",
          "type": "uint256"
        }
      ],
      "stateMutability": "view",
      "type": "function"
    },
    {
      "inputs": [
        {
          "internalType": "uint256",
          "name": "",
          "type": "uint256"
        }
      ],
      "name": "buyers",
      "outputs": [
        {
          "internalType": "address",
          "name": "",
          "type": "address"
        }
      ],
      "stateMutability": "view",
      "type": "function"
    },
    {
      "inputs": [
        {
          "internalType": "uint256",
          "name": "_amount",
          "type": "uint256"
        }
      ],
      "name": "cost",
      "outputs": [
        {
          "internalType": "uint256",
          "name": "",
          "type": "uint256"
        }
      ],
      "stateMutability": "view",
      "type": "function"
    },
    {
      "inputs": [
        {
          "internalType": "address",
          "name": "_account",
          "type": "address"
        },
        {
          "internalType": "uint256",
          "name": "_accountMaximunAllocation",
          "type": "uint256"
        },
        {
          "internalType": "bytes",
          "name": "_signature",
          "type": "bytes"
        }
      ],
      "name": "determineAccountMaximunAllocation",
      "outputs": [
        {
          "internalType": "uint256",
          "name": "",
          "type": "uint256"
        }
      ],
      "stateMutability": "view",
      "type": "function"
    },
    {
      "inputs": [],
      "name": "endDate",
      "outputs": [
        {
          "internalType": "uint256",
          "name": "",
          "type": "uint256"
        }
      ],
      "stateMutability": "view",
      "type": "function"
    },
    {
      "inputs": [],
      "name": "erc20",
      "outputs": [
        {
          "internalType": "contract IERC20",
          "name": "",
          "type": "address"
        }
      ],
      "stateMutability": "view",
      "type": "function"
    },
    {
      "inputs": [],
      "name": "erc20TradeIn",
      "outputs": [
        {
          "internalType": "contract IERC20",
          "name": "",
          "type": "address"
        }
      ],
      "stateMutability": "view",
      "type": "function"
    },
    {
      "inputs": [],
      "name": "feePercentage",
      "outputs": [
        {
          "internalType": "uint256",
          "name": "",
          "type": "uint256"
        }
      ],
      "stateMutability": "view",
      "type": "function"
    },
    {
      "inputs": [
        {
          "internalType": "uint256",
          "name": "_amount",
          "type": "uint256"
        }
      ],
      "name": "fund",
      "outputs": [],
      "stateMutability": "nonpayable",
      "type": "function"
    },
    {
      "inputs": [],
      "name": "fundFull",
      "outputs": [],
      "stateMutability": "nonpayable",
      "type": "function"
    },
    {
      "inputs": [],
      "name": "getAPIVersion",
      "outputs": [
        {
          "internalType": "uint32",
          "name": "API_VERSION",
          "type": "uint32"
        }
      ],
      "stateMutability": "pure",
      "type": "function"
    },
    {
      "inputs": [],
      "name": "getBlacklistedAddresses",
      "outputs": [
        {
          "internalType": "address[]",
          "name": "",
          "type": "address[]"
        }
      ],
      "stateMutability": "view",
      "type": "function"
    },
    {
      "inputs": [],
      "name": "getBuyers",
      "outputs": [
        {
          "internalType": "address[]",
          "name": "",
          "type": "address[]"
        }
      ],
      "stateMutability": "view",
      "type": "function"
    },
    {
      "inputs": [],
      "name": "getCurrentSchedule",
      "outputs": [
        {
          "internalType": "uint256",
          "name": "schedule",
          "type": "uint256"
        }
      ],
      "stateMutability": "view",
      "type": "function"
    },
    {
      "inputs": [
        {
          "internalType": "address",
          "name": "_address",
          "type": "address"
        }
      ],
      "name": "getMyPurchases",
      "outputs": [
        {
          "internalType": "uint256[]",
          "name": "",
          "type": "uint256[]"
        }
      ],
      "stateMutability": "view",
      "type": "function"
    },
    {
      "inputs": [],
      "name": "getMyPurchases_msgSender",
      "outputs": [
        {
          "internalType": "uint256[]",
          "name": "",
          "type": "uint256[]"
        }
      ],
      "stateMutability": "view",
      "type": "function"
    },
    {
      "inputs": [
        {
          "internalType": "uint256",
          "name": "purchase_id",
          "type": "uint256"
        }
      ],
      "name": "getPurchase",
      "outputs": [
        {
          "internalType": "uint256",
          "name": "amount",
          "type": "uint256"
        },
        {
          "internalType": "address",
          "name": "purchaser",
          "type": "address"
        },
        {
          "internalType": "uint256",
          "name": "costAmount",
          "type": "uint256"
        },
        {
          "internalType": "uint48",
          "name": "timestamp",
          "type": "uint48"
        },
        {
          "internalType": "bool",
          "name": "wasFinalized",
          "type": "bool"
        },
        {
          "internalType": "bool",
          "name": "reverted",
          "type": "bool"
        },
        {
          "internalType": "uint256",
          "name": "amountRedeemed",
          "type": "uint256"
        }
      ],
      "stateMutability": "view",
      "type": "function"
    },
    {
      "inputs": [],
      "name": "getPurchasesCount",
      "outputs": [
        {
          "internalType": "uint256",
          "name": "count",
          "type": "uint256"
        }
      ],
      "stateMutability": "view",
      "type": "function"
    },
    {
      "inputs": [
        {
          "internalType": "uint256",
          "name": "purchase_id",
          "type": "uint256"
        }
      ],
      "name": "getRedeemStatus",
      "outputs": [
        {
          "internalType": "uint256",
          "name": "amount",
          "type": "uint256"
        },
        {
          "internalType": "uint256",
          "name": "amountRedeemed",
          "type": "uint256"
        },
        {
          "internalType": "uint256",
          "name": "vestAmount",
          "type": "uint256"
        },
        {
          "internalType": "string",
          "name": "message",
          "type": "string"
        }
      ],
      "stateMutability": "view",
      "type": "function"
    },
    {
      "inputs": [
        {
          "internalType": "uint256",
          "name": "purchase_id",
          "type": "uint256"
        }
      ],
      "name": "getRedeemableTokensAmount",
      "outputs": [
        {
          "internalType": "uint256",
          "name": "amount",
          "type": "uint256"
        },
        {
          "internalType": "string",
          "name": "message",
          "type": "string"
        }
      ],
      "stateMutability": "view",
      "type": "function"
    },
    {
      "inputs": [
        {
          "internalType": "bytes32",
          "name": "role",
          "type": "bytes32"
        }
      ],
      "name": "getRoleAdmin",
      "outputs": [
        {
          "internalType": "bytes32",
          "name": "",
          "type": "bytes32"
        }
      ],
      "stateMutability": "view",
      "type": "function"
    },
    {
      "inputs": [],
      "name": "getWhitelistedAddresses",
      "outputs": [
        {
          "internalType": "address[]",
          "name": "",
          "type": "address[]"
        }
      ],
      "stateMutability": "view",
      "type": "function"
    },
    {
      "inputs": [
        {
          "internalType": "bytes32",
          "name": "role",
          "type": "bytes32"
        },
        {
          "internalType": "address",
          "name": "account",
          "type": "address"
        }
      ],
      "name": "grantRole",
      "outputs": [],
      "stateMutability": "nonpayable",
      "type": "function"
    },
    {
      "inputs": [],
      "name": "hasFinalized",
      "outputs": [
        {
          "internalType": "bool",
          "name": "",
          "type": "bool"
        }
      ],
      "stateMutability": "view",
      "type": "function"
    },
    {
      "inputs": [],
      "name": "hasMinimumAmount",
      "outputs": [
        {
          "internalType": "bool",
          "name": "",
          "type": "bool"
        }
      ],
      "stateMutability": "view",
      "type": "function"
    },
    {
      "inputs": [],
      "name": "hasMinimumRaise",
      "outputs": [
        {
          "internalType": "bool",
          "name": "",
          "type": "bool"
        }
      ],
      "stateMutability": "view",
      "type": "function"
    },
    {
      "inputs": [
        {
          "internalType": "bytes32",
          "name": "role",
          "type": "bytes32"
        },
        {
          "internalType": "address",
          "name": "account",
          "type": "address"
        }
      ],
      "name": "hasRole",
      "outputs": [
        {
          "internalType": "bool",
          "name": "",
          "type": "bool"
        }
      ],
      "stateMutability": "view",
      "type": "function"
    },
    {
      "inputs": [],
      "name": "hasStarted",
      "outputs": [
        {
          "internalType": "bool",
          "name": "",
          "type": "bool"
        }
      ],
      "stateMutability": "view",
      "type": "function"
    },
    {
      "inputs": [],
      "name": "hasWhitelisting",
      "outputs": [
        {
          "internalType": "bool",
          "name": "",
          "type": "bool"
        }
      ],
      "stateMutability": "view",
      "type": "function"
    },
    {
      "inputs": [],
      "name": "individualMaximumAmount",
      "outputs": [
        {
          "internalType": "uint256",
          "name": "",
          "type": "uint256"
        }
      ],
      "stateMutability": "view",
      "type": "function"
    },
    {
      "inputs": [],
      "name": "individualMinimumAmount",
      "outputs": [
        {
          "internalType": "uint256",
          "name": "",
          "type": "uint256"
        }
      ],
      "stateMutability": "view",
      "type": "function"
    },
    {
      "inputs": [
        {
          "internalType": "address",
          "name": "_account",
          "type": "address"
        }
      ],
      "name": "isAddressPOLSWhitelisted",
      "outputs": [
        {
          "internalType": "bool",
          "name": "",
          "type": "bool"
        }
      ],
      "stateMutability": "view",
      "type": "function"
    },
    {
      "inputs": [
        {
          "internalType": "address",
          "name": "_address",
          "type": "address"
        }
      ],
      "name": "isBlacklisted",
      "outputs": [
        {
          "internalType": "bool",
          "name": "",
          "type": "bool"
        }
      ],
      "stateMutability": "view",
      "type": "function"
    },
    {
      "inputs": [
        {
          "internalType": "uint256",
          "name": "purchase_id",
          "type": "uint256"
        }
      ],
      "name": "isBuyer",
      "outputs": [
        {
          "internalType": "bool",
          "name": "",
          "type": "bool"
        }
      ],
      "stateMutability": "view",
      "type": "function"
    },
    {
      "inputs": [],
      "name": "isETHTrade",
      "outputs": [
        {
          "internalType": "bool",
          "name": "",
          "type": "bool"
        }
      ],
      "stateMutability": "view",
      "type": "function"
    },
    {
      "inputs": [],
      "name": "isOpen",
      "outputs": [
        {
          "internalType": "bool",
          "name": "",
          "type": "bool"
        }
      ],
      "stateMutability": "view",
      "type": "function"
    },
    {
      "inputs": [],
      "name": "isPOLSWhitelisted",
      "outputs": [
        {
          "internalType": "bool",
          "name": "",
          "type": "bool"
        }
      ],
      "stateMutability": "view",
      "type": "function"
    },
    {
      "inputs": [],
      "name": "isPreStart",
      "outputs": [
        {
          "internalType": "bool",
          "name": "",
          "type": "bool"
        }
      ],
      "stateMutability": "view",
      "type": "function"
    },
    {
      "inputs": [],
      "name": "isSaleFunded",
      "outputs": [
        {
          "internalType": "bool",
          "name": "",
          "type": "bool"
        }
      ],
      "stateMutability": "view",
      "type": "function"
    },
    {
      "inputs": [
        {
          "internalType": "address",
          "name": "_userAccountAaddress",
          "type": "address"
        },
        {
          "internalType": "uint256",
          "name": "_accountMaximunAllocation",
          "type": "uint256"
        },
        {
          "internalType": "bytes",
          "name": "signature",
          "type": "bytes"
        }
      ],
      "name": "isSignerForAddressMaxAlloc",
      "outputs": [
        {
          "internalType": "bool",
          "name": "",
          "type": "bool"
        }
      ],
      "stateMutability": "view",
      "type": "function"
    },
    {
      "inputs": [
        {
          "internalType": "bytes32",
          "name": "hash",
          "type": "bytes32"
        },
        {
          "internalType": "bytes",
          "name": "signature",
          "type": "bytes"
        }
      ],
      "name": "isSignerFromBytes32",
      "outputs": [
        {
          "internalType": "bool",
          "name": "",
          "type": "bool"
        }
      ],
      "stateMutability": "view",
      "type": "function"
    },
    {
      "inputs": [],
      "name": "isTokenSwapAtomic",
      "outputs": [
        {
          "internalType": "bool",
          "name": "",
          "type": "bool"
        }
      ],
      "stateMutability": "view",
      "type": "function"
    },
    {
      "inputs": [
        {
          "internalType": "address",
          "name": "_address",
          "type": "address"
        }
      ],
      "name": "isWhitelisted",
      "outputs": [
        {
          "internalType": "bool",
          "name": "",
          "type": "bool"
        }
      ],
      "stateMutability": "view",
      "type": "function"
    },
    {
      "inputs": [],
      "name": "minimumRaise",
      "outputs": [
        {
          "internalType": "uint256",
          "name": "",
          "type": "uint256"
        }
      ],
      "stateMutability": "view",
      "type": "function"
    },
    {
      "inputs": [],
      "name": "minimumRaiseAchieved",
      "outputs": [
        {
          "internalType": "bool",
          "name": "",
          "type": "bool"
        }
      ],
      "stateMutability": "view",
      "type": "function"
    },
    {
      "inputs": [],
      "name": "minimumRaiseNotAchieved",
      "outputs": [
        {
          "internalType": "bool",
          "name": "",
          "type": "bool"
        }
      ],
      "stateMutability": "view",
      "type": "function"
    },
    {
      "inputs": [
        {
          "internalType": "address",
          "name": "",
          "type": "address"
        },
        {
          "internalType": "uint256",
          "name": "",
          "type": "uint256"
        }
      ],
      "name": "myPurchases",
      "outputs": [
        {
          "internalType": "uint256",
          "name": "",
          "type": "uint256"
        }
      ],
      "stateMutability": "view",
      "type": "function"
    },
    {
      "inputs": [],
      "name": "pause",
      "outputs": [],
      "stateMutability": "nonpayable",
      "type": "function"
    },
    {
      "inputs": [],
      "name": "paused",
      "outputs": [
        {
          "internalType": "bool",
          "name": "",
          "type": "bool"
        }
      ],
      "stateMutability": "view",
      "type": "function"
    },
    {
      "inputs": [
        {
          "internalType": "uint256",
          "name": "purchase_id",
          "type": "uint256"
        }
      ],
      "name": "purchaseExists",
      "outputs": [
        {
          "internalType": "bool",
          "name": "",
          "type": "bool"
        }
      ],
      "stateMutability": "view",
      "type": "function"
    },
    {
      "inputs": [
        {
          "internalType": "uint256",
          "name": "",
          "type": "uint256"
        }
      ],
      "name": "purchases",
      "outputs": [
        {
          "internalType": "address",
          "name": "purchaser",
          "type": "address"
        },
        {
          "internalType": "uint48",
          "name": "timestamp",
          "type": "uint48"
        },
        {
          "internalType": "bool",
          "name": "wasFinalized",
          "type": "bool"
        },
        {
          "internalType": "bool",
          "name": "reverted",
          "type": "bool"
        },
        {
          "internalType": "uint256",
          "name": "amount",
          "type": "uint256"
        },
        {
          "internalType": "uint256",
          "name": "costAmount",
          "type": "uint256"
        },
        {
          "internalType": "uint256",
          "name": "amountRedeemed",
          "type": "uint256"
        }
      ],
      "stateMutability": "view",
      "type": "function"
    },
    {
      "inputs": [
        {
          "internalType": "bytes32",
          "name": "hash",
          "type": "bytes32"
        },
        {
          "internalType": "bytes",
          "name": "signature",
          "type": "bytes"
        }
      ],
      "name": "recoverSignerAddressFromBytes32",
      "outputs": [
        {
          "internalType": "address",
          "name": "",
          "type": "address"
        }
      ],
      "stateMutability": "pure",
      "type": "function"
    },
    {
      "inputs": [
        {
          "internalType": "uint256",
          "name": "purchase_id",
          "type": "uint256"
        }
      ],
      "name": "redeemGivenMinimumGoalNotAchieved",
      "outputs": [],
      "stateMutability": "nonpayable",
      "type": "function"
    },
    {
      "inputs": [
        {
          "internalType": "uint256",
          "name": "purchase_id",
          "type": "uint256"
        }
      ],
      "name": "redeemTokens",
      "outputs": [],
      "stateMutability": "nonpayable",
      "type": "function"
    },
    {
      "inputs": [
        {
          "internalType": "address",
          "name": "_address",
          "type": "address"
        }
      ],
      "name": "removeFromBlacklist",
      "outputs": [],
      "stateMutability": "nonpayable",
      "type": "function"
    },
    {
      "inputs": [
        {
          "internalType": "address",
          "name": "_address",
          "type": "address"
        }
      ],
      "name": "removeFromWhitelist",
      "outputs": [],
      "stateMutability": "nonpayable",
      "type": "function"
    },
    {
      "inputs": [
        {
          "internalType": "address",
          "name": "_tokenAddress",
          "type": "address"
        },
        {
          "internalType": "address",
          "name": "_to",
          "type": "address"
        }
      ],
      "name": "removeOtherERC20Tokens",
      "outputs": [],
      "stateMutability": "nonpayable",
      "type": "function"
    },
    {
      "inputs": [
        {
          "internalType": "bytes32",
          "name": "role",
          "type": "bytes32"
        },
        {
          "internalType": "address",
          "name": "account",
          "type": "address"
        }
      ],
      "name": "renounceRole",
      "outputs": [],
      "stateMutability": "nonpayable",
      "type": "function"
    },
    {
      "inputs": [
        {
          "internalType": "bytes32",
          "name": "role",
          "type": "bytes32"
        },
        {
          "internalType": "address",
          "name": "account",
          "type": "address"
        }
      ],
      "name": "revokeRole",
      "outputs": [],
      "stateMutability": "nonpayable",
      "type": "function"
    },
    {
      "inputs": [],
      "name": "safePullETH",
      "outputs": [],
      "stateMutability": "nonpayable",
      "type": "function"
    },
    {
      "inputs": [],
      "name": "safePullSaleToken",
      "outputs": [],
      "stateMutability": "nonpayable",
      "type": "function"
    },
    {
      "inputs": [],
      "name": "safePullTradeToken",
      "outputs": [],
      "stateMutability": "nonpayable",
      "type": "function"
    },
    {
      "inputs": [
        {
          "internalType": "uint256",
          "name": "_endDate",
          "type": "uint256"
        }
      ],
      "name": "setEndDate",
      "outputs": [],
      "stateMutability": "nonpayable",
      "type": "function"
    },
    {
      "inputs": [
        {
          "internalType": "bool",
          "name": "_hasWhitelisting",
          "type": "bool"
        }
      ],
      "name": "setHasWhitelisting",
      "outputs": [],
      "stateMutability": "nonpayable",
      "type": "function"
    },
    {
      "inputs": [
        {
          "internalType": "uint256",
          "name": "_individualMaximumAmount",
          "type": "uint256"
        }
      ],
      "name": "setIndividualMaximumAmount",
      "outputs": [],
      "stateMutability": "nonpayable",
      "type": "function"
    },
    {
      "inputs": [
        {
          "internalType": "address",
          "name": "_PolsStakeAddress",
          "type": "address"
        },
        {
          "internalType": "uint256",
          "name": "_PolsStakeAmount",
          "type": "uint256"
        },
        {
          "internalType": "uint256",
          "name": "_PolsStakeRewards",
          "type": "uint256"
        }
      ],
      "name": "setPolsStakingRequirement",
      "outputs": [],
      "stateMutability": "nonpayable",
      "type": "function"
    },
    {
      "inputs": [
        {
          "internalType": "address",
          "name": "_signerPublicAddress",
          "type": "address"
        }
      ],
      "name": "setSignerPublicAddress",
      "outputs": [],
      "stateMutability": "nonpayable",
      "type": "function"
    },
    {
      "inputs": [
        {
          "internalType": "address",
          "name": "_stakingRewardsAddress",
          "type": "address"
        }
      ],
      "name": "setStakingRewards",
      "outputs": [],
      "stateMutability": "nonpayable",
      "type": "function"
    },
    {
      "inputs": [
        {
          "internalType": "uint256",
          "name": "_startDate",
          "type": "uint256"
        }
      ],
      "name": "setStartDate",
      "outputs": [],
      "stateMutability": "nonpayable",
      "type": "function"
    },
    {
      "inputs": [
        {
          "internalType": "uint256",
          "name": "_tradeValue",
          "type": "uint256"
        }
      ],
      "name": "setTradeValue",
      "outputs": [],
      "stateMutability": "nonpayable",
      "type": "function"
    },
    {
      "inputs": [
        {
          "internalType": "uint256",
          "name": "_tgeAllocation",
          "type": "uint256"
        },
        {
          "internalType": "uint256",
          "name": "_tgeTime",
          "type": "uint256"
        },
        {
          "internalType": "uint256",
          "name": "_vestingStart",
          "type": "uint256"
        },
        {
          "internalType": "uint256",
          "name": "_vestingCliff",
          "type": "uint256"
        },
        {
          "internalType": "uint256",
          "name": "_vestingDuration",
          "type": "uint256"
        },
        {
          "internalType": "uint256[]",
          "name": "_vestingSchedule",
          "type": "uint256[]"
        }
      ],
      "name": "setVesting",
      "outputs": [],
      "stateMutability": "nonpayable",
      "type": "function"
    },
    {
      "inputs": [],
      "name": "signerPublicAddress",
      "outputs": [
        {
          "internalType": "address",
          "name": "",
          "type": "address"
        }
      ],
      "stateMutability": "view",
      "type": "function"
    },
    {
      "inputs": [],
      "name": "stakingRewardsAddress",
      "outputs": [
        {
          "internalType": "address",
          "name": "",
          "type": "address"
        }
      ],
      "stateMutability": "view",
      "type": "function"
    },
    {
      "inputs": [],
      "name": "startDate",
      "outputs": [
        {
          "internalType": "uint256",
          "name": "",
          "type": "uint256"
        }
      ],
      "stateMutability": "view",
      "type": "function"
    },
    {
      "inputs": [
        {
          "internalType": "bytes4",
          "name": "interfaceId",
          "type": "bytes4"
        }
      ],
      "name": "supportsInterface",
      "outputs": [
        {
          "internalType": "bool",
          "name": "",
          "type": "bool"
        }
      ],
      "stateMutability": "view",
      "type": "function"
    },
    {
      "inputs": [
        {
          "internalType": "uint256",
          "name": "_amount",
          "type": "uint256"
        },
        {
          "internalType": "bytes",
          "name": "_signature",
          "type": "bytes"
        }
      ],
      "name": "swap",
      "outputs": [],
      "stateMutability": "payable",
      "type": "function"
    },
    {
      "inputs": [
        {
          "internalType": "uint256",
          "name": "_amount",
          "type": "uint256"
        },
        {
          "internalType": "uint256",
          "name": "_accountMaxAmount",
          "type": "uint256"
        },
        {
          "internalType": "bytes",
          "name": "_signature",
          "type": "bytes"
        }
      ],
      "name": "swapWithSig",
      "outputs": [],
      "stateMutability": "payable",
      "type": "function"
    },
    {
      "inputs": [],
      "name": "tgeAllocation",
      "outputs": [
        {
          "internalType": "uint256",
          "name": "",
          "type": "uint256"
        }
      ],
      "stateMutability": "view",
      "type": "function"
    },
    {
      "inputs": [],
      "name": "tgeTime",
      "outputs": [
        {
          "internalType": "uint256",
          "name": "",
          "type": "uint256"
        }
      ],
      "stateMutability": "view",
      "type": "function"
    },
    {
      "inputs": [],
      "name": "tokensAllocated",
      "outputs": [
        {
          "internalType": "uint256",
          "name": "",
          "type": "uint256"
        }
      ],
      "stateMutability": "view",
      "type": "function"
    },
    {
      "inputs": [],
      "name": "tokensForSale",
      "outputs": [
        {
          "internalType": "uint256",
          "name": "",
          "type": "uint256"
        }
      ],
      "stateMutability": "view",
      "type": "function"
    },
    {
      "inputs": [],
      "name": "tokensLeft",
      "outputs": [
        {
          "internalType": "uint256",
          "name": "",
          "type": "uint256"
        }
      ],
      "stateMutability": "view",
      "type": "function"
    },
    {
      "inputs": [],
      "name": "totalRaiseCost",
      "outputs": [
        {
          "internalType": "uint256",
          "name": "",
          "type": "uint256"
        }
      ],
      "stateMutability": "view",
      "type": "function"
    },
    {
      "inputs": [],
      "name": "tradeValue",
      "outputs": [
        {
          "internalType": "uint256",
          "name": "",
          "type": "uint256"
        }
      ],
      "stateMutability": "view",
      "type": "function"
    },
    {
      "inputs": [
        {
          "internalType": "uint256",
          "name": "purchase_id",
          "type": "uint256"
        },
        {
          "internalType": "bool",
          "name": "stake",
          "type": "bool"
        }
      ],
      "name": "transferTokens",
      "outputs": [],
      "stateMutability": "nonpayable",
      "type": "function"
    },
    {
      "inputs": [],
      "name": "unpause",
      "outputs": [],
      "stateMutability": "nonpayable",
      "type": "function"
    },
    {
      "inputs": [],
      "name": "unsoldTokensRedeemed",
      "outputs": [
        {
          "internalType": "bool",
          "name": "",
          "type": "bool"
        }
      ],
      "stateMutability": "view",
      "type": "function"
    },
    {
      "inputs": [],
      "name": "vestingCliff",
      "outputs": [
        {
          "internalType": "uint256",
          "name": "",
          "type": "uint256"
        }
      ],
      "stateMutability": "view",
      "type": "function"
    },
    {
      "inputs": [],
      "name": "vestingDuration",
      "outputs": [
        {
          "internalType": "uint256",
          "name": "",
          "type": "uint256"
        }
      ],
      "stateMutability": "view",
      "type": "function"
    },
    {
      "inputs": [
        {
          "internalType": "uint256",
          "name": "",
          "type": "uint256"
        }
      ],
      "name": "vestingSchedule",
      "outputs": [
        {
          "internalType": "uint256",
          "name": "",
          "type": "uint256"
        }
      ],
      "stateMutability": "view",
      "type": "function"
    },
    {
      "inputs": [],
      "name": "vestingStart",
      "outputs": [
        {
          "internalType": "uint256",
          "name": "",
          "type": "uint256"
        }
      ],
      "stateMutability": "view",
      "type": "function"
    },
    {
      "inputs": [],
      "name": "vestingTime",
      "outputs": [
        {
          "internalType": "uint256",
          "name": "",
          "type": "uint256"
        }
      ],
      "stateMutability": "view",
      "type": "function"
    },
    {
      "inputs": [],
      "name": "withdrawFunds",
      "outputs": [],
      "stateMutability": "nonpayable",
      "type": "function"
    },
    {
      "inputs": [],
      "name": "withdrawUnsoldTokens",
      "outputs": [],
      "stateMutability": "nonpayable",
      "type": "function"
    }
  ],
  "bytecode": "0x6080346200056457601f62005bc238819003918201601f1916830191906001600160401b038311848410176200056957816101809285926040958652833981010312620005645762000051826200057f565b6020808401518385015192606086015160808701519660a08101519160c08201519460e083015180151503620005645761010083015190610120840151986101408501519863ffffffff8a1694858b0362000564578a8d96620000ba61016060ff9a016200057f565b998919998a996000948b86541686558260a01b199081600254166002557fb813b807c25079ba97f1770664c6a9e57c59afe74a6295f1ed01c10e3bb6baae9182885260019e8f808c52858a20338b528c5286868b205416156200052e575b50506002549160028660a01b9116151560a01b169116176002558360035585528b875280852033865287528420541615620004ea57808d10620004a6578f60049d8e558380528a8652808420338552865260ff81852054161562000471575b50834210156200042e578515620003f7578510620003b457848711620003715760638e116200032e5760081115620002ea578d60ff9183601255808052898552818120338252855220541615620002a7578d111562000265575061ff0098999a9b601355601655601155828816151560001462000259575060105416176010555b600d80546001600160a01b03199081166001600160a01b03948516179091559116908162000249575b50506010549216151560081b169061ff00191617601055600f555161560d9081620005958239f35b600e541617600e55388062000221565b915050601455620001f8565b886064918d519162461bcd60e51b8352820152601a60248201527f656e642064617465206265666f726520737461727420646174650000000000006044820152fd5b8c5162461bcd60e51b8152808b01839052601960248201527f63616c6c657220686173206e6f742061646d696e20726f6c65000000000000006044820152606490fd5b508c5162461bcd60e51b8152808b01839052601560248201527f756e737570706f7274656420666c6167732073657400000000000000000000006044820152606490fd5b8e5162461bcd60e51b8152808d01859052601e60248201527f4665652050657263656e746167652068617320746f206265203c2031303000006044820152606490fd5b8e5162461bcd60e51b8152808d01859052601c60248201527f6d696e696d756d5261697365203e20746f6b656e73466f7253616c65000000006044820152606490fd5b8e5162461bcd60e51b8152808d01859052601e60248201527f746f6b656e73466f7253616c65203c20696e646976696475616c206d696e00006044820152606490fd5b8f5162461bcd60e51b8152808e0186905260116024820152706e6f20746f6b656e20666f722073616c6560781b6044820152606490fd5b8f5162461bcd60e51b8152808e01869052601960248201527f7374617274206461746520697320696e207468652070617374000000000000006044820152606490fd5b8380528a8652808420338552865283208a8a82541617905533338460008051602062005ba28339815191528180a48f62000177565b8f5162461bcd60e51b815260048101869052601b60248201527f696e646976696475616c206d6178203c206d696e20616d6f756e7400000000006044820152606490fd5b8f5162461bcd60e51b815260048101869052601c60248201527f63616c6c6572206973206e6f742057686974656c6973744f776e6572000000006044820152606490fd5b848a52808c52858a20338b528c52858a209182541617905533338460008051602062005ba28339815191528b80a48d8f62000118565b600080fd5b634e487b7160e01b600052604160045260246000fd5b51906001600160a01b0382168203620005645756fe608060408181526004918236101561001657600080fd5b600090813560e01c90816301ffc9a714613b0c575080630274fa9814613aa7578063044c0cc514613a7d5780630766234514613a5657806308abd7ff1461397c5780630b97bc861461395d57806312aef8c31461393e57806313430f011461391f5780631514617e1461390057806315b57866146138df578063161a7b2a146138425780631a808187146132805780631de18af71461306d57806321d3002a1461304957806324600fc314612e29578063248a9ca314612dff578063254800d414612de05780632593ea1714612dbc578063273e96e914612d965780632e15410714612d775780632ebb5c1e14612d565780632f2ff15d14612ca95780633070b98d146129655780633163e3a81461294657806331d06af31461291d57806336568abe1461288c5780633742a9f7146127885780633784f000146127325780633af32abf146126f55780633b6577c8146126bb5780633bbab179146126515780633f4ba83a146125e35780634089aa9a146125c157806344337ea11461256057806344691f7e1461253e57806347535d7b14612521578063537df3b6146124c05780635ac699bb146124785780635c975abb146124565780635f635f9a14611ff25780636295a2f414611fd357806369bb4dc214611f3f5780636d02802714611eb35780636eaaabd514611e205780636fb83a5714611dc557806370a898bc14611da457806374fa05fb14611d81578063751ef93d14611d5c578063755e3e2814611d3d57806376807e5f14611cbc578063785e9e8614611c93578063788bff6814611c6a578063799bb23214611c435780637f7b271214611c235780638158f2b814611c0457806382d95df514611b545780638392fe3114611acc5780638456cb5914611a5b57806388b0fe2b1461199e5780638a1a5f3f146119815780638ab1d681146119205780638e75b131146119015780639097548d146118e2578063917c854d14611778578063919bd9301461173f57806391d14854146116f957806394838414146116d257806396a32bc41461166a5780639baf19791461164e5780639d90a46e14611572578063a001ecdd14611553578063a1c09bf114611534578063a217fddf14611519578063a6e158f814611353578063b0b12ac314611335578063b31f8f9314611311578063b367940e146112ed578063b8691787146112af578063ba40a96a14611286578063bd0625ab14610c5e578063bf135abe14610c35578063c0e6498914610b39578063c24a0f8b14610b1a578063c3ca324f14610af3578063c7dab43614610ad6578063c8bdbfb614610a2c578063ca1d209d1461092f578063d0a4a89514610908578063d10dbdf5146108cb578063d547741f1461088d578063dbb57ac814610849578063dc91b072146107b2578063e4101de514610794578063e43252d714610708578063e4a80252146106d6578063e8b882f4146106ad578063eb1edd611461067e578063efbb34d514610657578063f267d48c14610638578063f2aa8218146105f3578063f3640e74146105d4578063f64bfaba14610548578063fce9d11b1461051a578063fe575a87146104dc5763fecf415a146104a757600080fd5b346104d95760203660031901126104d957506104c560209235613f40565b5060018060a01b0390541633149051908152f35b80fd5b5090346105165760203660031901126105165760209181906001600160a01b03610504613b60565b16815260088452205415159051908152f35b5080fd5b50903461051657816003193601126105165761054490610539336145da565b905191829182613f7a565b0390f35b50346104d957806003193601126104d9578151918291601e54808552602080950194601e83527f50bb669a95c7b50b7e8a6f09454034b2b14cf2b85c730dca9a539ca82cb6e35092905b8282106105b45761054486866105aa828b0383613c0e565b5191829182613d1c565b83546001600160a01b031687529586019560019384019390910190610592565b509034610516578160031936011261051657602090601a549051908152f35b509134610634576020366003190112610634573591601e548310156104d9575061061e602092613dad565b905491519160018060a01b039160031b1c168152f35b8280fd5b509034610516578160031936011261051657602090600c549051908152f35b509034610516578160031936011261051657602090610677601654614537565b9051908152f35b5090346105165781600319360112610516576020905173aeb39b67f27b641ef9f95fb74f1a46b1ee4efc838152f35b509034610516578160031936011261051657602090516000805160206155e18339815191528152f35b509034610516576020906106f26106ec36613f11565b906151b0565b60018060a01b0380600254169116149051908152f35b5090346105165760203660031901126105165761075360ff610728613b60565b926000805160206155e183398151915285526001602052808520336000526020526000205416614f32565b6001600160a01b031661076581614f7e565b61076d575080f35b7fa850ae9193f515cbae8d35e8925bd2be26627fc91bce650b8652ed254e9cab038280a280f35b50913461063457826003193601126106345760209250549051908152f35b509134610634576020366003190112610634578035916000805160206155e183398151915284526001602052808420336000526020526107f860ff826000205416614f32565b600354831061080657505580f35b906020606492519162461bcd60e51b8352820152601b60248201527f696e646976696475616c206d6178203c206d696e20616d6f756e7400000000006044820152fd5b50346104d95760203660031901126104d957506108696105449235614e0c565b91949293805195869586526020860152840152608060608401526080830190613cf7565b509190346106345780600319360112610634576108c891356108c360016108b2613b76565b938387528160205286200154613fb5565b61428d565b80f35b509190346106345760203660031901126106345760ff6109019184805260016020528085203360005260205260002054166143b3565b3560115580f35b50903461051657816003193601126105165760209060ff60105460081c1690519015158152f35b50823461051657602080600319360112610634578135916109536012544210614367565b600d5485516370a0823160e01b815230838201526001600160a01b0390911692908181602481875afa8015610a2257859087906109ec575b610995925061432c565b601654106109aa57846108c88530338761474e565b855162461bcd60e51b815291820181905260248201527f6d6f726520746f6b656e73207468616e206e656564656420666f722073616c65604482015260649150fd5b50508181813d8311610a1b575b610a038183613c0e565b81010312610a165784610995915161098b565b600080fd5b503d6109f9565b87513d88823e3d90fd5b50903461051657816003193601126105165760ff610a609183805260016020528084203360005260205260002054166143b3565b610a6e601354421015614e9d565b60105460ff8160101c1661051657601554601454811015610ac557506016545b80610a97578280f35b62ff0000199091166201000017601055600d54610abf919033906001600160a01b03166149b0565b81808280f35b610ad1906016546144b9565b610a8e565b50903461051657816003193601126105165760209061067761434a565b5090346105165760203660031901126105165761054490610539610b15613b60565b6145da565b5090346105165781600319360112610516576020906013549051908152f35b508234610516578160031936011261051657610b586012544210614367565b600d5483516370a0823160e01b815230838201526001600160a01b0390911691602082602481865afa918215610c2b578492610bf8575b506016549081831015610bb557506108c89291610bab916144b9565b903090339061474e565b606490602087519162461bcd60e51b8352820152601d60248201527f636f6e747261637420616c72656164792066756c6c792066756e6465640000006044820152fd5b9091506020813d8211610c23575b81610c1360209383613c0e565b81010312610a1657519085610b8f565b3d9150610c06565b85513d86823e3d90fd5b509034610516578160031936011261051657600e5490516001600160a01b039091168152602090f35b50816003193601126104d95782359160249182356001600160401b03811161051657610c8d9036908701613e85565b93610c9661496c565b610c9e614520565b1561124e57600d5483516370a0823160e01b815230888201526020966001600160a01b03959290919088908290899082908a165afa908115611244578591611217575b50601654116111d957610cf33361463d565b1561119957610d02903361546b565b95861561116857600e5485168061114b57503494610d1f84614537565b8610611113575b610d35601654601554906144b9565b84116110d55760035484106110995787841161105d57338552601f8252828520968351808985829b54938481520190895285892092895b8782821061104757505050610d8392500389613c0e565b8599869a5b89518c1015610dc357610db7610dbd916001610dae8f610da8908f614958565b51613f40565b5001549061432c565b9b6144aa565b9a610d88565b610dce878c9261432c565b116110075760ff60105416610ff3575b6601000000000000421015610fb35760ff60105416855190610dff82613b8c565b3382528582019965ffffffffffff42168b528783019115158252606083018a815260808401908a825260a0850192835260c08501938c8552601d549d600160401b9e8f811015610fa157806001610e599201601d55613f40565b979097610f90575187549151925160ff60d01b90151560d01b1665ffffffffffff60a01b60a09490941b939093166001600160d81b0319909216908b1660ff60d01b19161717178555600393929190610ec79051865460ff60d81b191690151560d81b60ff60d81b16178655565b51600185015551600284015551910155338752601f8452848720601d54600019810191908211610f7e5790610efb91614488565b601e5497881015610f6d575050610f3b8660017fbec109f7ee137de661c6887caa96653c0545050a9908a3b6eb5190440bbec86496979801601e55613dad565b819291549060031b9133831b921b1916179055610f5a8460155461432c565b601555815193845242908401523392a280f35b634e487b7160e01b87526041905285fd5b634e487b7160e01b8952601183528389fd5b634e487b7160e01b8f528e8952898ffd5b634e487b7160e01b8f5260418952898ffd5b601c6064928587519362461bcd60e51b85528401528201527f76616c756520646f65736e27742066697420696e2034382062697473000000006044820152fd5b611002863385600d54166149b0565b610dde565b601f6064928587519362461bcd60e51b85528401528201527f616d6f756e7420676f6573206f76657220696e646976696475616c206d6178006044820152fd5b855484526001958601958e955093019201610d6c565b825162461bcd60e51b8152808a0183905260178189015276185b5bdd5b9d080f881b585e1a5b5d5b48185b5bdd5b9d604a1b6044820152606490fd5b825162461bcd60e51b8152808a0183905260178189015276185b5bdd5b9d080f081b5a5b9a5b5d5b48185b5bdd5b9d604a1b6044820152606490fd5b825162461bcd60e51b8152808a0183905260198189015278616d6f756e74203e20746f6b656e7320617661696c61626c6560381b6044820152606490fd5b825162461bcd60e51b8152808a01839052601381890152721b9bdd08195b9bdd59da08115512081cd95b9d606a1b6044820152606490fd5b9461116361115885614537565b80973090339061474e565b610d26565b600d868992606494519362461bcd60e51b85528401528201526c37379030b63637b1b0ba34b7b760991b6044820152fd5b60648888888186519362461bcd60e51b85528401528201527f61646472657373206e6f742077686974656c697374656420666f7220504f4c536044820152fd5b815162461bcd60e51b81528089018890526019818801527818dbdb9d1c9858dd081b9bdd08199d5b1b1e48199d5b991959603a1b6044820152606490fd5b90508781813d831161123d575b61122e8183613c0e565b81010312610a16575138610ce1565b503d611224565b83513d87823e3d90fd5b825162461bcd60e51b81526020818801526013818601527239b0b632903430b9903a379031329037b832b760691b6044820152606490fd5b50903461051657816003193601126105165760025490516001600160a01b039091168152602090f35b509034610516576020366003190112610516576112cf60ff610728613b60565b60018060a01b03166001600160601b0360a01b600254161760025580f35b50903461051657816003193601126105165760209060155460145411159051908152f35b509034610516578160031936011261051657602090610677601654601554906144b9565b50903461051657816003193601126105165760209051623567e08152f35b50823461051657602036600319011261051657803561137760ff6010541615614e51565b611385601354421015614e9d565b61138d61496c565b61139681613f40565b50546001600160a01b039190821633036114df576113b381614a22565b819491156114b9575060016113c783613f40565b50015460036113d584613f40565b50015491816113e4878561432c565b1161144357506108c895965061140f8583611415936114058360039761432c565b146114235761432c565b92613f40565b5001553390600d54166149b0565b61142c86613f40565b50805460ff60d01b1916600160d01b17905561432c565b60a490602089519162461bcd60e51b8352820152604460248201527f494e5445524e414c204552524f52203a20616d6f756e7452656465656d65642060448201527f776f756c64206265206c6172676572207468656e20707572636861736520616d6064820152631bdd5b9d60e21b6084820152fd5b906114db602092885193849362461bcd60e51b85528401526024830190613cf7565b0390fd5b845162461bcd60e51b8152602081850152601460248201527320b2323932b9b99034b9903737ba10313abcb2b960611b6044820152606490fd5b50903461051657816003193601126105165751908152602090f35b509034610516578160031936011261051657602090601d549051908152f35b509034610516578160031936011261051657602090600f549051908152f35b5090346105165761158236613c46565b906000805160206155e1833981519152835260019182602052818420336000526020526115b560ff836000205416614f32565b839283815b6115fb575b505050816115cb578280f35b7fc2f03ca34d335e49d4d629b85db054d1ffb679b4fec2e06fe10d0e618b175ecb9160209151908152a181808280f35b8251811015611649576116206001600160a01b036116198386614958565b5116614fe4565b611634575b61162e906144aa565b816115ba565b9361164161162e916144aa565b949050611625565b6115bf565b5090346105165760209061067761166436613ecc565b9161553d565b50903461051657816003193601126105165781805260016020528082203360005260205261169e60ff8260002054166143b3565b6116a6614ee9565b81808080478181156116c9575b3390f1156116bf575080f35b51903d90823e3d90fd5b506108fc6116b3565b50903461051657816003193601126105165760209060ff60105460101c1690519015158152f35b50913461063457816003193601126106345781602093611717613b76565b9235815260018552209060018060a01b0316600052825260ff81600020541690519015158152f35b509134610634576020366003190112610634573591601c548310156104d9575061176a602092613d60565b91905490519160031b1c8152f35b50919034610634578060031936011261063457611793613b60565b61179b613b76565b908480526020600181528386203360005281526117be60ff8560002054166143b3565b6117cc601354421015614e9d565b600d546001600160a01b0392831692908116831461189f57600e5416821461185d578351946370a0823160e01b865230908601528085602481855afa93841561185457508593611822575b506108c893506149b0565b90925083813d831161184d575b6118398183613c0e565b81010312610a16576108c892519138611817565b503d61182f565b513d87823e3d90fd5b8460649185519162461bcd60e51b8352820152601b60248201527f746f6b656e206973207468652074726164652d696e20746f6b656e00000000006044820152fd5b845162461bcd60e51b8152808701839052601b60248201527f746f6b656e2069732074686520746f6b656e20666f722073616c6500000000006044820152606490fd5b50346104d95760203660031901126104d9575061067760209235614537565b5090346105165781600319360112610516576020906014549051908152f35b5090346105165760203660031901126105165761194060ff610728613b60565b6001600160a01b031661195281615107565b61195a575080f35b7fcdd2e9b91a56913d370075169cefa1602ba36be5301664f752192bb1709df7578280a280f35b5090346105165781600319360112610516576020906106776144e6565b509190346106345782600319360112610634578280526020600181528184203360005281526119d360ff8360002054166143b3565b6119db614ee9565b600d5482516370a0823160e01b815230948101949094526001600160a01b0316908084602481855afa928315611a5257508492611a20575b506108c8925033906149b0565b90915082813d8311611a4b575b611a378183613c0e565b81010312610a16576108c891519038611a13565b503d611a2d565b513d86823e3d90fd5b50903461051657816003193601126105165760207f62e78cea01bee320cd4e420270b5ea74000d11b0c9f74754ebdbfc544b05a2589183805260018252808420336000528252611ab160ff8260002054166143b3565b611ab961496c565b835460ff1916600117845551338152a180f35b509134610634576020366003190112610634573591601d548310156104d95750611af760e092613f40565b50805490600181015460ff600360028401549301549385519560018060a01b038216875265ffffffffffff8260a01c166020880152828260d01c1615159087015260d81c1615156060850152608084015260a083015260c0820152f35b50913461063457602036600319011261063457803591611b776012544210614367565b838052600160205280842033600052602052611b9960ff8260002054166143b3565b82421015611bb6575050611bb060135482106143ff565b60125580f35b906020608492519162461bcd60e51b8352820152602260248201527f737461727420646174652068617320746f20626520696e207468652066757475604482015261726560f01b6064820152fd5b5090346105165781600319360112610516576020906017549051908152f35b5090346105165781600319360112610516576020905164e8d4a510008152f35b50903461051657602090611c596106ec36613f11565b90516001600160a01b039091168152f35b50903461051657816003193601126105165760095490516001600160a01b039091168152602090f35b509034610516578160031936011261051657600d5490516001600160a01b039091168152602090f35b50919034610634578260031936011261063457828052602060018152818420336000528152611cf160ff8360002054166143b3565b611cf9614ee9565b600e5482516370a0823160e01b815230948101949094526001600160a01b0316908084602481855afa928315611a5257508492611a2057506108c8925033906149b0565b5090346105165781600319360112610516576020906015549051908152f35b50903461051657602090611d78611d7236613ecc565b91615416565b90519015158152f35b509034610516578160031936011261051657602090601554601454119051908152f35b50903461051657816003193601126105165760209060035415159051908152f35b50903461051657602036600319011261051657611e0260ff611de5613b60565b9284805260016020528085203360005260205260002054166143b3565b60018060a01b03166001600160601b0360a01b600954161760095580f35b509134610634576020366003190112610634573590811515809203610a16577fe905f7f52156c346547b9deb6fb3e2459db941ec55d073fd465129bf4b49fae6916020916000805160206155e1833981519152855260018352808520336000528352611e9260ff826000205416614f32565b6002805460ff60a01b191660a084901b60ff60a01b1617905551908152a180f35b50346104d957806003193601126104d95750600554611ed181613c2f565b90611ede83519283613c0e565b808252601f19611eed82613c2f565b0136602084013760005b818110611f0b578351806105448582613d1c565b80611f18611f3a92613e1b565b905460039190911b1c6001600160a01b0316611f348286614958565b526144aa565b611ef7565b509034610516578160031936011261051657600d5481516370a0823160e01b81523094810194909452602090849060249082906001600160a01b03165afa918215611fc85791611f94575b6020925051908152f35b90506020823d8211611fc0575b81611fae60209383613c0e565b81010312610a16576020915190611f8a565b3d9150611fa1565b9051903d90823e3d90fd5b5090346105165781600319360112610516576020906011549051908152f35b5060603660031901126104d957823560449182356001600160401b038111610516576120219036908701613e85565b9161202a61496c565b612032614520565b1561241e57600d5485516370a0823160e01b815230888201526001600160a01b039660249590926020929083908290899082908d165afa9081156124145786916123e7575b50601654116123aa576120893361463d565b1561236b5761209a9086353361553d565b96871561233a57600e5481168061231d575034956120b785614537565b87106122e7575b6120cd601654601554906144b9565b85116122ab5760035485106122715788851161223757338652601f8352838620998451808c86829e549384815201908a52868a20928a5b8882821061221b5750505061211b9250038c613c0e565b869887995b8c518b101561214c576121406121469160018f610da88f610dae92614958565b9a6144aa565b99612120565b612157888d9261432c565b116121dc5760ff601054166121c8575b6601000000000000421015612189575060ff60105416855190610dff82613b8c565b7f76616c756520646f65736e27742066697420696e20343820626974730000000090601c6064948789519562461bcd60e51b8752860152840152820152fd5b6121d7873386600d54166149b0565b612167565b7f616d6f756e7420676f6573206f76657220696e646976696475616c206d61780090601f6064948789519562461bcd60e51b8752860152840152820152fd5b6001929450829193865481520194019101918e92939193612104565b8976185b5bdd5b9d080f881b585e1a5b5d5b48185b5bdd5b9d604a1b8960176064948789519562461bcd60e51b8752860152840152820152fd5b8976185b5bdd5b9d080f081b5a5b9a5b5d5b48185b5bdd5b9d604a1b8960176064948789519562461bcd60e51b8752860152840152820152fd5b8978616d6f756e74203e20746f6b656e7320617661696c61626c6560381b8960196064948789519562461bcd60e51b8752860152840152820152fd5b89721b9bdd08195b9bdd59da08115512081cd95b9d606a1b8960136064948789519562461bcd60e51b8752860152840152820152fd5b9561233561232a86614537565b80983090339061474e565b6120be565b825162461bcd60e51b8152808a01839052600d818801526c37379030b63637b1b0ba34b7b760991b81890152606490fd5b6064897f61646472657373206e6f742077686974656c697374656420666f7220504f4c5389858a8189519562461bcd60e51b8752860152840152820152fd5b825162461bcd60e51b8152808a018390526019818801527818dbdb9d1c9858dd081b9bdd08199d5b1b1e48199d5b991959603a1b81890152606490fd5b90508281813d831161240d575b6123fe8183613c0e565b81010312610a16575138612077565b503d6123f4565b84513d88823e3d90fd5b845162461bcd60e51b8152602081880152601360248201527239b0b632903430b9903a379031329037b832b760691b81860152606490fd5b50903461051657816003193601126105165760ff602092541690519015158152f35b509034610516578060031936011261051657612492613b60565b6001600160a01b03168252601f602052808220805460243593908410156104d9575060209261176a91613e52565b509034610516576020366003190112610516576124e060ff610728613b60565b6001600160a01b03166124f281615031565b6124fa575080f35b7f2b6bf71b58b3583add364b3d9060ebf8019650f65f5be35f5464b9cb3e4ba2d48280a280f35b509034610516578160031936011261051657602090611d78614520565b5090346105165781600319360112610516576020906012544210159051908152f35b5090346105165760203660031901126105165761258060ff610728613b60565b6001600160a01b031661259281614fe4565b61259a575080f35b7ff9b68063b051b82957fa193585681240904fed808db8b30fc5a2d2202c6ed6278280a280f35b5090346105165781600319360112610516576020906013544210159051908152f35b50903461051657816003193601126105165760207f5db9ee0a495bf2e6ff9c91a7834c1ba4fdd244a5e8aa4e537bd38aeae4b073aa918380526001825280842033600052825261263960ff8260002054166143b3565b612641614ee9565b835460ff1916845551338152a180f35b50346104d957806003193601126104d9575060075461266f81613c2f565b9061267c83519283613c0e565b808252601f1961268b82613c2f565b0136602084013760005b8181106126a9578351806105448582613d1c565b80611f186126b692613de4565b612695565b508290346104d95760203660031901126104d957506126dd6105449135614a22565b83929192519384938452806020850152830190613cf7565b50903461051657602036600319011261051657602090611d786001600160a01b0361271e613b60565b166000526006602052604060002054151590565b509134610634576020366003190112610634576127829035809261277c60ff60125492612760844210614367565b87805260016020528088203360005260205260002054166143b3565b106143ff565b60135580f35b508290346104d95760203660031901126104d95750803590601d548210156128495760e08360c06127b885613f40565b508251926127c584613b8c565b81549060018060a01b0382169283865265ffffffffffff8360a01c169182602088015260ff808560d01c1615159485838a015260d81c1615159485606089015260018301549788608082015260036002850154948560a084015201549788910152815197885260208801528601526060850152608084015260a083015260c0820152f35b606490602084519162461bcd60e51b8352820152601a60248201527f70757263686173655f696420646f6573206e6f742065786973740000000000006044820152fd5b5082346105165782600319360112610516576128a6613b76565b90336001600160a01b038316036128c257906108c8913561428d565b608490602085519162461bcd60e51b8352820152602f60248201527f416363657373436f6e74726f6c3a2063616e206f6e6c792072656e6f756e636560448201526e103937b632b9903337b91039b2b63360891b6064820152fd5b509034610516578160031936011261051657600a5490516001600160a01b039091168152602090f35b5090346105165781600319360112610516576020906018549051908152f35b5090346105165780600319360112610516578235906024803594851595861503612ca55761299860ff6010541615614e51565b6129a6601354421015614e9d565b6129ae61496c565b6129b784613f40565b50546001600160a01b03969087163303612c6c576129d485614a22565b81969115612c4b575060016129e882613f40565b50015460036129f683613f40565b5001549080612a05898461432c565b11612bd65761140f8883612a1f936114058360039761432c565b50015515612a3a575050506108c891923390600d54166149b0565b9091928560095416958615612b8a57859681600d54168651636eb1769f60e11b815230868201528287820152602081604481855afa908115612b805790859392918a91612b44575b50612a93612ad894612ad39261432c565b895163095ea7b360e01b6020808301919091526001600160a01b039095168a8201908152948501919091529283906040015b03601f198101845283613c0e565b6147a8565b60095416803b15612b40576044869286519788938492638b1e31c760e01b84528784015233888401525af1801561124457612b15575b5050505080f35b6001600160401b038411612b2f5750505238808080612b0e565b634e487b7160e01b85526041905283fd5b8580fd5b9350506020833d8211612b78575b81612b5f60209383613c0e565b81010312612b74579151849290612a93612a82565b8880fd5b3d9150612b52565b88513d8b823e3d90fd5b845162461bcd60e51b81526020818501526021818601527f4e6f2049444f207374616b696e6720636f6e747261637420617661696c61626c6044820152606560f81b6064820152608490fd5b60a48560448860208b519362461bcd60e51b85528401528201527f494e5445524e414c204552524f52203a20616d6f756e7452656465656d65642060448201527f776f756c64206265206c6172676572207468656e20707572636861736520616d6064820152631bdd5b9d60e21b6084820152fd5b855162461bcd60e51b81526020818601529081906114db9082880190613cf7565b506014606492602085519362461bcd60e51b85528401528201527320b2323932b9b99034b9903737ba10313abcb2b960611b6044820152fd5b8480fd5b5091346106345781600319360112610634573590612cc5613b76565b908284526001602052612cdd60018286200154613fb5565b828452600160209081528185206001600160a01b039093168086529290528084205460ff1615612d0b578380f35b82845260016020528084208285526020528320600160ff1982541617905533917f2f8788117e7eff1d82e926ec794901d17c78024a50270940304540a733656f0d8480a43880808380f35b50903461051657816003193601126105165760209060125442109051908152f35b5090346105165781600319360112610516576020906003549051908152f35b50903461051657602036600319011261051657602090611d78612db7613b60565b61463d565b5091346106345760203660031901126106345760209250601d549035109051908152f35b5090346105165781600319360112610516576020906019549051908152f35b50913461063457602036600319011261063457816020936001923581528285522001549051908152f35b50919034610634578260031936011261063457828052602091600183528184203385528352612e5d60ff83862054166143b3565b612e6561496c565b612e73601354421015614e9d565b6015546014541161300c57600e546001600160a01b03908116939084612ef1575050509050818080806064612eab47600f5490614303565b04818115612ee8575b73aeb39b67f27b641ef9f95fb74f1a46b1ee4efc8390f1156116bf5781808080478181156116c9573390f1156116bf575080f35b506108fc612eb4565b83516370a0823160e01b8082523085830152958382602481845afa918215613002578892612fce575b506064612f2d612f6a93600f5490614303565b049086519163a9059cbb60e01b8684015273aeb39b67f27b641ef9f95fb74f1a46b1ee4efc836024840152604483015260448252612ad382613bf3565b600e541691835194855230908501528084602481855afa928315611a5257508492612f9c57506108c8925033906149b0565b90915082813d8311612fc7575b612fb38183613c0e565b81010312610634576108c891519038611a13565b503d612fa9565b91508382813d8311612ffb575b612fe58183613c0e565b81010312612ff7579051906064612f1a565b8780fd5b503d612fdb565b86513d8a823e3d90fd5b82606492519162461bcd60e51b835282015260196024820152781b5a5b9a5b5d5b481c985a5cd9481b9bdd081c995858da1959603a1b6044820152fd5b50903461051657816003193601126105165760209060ff6010541690519015158152f35b5091346106345760208060031936011261327c57813590613092601354421015614e9d565b6130a160ff6010541615614e51565b6130aa82613f40565b50546001600160a01b039290831633036132425760145480156131ff5760155410156131bc576130d990613f40565b509260018401541561317b5783549160ff8360d01c1661314157505061ffff60d01b191661010160d01b178255600e54849291168061312e575081806002819301548181156116c9573390f1156116bf575080f35b91506108c89250600201549033906149b0565b855162461bcd60e51b81529182015260156024820152741c1d5c98da185cd9481a5cc8199a5b985b1a5e9959605a1b604482015260649150fd5b60649185519162461bcd60e51b8352820152601760248201527f707572636861736520616d6f756e74206973207a65726f0000000000000000006044820152fd5b845162461bcd60e51b8152808501839052601e60248201527f6d696e696d756d20726169736520686173206265656e207265616368656400006044820152606490fd5b855162461bcd60e51b8152808601849052601d60248201527f6e6f206d696e696d756d20726169736520686173206265656e207365740000006044820152606490fd5b845162461bcd60e51b8152808501839052601460248201527330b2323932b9b99034b9903737ba10313abcb2b960611b6044820152606490fd5b8380fd5b509190346106345760c0366003190112610634578135916001600160401b0391602491604480359260a4359291853591906064908a60843583358b8911610634573660238a01121561063457888801359b8c116106345760059a99368d8d1b8b018c011161327c576132f56012544210614367565b83805260019761331760ff896020978c895281812033825289522054166143b3565b60ff6010541661380157655af3107a40009e8f81116137ca57808f911515918260001461378f5761374e57601354831061370d575b60175581156136ce5750601354811061368d57613369838361432c565b811161364c575b60185561337d828261432c565b6013541161360c578282116135cc578c1592919083156135a0576303c3b8806133a78a5b85614303565b1161355f57601955601a5580601b558d601c549080601c5581613518575b5050868c10156133d3578d80f35b156134bb576134a95787870135938b85101561346b57505050506133f69061444b565b858110613408575b8080808080808d80f35b60001981018181116134595761342061343491613d60565b90548684891b870101359160031b1c61432c565b90878210156134535761344961344e9261444b565b6144aa565b6133f6565b506133fe565b634e487b7160e01b8952601183528489fd5b91601c897f66697273742076657374696e6720706572696f64203e3d203130302500000000938995519562461bcd60e51b8752860152840152820152fd5b634e487b7160e01b8c5260328652878cfd5b845162461bcd60e51b81528088018390526034818b01527f76657374696e6720696e74657276616c6c732070726f76696465642c20627574818501527302076657374696e674475726174696f6e203d20360641b81860152608490fd5b601c81527f0e4562a10381dec21b205ed72637e6b1b523bdd0e4d4d50af5cd23dd4500a2119182019189915b838210613553579150506133c5565b8155018f908991613544565b50865162461bcd60e51b8152808a01859052601c818d01527f746f74616c2076657374696e672074696d65203e203220796561727300000000818701528690fd5b888e01808f116135b8576133a76303c3b880916133a1565b5050634e487b7160e01b8f52601189528a8ffd5b865162461bcd60e51b8152808a01859052601e818d01527f76657374696e67436c696666203e2076657374696e674475726174696f6e0000818701528690fd5b865162461bcd60e51b8152808a018590526017818d01527f76657374696e67206265666f72652073616c6520656e64000000000000000000818701528690fd5b50865162461bcd60e51b8152808a018590526018818d01527f74676554696d65206166746572207665737420636c6966660000000000000000818701528690fd5b50865162461bcd60e51b8152808a01859052601b818d01527f74676554696d65206265666f72652073616c6520656e64446174650000000000818701528690fd5b156133705750865162461bcd60e51b8152808a018590526016818d0152750746765416c6c6f636174696f6e206973206e6f7420360541b818701528690fd5b50885162461bcd60e51b8152808c018790526017818f01527f74676554696d65206265666f72652073616c6520656e64000000000000000000818901528890fd5b50885162461bcd60e51b8152808c01879052601f818f01527f4e6f20544745207665737420666f7220706572696f646963616c207665737400818901528890fd5b50821561334c5750885162461bcd60e51b8152808c018790526010818f01526f074676554696d65206973206e6f7420360841b818901528890fd5b885162461bcd60e51b8152808c018790526014818f015273746765416c6c6f636174696f6e203e203130302560601b818901528890fd5b50865162461bcd60e51b8152808a01859052601a818d01527f6e6f2076657374696e6720666f722061746f6d69632073776170000000000000818701528690fd5b509134610634578260031936011261063457600d5482516370a0823160e01b81523092810192909252602090829060249082906001600160a01b03165afa9081156138d357839161389e575b6020838360165411159051908152f35b90506020813d82116138cb575b816138b860209383613c0e565b810103126106345760209250513861388e565b3d91506138ab565b505051903d90823e3d90fd5b50903461051657816003193601126105165760209060145415159051908152f35b509034610516578160031936011261051657602090601b549051908152f35b509034610516578160031936011261051657602090600b549051908152f35b5090346105165781600319360112610516576020906016549051908152f35b5090346105165781600319360112610516576020906012549051908152f35b5090346105165761398c36613c46565b906000805160206155e18339815191528352600191826020528184203385526020526139bd60ff8386205416614f32565b839283815b613a03575b505050816139d3578280f35b7f448f3bd350ede14a294c062177c5280fe1eae125d16757da21f5f51d6e89daae9160209151908152a181808280f35b8251811015613a5157613a286001600160a01b03613a218386614958565b5116614f7e565b613a3c575b613a36906144aa565b816139c2565b93613a49613a36916144aa565b949050613a2d565b6139c7565b50903461051657816003193601126105165760209060ff60025460a01c1690519015158152f35b509034610516578160031936011261051657600e5490516001600160a01b03909116158152602090f35b50903461051657606036600319011261051657613ae260ff613ac7613b60565b928480526001602052808520338652602052842054166143b3565b60018060a01b03166001600160601b0360a01b600a541617600a55602435600b55604435600c5580f35b90508334610634576020366003190112610634573563ffffffff60e01b81168091036106345760209250637965db0b60e01b8114908115613b4f575b5015158152f35b6301ffc9a760e01b14905083613b48565b600435906001600160a01b0382168203610a1657565b602435906001600160a01b0382168203610a1657565b60e081019081106001600160401b03821117613ba757604052565b634e487b7160e01b600052604160045260246000fd5b604081019081106001600160401b03821117613ba757604052565b606081019081106001600160401b03821117613ba757604052565b608081019081106001600160401b03821117613ba757604052565b90601f801991011681019081106001600160401b03821117613ba757604052565b6001600160401b038111613ba75760051b60200190565b602080600319830112610a1657600435916001600160401b038311610a165780602384011215610a16578260040135613c7e81613c2f565b93613c8c6040519586613c0e565b81855260248486019260051b820101928311610a1657602401905b828210613cb5575050505090565b81356001600160a01b0381168103610a16578152908301908301613ca7565b60005b838110613ce75750506000910152565b8181015183820152602001613cd7565b90602091613d1081518092818552858086019101613cd4565b601f01601f1916010190565b6020908160408183019282815285518094520193019160005b828110613d43575050505090565b83516001600160a01b031685529381019392810192600101613d35565b601c54811015613d9757601c6000527f0e4562a10381dec21b205ed72637e6b1b523bdd0e4d4d50af5cd23dd4500a2110190600090565b634e487b7160e01b600052603260045260246000fd5b601e54811015613d9757601e6000527f50bb669a95c7b50b7e8a6f09454034b2b14cf2b85c730dca9a539ca82cb6e3500190600090565b600754811015613d975760076000527fa66cc928b5edb82af9bd49922954155ab7b0942694bea4ce44661d9a8736c6880190600090565b600554811015613d975760056000527f036b6384b5eca791c62761152d0c79bb0604c104a5fb6f4eb0703f3154bb3db00190600090565b8054821015613d975760005260206000200190600090565b6001600160401b038111613ba757601f01601f191660200190565b81601f82011215610a1657803590613e9c82613e6a565b92613eaa6040519485613c0e565b82845260208383010111610a1657816000926020809301838601378301015290565b6060600319820112610a16576004356001600160a01b0381168103610a16579160243591604435906001600160401b038211610a1657613f0e91600401613e85565b90565b906040600319830112610a165760043591602435906001600160401b038211610a1657613f0e91600401613e85565b601d54811015613d9757601d60005260021b7f6d4407e7be21f808e6509aa9fa9143369579dd7d760fe20a2c09680fc146134f0190600090565b6020908160408183019282815285518094520193019160005b828110613fa1575050505090565b835185529381019392810192600101613f93565b6000818152600191602091838352604093848220338352845260ff858320541615613fe1575050505050565b33855193613fee85613bd8565b602a8552858501918736843785511561427957603083538551841015614279576078602187015360295b84811161420f57506141cd5786519261403084613bf3565b604284528684019460603687378451156141b9576030865384518210156141b95790607860218601536041915b81831161414b57505050614109576114db9386936140ed936140de6048946140b59a519a8b957f416363657373436f6e74726f6c3a206163636f756e74200000000000000000008c8801525180926037880190613cd4565b8401917001034b99036b4b9b9b4b733903937b6329607d1b603784015251809386840190613cd4565b01036028810187520185613c0e565b5192839262461bcd60e51b845260048401526024830190613cf7565b60648587519062461bcd60e51b825280600483015260248201527f537472696e67733a20686578206c656e67746820696e73756666696369656e746044820152fd5b909192600f811660108110156141a5576f181899199a1a9b1b9c1cb0b131b232b360811b901a61417b8588614339565b5360041c9280156141915760001901919061405d565b634e487b7160e01b82526011600452602482fd5b634e487b7160e01b83526032600452602483fd5b634e487b7160e01b81526032600452602490fd5b60648688519062461bcd60e51b825280600483015260248201527f537472696e67733a20686578206c656e67746820696e73756666696369656e746044820152fd5b90600f81166010811015614265576f181899199a1a9b1b9c1cb0b131b232b360811b901a61423d8389614339565b5360041c9080156142515760001901614018565b634e487b7160e01b86526011600452602486fd5b634e487b7160e01b87526032600452602487fd5b634e487b7160e01b85526032600452602485fd5b906000918083526001602052604083209160018060a01b03169182845260205260ff6040842054166142be57505050565b8083526001602052604083208284526020526040832060ff1981541690557ff6391f5c32d9c69d2a47ea670b442974b53935d1edc7fd64eb21e047a839171b339380a4565b8181029291811591840414171561431657565b634e487b7160e01b600052601160045260246000fd5b9190820180921161431657565b908151811015613d97570160200190565b601c54801561436157600181018091116143165790565b50600090565b1561436e57565b60405162461bcd60e51b815260206004820152601a60248201527f746f6b656e2073616c6520616c726561647920737461727465640000000000006044820152606490fd5b156143ba57565b60405162461bcd60e51b815260206004820152601960248201527f63616c6c657220686173206e6f742061646d696e20726f6c65000000000000006044820152606490fd5b1561440657565b60405162461bcd60e51b815260206004820152601a60248201527f656e642064617465206265666f726520737461727420646174650000000000006044820152606490fd5b601c54600160401b811015613ba75761446d8160016144849301601c55613d60565b819391549060031b91821b91600019901b19161790565b9055565b805490600160401b821015613ba7578161446d91600161448494018155613e52565b60001981146143165760010190565b9190820391821161431657565b81156144d0570490565b634e487b7160e01b600052601260045260246000fd5b60195480421061436157601b5480156145195761450661450b92426144b9565b6144c6565b600181018091116143165790565b5050600190565b6012544210158061452e5790565b50601354421090565b60115461454391614303565b600d5460405163313ce56760e01b815290602090829060049082906001600160a01b03165afa9081156145ce57600091614592575b5060ff1690604d821161431657613f0e91600a0a906144c6565b6020813d82116145c6575b816145aa60209383613c0e565b8101031261051657519060ff821682036104d9575060ff614578565b3d915061459d565b6040513d6000823e3d90fd5b60018060a01b03166000526020601f81526040600020906040518092839183825491828152019160005283600020936000905b82821061462357505050613f0e92500382613c0e565b85548452600195860195879550938101939091019061460d565b60ff60105460081c161561474857600a546001600160a01b03908116919082614669575b505050600090565b6040516370a0823160e01b81529116600482018190526020918281602481875afa9081156145ce5760009161471b575b50600b54111561471357819060246040518095819363f6a3f3cf60e01b835260048301525afa9081156145ce576000916146e7575b509050600c5411156146e257388080614661565b600190565b82813d831161470c575b6146fb8183613c0e565b810103126104d957505180386146ce565b503d6146f1565b505050600190565b908382813d8311614741575b6147318183613c0e565b810103126104d957505138614699565b503d614727565b50600190565b6040516323b872dd60e01b60208201526001600160a01b03928316602482015292909116604483015260648083019390935291815260a08101918183106001600160401b03841117613ba7576147a6926040526147a8565b565b60018060a01b0316906148256040516147c081613bbd565b6020938482527f5361666545524332303a206c6f772d6c6576656c2063616c6c206661696c6564858301526000808587829751910182855af13d156148bb573d9161480a83613e6a565b926148186040519485613c0e565b83523d868885013e6148bf565b805191821591848315614897575b5050509050156148405750565b6084906040519062461bcd60e51b82526004820152602a60248201527f5361666545524332303a204552433230206f7065726174696f6e20646964206e6044820152691bdd081cdd58d8d9595960b21b6064820152fd5b919381809450010312610516578201519081151582036104d9575080388084614833565b6060915b9192901561492157508151156148d3575090565b3b156148dc5790565b60405162461bcd60e51b815260206004820152601d60248201527f416464726573733a2063616c6c20746f206e6f6e2d636f6e74726163740000006044820152606490fd5b8251909150156149345750805190602001fd5b60405162461bcd60e51b8152602060048201529081906114db906024830190613cf7565b8051821015613d975760209160051b010190565b60ff6000541661497857565b60405162461bcd60e51b815260206004820152601060248201526f14185d5cd8589b194e881c185d5cd95960821b6044820152606490fd5b60405163a9059cbb60e01b60208201526001600160a01b03909216602483015260448201929092526147a691612ad38260648101612ac5565b604051906149f682613bbd565b601a82527f70757263686173655f696420646f6573206e6f742065786973740000000000006020830152565b90601d54821015614e005760ff60105416614dc3576013544210614d865760009160ff835416614d4c5760155460145411614d16576003614a706001614a6784613f40565b50015492613f40565b5001549080821015614cdb578390601c548015600014614c3b5750601954601b5442614a9c828461432c565b11614bca575050809150905b818311614b70578111614b1f5790614abf916144b9565b91508115614af257604051614ad381613bbd565b600f81526e726561647920746f2072656465656d60881b602082015290565b604051614afe81613bbd565b60118152706e6f7468696e6720746f2072656465656d60781b602082015290565b5050604051614b2d81613bd8565b602d81527f494e5445524e414c204552524f52203a2076657374416d6f756e74203e20707560208201526c1c98da185cd957d85b5bdd5b9d609a1b604082015290565b505050604051614b7f81613bd8565b603581527f494e5445524e414c204552524f52203a2070757263686173655f616d6f756e7460208201527414995919595b5959080f881d995cdd105b5bdd5b9d605a1b604082015290565b601854421015614bdc575b5050614aa8565b909250655af3107a4000614bf260175484614303565b049242614c01601a548361432c565b11614bd5578391614506614c2d92614c27614c208798614c33986144b9565b91426144b9565b90614303565b9061432c565b903880614bd5565b909150601954614c4d601a548261432c565b4210614c9e57614c60614c6991426144b9565b601b54906144c6565b908110614c77575080614aa8565b614c97614c8a655af3107a400092613d60565b90549060031b1c83614303565b0490614aa8565b50505050604051614cae81613bbd565b601d81527f76657374696e6720636c696666206e6f74207965742072656163686564000000602082015290565b5050604051614ce981613bbd565b601a81527f616c6c20746f6b656e20616c72656164792072656465656d6564000000000000602082015290565b50604051614d2381613bbd565b60198152781b5a5b9a5b5d5b481c985a5cd9481b9bdd081c995858da1959603a1b602082015290565b50604051614d5981613bbd565b601d81527f746f6b656e2073616c6520636f6e747261637420697320706175736564000000602082015290565b60405160009250614d9681613bbd565b601881527f746f6b656e2073616c65206e6f742066696e616c697a65640000000000000000602082015290565b60405160009250614dd381613bbd565b601981527f68617320746f206265206e6f6e2041746f6d6963207377617000000000000000602082015290565b60009150613f0e6149e9565b601d548110614e275750600090600090600090613f0e6149e9565b6001614e3282613f40565b50015491614e4d6003614e4484613f40565b50015492614a22565b9091565b15614e5857565b60405162461bcd60e51b815260206004820152601e60248201527f73616c652068617320746f206265206e6f6e2041746f6d6963207377617000006044820152606490fd5b15614ea457565b60405162461bcd60e51b815260206004820152601860248201527f73616c652068617320746f2062652066696e616c697a656400000000000000006044820152606490fd5b60ff6000541615614ef657565b60405162461bcd60e51b815260206004820152601460248201527314185d5cd8589b194e881b9bdd081c185d5cd95960621b6044820152606490fd5b15614f3957565b60405162461bcd60e51b815260206004820152601c60248201527f63616c6c6572206973206e6f742057686974656c6973744f776e6572000000006044820152606490fd5b600081815260066020526040812054614fdf57600554600160401b811015614fcb579082614fb761446d84600160409601600555613e1b565b905560055492815260066020522055600190565b634e487b7160e01b82526041600452602482fd5b905090565b600081815260086020526040812054614fdf57600754600160401b811015614fcb57908261501d61446d84600160409601600755613de4565b905560075492815260086020522055600190565b600081815260086020526040812054909190801561510257600019908082018181116150ee5760075490838201918211614251578082036150ba575b50505060075480156150a65781019061508582613de4565b909182549160031b1b19169055600755815260086020526040812055600190565b634e487b7160e01b84526031600452602484fd5b6150d86150c961446d93613de4565b90549060031b1c928392613de4565b905584526008602052604084205538808061506d565b634e487b7160e01b85526011600452602485fd5b505090565b600081815260066020526040812054909190801561510257600019908082018181116150ee57600554908382019182116142515780820361517c575b50505060055480156150a65781019061515b82613e1b565b909182549160031b1b19169055600555815260066020526040812055600190565b61519a61518b61446d93613e1b565b90549060031b1c928392613e1b565b9055845260066020526040842055388080615143565b60418251036151fa57613f0e916151f2917f19457468657265756d205369676e6564204d6573736167653a0a333200000000600052601c52603c600020615359565b91909161523f565b60405162461bcd60e51b815260206004820152601960248201527f7369676e6174757265206973206e6f74203635206279746573000000000000006044820152606490fd5b600581101561534357806152505750565b6001810361529d5760405162461bcd60e51b815260206004820152601860248201527f45434453413a20696e76616c6964207369676e617475726500000000000000006044820152606490fd5b600281036152ea5760405162461bcd60e51b815260206004820152601f60248201527f45434453413a20696e76616c6964207369676e6174757265206c656e677468006044820152606490fd5b6003146152f357565b60405162461bcd60e51b815260206004820152602260248201527f45434453413a20696e76616c6964207369676e6174757265202773272076616c604482015261756560f01b6064820152608490fd5b634e487b7160e01b600052602160045260246000fd5b90604181511460001461538357614e4d916020820151906060604084015193015160001a9061538d565b5050600090600290565b9291907f7fffffffffffffffffffffffffffffff5d576e7357a4501ddfe92f46681b20a0831161540a5791608094939160ff602094604051948552168484015260408301526060820152600093849182805260015afa156153fd5781516001600160a01b03811615614748579190565b50604051903d90823e3d90fd5b50505050600090600390565b61545792916040519060208201926001600160601b03199060601b16835260348201523060601b60548201526048815261544f81613bf3565b5190206151b0565b6002546001600160a01b0391821691161490565b6001600160a01b03808216600081815260086020526040902054929392615534576002549060ff8260a01c1615908115615516575b5061550c5781169182151593846154c5575b505050506154bf57600090565b60045490565b6155019293945060405160208101916001600160601b03199060601b168252600060348201523060601b60548201526048815261544f81613bf3565b1614388080806154b2565b5050505060045490565b61552e91506000526006602052604060002054151590565b386154a0565b50505050600090565b909160018060a01b03808316908160005260086020526040600020546155d6576002549160ff8360a01c16159081156155b8575b506155ad578491161515928361559b575b50505061558f5750600090565b80613f0e575060045490565b6155a59350615416565b388281615582565b505050505060045490565b6155d091506000526006602052604060002054151590565b38615571565b505050505060009056feb813b807c25079ba97f1770664c6a9e57c59afe74a6295f1ed01c10e3bb6baaea164736f6c6343000813000a2f8788117e7eff1d82e926ec794901d17c78024a50270940304540a733656f0d",
  "linkReferences": {},
  "deployedLinkReferences": {}
}