{
  "contractName": "FixedSwap",
  "abi": [
    {
      "constant": true,
      "inputs": [],
      "name": "hasWhitelisting",
      "outputs": [
        {
          "name": "",
          "type": "bool"
        }
      ],
      "payable": false,
      "stateMutability": "view",
      "type": "function"
    },
    {
      "constant": true,
      "inputs": [],
      "name": "startDate",
      "outputs": [
        {
          "name": "",
          "type": "uint256"
        }
      ],
      "payable": false,
      "stateMutability": "view",
      "type": "function"
    },
    {
      "constant": true,
      "inputs": [],
      "name": "tokensForSale",
      "outputs": [
        {
          "name": "",
          "type": "uint256"
        }
      ],
      "payable": false,
      "stateMutability": "view",
      "type": "function"
    },
    {
      "constant": true,
      "inputs": [],
      "name": "isSaleFunded",
      "outputs": [
        {
          "name": "",
          "type": "bool"
        }
      ],
      "payable": false,
      "stateMutability": "view",
      "type": "function"
    },
    {
      "constant": true,
      "inputs": [],
      "name": "isTokenSwapAtomic",
      "outputs": [
        {
          "name": "",
          "type": "bool"
        }
      ],
      "payable": false,
      "stateMutability": "view",
      "type": "function"
    },
    {
      "constant": true,
      "inputs": [],
      "name": "individualMinimumAmount",
      "outputs": [
        {
          "name": "",
          "type": "uint256"
        }
      ],
      "payable": false,
      "stateMutability": "view",
      "type": "function"
    },
    {
      "constant": true,
      "inputs": [],
      "name": "decimals",
      "outputs": [
        {
          "name": "",
          "type": "uint256"
        }
      ],
      "payable": false,
      "stateMutability": "view",
      "type": "function"
    },
    {
      "constant": true,
      "inputs": [
        {
          "name": "_address",
          "type": "address"
        }
      ],
      "name": "isWhitelisted",
      "outputs": [
        {
          "name": "",
          "type": "bool"
        }
      ],
      "payable": false,
      "stateMutability": "view",
      "type": "function"
    },
    {
      "constant": false,
      "inputs": [],
      "name": "unpause",
      "outputs": [],
      "payable": false,
      "stateMutability": "nonpayable",
      "type": "function"
    },
    {
      "constant": false,
      "inputs": [],
      "name": "claimOwnership",
      "outputs": [],
      "payable": false,
      "stateMutability": "nonpayable",
      "type": "function"
    },
    {
      "constant": true,
      "inputs": [
        {
          "name": "",
          "type": "address"
        },
        {
          "name": "",
          "type": "uint256"
        }
      ],
      "name": "myPurchases",
      "outputs": [
        {
          "name": "",
          "type": "uint256"
        }
      ],
      "payable": false,
      "stateMutability": "view",
      "type": "function"
    },
    {
      "constant": true,
      "inputs": [],
      "name": "paused",
      "outputs": [
        {
          "name": "",
          "type": "bool"
        }
      ],
      "payable": false,
      "stateMutability": "view",
      "type": "function"
    },
    {
      "constant": true,
      "inputs": [],
      "name": "tradeValue",
      "outputs": [
        {
          "name": "",
          "type": "uint256"
        }
      ],
      "payable": false,
      "stateMutability": "view",
      "type": "function"
    },
    {
      "constant": true,
      "inputs": [],
      "name": "getWhitelistedAddresses",
      "outputs": [
        {
          "name": "",
          "type": "address[]"
        }
      ],
      "payable": false,
      "stateMutability": "view",
      "type": "function"
    },
    {
      "constant": true,
      "inputs": [],
      "name": "tokensAllocated",
      "outputs": [
        {
          "name": "",
          "type": "uint256"
        }
      ],
      "payable": false,
      "stateMutability": "view",
      "type": "function"
    },
    {
      "constant": true,
      "inputs": [],
      "name": "erc20POLS",
      "outputs": [
        {
          "name": "",
          "type": "address"
        }
      ],
      "payable": false,
      "stateMutability": "view",
      "type": "function"
    },
    {
      "constant": true,
      "inputs": [],
      "name": "erc20",
      "outputs": [
        {
          "name": "",
          "type": "address"
        }
      ],
      "payable": false,
      "stateMutability": "view",
      "type": "function"
    },
    {
      "constant": true,
      "inputs": [],
      "name": "tradingDecimals",
      "outputs": [
        {
          "name": "",
          "type": "uint256"
        }
      ],
      "payable": false,
      "stateMutability": "view",
      "type": "function"
    },
    {
      "constant": true,
      "inputs": [
        {
          "name": "",
          "type": "uint256"
        }
      ],
      "name": "purchases",
      "outputs": [
        {
          "name": "amount",
          "type": "uint256"
        },
        {
          "name": "purchaser",
          "type": "address"
        },
        {
          "name": "costAmount",
          "type": "uint256"
        },
        {
          "name": "timestamp",
          "type": "uint256"
        },
        {
          "name": "wasFinalized",
          "type": "bool"
        },
        {
          "name": "reverted",
          "type": "bool"
        }
      ],
      "payable": false,
      "stateMutability": "view",
      "type": "function"
    },
    {
      "constant": false,
      "inputs": [],
      "name": "pause",
      "outputs": [],
      "payable": false,
      "stateMutability": "nonpayable",
      "type": "function"
    },
    {
      "constant": true,
      "inputs": [],
      "name": "owner",
      "outputs": [
        {
          "name": "",
          "type": "address"
        }
      ],
      "payable": false,
      "stateMutability": "view",
      "type": "function"
    },
    {
      "constant": true,
      "inputs": [],
      "name": "minimumRaise",
      "outputs": [
        {
          "name": "",
          "type": "uint256"
        }
      ],
      "payable": false,
      "stateMutability": "view",
      "type": "function"
    },
    {
      "constant": true,
      "inputs": [
        {
          "name": "",
          "type": "address"
        }
      ],
      "name": "whitelist",
      "outputs": [
        {
          "name": "",
          "type": "bool"
        }
      ],
      "payable": false,
      "stateMutability": "view",
      "type": "function"
    },
    {
      "constant": true,
      "inputs": [],
      "name": "feePercentage",
      "outputs": [
        {
          "name": "",
          "type": "uint256"
        }
      ],
      "payable": false,
      "stateMutability": "view",
      "type": "function"
    },
    {
      "constant": false,
      "inputs": [
        {
          "name": "_address",
          "type": "address"
        },
        {
          "name": "_index",
          "type": "uint256"
        }
      ],
      "name": "remove",
      "outputs": [],
      "payable": false,
      "stateMutability": "nonpayable",
      "type": "function"
    },
    {
      "constant": true,
      "inputs": [],
      "name": "unsoldTokensReedemed",
      "outputs": [
        {
          "name": "",
          "type": "bool"
        }
      ],
      "payable": false,
      "stateMutability": "view",
      "type": "function"
    },
    {
      "constant": true,
      "inputs": [
        {
          "name": "",
          "type": "uint256"
        }
      ],
      "name": "whitelistedAddresses",
      "outputs": [
        {
          "name": "",
          "type": "address"
        }
      ],
      "payable": false,
      "stateMutability": "view",
      "type": "function"
    },
    {
      "constant": true,
      "inputs": [],
      "name": "endDate",
      "outputs": [
        {
          "name": "",
          "type": "uint256"
        }
      ],
      "payable": false,
      "stateMutability": "view",
      "type": "function"
    },
    {
      "constant": false,
      "inputs": [
        {
          "name": "_addresses",
          "type": "address[]"
        }
      ],
      "name": "add",
      "outputs": [],
      "payable": false,
      "stateMutability": "nonpayable",
      "type": "function"
    },
    {
      "constant": true,
      "inputs": [],
      "name": "isPOLSWhitelisted",
      "outputs": [
        {
          "name": "",
          "type": "bool"
        }
      ],
      "payable": false,
      "stateMutability": "view",
      "type": "function"
    },
    {
      "constant": true,
      "inputs": [],
      "name": "proposedOwner",
      "outputs": [
        {
          "name": "",
          "type": "address"
        }
      ],
      "payable": false,
      "stateMutability": "view",
      "type": "function"
    },
    {
      "constant": true,
      "inputs": [
        {
          "name": "",
          "type": "uint256"
        }
      ],
      "name": "purchaseIds",
      "outputs": [
        {
          "name": "",
          "type": "uint256"
        }
      ],
      "payable": false,
      "stateMutability": "view",
      "type": "function"
    },
    {
      "constant": true,
      "inputs": [],
      "name": "erc20v2POLS",
      "outputs": [
        {
          "name": "",
          "type": "address"
        }
      ],
      "payable": false,
      "stateMutability": "view",
      "type": "function"
    },
    {
      "constant": true,
      "inputs": [],
      "name": "individualMaximumAmount",
      "outputs": [
        {
          "name": "",
          "type": "uint256"
        }
      ],
      "payable": false,
      "stateMutability": "view",
      "type": "function"
    },
    {
      "constant": true,
      "inputs": [],
      "name": "erc20TradeAddress",
      "outputs": [
        {
          "name": "",
          "type": "address"
        }
      ],
      "payable": false,
      "stateMutability": "view",
      "type": "function"
    },
    {
      "constant": true,
      "inputs": [],
      "name": "FEE_ADDRESS",
      "outputs": [
        {
          "name": "",
          "type": "address"
        }
      ],
      "payable": false,
      "stateMutability": "view",
      "type": "function"
    },
    {
      "constant": true,
      "inputs": [
        {
          "name": "",
          "type": "uint256"
        }
      ],
      "name": "buyers",
      "outputs": [
        {
          "name": "",
          "type": "address"
        }
      ],
      "payable": false,
      "stateMutability": "view",
      "type": "function"
    },
    {
      "constant": false,
      "inputs": [
        {
          "name": "_proposedOwner",
          "type": "address"
        }
      ],
      "name": "transferOwnership",
      "outputs": [],
      "payable": false,
      "stateMutability": "nonpayable",
      "type": "function"
    },
    {
      "inputs": [
        {
          "name": "_tokenAddress",
          "type": "address"
        },
        {
          "name": "_tradeValue",
          "type": "uint256"
        },
        {
          "name": "_tokensForSale",
          "type": "uint256"
        },
        {
          "name": "_startDate",
          "type": "uint256"
        },
        {
          "name": "_endDate",
          "type": "uint256"
        },
        {
          "name": "_individualMinimumAmount",
          "type": "uint256"
        },
        {
          "name": "_individualMaximumAmount",
          "type": "uint256"
        },
        {
          "name": "_isTokenSwapAtomic",
          "type": "bool"
        },
        {
          "name": "_minimumRaise",
          "type": "uint256"
        },
        {
          "name": "_feeAmount",
          "type": "uint256"
        },
        {
          "name": "_hasWhitelisting",
          "type": "bool"
        },
        {
          "name": "_erc20TradeAddress",
          "type": "address"
        },
        {
          "name": "_isETHTrade",
          "type": "bool"
        },
        {
          "name": "_isPOLSWhitelisted",
          "type": "bool"
        }
      ],
      "payable": false,
      "stateMutability": "nonpayable",
      "type": "constructor"
    },
    {
      "anonymous": false,
      "inputs": [
        {
          "indexed": false,
          "name": "amount",
          "type": "uint256"
        },
        {
          "indexed": true,
          "name": "purchaser",
          "type": "address"
        },
        {
          "indexed": false,
          "name": "timestamp",
          "type": "uint256"
        }
      ],
      "name": "PurchaseEvent",
      "type": "event"
    },
    {
      "anonymous": false,
      "inputs": [
        {
          "indexed": true,
          "name": "accounts",
          "type": "address[]"
        }
      ],
      "name": "AddedToWhitelist",
      "type": "event"
    },
    {
      "anonymous": false,
      "inputs": [
        {
          "indexed": true,
          "name": "account",
          "type": "address"
        }
      ],
      "name": "RemovedFromWhitelist",
      "type": "event"
    },
    {
      "anonymous": false,
      "inputs": [],
      "name": "Pause",
      "type": "event"
    },
    {
      "anonymous": false,
      "inputs": [],
      "name": "Unpause",
      "type": "event"
    },
    {
      "anonymous": false,
      "inputs": [
        {
          "indexed": true,
          "name": "previousOwner",
          "type": "address"
        },
        {
          "indexed": true,
          "name": "newOwner",
          "type": "address"
        }
      ],
      "name": "OwnershipTransferred",
      "type": "event"
    },
    {
      "constant": true,
      "inputs": [
        {
          "name": "purchase_id",
          "type": "uint256"
        }
      ],
      "name": "isBuyer",
      "outputs": [
        {
          "name": "",
          "type": "bool"
        }
      ],
      "payable": false,
      "stateMutability": "view",
      "type": "function"
    },
    {
      "constant": true,
      "inputs": [],
      "name": "totalRaiseCost",
      "outputs": [
        {
          "name": "",
          "type": "uint256"
        }
      ],
      "payable": false,
      "stateMutability": "view",
      "type": "function"
    },
    {
      "constant": true,
      "inputs": [],
      "name": "availableTokens",
      "outputs": [
        {
          "name": "",
          "type": "uint256"
        }
      ],
      "payable": false,
      "stateMutability": "view",
      "type": "function"
    },
    {
      "constant": true,
      "inputs": [],
      "name": "tokensLeft",
      "outputs": [
        {
          "name": "",
          "type": "uint256"
        }
      ],
      "payable": false,
      "stateMutability": "view",
      "type": "function"
    },
    {
      "constant": true,
      "inputs": [],
      "name": "hasMinimumRaise",
      "outputs": [
        {
          "name": "",
          "type": "bool"
        }
      ],
      "payable": false,
      "stateMutability": "view",
      "type": "function"
    },
    {
      "constant": true,
      "inputs": [],
      "name": "minimumRaiseNotAchieved",
      "outputs": [
        {
          "name": "",
          "type": "bool"
        }
      ],
      "payable": false,
      "stateMutability": "view",
      "type": "function"
    },
    {
      "constant": true,
      "inputs": [],
      "name": "minimumRaiseAchieved",
      "outputs": [
        {
          "name": "",
          "type": "bool"
        }
      ],
      "payable": false,
      "stateMutability": "view",
      "type": "function"
    },
    {
      "constant": true,
      "inputs": [],
      "name": "isETHTrade",
      "outputs": [
        {
          "name": "",
          "type": "bool"
        }
      ],
      "payable": false,
      "stateMutability": "view",
      "type": "function"
    },
    {
      "constant": true,
      "inputs": [],
      "name": "hasFinalized",
      "outputs": [
        {
          "name": "",
          "type": "bool"
        }
      ],
      "payable": false,
      "stateMutability": "view",
      "type": "function"
    },
    {
      "constant": true,
      "inputs": [],
      "name": "hasStarted",
      "outputs": [
        {
          "name": "",
          "type": "bool"
        }
      ],
      "payable": false,
      "stateMutability": "view",
      "type": "function"
    },
    {
      "constant": true,
      "inputs": [],
      "name": "isPreStart",
      "outputs": [
        {
          "name": "",
          "type": "bool"
        }
      ],
      "payable": false,
      "stateMutability": "view",
      "type": "function"
    },
    {
      "constant": true,
      "inputs": [],
      "name": "isOpen",
      "outputs": [
        {
          "name": "",
          "type": "bool"
        }
      ],
      "payable": false,
      "stateMutability": "view",
      "type": "function"
    },
    {
      "constant": true,
      "inputs": [],
      "name": "hasMinimumAmount",
      "outputs": [
        {
          "name": "",
          "type": "bool"
        }
      ],
      "payable": false,
      "stateMutability": "view",
      "type": "function"
    },
    {
      "constant": true,
      "inputs": [
        {
          "name": "_amount",
          "type": "uint256"
        }
      ],
      "name": "cost",
      "outputs": [
        {
          "name": "",
          "type": "uint256"
        }
      ],
      "payable": false,
      "stateMutability": "view",
      "type": "function"
    },
    {
      "constant": true,
      "inputs": [
        {
          "name": "_purchase_id",
          "type": "uint256"
        }
      ],
      "name": "getPurchase",
      "outputs": [
        {
          "name": "",
          "type": "uint256"
        },
        {
          "name": "",
          "type": "address"
        },
        {
          "name": "",
          "type": "uint256"
        },
        {
          "name": "",
          "type": "uint256"
        },
        {
          "name": "",
          "type": "bool"
        },
        {
          "name": "",
          "type": "bool"
        }
      ],
      "payable": false,
      "stateMutability": "view",
      "type": "function"
    },
    {
      "constant": true,
      "inputs": [],
      "name": "getPurchaseIds",
      "outputs": [
        {
          "name": "",
          "type": "uint256[]"
        }
      ],
      "payable": false,
      "stateMutability": "view",
      "type": "function"
    },
    {
      "constant": true,
      "inputs": [],
      "name": "getBuyers",
      "outputs": [
        {
          "name": "",
          "type": "address[]"
        }
      ],
      "payable": false,
      "stateMutability": "view",
      "type": "function"
    },
    {
      "constant": true,
      "inputs": [
        {
          "name": "_address",
          "type": "address"
        }
      ],
      "name": "getMyPurchases",
      "outputs": [
        {
          "name": "",
          "type": "uint256[]"
        }
      ],
      "payable": false,
      "stateMutability": "view",
      "type": "function"
    },
    {
      "constant": true,
      "inputs": [],
      "name": "isAddressPOLSWhitelisted",
      "outputs": [
        {
          "name": "",
          "type": "bool"
        }
      ],
      "payable": false,
      "stateMutability": "view",
      "type": "function"
    },
    {
      "constant": false,
      "inputs": [
        {
          "name": "_amount",
          "type": "uint256"
        }
      ],
      "name": "fund",
      "outputs": [],
      "payable": false,
      "stateMutability": "nonpayable",
      "type": "function"
    },
    {
      "constant": false,
      "inputs": [
        {
          "name": "_amount",
          "type": "uint256"
        }
      ],
      "name": "swap",
      "outputs": [],
      "payable": true,
      "stateMutability": "payable",
      "type": "function"
    },
    {
      "constant": false,
      "inputs": [
        {
          "name": "purchase_id",
          "type": "uint256"
        }
      ],
      "name": "redeemTokens",
      "outputs": [],
      "payable": false,
      "stateMutability": "nonpayable",
      "type": "function"
    },
    {
      "constant": false,
      "inputs": [
        {
          "name": "purchase_id",
          "type": "uint256"
        }
      ],
      "name": "redeemGivenMinimumGoalNotAchieved",
      "outputs": [],
      "payable": false,
      "stateMutability": "nonpayable",
      "type": "function"
    },
    {
      "constant": false,
      "inputs": [],
      "name": "withdrawFunds",
      "outputs": [],
      "payable": false,
      "stateMutability": "nonpayable",
      "type": "function"
    },
    {
      "constant": false,
      "inputs": [],
      "name": "withdrawUnsoldTokens",
      "outputs": [],
      "payable": false,
      "stateMutability": "nonpayable",
      "type": "function"
    },
    {
      "constant": false,
      "inputs": [
        {
          "name": "_tokenAddress",
          "type": "address"
        },
        {
          "name": "_to",
          "type": "address"
        }
      ],
      "name": "removeOtherERC20Tokens",
      "outputs": [],
      "payable": false,
      "stateMutability": "nonpayable",
      "type": "function"
    },
    {
      "constant": false,
      "inputs": [],
      "name": "safePull",
      "outputs": [],
      "payable": true,
      "stateMutability": "payable",
      "type": "function"
    }
  ],
  "bytecode": "0x60806040526000600160146101000a81548160ff0219169083151502179055506000600460006101000a81548160ff02191690831515021790555060006005557383e6f1e41cdd28eaceb20cb649155049fac3d5aa600660006101000a81548173ffffffffffffffffffffffffffffffffffffffff021916908373ffffffffffffffffffffffffffffffffffffffff16021790555073ffa98a091331df4600f87c9164cd27e8a5cd2405600760006101000a81548173ffffffffffffffffffffffffffffffffffffffff021916908373ffffffffffffffffffffffffffffffffffffffff1602179055506000600d60146101000a81548160ff0219169083151502179055506000600e556012600f556000601060006101000a81548160ff0219169083151502179055506000601455600060155560006016556000601755600060185573aeb39b67f27b641ef9f95fb74f1a46b1ee4efc83601960016101000a81548173ffffffffffffffffffffffffffffffffffffffff021916908373ffffffffffffffffffffffffffffffffffffffff1602179055506001601a55348015620001a957600080fd5b506040516101c0806200676183398101806040526101c0811015620001cd57600080fd5b81019080805190602001909291908051906020019092919080519060200190929190805190602001909291908051906020019092919080519060200190929190805190602001909291908051906020019092919080519060200190929190805190602001909291908051906020019092919080519060200190929190805190602001909291908051906020019092919050505083336000806101000a81548173ffffffffffffffffffffffffffffffffffffffff021916908373ffffffffffffffffffffffffffffffffffffffff16021790555080600460006101000a81548160ff0219169083151502179055505089421062000316576040517f08c379a000000000000000000000000000000000000000000000000000000000815260040180806020018281038252602c81526020018062006698602c913960400191505060405180910390fd5b8a421062000370576040517f08c379a000000000000000000000000000000000000000000000000000000000815260040180806020018281038252602c81526020018062006698602c913960400191505060405180910390fd5b898b10620003e6576040517f08c379a000000000000000000000000000000000000000000000000000000000815260040180806020018281038252601f8152602001807f456e64204461746520686967686572207468616e20537461727420446174650081525060200191505060405180910390fd5b60008c116200045d576040517f08c379a000000000000000000000000000000000000000000000000000000000815260040180806020018281038252601d8152602001807f546f6b656e7320666f722053616c652073686f756c64206265203e203000000081525060200191505060405180910390fd5b888c11620004b7576040517f08c379a00000000000000000000000000000000000000000000000000000000081526004018080602001828103825260358152602001806200672c6035913960400191505060405180910390fd5b8888101562000512576040517f08c379a000000000000000000000000000000000000000000000000000000000815260040180806020018281038252603f815260200180620066c4603f913960400191505060405180910390fd5b8b8611156200056d576040517f08c379a0000000000000000000000000000000000000000000000000000000008152600401808060200182810382526029815260200180620067036029913960400191505060405180910390fd5b601a54851015620005e6576040517f08c379a000000000000000000000000000000000000000000000000000000000815260040180806020018281038252601d8152602001807f4665652050657263656e746167652068617320746f206265203e3d203100000081525060200191505060405180910390fd5b60638511156200065e576040517f08c379a000000000000000000000000000000000000000000000000000000000815260040180806020018281038252601e8152602001807f4665652050657263656e746167652068617320746f206265203c20313030000081525060200191505060405180910390fd5b8a601281905550896013819055508b6018819055508c601181905550886014819055508760158190555086601960006101000a81548160ff02191690831515021790555086620006b057856016819055505b8d600c60006101000a81548173ffffffffffffffffffffffffffffffffffffffff021916908373ffffffffffffffffffffffffffffffffffffffff16021790555081620007e85782600d60006101000a81548173ffffffffffffffffffffffffffffffffffffffff021916908373ffffffffffffffffffffffffffffffffffffffff160217905550600d60009054906101000a900473ffffffffffffffffffffffffffffffffffffffff1673ffffffffffffffffffffffffffffffffffffffff1663313ce5676040518163ffffffff1660e01b815260040160206040518083038186803b158015620007a157600080fd5b505afa158015620007b6573d6000803e3d6000fd5b505050506040513d6020811015620007cd57600080fd5b810190808051906020019092919050505060ff16600f819055505b80601b60006101000a81548160ff021916908315150217905550600c60009054906101000a900473ffffffffffffffffffffffffffffffffffffffff1673ffffffffffffffffffffffffffffffffffffffff1663313ce5676040518163ffffffff1660e01b815260040160206040518083038186803b1580156200086b57600080fd5b505afa15801562000880573d6000803e3d6000fd5b505050506040513d60208110156200089757600080fd5b810190808051906020019092919050505060ff16600e8190555084601a819055505050505050505050505050505050615dc280620008d66000396000f3fe6080604052600436106103ce5760003560e01c806378d627e0116101fd578063c24a0f8b11610118578063e120b54b116100ab578063efbb34d51161007a578063efbb34d514611364578063f2aa82181461138f578063f2fde38b1461140a578063f64bfaba1461145b578063fecf415a146114c7576103ce565b8063e120b54b14611234578063e4101de51461128b578063e9ce9f11146112b6578063eb1edd611461130d576103ce565b8063ca1d209d116100e7578063ca1d209d14611124578063d0a4a8951461115f578063d153b60c1461118e578063d65fb160146111e5576103ce565b8063c24a0f8b14610f77578063c3ca324f14610fa2578063c4c1c94f14611048578063c8bdbfb61461110d576103ce565b80639b19251a11610190578063b31f8f931161015f578063b31f8f9314610e73578063b367940e14610e9e578063b7fd706d14610ecd578063ba4e5c4914610efc576103ce565b80639b19251a14610d49578063a001ecdd14610db2578063a6e158f814610ddd578063abe7f1ab14610e18576103ce565b80638e75b131116101cc5780638e75b13114610c305780639097548d14610c5b578063917c854d14610caa57806394b918de14610d1b576103ce565b806378d627e014610af15780638392fe3114610b1c5780638456cb5914610bc25780638da5cb5b14610bd9576103ce565b80634089aa9a116102ed57806369bb4dc21161028057806374fa05fb1161024f57806374fa05fb146109e9578063755e3e2814610a1857806375968dbd14610a43578063785e9e8614610a9a576103ce565b806369bb4dc2146108b75780636a93df11146108e25780636d0280271461094e57806370a898bc146109ba576103ce565b80634e71e0c8116102bc5780634e71e0c8146107d75780635ac699bb146107ee5780635c975abb1461085d5780636295a2f41461088c576103ce565b80634089aa9a1461071b57806344691f7e1461074a57806346d132fb1461077957806347535d7b146107a8576103ce565b806324600fc311610365578063313ce56711610334578063313ce567146105ca5780633742a9f7146105f55780633af32abf1461069b5780633f4ba83a14610704576103ce565b806324600fc31461054f5780632daa8c84146105665780632e154107146105705780632ebb5c1e1461059b576103ce565b806315b57866116103a157806315b5786614610487578063161a7b2a146104b65780631de18af7146104e557806321d3002a14610520576103ce565b8063044c0cc5146103d357806307662345146104025780630b97bc861461043157806312aef8c31461045c575b600080fd5b3480156103df57600080fd5b506103e861151a565b604051808215151515815260200191505060405180910390f35b34801561040e57600080fd5b50610417611573565b604051808215151515815260200191505060405180910390f35b34801561043d57600080fd5b50610446611586565b6040518082815260200191505060405180910390f35b34801561046857600080fd5b5061047161158c565b6040518082815260200191505060405180910390f35b34801561049357600080fd5b5061049c611592565b604051808215151515815260200191505060405180910390f35b3480156104c257600080fd5b506104cb61159f565b604051808215151515815260200191505060405180910390f35b3480156104f157600080fd5b5061051e6004803603602081101561050857600080fd5b81019080803590602001909291905050506115b2565b005b34801561052c57600080fd5b50610535611b0f565b604051808215151515815260200191505060405180910390f35b34801561055b57600080fd5b50610564611b22565b005b61056e61223a565b005b34801561057c57600080fd5b50610585612767565b6040518082815260200191505060405180910390f35b3480156105a757600080fd5b506105b061276d565b604051808215151515815260200191505060405180910390f35b3480156105d657600080fd5b506105df612779565b6040518082815260200191505060405180910390f35b34801561060157600080fd5b5061062e6004803603602081101561061857600080fd5b810190808035906020019092919050505061277f565b604051808781526020018673ffffffffffffffffffffffffffffffffffffffff1673ffffffffffffffffffffffffffffffffffffffff1681526020018581526020018481526020018315151515815260200182151515158152602001965050505050505060405180910390f35b3480156106a757600080fd5b506106ea600480360360208110156106be57600080fd5b81019080803573ffffffffffffffffffffffffffffffffffffffff16906020019092919050505061288e565b604051808215151515815260200191505060405180910390f35b34801561071057600080fd5b506107196128e4565b005b34801561072757600080fd5b50610730612a71565b604051808215151515815260200191505060405180910390f35b34801561075657600080fd5b5061075f612a7d565b604051808215151515815260200191505060405180910390f35b34801561078557600080fd5b5061078e612a8a565b604051808215151515815260200191505060405180910390f35b3480156107b457600080fd5b506107bd612c81565b604051808215151515815260200191505060405180910390f35b3480156107e357600080fd5b506107ec612ca1565b005b3480156107fa57600080fd5b506108476004803603604081101561081157600080fd5b81019080803573ffffffffffffffffffffffffffffffffffffffff16906020019092919080359060200190929190505050612ea7565b6040518082815260200191505060405180910390f35b34801561086957600080fd5b50610872612ed5565b604051808215151515815260200191505060405180910390f35b34801561089857600080fd5b506108a1612ee8565b6040518082815260200191505060405180910390f35b3480156108c357600080fd5b506108cc612eee565b6040518082815260200191505060405180910390f35b3480156108ee57600080fd5b506108f7612fcf565b6040518080602001828103825283818151815260200191508051906020019060200280838360005b8381101561093a57808201518184015260208101905061091f565b505050509050019250505060405180910390f35b34801561095a57600080fd5b50610963613027565b6040518080602001828103825283818151815260200191508051906020019060200280838360005b838110156109a657808201518184015260208101905061098b565b505050509050019250505060405180910390f35b3480156109c657600080fd5b506109cf6130b5565b604051808215151515815260200191505060405180910390f35b3480156109f557600080fd5b506109fe6130c2565b604051808215151515815260200191505060405180910390f35b348015610a2457600080fd5b50610a2d613137565b6040518082815260200191505060405180910390f35b348015610a4f57600080fd5b50610a5861313d565b604051808273ffffffffffffffffffffffffffffffffffffffff1673ffffffffffffffffffffffffffffffffffffffff16815260200191505060405180910390f35b348015610aa657600080fd5b50610aaf613163565b604051808273ffffffffffffffffffffffffffffffffffffffff1673ffffffffffffffffffffffffffffffffffffffff16815260200191505060405180910390f35b348015610afd57600080fd5b50610b06613189565b6040518082815260200191505060405180910390f35b348015610b2857600080fd5b50610b5560048036036020811015610b3f57600080fd5b810190808035906020019092919050505061318f565b604051808781526020018673ffffffffffffffffffffffffffffffffffffffff1673ffffffffffffffffffffffffffffffffffffffff1681526020018581526020018481526020018315151515815260200182151515158152602001965050505050505060405180910390f35b348015610bce57600080fd5b50610bd7613205565b005b348015610be557600080fd5b50610bee613392565b604051808273ffffffffffffffffffffffffffffffffffffffff1673ffffffffffffffffffffffffffffffffffffffff16815260200191505060405180910390f35b348015610c3c57600080fd5b50610c456133b7565b6040518082815260200191505060405180910390f35b348015610c6757600080fd5b50610c9460048036036020811015610c7e57600080fd5b81019080803590602001909291905050506133bd565b6040518082815260200191505060405180910390f35b348015610cb657600080fd5b50610d1960048036036040811015610ccd57600080fd5b81019080803573ffffffffffffffffffffffffffffffffffffffff169060200190929190803573ffffffffffffffffffffffffffffffffffffffff1690602001909291905050506133f2565b005b610d4760048036036020811015610d3157600080fd5b8101908080359060200190929190505050613871565b005b348015610d5557600080fd5b50610d9860048036036020811015610d6c57600080fd5b81019080803573ffffffffffffffffffffffffffffffffffffffff169060200190929190505050614368565b604051808215151515815260200191505060405180910390f35b348015610dbe57600080fd5b50610dc7614388565b6040518082815260200191505060405180910390f35b348015610de957600080fd5b50610e1660048036036020811015610e0057600080fd5b810190808035906020019092919050505061438e565b005b348015610e2457600080fd5b50610e7160048036036040811015610e3b57600080fd5b81019080803573ffffffffffffffffffffffffffffffffffffffff169060200190929190803590602001909291905050506147c4565b005b348015610e7f57600080fd5b50610e886149ce565b6040518082815260200191505060405180910390f35b348015610eaa57600080fd5b50610eb36149dc565b604051808215151515815260200191505060405180910390f35b348015610ed957600080fd5b50610ee2614a60565b604051808215151515815260200191505060405180910390f35b348015610f0857600080fd5b50610f3560048036036020811015610f1f57600080fd5b8101908080359060200190929190505050614a73565b604051808273ffffffffffffffffffffffffffffffffffffffff1673ffffffffffffffffffffffffffffffffffffffff16815260200191505060405180910390f35b348015610f8357600080fd5b50610f8c614aaf565b6040518082815260200191505060405180910390f35b348015610fae57600080fd5b50610ff160048036036020811015610fc557600080fd5b81019080803573ffffffffffffffffffffffffffffffffffffffff169060200190929190505050614ab5565b6040518080602001828103825283818151815260200191508051906020019060200280838360005b83811015611034578082015181840152602081019050611019565b505050509050019250505060405180910390f35b34801561105457600080fd5b5061110b6004803603602081101561106b57600080fd5b810190808035906020019064010000000081111561108857600080fd5b82018360208201111561109a57600080fd5b803590602001918460208302840111640100000000831117156110bc57600080fd5b919080806020026020016040519081016040528093929190818152602001838360200280828437600081840152601f19601f820116905080830192505050505050509192919290505050614b4c565b005b34801561111957600080fd5b50611122614df2565b005b34801561113057600080fd5b5061115d6004803603602081101561114757600080fd5b8101908080359060200190929190505050615118565b005b34801561116b57600080fd5b506111746153c0565b604051808215151515815260200191505060405180910390f35b34801561119a57600080fd5b506111a36153d3565b604051808273ffffffffffffffffffffffffffffffffffffffff1673ffffffffffffffffffffffffffffffffffffffff16815260200191505060405180910390f35b3480156111f157600080fd5b5061121e6004803603602081101561120857600080fd5b81019080803590602001909291905050506153f9565b6040518082815260200191505060405180910390f35b34801561124057600080fd5b5061124961541a565b604051808273ffffffffffffffffffffffffffffffffffffffff1673ffffffffffffffffffffffffffffffffffffffff16815260200191505060405180910390f35b34801561129757600080fd5b506112a0615440565b6040518082815260200191505060405180910390f35b3480156112c257600080fd5b506112cb615446565b604051808273ffffffffffffffffffffffffffffffffffffffff1673ffffffffffffffffffffffffffffffffffffffff16815260200191505060405180910390f35b34801561131957600080fd5b5061132261546c565b604051808273ffffffffffffffffffffffffffffffffffffffff1673ffffffffffffffffffffffffffffffffffffffff16815260200191505060405180910390f35b34801561137057600080fd5b50611379615492565b6040518082815260200191505060405180910390f35b34801561139b57600080fd5b506113c8600480360360208110156113b257600080fd5b81019080803590602001909291905050506154a4565b604051808273ffffffffffffffffffffffffffffffffffffffff1673ffffffffffffffffffffffffffffffffffffffff16815260200191505060405180910390f35b34801561141657600080fd5b506114596004803603602081101561142d57600080fd5b81019080803573ffffffffffffffffffffffffffffffffffffffff1690602001909291905050506154e0565b005b34801561146757600080fd5b5061147061566b565b6040518080602001828103825283818151815260200191508051906020019060200280838360005b838110156114b3578082015181840152602081019050611498565b505050509050019250505060405180910390f35b3480156114d357600080fd5b50611500600480360360208110156114ea57600080fd5b81019080803590602001909291905050506156f9565b604051808215151515815260200191505060405180910390f35b60008073ffffffffffffffffffffffffffffffffffffffff16600d60009054906101000a900473ffffffffffffffffffffffffffffffffffffffff1673ffffffffffffffffffffffffffffffffffffffff161415905090565b600460009054906101000a900460ff1681565b60125481565b60185481565b6000806016541415905090565b600d60149054906101000a900460ff1681565b6115ba612a71565b61162c576040517f08c379a00000000000000000000000000000000000000000000000000000000081526004018080602001828103825260138152602001807f48617320746f2062652066696e616c697a65640000000000000000000000000081525060200191505060405180910390fd5b601960009054906101000a900460ff16156116af576040517f08c379a00000000000000000000000000000000000000000000000000000000081526004018080602001828103825260198152602001807f48617320746f206265206e6f6e2041746f6d696320737761700000000000000081525060200191505060405180910390fd5b6116b7611592565b611729576040517f08c379a000000000000000000000000000000000000000000000000000000000815260040180806020018281038252601a8152602001807f4d696e696d756d2072616973652068617320746f20657869737400000000000081525060200191505060405180910390fd5b6117316130c2565b6117a3576040517f08c379a000000000000000000000000000000000000000000000000000000000815260040180806020018281038252601f8152602001807f4d696e696d756d2072616973652068617320746f20626520726561636865640081525060200191505060405180910390fd5b60006008600083815260200190815260200160002060000154141580156117eb57506008600082815260200190815260200160002060040160009054906101000a900460ff16155b611840576040517f08c379a0000000000000000000000000000000000000000000000000000000008152600401808060200182810382526021815260200180615b4c6021913960400191505060405180910390fd5b611849816156f9565b6118bb576040517f08c379a00000000000000000000000000000000000000000000000000000000081526004018080602001828103825260148152602001807f41646472657373206973206e6f7420627579657200000000000000000000000081525060200191505060405180910390fd5b60016008600083815260200190815260200160002060040160006101000a81548160ff02191690831515021790555060016008600083815260200190815260200160002060040160016101000a81548160ff02191690831515021790555061192161151a565b15611988573373ffffffffffffffffffffffffffffffffffffffff166108fc60086000848152602001908152602001600020600201549081150290604051600060405180830381858888f19350505050158015611982573d6000803e3d6000fd5b50611b0c565b600d60009054906101000a900473ffffffffffffffffffffffffffffffffffffffff1673ffffffffffffffffffffffffffffffffffffffff166323b872dd333060086000868152602001908152602001600020600201546040518463ffffffff1660e01b8152600401808473ffffffffffffffffffffffffffffffffffffffff1673ffffffffffffffffffffffffffffffffffffffff1681526020018373ffffffffffffffffffffffffffffffffffffffff1673ffffffffffffffffffffffffffffffffffffffff1681526020018281526020019350505050602060405180830381600087803b158015611a7b57600080fd5b505af1158015611a8f573d6000803e3d6000fd5b505050506040513d6020811015611aa557600080fd5b8101908080519060200190929190505050611b0b576040517f08c379a0000000000000000000000000000000000000000000000000000000008152600401808060200182810382526032815260200180615c666032913960400191505060405180910390fd5b5b50565b601960009054906101000a900460ff1681565b6000809054906101000a900473ffffffffffffffffffffffffffffffffffffffff1673ffffffffffffffffffffffffffffffffffffffff163373ffffffffffffffffffffffffffffffffffffffff1614611be4576040517f08c379a000000000000000000000000000000000000000000000000000000000815260040180806020018281038252600f8152602001807f48617320746f206265206f776e6572000000000000000000000000000000000081525060200191505060405180910390fd5b600160149054906101000a900460ff1615611c67576040517f08c379a00000000000000000000000000000000000000000000000000000000081526004018080602001828103825260128152602001807f48617320746f20626520756e706175736564000000000000000000000000000081525060200191505060405180910390fd5b611c6f612a71565b611ce1576040517f08c379a00000000000000000000000000000000000000000000000000000000081526004018080602001828103825260138152602001807f48617320746f2062652066696e616c697a65640000000000000000000000000081525060200191505060405180910390fd5b611ce96149dc565b611d5b576040517f08c379a000000000000000000000000000000000000000000000000000000000815260040180806020018281038252601f8152602001807f4d696e696d756d2072616973652068617320746f20626520726561636865640081525060200191505060405180910390fd5b611d6361151a565b15611e7257601960019054906101000a900473ffffffffffffffffffffffffffffffffffffffff1673ffffffffffffffffffffffffffffffffffffffff166108fc611de36064611dd5601a543073ffffffffffffffffffffffffffffffffffffffff163161576790919063ffffffff16565b6157ed90919063ffffffff16565b9081150290604051600060405180830381858888f19350505050158015611e0e573d6000803e3d6000fd5b503373ffffffffffffffffffffffffffffffffffffffff166108fc3073ffffffffffffffffffffffffffffffffffffffff16319081150290604051600060405180830381858888f19350505050158015611e6c573d6000803e3d6000fd5b50612238565b600d60009054906101000a900473ffffffffffffffffffffffffffffffffffffffff1673ffffffffffffffffffffffffffffffffffffffff1663a9059cbb601960019054906101000a900473ffffffffffffffffffffffffffffffffffffffff16611fd46064611fc6601a54600d60009054906101000a900473ffffffffffffffffffffffffffffffffffffffff1673ffffffffffffffffffffffffffffffffffffffff166370a08231306040518263ffffffff1660e01b8152600401808273ffffffffffffffffffffffffffffffffffffffff1673ffffffffffffffffffffffffffffffffffffffff16815260200191505060206040518083038186803b158015611f7d57600080fd5b505afa158015611f91573d6000803e3d6000fd5b505050506040513d6020811015611fa757600080fd5b810190808051906020019092919050505061576790919063ffffffff16565b6157ed90919063ffffffff16565b6040518363ffffffff1660e01b8152600401808373ffffffffffffffffffffffffffffffffffffffff1673ffffffffffffffffffffffffffffffffffffffff16815260200182815260200192505050602060405180830381600087803b15801561203d57600080fd5b505af1158015612051573d6000803e3d6000fd5b505050506040513d602081101561206757600080fd5b810190808051906020019092919050505050600d60009054906101000a900473ffffffffffffffffffffffffffffffffffffffff1673ffffffffffffffffffffffffffffffffffffffff1663a9059cbb33600d60009054906101000a900473ffffffffffffffffffffffffffffffffffffffff1673ffffffffffffffffffffffffffffffffffffffff166370a08231306040518263ffffffff1660e01b8152600401808273ffffffffffffffffffffffffffffffffffffffff1673ffffffffffffffffffffffffffffffffffffffff16815260200191505060206040518083038186803b15801561215757600080fd5b505afa15801561216b573d6000803e3d6000fd5b505050506040513d602081101561218157600080fd5b81019080805190602001909291905050506040518363ffffffff1660e01b8152600401808373ffffffffffffffffffffffffffffffffffffffff1673ffffffffffffffffffffffffffffffffffffffff16815260200182815260200192505050602060405180830381600087803b1580156121fb57600080fd5b505af115801561220f573d6000803e3d6000fd5b505050506040513d602081101561222557600080fd5b8101908080519060200190929190505050505b565b6000809054906101000a900473ffffffffffffffffffffffffffffffffffffffff1673ffffffffffffffffffffffffffffffffffffffff163373ffffffffffffffffffffffffffffffffffffffff16146122fc576040517f08c379a000000000000000000000000000000000000000000000000000000000815260040180806020018281038252600f8152602001807f48617320746f206265206f776e6572000000000000000000000000000000000081525060200191505060405180910390fd5b600160149054906101000a900460ff1661237e576040517f08c379a00000000000000000000000000000000000000000000000000000000081526004018080602001828103825260108152602001807f48617320746f206265207061757365640000000000000000000000000000000081525060200191505060405180910390fd5b3373ffffffffffffffffffffffffffffffffffffffff166108fc3073ffffffffffffffffffffffffffffffffffffffff16319081150290604051600060405180830381858888f193505050501580156123db573d6000803e3d6000fd5b50600c60009054906101000a900473ffffffffffffffffffffffffffffffffffffffff1673ffffffffffffffffffffffffffffffffffffffff1663a9059cbb33600c60009054906101000a900473ffffffffffffffffffffffffffffffffffffffff1673ffffffffffffffffffffffffffffffffffffffff166370a08231306040518263ffffffff1660e01b8152600401808273ffffffffffffffffffffffffffffffffffffffff1673ffffffffffffffffffffffffffffffffffffffff16815260200191505060206040518083038186803b1580156124ba57600080fd5b505afa1580156124ce573d6000803e3d6000fd5b505050506040513d60208110156124e457600080fd5b81019080805190602001909291905050506040518363ffffffff1660e01b8152600401808373ffffffffffffffffffffffffffffffffffffffff1673ffffffffffffffffffffffffffffffffffffffff16815260200182815260200192505050602060405180830381600087803b15801561255e57600080fd5b505af1158015612572573d6000803e3d6000fd5b505050506040513d602081101561258857600080fd5b8101908080519060200190929190505050506125a261151a565b61276557600d60009054906101000a900473ffffffffffffffffffffffffffffffffffffffff1673ffffffffffffffffffffffffffffffffffffffff1663a9059cbb33600d60009054906101000a900473ffffffffffffffffffffffffffffffffffffffff1673ffffffffffffffffffffffffffffffffffffffff166370a08231306040518263ffffffff1660e01b8152600401808273ffffffffffffffffffffffffffffffffffffffff1673ffffffffffffffffffffffffffffffffffffffff16815260200191505060206040518083038186803b15801561268457600080fd5b505afa158015612698573d6000803e3d6000fd5b505050506040513d60208110156126ae57600080fd5b81019080805190602001909291905050506040518363ffffffff1660e01b8152600401808373ffffffffffffffffffffffffffffffffffffffff1673ffffffffffffffffffffffffffffffffffffffff16815260200182815260200192505050602060405180830381600087803b15801561272857600080fd5b505af115801561273c573d6000803e3d6000fd5b505050506040513d602081101561275257600080fd5b8101908080519060200190929190505050505b565b60145481565b60006012544210905090565b600e5481565b600080600080600080612790615a8f565b600860008981526020019081526020016000206040518060c0016040529081600082015481526020016001820160009054906101000a900473ffffffffffffffffffffffffffffffffffffffff1673ffffffffffffffffffffffffffffffffffffffff1673ffffffffffffffffffffffffffffffffffffffff16815260200160028201548152602001600382015481526020016004820160009054906101000a900460ff161515151581526020016004820160019054906101000a900460ff1615151515815250509050806000015181602001518260400151836060015184608001518560a001519650965096509650965096505091939550919395565b6000600260008373ffffffffffffffffffffffffffffffffffffffff1673ffffffffffffffffffffffffffffffffffffffff16815260200190815260200160002060009054906101000a900460ff169050919050565b6000809054906101000a900473ffffffffffffffffffffffffffffffffffffffff1673ffffffffffffffffffffffffffffffffffffffff163373ffffffffffffffffffffffffffffffffffffffff16146129a6576040517f08c379a000000000000000000000000000000000000000000000000000000000815260040180806020018281038252600f8152602001807f48617320746f206265206f776e6572000000000000000000000000000000000081525060200191505060405180910390fd5b600160149054906101000a900460ff16612a28576040517f08c379a00000000000000000000000000000000000000000000000000000000081526004018080602001828103825260108152602001807f48617320746f206265207061757365640000000000000000000000000000000081525060200191505060405180910390fd5b6000600160146101000a81548160ff0219169083151502179055507f7805862f689e2f13df9f062ff482ad3ad112aca9e0847911ed832e158c525b3360405160405180910390a1565b60006013544211905090565b6000601254421015905090565b6000601b60009054906101000a900460ff1615612c795768a2a15d09519be00000600660009054906101000a900473ffffffffffffffffffffffffffffffffffffffff1673ffffffffffffffffffffffffffffffffffffffff166370a08231336040518263ffffffff1660e01b8152600401808273ffffffffffffffffffffffffffffffffffffffff1673ffffffffffffffffffffffffffffffffffffffff16815260200191505060206040518083038186803b158015612b4a57600080fd5b505afa158015612b5e573d6000803e3d6000fd5b505050506040513d6020811015612b7457600080fd5b81019080805190602001909291905050501180612c7257506801158e460913d00000600760009054906101000a900473ffffffffffffffffffffffffffffffffffffffff1673ffffffffffffffffffffffffffffffffffffffff166370a08231336040518263ffffffff1660e01b8152600401808273ffffffffffffffffffffffffffffffffffffffff1673ffffffffffffffffffffffffffffffffffffffff16815260200191505060206040518083038186803b158015612c3557600080fd5b505afa158015612c49573d6000803e3d6000fd5b505050506040513d6020811015612c5f57600080fd5b8101908080519060200190929190505050115b9050612c7e565b600190505b90565b6000612c8b612a7d565b8015612c9c5750612c9a612a71565b155b905090565b600160009054906101000a900473ffffffffffffffffffffffffffffffffffffffff1673ffffffffffffffffffffffffffffffffffffffff163373ffffffffffffffffffffffffffffffffffffffff1614612d64576040517f08c379a000000000000000000000000000000000000000000000000000000000815260040180806020018281038252601c8152602001807f48617320746f206265207468652070726f706f736564206f776e65720000000081525060200191505060405180910390fd5b600160009054906101000a900473ffffffffffffffffffffffffffffffffffffffff1673ffffffffffffffffffffffffffffffffffffffff166000809054906101000a900473ffffffffffffffffffffffffffffffffffffffff1673ffffffffffffffffffffffffffffffffffffffff167f8be0079c531659141344cd1fd0a4f28419497f9722a3daafe3b4186f6b6457e060405160405180910390a3600160009054906101000a900473ffffffffffffffffffffffffffffffffffffffff166000806101000a81548173ffffffffffffffffffffffffffffffffffffffff021916908373ffffffffffffffffffffffffffffffffffffffff1602179055506000600160006101000a81548173ffffffffffffffffffffffffffffffffffffffff021916908373ffffffffffffffffffffffffffffffffffffffff160217905550565b600b6020528160005260406000208181548110612ec057fe5b90600052602060002001600091509150505481565b600160149054906101000a900460ff1681565b60115481565b6000600c60009054906101000a900473ffffffffffffffffffffffffffffffffffffffff1673ffffffffffffffffffffffffffffffffffffffff166370a08231306040518263ffffffff1660e01b8152600401808273ffffffffffffffffffffffffffffffffffffffff1673ffffffffffffffffffffffffffffffffffffffff16815260200191505060206040518083038186803b158015612f8f57600080fd5b505afa158015612fa3573d6000803e3d6000fd5b505050506040513d6020811015612fb957600080fd5b8101908080519060200190929190505050905090565b6060600a80548060200260200160405190810160405280929190818152602001828054801561301d57602002820191906000526020600020905b815481526020019060010190808311613009575b5050505050905090565b606060038054806020026020016040519081016040528092919081815260200182805480156130ab57602002820191906000526020600020905b8160009054906101000a900473ffffffffffffffffffffffffffffffffffffffff1673ffffffffffffffffffffffffffffffffffffffff1681526020019060010190808311613061575b5050505050905090565b6000806014541415905090565b60006130cf6016546133bd565b6130da6017546133bd565b10613130576040517f08c379a000000000000000000000000000000000000000000000000000000000815260040180806020018281038252602e815260200180615bc9602e913960400191505060405180910390fd5b6001905090565b60175481565b600660009054906101000a900473ffffffffffffffffffffffffffffffffffffffff1681565b600c60009054906101000a900473ffffffffffffffffffffffffffffffffffffffff1681565b600f5481565b60086020528060005260406000206000915090508060000154908060010160009054906101000a900473ffffffffffffffffffffffffffffffffffffffff16908060020154908060030154908060040160009054906101000a900460ff16908060040160019054906101000a900460ff16905086565b6000809054906101000a900473ffffffffffffffffffffffffffffffffffffffff1673ffffffffffffffffffffffffffffffffffffffff163373ffffffffffffffffffffffffffffffffffffffff16146132c7576040517f08c379a000000000000000000000000000000000000000000000000000000000815260040180806020018281038252600f8152602001807f48617320746f206265206f776e6572000000000000000000000000000000000081525060200191505060405180910390fd5b600160149054906101000a900460ff161561334a576040517f08c379a00000000000000000000000000000000000000000000000000000000081526004018080602001828103825260128152602001807f48617320746f20626520756e706175736564000000000000000000000000000081525060200191505060405180910390fd5b60018060146101000a81548160ff0219169083151502179055507f6985a02210a168e66602d3235cb6db0e70f92b3ba4d376a33c0f3d9434bff62560405160405180910390a1565b6000809054906101000a900473ffffffffffffffffffffffffffffffffffffffff1681565b60165481565b60006133eb600e54600a0a6133dd6011548561576790919063ffffffff16565b6157ed90919063ffffffff16565b9050919050565b6000809054906101000a900473ffffffffffffffffffffffffffffffffffffffff1673ffffffffffffffffffffffffffffffffffffffff163373ffffffffffffffffffffffffffffffffffffffff16146134b4576040517f08c379a000000000000000000000000000000000000000000000000000000000815260040180806020018281038252600f8152602001807f48617320746f206265206f776e6572000000000000000000000000000000000081525060200191505060405180910390fd5b6134bc612a71565b61352e576040517f08c379a00000000000000000000000000000000000000000000000000000000081526004018080602001828103825260138152602001807f48617320746f2062652066696e616c697a65640000000000000000000000000081525060200191505060405180910390fd5b600c60009054906101000a900473ffffffffffffffffffffffffffffffffffffffff1673ffffffffffffffffffffffffffffffffffffffff168273ffffffffffffffffffffffffffffffffffffffff1614156135d5576040517f08c379a000000000000000000000000000000000000000000000000000000000815260040180806020018281038252603b815260200180615b11603b913960400191505060405180910390fd5b600d60009054906101000a900473ffffffffffffffffffffffffffffffffffffffff1673ffffffffffffffffffffffffffffffffffffffff168273ffffffffffffffffffffffffffffffffffffffff16141561367c576040517f08c379a000000000000000000000000000000000000000000000000000000000815260040180806020018281038252603c815260200180615d5b603c913960400191505060405180910390fd5b60008290508073ffffffffffffffffffffffffffffffffffffffff1663a9059cbb838373ffffffffffffffffffffffffffffffffffffffff166370a08231306040518263ffffffff1660e01b8152600401808273ffffffffffffffffffffffffffffffffffffffff1673ffffffffffffffffffffffffffffffffffffffff16815260200191505060206040518083038186803b15801561371b57600080fd5b505afa15801561372f573d6000803e3d6000fd5b505050506040513d602081101561374557600080fd5b81019080805190602001909291905050506040518363ffffffff1660e01b8152600401808373ffffffffffffffffffffffffffffffffffffffff1673ffffffffffffffffffffffffffffffffffffffff16815260200182815260200192505050602060405180830381600087803b1580156137bf57600080fd5b505af11580156137d3573d6000803e3d6000fd5b505050506040513d60208110156137e957600080fd5b810190808051906020019092919050505061386c576040517f08c379a000000000000000000000000000000000000000000000000000000000815260040180806020018281038252601b8152602001807f455243323020546f6b656e207472616e73666572206661696c6564000000000081525060200191505060405180910390fd5b505050565b600160149054906101000a900460ff16156138f4576040517f08c379a00000000000000000000000000000000000000000000000000000000081526004018080602001828103825260128152602001807f48617320746f20626520756e706175736564000000000000000000000000000081525060200191505060405180910390fd5b600d60149054906101000a900460ff16613976576040517f08c379a00000000000000000000000000000000000000000000000000000000081526004018080602001828103825260108152602001807f48617320746f2062652066756e6465640000000000000000000000000000000081525060200191505060405180910390fd5b61397e612c81565b6139f0576040517f08c379a000000000000000000000000000000000000000000000000000000000815260040180806020018281038252600e8152602001807f48617320746f206265206f70656e00000000000000000000000000000000000081525060200191505060405180910390fd5b600460009054906101000a900460ff1615613a1857613a0e3361288e565b613a1757600080fd5b5b6000613a2261151a565b15613a9057349050613a33826133bd565b811015613a8b576040517f08c379a000000000000000000000000000000000000000000000000000000000815260040180806020018281038252604a815260200180615c1c604a913960600191505060405180910390fd5b613c09565b613a99826133bd565b9050600d60009054906101000a900473ffffffffffffffffffffffffffffffffffffffff1673ffffffffffffffffffffffffffffffffffffffff166323b872dd3330846040518463ffffffff1660e01b8152600401808473ffffffffffffffffffffffffffffffffffffffff1673ffffffffffffffffffffffffffffffffffffffff1681526020018373ffffffffffffffffffffffffffffffffffffffff1673ffffffffffffffffffffffffffffffffffffffff1681526020018281526020019350505050602060405180830381600087803b158015613b7857600080fd5b505af1158015613b8c573d6000803e3d6000fd5b505050506040513d6020811015613ba257600080fd5b8101908080519060200190929190505050613c08576040517f08c379a0000000000000000000000000000000000000000000000000000000008152600401808060200182810382526031815260200180615ae06031913960400191505060405180910390fd5b5b60008211613c7f576040517f08c379a00000000000000000000000000000000000000000000000000000000081526004018080602001828103825260198152602001807f416d6f756e742068617320746f20626520706f7369746976650000000000000081525060200191505060405180910390fd5b613c876149ce565b821115613cdf576040517f08c379a0000000000000000000000000000000000000000000000000000000008152600401808060200182810382526024815260200180615ba56024913960400191505060405180910390fd5b601454821015613d3a576040517f08c379a0000000000000000000000000000000000000000000000000000000008152600401808060200182810382526024815260200180615d376024913960400191505060405180910390fd5b601554821115613d95576040517f08c379a0000000000000000000000000000000000000000000000000000000008152600401808060200182810382526025815260200180615bf76025913960400191505060405180910390fd5b6060613da033614ab5565b9050600080905060008090505b8251811015613ec257613dbe615a8f565b60086000858481518110613dce57fe5b602002602001015181526020019081526020016000206040518060c0016040529081600082015481526020016001820160009054906101000a900473ffffffffffffffffffffffffffffffffffffffff1673ffffffffffffffffffffffffffffffffffffffff1673ffffffffffffffffffffffffffffffffffffffff16815260200160028201548152602001600382015481526020016004820160009054906101000a900460ff161515151581526020016004820160019054906101000a900460ff1615151515815250509050613eb281600001518461583790919063ffffffff16565b9250508080600101915050613dad565b50601554613ed9858361583790919063ffffffff16565b1115613f30576040517f08c379a0000000000000000000000000000000000000000000000000000000008152600401808060200182810382526031815260200180615ce56031913960400191505060405180910390fd5b60011515613f3c612a8a565b151514613f4857600080fd5b601960009054906101000a900460ff16156140b457600c60009054906101000a900473ffffffffffffffffffffffffffffffffffffffff1673ffffffffffffffffffffffffffffffffffffffff1663a9059cbb33866040518363ffffffff1660e01b8152600401808373ffffffffffffffffffffffffffffffffffffffff1673ffffffffffffffffffffffffffffffffffffffff16815260200182815260200192505050602060405180830381600087803b15801561400657600080fd5b505af115801561401a573d6000803e3d6000fd5b505050506040513d602081101561403057600080fd5b81019080805190602001909291905050506140b3576040517f08c379a000000000000000000000000000000000000000000000000000000000815260040180806020018281038252601b8152602001807f4552433230207472616e73666572206469646ec2b47420776f726b000000000081525060200191505060405180910390fd5b5b600060055490506140d1600160055461583790919063ffffffff16565b6005819055506140df615a8f565b6040518060c001604052808781526020013373ffffffffffffffffffffffffffffffffffffffff168152602001868152602001428152602001601960009054906101000a900460ff161515815260200160001515815250905080600860008481526020019081526020016000206000820151816000015560208201518160010160006101000a81548173ffffffffffffffffffffffffffffffffffffffff021916908373ffffffffffffffffffffffffffffffffffffffff160217905550604082015181600201556060820151816003015560808201518160040160006101000a81548160ff02191690831515021790555060a08201518160040160016101000a81548160ff021916908315150217905550905050600a829080600181540180825580915050906001820390600052602060002001600090919290919091505550600b60003373ffffffffffffffffffffffffffffffffffffffff1673ffffffffffffffffffffffffffffffffffffffff16815260200190815260200160002082908060018154018082558091505090600182039060005260206000200160009091929091909150555060093390806001815401808255809150509060018203906000526020600020016000909192909190916101000a81548173ffffffffffffffffffffffffffffffffffffffff021916908373ffffffffffffffffffffffffffffffffffffffff160217905550506143048660175461583790919063ffffffff16565b6017819055503373ffffffffffffffffffffffffffffffffffffffff167fbec109f7ee137de661c6887caa96653c0545050a9908a3b6eb5190440bbec8648742604051808381526020018281526020019250505060405180910390a2505050505050565b60026020528060005260406000206000915054906101000a900460ff1681565b601a5481565b601960009054906101000a900460ff1615614411576040517f08c379a00000000000000000000000000000000000000000000000000000000081526004018080602001828103825260198152602001807f48617320746f206265206e6f6e2041746f6d696320737761700000000000000081525060200191505060405180910390fd5b614419612a71565b61448b576040517f08c379a00000000000000000000000000000000000000000000000000000000081526004018080602001828103825260138152602001807f48617320746f2062652066696e616c697a65640000000000000000000000000081525060200191505060405180910390fd5b600160149054906101000a900460ff161561450e576040517f08c379a00000000000000000000000000000000000000000000000000000000081526004018080602001828103825260128152602001807f48617320746f20626520756e706175736564000000000000000000000000000081525060200191505060405180910390fd5b600060086000838152602001908152602001600020600001541415801561455657506008600082815260200190815260200160002060040160009054906101000a900460ff16155b6145ab576040517f08c379a0000000000000000000000000000000000000000000000000000000008152600401808060200182810382526021815260200180615b4c6021913960400191505060405180910390fd5b6145b4816156f9565b614626576040517f08c379a00000000000000000000000000000000000000000000000000000000081526004018080602001828103825260148152602001807f41646472657373206973206e6f7420627579657200000000000000000000000081525060200191505060405180910390fd5b60016008600083815260200190815260200160002060040160006101000a81548160ff021916908315150217905550600c60009054906101000a900473ffffffffffffffffffffffffffffffffffffffff1673ffffffffffffffffffffffffffffffffffffffff1663a9059cbb3360086000858152602001908152602001600020600001546040518363ffffffff1660e01b8152600401808373ffffffffffffffffffffffffffffffffffffffff1673ffffffffffffffffffffffffffffffffffffffff16815260200182815260200192505050602060405180830381600087803b15801561471457600080fd5b505af1158015614728573d6000803e3d6000fd5b505050506040513d602081101561473e57600080fd5b81019080805190602001909291905050506147c1576040517f08c379a00000000000000000000000000000000000000000000000000000000081526004018080602001828103825260158152602001807f4552433230207472616e73666572206661696c6564000000000000000000000081525060200191505060405180910390fd5b50565b6000809054906101000a900473ffffffffffffffffffffffffffffffffffffffff1673ffffffffffffffffffffffffffffffffffffffff163373ffffffffffffffffffffffffffffffffffffffff1614614886576040517f08c379a000000000000000000000000000000000000000000000000000000000815260040180806020018281038252600f8152602001807f48617320746f206265206f776e6572000000000000000000000000000000000081525060200191505060405180910390fd5b6003818154811061489357fe5b9060005260206000200160009054906101000a900473ffffffffffffffffffffffffffffffffffffffff1673ffffffffffffffffffffffffffffffffffffffff168273ffffffffffffffffffffffffffffffffffffffff16146148f557600080fd5b6000600260008473ffffffffffffffffffffffffffffffffffffffff1673ffffffffffffffffffffffffffffffffffffffff16815260200190815260200160002060006101000a81548160ff0219169083151502179055506003818154811061495a57fe5b9060005260206000200160006101000a81549073ffffffffffffffffffffffffffffffffffffffff02191690558173ffffffffffffffffffffffffffffffffffffffff167fcdd2e9b91a56913d370075169cefa1602ba36be5301664f752192bb1709df75760405160405180910390a25050565b600060175460185403905090565b60006149e6611592565b15614a59576149f66016546133bd565b614a016017546133bd565b1015614a58576040517f08c379a000000000000000000000000000000000000000000000000000000000815260040180806020018281038252602c815260200180615c98602c913960400191505060405180910390fd5b5b6001905090565b601060009054906101000a900460ff1681565b60038181548110614a8057fe5b906000526020600020016000915054906101000a900473ffffffffffffffffffffffffffffffffffffffff1681565b60135481565b6060600b60008373ffffffffffffffffffffffffffffffffffffffff1673ffffffffffffffffffffffffffffffffffffffff168152602001908152602001600020805480602002602001604051908101604052809291908181526020018280548015614b4057602002820191906000526020600020905b815481526020019060010190808311614b2c575b50505050509050919050565b6000809054906101000a900473ffffffffffffffffffffffffffffffffffffffff1673ffffffffffffffffffffffffffffffffffffffff163373ffffffffffffffffffffffffffffffffffffffff1614614c0e576040517f08c379a000000000000000000000000000000000000000000000000000000000815260040180806020018281038252600f8152602001807f48617320746f206265206f776e6572000000000000000000000000000000000081525060200191505060405180910390fd5b60008090505b8151811015614d7f576001151560026000848481518110614c3157fe5b602002602001015173ffffffffffffffffffffffffffffffffffffffff1673ffffffffffffffffffffffffffffffffffffffff16815260200190815260200160002060009054906101000a900460ff1615151415614c8e57600080fd5b600160026000848481518110614ca057fe5b602002602001015173ffffffffffffffffffffffffffffffffffffffff1673ffffffffffffffffffffffffffffffffffffffff16815260200190815260200160002060006101000a81548160ff0219169083151502179055506003828281518110614d0757fe5b602002602001015190806001815401808255809150509060018203906000526020600020016000909192909190916101000a81548173ffffffffffffffffffffffffffffffffffffffff021916908373ffffffffffffffffffffffffffffffffffffffff160217905550508080600101915050614c14565b508060405180828051906020019060200280838360005b83811015614db1578082015181840152602081019050614d96565b5050505090500191505060405180910390207fe3c5086a518f78e8aa61952bb9c28a9a0f0022707e537ea961faa918e0d89f6f60405160405180910390a250565b6000809054906101000a900473ffffffffffffffffffffffffffffffffffffffff1673ffffffffffffffffffffffffffffffffffffffff163373ffffffffffffffffffffffffffffffffffffffff1614614eb4576040517f08c379a000000000000000000000000000000000000000000000000000000000815260040180806020018281038252600f8152602001807f48617320746f206265206f776e6572000000000000000000000000000000000081525060200191505060405180910390fd5b614ebc612a71565b614f2e576040517f08c379a00000000000000000000000000000000000000000000000000000000081526004018080602001828103825260138152602001807f48617320746f2062652066696e616c697a65640000000000000000000000000081525060200191505060405180910390fd5b601060009054906101000a900460ff1615614f4857600080fd5b6000614f52611592565b8015614f715750614f646016546133bd565b614f6f6017546133bd565b105b15614f80576018549050614f9a565b614f976017546018546158bf90919063ffffffff16565b90505b6000811115615115576001601060006101000a81548160ff021916908315150217905550600c60009054906101000a900473ffffffffffffffffffffffffffffffffffffffff1673ffffffffffffffffffffffffffffffffffffffff1663a9059cbb33836040518363ffffffff1660e01b8152600401808373ffffffffffffffffffffffffffffffffffffffff1673ffffffffffffffffffffffffffffffffffffffff16815260200182815260200192505050602060405180830381600087803b15801561506757600080fd5b505af115801561507b573d6000803e3d6000fd5b505050506040513d602081101561509157600080fd5b8101908080519060200190929190505050615114576040517f08c379a00000000000000000000000000000000000000000000000000000000081526004018080602001828103825260158152602001807f4552433230207472616e73666572206661696c6564000000000000000000000081525060200191505060405180910390fd5b5b50565b61512061276d565b615192576040517f08c379a00000000000000000000000000000000000000000000000000000000081526004018080602001828103825260158152602001807f48617320746f206265207072652d73746172746564000000000000000000000081525060200191505060405180910390fd5b6018546151af826151a1612eee565b61583790919063ffffffff16565b1115615206576040517f08c379a0000000000000000000000000000000000000000000000000000000008152600401808060200182810382526038815260200180615b6d6038913960400191505060405180910390fd5b600c60009054906101000a900473ffffffffffffffffffffffffffffffffffffffff1673ffffffffffffffffffffffffffffffffffffffff166323b872dd3330846040518463ffffffff1660e01b8152600401808473ffffffffffffffffffffffffffffffffffffffff1673ffffffffffffffffffffffffffffffffffffffff1681526020018373ffffffffffffffffffffffffffffffffffffffff1673ffffffffffffffffffffffffffffffffffffffff1681526020018281526020019350505050602060405180830381600087803b1580156152e357600080fd5b505af11580156152f7573d6000803e3d6000fd5b505050506040513d602081101561530d57600080fd5b8101908080519060200190929190505050615390576040517f08c379a000000000000000000000000000000000000000000000000000000000815260040180806020018281038252601b8152602001807f4661696c656420455243323020746f6b656e207472616e73666572000000000081525060200191505060405180910390fd5b60185461539b612eee565b14156153bd576001600d60146101000a81548160ff0219169083151502179055505b50565b601b60009054906101000a900460ff1681565b600160009054906101000a900473ffffffffffffffffffffffffffffffffffffffff1681565b600a818154811061540657fe5b906000526020600020016000915090505481565b600760009054906101000a900473ffffffffffffffffffffffffffffffffffffffff1681565b60155481565b600d60009054906101000a900473ffffffffffffffffffffffffffffffffffffffff1681565b601960019054906101000a900473ffffffffffffffffffffffffffffffffffffffff1681565b600061549f6018546133bd565b905090565b600981815481106154b157fe5b906000526020600020016000915054906101000a900473ffffffffffffffffffffffffffffffffffffffff1681565b6000809054906101000a900473ffffffffffffffffffffffffffffffffffffffff1673ffffffffffffffffffffffffffffffffffffffff163373ffffffffffffffffffffffffffffffffffffffff16146155a2576040517f08c379a000000000000000000000000000000000000000000000000000000000815260040180806020018281038252600f8152602001807f48617320746f206265206f776e6572000000000000000000000000000000000081525060200191505060405180910390fd5b8073ffffffffffffffffffffffffffffffffffffffff163373ffffffffffffffffffffffffffffffffffffffff161415615627576040517f08c379a0000000000000000000000000000000000000000000000000000000008152600401808060200182810382526021815260200180615d166021913960400191505060405180910390fd5b80600160006101000a81548173ffffffffffffffffffffffffffffffffffffffff021916908373ffffffffffffffffffffffffffffffffffffffff16021790555050565b606060098054806020026020016040519081016040528092919081815260200182805480156156ef57602002820191906000526020600020905b8160009054906101000a900473ffffffffffffffffffffffffffffffffffffffff1673ffffffffffffffffffffffffffffffffffffffff16815260200190600101908083116156a5575b5050505050905090565b60006008600083815260200190815260200160002060010160009054906101000a900473ffffffffffffffffffffffffffffffffffffffff1673ffffffffffffffffffffffffffffffffffffffff163373ffffffffffffffffffffffffffffffffffffffff16149050919050565b60008083141561577a57600090506157e7565b600082840290508284828161578b57fe5b04146157e2576040517f08c379a0000000000000000000000000000000000000000000000000000000008152600401808060200182810382526021815260200180615cc46021913960400191505060405180910390fd5b809150505b92915050565b600061582f83836040518060400160405280601a81526020017f536166654d6174683a206469766973696f6e206279207a65726f000000000000815250615909565b905092915050565b6000808284019050838110156158b5576040517f08c379a000000000000000000000000000000000000000000000000000000000815260040180806020018281038252601b8152602001807f536166654d6174683a206164646974696f6e206f766572666c6f77000000000081525060200191505060405180910390fd5b8091505092915050565b600061590183836040518060400160405280601e81526020017f536166654d6174683a207375627472616374696f6e206f766572666c6f7700008152506159cf565b905092915050565b600080831182906159b5576040517f08c379a00000000000000000000000000000000000000000000000000000000081526004018080602001828103825283818151815260200191508051906020019080838360005b8381101561597a57808201518184015260208101905061595f565b50505050905090810190601f1680156159a75780820380516001836020036101000a031916815260200191505b509250505060405180910390fd5b5060008385816159c157fe5b049050809150509392505050565b6000838311158290615a7c576040517f08c379a00000000000000000000000000000000000000000000000000000000081526004018080602001828103825283818151815260200191508051906020019080838360005b83811015615a41578082015181840152602081019050615a26565b50505050905090810190601f168015615a6e5780820380516001836020036101000a031916815260200191505b509250505060405180910390fd5b5060008385039050809150509392505050565b6040518060c0016040528060008152602001600073ffffffffffffffffffffffffffffffffffffffff1681526020016000815260200160008152602001600015158152602001600015158152509056fe5061796d656e74206f6620455243323020546f6b656e205472616e7366657220776173206e6f7420737563636565646564546f6b656e20416464726573732068617320746f2062652064696666207468616e20746865206572633230207375626a65637420746f2073616c655075726368617365206973206569746865722030206f722066696e616c697a65645472616e73666572656420746f6b656e73206861766520746f20626520657175616c206f72206c657373207468616e2070726f706f736564416d6f756e74206973206c657373207468616e20746f6b656e7320617661696c61626c65546f74616c526169736520697320626967676572207468616e206d696e696d756d20726169736520616d6f756e74416d6f756e7420697320736d616c6c6572207468616e206d6178696d756d20616d6f756e74557365722068617320746f20636f7665722074686520636f7374206f662074686520737761702c207573652074686520636f73742066756e6374696f6e20746f2064657465726d696e655265747269657665206f6620455243323020546f6b656e205472616e7366657220776173206e6f7420737563636565646564546f74616c5261697365206973206c657373207468616e206d696e696d756d20726169736520616d6f756e74536166654d6174683a206d756c7469706c69636174696f6e206f766572666c6f77416464726573732068617320616c72656164792070617373656420746865206d617820616d6f756e74206f66207377617048617320746f2062652064696666207468616e2063757272656e74206f776e6572416d6f756e7420697320626967676572207468616e206d696e696d756d20616d6f756e74546f6b656e20416464726573732068617320746f2062652064696666207468616e2074686520657263323020616761696e7374207468652073616c65a165627a7a72305820447e6d5907fb2803ef94af1780bbc0975c0e877f92beb4f41ea49d46de1e29090029456e6420446174652073686f756c642062652066757274686572207468616e2063757272656e742064617465496e646976696475616c204d6178696d696d20414d6f756e742073686f756c64206265203e20496e646976696475616c204d696e696d756d20416d6f756e744d696e696d756d2052616973652073686f756c64206265203c20546f6b656e7320466f722053616c65546f6b656e7320666f722053616c652073686f756c64206265203e20496e646976696475616c204d696e696d756d20416d6f756e74",
  "source": "pragma solidity 0.5.8; \n\n/**\n * @title ERC20Basic\n * @dev Simpler version of ERC20 interface\n * @dev see https://github.com/ethereum/EIPs/issues/179\n */\ncontract ERC20Basic {\n    function decimals() public view returns (uint8);\n    function totalSupply() public view returns (uint256);\n    function balanceOf(address who) public view returns (uint256);\n    function transfer(address to, uint256 value) public returns (bool);\n    event Transfer(address indexed from, address indexed to, uint256 value);\n}\n\n/**\n * @dev Wrappers over Solidity's arithmetic operations with added overflow\n * checks.\n *\n * Arithmetic operations in Solidity wrap on overflow. This can easily result\n * in bugs, because programmers usually assume that an overflow raises an\n * error, which is the standard behavior in high level programming languages.\n * `SafeMath` restores this intuition by reverting the transaction when an\n * operation overflows.\n *\n * Using this library instead of the unchecked operations eliminates an entire\n * class of bugs, so it's recommended to use it always.\n */\nlibrary SafeMath {\n    /**\n     * @dev Returns the addition of two unsigned integers, reverting on\n     * overflow.\n     *\n     * Counterpart to Solidity's `+` operator.\n     *\n     * Requirements:\n     * - Addition cannot overflow.\n     */\n    function add(uint256 a, uint256 b) internal pure returns (uint256) {\n        uint256 c = a + b;\n        require(c >= a, \"SafeMath: addition overflow\");\n\n        return c;\n    }\n\n    /**\n     * @dev Returns the subtraction of two unsigned integers, reverting on\n     * overflow (when the result is negative).\n     *\n     * Counterpart to Solidity's `-` operator.\n     *\n     * Requirements:\n     * - Subtraction cannot overflow.\n     */\n    function sub(uint256 a, uint256 b) internal pure returns (uint256) {\n        return sub(a, b, \"SafeMath: subtraction overflow\");\n    }\n\n    /**\n     * @dev Returns the subtraction of two unsigned integers, reverting with custom message on\n     * overflow (when the result is negative).\n     *\n     * Counterpart to Solidity's `-` operator.\n     *\n     * Requirements:\n     * - Subtraction cannot overflow.\n     *\n     * _Available since v2.4.0._\n     */\n    function sub(uint256 a, uint256 b, string memory errorMessage) internal pure returns (uint256) {\n        require(b <= a, errorMessage);\n        uint256 c = a - b;\n\n        return c;\n    }\n\n    /**\n     * @dev Returns the multiplication of two unsigned integers, reverting on\n     * overflow.\n     *\n     * Counterpart to Solidity's `*` operator.\n     *\n     * Requirements:\n     * - Multiplication cannot overflow.\n     */\n    function mul(uint256 a, uint256 b) internal pure returns (uint256) {\n        // Gas optimization: this is cheaper than requiring 'a' not being zero, but the\n        // benefit is lost if 'b' is also tested.\n        // See: https://github.com/OpenZeppelin/openzeppelin-contracts/pull/522\n        if (a == 0) {\n            return 0;\n        }\n\n        uint256 c = a * b;\n        require(c / a == b, \"SafeMath: multiplication overflow\");\n\n        return c;\n    }\n\n    /**\n     * @dev Returns the integer division of two unsigned integers. Reverts on\n     * division by zero. The result is rounded towards zero.\n     *\n     * Counterpart to Solidity's `/` operator. Note: this function uses a\n     * `revert` opcode (which leaves remaining gas untouched) while Solidity\n     * uses an invalid opcode to revert (consuming all remaining gas).\n     *\n     * Requirements:\n     * - The divisor cannot be zero.\n     */\n    function div(uint256 a, uint256 b) internal pure returns (uint256) {\n        return div(a, b, \"SafeMath: division by zero\");\n    }\n\n    /**\n     * @dev Returns the integer division of two unsigned integers. Reverts with custom message on\n     * division by zero. The result is rounded towards zero.\n     *\n     * Counterpart to Solidity's `/` operator. Note: this function uses a\n     * `revert` opcode (which leaves remaining gas untouched) while Solidity\n     * uses an invalid opcode to revert (consuming all remaining gas).\n     *\n     * Requirements:\n     * - The divisor cannot be zero.\n     *\n     * _Available since v2.4.0._\n     */\n    function div(uint256 a, uint256 b, string memory errorMessage) internal pure returns (uint256) {\n        // Solidity only automatically asserts when dividing by 0\n        require(b > 0, errorMessage);\n        uint256 c = a / b;\n        // assert(a == b * c + a % b); // There is no case in which this doesn't hold\n\n        return c;\n    }\n\n    /**\n     * @dev Returns the remainder of dividing two unsigned integers. (unsigned integer modulo),\n     * Reverts when dividing by zero.\n     *\n     * Counterpart to Solidity's `%` operator. This function uses a `revert`\n     * opcode (which leaves remaining gas untouched) while Solidity uses an\n     * invalid opcode to revert (consuming all remaining gas).\n     *\n     * Requirements:\n     * - The divisor cannot be zero.\n     */\n    function mod(uint256 a, uint256 b) internal pure returns (uint256) {\n        return mod(a, b, \"SafeMath: modulo by zero\");\n    }\n\n    /**\n     * @dev Returns the remainder of dividing two unsigned integers. (unsigned integer modulo),\n     * Reverts with custom message when dividing by zero.\n     *\n     * Counterpart to Solidity's `%` operator. This function uses a `revert`\n     * opcode (which leaves remaining gas untouched) while Solidity uses an\n     * invalid opcode to revert (consuming all remaining gas).\n     *\n     * Requirements:\n     * - The divisor cannot be zero.\n     *\n     * _Available since v2.4.0._\n     */\n    function mod(uint256 a, uint256 b, string memory errorMessage) internal pure returns (uint256) {\n        require(b != 0, errorMessage);\n        return a % b;\n    }\n}\n\n// File: openzeppelin-solidity/contracts/token/ERC20/ERC20.sol\n\n/**\n * @title ERC20 interface\n * @dev see https://github.com/ethereum/EIPs/issues/20\n */\ncontract ERC20 is ERC20Basic {\n  function allowance(address owner, address spender) public view returns (uint256);\n  function transferFrom(address from, address to, uint256 value) public returns (bool);\n  function approve(address spender, uint256 value) public returns (bool);\n  event Approval(address indexed owner, address indexed spender, uint256 value);\n}\n\n// File: openzeppelin-solidity/contracts/ownership/Ownable.sol\n\n/**\n * @title Ownable\n * @dev The Ownable contract has an owner address, and provides basic authorization control\n * functions, this simplifies the implementation of \"user permissions\".\n */\ncontract Ownable {\n    address public owner;\n    address public proposedOwner;\n    event OwnershipTransferred(address indexed previousOwner, address indexed newOwner);\n\n\n    /**\n    * @dev The Ownable constructor sets the original `owner` of the contract to the sender\n    * account.\n    */\n    constructor() public {\n        owner = msg.sender;\n    }\n\n    /**\n    * @dev Throws if called by any account other than the owner.\n    */\n    modifier onlyOwner() {\n        require(msg.sender == owner, \"Has to be owner\");\n        _;\n    }\n\n    function transferOwnership(address _proposedOwner) public onlyOwner {\n        require(msg.sender != _proposedOwner, \"Has to be diff than current owner\");\n        proposedOwner = _proposedOwner;\n    }\n\n    function claimOwnership() public {\n        require(msg.sender == proposedOwner, \"Has to be the proposed owner\");\n        emit OwnershipTransferred(owner, proposedOwner);\n        owner = proposedOwner;\n        proposedOwner = address(0);\n    }\n}\n\n// File: openzeppelin-solidity/contracts/lifecycle/Pausable.sol\n\n/**\n * @title Pausable\n * @dev Base contract which allows children to implement an emergency stop mechanism.\n */\ncontract Pausable is Ownable {\n    event Pause();\n    event Unpause();\n\n    bool public paused = false;\n\n\n    /**\n    * @dev Modifier to make a function callable only when the contract is not paused.\n    */\n    modifier whenNotPaused() {\n        require(!paused, \"Has to be unpaused\");\n        _;\n    }\n\n    /**\n    * @dev Modifier to make a function callable only when the contract is paused.\n    */\n    modifier whenPaused() {\n        require(paused, \"Has to be paused\");\n        _;\n    }\n\n    /**\n    * @dev called by the owner to pause, triggers stopped state\n    */\n    function pause() onlyOwner whenNotPaused public {\n        paused = true;\n        emit Pause();\n    }\n\n    /**\n    * @dev called by the owner to unpause, returns to normal state\n    */\n    function unpause() onlyOwner whenPaused public {\n        paused = false;\n        emit Unpause();\n    }\n}\n\n\ncontract Whitelist is Ownable {\n\n    mapping(address => bool) public whitelist;\n    address[] public whitelistedAddresses;\n    bool public hasWhitelisting = false;\n\n    event AddedToWhitelist(address[] indexed accounts);\n    event RemovedFromWhitelist(address indexed account);\n\n    modifier onlyWhitelisted() {\n        if(hasWhitelisting){\n            require(isWhitelisted(msg.sender));\n        }\n        _;\n    }\n    \n    constructor (bool _hasWhitelisting) public{\n        hasWhitelisting = _hasWhitelisting;\n    }\n\n    function add(address[] memory _addresses) public onlyOwner {\n        for (uint i = 0; i < _addresses.length; i++) {\n            require(whitelist[_addresses[i]] != true);\n            whitelist[_addresses[i]] = true;\n            whitelistedAddresses.push(_addresses[i]);\n        }\n        emit AddedToWhitelist(_addresses);\n    }\n\n    function remove(address _address, uint256 _index) public onlyOwner {\n        require(_address == whitelistedAddresses[_index]);\n        whitelist[_address] = false;\n        delete whitelistedAddresses[_index];\n        emit RemovedFromWhitelist(_address);\n    }\n\n    function getWhitelistedAddresses() public view returns(address[] memory) {\n        return whitelistedAddresses;\n    } \n\n    function isWhitelisted(address _address) public view returns(bool) {\n        return whitelist[_address];\n    }\n}\n\ncontract FixedSwap is Pausable, Whitelist {\n    using SafeMath for uint256;\n    uint256 increment = 0;\n\n    ERC20 public erc20POLS = ERC20(address(0x83e6f1E41cdd28eAcEB20Cb649155049Fac3D5Aa));\n    ERC20 public erc20v2POLS = ERC20(address(0xFfA98A091331Df4600F87C9164cD27e8a5CD2405));\n\n    mapping(uint256 => Purchase) public purchases; /* Purchasers mapping */\n    address[] public buyers; /* Current Buyers Addresses */\n    uint256[] public purchaseIds; /* All purchaseIds */\n    mapping(address => uint256[]) public myPurchases; /* Purchasers mapping */\n\n    ERC20 public erc20;\n    ERC20 public erc20TradeAddress; /* Trade Token Vaue */\n    bool public isSaleFunded = false;\n    uint public decimals = 0;\n    uint public tradingDecimals = 18; /* Base wei decimals */\n    bool public unsoldTokensReedemed = false;\n    uint256 public tradeValue; /* Price in Wei */\n    uint256 public startDate; /* Start Date  */\n    uint256 public endDate;  /* End Date  */\n    uint256 public individualMinimumAmount = 0;  /* Minimum Amount Per Address */\n    uint256 public individualMaximumAmount = 0;  /* Minimum Amount Per Address */\n    uint256 public minimumRaise = 0;  /* Minimum Amount of Tokens that have to be sold */\n    uint256 public tokensAllocated = 0; /* Tokens Available for Allocation - Dynamic */\n    uint256 public tokensForSale = 0; /* Tokens Available for Sale */\n    bool    public isTokenSwapAtomic; /* Make token release atomic or not */\n    address payable public FEE_ADDRESS = 0xAEb39b67F27b641Ef9F95fB74F1A46b1EE4Efc83; /* Default Address for Fee Percentage */\n    uint256 public feePercentage = 1; /* Default Fee 1% */\n    bool public isPOLSWhitelisted; /* Is whitelisted by pools */\n\n    struct Purchase {\n        uint256 amount;\n        address purchaser;\n        uint256 costAmount;\n        uint256 timestamp;\n        bool wasFinalized /* Confirm the tokens were sent already */;\n        bool reverted /* Confirm the tokens were sent already */;\n    }\n\n    event PurchaseEvent(uint256 amount, address indexed purchaser, uint256 timestamp);\n\n    constructor(address _tokenAddress, uint256 _tradeValue, uint256 _tokensForSale, uint256 _startDate, \n        uint256 _endDate, uint256 _individualMinimumAmount, uint256 _individualMaximumAmount, bool _isTokenSwapAtomic, uint256 _minimumRaise,\n        uint256 _feeAmount, bool _hasWhitelisting, address _erc20TradeAddress, bool _isETHTrade, bool _isPOLSWhitelisted\n    ) public Whitelist(_hasWhitelisting) {\n        \n        /* Confirmations */\n        require(block.timestamp < _endDate, \"End Date should be further than current date\");\n        require(block.timestamp < _startDate, \"End Date should be further than current date\");\n        require(_startDate < _endDate, \"End Date higher than Start Date\");\n        require(_tokensForSale > 0, \"Tokens for Sale should be > 0\");\n        require(_tokensForSale > _individualMinimumAmount, \"Tokens for Sale should be > Individual Minimum Amount\");\n        require(_individualMaximumAmount >= _individualMinimumAmount, \"Individual Maximim AMount should be > Individual Minimum Amount\");\n        require(_minimumRaise <= _tokensForSale, \"Minimum Raise should be < Tokens For Sale\");\n        require(_feeAmount >= feePercentage, \"Fee Percentage has to be >= 1\");\n        require(_feeAmount <= 99, \"Fee Percentage has to be < 100\");\n\n        startDate = _startDate; \n        endDate = _endDate;\n        tokensForSale = _tokensForSale;\n        tradeValue = _tradeValue;\n\n        individualMinimumAmount = _individualMinimumAmount; \n        individualMaximumAmount = _individualMaximumAmount; \n        isTokenSwapAtomic = _isTokenSwapAtomic;\n\n        if(!_isTokenSwapAtomic){ /* If raise is not atomic swap */\n            minimumRaise = _minimumRaise;\n        }\n        \n        erc20 = ERC20(_tokenAddress);\n        if(!_isETHTrade){\n            erc20TradeAddress = ERC20(_erc20TradeAddress);\n            tradingDecimals =  erc20TradeAddress.decimals();\n        }\n        isPOLSWhitelisted = _isPOLSWhitelisted;\n        decimals = erc20.decimals();\n        feePercentage = _feeAmount;\n    }\n\n    /**\n    * Modifier to make a function callable only when the contract has Atomic Swaps not available.\n    */\n    modifier isNotAtomicSwap() {\n        require(!isTokenSwapAtomic, \"Has to be non Atomic swap\");\n        _;\n    }\n\n     /**\n    * Modifier to make a function callable only when the contract has Atomic Swaps not available.\n    */\n    modifier isSaleFinalized() {\n        require(hasFinalized(), \"Has to be finalized\");\n        _;\n    }\n\n     /**\n    * Modifier to make a function callable only when the swap time is open.\n    */\n    modifier isSaleOpen() {\n        require(isOpen(), \"Has to be open\");\n        _;\n    }\n\n     /**\n    * Modifier to make a function callable only when the contract has Atomic Swaps not available.\n    */\n    modifier isSalePreStarted() {\n        require(isPreStart(), \"Has to be pre-started\");\n        _;\n    }\n\n    /**\n    * Modifier to make a function callable only when the contract has Atomic Swaps not available.\n    */\n    modifier isFunded() {\n        require(isSaleFunded, \"Has to be funded\");\n        _;\n    }\n\n\n    /* Get Functions */\n    function isBuyer(uint256 purchase_id) public view returns (bool) {\n        return (msg.sender == purchases[purchase_id].purchaser);\n    }\n\n    /* Get Functions */\n    function totalRaiseCost() public view returns (uint256) {\n        return (cost(tokensForSale));\n    }\n\n    function availableTokens() public view returns (uint256) {\n        return erc20.balanceOf(address(this));\n    }\n\n    function tokensLeft() public view returns (uint256) {\n        return tokensForSale - tokensAllocated;\n    }\n\n    function hasMinimumRaise() public view returns (bool){\n        return (minimumRaise != 0);\n    }\n\n    /* Verify if minimum raise was not achieved */\n    function minimumRaiseNotAchieved() public view returns (bool){\n        require(cost(tokensAllocated) < cost(minimumRaise), \"TotalRaise is bigger than minimum raise amount\");\n        return true;\n    }\n\n    /* Verify if minimum raise was achieved */\n    function minimumRaiseAchieved() public view returns (bool){\n        if(hasMinimumRaise()){\n            require(cost(tokensAllocated) >= cost(minimumRaise), \"TotalRaise is less than minimum raise amount\");\n        }\n        return true;\n    }\n\n    function isETHTrade() public view returns (bool){\n        return address(erc20TradeAddress) != address(0);\n    }\n\n    function hasFinalized() public view returns (bool){\n        return block.timestamp > endDate;\n    }\n\n    function hasStarted() public view returns (bool){\n        return block.timestamp >= startDate;\n    }\n    \n    function isPreStart() public view returns (bool){\n        return block.timestamp < startDate;\n    }\n\n    function isOpen() public view returns (bool){\n        return hasStarted() && !hasFinalized();\n    }\n\n    function hasMinimumAmount() public view returns (bool){\n       return (individualMinimumAmount != 0);\n    }\n\n    function cost(uint256 _amount) public view returns (uint){\n        return _amount.mul(tradeValue).div(10**decimals); \n    }\n\n    function getPurchase(uint256 _purchase_id) external view returns (uint256, address, uint256, uint256, bool, bool){\n        Purchase memory purchase = purchases[_purchase_id];\n        return (purchase.amount, purchase.purchaser, purchase.costAmount, purchase.timestamp, purchase.wasFinalized, purchase.reverted);\n    }\n\n    function getPurchaseIds() public view returns(uint256[] memory) {\n        return purchaseIds;\n    }\n\n    function getBuyers() public view returns(address[] memory) {\n        return buyers;\n    }\n\n    function getMyPurchases(address _address) public view returns(uint256[] memory) {\n        return myPurchases[_address];\n    }\n\n    function isAddressPOLSWhitelisted() public view returns(bool){\n        if(isPOLSWhitelisted){\n            /* Confirm balance held in POLS or V2 POLS is enough */\n            return (erc20POLS.balanceOf(msg.sender) > 3000*10**18) || (erc20v2POLS.balanceOf(msg.sender) > 20*10**18);\n        }else{\n            return true;\n        }\n    }\n\n    /* Fund - Pre Sale Start */\n    function fund(uint256 _amount) public isSalePreStarted {\n        \n        /* Confirm transfered tokens is no more than needed */\n        require(availableTokens().add(_amount) <= tokensForSale, \"Transfered tokens have to be equal or less than proposed\");\n\n        /* Transfer Funds */\n        require(erc20.transferFrom(msg.sender, address(this), _amount), \"Failed ERC20 token transfer\");\n        \n        /* If Amount is equal to needed - sale is ready */\n        if(availableTokens() == tokensForSale){\n            isSaleFunded = true;\n        }\n    }\n    \n    /* Action Functions */\n    function swap(uint256 _amount) payable external whenNotPaused isFunded isSaleOpen onlyWhitelisted {\n\n        uint256 value;\n        if(isETHTrade()){ \n            /* Is ETH Trade */\n            value = msg.value;\n            /* Confirm the user has funds for the transfer, confirm the value is equal */\n            require(value >= cost(_amount), \"User has to cover the cost of the swap, use the cost function to determine\");\n        }else{ \n            /* is ERC20 Trade */\n            value = cost(_amount);\n            require(erc20TradeAddress.transferFrom(msg.sender, address(this), value), \"Payment of ERC20 Token Transfer was not succeeded\");\n        }\n\n        /* Confirm Amount is positive */\n        require(_amount > 0, \"Amount has to be positive\");\n\n        /* Confirm Amount is less than tokens available */\n        require(_amount <= tokensLeft(), \"Amount is less than tokens available\");\n   \n        /* Confirm Amount is bigger than minimum Amount */\n        require(_amount >= individualMinimumAmount, \"Amount is bigger than minimum amount\");\n\n        /* Confirm Amount is smaller than maximum Amount */\n        require(_amount <= individualMaximumAmount, \"Amount is smaller than maximum amount\");\n\n        /* Verify all user purchases, loop thru them */\n        uint256[] memory _purchases = getMyPurchases(msg.sender);\n        uint256 purchaserTotalAmountPurchased = 0;\n        for (uint i = 0; i < _purchases.length; i++) {\n            Purchase memory _purchase = purchases[_purchases[i]];\n            purchaserTotalAmountPurchased = purchaserTotalAmountPurchased.add(_purchase.amount);\n        }\n        require(purchaserTotalAmountPurchased.add(_amount) <= individualMaximumAmount, \"Address has already passed the max amount of swap\");\n        require(isAddressPOLSWhitelisted() == true);\n\n        if(isTokenSwapAtomic){\n            /* Confirm transfer */\n            require(erc20.transfer(msg.sender, _amount), \"ERC20 transfer didnt work\");\n        }\n\n        \n        uint256 purchase_id = increment;\n        increment = increment.add(1);\n\n        /* Create new purchase */\n        Purchase memory purchase = Purchase(_amount, msg.sender, value, block.timestamp, isTokenSwapAtomic /* If Atomic Swap */, false);\n        purchases[purchase_id] = purchase;\n        purchaseIds.push(purchase_id);\n        myPurchases[msg.sender].push(purchase_id);\n        buyers.push(msg.sender);\n        tokensAllocated = tokensAllocated.add(_amount);\n        emit PurchaseEvent(_amount, msg.sender, block.timestamp);\n    }\n\n    /* Redeem tokens when the sale was finalized */\n    function redeemTokens(uint256 purchase_id) external isNotAtomicSwap isSaleFinalized whenNotPaused {\n        /* Confirm it exists and was not finalized */\n        require((purchases[purchase_id].amount != 0) && !purchases[purchase_id].wasFinalized, \"Purchase is either 0 or finalized\");\n        require(isBuyer(purchase_id), \"Address is not buyer\");\n        purchases[purchase_id].wasFinalized = true;\n        require(erc20.transfer(msg.sender, purchases[purchase_id].amount), \"ERC20 transfer failed\");\n    }\n\n    /* Retrieve Minumum Amount */\n    function redeemGivenMinimumGoalNotAchieved(uint256 purchase_id) external isSaleFinalized isNotAtomicSwap {\n        require(hasMinimumRaise(), \"Minimum raise has to exist\");\n        require(minimumRaiseNotAchieved(), \"Minimum raise has to be reached\");\n        /* Confirm it exists and was not finalized */\n        require((purchases[purchase_id].amount != 0) && !purchases[purchase_id].wasFinalized, \"Purchase is either 0 or finalized\");\n        require(isBuyer(purchase_id), \"Address is not buyer\");\n        purchases[purchase_id].wasFinalized = true;\n        purchases[purchase_id].reverted = true;\n        \n        if(isETHTrade()){\n            msg.sender.transfer(purchases[purchase_id].costAmount);\n        }else{\n            require(erc20TradeAddress.transferFrom(msg.sender, address(this), purchases[purchase_id].costAmount), \"Retrieve of ERC20 Token Transfer was not succeeded\");\n        }\n    }\n\n    /* Admin Functions */\n    function withdrawFunds() external onlyOwner whenNotPaused isSaleFinalized {\n        require(minimumRaiseAchieved(), \"Minimum raise has to be reached\");\n        if(isETHTrade()){\n            FEE_ADDRESS.transfer(address(this).balance.mul(feePercentage).div(100)); /* Fee Address */\n            msg.sender.transfer(address(this).balance);\n        }else{\n            erc20TradeAddress.transfer(FEE_ADDRESS, erc20TradeAddress.balanceOf(address(this)).mul(feePercentage).div(100));  /* Fee Address */\n            erc20TradeAddress.transfer(msg.sender, erc20TradeAddress.balanceOf(address(this)));\n        }\n    }  \n    \n    function withdrawUnsoldTokens() external onlyOwner isSaleFinalized {\n        require(!unsoldTokensReedemed);\n        uint256 unsoldTokens;\n        if(hasMinimumRaise() && \n            (cost(tokensAllocated) < cost(minimumRaise))){ /* Minimum Raise not reached */\n                unsoldTokens = tokensForSale;\n        }else{\n            /* If minimum Raise Achieved Redeem All Tokens minus the ones */\n            unsoldTokens = tokensForSale.sub(tokensAllocated);\n        }\n\n        if(unsoldTokens > 0){\n            unsoldTokensReedemed = true;\n            require(erc20.transfer(msg.sender, unsoldTokens), \"ERC20 transfer failed\");\n        }\n    }   \n\n    function removeOtherERC20Tokens(address _tokenAddress, address _to) external onlyOwner isSaleFinalized {\n        require(_tokenAddress != address(erc20), \"Token Address has to be diff than the erc20 subject to sale\"); // Confirm tokens addresses are different from main sale one\n        require(_tokenAddress != address(erc20TradeAddress), \"Token Address has to be diff than the erc20 against the sale\"); \n        ERC20 erc20Token = ERC20(_tokenAddress);\n        require(erc20Token.transfer(_to, erc20Token.balanceOf(address(this))), \"ERC20 Token transfer failed\");\n    } \n\n    /* Safe Pull function */\n    function safePull() payable external onlyOwner whenPaused {\n        msg.sender.transfer(address(this).balance);\n        erc20.transfer(msg.sender, erc20.balanceOf(address(this)));\n        if(!isETHTrade()){\n            erc20TradeAddress.transfer(msg.sender, erc20TradeAddress.balanceOf(address(this)));\n        }\n    }\n}\n",
  "sourcePath": "/Users/ruipedro/Desktop/projects/Staking/erc20/contracts/FixedSwap.sol",
  "compiler": {
    "name": "solc",
    "version": "0.5.8+commit.23d335f2.Emscripten.clang"
  },
  "schemaVersion": "3.0.20",
  "updatedAt": "2021-01-27T20:29:57.124Z",
  "devdoc": {
    "methods": {
      "pause()": {
        "details": "called by the owner to pause, triggers stopped state"
      },
      "unpause()": {
        "details": "called by the owner to unpause, returns to normal state"
      }
    }
  },
  "userdoc": {
    "methods": {}
  }
}