{
  "_format": "hh-sol-artifact-1",
  "contractName": "FixedNFTSwap",
  "sourceName": "contracts/FixedNFTSwap.sol",
  "abi": [
    {
      "inputs": [
        {
          "internalType": "uint256",
          "name": "_startDate",
          "type": "uint256"
        },
        {
          "internalType": "uint256",
          "name": "_endDate",
          "type": "uint256"
        },
        {
          "internalType": "uint256",
          "name": "_distributionDate",
          "type": "uint256"
        },
        {
          "internalType": "uint256",
          "name": "_individualMaximumAmount",
          "type": "uint256"
        },
        {
          "internalType": "uint256",
          "name": "_minimumRaise",
          "type": "uint256"
        },
        {
          "internalType": "uint256",
          "name": "_feePercentage",
          "type": "uint256"
        },
        {
          "internalType": "bool",
          "name": "_hasWhitelisting",
          "type": "bool"
        },
        {
          "internalType": "address",
          "name": "_erc20TradeAddress",
          "type": "address"
        },
        {
          "internalType": "uint256[]",
          "name": "_categoryIds",
          "type": "uint256[]"
        },
        {
          "internalType": "uint256[]",
          "name": "_categoriesSupply",
          "type": "uint256[]"
        },
        {
          "internalType": "uint256[]",
          "name": "_categoriesPrice",
          "type": "uint256[]"
        }
      ],
      "stateMutability": "nonpayable",
      "type": "constructor"
    },
    {
      "anonymous": false,
      "inputs": [
        {
          "indexed": false,
          "internalType": "uint256",
          "name": "count",
          "type": "uint256"
        }
      ],
      "name": "AddedArrayToBlacklist",
      "type": "event"
    },
    {
      "anonymous": false,
      "inputs": [
        {
          "indexed": false,
          "internalType": "uint256",
          "name": "count",
          "type": "uint256"
        }
      ],
      "name": "AddedArrayToWhitelist",
      "type": "event"
    },
    {
      "anonymous": false,
      "inputs": [
        {
          "indexed": true,
          "internalType": "address",
          "name": "account",
          "type": "address"
        }
      ],
      "name": "AddedToBlacklist",
      "type": "event"
    },
    {
      "anonymous": false,
      "inputs": [
        {
          "indexed": true,
          "internalType": "address",
          "name": "account",
          "type": "address"
        }
      ],
      "name": "AddedToWhitelist",
      "type": "event"
    },
    {
      "anonymous": false,
      "inputs": [
        {
          "indexed": false,
          "internalType": "address",
          "name": "account",
          "type": "address"
        }
      ],
      "name": "Paused",
      "type": "event"
    },
    {
      "anonymous": false,
      "inputs": [
        {
          "indexed": false,
          "internalType": "uint256",
          "name": "amount",
          "type": "uint256"
        },
        {
          "indexed": false,
          "internalType": "uint256",
          "name": "spentTokens",
          "type": "uint256"
        },
        {
          "indexed": true,
          "internalType": "uint256",
          "name": "categoryId",
          "type": "uint256"
        },
        {
          "indexed": true,
          "internalType": "address",
          "name": "purchaser",
          "type": "address"
        },
        {
          "indexed": false,
          "internalType": "uint256",
          "name": "timestamp",
          "type": "uint256"
        }
      ],
      "name": "PurchaseEvent",
      "type": "event"
    },
    {
      "anonymous": false,
      "inputs": [
        {
          "indexed": true,
          "internalType": "address",
          "name": "account",
          "type": "address"
        }
      ],
      "name": "RemovedFromBlacklist",
      "type": "event"
    },
    {
      "anonymous": false,
      "inputs": [
        {
          "indexed": true,
          "internalType": "address",
          "name": "account",
          "type": "address"
        }
      ],
      "name": "RemovedFromWhitelist",
      "type": "event"
    },
    {
      "anonymous": false,
      "inputs": [
        {
          "indexed": true,
          "internalType": "bytes32",
          "name": "role",
          "type": "bytes32"
        },
        {
          "indexed": true,
          "internalType": "bytes32",
          "name": "previousAdminRole",
          "type": "bytes32"
        },
        {
          "indexed": true,
          "internalType": "bytes32",
          "name": "newAdminRole",
          "type": "bytes32"
        }
      ],
      "name": "RoleAdminChanged",
      "type": "event"
    },
    {
      "anonymous": false,
      "inputs": [
        {
          "indexed": true,
          "internalType": "bytes32",
          "name": "role",
          "type": "bytes32"
        },
        {
          "indexed": true,
          "internalType": "address",
          "name": "account",
          "type": "address"
        },
        {
          "indexed": true,
          "internalType": "address",
          "name": "sender",
          "type": "address"
        }
      ],
      "name": "RoleGranted",
      "type": "event"
    },
    {
      "anonymous": false,
      "inputs": [
        {
          "indexed": true,
          "internalType": "bytes32",
          "name": "role",
          "type": "bytes32"
        },
        {
          "indexed": true,
          "internalType": "address",
          "name": "account",
          "type": "address"
        },
        {
          "indexed": true,
          "internalType": "address",
          "name": "sender",
          "type": "address"
        }
      ],
      "name": "RoleRevoked",
      "type": "event"
    },
    {
      "anonymous": false,
      "inputs": [
        {
          "indexed": false,
          "internalType": "bool",
          "name": "hasWhitelisting",
          "type": "bool"
        }
      ],
      "name": "SetHasWhitelisting",
      "type": "event"
    },
    {
      "anonymous": false,
      "inputs": [
        {
          "indexed": false,
          "internalType": "address",
          "name": "account",
          "type": "address"
        }
      ],
      "name": "Unpaused",
      "type": "event"
    },
    {
      "inputs": [],
      "name": "DEFAULT_ADMIN_ROLE",
      "outputs": [
        {
          "internalType": "bytes32",
          "name": "",
          "type": "bytes32"
        }
      ],
      "stateMutability": "view",
      "type": "function"
    },
    {
      "inputs": [],
      "name": "FEE_ADDRESS",
      "outputs": [
        {
          "internalType": "address",
          "name": "",
          "type": "address"
        }
      ],
      "stateMutability": "view",
      "type": "function"
    },
    {
      "inputs": [],
      "name": "WHITELIST_OWNER_ROLE",
      "outputs": [
        {
          "internalType": "bytes32",
          "name": "",
          "type": "bytes32"
        }
      ],
      "stateMutability": "view",
      "type": "function"
    },
    {
      "inputs": [
        {
          "internalType": "address[]",
          "name": "_addresses",
          "type": "address[]"
        }
      ],
      "name": "addArrayToBlacklist",
      "outputs": [],
      "stateMutability": "nonpayable",
      "type": "function"
    },
    {
      "inputs": [
        {
          "internalType": "address[]",
          "name": "_addresses",
          "type": "address[]"
        }
      ],
      "name": "addArrayToWhitelist",
      "outputs": [],
      "stateMutability": "nonpayable",
      "type": "function"
    },
    {
      "inputs": [
        {
          "internalType": "address",
          "name": "_address",
          "type": "address"
        }
      ],
      "name": "addToBlacklist",
      "outputs": [],
      "stateMutability": "nonpayable",
      "type": "function"
    },
    {
      "inputs": [
        {
          "internalType": "address",
          "name": "_address",
          "type": "address"
        }
      ],
      "name": "addToWhitelist",
      "outputs": [],
      "stateMutability": "nonpayable",
      "type": "function"
    },
    {
      "inputs": [
        {
          "internalType": "uint256",
          "name": "",
          "type": "uint256"
        }
      ],
      "name": "buyers",
      "outputs": [
        {
          "internalType": "address",
          "name": "",
          "type": "address"
        }
      ],
      "stateMutability": "view",
      "type": "function"
    },
    {
      "inputs": [
        {
          "internalType": "uint256",
          "name": "",
          "type": "uint256"
        }
      ],
      "name": "categories",
      "outputs": [
        {
          "internalType": "uint256",
          "name": "categoryId",
          "type": "uint256"
        },
        {
          "internalType": "uint256",
          "name": "supply",
          "type": "uint256"
        },
        {
          "internalType": "uint256",
          "name": "price",
          "type": "uint256"
        }
      ],
      "stateMutability": "view",
      "type": "function"
    },
    {
      "inputs": [
        {
          "internalType": "uint256",
          "name": "_amount",
          "type": "uint256"
        },
        {
          "internalType": "uint256",
          "name": "_categoryId",
          "type": "uint256"
        }
      ],
      "name": "cost",
      "outputs": [
        {
          "internalType": "uint256",
          "name": "",
          "type": "uint256"
        }
      ],
      "stateMutability": "view",
      "type": "function"
    },
    {
      "inputs": [],
      "name": "distributionDate",
      "outputs": [
        {
          "internalType": "uint256",
          "name": "",
          "type": "uint256"
        }
      ],
      "stateMutability": "view",
      "type": "function"
    },
    {
      "inputs": [],
      "name": "endDate",
      "outputs": [
        {
          "internalType": "uint256",
          "name": "",
          "type": "uint256"
        }
      ],
      "stateMutability": "view",
      "type": "function"
    },
    {
      "inputs": [],
      "name": "erc20TradeIn",
      "outputs": [
        {
          "internalType": "contract IERC20",
          "name": "",
          "type": "address"
        }
      ],
      "stateMutability": "view",
      "type": "function"
    },
    {
      "inputs": [],
      "name": "feePercentage",
      "outputs": [
        {
          "internalType": "uint256",
          "name": "",
          "type": "uint256"
        }
      ],
      "stateMutability": "view",
      "type": "function"
    },
    {
      "inputs": [],
      "name": "getAPIVersion",
      "outputs": [
        {
          "internalType": "uint32",
          "name": "API_VERSION",
          "type": "uint32"
        }
      ],
      "stateMutability": "pure",
      "type": "function"
    },
    {
      "inputs": [],
      "name": "getBlacklistedAddresses",
      "outputs": [
        {
          "internalType": "address[]",
          "name": "",
          "type": "address[]"
        }
      ],
      "stateMutability": "view",
      "type": "function"
    },
    {
      "inputs": [],
      "name": "getBuyers",
      "outputs": [
        {
          "internalType": "address[]",
          "name": "",
          "type": "address[]"
        }
      ],
      "stateMutability": "view",
      "type": "function"
    },
    {
      "inputs": [
        {
          "internalType": "address",
          "name": "_address",
          "type": "address"
        },
        {
          "internalType": "uint256",
          "name": "_categoryId",
          "type": "uint256"
        }
      ],
      "name": "getIsClaimedCategoryForUser",
      "outputs": [
        {
          "internalType": "bool",
          "name": "",
          "type": "bool"
        }
      ],
      "stateMutability": "view",
      "type": "function"
    },
    {
      "inputs": [
        {
          "internalType": "address",
          "name": "_address",
          "type": "address"
        }
      ],
      "name": "getMyPurchases",
      "outputs": [
        {
          "internalType": "uint256[]",
          "name": "",
          "type": "uint256[]"
        }
      ],
      "stateMutability": "view",
      "type": "function"
    },
    {
      "inputs": [
        {
          "internalType": "uint256",
          "name": "purchaseId",
          "type": "uint256"
        }
      ],
      "name": "getPurchase",
      "outputs": [
        {
          "internalType": "address",
          "name": "purchaser",
          "type": "address"
        },
        {
          "internalType": "uint48",
          "name": "timestamp",
          "type": "uint48"
        },
        {
          "internalType": "bool",
          "name": "reverted",
          "type": "bool"
        },
        {
          "internalType": "uint256",
          "name": "categoryId",
          "type": "uint256"
        },
        {
          "internalType": "uint256",
          "name": "amountPurchased",
          "type": "uint256"
        },
        {
          "internalType": "uint256",
          "name": "amountContributed",
          "type": "uint256"
        }
      ],
      "stateMutability": "view",
      "type": "function"
    },
    {
      "inputs": [],
      "name": "getPurchasesCount",
      "outputs": [
        {
          "internalType": "uint256",
          "name": "count",
          "type": "uint256"
        }
      ],
      "stateMutability": "view",
      "type": "function"
    },
    {
      "inputs": [
        {
          "internalType": "uint256",
          "name": "purchaseId",
          "type": "uint256"
        }
      ],
      "name": "getRedeemableTokensAmount",
      "outputs": [
        {
          "internalType": "uint256",
          "name": "amount",
          "type": "uint256"
        },
        {
          "internalType": "uint256",
          "name": "categoryId",
          "type": "uint256"
        },
        {
          "internalType": "string",
          "name": "message",
          "type": "string"
        }
      ],
      "stateMutability": "view",
      "type": "function"
    },
    {
      "inputs": [
        {
          "internalType": "bytes32",
          "name": "role",
          "type": "bytes32"
        }
      ],
      "name": "getRoleAdmin",
      "outputs": [
        {
          "internalType": "bytes32",
          "name": "",
          "type": "bytes32"
        }
      ],
      "stateMutability": "view",
      "type": "function"
    },
    {
      "inputs": [
        {
          "internalType": "bytes32",
          "name": "role",
          "type": "bytes32"
        },
        {
          "internalType": "uint256",
          "name": "index",
          "type": "uint256"
        }
      ],
      "name": "getRoleMember",
      "outputs": [
        {
          "internalType": "address",
          "name": "",
          "type": "address"
        }
      ],
      "stateMutability": "view",
      "type": "function"
    },
    {
      "inputs": [
        {
          "internalType": "bytes32",
          "name": "role",
          "type": "bytes32"
        }
      ],
      "name": "getRoleMemberCount",
      "outputs": [
        {
          "internalType": "uint256",
          "name": "",
          "type": "uint256"
        }
      ],
      "stateMutability": "view",
      "type": "function"
    },
    {
      "inputs": [],
      "name": "getWhitelistedAddresses",
      "outputs": [
        {
          "internalType": "address[]",
          "name": "",
          "type": "address[]"
        }
      ],
      "stateMutability": "view",
      "type": "function"
    },
    {
      "inputs": [
        {
          "internalType": "bytes32",
          "name": "role",
          "type": "bytes32"
        },
        {
          "internalType": "address",
          "name": "account",
          "type": "address"
        }
      ],
      "name": "grantRole",
      "outputs": [],
      "stateMutability": "nonpayable",
      "type": "function"
    },
    {
      "inputs": [],
      "name": "hasDistributed",
      "outputs": [
        {
          "internalType": "bool",
          "name": "",
          "type": "bool"
        }
      ],
      "stateMutability": "view",
      "type": "function"
    },
    {
      "inputs": [],
      "name": "hasFinalized",
      "outputs": [
        {
          "internalType": "bool",
          "name": "",
          "type": "bool"
        }
      ],
      "stateMutability": "view",
      "type": "function"
    },
    {
      "inputs": [],
      "name": "hasMinimumRaise",
      "outputs": [
        {
          "internalType": "bool",
          "name": "",
          "type": "bool"
        }
      ],
      "stateMutability": "view",
      "type": "function"
    },
    {
      "inputs": [
        {
          "internalType": "bytes32",
          "name": "role",
          "type": "bytes32"
        },
        {
          "internalType": "address",
          "name": "account",
          "type": "address"
        }
      ],
      "name": "hasRole",
      "outputs": [
        {
          "internalType": "bool",
          "name": "",
          "type": "bool"
        }
      ],
      "stateMutability": "view",
      "type": "function"
    },
    {
      "inputs": [],
      "name": "hasStarted",
      "outputs": [
        {
          "internalType": "bool",
          "name": "",
          "type": "bool"
        }
      ],
      "stateMutability": "view",
      "type": "function"
    },
    {
      "inputs": [],
      "name": "hasWhitelisting",
      "outputs": [
        {
          "internalType": "bool",
          "name": "",
          "type": "bool"
        }
      ],
      "stateMutability": "view",
      "type": "function"
    },
    {
      "inputs": [],
      "name": "individualMaximumAmount",
      "outputs": [
        {
          "internalType": "uint256",
          "name": "",
          "type": "uint256"
        }
      ],
      "stateMutability": "view",
      "type": "function"
    },
    {
      "inputs": [
        {
          "internalType": "address",
          "name": "_address",
          "type": "address"
        }
      ],
      "name": "isBlacklisted",
      "outputs": [
        {
          "internalType": "bool",
          "name": "",
          "type": "bool"
        }
      ],
      "stateMutability": "view",
      "type": "function"
    },
    {
      "inputs": [
        {
          "internalType": "uint256",
          "name": "purchaseId",
          "type": "uint256"
        }
      ],
      "name": "isBuyer",
      "outputs": [
        {
          "internalType": "bool",
          "name": "",
          "type": "bool"
        }
      ],
      "stateMutability": "view",
      "type": "function"
    },
    {
      "inputs": [],
      "name": "isETHTrade",
      "outputs": [
        {
          "internalType": "bool",
          "name": "",
          "type": "bool"
        }
      ],
      "stateMutability": "view",
      "type": "function"
    },
    {
      "inputs": [],
      "name": "isOpen",
      "outputs": [
        {
          "internalType": "bool",
          "name": "",
          "type": "bool"
        }
      ],
      "stateMutability": "view",
      "type": "function"
    },
    {
      "inputs": [],
      "name": "isPreStart",
      "outputs": [
        {
          "internalType": "bool",
          "name": "",
          "type": "bool"
        }
      ],
      "stateMutability": "view",
      "type": "function"
    },
    {
      "inputs": [
        {
          "internalType": "address",
          "name": "_userAccountAaddress",
          "type": "address"
        },
        {
          "internalType": "uint256",
          "name": "_accountMaximunAllocation",
          "type": "uint256"
        },
        {
          "internalType": "bytes",
          "name": "signature",
          "type": "bytes"
        }
      ],
      "name": "isSignerForAddressMaxAlloc",
      "outputs": [
        {
          "internalType": "bool",
          "name": "",
          "type": "bool"
        }
      ],
      "stateMutability": "view",
      "type": "function"
    },
    {
      "inputs": [
        {
          "internalType": "bytes32",
          "name": "hash",
          "type": "bytes32"
        },
        {
          "internalType": "bytes",
          "name": "signature",
          "type": "bytes"
        }
      ],
      "name": "isSignerFromBytes32",
      "outputs": [
        {
          "internalType": "bool",
          "name": "",
          "type": "bool"
        }
      ],
      "stateMutability": "view",
      "type": "function"
    },
    {
      "inputs": [
        {
          "internalType": "address",
          "name": "_address",
          "type": "address"
        }
      ],
      "name": "isWhitelisted",
      "outputs": [
        {
          "internalType": "bool",
          "name": "",
          "type": "bool"
        }
      ],
      "stateMutability": "view",
      "type": "function"
    },
    {
      "inputs": [
        {
          "internalType": "address",
          "name": "_userAccountAaddress",
          "type": "address"
        },
        {
          "internalType": "uint256",
          "name": "_accountMaximunAllocation",
          "type": "uint256"
        },
        {
          "internalType": "bytes",
          "name": "signature",
          "type": "bytes"
        }
      ],
      "name": "isWhitelistedWithSignatureMaxAlloc",
      "outputs": [
        {
          "internalType": "bool",
          "name": "",
          "type": "bool"
        }
      ],
      "stateMutability": "view",
      "type": "function"
    },
    {
      "inputs": [],
      "name": "maximumRaise",
      "outputs": [
        {
          "internalType": "uint256",
          "name": "",
          "type": "uint256"
        }
      ],
      "stateMutability": "view",
      "type": "function"
    },
    {
      "inputs": [],
      "name": "minimumRaise",
      "outputs": [
        {
          "internalType": "uint256",
          "name": "",
          "type": "uint256"
        }
      ],
      "stateMutability": "view",
      "type": "function"
    },
    {
      "inputs": [],
      "name": "minimumRaiseAchieved",
      "outputs": [
        {
          "internalType": "bool",
          "name": "",
          "type": "bool"
        }
      ],
      "stateMutability": "view",
      "type": "function"
    },
    {
      "inputs": [],
      "name": "minimumRaiseNotAchieved",
      "outputs": [
        {
          "internalType": "bool",
          "name": "",
          "type": "bool"
        }
      ],
      "stateMutability": "view",
      "type": "function"
    },
    {
      "inputs": [
        {
          "internalType": "address",
          "name": "",
          "type": "address"
        },
        {
          "internalType": "uint256",
          "name": "",
          "type": "uint256"
        }
      ],
      "name": "myPurchases",
      "outputs": [
        {
          "internalType": "uint256",
          "name": "",
          "type": "uint256"
        }
      ],
      "stateMutability": "view",
      "type": "function"
    },
    {
      "inputs": [],
      "name": "pause",
      "outputs": [],
      "stateMutability": "nonpayable",
      "type": "function"
    },
    {
      "inputs": [],
      "name": "paused",
      "outputs": [
        {
          "internalType": "bool",
          "name": "",
          "type": "bool"
        }
      ],
      "stateMutability": "view",
      "type": "function"
    },
    {
      "inputs": [
        {
          "internalType": "uint256",
          "name": "purchaseId",
          "type": "uint256"
        }
      ],
      "name": "purchaseExists",
      "outputs": [
        {
          "internalType": "bool",
          "name": "",
          "type": "bool"
        }
      ],
      "stateMutability": "view",
      "type": "function"
    },
    {
      "inputs": [
        {
          "internalType": "address",
          "name": "",
          "type": "address"
        },
        {
          "internalType": "uint256",
          "name": "",
          "type": "uint256"
        }
      ],
      "name": "purchasedCategoriesByUser",
      "outputs": [
        {
          "internalType": "uint256",
          "name": "",
          "type": "uint256"
        }
      ],
      "stateMutability": "view",
      "type": "function"
    },
    {
      "inputs": [
        {
          "internalType": "uint256",
          "name": "",
          "type": "uint256"
        }
      ],
      "name": "purchases",
      "outputs": [
        {
          "internalType": "address",
          "name": "purchaser",
          "type": "address"
        },
        {
          "internalType": "uint48",
          "name": "timestamp",
          "type": "uint48"
        },
        {
          "internalType": "bool",
          "name": "reverted",
          "type": "bool"
        },
        {
          "internalType": "uint256",
          "name": "categoryId",
          "type": "uint256"
        },
        {
          "internalType": "uint256",
          "name": "amountPurchased",
          "type": "uint256"
        },
        {
          "internalType": "uint256",
          "name": "amountContributed",
          "type": "uint256"
        }
      ],
      "stateMutability": "view",
      "type": "function"
    },
    {
      "inputs": [
        {
          "internalType": "bytes32",
          "name": "hash",
          "type": "bytes32"
        },
        {
          "internalType": "bytes",
          "name": "signature",
          "type": "bytes"
        }
      ],
      "name": "recoverSignerAddressFromBytes32",
      "outputs": [
        {
          "internalType": "address",
          "name": "",
          "type": "address"
        }
      ],
      "stateMutability": "pure",
      "type": "function"
    },
    {
      "inputs": [
        {
          "internalType": "uint256",
          "name": "purchaseId",
          "type": "uint256"
        }
      ],
      "name": "redeemGivenMinimumGoalNotAchieved",
      "outputs": [],
      "stateMutability": "nonpayable",
      "type": "function"
    },
    {
      "inputs": [
        {
          "internalType": "address",
          "name": "_address",
          "type": "address"
        }
      ],
      "name": "removeFromBlacklist",
      "outputs": [],
      "stateMutability": "nonpayable",
      "type": "function"
    },
    {
      "inputs": [
        {
          "internalType": "address",
          "name": "_address",
          "type": "address"
        }
      ],
      "name": "removeFromWhitelist",
      "outputs": [],
      "stateMutability": "nonpayable",
      "type": "function"
    },
    {
      "inputs": [
        {
          "internalType": "address",
          "name": "_tokenAddress",
          "type": "address"
        },
        {
          "internalType": "address",
          "name": "_to",
          "type": "address"
        }
      ],
      "name": "removeOtherERC20Tokens",
      "outputs": [],
      "stateMutability": "nonpayable",
      "type": "function"
    },
    {
      "inputs": [
        {
          "internalType": "bytes32",
          "name": "role",
          "type": "bytes32"
        },
        {
          "internalType": "address",
          "name": "account",
          "type": "address"
        }
      ],
      "name": "renounceRole",
      "outputs": [],
      "stateMutability": "nonpayable",
      "type": "function"
    },
    {
      "inputs": [
        {
          "internalType": "bytes32",
          "name": "role",
          "type": "bytes32"
        },
        {
          "internalType": "address",
          "name": "account",
          "type": "address"
        }
      ],
      "name": "revokeRole",
      "outputs": [],
      "stateMutability": "nonpayable",
      "type": "function"
    },
    {
      "inputs": [],
      "name": "safePullETH",
      "outputs": [],
      "stateMutability": "nonpayable",
      "type": "function"
    },
    {
      "inputs": [],
      "name": "safePullTradeToken",
      "outputs": [],
      "stateMutability": "nonpayable",
      "type": "function"
    },
    {
      "inputs": [
        {
          "internalType": "uint256[]",
          "name": "_categoryIds",
          "type": "uint256[]"
        },
        {
          "internalType": "uint256[]",
          "name": "_categoriesSupply",
          "type": "uint256[]"
        },
        {
          "internalType": "uint256[]",
          "name": "_categoriesPrice",
          "type": "uint256[]"
        }
      ],
      "name": "setCategories",
      "outputs": [],
      "stateMutability": "nonpayable",
      "type": "function"
    },
    {
      "inputs": [
        {
          "internalType": "uint256",
          "name": "_distributionDate",
          "type": "uint256"
        }
      ],
      "name": "setDistributionDate",
      "outputs": [],
      "stateMutability": "nonpayable",
      "type": "function"
    },
    {
      "inputs": [
        {
          "internalType": "uint256",
          "name": "_endDate",
          "type": "uint256"
        }
      ],
      "name": "setEndDate",
      "outputs": [],
      "stateMutability": "nonpayable",
      "type": "function"
    },
    {
      "inputs": [
        {
          "internalType": "bool",
          "name": "_hasWhitelisting",
          "type": "bool"
        }
      ],
      "name": "setHasWhitelisting",
      "outputs": [],
      "stateMutability": "nonpayable",
      "type": "function"
    },
    {
      "inputs": [
        {
          "internalType": "uint256",
          "name": "_individualMaximumAmount",
          "type": "uint256"
        }
      ],
      "name": "setIndividualMaximumAmount",
      "outputs": [],
      "stateMutability": "nonpayable",
      "type": "function"
    },
    {
      "inputs": [
        {
          "internalType": "address",
          "name": "_signerPublicAddress",
          "type": "address"
        }
      ],
      "name": "setSignerPublicAddress",
      "outputs": [],
      "stateMutability": "nonpayable",
      "type": "function"
    },
    {
      "inputs": [
        {
          "internalType": "uint256",
          "name": "_startDate",
          "type": "uint256"
        }
      ],
      "name": "setStartDate",
      "outputs": [],
      "stateMutability": "nonpayable",
      "type": "function"
    },
    {
      "inputs": [
        {
          "internalType": "address",
          "name": "_user",
          "type": "address"
        },
        {
          "internalType": "uint256",
          "name": "_categoryId",
          "type": "uint256"
        }
      ],
      "name": "setUserClaimedCategory",
      "outputs": [],
      "stateMutability": "nonpayable",
      "type": "function"
    },
    {
      "inputs": [],
      "name": "signerPublicAddress",
      "outputs": [
        {
          "internalType": "address",
          "name": "",
          "type": "address"
        }
      ],
      "stateMutability": "view",
      "type": "function"
    },
    {
      "inputs": [],
      "name": "startDate",
      "outputs": [
        {
          "internalType": "uint256",
          "name": "",
          "type": "uint256"
        }
      ],
      "stateMutability": "view",
      "type": "function"
    },
    {
      "inputs": [
        {
          "internalType": "uint256",
          "name": "_amount",
          "type": "uint256"
        },
        {
          "internalType": "uint256",
          "name": "_categoryId",
          "type": "uint256"
        },
        {
          "internalType": "uint256",
          "name": "_accountMaxAmount",
          "type": "uint256"
        },
        {
          "internalType": "bytes",
          "name": "_signature",
          "type": "bytes"
        }
      ],
      "name": "swapWithSig",
      "outputs": [],
      "stateMutability": "payable",
      "type": "function"
    },
    {
      "inputs": [],
      "name": "tokensAllocated",
      "outputs": [
        {
          "internalType": "uint256",
          "name": "",
          "type": "uint256"
        }
      ],
      "stateMutability": "view",
      "type": "function"
    },
    {
      "inputs": [
        {
          "internalType": "uint256",
          "name": "_categoryId",
          "type": "uint256"
        }
      ],
      "name": "tokensLeft",
      "outputs": [
        {
          "internalType": "uint256",
          "name": "",
          "type": "uint256"
        }
      ],
      "stateMutability": "view",
      "type": "function"
    },
    {
      "inputs": [],
      "name": "totalRaiseCost",
      "outputs": [
        {
          "internalType": "uint256",
          "name": "",
          "type": "uint256"
        }
      ],
      "stateMutability": "view",
      "type": "function"
    },
    {
      "inputs": [],
      "name": "unpause",
      "outputs": [],
      "stateMutability": "nonpayable",
      "type": "function"
    },
    {
      "inputs": [],
      "name": "withdrawFunds",
      "outputs": [],
      "stateMutability": "nonpayable",
      "type": "function"
    }
  ],
  "bytecode": "0x60806040526002805460ff60a01b191690553480156200001e57600080fd5b50604051620053ad380380620053ad83398181016040526101608110156200004557600080fd5b815160208301516040808501516060860151608087015160a088015160c089015160e08a01516101008b0180519751999b989a969995989497939692959194919392820192846401000000008211156200009e57600080fd5b908301906020820185811115620000b457600080fd5b8251866020820283011164010000000082111715620000d257600080fd5b82525081516020918201928201910280838360005b8381101562000101578181015183820152602001620000e7565b50505050905001604052602001805160405193929190846401000000008211156200012b57600080fd5b9083019060208201858111156200014157600080fd5b82518660208202830111640100000000821117156200015f57600080fd5b82525081516020918201928201910280838360005b838110156200018e57818101518382015260200162000174565b5050505090500160405260200180516040519392919084640100000000821115620001b857600080fd5b908301906020820185811115620001ce57600080fd5b8251866020820283011164010000000082111715620001ec57600080fd5b82525081516020918201928201910280838360005b838110156200021b57818101518382015260200162000201565b505050509190910160405250506000805460ff1916905550506002805460ff60a01b1916600160a01b8715150217905584620002787fb813b807c25079ba97f1770664c6a9e57c59afe74a6295f1ed01c10e3bb6baae3362000562565b506200028660003362000562565b8a4210620002db576040805162461bcd60e51b815260206004820152601960248201527f7374617274206461746520697320696e20746865207061737400000000000000604482015290519081900360640190fd5b606386111562000332576040805162461bcd60e51b815260206004820152601e60248201527f4665652050657263656e746167652068617320746f206265203c203130300000604482015290519081900360640190fd5b600a83511115620003755760405162461bcd60e51b81526004018080602001828103825260238152602001806200538a6023913960400191505060405180910390fd5b8151835114801562000388575080518351145b620003da576040805162461bcd60e51b815260206004820152601460248201527f43617465676f72696573206d6973736d61746368000000000000000000000000604482015290519081900360640190fd5b6000805b8451811015620004f357600060405180606001604052808784815181106200040257fe5b602002602001015181526020018684815181106200041c57fe5b602002602001015181526020018584815181106200043657fe5b6020026020010151815250905080601260008885815181106200045557fe5b60200260200101518152602001908152602001600020600082015181600001556020820151816001015560408201518160020155905050620004e7620004d2858481518110620004a157fe5b6020026020010151878581518110620004b657fe5b60200260200101516200057260201b62003bec1790919060201c565b84620005d960201b62003c451790919060201c565b925050600101620003de565b50600d889055620005048962000634565b60098c9055620005148b62000698565b600b8a90556001600160a01b038516156200054557600780546001600160a01b0319166001600160a01b0387161790555b600896909655505050600f92909255506200092b95505050505050565b6200056e8282620007f1565b5050565b6000826200058357506000620005d3565b828202828482816200059157fe5b0414620005d05760405162461bcd60e51b8152600401808060200182810382526021815260200180620053696021913960400191505060405180910390fd5b90505b92915050565b600082820183811015620005d0576040805162461bcd60e51b815260206004820152601b60248201527f536166654d6174683a206164646974696f6e206f766572666c6f770000000000604482015290519081900360640190fd5b620006416000336200086c565b62000693576040805162461bcd60e51b815260206004820152601960248201527f63616c6c657220686173206e6f742061646d696e20726f6c6500000000000000604482015290519081900360640190fd5b600c55565b620006a56000336200086c565b620006f7576040805162461bcd60e51b815260206004820152601960248201527f63616c6c657220686173206e6f742061646d696e20726f6c6500000000000000604482015290519081900360640190fd5b8042106200074c576040805162461bcd60e51b815260206004820181905260248201527f656e6420646174652068617320746f20626520696e2074686520667574757265604482015290519081900360640190fd5b8060095410620007a3576040805162461bcd60e51b815260206004820152601a60248201527f656e642064617465206265666f72652073746172742064617465000000000000604482015290519081900360640190fd5b6009544210620007ec576040805162461bcd60e51b815260206004820152600f60248201526e185b1c9958591e481cdd185c9d1959608a1b604482015290519081900360640190fd5b600a55565b60008281526001602090815260409091206200081891839062003c9f62000892821b17901c565b156200056e5762000828620008a9565b6001600160a01b0316816001600160a01b0316837f2f8788117e7eff1d82e926ec794901d17c78024a50270940304540a733656f0d60405160405180910390a45050565b60008281526001602090815260408220620005d091849062003cb4620008ad821b17901c565b6000620005d0836001600160a01b038416620008c4565b3390565b6000620005d0836001600160a01b03841662000913565b6000620008d2838362000913565b6200090a57508154600181810184556000848152602080822090930184905584548482528286019093526040902091909155620005d3565b506000620005d3565b60009081526001919091016020526040902054151590565b614a2e806200093b6000396000f3fe60806040526004361061045d5760003560e01c8063799bb2321161023f578063ba40a96a11610139578063e43252d7116100b6578063efbb34d51161007a578063efbb34d514611583578063f2aa821814611598578063f64bfaba146115c2578063fe575a87146115d7578063fecf415a1461160a5761045d565b8063e43252d714611435578063e4a8025214611468578063e8b882f414611520578063eb1edd6114611535578063ecfd27421461154a5761045d565b8063ca15c873116100fd578063ca15c8731461137e578063d547741f146113a8578063dc91b072146113e1578063e34c8dbf1461140b578063e4101de5146114205761045d565b8063ba40a96a146112c4578063bf135abe146112d9578063c24a0f8b146112ee578063c3ca324f14611303578063c6cdbe5e146113365761045d565b806391d14854116101c7578063a217fddf1161018b578063a217fddf14611182578063abadefff14611197578063b0b12ac31461124e578063b367940e1461127c578063b8691787146112915761045d565b806391d148541461105c57806396a32bc4146110955780639d90a46e146110aa578063a001ecdd14611158578063a1c09bf11461116d5761045d565b80638456cb591161020e5780638456cb5914610f945780638ab1d68114610fa95780638e75b13114610fdc5780639010d07c14610ff1578063917c854d146110215761045d565b8063799bb23214610e425780637ad0250c14610f1657806382d95df514610f405780638392fe3114610f6a5761045d565b80633bbab1791161035b5780635ac699bb116102d85780636eaaabd51161029c5780636eaaabd514610d1157806374fa05fb14610d3d578063751ef93d14610d52578063755e3e2814610e1857806376807e5f14610e2d5761045d565b80635ac699bb14610bbe5780635c975abb14610bf75780635e7446d714610c0c5780636690a65314610c365780636d02802714610cfc5761045d565b806344691f7e1161031f57806344691f7e14610b1357806347535d7b14610b28578063503240bd14610b3d57806353505bc914610b76578063537df3b614610b8b5761045d565b80633bbab17914610a215780633ec02e1414610a865780633f4ba83a14610ab65780634089aa9a14610acb57806344337ea114610ae05761045d565b8063248a9ca3116103e957806336568abe116103ad57806336568abe1461086d5780633742a9f7146108a65780633784f000146109145780633af32abf1461093e5780633b6577c8146109715761045d565b8063248a9ca3146107b65780632593ea17146107e05780632a92efd21461080a5780632ebb5c1e1461081f5780632f2ff15d146108345761045d565b80630cbe8156116104305780630cbe81561461057757806315b57866146105b05780631de18af7146105c55780632448cbc6146105ef57806324600fc3146107a15761045d565b8063044c0cc514610462578063076623451461048b57806308abd7ff146104a05780630b97bc8614610550575b600080fd5b34801561046e57600080fd5b50610477611634565b604080519115158252519081900360200190f35b34801561049757600080fd5b50610477611644565b3480156104ac57600080fd5b5061054e600480360360208110156104c357600080fd5b810190602081018135600160201b8111156104dd57600080fd5b8201836020820111156104ef57600080fd5b803590602001918460208302840111600160201b8311171561051057600080fd5b919080806020026020016040519081016040528093929190818152602001838360200280828437600092019190915250929550611654945050505050565b005b34801561055c57600080fd5b50610565611732565b60408051918252519081900360200190f35b34801561058357600080fd5b5061054e6004803603604081101561059a57600080fd5b506001600160a01b038135169060200135611738565b3480156105bc57600080fd5b5061047761189b565b3480156105d157600080fd5b5061054e600480360360208110156105e857600080fd5b50356118a3565b3480156105fb57600080fd5b5061054e6004803603606081101561061257600080fd5b810190602081018135600160201b81111561062c57600080fd5b82018360208201111561063e57600080fd5b803590602001918460208302840111600160201b8311171561065f57600080fd5b9190808060200260200160405190810160405280939291908181526020018383602002808284376000920191909152509295949360208101935035915050600160201b8111156106ae57600080fd5b8201836020820111156106c057600080fd5b803590602001918460208302840111600160201b831117156106e157600080fd5b9190808060200260200160405190810160405280939291908181526020018383602002808284376000920191909152509295949360208101935035915050600160201b81111561073057600080fd5b82018360208201111561074257600080fd5b803590602001918460208302840111600160201b8311171561076357600080fd5b919080806020026020016040519081016040528093929190818152602001838360200280828437600092019190915250929550611ae5945050505050565b3480156107ad57600080fd5b5061054e611d21565b3480156107c257600080fd5b50610565600480360360208110156107d957600080fd5b5035612052565b3480156107ec57600080fd5b506104776004803603602081101561080357600080fd5b5035612067565b34801561081657600080fd5b5061047761206e565b34801561082b57600080fd5b50610477612077565b34801561084057600080fd5b5061054e6004803603604081101561085757600080fd5b50803590602001356001600160a01b031661207f565b34801561087957600080fd5b5061054e6004803603604081101561089057600080fd5b50803590602001356001600160a01b03166120e7565b3480156108b257600080fd5b506108d0600480360360208110156108c957600080fd5b5035612148565b604080516001600160a01b03909716875265ffffffffffff9095166020870152921515858501526060850191909152608084015260a0830152519081900360c00190f35b34801561092057600080fd5b5061054e6004803603602081101561093757600080fd5b5035612246565b34801561094a57600080fd5b506104776004803603602081101561096157600080fd5b50356001600160a01b0316612387565b34801561097d57600080fd5b5061099b6004803603602081101561099457600080fd5b503561239a565b6040518084815260200183815260200180602001828103825283818151815260200191508051906020019080838360005b838110156109e45781810151838201526020016109cc565b50505050905090810190601f168015610a115780820380516001836020036101000a031916815260200191505b5094505050505060405180910390f35b348015610a2d57600080fd5b50610a36612586565b60408051602080825283518183015283519192839290830191858101910280838360005b83811015610a72578181015183820152602001610a5a565b505050509050019250505060405180910390f35b348015610a9257600080fd5b5061056560048036036040811015610aa957600080fd5b5080359060200135612597565b348015610ac257600080fd5b5061054e61261e565b348015610ad757600080fd5b50610477612670565b348015610aec57600080fd5b5061054e60048036036020811015610b0357600080fd5b50356001600160a01b0316612679565b348015610b1f57600080fd5b50610477612718565b348015610b3457600080fd5b50610477612721565b348015610b4957600080fd5b5061047760048036036040811015610b6057600080fd5b506001600160a01b038135169060200135612740565b348015610b8257600080fd5b5061056561276b565b348015610b9757600080fd5b5061054e60048036036020811015610bae57600080fd5b50356001600160a01b0316612771565b348015610bca57600080fd5b5061056560048036036040811015610be157600080fd5b506001600160a01b03813516906020013561280f565b348015610c0357600080fd5b50610477612840565b348015610c1857600080fd5b5061056560048036036020811015610c2f57600080fd5b5035612849565b348015610c4257600080fd5b5061047760048036036060811015610c5957600080fd5b6001600160a01b0382351691602081013591810190606081016040820135600160201b811115610c8857600080fd5b820183602082011115610c9a57600080fd5b803590602001918460018302840111600160201b83111715610cbb57600080fd5b91908080601f01602080910402602001604051908101604052809392919081815260200183838082843760009201919091525092955061286b945050505050565b348015610d0857600080fd5b50610a366128ae565b348015610d1d57600080fd5b5061054e60048036036020811015610d3457600080fd5b503515156128ba565b348015610d4957600080fd5b50610477612964565b348015610d5e57600080fd5b5061047760048036036060811015610d7557600080fd5b6001600160a01b0382351691602081013591810190606081016040820135600160201b811115610da457600080fd5b820183602082011115610db657600080fd5b803590602001918460018302840111600160201b83111715610dd757600080fd5b91908080601f01602080910402602001604051908101604052809392919081815260200183838082843760009201919091525092955061296e945050505050565b348015610e2457600080fd5b506105656129e3565b348015610e3957600080fd5b5061054e6129e9565b348015610e4e57600080fd5b50610efa60048036036040811015610e6557600080fd5b81359190810190604081016020820135600160201b811115610e8657600080fd5b820183602082011115610e9857600080fd5b803590602001918460018302840111600160201b83111715610eb957600080fd5b91908080601f016020809104026020016040519081016040528093929190818152602001838380828437600092019190915250929550612a83945050505050565b604080516001600160a01b039092168252519081900360200190f35b348015610f2257600080fd5b5061054e60048036036020811015610f3957600080fd5b5035612aee565b348015610f4c57600080fd5b5061054e60048036036020811015610f6357600080fd5b5035612c14565b348015610f7657600080fd5b506108d060048036036020811015610f8d57600080fd5b5035612d3f565b348015610fa057600080fd5b5061054e612d9d565b348015610fb557600080fd5b5061054e60048036036020811015610fcc57600080fd5b50356001600160a01b0316612def565b348015610fe857600080fd5b50610565612e8d565b348015610ffd57600080fd5b50610efa6004803603604081101561101457600080fd5b5080359060200135612e93565b34801561102d57600080fd5b5061054e6004803603604081101561104457600080fd5b506001600160a01b0381358116916020013516612eab565b34801561106857600080fd5b506104776004803603604081101561107f57600080fd5b50803590602001356001600160a01b031661303a565b3480156110a157600080fd5b5061054e613052565b3480156110b657600080fd5b5061054e600480360360208110156110cd57600080fd5b810190602081018135600160201b8111156110e757600080fd5b8201836020820111156110f957600080fd5b803590602001918460208302840111600160201b8311171561111a57600080fd5b919080806020026020016040519081016040528093929190818152602001838360200280828437600092019190915250929550613118945050505050565b34801561116457600080fd5b506105656131f5565b34801561117957600080fd5b506105656131fb565b34801561118e57600080fd5b50610565613201565b61054e600480360360808110156111ad57600080fd5b81359160208101359160408201359190810190608081016060820135600160201b8111156111da57600080fd5b8201836020820111156111ec57600080fd5b803590602001918460018302840111600160201b8311171561120d57600080fd5b91908080601f016020809104026020016040519081016040528093929190818152602001838380828437600092019190915250929550613206945050505050565b34801561125a57600080fd5b50611263613802565b6040805163ffffffff9092168252519081900360200190f35b34801561128857600080fd5b50610477613809565b34801561129d57600080fd5b5061054e600480360360208110156112b457600080fd5b50356001600160a01b0316613814565b3480156112d057600080fd5b50610efa61388d565b3480156112e557600080fd5b50610efa61389c565b3480156112fa57600080fd5b506105656138ab565b34801561130f57600080fd5b50610a366004803603602081101561132657600080fd5b50356001600160a01b03166138b1565b34801561134257600080fd5b506113606004803603602081101561135957600080fd5b503561391d565b60408051938452602084019290925282820152519081900360600190f35b34801561138a57600080fd5b50610565600480360360208110156113a157600080fd5b503561393e565b3480156113b457600080fd5b5061054e600480360360408110156113cb57600080fd5b50803590602001356001600160a01b0316613955565b3480156113ed57600080fd5b5061054e6004803603602081101561140457600080fd5b50356139ae565b34801561141757600080fd5b506105656139fd565b34801561142c57600080fd5b50610565613a03565b34801561144157600080fd5b5061054e6004803603602081101561145857600080fd5b50356001600160a01b0316613a09565b34801561147457600080fd5b506104776004803603604081101561148b57600080fd5b81359190810190604081016020820135600160201b8111156114ac57600080fd5b8201836020820111156114be57600080fd5b803590602001918460018302840111600160201b831117156114df57600080fd5b91908080601f016020809104026020016040519081016040528093929190818152602001838380828437600092019190915250929550613aa7945050505050565b34801561152c57600080fd5b50610565613ad1565b34801561154157600080fd5b50610efa613ae3565b34801561155657600080fd5b506105656004803603604081101561156d57600080fd5b506001600160a01b038135169060200135613afb565b34801561158f57600080fd5b50610565613b18565b3480156115a457600080fd5b50610efa600480360360208110156115bb57600080fd5b5035613b22565b3480156115ce57600080fd5b50610a36613b4c565b3480156115e357600080fd5b50610477600480360360208110156115fa57600080fd5b50356001600160a01b0316613bae565b34801561161657600080fd5b506104776004803603602081101561162d57600080fd5b5035613bbb565b6007546001600160a01b03161590565b600254600160a01b900460ff1681565b61166c6000805160206149608339815191523361303a565b6116ab576040805162461bcd60e51b815260206004820152601c60248201526000805160206148da833981519152604482015290519081900360640190fd5b6000805b82518110156116f3576116df8382815181106116c757fe5b60200260200101516003613c9f90919063ffffffff16565b156116eb576001909101905b6001016116af565b50801561172e576040805182815290517f448f3bd350ede14a294c062177c5280fe1eae125d16757da21f5f51d6e89daae9181900360200190a15b5050565b60095481565b61174360003361303a565b611782576040805162461bcd60e51b815260206004820152601960248201526000805160206149aa833981519152604482015290519081900360640190fd5b61178a612670565b6117d6576040805162461bcd60e51b81526020600482015260186024820152771cd85b19481a185cc81d1bc8189948199a5b985b1a5e995960421b604482015290519081900360640190fd5b6117de613809565b61182b576040805162461bcd60e51b81526020600482015260196024820152781b5a5b9a5b5d5b481c985a5cd9481b9bdd081c995858da1959603a1b604482015290519081900360640190fd5b600b54421161186b5760405162461bcd60e51b81526004018080602001828103825260238152602001806147e06023913960400191505060405180910390fd5b6001600160a01b03909116600090815260166020908152604080832093835292905220805460ff19166001179055565b600d54151590565b6118ab612670565b6118f7576040805162461bcd60e51b81526020600482015260186024820152771cd85b19481a185cc81d1bc8189948199a5b985b1a5e995960421b604482015290519081900360640190fd5b61190081613bbb565b611948576040805162461bcd60e51b815260206004820152601460248201527330b2323932b9b99034b9903737ba10313abcb2b960611b604482015290519081900360640190fd5b61195061189b565b6119a1576040805162461bcd60e51b815260206004820152601d60248201527f6e6f206d696e696d756d20726169736520686173206265656e20736574000000604482015290519081900360640190fd5b6119a9612964565b6119fa576040805162461bcd60e51b815260206004820152601e60248201527f6d696e696d756d20726169736520686173206265656e20726561636865640000604482015290519081900360640190fd5b600060108281548110611a0957fe5b906000526020600020906004020190506000816003015411611a72576040805162461bcd60e51b815260206004820152601760248201527f707572636861736520616d6f756e74206973207a65726f000000000000000000604482015290519081900360640190fd5b805460ff60d01b1916600160d01b178155611a8b611634565b15611ac6576003810154604051339180156108fc02916000818181858888f19350505050158015611ac0573d6000803e3d6000fd5b5061172e565b600381015460075461172e916001600160a01b03909116903390613cc9565b611af060003361303a565b611b2f576040805162461bcd60e51b815260206004820152601960248201526000805160206149aa833981519152604482015290519081900360640190fd5b611b37612077565b611b88576040805162461bcd60e51b815260206004820152601a60248201527f6e6f74206265666f72652073746172742074696d652f64617465000000000000604482015290519081900360640190fd5b600a83511115611bc95760405162461bcd60e51b815260040180806020018281038252602381526020018061493d6023913960400191505060405180910390fd5b81518351148015611bdb575080518351145b611c23576040805162461bcd60e51b8152602060048201526014602482015273086c2e8cacedee4d2cae640dad2e6e6dac2e8c6d60631b604482015290519081900360640190fd5b6000805b8451811015611d18576040518060600160405280868381518110611c4757fe5b60200260200101518152602001858381518110611c6057fe5b60200260200101518152602001848381518110611c7957fe5b602002602001015181525060126000878481518110611c9457fe5b60200260200101518152602001908152602001600020600082015181600001556020820151816001015560408201518160020155905050611d0e611d07848381518110611cdd57fe5b6020026020010151868481518110611cf157fe5b6020026020010151613bec90919063ffffffff16565b8390613c45565b9150600101611c27565b50600f55505050565b611d2c60003361303a565b611d6b576040805162461bcd60e51b815260206004820152601960248201526000805160206149aa833981519152604482015290519081900360640190fd5b611d73612840565b15611db8576040805162461bcd60e51b815260206004820152601060248201526f14185d5cd8589b194e881c185d5cd95960821b604482015290519081900360640190fd5b611dc0612670565b611e0c576040805162461bcd60e51b81526020600482015260186024820152771cd85b19481a185cc81d1bc8189948199a5b985b1a5e995960421b604482015290519081900360640190fd5b611e14613809565b611e61576040805162461bcd60e51b81526020600482015260196024820152781b5a5b9a5b5d5b481c985a5cd9481b9bdd081c995858da1959603a1b604482015290519081900360640190fd5b611e69611634565b15611f0a5773aeb39b67f27b641ef9f95fb74f1a46b1ee4efc836001600160a01b03166108fc611eaf6064611ea960085447613bec90919063ffffffff16565b90613d20565b6040518115909202916000818181858888f19350505050158015611ed7573d6000803e3d6000fd5b5060405133904780156108fc02916000818181858888f19350505050158015611f04573d6000803e3d6000fd5b50612050565b600854600754604080516370a0823160e01b81523060048201529051611fc09373aeb39b67f27b641ef9f95fb74f1a46b1ee4efc8393611fad93606493611ea993926001600160a01b0316916370a08231916024808301926020929190829003018186803b158015611f7b57600080fd5b505afa158015611f8f573d6000803e3d6000fd5b505050506040513d6020811015611fa557600080fd5b505190613bec565b6007546001600160a01b03169190613cc9565b600754604080516370a0823160e01b815230600482015290516120509233926001600160a01b03909116916370a0823191602480820192602092909190829003018186803b15801561201157600080fd5b505afa158015612025573d6000803e3d6000fd5b505050506040513d602081101561203b57600080fd5b50516007546001600160a01b03169190613cc9565b565b60009081526001602052604090206002015490565b6010541190565b600b5442101590565b600954421090565b6000828152600160205260409020600201546120a29061209d613d87565b61303a565b6120dd5760405162461bcd60e51b815260040180806020018281038252602f81526020018061478f602f913960400191505060405180910390fd5b61172e8282613d8b565b6120ef613d87565b6001600160a01b0316816001600160a01b03161461213e5760405162461bcd60e51b815260040180806020018281038252602f8152602001806149ca602f913960400191505060405180910390fd5b61172e8282613df4565b60008060008060008061215a87612067565b6121a7576040805162461bcd60e51b81526020600482015260196024820152781c1d5c98da185cd9525908191bd95cc81b9bdd08195e1a5cdd603a1b604482015290519081900360640190fd5b6000601088815481106121b657fe5b60009182526020918290206040805160c08101825260049390930290910180546001600160a01b038116808552600160a01b820465ffffffffffff16958501869052600160d01b90910460ff16151592840183905260018201546060850181905260028301546080860181905260039093015460a0909501859052909d949c50919a509098509650945092505050565b61225160003361303a565b612290576040805162461bcd60e51b815260206004820152601960248201526000805160206149aa833981519152604482015290519081900360640190fd5b8042106122e4576040805162461bcd60e51b815260206004820181905260248201527f656e6420646174652068617320746f20626520696e2074686520667574757265604482015290519081900360640190fd5b806009541061233a576040805162461bcd60e51b815260206004820152601a60248201527f656e642064617465206265666f72652073746172742064617465000000000000604482015290519081900360640190fd5b6009544210612382576040805162461bcd60e51b815260206004820152600f60248201526e185b1c9958591e481cdd185c9d1959608a1b604482015290519081900360640190fd5b600a55565b6000612394600383613cb4565b92915050565b60008060606123a884612067565b6123e95750506040805180820190915260198152781c1d5c98da185cd9525908191bd95cc81b9bdd08195e1a5cdd603a1b602082015260009150819061257f565b6123f1612670565b61243657505060408051808201909152601881527f746f6b656e2073616c65206e6f742066696e616c697a65640000000000000000602082015260009150819061257f565b61243e612840565b1561248457505060408051808201909152601d81527f746f6b656e2073616c6520636f6e747261637420697320706175736564000000602082015260009150819061257f565b61248c612964565b156124ce5750506040805180820190915260198152781b5a5b9a5b5d5b481c985a5cd9481b9bdd081c995858da1959603a1b602082015260009150819061257f565b6000601085815481106124dd57fe5b906000526020600020906004020160020154905060006010868154811061250057fe5b9060005260206000209060040201600101549050600082111561254f5760408051808201909152600f81526e726561647920746f2072656465656d60881b60208201529194509250905061257f565b6040805180820190915260118152706e6f7468696e6720746f2072656465656d60781b6020820152919450925090505b9193909250565b60606125926005613e5d565b905090565b6000818152601260205260408120600101546125fa576040805162461bcd60e51b815260206004820152601760248201527f43617465676f727920646f6573206e6f74206578697374000000000000000000604482015290519081900360640190fd5b6000828152601260205260409020600201546126168185613bec565b949350505050565b61262960003361303a565b612668576040805162461bcd60e51b815260206004820152601960248201526000805160206149aa833981519152604482015290519081900360640190fd5b612050613efd565b600a5442101590565b6126916000805160206149608339815191523361303a565b6126d0576040805162461bcd60e51b815260206004820152601c60248201526000805160206148da833981519152604482015290519081900360640190fd5b6126db600582613c9f565b15612715576040516001600160a01b038216907ff9b68063b051b82957fa193585681240904fed808db8b30fc5a2d2202c6ed62790600090a25b50565b60095442101590565b600061272b612718565b8015612592575061273a612670565b15905090565b6001600160a01b03919091166000908152601660209081526040808320938352929052205460ff1690565b600f5481565b6127896000805160206149608339815191523361303a565b6127c8576040805162461bcd60e51b815260206004820152601c60248201526000805160206148da833981519152604482015290519081900360640190fd5b6127d3600582613f9d565b15612715576040516001600160a01b038216907f2b6bf71b58b3583add364b3d9060ebf8019650f65f5be35f5464b9cb3e4ba2d490600090a250565b6013602052816000526040600020818154811061282b57600080fd5b90600052602060002001600091509150505481565b60005460ff1690565b6000908152601560209081526040808320546012909252909120600101540390565b600061287684613bae565b15612883575060006128a7565b61288c84612387565b15612899575060016128a7565b6128a484848461296e565b90505b9392505050565b60606125926003613e5d565b6128d26000805160206149608339815191523361303a565b612911576040805162461bcd60e51b815260206004820152601c60248201526000805160206148da833981519152604482015290519081900360640190fd5b60028054821515600160a01b810260ff60a01b199092169190911790915560408051918252517fe905f7f52156c346547b9deb6fb3e2459db941ec55d073fd465129bf4b49fae69181900360200190a150565b600d54600e541090565b60408051606085811b6bffffffffffffffffffffffff1916602080840191909152603483018690523090911b60548301528251808303604801815260689092019092528051910120600254600091906001600160a01b03166129d08285612a83565b6001600160a01b03161495945050505050565b600e5481565b6129f460003361303a565b612a33576040805162461bcd60e51b815260206004820152601960248201526000805160206149aa833981519152604482015290519081900360640190fd5b612a3b612840565b611fc0576040805162461bcd60e51b815260206004820152601460248201527314185d5cd8589b194e881b9bdd081c185d5cd95960621b604482015290519081900360640190fd5b60008151604114612adb576040805162461bcd60e51b815260206004820152601960248201527f7369676e6174757265206973206e6f7420363520627974657300000000000000604482015290519081900360640190fd5b6128a782612ae885613fb2565b90614003565b612af960003361303a565b612b38576040805162461bcd60e51b815260206004820152601960248201526000805160206149aa833981519152604482015290519081900360640190fd5b612b40612077565b612b91576040805162461bcd60e51b815260206004820152601a60248201527f6e6f74206265666f72652073746172742074696d652f64617465000000000000604482015290519081900360640190fd5b804210612bcf5760405162461bcd60e51b81526004018080602001828103825260298152602001806148816029913960400191505060405180910390fd5b600a548111612c0f5760405162461bcd60e51b815260040180806020018281038252602a815260200180614835602a913960400191505060405180910390fd5b600b55565b612c1f60003361303a565b612c5e576040805162461bcd60e51b815260206004820152601960248201526000805160206149aa833981519152604482015290519081900360640190fd5b804210612c9c5760405162461bcd60e51b81526004018080602001828103825260228152602001806147be6022913960400191505060405180910390fd5b600a548110612cf2576040805162461bcd60e51b815260206004820152601a60248201527f656e642064617465206265666f72652073746172742064617465000000000000604482015290519081900360640190fd5b6009544210612d3a576040805162461bcd60e51b815260206004820152600f60248201526e185b1c9958591e481cdd185c9d1959608a1b604482015290519081900360640190fd5b600955565b60108181548110612d4f57600080fd5b600091825260209091206004909102018054600182015460028301546003909301546001600160a01b0383169450600160a01b830465ffffffffffff1693600160d01b90930460ff16929086565b612da860003361303a565b612de7576040805162461bcd60e51b815260206004820152601960248201526000805160206149aa833981519152604482015290519081900360640190fd5b612050614083565b612e076000805160206149608339815191523361303a565b612e46576040805162461bcd60e51b815260206004820152601c60248201526000805160206148da833981519152604482015290519081900360640190fd5b612e51600382613f9d565b15612715576040516001600160a01b038216907fcdd2e9b91a56913d370075169cefa1602ba36be5301664f752192bb1709df75790600090a250565b600d5481565b60008281526001602052604081206128a79083614106565b612eb660003361303a565b612ef5576040805162461bcd60e51b815260206004820152601960248201526000805160206149aa833981519152604482015290519081900360640190fd5b612efd612670565b612f49576040805162461bcd60e51b81526020600482015260186024820152771cd85b19481a185cc81d1bc8189948199a5b985b1a5e995960421b604482015290519081900360640190fd5b6007546001600160a01b0383811691161415612fac576040805162461bcd60e51b815260206004820152601b60248201527f746f6b656e206973207468652074726164652d696e20746f6b656e0000000000604482015290519081900360640190fd5b61172e81836001600160a01b03166370a08231306040518263ffffffff1660e01b815260040180826001600160a01b0316815260200191505060206040518083038186803b158015612ffd57600080fd5b505afa158015613011573d6000803e3d6000fd5b505050506040513d602081101561302757600080fd5b50516001600160a01b0385169190613cc9565b60008281526001602052604081206128a79083613cb4565b61305d60003361303a565b61309c576040805162461bcd60e51b815260206004820152601960248201526000805160206149aa833981519152604482015290519081900360640190fd5b6130a4612840565b6130ec576040805162461bcd60e51b815260206004820152601460248201527314185d5cd8589b194e881b9bdd081c185d5cd95960621b604482015290519081900360640190fd5b60405133904780156108fc02916000818181858888f19350505050158015612715573d6000803e3d6000fd5b6131306000805160206149608339815191523361303a565b61316f576040805162461bcd60e51b815260206004820152601c60248201526000805160206148da833981519152604482015290519081900360640190fd5b6000805b82518110156131b7576131a383828151811061318b57fe5b60200260200101516005613c9f90919063ffffffff16565b156131af576001909101905b600101613173565b50801561172e576040805182815290517fc2f03ca34d335e49d4d629b85db054d1ffb679b4fec2e06fe10d0e618b175ecb9181900360200190a15050565b60085481565b60105490565b600081565b61320e612840565b15613253576040805162461bcd60e51b815260206004820152601060248201526f14185d5cd8589b194e881c185d5cd95960821b604482015290519081900360640190fd5b61325b612721565b6132a2576040805162461bcd60e51b815260206004820152601360248201527239b0b632903430b9903a379031329037b832b760691b604482015290519081900360640190fd5b60025482908290600160a01b900460ff161561336d576002546001600160a01b0316613327576132d133612387565b613322576040805162461bcd60e51b815260206004820152601960248201527f6e6f74206f6e206f6e2d636861696e2077686974656c69737400000000000000604482015290519081900360640190fd5b61336d565b61333233838361286b565b61336d5760405162461bcd60e51b81526004018080602001828103825260328152602001806148036032913960400191505060405180910390fd5b60006133798787612597565b9050613383611634565b156133d5578034146133d0576040805162461bcd60e51b8152602060048201526011602482015270496e76616c6964204554482076616c756560781b604482015290519081900360640190fd5b6133ed565b6007546133ed906001600160a01b0316333084614112565b6133f686612849565b87111561344a576040805162461bcd60e51b815260206004820152601960248201527f616d6f756e74203e20746f6b656e7320617661696c61626c6500000000000000604482015290519081900360640190fd5b336000908152601360209081526040808320805482518185028101850190935280835291929091908301828280156134a157602002820191906000526020600020905b81548152602001906001019080831161348d575b505050505090506000805b8251811015613503576134f960108483815181106134c657fe5b6020026020010151815481106134d857fe5b90600052602060002090600402016003015483613c4590919063ffffffff16565b91506001016134ac565b5086156135105786613514565b600c545b61351e8285613c45565b1115613571576040805162461bcd60e51b815260206004820152601f60248201527f616d6f756e7420676f6573206f76657220696e646976696475616c206d617800604482015290519081900360640190fd5b60106040518060c00160405280336001600160a01b0316815260200161359642614172565b65ffffffffffff1681526020016000151581526020018a81526020018b815260200185815250908060018154018082558091505060019003906000526020600020906004020160009091909190915060008201518160000160006101000a8154816001600160a01b0302191690836001600160a01b0316021790555060208201518160000160146101000a81548165ffffffffffff021916908365ffffffffffff160217905550604082015181600001601a6101000a81548160ff021916908315150217905550606082015181600101556080820151816002015560a08201518160030155505060136000336001600160a01b03166001600160a01b03168152602001908152602001600020600160108054905003908060018154018082558091505060019003906000526020600020016000909190919091505561371a8960146000336001600160a01b03166001600160a01b0316815260200190815260200160002060008b815260200190815260200160002054613c4590919063ffffffff16565b3360008181526014602090815260408083208d84529091528120929092556011805460018101825592527f31ecc21a745e3968a04e9570e4425bc18fa8019c68028196b546d1669c200c6890910180546001600160a01b0319169091179055600e546137869084613c45565b600e556000888152601560205260409020546137a2908a613c45565b6000898152601560209081526040918290209290925580518b815291820185905242828201525133918a917f3bd2ec39d671793c1c2b079177f138b819f053d317a62217f8f47f45b5e57d9e9181900360600190a3505050505050505050565b622f4d6090565b600d54600e54101590565b61382c6000805160206149608339815191523361303a565b61386b576040805162461bcd60e51b815260206004820152601c60248201526000805160206148da833981519152604482015290519081900360640190fd5b600280546001600160a01b0319166001600160a01b0392909216919091179055565b6002546001600160a01b031681565b6007546001600160a01b031681565b600a5481565b6001600160a01b03811660009081526013602090815260409182902080548351818402810184019094528084526060939283018282801561391157602002820191906000526020600020905b8154815260200190600101908083116138fd575b50505050509050919050565b60126020526000908152604090208054600182015460029092015490919083565b6000818152600160205260408120612394906141d3565b6000828152600160205260409020600201546139739061209d613d87565b61213e5760405162461bcd60e51b81526004018080602001828103825260308152602001806148aa6030913960400191505060405180910390fd5b6139b960003361303a565b6139f8576040805162461bcd60e51b815260206004820152601960248201526000805160206149aa833981519152604482015290519081900360640190fd5b600c55565b600b5481565b600c5481565b613a216000805160206149608339815191523361303a565b613a60576040805162461bcd60e51b815260206004820152601c60248201526000805160206148da833981519152604482015290519081900360640190fd5b613a6b600382613c9f565b15612715576040516001600160a01b038216907fa850ae9193f515cbae8d35e8925bd2be26627fc91bce650b8652ed254e9cab0390600090a250565b6002546000906001600160a01b0316613ac08484612a83565b6001600160a01b0316149392505050565b60008051602061496083398151915281565b73aeb39b67f27b641ef9f95fb74f1a46b1ee4efc8381565b601460209081526000928352604080842090915290825290205481565b600e54600f540390565b60118181548110613b3257600080fd5b6000918252602090912001546001600160a01b0316905081565b60606011805480602002602001604051908101604052809291908181526020018280548015613ba457602002820191906000526020600020905b81546001600160a01b03168152600190910190602001808311613b86575b5050505050905090565b6000612394600583613cb4565b600060108281548110613bca57fe5b60009182526020909120600490910201546001600160a01b0316331492915050565b600082613bfb57506000612394565b82820282848281613c0857fe5b04146128a75760405162461bcd60e51b815260040180806020018281038252602181526020018061491c6021913960400191505060405180910390fd5b6000828201838110156128a7576040805162461bcd60e51b815260206004820152601b60248201527f536166654d6174683a206164646974696f6e206f766572666c6f770000000000604482015290519081900360640190fd5b60006128a7836001600160a01b0384166141de565b60006128a7836001600160a01b038416614228565b604080516001600160a01b038416602482015260448082018490528251808303909101815260649091019091526020810180516001600160e01b031663a9059cbb60e01b179052613d1b908490614240565b505050565b6000808211613d76576040805162461bcd60e51b815260206004820152601a60248201527f536166654d6174683a206469766973696f6e206279207a65726f000000000000604482015290519081900360640190fd5b818381613d7f57fe5b049392505050565b3390565b6000828152600160205260409020613da39082613c9f565b1561172e57613db0613d87565b6001600160a01b0316816001600160a01b0316837f2f8788117e7eff1d82e926ec794901d17c78024a50270940304540a733656f0d60405160405180910390a45050565b6000828152600160205260409020613e0c9082613f9d565b1561172e57613e19613d87565b6001600160a01b0316816001600160a01b0316837ff6391f5c32d9c69d2a47ea670b442974b53935d1edc7fd64eb21e047a839171b60405160405180910390a45050565b60606000613e6a836141d3565b67ffffffffffffffff81118015613e8057600080fd5b50604051908082528060200260200182016040528015613eaa578160200160208202803683370190505b50905060005b613eb9846141d3565b811015613ef657613eca8482614106565b828281518110613ed657fe5b6001600160a01b0390921660209283029190910190910152600101613eb0565b5092915050565b613f05612840565b613f4d576040805162461bcd60e51b815260206004820152601460248201527314185d5cd8589b194e881b9bdd081c185d5cd95960621b604482015290519081900360640190fd5b6000805460ff191690557f5db9ee0a495bf2e6ff9c91a7834c1ba4fdd244a5e8aa4e537bd38aeae4b073aa613f80613d87565b604080516001600160a01b039092168252519081900360200190a1565b60006128a7836001600160a01b0384166142f1565b604080517f19457468657265756d205369676e6564204d6573736167653a0a333200000000602080830191909152603c8083019490945282518083039094018452605c909101909152815191012090565b6000815160411461405b576040805162461bcd60e51b815260206004820152601f60248201527f45434453413a20696e76616c6964207369676e6174757265206c656e67746800604482015290519081900360640190fd5b60208201516040830151606084015160001a614079868285856143b7565b9695505050505050565b61408b612840565b156140d0576040805162461bcd60e51b815260206004820152601060248201526f14185d5cd8589b194e881c185d5cd95960821b604482015290519081900360640190fd5b6000805460ff191660011790557f62e78cea01bee320cd4e420270b5ea74000d11b0c9f74754ebdbfc544b05a258613f80613d87565b60006128a78383614535565b604080516001600160a01b0380861660248301528416604482015260648082018490528251808303909101815260849091019091526020810180516001600160e01b03166323b872dd60e01b17905261416c908590614240565b50505050565b6000660100000000000082106141cf576040805162461bcd60e51b815260206004820152601c60248201527f76616c756520646f65736e27742066697420696e203438206269747300000000604482015290519081900360640190fd5b5090565b600061239482614599565b60006141ea8383614228565b61422057508154600181810184556000848152602080822090930184905584548482528286019093526040902091909155612394565b506000612394565b60009081526001919091016020526040902054151590565b6000614295826040518060400160405280602081526020017f5361666545524332303a206c6f772d6c6576656c2063616c6c206661696c6564815250856001600160a01b031661459d9092919063ffffffff16565b805190915015613d1b578080602001905160208110156142b457600080fd5b5051613d1b5760405162461bcd60e51b815260040180806020018281038252602a815260200180614980602a913960400191505060405180910390fd5b600081815260018301602052604081205480156143ad578354600019808301919081019060009087908390811061432457fe5b906000526020600020015490508087600001848154811061434157fe5b60009182526020808320909101929092558281526001898101909252604090209084019055865487908061437157fe5b60019003818190600052602060002001600090559055866001016000878152602001908152602001600020600090556001945050505050612394565b6000915050612394565b60007f7fffffffffffffffffffffffffffffff5d576e7357a4501ddfe92f46681b20a08211156144185760405162461bcd60e51b815260040180806020018281038252602281526020018061485f6022913960400191505060405180910390fd5b8360ff16601b148061442d57508360ff16601c145b6144685760405162461bcd60e51b81526004018080602001828103825260228152602001806148fa6022913960400191505060405180910390fd5b600060018686868660405160008152602001604052604051808581526020018460ff1681526020018381526020018281526020019450505050506020604051602081039080840390855afa1580156144c4573d6000803e3d6000fd5b5050604051601f1901519150506001600160a01b03811661452c576040805162461bcd60e51b815260206004820152601860248201527f45434453413a20696e76616c6964207369676e61747572650000000000000000604482015290519081900360640190fd5b95945050505050565b815460009082106145775760405162461bcd60e51b815260040180806020018281038252602281526020018061476d6022913960400191505060405180910390fd5b82600001828154811061458657fe5b9060005260206000200154905092915050565b5490565b60606128a48484600085856145b1856146c2565b614602576040805162461bcd60e51b815260206004820152601d60248201527f416464726573733a2063616c6c20746f206e6f6e2d636f6e7472616374000000604482015290519081900360640190fd5b600080866001600160a01b031685876040518082805190602001908083835b602083106146405780518252601f199092019160209182019101614621565b6001836020036101000a03801982511681845116808217855250505050505090500191505060006040518083038185875af1925050503d80600081146146a2576040519150601f19603f3d011682016040523d82523d6000602084013e6146a7565b606091505b50915091506146b78282866146c8565b979650505050505050565b3b151590565b606083156146d75750816128a7565b8251156146e75782518084602001fd5b8160405162461bcd60e51b81526004018080602001828103825283818151815260200191508051906020019080838360005b83811015614731578181015183820152602001614719565b50505050905090810190601f16801561475e5780820380516001836020036101000a031916815260200191505b509250505060405180910390fdfe456e756d657261626c655365743a20696e646578206f7574206f6620626f756e6473416363657373436f6e74726f6c3a2073656e646572206d75737420626520616e2061646d696e20746f206772616e74737461727420646174652068617320746f20626520696e2074686520667574757265646973747269627574696f6e2064617465206d757374206265207375727061737365646e6f74206f6e206f66662d636861696e2077686974656c697374206f722077726f6e67206d617820616c6c6f636174696f6e646973747269627574696f6e20646174652068617320746f20626520616674657220656e64206461746545434453413a20696e76616c6964207369676e6174757265202773272076616c7565646973747269627574696f6e20646174652068617320746f20626520696e2074686520667574757265416363657373436f6e74726f6c3a2073656e646572206d75737420626520616e2061646d696e20746f207265766f6b6563616c6c6572206973206e6f742057686974656c6973744f776e65720000000045434453413a20696e76616c6964207369676e6174757265202776272076616c7565536166654d6174683a206d756c7469706c69636174696f6e206f766572666c6f7743616e6e6f742068617665206d6f7265207468616e2031302063617465676f72696573b813b807c25079ba97f1770664c6a9e57c59afe74a6295f1ed01c10e3bb6baae5361666545524332303a204552433230206f7065726174696f6e20646964206e6f74207375636365656463616c6c657220686173206e6f742061646d696e20726f6c6500000000000000416363657373436f6e74726f6c3a2063616e206f6e6c792072656e6f756e636520726f6c657320666f722073656c66a264697066735822122027dc791892fb674777e8d9c6088daceffd2869f29c58b644e74bb5aa3f16ac1564736f6c63430007060033536166654d6174683a206d756c7469706c69636174696f6e206f766572666c6f7743616e6e6f742068617665206d6f7265207468616e2031302063617465676f72696573",
  "linkReferences": {},
  "deployedLinkReferences": {}
}