{
  "_format": "hh-sol-artifact-1",
  "contractName": "FixedSwap",
  "sourceName": "contracts/FixedSwap.sol",
  "abi": [
    {
      "inputs": [
        {
          "internalType": "address",
          "name": "_tokenAddress",
          "type": "address"
        },
        {
          "internalType": "uint256",
          "name": "_tradeValue",
          "type": "uint256"
        },
        {
          "internalType": "uint256",
          "name": "_tokensForSale",
          "type": "uint256"
        },
        {
          "internalType": "uint256",
          "name": "_startDate",
          "type": "uint256"
        },
        {
          "internalType": "uint256",
          "name": "_endDate",
          "type": "uint256"
        },
        {
          "internalType": "uint256",
          "name": "_individualMinimumAmount",
          "type": "uint256"
        },
        {
          "internalType": "uint256",
          "name": "_individualMaximumAmount",
          "type": "uint256"
        },
        {
          "internalType": "bool",
          "name": "_ignored",
          "type": "bool"
        },
        {
          "internalType": "uint256",
          "name": "_minimumRaise",
          "type": "uint256"
        },
        {
          "internalType": "uint256",
          "name": "_feePercentage",
          "type": "uint256"
        },
        {
          "internalType": "uint32",
          "name": "_flags",
          "type": "uint32"
        },
        {
          "internalType": "address",
          "name": "_erc20TradeAddress",
          "type": "address"
        },
        {
          "internalType": "uint256",
          "name": "_vestingStart",
          "type": "uint256"
        },
        {
          "internalType": "uint256",
          "name": "_vestingCliff",
          "type": "uint256"
        },
        {
          "internalType": "uint256",
          "name": "_vestingDuration",
          "type": "uint256"
        },
        {
          "internalType": "uint256[]",
          "name": "_vestingSchedule",
          "type": "uint256[]"
        }
      ],
      "stateMutability": "nonpayable",
      "type": "constructor"
    },
    {
      "anonymous": false,
      "inputs": [
        {
          "indexed": false,
          "internalType": "uint256",
          "name": "count",
          "type": "uint256"
        }
      ],
      "name": "AddedArrayToBlacklist",
      "type": "event"
    },
    {
      "anonymous": false,
      "inputs": [
        {
          "indexed": false,
          "internalType": "uint256",
          "name": "count",
          "type": "uint256"
        }
      ],
      "name": "AddedArrayToWhitelist",
      "type": "event"
    },
    {
      "anonymous": false,
      "inputs": [
        {
          "indexed": true,
          "internalType": "address",
          "name": "account",
          "type": "address"
        }
      ],
      "name": "AddedToBlacklist",
      "type": "event"
    },
    {
      "anonymous": false,
      "inputs": [
        {
          "indexed": true,
          "internalType": "address",
          "name": "account",
          "type": "address"
        }
      ],
      "name": "AddedToWhitelist",
      "type": "event"
    },
    {
      "anonymous": false,
      "inputs": [
        {
          "indexed": false,
          "internalType": "address",
          "name": "account",
          "type": "address"
        }
      ],
      "name": "Paused",
      "type": "event"
    },
    {
      "anonymous": false,
      "inputs": [
        {
          "indexed": false,
          "internalType": "uint256",
          "name": "amount",
          "type": "uint256"
        },
        {
          "indexed": true,
          "internalType": "address",
          "name": "purchaser",
          "type": "address"
        },
        {
          "indexed": false,
          "internalType": "uint256",
          "name": "timestamp",
          "type": "uint256"
        }
      ],
      "name": "PurchaseEvent",
      "type": "event"
    },
    {
      "anonymous": false,
      "inputs": [
        {
          "indexed": true,
          "internalType": "address",
          "name": "account",
          "type": "address"
        }
      ],
      "name": "RemovedFromBlacklist",
      "type": "event"
    },
    {
      "anonymous": false,
      "inputs": [
        {
          "indexed": true,
          "internalType": "address",
          "name": "account",
          "type": "address"
        }
      ],
      "name": "RemovedFromWhitelist",
      "type": "event"
    },
    {
      "anonymous": false,
      "inputs": [
        {
          "indexed": true,
          "internalType": "bytes32",
          "name": "role",
          "type": "bytes32"
        },
        {
          "indexed": true,
          "internalType": "bytes32",
          "name": "previousAdminRole",
          "type": "bytes32"
        },
        {
          "indexed": true,
          "internalType": "bytes32",
          "name": "newAdminRole",
          "type": "bytes32"
        }
      ],
      "name": "RoleAdminChanged",
      "type": "event"
    },
    {
      "anonymous": false,
      "inputs": [
        {
          "indexed": true,
          "internalType": "bytes32",
          "name": "role",
          "type": "bytes32"
        },
        {
          "indexed": true,
          "internalType": "address",
          "name": "account",
          "type": "address"
        },
        {
          "indexed": true,
          "internalType": "address",
          "name": "sender",
          "type": "address"
        }
      ],
      "name": "RoleGranted",
      "type": "event"
    },
    {
      "anonymous": false,
      "inputs": [
        {
          "indexed": true,
          "internalType": "bytes32",
          "name": "role",
          "type": "bytes32"
        },
        {
          "indexed": true,
          "internalType": "address",
          "name": "account",
          "type": "address"
        },
        {
          "indexed": true,
          "internalType": "address",
          "name": "sender",
          "type": "address"
        }
      ],
      "name": "RoleRevoked",
      "type": "event"
    },
    {
      "anonymous": false,
      "inputs": [
        {
          "indexed": false,
          "internalType": "bool",
          "name": "hasWhitelisting",
          "type": "bool"
        }
      ],
      "name": "SetHasWhitelisting",
      "type": "event"
    },
    {
      "anonymous": false,
      "inputs": [
        {
          "indexed": false,
          "internalType": "address",
          "name": "account",
          "type": "address"
        }
      ],
      "name": "Unpaused",
      "type": "event"
    },
    {
      "inputs": [],
      "name": "DECIMALS_PERCENT_MUL",
      "outputs": [
        {
          "internalType": "uint256",
          "name": "",
          "type": "uint256"
        }
      ],
      "stateMutability": "view",
      "type": "function"
    },
    {
      "inputs": [],
      "name": "DEFAULT_ADMIN_ROLE",
      "outputs": [
        {
          "internalType": "bytes32",
          "name": "",
          "type": "bytes32"
        }
      ],
      "stateMutability": "view",
      "type": "function"
    },
    {
      "inputs": [],
      "name": "FEE_ADDRESS",
      "outputs": [
        {
          "internalType": "address",
          "name": "",
          "type": "address"
        }
      ],
      "stateMutability": "view",
      "type": "function"
    },
    {
      "inputs": [],
      "name": "POLS_TOKEN_ADDRESS",
      "outputs": [
        {
          "internalType": "address",
          "name": "",
          "type": "address"
        }
      ],
      "stateMutability": "view",
      "type": "function"
    },
    {
      "inputs": [],
      "name": "POLS_UNIV2_ADDRESS",
      "outputs": [
        {
          "internalType": "address",
          "name": "",
          "type": "address"
        }
      ],
      "stateMutability": "view",
      "type": "function"
    },
    {
      "inputs": [],
      "name": "PolsStakeAddress",
      "outputs": [
        {
          "internalType": "address",
          "name": "",
          "type": "address"
        }
      ],
      "stateMutability": "view",
      "type": "function"
    },
    {
      "inputs": [],
      "name": "PolsStakeAmount",
      "outputs": [
        {
          "internalType": "uint256",
          "name": "",
          "type": "uint256"
        }
      ],
      "stateMutability": "view",
      "type": "function"
    },
    {
      "inputs": [],
      "name": "PolsStakeRewards",
      "outputs": [
        {
          "internalType": "uint256",
          "name": "",
          "type": "uint256"
        }
      ],
      "stateMutability": "view",
      "type": "function"
    },
    {
      "inputs": [],
      "name": "WHITELIST_OWNER_ROLE",
      "outputs": [
        {
          "internalType": "bytes32",
          "name": "",
          "type": "bytes32"
        }
      ],
      "stateMutability": "view",
      "type": "function"
    },
    {
      "inputs": [
        {
          "internalType": "address[]",
          "name": "_addresses",
          "type": "address[]"
        }
      ],
      "name": "addArrayToBlacklist",
      "outputs": [],
      "stateMutability": "nonpayable",
      "type": "function"
    },
    {
      "inputs": [
        {
          "internalType": "address[]",
          "name": "_addresses",
          "type": "address[]"
        }
      ],
      "name": "addArrayToWhitelist",
      "outputs": [],
      "stateMutability": "nonpayable",
      "type": "function"
    },
    {
      "inputs": [
        {
          "internalType": "address",
          "name": "_address",
          "type": "address"
        }
      ],
      "name": "addToBlacklist",
      "outputs": [],
      "stateMutability": "nonpayable",
      "type": "function"
    },
    {
      "inputs": [
        {
          "internalType": "address",
          "name": "_address",
          "type": "address"
        }
      ],
      "name": "addToWhitelist",
      "outputs": [],
      "stateMutability": "nonpayable",
      "type": "function"
    },
    {
      "inputs": [],
      "name": "availableTokens",
      "outputs": [
        {
          "internalType": "uint256",
          "name": "",
          "type": "uint256"
        }
      ],
      "stateMutability": "view",
      "type": "function"
    },
    {
      "inputs": [
        {
          "internalType": "uint256",
          "name": "",
          "type": "uint256"
        }
      ],
      "name": "buyers",
      "outputs": [
        {
          "internalType": "address",
          "name": "",
          "type": "address"
        }
      ],
      "stateMutability": "view",
      "type": "function"
    },
    {
      "inputs": [
        {
          "internalType": "uint256",
          "name": "_amount",
          "type": "uint256"
        }
      ],
      "name": "cost",
      "outputs": [
        {
          "internalType": "uint256",
          "name": "",
          "type": "uint256"
        }
      ],
      "stateMutability": "view",
      "type": "function"
    },
    {
      "inputs": [
        {
          "internalType": "address",
          "name": "_account",
          "type": "address"
        },
        {
          "internalType": "uint256",
          "name": "_accountMaximunAllocation",
          "type": "uint256"
        },
        {
          "internalType": "bytes",
          "name": "_signature",
          "type": "bytes"
        }
      ],
      "name": "determineAccountMaximunAllocation",
      "outputs": [
        {
          "internalType": "uint256",
          "name": "",
          "type": "uint256"
        }
      ],
      "stateMutability": "view",
      "type": "function"
    },
    {
      "inputs": [],
      "name": "endDate",
      "outputs": [
        {
          "internalType": "uint256",
          "name": "",
          "type": "uint256"
        }
      ],
      "stateMutability": "view",
      "type": "function"
    },
    {
      "inputs": [],
      "name": "erc20",
      "outputs": [
        {
          "internalType": "contract IERC20",
          "name": "",
          "type": "address"
        }
      ],
      "stateMutability": "view",
      "type": "function"
    },
    {
      "inputs": [],
      "name": "erc20TradeIn",
      "outputs": [
        {
          "internalType": "contract IERC20",
          "name": "",
          "type": "address"
        }
      ],
      "stateMutability": "view",
      "type": "function"
    },
    {
      "inputs": [],
      "name": "feePercentage",
      "outputs": [
        {
          "internalType": "uint256",
          "name": "",
          "type": "uint256"
        }
      ],
      "stateMutability": "view",
      "type": "function"
    },
    {
      "inputs": [
        {
          "internalType": "uint256",
          "name": "_amount",
          "type": "uint256"
        }
      ],
      "name": "fund",
      "outputs": [],
      "stateMutability": "nonpayable",
      "type": "function"
    },
    {
      "inputs": [],
      "name": "getAPIVersion",
      "outputs": [
        {
          "internalType": "uint32",
          "name": "API_VERSION",
          "type": "uint32"
        }
      ],
      "stateMutability": "pure",
      "type": "function"
    },
    {
      "inputs": [],
      "name": "getBlacklistedAddresses",
      "outputs": [
        {
          "internalType": "address[]",
          "name": "",
          "type": "address[]"
        }
      ],
      "stateMutability": "view",
      "type": "function"
    },
    {
      "inputs": [],
      "name": "getBuyers",
      "outputs": [
        {
          "internalType": "address[]",
          "name": "",
          "type": "address[]"
        }
      ],
      "stateMutability": "view",
      "type": "function"
    },
    {
      "inputs": [],
      "name": "getCurrentSchedule",
      "outputs": [
        {
          "internalType": "uint256",
          "name": "schedule",
          "type": "uint256"
        }
      ],
      "stateMutability": "view",
      "type": "function"
    },
    {
      "inputs": [
        {
          "internalType": "address",
          "name": "_address",
          "type": "address"
        }
      ],
      "name": "getMyPurchases",
      "outputs": [
        {
          "internalType": "uint256[]",
          "name": "",
          "type": "uint256[]"
        }
      ],
      "stateMutability": "view",
      "type": "function"
    },
    {
      "inputs": [],
      "name": "getMyPurchases_msgSender",
      "outputs": [
        {
          "internalType": "uint256[]",
          "name": "",
          "type": "uint256[]"
        }
      ],
      "stateMutability": "view",
      "type": "function"
    },
    {
      "inputs": [
        {
          "internalType": "uint256",
          "name": "purchase_id",
          "type": "uint256"
        }
      ],
      "name": "getPurchase",
      "outputs": [
        {
          "internalType": "uint256",
          "name": "amount",
          "type": "uint256"
        },
        {
          "internalType": "address",
          "name": "purchaser",
          "type": "address"
        },
        {
          "internalType": "uint256",
          "name": "costAmount",
          "type": "uint256"
        },
        {
          "internalType": "uint48",
          "name": "timestamp",
          "type": "uint48"
        },
        {
          "internalType": "bool",
          "name": "wasFinalized",
          "type": "bool"
        },
        {
          "internalType": "bool",
          "name": "reverted",
          "type": "bool"
        },
        {
          "internalType": "uint256",
          "name": "amountRedeemed",
          "type": "uint256"
        }
      ],
      "stateMutability": "view",
      "type": "function"
    },
    {
      "inputs": [],
      "name": "getPurchasesCount",
      "outputs": [
        {
          "internalType": "uint256",
          "name": "count",
          "type": "uint256"
        }
      ],
      "stateMutability": "view",
      "type": "function"
    },
    {
      "inputs": [
        {
          "internalType": "uint256",
          "name": "purchase_id",
          "type": "uint256"
        }
      ],
      "name": "getRedeemStatus",
      "outputs": [
        {
          "internalType": "uint256",
          "name": "amount",
          "type": "uint256"
        },
        {
          "internalType": "uint256",
          "name": "amountRedeemed",
          "type": "uint256"
        },
        {
          "internalType": "uint256",
          "name": "vestAmount",
          "type": "uint256"
        },
        {
          "internalType": "string",
          "name": "message",
          "type": "string"
        }
      ],
      "stateMutability": "view",
      "type": "function"
    },
    {
      "inputs": [
        {
          "internalType": "uint256",
          "name": "purchase_id",
          "type": "uint256"
        }
      ],
      "name": "getRedeemableTokensAmount",
      "outputs": [
        {
          "internalType": "uint256",
          "name": "amount",
          "type": "uint256"
        },
        {
          "internalType": "string",
          "name": "message",
          "type": "string"
        }
      ],
      "stateMutability": "view",
      "type": "function"
    },
    {
      "inputs": [
        {
          "internalType": "bytes32",
          "name": "role",
          "type": "bytes32"
        }
      ],
      "name": "getRoleAdmin",
      "outputs": [
        {
          "internalType": "bytes32",
          "name": "",
          "type": "bytes32"
        }
      ],
      "stateMutability": "view",
      "type": "function"
    },
    {
      "inputs": [
        {
          "internalType": "bytes32",
          "name": "role",
          "type": "bytes32"
        },
        {
          "internalType": "uint256",
          "name": "index",
          "type": "uint256"
        }
      ],
      "name": "getRoleMember",
      "outputs": [
        {
          "internalType": "address",
          "name": "",
          "type": "address"
        }
      ],
      "stateMutability": "view",
      "type": "function"
    },
    {
      "inputs": [
        {
          "internalType": "bytes32",
          "name": "role",
          "type": "bytes32"
        }
      ],
      "name": "getRoleMemberCount",
      "outputs": [
        {
          "internalType": "uint256",
          "name": "",
          "type": "uint256"
        }
      ],
      "stateMutability": "view",
      "type": "function"
    },
    {
      "inputs": [],
      "name": "getWhitelistedAddresses",
      "outputs": [
        {
          "internalType": "address[]",
          "name": "",
          "type": "address[]"
        }
      ],
      "stateMutability": "view",
      "type": "function"
    },
    {
      "inputs": [
        {
          "internalType": "bytes32",
          "name": "role",
          "type": "bytes32"
        },
        {
          "internalType": "address",
          "name": "account",
          "type": "address"
        }
      ],
      "name": "grantRole",
      "outputs": [],
      "stateMutability": "nonpayable",
      "type": "function"
    },
    {
      "inputs": [],
      "name": "hasFinalized",
      "outputs": [
        {
          "internalType": "bool",
          "name": "",
          "type": "bool"
        }
      ],
      "stateMutability": "view",
      "type": "function"
    },
    {
      "inputs": [],
      "name": "hasMinimumAmount",
      "outputs": [
        {
          "internalType": "bool",
          "name": "",
          "type": "bool"
        }
      ],
      "stateMutability": "view",
      "type": "function"
    },
    {
      "inputs": [],
      "name": "hasMinimumRaise",
      "outputs": [
        {
          "internalType": "bool",
          "name": "",
          "type": "bool"
        }
      ],
      "stateMutability": "view",
      "type": "function"
    },
    {
      "inputs": [
        {
          "internalType": "bytes32",
          "name": "role",
          "type": "bytes32"
        },
        {
          "internalType": "address",
          "name": "account",
          "type": "address"
        }
      ],
      "name": "hasRole",
      "outputs": [
        {
          "internalType": "bool",
          "name": "",
          "type": "bool"
        }
      ],
      "stateMutability": "view",
      "type": "function"
    },
    {
      "inputs": [],
      "name": "hasStarted",
      "outputs": [
        {
          "internalType": "bool",
          "name": "",
          "type": "bool"
        }
      ],
      "stateMutability": "view",
      "type": "function"
    },
    {
      "inputs": [],
      "name": "hasWhitelisting",
      "outputs": [
        {
          "internalType": "bool",
          "name": "",
          "type": "bool"
        }
      ],
      "stateMutability": "view",
      "type": "function"
    },
    {
      "inputs": [],
      "name": "individualMaximumAmount",
      "outputs": [
        {
          "internalType": "uint256",
          "name": "",
          "type": "uint256"
        }
      ],
      "stateMutability": "view",
      "type": "function"
    },
    {
      "inputs": [],
      "name": "individualMinimumAmount",
      "outputs": [
        {
          "internalType": "uint256",
          "name": "",
          "type": "uint256"
        }
      ],
      "stateMutability": "view",
      "type": "function"
    },
    {
      "inputs": [
        {
          "internalType": "address",
          "name": "_account",
          "type": "address"
        }
      ],
      "name": "isAddressPOLSWhitelisted",
      "outputs": [
        {
          "internalType": "bool",
          "name": "",
          "type": "bool"
        }
      ],
      "stateMutability": "view",
      "type": "function"
    },
    {
      "inputs": [
        {
          "internalType": "address",
          "name": "_address",
          "type": "address"
        }
      ],
      "name": "isBlacklisted",
      "outputs": [
        {
          "internalType": "bool",
          "name": "",
          "type": "bool"
        }
      ],
      "stateMutability": "view",
      "type": "function"
    },
    {
      "inputs": [
        {
          "internalType": "uint256",
          "name": "purchase_id",
          "type": "uint256"
        }
      ],
      "name": "isBuyer",
      "outputs": [
        {
          "internalType": "bool",
          "name": "",
          "type": "bool"
        }
      ],
      "stateMutability": "view",
      "type": "function"
    },
    {
      "inputs": [],
      "name": "isETHTrade",
      "outputs": [
        {
          "internalType": "bool",
          "name": "",
          "type": "bool"
        }
      ],
      "stateMutability": "view",
      "type": "function"
    },
    {
      "inputs": [],
      "name": "isOpen",
      "outputs": [
        {
          "internalType": "bool",
          "name": "",
          "type": "bool"
        }
      ],
      "stateMutability": "view",
      "type": "function"
    },
    {
      "inputs": [],
      "name": "isPOLSWhitelisted",
      "outputs": [
        {
          "internalType": "bool",
          "name": "",
          "type": "bool"
        }
      ],
      "stateMutability": "view",
      "type": "function"
    },
    {
      "inputs": [],
      "name": "isPreStart",
      "outputs": [
        {
          "internalType": "bool",
          "name": "",
          "type": "bool"
        }
      ],
      "stateMutability": "view",
      "type": "function"
    },
    {
      "inputs": [],
      "name": "isSaleFunded",
      "outputs": [
        {
          "internalType": "bool",
          "name": "",
          "type": "bool"
        }
      ],
      "stateMutability": "view",
      "type": "function"
    },
    {
      "inputs": [
        {
          "internalType": "address",
          "name": "_userAccountAaddress",
          "type": "address"
        },
        {
          "internalType": "uint256",
          "name": "_accountMaximunAllocation",
          "type": "uint256"
        },
        {
          "internalType": "bytes",
          "name": "signature",
          "type": "bytes"
        }
      ],
      "name": "isSignerForAddressMaxAlloc",
      "outputs": [
        {
          "internalType": "bool",
          "name": "",
          "type": "bool"
        }
      ],
      "stateMutability": "view",
      "type": "function"
    },
    {
      "inputs": [
        {
          "internalType": "bytes32",
          "name": "hash",
          "type": "bytes32"
        },
        {
          "internalType": "bytes",
          "name": "signature",
          "type": "bytes"
        }
      ],
      "name": "isSignerFromBytes32",
      "outputs": [
        {
          "internalType": "bool",
          "name": "",
          "type": "bool"
        }
      ],
      "stateMutability": "view",
      "type": "function"
    },
    {
      "inputs": [],
      "name": "isTokenSwapAtomic",
      "outputs": [
        {
          "internalType": "bool",
          "name": "",
          "type": "bool"
        }
      ],
      "stateMutability": "view",
      "type": "function"
    },
    {
      "inputs": [
        {
          "internalType": "address",
          "name": "_address",
          "type": "address"
        }
      ],
      "name": "isWhitelisted",
      "outputs": [
        {
          "internalType": "bool",
          "name": "",
          "type": "bool"
        }
      ],
      "stateMutability": "view",
      "type": "function"
    },
    {
      "inputs": [],
      "name": "minimumRaise",
      "outputs": [
        {
          "internalType": "uint256",
          "name": "",
          "type": "uint256"
        }
      ],
      "stateMutability": "view",
      "type": "function"
    },
    {
      "inputs": [],
      "name": "minimumRaiseAchieved",
      "outputs": [
        {
          "internalType": "bool",
          "name": "",
          "type": "bool"
        }
      ],
      "stateMutability": "view",
      "type": "function"
    },
    {
      "inputs": [],
      "name": "minimumRaiseNotAchieved",
      "outputs": [
        {
          "internalType": "bool",
          "name": "",
          "type": "bool"
        }
      ],
      "stateMutability": "view",
      "type": "function"
    },
    {
      "inputs": [
        {
          "internalType": "address",
          "name": "",
          "type": "address"
        },
        {
          "internalType": "uint256",
          "name": "",
          "type": "uint256"
        }
      ],
      "name": "myPurchases",
      "outputs": [
        {
          "internalType": "uint256",
          "name": "",
          "type": "uint256"
        }
      ],
      "stateMutability": "view",
      "type": "function"
    },
    {
      "inputs": [],
      "name": "pause",
      "outputs": [],
      "stateMutability": "nonpayable",
      "type": "function"
    },
    {
      "inputs": [],
      "name": "paused",
      "outputs": [
        {
          "internalType": "bool",
          "name": "",
          "type": "bool"
        }
      ],
      "stateMutability": "view",
      "type": "function"
    },
    {
      "inputs": [
        {
          "internalType": "uint256",
          "name": "purchase_id",
          "type": "uint256"
        }
      ],
      "name": "purchaseExists",
      "outputs": [
        {
          "internalType": "bool",
          "name": "",
          "type": "bool"
        }
      ],
      "stateMutability": "view",
      "type": "function"
    },
    {
      "inputs": [
        {
          "internalType": "uint256",
          "name": "",
          "type": "uint256"
        }
      ],
      "name": "purchases",
      "outputs": [
        {
          "internalType": "address",
          "name": "purchaser",
          "type": "address"
        },
        {
          "internalType": "uint48",
          "name": "timestamp",
          "type": "uint48"
        },
        {
          "internalType": "bool",
          "name": "wasFinalized",
          "type": "bool"
        },
        {
          "internalType": "bool",
          "name": "reverted",
          "type": "bool"
        },
        {
          "internalType": "uint256",
          "name": "amount",
          "type": "uint256"
        },
        {
          "internalType": "uint256",
          "name": "costAmount",
          "type": "uint256"
        },
        {
          "internalType": "uint256",
          "name": "amountRedeemed",
          "type": "uint256"
        }
      ],
      "stateMutability": "view",
      "type": "function"
    },
    {
      "inputs": [
        {
          "internalType": "bytes32",
          "name": "hash",
          "type": "bytes32"
        },
        {
          "internalType": "bytes",
          "name": "signature",
          "type": "bytes"
        }
      ],
      "name": "recoverSignerAddressFromBytes32",
      "outputs": [
        {
          "internalType": "address",
          "name": "",
          "type": "address"
        }
      ],
      "stateMutability": "pure",
      "type": "function"
    },
    {
      "inputs": [
        {
          "internalType": "uint256",
          "name": "purchase_id",
          "type": "uint256"
        }
      ],
      "name": "redeemGivenMinimumGoalNotAchieved",
      "outputs": [],
      "stateMutability": "nonpayable",
      "type": "function"
    },
    {
      "inputs": [
        {
          "internalType": "uint256",
          "name": "purchase_id",
          "type": "uint256"
        }
      ],
      "name": "redeemTokens",
      "outputs": [],
      "stateMutability": "nonpayable",
      "type": "function"
    },
    {
      "inputs": [
        {
          "internalType": "address",
          "name": "_address",
          "type": "address"
        }
      ],
      "name": "removeFromBlacklist",
      "outputs": [],
      "stateMutability": "nonpayable",
      "type": "function"
    },
    {
      "inputs": [
        {
          "internalType": "address",
          "name": "_address",
          "type": "address"
        }
      ],
      "name": "removeFromWhitelist",
      "outputs": [],
      "stateMutability": "nonpayable",
      "type": "function"
    },
    {
      "inputs": [
        {
          "internalType": "address",
          "name": "_tokenAddress",
          "type": "address"
        },
        {
          "internalType": "address",
          "name": "_to",
          "type": "address"
        }
      ],
      "name": "removeOtherERC20Tokens",
      "outputs": [],
      "stateMutability": "nonpayable",
      "type": "function"
    },
    {
      "inputs": [
        {
          "internalType": "bytes32",
          "name": "role",
          "type": "bytes32"
        },
        {
          "internalType": "address",
          "name": "account",
          "type": "address"
        }
      ],
      "name": "renounceRole",
      "outputs": [],
      "stateMutability": "nonpayable",
      "type": "function"
    },
    {
      "inputs": [
        {
          "internalType": "bytes32",
          "name": "role",
          "type": "bytes32"
        },
        {
          "internalType": "address",
          "name": "account",
          "type": "address"
        }
      ],
      "name": "revokeRole",
      "outputs": [],
      "stateMutability": "nonpayable",
      "type": "function"
    },
    {
      "inputs": [],
      "name": "safePullETH",
      "outputs": [],
      "stateMutability": "nonpayable",
      "type": "function"
    },
    {
      "inputs": [],
      "name": "safePullSaleToken",
      "outputs": [],
      "stateMutability": "nonpayable",
      "type": "function"
    },
    {
      "inputs": [],
      "name": "safePullTradeToken",
      "outputs": [],
      "stateMutability": "nonpayable",
      "type": "function"
    },
    {
      "inputs": [
        {
          "internalType": "uint256",
          "name": "_endDate",
          "type": "uint256"
        }
      ],
      "name": "setEndDate",
      "outputs": [],
      "stateMutability": "nonpayable",
      "type": "function"
    },
    {
      "inputs": [
        {
          "internalType": "bool",
          "name": "_hasWhitelisting",
          "type": "bool"
        }
      ],
      "name": "setHasWhitelisting",
      "outputs": [],
      "stateMutability": "nonpayable",
      "type": "function"
    },
    {
      "inputs": [
        {
          "internalType": "uint256",
          "name": "_individualMaximumAmount",
          "type": "uint256"
        }
      ],
      "name": "setIndividualMaximumAmount",
      "outputs": [],
      "stateMutability": "nonpayable",
      "type": "function"
    },
    {
      "inputs": [
        {
          "internalType": "address",
          "name": "_PolsStakeAddress",
          "type": "address"
        },
        {
          "internalType": "uint256",
          "name": "_PolsStakeAmount",
          "type": "uint256"
        },
        {
          "internalType": "uint256",
          "name": "_PolsStakeRewards",
          "type": "uint256"
        }
      ],
      "name": "setPolsStakingRequirement",
      "outputs": [],
      "stateMutability": "nonpayable",
      "type": "function"
    },
    {
      "inputs": [
        {
          "internalType": "address",
          "name": "_signerPublicAddress",
          "type": "address"
        }
      ],
      "name": "setSignerPublicAddress",
      "outputs": [],
      "stateMutability": "nonpayable",
      "type": "function"
    },
    {
      "inputs": [
        {
          "internalType": "address",
          "name": "_stakingRewardsAddress",
          "type": "address"
        }
      ],
      "name": "setStakingRewards",
      "outputs": [],
      "stateMutability": "nonpayable",
      "type": "function"
    },
    {
      "inputs": [
        {
          "internalType": "uint256",
          "name": "_startDate",
          "type": "uint256"
        }
      ],
      "name": "setStartDate",
      "outputs": [],
      "stateMutability": "nonpayable",
      "type": "function"
    },
    {
      "inputs": [
        {
          "internalType": "uint256",
          "name": "_vestingStart",
          "type": "uint256"
        },
        {
          "internalType": "uint256",
          "name": "_vestingCliff",
          "type": "uint256"
        },
        {
          "internalType": "uint256",
          "name": "_vestingDuration",
          "type": "uint256"
        },
        {
          "internalType": "uint256[]",
          "name": "_vestingSchedule",
          "type": "uint256[]"
        }
      ],
      "name": "setVesting",
      "outputs": [],
      "stateMutability": "nonpayable",
      "type": "function"
    },
    {
      "inputs": [],
      "name": "signerPublicAddress",
      "outputs": [
        {
          "internalType": "address",
          "name": "",
          "type": "address"
        }
      ],
      "stateMutability": "view",
      "type": "function"
    },
    {
      "inputs": [],
      "name": "stakingRewardsAddress",
      "outputs": [
        {
          "internalType": "address",
          "name": "",
          "type": "address"
        }
      ],
      "stateMutability": "view",
      "type": "function"
    },
    {
      "inputs": [],
      "name": "startDate",
      "outputs": [
        {
          "internalType": "uint256",
          "name": "",
          "type": "uint256"
        }
      ],
      "stateMutability": "view",
      "type": "function"
    },
    {
      "inputs": [
        {
          "internalType": "uint256",
          "name": "_amount",
          "type": "uint256"
        },
        {
          "internalType": "bytes",
          "name": "_signature",
          "type": "bytes"
        }
      ],
      "name": "swap",
      "outputs": [],
      "stateMutability": "payable",
      "type": "function"
    },
    {
      "inputs": [
        {
          "internalType": "uint256",
          "name": "_amount",
          "type": "uint256"
        },
        {
          "internalType": "uint256",
          "name": "_accountMaxAmount",
          "type": "uint256"
        },
        {
          "internalType": "bytes",
          "name": "_signature",
          "type": "bytes"
        }
      ],
      "name": "swapWithSig",
      "outputs": [],
      "stateMutability": "payable",
      "type": "function"
    },
    {
      "inputs": [],
      "name": "tokensAllocated",
      "outputs": [
        {
          "internalType": "uint256",
          "name": "",
          "type": "uint256"
        }
      ],
      "stateMutability": "view",
      "type": "function"
    },
    {
      "inputs": [],
      "name": "tokensForSale",
      "outputs": [
        {
          "internalType": "uint256",
          "name": "",
          "type": "uint256"
        }
      ],
      "stateMutability": "view",
      "type": "function"
    },
    {
      "inputs": [],
      "name": "tokensLeft",
      "outputs": [
        {
          "internalType": "uint256",
          "name": "",
          "type": "uint256"
        }
      ],
      "stateMutability": "view",
      "type": "function"
    },
    {
      "inputs": [],
      "name": "totalRaiseCost",
      "outputs": [
        {
          "internalType": "uint256",
          "name": "",
          "type": "uint256"
        }
      ],
      "stateMutability": "view",
      "type": "function"
    },
    {
      "inputs": [],
      "name": "tradeValue",
      "outputs": [
        {
          "internalType": "uint256",
          "name": "",
          "type": "uint256"
        }
      ],
      "stateMutability": "view",
      "type": "function"
    },
    {
      "inputs": [
        {
          "internalType": "uint256",
          "name": "purchase_id",
          "type": "uint256"
        },
        {
          "internalType": "bool",
          "name": "stake",
          "type": "bool"
        }
      ],
      "name": "transferTokens",
      "outputs": [],
      "stateMutability": "nonpayable",
      "type": "function"
    },
    {
      "inputs": [],
      "name": "unpause",
      "outputs": [],
      "stateMutability": "nonpayable",
      "type": "function"
    },
    {
      "inputs": [],
      "name": "unsoldTokensRedeemed",
      "outputs": [
        {
          "internalType": "bool",
          "name": "",
          "type": "bool"
        }
      ],
      "stateMutability": "view",
      "type": "function"
    },
    {
      "inputs": [],
      "name": "updateFundStatus",
      "outputs": [],
      "stateMutability": "nonpayable",
      "type": "function"
    },
    {
      "inputs": [],
      "name": "vestingCliff",
      "outputs": [
        {
          "internalType": "uint256",
          "name": "",
          "type": "uint256"
        }
      ],
      "stateMutability": "view",
      "type": "function"
    },
    {
      "inputs": [],
      "name": "vestingDuration",
      "outputs": [
        {
          "internalType": "uint256",
          "name": "",
          "type": "uint256"
        }
      ],
      "stateMutability": "view",
      "type": "function"
    },
    {
      "inputs": [
        {
          "internalType": "uint256",
          "name": "",
          "type": "uint256"
        }
      ],
      "name": "vestingSchedule",
      "outputs": [
        {
          "internalType": "uint256",
          "name": "",
          "type": "uint256"
        }
      ],
      "stateMutability": "view",
      "type": "function"
    },
    {
      "inputs": [],
      "name": "vestingStart",
      "outputs": [
        {
          "internalType": "uint256",
          "name": "",
          "type": "uint256"
        }
      ],
      "stateMutability": "view",
      "type": "function"
    },
    {
      "inputs": [],
      "name": "vestingTime",
      "outputs": [
        {
          "internalType": "uint256",
          "name": "",
          "type": "uint256"
        }
      ],
      "stateMutability": "view",
      "type": "function"
    },
    {
      "inputs": [],
      "name": "withdrawFunds",
      "outputs": [],
      "stateMutability": "nonpayable",
      "type": "function"
    },
    {
      "inputs": [],
      "name": "withdrawUnsoldTokens",
      "outputs": [],
      "stateMutability": "nonpayable",
      "type": "function"
    }
  ],
  "bytecode": "0x60806040526002805460ff60a01b191690553480156200001e57600080fd5b5060405162006ac838038062006ac883398181016040526102008110156200004557600080fd5b8101908080519060200190929190805190602001909291908051906020019092919080519060200190929190805190602001909291908051906020019092919080519060200190929190805190602001909291908051906020019092919080519060200190929190805190602001909291908051906020019092919080519060200190929190805190602001909291908051906020019092919080516040519392919084640100000000821115620000fc57600080fd5b9083019060208201858111156200011257600080fd5b82518660208202830111640100000000821117156200013057600080fd5b82525081516020918201928201910280838360005b838110156200015f57818101518382015260200162000145565b505050509190910160405250506000805460ff1916905550506002861615158b8b6200019b60008051602062006aa883398151915233620004b0565b6002805460ff60a01b1916600160a01b851515021790556003829055620001c281620004c0565b50620001d491506000905033620004b0565b8c421062000229576040805162461bcd60e51b815260206004820152601960248201527f7374617274206461746520697320696e20746865207061737400000000000000604482015290519081900360640190fd5b60008e1162000273576040805162461bcd60e51b81526020600482015260116024820152706e6f20746f6b656e20666f722073616c6560781b604482015290519081900360640190fd5b8a8e1015620002c9576040805162461bcd60e51b815260206004820152601e60248201527f746f6b656e73466f7253616c65203c20696e646976696475616c206d696e0000604482015290519081900360640190fd5b8d8811156200031f576040805162461bcd60e51b815260206004820152601c60248201527f6d696e696d756d5261697365203e20746f6b656e73466f7253616c6500000000604482015290519081900360640190fd5b606387111562000376576040805162461bcd60e51b815260206004820152601e60248201527f4665652050657263656e746167652068617320746f206265203c203130300000604482015290519081900360640190fd5b60088663ffffffff1610620003d2576040805162461bcd60e51b815260206004820152601560248201527f756e737570706f7274656420666c616773207365740000000000000000000000604482015290519081900360640190fd5b60128d9055620003e28c6200058a565b60168e905560118f9055600186161562000409576010805460ff191660011790556200041c565b60148890556200041c848484846200069a565b8f600d60006101000a8154816001600160a01b0302191690836001600160a01b0316021790555060006001600160a01b0316856001600160a01b0316146200047a57600e80546001600160a01b0319166001600160a01b0387161790555b600486161562000494576010805461ff0019166101001790555b505050600f939093555062000c899a5050505050505050505050565b620004bc828262000a4f565b5050565b620004db60008051602062006aa88339815191523362000aca565b6200052d576040805162461bcd60e51b815260206004820152601c60248201527f63616c6c6572206973206e6f742057686974656c6973744f776e657200000000604482015290519081900360640190fd5b60035481101562000585576040805162461bcd60e51b815260206004820152601b60248201527f696e646976696475616c206d6178203c206d696e20616d6f756e740000000000604482015290519081900360640190fd5b600455565b6200059760003362000aca565b620005e9576040805162461bcd60e51b815260206004820152601960248201527f63616c6c657220686173206e6f742061646d696e20726f6c6500000000000000604482015290519081900360640190fd5b8042106200063e576040805162461bcd60e51b815260206004820181905260248201527f656e6420646174652068617320746f20626520696e2074686520667574757265604482015290519081900360640190fd5b806012541062000695576040805162461bcd60e51b815260206004820152601a60248201527f656e642064617465206265666f72652073746172742064617465000000000000604482015290519081900360640190fd5b601355565b620006a760003362000aca565b620006f9576040805162461bcd60e51b815260206004820152601960248201527f63616c6c657220686173206e6f742061646d696e20726f6c6500000000000000604482015290519081900360640190fd5b60175415806200070a575060175442105b6200075c576040805162461bcd60e51b815260206004820152601760248201527f76657374696e6720616c72656164792073746172746564000000000000000000604482015290519081900360640190fd5b6013548385011015620007b6576040805162461bcd60e51b815260206004820152601b60248201527f76657374696e67436c696666206265666f726520656e64446174650000000000604482015290519081900360640190fd5b818311156200080c576040805162461bcd60e51b815260206004820152601e60248201527f76657374696e67436c696666203e2076657374696e674475726174696f6e0000604482015290519081900360640190fd5b6312cff78062000859825160001462000841576200083b6001845162000af960201b62004db91790919060201c565b62000844565b60015b8462000b5460201b62004e131790919060201c565b10620008ac576040805162461bcd60e51b815260206004820152601d60248201527f746f74616c2076657374696e672074696d65203e203130207965617273000000604482015290519081900360640190fd5b601784905560188390556019829055620008c9601a600062000c4b565b600181511062000a495760008211620009145760405162461bcd60e51b815260040180806020018281038252603481526020018062006a336034913960400191505060405180910390fd5b6000816000815181106200092457fe5b6020026020010151905064e8d4a5100060640281106200098b576040805162461bcd60e51b815260206004820152601c60248201527f66697273742076657374696e6720706572696f64203e3d203130302500000000604482015290519081900360640190fd5b601a80546001818101835560009290925260008051602062006a67833981519152018290555b825181101562000a465762000a04838281518110620009cc57fe5b6020026020010151601a6001840381548110620009e557fe5b906000526020600020015462000af960201b62004db91790919060201c565b9150655af3107a4000821062000a1a5762000a46565b601a80546001818101835560009290925260008051602062006a678339815191520183905501620009b1565b50505b50505050565b600082815260016020908152604090912062000a7691839062004e6c62000bb2821b17901c565b15620004bc5762000a8662000bc9565b6001600160a01b0316816001600160a01b0316837f2f8788117e7eff1d82e926ec794901d17c78024a50270940304540a733656f0d60405160405180910390a45050565b6000828152600160209081526040822062000af091849062004e8162000bcd821b17901c565b90505b92915050565b60008282018381101562000af0576040805162461bcd60e51b815260206004820152601b60248201527f536166654d6174683a206164646974696f6e206f766572666c6f770000000000604482015290519081900360640190fd5b60008262000b655750600062000af3565b8282028284828162000b7357fe5b041462000af05760405162461bcd60e51b815260040180806020018281038252602181526020018062006a876021913960400191505060405180910390fd5b600062000af0836001600160a01b03841662000be4565b3390565b600062000af0836001600160a01b03841662000c33565b600062000bf2838362000c33565b62000c2a5750815460018181018455600084815260208082209093018490558454848252828601909352604090209190915562000af3565b50600062000af3565b60009081526001919091016020526040902054151590565b508054600082559060005260206000209081019062000c6b919062000c6e565b50565b5b8082111562000c85576000815560010162000c6f565b5090565b615d9a8062000c996000396000f3fe6080604052600436106106165760003560e01c80637f7b271211610329578063bd0625ab116101b6578063e4101de511610102578063f267d48c116100a0578063f64bfaba1161007a578063f64bfaba14611a19578063fce9d11b14611a2e578063fe575a8714611a43578063fecf415a14611a7657610616565b8063f267d48c146119c5578063f2aa8218146119da578063f3640e7414611a0457610616565b8063e8b882f4116100dc578063e8b882f414611971578063eb1edd6114611986578063eee95be61461199b578063efbb34d5146119b057610616565b8063e4101de514611871578063e43252d714611886578063e4a80252146118b957610616565b8063c8bdbfb61161016f578063d0a4a89511610149578063d0a4a89514611742578063d547741f14611757578063dbb57ac814611790578063dc91b0721461184757610616565b8063c8bdbfb6146116d9578063ca15c873146116ee578063ca1d209d1461171857610616565b8063bd0625ab146115a7578063bd0fcfd114611652578063bf135abe14611667578063c24a0f8b1461167c578063c3ca324f14611691578063c7dab436146116c457610616565b80639483841411610275578063a217fddf1161022e578063b31f8f9311610208578063b31f8f9314611535578063b367940e1461154a578063b86917871461155f578063ba40a96a1461159257610616565b8063a217fddf146114c8578063a6e158f8146114dd578063b0b12ac31461150757610616565b8063948384141461130057806396a32bc4146113155780639baf19791461132a5780639d90a46e146113f0578063a001ecdd1461149e578063a1c09bf1146114b357610616565b80638ab1d681116102e25780639097548d116102bc5780639097548d14611238578063917c854d14611262578063919bd9301461129d57806391d14854146112c757610616565b80638ab1d681146111c05780638e75b131146111f35780639010d07c1461120857610616565b80637f7b2712146110cf57806382d95df5146110e45780638392fe311461110e5780638456cb591461118157806388b0fe2b146111965780638a1a5f3f146111ab57610616565b80633af32abf116104a7578063658f2dfe116103f357806374fa05fb116103ac57806376807e5f1161038657806376807e5f14610fd8578063785e9e8614610fed578063788bff6814611002578063799bb2321461101757610616565b806374fa05fb14610ee8578063751ef93d14610efd578063755e3e2814610fc357610616565b8063658f2dfe14610d8957806369bb4dc214610e4a5780636d02802714610e5f5780636eaaabd514610e745780636fb83a5714610ea057806370a898bc14610ed357610616565b806344691f7e116104605780635ac699bb1161043a5780635ac699bb14610c765780635c975abb14610caf5780635f635f9a14610cc45780636295a2f414610d7457610616565b806344691f7e14610c1957806347535d7b14610c2e578063537df3b614610c4357610616565b80633af32abf14610a7b5780633b6577c814610aae5780633bbab17914610b575780633f4ba83a14610bbc5780634089aa9a14610bd157806344337ea114610be657610616565b806324600fc3116105665780632ebb5c1e1161051f57806331d06af3116104f957806331d06af31461098e57806336568abe146109a35780633742a9f7146109dc5780633784f00014610a5157610616565b80632ebb5c1e1461090e5780632f2ff15d146109235780633070b98d1461095c57610616565b806324600fc314610848578063248a9ca31461085d578063254800d4146108875780632593ea171461089c578063273e96e9146108c65780632e154107146108f957610616565b806313430f01116105d3578063161a7b2a116105ad578063161a7b2a146107c35780631de18af7146107d857806321710d271461080257806321d3002a1461083357610616565b806313430f01146107845780631514617e1461079957806315b57866146107ae57610616565b80630274fa981461061b578063044c0cc51461065c578063076623451461068557806308abd7ff1461069a5780630b97bc861461074857806312aef8c31461076f575b600080fd5b34801561062757600080fd5b5061065a6004803603606081101561063e57600080fd5b506001600160a01b038135169060208101359060400135611aa0565b005b34801561066857600080fd5b50610671611b13565b604080519115158252519081900360200190f35b34801561069157600080fd5b50610671611b24565b3480156106a657600080fd5b5061065a600480360360208110156106bd57600080fd5b810190602081018135600160201b8111156106d757600080fd5b8201836020820111156106e957600080fd5b803590602001918460208302840111600160201b8311171561070a57600080fd5b919080806020026020016040519081016040528093929190818152602001838360200280828437600092019190915250929550611b34945050505050565b34801561075457600080fd5b5061075d611c12565b60408051918252519081900360200190f35b34801561077b57600080fd5b5061075d611c18565b34801561079057600080fd5b5061075d611c1e565b3480156107a557600080fd5b5061075d611c24565b3480156107ba57600080fd5b50610671611c2a565b3480156107cf57600080fd5b50610671611c32565b3480156107e457600080fd5b5061065a600480360360208110156107fb57600080fd5b5035611c41565b34801561080e57600080fd5b50610817611f40565b604080516001600160a01b039092168252519081900360200190f35b34801561083f57600080fd5b50610671611f58565b34801561085457600080fd5b5061065a611f61565b34801561086957600080fd5b5061075d6004803603602081101561088057600080fd5b5035612292565b34801561089357600080fd5b5061075d6122aa565b3480156108a857600080fd5b50610671600480360360208110156108bf57600080fd5b50356122b0565b3480156108d257600080fd5b50610671600480360360208110156108e957600080fd5b50356001600160a01b03166122b7565b34801561090557600080fd5b5061075d6123fc565b34801561091a57600080fd5b50610671612402565b34801561092f57600080fd5b5061065a6004803603604081101561094657600080fd5b50803590602001356001600160a01b031661240a565b34801561096857600080fd5b5061065a6004803603604081101561097f57600080fd5b50803590602001351515612472565b34801561099a57600080fd5b50610817612768565b3480156109af57600080fd5b5061065a600480360360408110156109c657600080fd5b50803590602001356001600160a01b0316612777565b3480156109e857600080fd5b50610a06600480360360208110156109ff57600080fd5b50356127d8565b604080519788526001600160a01b0390961660208801528686019490945265ffffffffffff909216606086015215156080850152151560a084015260c0830152519081900360e00190f35b348015610a5d57600080fd5b5061065a60048036036020811015610a7457600080fd5b50356128ef565b348015610a8757600080fd5b5061067160048036036020811015610a9e57600080fd5b50356001600160a01b03166129e8565b348015610aba57600080fd5b50610ad860048036036020811015610ad157600080fd5b50356129fb565b6040518083815260200180602001828103825283818151815260200191508051906020019080838360005b83811015610b1b578181015183820152602001610b03565b50505050905090810190601f168015610b485780820380516001836020036101000a031916815260200191505b50935050505060405180910390f35b348015610b6357600080fd5b50610b6c612e32565b60408051602080825283518183015283519192839290830191858101910280838360005b83811015610ba8578181015183820152602001610b90565b505050509050019250505060405180910390f35b348015610bc857600080fd5b5061065a612e43565b348015610bdd57600080fd5b50610671612e95565b348015610bf257600080fd5b5061065a60048036036020811015610c0957600080fd5b50356001600160a01b0316612e9e565b348015610c2557600080fd5b50610671612f3d565b348015610c3a57600080fd5b50610671612f46565b348015610c4f57600080fd5b5061065a60048036036020811015610c6657600080fd5b50356001600160a01b0316612f65565b348015610c8257600080fd5b5061075d60048036036040811015610c9957600080fd5b506001600160a01b038135169060200135613003565b348015610cbb57600080fd5b50610671613034565b61065a60048036036060811015610cda57600080fd5b813591602081013591810190606081016040820135600160201b811115610d0057600080fd5b820183602082011115610d1257600080fd5b803590602001918460018302840111600160201b83111715610d3357600080fd5b91908080601f01602080910402602001604051908101604052809392919081815260200183838082843760009201919091525092955061303d945050505050565b348015610d8057600080fd5b5061075d613669565b348015610d9557600080fd5b5061065a60048036036080811015610dac57600080fd5b81359160208101359160408201359190810190608081016060820135600160201b811115610dd957600080fd5b820183602082011115610deb57600080fd5b803590602001918460208302840111600160201b83111715610e0c57600080fd5b91908080602002602001604051908101604052809392919081815260200183836020028082843760009201919091525092955061366f945050505050565b348015610e5657600080fd5b5061075d6139f5565b348015610e6b57600080fd5b50610b6c613a71565b348015610e8057600080fd5b5061065a60048036036020811015610e9757600080fd5b50351515613a7d565b348015610eac57600080fd5b5061065a60048036036020811015610ec357600080fd5b50356001600160a01b0316613b27565b348015610edf57600080fd5b50610671613b93565b348015610ef457600080fd5b50610671613b9b565b348015610f0957600080fd5b5061067160048036036060811015610f2057600080fd5b6001600160a01b0382351691602081013591810190606081016040820135600160201b811115610f4f57600080fd5b820183602082011115610f6157600080fd5b803590602001918460018302840111600160201b83111715610f8257600080fd5b91908080601f016020809104026020016040519081016040528093929190818152602001838380828437600092019190915250929550613ba5945050505050565b348015610fcf57600080fd5b5061075d613c1c565b348015610fe457600080fd5b5061065a613c22565b348015610ff957600080fd5b50610817613cbc565b34801561100e57600080fd5b50610817613ccb565b34801561102357600080fd5b506108176004803603604081101561103a57600080fd5b81359190810190604081016020820135600160201b81111561105b57600080fd5b82018360208201111561106d57600080fd5b803590602001918460018302840111600160201b8311171561108e57600080fd5b91908080601f016020809104026020016040519081016040528093929190818152602001838380828437600092019190915250929550613cda945050505050565b3480156110db57600080fd5b5061075d613d45565b3480156110f057600080fd5b5061065a6004803603602081101561110757600080fd5b5035613d4e565b34801561111a57600080fd5b506111386004803603602081101561113157600080fd5b5035613e31565b604080516001600160a01b03909816885265ffffffffffff9096166020880152931515868601529115156060860152608085015260a084015260c0830152519081900360e00190f35b34801561118d57600080fd5b5061065a613e98565b3480156111a257600080fd5b5061065a613eea565b3480156111b757600080fd5b5061075d614014565b3480156111cc57600080fd5b5061065a600480360360208110156111e357600080fd5b50356001600160a01b031661404f565b3480156111ff57600080fd5b5061075d6140ed565b34801561121457600080fd5b506108176004803603604081101561122b57600080fd5b50803590602001356140f3565b34801561124457600080fd5b5061075d6004803603602081101561125b57600080fd5b503561410b565b34801561126e57600080fd5b5061065a6004803603604081101561128557600080fd5b506001600160a01b03813581169160200135166141a1565b3480156112a957600080fd5b5061075d600480360360208110156112c057600080fd5b5035614393565b3480156112d357600080fd5b50610671600480360360408110156112ea57600080fd5b50803590602001356001600160a01b03166143b4565b34801561130c57600080fd5b506106716143cc565b34801561132157600080fd5b5061065a6143dc565b34801561133657600080fd5b5061075d6004803603606081101561134d57600080fd5b6001600160a01b0382351691602081013591810190606081016040820135600160201b81111561137c57600080fd5b82018360208201111561138e57600080fd5b803590602001918460018302840111600160201b831117156113af57600080fd5b91908080601f0160208091040260200160405190810160405280939291908181526020018383808284376000920191909152509295506144a2945050505050565b3480156113fc57600080fd5b5061065a6004803603602081101561141357600080fd5b810190602081018135600160201b81111561142d57600080fd5b82018360208201111561143f57600080fd5b803590602001918460208302840111600160201b8311171561146057600080fd5b91908080602002602001604051908101604052809392919081815260200183836020028082843760009201919091525092955061452b945050505050565b3480156114aa57600080fd5b5061075d614608565b3480156114bf57600080fd5b5061075d61460e565b3480156114d457600080fd5b5061075d614614565b3480156114e957600080fd5b5061065a6004803603602081101561150057600080fd5b5035614619565b34801561151357600080fd5b5061151c614624565b6040805163ffffffff9092168252519081900360200190f35b34801561154157600080fd5b5061075d61462b565b34801561155657600080fd5b50610671614635565b34801561156b57600080fd5b5061065a6004803603602081101561158257600080fd5b50356001600160a01b0316614640565b34801561159e57600080fd5b506108176146b9565b61065a600480360360408110156115bd57600080fd5b81359190810190604081016020820135600160201b8111156115de57600080fd5b8201836020820111156115f057600080fd5b803590602001918460018302840111600160201b8311171561161157600080fd5b91908080601f0160208091040260200160405190810160405280939291908181526020018383808284376000920191909152509295506146c8945050505050565b34801561165e57600080fd5b506108176146d4565b34801561167357600080fd5b506108176146ec565b34801561168857600080fd5b5061075d6146fb565b34801561169d57600080fd5b50610b6c600480360360208110156116b457600080fd5b50356001600160a01b0316614701565b3480156116d057600080fd5b5061075d61476d565b3480156116e557600080fd5b5061065a614789565b3480156116fa57600080fd5b5061075d6004803603602081101561171157600080fd5b5035614898565b34801561172457600080fd5b5061065a6004803603602081101561173b57600080fd5b50356148af565b34801561174e57600080fd5b50610671614990565b34801561176357600080fd5b5061065a6004803603604081101561177a57600080fd5b50803590602001356001600160a01b031661499e565b34801561179c57600080fd5b506117ba600480360360208110156117b357600080fd5b50356149f7565b6040518085815260200184815260200183815260200180602001828103825283818151815260200191508051906020019080838360005b838110156118095781810151838201526020016117f1565b50505050905090810190601f1680156118365780820380516001836020036101000a031916815260200191505b509550505050505060405180910390f35b34801561185357600080fd5b5061065a6004803603602081101561186a57600080fd5b5035614aa4565b34801561187d57600080fd5b5061075d614b57565b34801561189257600080fd5b5061065a600480360360208110156118a957600080fd5b50356001600160a01b0316614b5d565b3480156118c557600080fd5b50610671600480360360408110156118dc57600080fd5b81359190810190604081016020820135600160201b8111156118fd57600080fd5b82018360208201111561190f57600080fd5b803590602001918460018302840111600160201b8311171561193057600080fd5b91908080601f016020809104026020016040519081016040528093929190818152602001838380828437600092019190915250929550614bfb945050505050565b34801561197d57600080fd5b5061075d614c25565b34801561199257600080fd5b50610817614c37565b3480156119a757600080fd5b5061065a614c4f565b3480156119bc57600080fd5b5061075d614ccb565b3480156119d157600080fd5b5061075d614cd8565b3480156119e657600080fd5b50610817600480360360208110156119fd57600080fd5b5035614cde565b348015611a1057600080fd5b5061075d614d08565b348015611a2557600080fd5b50610b6c614d0e565b348015611a3a57600080fd5b50610b6c614d70565b348015611a4f57600080fd5b5061067160048036036020811015611a6657600080fd5b50356001600160a01b0316614d7b565b348015611a8257600080fd5b5061067160048036036020811015611a9957600080fd5b5035614d88565b611aab6000336143b4565b611aea576040805162461bcd60e51b81526020600482015260196024820152600080516020615cf5833981519152604482015290519081900360640190fd5b600a80546001600160a01b0319166001600160a01b039490941693909317909255600b55600c55565b600e546001600160a01b0316155b90565b600254600160a01b900460ff1681565b611b4c600080516020615cab833981519152336143b4565b611b8b576040805162461bcd60e51b815260206004820152601c6024820152600080516020615bd8833981519152604482015290519081900360640190fd5b6000805b8251811015611bd357611bbf838281518110611ba757fe5b60200260200101516005614e6c90919063ffffffff16565b15611bcb576001909101905b600101611b8f565b508015611c0e576040805182815290517f448f3bd350ede14a294c062177c5280fe1eae125d16757da21f5f51d6e89daae9181900360200190a15b5050565b60125481565b60165481565b600b5481565b60195481565b601454151590565b60105462010000900460ff1681565b611c49612e95565b611c95576040805162461bcd60e51b81526020600482015260186024820152771cd85b19481a185cc81d1bc8189948199a5b985b1a5e995960421b604482015290519081900360640190fd5b60105460ff1615611ced576040805162461bcd60e51b815260206004820152601e60248201527f73616c652068617320746f206265206e6f6e2041746f6d696320737761700000604482015290519081900360640190fd5b611cf681614d88565b611d3e576040805162461bcd60e51b815260206004820152601460248201527330b2323932b9b99034b9903737ba10313abcb2b960611b604482015290519081900360640190fd5b611d46611c2a565b611d97576040805162461bcd60e51b815260206004820152601d60248201527f6e6f206d696e696d756d20726169736520686173206265656e20736574000000604482015290519081900360640190fd5b611d9f613b9b565b611df0576040805162461bcd60e51b815260206004820152601e60248201527f6d696e696d756d20726169736520686173206265656e20726561636865640000604482015290519081900360640190fd5b6000601b8281548110611dff57fe5b906000526020600020906004020190506000816001015411611e68576040805162461bcd60e51b815260206004820152601760248201527f707572636861736520616d6f756e74206973207a65726f000000000000000000604482015290519081900360640190fd5b8054600160d01b900460ff1615611ebe576040805162461bcd60e51b81526020600482015260156024820152741c1d5c98da185cd9481a5cc8199a5b985b1a5e9959605a1b604482015290519081900360640190fd5b805460ff60d81b1960ff60d01b19909116600160d01b1716600160d81b178155611ee6611b13565b15611f21576002810154604051339180156108fc02916000818181858888f19350505050158015611f1b573d6000803e3d6000fd5b50611c0e565b6002810154600e54611c0e916001600160a01b03909116903390614e96565b73ffa98a091331df4600f87c9164cd27e8a5cd240581565b60105460ff1681565b611f6c6000336143b4565b611fab576040805162461bcd60e51b81526020600482015260196024820152600080516020615cf5833981519152604482015290519081900360640190fd5b611fb3613034565b15611ff8576040805162461bcd60e51b815260206004820152601060248201526f14185d5cd8589b194e881c185d5cd95960821b604482015290519081900360640190fd5b612000612e95565b61204c576040805162461bcd60e51b81526020600482015260186024820152771cd85b19481a185cc81d1bc8189948199a5b985b1a5e995960421b604482015290519081900360640190fd5b612054614635565b6120a1576040805162461bcd60e51b81526020600482015260196024820152781b5a5b9a5b5d5b481c985a5cd9481b9bdd081c995858da1959603a1b604482015290519081900360640190fd5b6120a9611b13565b1561214a5773aeb39b67f27b641ef9f95fb74f1a46b1ee4efc836001600160a01b03166108fc6120ef60646120e9600f5447614e1390919063ffffffff16565b90614eed565b6040518115909202916000818181858888f19350505050158015612117573d6000803e3d6000fd5b5060405133904780156108fc02916000818181858888f19350505050158015612144573d6000803e3d6000fd5b50612290565b600f54600e54604080516370a0823160e01b815230600482015290516122009373aeb39b67f27b641ef9f95fb74f1a46b1ee4efc83936121ed936064936120e993926001600160a01b0316916370a08231916024808301926020929190829003018186803b1580156121bb57600080fd5b505afa1580156121cf573d6000803e3d6000fd5b505050506040513d60208110156121e557600080fd5b505190614e13565b600e546001600160a01b03169190614e96565b600e54604080516370a0823160e01b815230600482015290516122909233926001600160a01b03909116916370a0823191602480820192602092909190829003018186803b15801561225157600080fd5b505afa158015612265573d6000803e3d6000fd5b505050506040513d602081101561227b57600080fd5b5051600e546001600160a01b03169190614e96565b565b6000818152600160205260409020600201545b919050565b60175481565b601b541190565b601054600090610100900460ff166122d1575060016122a5565b600a546001600160a01b0316156123f457600b54600a54604080516370a0823160e01b81526001600160a01b038681166004830152915191909216916370a08231916024808301926020929190829003018186803b15801561233257600080fd5b505afa158015612346573d6000803e3d6000fd5b505050506040513d602081101561235c57600080fd5b50511061236b575060016122a5565b600c54600a546040805163f6a3f3cf60e01b81526001600160a01b0386811660048301529151919092169163f6a3f3cf916024808301926020929190829003018186803b1580156123bb57600080fd5b505afa1580156123cf573d6000803e3d6000fd5b505050506040513d60208110156123e557600080fd5b5051106123f4575060016122a5565b506000919050565b60035481565b601254421090565b60008281526001602052604090206002015461242d90612428614f54565b6143b4565b6124685760405162461bcd60e51b815260040180806020018281038252602f815260200180615adb602f913960400191505060405180910390fd5b611c0e8282614f58565b61247b82614d88565b6124c3576040805162461bcd60e51b815260206004820152601460248201527320b2323932b9b99034b9903737ba10313abcb2b960611b604482015290519081900360640190fd5b6000806124cf846129fb565b915091506000821181906125615760405162461bcd60e51b81526004018080602001828103825283818151815260200191508051906020019080838360005b8381101561252657818101518382015260200161250e565b50505050905090810190601f1680156125535780820380516001836020036101000a031916815260200191505b509250505060405180910390fd5b506000601b858154811061257157fe5b90600052602060002090600402016001015490506000601b868154811061259457fe5b9060005260206000209060040201600301549050816125bc8583614db990919063ffffffff16565b11156125f95760405162461bcd60e51b8152600401808060200182810382526044815260200180615c3b6044913960600191505060405180910390fd5b816126048286614db9565b1415612644576001601b878154811061261957fe5b600091825260209091206004909102018054911515600160d01b0260ff60d01b199092169190911790555b61264e8185614db9565b601b878154811061265b57fe5b60009182526020909120600360049092020101558461269057600d5461268b906001600160a01b03163386614e96565b612760565b6009546001600160a01b03166126d75760405162461bcd60e51b8152600401808060200182810382526021815260200180615d156021913960400191505060405180910390fd5b600d546009546126f4916001600160a01b03908116911686614fc1565b60095460408051638b1e31c760e01b81526004810187905233602482015290516001600160a01b0390921691638b1e31c79160448082019260009290919082900301818387803b15801561274757600080fd5b505af115801561275b573d6000803e3d6000fd5b505050505b505050505050565b600a546001600160a01b031681565b61277f614f54565b6001600160a01b0316816001600160a01b0316146127ce5760405162461bcd60e51b815260040180806020018281038252602f815260200180615d36602f913960400191505060405180910390fd5b611c0e82826150ac565b60008060008060008060006127ec886122b0565b61283a576040805162461bcd60e51b815260206004820152601a6024820152791c1d5c98da185cd957da5908191bd95cc81b9bdd08195e1a5cdd60321b604482015290519081900360640190fd5b6000601b898154811061284957fe5b60009182526020918290206040805160e08101825260049390930290910180546001600160a01b03811680855265ffffffffffff600160a01b83041695850186905260ff600160d01b830481161515948601859052600160d81b909204909116151560608501819052600183015460808601819052600284015460a0870181905260039094015460c09096018690529f919e50919c50939a509098509650945092505050565b6128fa6000336143b4565b612939576040805162461bcd60e51b81526020600482015260196024820152600080516020615cf5833981519152604482015290519081900360640190fd5b80421061298d576040805162461bcd60e51b815260206004820181905260248201527f656e6420646174652068617320746f20626520696e2074686520667574757265604482015290519081900360640190fd5b80601254106129e3576040805162461bcd60e51b815260206004820152601a60248201527f656e642064617465206265666f72652073746172742064617465000000000000604482015290519081900360640190fd5b601355565b60006129f5600583614e81565b92915050565b60006060612a08836122b0565b612a4757505060408051808201909152601a8152791c1d5c98da185cd957da5908191bd95cc81b9bdd08195e1a5cdd60321b6020820152600090612e2d565b60105460ff1615612a9057505060408051808201909152601981527f68617320746f206265206e6f6e2041746f6d69632073776170000000000000006020820152600090612e2d565b612a98612e95565b612ada57505060408051808201909152601881527f746f6b656e2073616c65206e6f742066696e616c697a656400000000000000006020820152600090612e2d565b612ae2613034565b15612b2557505060408051808201909152601d81527f746f6b656e2073616c6520636f6e7472616374206973207061757365640000006020820152600090612e2d565b612b2d613b9b565b15612b6c5750506040805180820190915260198152781b5a5b9a5b5d5b481c985a5cd9481b9bdd081c995858da1959603a1b6020820152600090612e2d565b6000601b8481548110612b7b57fe5b90600052602060002090600402016001015490506000601b8581548110612b9e57fe5b9060005260206000209060040201600301549050818110612bfc5760006040518060400160405280601a81526020017f616c6c20746f6b656e20616c72656164792072656465656d6564000000000000815250935093505050612e2d565b601754421015612c495760006040518060400160405280601e81526020017f76657374696e6720706572696f64206e6f742079657420737461727465640000815250935093505050612e2d565b601854601754612c5891614db9565b421015612ca25760006040518060400160405280601d81526020017f76657374696e6720636c696666206e6f74207965742072656163686564000000815250935093505050612e2d565b601a54600090612d095742612cc4601954601754614db990919063ffffffff16565b11612cda57612cd38383615115565b9050612d04565b612d0182612cfb6019546120e9601754420388614e1390919063ffffffff16565b90615115565b90505b612dc2565b6000601954601754420381612d1a57fe5b601a5491900491508110612d3957612d328484615115565b9150612dc0565b6000612d7164e8d4a510006064026120e9601a8581548110612d5757fe5b906000526020600020015488614e1390919063ffffffff16565b905083811015612db25760405162461bcd60e51b815260040180806020018281038252602c815260200180615c7f602c913960400191505060405180910390fd5b612dbc8185615115565b9250505b505b8015612dfd57806040518060400160405280600f81526020016e726561647920746f2072656465656d60881b81525094509450505050612e2d565b6040805180820190915260118152706e6f7468696e6720746f2072656465656d60781b6020820152909450925050505b915091565b6060612e3e6007615172565b905090565b612e4e6000336143b4565b612e8d576040805162461bcd60e51b81526020600482015260196024820152600080516020615cf5833981519152604482015290519081900360640190fd5b612290615212565b60135442101590565b612eb6600080516020615cab833981519152336143b4565b612ef5576040805162461bcd60e51b815260206004820152601c6024820152600080516020615bd8833981519152604482015290519081900360640190fd5b612f00600782614e6c565b15612f3a576040516001600160a01b038216907ff9b68063b051b82957fa193585681240904fed808db8b30fc5a2d2202c6ed62790600090a25b50565b60125442101590565b6000612f50612f3d565b8015612e3e5750612f5f612e95565b15905090565b612f7d600080516020615cab833981519152336143b4565b612fbc576040805162461bcd60e51b815260206004820152601c6024820152600080516020615bd8833981519152604482015290519081900360640190fd5b612fc76007826152b2565b15612f3a576040516001600160a01b038216907f2b6bf71b58b3583add364b3d9060ebf8019650f65f5be35f5464b9cb3e4ba2d490600090a250565b601d602052816000526040600020818154811061301f57600080fd5b90600052602060002001600091509150505481565b60005460ff1690565b613045613034565b1561308a576040805162461bcd60e51b815260206004820152601060248201526f14185d5cd8589b194e881c185d5cd95960821b604482015290519081900360640190fd5b60105462010000900460ff166130e7576040805162461bcd60e51b815260206004820152601860248201527f746f6b656e2073616c65206973206e6f742066756e6465640000000000000000604482015290519081900360640190fd5b6130ef612f46565b613136576040805162461bcd60e51b815260206004820152601360248201527239b0b632903430b9903a379031329037b832b760691b604482015290519081900360640190fd5b6000613141336122b7565b613192576040805162461bcd60e51b815260206004820181905260248201527f61646472657373206e6f742077686974656c697374656420666f7220504f4c53604482015290519081900360640190fd5b600061319f3385856144a2565b9050600081116131e6576040805162461bcd60e51b815260206004820152600d60248201526c37379030b63637b1b0ba34b7b760991b604482015290519081900360640190fd5b6131ee611b13565b1561324e573491506131ff8561410b565b821015613249576040805162461bcd60e51b81526020600482015260136024820152721b9bdd08195b9bdd59da08115512081cd95b9d606a1b604482015290519081900360640190fd5b613272565b6132578561410b565b600e54909250613272906001600160a01b03163330856152c7565b61327a61462b565b8511156132ce576040805162461bcd60e51b815260206004820152601960248201527f616d6f756e74203e20746f6b656e7320617661696c61626c6500000000000000604482015290519081900360640190fd5b600354851015613325576040805162461bcd60e51b815260206004820152601760248201527f616d6f756e74203c206d696e696d756d20616d6f756e74000000000000000000604482015290519081900360640190fd5b8085111561337a576040805162461bcd60e51b815260206004820152601760248201527f616d6f756e74203e206d6178696d756d20616d6f756e74000000000000000000604482015290519081900360640190fd5b336000908152601d60209081526040808320805482518185028101850190935280835291929091908301828280156133d157602002820191906000526020600020905b8154815260200190600101908083116133bd575b505050505090506000805b825181101561343357613429601b8483815181106133f657fe5b60200260200101518154811061340857fe5b90600052602060002090600402016001015483614db990919063ffffffff16565b91506001016133dc565b508261343f8289614db9565b1115613492576040805162461bcd60e51b815260206004820152601f60248201527f616d6f756e7420676f6573206f76657220696e646976696475616c206d617800604482015290519081900360640190fd5b60105460ff16156134b457600d546134b4906001600160a01b03163389614e96565b601b6040518060e00160405280336001600160a01b031681526020016134d942615321565b65ffffffffffff908116825260105460ff1615156020808401919091526000604080850182905260608086018f905260808087018d905260a0968701849052885460018181018b55998552858520895160049092020180548a8801518b870151958c01511515600160d81b0260ff60d81b19961515600160d01b0260ff60d01b1992909b16600160a01b0265ffffffffffff60a01b196001600160a01b039096166001600160a01b03199485161795909516949094171698909817939093161782558701518189015594860151600286015560c09095015160039094019390935533808452601d8252938320601b548154808801835591855291842060001992909201910155601c805494850181559091527f0e4562a10381dec21b205ed72637e6b1b523bdd0e4d4d50af5cd23dd4500a21190920180549092161790556015546136249088614db9565b60155560408051888152426020820152815133927fbec109f7ee137de661c6887caa96653c0545050a9908a3b6eb5190440bbec864928290030190a250505050505050565b60115481565b61367a6000336143b4565b6136b9576040805162461bcd60e51b81526020600482015260196024820152600080516020615cf5833981519152604482015290519081900360640190fd5b60175415806136c9575060175442105b61371a576040805162461bcd60e51b815260206004820152601760248201527f76657374696e6720616c72656164792073746172746564000000000000000000604482015290519081900360640190fd5b6013548385011015613773576040805162461bcd60e51b815260206004820152601b60248201527f76657374696e67436c696666206265666f726520656e64446174650000000000604482015290519081900360640190fd5b818311156137c8576040805162461bcd60e51b815260206004820152601e60248201527f76657374696e67436c696666203e2076657374696e674475726174696f6e0000604482015290519081900360640190fd5b6312cff7806137f582516000146137eb5782516137e6906001614db9565b6137ee565b60015b8490614e13565b10613847576040805162461bcd60e51b815260206004820152601d60248201527f746f74616c2076657374696e672074696d65203e203130207965617273000000604482015290519081900360640190fd5b601784905560188390556019829055613862601a6000615a8a565b60018151106139ef57600082116138aa5760405162461bcd60e51b8152600401808060200182810382526034815260200180615b0a6034913960400191505060405180910390fd5b6000816000815181106138b957fe5b6020026020010151905064e8d4a51000606402811061391f576040805162461bcd60e51b815260206004820152601c60248201527f66697273742076657374696e6720706572696f64203e3d203130302500000000604482015290519081900360640190fd5b601a8054600181810183556000929092527f057c384a7d1c54f3a1b2e5e67b2617b8224fdfd1ea7234eea573a6ff665ff63e018290555b82518110156127605761399f83828151811061396e57fe5b6020026020010151601a600184038154811061398657fe5b9060005260206000200154614db990919063ffffffff16565b9150655af3107a400082106139b357612760565b601a8054600181810183556000929092527f057c384a7d1c54f3a1b2e5e67b2617b8224fdfd1ea7234eea573a6ff665ff63e0183905501613956565b50505050565b600d54604080516370a0823160e01b815230600482015290516000926001600160a01b0316916370a08231916024808301926020929190829003018186803b158015613a4057600080fd5b505afa158015613a54573d6000803e3d6000fd5b505050506040513d6020811015613a6a57600080fd5b5051905090565b6060612e3e6005615172565b613a95600080516020615cab833981519152336143b4565b613ad4576040805162461bcd60e51b815260206004820152601c6024820152600080516020615bd8833981519152604482015290519081900360640190fd5b60028054821515600160a01b810260ff60a01b199092169190911790915560408051918252517fe905f7f52156c346547b9deb6fb3e2459db941ec55d073fd465129bf4b49fae69181900360200190a150565b613b326000336143b4565b613b71576040805162461bcd60e51b81526020600482015260196024820152600080516020615cf5833981519152604482015290519081900360640190fd5b600980546001600160a01b0319166001600160a01b0392909216919091179055565b600354151590565b6014546015541090565b60408051606085811b6bffffffffffffffffffffffff1916602080840191909152603483018690523090911b60548301528251808303604801815260689092019092528051910120600254600091906001600160a01b0316613c078285613cda565b6001600160a01b0316149150505b9392505050565b60155481565b613c2d6000336143b4565b613c6c576040805162461bcd60e51b81526020600482015260196024820152600080516020615cf5833981519152604482015290519081900360640190fd5b613c74613034565b612200576040805162461bcd60e51b815260206004820152601460248201527314185d5cd8589b194e881b9bdd081c185d5cd95960621b604482015290519081900360640190fd5b600d546001600160a01b031681565b6009546001600160a01b031681565b60008151604114613d32576040805162461bcd60e51b815260206004820152601960248201527f7369676e6174757265206973206e6f7420363520627974657300000000000000604482015290519081900360640190fd5b613c1582613d3f85615382565b906153d3565b64e8d4a5100081565b613d596000336143b4565b613d98576040805162461bcd60e51b81526020600482015260196024820152600080516020615cf5833981519152604482015290519081900360640190fd5b804210613dd65760405162461bcd60e51b8152600401808060200182810382526022815260200180615b3e6022913960400191505060405180910390fd5b6013548110613e2c576040805162461bcd60e51b815260206004820152601a60248201527f656e642064617465206265666f72652073746172742064617465000000000000604482015290519081900360640190fd5b601255565b601b8181548110613e4157600080fd5b600091825260209091206004909102018054600182015460028301546003909301546001600160a01b038316945065ffffffffffff600160a01b8404169360ff600160d01b8504811694600160d81b900416929187565b613ea36000336143b4565b613ee2576040805162461bcd60e51b81526020600482015260196024820152600080516020615cf5833981519152604482015290519081900360640190fd5b612290615453565b613ef56000336143b4565b613f34576040805162461bcd60e51b81526020600482015260196024820152600080516020615cf5833981519152604482015290519081900360640190fd5b613f3c613034565b613f84576040805162461bcd60e51b815260206004820152601460248201527314185d5cd8589b194e881b9bdd081c185d5cd95960621b604482015290519081900360640190fd5b600d54604080516370a0823160e01b815230600482015290516122909233926001600160a01b03909116916370a0823191602480820192602092909190829003018186803b158015613fd557600080fd5b505afa158015613fe9573d6000803e3d6000fd5b505050506040513d6020811015613fff57600080fd5b5051600d546001600160a01b03169190614e96565b600060175442101561402857506000611b21565b60195461403757506001611b21565b60195460175442038161404657fe5b04600101905090565b614067600080516020615cab833981519152336143b4565b6140a6576040805162461bcd60e51b815260206004820152601c6024820152600080516020615bd8833981519152604482015290519081900360640190fd5b6140b16005826152b2565b15612f3a576040516001600160a01b038216907fcdd2e9b91a56913d370075169cefa1602ba36be5301664f752192bb1709df75790600090a250565b60145481565b6000828152600160205260408120613c1590836154d6565b60006129f5600d60009054906101000a90046001600160a01b03166001600160a01b031663313ce5676040518163ffffffff1660e01b815260040160206040518083038186803b15801561415e57600080fd5b505afa158015614172573d6000803e3d6000fd5b505050506040513d602081101561418857600080fd5b505160115460ff909116600a0a906120e9908590614e13565b6141ac6000336143b4565b6141eb576040805162461bcd60e51b81526020600482015260196024820152600080516020615cf5833981519152604482015290519081900360640190fd5b6141f3612e95565b61423f576040805162461bcd60e51b81526020600482015260186024820152771cd85b19481a185cc81d1bc8189948199a5b985b1a5e995960421b604482015290519081900360640190fd5b600d546001600160a01b03838116911614156142a2576040805162461bcd60e51b815260206004820152601b60248201527f746f6b656e2069732074686520746f6b656e20666f722073616c650000000000604482015290519081900360640190fd5b600e546001600160a01b0383811691161415614305576040805162461bcd60e51b815260206004820152601b60248201527f746f6b656e206973207468652074726164652d696e20746f6b656e0000000000604482015290519081900360640190fd5b611c0e81836001600160a01b03166370a08231306040518263ffffffff1660e01b815260040180826001600160a01b0316815260200191505060206040518083038186803b15801561435657600080fd5b505afa15801561436a573d6000803e3d6000fd5b505050506040513d602081101561438057600080fd5b50516001600160a01b0385169190614e96565b601a81815481106143a357600080fd5b600091825260209091200154905081565b6000828152600160205260408120613c159083614e81565b6010546301000000900460ff1681565b6143e76000336143b4565b614426576040805162461bcd60e51b81526020600482015260196024820152600080516020615cf5833981519152604482015290519081900360640190fd5b61442e613034565b614476576040805162461bcd60e51b815260206004820152601460248201527314185d5cd8589b194e881b9bdd081c185d5cd95960621b604482015290519081900360640190fd5b60405133904780156108fc02916000818181858888f19350505050158015612f3a573d6000803e3d6000fd5b60006144ad84614d7b565b156144ba57506000613c15565b600254600160a01b900460ff1615806144d757506144d7846129e8565b156144e55750600454613c15565b6002546001600160a01b0316158015906145055750614505848484613ba5565b15614521578215614516578261451a565b6004545b9050613c15565b5060009392505050565b614543600080516020615cab833981519152336143b4565b614582576040805162461bcd60e51b815260206004820152601c6024820152600080516020615bd8833981519152604482015290519081900360640190fd5b6000805b82518110156145ca576145b683828151811061459e57fe5b60200260200101516007614e6c90919063ffffffff16565b156145c2576001909101905b600101614586565b508015611c0e576040805182815290517fc2f03ca34d335e49d4d629b85db054d1ffb679b4fec2e06fe10d0e618b175ecb9181900360200190a15050565b600f5481565b601b5490565b600081565b612f3a816000612472565b622f4d6090565b6015546016540390565b601454601554101590565b614658600080516020615cab833981519152336143b4565b614697576040805162461bcd60e51b815260206004820152601c6024820152600080516020615bd8833981519152604482015290519081900360640190fd5b600280546001600160a01b0319166001600160a01b0392909216919091179055565b6002546001600160a01b031681565b611c0e8260008361303d565b7383e6f1e41cdd28eaceb20cb649155049fac3d5aa81565b600e546001600160a01b031681565b60135481565b6001600160a01b0381166000908152601d602090815260409182902080548351818402810184019094528084526060939283018282801561476157602002820191906000526020600020905b81548152602001906001019080831161474d575b50505050509050919050565b601a5460009061477f57506000611b21565b50601a5460010190565b6147946000336143b4565b6147d3576040805162461bcd60e51b81526020600482015260196024820152600080516020615cf5833981519152604482015290519081900360640190fd5b6147db612e95565b614827576040805162461bcd60e51b81526020600482015260186024820152771cd85b19481a185cc81d1bc8189948199a5b985b1a5e995960421b604482015290519081900360640190fd5b6010546301000000900460ff161561483e57600080fd5b6000614848613b9b565b156148565750601654614868565b60155460165461486591615115565b90505b8015612f3a576010805463ff00000019166301000000179055600d54612f3a906001600160a01b03163383614e96565b60008181526001602052604081206129f5906154e2565b6148b7612402565b614908576040805162461bcd60e51b815260206004820152601a60248201527f6e6f74206265666f72652073746172742074696d652f64617465000000000000604482015290519081900360640190fd5b60165461491d826149176139f5565b90614db9565b1115614970576040805162461bcd60e51b815260206004820181905260248201527f6d6f726520746f6b656e73207468616e206e656564656420666f722073616c65604482015290519081900360640190fd5b600d54614988906001600160a01b03163330846152c7565b612f3a614c4f565b601054610100900460ff1681565b6000828152600160205260409020600201546149bc90612428614f54565b6127ce5760405162461bcd60e51b8152600401808060200182810382526030815260200180615ba86030913960400191505060405180910390fd5b60008060006060614a07856122b0565b614a4c57505060408051808201909152601a8152791c1d5c98da185cd957da5908191bd95cc81b9bdd08195e1a5cdd60321b6020820152600092508291508190614a9d565b601b8581548110614a5957fe5b9060005260206000209060040201600101549350601b8581548110614a7a57fe5b9060005260206000209060040201600301549250614a97856129fb565b90925090505b9193509193565b614abc600080516020615cab833981519152336143b4565b614afb576040805162461bcd60e51b815260206004820152601c6024820152600080516020615bd8833981519152604482015290519081900360640190fd5b600354811015614b52576040805162461bcd60e51b815260206004820152601b60248201527f696e646976696475616c206d6178203c206d696e20616d6f756e740000000000604482015290519081900360640190fd5b600455565b60045481565b614b75600080516020615cab833981519152336143b4565b614bb4576040805162461bcd60e51b815260206004820152601c6024820152600080516020615bd8833981519152604482015290519081900360640190fd5b614bbf600582614e6c565b15612f3a576040516001600160a01b038216907fa850ae9193f515cbae8d35e8925bd2be26627fc91bce650b8652ed254e9cab0390600090a250565b6002546000906001600160a01b0316614c148484613cda565b6001600160a01b0316149392505050565b600080516020615cab83398151915281565b73aeb39b67f27b641ef9f95fb74f1a46b1ee4efc8381565b614c57612402565b614ca8576040805162461bcd60e51b815260206004820152601a60248201527f6e6f74206265666f72652073746172742074696d652f64617465000000000000604482015290519081900360640190fd5b601654614cb36139f5565b10612290576010805462ff0000191662010000179055565b6000612e3e60165461410b565b600c5481565b601c8181548110614cee57600080fd5b6000918252602090912001546001600160a01b0316905081565b60185481565b6060601c805480602002602001604051908101604052809291908181526020018280548015614d6657602002820191906000526020600020905b81546001600160a01b03168152600190910190602001808311614d48575b5050505050905090565b6060612e3e33614701565b60006129f5600783614e81565b6000601b8281548110614d9757fe5b60009182526020909120600490910201546001600160a01b0316331492915050565b600082820183811015613c15576040805162461bcd60e51b815260206004820152601b60248201527f536166654d6174683a206164646974696f6e206f766572666c6f770000000000604482015290519081900360640190fd5b600082614e22575060006129f5565b82820282848281614e2f57fe5b0414613c155760405162461bcd60e51b8152600401808060200182810382526021815260200180615c1a6021913960400191505060405180910390fd5b6000613c15836001600160a01b0384166154ed565b6000613c15836001600160a01b038416615537565b604080516001600160a01b038416602482015260448082018490528251808303909101815260649091019091526020810180516001600160e01b031663a9059cbb60e01b179052614ee890849061554f565b505050565b6000808211614f43576040805162461bcd60e51b815260206004820152601a60248201527f536166654d6174683a206469766973696f6e206279207a65726f000000000000604482015290519081900360640190fd5b818381614f4c57fe5b049392505050565b3390565b6000828152600160205260409020614f709082614e6c565b15611c0e57614f7d614f54565b6001600160a01b0316816001600160a01b0316837f2f8788117e7eff1d82e926ec794901d17c78024a50270940304540a733656f0d60405160405180910390a45050565b600061505782856001600160a01b031663dd62ed3e30876040518363ffffffff1660e01b815260040180836001600160a01b03168152602001826001600160a01b031681526020019250505060206040518083038186803b15801561502557600080fd5b505afa158015615039573d6000803e3d6000fd5b505050506040513d602081101561504f57600080fd5b505190614db9565b604080516001600160a01b038616602482015260448082018490528251808303909101815260649091019091526020810180516001600160e01b031663095ea7b360e01b1790529091506139ef90859061554f565b60008281526001602052604090206150c490826152b2565b15611c0e576150d1614f54565b6001600160a01b0316816001600160a01b0316837ff6391f5c32d9c69d2a47ea670b442974b53935d1edc7fd64eb21e047a839171b60405160405180910390a45050565b60008282111561516c576040805162461bcd60e51b815260206004820152601e60248201527f536166654d6174683a207375627472616374696f6e206f766572666c6f770000604482015290519081900360640190fd5b50900390565b6060600061517f836154e2565b67ffffffffffffffff8111801561519557600080fd5b506040519080825280602002602001820160405280156151bf578160200160208202803683370190505b50905060005b6151ce846154e2565b81101561520b576151df84826154d6565b8282815181106151eb57fe5b6001600160a01b03909216602092830291909101909101526001016151c5565b5092915050565b61521a613034565b615262576040805162461bcd60e51b815260206004820152601460248201527314185d5cd8589b194e881b9bdd081c185d5cd95960621b604482015290519081900360640190fd5b6000805460ff191690557f5db9ee0a495bf2e6ff9c91a7834c1ba4fdd244a5e8aa4e537bd38aeae4b073aa615295614f54565b604080516001600160a01b039092168252519081900360200190a1565b6000613c15836001600160a01b038416615600565b604080516001600160a01b0380861660248301528416604482015260648082018490528251808303909101815260849091019091526020810180516001600160e01b03166323b872dd60e01b1790526139ef90859061554f565b60006601000000000000821061537e576040805162461bcd60e51b815260206004820152601c60248201527f76616c756520646f65736e27742066697420696e203438206269747300000000604482015290519081900360640190fd5b5090565b604080517f19457468657265756d205369676e6564204d6573736167653a0a333200000000602080830191909152603c8083019490945282518083039094018452605c909101909152815191012090565b6000815160411461542b576040805162461bcd60e51b815260206004820152601f60248201527f45434453413a20696e76616c6964207369676e6174757265206c656e67746800604482015290519081900360640190fd5b60208201516040830151606084015160001a615449868285856156c6565b9695505050505050565b61545b613034565b156154a0576040805162461bcd60e51b815260206004820152601060248201526f14185d5cd8589b194e881c185d5cd95960821b604482015290519081900360640190fd5b6000805460ff191660011790557f62e78cea01bee320cd4e420270b5ea74000d11b0c9f74754ebdbfc544b05a258615295614f54565b6000613c158383615844565b60006129f5826158a8565b60006154f98383615537565b61552f575081546001818101845560008481526020808220909301849055845484825282860190935260409020919091556129f5565b5060006129f5565b60009081526001919091016020526040902054151590565b60006155a4826040518060400160405280602081526020017f5361666545524332303a206c6f772d6c6576656c2063616c6c206661696c6564815250856001600160a01b03166158ac9092919063ffffffff16565b805190915015614ee8578080602001905160208110156155c357600080fd5b5051614ee85760405162461bcd60e51b815260040180806020018281038252602a815260200180615ccb602a913960400191505060405180910390fd5b600081815260018301602052604081205480156156bc578354600019808301919081019060009087908390811061563357fe5b906000526020600020015490508087600001848154811061565057fe5b60009182526020808320909101929092558281526001898101909252604090209084019055865487908061568057fe5b600190038181906000526020600020016000905590558660010160008781526020019081526020016000206000905560019450505050506129f5565b60009150506129f5565b60007f7fffffffffffffffffffffffffffffff5d576e7357a4501ddfe92f46681b20a08211156157275760405162461bcd60e51b8152600401808060200182810382526022815260200180615b606022913960400191505060405180910390fd5b8360ff16601b148061573c57508360ff16601c145b6157775760405162461bcd60e51b8152600401808060200182810382526022815260200180615bf86022913960400191505060405180910390fd5b600060018686868660405160008152602001604052604051808581526020018460ff1681526020018381526020018281526020019450505050506020604051602081039080840390855afa1580156157d3573d6000803e3d6000fd5b5050604051601f1901519150506001600160a01b03811661583b576040805162461bcd60e51b815260206004820152601860248201527f45434453413a20696e76616c6964207369676e61747572650000000000000000604482015290519081900360640190fd5b95945050505050565b815460009082106158865760405162461bcd60e51b8152600401808060200182810382526022815260200180615ab96022913960400191505060405180910390fd5b82600001828154811061589557fe5b9060005260206000200154905092915050565b5490565b60606158bb84846000856158c3565b949350505050565b6060824710156159045760405162461bcd60e51b8152600401808060200182810382526026815260200180615b826026913960400191505060405180910390fd5b61590d85615a1e565b61595e576040805162461bcd60e51b815260206004820152601d60248201527f416464726573733a2063616c6c20746f206e6f6e2d636f6e7472616374000000604482015290519081900360640190fd5b600080866001600160a01b031685876040518082805190602001908083835b6020831061599c5780518252601f19909201916020918201910161597d565b6001836020036101000a03801982511681845116808217855250505050505090500191505060006040518083038185875af1925050503d80600081146159fe576040519150601f19603f3d011682016040523d82523d6000602084013e615a03565b606091505b5091509150615a13828286615a24565b979650505050505050565b3b151590565b60608315615a33575081613c15565b825115615a435782518084602001fd5b60405162461bcd60e51b815260206004820181815284516024840152845185939192839260440191908501908083836000831561252657818101518382015260200161250e565b5080546000825590600052602060002090810190612f3a91905b8082111561537e5760008155600101615aa456fe456e756d657261626c655365743a20696e646578206f7574206f6620626f756e6473416363657373436f6e74726f6c3a2073656e646572206d75737420626520616e2061646d696e20746f206772616e7476657374696e6720696e74657276616c6c732070726f76696465642c206275742076657374696e674475726174696f6e203d2030737461727420646174652068617320746f20626520696e207468652066757475726545434453413a20696e76616c6964207369676e6174757265202773272076616c7565416464726573733a20696e73756666696369656e742062616c616e636520666f722063616c6c416363657373436f6e74726f6c3a2073656e646572206d75737420626520616e2061646d696e20746f207265766f6b6563616c6c6572206973206e6f742057686974656c6973744f776e65720000000045434453413a20696e76616c6964207369676e6174757265202776272076616c7565536166654d6174683a206d756c7469706c69636174696f6e206f766572666c6f77494e5445524e414c204552524f52203a20616d6f756e7452656465656d656420776f756c64206265206c6172676572207468656e20707572636861736520616d6f756e74494e5445524e414c204552524f5220696e2076657374696e6720616d6f756e742063616c63756c6174696f6eb813b807c25079ba97f1770664c6a9e57c59afe74a6295f1ed01c10e3bb6baae5361666545524332303a204552433230206f7065726174696f6e20646964206e6f74207375636365656463616c6c657220686173206e6f742061646d696e20726f6c65000000000000004e6f2049444f207374616b696e6720636f6e747261637420617661696c61626c65416363657373436f6e74726f6c3a2063616e206f6e6c792072656e6f756e636520726f6c657320666f722073656c66a2646970667358221220fd7bb9b14754f7d57c91c80b8fff3dfc8ea58f85090334aab29f9594b8990c3364736f6c6343000706003376657374696e6720696e74657276616c6c732070726f76696465642c206275742076657374696e674475726174696f6e203d2030057c384a7d1c54f3a1b2e5e67b2617b8224fdfd1ea7234eea573a6ff665ff63e536166654d6174683a206d756c7469706c69636174696f6e206f766572666c6f77b813b807c25079ba97f1770664c6a9e57c59afe74a6295f1ed01c10e3bb6baae",
  "linkReferences": {},
  "deployedLinkReferences": {}
}