{
  "_format": "hh-sol-artifact-1",
  "contractName": "FixedSwap",
  "sourceName": "contracts/FixedSwap.sol",
  "abi": [
    {
      "inputs": [
        {
          "internalType": "address",
          "name": "_tokenAddress",
          "type": "address"
        },
        {
          "internalType": "uint256",
          "name": "_tradeValue",
          "type": "uint256"
        },
        {
          "internalType": "uint256",
          "name": "_tokensForSale",
          "type": "uint256"
        },
        {
          "internalType": "uint256",
          "name": "_startDate",
          "type": "uint256"
        },
        {
          "internalType": "uint256",
          "name": "_endDate",
          "type": "uint256"
        },
        {
          "internalType": "uint256",
          "name": "_ignored_05",
          "type": "uint256"
        },
        {
          "internalType": "uint256",
          "name": "_individualMaximumAmount",
          "type": "uint256"
        },
        {
          "internalType": "bool",
          "name": "_ignored_07",
          "type": "bool"
        },
        {
          "internalType": "uint256",
          "name": "_minimumRaise",
          "type": "uint256"
        },
        {
          "internalType": "uint256",
          "name": "_feePercentage",
          "type": "uint256"
        },
        {
          "internalType": "uint32",
          "name": "_flags",
          "type": "uint32"
        },
        {
          "internalType": "address",
          "name": "_erc20TradeAddress",
          "type": "address"
        }
      ],
      "stateMutability": "nonpayable",
      "type": "constructor"
    },
    {
      "inputs": [],
      "name": "AccessControlBadConfirmation",
      "type": "error"
    },
    {
      "inputs": [
        {
          "internalType": "address",
          "name": "account",
          "type": "address"
        },
        {
          "internalType": "bytes32",
          "name": "neededRole",
          "type": "bytes32"
        }
      ],
      "name": "AccessControlUnauthorizedAccount",
      "type": "error"
    },
    {
      "inputs": [
        {
          "internalType": "address",
          "name": "target",
          "type": "address"
        }
      ],
      "name": "AddressEmptyCode",
      "type": "error"
    },
    {
      "inputs": [
        {
          "internalType": "address",
          "name": "account",
          "type": "address"
        }
      ],
      "name": "AddressInsufficientBalance",
      "type": "error"
    },
    {
      "inputs": [],
      "name": "ECDSAInvalidSignature",
      "type": "error"
    },
    {
      "inputs": [
        {
          "internalType": "uint256",
          "name": "length",
          "type": "uint256"
        }
      ],
      "name": "ECDSAInvalidSignatureLength",
      "type": "error"
    },
    {
      "inputs": [
        {
          "internalType": "bytes32",
          "name": "s",
          "type": "bytes32"
        }
      ],
      "name": "ECDSAInvalidSignatureS",
      "type": "error"
    },
    {
      "inputs": [],
      "name": "EnforcedPause",
      "type": "error"
    },
    {
      "inputs": [],
      "name": "ExpectedPause",
      "type": "error"
    },
    {
      "inputs": [],
      "name": "FailedInnerCall",
      "type": "error"
    },
    {
      "inputs": [],
      "name": "ReentrancyGuardReentrantCall",
      "type": "error"
    },
    {
      "inputs": [
        {
          "internalType": "address",
          "name": "token",
          "type": "address"
        }
      ],
      "name": "SafeERC20FailedOperation",
      "type": "error"
    },
    {
      "anonymous": false,
      "inputs": [
        {
          "indexed": false,
          "internalType": "uint256",
          "name": "count",
          "type": "uint256"
        }
      ],
      "name": "AddedArrayToBlacklist",
      "type": "event"
    },
    {
      "anonymous": false,
      "inputs": [
        {
          "indexed": false,
          "internalType": "uint256",
          "name": "count",
          "type": "uint256"
        }
      ],
      "name": "AddedArrayToWhitelist",
      "type": "event"
    },
    {
      "anonymous": false,
      "inputs": [
        {
          "indexed": true,
          "internalType": "address",
          "name": "account",
          "type": "address"
        }
      ],
      "name": "AddedToBlacklist",
      "type": "event"
    },
    {
      "anonymous": false,
      "inputs": [
        {
          "indexed": true,
          "internalType": "address",
          "name": "account",
          "type": "address"
        }
      ],
      "name": "AddedToWhitelist",
      "type": "event"
    },
    {
      "anonymous": false,
      "inputs": [
        {
          "indexed": false,
          "internalType": "address",
          "name": "account",
          "type": "address"
        }
      ],
      "name": "Paused",
      "type": "event"
    },
    {
      "anonymous": false,
      "inputs": [
        {
          "indexed": false,
          "internalType": "uint256",
          "name": "amount",
          "type": "uint256"
        },
        {
          "indexed": true,
          "internalType": "address",
          "name": "purchaser",
          "type": "address"
        },
        {
          "indexed": false,
          "internalType": "uint256",
          "name": "timestamp",
          "type": "uint256"
        }
      ],
      "name": "PurchaseEvent",
      "type": "event"
    },
    {
      "anonymous": false,
      "inputs": [
        {
          "indexed": false,
          "internalType": "uint256",
          "name": "purchase_id",
          "type": "uint256"
        }
      ],
      "name": "PurchaseFinalized",
      "type": "event"
    },
    {
      "anonymous": false,
      "inputs": [
        {
          "indexed": false,
          "internalType": "uint256",
          "name": "purchase_id",
          "type": "uint256"
        }
      ],
      "name": "PurchaseReverted",
      "type": "event"
    },
    {
      "anonymous": false,
      "inputs": [
        {
          "indexed": true,
          "internalType": "uint256",
          "name": "purchase_id",
          "type": "uint256"
        },
        {
          "indexed": true,
          "internalType": "address",
          "name": "buyer",
          "type": "address"
        },
        {
          "indexed": false,
          "internalType": "uint256",
          "name": "refundAmount",
          "type": "uint256"
        },
        {
          "indexed": false,
          "internalType": "uint256",
          "name": "tokenAmount",
          "type": "uint256"
        }
      ],
      "name": "RefundIssued",
      "type": "event"
    },
    {
      "anonymous": false,
      "inputs": [
        {
          "indexed": true,
          "internalType": "address",
          "name": "to",
          "type": "address"
        },
        {
          "indexed": false,
          "internalType": "uint256",
          "name": "amount",
          "type": "uint256"
        }
      ],
      "name": "RefundPenaltyWithdrawn",
      "type": "event"
    },
    {
      "anonymous": false,
      "inputs": [
        {
          "indexed": false,
          "internalType": "uint256",
          "name": "refundPeriodStart",
          "type": "uint256"
        },
        {
          "indexed": false,
          "internalType": "uint256",
          "name": "refundPeriodEnd",
          "type": "uint256"
        },
        {
          "indexed": false,
          "internalType": "uint256",
          "name": "refundPercentage",
          "type": "uint256"
        }
      ],
      "name": "RefundPeriodSet",
      "type": "event"
    },
    {
      "anonymous": false,
      "inputs": [
        {
          "indexed": true,
          "internalType": "address",
          "name": "to",
          "type": "address"
        },
        {
          "indexed": false,
          "internalType": "uint256",
          "name": "amount",
          "type": "uint256"
        }
      ],
      "name": "RefundedTokensWithdrawn",
      "type": "event"
    },
    {
      "anonymous": false,
      "inputs": [
        {
          "indexed": true,
          "internalType": "address",
          "name": "account",
          "type": "address"
        }
      ],
      "name": "RemovedFromBlacklist",
      "type": "event"
    },
    {
      "anonymous": false,
      "inputs": [
        {
          "indexed": true,
          "internalType": "address",
          "name": "account",
          "type": "address"
        }
      ],
      "name": "RemovedFromWhitelist",
      "type": "event"
    },
    {
      "anonymous": false,
      "inputs": [
        {
          "indexed": true,
          "internalType": "bytes32",
          "name": "role",
          "type": "bytes32"
        },
        {
          "indexed": true,
          "internalType": "bytes32",
          "name": "previousAdminRole",
          "type": "bytes32"
        },
        {
          "indexed": true,
          "internalType": "bytes32",
          "name": "newAdminRole",
          "type": "bytes32"
        }
      ],
      "name": "RoleAdminChanged",
      "type": "event"
    },
    {
      "anonymous": false,
      "inputs": [
        {
          "indexed": true,
          "internalType": "bytes32",
          "name": "role",
          "type": "bytes32"
        },
        {
          "indexed": true,
          "internalType": "address",
          "name": "account",
          "type": "address"
        },
        {
          "indexed": true,
          "internalType": "address",
          "name": "sender",
          "type": "address"
        }
      ],
      "name": "RoleGranted",
      "type": "event"
    },
    {
      "anonymous": false,
      "inputs": [
        {
          "indexed": true,
          "internalType": "bytes32",
          "name": "role",
          "type": "bytes32"
        },
        {
          "indexed": true,
          "internalType": "address",
          "name": "account",
          "type": "address"
        },
        {
          "indexed": true,
          "internalType": "address",
          "name": "sender",
          "type": "address"
        }
      ],
      "name": "RoleRevoked",
      "type": "event"
    },
    {
      "anonymous": false,
      "inputs": [
        {
          "indexed": false,
          "internalType": "uint256",
          "name": "endDate",
          "type": "uint256"
        }
      ],
      "name": "SetEndDateEvent",
      "type": "event"
    },
    {
      "anonymous": false,
      "inputs": [
        {
          "indexed": false,
          "internalType": "bool",
          "name": "hasWhitelisting",
          "type": "bool"
        }
      ],
      "name": "SetHasWhitelisting",
      "type": "event"
    },
    {
      "anonymous": false,
      "inputs": [
        {
          "indexed": false,
          "internalType": "address",
          "name": "stakingRewardsAddress",
          "type": "address"
        }
      ],
      "name": "SetStakingRewardsEvent",
      "type": "event"
    },
    {
      "anonymous": false,
      "inputs": [
        {
          "indexed": false,
          "internalType": "uint256",
          "name": "startDate",
          "type": "uint256"
        }
      ],
      "name": "SetStartDateEvent",
      "type": "event"
    },
    {
      "anonymous": false,
      "inputs": [
        {
          "indexed": false,
          "internalType": "uint256",
          "name": "tradeValue",
          "type": "uint256"
        }
      ],
      "name": "SetTradeValueEvent",
      "type": "event"
    },
    {
      "anonymous": false,
      "inputs": [
        {
          "indexed": false,
          "internalType": "uint256",
          "name": "tgeAllocation",
          "type": "uint256"
        },
        {
          "indexed": false,
          "internalType": "uint256",
          "name": "tgeTime",
          "type": "uint256"
        },
        {
          "indexed": false,
          "internalType": "uint256",
          "name": "vestingStart",
          "type": "uint256"
        },
        {
          "indexed": false,
          "internalType": "uint256",
          "name": "vestingCliff",
          "type": "uint256"
        },
        {
          "indexed": false,
          "internalType": "uint256",
          "name": "vestingDuration",
          "type": "uint256"
        },
        {
          "indexed": false,
          "internalType": "uint256[]",
          "name": "vestingSchedule",
          "type": "uint256[]"
        }
      ],
      "name": "SetVestingEvent",
      "type": "event"
    },
    {
      "anonymous": false,
      "inputs": [
        {
          "indexed": false,
          "internalType": "address",
          "name": "account",
          "type": "address"
        }
      ],
      "name": "Unpaused",
      "type": "event"
    },
    {
      "inputs": [],
      "name": "DECIMALS_PERCENT_MUL",
      "outputs": [
        {
          "internalType": "uint256",
          "name": "",
          "type": "uint256"
        }
      ],
      "stateMutability": "view",
      "type": "function"
    },
    {
      "inputs": [],
      "name": "DEFAULT_ADMIN_ROLE",
      "outputs": [
        {
          "internalType": "bytes32",
          "name": "",
          "type": "bytes32"
        }
      ],
      "stateMutability": "view",
      "type": "function"
    },
    {
      "inputs": [],
      "name": "FEE_ADDRESS",
      "outputs": [
        {
          "internalType": "address",
          "name": "",
          "type": "address"
        }
      ],
      "stateMutability": "view",
      "type": "function"
    },
    {
      "inputs": [],
      "name": "MAX_TOTAL_VESTING_TIME",
      "outputs": [
        {
          "internalType": "uint256",
          "name": "",
          "type": "uint256"
        }
      ],
      "stateMutability": "view",
      "type": "function"
    },
    {
      "inputs": [],
      "name": "MINIMUM_REFUND_PERCENT",
      "outputs": [
        {
          "internalType": "uint256",
          "name": "",
          "type": "uint256"
        }
      ],
      "stateMutability": "view",
      "type": "function"
    },
    {
      "inputs": [],
      "name": "VERSION",
      "outputs": [
        {
          "internalType": "int32",
          "name": "",
          "type": "int32"
        }
      ],
      "stateMutability": "view",
      "type": "function"
    },
    {
      "inputs": [],
      "name": "WHITELIST_OWNER_ROLE",
      "outputs": [
        {
          "internalType": "bytes32",
          "name": "",
          "type": "bytes32"
        }
      ],
      "stateMutability": "view",
      "type": "function"
    },
    {
      "inputs": [
        {
          "internalType": "address[]",
          "name": "_addresses",
          "type": "address[]"
        }
      ],
      "name": "addArrayToBlacklist",
      "outputs": [],
      "stateMutability": "nonpayable",
      "type": "function"
    },
    {
      "inputs": [
        {
          "internalType": "address[]",
          "name": "_addresses",
          "type": "address[]"
        }
      ],
      "name": "addArrayToWhitelist",
      "outputs": [],
      "stateMutability": "nonpayable",
      "type": "function"
    },
    {
      "inputs": [
        {
          "internalType": "address",
          "name": "_address",
          "type": "address"
        }
      ],
      "name": "addToBlacklist",
      "outputs": [],
      "stateMutability": "nonpayable",
      "type": "function"
    },
    {
      "inputs": [
        {
          "internalType": "address",
          "name": "_address",
          "type": "address"
        }
      ],
      "name": "addToWhitelist",
      "outputs": [],
      "stateMutability": "nonpayable",
      "type": "function"
    },
    {
      "inputs": [],
      "name": "allowLateVestingChange",
      "outputs": [
        {
          "internalType": "bool",
          "name": "",
          "type": "bool"
        }
      ],
      "stateMutability": "view",
      "type": "function"
    },
    {
      "inputs": [],
      "name": "allowSaleStartwithoutFunding",
      "outputs": [
        {
          "internalType": "bool",
          "name": "",
          "type": "bool"
        }
      ],
      "stateMutability": "view",
      "type": "function"
    },
    {
      "inputs": [],
      "name": "availableTokens",
      "outputs": [
        {
          "internalType": "uint256",
          "name": "",
          "type": "uint256"
        }
      ],
      "stateMutability": "view",
      "type": "function"
    },
    {
      "inputs": [
        {
          "internalType": "uint256",
          "name": "",
          "type": "uint256"
        }
      ],
      "name": "buyers",
      "outputs": [
        {
          "internalType": "address",
          "name": "",
          "type": "address"
        }
      ],
      "stateMutability": "view",
      "type": "function"
    },
    {
      "inputs": [
        {
          "internalType": "uint256",
          "name": "_amount",
          "type": "uint256"
        }
      ],
      "name": "cost",
      "outputs": [
        {
          "internalType": "uint256",
          "name": "",
          "type": "uint256"
        }
      ],
      "stateMutability": "view",
      "type": "function"
    },
    {
      "inputs": [
        {
          "internalType": "address",
          "name": "_account",
          "type": "address"
        },
        {
          "internalType": "uint256",
          "name": "_accountMaximunAllocation",
          "type": "uint256"
        },
        {
          "internalType": "bytes",
          "name": "_signature",
          "type": "bytes"
        }
      ],
      "name": "determineAccountMaximunAllocation",
      "outputs": [
        {
          "internalType": "uint256",
          "name": "",
          "type": "uint256"
        }
      ],
      "stateMutability": "view",
      "type": "function"
    },
    {
      "inputs": [],
      "name": "endDate",
      "outputs": [
        {
          "internalType": "uint256",
          "name": "",
          "type": "uint256"
        }
      ],
      "stateMutability": "view",
      "type": "function"
    },
    {
      "inputs": [],
      "name": "erc20",
      "outputs": [
        {
          "internalType": "contract IERC20",
          "name": "",
          "type": "address"
        }
      ],
      "stateMutability": "view",
      "type": "function"
    },
    {
      "inputs": [],
      "name": "erc20TradeIn",
      "outputs": [
        {
          "internalType": "contract IERC20",
          "name": "",
          "type": "address"
        }
      ],
      "stateMutability": "view",
      "type": "function"
    },
    {
      "inputs": [],
      "name": "feePercentage",
      "outputs": [
        {
          "internalType": "uint256",
          "name": "",
          "type": "uint256"
        }
      ],
      "stateMutability": "view",
      "type": "function"
    },
    {
      "inputs": [
        {
          "internalType": "uint256",
          "name": "_amount",
          "type": "uint256"
        }
      ],
      "name": "fund",
      "outputs": [],
      "stateMutability": "nonpayable",
      "type": "function"
    },
    {
      "inputs": [],
      "name": "fundFull",
      "outputs": [],
      "stateMutability": "nonpayable",
      "type": "function"
    },
    {
      "inputs": [],
      "name": "getBlacklistedAddresses",
      "outputs": [
        {
          "internalType": "address[]",
          "name": "",
          "type": "address[]"
        }
      ],
      "stateMutability": "view",
      "type": "function"
    },
    {
      "inputs": [],
      "name": "getBuyers",
      "outputs": [
        {
          "internalType": "address[]",
          "name": "",
          "type": "address[]"
        }
      ],
      "stateMutability": "view",
      "type": "function"
    },
    {
      "inputs": [],
      "name": "getCurrentSchedule",
      "outputs": [
        {
          "internalType": "uint256",
          "name": "schedule",
          "type": "uint256"
        }
      ],
      "stateMutability": "view",
      "type": "function"
    },
    {
      "inputs": [
        {
          "internalType": "address",
          "name": "_address",
          "type": "address"
        }
      ],
      "name": "getMyPurchases",
      "outputs": [
        {
          "internalType": "uint256[]",
          "name": "",
          "type": "uint256[]"
        }
      ],
      "stateMutability": "view",
      "type": "function"
    },
    {
      "inputs": [],
      "name": "getMyPurchases_msgSender",
      "outputs": [
        {
          "internalType": "uint256[]",
          "name": "",
          "type": "uint256[]"
        }
      ],
      "stateMutability": "view",
      "type": "function"
    },
    {
      "inputs": [
        {
          "internalType": "uint256",
          "name": "purchase_id",
          "type": "uint256"
        }
      ],
      "name": "getPurchase",
      "outputs": [
        {
          "internalType": "uint256",
          "name": "amount",
          "type": "uint256"
        },
        {
          "internalType": "address",
          "name": "purchaser",
          "type": "address"
        },
        {
          "internalType": "uint256",
          "name": "costAmount",
          "type": "uint256"
        },
        {
          "internalType": "uint48",
          "name": "timestamp",
          "type": "uint48"
        },
        {
          "internalType": "bool",
          "name": "wasFinalized",
          "type": "bool"
        },
        {
          "internalType": "bool",
          "name": "reverted",
          "type": "bool"
        },
        {
          "internalType": "uint256",
          "name": "amountRedeemed",
          "type": "uint256"
        }
      ],
      "stateMutability": "view",
      "type": "function"
    },
    {
      "inputs": [],
      "name": "getPurchasesCount",
      "outputs": [
        {
          "internalType": "uint256",
          "name": "count",
          "type": "uint256"
        }
      ],
      "stateMutability": "view",
      "type": "function"
    },
    {
      "inputs": [
        {
          "internalType": "uint256",
          "name": "purchase_id",
          "type": "uint256"
        }
      ],
      "name": "getRedeemStatus",
      "outputs": [
        {
          "internalType": "uint256",
          "name": "amount",
          "type": "uint256"
        },
        {
          "internalType": "uint256",
          "name": "amountRedeemed",
          "type": "uint256"
        },
        {
          "internalType": "uint256",
          "name": "vestAmount",
          "type": "uint256"
        },
        {
          "internalType": "string",
          "name": "message",
          "type": "string"
        }
      ],
      "stateMutability": "view",
      "type": "function"
    },
    {
      "inputs": [
        {
          "internalType": "uint256",
          "name": "purchase_id",
          "type": "uint256"
        }
      ],
      "name": "getRedeemableTokensAmount",
      "outputs": [
        {
          "internalType": "uint256",
          "name": "amount",
          "type": "uint256"
        },
        {
          "internalType": "string",
          "name": "message",
          "type": "string"
        }
      ],
      "stateMutability": "view",
      "type": "function"
    },
    {
      "inputs": [
        {
          "internalType": "uint256",
          "name": "purchase_id",
          "type": "uint256"
        }
      ],
      "name": "getRefundAmount",
      "outputs": [
        {
          "internalType": "uint256",
          "name": "refundAmount",
          "type": "uint256"
        },
        {
          "internalType": "uint256",
          "name": "unclaimedTokens",
          "type": "uint256"
        },
        {
          "internalType": "string",
          "name": "message",
          "type": "string"
        }
      ],
      "stateMutability": "view",
      "type": "function"
    },
    {
      "inputs": [
        {
          "internalType": "bytes32",
          "name": "role",
          "type": "bytes32"
        }
      ],
      "name": "getRoleAdmin",
      "outputs": [
        {
          "internalType": "bytes32",
          "name": "",
          "type": "bytes32"
        }
      ],
      "stateMutability": "view",
      "type": "function"
    },
    {
      "inputs": [],
      "name": "getVestingEndTime",
      "outputs": [
        {
          "internalType": "uint256",
          "name": "",
          "type": "uint256"
        }
      ],
      "stateMutability": "view",
      "type": "function"
    },
    {
      "inputs": [],
      "name": "getVestingParameters",
      "outputs": [
        {
          "internalType": "uint256",
          "name": "_tgeAllocation",
          "type": "uint256"
        },
        {
          "internalType": "uint256",
          "name": "_tgeTime",
          "type": "uint256"
        },
        {
          "internalType": "uint256",
          "name": "_vestingStart",
          "type": "uint256"
        },
        {
          "internalType": "uint256",
          "name": "_vestingCliff",
          "type": "uint256"
        },
        {
          "internalType": "uint256",
          "name": "_vestingDuration",
          "type": "uint256"
        },
        {
          "internalType": "uint256[]",
          "name": "_vestingSchedule",
          "type": "uint256[]"
        }
      ],
      "stateMutability": "view",
      "type": "function"
    },
    {
      "inputs": [],
      "name": "getVestingStartTime",
      "outputs": [
        {
          "internalType": "uint256",
          "name": "",
          "type": "uint256"
        }
      ],
      "stateMutability": "view",
      "type": "function"
    },
    {
      "inputs": [],
      "name": "getWhitelistedAddresses",
      "outputs": [
        {
          "internalType": "address[]",
          "name": "",
          "type": "address[]"
        }
      ],
      "stateMutability": "view",
      "type": "function"
    },
    {
      "inputs": [
        {
          "internalType": "bytes32",
          "name": "role",
          "type": "bytes32"
        },
        {
          "internalType": "address",
          "name": "account",
          "type": "address"
        }
      ],
      "name": "grantRole",
      "outputs": [],
      "stateMutability": "nonpayable",
      "type": "function"
    },
    {
      "inputs": [],
      "name": "hasFinalized",
      "outputs": [
        {
          "internalType": "bool",
          "name": "",
          "type": "bool"
        }
      ],
      "stateMutability": "view",
      "type": "function"
    },
    {
      "inputs": [],
      "name": "hasMinimumRaise",
      "outputs": [
        {
          "internalType": "bool",
          "name": "",
          "type": "bool"
        }
      ],
      "stateMutability": "view",
      "type": "function"
    },
    {
      "inputs": [
        {
          "internalType": "bytes32",
          "name": "role",
          "type": "bytes32"
        },
        {
          "internalType": "address",
          "name": "account",
          "type": "address"
        }
      ],
      "name": "hasRole",
      "outputs": [
        {
          "internalType": "bool",
          "name": "",
          "type": "bool"
        }
      ],
      "stateMutability": "view",
      "type": "function"
    },
    {
      "inputs": [],
      "name": "hasStarted",
      "outputs": [
        {
          "internalType": "bool",
          "name": "",
          "type": "bool"
        }
      ],
      "stateMutability": "view",
      "type": "function"
    },
    {
      "inputs": [],
      "name": "hasWhitelisting",
      "outputs": [
        {
          "internalType": "bool",
          "name": "",
          "type": "bool"
        }
      ],
      "stateMutability": "view",
      "type": "function"
    },
    {
      "inputs": [],
      "name": "individualMaximumAmount",
      "outputs": [
        {
          "internalType": "uint256",
          "name": "",
          "type": "uint256"
        }
      ],
      "stateMutability": "view",
      "type": "function"
    },
    {
      "inputs": [],
      "name": "isBeforeVestingStart",
      "outputs": [
        {
          "internalType": "bool",
          "name": "",
          "type": "bool"
        }
      ],
      "stateMutability": "view",
      "type": "function"
    },
    {
      "inputs": [
        {
          "internalType": "address",
          "name": "_address",
          "type": "address"
        }
      ],
      "name": "isBlacklisted",
      "outputs": [
        {
          "internalType": "bool",
          "name": "",
          "type": "bool"
        }
      ],
      "stateMutability": "view",
      "type": "function"
    },
    {
      "inputs": [
        {
          "internalType": "uint256",
          "name": "purchase_id",
          "type": "uint256"
        }
      ],
      "name": "isBuyer",
      "outputs": [
        {
          "internalType": "bool",
          "name": "",
          "type": "bool"
        }
      ],
      "stateMutability": "view",
      "type": "function"
    },
    {
      "inputs": [],
      "name": "isETHTrade",
      "outputs": [
        {
          "internalType": "bool",
          "name": "",
          "type": "bool"
        }
      ],
      "stateMutability": "view",
      "type": "function"
    },
    {
      "inputs": [],
      "name": "isInRefundPeriod",
      "outputs": [
        {
          "internalType": "bool",
          "name": "",
          "type": "bool"
        }
      ],
      "stateMutability": "view",
      "type": "function"
    },
    {
      "inputs": [],
      "name": "isOpen",
      "outputs": [
        {
          "internalType": "bool",
          "name": "",
          "type": "bool"
        }
      ],
      "stateMutability": "view",
      "type": "function"
    },
    {
      "inputs": [],
      "name": "isPreStart",
      "outputs": [
        {
          "internalType": "bool",
          "name": "",
          "type": "bool"
        }
      ],
      "stateMutability": "view",
      "type": "function"
    },
    {
      "inputs": [],
      "name": "isSaleFunded",
      "outputs": [
        {
          "internalType": "bool",
          "name": "",
          "type": "bool"
        }
      ],
      "stateMutability": "view",
      "type": "function"
    },
    {
      "inputs": [
        {
          "internalType": "address",
          "name": "_userAccountAaddress",
          "type": "address"
        },
        {
          "internalType": "uint256",
          "name": "_accountMaximunAllocation",
          "type": "uint256"
        },
        {
          "internalType": "bytes",
          "name": "signature",
          "type": "bytes"
        }
      ],
      "name": "isSignerForAddressMaxAlloc",
      "outputs": [
        {
          "internalType": "bool",
          "name": "",
          "type": "bool"
        }
      ],
      "stateMutability": "view",
      "type": "function"
    },
    {
      "inputs": [
        {
          "internalType": "bytes32",
          "name": "hash",
          "type": "bytes32"
        },
        {
          "internalType": "bytes",
          "name": "signature",
          "type": "bytes"
        }
      ],
      "name": "isSignerFromBytes32",
      "outputs": [
        {
          "internalType": "bool",
          "name": "",
          "type": "bool"
        }
      ],
      "stateMutability": "view",
      "type": "function"
    },
    {
      "inputs": [],
      "name": "isTokenSwapAtomic",
      "outputs": [
        {
          "internalType": "bool",
          "name": "",
          "type": "bool"
        }
      ],
      "stateMutability": "view",
      "type": "function"
    },
    {
      "inputs": [
        {
          "internalType": "address",
          "name": "_address",
          "type": "address"
        }
      ],
      "name": "isWhitelisted",
      "outputs": [
        {
          "internalType": "bool",
          "name": "",
          "type": "bool"
        }
      ],
      "stateMutability": "view",
      "type": "function"
    },
    {
      "inputs": [],
      "name": "minimumRaise",
      "outputs": [
        {
          "internalType": "uint256",
          "name": "",
          "type": "uint256"
        }
      ],
      "stateMutability": "view",
      "type": "function"
    },
    {
      "inputs": [],
      "name": "minimumRaiseAchieved",
      "outputs": [
        {
          "internalType": "bool",
          "name": "",
          "type": "bool"
        }
      ],
      "stateMutability": "view",
      "type": "function"
    },
    {
      "inputs": [],
      "name": "minimumRaiseNotAchieved",
      "outputs": [
        {
          "internalType": "bool",
          "name": "",
          "type": "bool"
        }
      ],
      "stateMutability": "view",
      "type": "function"
    },
    {
      "inputs": [
        {
          "internalType": "address",
          "name": "",
          "type": "address"
        },
        {
          "internalType": "uint256",
          "name": "",
          "type": "uint256"
        }
      ],
      "name": "myPurchases",
      "outputs": [
        {
          "internalType": "uint256",
          "name": "",
          "type": "uint256"
        }
      ],
      "stateMutability": "view",
      "type": "function"
    },
    {
      "inputs": [],
      "name": "pause",
      "outputs": [],
      "stateMutability": "nonpayable",
      "type": "function"
    },
    {
      "inputs": [],
      "name": "paused",
      "outputs": [
        {
          "internalType": "bool",
          "name": "",
          "type": "bool"
        }
      ],
      "stateMutability": "view",
      "type": "function"
    },
    {
      "inputs": [
        {
          "internalType": "uint256",
          "name": "purchase_id",
          "type": "uint256"
        }
      ],
      "name": "purchaseExists",
      "outputs": [
        {
          "internalType": "bool",
          "name": "",
          "type": "bool"
        }
      ],
      "stateMutability": "view",
      "type": "function"
    },
    {
      "inputs": [
        {
          "internalType": "uint256",
          "name": "",
          "type": "uint256"
        }
      ],
      "name": "purchases",
      "outputs": [
        {
          "internalType": "address",
          "name": "purchaser",
          "type": "address"
        },
        {
          "internalType": "uint48",
          "name": "timestamp",
          "type": "uint48"
        },
        {
          "internalType": "bool",
          "name": "wasFinalized",
          "type": "bool"
        },
        {
          "internalType": "bool",
          "name": "reverted",
          "type": "bool"
        },
        {
          "internalType": "uint256",
          "name": "amount",
          "type": "uint256"
        },
        {
          "internalType": "uint256",
          "name": "costAmount",
          "type": "uint256"
        },
        {
          "internalType": "uint256",
          "name": "amountRedeemed",
          "type": "uint256"
        }
      ],
      "stateMutability": "view",
      "type": "function"
    },
    {
      "inputs": [
        {
          "internalType": "bytes32",
          "name": "hash",
          "type": "bytes32"
        },
        {
          "internalType": "bytes",
          "name": "signature",
          "type": "bytes"
        }
      ],
      "name": "recoverSignerAddressFromBytes32",
      "outputs": [
        {
          "internalType": "address",
          "name": "",
          "type": "address"
        }
      ],
      "stateMutability": "pure",
      "type": "function"
    },
    {
      "inputs": [
        {
          "internalType": "uint256",
          "name": "purchase_id",
          "type": "uint256"
        }
      ],
      "name": "redeemGivenMinimumGoalNotAchieved",
      "outputs": [],
      "stateMutability": "nonpayable",
      "type": "function"
    },
    {
      "inputs": [
        {
          "internalType": "uint256",
          "name": "purchase_id",
          "type": "uint256"
        }
      ],
      "name": "redeemTokens",
      "outputs": [],
      "stateMutability": "nonpayable",
      "type": "function"
    },
    {
      "inputs": [
        {
          "internalType": "uint256",
          "name": "purchase_id",
          "type": "uint256"
        }
      ],
      "name": "refund",
      "outputs": [],
      "stateMutability": "nonpayable",
      "type": "function"
    },
    {
      "inputs": [],
      "name": "refundPercentage",
      "outputs": [
        {
          "internalType": "uint256",
          "name": "",
          "type": "uint256"
        }
      ],
      "stateMutability": "view",
      "type": "function"
    },
    {
      "inputs": [],
      "name": "refundPeriodEnd",
      "outputs": [
        {
          "internalType": "uint256",
          "name": "",
          "type": "uint256"
        }
      ],
      "stateMutability": "view",
      "type": "function"
    },
    {
      "inputs": [],
      "name": "refundPeriodStart",
      "outputs": [
        {
          "internalType": "uint256",
          "name": "",
          "type": "uint256"
        }
      ],
      "stateMutability": "view",
      "type": "function"
    },
    {
      "inputs": [
        {
          "internalType": "address",
          "name": "_address",
          "type": "address"
        }
      ],
      "name": "removeFromBlacklist",
      "outputs": [],
      "stateMutability": "nonpayable",
      "type": "function"
    },
    {
      "inputs": [
        {
          "internalType": "address",
          "name": "_address",
          "type": "address"
        }
      ],
      "name": "removeFromWhitelist",
      "outputs": [],
      "stateMutability": "nonpayable",
      "type": "function"
    },
    {
      "inputs": [
        {
          "internalType": "address",
          "name": "_tokenAddress",
          "type": "address"
        },
        {
          "internalType": "address",
          "name": "_to",
          "type": "address"
        }
      ],
      "name": "removeOtherERC20Tokens",
      "outputs": [],
      "stateMutability": "nonpayable",
      "type": "function"
    },
    {
      "inputs": [
        {
          "internalType": "bytes32",
          "name": "role",
          "type": "bytes32"
        },
        {
          "internalType": "address",
          "name": "callerConfirmation",
          "type": "address"
        }
      ],
      "name": "renounceRole",
      "outputs": [],
      "stateMutability": "nonpayable",
      "type": "function"
    },
    {
      "inputs": [
        {
          "internalType": "bytes32",
          "name": "role",
          "type": "bytes32"
        },
        {
          "internalType": "address",
          "name": "account",
          "type": "address"
        }
      ],
      "name": "revokeRole",
      "outputs": [],
      "stateMutability": "nonpayable",
      "type": "function"
    },
    {
      "inputs": [],
      "name": "safePullETH",
      "outputs": [],
      "stateMutability": "nonpayable",
      "type": "function"
    },
    {
      "inputs": [],
      "name": "safePullSaleToken",
      "outputs": [],
      "stateMutability": "nonpayable",
      "type": "function"
    },
    {
      "inputs": [],
      "name": "safePullTradeToken",
      "outputs": [],
      "stateMutability": "nonpayable",
      "type": "function"
    },
    {
      "inputs": [
        {
          "internalType": "uint256",
          "name": "_endDate",
          "type": "uint256"
        }
      ],
      "name": "setEndDate",
      "outputs": [],
      "stateMutability": "nonpayable",
      "type": "function"
    },
    {
      "inputs": [
        {
          "internalType": "bool",
          "name": "_hasWhitelisting",
          "type": "bool"
        }
      ],
      "name": "setHasWhitelisting",
      "outputs": [],
      "stateMutability": "nonpayable",
      "type": "function"
    },
    {
      "inputs": [
        {
          "internalType": "uint256",
          "name": "_individualMaximumAmount",
          "type": "uint256"
        }
      ],
      "name": "setIndividualMaximumAmount",
      "outputs": [],
      "stateMutability": "nonpayable",
      "type": "function"
    },
    {
      "inputs": [
        {
          "internalType": "uint256",
          "name": "_refundPeriodStart",
          "type": "uint256"
        },
        {
          "internalType": "uint256",
          "name": "_refundPeriodEnd",
          "type": "uint256"
        },
        {
          "internalType": "uint256",
          "name": "_refundPercentage",
          "type": "uint256"
        }
      ],
      "name": "setRefundPeriod",
      "outputs": [],
      "stateMutability": "nonpayable",
      "type": "function"
    },
    {
      "inputs": [
        {
          "internalType": "address",
          "name": "_tokenAddress",
          "type": "address"
        }
      ],
      "name": "setSaleTokenAddress",
      "outputs": [],
      "stateMutability": "nonpayable",
      "type": "function"
    },
    {
      "inputs": [
        {
          "internalType": "address",
          "name": "_signerPublicAddress",
          "type": "address"
        }
      ],
      "name": "setSignerPublicAddress",
      "outputs": [],
      "stateMutability": "nonpayable",
      "type": "function"
    },
    {
      "inputs": [
        {
          "internalType": "address",
          "name": "_stakingRewardsAddress",
          "type": "address"
        }
      ],
      "name": "setStakingRewards",
      "outputs": [],
      "stateMutability": "nonpayable",
      "type": "function"
    },
    {
      "inputs": [
        {
          "internalType": "uint256",
          "name": "_startDate",
          "type": "uint256"
        }
      ],
      "name": "setStartDate",
      "outputs": [],
      "stateMutability": "nonpayable",
      "type": "function"
    },
    {
      "inputs": [
        {
          "internalType": "uint256",
          "name": "_tradeValue",
          "type": "uint256"
        }
      ],
      "name": "setTradeValue",
      "outputs": [],
      "stateMutability": "nonpayable",
      "type": "function"
    },
    {
      "inputs": [
        {
          "internalType": "uint256",
          "name": "_tgeAllocation",
          "type": "uint256"
        },
        {
          "internalType": "uint256",
          "name": "_tgeTime",
          "type": "uint256"
        },
        {
          "internalType": "uint256",
          "name": "_vestingStart",
          "type": "uint256"
        },
        {
          "internalType": "uint256",
          "name": "_vestingCliff",
          "type": "uint256"
        },
        {
          "internalType": "uint256",
          "name": "_vestingDuration",
          "type": "uint256"
        },
        {
          "internalType": "uint256[]",
          "name": "_vestingSchedule",
          "type": "uint256[]"
        }
      ],
      "name": "setVesting",
      "outputs": [],
      "stateMutability": "nonpayable",
      "type": "function"
    },
    {
      "inputs": [],
      "name": "signerPublicAddress",
      "outputs": [
        {
          "internalType": "address",
          "name": "",
          "type": "address"
        }
      ],
      "stateMutability": "view",
      "type": "function"
    },
    {
      "inputs": [],
      "name": "stakingRewardsAddress",
      "outputs": [
        {
          "internalType": "address",
          "name": "",
          "type": "address"
        }
      ],
      "stateMutability": "view",
      "type": "function"
    },
    {
      "inputs": [],
      "name": "startDate",
      "outputs": [
        {
          "internalType": "uint256",
          "name": "",
          "type": "uint256"
        }
      ],
      "stateMutability": "view",
      "type": "function"
    },
    {
      "inputs": [
        {
          "internalType": "bytes4",
          "name": "interfaceId",
          "type": "bytes4"
        }
      ],
      "name": "supportsInterface",
      "outputs": [
        {
          "internalType": "bool",
          "name": "",
          "type": "bool"
        }
      ],
      "stateMutability": "view",
      "type": "function"
    },
    {
      "inputs": [
        {
          "internalType": "uint256",
          "name": "_amount",
          "type": "uint256"
        },
        {
          "internalType": "bytes",
          "name": "_signature",
          "type": "bytes"
        }
      ],
      "name": "swap",
      "outputs": [],
      "stateMutability": "payable",
      "type": "function"
    },
    {
      "inputs": [
        {
          "internalType": "uint256",
          "name": "_amount",
          "type": "uint256"
        },
        {
          "internalType": "uint256",
          "name": "_accountMaxAmount",
          "type": "uint256"
        },
        {
          "internalType": "bytes",
          "name": "_signature",
          "type": "bytes"
        }
      ],
      "name": "swapWithSig",
      "outputs": [],
      "stateMutability": "payable",
      "type": "function"
    },
    {
      "inputs": [],
      "name": "tgeAllocation",
      "outputs": [
        {
          "internalType": "uint256",
          "name": "",
          "type": "uint256"
        }
      ],
      "stateMutability": "view",
      "type": "function"
    },
    {
      "inputs": [],
      "name": "tgeTime",
      "outputs": [
        {
          "internalType": "uint256",
          "name": "",
          "type": "uint256"
        }
      ],
      "stateMutability": "view",
      "type": "function"
    },
    {
      "inputs": [],
      "name": "tokensAllocated",
      "outputs": [
        {
          "internalType": "uint256",
          "name": "",
          "type": "uint256"
        }
      ],
      "stateMutability": "view",
      "type": "function"
    },
    {
      "inputs": [],
      "name": "tokensForSale",
      "outputs": [
        {
          "internalType": "uint256",
          "name": "",
          "type": "uint256"
        }
      ],
      "stateMutability": "view",
      "type": "function"
    },
    {
      "inputs": [],
      "name": "tokensLeft",
      "outputs": [
        {
          "internalType": "uint256",
          "name": "",
          "type": "uint256"
        }
      ],
      "stateMutability": "view",
      "type": "function"
    },
    {
      "inputs": [],
      "name": "totalRaiseCost",
      "outputs": [
        {
          "internalType": "uint256",
          "name": "",
          "type": "uint256"
        }
      ],
      "stateMutability": "view",
      "type": "function"
    },
    {
      "inputs": [],
      "name": "totalRefundAmountPenalty",
      "outputs": [
        {
          "internalType": "uint256",
          "name": "",
          "type": "uint256"
        }
      ],
      "stateMutability": "view",
      "type": "function"
    },
    {
      "inputs": [],
      "name": "totalRefundedTokens",
      "outputs": [
        {
          "internalType": "uint256",
          "name": "",
          "type": "uint256"
        }
      ],
      "stateMutability": "view",
      "type": "function"
    },
    {
      "inputs": [],
      "name": "tradeValue",
      "outputs": [
        {
          "internalType": "uint256",
          "name": "",
          "type": "uint256"
        }
      ],
      "stateMutability": "view",
      "type": "function"
    },
    {
      "inputs": [
        {
          "internalType": "uint256",
          "name": "purchase_id",
          "type": "uint256"
        },
        {
          "internalType": "bool",
          "name": "stake",
          "type": "bool"
        }
      ],
      "name": "transferTokens",
      "outputs": [],
      "stateMutability": "nonpayable",
      "type": "function"
    },
    {
      "inputs": [],
      "name": "unpause",
      "outputs": [],
      "stateMutability": "nonpayable",
      "type": "function"
    },
    {
      "inputs": [],
      "name": "unsoldTokensRedeemed",
      "outputs": [
        {
          "internalType": "bool",
          "name": "",
          "type": "bool"
        }
      ],
      "stateMutability": "view",
      "type": "function"
    },
    {
      "inputs": [],
      "name": "vestingCliff",
      "outputs": [
        {
          "internalType": "uint256",
          "name": "",
          "type": "uint256"
        }
      ],
      "stateMutability": "view",
      "type": "function"
    },
    {
      "inputs": [],
      "name": "vestingDuration",
      "outputs": [
        {
          "internalType": "uint256",
          "name": "",
          "type": "uint256"
        }
      ],
      "stateMutability": "view",
      "type": "function"
    },
    {
      "inputs": [
        {
          "internalType": "uint256",
          "name": "",
          "type": "uint256"
        }
      ],
      "name": "vestingSchedule",
      "outputs": [
        {
          "internalType": "uint256",
          "name": "",
          "type": "uint256"
        }
      ],
      "stateMutability": "view",
      "type": "function"
    },
    {
      "inputs": [],
      "name": "vestingStart",
      "outputs": [
        {
          "internalType": "uint256",
          "name": "",
          "type": "uint256"
        }
      ],
      "stateMutability": "view",
      "type": "function"
    },
    {
      "inputs": [],
      "name": "vestingTime",
      "outputs": [
        {
          "internalType": "uint256",
          "name": "",
          "type": "uint256"
        }
      ],
      "stateMutability": "view",
      "type": "function"
    },
    {
      "inputs": [],
      "name": "withdrawFunds",
      "outputs": [],
      "stateMutability": "nonpayable",
      "type": "function"
    },
    {
      "inputs": [],
      "name": "withdrawRefundedTokens",
      "outputs": [],
      "stateMutability": "nonpayable",
      "type": "function"
    },
    {
      "inputs": [],
      "name": "withdrawUnsoldTokens",
      "outputs": [],
      "stateMutability": "nonpayable",
      "type": "function"
    }
  ],
  "bytecode": "0x6101003461046457601f61625138819003918201601f19168301916001600160401b038311848410176104695780849261018094604052833981010312610464576100498161047f565b9060208101519160408201519160608101519360808201519060c08301519460e0840151801515036104645761010084015192610120850151976101408601519563ffffffff871690818803610464576101606100a6910161047f565b9860ff19600054166000556100ba33610493565b506002805460ff60a01b1916898216151560a01b60ff60a01b16179055336000908152600080516020616231833981519152602052604090205460ff161561041f57600355600160085561010d33610531565b50814210156103da5782600f54101561039557831561035c578386116103175760638a116102d2576020111561028d57600f55601055601355600e5560018216156102825761023d57601090600160a0525b60088116151560c05216151560e052600a80546001600160a01b0319166001600160a01b039283161790551680610223575b50608052604051615c4990816105a8823960805181818161169a015281816131a3015261327e015260a051818181610e8a015281816124a901528181613463015281816134b501528181613830015281816146b7015281816149ea0152614d29015260c0518181816113600152818161259c0152613426015260e05181818161091f015281816133e901526138090152f35b600b80546001600160a01b03191691909117905538610191565b60405162461bcd60e51b815260206004820152601d60248201527f61746f6d696320737761703a206d696e696d756d5261697365203e20300000006044820152606490fd5b60115560109061015f565b60405162461bcd60e51b815260206004820152601560248201527f756e737570706f7274656420666c6167732073657400000000000000000000006044820152606490fd5b60405162461bcd60e51b815260206004820152601e60248201527f4665652050657263656e746167652068617320746f206265203c2031303000006044820152606490fd5b60405162461bcd60e51b815260206004820152601c60248201527f6d696e696d756d5261697365203e20746f6b656e73466f7253616c65000000006044820152606490fd5b60405162461bcd60e51b81526020600482015260116024820152706e6f20746f6b656e20666f722073616c6560781b6044820152606490fd5b60405162461bcd60e51b815260206004820152601a60248201527f656e642064617465206265666f726520737461727420646174650000000000006044820152606490fd5b60405162461bcd60e51b815260206004820152601960248201527f7374617274206461746520697320696e207468652070617374000000000000006044820152606490fd5b60405162461bcd60e51b815260206004820152601c60248201527f63616c6c6572206973206e6f742057686974656c6973744f776e6572000000006044820152606490fd5b600080fd5b634e487b7160e01b600052604160045260246000fd5b51906001600160a01b038216820361046457565b6001600160a01b0381166000908152600080516020616231833981519152602052604090205460ff1661052b576001600160a01b0316600081815260008051602061623183398151915260205260408120805460ff191660011790553391907fb813b807c25079ba97f1770664c6a9e57c59afe74a6295f1ed01c10e3bb6baae906000805160206161f18339815191529080a4600190565b50600090565b6001600160a01b0381166000908152600080516020616211833981519152602052604090205460ff1661052b576001600160a01b0316600081815260008051602061621183398151915260205260408120805460ff191660011790553391906000805160206161f18339815191528180a460019056fe608080604052600436101561001357600080fd5b600090813560e01c90816301ffc9a7146142b157508063031fb2b71461428e578063034e52901461426f578063044c0cc51461424457806304cd52941461420357806307662345146141dd57806308abd7ff146140ed57806309b56e0b146140c857806309d4d6f514613f175780630b97bc8614613ef957806312aef8c314613edb5780631514617e14613ebd57806315b5786614613e9d578063161a7b2a14613e825780631a8081871461378a5780631de18af71461348857806321d3002a1461344b578063230005d31461340e5780632438a3f6146133d157806324600fc314613132578063248a9ca314613104578063254800d4146130e65780632593ea17146130c3578063278ecde114612f4357806328c32be614612f255780632ebb5c1e14612f055780632f2ff15d14612ec45780633070b98d14612bd05780633113076a14612b5f5780633163e3a814612b4157806336568abe14612afc5780633742a9f714612a265780633784f0001461294e5780633af32abf146129135780633b6577c8146128d95780633bbab179146128555780633f4ba83a146127e15780634089aa9a146127c057806344337ea11461273157806344691f7e1461271057806347535d7b146126f55780634b77ae14146126d7578063537df3b61461264857806359730bb51461262a5780635ac699bb146125e25780635c975abb146125c05780635f635f9a1461245a5780636295a2f41461243c57806369bb4dc2146123a75780636d028027146123235780636eaaabd51461228a5780636fb83a571461214f57806372fd9e241461213157806374fa05fb1461210f578063751ef93d146120f5578063755e3e28146120d757806376807e5f14612056578063785e9e861461202d578063788bff6814612004578063799bb23214611fde5780637f7b271214611fbe5780638158f2b814611fa057806382d95df514611ecc5780638307dc9814611eb15780638392fe3114611e265780638456cb5914611daf57806388b0fe2b14611cf75780638a1a5f3f14611cdc5780638ab1d68114611c4d5780638e75b13114611c2f5780639097548d14611c10578063917c854d14611a96578063919bd93014611a5c57806391d1485414611a1057806394838414146119ea57806396a32bc4146119925780639a43e8c7146117ce5780639baf1979146117b45780639d90a46e146116bd578063a001ecdd14611682578063a1c09bf114611664578063a217fddf14611648578063a6e158f8146114bb578063a929eef11461149d578063b31f8f931461147b578063b367940e14611458578063b8691787146113ec578063ba40a96a146113c3578063bd0625ab14610e3b578063bf135abe14610e12578063c0e6498914610d23578063c24a0f8b14610d05578063c3ca324f14610ce0578063c4fb8f1414610c46578063c7dab43614610c2b578063c8bdbfb614610b78578063c957b76214610b5d578063ca1d209d14610a65578063d10dbdf5146109ef578063d547741f146109a5578063d623786d146108cb578063dbb57ac814610884578063dc91b07214610835578063e4101de514610817578063e43252d714610788578063e4a8025214610754578063e8b882f41461072b578063eb1edd61146106fd578063efbb34d5146106d7578063f2aa821814610693578063f3640e7414610675578063f64bfaba146105eb578063fce9d11b146105b6578063fe575a8714610571578063fecf415a1461053c5763ffa1ad741461051d57600080fd5b3461053957806003193601126105395760206040516177f38152f35b80fd5b50346105395760203660031901126105395750602061055c6004356145a1565b5060018060a01b039054163314604051908152f35b50346105395760203660031901126105395760206105ac6001600160a01b036105986143b7565b166000526007602052604060002054151590565b6040519015158152f35b50346105395780600319360112610539576105e76105d3336154fd565b6040519182916020835260208301906145c0565b0390f35b503461053957806003193601126105395760405180916020601e54928381520191601e82527f50bb669a95c7b50b7e8a6f09454034b2b14cf2b85c730dca9a539ca82cb6e350915b818110610656576105e78561064a818703826144a6565b604051918291826143cd565b82546001600160a01b0316845260209093019260019283019201610633565b50346105395780600319360112610539576020601a54604051908152f35b50346105395760203660031901126105395760043590601e548210156105395760206106be83614410565b905460405160039290921b1c6001600160a01b03168152f35b503461053957806003193601126105395760206106f560135461531c565b604051908152f35b50346105395780600319360112610539576020604051729a118309431f92cdadf9ca4bdd5d8f61db7fe78152f35b50346105395780600319360112610539576020604051600080516020615c1d8339815191528152f35b503461053957602061076e61076836614571565b90615235565b6002546040516001600160a01b0392831691909216148152f35b5034610539576020366003190112610539576107a26143b7565b600080516020615c1d833981519152825260016020908152604080842033600090815292529020546107d69060ff1661489e565b6001600160a01b03166107e8816157d8565b6107f0575080f35b7fa850ae9193f515cbae8d35e8925bd2be26627fc91bce650b8652ed254e9cab038280a280f35b50346105395780600319360112610539576020600354604051908152f35b503461053957602036600319011261053957600080516020615c1d8339815191528152600160209081526040808320336000908152925290205461087b9060ff1661489e565b60043560035580f35b5034610539576020366003190112610539576105e76108a460043561554c565b9060409492945194859485526020850152604084015260806060840152608083019061432f565b5034610539576020366003190112610539576108e56143b7565b818052600160209081526040808420336000908152925290205461090b9060ff1661491d565b61091d6109166152c5565b4210614b14565b7f0000000000000000000000000000000000000000000000000000000000000000156109615760018060a01b03166001600160601b0360a01b600a541617600a5580f35b606460405162461bcd60e51b815260206004820152602060248201527f746f6b656e2061646472657373206368616e6765206e6f7420616c6c6f7765646044820152fd5b5034610539576040366003190112610539576109eb6004356109c56143a1565b906109e66109e182600052600160205260016040600020015490565b61560c565b6156d8565b5080f35b5034610539576020366003190112610539577ffd6fc945a36da5e54e8c65e37d56829b185977f4df3f8244caaae06f42d549c56020600435610a34600f544210614b60565b8380526001825260408085203360009081529084522054610a579060ff1661491d565b80600e55604051908152a180f35b50346105395760203660031901126105395760043560018060a01b03600a5416906040516370a0823160e01b8152306004820152602081602481865afa8015610b525782908590610b17575b610abb92506149db565b60135410610ad357610ad09130903390615776565b80f35b606460405162461bcd60e51b815260206004820152602060248201527f6d6f726520746f6b656e73207468616e206e656564656420666f722073616c656044820152fd5b50506020813d602011610b4a575b81610b32602093836144a6565b81010312610b455781610abb9151610ab1565b600080fd5b3d9150610b25565b6040513d86823e3d90fd5b503461053957806003193601126105395760206105ac615534565b50346105395780600319360112610539578080526001602090815260408083203360009081529252902054610baf9060ff1661491d565b610bbd601054421015614c0d565b600b5460ff8160a01c16610c2757601254601154811015610c1657506013545b80610be6578280f35b60ff60a01b19909116600160a01b17600b55600a54610c10919033906001600160a01b0316615591565b38808280f35b610c2290601354614c89565b610bdd565b5080fd5b503461053957806003193601126105395760206106f561551d565b503461053957806003193601126105395760175460185490601954601a54601b549060405192601c54968785526020850197601c825260208220915b818110610cca57505050610c9d846105e796979803856144a6565b6040519687968752602087015260408601526060850152608084015260c060a084015260c08301906145c0565b82548a5260209099019860019283019201610c82565b5034610539576020366003190112610539576105e76105d3610d006143b7565b6154fd565b50346105395780600319360112610539576020601054604051908152f35b5034610539578060031936011261053957600a546040516370a0823160e01b8152306004820152906001600160a01b0316602082602481845afa918215610e07578392610dd3575b5060135480831015610d8e57610ad092610d8491614c89565b9030903390615776565b60405162461bcd60e51b815260206004820152601d60248201527f636f6e747261637420616c72656164792066756c6c792066756e6465640000006044820152606490fd5b9091506020813d602011610dff575b81610def602093836144a6565b81010312610b4557519038610d6b565b3d9150610de2565b6040513d85823e3d90fd5b5034610539578060031936011261053957600b546040516001600160a01b039091168152602090f35b5060403660031901126105395760043560243567ffffffffffffffff81116113bf57610e6b9036906004016144e4565b610e736155cd565b610e7b6155ef565b610e8361514e565b15611384577f000000000000000000000000000000000000000000000000000000000000000090811590818061135d575b801561134f575b1561130a57610eca90336153b4565b9081156112d557600b546001600160a01b03166112c6573491610eec8561531c565b341061128b575b610f0260135460125490614c89565b851161124657338652601f602052610f1c60408720615165565b8587825189935b818510611213575050610f3692506149db565b116111ce57660100000000000042101561118957821561118357835b60405191610f5f83614474565b338352602083019065ffffffffffff42168252604084019015815260608401888152608085019188835260a086019387855260c08701958652601d54600160401b81101561116f57806001610fb79201601d556145a1565b97909761115b57518754915192516001600160d81b03199092166001600160a01b03919091161760a09290921b65ffffffffffff60a01b169190911790151560d01b60ff60d01b161785556003939291906110279051865460ff60d81b191690151560d81b60ff60d81b16178655565b51600185015551600284015551910155338452601f60205260408420601d54600019810191908211611147579061105d91614beb565b601e54600160401b8110156111335780600161107c9201601e55614410565b81549060031b9033821b9160018060a01b03901b19161790556110a1836012546149db565b601255600b546001600160a01b0316611113575b506110f5575b6040519081524260208201527fbec109f7ee137de661c6887caa96653c0545050a9908a3b6eb5190440bbec86460403392a2600160085580f35b600a5461110e90829033906001600160a01b0316615591565b6110bb565b600b5461112d9190309033906001600160a01b0316615776565b386110b5565b634e487b7160e01b85526041600452602485fd5b634e487b7160e01b86526011600452602486fd5b634e487b7160e01b8c5260048c905260248cfd5b634e487b7160e01b8c52604160045260248cfd5b84610f52565b60405162461bcd60e51b815260206004820152601c60248201527f76616c756520646f65736e27742066697420696e2034382062697473000000006044820152606490fd5b60405162461bcd60e51b815260206004820152601d60248201527f616d6f756e74206578636565647320696e646976696475616c206d61780000006044820152606490fd5b91600191935061123a908261123161122b88876151b2565b516145a1565b500154906149db565b93019290918892610f23565b60405162461bcd60e51b815260206004820152601960248201527f616d6f756e74203e20746f6b656e7320617661696c61626c65000000000000006044820152606490fd5b60405162461bcd60e51b81526020600482015260136024820152721b9bdd08195b9bdd59da08115512081cd95b9d606a1b6044820152606490fd5b6112cf8461531c565b91610ef3565b60405162461bcd60e51b815260206004820152600d60248201526c37379030b63637b1b0ba34b7b760991b6044820152606490fd5b60405162461bcd60e51b815260206004820152601c60248201527f66756e64696e6720726571756972656d656e7473206e6f74206d6574000000006044820152606490fd5b506113586149e8565b610ebb565b507f0000000000000000000000000000000000000000000000000000000000000000610eb4565b60405162461bcd60e51b815260206004820152601360248201527239b0b632903430b9903a379031329037b832b760691b6044820152606490fd5b8280fd5b50346105395780600319360112610539576002546040516001600160a01b039091168152602090f35b5034610539576020366003190112610539576114066143b7565b600080516020615c1d8339815191528252600160209081526040808420336000908152925290205461143a9060ff1661489e565b60018060a01b03166001600160601b0360a01b600254161760025580f35b503461053957806003193601126105395760206012546011541115604051908152f35b503461053957806003193601126105395760206106f560135460125490614c89565b50346105395780600319360112610539576020600c54604051908152f35b5034610539576020366003190112610539576004356114d86155cd565b6114e1816145a1565b50546001600160a01b0316330361160c576115086114fe82614d1d565b8192911515614c59565b6001611513836145a1565b500154916003611522826145a1565b5001548361153084836149db565b116115c75761155d61155784836115739761154d836003976149db565b1461157b576149db565b926145a1565b500155600a5433906001600160a01b0316615591565b600160085580f35b611584866145a1565b50805460ff60d01b1916600160d01b1790556040518681527f36a135f5fbde1b6c5f43e056a7f5b0d91279e1693b1b28861e3b0eb06213bf5790602090a16149db565b60405162461bcd60e51b815260206004820152601f60248201527f494520616d6f756e7452656465656d6564203e20707572636861736520612e006044820152606490fd5b60405162461bcd60e51b815260206004820152601460248201527320b2323932b9b99034b9903737ba10313abcb2b960611b6044820152606490fd5b5034610539578060031936011261053957602090604051908152f35b50346105395780600319360112610539576020601d54604051908152f35b503461053957806003193601126105395760206040517f00000000000000000000000000000000000000000000000000000000000000008152f35b50346105395760203660031901126105395760043567ffffffffffffffff8111610c27576116ef903690600401614370565b9190600080516020615c1d833981519152825260016020526040822060018060a01b03331660005260205261172b60ff6040600020541661489e565b8190825b84811061176f57505080611741575080f35b60207fc2f03ca34d335e49d4d629b85db054d1ffb679b4fec2e06fe10d0e618b175ecb91604051908152a180f35b6117936001600160a01b0361178d6117888489876148ea565b6148fa565b1661582d565b6117a0575b60010161172f565b916117ac60019161490e565b929050611798565b50346105395760206106f56117c83661452b565b91615453565b5034610539576060366003190112610539576004356024356044359183805260016020526040842060018060a01b03331660005260205261181660ff6040600020541661491d565b806010541161194d5781811161190857655af3107a400083116118ca57652d79883d20008310611885577f41647b120e0da0bb6302c8236e2a689cbc62f6123a66aff5fae45056cf52b8589260609282601455806015558160165560405192835260208301526040820152a180f35b60405162461bcd60e51b815260206004820152601860248201527f726566756e6450657263656e7461676520746f6f206c6f7700000000000000006044820152606490fd5b60405162461bcd60e51b81526020600482015260166024820152750726566756e6450657263656e74616765203e203130360541b6044820152606490fd5b60405162461bcd60e51b815260206004820152601d60248201527f726566756e64506572696f6420656e64206265666f72652073746172740000006044820152606490fd5b60405162461bcd60e51b815260206004820152601c60248201527f726566756e64207374617274206265666f72652073616c6520656e64000000006044820152606490fd5b503461053957806003193601126105395780805260016020908152604080832033600090815292529020546119c99060ff1661491d565b6119d16157ba565b610ad08180808047335af16119e4614969565b50614999565b5034610539578060031936011261053957602060ff600b5460a01c166040519015158152f35b5034610539576040366003190112610539576040611a2c6143a1565b9160043581526001602052209060018060a01b0316600052602052602060ff604060002054166040519015158152f35b50346105395760203660031901126105395760043590601c54821015610539576020611a8783614441565b90549060031b1c604051908152f35b503461053957604036600319011261053957611ab06143b7565b611ab86143a1565b9082805260016020526040832060018060a01b033316600052602052611ae560ff6040600020541661491d565b611af3601054421015614c0d565b600a546001600160a01b0391821691168114611bcb57600b546001600160a01b03168114611b86576040516370a0823160e01b815230600482015291602083602481855afa918215610b52578492611b50575b610ad09350615591565b91506020833d602011611b7e575b81611b6b602093836144a6565b81010312610b4557610ad0925191611b46565b3d9150611b5e565b60405162461bcd60e51b815260206004820152601b60248201527f746f6b656e206973207468652074726164652d696e20746f6b656e00000000006044820152606490fd5b60405162461bcd60e51b815260206004820152601b60248201527f746f6b656e2069732074686520746f6b656e20666f722073616c6500000000006044820152606490fd5b50346105395760203660031901126105395760206106f560043561531c565b50346105395780600319360112610539576020601154604051908152f35b503461053957602036600319011261053957611c676143b7565b600080516020615c1d83398151915282526001602090815260408084203360009081529252902054611c9b9060ff1661489e565b6001600160a01b0316611cad816159ba565b611cb5575080f35b7fcdd2e9b91a56913d370075169cefa1602ba36be5301664f752192bb1709df7578280a280f35b503461053957806003193601126105395760206106f56152e1565b50346105395780600319360112610539578080526001602090815260408083203360009081529252902054611d2e9060ff1661491d565b611d366157ba565b600a546040516370a0823160e01b8152306004820152906001600160a01b0316602082602481845afa908115610e07578391611d79575b610ad092503390615591565b90506020823d602011611da7575b81611d94602093836144a6565b81010312610b4557610ad0915190611d6d565b3d9150611d87565b50346105395780600319360112610539578080526001602090815260408083203360009081529252902054611de69060ff1661491d565b611dee6155ef565b600160ff198254161781557f62e78cea01bee320cd4e420270b5ea74000d11b0c9f74754ebdbfc544b05a2586020604051338152a180f35b50346105395760203660031901126105395760043590601d548210156105395760e0611e51836145a1565b50805490600181015490600360028201549101549160ff6040519460018060a01b038116865265ffffffffffff8160a01c166020870152818160d01c161515604087015260d81c1615156060850152608084015260a083015260c0820152f35b503461053957806003193601126105395760206106f56152c5565b503461053957602036600319011261053957600435611eee600f544210614b60565b8180526001602090815260408084203360009081529252902054611f149060ff1661491d565b80421015611f5b5760207ff18a09eaf82fdb00baab509d15db4abfd6aba1bf424d6bbc88295fa0f8a400d791611f4d6010548210614c96565b80600f55604051908152a180f35b60405162461bcd60e51b815260206004820152601c60248201527f73746172742064617465206e6f7420696e2074686520667574757265000000006044820152606490fd5b50346105395780600319360112610539576020601754604051908152f35b5034610539578060031936011261053957602060405164e8d4a510008152f35b5034610539576020611ff261076836614571565b6040516001600160a01b039091168152f35b50346105395780600319360112610539576009546040516001600160a01b039091168152602090f35b5034610539578060031936011261053957600a546040516001600160a01b039091168152602090f35b5034610539578060031936011261053957808052600160209081526040808320336000908152925290205461208d9060ff1661491d565b6120956157ba565b600b546040516370a0823160e01b8152306004820152906001600160a01b0316602082602481845afa908115610e07578391611d7957610ad092503390615591565b50346105395780600319360112610539576020601254604051908152f35b50346105395760206105ac6121093661452b565b916151de565b5034610539578060031936011261053957602060125460115411604051908152f35b50346105395780600319360112610539576020600d54604051908152f35b5034610539576020366003190112610539576121696143b7565b818052600160209081526040808420336000908152925290205461218f9060ff1661491d565b6001600160a01b0316806121e0575b6020817ff62d9d6092e49a0a9a72b4e4f020f4173b0f35e505c41e59b60aeed838602965926001600160601b0360a01b6009541617600955604051908152a180f35b6040516301ffc9a760e01b8152638b1e31c760e01b6004820152602081602481855afa908115610e0757839161225b575b5061219e5760405162461bcd60e51b815260206004820152601e60248201527f646f6573206e6f7420737570706f7274207374616b655472616e7366657200006044820152606490fd5b61227d915060203d602011612283575b61227581836144a6565b8101906151c6565b38612211565b503d61226b565b503461053957602036600319011261053957600435801515809103610c2757600080516020615c1d833981519152825260016020908152604080842033600090815290835220547fe905f7f52156c346547b9deb6fb3e2459db941ec55d073fd465129bf4b49fae692906123009060ff1661489e565b6002805460ff60a01b191660a083901b60ff60a01b16179055604051908152a180f35b50346105395780600319360112610539576004546123408161575e565b9161234e60405193846144a6565b818352601f1961235d8361575e565b013660208501375b81811061237a57604051806105e785826143cd565b80612388600192600461445c565b838060a01b0391549060031b1c166123a082866151b2565b5201612365565b5034610539578060031936011261053957600a546040516370a0823160e01b81523060048201529190602090839060249082906001600160a01b03165afa90811561243057906123fd575b602090604051908152f35b506020813d602011612428575b81612417602093836144a6565b81010312610b4557602090516123f2565b3d915061240a565b604051903d90823e3d90fd5b50346105395780600319360112610539576020600e54604051908152f35b5060603660031901126105395760043560443567ffffffffffffffff81116113bf5761248a9036906004016144e4565b6124926155cd565b61249a6155ef565b6124a261514e565b15611384577f0000000000000000000000000000000000000000000000000000000000000000908115908180612599575b801561258b575b1561130a576124ec9060243533615453565b9081156112d557600b546001600160a01b031661257c57349161250e8561531c565b341061128b575b61252460135460125490614c89565b851161124657338652601f60205261253e60408720615165565b8587825189935b818510612558575050610f3692506149db565b916001919350612570908261123161122b88876151b2565b93019290918892612545565b6125858461531c565b91612515565b506125946149e8565b6124da565b507f00000000000000000000000000000000000000000000000000000000000000006124d3565b503461053957806003193601126105395760ff60209154166040519015158152f35b5034610539576040366003190112610539576125fc6143b7565b6001600160a01b03168152601f6020526040812080546024359290831015610539576020611a87848461445c565b50346105395780600319360112610539576020601554604051908152f35b5034610539576020366003190112610539576126626143b7565b600080516020615c1d833981519152825260016020908152604080842033600090815292529020546126969060ff1661489e565b6001600160a01b03166126a8816158f0565b6126b0575080f35b7f2b6bf71b58b3583add364b3d9060ebf8019650f65f5be35f5464b9cb3e4ba2d48280a280f35b50346105395780600319360112610539576020601654604051908152f35b503461053957806003193601126105395760206105ac61514e565b50346105395780600319360112610539576020600f54421015604051908152f35b50346105395760203660031901126105395761274b6143b7565b600080516020615c1d8339815191528252600160209081526040808420336000908152925290205461277f9060ff1661489e565b6001600160a01b03166127918161582d565b612799575080f35b7ff9b68063b051b82957fa193585681240904fed808db8b30fc5a2d2202c6ed6278280a280f35b50346105395780600319360112610539576020601054421015604051908152f35b503461053957806003193601126105395780805260016020908152604080832033600090815292529020546128189060ff1661491d565b6128206157ba565b60ff1981541681557f5db9ee0a495bf2e6ff9c91a7834c1ba4fdd244a5e8aa4e537bd38aeae4b073aa6020604051338152a180f35b50346105395780600319360112610539576006546128728161575e565b9161288060405193846144a6565b818352601f1961288f8361575e565b013660208501375b8181106128ac57604051806105e785826143cd565b806128ba600192600661445c565b838060a01b0391549060031b1c166128d282866151b2565b5201612897565b5034610539576020366003190112610539576128f6600435614d1d565b906105e7604051928392835260406020840152604083019061432f565b50346105395760203660031901126105395760206105ac6001600160a01b0361293a6143b7565b166000526005602052604060002054151590565b5034610539576020366003190112610539576004356129a181600f54612975814210614b60565b848052600160209081526040808720336000908152925290205461299b9060ff1661491d565b10614c96565b6129a96152c5565b81116129e1576020817fa8a30fc464c735231b45b2154d25ba95fbc6860f3b226667372cfc3977f2124b92601055604051908152a180f35b60405162461bcd60e51b815260206004820152601f60248201527f656e6420646174652061667465722076657374696e67537461727454696d65006044820152606490fd5b503461053957602036600319011261053957600435601d54811015612ab757612a59612a5360e0926145a1565b506145f4565b60808101519060018060a01b038151169060a081015165ffffffffffff602083015116604083015115159160c06060850151151594015194604051968752602087015260408601526060850152608084015260a083015260c0820152f35b60405162461bcd60e51b815260206004820152601a60248201527f70757263686173655f696420646f6573206e6f742065786973740000000000006044820152606490fd5b503461053957604036600319011261053957612b166143a1565b336001600160a01b03821603612b32576109eb906004356156d8565b63334bd91960e11b8252600482fd5b50346105395780600319360112610539576020601854604051908152f35b503461053957806003193601126105395760195490601b5490601c54908115600014612b9f575050602091612b996106f592600190614306565b906149db565b60018201809211612bbc575091612b996106f59260209490614306565b634e487b7160e01b81526011600452602490fd5b5034610539576040366003190112610539576004356024358015908115036113bf57612bfa6155cd565b612c03826145a1565b50546001600160a01b0316330361160c5781612c21612c2b93614d1d565b8194911515614c59565b6001612c36826145a1565b5001546003612c44836145a1565b5001549080612c5386846149db565b116115c7576115578583612c6d9361154d836003976149db565b50015515612c8d57600a54611573919033906001600160a01b0316615591565b6009546001600160a01b0316908115612e7f57600a54604051636eb1769f60e11b8152306004820152602481018490528493916001600160a01b031690602081604481855afa8015612e745784908690612e3a575b612cec92506149db565b60405163095ea7b360e01b602082019081526001600160a01b0385166024830152604480830193909352918152919085908190612d2a6064866144a6565b84519082855af1612d39614969565b81612e0b575b5080612e01575b15612dbc575b50506009546001600160a01b0316919050813b15612db8578291604483926040519586938492638b1e31c760e01b845260048401523360248401525af18015612dab57612d9b575b5050611573565b612da4916144a6565b3881612d94565b50604051903d90823e3d90fd5b5050fd5b612df4612df9936040519063095ea7b360e01b6020830152602482015286604482015260448152612dee6064826144a6565b82615882565b615882565b388080612d4c565b50803b1515612d46565b8051801592508215612e20575b505038612d3f565b612e3392506020809183010191016151c6565b3880612e18565b50506020813d602011612e6c575b81612e55602093836144a6565b81010312612e685783612cec9151612ce2565b8480fd5b3d9150612e48565b6040513d87823e3d90fd5b60405162461bcd60e51b815260206004820152601760248201527f4e6f2049444f207374616b696e6720636f6e74726163740000000000000000006044820152606490fd5b5034610539576040366003190112610539576109eb600435612ee46143a1565b90612f006109e182600052600160205260016040600020015490565b615649565b50346105395780600319360112610539576020600f544210604051908152f35b50346105395780600319360112610539576020601454604051908152f35b503461053957602036600319011261053957600435612f606155cd565b612f69816145a1565b50546001600160a01b0316330361307e5780612f87612f92926146b5565b829491921515614c59565b613001612ff9846002612fa4866145a1565b50805461ffff60d01b1916600160d81b1781556040518781527f16281741b836193cd92031d3d181c3241b9a87ba1eea1ef17fdd0cf8039fec2890602090a1612fef86600c546149db565b600c550154614c89565b600d546149db565b600d55600b546001600160a01b0316613060576130278480808087335af16119e4614969565b60405192835260208301527f275893a421a5df15c4da79585c78852a6bbf95b9064470c3d6a5636240274b8760403393a3600160085580f35b600b5461307990849033906001600160a01b0316615591565b613027565b60405162461bcd60e51b815260206004820152601a60248201527f4e6f74206275796572206f6620746869732070757263686173650000000000006044820152606490fd5b5034610539576020366003190112610539576020601d5460043510604051908152f35b50346105395780600319360112610539576020601954604051908152f35b50346105395760203660031901126105395760206106f5600435600052600160205260016040600020015490565b50346105395780600319360112610539578080526001602090815260408083203384529091528120546131679060ff1661491d565b61316f6155ef565b61317d601054421015614c0d565b6012546011541161339057600b546001600160a01b031661323b578080808060646131c87f000000000000000000000000000000000000000000000000000000000000000047614306565b04729a118309431f92cdadf9ca4bdd5d8f61db7fe75af16131e7614969565b501561320057610ad08180808047335af16119e4614969565b60405162461bcd60e51b8152602060048201526013602482015272119959481d1c985b9cd9995c8819985a5b1959606a1b6044820152606490fd5b600b546040516370a0823160e01b8152306004820152906001600160a01b0316602082602481845afa918215610e0757839261335b575b5060646132a36132e3937f000000000000000000000000000000000000000000000000000000000000000090614306565b04906040519163a9059cbb60e01b6020840152729a118309431f92cdadf9ca4bdd5d8f61db7fe76024840152604483015260448252612df46064836144a6565b600b546040516370a0823160e01b8152306004820152906001600160a01b0316602082602481845afa908115610e0757839161332557610ad092503390615591565b90506020823d602011613353575b81613340602093836144a6565b810103126113bf57610ad0915190611d6d565b3d9150613333565b91506020823d602011613388575b81613376602093836144a6565b810103126113bf579051906064613272565b3d9150613369565b60405162461bcd60e51b81526020600482015260196024820152781b5a5b9a5b5d5b481c985a5cd9481b9bdd081c995858da1959603a1b6044820152606490fd5b503461053957806003193601126105395760206040517f000000000000000000000000000000000000000000000000000000000000000015158152f35b503461053957806003193601126105395760206040517f000000000000000000000000000000000000000000000000000000000000000015158152f35b503461053957806003193601126105395760206040517f000000000000000000000000000000000000000000000000000000000000000015158152f35b5034610539576020366003190112610539576004356134a56155cd565b6134b3601054421015614c0d565b7f0000000000000000000000000000000000000000000000000000000000000000613745576134e1816145a1565b50546001600160a01b031633036137095760115480156136c457601254101561367f5761350d816145a1565b509060018201541561363a57815460ff8160d01c166135fd5760ff8160d81c166135b85761ffff60d01b1916600160d81b1782556040519081527f16281741b836193cd92031d3d181c3241b9a87ba1eea1ef17fdd0cf8039fec2890602090a1600b5482906001600160a01b0316613595578080806002611573950154335af16119e4614969565b50600b546002909101546135b39133906001600160a01b0316615591565b611573565b60405162461bcd60e51b815260206004820152601a60248201527f507572636861736520686173206265656e2072657665727465640000000000006044820152606490fd5b60405162461bcd60e51b81526020600482015260156024820152741c1d5c98da185cd9481a5cc8199a5b985b1a5e9959605a1b6044820152606490fd5b60405162461bcd60e51b815260206004820152601760248201527f707572636861736520616d6f756e74206973207a65726f0000000000000000006044820152606490fd5b60405162461bcd60e51b815260206004820152601e60248201527f6d696e696d756d20726169736520686173206265656e207265616368656400006044820152606490fd5b60405162461bcd60e51b815260206004820152601d60248201527f6e6f206d696e696d756d20726169736520686173206265656e207365740000006044820152606490fd5b60405162461bcd60e51b815260206004820152601460248201527330b2323932b9b99034b9903737ba10313abcb2b960611b6044820152606490fd5b60405162461bcd60e51b815260206004820152601e60248201527f73616c652068617320746f206265206e6f6e2041746f6d6963207377617000006044820152606490fd5b50346105395760c03660031901126105395760443560043560243560843560643560a43567ffffffffffffffff8111613e7e576137cb903690600401614370565b95909387805260016020526040882060018060a01b03331689526020526137f860ff60408a20541661491d565b6138006152c5565b80613e6d575b507f000000000000000000000000000000000000000000000000000000000000000015613e5b575b7f0000000000000000000000000000000000000000000000000000000000000000613e1657655af3107a40008611613dda578515801590613d9c5787613d5757601054808310613d12576307861f808101809111613cfe578211613cc5575b60178790558115613c8257506010548110613c3d576138ac83836149db565b8111613bf8575b806018556138c183836149db565b601054809110613bb357848411613b6e578715908115613b57576138f06138ea60015b88614306565b856149db565b6307861f808201809211613b435711613afe578260195583601a5584601b55601c5489601c5580613a9e575b506001881015613998575b50604051958652602086015260408501526060840152608083015260c060a08301528260c083015260018060fb1b038311613994578160e0917f507910142e585ee6be1b7c9f72cbf219e8cb55016324498741bfa51f1c30eace9460051b8091848401378101030190a180f35b8380fd5b8415613a6357613a4f578435655af3107a4000811015613a0a576139bb81614bac565b6001905b8882106139cd575b50613927565b6139e3906139dc838b8a6148ea565b35906149db565b90655af3107a4000821015613a05576001906139fe83614bac565b01906139bf565b6139c7565b60405162461bcd60e51b815260206004820152601c60248201527f66697273742076657374696e6720706572696f64203e3d2031303025000000006044820152606490fd5b634e487b7160e01b88526032600452602488fd5b60405162461bcd60e51b8152602060048201526013602482015272076657374696e674475726174696f6e203d203606c1b6044820152606490fd5b601c8a527f0e4562a10381dec21b205ed72637e6b1b523bdd0e4d4d50af5cd23dd4500a211017f0e4562a10381dec21b205ed72637e6b1b523bdd0e4d4d50af5cd23dd4500a2115b818110613af3575061391c565b8a8155600101613ae6565b60405162461bcd60e51b815260206004820152601960248201527f76657374696e6720656e642074696d6520746f6f206c617465000000000000006044820152606490fd5b634e487b7160e01b8b52601160045260248bfd5b60018901808a11613b43576138ea6138f0916138e4565b60405162461bcd60e51b815260206004820152601e60248201527f76657374696e67436c696666203e2076657374696e674475726174696f6e00006044820152606490fd5b60405162461bcd60e51b815260206004820152601760248201527f76657374696e67206265666f72652073616c6520656e640000000000000000006044820152606490fd5b60405162461bcd60e51b815260206004820152601860248201527f74676554696d65206166746572207665737420636c69666600000000000000006044820152606490fd5b60405162461bcd60e51b815260206004820152601b60248201527f74676554696d65206265666f72652073616c6520656e644461746500000000006044820152606490fd5b156138b35760405162461bcd60e51b81526020600482015260166024820152750746765416c6c6f636174696f6e206973206e6f7420360541b6044820152606490fd5b60405162461bcd60e51b81526020600482015260116024820152707467652074696d6520746f6f206c61746560781b6044820152606490fd5b634e487b7160e01b8a52601160045260248afd5b60405162461bcd60e51b815260206004820152601760248201527f74676554696d65206265666f72652073616c6520656e640000000000000000006044820152606490fd5b60405162461bcd60e51b815260206004820152601f60248201527f4e6f20544745207665737420666f7220706572696f646963616c2076657374006044820152606490fd5b811561388d5760405162461bcd60e51b815260206004820152601060248201526f074676554696d65206973206e6f7420360841b6044820152606490fd5b60405162461bcd60e51b8152602060048201526014602482015273746765416c6c6f636174696f6e203e203130302560601b6044820152606490fd5b60405162461bcd60e51b815260206004820152601a60248201527f6e6f2076657374696e6720666f722061746f6d696320737761700000000000006044820152606490fd5b613e68600f544210614b60565b61382e565b613e78904210614b14565b38613806565b8680fd5b503461053957806003193601126105395760206105ac6149e8565b503461053957806003193601126105395760206011541515604051908152f35b50346105395780600319360112610539576020601b54604051908152f35b50346105395780600319360112610539576020601354604051908152f35b50346105395780600319360112610539576020600f54604051908152f35b5034610539578060031936011261053957808052600160209081526040808320338452909152812054613f4c9060ff1661491d565b60155442111561408357600c54801580158091614078575b1561403b57613ff0575b50600d5480613f7b575080f35b600d829055600b546001600160a01b0316613fd257613fa38280808085335af16119e4614969565b6040519081527f6cd92f4bfc3a3d7f3404beaccae716da12e7b98c4d996556639fe71e8c8c35a160203392a280f35b600b54613feb90829033906001600160a01b0316615591565b613fa3565b81600c55614009813360018060a01b03600a5416615591565b6040519081527f75301a448908a9c46c60a7f4370ad6eb88c7c9aec9ddae491ba3d71299b97ad860203392a238613f6e565b60405162461bcd60e51b81526020600482015260156024820152744e6f20746f6b656e7320746f20776974686472617760581b6044820152606490fd5b50600d541515613f64565b60405162461bcd60e51b815260206004820152601760248201527f526566756e6420706572696f64206e6f7420656e6465640000000000000000006044820152606490fd5b503461053957806003193601126105395760206140e36152c5565b4210604051908152f35b50346105395760203660031901126105395760043567ffffffffffffffff8111610c275761411f903690600401614370565b9190600080516020615c1d833981519152825260016020526040822060018060a01b033316835260205261415960ff60408420541661489e565b8190825b84811061419d5750508061416f575080f35b60207f448f3bd350ede14a294c062177c5280fe1eae125d16757da21f5f51d6e89daae91604051908152a180f35b6141bc6001600160a01b036141b66117888489876148ea565b166157d8565b6141c9575b60010161415d565b916141d560019161490e565b9290506141c1565b5034610539578060031936011261053957602060ff60025460a01c166040519015158152f35b5034610539576020366003190112610539576105e76142236004356146b5565b6040939193519384938452602084015260606040840152606083019061432f565b503461053957806003193601126105395750600b546040516001600160a01b03909116158152602090f35b503461053957806003193601126105395760206040516307861f808152f35b5034610539578060031936011261053957506020652d79883d2000604051908152f35b905034610c27576020366003190112610c275760043563ffffffff60e01b81168091036113bf5760209250637965db0b60e01b81149081156142f5575b5015158152f35b6301ffc9a760e01b149050386142ee565b8181029291811591840414171561431957565b634e487b7160e01b600052601160045260246000fd5b919082519283825260005b84811061435b575050826000602080949584010152601f8019910116010190565b8060208092840101518282860101520161433a565b9181601f84011215610b455782359167ffffffffffffffff8311610b45576020808501948460051b010111610b4557565b602435906001600160a01b0382168203610b4557565b600435906001600160a01b0382168203610b4557565b602060408183019282815284518094520192019060005b8181106143f15750505090565b82516001600160a01b03168452602093840193909201916001016143e4565b601e5481101561442b57601e60005260206000200190600090565b634e487b7160e01b600052603260045260246000fd5b601c5481101561442b57601c60005260206000200190600090565b805482101561442b5760005260206000200190600090565b60e0810190811067ffffffffffffffff82111761449057604052565b634e487b7160e01b600052604160045260246000fd5b90601f8019910116810190811067ffffffffffffffff82111761449057604052565b67ffffffffffffffff811161449057601f01601f191660200190565b81601f82011215610b45578035906144fb826144c8565b9261450960405194856144a6565b82845260208383010111610b4557816000926020809301838601378301015290565b6060600319820112610b45576004356001600160a01b0381168103610b455791602435916044359067ffffffffffffffff8211610b455761456e916004016144e4565b90565b906040600319830112610b4557600435916024359067ffffffffffffffff8211610b455761456e916004016144e4565b601d5481101561442b57601d60005260206000209060021b0190600090565b906020808351928381520192019060005b8181106145de5750505090565b82518452602093840193909201916001016145d1565b9060405161460181614474565b60c06003829460ff815460018060a01b038116865265ffffffffffff8160a01c166020870152818160d01c161515604087015260d81c161515606085015260018101546080850152600281015460a08501520154910152565b604051906146696040836144a6565b601a82527f507572636861736520686173206265656e2072657665727465640000000000006020830152565b811561469f570490565b634e487b7160e01b600052601260045260246000fd5b7f000000000000000000000000000000000000000000000000000000000000000061485c576146e2615534565b1561482357601d548110156147e157612a536146fd916145a1565b90604082015161479e5760608201516147905760c082015161474d576080655af3107a400061473360a085015160165490614306565b04920151906040516147466020826144a6565b6000815290565b90506000906000906040516147636040826144a6565b601b81527f4e6f20726566756e6420696620746f6b656e7320636c61696d65640000000000602082015290565b60009150819061456e61465a565b90506000906000906040516147b46040826144a6565b601a81527f507572636861736520616c72656164792066696e616c697a6564000000000000602082015290565b506000906000906040516147f66040826144a6565b601781527f507572636861736520646f6573206e6f74206578697374000000000000000000602082015290565b506000906000906040516148386040826144a6565b6014815273139bdd081a5b881c99599d5b99081c195c9a5bd960621b602082015290565b506000906000906040516148716040826144a6565b601981527f4e6f20726566756e6420666f722041746f6d6963207377617000000000000000602082015290565b156148a557565b60405162461bcd60e51b815260206004820152601c60248201527f63616c6c6572206973206e6f742057686974656c6973744f776e6572000000006044820152606490fd5b919081101561442b5760051b0190565b356001600160a01b0381168103610b455790565b60001981146143195760010190565b1561492457565b60405162461bcd60e51b815260206004820152601960248201527f63616c6c657220686173206e6f742061646d696e20726f6c65000000000000006044820152606490fd5b3d15614994573d9061497a826144c8565b9161498860405193846144a6565b82523d6000602084013e565b606090565b156149a057565b60405162461bcd60e51b8152602060048201526013602482015272115512081d1c985b9cd9995c8819985a5b1959606a1b6044820152606490fd5b9190820180921161431957565b7f000000000000000000000000000000000000000000000000000000000000000015614a9e57600a546040516370a0823160e01b815230600482015290602090829060249082906001600160a01b03165afa8015614a9257600090614a5e575b614a569150601254906149db565b601354111590565b506020813d602011614a8a575b81614a78602093836144a6565b81010312610b4557614a569051614a48565b3d9150614a6b565b6040513d6000823e3d90fd5b600a546040516370a0823160e01b815230600482015290602090829060249082906001600160a01b03165afa908115614a9257600091614ae2575b50601354111590565b90506020813d602011614b0c575b81614afd602093836144a6565b81010312610b45575138614ad9565b3d9150614af0565b15614b1b57565b60405162461bcd60e51b815260206004820152601760248201527f76657374696e6720616c726561647920737461727465640000000000000000006044820152606490fd5b15614b6757565b60405162461bcd60e51b815260206004820152601a60248201527f746f6b656e2073616c6520616c726561647920737461727465640000000000006044820152606490fd5b601c54600160401b81101561449057614bd0816001614be79301601c55601c61445c565b819391549060031b91821b91600019901b19161790565b9055565b805490600160401b8210156144905781614bd0916001614be79401815561445c565b15614c1457565b60405162461bcd60e51b815260206004820152601860248201527f73616c652068617320746f2062652066696e616c697a656400000000000000006044820152606490fd5b15614c615750565b60405162461bcd60e51b815260206004820152908190614c8590602483019061432f565b0390fd5b9190820391821161431957565b15614c9d57565b60405162461bcd60e51b815260206004820152601a60248201527f656e642064617465206265666f726520737461727420646174650000000000006044820152606490fd5b60405190614cf16040836144a6565b601a82527f70757263686173655f696420646f6573206e6f742065786973740000000000006020830152565b601d54811015615142577f00000000000000000000000000000000000000000000000000000000000000006151035760105442106150c45760ff60005416615085576012546011541161504a5760ff614d75826145a1565b505460d81c1661503e576003614d986001614d8f846145a1565b500154926145a1565b50015481811015614ffe576000601c548015600014614f5a5750601954601b5442614dc382846149db565b11614edb57505050815b828211614e8a578211614e4a57614de391614c89565b9060008215614e1a5750604051614dfb6040826144a6565b600f81526e726561647920746f2072656465656d60881b602082015290565b50604051614e296040826144a6565b60118152706e6f7468696e6720746f2072656465656d60781b602082015290565b5050600090604051614e5d6040826144a6565b601f81527f49452076657374416d6f756e74203e2070757263686173655f616d6f756e7400602082015290565b505050600090604051614e9e6060826144a6565b602781527f49452070757263686173655f616d6f756e7452656465656d6564203e207665736020820152661d105b5bdd5b9d60ca1b604082015290565b601894929454421015614ef0575b5050614dcd565b909350655af3107a4000614f0660175484614306565b0490819442614f17601a54836149db565b1115614f24575b50614ee9565b83955090614f4c612b9992614f46614f3f86614f5198614c89565b9142614c89565b90614306565b614695565b91388080614f1e565b9050601954614f6b601a54826149db565b4210614fbc57614f7e614f879142614c89565b601b5490614695565b908110614f95575081614dcd565b614fb5614fa8655af3107a400092614441565b90549060031b1c84614306565b0491614dcd565b50505050600090604051614fd16040826144a6565b601d81527f76657374696e6720636c696666206e6f74207965742072656163686564000000602082015290565b50506000906040516150116040826144a6565b601a81527f616c6c20746f6b656e20616c72656164792072656465656d6564000000000000602082015290565b5060009061456e61465a565b5060009060405161505c6040826144a6565b60198152781b5a5b9a5b5d5b481c985a5cd9481b9bdd081c995858da1959603a1b602082015290565b506000906040516150976040826144a6565b601d81527f746f6b656e2073616c6520636f6e747261637420697320706175736564000000602082015290565b506000906040516150d66040826144a6565b601881527f746f6b656e2073616c65206e6f742066696e616c697a65640000000000000000602082015290565b506000906040516151156040826144a6565b601981527f68617320746f206265206e6f6e2041746f6d6963207377617000000000000000602082015290565b5060009061456e614ce2565b600f544210158061515c5790565b50601054421090565b906040519182815491828252602082019060005260206000209260005b818110615199575050615197925003836144a6565b565b8454835260019485019487945060209093019201615182565b805182101561442b5760209160051b010190565b90816020910312610b4557518015158103610b455790565b61522192916040519060208201926001600160601b03199060601b16835260348201523060601b6054820152604881526152196068826144a6565b519020615235565b6002546001600160a01b0391821691161490565b60418251036152805761456e91615277917f19457468657265756d205369676e6564204d6573736167653a0a333200000000600052601c52603c600020615a6e565b90929192615aaa565b60405162461bcd60e51b815260206004820152601960248201527f7369676e6174757265206973206e6f74203635206279746573000000000000006044820152606490fd5b60185480156152d15790565b5061456e601954601a54906149db565b60195480421061531657601b54801561530f57614f4c6153019242614c89565b600181018091116143195790565b5050600190565b50600090565b600e5461532891614306565b600a5460405163313ce56760e01b815290602090829060049082906001600160a01b03165afa908115614a9257600091615377575b5060ff1690604d82116143195761456e91600a0a90614695565b6020813d6020116153ac575b81615390602093836144a6565b81010312610c2757519060ff82168203610539575060ff61535d565b3d9150615383565b6001600160a01b03811660008181526007602052604090205491929161544b576002549060ff8260a01c161590811561542d575b50615424576001600160a01b031615159182615410575b505061540a57600090565b60035490565b61541d92506000906151de565b38806153ff565b50505060035490565b61544591506000526005602052604060002054151590565b386153e8565b505050600090565b6001600160a01b038116600081815260076020526040902054929391926154f4576002549060ff8260a01c16159081156154d6575b506154cc576001600160a01b03161515918390836154ba575b5050506154ae5750600090565b8061456e575060035490565b6154c493506151de565b3882816154a1565b5050505060035490565b6154ee91506000526005602052604060002054151590565b38615488565b50505050600090565b6001600160a01b03166000908152601f6020526040902061456e90615165565b601c54801561531657600181018091116143195790565b601454421015806155425790565b5060155442111590565b601d548110615567575060009060009060009061456e614ce2565b6001615572826145a1565b5001549161558d6003615584846145a1565b50015492614d1d565b9091565b60405163a9059cbb60e01b60208201526001600160a01b0392909216602483015260448083019390935291815261519791612df46064836144a6565b6002600854146155de576002600855565b633ee5aeb560e01b60005260046000fd5b60ff600054166155fb57565b63d93c066560e01b60005260046000fd5b600081815260016020908152604080832033845290915290205460ff16156156315750565b63e2517d3f60e01b6000523360045260245260446000fd5b60008181526001602090815260408083206001600160a01b038616845290915290205460ff166156d15760008181526001602081815260408084206001600160a01b0396909616808552959091528220805460ff19169091179055339291907f2f8788117e7eff1d82e926ec794901d17c78024a50270940304540a733656f0d9080a4600190565b5050600090565b60008181526001602090815260408083206001600160a01b038616845290915290205460ff16156156d15760008181526001602090815260408083206001600160a01b0395909516808452949091528120805460ff19169055339291907ff6391f5c32d9c69d2a47ea670b442974b53935d1edc7fd64eb21e047a839171b9080a4600190565b67ffffffffffffffff81116144905760051b60200190565b6040516323b872dd60e01b60208201526001600160a01b03928316602482015292909116604483015260648083019390935291815261519791612df46084836144a6565b60ff60005416156157c757565b638dfc202b60e01b60005260046000fd5b8060005260056020526040600020541560001461531657600454600160401b81101561449057615814614bd0826001859401600455600461445c565b9055600454906000526005602052604060002055600190565b8060005260076020526040600020541560001461531657600654600160401b81101561449057615869614bd0826001859401600655600661445c565b9055600654906000526007602052604060002055600190565b6000806158ab9260018060a01b03169360208151910182865af16158a4614969565b9083615bbb565b80519081151591826158d5575b50506158c15750565b635274afe760e01b60005260045260246000fd5b6158e892506020809183010191016151c6565b1538806158b8565b60008181526007602052604090205480156156d15760001981018181116143195760065460001981019190821161431957818103615980575b505050600654801561596a576000190161594481600661445c565b8154906000199060031b1b19169055600655600052600760205260006040812055600190565b634e487b7160e01b600052603160045260246000fd5b6159a2615991614bd093600661445c565b90549060031b1c928392600661445c565b90556000526007602052604060002055388080615929565b60008181526005602052604090205480156156d15760001981018181116143195760045460001981019190821161431957818103615a34575b505050600454801561596a5760001901615a0e81600461445c565b8154906000199060031b1b19169055600455600052600560205260006040812055600190565b615a56615a45614bd093600461445c565b90549060031b1c928392600461445c565b905560005260056020526040600020553880806159f3565b8151919060418303615a9f57615a9892506020820151906060604084015193015160001a90615b32565b9192909190565b505060009160029190565b9190916004811015615b1c5780615ac057509050565b600060018203615adb5763f645eedf60e01b60005260046000fd5b5060028103615af9578263fce698f760e01b60005260045260246000fd5b9091600360009214615b09575050565b6335e2f38360e21b825260045260249150fd5b634e487b7160e01b600052602160045260246000fd5b91907f7fffffffffffffffffffffffffffffff5d576e7357a4501ddfe92f46681b20a08411615baf579160209360809260ff60009560405194855216868401526040830152606082015282805260015afa15614a92576000516001600160a01b03811615615ba35790600090600090565b50600090600190600090565b50505060009160039190565b90615be15750805115615bd057805190602001fd5b630a12f52160e11b60005260046000fd5b81511580615c13575b615bf2575090565b639996b31560e01b60009081526001600160a01b0391909116600452602490fd5b50803b15615bea56feb813b807c25079ba97f1770664c6a9e57c59afe74a6295f1ed01c10e3bb6baaea164736f6c634300081b000a2f8788117e7eff1d82e926ec794901d17c78024a50270940304540a733656f0da6eef7e35abe7026729641147f7915573c7e97b47efa546f5f6e3230263bcb49358823ad0653452618750bed6506f24f63ef58f0cce438e3a379e32873da19d2",
  "linkReferences": {},
  "deployedLinkReferences": {}
}