{
  "_format": "hh-sol-artifact-1",
  "contractName": "FixedSwap",
  "sourceName": "contracts/FixedSwap.sol",
  "abi": [
    {
      "inputs": [
        {
          "internalType": "address",
          "name": "_tokenAddress",
          "type": "address"
        },
        {
          "internalType": "uint256",
          "name": "_tradeValue",
          "type": "uint256"
        },
        {
          "internalType": "uint256",
          "name": "_tokensForSale",
          "type": "uint256"
        },
        {
          "internalType": "uint256",
          "name": "_startDate",
          "type": "uint256"
        },
        {
          "internalType": "uint256",
          "name": "_endDate",
          "type": "uint256"
        },
        {
          "internalType": "uint256",
          "name": "_individualMinimumAmount",
          "type": "uint256"
        },
        {
          "internalType": "uint256",
          "name": "_individualMaximumAmount",
          "type": "uint256"
        },
        {
          "internalType": "bool",
          "name": "_ignored",
          "type": "bool"
        },
        {
          "internalType": "uint256",
          "name": "_minimumRaise",
          "type": "uint256"
        },
        {
          "internalType": "uint256",
          "name": "_feePercentage",
          "type": "uint256"
        },
        {
          "internalType": "uint32",
          "name": "_flags",
          "type": "uint32"
        },
        {
          "internalType": "address",
          "name": "_erc20TradeAddress",
          "type": "address"
        }
      ],
      "stateMutability": "nonpayable",
      "type": "constructor"
    },
    {
      "anonymous": false,
      "inputs": [
        {
          "indexed": false,
          "internalType": "uint256",
          "name": "count",
          "type": "uint256"
        }
      ],
      "name": "AddedArrayToBlacklist",
      "type": "event"
    },
    {
      "anonymous": false,
      "inputs": [
        {
          "indexed": false,
          "internalType": "uint256",
          "name": "count",
          "type": "uint256"
        }
      ],
      "name": "AddedArrayToWhitelist",
      "type": "event"
    },
    {
      "anonymous": false,
      "inputs": [
        {
          "indexed": true,
          "internalType": "address",
          "name": "account",
          "type": "address"
        }
      ],
      "name": "AddedToBlacklist",
      "type": "event"
    },
    {
      "anonymous": false,
      "inputs": [
        {
          "indexed": true,
          "internalType": "address",
          "name": "account",
          "type": "address"
        }
      ],
      "name": "AddedToWhitelist",
      "type": "event"
    },
    {
      "anonymous": false,
      "inputs": [
        {
          "indexed": false,
          "internalType": "address",
          "name": "account",
          "type": "address"
        }
      ],
      "name": "Paused",
      "type": "event"
    },
    {
      "anonymous": false,
      "inputs": [
        {
          "indexed": false,
          "internalType": "uint256",
          "name": "amount",
          "type": "uint256"
        },
        {
          "indexed": true,
          "internalType": "address",
          "name": "purchaser",
          "type": "address"
        },
        {
          "indexed": false,
          "internalType": "uint256",
          "name": "timestamp",
          "type": "uint256"
        }
      ],
      "name": "PurchaseEvent",
      "type": "event"
    },
    {
      "anonymous": false,
      "inputs": [
        {
          "indexed": true,
          "internalType": "address",
          "name": "account",
          "type": "address"
        }
      ],
      "name": "RemovedFromBlacklist",
      "type": "event"
    },
    {
      "anonymous": false,
      "inputs": [
        {
          "indexed": true,
          "internalType": "address",
          "name": "account",
          "type": "address"
        }
      ],
      "name": "RemovedFromWhitelist",
      "type": "event"
    },
    {
      "anonymous": false,
      "inputs": [
        {
          "indexed": true,
          "internalType": "bytes32",
          "name": "role",
          "type": "bytes32"
        },
        {
          "indexed": true,
          "internalType": "bytes32",
          "name": "previousAdminRole",
          "type": "bytes32"
        },
        {
          "indexed": true,
          "internalType": "bytes32",
          "name": "newAdminRole",
          "type": "bytes32"
        }
      ],
      "name": "RoleAdminChanged",
      "type": "event"
    },
    {
      "anonymous": false,
      "inputs": [
        {
          "indexed": true,
          "internalType": "bytes32",
          "name": "role",
          "type": "bytes32"
        },
        {
          "indexed": true,
          "internalType": "address",
          "name": "account",
          "type": "address"
        },
        {
          "indexed": true,
          "internalType": "address",
          "name": "sender",
          "type": "address"
        }
      ],
      "name": "RoleGranted",
      "type": "event"
    },
    {
      "anonymous": false,
      "inputs": [
        {
          "indexed": true,
          "internalType": "bytes32",
          "name": "role",
          "type": "bytes32"
        },
        {
          "indexed": true,
          "internalType": "address",
          "name": "account",
          "type": "address"
        },
        {
          "indexed": true,
          "internalType": "address",
          "name": "sender",
          "type": "address"
        }
      ],
      "name": "RoleRevoked",
      "type": "event"
    },
    {
      "anonymous": false,
      "inputs": [
        {
          "indexed": false,
          "internalType": "bool",
          "name": "hasWhitelisting",
          "type": "bool"
        }
      ],
      "name": "SetHasWhitelisting",
      "type": "event"
    },
    {
      "anonymous": false,
      "inputs": [
        {
          "indexed": false,
          "internalType": "address",
          "name": "account",
          "type": "address"
        }
      ],
      "name": "Unpaused",
      "type": "event"
    },
    {
      "inputs": [],
      "name": "DECIMALS_PERCENT_MUL",
      "outputs": [
        {
          "internalType": "uint256",
          "name": "",
          "type": "uint256"
        }
      ],
      "stateMutability": "view",
      "type": "function"
    },
    {
      "inputs": [],
      "name": "DEFAULT_ADMIN_ROLE",
      "outputs": [
        {
          "internalType": "bytes32",
          "name": "",
          "type": "bytes32"
        }
      ],
      "stateMutability": "view",
      "type": "function"
    },
    {
      "inputs": [],
      "name": "FEE_ADDRESS",
      "outputs": [
        {
          "internalType": "address",
          "name": "",
          "type": "address"
        }
      ],
      "stateMutability": "view",
      "type": "function"
    },
    {
      "inputs": [],
      "name": "PolsStakeAddress",
      "outputs": [
        {
          "internalType": "address",
          "name": "",
          "type": "address"
        }
      ],
      "stateMutability": "view",
      "type": "function"
    },
    {
      "inputs": [],
      "name": "PolsStakeAmount",
      "outputs": [
        {
          "internalType": "uint256",
          "name": "",
          "type": "uint256"
        }
      ],
      "stateMutability": "view",
      "type": "function"
    },
    {
      "inputs": [],
      "name": "PolsStakeRewards",
      "outputs": [
        {
          "internalType": "uint256",
          "name": "",
          "type": "uint256"
        }
      ],
      "stateMutability": "view",
      "type": "function"
    },
    {
      "inputs": [],
      "name": "WHITELIST_OWNER_ROLE",
      "outputs": [
        {
          "internalType": "bytes32",
          "name": "",
          "type": "bytes32"
        }
      ],
      "stateMutability": "view",
      "type": "function"
    },
    {
      "inputs": [
        {
          "internalType": "address[]",
          "name": "_addresses",
          "type": "address[]"
        }
      ],
      "name": "addArrayToBlacklist",
      "outputs": [],
      "stateMutability": "nonpayable",
      "type": "function"
    },
    {
      "inputs": [
        {
          "internalType": "address[]",
          "name": "_addresses",
          "type": "address[]"
        }
      ],
      "name": "addArrayToWhitelist",
      "outputs": [],
      "stateMutability": "nonpayable",
      "type": "function"
    },
    {
      "inputs": [
        {
          "internalType": "address",
          "name": "_address",
          "type": "address"
        }
      ],
      "name": "addToBlacklist",
      "outputs": [],
      "stateMutability": "nonpayable",
      "type": "function"
    },
    {
      "inputs": [
        {
          "internalType": "address",
          "name": "_address",
          "type": "address"
        }
      ],
      "name": "addToWhitelist",
      "outputs": [],
      "stateMutability": "nonpayable",
      "type": "function"
    },
    {
      "inputs": [],
      "name": "availableTokens",
      "outputs": [
        {
          "internalType": "uint256",
          "name": "",
          "type": "uint256"
        }
      ],
      "stateMutability": "view",
      "type": "function"
    },
    {
      "inputs": [
        {
          "internalType": "uint256",
          "name": "",
          "type": "uint256"
        }
      ],
      "name": "buyers",
      "outputs": [
        {
          "internalType": "address",
          "name": "",
          "type": "address"
        }
      ],
      "stateMutability": "view",
      "type": "function"
    },
    {
      "inputs": [
        {
          "internalType": "uint256",
          "name": "_amount",
          "type": "uint256"
        }
      ],
      "name": "cost",
      "outputs": [
        {
          "internalType": "uint256",
          "name": "",
          "type": "uint256"
        }
      ],
      "stateMutability": "view",
      "type": "function"
    },
    {
      "inputs": [
        {
          "internalType": "address",
          "name": "_account",
          "type": "address"
        },
        {
          "internalType": "uint256",
          "name": "_accountMaximunAllocation",
          "type": "uint256"
        },
        {
          "internalType": "bytes",
          "name": "_signature",
          "type": "bytes"
        }
      ],
      "name": "determineAccountMaximunAllocation",
      "outputs": [
        {
          "internalType": "uint256",
          "name": "",
          "type": "uint256"
        }
      ],
      "stateMutability": "view",
      "type": "function"
    },
    {
      "inputs": [],
      "name": "endDate",
      "outputs": [
        {
          "internalType": "uint256",
          "name": "",
          "type": "uint256"
        }
      ],
      "stateMutability": "view",
      "type": "function"
    },
    {
      "inputs": [],
      "name": "erc20",
      "outputs": [
        {
          "internalType": "contract IERC20",
          "name": "",
          "type": "address"
        }
      ],
      "stateMutability": "view",
      "type": "function"
    },
    {
      "inputs": [],
      "name": "erc20TradeIn",
      "outputs": [
        {
          "internalType": "contract IERC20",
          "name": "",
          "type": "address"
        }
      ],
      "stateMutability": "view",
      "type": "function"
    },
    {
      "inputs": [],
      "name": "feePercentage",
      "outputs": [
        {
          "internalType": "uint256",
          "name": "",
          "type": "uint256"
        }
      ],
      "stateMutability": "view",
      "type": "function"
    },
    {
      "inputs": [
        {
          "internalType": "uint256",
          "name": "_amount",
          "type": "uint256"
        }
      ],
      "name": "fund",
      "outputs": [],
      "stateMutability": "nonpayable",
      "type": "function"
    },
    {
      "inputs": [],
      "name": "getAPIVersion",
      "outputs": [
        {
          "internalType": "uint32",
          "name": "API_VERSION",
          "type": "uint32"
        }
      ],
      "stateMutability": "pure",
      "type": "function"
    },
    {
      "inputs": [],
      "name": "getBlacklistedAddresses",
      "outputs": [
        {
          "internalType": "address[]",
          "name": "",
          "type": "address[]"
        }
      ],
      "stateMutability": "view",
      "type": "function"
    },
    {
      "inputs": [],
      "name": "getBuyers",
      "outputs": [
        {
          "internalType": "address[]",
          "name": "",
          "type": "address[]"
        }
      ],
      "stateMutability": "view",
      "type": "function"
    },
    {
      "inputs": [],
      "name": "getCurrentSchedule",
      "outputs": [
        {
          "internalType": "uint256",
          "name": "schedule",
          "type": "uint256"
        }
      ],
      "stateMutability": "view",
      "type": "function"
    },
    {
      "inputs": [
        {
          "internalType": "address",
          "name": "_address",
          "type": "address"
        }
      ],
      "name": "getMyPurchases",
      "outputs": [
        {
          "internalType": "uint256[]",
          "name": "",
          "type": "uint256[]"
        }
      ],
      "stateMutability": "view",
      "type": "function"
    },
    {
      "inputs": [],
      "name": "getMyPurchases_msgSender",
      "outputs": [
        {
          "internalType": "uint256[]",
          "name": "",
          "type": "uint256[]"
        }
      ],
      "stateMutability": "view",
      "type": "function"
    },
    {
      "inputs": [
        {
          "internalType": "uint256",
          "name": "purchase_id",
          "type": "uint256"
        }
      ],
      "name": "getPurchase",
      "outputs": [
        {
          "internalType": "uint256",
          "name": "amount",
          "type": "uint256"
        },
        {
          "internalType": "address",
          "name": "purchaser",
          "type": "address"
        },
        {
          "internalType": "uint256",
          "name": "costAmount",
          "type": "uint256"
        },
        {
          "internalType": "uint48",
          "name": "timestamp",
          "type": "uint48"
        },
        {
          "internalType": "bool",
          "name": "wasFinalized",
          "type": "bool"
        },
        {
          "internalType": "bool",
          "name": "reverted",
          "type": "bool"
        },
        {
          "internalType": "uint256",
          "name": "amountRedeemed",
          "type": "uint256"
        }
      ],
      "stateMutability": "view",
      "type": "function"
    },
    {
      "inputs": [],
      "name": "getPurchasesCount",
      "outputs": [
        {
          "internalType": "uint256",
          "name": "count",
          "type": "uint256"
        }
      ],
      "stateMutability": "view",
      "type": "function"
    },
    {
      "inputs": [
        {
          "internalType": "uint256",
          "name": "purchase_id",
          "type": "uint256"
        }
      ],
      "name": "getRedeemStatus",
      "outputs": [
        {
          "internalType": "uint256",
          "name": "amount",
          "type": "uint256"
        },
        {
          "internalType": "uint256",
          "name": "amountRedeemed",
          "type": "uint256"
        },
        {
          "internalType": "uint256",
          "name": "vestAmount",
          "type": "uint256"
        },
        {
          "internalType": "string",
          "name": "message",
          "type": "string"
        }
      ],
      "stateMutability": "view",
      "type": "function"
    },
    {
      "inputs": [
        {
          "internalType": "uint256",
          "name": "purchase_id",
          "type": "uint256"
        }
      ],
      "name": "getRedeemableTokensAmount",
      "outputs": [
        {
          "internalType": "uint256",
          "name": "amount",
          "type": "uint256"
        },
        {
          "internalType": "string",
          "name": "message",
          "type": "string"
        }
      ],
      "stateMutability": "view",
      "type": "function"
    },
    {
      "inputs": [
        {
          "internalType": "bytes32",
          "name": "role",
          "type": "bytes32"
        }
      ],
      "name": "getRoleAdmin",
      "outputs": [
        {
          "internalType": "bytes32",
          "name": "",
          "type": "bytes32"
        }
      ],
      "stateMutability": "view",
      "type": "function"
    },
    {
      "inputs": [],
      "name": "getWhitelistedAddresses",
      "outputs": [
        {
          "internalType": "address[]",
          "name": "",
          "type": "address[]"
        }
      ],
      "stateMutability": "view",
      "type": "function"
    },
    {
      "inputs": [
        {
          "internalType": "bytes32",
          "name": "role",
          "type": "bytes32"
        },
        {
          "internalType": "address",
          "name": "account",
          "type": "address"
        }
      ],
      "name": "grantRole",
      "outputs": [],
      "stateMutability": "nonpayable",
      "type": "function"
    },
    {
      "inputs": [],
      "name": "hasFinalized",
      "outputs": [
        {
          "internalType": "bool",
          "name": "",
          "type": "bool"
        }
      ],
      "stateMutability": "view",
      "type": "function"
    },
    {
      "inputs": [],
      "name": "hasMinimumAmount",
      "outputs": [
        {
          "internalType": "bool",
          "name": "",
          "type": "bool"
        }
      ],
      "stateMutability": "view",
      "type": "function"
    },
    {
      "inputs": [],
      "name": "hasMinimumRaise",
      "outputs": [
        {
          "internalType": "bool",
          "name": "",
          "type": "bool"
        }
      ],
      "stateMutability": "view",
      "type": "function"
    },
    {
      "inputs": [
        {
          "internalType": "bytes32",
          "name": "role",
          "type": "bytes32"
        },
        {
          "internalType": "address",
          "name": "account",
          "type": "address"
        }
      ],
      "name": "hasRole",
      "outputs": [
        {
          "internalType": "bool",
          "name": "",
          "type": "bool"
        }
      ],
      "stateMutability": "view",
      "type": "function"
    },
    {
      "inputs": [],
      "name": "hasStarted",
      "outputs": [
        {
          "internalType": "bool",
          "name": "",
          "type": "bool"
        }
      ],
      "stateMutability": "view",
      "type": "function"
    },
    {
      "inputs": [],
      "name": "hasWhitelisting",
      "outputs": [
        {
          "internalType": "bool",
          "name": "",
          "type": "bool"
        }
      ],
      "stateMutability": "view",
      "type": "function"
    },
    {
      "inputs": [],
      "name": "individualMaximumAmount",
      "outputs": [
        {
          "internalType": "uint256",
          "name": "",
          "type": "uint256"
        }
      ],
      "stateMutability": "view",
      "type": "function"
    },
    {
      "inputs": [],
      "name": "individualMinimumAmount",
      "outputs": [
        {
          "internalType": "uint256",
          "name": "",
          "type": "uint256"
        }
      ],
      "stateMutability": "view",
      "type": "function"
    },
    {
      "inputs": [
        {
          "internalType": "address",
          "name": "_account",
          "type": "address"
        }
      ],
      "name": "isAddressPOLSWhitelisted",
      "outputs": [
        {
          "internalType": "bool",
          "name": "",
          "type": "bool"
        }
      ],
      "stateMutability": "view",
      "type": "function"
    },
    {
      "inputs": [
        {
          "internalType": "address",
          "name": "_address",
          "type": "address"
        }
      ],
      "name": "isBlacklisted",
      "outputs": [
        {
          "internalType": "bool",
          "name": "",
          "type": "bool"
        }
      ],
      "stateMutability": "view",
      "type": "function"
    },
    {
      "inputs": [
        {
          "internalType": "uint256",
          "name": "purchase_id",
          "type": "uint256"
        }
      ],
      "name": "isBuyer",
      "outputs": [
        {
          "internalType": "bool",
          "name": "",
          "type": "bool"
        }
      ],
      "stateMutability": "view",
      "type": "function"
    },
    {
      "inputs": [],
      "name": "isETHTrade",
      "outputs": [
        {
          "internalType": "bool",
          "name": "",
          "type": "bool"
        }
      ],
      "stateMutability": "view",
      "type": "function"
    },
    {
      "inputs": [],
      "name": "isOpen",
      "outputs": [
        {
          "internalType": "bool",
          "name": "",
          "type": "bool"
        }
      ],
      "stateMutability": "view",
      "type": "function"
    },
    {
      "inputs": [],
      "name": "isPOLSWhitelisted",
      "outputs": [
        {
          "internalType": "bool",
          "name": "",
          "type": "bool"
        }
      ],
      "stateMutability": "view",
      "type": "function"
    },
    {
      "inputs": [],
      "name": "isPreStart",
      "outputs": [
        {
          "internalType": "bool",
          "name": "",
          "type": "bool"
        }
      ],
      "stateMutability": "view",
      "type": "function"
    },
    {
      "inputs": [],
      "name": "isSaleFunded",
      "outputs": [
        {
          "internalType": "bool",
          "name": "",
          "type": "bool"
        }
      ],
      "stateMutability": "view",
      "type": "function"
    },
    {
      "inputs": [
        {
          "internalType": "address",
          "name": "_userAccountAaddress",
          "type": "address"
        },
        {
          "internalType": "uint256",
          "name": "_accountMaximunAllocation",
          "type": "uint256"
        },
        {
          "internalType": "bytes",
          "name": "signature",
          "type": "bytes"
        }
      ],
      "name": "isSignerForAddressMaxAlloc",
      "outputs": [
        {
          "internalType": "bool",
          "name": "",
          "type": "bool"
        }
      ],
      "stateMutability": "view",
      "type": "function"
    },
    {
      "inputs": [
        {
          "internalType": "bytes32",
          "name": "hash",
          "type": "bytes32"
        },
        {
          "internalType": "bytes",
          "name": "signature",
          "type": "bytes"
        }
      ],
      "name": "isSignerFromBytes32",
      "outputs": [
        {
          "internalType": "bool",
          "name": "",
          "type": "bool"
        }
      ],
      "stateMutability": "view",
      "type": "function"
    },
    {
      "inputs": [],
      "name": "isTokenSwapAtomic",
      "outputs": [
        {
          "internalType": "bool",
          "name": "",
          "type": "bool"
        }
      ],
      "stateMutability": "view",
      "type": "function"
    },
    {
      "inputs": [
        {
          "internalType": "address",
          "name": "_address",
          "type": "address"
        }
      ],
      "name": "isWhitelisted",
      "outputs": [
        {
          "internalType": "bool",
          "name": "",
          "type": "bool"
        }
      ],
      "stateMutability": "view",
      "type": "function"
    },
    {
      "inputs": [],
      "name": "minimumRaise",
      "outputs": [
        {
          "internalType": "uint256",
          "name": "",
          "type": "uint256"
        }
      ],
      "stateMutability": "view",
      "type": "function"
    },
    {
      "inputs": [],
      "name": "minimumRaiseAchieved",
      "outputs": [
        {
          "internalType": "bool",
          "name": "",
          "type": "bool"
        }
      ],
      "stateMutability": "view",
      "type": "function"
    },
    {
      "inputs": [],
      "name": "minimumRaiseNotAchieved",
      "outputs": [
        {
          "internalType": "bool",
          "name": "",
          "type": "bool"
        }
      ],
      "stateMutability": "view",
      "type": "function"
    },
    {
      "inputs": [
        {
          "internalType": "address",
          "name": "",
          "type": "address"
        },
        {
          "internalType": "uint256",
          "name": "",
          "type": "uint256"
        }
      ],
      "name": "myPurchases",
      "outputs": [
        {
          "internalType": "uint256",
          "name": "",
          "type": "uint256"
        }
      ],
      "stateMutability": "view",
      "type": "function"
    },
    {
      "inputs": [],
      "name": "pause",
      "outputs": [],
      "stateMutability": "nonpayable",
      "type": "function"
    },
    {
      "inputs": [],
      "name": "paused",
      "outputs": [
        {
          "internalType": "bool",
          "name": "",
          "type": "bool"
        }
      ],
      "stateMutability": "view",
      "type": "function"
    },
    {
      "inputs": [
        {
          "internalType": "uint256",
          "name": "purchase_id",
          "type": "uint256"
        }
      ],
      "name": "purchaseExists",
      "outputs": [
        {
          "internalType": "bool",
          "name": "",
          "type": "bool"
        }
      ],
      "stateMutability": "view",
      "type": "function"
    },
    {
      "inputs": [
        {
          "internalType": "uint256",
          "name": "",
          "type": "uint256"
        }
      ],
      "name": "purchases",
      "outputs": [
        {
          "internalType": "address",
          "name": "purchaser",
          "type": "address"
        },
        {
          "internalType": "uint48",
          "name": "timestamp",
          "type": "uint48"
        },
        {
          "internalType": "bool",
          "name": "wasFinalized",
          "type": "bool"
        },
        {
          "internalType": "bool",
          "name": "reverted",
          "type": "bool"
        },
        {
          "internalType": "uint256",
          "name": "amount",
          "type": "uint256"
        },
        {
          "internalType": "uint256",
          "name": "costAmount",
          "type": "uint256"
        },
        {
          "internalType": "uint256",
          "name": "amountRedeemed",
          "type": "uint256"
        }
      ],
      "stateMutability": "view",
      "type": "function"
    },
    {
      "inputs": [
        {
          "internalType": "bytes32",
          "name": "hash",
          "type": "bytes32"
        },
        {
          "internalType": "bytes",
          "name": "signature",
          "type": "bytes"
        }
      ],
      "name": "recoverSignerAddressFromBytes32",
      "outputs": [
        {
          "internalType": "address",
          "name": "",
          "type": "address"
        }
      ],
      "stateMutability": "pure",
      "type": "function"
    },
    {
      "inputs": [
        {
          "internalType": "uint256",
          "name": "purchase_id",
          "type": "uint256"
        }
      ],
      "name": "redeemGivenMinimumGoalNotAchieved",
      "outputs": [],
      "stateMutability": "nonpayable",
      "type": "function"
    },
    {
      "inputs": [
        {
          "internalType": "uint256",
          "name": "purchase_id",
          "type": "uint256"
        }
      ],
      "name": "redeemTokens",
      "outputs": [],
      "stateMutability": "nonpayable",
      "type": "function"
    },
    {
      "inputs": [
        {
          "internalType": "address",
          "name": "_address",
          "type": "address"
        }
      ],
      "name": "removeFromBlacklist",
      "outputs": [],
      "stateMutability": "nonpayable",
      "type": "function"
    },
    {
      "inputs": [
        {
          "internalType": "address",
          "name": "_address",
          "type": "address"
        }
      ],
      "name": "removeFromWhitelist",
      "outputs": [],
      "stateMutability": "nonpayable",
      "type": "function"
    },
    {
      "inputs": [
        {
          "internalType": "address",
          "name": "_tokenAddress",
          "type": "address"
        },
        {
          "internalType": "address",
          "name": "_to",
          "type": "address"
        }
      ],
      "name": "removeOtherERC20Tokens",
      "outputs": [],
      "stateMutability": "nonpayable",
      "type": "function"
    },
    {
      "inputs": [
        {
          "internalType": "bytes32",
          "name": "role",
          "type": "bytes32"
        },
        {
          "internalType": "address",
          "name": "account",
          "type": "address"
        }
      ],
      "name": "renounceRole",
      "outputs": [],
      "stateMutability": "nonpayable",
      "type": "function"
    },
    {
      "inputs": [
        {
          "internalType": "bytes32",
          "name": "role",
          "type": "bytes32"
        },
        {
          "internalType": "address",
          "name": "account",
          "type": "address"
        }
      ],
      "name": "revokeRole",
      "outputs": [],
      "stateMutability": "nonpayable",
      "type": "function"
    },
    {
      "inputs": [],
      "name": "safePullETH",
      "outputs": [],
      "stateMutability": "nonpayable",
      "type": "function"
    },
    {
      "inputs": [],
      "name": "safePullSaleToken",
      "outputs": [],
      "stateMutability": "nonpayable",
      "type": "function"
    },
    {
      "inputs": [],
      "name": "safePullTradeToken",
      "outputs": [],
      "stateMutability": "nonpayable",
      "type": "function"
    },
    {
      "inputs": [
        {
          "internalType": "uint256",
          "name": "_endDate",
          "type": "uint256"
        }
      ],
      "name": "setEndDate",
      "outputs": [],
      "stateMutability": "nonpayable",
      "type": "function"
    },
    {
      "inputs": [
        {
          "internalType": "bool",
          "name": "_hasWhitelisting",
          "type": "bool"
        }
      ],
      "name": "setHasWhitelisting",
      "outputs": [],
      "stateMutability": "nonpayable",
      "type": "function"
    },
    {
      "inputs": [
        {
          "internalType": "uint256",
          "name": "_individualMaximumAmount",
          "type": "uint256"
        }
      ],
      "name": "setIndividualMaximumAmount",
      "outputs": [],
      "stateMutability": "nonpayable",
      "type": "function"
    },
    {
      "inputs": [
        {
          "internalType": "address",
          "name": "_PolsStakeAddress",
          "type": "address"
        },
        {
          "internalType": "uint256",
          "name": "_PolsStakeAmount",
          "type": "uint256"
        },
        {
          "internalType": "uint256",
          "name": "_PolsStakeRewards",
          "type": "uint256"
        }
      ],
      "name": "setPolsStakingRequirement",
      "outputs": [],
      "stateMutability": "nonpayable",
      "type": "function"
    },
    {
      "inputs": [
        {
          "internalType": "address",
          "name": "_signerPublicAddress",
          "type": "address"
        }
      ],
      "name": "setSignerPublicAddress",
      "outputs": [],
      "stateMutability": "nonpayable",
      "type": "function"
    },
    {
      "inputs": [
        {
          "internalType": "address",
          "name": "_stakingRewardsAddress",
          "type": "address"
        }
      ],
      "name": "setStakingRewards",
      "outputs": [],
      "stateMutability": "nonpayable",
      "type": "function"
    },
    {
      "inputs": [
        {
          "internalType": "uint256",
          "name": "_startDate",
          "type": "uint256"
        }
      ],
      "name": "setStartDate",
      "outputs": [],
      "stateMutability": "nonpayable",
      "type": "function"
    },
    {
      "inputs": [
        {
          "internalType": "uint256",
          "name": "_tradeValue",
          "type": "uint256"
        }
      ],
      "name": "setTradeValue",
      "outputs": [],
      "stateMutability": "nonpayable",
      "type": "function"
    },
    {
      "inputs": [
        {
          "internalType": "uint256",
          "name": "_tgeAllocation",
          "type": "uint256"
        },
        {
          "internalType": "uint256",
          "name": "_tgeTime",
          "type": "uint256"
        },
        {
          "internalType": "uint256",
          "name": "_vestingStart",
          "type": "uint256"
        },
        {
          "internalType": "uint256",
          "name": "_vestingCliff",
          "type": "uint256"
        },
        {
          "internalType": "uint256",
          "name": "_vestingDuration",
          "type": "uint256"
        },
        {
          "internalType": "uint256[]",
          "name": "_vestingSchedule",
          "type": "uint256[]"
        }
      ],
      "name": "setVesting",
      "outputs": [],
      "stateMutability": "nonpayable",
      "type": "function"
    },
    {
      "inputs": [],
      "name": "signerPublicAddress",
      "outputs": [
        {
          "internalType": "address",
          "name": "",
          "type": "address"
        }
      ],
      "stateMutability": "view",
      "type": "function"
    },
    {
      "inputs": [],
      "name": "stakingRewardsAddress",
      "outputs": [
        {
          "internalType": "address",
          "name": "",
          "type": "address"
        }
      ],
      "stateMutability": "view",
      "type": "function"
    },
    {
      "inputs": [],
      "name": "startDate",
      "outputs": [
        {
          "internalType": "uint256",
          "name": "",
          "type": "uint256"
        }
      ],
      "stateMutability": "view",
      "type": "function"
    },
    {
      "inputs": [
        {
          "internalType": "bytes4",
          "name": "interfaceId",
          "type": "bytes4"
        }
      ],
      "name": "supportsInterface",
      "outputs": [
        {
          "internalType": "bool",
          "name": "",
          "type": "bool"
        }
      ],
      "stateMutability": "view",
      "type": "function"
    },
    {
      "inputs": [
        {
          "internalType": "uint256",
          "name": "_amount",
          "type": "uint256"
        },
        {
          "internalType": "bytes",
          "name": "_signature",
          "type": "bytes"
        }
      ],
      "name": "swap",
      "outputs": [],
      "stateMutability": "payable",
      "type": "function"
    },
    {
      "inputs": [
        {
          "internalType": "uint256",
          "name": "_amount",
          "type": "uint256"
        },
        {
          "internalType": "uint256",
          "name": "_accountMaxAmount",
          "type": "uint256"
        },
        {
          "internalType": "bytes",
          "name": "_signature",
          "type": "bytes"
        }
      ],
      "name": "swapWithSig",
      "outputs": [],
      "stateMutability": "payable",
      "type": "function"
    },
    {
      "inputs": [],
      "name": "tgeAllocation",
      "outputs": [
        {
          "internalType": "uint256",
          "name": "",
          "type": "uint256"
        }
      ],
      "stateMutability": "view",
      "type": "function"
    },
    {
      "inputs": [],
      "name": "tgeTime",
      "outputs": [
        {
          "internalType": "uint256",
          "name": "",
          "type": "uint256"
        }
      ],
      "stateMutability": "view",
      "type": "function"
    },
    {
      "inputs": [],
      "name": "tokensAllocated",
      "outputs": [
        {
          "internalType": "uint256",
          "name": "",
          "type": "uint256"
        }
      ],
      "stateMutability": "view",
      "type": "function"
    },
    {
      "inputs": [],
      "name": "tokensForSale",
      "outputs": [
        {
          "internalType": "uint256",
          "name": "",
          "type": "uint256"
        }
      ],
      "stateMutability": "view",
      "type": "function"
    },
    {
      "inputs": [],
      "name": "tokensLeft",
      "outputs": [
        {
          "internalType": "uint256",
          "name": "",
          "type": "uint256"
        }
      ],
      "stateMutability": "view",
      "type": "function"
    },
    {
      "inputs": [],
      "name": "totalRaiseCost",
      "outputs": [
        {
          "internalType": "uint256",
          "name": "",
          "type": "uint256"
        }
      ],
      "stateMutability": "view",
      "type": "function"
    },
    {
      "inputs": [],
      "name": "tradeValue",
      "outputs": [
        {
          "internalType": "uint256",
          "name": "",
          "type": "uint256"
        }
      ],
      "stateMutability": "view",
      "type": "function"
    },
    {
      "inputs": [
        {
          "internalType": "uint256",
          "name": "purchase_id",
          "type": "uint256"
        },
        {
          "internalType": "bool",
          "name": "stake",
          "type": "bool"
        }
      ],
      "name": "transferTokens",
      "outputs": [],
      "stateMutability": "nonpayable",
      "type": "function"
    },
    {
      "inputs": [],
      "name": "unpause",
      "outputs": [],
      "stateMutability": "nonpayable",
      "type": "function"
    },
    {
      "inputs": [],
      "name": "unsoldTokensRedeemed",
      "outputs": [
        {
          "internalType": "bool",
          "name": "",
          "type": "bool"
        }
      ],
      "stateMutability": "view",
      "type": "function"
    },
    {
      "inputs": [],
      "name": "updateFundStatus",
      "outputs": [],
      "stateMutability": "nonpayable",
      "type": "function"
    },
    {
      "inputs": [],
      "name": "vestingCliff",
      "outputs": [
        {
          "internalType": "uint256",
          "name": "",
          "type": "uint256"
        }
      ],
      "stateMutability": "view",
      "type": "function"
    },
    {
      "inputs": [],
      "name": "vestingDuration",
      "outputs": [
        {
          "internalType": "uint256",
          "name": "",
          "type": "uint256"
        }
      ],
      "stateMutability": "view",
      "type": "function"
    },
    {
      "inputs": [
        {
          "internalType": "uint256",
          "name": "",
          "type": "uint256"
        }
      ],
      "name": "vestingSchedule",
      "outputs": [
        {
          "internalType": "uint256",
          "name": "",
          "type": "uint256"
        }
      ],
      "stateMutability": "view",
      "type": "function"
    },
    {
      "inputs": [],
      "name": "vestingStart",
      "outputs": [
        {
          "internalType": "uint256",
          "name": "",
          "type": "uint256"
        }
      ],
      "stateMutability": "view",
      "type": "function"
    },
    {
      "inputs": [],
      "name": "vestingTime",
      "outputs": [
        {
          "internalType": "uint256",
          "name": "",
          "type": "uint256"
        }
      ],
      "stateMutability": "view",
      "type": "function"
    },
    {
      "inputs": [],
      "name": "withdrawFunds",
      "outputs": [],
      "stateMutability": "nonpayable",
      "type": "function"
    },
    {
      "inputs": [],
      "name": "withdrawUnsoldTokens",
      "outputs": [],
      "stateMutability": "nonpayable",
      "type": "function"
    }
  ],
  "bytecode": "0x6080346200056457601f620058a938819003918201601f1916830191906001600160401b038311848410176200056957816101809285926040958652833981010312620005645762000051826200057f565b6020808401518385015192606086015160808701519660a08101519160c08201519460e083015180151503620005645761010083015190610120840151986101408501519863ffffffff8a1694858b0362000564578a8d96620000ba61016060ff9a016200057f565b998919998a996000948b86541686558260a01b199081600254166002557fb813b807c25079ba97f1770664c6a9e57c59afe74a6295f1ed01c10e3bb6baae9182885260019e8f808c52858a20338b528c5286868b205416156200052e575b50506002549160028660a01b9116151560a01b169116176002558360035585528b875280852033865287528420541615620004ea57808d10620004a6578f60049d8e558380528a8652808420338552865260ff81852054161562000471575b50834210156200042e578515620003f7578510620003b457848711620003715760638e116200032e5760081115620002ea578d60ff9183601255808052898552818120338252855220541615620002a7578d111562000265575061ff0098999a9b601355601655601155828816151560001462000259575060105416176010555b600d80546001600160a01b03199081166001600160a01b03948516179091559116908162000249575b50506010549216151560081b169061ff00191617601055600f55516152f49081620005958239f35b600e541617600e55388062000221565b915050601455620001f8565b886064918d519162461bcd60e51b8352820152601a60248201527f656e642064617465206265666f726520737461727420646174650000000000006044820152fd5b8c5162461bcd60e51b8152808b01839052601960248201527f63616c6c657220686173206e6f742061646d696e20726f6c65000000000000006044820152606490fd5b508c5162461bcd60e51b8152808b01839052601560248201527f756e737570706f7274656420666c6167732073657400000000000000000000006044820152606490fd5b8e5162461bcd60e51b8152808d01859052601e60248201527f4665652050657263656e746167652068617320746f206265203c2031303000006044820152606490fd5b8e5162461bcd60e51b8152808d01859052601c60248201527f6d696e696d756d5261697365203e20746f6b656e73466f7253616c65000000006044820152606490fd5b8e5162461bcd60e51b8152808d01859052601e60248201527f746f6b656e73466f7253616c65203c20696e646976696475616c206d696e00006044820152606490fd5b8f5162461bcd60e51b8152808e0186905260116024820152706e6f20746f6b656e20666f722073616c6560781b6044820152606490fd5b8f5162461bcd60e51b8152808e01869052601960248201527f7374617274206461746520697320696e207468652070617374000000000000006044820152606490fd5b8380528a8652808420338552865283208a8a825416179055333384600080516020620058898339815191528180a48f62000177565b8f5162461bcd60e51b815260048101869052601b60248201527f696e646976696475616c206d6178203c206d696e20616d6f756e7400000000006044820152606490fd5b8f5162461bcd60e51b815260048101869052601c60248201527f63616c6c6572206973206e6f742057686974656c6973744f776e6572000000006044820152606490fd5b848a52808c52858a20338b528c52858a2091825416179055333384600080516020620058898339815191528b80a48d8f62000118565b600080fd5b634e487b7160e01b600052604160045260246000fd5b51906001600160a01b0382168203620005645756fe608060408181526004918236101561001657600080fd5b600090813560e01c90816301ffc9a7146137ce575080630274fa9814613784578063044c0cc51461375a578063076623451461373357806308abd7ff146136595780630b97bc861461363a57806312aef8c31461361b57806313430f01146135fc5780631514617e146135dd57806315b57866146135bc578063161a7b2a146135955780631a80818714612fd35780631de18af714612d8757806321d3002a14612d6357806324600fc314612b83578063248a9ca314612b59578063254800d414612b3a5780632593ea1714612b16578063273e96e914612af05780632e15410714612ad15780632ebb5c1e14612ab05780632f2ff15d14612a035780633070b98d146126e35780633163e3a8146126c457806331d06af31461269b57806336568abe1461260a5780633742a9f7146125065780633784f000146124b25780633af32abf146124755780633b6577c81461243b5780633bbab179146123d45780633f4ba83a146123685780634089aa9a1461234657806344337ea1146122e557806344691f7e146122c357806347535d7b146122a6578063537df3b6146122455780635ac699bb146121fd5780635c975abb146121db5780635f635f9a14611dd45780636295a2f414611db557806369bb4dc214611d985780636d02802714611d0f5780636eaaabd514611c7e5780636fb83a5714611c2557806370a898bc14611c0457806374fa05fb14611be1578063751ef93d14611bbc578063755e3e2814611b9d57806376807e5f14611b1e578063785e9e8614611af5578063788bff6814611acc578063799bb23214611aa55780637f7b271214611a855780638158f2b814611a6657806382d95df5146119b85780638392fe31146119305780638456cb59146118c157806388b0fe2b146118065780638a1a5f3f146117e95780638ab1d681146117885780638e75b131146117695780639097548d1461174a578063917c854d146115de578063919bd930146115a557806391d148541461155e578063948384141461153757806396a32bc4146114d15780639baf1979146114b55780639d90a46e146113db578063a001ecdd146113bc578063a1c09bf11461139d578063a217fddf14611382578063a6e158f8146111e1578063b0b12ac3146111c3578063b31f8f931461119f578063b367940e1461117b578063b86917871461113d578063ba40a96a14611114578063bd0625ab14610b4e578063bf135abe14610b25578063c24a0f8b14610b06578063c3ca324f14610adf578063c7dab43614610ac2578063c8bdbfb614610a18578063ca1d209d1461096f578063d0a4a89514610948578063d10dbdf51461090d578063d547741f146108cf578063dbb57ac81461088b578063dc91b072146107f6578063e4101de5146107d8578063e43252d71461074e578063e4a802521461071c578063e8b882f4146106f3578063eb1edd61146106c4578063eee95be61461067e578063efbb34d514610657578063f267d48c14610638578063f2aa8218146105f3578063f3640e74146105d4578063f64bfaba14610548578063fce9d11b1461051a578063fe575a87146104dc5763fecf415a146104a757600080fd5b346104d95760203660031901126104d957506104c560209235613c07565b5060018060a01b0390541633149051908152f35b80fd5b5090346105165760203660031901126105165760209181906001600160a01b03610504613822565b16815260088452205415159051908152f35b5080fd5b509034610516578160031936011261051657610544906105393361430d565b905191829182613c41565b0390f35b50346104d957806003193601126104d9578151918291601e54808552602080950194601e83527f50bb669a95c7b50b7e8a6f09454034b2b14cf2b85c730dca9a539ca82cb6e35092905b8282106105b45761054486866105aa828b03836138d5565b51918291826139e3565b83546001600160a01b031687529586019560019384019390910190610592565b509034610516578160031936011261051657602090601a549051908152f35b509134610634576020366003190112610634573591601e548310156104d9575061061e602092613a74565b905491519160018060a01b039160031b1c168152f35b8280fd5b509034610516578160031936011261051657602090600c549051908152f35b509034610516578160031936011261051657602090610677601654614276565b9051908152f35b50346104d957806003193601126104d95761069c601254421061402e565b6106a46141e7565b60165411156106b05780f35b6201000062ff000019601054161760105580f35b5090346105165781600319360112610516576020905173aeb39b67f27b641ef9f95fb74f1a46b1ee4efc838152f35b509034610516578160031936011261051657602090516000805160206152c88339815191528152f35b5090346105165760209061073861073236613bd8565b90614e97565b60018060a01b0380600254169116149051908152f35b5090346105165760203660031901126105165761079760ff61076e613822565b926000805160206152c88339815191528552600160205280852033865260205284205416614c19565b6001600160a01b03166107a981614c65565b6107b1575080f35b7fa850ae9193f515cbae8d35e8925bd2be26627fc91bce650b8652ed254e9cab038280a280f35b50913461063457826003193601126106345760209250549051908152f35b509134610634576020366003190112610634578035916000805160206152c88339815191528452600160205280842033855260205261083a60ff8286205416614c19565b600354831061084857505580f35b906020606492519162461bcd60e51b8352820152601b60248201527f696e646976696475616c206d6178203c206d696e20616d6f756e7400000000006044820152fd5b50346104d95760203660031901126104d957506108ab6105449235614b3f565b919492938051958695865260208601528401526080606084015260808301906139be565b5091903461063457806003193601126106345761090a913561090560016108f461383d565b938387528160205286200154613c7c565b613f54565b80f35b509190346106345760203660031901126106345760ff6109419184805260016020528085203386526020528420541661407a565b3560115580f35b50903461051657816003193601126105165760209060ff60105460081c1690519015158152f35b50913461063457602036600319011261063457803591610992601254421061402e565b6109a38361099e6141e7565b613ff3565b601654106109d557600d5484906109c8908590309033906001600160a01b0316614481565b61069c601254421061402e565b906020606492519162461bcd60e51b8352820152602060248201527f6d6f726520746f6b656e73207468616e206e656564656420666f722073616c656044820152fd5b50903461051657816003193601126105165760ff610a4a9183805260016020528084203385526020528320541661407a565b610a58601354421015614b84565b60105460ff8160181c1661051657601554601454811015610ab157506016545b80610a81578280f35b63ff00000019909116630100000017601055600d54610aab919033906001600160a01b03166146e3565b81808280f35b610abd90601654614180565b610a78565b509034610516578160031936011261051657602090610677614011565b5090346105165760203660031901126105165761054490610539610b01613822565b61430d565b5090346105165781600319360112610516576020906013549051908152f35b509034610516578160031936011261051657600e5490516001600160a01b039091168152602090f35b50816003193601126104d95782359160249182356001600160401b03811161051657610b7d9036908701613b4c565b610b8561469f565b60ff60105460101c16156110d757610b9b61425f565b1561109f57610ba933614370565b1561105d57610bb89033615152565b93841561102b57600e546001600160a01b03939084168061100e57503493610bdf83614276565b8510610fd6575b610bf560165460155490614180565b8311610f98576003548310610f5c57868311610f2057338452602090601f8252828520968351808985829b54938481520190895285892092895b87828210610f0a57505050610c46925003896138d5565b8599869a5b89518c1015610c8657610c7a610c80916001610c718f610c6b908f61468b565b51613c07565b50015490613ff3565b9b614171565b9a610c4b565b610c91878c92613ff3565b11610eca5760ff60105416610eb6575b6601000000000000421015610e765760ff60105416855190610cc282613853565b3382528582019965ffffffffffff42168b528783019115158252606083018a815260808401908a825260a0850192835260c08501938c8552601d549d600160401b9e8f811015610e6457806001610d1c9201601d55613c07565b979097610e53575187549151925160ff60d01b90151560d01b1665ffffffffffff60a01b60a09490941b939093166001600160d81b0319909216908b1660ff60d01b19161717178555600393929190610d8a9051865460ff60d81b191690151560d81b60ff60d81b16178655565b51600185015551600284015551910155338752601f8452848720601d54600019810191908211610e415790610dbe9161414f565b601e5497881015610e30575050610dfe8660017fbec109f7ee137de661c6887caa96653c0545050a9908a3b6eb5190440bbec86496979801601e55613a74565b819291549060031b9133831b921b1916179055610e1d84601554613ff3565b601555815193845242908401523392a280f35b634e487b7160e01b87526041905285fd5b634e487b7160e01b8952601183528389fd5b634e487b7160e01b8f528e8952898ffd5b634e487b7160e01b8f5260418952898ffd5b601c6064928587519362461bcd60e51b85528401528201527f76616c756520646f65736e27742066697420696e2034382062697473000000006044820152fd5b610ec5863385600d54166146e3565b610ca1565b601f6064928587519362461bcd60e51b85528401528201527f616d6f756e7420676f6573206f76657220696e646976696475616c206d6178006044820152fd5b855484526001958601958e955093019201610c2f565b815162461bcd60e51b81526020818a015260178188015276185b5bdd5b9d080f881b585e1a5b5d5b48185b5bdd5b9d604a1b6044820152606490fd5b815162461bcd60e51b81526020818a015260178188015276185b5bdd5b9d080f081b5a5b9a5b5d5b48185b5bdd5b9d604a1b6044820152606490fd5b815162461bcd60e51b81526020818a015260198188015278616d6f756e74203e20746f6b656e7320617661696c61626c6560381b6044820152606490fd5b815162461bcd60e51b81526020818a0152601381880152721b9bdd08195b9bdd59da08115512081cd95b9d606a1b6044820152606490fd5b9361102661101b84614276565b809630903390614481565b610be6565b825162461bcd60e51b8152602081880152600d818601526c37379030b63637b1b0ba34b7b760991b6044820152606490fd5b825162461bcd60e51b81526020818801819052818601527f61646472657373206e6f742077686974656c697374656420666f7220504f4c536044820152606490fd5b825162461bcd60e51b81526020818801526013818601527239b0b632903430b9903a379031329037b832b760691b6044820152606490fd5b825162461bcd60e51b8152602081880152601881860152771d1bdad95b881cd85b19481a5cc81b9bdd08199d5b99195960421b6044820152606490fd5b50903461051657816003193601126105165760025490516001600160a01b039091168152602090f35b5090346105165760203660031901126105165761115d60ff61076e613822565b60018060a01b03166001600160601b0360a01b600254161760025580f35b50903461051657816003193601126105165760209060155460145411159051908152f35b50903461051657816003193601126105165760209061067760165460155490614180565b50903461051657816003193601126105165760209051623567e08152f35b5082346105165760203660031901126105165780356111ff81613c07565b50546001600160a01b039190821633036113485761121c81614755565b819491156113225750600161123083613c07565b500154600361123e84613c07565b500154918161124d8785613ff3565b116112ac575061090a959650611278858361127e9361126e83600397613ff3565b1461128c57613ff3565b92613c07565b5001553390600d54166146e3565b61129586613c07565b50805460ff60d01b1916600160d01b179055613ff3565b60a490602089519162461bcd60e51b8352820152604460248201527f494e5445524e414c204552524f52203a20616d6f756e7452656465656d65642060448201527f776f756c64206265206c6172676572207468656e20707572636861736520616d6064820152631bdd5b9d60e21b6084820152fd5b90611344602092885193849362461bcd60e51b855284015260248301906139be565b0390fd5b845162461bcd60e51b8152602081850152601460248201527320b2323932b9b99034b9903737ba10313abcb2b960611b6044820152606490fd5b50903461051657816003193601126105165751908152602090f35b509034610516578160031936011261051657602090601d549051908152f35b509034610516578160031936011261051657602090600f549051908152f35b509034610516576113eb3661390d565b906000805160206152c883398151915283526001918260205281842033855260205261141c60ff8386205416614c19565b839283815b611462575b50505081611432578280f35b7fc2f03ca34d335e49d4d629b85db054d1ffb679b4fec2e06fe10d0e618b175ecb9160209151908152a181808280f35b82518110156114b0576114876001600160a01b03611480838661468b565b5116614ccb565b61149b575b61149590614171565b81611421565b936114a861149591614171565b94905061148c565b611426565b509034610516576020906106776114cb36613b93565b91615224565b509034610516578160031936011261051657818052600160205280822033835260205261150360ff828420541661407a565b61150b614bd0565b818080804781811561152e575b3390f115611524575080f35b51903d90823e3d90fd5b506108fc611518565b50903461051657816003193601126105165760209060ff60105460181c1690519015158152f35b5091346106345781600319360112610634578160209360ff9261157f61383d565b90358252600186528282206001600160a01b039091168252855220549151911615158152f35b509134610634576020366003190112610634573591601c548310156104d957506115d0602092613a27565b91905490519160031b1c8152f35b509190346106345780600319360112610634576115f9613822565b61160161383d565b90848052602060018152838620338752815261162260ff858820541661407a565b611630601354421015614b84565b600d546001600160a01b0392831692908116831461170757600e541682146116c5578351946370a0823160e01b865230908601528085602481855afa9384156116bc57508593611686575b5061090a93506146e3565b90925083813d83116116b5575b61169d81836138d5565b810103126116b15761090a9251913861167b565b8380fd5b503d611693565b513d87823e3d90fd5b8460649185519162461bcd60e51b8352820152601b60248201527f746f6b656e206973207468652074726164652d696e20746f6b656e00000000006044820152fd5b845162461bcd60e51b8152808701839052601b60248201527f746f6b656e2069732074686520746f6b656e20666f722073616c6500000000006044820152606490fd5b50346104d95760203660031901126104d9575061067760209235614276565b5090346105165781600319360112610516576020906014549051908152f35b509034610516576020366003190112610516576117a860ff61076e613822565b6001600160a01b03166117ba81614dee565b6117c2575080f35b7fcdd2e9b91a56913d370075169cefa1602ba36be5301664f752192bb1709df7578280a280f35b5090346105165781600319360112610516576020906106776141ad565b50919034610634578260031936011261063457828052602060018152818420338552815261183960ff838620541661407a565b611841614bd0565b600d5482516370a0823160e01b815230948101949094526001600160a01b0316908084602481855afa9283156118b857508492611886575b5061090a925033906146e3565b90915082813d83116118b1575b61189d81836138d5565b810103126106345761090a91519038611879565b503d611893565b513d86823e3d90fd5b50903461051657816003193601126105165760207f62e78cea01bee320cd4e420270b5ea74000d11b0c9f74754ebdbfc544b05a2589183805260018252808420338552825261191560ff828620541661407a565b61191d61469f565b835460ff1916600117845551338152a180f35b509134610634576020366003190112610634573591601d548310156104d9575061195b60e092613c07565b50805490600181015460ff600360028401549301549385519560018060a01b038216875265ffffffffffff8260a01c166020880152828260d01c1615159087015260d81c1615156060850152608084015260a083015260c0820152f35b509134610634576020366003190112610634578035916119db601254421061402e565b83805260016020528084203385526020526119fb60ff828620541661407a565b82421015611a18575050611a1260135482106140c6565b60125580f35b906020608492519162461bcd60e51b8352820152602260248201527f737461727420646174652068617320746f20626520696e207468652066757475604482015261726560f01b6064820152fd5b5090346105165781600319360112610516576020906017549051908152f35b5090346105165781600319360112610516576020905164e8d4a510008152f35b50903461051657602090611abb61073236613bd8565b90516001600160a01b039091168152f35b50903461051657816003193601126105165760095490516001600160a01b039091168152602090f35b509034610516578160031936011261051657600d5490516001600160a01b039091168152602090f35b509190346106345782600319360112610634578280526020600181528184203385528152611b5160ff838620541661407a565b611b59614bd0565b600e5482516370a0823160e01b815230948101949094526001600160a01b0316908084602481855afa9283156118b857508492611886575061090a925033906146e3565b5090346105165781600319360112610516576020906015549051908152f35b50903461051657602090611bd8611bd236613b93565b916150fd565b90519015158152f35b509034610516578160031936011261051657602090601554601454119051908152f35b50903461051657816003193601126105165760209060035415159051908152f35b50903461051657602036600319011261051657611c6060ff611c45613822565b9284805260016020528085203386526020528420541661407a565b60018060a01b03166001600160601b0360a01b600954161760095580f35b509134610634576020366003190112610634573590811515809203610634577fe905f7f52156c346547b9deb6fb3e2459db941ec55d073fd465129bf4b49fae6916020916000805160206152c88339815191528552600183528085203386528352611cee60ff8287205416614c19565b6002805460ff60a01b191660a084901b60ff60a01b1617905551908152a180f35b50346104d957806003193601126104d957600554611d2c816138f6565b91611d39845193846138d5565b818352601f19611d48836138f6565b013660208501375b818110611d645783518061054485826139e3565b80611d71611d9392613ae2565b905460039190911b1c6001600160a01b0316611d8d828661468b565b52614171565b611d50565b5090346105165781600319360112610516576020906106776141e7565b5090346105165781600319360112610516576020906011549051908152f35b5060603660031901126104d957823560449182356001600160401b03811161051657611e039036908701613b4c565b91611e0c61469f565b60ff60105460101c161561219e57611e2261425f565b1561216657611e3033614370565b1561212457611e43602493843533615224565b9485156120f457600e546001600160a01b0394908516806120d757503494611e6a84614276565b86106120a0575b611e8060165460155490614180565b841161206357600354841061202857878411611fed57338552602091601f8352838620998451808c86829e549384815201908a52868a20928a5b88828210611fd157505050611ed19250038c6138d5565b869887995b8c518b1015611f0257611ef6611efc9160018f610c6b8f610c719261468b565b9a614171565b99611ed6565b611f0d888d92613ff3565b11611f925760ff60105416611f7e575b6601000000000000421015611f3f575060ff60105416855190610cc282613853565b7f76616c756520646f65736e27742066697420696e20343820626974730000000090601c6064948789519562461bcd60e51b8752860152840152820152fd5b611f8d873386600d54166146e3565b611f1d565b7f616d6f756e7420676f6573206f76657220696e646976696475616c206d61780090601f6064948789519562461bcd60e51b8752860152840152820152fd5b6001929450829193865481520194019101918e92939193611eba565b825162461bcd60e51b81526020818b015260178184015276185b5bdd5b9d080f881b585e1a5b5d5b48185b5bdd5b9d604a1b81890152606490fd5b825162461bcd60e51b81526020818b015260178184015276185b5bdd5b9d080f081b5a5b9a5b5d5b48185b5bdd5b9d604a1b81890152606490fd5b825162461bcd60e51b81526020818b015260198184015278616d6f756e74203e20746f6b656e7320617661696c61626c6560381b81890152606490fd5b825162461bcd60e51b81526020818b0152601381840152721b9bdd08195b9bdd59da08115512081cd95b9d606a1b81890152606490fd5b946120ef6120e485614276565b809730903390614481565b611e71565b5162461bcd60e51b8152602081880152600d818501526c37379030b63637b1b0ba34b7b760991b81860152606490fd5b845162461bcd60e51b8152602081880181905260248201527f61646472657373206e6f742077686974656c697374656420666f7220504f4c5381860152606490fd5b845162461bcd60e51b8152602081880152601360248201527239b0b632903430b9903a379031329037b832b760691b81860152606490fd5b845162461bcd60e51b815260208188015260186024820152771d1bdad95b881cd85b19481a5cc81b9bdd08199d5b99195960421b81860152606490fd5b50903461051657816003193601126105165760ff602092541690519015158152f35b509034610516578060031936011261051657612217613822565b6001600160a01b03168252601f602052808220805460243593908410156104d957506020926115d091613b19565b5090346105165760203660031901126105165761226560ff61076e613822565b6001600160a01b031661227781614d18565b61227f575080f35b7f2b6bf71b58b3583add364b3d9060ebf8019650f65f5be35f5464b9cb3e4ba2d48280a280f35b509034610516578160031936011261051657602090611bd861425f565b5090346105165781600319360112610516576020906012544210159051908152f35b5090346105165760203660031901126105165761230560ff61076e613822565b6001600160a01b031661231781614ccb565b61231f575080f35b7ff9b68063b051b82957fa193585681240904fed808db8b30fc5a2d2202c6ed6278280a280f35b5090346105165781600319360112610516576020906013544210159051908152f35b50903461051657816003193601126105165760207f5db9ee0a495bf2e6ff9c91a7834c1ba4fdd244a5e8aa4e537bd38aeae4b073aa918380526001825280842033855282526123bc60ff828620541661407a565b6123c4614bd0565b835460ff1916845551338152a180f35b50346104d957806003193601126104d9576007546123f1816138f6565b916123fe845193846138d5565b818352601f1961240d836138f6565b013660208501375b8181106124295783518061054485826139e3565b80611d7161243692613aab565b612415565b508290346104d95760203660031901126104d9575061245d6105449135614755565b839291925193849384528060208501528301906139be565b50903461051657602036600319011261051657602090611bd86001600160a01b0361249e613822565b166000526006602052604060002054151590565b50913461063457602036600319011261063457612500903580926124fa60ff601254926124e084421061402e565b87805260016020528088203389526020528720541661407a565b106140c6565b60135580f35b508290346104d95760203660031901126104d95750803590601d548210156125c75760e08360c061253685613c07565b5082519261254384613853565b81549060018060a01b0382169283865265ffffffffffff8360a01c169182602088015260ff808560d01c1615159485838a015260d81c1615159485606089015260018301549788608082015260036002850154948560a084015201549788910152815197885260208801528601526060850152608084015260a083015260c0820152f35b606490602084519162461bcd60e51b8352820152601a60248201527f70757263686173655f696420646f6573206e6f742065786973740000000000006044820152fd5b50823461051657826003193601126105165761262461383d565b90336001600160a01b03831603612640579061090a9135613f54565b608490602085519162461bcd60e51b8352820152602f60248201527f416363657373436f6e74726f6c3a2063616e206f6e6c792072656e6f756e636560448201526e103937b632b9903337b91039b2b63360891b6064820152fd5b509034610516578160031936011261051657600a5490516001600160a01b039091168152602090f35b5090346105165781600319360112610516576020906018549051908152f35b5090346105165780600319360112610516578235906024938435918215928315036128a05761271184613c07565b50546001600160a01b039390841633036129ca5761272e85614755565b819691156129a95750600161274282613c07565b500154600361275083613c07565b500154908061275f8984613ff3565b116129345761127888836127799361126e83600397613ff3565b5001551561279457505061090a9293503390600d54166146e3565b91806009949294541680156128e85781600d54168451636eb1769f60e11b815230878201528289820152602081604481855afa9081156128de5790859189916128a4575b506127eb61283094939261282b92613ff3565b875163095ea7b360e01b6020808301919091526001600160a01b039095168c8201908152948501919091529283906040015b03601f1981018452836138d5565b6144db565b6009541690813b156128a057829160448694928593519586938492638b1e31c760e01b845289840152338b8401525af19081156128975750612874575b5050905080f35b6001600160401b0310612887578061286d565b634e487b7160e01b825260419052fd5b513d85823e3d90fd5b8480fd5b9150506020813d82116128d6575b816128bf602093836138d5565b810103126128d2575184906127eb6127d8565b8780fd5b3d91506128b2565b86513d8a823e3d90fd5b835162461bcd60e51b81526020818701526021818901527f4e6f2049444f207374616b696e6720636f6e747261637420617661696c61626c6044820152606560f81b6064820152608490fd5b60a48660448c602089519362461bcd60e51b85528401528201527f494e5445524e414c204552524f52203a20616d6f756e7452656465656d65642060448201527f776f756c64206265206c6172676572207468656e20707572636861736520616d6064820152631bdd5b9d60e21b6084820152fd5b835162461bcd60e51b815260208187015290819061134490828c01906139be565b815162461bcd60e51b81526020818501526014818901527320b2323932b9b99034b9903737ba10313abcb2b960611b6044820152606490fd5b5091346106345781600319360112610634573590612a1f61383d565b908284526001602052612a3760018286200154613c7c565b828452600160209081528185206001600160a01b039093168086529290528084205460ff1615612a65578380f35b82845260016020528084208285526020528320600160ff1982541617905533917f2f8788117e7eff1d82e926ec794901d17c78024a50270940304540a733656f0d8480a43880808380f35b50903461051657816003193601126105165760209060125442109051908152f35b5090346105165781600319360112610516576020906003549051908152f35b50903461051657602036600319011261051657602090611bd8612b11613822565b614370565b5091346106345760203660031901126106345760209250601d549035109051908152f35b5090346105165781600319360112610516576020906019549051908152f35b50913461063457602036600319011261063457816020936001923581528285522001549051908152f35b50919034610634578260031936011261063457828052602091600183528184203385528352612bb760ff838620541661407a565b612bbf61469f565b612bcd601354421015614b84565b60155460145411612d2657600e546001600160a01b03908116939084612c4b575050509050818080806064612c0547600f5490613fca565b04818115612c42575b73aeb39b67f27b641ef9f95fb74f1a46b1ee4efc8390f11561152457818080804781811561152e573390f115611524575080f35b506108fc612c0e565b83516370a0823160e01b8082523085830152958382602481845afa9182156128de578892612cf6575b506064612c87612cc493600f5490613fca565b049086519163a9059cbb60e01b8684015273aeb39b67f27b641ef9f95fb74f1a46b1ee4efc83602484015260448301526044825261282b826138ba565b600e541691835194855230908501528084602481855afa9283156118b857508492611886575061090a925033906146e3565b91508382813d8311612d1f575b612d0d81836138d5565b810103126128d2579051906064612c74565b503d612d03565b82606492519162461bcd60e51b835282015260196024820152781b5a5b9a5b5d5b481c985a5cd9481b9bdd081c995858da1959603a1b6044820152fd5b50903461051657816003193601126105165760209060ff6010541690519015158152f35b509134610634576020806003193601126116b157813590612dac601354421015614b84565b60ff60105416612f9157612dbf82613c07565b50546001600160a01b03929083163303612f57576014548015612f14576015541015612ed157612dee90613c07565b5092600184015415612e905783549160ff8360d01c16612e5657505061ffff60d01b191661010160d01b178255600e548492911680612e435750818060028193015481811561152e573390f115611524575080f35b915061090a9250600201549033906146e3565b855162461bcd60e51b81529182015260156024820152741c1d5c98da185cd9481a5cc8199a5b985b1a5e9959605a1b604482015260649150fd5b60649185519162461bcd60e51b8352820152601760248201527f707572636861736520616d6f756e74206973207a65726f0000000000000000006044820152fd5b845162461bcd60e51b8152808501839052601e60248201527f6d696e696d756d20726169736520686173206265656e207265616368656400006044820152606490fd5b855162461bcd60e51b8152808601849052601d60248201527f6e6f206d696e696d756d20726169736520686173206265656e207365740000006044820152606490fd5b845162461bcd60e51b8152808501839052601460248201527330b2323932b9b99034b9903737ba10313abcb2b960611b6044820152606490fd5b9050606492519162461bcd60e51b8352820152601e60248201527f73616c652068617320746f206265206e6f6e2041746f6d6963207377617000006044820152fd5b509190346106345760c0366003190112610634578135916001600160401b0391602491604480359260a4359291853591906064908a60843583358b8911610634573660238a01121561063457888801359b8c116106345760059a99368d8d1b8b018c01116116b157613048601254421061402e565b83805260019761306a60ff896020978c8952818120338252895220541661407a565b60ff6010541661355457655af3107a40009e8f811161351d57808f91151591826000146134e2576134a1576013548310613460575b6017558115613421575060135481106133e0576130bc8383613ff3565b811161339f575b6018556130d08282613ff3565b6013541161335f5782821161331f578c1592919083156132f3576303c3b8806130fa8a5b85613fca565b116132b257601955601a5580601b558d601c549080601c558161326b575b5050868c1015613126578d80f35b1561320e576131fc5787870135938b8510156131be575050505061314990614112565b85811061315b575b8080808080808d80f35b60001981018181116131ac5761317361318791613a27565b90548684891b870101359160031b1c613ff3565b90878210156131a65761319c6131a192614112565b614171565b613149565b50613151565b634e487b7160e01b8952601183528489fd5b91601c897f66697273742076657374696e6720706572696f64203e3d203130302500000000938995519562461bcd60e51b8752860152840152820152fd5b634e487b7160e01b8c5260328652878cfd5b845162461bcd60e51b81528088018390526034818b01527f76657374696e6720696e74657276616c6c732070726f76696465642c20627574818501527302076657374696e674475726174696f6e203d20360641b81860152608490fd5b601c81527f0e4562a10381dec21b205ed72637e6b1b523bdd0e4d4d50af5cd23dd4500a2119182019189915b8382106132a657915050613118565b8155018f908991613297565b50865162461bcd60e51b8152808a01859052601c818d01527f746f74616c2076657374696e672074696d65203e203220796561727300000000818701528690fd5b888e01808f1161330b576130fa6303c3b880916130f4565b5050634e487b7160e01b8f52601189528a8ffd5b865162461bcd60e51b8152808a01859052601e818d01527f76657374696e67436c696666203e2076657374696e674475726174696f6e0000818701528690fd5b865162461bcd60e51b8152808a018590526017818d01527f76657374696e67206265666f72652073616c6520656e64000000000000000000818701528690fd5b50865162461bcd60e51b8152808a018590526018818d01527f74676554696d65206166746572207665737420636c6966660000000000000000818701528690fd5b50865162461bcd60e51b8152808a01859052601b818d01527f74676554696d65206265666f72652073616c6520656e64446174650000000000818701528690fd5b156130c35750865162461bcd60e51b8152808a018590526016818d0152750746765416c6c6f636174696f6e206973206e6f7420360541b818701528690fd5b50885162461bcd60e51b8152808c018790526017818f01527f74676554696d65206265666f72652073616c6520656e64000000000000000000818901528890fd5b50885162461bcd60e51b8152808c01879052601f818f01527f4e6f20544745207665737420666f7220706572696f646963616c207665737400818901528890fd5b50821561309f5750885162461bcd60e51b8152808c018790526010818f01526f074676554696d65206973206e6f7420360841b818901528890fd5b885162461bcd60e51b8152808c018790526014818f015273746765416c6c6f636174696f6e203e203130302560601b818901528890fd5b50865162461bcd60e51b8152808a01859052601a818d01527f6e6f2076657374696e6720666f722061746f6d69632073776170000000000000818701528690fd5b50903461051657816003193601126105165760209060ff60105460101c1690519015158152f35b50903461051657816003193601126105165760209060145415159051908152f35b509034610516578160031936011261051657602090601b549051908152f35b509034610516578160031936011261051657602090600b549051908152f35b5090346105165781600319360112610516576020906016549051908152f35b5090346105165781600319360112610516576020906012549051908152f35b509034610516576136693661390d565b906000805160206152c883398151915283526001918260205281842033855260205261369a60ff8386205416614c19565b839283815b6136e0575b505050816136b0578280f35b7f448f3bd350ede14a294c062177c5280fe1eae125d16757da21f5f51d6e89daae9160209151908152a181808280f35b825181101561372e576137056001600160a01b036136fe838661468b565b5116614c65565b613719575b61371390614171565b8161369f565b9361372661371391614171565b94905061370a565b6136a4565b50903461051657816003193601126105165760209060ff60025460a01c1690519015158152f35b509034610516578160031936011261051657600e5490516001600160a01b03909116158152602090f35b509034610516576060366003190112610516576137a460ff611c45613822565b60018060a01b03166001600160601b0360a01b600a541617600a55602435600b55604435600c5580f35b90508334610634576020366003190112610634573563ffffffff60e01b81168091036106345760209250637965db0b60e01b8114908115613811575b5015158152f35b6301ffc9a760e01b1490508361380a565b600435906001600160a01b038216820361383857565b600080fd5b602435906001600160a01b038216820361383857565b60e081019081106001600160401b0382111761386e57604052565b634e487b7160e01b600052604160045260246000fd5b604081019081106001600160401b0382111761386e57604052565b606081019081106001600160401b0382111761386e57604052565b608081019081106001600160401b0382111761386e57604052565b90601f801991011681019081106001600160401b0382111761386e57604052565b6001600160401b03811161386e5760051b60200190565b60208060031983011261383857600435916001600160401b0383116138385780602384011215613838578260040135613945816138f6565b9361395360405195866138d5565b81855260248486019260051b82010192831161383857602401905b82821061397c575050505090565b81356001600160a01b038116810361383857815290830190830161396e565b60005b8381106139ae5750506000910152565b818101518382015260200161399e565b906020916139d78151809281855285808601910161399b565b601f01601f1916010190565b6020908160408183019282815285518094520193019160005b828110613a0a575050505090565b83516001600160a01b0316855293810193928101926001016139fc565b601c54811015613a5e57601c6000527f0e4562a10381dec21b205ed72637e6b1b523bdd0e4d4d50af5cd23dd4500a2110190600090565b634e487b7160e01b600052603260045260246000fd5b601e54811015613a5e57601e6000527f50bb669a95c7b50b7e8a6f09454034b2b14cf2b85c730dca9a539ca82cb6e3500190600090565b600754811015613a5e5760076000527fa66cc928b5edb82af9bd49922954155ab7b0942694bea4ce44661d9a8736c6880190600090565b600554811015613a5e5760056000527f036b6384b5eca791c62761152d0c79bb0604c104a5fb6f4eb0703f3154bb3db00190600090565b8054821015613a5e5760005260206000200190600090565b6001600160401b03811161386e57601f01601f191660200190565b81601f8201121561383857803590613b6382613b31565b92613b7160405194856138d5565b8284526020838301011161383857816000926020809301838601378301015290565b6060600319820112613838576004356001600160a01b0381168103613838579160243591604435906001600160401b03821161383857613bd591600401613b4c565b90565b9060406003198301126138385760043591602435906001600160401b03821161383857613bd591600401613b4c565b601d54811015613a5e57601d60005260021b7f6d4407e7be21f808e6509aa9fa9143369579dd7d760fe20a2c09680fc146134f0190600090565b6020908160408183019282815285518094520193019160005b828110613c68575050505090565b835185529381019392810192600101613c5a565b6000818152600191602091838352604093848220338352845260ff858320541615613ca8575050505050565b33855193613cb58561389f565b602a85528585019187368437855115613f4057603083538551841015613f40576078602187015360295b848111613ed65750613e9457865192613cf7846138ba565b60428452868401946060368737845115613e8057603086538451821015613e805790607860218601536041915b818311613e1257505050613dd057611344938693613db493613da5604894613d7c9a519a8b957f416363657373436f6e74726f6c3a206163636f756e74200000000000000000008c880152518092603788019061399b565b8401917001034b99036b4b9b9b4b733903937b6329607d1b60378401525180938684019061399b565b010360288101875201856138d5565b5192839262461bcd60e51b8452600484015260248301906139be565b60648587519062461bcd60e51b825280600483015260248201527f537472696e67733a20686578206c656e67746820696e73756666696369656e746044820152fd5b909192600f81166010811015613e6c576f181899199a1a9b1b9c1cb0b131b232b360811b901a613e428588614000565b5360041c928015613e5857600019019190613d24565b634e487b7160e01b82526011600452602482fd5b634e487b7160e01b83526032600452602483fd5b634e487b7160e01b81526032600452602490fd5b60648688519062461bcd60e51b825280600483015260248201527f537472696e67733a20686578206c656e67746820696e73756666696369656e746044820152fd5b90600f81166010811015613f2c576f181899199a1a9b1b9c1cb0b131b232b360811b901a613f048389614000565b5360041c908015613f185760001901613cdf565b634e487b7160e01b86526011600452602486fd5b634e487b7160e01b87526032600452602487fd5b634e487b7160e01b85526032600452602485fd5b906000918083526001602052604083209160018060a01b03169182845260205260ff604084205416613f8557505050565b8083526001602052604083208284526020526040832060ff1981541690557ff6391f5c32d9c69d2a47ea670b442974b53935d1edc7fd64eb21e047a839171b339380a4565b81810292918115918404141715613fdd57565b634e487b7160e01b600052601160045260246000fd5b91908201809211613fdd57565b908151811015613a5e570160200190565b601c5480156140285760018101809111613fdd5790565b50600090565b1561403557565b60405162461bcd60e51b815260206004820152601a60248201527f746f6b656e2073616c6520616c726561647920737461727465640000000000006044820152606490fd5b1561408157565b60405162461bcd60e51b815260206004820152601960248201527f63616c6c657220686173206e6f742061646d696e20726f6c65000000000000006044820152606490fd5b156140cd57565b60405162461bcd60e51b815260206004820152601a60248201527f656e642064617465206265666f726520737461727420646174650000000000006044820152606490fd5b601c54600160401b81101561386e5761413481600161414b9301601c55613a27565b819391549060031b91821b91600019901b19161790565b9055565b805490600160401b82101561386e578161413491600161414b94018155613b19565b6000198114613fdd5760010190565b91908203918211613fdd57565b8115614197570490565b634e487b7160e01b600052601260045260246000fd5b60195480421061402857601b5480156141e0576141cd6141d29242614180565b61418d565b60018101809111613fdd5790565b5050600190565b600d546040516370a0823160e01b815230600482015290602090829060249082906001600160a01b03165afa90811561425357600091614225575090565b906020823d821161424b575b8161423e602093836138d5565b810103126104d957505190565b3d9150614231565b6040513d6000823e3d90fd5b6012544210158061426d5790565b50601354421090565b60115461428291613fca565b600d5460405163313ce56760e01b815290602090829060049082906001600160a01b03165afa908115614253576000916142d1575b5060ff1690604d8211613fdd57613bd591600a0a9061418d565b6020813d8211614305575b816142e9602093836138d5565b8101031261051657519060ff821682036104d9575060ff6142b7565b3d91506142dc565b60018060a01b03166000526020601f81526040600020906040518092839183825491828152019160005283600020936000905b82821061435657505050613bd5925003826138d5565b855484526001958601958795509381019390910190614340565b60ff60105460081c161561447b57600a546001600160a01b0390811691908261439c575b505050600090565b6040516370a0823160e01b81529116600482018190526020918281602481875afa9081156142535760009161444e575b50600b54111561444657819060246040518095819363f6a3f3cf60e01b835260048301525afa9081156142535760009161441a575b509050600c54111561441557388080614394565b600190565b82813d831161443f575b61442e81836138d5565b810103126104d95750518038614401565b503d614424565b505050600190565b908382813d8311614474575b61446481836138d5565b810103126104d9575051386143cc565b503d61445a565b50600190565b6040516323b872dd60e01b60208201526001600160a01b03928316602482015292909116604483015260648083019390935291815260a08101918183106001600160401b0384111761386e576144d9926040526144db565b565b60018060a01b0316906145586040516144f381613884565b6020938482527f5361666545524332303a206c6f772d6c6576656c2063616c6c206661696c6564858301526000808587829751910182855af13d156145ee573d9161453d83613b31565b9261454b60405194856138d5565b83523d868885013e6145f2565b8051918215918483156145ca575b5050509050156145735750565b6084906040519062461bcd60e51b82526004820152602a60248201527f5361666545524332303a204552433230206f7065726174696f6e20646964206e6044820152691bdd081cdd58d8d9595960b21b6064820152fd5b919381809450010312610516578201519081151582036104d9575080388084614566565b6060915b919290156146545750815115614606575090565b3b1561460f5790565b60405162461bcd60e51b815260206004820152601d60248201527f416464726573733a2063616c6c20746f206e6f6e2d636f6e74726163740000006044820152606490fd5b8251909150156146675750805190602001fd5b60405162461bcd60e51b8152602060048201529081906113449060248301906139be565b8051821015613a5e5760209160051b010190565b60ff600054166146ab57565b60405162461bcd60e51b815260206004820152601060248201526f14185d5cd8589b194e881c185d5cd95960821b6044820152606490fd5b60405163a9059cbb60e01b60208201526001600160a01b03909216602483015260448201929092526144d99161282b826064810161281d565b6040519061472982613884565b601a82527f70757263686173655f696420646f6573206e6f742065786973740000000000006020830152565b90601d54821015614b335760ff60105416614af6576013544210614ab95760009160ff835416614a7f5760155460145411614a495760036147a3600161479a84613c07565b50015492613c07565b5001549080821015614a0e578390601c54801560001461496e5750601954601b54426147cf8284613ff3565b116148fd575050809150905b8183116148a357811161485257906147f291614180565b915081156148255760405161480681613884565b600f81526e726561647920746f2072656465656d60881b602082015290565b60405161483181613884565b60118152706e6f7468696e6720746f2072656465656d60781b602082015290565b50506040516148608161389f565b602d81527f494e5445524e414c204552524f52203a2076657374416d6f756e74203e20707560208201526c1c98da185cd957d85b5bdd5b9d609a1b604082015290565b5050506040516148b28161389f565b603581527f494e5445524e414c204552524f52203a2070757263686173655f616d6f756e7460208201527414995919595b5959080f881d995cdd105b5bdd5b9d605a1b604082015290565b60185442101561490f575b50506147db565b909250655af3107a400061492560175484613fca565b049242614934601a5483613ff3565b116149085783916141cd6149609261495a614953879861496698614180565b9142614180565b90613fca565b90613ff3565b903880614908565b909150601954614980601a5482613ff3565b42106149d15761499361499c9142614180565b601b549061418d565b9081106149aa5750806147db565b6149ca6149bd655af3107a400092613a27565b90549060031b1c83613fca565b04906147db565b505050506040516149e181613884565b601d81527f76657374696e6720636c696666206e6f74207965742072656163686564000000602082015290565b5050604051614a1c81613884565b601a81527f616c6c20746f6b656e20616c72656164792072656465656d6564000000000000602082015290565b50604051614a5681613884565b60198152781b5a5b9a5b5d5b481c985a5cd9481b9bdd081c995858da1959603a1b602082015290565b50604051614a8c81613884565b601d81527f746f6b656e2073616c6520636f6e747261637420697320706175736564000000602082015290565b60405160009250614ac981613884565b601881527f746f6b656e2073616c65206e6f742066696e616c697a65640000000000000000602082015290565b60405160009250614b0681613884565b601981527f68617320746f206265206e6f6e2041746f6d6963207377617000000000000000602082015290565b60009150613bd561471c565b601d548110614b5a5750600090600090600090613bd561471c565b6001614b6582613c07565b50015491614b806003614b7784613c07565b50015492614755565b9091565b15614b8b57565b60405162461bcd60e51b815260206004820152601860248201527f73616c652068617320746f2062652066696e616c697a656400000000000000006044820152606490fd5b60ff6000541615614bdd57565b60405162461bcd60e51b815260206004820152601460248201527314185d5cd8589b194e881b9bdd081c185d5cd95960621b6044820152606490fd5b15614c2057565b60405162461bcd60e51b815260206004820152601c60248201527f63616c6c6572206973206e6f742057686974656c6973744f776e6572000000006044820152606490fd5b600081815260066020526040812054614cc657600554600160401b811015614cb2579082614c9e61413484600160409601600555613ae2565b905560055492815260066020522055600190565b634e487b7160e01b82526041600452602482fd5b905090565b600081815260086020526040812054614cc657600754600160401b811015614cb2579082614d0461413484600160409601600755613aab565b905560075492815260086020522055600190565b6000818152600860205260408120549091908015614de95760001990808201818111614dd55760075490838201918211613f1857808203614da1575b5050506007548015614d8d57810190614d6c82613aab565b909182549160031b1b19169055600755815260086020526040812055600190565b634e487b7160e01b84526031600452602484fd5b614dbf614db061413493613aab565b90549060031b1c928392613aab565b9055845260086020526040842055388080614d54565b634e487b7160e01b85526011600452602485fd5b505090565b6000818152600660205260408120549091908015614de95760001990808201818111614dd55760055490838201918211613f1857808203614e63575b5050506005548015614d8d57810190614e4282613ae2565b909182549160031b1b19169055600555815260066020526040812055600190565b614e81614e7261413493613ae2565b90549060031b1c928392613ae2565b9055845260066020526040842055388080614e2a565b6041825103614ee157613bd591614ed9917f19457468657265756d205369676e6564204d6573736167653a0a333200000000600052601c52603c600020615040565b919091614f26565b60405162461bcd60e51b815260206004820152601960248201527f7369676e6174757265206973206e6f74203635206279746573000000000000006044820152606490fd5b600581101561502a5780614f375750565b60018103614f845760405162461bcd60e51b815260206004820152601860248201527f45434453413a20696e76616c6964207369676e617475726500000000000000006044820152606490fd5b60028103614fd15760405162461bcd60e51b815260206004820152601f60248201527f45434453413a20696e76616c6964207369676e6174757265206c656e677468006044820152606490fd5b600314614fda57565b60405162461bcd60e51b815260206004820152602260248201527f45434453413a20696e76616c6964207369676e6174757265202773272076616c604482015261756560f01b6064820152608490fd5b634e487b7160e01b600052602160045260246000fd5b90604181511460001461506a57614b80916020820151906060604084015193015160001a90615074565b5050600090600290565b9291907f7fffffffffffffffffffffffffffffff5d576e7357a4501ddfe92f46681b20a083116150f15791608094939160ff602094604051948552168484015260408301526060820152600093849182805260015afa156150e45781516001600160a01b0381161561447b579190565b50604051903d90823e3d90fd5b50505050600090600390565b61513e92916040519060208201926001600160601b03199060601b16835260348201523060601b605482015260488152615136816138ba565b519020614e97565b6002546001600160a01b0391821691161490565b6001600160a01b0380821660008181526008602052604090205492939261521b576002549060ff8260a01c16159081156151fd575b506151f35781169182151593846151ac575b505050506151a657600090565b60045490565b6151e89293945060405160208101916001600160601b03199060601b168252600060348201523060601b605482015260488152615136816138ba565b161438808080615199565b5050505060045490565b61521591506000526006602052604060002054151590565b38615187565b50505050600090565b909160018060a01b03808316908160005260086020526040600020546152bd576002549160ff8360a01c161590811561529f575b506152945784911615159283615282575b5050506152765750600090565b80613bd5575060045490565b61528c93506150fd565b388281615269565b505050505060045490565b6152b791506000526006602052604060002054151590565b38615258565b505050505060009056feb813b807c25079ba97f1770664c6a9e57c59afe74a6295f1ed01c10e3bb6baaea164736f6c6343000813000a2f8788117e7eff1d82e926ec794901d17c78024a50270940304540a733656f0d",
  "linkReferences": {},
  "deployedLinkReferences": {}
}