{
  "_format": "hh-sol-artifact-1",
  "contractName": "FixedSwap",
  "sourceName": "contracts/FixedSwap.sol",
  "abi": [
    {
      "inputs": [
        {
          "internalType": "address",
          "name": "_tokenAddress",
          "type": "address"
        },
        {
          "internalType": "uint256",
          "name": "_tradeValue",
          "type": "uint256"
        },
        {
          "internalType": "uint256",
          "name": "_tokensForSale",
          "type": "uint256"
        },
        {
          "internalType": "uint256",
          "name": "_startDate",
          "type": "uint256"
        },
        {
          "internalType": "uint256",
          "name": "_endDate",
          "type": "uint256"
        },
        {
          "internalType": "uint256",
          "name": "_individualMinimumAmount",
          "type": "uint256"
        },
        {
          "internalType": "uint256",
          "name": "_individualMaximumAmount",
          "type": "uint256"
        },
        {
          "internalType": "bool",
          "name": "_ignored",
          "type": "bool"
        },
        {
          "internalType": "uint256",
          "name": "_minimumRaise",
          "type": "uint256"
        },
        {
          "internalType": "uint256",
          "name": "_feePercentage",
          "type": "uint256"
        },
        {
          "internalType": "uint32",
          "name": "_flags",
          "type": "uint32"
        },
        {
          "internalType": "address",
          "name": "_erc20TradeAddress",
          "type": "address"
        }
      ],
      "stateMutability": "nonpayable",
      "type": "constructor"
    },
    {
      "anonymous": false,
      "inputs": [
        {
          "indexed": false,
          "internalType": "uint256",
          "name": "count",
          "type": "uint256"
        }
      ],
      "name": "AddedArrayToBlacklist",
      "type": "event"
    },
    {
      "anonymous": false,
      "inputs": [
        {
          "indexed": false,
          "internalType": "uint256",
          "name": "count",
          "type": "uint256"
        }
      ],
      "name": "AddedArrayToWhitelist",
      "type": "event"
    },
    {
      "anonymous": false,
      "inputs": [
        {
          "indexed": true,
          "internalType": "address",
          "name": "account",
          "type": "address"
        }
      ],
      "name": "AddedToBlacklist",
      "type": "event"
    },
    {
      "anonymous": false,
      "inputs": [
        {
          "indexed": true,
          "internalType": "address",
          "name": "account",
          "type": "address"
        }
      ],
      "name": "AddedToWhitelist",
      "type": "event"
    },
    {
      "anonymous": false,
      "inputs": [
        {
          "indexed": false,
          "internalType": "address",
          "name": "account",
          "type": "address"
        }
      ],
      "name": "Paused",
      "type": "event"
    },
    {
      "anonymous": false,
      "inputs": [
        {
          "indexed": false,
          "internalType": "uint256",
          "name": "amount",
          "type": "uint256"
        },
        {
          "indexed": true,
          "internalType": "address",
          "name": "purchaser",
          "type": "address"
        },
        {
          "indexed": false,
          "internalType": "uint256",
          "name": "timestamp",
          "type": "uint256"
        }
      ],
      "name": "PurchaseEvent",
      "type": "event"
    },
    {
      "anonymous": false,
      "inputs": [
        {
          "indexed": true,
          "internalType": "uint256",
          "name": "purchase_id",
          "type": "uint256"
        },
        {
          "indexed": true,
          "internalType": "address",
          "name": "buyer",
          "type": "address"
        },
        {
          "indexed": false,
          "internalType": "uint256",
          "name": "refundAmount",
          "type": "uint256"
        },
        {
          "indexed": false,
          "internalType": "uint256",
          "name": "tokenAmount",
          "type": "uint256"
        }
      ],
      "name": "RefundIssued",
      "type": "event"
    },
    {
      "anonymous": false,
      "inputs": [
        {
          "indexed": true,
          "internalType": "address",
          "name": "account",
          "type": "address"
        }
      ],
      "name": "RemovedFromBlacklist",
      "type": "event"
    },
    {
      "anonymous": false,
      "inputs": [
        {
          "indexed": true,
          "internalType": "address",
          "name": "account",
          "type": "address"
        }
      ],
      "name": "RemovedFromWhitelist",
      "type": "event"
    },
    {
      "anonymous": false,
      "inputs": [
        {
          "indexed": true,
          "internalType": "bytes32",
          "name": "role",
          "type": "bytes32"
        },
        {
          "indexed": true,
          "internalType": "bytes32",
          "name": "previousAdminRole",
          "type": "bytes32"
        },
        {
          "indexed": true,
          "internalType": "bytes32",
          "name": "newAdminRole",
          "type": "bytes32"
        }
      ],
      "name": "RoleAdminChanged",
      "type": "event"
    },
    {
      "anonymous": false,
      "inputs": [
        {
          "indexed": true,
          "internalType": "bytes32",
          "name": "role",
          "type": "bytes32"
        },
        {
          "indexed": true,
          "internalType": "address",
          "name": "account",
          "type": "address"
        },
        {
          "indexed": true,
          "internalType": "address",
          "name": "sender",
          "type": "address"
        }
      ],
      "name": "RoleGranted",
      "type": "event"
    },
    {
      "anonymous": false,
      "inputs": [
        {
          "indexed": true,
          "internalType": "bytes32",
          "name": "role",
          "type": "bytes32"
        },
        {
          "indexed": true,
          "internalType": "address",
          "name": "account",
          "type": "address"
        },
        {
          "indexed": true,
          "internalType": "address",
          "name": "sender",
          "type": "address"
        }
      ],
      "name": "RoleRevoked",
      "type": "event"
    },
    {
      "anonymous": false,
      "inputs": [
        {
          "indexed": false,
          "internalType": "uint256",
          "name": "endDate",
          "type": "uint256"
        }
      ],
      "name": "SetEndDateEvent",
      "type": "event"
    },
    {
      "anonymous": false,
      "inputs": [
        {
          "indexed": false,
          "internalType": "bool",
          "name": "hasWhitelisting",
          "type": "bool"
        }
      ],
      "name": "SetHasWhitelisting",
      "type": "event"
    },
    {
      "anonymous": false,
      "inputs": [
        {
          "indexed": false,
          "internalType": "address",
          "name": "stakingRewardsAddress",
          "type": "address"
        }
      ],
      "name": "SetStakingRewardsEvent",
      "type": "event"
    },
    {
      "anonymous": false,
      "inputs": [
        {
          "indexed": false,
          "internalType": "uint256",
          "name": "startDate",
          "type": "uint256"
        }
      ],
      "name": "SetStartDateEvent",
      "type": "event"
    },
    {
      "anonymous": false,
      "inputs": [
        {
          "indexed": false,
          "internalType": "uint256",
          "name": "tradeValue",
          "type": "uint256"
        }
      ],
      "name": "SetTradeValueEvent",
      "type": "event"
    },
    {
      "anonymous": false,
      "inputs": [
        {
          "indexed": false,
          "internalType": "uint256",
          "name": "tgeAllocation",
          "type": "uint256"
        },
        {
          "indexed": false,
          "internalType": "uint256",
          "name": "tgeTime",
          "type": "uint256"
        },
        {
          "indexed": false,
          "internalType": "uint256",
          "name": "vestingStart",
          "type": "uint256"
        },
        {
          "indexed": false,
          "internalType": "uint256",
          "name": "vestingCliff",
          "type": "uint256"
        },
        {
          "indexed": false,
          "internalType": "uint256",
          "name": "vestingDuration",
          "type": "uint256"
        },
        {
          "indexed": false,
          "internalType": "uint256[]",
          "name": "vestingSchedule",
          "type": "uint256[]"
        }
      ],
      "name": "SetVestingEvent",
      "type": "event"
    },
    {
      "anonymous": false,
      "inputs": [
        {
          "indexed": false,
          "internalType": "address",
          "name": "account",
          "type": "address"
        }
      ],
      "name": "Unpaused",
      "type": "event"
    },
    {
      "inputs": [],
      "name": "DECIMALS_PERCENT_MUL",
      "outputs": [
        {
          "internalType": "uint256",
          "name": "",
          "type": "uint256"
        }
      ],
      "stateMutability": "view",
      "type": "function"
    },
    {
      "inputs": [],
      "name": "DEFAULT_ADMIN_ROLE",
      "outputs": [
        {
          "internalType": "bytes32",
          "name": "",
          "type": "bytes32"
        }
      ],
      "stateMutability": "view",
      "type": "function"
    },
    {
      "inputs": [],
      "name": "FEE_ADDRESS",
      "outputs": [
        {
          "internalType": "address",
          "name": "",
          "type": "address"
        }
      ],
      "stateMutability": "view",
      "type": "function"
    },
    {
      "inputs": [],
      "name": "FLAGS",
      "outputs": [
        {
          "internalType": "uint256",
          "name": "",
          "type": "uint256"
        }
      ],
      "stateMutability": "view",
      "type": "function"
    },
    {
      "inputs": [],
      "name": "MAX_TOTAL_VESTING_TIME",
      "outputs": [
        {
          "internalType": "uint256",
          "name": "",
          "type": "uint256"
        }
      ],
      "stateMutability": "view",
      "type": "function"
    },
    {
      "inputs": [],
      "name": "PolsStakeAddress",
      "outputs": [
        {
          "internalType": "address",
          "name": "",
          "type": "address"
        }
      ],
      "stateMutability": "view",
      "type": "function"
    },
    {
      "inputs": [],
      "name": "WHITELIST_OWNER_ROLE",
      "outputs": [
        {
          "internalType": "bytes32",
          "name": "",
          "type": "bytes32"
        }
      ],
      "stateMutability": "view",
      "type": "function"
    },
    {
      "inputs": [
        {
          "internalType": "address[]",
          "name": "_addresses",
          "type": "address[]"
        }
      ],
      "name": "addArrayToBlacklist",
      "outputs": [],
      "stateMutability": "nonpayable",
      "type": "function"
    },
    {
      "inputs": [
        {
          "internalType": "address[]",
          "name": "_addresses",
          "type": "address[]"
        }
      ],
      "name": "addArrayToWhitelist",
      "outputs": [],
      "stateMutability": "nonpayable",
      "type": "function"
    },
    {
      "inputs": [
        {
          "internalType": "address",
          "name": "_address",
          "type": "address"
        }
      ],
      "name": "addToBlacklist",
      "outputs": [],
      "stateMutability": "nonpayable",
      "type": "function"
    },
    {
      "inputs": [
        {
          "internalType": "address",
          "name": "_address",
          "type": "address"
        }
      ],
      "name": "addToWhitelist",
      "outputs": [],
      "stateMutability": "nonpayable",
      "type": "function"
    },
    {
      "inputs": [],
      "name": "allowLateVestingChange",
      "outputs": [
        {
          "internalType": "bool",
          "name": "",
          "type": "bool"
        }
      ],
      "stateMutability": "view",
      "type": "function"
    },
    {
      "inputs": [],
      "name": "allowSaleStartwithoutFunding",
      "outputs": [
        {
          "internalType": "bool",
          "name": "",
          "type": "bool"
        }
      ],
      "stateMutability": "view",
      "type": "function"
    },
    {
      "inputs": [],
      "name": "availableTokens",
      "outputs": [
        {
          "internalType": "uint256",
          "name": "",
          "type": "uint256"
        }
      ],
      "stateMutability": "view",
      "type": "function"
    },
    {
      "inputs": [
        {
          "internalType": "uint256",
          "name": "",
          "type": "uint256"
        }
      ],
      "name": "buyers",
      "outputs": [
        {
          "internalType": "address",
          "name": "",
          "type": "address"
        }
      ],
      "stateMutability": "view",
      "type": "function"
    },
    {
      "inputs": [],
      "name": "checkUnfundedSaleAllowed",
      "outputs": [
        {
          "internalType": "bool",
          "name": "unfundedSaleAllowed",
          "type": "bool"
        },
        {
          "internalType": "string",
          "name": "warning",
          "type": "string"
        }
      ],
      "stateMutability": "view",
      "type": "function"
    },
    {
      "inputs": [
        {
          "internalType": "uint256",
          "name": "_amount",
          "type": "uint256"
        }
      ],
      "name": "cost",
      "outputs": [
        {
          "internalType": "uint256",
          "name": "",
          "type": "uint256"
        }
      ],
      "stateMutability": "view",
      "type": "function"
    },
    {
      "inputs": [
        {
          "internalType": "address",
          "name": "_account",
          "type": "address"
        },
        {
          "internalType": "uint256",
          "name": "_accountMaximunAllocation",
          "type": "uint256"
        },
        {
          "internalType": "bytes",
          "name": "_signature",
          "type": "bytes"
        }
      ],
      "name": "determineAccountMaximunAllocation",
      "outputs": [
        {
          "internalType": "uint256",
          "name": "",
          "type": "uint256"
        }
      ],
      "stateMutability": "view",
      "type": "function"
    },
    {
      "inputs": [],
      "name": "endDate",
      "outputs": [
        {
          "internalType": "uint256",
          "name": "",
          "type": "uint256"
        }
      ],
      "stateMutability": "view",
      "type": "function"
    },
    {
      "inputs": [],
      "name": "erc20",
      "outputs": [
        {
          "internalType": "contract IERC20",
          "name": "",
          "type": "address"
        }
      ],
      "stateMutability": "view",
      "type": "function"
    },
    {
      "inputs": [],
      "name": "erc20TradeIn",
      "outputs": [
        {
          "internalType": "contract IERC20",
          "name": "",
          "type": "address"
        }
      ],
      "stateMutability": "view",
      "type": "function"
    },
    {
      "inputs": [],
      "name": "feePercentage",
      "outputs": [
        {
          "internalType": "uint256",
          "name": "",
          "type": "uint256"
        }
      ],
      "stateMutability": "view",
      "type": "function"
    },
    {
      "inputs": [
        {
          "internalType": "uint256",
          "name": "_amount",
          "type": "uint256"
        }
      ],
      "name": "fund",
      "outputs": [],
      "stateMutability": "nonpayable",
      "type": "function"
    },
    {
      "inputs": [],
      "name": "fundFull",
      "outputs": [],
      "stateMutability": "nonpayable",
      "type": "function"
    },
    {
      "inputs": [],
      "name": "getBlacklistedAddresses",
      "outputs": [
        {
          "internalType": "address[]",
          "name": "",
          "type": "address[]"
        }
      ],
      "stateMutability": "view",
      "type": "function"
    },
    {
      "inputs": [],
      "name": "getBuyers",
      "outputs": [
        {
          "internalType": "address[]",
          "name": "",
          "type": "address[]"
        }
      ],
      "stateMutability": "view",
      "type": "function"
    },
    {
      "inputs": [],
      "name": "getCurrentSchedule",
      "outputs": [
        {
          "internalType": "uint256",
          "name": "schedule",
          "type": "uint256"
        }
      ],
      "stateMutability": "view",
      "type": "function"
    },
    {
      "inputs": [
        {
          "internalType": "address",
          "name": "_address",
          "type": "address"
        }
      ],
      "name": "getMyPurchases",
      "outputs": [
        {
          "internalType": "uint256[]",
          "name": "",
          "type": "uint256[]"
        }
      ],
      "stateMutability": "view",
      "type": "function"
    },
    {
      "inputs": [],
      "name": "getMyPurchases_msgSender",
      "outputs": [
        {
          "internalType": "uint256[]",
          "name": "",
          "type": "uint256[]"
        }
      ],
      "stateMutability": "view",
      "type": "function"
    },
    {
      "inputs": [
        {
          "internalType": "uint256",
          "name": "purchase_id",
          "type": "uint256"
        }
      ],
      "name": "getPurchase",
      "outputs": [
        {
          "internalType": "uint256",
          "name": "amount",
          "type": "uint256"
        },
        {
          "internalType": "address",
          "name": "purchaser",
          "type": "address"
        },
        {
          "internalType": "uint256",
          "name": "costAmount",
          "type": "uint256"
        },
        {
          "internalType": "uint48",
          "name": "timestamp",
          "type": "uint48"
        },
        {
          "internalType": "bool",
          "name": "wasFinalized",
          "type": "bool"
        },
        {
          "internalType": "bool",
          "name": "reverted",
          "type": "bool"
        },
        {
          "internalType": "uint256",
          "name": "amountRedeemed",
          "type": "uint256"
        }
      ],
      "stateMutability": "view",
      "type": "function"
    },
    {
      "inputs": [],
      "name": "getPurchasesCount",
      "outputs": [
        {
          "internalType": "uint256",
          "name": "count",
          "type": "uint256"
        }
      ],
      "stateMutability": "view",
      "type": "function"
    },
    {
      "inputs": [
        {
          "internalType": "uint256",
          "name": "purchase_id",
          "type": "uint256"
        }
      ],
      "name": "getRedeemStatus",
      "outputs": [
        {
          "internalType": "uint256",
          "name": "amount",
          "type": "uint256"
        },
        {
          "internalType": "uint256",
          "name": "amountRedeemed",
          "type": "uint256"
        },
        {
          "internalType": "uint256",
          "name": "vestAmount",
          "type": "uint256"
        },
        {
          "internalType": "string",
          "name": "message",
          "type": "string"
        }
      ],
      "stateMutability": "view",
      "type": "function"
    },
    {
      "inputs": [
        {
          "internalType": "uint256",
          "name": "purchase_id",
          "type": "uint256"
        }
      ],
      "name": "getRedeemableTokensAmount",
      "outputs": [
        {
          "internalType": "uint256",
          "name": "amount",
          "type": "uint256"
        },
        {
          "internalType": "string",
          "name": "message",
          "type": "string"
        }
      ],
      "stateMutability": "view",
      "type": "function"
    },
    {
      "inputs": [
        {
          "internalType": "uint256",
          "name": "purchase_id",
          "type": "uint256"
        }
      ],
      "name": "getRefundAmount",
      "outputs": [
        {
          "internalType": "uint256",
          "name": "refundAmount",
          "type": "uint256"
        },
        {
          "internalType": "uint256",
          "name": "unclaimedTokens",
          "type": "uint256"
        },
        {
          "internalType": "string",
          "name": "message",
          "type": "string"
        }
      ],
      "stateMutability": "view",
      "type": "function"
    },
    {
      "inputs": [
        {
          "internalType": "bytes32",
          "name": "role",
          "type": "bytes32"
        }
      ],
      "name": "getRoleAdmin",
      "outputs": [
        {
          "internalType": "bytes32",
          "name": "",
          "type": "bytes32"
        }
      ],
      "stateMutability": "view",
      "type": "function"
    },
    {
      "inputs": [],
      "name": "getVersion",
      "outputs": [
        {
          "internalType": "uint32",
          "name": "API_VERSION",
          "type": "uint32"
        }
      ],
      "stateMutability": "pure",
      "type": "function"
    },
    {
      "inputs": [],
      "name": "getVestingEndTime",
      "outputs": [
        {
          "internalType": "uint256",
          "name": "",
          "type": "uint256"
        }
      ],
      "stateMutability": "view",
      "type": "function"
    },
    {
      "inputs": [],
      "name": "getVestingStartTime",
      "outputs": [
        {
          "internalType": "uint256",
          "name": "",
          "type": "uint256"
        }
      ],
      "stateMutability": "view",
      "type": "function"
    },
    {
      "inputs": [],
      "name": "getWhitelistedAddresses",
      "outputs": [
        {
          "internalType": "address[]",
          "name": "",
          "type": "address[]"
        }
      ],
      "stateMutability": "view",
      "type": "function"
    },
    {
      "inputs": [
        {
          "internalType": "bytes32",
          "name": "role",
          "type": "bytes32"
        },
        {
          "internalType": "address",
          "name": "account",
          "type": "address"
        }
      ],
      "name": "grantRole",
      "outputs": [],
      "stateMutability": "nonpayable",
      "type": "function"
    },
    {
      "inputs": [],
      "name": "hasFinalized",
      "outputs": [
        {
          "internalType": "bool",
          "name": "",
          "type": "bool"
        }
      ],
      "stateMutability": "view",
      "type": "function"
    },
    {
      "inputs": [],
      "name": "hasMinimumAmount",
      "outputs": [
        {
          "internalType": "bool",
          "name": "",
          "type": "bool"
        }
      ],
      "stateMutability": "view",
      "type": "function"
    },
    {
      "inputs": [],
      "name": "hasMinimumRaise",
      "outputs": [
        {
          "internalType": "bool",
          "name": "",
          "type": "bool"
        }
      ],
      "stateMutability": "view",
      "type": "function"
    },
    {
      "inputs": [
        {
          "internalType": "bytes32",
          "name": "role",
          "type": "bytes32"
        },
        {
          "internalType": "address",
          "name": "account",
          "type": "address"
        }
      ],
      "name": "hasRole",
      "outputs": [
        {
          "internalType": "bool",
          "name": "",
          "type": "bool"
        }
      ],
      "stateMutability": "view",
      "type": "function"
    },
    {
      "inputs": [],
      "name": "hasStarted",
      "outputs": [
        {
          "internalType": "bool",
          "name": "",
          "type": "bool"
        }
      ],
      "stateMutability": "view",
      "type": "function"
    },
    {
      "inputs": [],
      "name": "hasWhitelisting",
      "outputs": [
        {
          "internalType": "bool",
          "name": "",
          "type": "bool"
        }
      ],
      "stateMutability": "view",
      "type": "function"
    },
    {
      "inputs": [],
      "name": "individualMaximumAmount",
      "outputs": [
        {
          "internalType": "uint256",
          "name": "",
          "type": "uint256"
        }
      ],
      "stateMutability": "view",
      "type": "function"
    },
    {
      "inputs": [],
      "name": "individualMinimumAmount",
      "outputs": [
        {
          "internalType": "uint256",
          "name": "",
          "type": "uint256"
        }
      ],
      "stateMutability": "view",
      "type": "function"
    },
    {
      "inputs": [],
      "name": "isBeforeVestingStart",
      "outputs": [
        {
          "internalType": "bool",
          "name": "",
          "type": "bool"
        }
      ],
      "stateMutability": "view",
      "type": "function"
    },
    {
      "inputs": [
        {
          "internalType": "address",
          "name": "_address",
          "type": "address"
        }
      ],
      "name": "isBlacklisted",
      "outputs": [
        {
          "internalType": "bool",
          "name": "",
          "type": "bool"
        }
      ],
      "stateMutability": "view",
      "type": "function"
    },
    {
      "inputs": [
        {
          "internalType": "uint256",
          "name": "purchase_id",
          "type": "uint256"
        }
      ],
      "name": "isBuyer",
      "outputs": [
        {
          "internalType": "bool",
          "name": "",
          "type": "bool"
        }
      ],
      "stateMutability": "view",
      "type": "function"
    },
    {
      "inputs": [],
      "name": "isETHTrade",
      "outputs": [
        {
          "internalType": "bool",
          "name": "",
          "type": "bool"
        }
      ],
      "stateMutability": "view",
      "type": "function"
    },
    {
      "inputs": [],
      "name": "isInRefundPeriod",
      "outputs": [
        {
          "internalType": "bool",
          "name": "",
          "type": "bool"
        }
      ],
      "stateMutability": "view",
      "type": "function"
    },
    {
      "inputs": [],
      "name": "isOpen",
      "outputs": [
        {
          "internalType": "bool",
          "name": "",
          "type": "bool"
        }
      ],
      "stateMutability": "view",
      "type": "function"
    },
    {
      "inputs": [],
      "name": "isPreStart",
      "outputs": [
        {
          "internalType": "bool",
          "name": "",
          "type": "bool"
        }
      ],
      "stateMutability": "view",
      "type": "function"
    },
    {
      "inputs": [],
      "name": "isSaleFunded",
      "outputs": [
        {
          "internalType": "bool",
          "name": "",
          "type": "bool"
        }
      ],
      "stateMutability": "view",
      "type": "function"
    },
    {
      "inputs": [
        {
          "internalType": "address",
          "name": "_userAccountAaddress",
          "type": "address"
        },
        {
          "internalType": "uint256",
          "name": "_accountMaximunAllocation",
          "type": "uint256"
        },
        {
          "internalType": "bytes",
          "name": "signature",
          "type": "bytes"
        }
      ],
      "name": "isSignerForAddressMaxAlloc",
      "outputs": [
        {
          "internalType": "bool",
          "name": "",
          "type": "bool"
        }
      ],
      "stateMutability": "view",
      "type": "function"
    },
    {
      "inputs": [
        {
          "internalType": "bytes32",
          "name": "hash",
          "type": "bytes32"
        },
        {
          "internalType": "bytes",
          "name": "signature",
          "type": "bytes"
        }
      ],
      "name": "isSignerFromBytes32",
      "outputs": [
        {
          "internalType": "bool",
          "name": "",
          "type": "bool"
        }
      ],
      "stateMutability": "view",
      "type": "function"
    },
    {
      "inputs": [],
      "name": "isTokenSwapAtomic",
      "outputs": [
        {
          "internalType": "bool",
          "name": "",
          "type": "bool"
        }
      ],
      "stateMutability": "view",
      "type": "function"
    },
    {
      "inputs": [
        {
          "internalType": "address",
          "name": "_address",
          "type": "address"
        }
      ],
      "name": "isWhitelisted",
      "outputs": [
        {
          "internalType": "bool",
          "name": "",
          "type": "bool"
        }
      ],
      "stateMutability": "view",
      "type": "function"
    },
    {
      "inputs": [],
      "name": "minimumRaise",
      "outputs": [
        {
          "internalType": "uint256",
          "name": "",
          "type": "uint256"
        }
      ],
      "stateMutability": "view",
      "type": "function"
    },
    {
      "inputs": [],
      "name": "minimumRaiseAchieved",
      "outputs": [
        {
          "internalType": "bool",
          "name": "",
          "type": "bool"
        }
      ],
      "stateMutability": "view",
      "type": "function"
    },
    {
      "inputs": [],
      "name": "minimumRaiseNotAchieved",
      "outputs": [
        {
          "internalType": "bool",
          "name": "",
          "type": "bool"
        }
      ],
      "stateMutability": "view",
      "type": "function"
    },
    {
      "inputs": [
        {
          "internalType": "address",
          "name": "",
          "type": "address"
        },
        {
          "internalType": "uint256",
          "name": "",
          "type": "uint256"
        }
      ],
      "name": "myPurchases",
      "outputs": [
        {
          "internalType": "uint256",
          "name": "",
          "type": "uint256"
        }
      ],
      "stateMutability": "view",
      "type": "function"
    },
    {
      "inputs": [],
      "name": "pause",
      "outputs": [],
      "stateMutability": "nonpayable",
      "type": "function"
    },
    {
      "inputs": [],
      "name": "paused",
      "outputs": [
        {
          "internalType": "bool",
          "name": "",
          "type": "bool"
        }
      ],
      "stateMutability": "view",
      "type": "function"
    },
    {
      "inputs": [
        {
          "internalType": "uint256",
          "name": "purchase_id",
          "type": "uint256"
        }
      ],
      "name": "purchaseExists",
      "outputs": [
        {
          "internalType": "bool",
          "name": "",
          "type": "bool"
        }
      ],
      "stateMutability": "view",
      "type": "function"
    },
    {
      "inputs": [
        {
          "internalType": "uint256",
          "name": "",
          "type": "uint256"
        }
      ],
      "name": "purchases",
      "outputs": [
        {
          "internalType": "address",
          "name": "purchaser",
          "type": "address"
        },
        {
          "internalType": "uint48",
          "name": "timestamp",
          "type": "uint48"
        },
        {
          "internalType": "bool",
          "name": "wasFinalized",
          "type": "bool"
        },
        {
          "internalType": "bool",
          "name": "reverted",
          "type": "bool"
        },
        {
          "internalType": "uint256",
          "name": "amount",
          "type": "uint256"
        },
        {
          "internalType": "uint256",
          "name": "costAmount",
          "type": "uint256"
        },
        {
          "internalType": "uint256",
          "name": "amountRedeemed",
          "type": "uint256"
        }
      ],
      "stateMutability": "view",
      "type": "function"
    },
    {
      "inputs": [
        {
          "internalType": "bytes32",
          "name": "hash",
          "type": "bytes32"
        },
        {
          "internalType": "bytes",
          "name": "signature",
          "type": "bytes"
        }
      ],
      "name": "recoverSignerAddressFromBytes32",
      "outputs": [
        {
          "internalType": "address",
          "name": "",
          "type": "address"
        }
      ],
      "stateMutability": "pure",
      "type": "function"
    },
    {
      "inputs": [
        {
          "internalType": "uint256",
          "name": "purchase_id",
          "type": "uint256"
        }
      ],
      "name": "redeemGivenMinimumGoalNotAchieved",
      "outputs": [],
      "stateMutability": "nonpayable",
      "type": "function"
    },
    {
      "inputs": [
        {
          "internalType": "uint256",
          "name": "purchase_id",
          "type": "uint256"
        }
      ],
      "name": "redeemTokens",
      "outputs": [],
      "stateMutability": "nonpayable",
      "type": "function"
    },
    {
      "inputs": [
        {
          "internalType": "uint256",
          "name": "purchase_id",
          "type": "uint256"
        }
      ],
      "name": "refund",
      "outputs": [],
      "stateMutability": "nonpayable",
      "type": "function"
    },
    {
      "inputs": [],
      "name": "refundPeriodEnd",
      "outputs": [
        {
          "internalType": "uint256",
          "name": "",
          "type": "uint256"
        }
      ],
      "stateMutability": "view",
      "type": "function"
    },
    {
      "inputs": [],
      "name": "refundPeriodStart",
      "outputs": [
        {
          "internalType": "uint256",
          "name": "",
          "type": "uint256"
        }
      ],
      "stateMutability": "view",
      "type": "function"
    },
    {
      "inputs": [
        {
          "internalType": "address",
          "name": "_address",
          "type": "address"
        }
      ],
      "name": "removeFromBlacklist",
      "outputs": [],
      "stateMutability": "nonpayable",
      "type": "function"
    },
    {
      "inputs": [
        {
          "internalType": "address",
          "name": "_address",
          "type": "address"
        }
      ],
      "name": "removeFromWhitelist",
      "outputs": [],
      "stateMutability": "nonpayable",
      "type": "function"
    },
    {
      "inputs": [
        {
          "internalType": "address",
          "name": "_tokenAddress",
          "type": "address"
        },
        {
          "internalType": "address",
          "name": "_to",
          "type": "address"
        }
      ],
      "name": "removeOtherERC20Tokens",
      "outputs": [],
      "stateMutability": "nonpayable",
      "type": "function"
    },
    {
      "inputs": [
        {
          "internalType": "bytes32",
          "name": "role",
          "type": "bytes32"
        },
        {
          "internalType": "address",
          "name": "account",
          "type": "address"
        }
      ],
      "name": "renounceRole",
      "outputs": [],
      "stateMutability": "nonpayable",
      "type": "function"
    },
    {
      "inputs": [
        {
          "internalType": "bytes32",
          "name": "role",
          "type": "bytes32"
        },
        {
          "internalType": "address",
          "name": "account",
          "type": "address"
        }
      ],
      "name": "revokeRole",
      "outputs": [],
      "stateMutability": "nonpayable",
      "type": "function"
    },
    {
      "inputs": [],
      "name": "safePullETH",
      "outputs": [],
      "stateMutability": "nonpayable",
      "type": "function"
    },
    {
      "inputs": [],
      "name": "safePullSaleToken",
      "outputs": [],
      "stateMutability": "nonpayable",
      "type": "function"
    },
    {
      "inputs": [],
      "name": "safePullTradeToken",
      "outputs": [],
      "stateMutability": "nonpayable",
      "type": "function"
    },
    {
      "inputs": [
        {
          "internalType": "uint256",
          "name": "_endDate",
          "type": "uint256"
        }
      ],
      "name": "setEndDate",
      "outputs": [],
      "stateMutability": "nonpayable",
      "type": "function"
    },
    {
      "inputs": [
        {
          "internalType": "bool",
          "name": "_hasWhitelisting",
          "type": "bool"
        }
      ],
      "name": "setHasWhitelisting",
      "outputs": [],
      "stateMutability": "nonpayable",
      "type": "function"
    },
    {
      "inputs": [
        {
          "internalType": "uint256",
          "name": "_individualMaximumAmount",
          "type": "uint256"
        }
      ],
      "name": "setIndividualMaximumAmount",
      "outputs": [],
      "stateMutability": "nonpayable",
      "type": "function"
    },
    {
      "inputs": [
        {
          "internalType": "address",
          "name": "_PolsStakeAddress",
          "type": "address"
        }
      ],
      "name": "setPolsStakingAddress",
      "outputs": [],
      "stateMutability": "nonpayable",
      "type": "function"
    },
    {
      "inputs": [
        {
          "internalType": "uint256",
          "name": "_refundPeriodStart",
          "type": "uint256"
        },
        {
          "internalType": "uint256",
          "name": "_refundPeriodEnd",
          "type": "uint256"
        }
      ],
      "name": "setRefundPeriod",
      "outputs": [],
      "stateMutability": "nonpayable",
      "type": "function"
    },
    {
      "inputs": [
        {
          "internalType": "address",
          "name": "_tokenAddress",
          "type": "address"
        }
      ],
      "name": "setSaleTokenAddress",
      "outputs": [],
      "stateMutability": "nonpayable",
      "type": "function"
    },
    {
      "inputs": [
        {
          "internalType": "address",
          "name": "_signerPublicAddress",
          "type": "address"
        }
      ],
      "name": "setSignerPublicAddress",
      "outputs": [],
      "stateMutability": "nonpayable",
      "type": "function"
    },
    {
      "inputs": [
        {
          "internalType": "address",
          "name": "_stakingRewardsAddress",
          "type": "address"
        }
      ],
      "name": "setStakingRewards",
      "outputs": [],
      "stateMutability": "nonpayable",
      "type": "function"
    },
    {
      "inputs": [
        {
          "internalType": "uint256",
          "name": "_startDate",
          "type": "uint256"
        }
      ],
      "name": "setStartDate",
      "outputs": [],
      "stateMutability": "nonpayable",
      "type": "function"
    },
    {
      "inputs": [
        {
          "internalType": "uint256",
          "name": "_tradeValue",
          "type": "uint256"
        }
      ],
      "name": "setTradeValue",
      "outputs": [],
      "stateMutability": "nonpayable",
      "type": "function"
    },
    {
      "inputs": [
        {
          "internalType": "uint256",
          "name": "_tgeAllocation",
          "type": "uint256"
        },
        {
          "internalType": "uint256",
          "name": "_tgeTime",
          "type": "uint256"
        },
        {
          "internalType": "uint256",
          "name": "_vestingStart",
          "type": "uint256"
        },
        {
          "internalType": "uint256",
          "name": "_vestingCliff",
          "type": "uint256"
        },
        {
          "internalType": "uint256",
          "name": "_vestingDuration",
          "type": "uint256"
        },
        {
          "internalType": "uint256[]",
          "name": "_vestingSchedule",
          "type": "uint256[]"
        }
      ],
      "name": "setVesting",
      "outputs": [],
      "stateMutability": "nonpayable",
      "type": "function"
    },
    {
      "inputs": [],
      "name": "signerPublicAddress",
      "outputs": [
        {
          "internalType": "address",
          "name": "",
          "type": "address"
        }
      ],
      "stateMutability": "view",
      "type": "function"
    },
    {
      "inputs": [],
      "name": "stakingRewardsAddress",
      "outputs": [
        {
          "internalType": "address",
          "name": "",
          "type": "address"
        }
      ],
      "stateMutability": "view",
      "type": "function"
    },
    {
      "inputs": [],
      "name": "startDate",
      "outputs": [
        {
          "internalType": "uint256",
          "name": "",
          "type": "uint256"
        }
      ],
      "stateMutability": "view",
      "type": "function"
    },
    {
      "inputs": [
        {
          "internalType": "bytes4",
          "name": "interfaceId",
          "type": "bytes4"
        }
      ],
      "name": "supportsInterface",
      "outputs": [
        {
          "internalType": "bool",
          "name": "",
          "type": "bool"
        }
      ],
      "stateMutability": "view",
      "type": "function"
    },
    {
      "inputs": [
        {
          "internalType": "uint256",
          "name": "_amount",
          "type": "uint256"
        },
        {
          "internalType": "bytes",
          "name": "_signature",
          "type": "bytes"
        }
      ],
      "name": "swap",
      "outputs": [],
      "stateMutability": "payable",
      "type": "function"
    },
    {
      "inputs": [
        {
          "internalType": "uint256",
          "name": "_amount",
          "type": "uint256"
        },
        {
          "internalType": "uint256",
          "name": "_accountMaxAmount",
          "type": "uint256"
        },
        {
          "internalType": "bytes",
          "name": "_signature",
          "type": "bytes"
        }
      ],
      "name": "swapWithSig",
      "outputs": [],
      "stateMutability": "payable",
      "type": "function"
    },
    {
      "inputs": [],
      "name": "tgeAllocation",
      "outputs": [
        {
          "internalType": "uint256",
          "name": "",
          "type": "uint256"
        }
      ],
      "stateMutability": "view",
      "type": "function"
    },
    {
      "inputs": [],
      "name": "tgeTime",
      "outputs": [
        {
          "internalType": "uint256",
          "name": "",
          "type": "uint256"
        }
      ],
      "stateMutability": "view",
      "type": "function"
    },
    {
      "inputs": [],
      "name": "tokensAllocated",
      "outputs": [
        {
          "internalType": "uint256",
          "name": "",
          "type": "uint256"
        }
      ],
      "stateMutability": "view",
      "type": "function"
    },
    {
      "inputs": [],
      "name": "tokensForSale",
      "outputs": [
        {
          "internalType": "uint256",
          "name": "",
          "type": "uint256"
        }
      ],
      "stateMutability": "view",
      "type": "function"
    },
    {
      "inputs": [],
      "name": "tokensLeft",
      "outputs": [
        {
          "internalType": "uint256",
          "name": "",
          "type": "uint256"
        }
      ],
      "stateMutability": "view",
      "type": "function"
    },
    {
      "inputs": [],
      "name": "totalRaiseCost",
      "outputs": [
        {
          "internalType": "uint256",
          "name": "",
          "type": "uint256"
        }
      ],
      "stateMutability": "view",
      "type": "function"
    },
    {
      "inputs": [],
      "name": "tradeValue",
      "outputs": [
        {
          "internalType": "uint256",
          "name": "",
          "type": "uint256"
        }
      ],
      "stateMutability": "view",
      "type": "function"
    },
    {
      "inputs": [
        {
          "internalType": "uint256",
          "name": "purchase_id",
          "type": "uint256"
        },
        {
          "internalType": "bool",
          "name": "stake",
          "type": "bool"
        }
      ],
      "name": "transferTokens",
      "outputs": [],
      "stateMutability": "nonpayable",
      "type": "function"
    },
    {
      "inputs": [],
      "name": "unpause",
      "outputs": [],
      "stateMutability": "nonpayable",
      "type": "function"
    },
    {
      "inputs": [],
      "name": "unsoldTokensRedeemed",
      "outputs": [
        {
          "internalType": "bool",
          "name": "",
          "type": "bool"
        }
      ],
      "stateMutability": "view",
      "type": "function"
    },
    {
      "inputs": [],
      "name": "vestingCliff",
      "outputs": [
        {
          "internalType": "uint256",
          "name": "",
          "type": "uint256"
        }
      ],
      "stateMutability": "view",
      "type": "function"
    },
    {
      "inputs": [],
      "name": "vestingDuration",
      "outputs": [
        {
          "internalType": "uint256",
          "name": "",
          "type": "uint256"
        }
      ],
      "stateMutability": "view",
      "type": "function"
    },
    {
      "inputs": [
        {
          "internalType": "uint256",
          "name": "",
          "type": "uint256"
        }
      ],
      "name": "vestingSchedule",
      "outputs": [
        {
          "internalType": "uint256",
          "name": "",
          "type": "uint256"
        }
      ],
      "stateMutability": "view",
      "type": "function"
    },
    {
      "inputs": [],
      "name": "vestingStart",
      "outputs": [
        {
          "internalType": "uint256",
          "name": "",
          "type": "uint256"
        }
      ],
      "stateMutability": "view",
      "type": "function"
    },
    {
      "inputs": [],
      "name": "vestingTime",
      "outputs": [
        {
          "internalType": "uint256",
          "name": "",
          "type": "uint256"
        }
      ],
      "stateMutability": "view",
      "type": "function"
    },
    {
      "inputs": [],
      "name": "withdrawFunds",
      "outputs": [],
      "stateMutability": "nonpayable",
      "type": "function"
    },
    {
      "inputs": [],
      "name": "withdrawUnsoldTokens",
      "outputs": [],
      "stateMutability": "nonpayable",
      "type": "function"
    }
  ],
  "bytecode": "0x6101203461060257601f61633c38819003918201601f19168301916001600160401b038311848410176106075780849261018094604052833981010312610602576100498161061d565b9060208101519160408201519260608301519060808401519460a08501519460c08101519260e0820151801515036106025761010082015192610120830151986101408401519563ffffffff871694858803610602576101606100ac910161061d565b6000805460ff191681556002805460ff60a01b1916905533815260008051602061631c8339815191526020526040902054909a9060ff16156105a0575b6002805460ff60a01b1916898216151560a01b60ff60a01b16179055600381905533600090815260008051602061631c833981519152602052604090205460ff161561055b578082106105165760048290553360009081526000805160206162fc833981519152602052604090205460ff16156104d6575b884210156104915782600e54101561044c578315610413578084106103ce5711610389578185116103445760638a116102ff5760208410156102ba57601096600e55600f55601255600d556080526001821615156000146102b35750600160c0525b60088116151560e05216151561010052600b80546001600160a01b0319166001600160a01b039283161790551680610299575b5060a052604051615caa908161063282396080518181816118240152614e0c015260a0518181816117040152818161302e01526130db015260c051818181610e5c0152818161230d015281816132c40152818161330e01528181613631015281816143530152818161460a01526149c8015260e0518181816113f20152818161243d01526132870152610100518181816109960152818161324a015261360a0152f35b600c80546001600160a01b031916919091179055386101f6565b82556101c3565b60405162461bcd60e51b815260206004820152601560248201527f756e737570706f7274656420666c6167732073657400000000000000000000006044820152606490fd5b60405162461bcd60e51b815260206004820152601e60248201527f4665652050657263656e746167652068617320746f206265203c2031303000006044820152606490fd5b60405162461bcd60e51b815260206004820152601c60248201527f6d696e696d756d5261697365203e20746f6b656e73466f7253616c65000000006044820152606490fd5b60405162461bcd60e51b815260206004820152601c60248201527f696e646976206d696e20616d6f756e74203e20696e646976206d6178000000006044820152606490fd5b60405162461bcd60e51b815260206004820152601e60248201527f746f6b656e73466f7253616c65203c20696e646976696475616c206d696e00006044820152606490fd5b60405162461bcd60e51b81526020600482015260116024820152706e6f20746f6b656e20666f722073616c6560781b6044820152606490fd5b60405162461bcd60e51b815260206004820152601a60248201527f656e642064617465206265666f726520737461727420646174650000000000006044820152606490fd5b60405162461bcd60e51b815260206004820152601960248201527f7374617274206461746520697320696e207468652070617374000000000000006044820152606490fd5b3360008181526000805160206162fc83398151915260205260408120805460ff1916600117905581906000805160206162dc8339815191528180a4610161565b60405162461bcd60e51b815260206004820152601b60248201527f696e646976696475616c206d6178203c206d696e20616d6f756e7400000000006044820152606490fd5b60405162461bcd60e51b815260206004820152601c60248201527f63616c6c6572206973206e6f742057686974656c6973744f776e6572000000006044820152606490fd5b33600081815260008051602061631c83398151915260205260408120805460ff1916600117905581907fb813b807c25079ba97f1770664c6a9e57c59afe74a6295f1ed01c10e3bb6baae906000805160206162dc8339815191529080a46100e9565b600080fd5b634e487b7160e01b600052604160045260246000fd5b51906001600160a01b03821682036106025756fe608080604052600436101561001357600080fd5b600090813560e01c90816301ffc9a714613f4b57508063034e529014613f2c578063044c0cc514613f0157806304cd529414613ec05780630766234514613e9a57806308abd7ff14613dd157806309b56e0b14613dac5780630b97bc8614613d8e5780630d8e6e2c14613d7157806312aef8c314613d535780631514617e14613d3557806315b5786614613d15578063161a7b2a14613cfa5780631a8081871461356c5780631de18af7146132e957806321d3002a146132ac578063230005d31461326f5780632438a3f61461323257806324600fc314612fbd578063248a9ca314612f8f578063254800d414612f715780632593ea1714612f4e578063278ecde114612e7257806328c32be614612e545780632e15410714612e365780632ebb5c1e14612e165780632f2ff15d14612d545780633070b98d14612b025780633113076a14612a915780633163e3a814612a7357806331d06af314612a4a57806336568abe146129b75780633742a9f7146128e15780633784f000146128095780633af32abf146127ce5780633b6577c8146127945780633bbab179146127105780633f4ba83a1461269c5780634089aa9a1461267b57806344337ea1146125ec57806344691f7e146125cb57806347535d7b146125b0578063537df3b61461252157806356f51a4f146124e957806359730bb5146124cb5780635ac699bb146124835780635c975abb146124615780635f635f9a146122c55780636295a2f4146122a757806369bb4dc21461221e5780636d0280271461219a5780636eaaabd5146121015780636fb83a571461207857806370a898bc1461205857806374fa05fb14612036578063751ef93d1461201c578063755e3e2814611ffe57806376807e5f14611f7d578063785e9e8614611f54578063788bff6814611f2b578063799bb23214611f055780637f7b271214611ee55780638158f2b814611ec757806382d95df514611df35780638307dc9814611dd85780638392fe3114611d4d5780638456cb5914611cd657806388b0fe2b14611c1e5780638a1a5f3f14611c035780638ab1d68114611b745780638e75b13114611b565780639097548d14611b37578063917c854d146119bd578063919bd9301461198357806391d1485414611937578063948384141461191157806395d0a317146118b357806396a32bc4146118475780639728538f1461180c5780639baf1979146117f25780639d90a46e14611727578063a001ecdd146116ec578063a1c09bf1146116ce578063a217fddf146116b2578063a6e158f81461152f578063b31f8f931461150d578063b367940e146114ea578063b86917871461147e578063ba40a96a14611455578063bd0625ab14610e14578063bf135abe14610deb578063c0e6498914610cfc578063c24a0f8b14610cde578063c3ca324f14610cb9578063c7dab43614610c9e578063c8bdbfb614610beb578063c957b76214610bd0578063ca1d209d14610adb578063d10dbdf514610a65578063d547741f14610a1c578063d623786d14610942578063dafc4c2a146108fb578063dbb57ac8146108b4578063dc91b07214610811578063e4101de5146107f3578063e43252d714610764578063e4a8025214610730578063e8b882f414610707578063eb1edd61146106d8578063efbb34d5146106b2578063f2aa82181461066e578063f3640e7414610650578063f64bfaba146105c6578063fce9d11b14610599578063fe575a87146105545763fecf415a1461051d57600080fd5b346105515760203660031901126105515750602061053c600435614290565b5060018060a01b039054163314604051908152f35b80fd5b503461055157602036600319011261055157602061058f6001600160a01b0361057b61406a565b166000526008602052604060002054151590565b6040519015158152f35b50346105515780600319360112610551576105c26105b6336151da565b604051918291826142af565b0390f35b503461055157806003193601126105515760405180916020601c54928381520191601c82527f0e4562a10381dec21b205ed72637e6b1b523bdd0e4d4d50af5cd23dd4500a211915b818110610631576105c2856106258187038261401a565b60405191829182614110565b82546001600160a01b031684526020909301926001928301920161060e565b50346105515780600319360112610551576020601854604051908152f35b50346105515760203660031901126105515760043590601c5482101561055157602061069983614184565b905460405160039290921b1c6001600160a01b03168152f35b503461055157806003193601126105515760206106d0601254614ff9565b604051908152f35b5034610551578060031936011261055157602060405173aeb39b67f27b641ef9f95fb74f1a46b1ee4efc838152f35b50346105515780600319360112610551576020604051600080516020615c7e8339815191528152f35b503461055157602061074a61074436614260565b90614f13565b6002546040516001600160a01b0392831691909216148152f35b50346105515760203660031901126105515761077e61406a565b600080516020615c7e833981519152825260016020908152604080842033600090815292529020546107b29060ff16614576565b6001600160a01b03166107c4816156de565b6107cc575080f35b7fa850ae9193f515cbae8d35e8925bd2be26627fc91bce650b8652ed254e9cab038280a280f35b50346105515780600319360112610551576020600454604051908152f35b503461055157602036600319011261055157600435600080516020615c7e833981519152825260016020526040822060018060a01b03331660005260205261086060ff60406000205416614576565b600354811061086f5760045580f35b60405162461bcd60e51b815260206004820152601b60248201527f696e646976696475616c206d6178203c206d696e20616d6f756e7400000000006044820152606490fd5b5034610551576020366003190112610551576105c26108d4600435615268565b90604094929451948594855260208501526040840152608060608401526080830190613fc3565b50346105515760403660031901126105515780805260016020908152604080832033600090815292529020546109339060ff16614734565b60043560135560243560145580f35b50346105515760203660031901126105515761095c61406a565b81805260016020908152604080842033600090815292529020546109829060ff16614734565b61099461098d614fa2565b4210614780565b7f0000000000000000000000000000000000000000000000000000000000000000156109d85760018060a01b03166001600160601b0360a01b600b541617600b5580f35b606460405162461bcd60e51b815260206004820152602060248201527f746f6b656e2061646472657373206368616e6765206e6f7420616c6c6f7765646044820152fd5b503461055157604036600319011261055157610a62600435610a3c614054565b90610a5d610a5882600052600160205260016040600020015490565b61532c565b6155cb565b80f35b5034610551576020366003190112610551577ffd6fc945a36da5e54e8c65e37d56829b185977f4df3f8244caaae06f42d549c56020600435610aaa600e5442106147cc565b8380526001825260408085203360009081529084522054610acd9060ff16614734565b80600d55604051908152a180f35b50346105515760203660031901126105515760043560018060a01b03600b5416906040516370a0823160e01b8152306004820152602081602481865afa8015610bc55782908590610b8a575b610b3192506145fb565b60125410610b4657610a629130903390615651565b606460405162461bcd60e51b815260206004820152602060248201527f6d6f726520746f6b656e73207468616e206e656564656420666f722073616c656044820152fd5b50506020813d602011610bbd575b81610ba56020938361401a565b81010312610bb85781610b319151610b27565b600080fd5b3d9150610b98565b6040513d86823e3d90fd5b5034610551578060031936011261055157602061058f615250565b50346105515780600319360112610551578080526001602090815260408083203360009081529252902054610c229060ff16614734565b610c30600f54421015614899565b600c5460ff8160a01c16610c9a57601154601054811015610c8957506012545b80610c59578280f35b60ff60a01b19909116600160a01b17600c55600b54610c83919033906001600160a01b03166152ad565b38808280f35b610c959060125461488c565b610c50565b5080fd5b503461055157806003193601126105515760206106d0615239565b5034610551576020366003190112610551576105c26105b6610cd961406a565b6151da565b50346105515780600319360112610551576020600f54604051908152f35b5034610551578060031936011261055157600b546040516370a0823160e01b8152306004820152906001600160a01b0316602082602481845afa918215610de0578392610dac575b5060125480831015610d6757610a6292610d5d9161488c565b9030903390615651565b60405162461bcd60e51b815260206004820152601d60248201527f636f6e747261637420616c72656164792066756c6c792066756e6465640000006044820152606490fd5b9091506020813d602011610dd8575b81610dc86020938361401a565b81010312610bb857519038610d44565b3d9150610dbb565b6040513d85823e3d90fd5b5034610551578060031936011261055157600c546040516001600160a01b039091168152602090f35b5060403660031901126105515760043560243567ffffffffffffffff811161145157610e449036906004016141d3565b91610e4d6152e8565b610e55614df1565b15611416577f0000000000000000000000000000000000000000000000000000000000000000908115938480956113ef575b80156113e1575b1561139c57610e9d9033615091565b92831561136757600c546001600160a01b0316611358573492610ebf82614ff9565b341061131d575b610ed56012546011549061488c565b82116112d85760035482106112935784821161124e57338352601d60205260408320936040518086602082985493848152019087526020872092875b818110611235575050610f269250038661401a565b839684975b8651891015610f5f57610f5760019182610f4e610f488d8c6145c2565b51614290565b500154906145fb565b980197610f2b565b610f6a8589926145fb565b116111f05766010000000000004210156111ab5760405190610f8b82613fe8565b338252602082019065ffffffffffff42168252604083019015815260608301878152608084019087825260a085019286845260c08601948a8652601b54600160401b81101561119757806001610fe49201601b55614290565b97909761118357518754915192516001600160d81b03199092166001600160a01b03919091161760a09290921b65ffffffffffff60a01b169190911790151560d01b60ff60d01b161785556003939291906110549051865460ff60d81b191690151560d81b60ff60d81b16178655565b51600185015551600284015551910155338452601d60205260408420601b5460001981019190821161116f579061108a9161486a565b601c54600160401b81101561115b578060016110a99201601c55614184565b81549060031b9033821b9160018060a01b03901b19161790556110ce836011546145fb565b601155600c546001600160a01b031661113b575b5061111d575b6040519081524260208201527fbec109f7ee137de661c6887caa96653c0545050a9908a3b6eb5190440bbec86460403392a280f35b600b5461113690829033906001600160a01b03166152ad565b6110e8565b600c546111559190309033906001600160a01b0316615651565b836110e2565b634e487b7160e01b85526041600452602485fd5b634e487b7160e01b86526011600452602486fd5b634e487b7160e01b8c5260048c905260248cfd5b634e487b7160e01b8c52604160045260248cfd5b60405162461bcd60e51b815260206004820152601c60248201527f76616c756520646f65736e27742066697420696e2034382062697473000000006044820152606490fd5b60405162461bcd60e51b815260206004820152601f60248201527f616d6f756e7420676f6573206f76657220696e646976696475616c206d6178006044820152606490fd5b845483526001948501948a945060209093019201610f11565b60405162461bcd60e51b815260206004820152601760248201527f616d6f756e74203e206d6178696d756d20616d6f756e740000000000000000006044820152606490fd5b60405162461bcd60e51b815260206004820152601760248201527f616d6f756e74203c206d696e696d756d20616d6f756e740000000000000000006044820152606490fd5b60405162461bcd60e51b815260206004820152601960248201527f616d6f756e74203e20746f6b656e7320617661696c61626c65000000000000006044820152606490fd5b60405162461bcd60e51b81526020600482015260136024820152721b9bdd08195b9bdd59da08115512081cd95b9d606a1b6044820152606490fd5b61136181614ff9565b92610ec6565b60405162461bcd60e51b815260206004820152600d60248201526c37379030b63637b1b0ba34b7b760991b6044820152606490fd5b60405162461bcd60e51b815260206004820152601c60248201527f66756e64696e6720726571756972656d656e7473206e6f74206d6574000000006044820152606490fd5b506113ea614608565b610e8e565b507f0000000000000000000000000000000000000000000000000000000000000000610e87565b60405162461bcd60e51b815260206004820152601360248201527239b0b632903430b9903a379031329037b832b760691b6044820152606490fd5b8280fd5b50346105515780600319360112610551576002546040516001600160a01b039091168152602090f35b50346105515760203660031901126105515761149861406a565b600080516020615c7e833981519152825260016020908152604080842033600090815292529020546114cc9060ff16614576565b60018060a01b03166001600160601b0360a01b600254161760025580f35b503461055157806003193601126105515760206011546010541115604051908152f35b503461055157806003193601126105515760206106d06012546011549061488c565b50346105515760203660031901126105515760043561154d81614290565b50546001600160a01b031633036116765761157461156a826149bc565b8192911515614905565b600161157f83614290565b50015491600361158e82614290565b5001548361159c84836145fb565b116115ff576115c96115c38483610a62976115b9836003976145fb565b146115df576145fb565b92614290565b500155600b5433906001600160a01b03166152ad565b6115e886614290565b50805460ff60d01b1916600160d01b1790556145fb565b60a460405162461bcd60e51b815260206004820152604460248201527f494e5445524e414c204552524f52203a20616d6f756e7452656465656d65642060448201527f776f756c64206265206c6172676572207468656e20707572636861736520616d6064820152631bdd5b9d60e21b6084820152fd5b60405162461bcd60e51b815260206004820152601460248201527320b2323932b9b99034b9903737ba10313abcb2b960611b6044820152606490fd5b5034610551578060031936011261055157602090604051908152f35b50346105515780600319360112610551576020601b54604051908152f35b503461055157806003193601126105515760206040517f00000000000000000000000000000000000000000000000000000000000000008152f35b50346105515761173636614080565b90600080516020615c7e833981519152815260016020526040812060018060a01b03331660005260205261177160ff60406000205416614576565b80815b83518110156117ba576117996001600160a01b0361179283876145c2565b5116615733565b6117a6575b600101611774565b906117b26001916145d6565b91905061179e565b50806117c4575080f35b60207fc2f03ca34d335e49d4d629b85db054d1ffb679b4fec2e06fe10d0e618b175ecb91604051908152a180f35b50346105515760206106d06118063661421a565b91615130565b503461055157806003193601126105515760206040517f00000000000000000000000000000000000000000000000000000000000000008152f35b5034610551578060031936011261055157808052600160209081526040808320336000908152925290205461187e9060ff16614734565b611886615695565b80808080478181156118aa575b3390f11561189e5780f35b604051903d90823e3d90fd5b506108fc611893565b5034610551576020366003190112610551576118cd61406a565b81805260016020908152604080842033600090815292529020546118f39060ff16614734565b60018060a01b03166001600160601b0360a01b600a541617600a5580f35b5034610551578060031936011261055157602060ff600c5460a01c166040519015158152f35b5034610551576040366003190112610551576040611953614054565b9160043581526001602052209060018060a01b0316600052602052602060ff604060002054166040519015158152f35b50346105515760203660031901126105515760043590601a548210156105515760206119ae83614153565b90549060031b1c604051908152f35b5034610551576040366003190112610551576119d761406a565b6119df614054565b9082805260016020526040832060018060a01b033316600052602052611a0c60ff60406000205416614734565b611a1a600f54421015614899565b600b546001600160a01b0391821691168114611af257600c546001600160a01b03168114611aad576040516370a0823160e01b815230600482015291602083602481855afa918215610bc5578492611a77575b610a6293506152ad565b91506020833d602011611aa5575b81611a926020938361401a565b81010312610bb857610a62925191611a6d565b3d9150611a85565b60405162461bcd60e51b815260206004820152601b60248201527f746f6b656e206973207468652074726164652d696e20746f6b656e00000000006044820152606490fd5b60405162461bcd60e51b815260206004820152601b60248201527f746f6b656e2069732074686520746f6b656e20666f722073616c6500000000006044820152606490fd5b50346105515760203660031901126105515760206106d0600435614ff9565b50346105515780600319360112610551576020601054604051908152f35b503461055157602036600319011261055157611b8e61406a565b600080516020615c7e83398151915282526001602090815260408084203360009081529252902054611bc29060ff16614576565b6001600160a01b0316611bd481615975565b611bdc575080f35b7fcdd2e9b91a56913d370075169cefa1602ba36be5301664f752192bb1709df7578280a280f35b503461055157806003193601126105515760206106d0614fbe565b50346105515780600319360112610551578080526001602090815260408083203360009081529252902054611c559060ff16614734565b611c5d615695565b600b546040516370a0823160e01b8152306004820152906001600160a01b0316602082602481845afa908115610de0578391611ca0575b610a62925033906152ad565b90506020823d602011611cce575b81611cbb6020938361401a565b81010312610bb857610a62915190611c94565b3d9150611cae565b50346105515780600319360112610551578080526001602090815260408083203360009081529252902054611d0d9060ff16614734565b611d156152e8565b600160ff198254161781557f62e78cea01bee320cd4e420270b5ea74000d11b0c9f74754ebdbfc544b05a2586020604051338152a180f35b50346105515760203660031901126105515760043590601b548210156105515760e0611d7883614290565b50805490600181015490600360028201549101549160ff6040519460018060a01b038116865265ffffffffffff8160a01c166020870152818160d01c161515604087015260d81c1615156060850152608084015260a083015260c0820152f35b503461055157806003193601126105515760206106d0614fa2565b503461055157602036600319011261055157600435611e15600e5442106147cc565b8180526001602090815260408084203360009081529252902054611e3b9060ff16614734565b80421015611e825760207ff18a09eaf82fdb00baab509d15db4abfd6aba1bf424d6bbc88295fa0f8a400d791611e74600f548210614935565b80600e55604051908152a180f35b60405162461bcd60e51b815260206004820152601c60248201527f73746172742064617465206e6f7420696e2074686520667574757265000000006044820152606490fd5b50346105515780600319360112610551576020601554604051908152f35b5034610551578060031936011261055157602060405164e8d4a510008152f35b5034610551576020611f1961074436614260565b6040516001600160a01b039091168152f35b50346105515780600319360112610551576009546040516001600160a01b039091168152602090f35b5034610551578060031936011261055157600b546040516001600160a01b039091168152602090f35b50346105515780600319360112610551578080526001602090815260408083203360009081529252902054611fb49060ff16614734565b611fbc615695565b600c546040516370a0823160e01b8152306004820152906001600160a01b0316602082602481845afa908115610de0578391611ca057610a62925033906152ad565b50346105515780600319360112610551576020601154604051908152f35b503461055157602061058f6120303661421a565b91614ebc565b5034610551578060031936011261055157602060115460105411604051908152f35b503461055157806003193601126105515760206003541515604051908152f35b5034610551576020366003190112610551577ff62d9d6092e49a0a9a72b4e4f020f4173b0f35e505c41e59b60aeed83860296560206120b561406a565b83805260018252604080852033600090815290845220546120d89060ff16614734565b600980546001600160a01b0319166001600160a01b03929092169182179055604051908152a180f35b503461055157602036600319011261055157600435801515809103610c9a57600080516020615c7e833981519152825260016020908152604080842033600090815290835220547fe905f7f52156c346547b9deb6fb3e2459db941ec55d073fd465129bf4b49fae692906121779060ff16614576565b6002805460ff60a01b191660a083901b60ff60a01b16179055604051908152a180f35b50346105515780600319360112610551576005546121b78161403c565b916121c5604051938461401a565b818352601f196121d48361403c565b013660208501375b8181106121f157604051806105c28582614110565b806121ff600192600561419f565b838060a01b0391549060031b1c1661221782866145c2565b52016121dc565b5034610551578060031936011261055157600b546040516370a0823160e01b81523060048201529190602090839060249082906001600160a01b03165afa90811561189e5790612274575b602090604051908152f35b506020813d60201161229f575b8161228e6020938361401a565b81010312610bb85760209051612269565b3d9150612281565b50346105515780600319360112610551576020600d54604051908152f35b5060603660031901126105515760043560443567ffffffffffffffff8111611451576122f59036906004016141d3565b916122fe6152e8565b612306614df1565b15611416577f00000000000000000000000000000000000000000000000000000000000000009081159384809561243a575b801561242c575b1561139c576123519060243533615130565b92831561136757600c546001600160a01b031661241d57349261237382614ff9565b341061131d575b6123896012546011549061488c565b82116112d85760035482106112935784821161124e57338352601d60205260408320936040518086602082985493848152019087526020872092875b8181106124045750506123da9250038661401a565b839684975b8651891015610f5f576123fc60019182610f4e610f488d8c6145c2565b9801976123df565b845483526001948501948a9450602090930192016123c5565b61242681614ff9565b9261237a565b50612435614608565b61233f565b507f0000000000000000000000000000000000000000000000000000000000000000612338565b503461055157806003193601126105515760ff60209154166040519015158152f35b50346105515760403660031901126105515761249d61406a565b6001600160a01b03168152601d60205260408120805460243592908310156105515760206119ae848461419f565b50346105515780600319360112610551576020601454604051908152f35b5034610551578060031936011261055157612502614e08565b906105c260405192839215158352604060208401526040830190613fc3565b50346105515760203660031901126105515761253b61406a565b600080516020615c7e8339815191528252600160209081526040808420336000908152925290205461256f9060ff16614576565b6001600160a01b0316612581816158a4565b612589575080f35b7f2b6bf71b58b3583add364b3d9060ebf8019650f65f5be35f5464b9cb3e4ba2d48280a280f35b5034610551578060031936011261055157602061058f614df1565b50346105515780600319360112610551576020600e54421015604051908152f35b50346105515760203660031901126105515761260661406a565b600080516020615c7e8339815191528252600160209081526040808420336000908152925290205461263a9060ff16614576565b6001600160a01b031661264c81615733565b612654575080f35b7ff9b68063b051b82957fa193585681240904fed808db8b30fc5a2d2202c6ed6278280a280f35b50346105515780600319360112610551576020600f54421015604051908152f35b503461055157806003193601126105515780805260016020908152604080832033600090815292529020546126d39060ff16614734565b6126db615695565b60ff1981541681557f5db9ee0a495bf2e6ff9c91a7834c1ba4fdd244a5e8aa4e537bd38aeae4b073aa6020604051338152a180f35b503461055157806003193601126105515760075461272d8161403c565b9161273b604051938461401a565b818352601f1961274a8361403c565b013660208501375b81811061276757604051806105c28582614110565b80612775600192600761419f565b838060a01b0391549060031b1c1661278d82866145c2565b5201612752565b5034610551576020366003190112610551576127b16004356149bc565b906105c26040519283928352604060208401526040830190613fc3565b503461055157602036600319011261055157602061058f6001600160a01b036127f561406a565b166000526006602052604060002054151590565b50346105515760203660031901126105515760043561285c81600e546128308142106147cc565b84805260016020908152604080872033600090815292529020546128569060ff16614734565b10614935565b612864614fa2565b811161289c576020817fa8a30fc464c735231b45b2154d25ba95fbc6860f3b226667372cfc3977f2124b92600f55604051908152a180f35b60405162461bcd60e51b815260206004820152601f60248201527f656e6420646174652061667465722076657374696e67537461727454696d65006044820152606490fd5b503461055157602036600319011261055157600435601b548110156129725761291461290e60e092614290565b506142e9565b60808101519060018060a01b038151169060a081015165ffffffffffff602083015116604083015115159160c06060850151151594015194604051968752602087015260408601526060850152608084015260a083015260c0820152f35b60405162461bcd60e51b815260206004820152601a60248201527f70757263686173655f696420646f6573206e6f742065786973740000000000006044820152606490fd5b5034610551576040366003190112610551576129d1614054565b336001600160a01b038216036129ed57610a62906004356155cb565b60405162461bcd60e51b815260206004820152602f60248201527f416363657373436f6e74726f6c3a2063616e206f6e6c792072656e6f756e636560448201526e103937b632b9903337b91039b2b63360891b6064820152608490fd5b5034610551578060031936011261055157600a546040516001600160a01b039091168152602090f35b50346105515780600319360112610551576020601654604051908152f35b50346105515780600319360112610551576017549060195490601a54908115600014612ad1575050602091612acb6106d092600190614818565b906145fb565b60018201809211612aee575091612acb6106d09260209490614818565b634e487b7160e01b81526011600452602490fd5b50346105515760403660031901126105515760043560243580159081150361145157612b2d82614290565b50546001600160a01b031633036116765781612b4b612b55936149bc565b8194911515614905565b6001612b6082614290565b5001546003612b6e83614290565b5001549080612b7d86846145fb565b116115ff576115c38583612b97936115b9836003976145fb565b50015515612bb757600b54610a62919033906001600160a01b03166152ad565b6009546001600160a01b0316908115612d0557600b54604051636eb1769f60e11b815230600482015260248101849052849390916001600160a01b0316602083604481845afa8015612cfa5784938691612cbd575b50612c1d612c5b94612c56926145fb565b60405163095ea7b360e01b60208201526001600160a01b039094166024850152604484015282606481015b03601f19810184528361401a565b615788565b6009546001600160a01b031690813b15612cb9578291604483926040519586938492638b1e31c760e01b845260048401523360248401525af18015612cac57612ca357505080f35b610a629161401a565b50604051903d90823e3d90fd5b5050fd5b9350506020833d602011612cf2575b81612cd96020938361401a565b81010312612cee579151839290612c1d612c0c565b8480fd5b3d9150612ccc565b6040513d87823e3d90fd5b60405162461bcd60e51b815260206004820152602160248201527f4e6f2049444f207374616b696e6720636f6e747261637420617661696c61626c6044820152606560f81b6064820152608490fd5b503461055157604036600319011261055157600435612d71614054565b90612d8d610a5882600052600160205260016040600020015490565b8083526001602090815260408085206001600160a01b038516865290915283205460ff1615612dba578280f35b8083526001602081815260408086206001600160a01b0395909516808752949091528420805460ff191690911790553391907f2f8788117e7eff1d82e926ec794901d17c78024a50270940304540a733656f0d8480a438808280f35b50346105515780600319360112610551576020600e544210604051908152f35b50346105515780600319360112610551576020600354604051908152f35b50346105515780600319360112610551576020601354604051908152f35b50346105515760203660031901126105515780600435612e918161434f565b612ea18395929315918215614905565b612eaa84614290565b50805461ffff60d01b191661010160d01b1781556001810154600390910155600c546001600160a01b0316612f2e57848291612f24575b8280929181923390f115610de0575b60405192835260208301527f275893a421a5df15c4da79585c78852a6bbf95b9064470c3d6a5636240274b8760403393a380f35b6108fc9150612ee1565b5050600c54612f4990849033906001600160a01b03166152ad565b612ef0565b5034610551576020366003190112610551576020601b5460043510604051908152f35b50346105515780600319360112610551576020601754604051908152f35b50346105515760203660031901126105515760206106d0600435600052600160205260016040600020015490565b5034610551578060031936011261055157808052600160209081526040808320338452909152812054612ff29060ff16614734565b612ffa6152e8565b613008600f54421015614899565b601154601054116131f157600c546001600160a01b0316613098578080808060646130537f000000000000000000000000000000000000000000000000000000000000000047614818565b0481811561308f575b73aeb39b67f27b641ef9f95fb74f1a46b1ee4efc8390f11561189e5780808080478181156118aa573390f11561189e5780f35b506108fc61305c565b600c546040516370a0823160e01b8152306004820152906001600160a01b0316602082602481845afa918215610de05783926131bc575b506064613100613144937f000000000000000000000000000000000000000000000000000000000000000090614818565b60405163a9059cbb60e01b602082015273aeb39b67f27b641ef9f95fb74f1a46b1ee4efc836024820152919004604480830191909152815290612c5660648361401a565b600c546040516370a0823160e01b8152306004820152906001600160a01b0316602082602481845afa908115610de057839161318657610a62925033906152ad565b90506020823d6020116131b4575b816131a16020938361401a565b8101031261145157610a62915190611c94565b3d9150613194565b91506020823d6020116131e9575b816131d76020938361401a565b810103126114515790519060646130cf565b3d91506131ca565b60405162461bcd60e51b81526020600482015260196024820152781b5a5b9a5b5d5b481c985a5cd9481b9bdd081c995858da1959603a1b6044820152606490fd5b503461055157806003193601126105515760206040517f000000000000000000000000000000000000000000000000000000000000000015158152f35b503461055157806003193601126105515760206040517f000000000000000000000000000000000000000000000000000000000000000015158152f35b503461055157806003193601126105515760206040517f000000000000000000000000000000000000000000000000000000000000000015158152f35b50346105515760203660031901126105515760043561330c600f54421015614899565b7f00000000000000000000000000000000000000000000000000000000000000006135275761333a81614290565b50546001600160a01b031633036134eb5760105480156134a65760115410156134615761336690614290565b5060018101541561341c5780549060ff8260d01c166133df5761ffff60d01b1990911661010160d01b178155600c548291906001600160a01b03166133bf5781806002819301548181156118aa573390f11561189e5780f35b600c5460029190910154610a6292509033906001600160a01b03166152ad565b60405162461bcd60e51b81526020600482015260156024820152741c1d5c98da185cd9481a5cc8199a5b985b1a5e9959605a1b6044820152606490fd5b60405162461bcd60e51b815260206004820152601760248201527f707572636861736520616d6f756e74206973207a65726f0000000000000000006044820152606490fd5b60405162461bcd60e51b815260206004820152601e60248201527f6d696e696d756d20726169736520686173206265656e207265616368656400006044820152606490fd5b60405162461bcd60e51b815260206004820152601d60248201527f6e6f206d696e696d756d20726169736520686173206265656e207365740000006044820152606490fd5b60405162461bcd60e51b815260206004820152601460248201527330b2323932b9b99034b9903737ba10313abcb2b960611b6044820152606490fd5b60405162461bcd60e51b815260206004820152601e60248201527f73616c652068617320746f206265206e6f6e2041746f6d6963207377617000006044820152606490fd5b50346105515760c03660031901126105515760243560043560a43560443560843560643567ffffffffffffffff8411613cf65736602385011215613cf65783600401359267ffffffffffffffff8411613cf25760248501968460051b953660248883010111613cee57898052600160209081526040808c20338d529091528a20546135f99060ff16614734565b613601614fa2565b80613cdd575b507f000000000000000000000000000000000000000000000000000000000000000015613ccb575b7f0000000000000000000000000000000000000000000000000000000000000000613c8657655af3107a40008811613c4a578715801590613c0c5786613bc757600f54808410613b82576307861f808101809111613b6e578311613b35575b60158990558215613af25750600f548210613aad576136ad84846145fb565b8211613a68575b816016556136c284846145fb565b600f54809110613a23578585116139de5786159081156139c7576136f16136eb60015b89614818565b866145fb565b6307861f8082018092116139b3571161396e57836017558460185585601955601a548b601a558061390e575b506001871015613795575b5050604051968752602087015260408601526060850152608084015260c060a08401528060c084015260018060fb1b031061379157818160e0927f507910142e585ee6be1b7c9f72cbf219e8cb55016324498741bfa51f1c30eace95848401378101030190a180f35b8380fd5b8593919997959a989694929a156138ac57613898578635655af3107a4000811015613853576137c39061482b565b60015b84811015613844576000198101818111613830576137e66137fd91614153565b90549060031b1c60248360051b8d010135906145fb565b655af3107a400081101561381d579061381760019261482b565b016137c6565b50509193959750919395975b3880613728565b634e487b7160e01b8a52601160045260248afd5b50919395975091939597613829565b60405162461bcd60e51b815260206004820152601c60248201527f66697273742076657374696e6720706572696f64203e3d2031303025000000006044820152606490fd5b634e487b7160e01b88526032600452602488fd5b60405162461bcd60e51b815260206004820152603460248201527f76657374696e6720696e74657276616c6c732070726f76696465642c2062757460448201527302076657374696e674475726174696f6e203d20360641b6064820152608490fd5b601a8c527f057c384a7d1c54f3a1b2e5e67b2617b8224fdfd1ea7234eea573a6ff665ff63e017f057c384a7d1c54f3a1b2e5e67b2617b8224fdfd1ea7234eea573a6ff665ff63e5b818110613963575061371d565b8c8155600101613956565b60405162461bcd60e51b815260206004820152601960248201527f76657374696e6720656e642074696d6520746f6f206c617465000000000000006044820152606490fd5b634e487b7160e01b8d52601160045260248dfd5b600188018089116139b3576136eb6136f1916136e5565b60405162461bcd60e51b815260206004820152601e60248201527f76657374696e67436c696666203e2076657374696e674475726174696f6e00006044820152606490fd5b60405162461bcd60e51b815260206004820152601760248201527f76657374696e67206265666f72652073616c6520656e640000000000000000006044820152606490fd5b60405162461bcd60e51b815260206004820152601860248201527f74676554696d65206166746572207665737420636c69666600000000000000006044820152606490fd5b60405162461bcd60e51b815260206004820152601b60248201527f74676554696d65206265666f72652073616c6520656e644461746500000000006044820152606490fd5b156136b45760405162461bcd60e51b81526020600482015260166024820152750746765416c6c6f636174696f6e206973206e6f7420360541b6044820152606490fd5b60405162461bcd60e51b81526020600482015260116024820152707467652074696d6520746f6f206c61746560781b6044820152606490fd5b634e487b7160e01b8c52601160045260248cfd5b60405162461bcd60e51b815260206004820152601760248201527f74676554696d65206265666f72652073616c6520656e640000000000000000006044820152606490fd5b60405162461bcd60e51b815260206004820152601f60248201527f4e6f20544745207665737420666f7220706572696f646963616c2076657374006044820152606490fd5b821561368e5760405162461bcd60e51b815260206004820152601060248201526f074676554696d65206973206e6f7420360841b6044820152606490fd5b60405162461bcd60e51b8152602060048201526014602482015273746765416c6c6f636174696f6e203e203130302560601b6044820152606490fd5b60405162461bcd60e51b815260206004820152601a60248201527f6e6f2076657374696e6720666f722061746f6d696320737761700000000000006044820152606490fd5b613cd8600e5442106147cc565b61362f565b613ce8904210614780565b38613607565b8980fd5b8780fd5b8680fd5b5034610551578060031936011261055157602061058f614608565b503461055157806003193601126105515760206010541515604051908152f35b50346105515780600319360112610551576020601954604051908152f35b50346105515780600319360112610551576020601254604051908152f35b503461055157806003193601126105515760206040516177ed8152f35b50346105515780600319360112610551576020600e54604051908152f35b50346105515780600319360112610551576020613dc7614fa2565b4210604051908152f35b503461055157613de036614080565b90600080516020615c7e833981519152815260016020526040812060018060a01b0333168252602052613e1960ff604083205416614576565b80815b8351811015613e6257613e416001600160a01b03613e3a83876145c2565b51166156de565b613e4e575b600101613e1c565b90613e5a6001916145d6565b919050613e46565b5080613e6c575080f35b60207f448f3bd350ede14a294c062177c5280fe1eae125d16757da21f5f51d6e89daae91604051908152a180f35b5034610551578060031936011261055157602060ff60025460a01c166040519015158152f35b5034610551576020366003190112610551576105c2613ee060043561434f565b60409391935193849384526020840152606060408401526060830190613fc3565b503461055157806003193601126105515750600c546040516001600160a01b03909116158152602090f35b503461055157806003193601126105515760206040516307861f808152f35b905034610c9a576020366003190112610c9a5760043563ffffffff60e01b81168091036114515760209250637965db0b60e01b8114908115613f8f575b5015158152f35b6301ffc9a760e01b14905038613f88565b60005b838110613fb35750506000910152565b8181015183820152602001613fa3565b90602091613fdc81518092818552858086019101613fa0565b601f01601f1916010190565b60e0810190811067ffffffffffffffff82111761400457604052565b634e487b7160e01b600052604160045260246000fd5b90601f8019910116810190811067ffffffffffffffff82111761400457604052565b67ffffffffffffffff81116140045760051b60200190565b602435906001600160a01b0382168203610bb857565b600435906001600160a01b0382168203610bb857565b6020600319820112610bb8576004359067ffffffffffffffff8211610bb85780602383011215610bb8578160040135906140b98261403c565b926140c7604051948561401a565b8284526024602085019360051b820101918211610bb857602401915b8183106140f05750505090565b82356001600160a01b0381168103610bb8578152602092830192016140e3565b602060408183019282815284518094520192019060005b8181106141345750505090565b82516001600160a01b0316845260209384019390920191600101614127565b601a5481101561416e57601a60005260206000200190600090565b634e487b7160e01b600052603260045260246000fd5b601c5481101561416e57601c60005260206000200190600090565b805482101561416e5760005260206000200190600090565b67ffffffffffffffff811161400457601f01601f191660200190565b81601f82011215610bb8578035906141ea826141b7565b926141f8604051948561401a565b82845260208383010111610bb857816000926020809301838601378301015290565b6060600319820112610bb8576004356001600160a01b0381168103610bb85791602435916044359067ffffffffffffffff8211610bb85761425d916004016141d3565b90565b906040600319830112610bb857600435916024359067ffffffffffffffff8211610bb85761425d916004016141d3565b601b5481101561416e57601b60005260206000209060021b0190600090565b602060408183019282815284518094520192019060005b8181106142d35750505090565b82518452602093840193909201916001016142c6565b906040516142f681613fe8565b60c06003829460ff815460018060a01b038116865265ffffffffffff8160a01c166020870152818160d01c161515604087015260d81c161515606085015260018101546080850152600281015460a08501520154910152565b60607f000000000000000000000000000000000000000000000000000000000000000061452a575061437f615250565b156144f157601b548110156144af5761439781614290565b50546001600160a01b0316330361446d5761290e6143b491614290565b90604082015161442a5760c08201516143e757608060a0830151920151906040516143e060208261401a565b6000815290565b90506000906000906040516143fd60408261401a565b601b81527f4e6f20726566756e6420696620746f6b656e7320636c61696d65640000000000602082015290565b905060009060009060405161444060408261401a565b601a81527f507572636861736520616c72656164792066696e616c697a6564000000000000602082015290565b5060009060009060405161448260408261401a565b601e81527f4e6f7420746865206275796572206f6620746869732070757263686173650000602082015290565b506000906000906040516144c460408261401a565b601781527f507572636861736520646f6573206e6f74206578697374000000000000000000602082015290565b5060009060009060405161450660408261401a565b6014815273139bdd081a5b881c99599d5b99081c195c9a5bd960621b602082015290565b905060009160009161453f604051918261401a565b602181527f41746f6d6963207377617020646f6573206e6f7420616c6c6f7720726566756e6020820152601960fa1b604082015290565b1561457d57565b60405162461bcd60e51b815260206004820152601c60248201527f63616c6c6572206973206e6f742057686974656c6973744f776e6572000000006044820152606490fd5b805182101561416e5760209160051b010190565b60001981146145e55760010190565b634e487b7160e01b600052601160045260246000fd5b919082018092116145e557565b7f0000000000000000000000000000000000000000000000000000000000000000156146be57600b546040516370a0823160e01b815230600482015290602090829060249082906001600160a01b03165afa80156146b25760009061467e575b6146769150601154906145fb565b601254111590565b506020813d6020116146aa575b816146986020938361401a565b81010312610bb8576146769051614668565b3d915061468b565b6040513d6000823e3d90fd5b600b546040516370a0823160e01b815230600482015290602090829060249082906001600160a01b03165afa9081156146b257600091614702575b50601254111590565b90506020813d60201161472c575b8161471d6020938361401a565b81010312610bb85751386146f9565b3d9150614710565b1561473b57565b60405162461bcd60e51b815260206004820152601960248201527f63616c6c657220686173206e6f742061646d696e20726f6c65000000000000006044820152606490fd5b1561478757565b60405162461bcd60e51b815260206004820152601760248201527f76657374696e6720616c726561647920737461727465640000000000000000006044820152606490fd5b156147d357565b60405162461bcd60e51b815260206004820152601a60248201527f746f6b656e2073616c6520616c726561647920737461727465640000000000006044820152606490fd5b818102929181159184041417156145e557565b601a54600160401b8110156140045761484f8160016148669301601a55601a61419f565b819391549060031b91821b91600019901b19161790565b9055565b805490600160401b821015614004578161484f9160016148669401815561419f565b919082039182116145e557565b156148a057565b60405162461bcd60e51b815260206004820152601860248201527f73616c652068617320746f2062652066696e616c697a656400000000000000006044820152606490fd5b81156148ef570490565b634e487b7160e01b600052601260045260246000fd5b1561490d5750565b60405162461bcd60e51b815260206004820152908190614931906024830190613fc3565b0390fd5b1561493c57565b60405162461bcd60e51b815260206004820152601a60248201527f656e642064617465206265666f726520737461727420646174650000000000006044820152606490fd5b6040519061499060408361401a565b601a82527f70757263686173655f696420646f6573206e6f742065786973740000000000006020830152565b601b54811015614de5577f0000000000000000000000000000000000000000000000000000000000000000614da657600f544210614d675760ff60005416614d285760115460105411614ced576003614a226001614a1984614290565b50015492614290565b50015481811015614cad576000601a548015600014614c08575060175460195442614a4d82846145fb565b11614b8957505050815b828211614b2a578211614ad457614a6d9161488c565b9060008215614aa45750604051614a8560408261401a565b600f81526e726561647920746f2072656465656d60881b602082015290565b50604051614ab360408261401a565b60118152706e6f7468696e6720746f2072656465656d60781b602082015290565b5050600090604051614ae760608261401a565b602d81527f494e5445524e414c204552524f52203a2076657374416d6f756e74203e20707560208201526c1c98da185cd957d85b5bdd5b9d609a1b604082015290565b505050600090604051614b3e60608261401a565b603581527f494e5445524e414c204552524f52203a2070757263686173655f616d6f756e7460208201527414995919595b5959080f881d995cdd105b5bdd5b9d605a1b604082015290565b601694929454421015614b9e575b5050614a57565b909350655af3107a4000614bb460155484614818565b0490819442614bc5601854836145fb565b1115614bd2575b50614b97565b83955090614bfa612acb92614bf4614bed86614bff9861488c565b914261488c565b90614818565b6148e5565b91388080614bcc565b90601754614c18601854826145fb565b4210614c6c57614c2b614c34914261488c565b601954906148e5565b918210614c4357505081614a57565b614c63614c56655af3107a400093614153565b90549060031b1c85614818565b90500491614a57565b509392505050604051614c8060408261401a565b601d81527f76657374696e6720636c696666206e6f74207965742072656163686564000000602082015290565b5050600090604051614cc060408261401a565b601a81527f616c6c20746f6b656e20616c72656164792072656465656d6564000000000000602082015290565b50600090604051614cff60408261401a565b60198152781b5a5b9a5b5d5b481c985a5cd9481b9bdd081c995858da1959603a1b602082015290565b50600090604051614d3a60408261401a565b601d81527f746f6b656e2073616c6520636f6e747261637420697320706175736564000000602082015290565b50600090604051614d7960408261401a565b601881527f746f6b656e2073616c65206e6f742066696e616c697a65640000000000000000602082015290565b50600090604051614db860408261401a565b601981527f68617320746f206265206e6f6e2041746f6d6963207377617000000000000000602082015290565b5060009061425d614981565b600e5442101580614dff5790565b50600f54421090565b60087f000000000000000000000000000000000000000000000000000000000000000016614e41576000906040516143e060208261401a565b600190604051614e5260808261401a565b604e81527f5761726e696e673a2053616c652063616e20737461727420776974686f75742060208201527f66756c6c20746f6b656e2066756e64696e672e20496e6372656173656420726960408201526d39b5903337b910313abcb2b9399760911b606082015290565b614eff92916040519060208201926001600160601b03199060601b16835260348201523060601b605482015260488152614ef760688261401a565b519020614f13565b6002546001600160a01b0391821691161490565b6041825103614f5d5761425d91614f55917f19457468657265756d205369676e6564204d6573736167653a0a333200000000600052601c52603c600020615a29565b919091615a5d565b60405162461bcd60e51b815260206004820152601960248201527f7369676e6174757265206973206e6f74203635206279746573000000000000006044820152606490fd5b6016548015614fae5790565b5061425d601754601854906145fb565b601754804210614ff3576019548015614fec57614bfa614fde924261488c565b600181018091116145e55790565b5050600190565b50600090565b600d5461500591614818565b600b5460405163313ce56760e01b815290602090829060049082906001600160a01b03165afa9081156146b257600091615054575b5060ff1690604d82116145e55761425d91600a0a906148e5565b6020813d602011615089575b8161506d6020938361401a565b81010312610c9a57519060ff82168203610551575060ff61503a565b3d9150615060565b6001600160a01b038116600081815260086020526040902054919291615128576002549060ff8260a01c161590811561510a575b50615101576001600160a01b0316151591826150ed575b50506150e757600090565b60045490565b6150fa9250600090614ebc565b38806150dc565b50505060045490565b61512291506000526006602052604060002054151590565b386150c5565b505050600090565b6001600160a01b038116600081815260086020526040902054929391926151d1576002549060ff8260a01c16159081156151b3575b506151a9576001600160a01b0316151591839083615197575b50505061518b5750600090565b8061425d575060045490565b6151a19350614ebc565b38828161517e565b5050505060045490565b6151cb91506000526006602052604060002054151590565b38615165565b50505050600090565b60018060a01b0316600052601d60205260406000206040518082602082945493848152019060005260206000209260005b81811061522057505061425d9250038261401a565b845483526001948501948694506020909301920161520b565b601a548015614ff357600181018091116145e55790565b6013544210158061525e5790565b5060145442111590565b601b548110615283575060009060009060009061425d614981565b600161528e82614290565b500154916152a960036152a084614290565b500154926149bc565b9091565b60405163a9059cbb60e01b60208201526001600160a01b03909216602483015260448201929092526152e691612c568260648101612c48565b565b60ff600054166152f457565b60405162461bcd60e51b815260206004820152601060248201526f14185d5cd8589b194e881c185d5cd95960821b6044820152606490fd5b600081815260016020908152604080832033845290915290205460ff16156153515750565b3390600090615360602a6141b7565b9261536e604051948561401a565b602a845261537c602a6141b7565b602085019390601f1901368537845115615573576030845384516001101561557357607860218601536029905b600182116155875750506154c3576000906153c460426141b7565b906153d2604051928361401a565b604282526153e060426141b7565b602083019390601f1901368537825115615573576030845382516001101561557357607860218401536041905b600182116155075750506154c3576149319360376154a3938361549261546997601196506040519889967f416363657373436f6e74726f6c3a206163636f756e7420000000000000000000602089015251809287890190613fa0565b8501917001034b99036b4b9b9b4b733903937b6329607d1b858401525180936048840190613fa0565b01010301601f19810183528261401a565b60405162461bcd60e51b8152602060048201529182916024830190613fc3565b606460405162461bcd60e51b815260206004820152602060248201527f537472696e67733a20686578206c656e67746820696e73756666696369656e746044820152fd5b9091600f8116601081101561555f576f181899199a1a9b1b9c1cb0b131b232b360811b901a6155368486615b77565b5360041c91801561554b57600019019061540d565b634e487b7160e01b82526011600452602482fd5b634e487b7160e01b83526032600452602483fd5b634e487b7160e01b81526032600452602490fd5b9091600f8116601081101561555f576f181899199a1a9b1b9c1cb0b131b232b360811b901a6155b68488615b77565b5360041c91801561554b5760001901906153a9565b806000526001602052604060002060018060a01b03831660005260205260ff604060002054166155f9575050565b60008181526001602090815260408083206001600160a01b0395909516808452949091528120805460ff19169055339291907ff6391f5c32d9c69d2a47ea670b442974b53935d1edc7fd64eb21e047a839171b9080a4565b6040516323b872dd60e01b60208201526001600160a01b0392831660248201529290911660448301526064808301939093529181526152e691612c5660848361401a565b60ff60005416156156a257565b60405162461bcd60e51b815260206004820152601460248201527314185d5cd8589b194e881b9bdd081c185d5cd95960621b6044820152606490fd5b80600052600660205260406000205415600014614ff357600554600160401b8110156140045761571a61484f826001859401600555600561419f565b9055600554906000526006602052604060002055600190565b80600052600860205260406000205415600014614ff357600754600160401b8110156140045761576f61484f826001859401600755600761419f565b9055600754906000526008602052604060002055600190565b60408051909261580c926001600160a01b03169060009081906157ab878661401a565b602085527f5361666545524332303a206c6f772d6c6576656c2063616c6c206661696c6564602086015260208151910182855af13d1561589c573d916157f0836141b7565b926157fd8751948561401a565b83523d6000602085013e615c08565b8051908115918215615879575b5050156158235750565b5162461bcd60e51b815260206004820152602a60248201527f5361666545524332303a204552433230206f7065726174696f6e20646964206e6044820152691bdd081cdd58d8d9595960b21b6064820152608490fd5b8192509060209181010312610bb857602001518015158103610bb8573880615819565b606091615c08565b600081815260086020526040902054801561596e5760001981018181116145e5576007546000198101919082116145e557808203615934575b505050600754801561591e57600019016158f881600761419f565b8154906000199060031b1b19169055600755600052600860205260006040812055600190565b634e487b7160e01b600052603160045260246000fd5b61595661594561484f93600761419f565b90549060031b1c928392600761419f565b905560005260086020526040600020553880806158dd565b5050600090565b600081815260066020526040902054801561596e5760001981018181116145e5576005546000198101919082116145e5578082036159ef575b505050600554801561591e57600019016159c981600561419f565b8154906000199060031b1b19169055600555600052600660205260006040812055600190565b615a11615a0061484f93600561419f565b90549060031b1c928392600561419f565b905560005260066020526040600020553880806159ae565b906041815114600014615a53576152a9916020820151906060604084015193015160001a90615b88565b5050600090600290565b6005811015615b615780615a6e5750565b60018103615abb5760405162461bcd60e51b815260206004820152601860248201527f45434453413a20696e76616c6964207369676e617475726500000000000000006044820152606490fd5b60028103615b085760405162461bcd60e51b815260206004820152601f60248201527f45434453413a20696e76616c6964207369676e6174757265206c656e677468006044820152606490fd5b600314615b1157565b60405162461bcd60e51b815260206004820152602260248201527f45434453413a20696e76616c6964207369676e6174757265202773272076616c604482015261756560f01b6064820152608490fd5b634e487b7160e01b600052602160045260246000fd5b90815181101561416e570160200190565b7f7fffffffffffffffffffffffffffffff5d576e7357a4501ddfe92f46681b20a08411615bfc5760209360009360ff60809460405194855216868401526040830152606082015282805260015afa156146b2576000516001600160a01b03811615615bf35790600090565b50600090600190565b50505050600090600390565b91929015615c6a5750815115615c1c575090565b3b15615c255790565b60405162461bcd60e51b815260206004820152601d60248201527f416464726573733a2063616c6c20746f206e6f6e2d636f6e74726163740000006044820152606490fd5b82519091501561490d5750805190602001fdfeb813b807c25079ba97f1770664c6a9e57c59afe74a6295f1ed01c10e3bb6baaea164736f6c634300081b000a2f8788117e7eff1d82e926ec794901d17c78024a50270940304540a733656f0da6eef7e35abe7026729641147f7915573c7e97b47efa546f5f6e3230263bcb49358823ad0653452618750bed6506f24f63ef58f0cce438e3a379e32873da19d2",
  "linkReferences": {},
  "deployedLinkReferences": {}
}