{
  "_format": "hh-sol-artifact-1",
  "contractName": "FixedSwap",
  "sourceName": "contracts/FixedSwap.sol",
  "abi": [
    {
      "inputs": [
        {
          "internalType": "address",
          "name": "_tokenAddress",
          "type": "address"
        },
        {
          "internalType": "uint256",
          "name": "_tradeValue",
          "type": "uint256"
        },
        {
          "internalType": "uint256",
          "name": "_tokensForSale",
          "type": "uint256"
        },
        {
          "internalType": "uint256",
          "name": "_startDate",
          "type": "uint256"
        },
        {
          "internalType": "uint256",
          "name": "_endDate",
          "type": "uint256"
        },
        {
          "internalType": "uint256",
          "name": "_individualMinimumAmount",
          "type": "uint256"
        },
        {
          "internalType": "uint256",
          "name": "_individualMaximumAmount",
          "type": "uint256"
        },
        {
          "internalType": "bool",
          "name": "_ignored",
          "type": "bool"
        },
        {
          "internalType": "uint256",
          "name": "_minimumRaise",
          "type": "uint256"
        },
        {
          "internalType": "uint256",
          "name": "_feePercentage",
          "type": "uint256"
        },
        {
          "internalType": "uint32",
          "name": "_flags",
          "type": "uint32"
        },
        {
          "internalType": "address",
          "name": "_erc20TradeAddress",
          "type": "address"
        }
      ],
      "stateMutability": "nonpayable",
      "type": "constructor"
    },
    {
      "anonymous": false,
      "inputs": [
        {
          "indexed": false,
          "internalType": "uint256",
          "name": "count",
          "type": "uint256"
        }
      ],
      "name": "AddedArrayToBlacklist",
      "type": "event"
    },
    {
      "anonymous": false,
      "inputs": [
        {
          "indexed": false,
          "internalType": "uint256",
          "name": "count",
          "type": "uint256"
        }
      ],
      "name": "AddedArrayToWhitelist",
      "type": "event"
    },
    {
      "anonymous": false,
      "inputs": [
        {
          "indexed": true,
          "internalType": "address",
          "name": "account",
          "type": "address"
        }
      ],
      "name": "AddedToBlacklist",
      "type": "event"
    },
    {
      "anonymous": false,
      "inputs": [
        {
          "indexed": true,
          "internalType": "address",
          "name": "account",
          "type": "address"
        }
      ],
      "name": "AddedToWhitelist",
      "type": "event"
    },
    {
      "anonymous": false,
      "inputs": [
        {
          "indexed": false,
          "internalType": "address",
          "name": "account",
          "type": "address"
        }
      ],
      "name": "Paused",
      "type": "event"
    },
    {
      "anonymous": false,
      "inputs": [
        {
          "indexed": false,
          "internalType": "uint256",
          "name": "amount",
          "type": "uint256"
        },
        {
          "indexed": true,
          "internalType": "address",
          "name": "purchaser",
          "type": "address"
        },
        {
          "indexed": false,
          "internalType": "uint256",
          "name": "timestamp",
          "type": "uint256"
        }
      ],
      "name": "PurchaseEvent",
      "type": "event"
    },
    {
      "anonymous": false,
      "inputs": [
        {
          "indexed": true,
          "internalType": "address",
          "name": "account",
          "type": "address"
        }
      ],
      "name": "RemovedFromBlacklist",
      "type": "event"
    },
    {
      "anonymous": false,
      "inputs": [
        {
          "indexed": true,
          "internalType": "address",
          "name": "account",
          "type": "address"
        }
      ],
      "name": "RemovedFromWhitelist",
      "type": "event"
    },
    {
      "anonymous": false,
      "inputs": [
        {
          "indexed": true,
          "internalType": "bytes32",
          "name": "role",
          "type": "bytes32"
        },
        {
          "indexed": true,
          "internalType": "bytes32",
          "name": "previousAdminRole",
          "type": "bytes32"
        },
        {
          "indexed": true,
          "internalType": "bytes32",
          "name": "newAdminRole",
          "type": "bytes32"
        }
      ],
      "name": "RoleAdminChanged",
      "type": "event"
    },
    {
      "anonymous": false,
      "inputs": [
        {
          "indexed": true,
          "internalType": "bytes32",
          "name": "role",
          "type": "bytes32"
        },
        {
          "indexed": true,
          "internalType": "address",
          "name": "account",
          "type": "address"
        },
        {
          "indexed": true,
          "internalType": "address",
          "name": "sender",
          "type": "address"
        }
      ],
      "name": "RoleGranted",
      "type": "event"
    },
    {
      "anonymous": false,
      "inputs": [
        {
          "indexed": true,
          "internalType": "bytes32",
          "name": "role",
          "type": "bytes32"
        },
        {
          "indexed": true,
          "internalType": "address",
          "name": "account",
          "type": "address"
        },
        {
          "indexed": true,
          "internalType": "address",
          "name": "sender",
          "type": "address"
        }
      ],
      "name": "RoleRevoked",
      "type": "event"
    },
    {
      "anonymous": false,
      "inputs": [
        {
          "indexed": false,
          "internalType": "bool",
          "name": "hasWhitelisting",
          "type": "bool"
        }
      ],
      "name": "SetHasWhitelisting",
      "type": "event"
    },
    {
      "anonymous": false,
      "inputs": [
        {
          "indexed": false,
          "internalType": "address",
          "name": "account",
          "type": "address"
        }
      ],
      "name": "Unpaused",
      "type": "event"
    },
    {
      "inputs": [],
      "name": "DECIMALS_PERCENT_MUL",
      "outputs": [
        {
          "internalType": "uint256",
          "name": "",
          "type": "uint256"
        }
      ],
      "stateMutability": "view",
      "type": "function"
    },
    {
      "inputs": [],
      "name": "DEFAULT_ADMIN_ROLE",
      "outputs": [
        {
          "internalType": "bytes32",
          "name": "",
          "type": "bytes32"
        }
      ],
      "stateMutability": "view",
      "type": "function"
    },
    {
      "inputs": [],
      "name": "FEE_ADDRESS",
      "outputs": [
        {
          "internalType": "address",
          "name": "",
          "type": "address"
        }
      ],
      "stateMutability": "view",
      "type": "function"
    },
    {
      "inputs": [],
      "name": "PolsStakeAddress",
      "outputs": [
        {
          "internalType": "address",
          "name": "",
          "type": "address"
        }
      ],
      "stateMutability": "view",
      "type": "function"
    },
    {
      "inputs": [],
      "name": "PolsStakeAmount",
      "outputs": [
        {
          "internalType": "uint256",
          "name": "",
          "type": "uint256"
        }
      ],
      "stateMutability": "view",
      "type": "function"
    },
    {
      "inputs": [],
      "name": "PolsStakeRewards",
      "outputs": [
        {
          "internalType": "uint256",
          "name": "",
          "type": "uint256"
        }
      ],
      "stateMutability": "view",
      "type": "function"
    },
    {
      "inputs": [],
      "name": "WHITELIST_OWNER_ROLE",
      "outputs": [
        {
          "internalType": "bytes32",
          "name": "",
          "type": "bytes32"
        }
      ],
      "stateMutability": "view",
      "type": "function"
    },
    {
      "inputs": [
        {
          "internalType": "address[]",
          "name": "_addresses",
          "type": "address[]"
        }
      ],
      "name": "addArrayToBlacklist",
      "outputs": [],
      "stateMutability": "nonpayable",
      "type": "function"
    },
    {
      "inputs": [
        {
          "internalType": "address[]",
          "name": "_addresses",
          "type": "address[]"
        }
      ],
      "name": "addArrayToWhitelist",
      "outputs": [],
      "stateMutability": "nonpayable",
      "type": "function"
    },
    {
      "inputs": [
        {
          "internalType": "address",
          "name": "_address",
          "type": "address"
        }
      ],
      "name": "addToBlacklist",
      "outputs": [],
      "stateMutability": "nonpayable",
      "type": "function"
    },
    {
      "inputs": [
        {
          "internalType": "address",
          "name": "_address",
          "type": "address"
        }
      ],
      "name": "addToWhitelist",
      "outputs": [],
      "stateMutability": "nonpayable",
      "type": "function"
    },
    {
      "inputs": [],
      "name": "availableTokens",
      "outputs": [
        {
          "internalType": "uint256",
          "name": "",
          "type": "uint256"
        }
      ],
      "stateMutability": "view",
      "type": "function"
    },
    {
      "inputs": [
        {
          "internalType": "uint256",
          "name": "",
          "type": "uint256"
        }
      ],
      "name": "buyers",
      "outputs": [
        {
          "internalType": "address",
          "name": "",
          "type": "address"
        }
      ],
      "stateMutability": "view",
      "type": "function"
    },
    {
      "inputs": [
        {
          "internalType": "uint256",
          "name": "_amount",
          "type": "uint256"
        }
      ],
      "name": "cost",
      "outputs": [
        {
          "internalType": "uint256",
          "name": "",
          "type": "uint256"
        }
      ],
      "stateMutability": "view",
      "type": "function"
    },
    {
      "inputs": [
        {
          "internalType": "address",
          "name": "_account",
          "type": "address"
        },
        {
          "internalType": "uint256",
          "name": "_accountMaximunAllocation",
          "type": "uint256"
        },
        {
          "internalType": "bytes",
          "name": "_signature",
          "type": "bytes"
        }
      ],
      "name": "determineAccountMaximunAllocation",
      "outputs": [
        {
          "internalType": "uint256",
          "name": "",
          "type": "uint256"
        }
      ],
      "stateMutability": "view",
      "type": "function"
    },
    {
      "inputs": [],
      "name": "endDate",
      "outputs": [
        {
          "internalType": "uint256",
          "name": "",
          "type": "uint256"
        }
      ],
      "stateMutability": "view",
      "type": "function"
    },
    {
      "inputs": [],
      "name": "erc20",
      "outputs": [
        {
          "internalType": "contract IERC20",
          "name": "",
          "type": "address"
        }
      ],
      "stateMutability": "view",
      "type": "function"
    },
    {
      "inputs": [],
      "name": "erc20TradeIn",
      "outputs": [
        {
          "internalType": "contract IERC20",
          "name": "",
          "type": "address"
        }
      ],
      "stateMutability": "view",
      "type": "function"
    },
    {
      "inputs": [],
      "name": "feePercentage",
      "outputs": [
        {
          "internalType": "uint256",
          "name": "",
          "type": "uint256"
        }
      ],
      "stateMutability": "view",
      "type": "function"
    },
    {
      "inputs": [
        {
          "internalType": "uint256",
          "name": "_amount",
          "type": "uint256"
        }
      ],
      "name": "fund",
      "outputs": [],
      "stateMutability": "nonpayable",
      "type": "function"
    },
    {
      "inputs": [],
      "name": "getAPIVersion",
      "outputs": [
        {
          "internalType": "uint32",
          "name": "API_VERSION",
          "type": "uint32"
        }
      ],
      "stateMutability": "pure",
      "type": "function"
    },
    {
      "inputs": [],
      "name": "getBlacklistedAddresses",
      "outputs": [
        {
          "internalType": "address[]",
          "name": "",
          "type": "address[]"
        }
      ],
      "stateMutability": "view",
      "type": "function"
    },
    {
      "inputs": [],
      "name": "getBuyers",
      "outputs": [
        {
          "internalType": "address[]",
          "name": "",
          "type": "address[]"
        }
      ],
      "stateMutability": "view",
      "type": "function"
    },
    {
      "inputs": [],
      "name": "getCurrentSchedule",
      "outputs": [
        {
          "internalType": "uint256",
          "name": "schedule",
          "type": "uint256"
        }
      ],
      "stateMutability": "view",
      "type": "function"
    },
    {
      "inputs": [
        {
          "internalType": "address",
          "name": "_address",
          "type": "address"
        }
      ],
      "name": "getMyPurchases",
      "outputs": [
        {
          "internalType": "uint256[]",
          "name": "",
          "type": "uint256[]"
        }
      ],
      "stateMutability": "view",
      "type": "function"
    },
    {
      "inputs": [],
      "name": "getMyPurchases_msgSender",
      "outputs": [
        {
          "internalType": "uint256[]",
          "name": "",
          "type": "uint256[]"
        }
      ],
      "stateMutability": "view",
      "type": "function"
    },
    {
      "inputs": [
        {
          "internalType": "uint256",
          "name": "purchase_id",
          "type": "uint256"
        }
      ],
      "name": "getPurchase",
      "outputs": [
        {
          "internalType": "uint256",
          "name": "amount",
          "type": "uint256"
        },
        {
          "internalType": "address",
          "name": "purchaser",
          "type": "address"
        },
        {
          "internalType": "uint256",
          "name": "costAmount",
          "type": "uint256"
        },
        {
          "internalType": "uint48",
          "name": "timestamp",
          "type": "uint48"
        },
        {
          "internalType": "bool",
          "name": "wasFinalized",
          "type": "bool"
        },
        {
          "internalType": "bool",
          "name": "reverted",
          "type": "bool"
        },
        {
          "internalType": "uint256",
          "name": "amountRedeemed",
          "type": "uint256"
        }
      ],
      "stateMutability": "view",
      "type": "function"
    },
    {
      "inputs": [],
      "name": "getPurchasesCount",
      "outputs": [
        {
          "internalType": "uint256",
          "name": "count",
          "type": "uint256"
        }
      ],
      "stateMutability": "view",
      "type": "function"
    },
    {
      "inputs": [
        {
          "internalType": "uint256",
          "name": "purchase_id",
          "type": "uint256"
        }
      ],
      "name": "getRedeemStatus",
      "outputs": [
        {
          "internalType": "uint256",
          "name": "amount",
          "type": "uint256"
        },
        {
          "internalType": "uint256",
          "name": "amountRedeemed",
          "type": "uint256"
        },
        {
          "internalType": "uint256",
          "name": "vestAmount",
          "type": "uint256"
        },
        {
          "internalType": "string",
          "name": "message",
          "type": "string"
        }
      ],
      "stateMutability": "view",
      "type": "function"
    },
    {
      "inputs": [
        {
          "internalType": "uint256",
          "name": "purchase_id",
          "type": "uint256"
        }
      ],
      "name": "getRedeemableTokensAmount",
      "outputs": [
        {
          "internalType": "uint256",
          "name": "amount",
          "type": "uint256"
        },
        {
          "internalType": "string",
          "name": "message",
          "type": "string"
        }
      ],
      "stateMutability": "view",
      "type": "function"
    },
    {
      "inputs": [
        {
          "internalType": "bytes32",
          "name": "role",
          "type": "bytes32"
        }
      ],
      "name": "getRoleAdmin",
      "outputs": [
        {
          "internalType": "bytes32",
          "name": "",
          "type": "bytes32"
        }
      ],
      "stateMutability": "view",
      "type": "function"
    },
    {
      "inputs": [
        {
          "internalType": "uint256",
          "name": "_value",
          "type": "uint256"
        }
      ],
      "name": "getTokenAmountForETH",
      "outputs": [
        {
          "internalType": "uint256",
          "name": "",
          "type": "uint256"
        }
      ],
      "stateMutability": "view",
      "type": "function"
    },
    {
      "inputs": [],
      "name": "getWhitelistedAddresses",
      "outputs": [
        {
          "internalType": "address[]",
          "name": "",
          "type": "address[]"
        }
      ],
      "stateMutability": "view",
      "type": "function"
    },
    {
      "inputs": [
        {
          "internalType": "bytes32",
          "name": "role",
          "type": "bytes32"
        },
        {
          "internalType": "address",
          "name": "account",
          "type": "address"
        }
      ],
      "name": "grantRole",
      "outputs": [],
      "stateMutability": "nonpayable",
      "type": "function"
    },
    {
      "inputs": [],
      "name": "hasFinalized",
      "outputs": [
        {
          "internalType": "bool",
          "name": "",
          "type": "bool"
        }
      ],
      "stateMutability": "view",
      "type": "function"
    },
    {
      "inputs": [],
      "name": "hasMinimumAmount",
      "outputs": [
        {
          "internalType": "bool",
          "name": "",
          "type": "bool"
        }
      ],
      "stateMutability": "view",
      "type": "function"
    },
    {
      "inputs": [],
      "name": "hasMinimumRaise",
      "outputs": [
        {
          "internalType": "bool",
          "name": "",
          "type": "bool"
        }
      ],
      "stateMutability": "view",
      "type": "function"
    },
    {
      "inputs": [
        {
          "internalType": "bytes32",
          "name": "role",
          "type": "bytes32"
        },
        {
          "internalType": "address",
          "name": "account",
          "type": "address"
        }
      ],
      "name": "hasRole",
      "outputs": [
        {
          "internalType": "bool",
          "name": "",
          "type": "bool"
        }
      ],
      "stateMutability": "view",
      "type": "function"
    },
    {
      "inputs": [],
      "name": "hasStarted",
      "outputs": [
        {
          "internalType": "bool",
          "name": "",
          "type": "bool"
        }
      ],
      "stateMutability": "view",
      "type": "function"
    },
    {
      "inputs": [],
      "name": "hasWhitelisting",
      "outputs": [
        {
          "internalType": "bool",
          "name": "",
          "type": "bool"
        }
      ],
      "stateMutability": "view",
      "type": "function"
    },
    {
      "inputs": [],
      "name": "individualMaximumAmount",
      "outputs": [
        {
          "internalType": "uint256",
          "name": "",
          "type": "uint256"
        }
      ],
      "stateMutability": "view",
      "type": "function"
    },
    {
      "inputs": [],
      "name": "individualMinimumAmount",
      "outputs": [
        {
          "internalType": "uint256",
          "name": "",
          "type": "uint256"
        }
      ],
      "stateMutability": "view",
      "type": "function"
    },
    {
      "inputs": [
        {
          "internalType": "address",
          "name": "_account",
          "type": "address"
        }
      ],
      "name": "isAddressPOLSWhitelisted",
      "outputs": [
        {
          "internalType": "bool",
          "name": "",
          "type": "bool"
        }
      ],
      "stateMutability": "view",
      "type": "function"
    },
    {
      "inputs": [
        {
          "internalType": "address",
          "name": "_address",
          "type": "address"
        }
      ],
      "name": "isBlacklisted",
      "outputs": [
        {
          "internalType": "bool",
          "name": "",
          "type": "bool"
        }
      ],
      "stateMutability": "view",
      "type": "function"
    },
    {
      "inputs": [
        {
          "internalType": "uint256",
          "name": "purchase_id",
          "type": "uint256"
        }
      ],
      "name": "isBuyer",
      "outputs": [
        {
          "internalType": "bool",
          "name": "",
          "type": "bool"
        }
      ],
      "stateMutability": "view",
      "type": "function"
    },
    {
      "inputs": [],
      "name": "isETHTrade",
      "outputs": [
        {
          "internalType": "bool",
          "name": "",
          "type": "bool"
        }
      ],
      "stateMutability": "view",
      "type": "function"
    },
    {
      "inputs": [],
      "name": "isOpen",
      "outputs": [
        {
          "internalType": "bool",
          "name": "",
          "type": "bool"
        }
      ],
      "stateMutability": "view",
      "type": "function"
    },
    {
      "inputs": [],
      "name": "isPOLSWhitelisted",
      "outputs": [
        {
          "internalType": "bool",
          "name": "",
          "type": "bool"
        }
      ],
      "stateMutability": "view",
      "type": "function"
    },
    {
      "inputs": [],
      "name": "isPreStart",
      "outputs": [
        {
          "internalType": "bool",
          "name": "",
          "type": "bool"
        }
      ],
      "stateMutability": "view",
      "type": "function"
    },
    {
      "inputs": [],
      "name": "isSaleFunded",
      "outputs": [
        {
          "internalType": "bool",
          "name": "",
          "type": "bool"
        }
      ],
      "stateMutability": "view",
      "type": "function"
    },
    {
      "inputs": [
        {
          "internalType": "address",
          "name": "_userAccountAaddress",
          "type": "address"
        },
        {
          "internalType": "uint256",
          "name": "_accountMaximunAllocation",
          "type": "uint256"
        },
        {
          "internalType": "bytes",
          "name": "signature",
          "type": "bytes"
        }
      ],
      "name": "isSignerForAddressMaxAlloc",
      "outputs": [
        {
          "internalType": "bool",
          "name": "",
          "type": "bool"
        }
      ],
      "stateMutability": "view",
      "type": "function"
    },
    {
      "inputs": [
        {
          "internalType": "bytes32",
          "name": "hash",
          "type": "bytes32"
        },
        {
          "internalType": "bytes",
          "name": "signature",
          "type": "bytes"
        }
      ],
      "name": "isSignerFromBytes32",
      "outputs": [
        {
          "internalType": "bool",
          "name": "",
          "type": "bool"
        }
      ],
      "stateMutability": "view",
      "type": "function"
    },
    {
      "inputs": [],
      "name": "isTokenSwapAtomic",
      "outputs": [
        {
          "internalType": "bool",
          "name": "",
          "type": "bool"
        }
      ],
      "stateMutability": "view",
      "type": "function"
    },
    {
      "inputs": [
        {
          "internalType": "address",
          "name": "_address",
          "type": "address"
        }
      ],
      "name": "isWhitelisted",
      "outputs": [
        {
          "internalType": "bool",
          "name": "",
          "type": "bool"
        }
      ],
      "stateMutability": "view",
      "type": "function"
    },
    {
      "inputs": [],
      "name": "localETHDepositArbitrum",
      "outputs": [
        {
          "internalType": "address",
          "name": "",
          "type": "address"
        }
      ],
      "stateMutability": "view",
      "type": "function"
    },
    {
      "inputs": [],
      "name": "localETHDepositOptimism",
      "outputs": [
        {
          "internalType": "address",
          "name": "",
          "type": "address"
        }
      ],
      "stateMutability": "view",
      "type": "function"
    },
    {
      "inputs": [],
      "name": "minimumRaise",
      "outputs": [
        {
          "internalType": "uint256",
          "name": "",
          "type": "uint256"
        }
      ],
      "stateMutability": "view",
      "type": "function"
    },
    {
      "inputs": [],
      "name": "minimumRaiseAchieved",
      "outputs": [
        {
          "internalType": "bool",
          "name": "",
          "type": "bool"
        }
      ],
      "stateMutability": "view",
      "type": "function"
    },
    {
      "inputs": [],
      "name": "minimumRaiseNotAchieved",
      "outputs": [
        {
          "internalType": "bool",
          "name": "",
          "type": "bool"
        }
      ],
      "stateMutability": "view",
      "type": "function"
    },
    {
      "inputs": [
        {
          "internalType": "address",
          "name": "",
          "type": "address"
        },
        {
          "internalType": "uint256",
          "name": "",
          "type": "uint256"
        }
      ],
      "name": "myPurchases",
      "outputs": [
        {
          "internalType": "uint256",
          "name": "",
          "type": "uint256"
        }
      ],
      "stateMutability": "view",
      "type": "function"
    },
    {
      "inputs": [
        {
          "components": [
            {
              "internalType": "bytes32",
              "name": "sourceTxHash",
              "type": "bytes32"
            },
            {
              "internalType": "string",
              "name": "sourceChain",
              "type": "string"
            },
            {
              "internalType": "string",
              "name": "destChain",
              "type": "string"
            },
            {
              "internalType": "uint64",
              "name": "nonce",
              "type": "uint64"
            },
            {
              "internalType": "address",
              "name": "from",
              "type": "address"
            },
            {
              "internalType": "address",
              "name": "to",
              "type": "address"
            },
            {
              "internalType": "uint256",
              "name": "value",
              "type": "uint256"
            },
            {
              "internalType": "uint256",
              "name": "paid",
              "type": "uint256"
            },
            {
              "internalType": "uint64",
              "name": "gasLimit",
              "type": "uint64"
            },
            {
              "internalType": "bytes",
              "name": "data",
              "type": "bytes"
            }
          ],
          "internalType": "struct OmniCodec.Tx",
          "name": "_xtx",
          "type": "tuple"
        },
        {
          "internalType": "address",
          "name": "_sender",
          "type": "address"
        },
        {
          "internalType": "uint256",
          "name": "_gasSpent",
          "type": "uint256"
        }
      ],
      "name": "onXChainTxReverted",
      "outputs": [],
      "stateMutability": "nonpayable",
      "type": "function"
    },
    {
      "inputs": [
        {
          "components": [
            {
              "internalType": "bytes32",
              "name": "sourceTxHash",
              "type": "bytes32"
            },
            {
              "internalType": "string",
              "name": "sourceChain",
              "type": "string"
            },
            {
              "internalType": "string",
              "name": "destChain",
              "type": "string"
            },
            {
              "internalType": "uint64",
              "name": "nonce",
              "type": "uint64"
            },
            {
              "internalType": "address",
              "name": "from",
              "type": "address"
            },
            {
              "internalType": "address",
              "name": "to",
              "type": "address"
            },
            {
              "internalType": "uint256",
              "name": "value",
              "type": "uint256"
            },
            {
              "internalType": "uint256",
              "name": "paid",
              "type": "uint256"
            },
            {
              "internalType": "uint64",
              "name": "gasLimit",
              "type": "uint64"
            },
            {
              "internalType": "bytes",
              "name": "data",
              "type": "bytes"
            }
          ],
          "internalType": "struct OmniCodec.Tx",
          "name": "_xtx",
          "type": "tuple"
        },
        {
          "internalType": "address",
          "name": "_sender",
          "type": "address"
        },
        {
          "internalType": "bytes",
          "name": "_returnValue",
          "type": "bytes"
        },
        {
          "internalType": "uint256",
          "name": "_gasSpent",
          "type": "uint256"
        }
      ],
      "name": "onXChainTxSuccess",
      "outputs": [],
      "stateMutability": "nonpayable",
      "type": "function"
    },
    {
      "inputs": [],
      "name": "pause",
      "outputs": [],
      "stateMutability": "nonpayable",
      "type": "function"
    },
    {
      "inputs": [],
      "name": "paused",
      "outputs": [
        {
          "internalType": "bool",
          "name": "",
          "type": "bool"
        }
      ],
      "stateMutability": "view",
      "type": "function"
    },
    {
      "inputs": [
        {
          "internalType": "uint256",
          "name": "purchase_id",
          "type": "uint256"
        }
      ],
      "name": "purchaseExists",
      "outputs": [
        {
          "internalType": "bool",
          "name": "",
          "type": "bool"
        }
      ],
      "stateMutability": "view",
      "type": "function"
    },
    {
      "inputs": [
        {
          "internalType": "uint256",
          "name": "",
          "type": "uint256"
        }
      ],
      "name": "purchases",
      "outputs": [
        {
          "internalType": "address",
          "name": "purchaser",
          "type": "address"
        },
        {
          "internalType": "uint48",
          "name": "timestamp",
          "type": "uint48"
        },
        {
          "internalType": "bool",
          "name": "wasFinalized",
          "type": "bool"
        },
        {
          "internalType": "bool",
          "name": "reverted",
          "type": "bool"
        },
        {
          "internalType": "uint256",
          "name": "amount",
          "type": "uint256"
        },
        {
          "internalType": "uint256",
          "name": "costAmount",
          "type": "uint256"
        },
        {
          "internalType": "uint256",
          "name": "amountRedeemed",
          "type": "uint256"
        }
      ],
      "stateMutability": "view",
      "type": "function"
    },
    {
      "inputs": [
        {
          "internalType": "bytes32",
          "name": "hash",
          "type": "bytes32"
        },
        {
          "internalType": "bytes",
          "name": "signature",
          "type": "bytes"
        }
      ],
      "name": "recoverSignerAddressFromBytes32",
      "outputs": [
        {
          "internalType": "address",
          "name": "",
          "type": "address"
        }
      ],
      "stateMutability": "pure",
      "type": "function"
    },
    {
      "inputs": [
        {
          "internalType": "uint256",
          "name": "purchase_id",
          "type": "uint256"
        }
      ],
      "name": "redeemGivenMinimumGoalNotAchieved",
      "outputs": [],
      "stateMutability": "nonpayable",
      "type": "function"
    },
    {
      "inputs": [
        {
          "internalType": "uint256",
          "name": "purchase_id",
          "type": "uint256"
        }
      ],
      "name": "redeemTokens",
      "outputs": [],
      "stateMutability": "nonpayable",
      "type": "function"
    },
    {
      "inputs": [
        {
          "internalType": "address",
          "name": "_address",
          "type": "address"
        }
      ],
      "name": "removeFromBlacklist",
      "outputs": [],
      "stateMutability": "nonpayable",
      "type": "function"
    },
    {
      "inputs": [
        {
          "internalType": "address",
          "name": "_address",
          "type": "address"
        }
      ],
      "name": "removeFromWhitelist",
      "outputs": [],
      "stateMutability": "nonpayable",
      "type": "function"
    },
    {
      "inputs": [
        {
          "internalType": "address",
          "name": "_tokenAddress",
          "type": "address"
        },
        {
          "internalType": "address",
          "name": "_to",
          "type": "address"
        }
      ],
      "name": "removeOtherERC20Tokens",
      "outputs": [],
      "stateMutability": "nonpayable",
      "type": "function"
    },
    {
      "inputs": [
        {
          "internalType": "bytes32",
          "name": "role",
          "type": "bytes32"
        },
        {
          "internalType": "address",
          "name": "account",
          "type": "address"
        }
      ],
      "name": "renounceRole",
      "outputs": [],
      "stateMutability": "nonpayable",
      "type": "function"
    },
    {
      "inputs": [
        {
          "internalType": "bytes32",
          "name": "role",
          "type": "bytes32"
        },
        {
          "internalType": "address",
          "name": "account",
          "type": "address"
        }
      ],
      "name": "revokeRole",
      "outputs": [],
      "stateMutability": "nonpayable",
      "type": "function"
    },
    {
      "inputs": [],
      "name": "safePullETH",
      "outputs": [],
      "stateMutability": "nonpayable",
      "type": "function"
    },
    {
      "inputs": [],
      "name": "safePullSaleToken",
      "outputs": [],
      "stateMutability": "nonpayable",
      "type": "function"
    },
    {
      "inputs": [],
      "name": "safePullTradeToken",
      "outputs": [],
      "stateMutability": "nonpayable",
      "type": "function"
    },
    {
      "inputs": [
        {
          "internalType": "uint256",
          "name": "_endDate",
          "type": "uint256"
        }
      ],
      "name": "setEndDate",
      "outputs": [],
      "stateMutability": "nonpayable",
      "type": "function"
    },
    {
      "inputs": [
        {
          "internalType": "bool",
          "name": "_hasWhitelisting",
          "type": "bool"
        }
      ],
      "name": "setHasWhitelisting",
      "outputs": [],
      "stateMutability": "nonpayable",
      "type": "function"
    },
    {
      "inputs": [
        {
          "internalType": "uint256",
          "name": "_individualMaximumAmount",
          "type": "uint256"
        }
      ],
      "name": "setIndividualMaximumAmount",
      "outputs": [],
      "stateMutability": "nonpayable",
      "type": "function"
    },
    {
      "inputs": [
        {
          "internalType": "address",
          "name": "_localETHDepositArbitrum",
          "type": "address"
        }
      ],
      "name": "setLocalETHDepositArbitrum",
      "outputs": [],
      "stateMutability": "nonpayable",
      "type": "function"
    },
    {
      "inputs": [
        {
          "internalType": "address",
          "name": "_localETHDepositOptimism",
          "type": "address"
        }
      ],
      "name": "setLocalETHDepositOptimism",
      "outputs": [],
      "stateMutability": "nonpayable",
      "type": "function"
    },
    {
      "inputs": [
        {
          "internalType": "address",
          "name": "_PolsStakeAddress",
          "type": "address"
        },
        {
          "internalType": "uint256",
          "name": "_PolsStakeAmount",
          "type": "uint256"
        },
        {
          "internalType": "uint256",
          "name": "_PolsStakeRewards",
          "type": "uint256"
        }
      ],
      "name": "setPolsStakingRequirement",
      "outputs": [],
      "stateMutability": "nonpayable",
      "type": "function"
    },
    {
      "inputs": [
        {
          "internalType": "address",
          "name": "_signerPublicAddress",
          "type": "address"
        }
      ],
      "name": "setSignerPublicAddress",
      "outputs": [],
      "stateMutability": "nonpayable",
      "type": "function"
    },
    {
      "inputs": [
        {
          "internalType": "address",
          "name": "_stakingRewardsAddress",
          "type": "address"
        }
      ],
      "name": "setStakingRewards",
      "outputs": [],
      "stateMutability": "nonpayable",
      "type": "function"
    },
    {
      "inputs": [
        {
          "internalType": "uint256",
          "name": "_startDate",
          "type": "uint256"
        }
      ],
      "name": "setStartDate",
      "outputs": [],
      "stateMutability": "nonpayable",
      "type": "function"
    },
    {
      "inputs": [
        {
          "internalType": "bool",
          "name": "_swapWithSigEnabled",
          "type": "bool"
        }
      ],
      "name": "setSwapWithSigEnabled",
      "outputs": [],
      "stateMutability": "nonpayable",
      "type": "function"
    },
    {
      "inputs": [
        {
          "internalType": "uint256",
          "name": "_tradeValue",
          "type": "uint256"
        }
      ],
      "name": "setTradeValue",
      "outputs": [],
      "stateMutability": "nonpayable",
      "type": "function"
    },
    {
      "inputs": [
        {
          "internalType": "uint256",
          "name": "_vestingStart",
          "type": "uint256"
        },
        {
          "internalType": "uint256",
          "name": "_vestingCliff",
          "type": "uint256"
        },
        {
          "internalType": "uint256",
          "name": "_vestingDuration",
          "type": "uint256"
        },
        {
          "internalType": "uint256[]",
          "name": "_vestingSchedule",
          "type": "uint256[]"
        }
      ],
      "name": "setVesting",
      "outputs": [],
      "stateMutability": "nonpayable",
      "type": "function"
    },
    {
      "inputs": [],
      "name": "signerPublicAddress",
      "outputs": [
        {
          "internalType": "address",
          "name": "",
          "type": "address"
        }
      ],
      "stateMutability": "view",
      "type": "function"
    },
    {
      "inputs": [],
      "name": "stakingRewardsAddress",
      "outputs": [
        {
          "internalType": "address",
          "name": "",
          "type": "address"
        }
      ],
      "stateMutability": "view",
      "type": "function"
    },
    {
      "inputs": [],
      "name": "startDate",
      "outputs": [
        {
          "internalType": "uint256",
          "name": "",
          "type": "uint256"
        }
      ],
      "stateMutability": "view",
      "type": "function"
    },
    {
      "inputs": [
        {
          "internalType": "bytes4",
          "name": "interfaceId",
          "type": "bytes4"
        }
      ],
      "name": "supportsInterface",
      "outputs": [
        {
          "internalType": "bool",
          "name": "",
          "type": "bool"
        }
      ],
      "stateMutability": "view",
      "type": "function"
    },
    {
      "inputs": [
        {
          "internalType": "uint256",
          "name": "_amount",
          "type": "uint256"
        },
        {
          "internalType": "bytes",
          "name": "_signature",
          "type": "bytes"
        }
      ],
      "name": "swap",
      "outputs": [],
      "stateMutability": "payable",
      "type": "function"
    },
    {
      "inputs": [
        {
          "internalType": "uint256",
          "name": "_amount",
          "type": "uint256"
        },
        {
          "internalType": "uint256",
          "name": "_accountMaxAmount",
          "type": "uint256"
        },
        {
          "internalType": "bytes",
          "name": "_signature",
          "type": "bytes"
        }
      ],
      "name": "swapWithSig",
      "outputs": [],
      "stateMutability": "payable",
      "type": "function"
    },
    {
      "inputs": [],
      "name": "swapWithSigEnabled",
      "outputs": [
        {
          "internalType": "bool",
          "name": "",
          "type": "bool"
        }
      ],
      "stateMutability": "view",
      "type": "function"
    },
    {
      "inputs": [
        {
          "internalType": "address",
          "name": "userAccount",
          "type": "address"
        },
        {
          "internalType": "uint256",
          "name": "value",
          "type": "uint256"
        }
      ],
      "name": "swapXchain",
      "outputs": [],
      "stateMutability": "nonpayable",
      "type": "function"
    },
    {
      "inputs": [],
      "name": "tokensAllocated",
      "outputs": [
        {
          "internalType": "uint256",
          "name": "",
          "type": "uint256"
        }
      ],
      "stateMutability": "view",
      "type": "function"
    },
    {
      "inputs": [],
      "name": "tokensForSale",
      "outputs": [
        {
          "internalType": "uint256",
          "name": "",
          "type": "uint256"
        }
      ],
      "stateMutability": "view",
      "type": "function"
    },
    {
      "inputs": [],
      "name": "tokensLeft",
      "outputs": [
        {
          "internalType": "uint256",
          "name": "",
          "type": "uint256"
        }
      ],
      "stateMutability": "view",
      "type": "function"
    },
    {
      "inputs": [],
      "name": "totalRaiseCost",
      "outputs": [
        {
          "internalType": "uint256",
          "name": "",
          "type": "uint256"
        }
      ],
      "stateMutability": "view",
      "type": "function"
    },
    {
      "inputs": [],
      "name": "tradeValue",
      "outputs": [
        {
          "internalType": "uint256",
          "name": "",
          "type": "uint256"
        }
      ],
      "stateMutability": "view",
      "type": "function"
    },
    {
      "inputs": [
        {
          "internalType": "uint256",
          "name": "purchase_id",
          "type": "uint256"
        },
        {
          "internalType": "bool",
          "name": "stake",
          "type": "bool"
        }
      ],
      "name": "transferTokens",
      "outputs": [],
      "stateMutability": "nonpayable",
      "type": "function"
    },
    {
      "inputs": [],
      "name": "unpause",
      "outputs": [],
      "stateMutability": "nonpayable",
      "type": "function"
    },
    {
      "inputs": [],
      "name": "unsoldTokensRedeemed",
      "outputs": [
        {
          "internalType": "bool",
          "name": "",
          "type": "bool"
        }
      ],
      "stateMutability": "view",
      "type": "function"
    },
    {
      "inputs": [],
      "name": "vestingCliff",
      "outputs": [
        {
          "internalType": "uint256",
          "name": "",
          "type": "uint256"
        }
      ],
      "stateMutability": "view",
      "type": "function"
    },
    {
      "inputs": [],
      "name": "vestingDuration",
      "outputs": [
        {
          "internalType": "uint256",
          "name": "",
          "type": "uint256"
        }
      ],
      "stateMutability": "view",
      "type": "function"
    },
    {
      "inputs": [
        {
          "internalType": "uint256",
          "name": "",
          "type": "uint256"
        }
      ],
      "name": "vestingSchedule",
      "outputs": [
        {
          "internalType": "uint256",
          "name": "",
          "type": "uint256"
        }
      ],
      "stateMutability": "view",
      "type": "function"
    },
    {
      "inputs": [],
      "name": "vestingStart",
      "outputs": [
        {
          "internalType": "uint256",
          "name": "",
          "type": "uint256"
        }
      ],
      "stateMutability": "view",
      "type": "function"
    },
    {
      "inputs": [],
      "name": "vestingTime",
      "outputs": [
        {
          "internalType": "uint256",
          "name": "",
          "type": "uint256"
        }
      ],
      "stateMutability": "view",
      "type": "function"
    },
    {
      "inputs": [],
      "name": "withdrawFunds",
      "outputs": [],
      "stateMutability": "nonpayable",
      "type": "function"
    },
    {
      "inputs": [],
      "name": "withdrawUnsoldTokens",
      "outputs": [],
      "stateMutability": "nonpayable",
      "type": "function"
    }
  ],
  "bytecode": "0x6080346200070e57601f620060f838819003918201601f19168301916001600160401b038311848410176200071357808492610180946040528339810103126200070e576200004e8162000729565b90602081015191604082015192606083015160808401519160a08501519560c08601519360e0870151801515036200070e5761010087015193610120880151986101408901519863ffffffff8a168a036200070e57610160620000b2910162000729565b6000805460ff191681556002805460ff60a01b19908116909155338252600080516020620060b883398151915260205260409091205491989160ff1615620006ba575b7389b41a6e5ab74fcb9771a3356986185f67f9214c600052600080516020620060b8833981519152602052600080516020620060788339815191525460ff161562000645575b60028054919091168b8216151560a01b60ff60a01b161790556003829055336000908152600080516020620060b8833981519152602052604090205460ff16156200060057818110620005bb5760045533600090815260008051602062006058833981519152602052604090205460ff161562000578575b7389b41a6e5ab74fcb9771a3356986185f67f9214c60005260008051602062006058833981519152602052600080516020620060d88339815191525460ff161562000514575b81421015620004cf5783156200049657831062000451578285116200040c5760638911620003c757600863ffffffff891610156200038257601481905533600090815260008051602062006058833981519152602052604090205460ff16156200033d57811115620002f8576015556018556013556001841615620002ef5750600160ff1960125416176012555b600f80546001600160a01b03199081166001600160a01b039485161790915591169081620002df575b505061ff0060046012549216151560081b169061ff001916176012556011556040516158f990816200073f8239f35b60105416176010553880620002b0565b60165562000287565b60405162461bcd60e51b815260206004820152601a60248201527f656e642064617465206265666f726520737461727420646174650000000000006044820152606490fd5b60405162461bcd60e51b815260206004820152601960248201527f63616c6c657220686173206e6f742061646d696e20726f6c65000000000000006044820152606490fd5b60405162461bcd60e51b815260206004820152601560248201527f756e737570706f7274656420666c6167732073657400000000000000000000006044820152606490fd5b60405162461bcd60e51b815260206004820152601e60248201527f4665652050657263656e746167652068617320746f206265203c2031303000006044820152606490fd5b60405162461bcd60e51b815260206004820152601c60248201527f6d696e696d756d5261697365203e20746f6b656e73466f7253616c65000000006044820152606490fd5b60405162461bcd60e51b815260206004820152601e60248201527f746f6b656e73466f7253616c65203c20696e646976696475616c206d696e00006044820152606490fd5b60405162461bcd60e51b81526020600482015260116024820152706e6f20746f6b656e20666f722073616c6560781b6044820152606490fd5b60405162461bcd60e51b815260206004820152601960248201527f7374617274206461746520697320696e207468652070617374000000000000006044820152606490fd5b7389b41a6e5ab74fcb9771a3356986185f67f9214c600081815260008051602062006058833981519152602052600080516020620060d8833981519152805460ff19166001179055339190600080516020620060388339815191528180a4620001f9565b3360008181526000805160206200605883398151915260205260408120805460ff191660011790558190600080516020620060388339815191528180a4620001b3565b60405162461bcd60e51b815260206004820152601b60248201527f696e646976696475616c206d6178203c206d696e20616d6f756e7400000000006044820152606490fd5b60405162461bcd60e51b815260206004820152601c60248201527f63616c6c6572206973206e6f742057686974656c6973744f776e6572000000006044820152606490fd5b7389b41a6e5ab74fcb9771a3356986185f67f9214c6000818152600080516020620060b883398151915260205260008051602062006078833981519152805460ff191660011790553391906000805160206200609883398151915290600080516020620060388339815191529080a46200013b565b336000818152600080516020620060b883398151915260205260408120805460ff1916600117905581906000805160206200609883398151915290600080516020620060388339815191529080a4620000f5565b600080fd5b634e487b7160e01b600052604160045260246000fd5b51906001600160a01b03821682036200070e5756fe608060408181526004918236101561001657600080fd5b600090813560e01c90816301ffc9a714613a31575080630274fa98146139e7578063044c0cc5146139bd5780630766234514613996578063082392101461397757806308abd7ff1461389d5780630b97bc861461387e57806312aef8c31461385f57806313430f01146138405780631514617e1461382157806315b5786614613800578063161a7b2a146137d95780631de18af71461358d5780631ee5dfcd146130d35780632140f89f1461308157806321d3002a1461305d57806324600fc314612e7d578063248a9ca314612e53578063254800d414612e345780632593ea1714612e10578063273e96e914612dea578063274a63f514612daa5780632e15410714612d8b5780632ebb5c1e14612d6a5780632f2ff15d14612cbd5780633070b98d146129a157806331d06af31461297857806336568abe146128e75780633742a9f7146127e35780633784f0001461278f5780633af32abf146127525780633b5becb81461272d5780633b6577c8146126f35780633bbab1791461268c5780633f4ba83a146126205780634089aa9a146125fe57806344337ea11461259d57806344691f7e1461257b57806347535d7b1461255e578063537df3b6146124fd5780635ac699bb146124b55780635c975abb146124935780635f635f9a146120df5780636295a2f4146120c0578063658f2dfe14611ca05780636901c28d14611c7757806369bb4dc214611c5a5780636d02802714611bd15780636eaaabd514611b425780636fb83a5714611b0457806370a898bc14611ae357806374fa05fb14611ac0578063751ef93d14611a9b578063755e3e2814611a7c57806376807e5f146119fd578063785e9e86146119d4578063788bff68146119ab578063799bb232146119845780637f7b27121461196457806382974f301461193b57806382d95df51461188d5780638392fe31146118055780638456cb591461179657806388b0fe2b146116db5780638a1a5f3f146116be5780638ab1d6811461165d5780638e75b1311461163e5780639097548d1461161f578063917c854d146114b3578063919bd9301461147a57806391d1485414611433578063948384141461140c57806396a32bc4146113a65780639baf19791461138a5780639d90a46e146112b05780639e0552aa14611264578063a001ecdd14611245578063a1c09bf114611226578063a217fddf1461120b578063a6e158f81461106a578063b0b12ac31461104c578063b31f8f9314611028578063b367940e14611004578063b869178714610fc6578063ba40a96a14610f9d578063bd0625ab14610baf578063bf135abe14610b86578063c24a0f8b14610b67578063c3ca324f14610b40578063c7dab43614610b23578063c8bdbfb614610a79578063ca1d209d14610a23578063d0a4a895146109fc578063d10dbdf5146109c1578063d547741f14610983578063d8bdbd2814610945578063dbb57ac814610901578063dc91b0721461086c578063e12917e214610813578063e4101de5146107f5578063e43252d71461076b578063e4a8025214610739578063e8b882f414610710578063eb1edd61146106e1578063efbb34d5146106ba578063f267d48c1461069b578063f2aa821814610640578063f3640e7414610621578063f64bfaba14610595578063fce9d11b14610567578063fe575a87146105295763fecf415a146104f457600080fd5b34610526576020366003190112610526575061051260209235613f2c565b5060018060a01b0390541633149051908152f35b80fd5b5090346105635760203660031901126105635760209181906001600160a01b03610551613a85565b16815260088452205415159051908152f35b5080fd5b509034610563578160031936011261056357610591906105863361466c565b905191829182613f66565b0390f35b50346105265780600319360112610526578151918291601e54808552602080950194601e83527f50bb669a95c7b50b7e8a6f09454034b2b14cf2b85c730dca9a539ca82cb6e35092905b8282106106015761059186866105f7828b0383613b31565b5191829182613da1565b83546001600160a01b0316875295860195600193840193909101906105df565b509034610563578160031936011261056357602090601a549051908152f35b5091346106975760203660031901126106975735601e5481101561069757601e6020935260018060a01b03907f50bb669a95c7b50b7e8a6f09454034b2b14cf2b85c730dca9a539ca82cb6e3500154169051908152f35b8280fd5b509034610563578160031936011261056357602090600e549051908152f35b5090346105635781600319360112610563576020906106da6018546145e8565b9051908152f35b5090346105635781600319360112610563576020905173aeb39b67f27b641ef9f95fb74f1a46b1ee4efc838152f35b509034610563578160031936011261056357602090516000805160206158cd8339815191528152f35b5090346105635760209061075561074f36613efd565b9061549c565b60018060a01b0380600254169116149051908152f35b509034610563576020366003190112610563576107b460ff61078b613a85565b926000805160206158cd833981519152855260016020528085203386526020528420541661521e565b6001600160a01b03166107c68161526a565b6107ce575080f35b7fa850ae9193f515cbae8d35e8925bd2be26627fc91bce650b8652ed254e9cab038280a280f35b50913461069757826003193601126106975760209250549051908152f35b5090346105635760203660031901126105635761084e60ff610833613a85565b928480526001602052808520338652602052842054166143c2565b60018060a01b03166001600160601b0360a01b600a541617600a5580f35b509134610697576020366003190112610697578035916000805160206158cd833981519152845260016020528084203385526020526108b060ff828620541661521e565b60035483106108be57505580f35b906020606492519162461bcd60e51b8352820152601b60248201527f696e646976696475616c206d6178203c206d696e20616d6f756e7400000000006044820152fd5b503461052657602036600319011261052657506109216105919235615144565b91949293805195869586526020860152840152608060608401526080830190613d7c565b5090346105635760203660031901126105635761096560ff610833613a85565b60018060a01b03166001600160601b0360a01b600b541617600b5580f35b509190346106975780600319360112610697576109be91356109b960016109a8613aa0565b938387528160205286200154613fa1565b61429c565b80f35b509190346106975760203660031901126106975760ff6109f5918480526001602052808520338652602052842054166143c2565b3560135580f35b50903461056357816003193601126105635760209060ff60125460081c1690519015158152f35b50823461056357602036600319011261056357600f54610a51913590309033906001600160a01b03166147e0565b610a5961452f565b6018541115610a655780f35b6201000062ff000019601254161760125580f35b50903461056357816003193601126105635760ff610aab918380526001602052808420338552602052832054166143c2565b610ab9601554421015615189565b60125460ff8160181c1661056357601754601654811015610b1257506018545b80610ae2578280f35b63ff00000019909116630100000017601255600f54610b0c919033906001600160a01b0316614cef565b81808280f35b610b1e906018546144c8565b610ad9565b5090346105635781600319360112610563576020906106da614359565b5090346105635760203660031901126105635761059190610586610b62613a85565b61466c565b5090346105635781600319360112610563576020906015549051908152f35b50903461056357816003193601126105635760105490516001600160a01b039091168152602090f35b50816003193601126105265782359260249182356001600160401b03811161056357610bde9036908401613c0a565b94610be7614cab565b6012549560ff8760101c1615610f6057610bff6145a7565b15610f285760ff602097881c1615610eec57610c1a336146cf565b15610eac57610c299033615757565b948515610e7b576010546001600160a01b039790881680610e5e57503495610c50846145e8565b8710610e27575b610c71610c69601854601754906144c8565b851115614a49565b610c7f600354851015614a95565b610c8b88851115614ae1565b338552601f8252828520968351808985829b54938481520190895285892092895b87828210610e1157505050610cc392500389613b31565b8599869a5b89518c1015610d0357610cf7610cfd916001610cee8f610ce8908f614b2d565b51613f2c565b5001549061433b565b9b6144b9565b9a610cc8565b90610d1d8b610d1689610d78969561433b565b1115614b41565b8660ff60125416610dfb575b5050610d3442614d28565b9060ff6012541665ffffffffffff875193610d4e85613aca565b338552168684015215158683015287606083015286608083015260a08201528660c0820152614b8d565b338552601f825282852090601d54966000198801978811610dea5750507fbec109f7ee137de661c6887caa96653c0545050a9908a3b6eb5190440bbec864939495610dc291614497565b610dcb33614c47565b610dd78460175461433b565b601755815193845242908401523392a280f35b634e487b7160e01b87526011905285fd5b610e0a913390600f5416614cef565b8886610d29565b855484526001958601958e955093019201610cac565b6013908692606494519362461bcd60e51b8552840152820152721b9bdd08195b9bdd59da08115512081cd95b9d606a1b6044820152fd5b95610e76610e6b856145e8565b8098309033906147e0565b610c57565b5162461bcd60e51b8152808401879052600d818601526c37379030b63637b1b0ba34b7b760991b6044820152606490fd5b6064848887818a519362461bcd60e51b85528401528201527f61646472657373206e6f742077686974656c697374656420666f7220504f4c536044820152fd5b855162461bcd60e51b8152808501889052601781870152761cddd85c15da5d1a14da59c81b9bdd08195b98589b1959604a1b6044820152606490fd5b855162461bcd60e51b81526020818601526013818701527239b0b632903430b9903a379031329037b832b760691b6044820152606490fd5b855162461bcd60e51b8152602081860152601881870152771d1bdad95b881cd85b19481a5cc81b9bdd08199d5b99195960421b6044820152606490fd5b50903461056357816003193601126105635760025490516001600160a01b039091168152602090f35b50903461056357602036600319011261056357610fe660ff61078b613a85565b60018060a01b03166001600160601b0360a01b600254161760025580f35b50903461056357816003193601126105635760209060175460165411159051908152f35b5090346105635781600319360112610563576020906106da601854601754906144c8565b5090346105635781600319360112610563576020905162325aa08152f35b50823461056357602036600319011261056357803561108881613f2c565b50546001600160a01b039190821633036111d1576110a581614dc0565b819491156111ab575060016110b983613f2c565b50015460036110c784613f2c565b50015491816110d6878561433b565b1161113557506109be9596506111018583611107936110f78360039761433b565b146111155761433b565b92613f2c565b5001553390600f5416614cef565b61111e86613f2c565b50805460ff60d01b1916600160d01b17905561433b565b60a490602089519162461bcd60e51b8352820152604460248201527f494e5445524e414c204552524f52203a20616d6f756e7452656465656d65642060448201527f776f756c64206265206c6172676572207468656e20707572636861736520616d6064820152631bdd5b9d60e21b6084820152fd5b906111cd602092885193849362461bcd60e51b85528401526024830190613d7c565b0390fd5b845162461bcd60e51b8152602081850152601460248201527320b2323932b9b99034b9903737ba10313abcb2b960611b6044820152606490fd5b50903461056357816003193601126105635751908152602090f35b509034610563578160031936011261056357602090601d549051908152f35b5090346105635781600319360112610563576020906011549051908152f35b508234610563576060366003190112610563578035906001600160401b0382116106975761129491369101613c65565b5061129d613aa0565b506001614849608e1b0133036105265780f35b509034610563576112c036613b69565b906000805160206158cd8339815191528352600191826020528184203385526020526112f160ff838620541661521e565b839283815b611337575b50505081611307578280f35b7fc2f03ca34d335e49d4d629b85db054d1ffb679b4fec2e06fe10d0e618b175ecb9160209151908152a181808280f35b82518110156113855761135c6001600160a01b036113558386614b2d565b51166152d0565b611370575b61136a906144b9565b816112f6565b9361137d61136a916144b9565b949050611361565b6112fb565b509034610563576020906106da6113a036613eb8565b91615829565b50903461056357816003193601126105635781805260016020528082203383526020526113d860ff82842054166143c2565b6113e06151d5565b8180808047818115611403575b3390f1156113f9575080f35b51903d90823e3d90fd5b506108fc6113ed565b50903461056357816003193601126105635760209060ff60125460181c1690519015158152f35b5091346106975781600319360112610697578160209360ff92611454613aa0565b90358252600186528282206001600160a01b039091168252855220549151911615158152f35b509134610697576020366003190112610697573591601c5483101561052657506114a5602092613de5565b91905490519160031b1c8152f35b509190346106975780600319360112610697576114ce613a85565b6114d6613aa0565b9084805260206001815283862033875281526114f760ff85882054166143c2565b611505601554421015615189565b600f546001600160a01b039283169290811683146115dc5760105416821461159a578351946370a0823160e01b865230908601528085602481855afa9384156115915750859361155b575b506109be9350614cef565b90925083813d831161158a575b6115728183613b31565b81010312611586576109be92519138611550565b8380fd5b503d611568565b513d87823e3d90fd5b8460649185519162461bcd60e51b8352820152601b60248201527f746f6b656e206973207468652074726164652d696e20746f6b656e00000000006044820152fd5b845162461bcd60e51b8152808701839052601b60248201527f746f6b656e2069732074686520746f6b656e20666f722073616c6500000000006044820152606490fd5b503461052657602036600319011261052657506106da602092356145e8565b5090346105635781600319360112610563576020906016549051908152f35b5090346105635760203660031901126105635761167d60ff61078b613a85565b6001600160a01b031661168f816153f3565b611697575080f35b7fcdd2e9b91a56913d370075169cefa1602ba36be5301664f752192bb1709df7578280a280f35b5090346105635781600319360112610563576020906106da6144f5565b50919034610697578260031936011261069757828052602060018152818420338552815261170e60ff83862054166143c2565b6117166151d5565b600f5482516370a0823160e01b815230948101949094526001600160a01b0316908084602481855afa92831561178d5750849261175b575b506109be92503390614cef565b90915082813d8311611786575b6117728183613b31565b81010312610697576109be9151903861174e565b503d611768565b513d86823e3d90fd5b50903461056357816003193601126105635760207f62e78cea01bee320cd4e420270b5ea74000d11b0c9f74754ebdbfc544b05a258918380526001825280842033855282526117ea60ff82862054166143c2565b6117f2614cab565b835460ff1916600117845551338152a180f35b509134610697576020366003190112610697573591601d54831015610526575061183060e092613f2c565b50805490600181015460ff600360028401549301549385519560018060a01b038216875265ffffffffffff8260a01c166020880152828260d01c1615159087015260d81c1615156060850152608084015260a083015260c0820152f35b509134610697576020366003190112610697578035916118b06014544210614376565b83805260016020528084203385526020526118d060ff82862054166143c2565b824210156118ed5750506118e7601554821061440e565b60145580f35b906020608492519162461bcd60e51b8352820152602260248201527f737461727420646174652068617320746f20626520696e207468652066757475604482015261726560f01b6064820152fd5b509034610563578160031936011261056357600b5490516001600160a01b039091168152602090f35b5090346105635781600319360112610563576020905164e8d4a510008152f35b5090346105635760209061199a61074f36613efd565b90516001600160a01b039091168152f35b50903461056357816003193601126105635760095490516001600160a01b039091168152602090f35b509034610563578160031936011261056357600f5490516001600160a01b039091168152602090f35b509190346106975782600319360112610697578280526020600181528184203385528152611a3060ff83862054166143c2565b611a386151d5565b60105482516370a0823160e01b815230948101949094526001600160a01b0316908084602481855afa92831561178d5750849261175b57506109be92503390614cef565b5090346105635781600319360112610563576020906017549051908152f35b50903461056357602090611ab7611ab136613eb8565b91615702565b90519015158152f35b509034610563578160031936011261056357602090601754601654119051908152f35b50903461056357816003193601126105635760209060035415159051908152f35b50903461056357602036600319011261056357611b2460ff610833613a85565b60018060a01b03166001600160601b0360a01b600954161760095580f35b5090346105635760203660031901126105635760207fe905f7f52156c346547b9deb6fb3e2459db941ec55d073fd465129bf4b49fae691611b81613d4a565b6000805160206158cd8339815191528552600183528185203386528352611bad60ff838720541661521e565b15159060025460ff60a01b8360a01b169060ff60a01b19161760025551908152a180f35b5034610526578060031936011261052657600554611bee81613b52565b91611bfb84519384613b31565b818352601f19611c0a83613b52565b013660208501375b818110611c26578351806105918582613da1565b80611c33611c5592613e69565b905460039190911b1c6001600160a01b0316611c4f8286614b2d565b526144b9565b611c12565b5090346105635781600319360112610563576020906106da61452f565b509034610563578160031936011261056357600a5490516001600160a01b039091168152602090f35b5091346106975760803660031901126106975780359060248035916044908135948760648035946001600160401b039889871161158657366023880112156115865786860135998a116115865760059836898c8c1b8a0101116120bc578b95611d0c6014544210614376565b858052611d2d60ff6001986020988a8a528181203382528a522054166143c2565b60ff6012541661207b576019548015908115612071575b50156120305780611fdc575b828211611f9b578b159291908315611f70576312cff780611d72895b85614312565b1015611f3057601955601a5580601b55601c548d601c558d81611eea575b5050858b1015611d9e578c80f35b15611e8d57611e7b578686013592655af3107a40009a8b851015611e3d5750505050611dc99061445a565b858110611dda575b80808080808c80f35b6000198101818111611e2b57611df2611e0691613de5565b90548684891b870101359160031b1c61433b565b9087821015611e2557611e1b611e209261445a565b6144b9565b611dc9565b50611dd1565b634e487b7160e01b8952601183528489fd5b91601c897f66697273742076657374696e6720706572696f64203e3d203130302500000000938995519562461bcd60e51b8752860152840152820152fd5b634e487b7160e01b8b5260328552868bfd5b5084917f76657374696e6720696e74657276616c6c732070726f76696465642c206275747302076657374696e674475726174696f6e203d20360641b9260348a6084978f519762461bcd60e51b8952880152860152840152820152fd5b601c81527f0e4562a10381dec21b205ed72637e6b1b523bdd0e4d4d50af5cd23dd4500a2119182019188915b838210611f2557915050611d90565b81550187908f611f16565b8d5162461bcd60e51b8152808a01889052601d818d01527f746f74616c2076657374696e672074696d65203e203130207965617273000000818701528690fd5b878d01808e11611f8857611d726312cff78091611d6c565b50634e487b7160e01b8f52601189528a8ffd5b5050507f76657374696e67436c696666203e2076657374696e674475726174696f6e00008591601e89868e519562461bcd60e51b8752860152840152820152fd5b611fe6828261433b565b6015541115611d50575050507f76657374696e67436c696666206265666f726520656e644461746500000000008591601b89868e519562461bcd60e51b8752860152840152820152fd5b5050507f76657374696e6720616c726561647920737461727465640000000000000000008591601789868e519562461bcd60e51b8752860152840152820152fd5b9050421038611d44565b5050507f6e6f2076657374696e6720666f722061746f6d696320737761700000000000008591601a89868e519562461bcd60e51b8752860152840152820152fd5b8480fd5b5090346105635781600319360112610563576020906013549051908152f35b5060603660031901126105265782359260449182356001600160401b0381116105635761210f9036908401613c0a565b94612118614cab565b6012549560ff8760101c1615612456576121306145a7565b1561241e5760ff602097881c16156123e25761214b336146cf565b156123a25761215d9060243533615829565b948515612371576010546001600160a01b03979088168061235357503495612184846145e8565b871061231c57505b6121a661219e601854601754906144c8565b841115614a49565b6121b4600354841015614a95565b6121c087841115614ae1565b338452601f8152818420958251808884829a54938481520190885284882092885b86828210612306575050506121f892500388613b31565b849885995b88518b10156122285761221c612222916001610cee610ce88f8e614b2d565b9a6144b9565b996121fd565b9061223b8a610d1688612296969561433b565b8560ff601254166122f0575b505061225242614d28565b9060ff6012541665ffffffffffff86519361226c85613aca565b338552168584015215158583015286606083015285608083015260a08201528560c0820152614b8d565b338452601f8152818420601d546000198101919082116122dd577fbec109f7ee137de661c6887caa96653c0545050a9908a3b6eb5190440bbec864939291610dc291614497565b634e487b7160e01b865260118752602486fd5b6122ff913390600f5416614cef565b8785612247565b855484526001958601958d9550930192016121e1565b721b9bdd08195b9bdd59da08115512081cd95b9d606a1b908692606494519362461bcd60e51b855284015260136024840152820152fd5b955061236c612361846145e8565b8097309033906147e0565b61218c565b5162461bcd60e51b8152808401879052600d60248201526c37379030b63637b1b0ba34b7b760991b81860152606490fd5b6064847f61646472657373206e6f742077686974656c697374656420666f7220504f4c53878a808b519462461bcd60e51b86528501526024840152820152fd5b855162461bcd60e51b815280850188905260176024820152761cddd85c15da5d1a14da59c81b9bdd08195b98589b1959604a1b81870152606490fd5b855162461bcd60e51b8152602081860152601360248201527239b0b632903430b9903a379031329037b832b760691b81870152606490fd5b855162461bcd60e51b815260208186015260186024820152771d1bdad95b881cd85b19481a5cc81b9bdd08199d5b99195960421b81870152606490fd5b50903461056357816003193601126105635760ff602092541690519015158152f35b5090346105635780600319360112610563576124cf613a85565b6001600160a01b03168252601f6020528082208054602435939084101561052657506020926114a591613ea0565b5090346105635760203660031901126105635761251d60ff61078b613a85565b6001600160a01b031661252f8161531d565b612537575080f35b7f2b6bf71b58b3583add364b3d9060ebf8019650f65f5be35f5464b9cb3e4ba2d48280a280f35b509034610563578160031936011261056357602090611ab76145a7565b5090346105635781600319360112610563576020906014544210159051908152f35b509034610563576020366003190112610563576125bd60ff61078b613a85565b6001600160a01b03166125cf816152d0565b6125d7575080f35b7ff9b68063b051b82957fa193585681240904fed808db8b30fc5a2d2202c6ed6278280a280f35b5090346105635781600319360112610563576020906015544210159051908152f35b50903461056357816003193601126105635760207f5db9ee0a495bf2e6ff9c91a7834c1ba4fdd244a5e8aa4e537bd38aeae4b073aa9183805260018252808420338552825261267460ff82862054166143c2565b61267c6151d5565b835460ff1916845551338152a180f35b50346105265780600319360112610526576007546126a981613b52565b916126b684519384613b31565b818352601f196126c583613b52565b013660208501375b8181106126e1578351806105918582613da1565b80611c336126ee92613e32565b6126cd565b5082903461052657602036600319011261052657506127156105919135614dc0565b83929192519384938452806020850152830190613d7c565b5090346105635781600319360112610563576012549051602091821c60ff1615158152f35b50903461056357602036600319011261056357602090611ab76001600160a01b0361277b613a85565b166000526006602052604060002054151590565b509134610697576020366003190112610697576127dd903580926127d760ff601454926127bd844210614376565b8780526001602052808820338952602052872054166143c2565b1061440e565b60155580f35b508290346105265760203660031901126105265750803590601d548210156128a45760e08360c061281385613f2c565b5082519261282084613aca565b81549060018060a01b0382169283865265ffffffffffff8360a01c169182602088015260ff808560d01c1615159485838a015260d81c1615159485606089015260018301549788608082015260036002850154948560a084015201549788910152815197885260208801528601526060850152608084015260a083015260c0820152f35b606490602084519162461bcd60e51b8352820152601a60248201527f70757263686173655f696420646f6573206e6f742065786973740000000000006044820152fd5b508234610563578260031936011261056357612901613aa0565b90336001600160a01b0383160361291d57906109be913561429c565b608490602085519162461bcd60e51b8352820152602f60248201527f416363657373436f6e74726f6c3a2063616e206f6e6c792072656e6f756e636560448201526e103937b632b9903337b91039b2b63360891b6064820152fd5b509034610563578160031936011261056357600c5490516001600160a01b039091168152602090f35b5090346105635780600319360112610563578235906024938435918215928315036120bc576129cf84613f2c565b50546001600160a01b03939084163303612c84576129ec85614dc0565b81969115612c6357506001612a0082613f2c565b5001546003612a0e83613f2c565b5001549080612a1d898461433b565b11612bee576111018883612a37936110f78360039761433b565b50015515612a525750506109be9293503390600f5416614cef565b9180600994929454168015612ba25781600f54168451636eb1769f60e11b815230878201528289820152602081604481855afa908115612b98579085918991612b5e575b50612aa9612aee949392612ae99261433b565b875163095ea7b360e01b6020808301919091526001600160a01b039095168c8201908152948501919091529283906040015b03601f198101845283613b31565b614852565b6009541690813b156120bc57829160448694928593519586938492638b1e31c760e01b845289840152338b8401525af1908115612b555750612b32575b5050905080f35b6001600160401b0310612b455780612b2b565b634e487b7160e01b825260419052fd5b513d85823e3d90fd5b9150506020813d8211612b90575b81612b7960209383613b31565b81010312612b8c57518490612aa9612a96565b8780fd5b3d9150612b6c565b86513d8a823e3d90fd5b835162461bcd60e51b81526020818701526021818901527f4e6f2049444f207374616b696e6720636f6e747261637420617661696c61626c6044820152606560f81b6064820152608490fd5b60a48660448c602089519362461bcd60e51b85528401528201527f494e5445524e414c204552524f52203a20616d6f756e7452656465656d65642060448201527f776f756c64206265206c6172676572207468656e20707572636861736520616d6064820152631bdd5b9d60e21b6084820152fd5b835162461bcd60e51b81526020818701529081906111cd90828c0190613d7c565b815162461bcd60e51b81526020818501526014818901527320b2323932b9b99034b9903737ba10313abcb2b960611b6044820152606490fd5b5091346106975781600319360112610697573590612cd9613aa0565b908284526001602052612cf160018286200154613fa1565b828452600160209081528185206001600160a01b039093168086529290528084205460ff1615612d1f578380f35b82845260016020528084208285526020528320600160ff1982541617905533917f2f8788117e7eff1d82e926ec794901d17c78024a50270940304540a733656f0d8480a43880808380f35b50903461056357816003193601126105635760209060145442109051908152f35b5090346105635781600319360112610563576020906003549051908152f35b50903461056357602036600319011261056357612dca60ff610833613d4a565b64ff0000000060125491151560201b169064ff0000000019161760125580f35b50903461056357602036600319011261056357602090611ab7612e0b613a85565b6146cf565b5091346106975760203660031901126106975760209250601d549035109051908152f35b5090346105635781600319360112610563576020906019549051908152f35b50913461069757602036600319011261069757816020936001923581528285522001549051908152f35b50919034610697578260031936011261069757828052602091600183528184203385528352612eb160ff83862054166143c2565b612eb9614cab565b612ec7601554421015615189565b60175460165411613020576010546001600160a01b03908116939084612f45575050509050818080806064612eff4760115490614312565b04818115612f3c575b73aeb39b67f27b641ef9f95fb74f1a46b1ee4efc8390f1156113f9578180808047818115611403573390f1156113f9575080f35b506108fc612f08565b83516370a0823160e01b8082523085830152958382602481845afa918215612b98578892612ff0575b506064612f81612fbe9360115490614312565b049086519163a9059cbb60e01b8684015273aeb39b67f27b641ef9f95fb74f1a46b1ee4efc836024840152604483015260448252612ae982613b16565b6010541691835194855230908501528084602481855afa92831561178d5750849261175b57506109be92503390614cef565b91508382813d8311613019575b6130078183613b31565b81010312612b8c579051906064612f6e565b503d612ffd565b82606492519162461bcd60e51b835282015260196024820152781b5a5b9a5b5d5b481c985a5cd9481b9bdd081c995858da1959603a1b6044820152fd5b50903461056357816003193601126105635760209060ff6012541690519015158152f35b508234610563576080366003190112610563576001600160401b03908035828111611586576130b39036908301613c65565b506130bc613aa0565b506044359182116106975761129d91369101613c0a565b5091903461069757600319928184360112610526576130f0613a85565b9060248035936130fe614cab565b6010546001600160a01b039790881661354b5781516304799eaf60e31b8152878101839052600f60448201526e617262697472756d2d676f65726c6960881b60648201526084810191818303018482015280613179602093604090600f81526e6f7074696d69736d2d676f65726c6960881b60208201520190565b039082816001614849608e1b019381855afa908115613541578691613524575b50156120bc578251631902057760e01b90818152838a8201528381806131de898201604090600f81526e617262697472756d2d676f65726c6960881b60208201520190565b0381865afa90811561351a579084929188916134fd575b506134a7575b84519283918252828b8301528180613232898201604090600f81526e6f7074696d69736d2d676f65726c6960881b60208201520190565b03915afa90811561349d578591613470575b50613423575b613253866149f4565b9061326e613266601854601754906144c8565b831115614a49565b61327c600354831015614a95565b681043561a88293000009761329389841115614ae1565b89871694858752601f8352848720988551808b86829d549384815201908b52868b20928b5b88828210613407575050506132cf9250038b613b31565b879b889c5b8d8c511115613301576132f56132fb918f610cee8f600192610ce891614b2d565b9d6144b9565b9c6132d4565b906133148d610d1689613371969561433b565b868b60ff601254166133f2575b50505061332d42614d28565b9060ff6012541665ffffffffffff89519361334785613aca565b8b8552168784015215158883015289606083015286608083015260a08201528860c0820152614b8d565b858752601f835284872090601d549260001984019384116133e1575050966133bf6133c4927fbec109f7ee137de661c6887caa96653c0545050a9908a3b6eb5190440bbec864979899614497565b614c47565b6133d08260175461433b565b60175582519182524290820152a280f35b634e487b7160e01b89526011905287fd5b6133ff92600f5416614cef565b8a868b613321565b6001929450829193865481520194019101918d929391936132b8565b87600b541633031561324a57606492601a918893519362461bcd60e51b85528401528201527f77726f6e6720636f6e7472616374206f6e204f7074696d69736d0000000000006044820152fd5b6134909150823d8411613496575b6134888183613b31565b81019061483a565b38613244565b503d61347e565b83513d87823e3d90fd5b905089600a541633036134bb5782906131fb565b835162461bcd60e51b8152808a01849052601a818701527f77726f6e6720636f6e7472616374206f6e20417262697472756d0000000000006044820152606490fd5b6135149150833d8511613496576134888183613b31565b386131f5565b85513d89823e3d90fd5b61353b9150833d8511613496576134888183613b31565b38613199565b84513d88823e3d90fd5b815162461bcd60e51b8152602081890152601e818501527f746f6b656e2073616c65206e6f742073657420746f20455448547261646500006044820152606490fd5b50913461069757602080600319360112611586578135906135b2601554421015615189565b60ff60125416613797576135c582613f2c565b50546001600160a01b0392908316330361375d57601654801561371a5760175410156136d7576135f490613f2c565b50926001840154156136965783549160ff8360d01c1661365c57505061ffff60d01b191661010160d01b178255601054849291168061364957508180600281930154818115611403573390f1156113f9575080f35b91506109be925060020154903390614cef565b855162461bcd60e51b81529182015260156024820152741c1d5c98da185cd9481a5cc8199a5b985b1a5e9959605a1b604482015260649150fd5b60649185519162461bcd60e51b8352820152601760248201527f707572636861736520616d6f756e74206973207a65726f0000000000000000006044820152fd5b845162461bcd60e51b8152808501839052601e60248201527f6d696e696d756d20726169736520686173206265656e207265616368656400006044820152606490fd5b855162461bcd60e51b8152808601849052601d60248201527f6e6f206d696e696d756d20726169736520686173206265656e207365740000006044820152606490fd5b845162461bcd60e51b8152808501839052601460248201527330b2323932b9b99034b9903737ba10313abcb2b960611b6044820152606490fd5b9050606492519162461bcd60e51b8352820152601e60248201527f73616c652068617320746f206265206e6f6e2041746f6d6963207377617000006044820152fd5b50903461056357816003193601126105635760209060ff60125460101c1690519015158152f35b50903461056357816003193601126105635760209060165415159051908152f35b509034610563578160031936011261056357602090601b549051908152f35b509034610563578160031936011261056357602090600d549051908152f35b5090346105635781600319360112610563576020906018549051908152f35b5090346105635781600319360112610563576020906014549051908152f35b509034610563576138ad36613b69565b906000805160206158cd8339815191528352600191826020528184203385526020526138de60ff838620541661521e565b839283815b613924575b505050816138f4578280f35b7f448f3bd350ede14a294c062177c5280fe1eae125d16757da21f5f51d6e89daae9160209151908152a181808280f35b8251811015613972576139496001600160a01b036139428386614b2d565b511661526a565b61395d575b613957906144b9565b816138e3565b9361396a613957916144b9565b94905061394e565b6138e8565b503461052657602036600319011261052657506106da602092356149f4565b50903461056357816003193601126105635760209060ff60025460a01c1690519015158152f35b50903461056357816003193601126105635760105490516001600160a01b03909116158152602090f35b50903461056357606036600319011261056357613a0760ff610833613a85565b60018060a01b03166001600160601b0360a01b600c541617600c55602435600d55604435600e5580f35b90508334610697576020366003190112610697573563ffffffff60e01b81168091036106975760209250637965db0b60e01b8114908115613a74575b5015158152f35b6301ffc9a760e01b14905083613a6d565b600435906001600160a01b0382168203613a9b57565b600080fd5b602435906001600160a01b0382168203613a9b57565b35906001600160a01b0382168203613a9b57565b60e081019081106001600160401b03821117613ae557604052565b634e487b7160e01b600052604160045260246000fd5b604081019081106001600160401b03821117613ae557604052565b608081019081106001600160401b03821117613ae557604052565b90601f801991011681019081106001600160401b03821117613ae557604052565b6001600160401b038111613ae55760051b60200190565b602080600319830112613a9b57600435916001600160401b038311613a9b5780602384011215613a9b578260040135613ba181613b52565b93613baf6040519586613b31565b81855260248486019260051b820101928311613a9b57602401905b828210613bd8575050505090565b838091613be484613ab6565b815201910190613bca565b6001600160401b038111613ae557601f01601f191660200190565b81601f82011215613a9b57803590613c2182613bef565b92613c2f6040519485613b31565b82845260208383010111613a9b57816000926020809301838601378301015290565b35906001600160401b0382168203613a9b57565b919091610140908181850312613a9b57604051918201906001600160401b039183811083821117613ae5576040528294813584526020820135838111613a9b5781613cb1918401613c0a565b60208501526040820135838111613a9b5781613cce918401613c0a565b6040850152613cdf60608301613c51565b6060850152613cf060808301613ab6565b6080850152613d0160a08301613ab6565b60a085015260c082013560c085015260e082013560e0850152610100613d28818401613c51565b908501526101209283830135908111613a9b57613d459201613c0a565b910152565b600435908115158203613a9b57565b60005b838110613d6c5750506000910152565b8181015183820152602001613d5c565b90602091613d9581518092818552858086019101613d59565b601f01601f1916010190565b6020908160408183019282815285518094520193019160005b828110613dc8575050505090565b83516001600160a01b031685529381019392810192600101613dba565b601c54811015613e1c57601c6000527f0e4562a10381dec21b205ed72637e6b1b523bdd0e4d4d50af5cd23dd4500a2110190600090565b634e487b7160e01b600052603260045260246000fd5b600754811015613e1c5760076000527fa66cc928b5edb82af9bd49922954155ab7b0942694bea4ce44661d9a8736c6880190600090565b600554811015613e1c5760056000527f036b6384b5eca791c62761152d0c79bb0604c104a5fb6f4eb0703f3154bb3db00190600090565b8054821015613e1c5760005260206000200190600090565b6060600319820112613a9b576004356001600160a01b0381168103613a9b579160243591604435906001600160401b038211613a9b57613efa91600401613c0a565b90565b906040600319830112613a9b5760043591602435906001600160401b038211613a9b57613efa91600401613c0a565b601d54811015613e1c57601d60005260021b7f6d4407e7be21f808e6509aa9fa9143369579dd7d760fe20a2c09680fc146134f0190600090565b6020908160408183019282815285518094520193019160005b828110613f8d575050505090565b835185529381019392810192600101613f7f565b6000818152600191602091838352604093848220338352845260ff858320541615613fcd575050505050565b33855193606085018581106001600160401b03821117614288578752602a8552858501918736843785511561427457603083538551841015614274576078602187015360295b84811161420a57506141c85786519261402b84613b16565b604284528684019460603687378451156141b4576030865384518210156141b45790607860218601536041915b81831161414657505050614104576111cd9386936140e8936140d96048946140b09a519a8b957f416363657373436f6e74726f6c3a206163636f756e74200000000000000000008c8801525180926037880190613d59565b8401917001034b99036b4b9b9b4b733903937b6329607d1b603784015251809386840190613d59565b01036028810187520185613b31565b5192839262461bcd60e51b845260048401526024830190613d7c565b60648587519062461bcd60e51b825280600483015260248201527f537472696e67733a20686578206c656e67746820696e73756666696369656e746044820152fd5b909192600f811660108110156141a0576f181899199a1a9b1b9c1cb0b131b232b360811b901a6141768588614348565b5360041c92801561418c57600019019190614058565b634e487b7160e01b82526011600452602482fd5b634e487b7160e01b83526032600452602483fd5b634e487b7160e01b81526032600452602490fd5b60648688519062461bcd60e51b825280600483015260248201527f537472696e67733a20686578206c656e67746820696e73756666696369656e746044820152fd5b90600f81166010811015614260576f181899199a1a9b1b9c1cb0b131b232b360811b901a6142388389614348565b5360041c90801561424c5760001901614013565b634e487b7160e01b86526011600452602486fd5b634e487b7160e01b87526032600452602487fd5b634e487b7160e01b85526032600452602485fd5b634e487b7160e01b85526041600452602485fd5b906000918083526001602052604083209160018060a01b03169182845260205260ff6040842054166142cd57505050565b8083526001602052604083208284526020526040832060ff1981541690557ff6391f5c32d9c69d2a47ea670b442974b53935d1edc7fd64eb21e047a839171b339380a4565b8181029291811591840414171561432557565b634e487b7160e01b600052601160045260246000fd5b9190820180921161432557565b908151811015613e1c570160200190565b601c54801561437057600181018091116143255790565b50600090565b1561437d57565b60405162461bcd60e51b815260206004820152601a60248201527f746f6b656e2073616c6520616c726561647920737461727465640000000000006044820152606490fd5b156143c957565b60405162461bcd60e51b815260206004820152601960248201527f63616c6c657220686173206e6f742061646d696e20726f6c65000000000000006044820152606490fd5b1561441557565b60405162461bcd60e51b815260206004820152601a60248201527f656e642064617465206265666f726520737461727420646174650000000000006044820152606490fd5b601c54600160401b811015613ae55761447c8160016144939301601c55613de5565b819391549060031b91821b91600019901b19161790565b9055565b805490600160401b821015613ae5578161447c91600161449394018155613ea0565b60001981146143255760010190565b9190820391821161432557565b81156144df570490565b634e487b7160e01b600052601260045260246000fd5b60195480421061437057601b5480156145285761451561451a92426144c8565b6144d5565b600181018091116143255790565b5050600190565b600f546040516370a0823160e01b815230600482015290602090829060249082906001600160a01b03165afa90811561459b5760009161456d575090565b906020823d8211614593575b8161458660209383613b31565b8101031261052657505190565b3d9150614579565b6040513d6000823e3d90fd5b601454421015806145b55790565b50601554421090565b90816020910312613a9b575160ff81168103613a9b5790565b60ff16604d811161432557600a0a90565b6145f760049160135490614312565b600f5460405163313ce56760e01b81529260209184919082906001600160a01b03165afa91821561459b57613efa926146389160009161463e575b506145d7565b906144d5565b61465f915060203d8111614665575b6146578183613b31565b8101906145be565b38614632565b503d61464d565b60018060a01b03166000526020601f81526040600020906040518092839183825491828152019160005283600020936000905b8282106146b557505050613efa92500382613b31565b85548452600195860195879550938101939091019061469f565b60ff60125460081c16156147da57600c546001600160a01b039081169190826146fb575b505050600090565b6040516370a0823160e01b81529116600482018190526020918281602481875afa90811561459b576000916147ad575b50600d5411156147a557819060246040518095819363f6a3f3cf60e01b835260048301525afa90811561459b57600091614779575b509050600e541115614774573880806146f3565b600190565b82813d831161479e575b61478d8183613b31565b810103126105265750518038614760565b503d614783565b505050600190565b908382813d83116147d3575b6147c38183613b31565b810103126105265750513861472b565b503d6147b9565b50600190565b6040516323b872dd60e01b60208201526001600160a01b03928316602482015292909116604483015260648083019390935291815260a08101918183106001600160401b03841117613ae55761483892604052614852565b565b90816020910312613a9b57518015158103613a9b5790565b6040516148cf916001600160a01b031661486b82613afb565b6000806020958685527f5361666545524332303a206c6f772d6c6576656c2063616c6c206661696c656487860152868151910182855af13d15614957573d916148b383613bef565b926148c16040519485613b31565b83523d60008785013e61495b565b80519082821592831561493f575b505050156148e85750565b6084906040519062461bcd60e51b82526004820152602a60248201527f5361666545524332303a204552433230206f7065726174696f6e20646964206e6044820152691bdd081cdd58d8d9595960b21b6064820152fd5b61494f935082018101910161483a565b3882816148dd565b6060915b919290156149bd575081511561496f575090565b3b156149785790565b60405162461bcd60e51b815260206004820152601d60248201527f416464726573733a2063616c6c20746f206e6f6e2d636f6e74726163740000006044820152606490fd5b8251909150156149d05750805190602001fd5b60405162461bcd60e51b8152602060048201529081906111cd906024830190613d7c565b600f5460405163313ce56760e01b81529190602090839060049082906001600160a01b03165afa90811561459b57614a3a614a4092613efa9460009161463e57506145d7565b90614312565b601354906144d5565b15614a5057565b60405162461bcd60e51b815260206004820152601960248201527f616d6f756e74203e20746f6b656e7320617661696c61626c65000000000000006044820152606490fd5b15614a9c57565b60405162461bcd60e51b815260206004820152601760248201527f616d6f756e74203c206d696e696d756d20616d6f756e740000000000000000006044820152606490fd5b15614ae857565b60405162461bcd60e51b815260206004820152601760248201527f616d6f756e74203e206d6178696d756d20616d6f756e740000000000000000006044820152606490fd5b8051821015613e1c5760209160051b010190565b15614b4857565b60405162461bcd60e51b815260206004820152601f60248201527f616d6f756e7420676f6573206f76657220696e646976696475616c206d6178006044820152606490fd5b601d54600160401b811015613ae557806001614bac9201601d55613f2c565b919091614c3157805182546020830151604084015160608501516001600160e01b03199093166001600160a01b03949094169390931760a091821b65ffffffffffff60a01b161792151560d01b60ff60d01b169290921790151560d81b60ff60d81b1617835560808201516001840155810151600283015560c0015160039190910155565b634e487b7160e01b600052600060045260246000fd5b601e54600160401b811015613ae5576001810180601e55811015613e1c57601e6000527f50bb669a95c7b50b7e8a6f09454034b2b14cf2b85c730dca9a539ca82cb6e3500180546001600160a01b0319166001600160a01b03909216919091179055565b60ff60005416614cb757565b60405162461bcd60e51b815260206004820152601060248201526f14185d5cd8589b194e881c185d5cd95960821b6044820152606490fd5b60405163a9059cbb60e01b60208201526001600160a01b039092166024830152604482019290925261483891612ae98260648101612adb565b6601000000000000811015614d425765ffffffffffff1690565b60405162461bcd60e51b815260206004820152601c60248201527f76616c756520646f65736e27742066697420696e2034382062697473000000006044820152606490fd5b60405190614d9482613afb565b601a82527f70757263686173655f696420646f6573206e6f742065786973740000000000006020830152565b601d548110156151385760ff601254166150fb5760155442106150be5760009060ff825416615083576017546016541161504c576003614e0d6001614e0484613f2c565b50015492613f2c565b50015490808210156150105760195492834210614fd257614e30601a548561433b565b4210614f945750601c5480614edc5750601b5442614e4e828661433b565b11614ebe5750614e5e92506144c8565b8015614e905790604051614e7181613afb565b600f81526e726561647920746f2072656465656d60881b602082015290565b90604051614e9d81613afb565b60118152706e6f7468696e6720746f2072656465656d60781b602082015290565b614515614ed292614a3a614ed796426144c8565b6144c8565b614e5e565b909192614eec614ef591426144c8565b601b54906144d5565b908110614f07575090614ed7916144c8565b655af3107a400091614f1b614f2892613de5565b90549060031b1c90614312565b0490808210614f3a57614ed7916144c8565b60405162461bcd60e51b815260206004820152602c60248201527f494e5445524e414c204552524f5220696e2076657374696e6720616d6f756e7460448201526b1031b0b631bab630ba34b7b760a11b6064820152608490fd5b9250505090604051614fa581613afb565b601d81527f76657374696e6720636c696666206e6f74207965742072656163686564000000602082015290565b9250505090604051614fe381613afb565b601e81527f76657374696e6720706572696f64206e6f742079657420737461727465640000602082015290565b50509060405161501f81613afb565b601a81527f616c6c20746f6b656e20616c72656164792072656465656d6564000000000000602082015290565b509060405161505a81613afb565b60198152781b5a5b9a5b5d5b481c985a5cd9481b9bdd081c995858da1959603a1b602082015290565b509060405161509181613afb565b601d81527f746f6b656e2073616c6520636f6e747261637420697320706175736564000000602082015290565b506000906040516150ce81613afb565b601881527f746f6b656e2073616c65206e6f742066696e616c697a65640000000000000000602082015290565b5060009060405161510b81613afb565b601981527f68617320746f206265206e6f6e2041746f6d6963207377617000000000000000602082015290565b50600090613efa614d87565b601d54811061515f5750600090600090600090613efa614d87565b600161516a82613f2c565b50015491615185600361517c84613f2c565b50015492614dc0565b9091565b1561519057565b60405162461bcd60e51b815260206004820152601860248201527f73616c652068617320746f2062652066696e616c697a656400000000000000006044820152606490fd5b60ff60005416156151e257565b60405162461bcd60e51b815260206004820152601460248201527314185d5cd8589b194e881b9bdd081c185d5cd95960621b6044820152606490fd5b1561522557565b60405162461bcd60e51b815260206004820152601c60248201527f63616c6c6572206973206e6f742057686974656c6973744f776e6572000000006044820152606490fd5b6000818152600660205260408120546152cb57600554600160401b8110156152b75790826152a361447c84600160409601600555613e69565b905560055492815260066020522055600190565b634e487b7160e01b82526041600452602482fd5b905090565b6000818152600860205260408120546152cb57600754600160401b8110156152b757908261530961447c84600160409601600755613e32565b905560075492815260086020522055600190565b60008181526008602052604081205490919080156153ee57600019908082018181116153da576007549083820191821161424c578082036153a6575b50505060075480156153925781019061537182613e32565b909182549160031b1b19169055600755815260086020526040812055600190565b634e487b7160e01b84526031600452602484fd5b6153c46153b561447c93613e32565b90549060031b1c928392613e32565b9055845260086020526040842055388080615359565b634e487b7160e01b85526011600452602485fd5b505090565b60008181526006602052604081205490919080156153ee57600019908082018181116153da576005549083820191821161424c57808203615468575b50505060055480156153925781019061544782613e69565b909182549160031b1b19169055600555815260066020526040812055600190565b61548661547761447c93613e69565b90549060031b1c928392613e69565b905584526006602052604084205538808061542f565b60418251036154e657613efa916154de917f19457468657265756d205369676e6564204d6573736167653a0a333200000000600052601c52603c600020615645565b91909161552b565b60405162461bcd60e51b815260206004820152601960248201527f7369676e6174757265206973206e6f74203635206279746573000000000000006044820152606490fd5b600581101561562f578061553c5750565b600181036155895760405162461bcd60e51b815260206004820152601860248201527f45434453413a20696e76616c6964207369676e617475726500000000000000006044820152606490fd5b600281036155d65760405162461bcd60e51b815260206004820152601f60248201527f45434453413a20696e76616c6964207369676e6174757265206c656e677468006044820152606490fd5b6003146155df57565b60405162461bcd60e51b815260206004820152602260248201527f45434453413a20696e76616c6964207369676e6174757265202773272076616c604482015261756560f01b6064820152608490fd5b634e487b7160e01b600052602160045260246000fd5b90604181511460001461566f57615185916020820151906060604084015193015160001a90615679565b5050600090600290565b9291907f7fffffffffffffffffffffffffffffff5d576e7357a4501ddfe92f46681b20a083116156f65791608094939160ff602094604051948552168484015260408301526060820152600093849182805260015afa156156e95781516001600160a01b038116156147da579190565b50604051903d90823e3d90fd5b50505050600090600390565b61574392916040519060208201926001600160601b03199060601b16835260348201523060601b60548201526048815261573b81613b16565b51902061549c565b6002546001600160a01b0391821691161490565b6001600160a01b03808216600081815260086020526040902054929392615820576002549060ff8260a01c1615908115615802575b506157f85781169182151593846157b1575b505050506157ab57600090565b60045490565b6157ed9293945060405160208101916001600160601b03199060601b168252600060348201523060601b60548201526048815261573b81613b16565b16143880808061579e565b5050505060045490565b61581a91506000526006602052604060002054151590565b3861578c565b50505050600090565b909160018060a01b03808316908160005260086020526040600020546158c2576002549160ff8360a01c16159081156158a4575b506158995784911615159283615887575b50505061587b5750600090565b80613efa575060045490565b6158919350615702565b38828161586e565b505050505060045490565b6158bc91506000526006602052604060002054151590565b3861585d565b505050505060009056feb813b807c25079ba97f1770664c6a9e57c59afe74a6295f1ed01c10e3bb6baaea164736f6c6343000813000a2f8788117e7eff1d82e926ec794901d17c78024a50270940304540a733656f0da6eef7e35abe7026729641147f7915573c7e97b47efa546f5f6e3230263bcb493acbad85bd32baf6e5d5ba94bd47682ad030e73e3fc17231cdb7884e58d4e082b813b807c25079ba97f1770664c6a9e57c59afe74a6295f1ed01c10e3bb6baae358823ad0653452618750bed6506f24f63ef58f0cce438e3a379e32873da19d245b3d3a903390c195d0bfd3836d4bf6ddb42d6e2323e6bd9571885c64405cb85",
  "linkReferences": {},
  "deployedLinkReferences": {}
}