{
  "_format": "hh-sol-artifact-1",
  "contractName": "FixedSwap",
  "sourceName": "contracts/FixedSwap.sol",
  "abi": [
    {
      "inputs": [
        {
          "internalType": "address",
          "name": "_tokenAddress",
          "type": "address"
        },
        {
          "internalType": "uint256",
          "name": "_tradeValue",
          "type": "uint256"
        },
        {
          "internalType": "uint256",
          "name": "_tokensForSale",
          "type": "uint256"
        },
        {
          "internalType": "uint256",
          "name": "_startDate",
          "type": "uint256"
        },
        {
          "internalType": "uint256",
          "name": "_endDate",
          "type": "uint256"
        },
        {
          "internalType": "uint256",
          "name": "_individualMinimumAmount",
          "type": "uint256"
        },
        {
          "internalType": "uint256",
          "name": "_individualMaximumAmount",
          "type": "uint256"
        },
        {
          "internalType": "bool",
          "name": "_ignored",
          "type": "bool"
        },
        {
          "internalType": "uint256",
          "name": "_minimumRaise",
          "type": "uint256"
        },
        {
          "internalType": "uint256",
          "name": "_feePercentage",
          "type": "uint256"
        },
        {
          "internalType": "uint32",
          "name": "_flags",
          "type": "uint32"
        },
        {
          "internalType": "address",
          "name": "_erc20TradeAddress",
          "type": "address"
        }
      ],
      "stateMutability": "nonpayable",
      "type": "constructor"
    },
    {
      "anonymous": false,
      "inputs": [
        {
          "indexed": false,
          "internalType": "uint256",
          "name": "count",
          "type": "uint256"
        }
      ],
      "name": "AddedArrayToBlacklist",
      "type": "event"
    },
    {
      "anonymous": false,
      "inputs": [
        {
          "indexed": false,
          "internalType": "uint256",
          "name": "count",
          "type": "uint256"
        }
      ],
      "name": "AddedArrayToWhitelist",
      "type": "event"
    },
    {
      "anonymous": false,
      "inputs": [
        {
          "indexed": true,
          "internalType": "address",
          "name": "account",
          "type": "address"
        }
      ],
      "name": "AddedToBlacklist",
      "type": "event"
    },
    {
      "anonymous": false,
      "inputs": [
        {
          "indexed": true,
          "internalType": "address",
          "name": "account",
          "type": "address"
        }
      ],
      "name": "AddedToWhitelist",
      "type": "event"
    },
    {
      "anonymous": false,
      "inputs": [
        {
          "indexed": false,
          "internalType": "address",
          "name": "account",
          "type": "address"
        }
      ],
      "name": "Paused",
      "type": "event"
    },
    {
      "anonymous": false,
      "inputs": [
        {
          "indexed": false,
          "internalType": "uint256",
          "name": "amount",
          "type": "uint256"
        },
        {
          "indexed": true,
          "internalType": "address",
          "name": "purchaser",
          "type": "address"
        },
        {
          "indexed": false,
          "internalType": "uint256",
          "name": "timestamp",
          "type": "uint256"
        }
      ],
      "name": "PurchaseEvent",
      "type": "event"
    },
    {
      "anonymous": false,
      "inputs": [
        {
          "indexed": true,
          "internalType": "address",
          "name": "account",
          "type": "address"
        }
      ],
      "name": "RemovedFromBlacklist",
      "type": "event"
    },
    {
      "anonymous": false,
      "inputs": [
        {
          "indexed": true,
          "internalType": "address",
          "name": "account",
          "type": "address"
        }
      ],
      "name": "RemovedFromWhitelist",
      "type": "event"
    },
    {
      "anonymous": false,
      "inputs": [
        {
          "indexed": true,
          "internalType": "bytes32",
          "name": "role",
          "type": "bytes32"
        },
        {
          "indexed": true,
          "internalType": "bytes32",
          "name": "previousAdminRole",
          "type": "bytes32"
        },
        {
          "indexed": true,
          "internalType": "bytes32",
          "name": "newAdminRole",
          "type": "bytes32"
        }
      ],
      "name": "RoleAdminChanged",
      "type": "event"
    },
    {
      "anonymous": false,
      "inputs": [
        {
          "indexed": true,
          "internalType": "bytes32",
          "name": "role",
          "type": "bytes32"
        },
        {
          "indexed": true,
          "internalType": "address",
          "name": "account",
          "type": "address"
        },
        {
          "indexed": true,
          "internalType": "address",
          "name": "sender",
          "type": "address"
        }
      ],
      "name": "RoleGranted",
      "type": "event"
    },
    {
      "anonymous": false,
      "inputs": [
        {
          "indexed": true,
          "internalType": "bytes32",
          "name": "role",
          "type": "bytes32"
        },
        {
          "indexed": true,
          "internalType": "address",
          "name": "account",
          "type": "address"
        },
        {
          "indexed": true,
          "internalType": "address",
          "name": "sender",
          "type": "address"
        }
      ],
      "name": "RoleRevoked",
      "type": "event"
    },
    {
      "anonymous": false,
      "inputs": [
        {
          "indexed": false,
          "internalType": "bool",
          "name": "hasWhitelisting",
          "type": "bool"
        }
      ],
      "name": "SetHasWhitelisting",
      "type": "event"
    },
    {
      "anonymous": false,
      "inputs": [
        {
          "indexed": false,
          "internalType": "address",
          "name": "account",
          "type": "address"
        }
      ],
      "name": "Unpaused",
      "type": "event"
    },
    {
      "inputs": [],
      "name": "DECIMALS_PERCENT_MUL",
      "outputs": [
        {
          "internalType": "uint256",
          "name": "",
          "type": "uint256"
        }
      ],
      "stateMutability": "view",
      "type": "function"
    },
    {
      "inputs": [],
      "name": "DEFAULT_ADMIN_ROLE",
      "outputs": [
        {
          "internalType": "bytes32",
          "name": "",
          "type": "bytes32"
        }
      ],
      "stateMutability": "view",
      "type": "function"
    },
    {
      "inputs": [],
      "name": "FEE_ADDRESS",
      "outputs": [
        {
          "internalType": "address",
          "name": "",
          "type": "address"
        }
      ],
      "stateMutability": "view",
      "type": "function"
    },
    {
      "inputs": [],
      "name": "PolsStakeAddress",
      "outputs": [
        {
          "internalType": "address",
          "name": "",
          "type": "address"
        }
      ],
      "stateMutability": "view",
      "type": "function"
    },
    {
      "inputs": [],
      "name": "PolsStakeAmount",
      "outputs": [
        {
          "internalType": "uint256",
          "name": "",
          "type": "uint256"
        }
      ],
      "stateMutability": "view",
      "type": "function"
    },
    {
      "inputs": [],
      "name": "PolsStakeRewards",
      "outputs": [
        {
          "internalType": "uint256",
          "name": "",
          "type": "uint256"
        }
      ],
      "stateMutability": "view",
      "type": "function"
    },
    {
      "inputs": [],
      "name": "WHITELIST_OWNER_ROLE",
      "outputs": [
        {
          "internalType": "bytes32",
          "name": "",
          "type": "bytes32"
        }
      ],
      "stateMutability": "view",
      "type": "function"
    },
    {
      "inputs": [
        {
          "internalType": "address[]",
          "name": "_addresses",
          "type": "address[]"
        }
      ],
      "name": "addArrayToBlacklist",
      "outputs": [],
      "stateMutability": "nonpayable",
      "type": "function"
    },
    {
      "inputs": [
        {
          "internalType": "address[]",
          "name": "_addresses",
          "type": "address[]"
        }
      ],
      "name": "addArrayToWhitelist",
      "outputs": [],
      "stateMutability": "nonpayable",
      "type": "function"
    },
    {
      "inputs": [
        {
          "internalType": "address",
          "name": "_address",
          "type": "address"
        }
      ],
      "name": "addToBlacklist",
      "outputs": [],
      "stateMutability": "nonpayable",
      "type": "function"
    },
    {
      "inputs": [
        {
          "internalType": "address",
          "name": "_address",
          "type": "address"
        }
      ],
      "name": "addToWhitelist",
      "outputs": [],
      "stateMutability": "nonpayable",
      "type": "function"
    },
    {
      "inputs": [],
      "name": "availableTokens",
      "outputs": [
        {
          "internalType": "uint256",
          "name": "",
          "type": "uint256"
        }
      ],
      "stateMutability": "view",
      "type": "function"
    },
    {
      "inputs": [
        {
          "internalType": "uint256",
          "name": "",
          "type": "uint256"
        }
      ],
      "name": "buyers",
      "outputs": [
        {
          "internalType": "address",
          "name": "",
          "type": "address"
        }
      ],
      "stateMutability": "view",
      "type": "function"
    },
    {
      "inputs": [
        {
          "internalType": "uint256",
          "name": "_amount",
          "type": "uint256"
        }
      ],
      "name": "cost",
      "outputs": [
        {
          "internalType": "uint256",
          "name": "",
          "type": "uint256"
        }
      ],
      "stateMutability": "view",
      "type": "function"
    },
    {
      "inputs": [
        {
          "internalType": "address",
          "name": "_account",
          "type": "address"
        },
        {
          "internalType": "uint256",
          "name": "_accountMaximunAllocation",
          "type": "uint256"
        },
        {
          "internalType": "bytes",
          "name": "_signature",
          "type": "bytes"
        }
      ],
      "name": "determineAccountMaximunAllocation",
      "outputs": [
        {
          "internalType": "uint256",
          "name": "",
          "type": "uint256"
        }
      ],
      "stateMutability": "view",
      "type": "function"
    },
    {
      "inputs": [],
      "name": "endDate",
      "outputs": [
        {
          "internalType": "uint256",
          "name": "",
          "type": "uint256"
        }
      ],
      "stateMutability": "view",
      "type": "function"
    },
    {
      "inputs": [],
      "name": "erc20",
      "outputs": [
        {
          "internalType": "contract IERC20",
          "name": "",
          "type": "address"
        }
      ],
      "stateMutability": "view",
      "type": "function"
    },
    {
      "inputs": [],
      "name": "erc20TradeIn",
      "outputs": [
        {
          "internalType": "contract IERC20",
          "name": "",
          "type": "address"
        }
      ],
      "stateMutability": "view",
      "type": "function"
    },
    {
      "inputs": [],
      "name": "feePercentage",
      "outputs": [
        {
          "internalType": "uint256",
          "name": "",
          "type": "uint256"
        }
      ],
      "stateMutability": "view",
      "type": "function"
    },
    {
      "inputs": [
        {
          "internalType": "uint256",
          "name": "_amount",
          "type": "uint256"
        }
      ],
      "name": "fund",
      "outputs": [],
      "stateMutability": "nonpayable",
      "type": "function"
    },
    {
      "inputs": [],
      "name": "getAPIVersion",
      "outputs": [
        {
          "internalType": "uint32",
          "name": "API_VERSION",
          "type": "uint32"
        }
      ],
      "stateMutability": "pure",
      "type": "function"
    },
    {
      "inputs": [],
      "name": "getBlacklistedAddresses",
      "outputs": [
        {
          "internalType": "address[]",
          "name": "",
          "type": "address[]"
        }
      ],
      "stateMutability": "view",
      "type": "function"
    },
    {
      "inputs": [],
      "name": "getBuyers",
      "outputs": [
        {
          "internalType": "address[]",
          "name": "",
          "type": "address[]"
        }
      ],
      "stateMutability": "view",
      "type": "function"
    },
    {
      "inputs": [],
      "name": "getCurrentSchedule",
      "outputs": [
        {
          "internalType": "uint256",
          "name": "schedule",
          "type": "uint256"
        }
      ],
      "stateMutability": "view",
      "type": "function"
    },
    {
      "inputs": [
        {
          "internalType": "address",
          "name": "_address",
          "type": "address"
        }
      ],
      "name": "getMyPurchases",
      "outputs": [
        {
          "internalType": "uint256[]",
          "name": "",
          "type": "uint256[]"
        }
      ],
      "stateMutability": "view",
      "type": "function"
    },
    {
      "inputs": [],
      "name": "getMyPurchases_msgSender",
      "outputs": [
        {
          "internalType": "uint256[]",
          "name": "",
          "type": "uint256[]"
        }
      ],
      "stateMutability": "view",
      "type": "function"
    },
    {
      "inputs": [
        {
          "internalType": "uint256",
          "name": "purchase_id",
          "type": "uint256"
        }
      ],
      "name": "getPurchase",
      "outputs": [
        {
          "internalType": "uint256",
          "name": "amount",
          "type": "uint256"
        },
        {
          "internalType": "address",
          "name": "purchaser",
          "type": "address"
        },
        {
          "internalType": "uint256",
          "name": "costAmount",
          "type": "uint256"
        },
        {
          "internalType": "uint48",
          "name": "timestamp",
          "type": "uint48"
        },
        {
          "internalType": "bool",
          "name": "wasFinalized",
          "type": "bool"
        },
        {
          "internalType": "bool",
          "name": "reverted",
          "type": "bool"
        },
        {
          "internalType": "uint256",
          "name": "amountRedeemed",
          "type": "uint256"
        }
      ],
      "stateMutability": "view",
      "type": "function"
    },
    {
      "inputs": [],
      "name": "getPurchasesCount",
      "outputs": [
        {
          "internalType": "uint256",
          "name": "count",
          "type": "uint256"
        }
      ],
      "stateMutability": "view",
      "type": "function"
    },
    {
      "inputs": [
        {
          "internalType": "uint256",
          "name": "purchase_id",
          "type": "uint256"
        }
      ],
      "name": "getRedeemStatus",
      "outputs": [
        {
          "internalType": "uint256",
          "name": "amount",
          "type": "uint256"
        },
        {
          "internalType": "uint256",
          "name": "amountRedeemed",
          "type": "uint256"
        },
        {
          "internalType": "uint256",
          "name": "vestAmount",
          "type": "uint256"
        },
        {
          "internalType": "string",
          "name": "message",
          "type": "string"
        }
      ],
      "stateMutability": "view",
      "type": "function"
    },
    {
      "inputs": [
        {
          "internalType": "uint256",
          "name": "purchase_id",
          "type": "uint256"
        }
      ],
      "name": "getRedeemableTokensAmount",
      "outputs": [
        {
          "internalType": "uint256",
          "name": "amount",
          "type": "uint256"
        },
        {
          "internalType": "string",
          "name": "message",
          "type": "string"
        }
      ],
      "stateMutability": "view",
      "type": "function"
    },
    {
      "inputs": [
        {
          "internalType": "bytes32",
          "name": "role",
          "type": "bytes32"
        }
      ],
      "name": "getRoleAdmin",
      "outputs": [
        {
          "internalType": "bytes32",
          "name": "",
          "type": "bytes32"
        }
      ],
      "stateMutability": "view",
      "type": "function"
    },
    {
      "inputs": [],
      "name": "getWhitelistedAddresses",
      "outputs": [
        {
          "internalType": "address[]",
          "name": "",
          "type": "address[]"
        }
      ],
      "stateMutability": "view",
      "type": "function"
    },
    {
      "inputs": [
        {
          "internalType": "bytes32",
          "name": "role",
          "type": "bytes32"
        },
        {
          "internalType": "address",
          "name": "account",
          "type": "address"
        }
      ],
      "name": "grantRole",
      "outputs": [],
      "stateMutability": "nonpayable",
      "type": "function"
    },
    {
      "inputs": [],
      "name": "hasFinalized",
      "outputs": [
        {
          "internalType": "bool",
          "name": "",
          "type": "bool"
        }
      ],
      "stateMutability": "view",
      "type": "function"
    },
    {
      "inputs": [],
      "name": "hasMinimumAmount",
      "outputs": [
        {
          "internalType": "bool",
          "name": "",
          "type": "bool"
        }
      ],
      "stateMutability": "view",
      "type": "function"
    },
    {
      "inputs": [],
      "name": "hasMinimumRaise",
      "outputs": [
        {
          "internalType": "bool",
          "name": "",
          "type": "bool"
        }
      ],
      "stateMutability": "view",
      "type": "function"
    },
    {
      "inputs": [
        {
          "internalType": "bytes32",
          "name": "role",
          "type": "bytes32"
        },
        {
          "internalType": "address",
          "name": "account",
          "type": "address"
        }
      ],
      "name": "hasRole",
      "outputs": [
        {
          "internalType": "bool",
          "name": "",
          "type": "bool"
        }
      ],
      "stateMutability": "view",
      "type": "function"
    },
    {
      "inputs": [],
      "name": "hasStarted",
      "outputs": [
        {
          "internalType": "bool",
          "name": "",
          "type": "bool"
        }
      ],
      "stateMutability": "view",
      "type": "function"
    },
    {
      "inputs": [],
      "name": "hasWhitelisting",
      "outputs": [
        {
          "internalType": "bool",
          "name": "",
          "type": "bool"
        }
      ],
      "stateMutability": "view",
      "type": "function"
    },
    {
      "inputs": [],
      "name": "individualMaximumAmount",
      "outputs": [
        {
          "internalType": "uint256",
          "name": "",
          "type": "uint256"
        }
      ],
      "stateMutability": "view",
      "type": "function"
    },
    {
      "inputs": [],
      "name": "individualMinimumAmount",
      "outputs": [
        {
          "internalType": "uint256",
          "name": "",
          "type": "uint256"
        }
      ],
      "stateMutability": "view",
      "type": "function"
    },
    {
      "inputs": [
        {
          "internalType": "address",
          "name": "_account",
          "type": "address"
        }
      ],
      "name": "isAddressPOLSWhitelisted",
      "outputs": [
        {
          "internalType": "bool",
          "name": "",
          "type": "bool"
        }
      ],
      "stateMutability": "view",
      "type": "function"
    },
    {
      "inputs": [
        {
          "internalType": "address",
          "name": "_address",
          "type": "address"
        }
      ],
      "name": "isBlacklisted",
      "outputs": [
        {
          "internalType": "bool",
          "name": "",
          "type": "bool"
        }
      ],
      "stateMutability": "view",
      "type": "function"
    },
    {
      "inputs": [
        {
          "internalType": "uint256",
          "name": "purchase_id",
          "type": "uint256"
        }
      ],
      "name": "isBuyer",
      "outputs": [
        {
          "internalType": "bool",
          "name": "",
          "type": "bool"
        }
      ],
      "stateMutability": "view",
      "type": "function"
    },
    {
      "inputs": [],
      "name": "isETHTrade",
      "outputs": [
        {
          "internalType": "bool",
          "name": "",
          "type": "bool"
        }
      ],
      "stateMutability": "view",
      "type": "function"
    },
    {
      "inputs": [],
      "name": "isOpen",
      "outputs": [
        {
          "internalType": "bool",
          "name": "",
          "type": "bool"
        }
      ],
      "stateMutability": "view",
      "type": "function"
    },
    {
      "inputs": [],
      "name": "isPOLSWhitelisted",
      "outputs": [
        {
          "internalType": "bool",
          "name": "",
          "type": "bool"
        }
      ],
      "stateMutability": "view",
      "type": "function"
    },
    {
      "inputs": [],
      "name": "isPreStart",
      "outputs": [
        {
          "internalType": "bool",
          "name": "",
          "type": "bool"
        }
      ],
      "stateMutability": "view",
      "type": "function"
    },
    {
      "inputs": [],
      "name": "isSaleFunded",
      "outputs": [
        {
          "internalType": "bool",
          "name": "",
          "type": "bool"
        }
      ],
      "stateMutability": "view",
      "type": "function"
    },
    {
      "inputs": [
        {
          "internalType": "address",
          "name": "_userAccountAaddress",
          "type": "address"
        },
        {
          "internalType": "uint256",
          "name": "_accountMaximunAllocation",
          "type": "uint256"
        },
        {
          "internalType": "bytes",
          "name": "signature",
          "type": "bytes"
        }
      ],
      "name": "isSignerForAddressMaxAlloc",
      "outputs": [
        {
          "internalType": "bool",
          "name": "",
          "type": "bool"
        }
      ],
      "stateMutability": "view",
      "type": "function"
    },
    {
      "inputs": [
        {
          "internalType": "bytes32",
          "name": "hash",
          "type": "bytes32"
        },
        {
          "internalType": "bytes",
          "name": "signature",
          "type": "bytes"
        }
      ],
      "name": "isSignerFromBytes32",
      "outputs": [
        {
          "internalType": "bool",
          "name": "",
          "type": "bool"
        }
      ],
      "stateMutability": "view",
      "type": "function"
    },
    {
      "inputs": [],
      "name": "isTokenSwapAtomic",
      "outputs": [
        {
          "internalType": "bool",
          "name": "",
          "type": "bool"
        }
      ],
      "stateMutability": "view",
      "type": "function"
    },
    {
      "inputs": [
        {
          "internalType": "address",
          "name": "_address",
          "type": "address"
        }
      ],
      "name": "isWhitelisted",
      "outputs": [
        {
          "internalType": "bool",
          "name": "",
          "type": "bool"
        }
      ],
      "stateMutability": "view",
      "type": "function"
    },
    {
      "inputs": [],
      "name": "minimumRaise",
      "outputs": [
        {
          "internalType": "uint256",
          "name": "",
          "type": "uint256"
        }
      ],
      "stateMutability": "view",
      "type": "function"
    },
    {
      "inputs": [],
      "name": "minimumRaiseAchieved",
      "outputs": [
        {
          "internalType": "bool",
          "name": "",
          "type": "bool"
        }
      ],
      "stateMutability": "view",
      "type": "function"
    },
    {
      "inputs": [],
      "name": "minimumRaiseNotAchieved",
      "outputs": [
        {
          "internalType": "bool",
          "name": "",
          "type": "bool"
        }
      ],
      "stateMutability": "view",
      "type": "function"
    },
    {
      "inputs": [
        {
          "internalType": "address",
          "name": "",
          "type": "address"
        },
        {
          "internalType": "uint256",
          "name": "",
          "type": "uint256"
        }
      ],
      "name": "myPurchases",
      "outputs": [
        {
          "internalType": "uint256",
          "name": "",
          "type": "uint256"
        }
      ],
      "stateMutability": "view",
      "type": "function"
    },
    {
      "inputs": [],
      "name": "pause",
      "outputs": [],
      "stateMutability": "nonpayable",
      "type": "function"
    },
    {
      "inputs": [],
      "name": "paused",
      "outputs": [
        {
          "internalType": "bool",
          "name": "",
          "type": "bool"
        }
      ],
      "stateMutability": "view",
      "type": "function"
    },
    {
      "inputs": [
        {
          "internalType": "uint256",
          "name": "purchase_id",
          "type": "uint256"
        }
      ],
      "name": "purchaseExists",
      "outputs": [
        {
          "internalType": "bool",
          "name": "",
          "type": "bool"
        }
      ],
      "stateMutability": "view",
      "type": "function"
    },
    {
      "inputs": [
        {
          "internalType": "uint256",
          "name": "",
          "type": "uint256"
        }
      ],
      "name": "purchases",
      "outputs": [
        {
          "internalType": "address",
          "name": "purchaser",
          "type": "address"
        },
        {
          "internalType": "uint48",
          "name": "timestamp",
          "type": "uint48"
        },
        {
          "internalType": "bool",
          "name": "wasFinalized",
          "type": "bool"
        },
        {
          "internalType": "bool",
          "name": "reverted",
          "type": "bool"
        },
        {
          "internalType": "uint256",
          "name": "amount",
          "type": "uint256"
        },
        {
          "internalType": "uint256",
          "name": "costAmount",
          "type": "uint256"
        },
        {
          "internalType": "uint256",
          "name": "amountRedeemed",
          "type": "uint256"
        }
      ],
      "stateMutability": "view",
      "type": "function"
    },
    {
      "inputs": [
        {
          "internalType": "bytes32",
          "name": "hash",
          "type": "bytes32"
        },
        {
          "internalType": "bytes",
          "name": "signature",
          "type": "bytes"
        }
      ],
      "name": "recoverSignerAddressFromBytes32",
      "outputs": [
        {
          "internalType": "address",
          "name": "",
          "type": "address"
        }
      ],
      "stateMutability": "pure",
      "type": "function"
    },
    {
      "inputs": [
        {
          "internalType": "uint256",
          "name": "purchase_id",
          "type": "uint256"
        }
      ],
      "name": "redeemGivenMinimumGoalNotAchieved",
      "outputs": [],
      "stateMutability": "nonpayable",
      "type": "function"
    },
    {
      "inputs": [
        {
          "internalType": "uint256",
          "name": "purchase_id",
          "type": "uint256"
        }
      ],
      "name": "redeemTokens",
      "outputs": [],
      "stateMutability": "nonpayable",
      "type": "function"
    },
    {
      "inputs": [
        {
          "internalType": "address",
          "name": "_address",
          "type": "address"
        }
      ],
      "name": "removeFromBlacklist",
      "outputs": [],
      "stateMutability": "nonpayable",
      "type": "function"
    },
    {
      "inputs": [
        {
          "internalType": "address",
          "name": "_address",
          "type": "address"
        }
      ],
      "name": "removeFromWhitelist",
      "outputs": [],
      "stateMutability": "nonpayable",
      "type": "function"
    },
    {
      "inputs": [
        {
          "internalType": "address",
          "name": "_tokenAddress",
          "type": "address"
        },
        {
          "internalType": "address",
          "name": "_to",
          "type": "address"
        }
      ],
      "name": "removeOtherERC20Tokens",
      "outputs": [],
      "stateMutability": "nonpayable",
      "type": "function"
    },
    {
      "inputs": [
        {
          "internalType": "bytes32",
          "name": "role",
          "type": "bytes32"
        },
        {
          "internalType": "address",
          "name": "account",
          "type": "address"
        }
      ],
      "name": "renounceRole",
      "outputs": [],
      "stateMutability": "nonpayable",
      "type": "function"
    },
    {
      "inputs": [
        {
          "internalType": "bytes32",
          "name": "role",
          "type": "bytes32"
        },
        {
          "internalType": "address",
          "name": "account",
          "type": "address"
        }
      ],
      "name": "revokeRole",
      "outputs": [],
      "stateMutability": "nonpayable",
      "type": "function"
    },
    {
      "inputs": [],
      "name": "safePullETH",
      "outputs": [],
      "stateMutability": "nonpayable",
      "type": "function"
    },
    {
      "inputs": [],
      "name": "safePullSaleToken",
      "outputs": [],
      "stateMutability": "nonpayable",
      "type": "function"
    },
    {
      "inputs": [],
      "name": "safePullTradeToken",
      "outputs": [],
      "stateMutability": "nonpayable",
      "type": "function"
    },
    {
      "inputs": [
        {
          "internalType": "uint256",
          "name": "_endDate",
          "type": "uint256"
        }
      ],
      "name": "setEndDate",
      "outputs": [],
      "stateMutability": "nonpayable",
      "type": "function"
    },
    {
      "inputs": [
        {
          "internalType": "bool",
          "name": "_hasWhitelisting",
          "type": "bool"
        }
      ],
      "name": "setHasWhitelisting",
      "outputs": [],
      "stateMutability": "nonpayable",
      "type": "function"
    },
    {
      "inputs": [
        {
          "internalType": "uint256",
          "name": "_individualMaximumAmount",
          "type": "uint256"
        }
      ],
      "name": "setIndividualMaximumAmount",
      "outputs": [],
      "stateMutability": "nonpayable",
      "type": "function"
    },
    {
      "inputs": [
        {
          "internalType": "address",
          "name": "_PolsStakeAddress",
          "type": "address"
        },
        {
          "internalType": "uint256",
          "name": "_PolsStakeAmount",
          "type": "uint256"
        },
        {
          "internalType": "uint256",
          "name": "_PolsStakeRewards",
          "type": "uint256"
        }
      ],
      "name": "setPolsStakingRequirement",
      "outputs": [],
      "stateMutability": "nonpayable",
      "type": "function"
    },
    {
      "inputs": [
        {
          "internalType": "address",
          "name": "_signerPublicAddress",
          "type": "address"
        }
      ],
      "name": "setSignerPublicAddress",
      "outputs": [],
      "stateMutability": "nonpayable",
      "type": "function"
    },
    {
      "inputs": [
        {
          "internalType": "address",
          "name": "_stakingRewardsAddress",
          "type": "address"
        }
      ],
      "name": "setStakingRewards",
      "outputs": [],
      "stateMutability": "nonpayable",
      "type": "function"
    },
    {
      "inputs": [
        {
          "internalType": "uint256",
          "name": "_startDate",
          "type": "uint256"
        }
      ],
      "name": "setStartDate",
      "outputs": [],
      "stateMutability": "nonpayable",
      "type": "function"
    },
    {
      "inputs": [
        {
          "internalType": "uint256",
          "name": "_vestingStart",
          "type": "uint256"
        },
        {
          "internalType": "uint256",
          "name": "_vestingCliff",
          "type": "uint256"
        },
        {
          "internalType": "uint256",
          "name": "_vestingDuration",
          "type": "uint256"
        },
        {
          "internalType": "uint256[]",
          "name": "_vestingSchedule",
          "type": "uint256[]"
        }
      ],
      "name": "setVesting",
      "outputs": [],
      "stateMutability": "nonpayable",
      "type": "function"
    },
    {
      "inputs": [],
      "name": "signerPublicAddress",
      "outputs": [
        {
          "internalType": "address",
          "name": "",
          "type": "address"
        }
      ],
      "stateMutability": "view",
      "type": "function"
    },
    {
      "inputs": [],
      "name": "stakingRewardsAddress",
      "outputs": [
        {
          "internalType": "address",
          "name": "",
          "type": "address"
        }
      ],
      "stateMutability": "view",
      "type": "function"
    },
    {
      "inputs": [],
      "name": "startDate",
      "outputs": [
        {
          "internalType": "uint256",
          "name": "",
          "type": "uint256"
        }
      ],
      "stateMutability": "view",
      "type": "function"
    },
    {
      "inputs": [
        {
          "internalType": "bytes4",
          "name": "interfaceId",
          "type": "bytes4"
        }
      ],
      "name": "supportsInterface",
      "outputs": [
        {
          "internalType": "bool",
          "name": "",
          "type": "bool"
        }
      ],
      "stateMutability": "view",
      "type": "function"
    },
    {
      "inputs": [
        {
          "internalType": "uint256",
          "name": "_amount",
          "type": "uint256"
        },
        {
          "internalType": "bytes",
          "name": "_signature",
          "type": "bytes"
        }
      ],
      "name": "swap",
      "outputs": [],
      "stateMutability": "payable",
      "type": "function"
    },
    {
      "inputs": [
        {
          "internalType": "uint256",
          "name": "_amount",
          "type": "uint256"
        },
        {
          "internalType": "uint256",
          "name": "_accountMaxAmount",
          "type": "uint256"
        },
        {
          "internalType": "bytes",
          "name": "_signature",
          "type": "bytes"
        }
      ],
      "name": "swapWithSig",
      "outputs": [],
      "stateMutability": "payable",
      "type": "function"
    },
    {
      "inputs": [],
      "name": "tokensAllocated",
      "outputs": [
        {
          "internalType": "uint256",
          "name": "",
          "type": "uint256"
        }
      ],
      "stateMutability": "view",
      "type": "function"
    },
    {
      "inputs": [],
      "name": "tokensForSale",
      "outputs": [
        {
          "internalType": "uint256",
          "name": "",
          "type": "uint256"
        }
      ],
      "stateMutability": "view",
      "type": "function"
    },
    {
      "inputs": [],
      "name": "tokensLeft",
      "outputs": [
        {
          "internalType": "uint256",
          "name": "",
          "type": "uint256"
        }
      ],
      "stateMutability": "view",
      "type": "function"
    },
    {
      "inputs": [],
      "name": "totalRaiseCost",
      "outputs": [
        {
          "internalType": "uint256",
          "name": "",
          "type": "uint256"
        }
      ],
      "stateMutability": "view",
      "type": "function"
    },
    {
      "inputs": [],
      "name": "tradeValue",
      "outputs": [
        {
          "internalType": "uint256",
          "name": "",
          "type": "uint256"
        }
      ],
      "stateMutability": "view",
      "type": "function"
    },
    {
      "inputs": [
        {
          "internalType": "uint256",
          "name": "purchase_id",
          "type": "uint256"
        },
        {
          "internalType": "bool",
          "name": "stake",
          "type": "bool"
        }
      ],
      "name": "transferTokens",
      "outputs": [],
      "stateMutability": "nonpayable",
      "type": "function"
    },
    {
      "inputs": [],
      "name": "unpause",
      "outputs": [],
      "stateMutability": "nonpayable",
      "type": "function"
    },
    {
      "inputs": [],
      "name": "unsoldTokensRedeemed",
      "outputs": [
        {
          "internalType": "bool",
          "name": "",
          "type": "bool"
        }
      ],
      "stateMutability": "view",
      "type": "function"
    },
    {
      "inputs": [],
      "name": "vestingCliff",
      "outputs": [
        {
          "internalType": "uint256",
          "name": "",
          "type": "uint256"
        }
      ],
      "stateMutability": "view",
      "type": "function"
    },
    {
      "inputs": [],
      "name": "vestingDuration",
      "outputs": [
        {
          "internalType": "uint256",
          "name": "",
          "type": "uint256"
        }
      ],
      "stateMutability": "view",
      "type": "function"
    },
    {
      "inputs": [
        {
          "internalType": "uint256",
          "name": "",
          "type": "uint256"
        }
      ],
      "name": "vestingSchedule",
      "outputs": [
        {
          "internalType": "uint256",
          "name": "",
          "type": "uint256"
        }
      ],
      "stateMutability": "view",
      "type": "function"
    },
    {
      "inputs": [],
      "name": "vestingStart",
      "outputs": [
        {
          "internalType": "uint256",
          "name": "",
          "type": "uint256"
        }
      ],
      "stateMutability": "view",
      "type": "function"
    },
    {
      "inputs": [],
      "name": "vestingTime",
      "outputs": [
        {
          "internalType": "uint256",
          "name": "",
          "type": "uint256"
        }
      ],
      "stateMutability": "view",
      "type": "function"
    },
    {
      "inputs": [],
      "name": "withdrawFunds",
      "outputs": [],
      "stateMutability": "nonpayable",
      "type": "function"
    },
    {
      "inputs": [],
      "name": "withdrawUnsoldTokens",
      "outputs": [],
      "stateMutability": "nonpayable",
      "type": "function"
    }
  ],
  "bytecode": "0x6080346200070e57601f6200582538819003918201601f19168301916001600160401b038311848410176200071357808492610180946040528339810103126200070e576200004e8162000729565b90602081015191604082015192606083015160808401519160a08501519560c08601519360e0870151801515036200070e5761010087015193610120880151986101408901519863ffffffff8a168a036200070e57610160620000b2910162000729565b6000805460ff191681556002805460ff60a01b19908116909155338252600080516020620057e583398151915260205260409091205491989160ff1615620006ba575b7389b41a6e5ab74fcb9771a3356986185f67f9214c600052600080516020620057e5833981519152602052600080516020620057a58339815191525460ff161562000645575b60028054919091168b8216151560a01b60ff60a01b161790556003829055336000908152600080516020620057e5833981519152602052604090205460ff16156200060057818110620005bb5760045533600090815260008051602062005785833981519152602052604090205460ff161562000578575b7389b41a6e5ab74fcb9771a3356986185f67f9214c60005260008051602062005785833981519152602052600080516020620058058339815191525460ff161562000514575b81421015620004cf5783156200049657831062000451578285116200040c5760638911620003c757600863ffffffff891610156200038257601281905533600090815260008051602062005785833981519152602052604090205460ff16156200033d57811115620002f8576013556016556011556001841615620002ef5750600160ff1960105416176010555b600d80546001600160a01b03199081166001600160a01b039485161790915591169081620002df575b505061ff0060046010549216151560081b169061ff00191617601055600f5560405161502690816200073f8239f35b600e541617600e553880620002b0565b60145562000287565b60405162461bcd60e51b815260206004820152601a60248201527f656e642064617465206265666f726520737461727420646174650000000000006044820152606490fd5b60405162461bcd60e51b815260206004820152601960248201527f63616c6c657220686173206e6f742061646d696e20726f6c65000000000000006044820152606490fd5b60405162461bcd60e51b815260206004820152601560248201527f756e737570706f7274656420666c6167732073657400000000000000000000006044820152606490fd5b60405162461bcd60e51b815260206004820152601e60248201527f4665652050657263656e746167652068617320746f206265203c2031303000006044820152606490fd5b60405162461bcd60e51b815260206004820152601c60248201527f6d696e696d756d5261697365203e20746f6b656e73466f7253616c65000000006044820152606490fd5b60405162461bcd60e51b815260206004820152601e60248201527f746f6b656e73466f7253616c65203c20696e646976696475616c206d696e00006044820152606490fd5b60405162461bcd60e51b81526020600482015260116024820152706e6f20746f6b656e20666f722073616c6560781b6044820152606490fd5b60405162461bcd60e51b815260206004820152601960248201527f7374617274206461746520697320696e207468652070617374000000000000006044820152606490fd5b7389b41a6e5ab74fcb9771a3356986185f67f9214c60008181526000805160206200578583398151915260205260008051602062005805833981519152805460ff19166001179055339190600080516020620057658339815191528180a4620001f9565b3360008181526000805160206200578583398151915260205260408120805460ff191660011790558190600080516020620057658339815191528180a4620001b3565b60405162461bcd60e51b815260206004820152601b60248201527f696e646976696475616c206d6178203c206d696e20616d6f756e7400000000006044820152606490fd5b60405162461bcd60e51b815260206004820152601c60248201527f63616c6c6572206973206e6f742057686974656c6973744f776e6572000000006044820152606490fd5b7389b41a6e5ab74fcb9771a3356986185f67f9214c6000818152600080516020620057e5833981519152602052600080516020620057a5833981519152805460ff19166001179055339190600080516020620057c583398151915290600080516020620057658339815191529080a46200013b565b336000818152600080516020620057e583398151915260205260408120805460ff191660011790558190600080516020620057c583398151915290600080516020620057658339815191529080a4620000f5565b600080fd5b634e487b7160e01b600052604160045260246000fd5b51906001600160a01b03821682036200070e5756fe608060408181526004918236101561001657600080fd5b600090813560e01c90816301ffc9a714613558575080630274fa981461350e578063044c0cc5146134e457806307662345146134bd57806308abd7ff146133e35780630b97bc86146133c457806312aef8c3146133a557806313430f01146133865780631514617e1461336757806315b5786614613346578063161a7b2a1461331f5780631de18af7146130d357806321d3002a146130af57806324600fc314612ecf578063248a9ca314612ea5578063254800d414612e865780632593ea1714612e62578063273e96e914612e3c5780632e15410714612e1d5780632ebb5c1e14612dfc5780632f2ff15d14612d4f5780633070b98d14612a3357806331d06af314612a0a57806336568abe146129795780633742a9f7146128755780633784f000146128215780633af32abf146127e45780633b6577c8146127aa5780633bbab179146127435780633f4ba83a146126d75780634089aa9a146126b557806344337ea11461265457806344691f7e1461263257806347535d7b14612615578063537df3b6146125b45780635ac699bb1461256c5780635c975abb1461254a5780635f635f9a146121435780636295a2f414612124578063658f2dfe14611d0457806369bb4dc214611ce75780636d02802714611c5e5780636eaaabd514611bcd5780636fb83a5714611b7457806370a898bc14611b5357806374fa05fb14611b30578063751ef93d14611b0b578063755e3e2814611aec57806376807e5f14611a6d578063785e9e8614611a44578063788bff6814611a1b578063799bb232146119f45780637f7b2712146119d457806382d95df5146119265780638392fe311461189e5780638456cb591461182f57806388b0fe2b146117745780638a1a5f3f146117575780638ab1d681146116f65780638e75b131146116d75780639097548d146116b8578063917c854d1461154c578063919bd9301461151357806391d14854146114cc57806394838414146114a557806396a32bc41461143f5780639baf1979146114235780639d90a46e14611349578063a001ecdd1461132a578063a1c09bf11461130b578063a217fddf146112f0578063a6e158f81461114f578063b0b12ac314611131578063b31f8f931461110d578063b367940e146110e9578063b8691787146110ab578063ba40a96a14611082578063bd0625ab14610abc578063bf135abe14610a93578063c24a0f8b14610a74578063c3ca324f14610a4d578063c7dab43614610a30578063c8bdbfb614610986578063ca1d209d146108c2578063d0a4a8951461089b578063d547741f1461085d578063dbb57ac814610819578063dc91b07214610784578063e4101de514610766578063e43252d7146106dc578063e4a80252146106aa578063e8b882f414610681578063eb1edd6114610652578063efbb34d51461062b578063f267d48c1461060c578063f2aa8218146105c7578063f3640e74146105a8578063f64bfaba1461051c578063fce9d11b146104ee578063fe575a87146104b05763fecf415a1461047b57600080fd5b346104ad5760203660031901126104ad575061049960209235613976565b5060018060a01b0390541633149051908152f35b80fd5b5090346104ea5760203660031901126104ea5760209181906001600160a01b036104d86135ac565b16815260088452205415159051908152f35b5080fd5b5090346104ea57816003193601126104ea576105189061050d3361409f565b9051918291826139b0565b0390f35b50346104ad57806003193601126104ad578151918291601c54808552602080950194601c83527f0e4562a10381dec21b205ed72637e6b1b523bdd0e4d4d50af5cd23dd4500a21192905b82821061058857610518868661057e828b0383613644565b5191829182613752565b83546001600160a01b031687529586019560019384019390910190610566565b5090346104ea57816003193601126104ea576020906018549051908152f35b509134610608576020366003190112610608573591601c548310156104ad57506105f2602092613796565b905491519160018060a01b039160031b1c168152f35b8280fd5b5090346104ea57816003193601126104ea57602090600c549051908152f35b5090346104ea57816003193601126104ea5760209061064b601654614008565b9051908152f35b5090346104ea57816003193601126104ea576020905173aeb39b67f27b641ef9f95fb74f1a46b1ee4efc838152f35b5090346104ea57816003193601126104ea5760209051600080516020614ffa8339815191528152f35b5090346104ea576020906106c66106c036613947565b90614bc9565b60018060a01b0380600254169116149051908152f35b5090346104ea5760203660031901126104ea5761072560ff6106fc6135ac565b92600080516020614ffa833981519152855260016020528085203386526020528420541661494b565b6001600160a01b031661073781614997565b61073f575080f35b7fa850ae9193f515cbae8d35e8925bd2be26627fc91bce650b8652ed254e9cab038280a280f35b50913461060857826003193601126106085760209250549051908152f35b50913461060857602036600319011261060857803591600080516020614ffa833981519152845260016020528084203385526020526107c860ff828620541661494b565b60035483106107d657505580f35b906020606492519162461bcd60e51b8352820152601b60248201527f696e646976696475616c206d6178203c206d696e20616d6f756e7400000000006044820152fd5b50346104ad5760203660031901126104ad57506108396105189235614871565b9194929380519586958652602086015284015260806060840152608083019061372d565b50919034610608578060031936011261060857610898913561089360016108826135c7565b9383875281602052862001546139eb565b613ce6565b80f35b5090346104ea57816003193601126104ea5760209060ff60105460081c1690519015158152f35b509134610608576020366003190112610608578035916108e56012544210613dc0565b6108f6836108f1613f79565b613d85565b6016541061094357600d54849061091b908590309033906001600160a01b0316614213565b610923613f79565b601654111561092f5780f35b6201000062ff000019601054161760105580f35b906020606492519162461bcd60e51b8352820152602060248201527f6d6f726520746f6b656e73207468616e206e656564656420666f722073616c656044820152fd5b5090346104ea57816003193601126104ea5760ff6109b891838052600160205280842033855260205283205416613e0c565b6109c66013544210156148b6565b60105460ff8160181c166104ea57601554601454811015610a1f57506016545b806109ef578280f35b63ff00000019909116630100000017601055600d54610a19919033906001600160a01b0316614475565b81808280f35b610a2b90601654613f12565b6109e6565b5090346104ea57816003193601126104ea5760209061064b613da3565b5090346104ea5760203660031901126104ea576105189061050d610a6f6135ac565b61409f565b5090346104ea57816003193601126104ea576020906013549051908152f35b5090346104ea57816003193601126104ea57600e5490516001600160a01b039091168152602090f35b50816003193601126104ad5782359160249182356001600160401b0381116104ea57610aeb90369087016138bb565b610af3614431565b60ff60105460101c161561104557610b09613ff1565b1561100d57610b1733614102565b15610fcb57610b269033614e84565b938415610f9957600e546001600160a01b039390841680610f7c57503493610b4d83614008565b8510610f44575b610b6360165460155490613f12565b8311610f06576003548310610eca57868311610e8e57338452602090601d8252828520968351808985829b54938481520190895285892092895b87828210610e7857505050610bb492500389613644565b8599869a5b89518c1015610bf457610be8610bee916001610bdf8f610bd9908f61441d565b51613976565b50015490613d85565b9b613f03565b9a610bb9565b610bff878c92613d85565b11610e385760ff60105416610e24575b6601000000000000421015610de45760ff60105416855190610c30826135dd565b3382528582019965ffffffffffff42168b528783019115158252606083018a815260808401908a825260a0850192835260c08501938c8552601b549d600160401b9e8f811015610dd257806001610c8a9201601b55613976565b979097610dc1575187549151925160ff60d01b90151560d01b1665ffffffffffff60a01b60a09490941b939093166001600160d81b0319909216908b1660ff60d01b19161717178555600393929190610cf89051865460ff60d81b191690151560d81b60ff60d81b16178655565b51600185015551600284015551910155338752601d8452848720601b54600019810191908211610daf5790610d2c91613ee1565b601c5497881015610d9e575050610d6c8660017fbec109f7ee137de661c6887caa96653c0545050a9908a3b6eb5190440bbec86496979801601c55613796565b819291549060031b9133831b921b1916179055610d8b84601554613d85565b601555815193845242908401523392a280f35b634e487b7160e01b87526041905285fd5b634e487b7160e01b8952601183528389fd5b634e487b7160e01b8f528e8952898ffd5b634e487b7160e01b8f5260418952898ffd5b601c6064928587519362461bcd60e51b85528401528201527f76616c756520646f65736e27742066697420696e2034382062697473000000006044820152fd5b610e33863385600d5416614475565b610c0f565b601f6064928587519362461bcd60e51b85528401528201527f616d6f756e7420676f6573206f76657220696e646976696475616c206d6178006044820152fd5b855484526001958601958e955093019201610b9d565b815162461bcd60e51b81526020818a015260178188015276185b5bdd5b9d080f881b585e1a5b5d5b48185b5bdd5b9d604a1b6044820152606490fd5b815162461bcd60e51b81526020818a015260178188015276185b5bdd5b9d080f081b5a5b9a5b5d5b48185b5bdd5b9d604a1b6044820152606490fd5b815162461bcd60e51b81526020818a015260198188015278616d6f756e74203e20746f6b656e7320617661696c61626c6560381b6044820152606490fd5b815162461bcd60e51b81526020818a0152601381880152721b9bdd08195b9bdd59da08115512081cd95b9d606a1b6044820152606490fd5b93610f94610f8984614008565b809630903390614213565b610b54565b825162461bcd60e51b8152602081880152600d818601526c37379030b63637b1b0ba34b7b760991b6044820152606490fd5b825162461bcd60e51b81526020818801819052818601527f61646472657373206e6f742077686974656c697374656420666f7220504f4c536044820152606490fd5b825162461bcd60e51b81526020818801526013818601527239b0b632903430b9903a379031329037b832b760691b6044820152606490fd5b825162461bcd60e51b8152602081880152601881860152771d1bdad95b881cd85b19481a5cc81b9bdd08199d5b99195960421b6044820152606490fd5b5090346104ea57816003193601126104ea5760025490516001600160a01b039091168152602090f35b5090346104ea5760203660031901126104ea576110cb60ff6106fc6135ac565b60018060a01b03166001600160601b0360a01b600254161760025580f35b5090346104ea57816003193601126104ea5760209060155460145411159051908152f35b5090346104ea57816003193601126104ea5760209061064b60165460155490613f12565b5090346104ea57816003193601126104ea576020905162325aa08152f35b5082346104ea5760203660031901126104ea57803561116d81613976565b50546001600160a01b039190821633036112b65761118a816144e7565b819491156112905750600161119e83613976565b50015460036111ac84613976565b50015491816111bb8785613d85565b1161121a57506108989596506111e685836111ec936111dc83600397613d85565b146111fa57613d85565b92613976565b5001553390600d5416614475565b61120386613976565b50805460ff60d01b1916600160d01b179055613d85565b60a490602089519162461bcd60e51b8352820152604460248201527f494e5445524e414c204552524f52203a20616d6f756e7452656465656d65642060448201527f776f756c64206265206c6172676572207468656e20707572636861736520616d6064820152631bdd5b9d60e21b6084820152fd5b906112b2602092885193849362461bcd60e51b8552840152602483019061372d565b0390fd5b845162461bcd60e51b8152602081850152601460248201527320b2323932b9b99034b9903737ba10313abcb2b960611b6044820152606490fd5b5090346104ea57816003193601126104ea5751908152602090f35b5090346104ea57816003193601126104ea57602090601b549051908152f35b5090346104ea57816003193601126104ea57602090600f549051908152f35b5090346104ea576113593661367c565b90600080516020614ffa83398151915283526001918260205281842033855260205261138a60ff838620541661494b565b839283815b6113d0575b505050816113a0578280f35b7fc2f03ca34d335e49d4d629b85db054d1ffb679b4fec2e06fe10d0e618b175ecb9160209151908152a181808280f35b825181101561141e576113f56001600160a01b036113ee838661441d565b51166149fd565b611409575b61140390613f03565b8161138f565b9361141661140391613f03565b9490506113fa565b611394565b5090346104ea5760209061064b61143936613902565b91614f56565b5090346104ea57816003193601126104ea57818052600160205280822033835260205261147160ff8284205416613e0c565b611479614902565b818080804781811561149c575b3390f115611492575080f35b51903d90823e3d90fd5b506108fc611486565b5090346104ea57816003193601126104ea5760209060ff60105460181c1690519015158152f35b5091346106085781600319360112610608578160209360ff926114ed6135c7565b90358252600186528282206001600160a01b039091168252855220549151911615158152f35b509134610608576020366003190112610608573591601a548310156104ad575061153e6020926137e3565b91905490519160031b1c8152f35b509190346106085780600319360112610608576115676135ac565b61156f6135c7565b90848052602060018152838620338752815261159060ff8588205416613e0c565b61159e6013544210156148b6565b600d546001600160a01b0392831692908116831461167557600e54168214611633578351946370a0823160e01b865230908601528085602481855afa93841561162a575085936115f4575b506108989350614475565b90925083813d8311611623575b61160b8183613644565b8101031261161f57610898925191386115e9565b8380fd5b503d611601565b513d87823e3d90fd5b8460649185519162461bcd60e51b8352820152601b60248201527f746f6b656e206973207468652074726164652d696e20746f6b656e00000000006044820152fd5b845162461bcd60e51b8152808701839052601b60248201527f746f6b656e2069732074686520746f6b656e20666f722073616c6500000000006044820152606490fd5b50346104ad5760203660031901126104ad575061064b60209235614008565b5090346104ea57816003193601126104ea576020906014549051908152f35b5090346104ea5760203660031901126104ea5761171660ff6106fc6135ac565b6001600160a01b031661172881614b20565b611730575080f35b7fcdd2e9b91a56913d370075169cefa1602ba36be5301664f752192bb1709df7578280a280f35b5090346104ea57816003193601126104ea5760209061064b613f3f565b5091903461060857826003193601126106085782805260206001815281842033855281526117a760ff8386205416613e0c565b6117af614902565b600d5482516370a0823160e01b815230948101949094526001600160a01b0316908084602481855afa928315611826575084926117f4575b5061089892503390614475565b90915082813d831161181f575b61180b8183613644565b8101031261060857610898915190386117e7565b503d611801565b513d86823e3d90fd5b5090346104ea57816003193601126104ea5760207f62e78cea01bee320cd4e420270b5ea74000d11b0c9f74754ebdbfc544b05a2589183805260018252808420338552825261188360ff8286205416613e0c565b61188b614431565b835460ff1916600117845551338152a180f35b509134610608576020366003190112610608573591601b548310156104ad57506118c960e092613976565b50805490600181015460ff600360028401549301549385519560018060a01b038216875265ffffffffffff8260a01c166020880152828260d01c1615159087015260d81c1615156060850152608084015260a083015260c0820152f35b509134610608576020366003190112610608578035916119496012544210613dc0565b838052600160205280842033855260205261196960ff8286205416613e0c565b824210156119865750506119806013548210613e58565b60125580f35b906020608492519162461bcd60e51b8352820152602260248201527f737461727420646174652068617320746f20626520696e207468652066757475604482015261726560f01b6064820152fd5b5090346104ea57816003193601126104ea576020905164e8d4a510008152f35b5090346104ea57602090611a0a6106c036613947565b90516001600160a01b039091168152f35b5090346104ea57816003193601126104ea5760095490516001600160a01b039091168152602090f35b5090346104ea57816003193601126104ea57600d5490516001600160a01b039091168152602090f35b509190346106085782600319360112610608578280526020600181528184203385528152611aa060ff8386205416613e0c565b611aa8614902565b600e5482516370a0823160e01b815230948101949094526001600160a01b0316908084602481855afa928315611826575084926117f4575061089892503390614475565b5090346104ea57816003193601126104ea576020906015549051908152f35b5090346104ea57602090611b27611b2136613902565b91614e2f565b90519015158152f35b5090346104ea57816003193601126104ea57602090601554601454119051908152f35b5090346104ea57816003193601126104ea5760209060035415159051908152f35b5090346104ea5760203660031901126104ea57611baf60ff611b946135ac565b92848052600160205280852033865260205284205416613e0c565b60018060a01b03166001600160601b0360a01b600954161760095580f35b509134610608576020366003190112610608573590811515809203610608577fe905f7f52156c346547b9deb6fb3e2459db941ec55d073fd465129bf4b49fae691602091600080516020614ffa8339815191528552600183528085203386528352611c3d60ff828720541661494b565b6002805460ff60a01b191660a084901b60ff60a01b1617905551908152a180f35b50346104ad57806003193601126104ad57600554611c7b81613665565b91611c8884519384613644565b818352601f19611c9783613665565b013660208501375b818110611cb3578351806105188582613752565b80611cc0611ce292613851565b905460039190911b1c6001600160a01b0316611cdc828661441d565b52613f03565b611c9f565b5090346104ea57816003193601126104ea5760209061064b613f79565b5091346106085760803660031901126106085780359060248035916044908135948760648035946001600160401b039889871161161f573660238801121561161f5786860135998a1161161f5760059836898c8c1b8a010111612120578b95611d706012544210613dc0565b858052611d9160ff6001986020988a8a528181203382528a52205416613e0c565b60ff601054166120df5760175480159081156120d5575b50156120945780612040575b828211611fff578b159291908315611fd4576312cff780611dd6895b85613d5c565b1015611f945760175560185580601955601a548d601a558d81611f4e575b5050858b1015611e02578c80f35b15611ef157611edf578686013592655af3107a40009a8b851015611ea15750505050611e2d90613ea4565b858110611e3e575b80808080808c80f35b6000198101818111611e8f57611e56611e6a916137e3565b90548684891b870101359160031b1c613d85565b9087821015611e8957611e7f611e8492613ea4565b613f03565b611e2d565b50611e35565b634e487b7160e01b8952601183528489fd5b91601c897f66697273742076657374696e6720706572696f64203e3d203130302500000000938995519562461bcd60e51b8752860152840152820152fd5b634e487b7160e01b8b5260328552868bfd5b5084917f76657374696e6720696e74657276616c6c732070726f76696465642c206275747302076657374696e674475726174696f6e203d20360641b9260348a6084978f519762461bcd60e51b8952880152860152840152820152fd5b601a81527f057c384a7d1c54f3a1b2e5e67b2617b8224fdfd1ea7234eea573a6ff665ff63e9182019188915b838210611f8957915050611df4565b81550187908f611f7a565b8d5162461bcd60e51b8152808a01889052601d818d01527f746f74616c2076657374696e672074696d65203e203130207965617273000000818701528690fd5b878d01808e11611fec57611dd66312cff78091611dd0565b50634e487b7160e01b8f52601189528a8ffd5b5050507f76657374696e67436c696666203e2076657374696e674475726174696f6e00008591601e89868e519562461bcd60e51b8752860152840152820152fd5b61204a8282613d85565b6013541115611db4575050507f76657374696e67436c696666206265666f726520656e644461746500000000008591601b89868e519562461bcd60e51b8752860152840152820152fd5b5050507f76657374696e6720616c726561647920737461727465640000000000000000008591601789868e519562461bcd60e51b8752860152840152820152fd5b9050421038611da8565b5050507f6e6f2076657374696e6720666f722061746f6d696320737761700000000000008591601a89868e519562461bcd60e51b8752860152840152820152fd5b8480fd5b5090346104ea57816003193601126104ea576020906011549051908152f35b5060603660031901126104ad57823560449182356001600160401b0381116104ea5761217290369087016138bb565b9161217b614431565b60ff60105460101c161561250d57612191613ff1565b156124d55761219f33614102565b15612493576121b2602493843533614f56565b94851561246357600e546001600160a01b039490851680612446575034946121d984614008565b861061240f575b6121ef60165460155490613f12565b84116123d25760035484106123975787841161235c57338552602091601d8352838620998451808c86829e549384815201908a52868a20928a5b88828210612340575050506122409250038c613644565b869887995b8c518b10156122715761226561226b9160018f610bd98f610bdf9261441d565b9a613f03565b99612245565b61227c888d92613d85565b116123015760ff601054166122ed575b66010000000000004210156122ae575060ff60105416855190610c30826135dd565b7f76616c756520646f65736e27742066697420696e20343820626974730000000090601c6064948789519562461bcd60e51b8752860152840152820152fd5b6122fc873386600d5416614475565b61228c565b7f616d6f756e7420676f6573206f76657220696e646976696475616c206d61780090601f6064948789519562461bcd60e51b8752860152840152820152fd5b6001929450829193865481520194019101918e92939193612229565b825162461bcd60e51b81526020818b015260178184015276185b5bdd5b9d080f881b585e1a5b5d5b48185b5bdd5b9d604a1b81890152606490fd5b825162461bcd60e51b81526020818b015260178184015276185b5bdd5b9d080f081b5a5b9a5b5d5b48185b5bdd5b9d604a1b81890152606490fd5b825162461bcd60e51b81526020818b015260198184015278616d6f756e74203e20746f6b656e7320617661696c61626c6560381b81890152606490fd5b825162461bcd60e51b81526020818b0152601381840152721b9bdd08195b9bdd59da08115512081cd95b9d606a1b81890152606490fd5b9461245e61245385614008565b809730903390614213565b6121e0565b5162461bcd60e51b8152602081880152600d818501526c37379030b63637b1b0ba34b7b760991b81860152606490fd5b845162461bcd60e51b8152602081880181905260248201527f61646472657373206e6f742077686974656c697374656420666f7220504f4c5381860152606490fd5b845162461bcd60e51b8152602081880152601360248201527239b0b632903430b9903a379031329037b832b760691b81860152606490fd5b845162461bcd60e51b815260208188015260186024820152771d1bdad95b881cd85b19481a5cc81b9bdd08199d5b99195960421b81860152606490fd5b5090346104ea57816003193601126104ea5760ff602092541690519015158152f35b5090346104ea57806003193601126104ea576125866135ac565b6001600160a01b03168252601d602052808220805460243593908410156104ad575060209261153e91613888565b5090346104ea5760203660031901126104ea576125d460ff6106fc6135ac565b6001600160a01b03166125e681614a4a565b6125ee575080f35b7f2b6bf71b58b3583add364b3d9060ebf8019650f65f5be35f5464b9cb3e4ba2d48280a280f35b5090346104ea57816003193601126104ea57602090611b27613ff1565b5090346104ea57816003193601126104ea576020906012544210159051908152f35b5090346104ea5760203660031901126104ea5761267460ff6106fc6135ac565b6001600160a01b0316612686816149fd565b61268e575080f35b7ff9b68063b051b82957fa193585681240904fed808db8b30fc5a2d2202c6ed6278280a280f35b5090346104ea57816003193601126104ea576020906013544210159051908152f35b5090346104ea57816003193601126104ea5760207f5db9ee0a495bf2e6ff9c91a7834c1ba4fdd244a5e8aa4e537bd38aeae4b073aa9183805260018252808420338552825261272b60ff8286205416613e0c565b612733614902565b835460ff1916845551338152a180f35b50346104ad57806003193601126104ad5760075461276081613665565b9161276d84519384613644565b818352601f1961277c83613665565b013660208501375b818110612798578351806105188582613752565b80611cc06127a59261381a565b612784565b508290346104ad5760203660031901126104ad57506127cc61051891356144e7565b8392919251938493845280602085015283019061372d565b5090346104ea5760203660031901126104ea57602090611b276001600160a01b0361280d6135ac565b166000526006602052604060002054151590565b5091346106085760203660031901126106085761286f9035809261286960ff6012549261284f844210613dc0565b878052600160205280882033895260205287205416613e0c565b10613e58565b60135580f35b508290346104ad5760203660031901126104ad5750803590601b548210156129365760e08360c06128a585613976565b508251926128b2846135dd565b81549060018060a01b0382169283865265ffffffffffff8360a01c169182602088015260ff808560d01c1615159485838a015260d81c1615159485606089015260018301549788608082015260036002850154948560a084015201549788910152815197885260208801528601526060850152608084015260a083015260c0820152f35b606490602084519162461bcd60e51b8352820152601a60248201527f70757263686173655f696420646f6573206e6f742065786973740000000000006044820152fd5b5082346104ea57826003193601126104ea576129936135c7565b90336001600160a01b038316036129af57906108989135613ce6565b608490602085519162461bcd60e51b8352820152602f60248201527f416363657373436f6e74726f6c3a2063616e206f6e6c792072656e6f756e636560448201526e103937b632b9903337b91039b2b63360891b6064820152fd5b5090346104ea57816003193601126104ea57600a5490516001600160a01b039091168152602090f35b5090346104ea57806003193601126104ea5782359060249384359182159283150361212057612a6184613976565b50546001600160a01b03939084163303612d1657612a7e856144e7565b81969115612cf557506001612a9282613976565b5001546003612aa083613976565b5001549080612aaf8984613d85565b11612c80576111e68883612ac9936111dc83600397613d85565b50015515612ae45750506108989293503390600d5416614475565b9180600994929454168015612c345781600d54168451636eb1769f60e11b815230878201528289820152602081604481855afa908115612c2a579085918991612bf0575b50612b3b612b80949392612b7b92613d85565b875163095ea7b360e01b6020808301919091526001600160a01b039095168c8201908152948501919091529283906040015b03601f198101845283613644565b61426d565b6009541690813b1561212057829160448694928593519586938492638b1e31c760e01b845289840152338b8401525af1908115612be75750612bc4575b5050905080f35b6001600160401b0310612bd75780612bbd565b634e487b7160e01b825260419052fd5b513d85823e3d90fd5b9150506020813d8211612c22575b81612c0b60209383613644565b81010312612c1e57518490612b3b612b28565b8780fd5b3d9150612bfe565b86513d8a823e3d90fd5b835162461bcd60e51b81526020818701526021818901527f4e6f2049444f207374616b696e6720636f6e747261637420617661696c61626c6044820152606560f81b6064820152608490fd5b60a48660448c602089519362461bcd60e51b85528401528201527f494e5445524e414c204552524f52203a20616d6f756e7452656465656d65642060448201527f776f756c64206265206c6172676572207468656e20707572636861736520616d6064820152631bdd5b9d60e21b6084820152fd5b835162461bcd60e51b81526020818701529081906112b290828c019061372d565b815162461bcd60e51b81526020818501526014818901527320b2323932b9b99034b9903737ba10313abcb2b960611b6044820152606490fd5b5091346106085781600319360112610608573590612d6b6135c7565b908284526001602052612d83600182862001546139eb565b828452600160209081528185206001600160a01b039093168086529290528084205460ff1615612db1578380f35b82845260016020528084208285526020528320600160ff1982541617905533917f2f8788117e7eff1d82e926ec794901d17c78024a50270940304540a733656f0d8480a43880808380f35b5090346104ea57816003193601126104ea5760209060125442109051908152f35b5090346104ea57816003193601126104ea576020906003549051908152f35b5090346104ea5760203660031901126104ea57602090611b27612e5d6135ac565b614102565b5091346106085760203660031901126106085760209250601b549035109051908152f35b5090346104ea57816003193601126104ea576020906017549051908152f35b50913461060857602036600319011261060857816020936001923581528285522001549051908152f35b50919034610608578260031936011261060857828052602091600183528184203385528352612f0360ff8386205416613e0c565b612f0b614431565b612f196013544210156148b6565b6015546014541161307257600e546001600160a01b03908116939084612f97575050509050818080806064612f5147600f5490613d5c565b04818115612f8e575b73aeb39b67f27b641ef9f95fb74f1a46b1ee4efc8390f11561149257818080804781811561149c573390f115611492575080f35b506108fc612f5a565b83516370a0823160e01b8082523085830152958382602481845afa918215612c2a578892613042575b506064612fd361301093600f5490613d5c565b049086519163a9059cbb60e01b8684015273aeb39b67f27b641ef9f95fb74f1a46b1ee4efc836024840152604483015260448252612b7b82613629565b600e541691835194855230908501528084602481855afa928315611826575084926117f4575061089892503390614475565b91508382813d831161306b575b6130598183613644565b81010312612c1e579051906064612fc0565b503d61304f565b82606492519162461bcd60e51b835282015260196024820152781b5a5b9a5b5d5b481c985a5cd9481b9bdd081c995858da1959603a1b6044820152fd5b5090346104ea57816003193601126104ea5760209060ff6010541690519015158152f35b5091346106085760208060031936011261161f578135906130f86013544210156148b6565b60ff601054166132dd5761310b82613976565b50546001600160a01b039290831633036132a357601454801561326057601554101561321d5761313a90613976565b50926001840154156131dc5783549160ff8360d01c166131a257505061ffff60d01b191661010160d01b178255600e54849291168061318f5750818060028193015481811561149c573390f115611492575080f35b9150610898925060020154903390614475565b855162461bcd60e51b81529182015260156024820152741c1d5c98da185cd9481a5cc8199a5b985b1a5e9959605a1b604482015260649150fd5b60649185519162461bcd60e51b8352820152601760248201527f707572636861736520616d6f756e74206973207a65726f0000000000000000006044820152fd5b845162461bcd60e51b8152808501839052601e60248201527f6d696e696d756d20726169736520686173206265656e207265616368656400006044820152606490fd5b855162461bcd60e51b8152808601849052601d60248201527f6e6f206d696e696d756d20726169736520686173206265656e207365740000006044820152606490fd5b845162461bcd60e51b8152808501839052601460248201527330b2323932b9b99034b9903737ba10313abcb2b960611b6044820152606490fd5b9050606492519162461bcd60e51b8352820152601e60248201527f73616c652068617320746f206265206e6f6e2041746f6d6963207377617000006044820152fd5b5090346104ea57816003193601126104ea5760209060ff60105460101c1690519015158152f35b5090346104ea57816003193601126104ea5760209060145415159051908152f35b5090346104ea57816003193601126104ea576020906019549051908152f35b5090346104ea57816003193601126104ea57602090600b549051908152f35b5090346104ea57816003193601126104ea576020906016549051908152f35b5090346104ea57816003193601126104ea576020906012549051908152f35b5090346104ea576133f33661367c565b90600080516020614ffa83398151915283526001918260205281842033855260205261342460ff838620541661494b565b839283815b61346a575b5050508161343a578280f35b7f448f3bd350ede14a294c062177c5280fe1eae125d16757da21f5f51d6e89daae9160209151908152a181808280f35b82518110156134b85761348f6001600160a01b03613488838661441d565b5116614997565b6134a3575b61349d90613f03565b81613429565b936134b061349d91613f03565b949050613494565b61342e565b5090346104ea57816003193601126104ea5760209060ff60025460a01c1690519015158152f35b5090346104ea57816003193601126104ea57600e5490516001600160a01b03909116158152602090f35b5090346104ea5760603660031901126104ea5761352e60ff611b946135ac565b60018060a01b03166001600160601b0360a01b600a541617600a55602435600b55604435600c5580f35b90508334610608576020366003190112610608573563ffffffff60e01b81168091036106085760209250637965db0b60e01b811490811561359b575b5015158152f35b6301ffc9a760e01b14905083613594565b600435906001600160a01b03821682036135c257565b600080fd5b602435906001600160a01b03821682036135c257565b60e081019081106001600160401b038211176135f857604052565b634e487b7160e01b600052604160045260246000fd5b604081019081106001600160401b038211176135f857604052565b608081019081106001600160401b038211176135f857604052565b90601f801991011681019081106001600160401b038211176135f857604052565b6001600160401b0381116135f85760051b60200190565b6020806003198301126135c257600435916001600160401b0383116135c257806023840112156135c25782600401356136b481613665565b936136c26040519586613644565b81855260248486019260051b8201019283116135c257602401905b8282106136eb575050505090565b81356001600160a01b03811681036135c25781529083019083016136dd565b60005b83811061371d5750506000910152565b818101518382015260200161370d565b906020916137468151809281855285808601910161370a565b601f01601f1916010190565b6020908160408183019282815285518094520193019160005b828110613779575050505090565b83516001600160a01b03168552938101939281019260010161376b565b601c548110156137cd57601c6000527f0e4562a10381dec21b205ed72637e6b1b523bdd0e4d4d50af5cd23dd4500a2110190600090565b634e487b7160e01b600052603260045260246000fd5b601a548110156137cd57601a6000527f057c384a7d1c54f3a1b2e5e67b2617b8224fdfd1ea7234eea573a6ff665ff63e0190600090565b6007548110156137cd5760076000527fa66cc928b5edb82af9bd49922954155ab7b0942694bea4ce44661d9a8736c6880190600090565b6005548110156137cd5760056000527f036b6384b5eca791c62761152d0c79bb0604c104a5fb6f4eb0703f3154bb3db00190600090565b80548210156137cd5760005260206000200190600090565b6001600160401b0381116135f857601f01601f191660200190565b81601f820112156135c2578035906138d2826138a0565b926138e06040519485613644565b828452602083830101116135c257816000926020809301838601378301015290565b60606003198201126135c2576004356001600160a01b03811681036135c2579160243591604435906001600160401b0382116135c257613944916004016138bb565b90565b9060406003198301126135c25760043591602435906001600160401b0382116135c257613944916004016138bb565b601b548110156137cd57601b60005260021b7f3ad8aa4f87544323a9d1e5dd902f40c356527a7955687113db5f9a85ad579dc10190600090565b6020908160408183019282815285518094520193019160005b8281106139d7575050505090565b8351855293810193928101926001016139c9565b6000818152600191602091838352604093848220338352845260ff858320541615613a17575050505050565b33855193606085018581106001600160401b03821117613cd2578752602a85528585019187368437855115613cbe57603083538551841015613cbe576078602187015360295b848111613c545750613c1257865192613a7584613629565b60428452868401946060368737845115613bfe57603086538451821015613bfe5790607860218601536041915b818311613b9057505050613b4e576112b2938693613b3293613b23604894613afa9a519a8b957f416363657373436f6e74726f6c3a206163636f756e74200000000000000000008c880152518092603788019061370a565b8401917001034b99036b4b9b9b4b733903937b6329607d1b60378401525180938684019061370a565b01036028810187520185613644565b5192839262461bcd60e51b84526004840152602483019061372d565b60648587519062461bcd60e51b825280600483015260248201527f537472696e67733a20686578206c656e67746820696e73756666696369656e746044820152fd5b909192600f81166010811015613bea576f181899199a1a9b1b9c1cb0b131b232b360811b901a613bc08588613d92565b5360041c928015613bd657600019019190613aa2565b634e487b7160e01b82526011600452602482fd5b634e487b7160e01b83526032600452602483fd5b634e487b7160e01b81526032600452602490fd5b60648688519062461bcd60e51b825280600483015260248201527f537472696e67733a20686578206c656e67746820696e73756666696369656e746044820152fd5b90600f81166010811015613caa576f181899199a1a9b1b9c1cb0b131b232b360811b901a613c828389613d92565b5360041c908015613c965760001901613a5d565b634e487b7160e01b86526011600452602486fd5b634e487b7160e01b87526032600452602487fd5b634e487b7160e01b85526032600452602485fd5b634e487b7160e01b85526041600452602485fd5b906000918083526001602052604083209160018060a01b03169182845260205260ff604084205416613d1757505050565b8083526001602052604083208284526020526040832060ff1981541690557ff6391f5c32d9c69d2a47ea670b442974b53935d1edc7fd64eb21e047a839171b339380a4565b81810292918115918404141715613d6f57565b634e487b7160e01b600052601160045260246000fd5b91908201809211613d6f57565b9081518110156137cd570160200190565b601a548015613dba5760018101809111613d6f5790565b50600090565b15613dc757565b60405162461bcd60e51b815260206004820152601a60248201527f746f6b656e2073616c6520616c726561647920737461727465640000000000006044820152606490fd5b15613e1357565b60405162461bcd60e51b815260206004820152601960248201527f63616c6c657220686173206e6f742061646d696e20726f6c65000000000000006044820152606490fd5b15613e5f57565b60405162461bcd60e51b815260206004820152601a60248201527f656e642064617465206265666f726520737461727420646174650000000000006044820152606490fd5b601a54600160401b8110156135f857613ec6816001613edd9301601a556137e3565b819391549060031b91821b91600019901b19161790565b9055565b805490600160401b8210156135f85781613ec6916001613edd94018155613888565b6000198114613d6f5760010190565b91908203918211613d6f57565b8115613f29570490565b634e487b7160e01b600052601260045260246000fd5b601754804210613dba576019548015613f7257613f5f613f649242613f12565b613f1f565b60018101809111613d6f5790565b5050600190565b600d546040516370a0823160e01b815230600482015290602090829060249082906001600160a01b03165afa908115613fe557600091613fb7575090565b906020823d8211613fdd575b81613fd060209383613644565b810103126104ad57505190565b3d9150613fc3565b6040513d6000823e3d90fd5b60125442101580613fff5790565b50601354421090565b60115461401491613d5c565b600d5460405163313ce56760e01b815290602090829060049082906001600160a01b03165afa908115613fe557600091614063575b5060ff1690604d8211613d6f5761394491600a0a90613f1f565b6020813d8211614097575b8161407b60209383613644565b810103126104ea57519060ff821682036104ad575060ff614049565b3d915061406e565b60018060a01b03166000526020601d81526040600020906040518092839183825491828152019160005283600020936000905b8282106140e85750505061394492500382613644565b8554845260019586019587955093810193909101906140d2565b60ff60105460081c161561420d57600a546001600160a01b0390811691908261412e575b505050600090565b6040516370a0823160e01b81529116600482018190526020918281602481875afa908115613fe5576000916141e0575b50600b5411156141d857819060246040518095819363f6a3f3cf60e01b835260048301525afa908115613fe5576000916141ac575b509050600c5411156141a757388080614126565b600190565b82813d83116141d1575b6141c08183613644565b810103126104ad5750518038614193565b503d6141b6565b505050600190565b908382813d8311614206575b6141f68183613644565b810103126104ad5750513861415e565b503d6141ec565b50600190565b6040516323b872dd60e01b60208201526001600160a01b03928316602482015292909116604483015260648083019390935291815260a08101918183106001600160401b038411176135f85761426b9260405261426d565b565b60018060a01b0316906142ea6040516142858161360e565b6020938482527f5361666545524332303a206c6f772d6c6576656c2063616c6c206661696c6564858301526000808587829751910182855af13d15614380573d916142cf836138a0565b926142dd6040519485613644565b83523d868885013e614384565b80519182159184831561435c575b5050509050156143055750565b6084906040519062461bcd60e51b82526004820152602a60248201527f5361666545524332303a204552433230206f7065726174696f6e20646964206e6044820152691bdd081cdd58d8d9595960b21b6064820152fd5b9193818094500103126104ea578201519081151582036104ad5750803880846142f8565b6060915b919290156143e65750815115614398575090565b3b156143a15790565b60405162461bcd60e51b815260206004820152601d60248201527f416464726573733a2063616c6c20746f206e6f6e2d636f6e74726163740000006044820152606490fd5b8251909150156143f95750805190602001fd5b60405162461bcd60e51b8152602060048201529081906112b290602483019061372d565b80518210156137cd5760209160051b010190565b60ff6000541661443d57565b60405162461bcd60e51b815260206004820152601060248201526f14185d5cd8589b194e881c185d5cd95960821b6044820152606490fd5b60405163a9059cbb60e01b60208201526001600160a01b039092166024830152604482019290925261426b91612b7b8260648101612b6d565b604051906144bb8261360e565b601a82527f70757263686173655f696420646f6573206e6f742065786973740000000000006020830152565b601b548110156148655760ff601054166148285760135442106147eb5760009060ff8254166147b05760155460145411614779576003614534600161452b84613976565b50015492613976565b500154908082101561473d57601754928342106146ff5761455760185485613d85565b42106146c15750601a54806146095750601954426145758286613d85565b116145e557506145859250613f12565b80156145b757906040516145988161360e565b600f81526e726561647920746f2072656465656d60881b602082015290565b906040516145c48161360e565b60118152706e6f7468696e6720746f2072656465656d60781b602082015290565b613f5f6145ff926145f96146049642613f12565b90613d5c565b613f12565b614585565b9091926146196146229142613f12565b60195490613f1f565b90811061463457509061460491613f12565b655af3107a400091614648614655926137e3565b90549060031b1c90613d5c565b04908082106146675761460491613f12565b60405162461bcd60e51b815260206004820152602c60248201527f494e5445524e414c204552524f5220696e2076657374696e6720616d6f756e7460448201526b1031b0b631bab630ba34b7b760a11b6064820152608490fd5b92505050906040516146d28161360e565b601d81527f76657374696e6720636c696666206e6f74207965742072656163686564000000602082015290565b92505050906040516147108161360e565b601e81527f76657374696e6720706572696f64206e6f742079657420737461727465640000602082015290565b50509060405161474c8161360e565b601a81527f616c6c20746f6b656e20616c72656164792072656465656d6564000000000000602082015290565b50906040516147878161360e565b60198152781b5a5b9a5b5d5b481c985a5cd9481b9bdd081c995858da1959603a1b602082015290565b50906040516147be8161360e565b601d81527f746f6b656e2073616c6520636f6e747261637420697320706175736564000000602082015290565b506000906040516147fb8161360e565b601881527f746f6b656e2073616c65206e6f742066696e616c697a65640000000000000000602082015290565b506000906040516148388161360e565b601981527f68617320746f206265206e6f6e2041746f6d6963207377617000000000000000602082015290565b506000906139446144ae565b601b54811061488c57506000906000906000906139446144ae565b600161489782613976565b500154916148b260036148a984613976565b500154926144e7565b9091565b156148bd57565b60405162461bcd60e51b815260206004820152601860248201527f73616c652068617320746f2062652066696e616c697a656400000000000000006044820152606490fd5b60ff600054161561490f57565b60405162461bcd60e51b815260206004820152601460248201527314185d5cd8589b194e881b9bdd081c185d5cd95960621b6044820152606490fd5b1561495257565b60405162461bcd60e51b815260206004820152601c60248201527f63616c6c6572206973206e6f742057686974656c6973744f776e6572000000006044820152606490fd5b6000818152600660205260408120546149f857600554600160401b8110156149e45790826149d0613ec684600160409601600555613851565b905560055492815260066020522055600190565b634e487b7160e01b82526041600452602482fd5b905090565b6000818152600860205260408120546149f857600754600160401b8110156149e4579082614a36613ec68460016040960160075561381a565b905560075492815260086020522055600190565b6000818152600860205260408120549091908015614b1b5760001990808201818111614b075760075490838201918211613c9657808203614ad3575b5050506007548015614abf57810190614a9e8261381a565b909182549160031b1b19169055600755815260086020526040812055600190565b634e487b7160e01b84526031600452602484fd5b614af1614ae2613ec69361381a565b90549060031b1c92839261381a565b9055845260086020526040842055388080614a86565b634e487b7160e01b85526011600452602485fd5b505090565b6000818152600660205260408120549091908015614b1b5760001990808201818111614b075760055490838201918211613c9657808203614b95575b5050506005548015614abf57810190614b7482613851565b909182549160031b1b19169055600555815260066020526040812055600190565b614bb3614ba4613ec693613851565b90549060031b1c928392613851565b9055845260066020526040842055388080614b5c565b6041825103614c135761394491614c0b917f19457468657265756d205369676e6564204d6573736167653a0a333200000000600052601c52603c600020614d72565b919091614c58565b60405162461bcd60e51b815260206004820152601960248201527f7369676e6174757265206973206e6f74203635206279746573000000000000006044820152606490fd5b6005811015614d5c5780614c695750565b60018103614cb65760405162461bcd60e51b815260206004820152601860248201527f45434453413a20696e76616c6964207369676e617475726500000000000000006044820152606490fd5b60028103614d035760405162461bcd60e51b815260206004820152601f60248201527f45434453413a20696e76616c6964207369676e6174757265206c656e677468006044820152606490fd5b600314614d0c57565b60405162461bcd60e51b815260206004820152602260248201527f45434453413a20696e76616c6964207369676e6174757265202773272076616c604482015261756560f01b6064820152608490fd5b634e487b7160e01b600052602160045260246000fd5b906041815114600014614d9c576148b2916020820151906060604084015193015160001a90614da6565b5050600090600290565b9291907f7fffffffffffffffffffffffffffffff5d576e7357a4501ddfe92f46681b20a08311614e235791608094939160ff602094604051948552168484015260408301526060820152600093849182805260015afa15614e165781516001600160a01b0381161561420d579190565b50604051903d90823e3d90fd5b50505050600090600390565b614e7092916040519060208201926001600160601b03199060601b16835260348201523060601b605482015260488152614e6881613629565b519020614bc9565b6002546001600160a01b0391821691161490565b6001600160a01b03808216600081815260086020526040902054929392614f4d576002549060ff8260a01c1615908115614f2f575b50614f25578116918215159384614ede575b50505050614ed857600090565b60045490565b614f1a9293945060405160208101916001600160601b03199060601b168252600060348201523060601b605482015260488152614e6881613629565b161438808080614ecb565b5050505060045490565b614f4791506000526006602052604060002054151590565b38614eb9565b50505050600090565b909160018060a01b0380831690816000526008602052604060002054614fef576002549160ff8360a01c1615908115614fd1575b50614fc65784911615159283614fb4575b505050614fa85750600090565b80613944575060045490565b614fbe9350614e2f565b388281614f9b565b505050505060045490565b614fe991506000526006602052604060002054151590565b38614f8a565b505050505060009056feb813b807c25079ba97f1770664c6a9e57c59afe74a6295f1ed01c10e3bb6baaea164736f6c6343000813000a2f8788117e7eff1d82e926ec794901d17c78024a50270940304540a733656f0da6eef7e35abe7026729641147f7915573c7e97b47efa546f5f6e3230263bcb493acbad85bd32baf6e5d5ba94bd47682ad030e73e3fc17231cdb7884e58d4e082b813b807c25079ba97f1770664c6a9e57c59afe74a6295f1ed01c10e3bb6baae358823ad0653452618750bed6506f24f63ef58f0cce438e3a379e32873da19d245b3d3a903390c195d0bfd3836d4bf6ddb42d6e2323e6bd9571885c64405cb85",
  "linkReferences": {},
  "deployedLinkReferences": {}
}