{
  "_format": "hh-sol-artifact-1",
  "contractName": "FixedNFTSwap",
  "sourceName": "contracts/FixedNFTSwap.sol",
  "abi": [
    {
      "inputs": [
        {
          "internalType": "uint256",
          "name": "_startDate",
          "type": "uint256"
        },
        {
          "internalType": "uint256",
          "name": "_endDate",
          "type": "uint256"
        },
        {
          "internalType": "uint256",
          "name": "_distributionDate",
          "type": "uint256"
        },
        {
          "internalType": "uint256",
          "name": "_individualMaximumAmount",
          "type": "uint256"
        },
        {
          "internalType": "uint256",
          "name": "_minimumRaise",
          "type": "uint256"
        },
        {
          "internalType": "uint256",
          "name": "_feePercentage",
          "type": "uint256"
        },
        {
          "internalType": "bool",
          "name": "_hasWhitelisting",
          "type": "bool"
        },
        {
          "internalType": "address",
          "name": "_erc20TradeAddress",
          "type": "address"
        },
        {
          "internalType": "uint256[]",
          "name": "_categoryIds",
          "type": "uint256[]"
        },
        {
          "internalType": "uint256[]",
          "name": "_categoriesSupply",
          "type": "uint256[]"
        },
        {
          "internalType": "uint256[]",
          "name": "_categoriesPrice",
          "type": "uint256[]"
        }
      ],
      "stateMutability": "nonpayable",
      "type": "constructor"
    },
    {
      "anonymous": false,
      "inputs": [
        {
          "indexed": false,
          "internalType": "uint256",
          "name": "count",
          "type": "uint256"
        }
      ],
      "name": "AddedArrayToBlacklist",
      "type": "event"
    },
    {
      "anonymous": false,
      "inputs": [
        {
          "indexed": false,
          "internalType": "uint256",
          "name": "count",
          "type": "uint256"
        }
      ],
      "name": "AddedArrayToWhitelist",
      "type": "event"
    },
    {
      "anonymous": false,
      "inputs": [
        {
          "indexed": true,
          "internalType": "address",
          "name": "account",
          "type": "address"
        }
      ],
      "name": "AddedToBlacklist",
      "type": "event"
    },
    {
      "anonymous": false,
      "inputs": [
        {
          "indexed": true,
          "internalType": "address",
          "name": "account",
          "type": "address"
        }
      ],
      "name": "AddedToWhitelist",
      "type": "event"
    },
    {
      "anonymous": false,
      "inputs": [
        {
          "indexed": false,
          "internalType": "address",
          "name": "account",
          "type": "address"
        }
      ],
      "name": "Paused",
      "type": "event"
    },
    {
      "anonymous": false,
      "inputs": [
        {
          "indexed": false,
          "internalType": "uint256",
          "name": "amount",
          "type": "uint256"
        },
        {
          "indexed": false,
          "internalType": "uint256",
          "name": "spentTokens",
          "type": "uint256"
        },
        {
          "indexed": true,
          "internalType": "uint256",
          "name": "categoryId",
          "type": "uint256"
        },
        {
          "indexed": true,
          "internalType": "address",
          "name": "purchaser",
          "type": "address"
        },
        {
          "indexed": false,
          "internalType": "uint256",
          "name": "timestamp",
          "type": "uint256"
        }
      ],
      "name": "PurchaseEvent",
      "type": "event"
    },
    {
      "anonymous": false,
      "inputs": [
        {
          "indexed": true,
          "internalType": "address",
          "name": "account",
          "type": "address"
        }
      ],
      "name": "RemovedFromBlacklist",
      "type": "event"
    },
    {
      "anonymous": false,
      "inputs": [
        {
          "indexed": true,
          "internalType": "address",
          "name": "account",
          "type": "address"
        }
      ],
      "name": "RemovedFromWhitelist",
      "type": "event"
    },
    {
      "anonymous": false,
      "inputs": [
        {
          "indexed": true,
          "internalType": "bytes32",
          "name": "role",
          "type": "bytes32"
        },
        {
          "indexed": true,
          "internalType": "bytes32",
          "name": "previousAdminRole",
          "type": "bytes32"
        },
        {
          "indexed": true,
          "internalType": "bytes32",
          "name": "newAdminRole",
          "type": "bytes32"
        }
      ],
      "name": "RoleAdminChanged",
      "type": "event"
    },
    {
      "anonymous": false,
      "inputs": [
        {
          "indexed": true,
          "internalType": "bytes32",
          "name": "role",
          "type": "bytes32"
        },
        {
          "indexed": true,
          "internalType": "address",
          "name": "account",
          "type": "address"
        },
        {
          "indexed": true,
          "internalType": "address",
          "name": "sender",
          "type": "address"
        }
      ],
      "name": "RoleGranted",
      "type": "event"
    },
    {
      "anonymous": false,
      "inputs": [
        {
          "indexed": true,
          "internalType": "bytes32",
          "name": "role",
          "type": "bytes32"
        },
        {
          "indexed": true,
          "internalType": "address",
          "name": "account",
          "type": "address"
        },
        {
          "indexed": true,
          "internalType": "address",
          "name": "sender",
          "type": "address"
        }
      ],
      "name": "RoleRevoked",
      "type": "event"
    },
    {
      "anonymous": false,
      "inputs": [
        {
          "indexed": false,
          "internalType": "bool",
          "name": "hasWhitelisting",
          "type": "bool"
        }
      ],
      "name": "SetHasWhitelisting",
      "type": "event"
    },
    {
      "anonymous": false,
      "inputs": [
        {
          "indexed": false,
          "internalType": "address",
          "name": "account",
          "type": "address"
        }
      ],
      "name": "Unpaused",
      "type": "event"
    },
    {
      "inputs": [],
      "name": "DEFAULT_ADMIN_ROLE",
      "outputs": [
        {
          "internalType": "bytes32",
          "name": "",
          "type": "bytes32"
        }
      ],
      "stateMutability": "view",
      "type": "function"
    },
    {
      "inputs": [],
      "name": "FEE_ADDRESS",
      "outputs": [
        {
          "internalType": "address",
          "name": "",
          "type": "address"
        }
      ],
      "stateMutability": "view",
      "type": "function"
    },
    {
      "inputs": [],
      "name": "WHITELIST_OWNER_ROLE",
      "outputs": [
        {
          "internalType": "bytes32",
          "name": "",
          "type": "bytes32"
        }
      ],
      "stateMutability": "view",
      "type": "function"
    },
    {
      "inputs": [
        {
          "internalType": "address[]",
          "name": "_addresses",
          "type": "address[]"
        }
      ],
      "name": "addArrayToBlacklist",
      "outputs": [],
      "stateMutability": "nonpayable",
      "type": "function"
    },
    {
      "inputs": [
        {
          "internalType": "address[]",
          "name": "_addresses",
          "type": "address[]"
        }
      ],
      "name": "addArrayToWhitelist",
      "outputs": [],
      "stateMutability": "nonpayable",
      "type": "function"
    },
    {
      "inputs": [
        {
          "internalType": "address",
          "name": "_address",
          "type": "address"
        }
      ],
      "name": "addToBlacklist",
      "outputs": [],
      "stateMutability": "nonpayable",
      "type": "function"
    },
    {
      "inputs": [
        {
          "internalType": "address",
          "name": "_address",
          "type": "address"
        }
      ],
      "name": "addToWhitelist",
      "outputs": [],
      "stateMutability": "nonpayable",
      "type": "function"
    },
    {
      "inputs": [
        {
          "internalType": "uint256",
          "name": "",
          "type": "uint256"
        }
      ],
      "name": "buyers",
      "outputs": [
        {
          "internalType": "address",
          "name": "",
          "type": "address"
        }
      ],
      "stateMutability": "view",
      "type": "function"
    },
    {
      "inputs": [
        {
          "internalType": "uint256",
          "name": "",
          "type": "uint256"
        }
      ],
      "name": "categories",
      "outputs": [
        {
          "internalType": "uint256",
          "name": "categoryId",
          "type": "uint256"
        },
        {
          "internalType": "uint256",
          "name": "supply",
          "type": "uint256"
        },
        {
          "internalType": "uint256",
          "name": "price",
          "type": "uint256"
        }
      ],
      "stateMutability": "view",
      "type": "function"
    },
    {
      "inputs": [
        {
          "internalType": "uint256",
          "name": "",
          "type": "uint256"
        }
      ],
      "name": "categoryIds",
      "outputs": [
        {
          "internalType": "uint256",
          "name": "",
          "type": "uint256"
        }
      ],
      "stateMutability": "view",
      "type": "function"
    },
    {
      "inputs": [
        {
          "internalType": "uint256",
          "name": "_amount",
          "type": "uint256"
        },
        {
          "internalType": "uint256",
          "name": "_categoryId",
          "type": "uint256"
        }
      ],
      "name": "cost",
      "outputs": [
        {
          "internalType": "uint256",
          "name": "",
          "type": "uint256"
        }
      ],
      "stateMutability": "view",
      "type": "function"
    },
    {
      "inputs": [],
      "name": "distributionDate",
      "outputs": [
        {
          "internalType": "uint256",
          "name": "",
          "type": "uint256"
        }
      ],
      "stateMutability": "view",
      "type": "function"
    },
    {
      "inputs": [],
      "name": "endDate",
      "outputs": [
        {
          "internalType": "uint256",
          "name": "",
          "type": "uint256"
        }
      ],
      "stateMutability": "view",
      "type": "function"
    },
    {
      "inputs": [],
      "name": "erc20TradeIn",
      "outputs": [
        {
          "internalType": "contract IERC20",
          "name": "",
          "type": "address"
        }
      ],
      "stateMutability": "view",
      "type": "function"
    },
    {
      "inputs": [],
      "name": "feePercentage",
      "outputs": [
        {
          "internalType": "uint256",
          "name": "",
          "type": "uint256"
        }
      ],
      "stateMutability": "view",
      "type": "function"
    },
    {
      "inputs": [],
      "name": "getAPIVersion",
      "outputs": [
        {
          "internalType": "uint32",
          "name": "API_VERSION",
          "type": "uint32"
        }
      ],
      "stateMutability": "pure",
      "type": "function"
    },
    {
      "inputs": [],
      "name": "getBlacklistedAddresses",
      "outputs": [
        {
          "internalType": "address[]",
          "name": "",
          "type": "address[]"
        }
      ],
      "stateMutability": "view",
      "type": "function"
    },
    {
      "inputs": [],
      "name": "getBuyers",
      "outputs": [
        {
          "internalType": "address[]",
          "name": "",
          "type": "address[]"
        }
      ],
      "stateMutability": "view",
      "type": "function"
    },
    {
      "inputs": [],
      "name": "getCategoryIds",
      "outputs": [
        {
          "internalType": "uint256[]",
          "name": "",
          "type": "uint256[]"
        }
      ],
      "stateMutability": "view",
      "type": "function"
    },
    {
      "inputs": [
        {
          "internalType": "address",
          "name": "_address",
          "type": "address"
        },
        {
          "internalType": "uint256",
          "name": "_categoryId",
          "type": "uint256"
        }
      ],
      "name": "getIsClaimedCategoryForUser",
      "outputs": [
        {
          "internalType": "bool",
          "name": "",
          "type": "bool"
        }
      ],
      "stateMutability": "view",
      "type": "function"
    },
    {
      "inputs": [
        {
          "internalType": "address",
          "name": "_address",
          "type": "address"
        }
      ],
      "name": "getMyPurchases",
      "outputs": [
        {
          "internalType": "uint256[]",
          "name": "",
          "type": "uint256[]"
        }
      ],
      "stateMutability": "view",
      "type": "function"
    },
    {
      "inputs": [
        {
          "internalType": "uint256",
          "name": "purchaseId",
          "type": "uint256"
        }
      ],
      "name": "getPurchase",
      "outputs": [
        {
          "internalType": "address",
          "name": "purchaser",
          "type": "address"
        },
        {
          "internalType": "uint48",
          "name": "timestamp",
          "type": "uint48"
        },
        {
          "internalType": "bool",
          "name": "reverted",
          "type": "bool"
        },
        {
          "internalType": "uint256",
          "name": "categoryId",
          "type": "uint256"
        },
        {
          "internalType": "uint256",
          "name": "amountPurchased",
          "type": "uint256"
        },
        {
          "internalType": "uint256",
          "name": "amountContributed",
          "type": "uint256"
        }
      ],
      "stateMutability": "view",
      "type": "function"
    },
    {
      "inputs": [],
      "name": "getPurchasesCount",
      "outputs": [
        {
          "internalType": "uint256",
          "name": "count",
          "type": "uint256"
        }
      ],
      "stateMutability": "view",
      "type": "function"
    },
    {
      "inputs": [
        {
          "internalType": "uint256",
          "name": "purchaseId",
          "type": "uint256"
        }
      ],
      "name": "getRedeemableTokensAmount",
      "outputs": [
        {
          "internalType": "uint256",
          "name": "amount",
          "type": "uint256"
        },
        {
          "internalType": "uint256",
          "name": "categoryId",
          "type": "uint256"
        },
        {
          "internalType": "string",
          "name": "message",
          "type": "string"
        }
      ],
      "stateMutability": "view",
      "type": "function"
    },
    {
      "inputs": [
        {
          "internalType": "bytes32",
          "name": "role",
          "type": "bytes32"
        }
      ],
      "name": "getRoleAdmin",
      "outputs": [
        {
          "internalType": "bytes32",
          "name": "",
          "type": "bytes32"
        }
      ],
      "stateMutability": "view",
      "type": "function"
    },
    {
      "inputs": [
        {
          "internalType": "bytes32",
          "name": "role",
          "type": "bytes32"
        },
        {
          "internalType": "uint256",
          "name": "index",
          "type": "uint256"
        }
      ],
      "name": "getRoleMember",
      "outputs": [
        {
          "internalType": "address",
          "name": "",
          "type": "address"
        }
      ],
      "stateMutability": "view",
      "type": "function"
    },
    {
      "inputs": [
        {
          "internalType": "bytes32",
          "name": "role",
          "type": "bytes32"
        }
      ],
      "name": "getRoleMemberCount",
      "outputs": [
        {
          "internalType": "uint256",
          "name": "",
          "type": "uint256"
        }
      ],
      "stateMutability": "view",
      "type": "function"
    },
    {
      "inputs": [],
      "name": "getWhitelistedAddresses",
      "outputs": [
        {
          "internalType": "address[]",
          "name": "",
          "type": "address[]"
        }
      ],
      "stateMutability": "view",
      "type": "function"
    },
    {
      "inputs": [
        {
          "internalType": "bytes32",
          "name": "role",
          "type": "bytes32"
        },
        {
          "internalType": "address",
          "name": "account",
          "type": "address"
        }
      ],
      "name": "grantRole",
      "outputs": [],
      "stateMutability": "nonpayable",
      "type": "function"
    },
    {
      "inputs": [],
      "name": "hasDistributed",
      "outputs": [
        {
          "internalType": "bool",
          "name": "",
          "type": "bool"
        }
      ],
      "stateMutability": "view",
      "type": "function"
    },
    {
      "inputs": [],
      "name": "hasFinalized",
      "outputs": [
        {
          "internalType": "bool",
          "name": "",
          "type": "bool"
        }
      ],
      "stateMutability": "view",
      "type": "function"
    },
    {
      "inputs": [],
      "name": "hasMinimumRaise",
      "outputs": [
        {
          "internalType": "bool",
          "name": "",
          "type": "bool"
        }
      ],
      "stateMutability": "view",
      "type": "function"
    },
    {
      "inputs": [
        {
          "internalType": "bytes32",
          "name": "role",
          "type": "bytes32"
        },
        {
          "internalType": "address",
          "name": "account",
          "type": "address"
        }
      ],
      "name": "hasRole",
      "outputs": [
        {
          "internalType": "bool",
          "name": "",
          "type": "bool"
        }
      ],
      "stateMutability": "view",
      "type": "function"
    },
    {
      "inputs": [],
      "name": "hasStarted",
      "outputs": [
        {
          "internalType": "bool",
          "name": "",
          "type": "bool"
        }
      ],
      "stateMutability": "view",
      "type": "function"
    },
    {
      "inputs": [],
      "name": "hasWhitelisting",
      "outputs": [
        {
          "internalType": "bool",
          "name": "",
          "type": "bool"
        }
      ],
      "stateMutability": "view",
      "type": "function"
    },
    {
      "inputs": [],
      "name": "individualMaximumAmount",
      "outputs": [
        {
          "internalType": "uint256",
          "name": "",
          "type": "uint256"
        }
      ],
      "stateMutability": "view",
      "type": "function"
    },
    {
      "inputs": [
        {
          "internalType": "address",
          "name": "_address",
          "type": "address"
        }
      ],
      "name": "isBlacklisted",
      "outputs": [
        {
          "internalType": "bool",
          "name": "",
          "type": "bool"
        }
      ],
      "stateMutability": "view",
      "type": "function"
    },
    {
      "inputs": [
        {
          "internalType": "uint256",
          "name": "purchaseId",
          "type": "uint256"
        }
      ],
      "name": "isBuyer",
      "outputs": [
        {
          "internalType": "bool",
          "name": "",
          "type": "bool"
        }
      ],
      "stateMutability": "view",
      "type": "function"
    },
    {
      "inputs": [],
      "name": "isETHTrade",
      "outputs": [
        {
          "internalType": "bool",
          "name": "",
          "type": "bool"
        }
      ],
      "stateMutability": "view",
      "type": "function"
    },
    {
      "inputs": [],
      "name": "isOpen",
      "outputs": [
        {
          "internalType": "bool",
          "name": "",
          "type": "bool"
        }
      ],
      "stateMutability": "view",
      "type": "function"
    },
    {
      "inputs": [],
      "name": "isPreStart",
      "outputs": [
        {
          "internalType": "bool",
          "name": "",
          "type": "bool"
        }
      ],
      "stateMutability": "view",
      "type": "function"
    },
    {
      "inputs": [
        {
          "internalType": "address",
          "name": "_userAccountAaddress",
          "type": "address"
        },
        {
          "internalType": "uint256",
          "name": "_accountMaximunAllocation",
          "type": "uint256"
        },
        {
          "internalType": "bytes",
          "name": "signature",
          "type": "bytes"
        }
      ],
      "name": "isSignerForAddressMaxAlloc",
      "outputs": [
        {
          "internalType": "bool",
          "name": "",
          "type": "bool"
        }
      ],
      "stateMutability": "view",
      "type": "function"
    },
    {
      "inputs": [
        {
          "internalType": "bytes32",
          "name": "hash",
          "type": "bytes32"
        },
        {
          "internalType": "bytes",
          "name": "signature",
          "type": "bytes"
        }
      ],
      "name": "isSignerFromBytes32",
      "outputs": [
        {
          "internalType": "bool",
          "name": "",
          "type": "bool"
        }
      ],
      "stateMutability": "view",
      "type": "function"
    },
    {
      "inputs": [
        {
          "internalType": "address",
          "name": "_address",
          "type": "address"
        }
      ],
      "name": "isWhitelisted",
      "outputs": [
        {
          "internalType": "bool",
          "name": "",
          "type": "bool"
        }
      ],
      "stateMutability": "view",
      "type": "function"
    },
    {
      "inputs": [
        {
          "internalType": "address",
          "name": "_userAccountAaddress",
          "type": "address"
        },
        {
          "internalType": "uint256",
          "name": "_accountMaximunAllocation",
          "type": "uint256"
        },
        {
          "internalType": "bytes",
          "name": "signature",
          "type": "bytes"
        }
      ],
      "name": "isWhitelistedWithSignatureMaxAlloc",
      "outputs": [
        {
          "internalType": "bool",
          "name": "",
          "type": "bool"
        }
      ],
      "stateMutability": "view",
      "type": "function"
    },
    {
      "inputs": [],
      "name": "maximumRaise",
      "outputs": [
        {
          "internalType": "uint256",
          "name": "",
          "type": "uint256"
        }
      ],
      "stateMutability": "view",
      "type": "function"
    },
    {
      "inputs": [],
      "name": "minimumRaise",
      "outputs": [
        {
          "internalType": "uint256",
          "name": "",
          "type": "uint256"
        }
      ],
      "stateMutability": "view",
      "type": "function"
    },
    {
      "inputs": [],
      "name": "minimumRaiseAchieved",
      "outputs": [
        {
          "internalType": "bool",
          "name": "",
          "type": "bool"
        }
      ],
      "stateMutability": "view",
      "type": "function"
    },
    {
      "inputs": [],
      "name": "minimumRaiseNotAchieved",
      "outputs": [
        {
          "internalType": "bool",
          "name": "",
          "type": "bool"
        }
      ],
      "stateMutability": "view",
      "type": "function"
    },
    {
      "inputs": [
        {
          "internalType": "address",
          "name": "",
          "type": "address"
        },
        {
          "internalType": "uint256",
          "name": "",
          "type": "uint256"
        }
      ],
      "name": "myPurchases",
      "outputs": [
        {
          "internalType": "uint256",
          "name": "",
          "type": "uint256"
        }
      ],
      "stateMutability": "view",
      "type": "function"
    },
    {
      "inputs": [],
      "name": "pause",
      "outputs": [],
      "stateMutability": "nonpayable",
      "type": "function"
    },
    {
      "inputs": [],
      "name": "paused",
      "outputs": [
        {
          "internalType": "bool",
          "name": "",
          "type": "bool"
        }
      ],
      "stateMutability": "view",
      "type": "function"
    },
    {
      "inputs": [
        {
          "internalType": "uint256",
          "name": "purchaseId",
          "type": "uint256"
        }
      ],
      "name": "purchaseExists",
      "outputs": [
        {
          "internalType": "bool",
          "name": "",
          "type": "bool"
        }
      ],
      "stateMutability": "view",
      "type": "function"
    },
    {
      "inputs": [
        {
          "internalType": "address",
          "name": "",
          "type": "address"
        },
        {
          "internalType": "uint256",
          "name": "",
          "type": "uint256"
        }
      ],
      "name": "purchasedCategoriesByUser",
      "outputs": [
        {
          "internalType": "uint256",
          "name": "",
          "type": "uint256"
        }
      ],
      "stateMutability": "view",
      "type": "function"
    },
    {
      "inputs": [
        {
          "internalType": "uint256",
          "name": "",
          "type": "uint256"
        }
      ],
      "name": "purchases",
      "outputs": [
        {
          "internalType": "address",
          "name": "purchaser",
          "type": "address"
        },
        {
          "internalType": "uint48",
          "name": "timestamp",
          "type": "uint48"
        },
        {
          "internalType": "bool",
          "name": "reverted",
          "type": "bool"
        },
        {
          "internalType": "uint256",
          "name": "categoryId",
          "type": "uint256"
        },
        {
          "internalType": "uint256",
          "name": "amountPurchased",
          "type": "uint256"
        },
        {
          "internalType": "uint256",
          "name": "amountContributed",
          "type": "uint256"
        }
      ],
      "stateMutability": "view",
      "type": "function"
    },
    {
      "inputs": [
        {
          "internalType": "bytes32",
          "name": "hash",
          "type": "bytes32"
        },
        {
          "internalType": "bytes",
          "name": "signature",
          "type": "bytes"
        }
      ],
      "name": "recoverSignerAddressFromBytes32",
      "outputs": [
        {
          "internalType": "address",
          "name": "",
          "type": "address"
        }
      ],
      "stateMutability": "pure",
      "type": "function"
    },
    {
      "inputs": [
        {
          "internalType": "uint256",
          "name": "purchaseId",
          "type": "uint256"
        }
      ],
      "name": "redeemGivenMinimumGoalNotAchieved",
      "outputs": [],
      "stateMutability": "nonpayable",
      "type": "function"
    },
    {
      "inputs": [
        {
          "internalType": "address",
          "name": "_address",
          "type": "address"
        }
      ],
      "name": "removeFromBlacklist",
      "outputs": [],
      "stateMutability": "nonpayable",
      "type": "function"
    },
    {
      "inputs": [
        {
          "internalType": "address",
          "name": "_address",
          "type": "address"
        }
      ],
      "name": "removeFromWhitelist",
      "outputs": [],
      "stateMutability": "nonpayable",
      "type": "function"
    },
    {
      "inputs": [
        {
          "internalType": "address",
          "name": "_tokenAddress",
          "type": "address"
        },
        {
          "internalType": "address",
          "name": "_to",
          "type": "address"
        }
      ],
      "name": "removeOtherERC20Tokens",
      "outputs": [],
      "stateMutability": "nonpayable",
      "type": "function"
    },
    {
      "inputs": [
        {
          "internalType": "bytes32",
          "name": "role",
          "type": "bytes32"
        },
        {
          "internalType": "address",
          "name": "account",
          "type": "address"
        }
      ],
      "name": "renounceRole",
      "outputs": [],
      "stateMutability": "nonpayable",
      "type": "function"
    },
    {
      "inputs": [
        {
          "internalType": "bytes32",
          "name": "role",
          "type": "bytes32"
        },
        {
          "internalType": "address",
          "name": "account",
          "type": "address"
        }
      ],
      "name": "revokeRole",
      "outputs": [],
      "stateMutability": "nonpayable",
      "type": "function"
    },
    {
      "inputs": [],
      "name": "safePullETH",
      "outputs": [],
      "stateMutability": "nonpayable",
      "type": "function"
    },
    {
      "inputs": [],
      "name": "safePullTradeToken",
      "outputs": [],
      "stateMutability": "nonpayable",
      "type": "function"
    },
    {
      "inputs": [
        {
          "internalType": "uint256[]",
          "name": "_categoryIds",
          "type": "uint256[]"
        },
        {
          "internalType": "uint256[]",
          "name": "_categoriesSupply",
          "type": "uint256[]"
        },
        {
          "internalType": "uint256[]",
          "name": "_categoriesPrice",
          "type": "uint256[]"
        }
      ],
      "name": "setCategories",
      "outputs": [],
      "stateMutability": "nonpayable",
      "type": "function"
    },
    {
      "inputs": [
        {
          "internalType": "uint256",
          "name": "_distributionDate",
          "type": "uint256"
        }
      ],
      "name": "setDistributionDate",
      "outputs": [],
      "stateMutability": "nonpayable",
      "type": "function"
    },
    {
      "inputs": [
        {
          "internalType": "uint256",
          "name": "_endDate",
          "type": "uint256"
        }
      ],
      "name": "setEndDate",
      "outputs": [],
      "stateMutability": "nonpayable",
      "type": "function"
    },
    {
      "inputs": [
        {
          "internalType": "bool",
          "name": "_hasWhitelisting",
          "type": "bool"
        }
      ],
      "name": "setHasWhitelisting",
      "outputs": [],
      "stateMutability": "nonpayable",
      "type": "function"
    },
    {
      "inputs": [
        {
          "internalType": "uint256",
          "name": "_individualMaximumAmount",
          "type": "uint256"
        }
      ],
      "name": "setIndividualMaximumAmount",
      "outputs": [],
      "stateMutability": "nonpayable",
      "type": "function"
    },
    {
      "inputs": [
        {
          "internalType": "address",
          "name": "_signerPublicAddress",
          "type": "address"
        }
      ],
      "name": "setSignerPublicAddress",
      "outputs": [],
      "stateMutability": "nonpayable",
      "type": "function"
    },
    {
      "inputs": [
        {
          "internalType": "uint256",
          "name": "_startDate",
          "type": "uint256"
        }
      ],
      "name": "setStartDate",
      "outputs": [],
      "stateMutability": "nonpayable",
      "type": "function"
    },
    {
      "inputs": [
        {
          "internalType": "address",
          "name": "_user",
          "type": "address"
        },
        {
          "internalType": "uint256",
          "name": "_categoryId",
          "type": "uint256"
        }
      ],
      "name": "setUserClaimedCategory",
      "outputs": [],
      "stateMutability": "nonpayable",
      "type": "function"
    },
    {
      "inputs": [],
      "name": "signerPublicAddress",
      "outputs": [
        {
          "internalType": "address",
          "name": "",
          "type": "address"
        }
      ],
      "stateMutability": "view",
      "type": "function"
    },
    {
      "inputs": [
        {
          "internalType": "uint256",
          "name": "",
          "type": "uint256"
        }
      ],
      "name": "soldByCategoryId",
      "outputs": [
        {
          "internalType": "uint256",
          "name": "",
          "type": "uint256"
        }
      ],
      "stateMutability": "view",
      "type": "function"
    },
    {
      "inputs": [],
      "name": "startDate",
      "outputs": [
        {
          "internalType": "uint256",
          "name": "",
          "type": "uint256"
        }
      ],
      "stateMutability": "view",
      "type": "function"
    },
    {
      "inputs": [
        {
          "internalType": "uint256",
          "name": "_amount",
          "type": "uint256"
        },
        {
          "internalType": "uint256",
          "name": "_categoryId",
          "type": "uint256"
        },
        {
          "internalType": "uint256",
          "name": "_accountMaxAmount",
          "type": "uint256"
        },
        {
          "internalType": "bytes",
          "name": "_signature",
          "type": "bytes"
        }
      ],
      "name": "swapWithSig",
      "outputs": [],
      "stateMutability": "payable",
      "type": "function"
    },
    {
      "inputs": [],
      "name": "tokensAllocated",
      "outputs": [
        {
          "internalType": "uint256",
          "name": "",
          "type": "uint256"
        }
      ],
      "stateMutability": "view",
      "type": "function"
    },
    {
      "inputs": [
        {
          "internalType": "uint256",
          "name": "_categoryId",
          "type": "uint256"
        }
      ],
      "name": "tokensLeft",
      "outputs": [
        {
          "internalType": "uint256",
          "name": "",
          "type": "uint256"
        }
      ],
      "stateMutability": "view",
      "type": "function"
    },
    {
      "inputs": [],
      "name": "totalRaiseCost",
      "outputs": [
        {
          "internalType": "uint256",
          "name": "",
          "type": "uint256"
        }
      ],
      "stateMutability": "view",
      "type": "function"
    },
    {
      "inputs": [],
      "name": "unpause",
      "outputs": [],
      "stateMutability": "nonpayable",
      "type": "function"
    },
    {
      "inputs": [],
      "name": "withdrawFunds",
      "outputs": [],
      "stateMutability": "nonpayable",
      "type": "function"
    }
  ],
  "bytecode": "0x60806040526002805460ff60a01b191690553480156200001e57600080fd5b50604051620055483803806200554883398181016040526101608110156200004557600080fd5b815160208301516040808501516060860151608087015160a088015160c089015160e08a01516101008b0180519751999b989a969995989497939692959194919392820192846401000000008211156200009e57600080fd5b908301906020820185811115620000b457600080fd5b8251866020820283011164010000000082111715620000d257600080fd5b82525081516020918201928201910280838360005b8381101562000101578181015183820152602001620000e7565b50505050905001604052602001805160405193929190846401000000008211156200012b57600080fd5b9083019060208201858111156200014157600080fd5b82518660208202830111640100000000821117156200015f57600080fd5b82525081516020918201928201910280838360005b838110156200018e57818101518382015260200162000174565b5050505090500160405260200180516040519392919084640100000000821115620001b857600080fd5b908301906020820185811115620001ce57600080fd5b8251866020820283011164010000000082111715620001ec57600080fd5b82525081516020918201928201910280838360005b838110156200021b57818101518382015260200162000201565b505050509190910160405250506000805460ff1916905550506002805460ff60a01b1916600160a01b8715150217905584620002787fb813b807c25079ba97f1770664c6a9e57c59afe74a6295f1ed01c10e3bb6baae3362000578565b506200028660003362000578565b8a4210620002db576040805162461bcd60e51b815260206004820152601960248201527f7374617274206461746520697320696e20746865207061737400000000000000604482015290519081900360640190fd5b606386111562000332576040805162461bcd60e51b815260206004820152601e60248201527f4665652050657263656e746167652068617320746f206265203c203130300000604482015290519081900360640190fd5b600a83511115620003755760405162461bcd60e51b8152600401808060200182810382526023815260200180620055256023913960400191505060405180910390fd5b8151835114801562000388575080518351145b620003da576040805162461bcd60e51b815260206004820152601460248201527f43617465676f72696573206d6973736d61746368000000000000000000000000604482015290519081900360640190fd5b6000805b8451811015620004f357600060405180606001604052808784815181106200040257fe5b602002602001015181526020018684815181106200041c57fe5b602002602001015181526020018584815181106200043657fe5b6020026020010151815250905080601360008885815181106200045557fe5b60200260200101518152602001908152602001600020600082015181600001556020820151816001015560408201518160020155905050620004e7620004d2858481518110620004a157fe5b6020026020010151878581518110620004b657fe5b60200260200101516200058860201b62003cfb1790919060201c565b84620005ef60201b62003d541790919060201c565b925050600101620003de565b50835162000509906012906020870190620008f8565b50600d8890556200051a896200064a565b60098c90556200052a8b620006ae565b600b8a90556001600160a01b038516156200055b57600780546001600160a01b0319166001600160a01b0387161790555b600896909655505050600f92909255506200095f95505050505050565b620005848282620007be565b5050565b6000826200059957506000620005e9565b82820282848281620005a757fe5b0414620005e65760405162461bcd60e51b8152600401808060200182810382526021815260200180620055046021913960400191505060405180910390fd5b90505b92915050565b600082820183811015620005e6576040805162461bcd60e51b815260206004820152601b60248201527f536166654d6174683a206164646974696f6e206f766572666c6f770000000000604482015290519081900360640190fd5b6200065760003362000839565b620006a9576040805162461bcd60e51b815260206004820152601960248201527f63616c6c657220686173206e6f742061646d696e20726f6c6500000000000000604482015290519081900360640190fd5b600c55565b620006bb60003362000839565b6200070d576040805162461bcd60e51b815260206004820152601960248201527f63616c6c657220686173206e6f742061646d696e20726f6c6500000000000000604482015290519081900360640190fd5b80421062000762576040805162461bcd60e51b815260206004820181905260248201527f656e6420646174652068617320746f20626520696e2074686520667574757265604482015290519081900360640190fd5b8060095410620007b9576040805162461bcd60e51b815260206004820152601a60248201527f656e642064617465206265666f72652073746172742064617465000000000000604482015290519081900360640190fd5b600a55565b6000828152600160209081526040909120620007e591839062003dae6200085f821b17901c565b156200058457620007f562000876565b6001600160a01b0316816001600160a01b0316837f2f8788117e7eff1d82e926ec794901d17c78024a50270940304540a733656f0d60405160405180910390a45050565b60008281526001602090815260408220620005e691849062003dc36200087a821b17901c565b6000620005e6836001600160a01b03841662000891565b3390565b6000620005e6836001600160a01b038416620008e0565b60006200089f8383620008e0565b620008d757508154600181810184556000848152602080822090930184905584548482528286019093526040902091909155620005e9565b506000620005e9565b60009081526001919091016020526040902054151590565b82805482825590600052602060002090810192821562000936579160200282015b828111156200093657825182559160200191906001019062000919565b506200094492915062000948565b5090565b5b8082111562000944576000815560010162000949565b614b95806200096f6000396000f3fe60806040526004361061047e5760003560e01c80637ad0250c11610255578063bbea928c11610144578063e4101de5116100c1578063ecfd274211610085578063ecfd2742146115d4578063efbb34d51461160d578063f2aa821814611622578063f64bfaba1461164c578063fe575a8714611661578063fecf415a146116945761047e565b8063e4101de5146114aa578063e43252d7146114bf578063e4a80252146114f2578063e8b882f4146115aa578063eb1edd61146115bf5761047e565b8063ca15c87311610108578063ca15c873146113de578063d547741f14611408578063d63098dd14611441578063dc91b0721461146b578063e34c8dbf146114955761047e565b8063bbea928c14611324578063bf135abe14611339578063c24a0f8b1461134e578063c3ca324f14611363578063c6cdbe5e146113965761047e565b80639d90a46e116101d2578063abadefff11610196578063abadefff146111e2578063b0b12ac314611299578063b367940e146112c7578063b8691787146112dc578063ba40a96a1461130f5761047e565b80639d90a46e146110cb578063a001ecdd14611179578063a1c09bf11461118e578063a217fddf146111a3578063a4f13dcd146111b85761047e565b80638e75b131116102195780638e75b13114610ffd5780639010d07c14611012578063917c854d1461104257806391d148541461107d57806396a32bc4146110b65761047e565b80637ad0250c14610f3757806382d95df514610f615780638392fe3114610f8b5780638456cb5914610fb55780638ab1d68114610fca5761047e565b80633ec02e14116103715780635c975abb116102ee57806374fa05fb116102b257806374fa05fb14610d5e578063751ef93d14610d73578063755e3e2814610e3957806376807e5f14610e4e578063799bb23214610e635761047e565b80635c975abb14610c185780635e7446d714610c2d5780636690a65314610c575780636d02802714610d1d5780636eaaabd514610d325761047e565b806347535d7b1161033557806347535d7b14610b49578063503240bd14610b5e57806353505bc914610b97578063537df3b614610bac5780635ac699bb14610bdf5761047e565b80633ec02e1414610aa75780633f4ba83a14610ad75780634089aa9a14610aec57806344337ea114610b0157806344691f7e14610b345761047e565b80632593ea17116103ff5780633742a9f7116103c35780633742a9f7146108c75780633784f000146109355780633af32abf1461095f5780633b6577c8146109925780633bbab17914610a425761047e565b80632593ea17146108015780632a92efd21461082b5780632ebb5c1e146108405780632f2ff15d1461085557806336568abe1461088e5761047e565b806315b578661161044657806315b57866146105d15780631de18af7146105e65780632448cbc61461061057806324600fc3146107c2578063248a9ca3146107d75761047e565b8063044c0cc51461048357806307662345146104ac57806308abd7ff146104c15780630b97bc86146105715780630cbe815614610598575b600080fd5b34801561048f57600080fd5b506104986116be565b604080519115158252519081900360200190f35b3480156104b857600080fd5b506104986116ce565b3480156104cd57600080fd5b5061056f600480360360208110156104e457600080fd5b810190602081018135600160201b8111156104fe57600080fd5b82018360208201111561051057600080fd5b803590602001918460208302840111600160201b8311171561053157600080fd5b9190808060200260200160405190810160405280939291908181526020018383602002808284376000920191909152509295506116de945050505050565b005b34801561057d57600080fd5b506105866117bc565b60408051918252519081900360200190f35b3480156105a457600080fd5b5061056f600480360360408110156105bb57600080fd5b506001600160a01b0381351690602001356117c2565b3480156105dd57600080fd5b50610498611925565b3480156105f257600080fd5b5061056f6004803603602081101561060957600080fd5b503561192d565b34801561061c57600080fd5b5061056f6004803603606081101561063357600080fd5b810190602081018135600160201b81111561064d57600080fd5b82018360208201111561065f57600080fd5b803590602001918460208302840111600160201b8311171561068057600080fd5b9190808060200260200160405190810160405280939291908181526020018383602002808284376000920191909152509295949360208101935035915050600160201b8111156106cf57600080fd5b8201836020820111156106e157600080fd5b803590602001918460208302840111600160201b8311171561070257600080fd5b9190808060200260200160405190810160405280939291908181526020018383602002808284376000920191909152509295949360208101935035915050600160201b81111561075157600080fd5b82018360208201111561076357600080fd5b803590602001918460208302840111600160201b8311171561078457600080fd5b919080806020026020016040519081016040528093929190818152602001838360200280828437600092019190915250929550611be6945050505050565b3480156107ce57600080fd5b5061056f611e36565b3480156107e357600080fd5b50610586600480360360208110156107fa57600080fd5b5035612167565b34801561080d57600080fd5b506104986004803603602081101561082457600080fd5b503561217c565b34801561083757600080fd5b50610498612183565b34801561084c57600080fd5b5061049861218c565b34801561086157600080fd5b5061056f6004803603604081101561087857600080fd5b50803590602001356001600160a01b0316612194565b34801561089a57600080fd5b5061056f600480360360408110156108b157600080fd5b50803590602001356001600160a01b03166121fc565b3480156108d357600080fd5b506108f1600480360360208110156108ea57600080fd5b503561225d565b604080516001600160a01b03909716875265ffffffffffff9095166020870152921515858501526060850191909152608084015260a0830152519081900360c00190f35b34801561094157600080fd5b5061056f6004803603602081101561095857600080fd5b503561235b565b34801561096b57600080fd5b506104986004803603602081101561098257600080fd5b50356001600160a01b0316612454565b34801561099e57600080fd5b506109bc600480360360208110156109b557600080fd5b5035612467565b6040518084815260200183815260200180602001828103825283818151815260200191508051906020019080838360005b83811015610a055781810151838201526020016109ed565b50505050905090810190601f168015610a325780820380516001836020036101000a031916815260200191505b5094505050505060405180910390f35b348015610a4e57600080fd5b50610a57612653565b60408051602080825283518183015283519192839290830191858101910280838360005b83811015610a93578181015183820152602001610a7b565b505050509050019250505060405180910390f35b348015610ab357600080fd5b5061058660048036036040811015610aca57600080fd5b5080359060200135612664565b348015610ae357600080fd5b5061056f6126eb565b348015610af857600080fd5b5061049861273d565b348015610b0d57600080fd5b5061056f60048036036020811015610b2457600080fd5b50356001600160a01b0316612746565b348015610b4057600080fd5b506104986127e5565b348015610b5557600080fd5b506104986127ee565b348015610b6a57600080fd5b5061049860048036036040811015610b8157600080fd5b506001600160a01b03813516906020013561280d565b348015610ba357600080fd5b50610586612838565b348015610bb857600080fd5b5061056f60048036036020811015610bcf57600080fd5b50356001600160a01b031661283e565b348015610beb57600080fd5b5061058660048036036040811015610c0257600080fd5b506001600160a01b0381351690602001356128dc565b348015610c2457600080fd5b5061049861290d565b348015610c3957600080fd5b5061058660048036036020811015610c5057600080fd5b5035612916565b348015610c6357600080fd5b5061049860048036036060811015610c7a57600080fd5b6001600160a01b0382351691602081013591810190606081016040820135600160201b811115610ca957600080fd5b820183602082011115610cbb57600080fd5b803590602001918460018302840111600160201b83111715610cdc57600080fd5b91908080601f016020809104026020016040519081016040528093929190818152602001838380828437600092019190915250929550612938945050505050565b348015610d2957600080fd5b50610a5761297b565b348015610d3e57600080fd5b5061056f60048036036020811015610d5557600080fd5b50351515612987565b348015610d6a57600080fd5b50610498612a31565b348015610d7f57600080fd5b5061049860048036036060811015610d9657600080fd5b6001600160a01b0382351691602081013591810190606081016040820135600160201b811115610dc557600080fd5b820183602082011115610dd757600080fd5b803590602001918460018302840111600160201b83111715610df857600080fd5b91908080601f016020809104026020016040519081016040528093929190818152602001838380828437600092019190915250929550612a3b945050505050565b348015610e4557600080fd5b50610586612ab0565b348015610e5a57600080fd5b5061056f612ab6565b348015610e6f57600080fd5b50610f1b60048036036040811015610e8657600080fd5b81359190810190604081016020820135600160201b811115610ea757600080fd5b820183602082011115610eb957600080fd5b803590602001918460018302840111600160201b83111715610eda57600080fd5b91908080601f016020809104026020016040519081016040528093929190818152602001838380828437600092019190915250929550612b50945050505050565b604080516001600160a01b039092168252519081900360200190f35b348015610f4357600080fd5b5061056f60048036036020811015610f5a57600080fd5b5035612bbb565b348015610f6d57600080fd5b5061056f60048036036020811015610f8457600080fd5b5035612ce1565b348015610f9757600080fd5b506108f160048036036020811015610fae57600080fd5b5035612dc4565b348015610fc157600080fd5b5061056f612e22565b348015610fd657600080fd5b5061056f60048036036020811015610fed57600080fd5b50356001600160a01b0316612e74565b34801561100957600080fd5b50610586612f12565b34801561101e57600080fd5b50610f1b6004803603604081101561103557600080fd5b5080359060200135612f18565b34801561104e57600080fd5b5061056f6004803603604081101561106557600080fd5b506001600160a01b0381358116916020013516612f30565b34801561108957600080fd5b50610498600480360360408110156110a057600080fd5b50803590602001356001600160a01b03166130bf565b3480156110c257600080fd5b5061056f6130d7565b3480156110d757600080fd5b5061056f600480360360208110156110ee57600080fd5b810190602081018135600160201b81111561110857600080fd5b82018360208201111561111a57600080fd5b803590602001918460208302840111600160201b8311171561113b57600080fd5b91908080602002602001604051908101604052809392919081815260200183836020028082843760009201919091525092955061319d945050505050565b34801561118557600080fd5b5061058661327a565b34801561119a57600080fd5b50610586613280565b3480156111af57600080fd5b50610586613286565b3480156111c457600080fd5b50610586600480360360208110156111db57600080fd5b503561328b565b61056f600480360360808110156111f857600080fd5b81359160208101359160408201359190810190608081016060820135600160201b81111561122557600080fd5b82018360208201111561123757600080fd5b803590602001918460018302840111600160201b8311171561125857600080fd5b91908080601f01602080910402602001604051908101604052809392919081815260200183838082843760009201919091525092955061329d945050505050565b3480156112a557600080fd5b506112ae613899565b6040805163ffffffff9092168252519081900360200190f35b3480156112d357600080fd5b506104986138a0565b3480156112e857600080fd5b5061056f600480360360208110156112ff57600080fd5b50356001600160a01b03166138ab565b34801561131b57600080fd5b50610f1b613924565b34801561133057600080fd5b50610a57613933565b34801561134557600080fd5b50610f1b61398b565b34801561135a57600080fd5b5061058661399a565b34801561136f57600080fd5b50610a576004803603602081101561138657600080fd5b50356001600160a01b03166139a0565b3480156113a257600080fd5b506113c0600480360360208110156113b957600080fd5b5035613a0c565b60408051938452602084019290925282820152519081900360600190f35b3480156113ea57600080fd5b506105866004803603602081101561140157600080fd5b5035613a2d565b34801561141457600080fd5b5061056f6004803603604081101561142b57600080fd5b50803590602001356001600160a01b0316613a44565b34801561144d57600080fd5b506105866004803603602081101561146457600080fd5b5035613a9d565b34801561147757600080fd5b5061056f6004803603602081101561148e57600080fd5b5035613abe565b3480156114a157600080fd5b50610586613b0d565b3480156114b657600080fd5b50610586613b13565b3480156114cb57600080fd5b5061056f600480360360208110156114e257600080fd5b50356001600160a01b0316613b19565b3480156114fe57600080fd5b506104986004803603604081101561151557600080fd5b81359190810190604081016020820135600160201b81111561153657600080fd5b82018360208201111561154857600080fd5b803590602001918460018302840111600160201b8311171561156957600080fd5b91908080601f016020809104026020016040519081016040528093929190818152602001838380828437600092019190915250929550613bb7945050505050565b3480156115b657600080fd5b50610586613be1565b3480156115cb57600080fd5b50610f1b613bf3565b3480156115e057600080fd5b50610586600480360360408110156115f757600080fd5b506001600160a01b038135169060200135613c0b565b34801561161957600080fd5b50610586613c28565b34801561162e57600080fd5b50610f1b6004803603602081101561164557600080fd5b5035613c32565b34801561165857600080fd5b50610a57613c5c565b34801561166d57600080fd5b506104986004803603602081101561168457600080fd5b50356001600160a01b0316613cbd565b3480156116a057600080fd5b50610498600480360360208110156116b757600080fd5b5035613cca565b6007546001600160a01b03161590565b600254600160a01b900460ff1681565b6116f6600080516020614ac7833981519152336130bf565b611735576040805162461bcd60e51b815260206004820152601c6024820152600080516020614a16833981519152604482015290519081900360640190fd5b6000805b825181101561177d5761176983828151811061175157fe5b60200260200101516003613dae90919063ffffffff16565b15611775576001909101905b600101611739565b5080156117b8576040805182815290517f448f3bd350ede14a294c062177c5280fe1eae125d16757da21f5f51d6e89daae9181900360200190a15b5050565b60095481565b6117cd6000336130bf565b61180c576040805162461bcd60e51b81526020600482015260196024820152600080516020614b11833981519152604482015290519081900360640190fd5b61181461273d565b611860576040805162461bcd60e51b81526020600482015260186024820152771cd85b19481a185cc81d1bc8189948199a5b985b1a5e995960421b604482015290519081900360640190fd5b6118686138a0565b6118b5576040805162461bcd60e51b81526020600482015260196024820152781b5a5b9a5b5d5b481c985a5cd9481b9bdd081c995858da1959603a1b604482015290519081900360640190fd5b600b5442116118f55760405162461bcd60e51b81526004018080602001828103825260238152602001806149466023913960400191505060405180910390fd5b6001600160a01b03909116600090815260176020908152604080832093835292905220805460ff19166001179055565b600d54151590565b61193561273d565b611981576040805162461bcd60e51b81526020600482015260186024820152771cd85b19481a185cc81d1bc8189948199a5b985b1a5e995960421b604482015290519081900360640190fd5b61198a81613cca565b6119d2576040805162461bcd60e51b815260206004820152601460248201527330b2323932b9b99034b9903737ba10313abcb2b960611b604482015290519081900360640190fd5b6119da611925565b611a2b576040805162461bcd60e51b815260206004820152601d60248201527f6e6f206d696e696d756d20726169736520686173206265656e20736574000000604482015290519081900360640190fd5b611a33612a31565b611a84576040805162461bcd60e51b815260206004820152601e60248201527f6d696e696d756d20726169736520686173206265656e20726561636865640000604482015290519081900360640190fd5b600060108281548110611a9357fe5b906000526020600020906004020190506000816003015411611afc576040805162461bcd60e51b815260206004820152601760248201527f707572636861736520616d6f756e74206973207a65726f000000000000000000604482015290519081900360640190fd5b336000908152601760209081526040808320600180860154855292529091205460ff16151514611b73576040805162461bcd60e51b815260206004820152601860248201527f557365722068617320616c726561647920636c61696d65640000000000000000604482015290519081900360640190fd5b805460ff60d01b1916600160d01b178155611b8c6116be565b15611bc7576003810154604051339180156108fc02916000818181858888f19350505050158015611bc1573d6000803e3d6000fd5b506117b8565b60038101546007546117b8916001600160a01b03909116903390613dd8565b611bf16000336130bf565b611c30576040805162461bcd60e51b81526020600482015260196024820152600080516020614b11833981519152604482015290519081900360640190fd5b611c3861218c565b611c89576040805162461bcd60e51b815260206004820152601a60248201527f6e6f74206265666f72652073746172742074696d652f64617465000000000000604482015290519081900360640190fd5b600a83511115611cca5760405162461bcd60e51b8152600401808060200182810382526023815260200180614a796023913960400191505060405180910390fd5b81518351148015611cdc575080518351145b611d24576040805162461bcd60e51b8152602060048201526014602482015273086c2e8cacedee4d2cae640dad2e6e6dac2e8c6d60631b604482015290519081900360640190fd5b6000805b8451811015611e19576040518060600160405280868381518110611d4857fe5b60200260200101518152602001858381518110611d6157fe5b60200260200101518152602001848381518110611d7a57fe5b602002602001015181525060136000878481518110611d9557fe5b60200260200101518152602001908152602001600020600082015181600001556020820151816001015560408201518160020155905050611e0f611e08848381518110611dde57fe5b6020026020010151868481518110611df257fe5b6020026020010151613cfb90919063ffffffff16565b8390613d54565b9150600101611d28565b508351611e2d90601290602087019061487b565b50600f55505050565b611e416000336130bf565b611e80576040805162461bcd60e51b81526020600482015260196024820152600080516020614b11833981519152604482015290519081900360640190fd5b611e8861290d565b15611ecd576040805162461bcd60e51b815260206004820152601060248201526f14185d5cd8589b194e881c185d5cd95960821b604482015290519081900360640190fd5b611ed561273d565b611f21576040805162461bcd60e51b81526020600482015260186024820152771cd85b19481a185cc81d1bc8189948199a5b985b1a5e995960421b604482015290519081900360640190fd5b611f296138a0565b611f76576040805162461bcd60e51b81526020600482015260196024820152781b5a5b9a5b5d5b481c985a5cd9481b9bdd081c995858da1959603a1b604482015290519081900360640190fd5b611f7e6116be565b1561201f5773aeb39b67f27b641ef9f95fb74f1a46b1ee4efc836001600160a01b03166108fc611fc46064611fbe60085447613cfb90919063ffffffff16565b90613e2f565b6040518115909202916000818181858888f19350505050158015611fec573d6000803e3d6000fd5b5060405133904780156108fc02916000818181858888f19350505050158015612019573d6000803e3d6000fd5b50612165565b600854600754604080516370a0823160e01b815230600482015290516120d59373aeb39b67f27b641ef9f95fb74f1a46b1ee4efc83936120c293606493611fbe93926001600160a01b0316916370a08231916024808301926020929190829003018186803b15801561209057600080fd5b505afa1580156120a4573d6000803e3d6000fd5b505050506040513d60208110156120ba57600080fd5b505190613cfb565b6007546001600160a01b03169190613dd8565b600754604080516370a0823160e01b815230600482015290516121659233926001600160a01b03909116916370a0823191602480820192602092909190829003018186803b15801561212657600080fd5b505afa15801561213a573d6000803e3d6000fd5b505050506040513d602081101561215057600080fd5b50516007546001600160a01b03169190613dd8565b565b60009081526001602052604090206002015490565b6010541190565b600b5442101590565b600954421090565b6000828152600160205260409020600201546121b7906121b2613e96565b6130bf565b6121f25760405162461bcd60e51b815260040180806020018281038252602f8152602001806148f5602f913960400191505060405180910390fd5b6117b88282613e9a565b612204613e96565b6001600160a01b0316816001600160a01b0316146122535760405162461bcd60e51b815260040180806020018281038252602f815260200180614b31602f913960400191505060405180910390fd5b6117b88282613f03565b60008060008060008061226f8761217c565b6122bc576040805162461bcd60e51b81526020600482015260196024820152781c1d5c98da185cd9525908191bd95cc81b9bdd08195e1a5cdd603a1b604482015290519081900360640190fd5b6000601088815481106122cb57fe5b60009182526020918290206040805160c08101825260049390930290910180546001600160a01b038116808552600160a01b820465ffffffffffff16958501869052600160d01b90910460ff16151592840183905260018201546060850181905260028301546080860181905260039093015460a0909501859052909d949c50919a509098509650945092505050565b6123666000336130bf565b6123a5576040805162461bcd60e51b81526020600482015260196024820152600080516020614b11833981519152604482015290519081900360640190fd5b8042106123f9576040805162461bcd60e51b815260206004820181905260248201527f656e6420646174652068617320746f20626520696e2074686520667574757265604482015290519081900360640190fd5b806009541061244f576040805162461bcd60e51b815260206004820152601a60248201527f656e642064617465206265666f72652073746172742064617465000000000000604482015290519081900360640190fd5b600a55565b6000612461600383613dc3565b92915050565b60008060606124758461217c565b6124b65750506040805180820190915260198152781c1d5c98da185cd9525908191bd95cc81b9bdd08195e1a5cdd603a1b602082015260009150819061264c565b6124be61273d565b61250357505060408051808201909152601881527f746f6b656e2073616c65206e6f742066696e616c697a65640000000000000000602082015260009150819061264c565b61250b61290d565b1561255157505060408051808201909152601d81527f746f6b656e2073616c6520636f6e747261637420697320706175736564000000602082015260009150819061264c565b612559612a31565b1561259b5750506040805180820190915260198152781b5a5b9a5b5d5b481c985a5cd9481b9bdd081c995858da1959603a1b602082015260009150819061264c565b6000601085815481106125aa57fe5b90600052602060002090600402016002015490506000601086815481106125cd57fe5b9060005260206000209060040201600101549050600082111561261c5760408051808201909152600f81526e726561647920746f2072656465656d60881b60208201529194509250905061264c565b6040805180820190915260118152706e6f7468696e6720746f2072656465656d60781b6020820152919450925090505b9193909250565b606061265f6005613f6c565b905090565b6000818152601360205260408120600101546126c7576040805162461bcd60e51b815260206004820152601760248201527f43617465676f727920646f6573206e6f74206578697374000000000000000000604482015290519081900360640190fd5b6000828152601360205260409020600201546126e38185613cfb565b949350505050565b6126f66000336130bf565b612735576040805162461bcd60e51b81526020600482015260196024820152600080516020614b11833981519152604482015290519081900360640190fd5b61216561400c565b600a5442101590565b61275e600080516020614ac7833981519152336130bf565b61279d576040805162461bcd60e51b815260206004820152601c6024820152600080516020614a16833981519152604482015290519081900360640190fd5b6127a8600582613dae565b156127e2576040516001600160a01b038216907ff9b68063b051b82957fa193585681240904fed808db8b30fc5a2d2202c6ed62790600090a25b50565b60095442101590565b60006127f86127e5565b801561265f575061280761273d565b15905090565b6001600160a01b03919091166000908152601760209081526040808320938352929052205460ff1690565b600f5481565b612856600080516020614ac7833981519152336130bf565b612895576040805162461bcd60e51b815260206004820152601c6024820152600080516020614a16833981519152604482015290519081900360640190fd5b6128a06005826140ac565b156127e2576040516001600160a01b038216907f2b6bf71b58b3583add364b3d9060ebf8019650f65f5be35f5464b9cb3e4ba2d490600090a250565b601460205281600052604060002081815481106128f857600080fd5b90600052602060002001600091509150505481565b60005460ff1690565b6000908152601660209081526040808320546013909252909120600101540390565b600061294384613cbd565b1561295057506000612974565b61295984612454565b1561296657506001612974565b612971848484612a3b565b90505b9392505050565b606061265f6003613f6c565b61299f600080516020614ac7833981519152336130bf565b6129de576040805162461bcd60e51b815260206004820152601c6024820152600080516020614a16833981519152604482015290519081900360640190fd5b60028054821515600160a01b810260ff60a01b199092169190911790915560408051918252517fe905f7f52156c346547b9deb6fb3e2459db941ec55d073fd465129bf4b49fae69181900360200190a150565b600d54600e541090565b60408051606085811b6bffffffffffffffffffffffff1916602080840191909152603483018690523090911b60548301528251808303604801815260689092019092528051910120600254600091906001600160a01b0316612a9d8285612b50565b6001600160a01b03161495945050505050565b600e5481565b612ac16000336130bf565b612b00576040805162461bcd60e51b81526020600482015260196024820152600080516020614b11833981519152604482015290519081900360640190fd5b612b0861290d565b6120d5576040805162461bcd60e51b815260206004820152601460248201527314185d5cd8589b194e881b9bdd081c185d5cd95960621b604482015290519081900360640190fd5b60008151604114612ba8576040805162461bcd60e51b815260206004820152601960248201527f7369676e6174757265206973206e6f7420363520627974657300000000000000604482015290519081900360640190fd5b61297482612bb5856140c1565b90614112565b612bc66000336130bf565b612c05576040805162461bcd60e51b81526020600482015260196024820152600080516020614b11833981519152604482015290519081900360640190fd5b612c0d61218c565b612c5e576040805162461bcd60e51b815260206004820152601a60248201527f6e6f74206265666f72652073746172742074696d652f64617465000000000000604482015290519081900360640190fd5b804210612c9c5760405162461bcd60e51b81526004018080602001828103825260298152602001806149bd6029913960400191505060405180910390fd5b600a548111612cdc5760405162461bcd60e51b815260040180806020018281038252602b815260200180614a9c602b913960400191505060405180910390fd5b600b55565b612cec6000336130bf565b612d2b576040805162461bcd60e51b81526020600482015260196024820152600080516020614b11833981519152604482015290519081900360640190fd5b804210612d695760405162461bcd60e51b81526004018080602001828103825260228152602001806149246022913960400191505060405180910390fd5b600a548110612dbf576040805162461bcd60e51b815260206004820152601a60248201527f656e642064617465206265666f72652073746172742064617465000000000000604482015290519081900360640190fd5b600955565b60108181548110612dd457600080fd5b600091825260209091206004909102018054600182015460028301546003909301546001600160a01b0383169450600160a01b830465ffffffffffff1693600160d01b90930460ff16929086565b612e2d6000336130bf565b612e6c576040805162461bcd60e51b81526020600482015260196024820152600080516020614b11833981519152604482015290519081900360640190fd5b612165614192565b612e8c600080516020614ac7833981519152336130bf565b612ecb576040805162461bcd60e51b815260206004820152601c6024820152600080516020614a16833981519152604482015290519081900360640190fd5b612ed66003826140ac565b156127e2576040516001600160a01b038216907fcdd2e9b91a56913d370075169cefa1602ba36be5301664f752192bb1709df75790600090a250565b600d5481565b60008281526001602052604081206129749083614215565b612f3b6000336130bf565b612f7a576040805162461bcd60e51b81526020600482015260196024820152600080516020614b11833981519152604482015290519081900360640190fd5b612f8261273d565b612fce576040805162461bcd60e51b81526020600482015260186024820152771cd85b19481a185cc81d1bc8189948199a5b985b1a5e995960421b604482015290519081900360640190fd5b6007546001600160a01b0383811691161415613031576040805162461bcd60e51b815260206004820152601b60248201527f746f6b656e206973207468652074726164652d696e20746f6b656e0000000000604482015290519081900360640190fd5b6117b881836001600160a01b03166370a08231306040518263ffffffff1660e01b815260040180826001600160a01b0316815260200191505060206040518083038186803b15801561308257600080fd5b505afa158015613096573d6000803e3d6000fd5b505050506040513d60208110156130ac57600080fd5b50516001600160a01b0385169190613dd8565b60008281526001602052604081206129749083613dc3565b6130e26000336130bf565b613121576040805162461bcd60e51b81526020600482015260196024820152600080516020614b11833981519152604482015290519081900360640190fd5b61312961290d565b613171576040805162461bcd60e51b815260206004820152601460248201527314185d5cd8589b194e881b9bdd081c185d5cd95960621b604482015290519081900360640190fd5b60405133904780156108fc02916000818181858888f193505050501580156127e2573d6000803e3d6000fd5b6131b5600080516020614ac7833981519152336130bf565b6131f4576040805162461bcd60e51b815260206004820152601c6024820152600080516020614a16833981519152604482015290519081900360640190fd5b6000805b825181101561323c5761322883828151811061321057fe5b60200260200101516005613dae90919063ffffffff16565b15613234576001909101905b6001016131f8565b5080156117b8576040805182815290517fc2f03ca34d335e49d4d629b85db054d1ffb679b4fec2e06fe10d0e618b175ecb9181900360200190a15050565b60085481565b60105490565b600081565b60166020526000908152604090205481565b6132a561290d565b156132ea576040805162461bcd60e51b815260206004820152601060248201526f14185d5cd8589b194e881c185d5cd95960821b604482015290519081900360640190fd5b6132f26127ee565b613339576040805162461bcd60e51b815260206004820152601360248201527239b0b632903430b9903a379031329037b832b760691b604482015290519081900360640190fd5b60025482908290600160a01b900460ff1615613404576002546001600160a01b03166133be5761336833612454565b6133b9576040805162461bcd60e51b815260206004820152601960248201527f6e6f74206f6e206f6e2d636861696e2077686974656c69737400000000000000604482015290519081900360640190fd5b613404565b6133c9338383612938565b6134045760405162461bcd60e51b81526004018080602001828103825260328152602001806149696032913960400191505060405180910390fd5b60006134108787612664565b905061341a6116be565b1561346c57803414613467576040805162461bcd60e51b8152602060048201526011602482015270496e76616c6964204554482076616c756560781b604482015290519081900360640190fd5b613484565b600754613484906001600160a01b0316333084614221565b61348d86612916565b8711156134e1576040805162461bcd60e51b815260206004820152601960248201527f616d6f756e74203e20746f6b656e7320617661696c61626c6500000000000000604482015290519081900360640190fd5b3360009081526014602090815260408083208054825181850281018501909352808352919290919083018282801561353857602002820191906000526020600020905b815481526020019060010190808311613524575b505050505090506000805b825181101561359a57613590601084838151811061355d57fe5b60200260200101518154811061356f57fe5b90600052602060002090600402016003015483613d5490919063ffffffff16565b9150600101613543565b5086156135a757866135ab565b600c545b6135b58285613d54565b1115613608576040805162461bcd60e51b815260206004820152601f60248201527f616d6f756e7420676f6573206f76657220696e646976696475616c206d617800604482015290519081900360640190fd5b60106040518060c00160405280336001600160a01b0316815260200161362d42614281565b65ffffffffffff1681526020016000151581526020018a81526020018b815260200185815250908060018154018082558091505060019003906000526020600020906004020160009091909190915060008201518160000160006101000a8154816001600160a01b0302191690836001600160a01b0316021790555060208201518160000160146101000a81548165ffffffffffff021916908365ffffffffffff160217905550604082015181600001601a6101000a81548160ff021916908315150217905550606082015181600101556080820151816002015560a08201518160030155505060146000336001600160a01b03166001600160a01b0316815260200190815260200160002060016010805490500390806001815401808255809150506001900390600052602060002001600090919091909150556137b18960156000336001600160a01b03166001600160a01b0316815260200190815260200160002060008b815260200190815260200160002054613d5490919063ffffffff16565b3360008181526015602090815260408083208d84529091528120929092556011805460018101825592527f31ecc21a745e3968a04e9570e4425bc18fa8019c68028196b546d1669c200c6890910180546001600160a01b0319169091179055600e5461381d9084613d54565b600e55600088815260166020526040902054613839908a613d54565b6000898152601660209081526040918290209290925580518b815291820185905242828201525133918a917f3bd2ec39d671793c1c2b079177f138b819f053d317a62217f8f47f45b5e57d9e9181900360600190a3505050505050505050565b622f4d6090565b600d54600e54101590565b6138c3600080516020614ac7833981519152336130bf565b613902576040805162461bcd60e51b815260206004820152601c6024820152600080516020614a16833981519152604482015290519081900360640190fd5b600280546001600160a01b0319166001600160a01b0392909216919091179055565b6002546001600160a01b031681565b6060601280548060200260200160405190810160405280929190818152602001828054801561398157602002820191906000526020600020905b81548152602001906001019080831161396d575b5050505050905090565b6007546001600160a01b031681565b600a5481565b6001600160a01b038116600090815260146020908152604091829020805483518184028101840190945280845260609392830182828015613a0057602002820191906000526020600020905b8154815260200190600101908083116139ec575b50505050509050919050565b60136020526000908152604090208054600182015460029092015490919083565b6000818152600160205260408120612461906142e2565b600082815260016020526040902060020154613a62906121b2613e96565b6122535760405162461bcd60e51b81526004018080602001828103825260308152602001806149e66030913960400191505060405180910390fd5b60128181548110613aad57600080fd5b600091825260209091200154905081565b613ac96000336130bf565b613b08576040805162461bcd60e51b81526020600482015260196024820152600080516020614b11833981519152604482015290519081900360640190fd5b600c55565b600b5481565b600c5481565b613b31600080516020614ac7833981519152336130bf565b613b70576040805162461bcd60e51b815260206004820152601c6024820152600080516020614a16833981519152604482015290519081900360640190fd5b613b7b600382613dae565b156127e2576040516001600160a01b038216907fa850ae9193f515cbae8d35e8925bd2be26627fc91bce650b8652ed254e9cab0390600090a250565b6002546000906001600160a01b0316613bd08484612b50565b6001600160a01b0316149392505050565b600080516020614ac783398151915281565b73aeb39b67f27b641ef9f95fb74f1a46b1ee4efc8381565b601560209081526000928352604080842090915290825290205481565b600e54600f540390565b60118181548110613c4257600080fd5b6000918252602090912001546001600160a01b0316905081565b6060601180548060200260200160405190810160405280929190818152602001828054801561398157602002820191906000526020600020905b81546001600160a01b03168152600190910190602001808311613c96575050505050905090565b6000612461600583613dc3565b600060108281548110613cd957fe5b60009182526020909120600490910201546001600160a01b0316331492915050565b600082613d0a57506000612461565b82820282848281613d1757fe5b04146129745760405162461bcd60e51b8152600401808060200182810382526021815260200180614a586021913960400191505060405180910390fd5b600082820183811015612974576040805162461bcd60e51b815260206004820152601b60248201527f536166654d6174683a206164646974696f6e206f766572666c6f770000000000604482015290519081900360640190fd5b6000612974836001600160a01b0384166142ed565b6000612974836001600160a01b038416614337565b604080516001600160a01b038416602482015260448082018490528251808303909101815260649091019091526020810180516001600160e01b031663a9059cbb60e01b179052613e2a90849061434f565b505050565b6000808211613e85576040805162461bcd60e51b815260206004820152601a60248201527f536166654d6174683a206469766973696f6e206279207a65726f000000000000604482015290519081900360640190fd5b818381613e8e57fe5b049392505050565b3390565b6000828152600160205260409020613eb29082613dae565b156117b857613ebf613e96565b6001600160a01b0316816001600160a01b0316837f2f8788117e7eff1d82e926ec794901d17c78024a50270940304540a733656f0d60405160405180910390a45050565b6000828152600160205260409020613f1b90826140ac565b156117b857613f28613e96565b6001600160a01b0316816001600160a01b0316837ff6391f5c32d9c69d2a47ea670b442974b53935d1edc7fd64eb21e047a839171b60405160405180910390a45050565b60606000613f79836142e2565b67ffffffffffffffff81118015613f8f57600080fd5b50604051908082528060200260200182016040528015613fb9578160200160208202803683370190505b50905060005b613fc8846142e2565b81101561400557613fd98482614215565b828281518110613fe557fe5b6001600160a01b0390921660209283029190910190910152600101613fbf565b5092915050565b61401461290d565b61405c576040805162461bcd60e51b815260206004820152601460248201527314185d5cd8589b194e881b9bdd081c185d5cd95960621b604482015290519081900360640190fd5b6000805460ff191690557f5db9ee0a495bf2e6ff9c91a7834c1ba4fdd244a5e8aa4e537bd38aeae4b073aa61408f613e96565b604080516001600160a01b039092168252519081900360200190a1565b6000612974836001600160a01b038416614400565b604080517f19457468657265756d205369676e6564204d6573736167653a0a333200000000602080830191909152603c8083019490945282518083039094018452605c909101909152815191012090565b6000815160411461416a576040805162461bcd60e51b815260206004820152601f60248201527f45434453413a20696e76616c6964207369676e6174757265206c656e67746800604482015290519081900360640190fd5b60208201516040830151606084015160001a614188868285856144c6565b9695505050505050565b61419a61290d565b156141df576040805162461bcd60e51b815260206004820152601060248201526f14185d5cd8589b194e881c185d5cd95960821b604482015290519081900360640190fd5b6000805460ff191660011790557f62e78cea01bee320cd4e420270b5ea74000d11b0c9f74754ebdbfc544b05a25861408f613e96565b60006129748383614644565b604080516001600160a01b0380861660248301528416604482015260648082018490528251808303909101815260849091019091526020810180516001600160e01b03166323b872dd60e01b17905261427b90859061434f565b50505050565b6000660100000000000082106142de576040805162461bcd60e51b815260206004820152601c60248201527f76616c756520646f65736e27742066697420696e203438206269747300000000604482015290519081900360640190fd5b5090565b6000612461826146a8565b60006142f98383614337565b61432f57508154600181810184556000848152602080822090930184905584548482528286019093526040902091909155612461565b506000612461565b60009081526001919091016020526040902054151590565b60006143a4826040518060400160405280602081526020017f5361666545524332303a206c6f772d6c6576656c2063616c6c206661696c6564815250856001600160a01b03166146ac9092919063ffffffff16565b805190915015613e2a578080602001905160208110156143c357600080fd5b5051613e2a5760405162461bcd60e51b815260040180806020018281038252602a815260200180614ae7602a913960400191505060405180910390fd5b600081815260018301602052604081205480156144bc578354600019808301919081019060009087908390811061443357fe5b906000526020600020015490508087600001848154811061445057fe5b60009182526020808320909101929092558281526001898101909252604090209084019055865487908061448057fe5b60019003818190600052602060002001600090559055866001016000878152602001908152602001600020600090556001945050505050612461565b6000915050612461565b60007f7fffffffffffffffffffffffffffffff5d576e7357a4501ddfe92f46681b20a08211156145275760405162461bcd60e51b815260040180806020018281038252602281526020018061499b6022913960400191505060405180910390fd5b8360ff16601b148061453c57508360ff16601c145b6145775760405162461bcd60e51b8152600401808060200182810382526022815260200180614a366022913960400191505060405180910390fd5b600060018686868660405160008152602001604052604051808581526020018460ff1681526020018381526020018281526020019450505050506020604051602081039080840390855afa1580156145d3573d6000803e3d6000fd5b5050604051601f1901519150506001600160a01b03811661463b576040805162461bcd60e51b815260206004820152601860248201527f45434453413a20696e76616c6964207369676e61747572650000000000000000604482015290519081900360640190fd5b95945050505050565b815460009082106146865760405162461bcd60e51b81526004018080602001828103825260228152602001806148d36022913960400191505060405180910390fd5b82600001828154811061469557fe5b9060005260206000200154905092915050565b5490565b60606129718484600085856146c0856147d1565b614711576040805162461bcd60e51b815260206004820152601d60248201527f416464726573733a2063616c6c20746f206e6f6e2d636f6e7472616374000000604482015290519081900360640190fd5b600080866001600160a01b031685876040518082805190602001908083835b6020831061474f5780518252601f199092019160209182019101614730565b6001836020036101000a03801982511681845116808217855250505050505090500191505060006040518083038185875af1925050503d80600081146147b1576040519150601f19603f3d011682016040523d82523d6000602084013e6147b6565b606091505b50915091506147c68282866147d7565b979650505050505050565b3b151590565b606083156147e6575081612974565b8251156147f65782518084602001fd5b8160405162461bcd60e51b81526004018080602001828103825283818151815260200191508051906020019080838360005b83811015614840578181015183820152602001614828565b50505050905090810190601f16801561486d5780820380516001836020036101000a031916815260200191505b509250505060405180910390fd5b8280548282559060005260206000209081019282156148b6579160200282015b828111156148b657825182559160200191906001019061489b565b506142de9291505b808211156142de57600081556001016148be56fe456e756d657261626c655365743a20696e646578206f7574206f6620626f756e6473416363657373436f6e74726f6c3a2073656e646572206d75737420626520616e2061646d696e20746f206772616e74737461727420646174652068617320746f20626520696e2074686520667574757265646973747269627574696f6e2064617465206d757374206265207375727061737365646e6f74206f6e206f66662d636861696e2077686974656c697374206f722077726f6e67206d617820616c6c6f636174696f6e45434453413a20696e76616c6964207369676e6174757265202773272076616c7565646973747269627574696f6e20646174652068617320746f20626520696e2074686520667574757265416363657373436f6e74726f6c3a2073656e646572206d75737420626520616e2061646d696e20746f207265766f6b6563616c6c6572206973206e6f742057686974656c6973744f776e65720000000045434453413a20696e76616c6964207369676e6174757265202776272076616c7565536166654d6174683a206d756c7469706c69636174696f6e206f766572666c6f7743616e6e6f742068617665206d6f7265207468616e2031302063617465676f72696573646973747269627574696f6e20646174652068617320746f206265206265666f726520656e642064617465b813b807c25079ba97f1770664c6a9e57c59afe74a6295f1ed01c10e3bb6baae5361666545524332303a204552433230206f7065726174696f6e20646964206e6f74207375636365656463616c6c657220686173206e6f742061646d696e20726f6c6500000000000000416363657373436f6e74726f6c3a2063616e206f6e6c792072656e6f756e636520726f6c657320666f722073656c66a2646970667358221220c79b6d3a7b0fc0b9f09a4f27e8a48fdac6a92f7fff2e7daf6418223d470a8c7364736f6c63430007060033536166654d6174683a206d756c7469706c69636174696f6e206f766572666c6f7743616e6e6f742068617665206d6f7265207468616e2031302063617465676f72696573",
  "linkReferences": {},
  "deployedLinkReferences": {}
}