{
  "contractName": "FixedSwapTest",
  "abi": [
    {
      "constant": true,
      "inputs": [],
      "name": "hasWhitelisting",
      "outputs": [
        {
          "name": "",
          "type": "bool"
        }
      ],
      "payable": false,
      "stateMutability": "view",
      "type": "function"
    },
    {
      "constant": true,
      "inputs": [],
      "name": "startDate",
      "outputs": [
        {
          "name": "",
          "type": "uint256"
        }
      ],
      "payable": false,
      "stateMutability": "view",
      "type": "function"
    },
    {
      "constant": true,
      "inputs": [],
      "name": "tokensForSale",
      "outputs": [
        {
          "name": "",
          "type": "uint256"
        }
      ],
      "payable": false,
      "stateMutability": "view",
      "type": "function"
    },
    {
      "constant": true,
      "inputs": [],
      "name": "isSaleFunded",
      "outputs": [
        {
          "name": "",
          "type": "bool"
        }
      ],
      "payable": false,
      "stateMutability": "view",
      "type": "function"
    },
    {
      "constant": true,
      "inputs": [],
      "name": "isTokenSwapAtomic",
      "outputs": [
        {
          "name": "",
          "type": "bool"
        }
      ],
      "payable": false,
      "stateMutability": "view",
      "type": "function"
    },
    {
      "constant": true,
      "inputs": [],
      "name": "individualMinimumAmount",
      "outputs": [
        {
          "name": "",
          "type": "uint256"
        }
      ],
      "payable": false,
      "stateMutability": "view",
      "type": "function"
    },
    {
      "constant": true,
      "inputs": [],
      "name": "decimals",
      "outputs": [
        {
          "name": "",
          "type": "uint256"
        }
      ],
      "payable": false,
      "stateMutability": "view",
      "type": "function"
    },
    {
      "constant": true,
      "inputs": [
        {
          "name": "_address",
          "type": "address"
        }
      ],
      "name": "isWhitelisted",
      "outputs": [
        {
          "name": "",
          "type": "bool"
        }
      ],
      "payable": false,
      "stateMutability": "view",
      "type": "function"
    },
    {
      "constant": false,
      "inputs": [],
      "name": "unpause",
      "outputs": [],
      "payable": false,
      "stateMutability": "nonpayable",
      "type": "function"
    },
    {
      "constant": false,
      "inputs": [],
      "name": "claimOwnership",
      "outputs": [],
      "payable": false,
      "stateMutability": "nonpayable",
      "type": "function"
    },
    {
      "constant": true,
      "inputs": [
        {
          "name": "",
          "type": "address"
        },
        {
          "name": "",
          "type": "uint256"
        }
      ],
      "name": "myPurchases",
      "outputs": [
        {
          "name": "",
          "type": "uint256"
        }
      ],
      "payable": false,
      "stateMutability": "view",
      "type": "function"
    },
    {
      "constant": true,
      "inputs": [],
      "name": "paused",
      "outputs": [
        {
          "name": "",
          "type": "bool"
        }
      ],
      "payable": false,
      "stateMutability": "view",
      "type": "function"
    },
    {
      "constant": true,
      "inputs": [],
      "name": "tradeValue",
      "outputs": [
        {
          "name": "",
          "type": "uint256"
        }
      ],
      "payable": false,
      "stateMutability": "view",
      "type": "function"
    },
    {
      "constant": true,
      "inputs": [],
      "name": "getWhitelistedAddresses",
      "outputs": [
        {
          "name": "",
          "type": "address[]"
        }
      ],
      "payable": false,
      "stateMutability": "view",
      "type": "function"
    },
    {
      "constant": true,
      "inputs": [],
      "name": "tokensAllocated",
      "outputs": [
        {
          "name": "",
          "type": "uint256"
        }
      ],
      "payable": false,
      "stateMutability": "view",
      "type": "function"
    },
    {
      "constant": true,
      "inputs": [],
      "name": "erc20POLS",
      "outputs": [
        {
          "name": "",
          "type": "address"
        }
      ],
      "payable": false,
      "stateMutability": "view",
      "type": "function"
    },
    {
      "constant": true,
      "inputs": [],
      "name": "erc20",
      "outputs": [
        {
          "name": "",
          "type": "address"
        }
      ],
      "payable": false,
      "stateMutability": "view",
      "type": "function"
    },
    {
      "constant": true,
      "inputs": [],
      "name": "tradingDecimals",
      "outputs": [
        {
          "name": "",
          "type": "uint256"
        }
      ],
      "payable": false,
      "stateMutability": "view",
      "type": "function"
    },
    {
      "constant": true,
      "inputs": [
        {
          "name": "",
          "type": "uint256"
        }
      ],
      "name": "purchases",
      "outputs": [
        {
          "name": "amount",
          "type": "uint256"
        },
        {
          "name": "purchaser",
          "type": "address"
        },
        {
          "name": "costAmount",
          "type": "uint256"
        },
        {
          "name": "timestamp",
          "type": "uint256"
        },
        {
          "name": "amountReedemed",
          "type": "uint256"
        },
        {
          "name": "lastTrancheSent",
          "type": "uint256"
        },
        {
          "name": "wasFinalized",
          "type": "bool"
        },
        {
          "name": "reverted",
          "type": "bool"
        }
      ],
      "payable": false,
      "stateMutability": "view",
      "type": "function"
    },
    {
      "constant": false,
      "inputs": [],
      "name": "pause",
      "outputs": [],
      "payable": false,
      "stateMutability": "nonpayable",
      "type": "function"
    },
    {
      "constant": true,
      "inputs": [],
      "name": "owner",
      "outputs": [
        {
          "name": "",
          "type": "address"
        }
      ],
      "payable": false,
      "stateMutability": "view",
      "type": "function"
    },
    {
      "constant": true,
      "inputs": [],
      "name": "minimumRaise",
      "outputs": [
        {
          "name": "",
          "type": "uint256"
        }
      ],
      "payable": false,
      "stateMutability": "view",
      "type": "function"
    },
    {
      "constant": true,
      "inputs": [
        {
          "name": "",
          "type": "uint256"
        }
      ],
      "name": "vestingSchedule",
      "outputs": [
        {
          "name": "",
          "type": "uint256"
        }
      ],
      "payable": false,
      "stateMutability": "view",
      "type": "function"
    },
    {
      "constant": true,
      "inputs": [
        {
          "name": "",
          "type": "address"
        }
      ],
      "name": "whitelist",
      "outputs": [
        {
          "name": "",
          "type": "bool"
        }
      ],
      "payable": false,
      "stateMutability": "view",
      "type": "function"
    },
    {
      "constant": true,
      "inputs": [],
      "name": "feePercentage",
      "outputs": [
        {
          "name": "",
          "type": "uint256"
        }
      ],
      "payable": false,
      "stateMutability": "view",
      "type": "function"
    },
    {
      "constant": false,
      "inputs": [
        {
          "name": "_address",
          "type": "address"
        },
        {
          "name": "_index",
          "type": "uint256"
        }
      ],
      "name": "remove",
      "outputs": [],
      "payable": false,
      "stateMutability": "nonpayable",
      "type": "function"
    },
    {
      "constant": true,
      "inputs": [],
      "name": "unsoldTokensReedemed",
      "outputs": [
        {
          "name": "",
          "type": "bool"
        }
      ],
      "payable": false,
      "stateMutability": "view",
      "type": "function"
    },
    {
      "constant": true,
      "inputs": [
        {
          "name": "",
          "type": "uint256"
        }
      ],
      "name": "whitelistedAddresses",
      "outputs": [
        {
          "name": "",
          "type": "address"
        }
      ],
      "payable": false,
      "stateMutability": "view",
      "type": "function"
    },
    {
      "constant": true,
      "inputs": [],
      "name": "endDate",
      "outputs": [
        {
          "name": "",
          "type": "uint256"
        }
      ],
      "payable": false,
      "stateMutability": "view",
      "type": "function"
    },
    {
      "constant": false,
      "inputs": [
        {
          "name": "_addresses",
          "type": "address[]"
        }
      ],
      "name": "add",
      "outputs": [],
      "payable": false,
      "stateMutability": "nonpayable",
      "type": "function"
    },
    {
      "constant": true,
      "inputs": [],
      "name": "vestingTime",
      "outputs": [
        {
          "name": "",
          "type": "uint256"
        }
      ],
      "payable": false,
      "stateMutability": "view",
      "type": "function"
    },
    {
      "constant": true,
      "inputs": [],
      "name": "isPOLSWhitelisted",
      "outputs": [
        {
          "name": "",
          "type": "bool"
        }
      ],
      "payable": false,
      "stateMutability": "view",
      "type": "function"
    },
    {
      "constant": true,
      "inputs": [],
      "name": "proposedOwner",
      "outputs": [
        {
          "name": "",
          "type": "address"
        }
      ],
      "payable": false,
      "stateMutability": "view",
      "type": "function"
    },
    {
      "constant": true,
      "inputs": [
        {
          "name": "",
          "type": "uint256"
        }
      ],
      "name": "purchaseIds",
      "outputs": [
        {
          "name": "",
          "type": "uint256"
        }
      ],
      "payable": false,
      "stateMutability": "view",
      "type": "function"
    },
    {
      "constant": true,
      "inputs": [],
      "name": "erc20v2POLS",
      "outputs": [
        {
          "name": "",
          "type": "address"
        }
      ],
      "payable": false,
      "stateMutability": "view",
      "type": "function"
    },
    {
      "constant": true,
      "inputs": [],
      "name": "individualMaximumAmount",
      "outputs": [
        {
          "name": "",
          "type": "uint256"
        }
      ],
      "payable": false,
      "stateMutability": "view",
      "type": "function"
    },
    {
      "constant": true,
      "inputs": [],
      "name": "erc20TradeAddress",
      "outputs": [
        {
          "name": "",
          "type": "address"
        }
      ],
      "payable": false,
      "stateMutability": "view",
      "type": "function"
    },
    {
      "constant": true,
      "inputs": [],
      "name": "FEE_ADDRESS",
      "outputs": [
        {
          "name": "",
          "type": "address"
        }
      ],
      "payable": false,
      "stateMutability": "view",
      "type": "function"
    },
    {
      "constant": true,
      "inputs": [
        {
          "name": "",
          "type": "uint256"
        }
      ],
      "name": "buyers",
      "outputs": [
        {
          "name": "",
          "type": "address"
        }
      ],
      "payable": false,
      "stateMutability": "view",
      "type": "function"
    },
    {
      "constant": false,
      "inputs": [
        {
          "name": "_proposedOwner",
          "type": "address"
        }
      ],
      "name": "transferOwnership",
      "outputs": [],
      "payable": false,
      "stateMutability": "nonpayable",
      "type": "function"
    },
    {
      "inputs": [
        {
          "name": "_tokenAddress",
          "type": "address"
        },
        {
          "name": "_tradeValue",
          "type": "uint256"
        },
        {
          "name": "_tokensForSale",
          "type": "uint256"
        },
        {
          "name": "_startDate",
          "type": "uint256"
        },
        {
          "name": "_endDate",
          "type": "uint256"
        },
        {
          "name": "_individualMinimumAmount",
          "type": "uint256"
        },
        {
          "name": "_individualMaximumAmount",
          "type": "uint256"
        },
        {
          "name": "_isTokenSwapAtomic",
          "type": "bool"
        },
        {
          "name": "_minimumRaise",
          "type": "uint256"
        },
        {
          "name": "_feeAmount",
          "type": "uint256"
        },
        {
          "name": "_hasWhitelisting",
          "type": "bool"
        },
        {
          "name": "_erc20TradeAddress",
          "type": "address"
        },
        {
          "name": "_isETHTrade",
          "type": "bool"
        },
        {
          "name": "_isPOLSWhitelisted",
          "type": "bool"
        },
        {
          "name": "_vestingTime",
          "type": "uint256"
        },
        {
          "name": "_vestingSchedule",
          "type": "uint256[]"
        }
      ],
      "payable": false,
      "stateMutability": "nonpayable",
      "type": "constructor"
    },
    {
      "anonymous": false,
      "inputs": [
        {
          "indexed": false,
          "name": "amount",
          "type": "uint256"
        },
        {
          "indexed": true,
          "name": "purchaser",
          "type": "address"
        },
        {
          "indexed": false,
          "name": "timestamp",
          "type": "uint256"
        }
      ],
      "name": "PurchaseEvent",
      "type": "event"
    },
    {
      "anonymous": false,
      "inputs": [
        {
          "indexed": true,
          "name": "accounts",
          "type": "address[]"
        }
      ],
      "name": "AddedToWhitelist",
      "type": "event"
    },
    {
      "anonymous": false,
      "inputs": [
        {
          "indexed": true,
          "name": "account",
          "type": "address"
        }
      ],
      "name": "RemovedFromWhitelist",
      "type": "event"
    },
    {
      "anonymous": false,
      "inputs": [],
      "name": "Pause",
      "type": "event"
    },
    {
      "anonymous": false,
      "inputs": [],
      "name": "Unpause",
      "type": "event"
    },
    {
      "anonymous": false,
      "inputs": [
        {
          "indexed": true,
          "name": "previousOwner",
          "type": "address"
        },
        {
          "indexed": true,
          "name": "newOwner",
          "type": "address"
        }
      ],
      "name": "OwnershipTransferred",
      "type": "event"
    },
    {
      "constant": true,
      "inputs": [
        {
          "name": "purchase_id",
          "type": "uint256"
        }
      ],
      "name": "isBuyer",
      "outputs": [
        {
          "name": "",
          "type": "bool"
        }
      ],
      "payable": false,
      "stateMutability": "view",
      "type": "function"
    },
    {
      "constant": true,
      "inputs": [],
      "name": "totalRaiseCost",
      "outputs": [
        {
          "name": "",
          "type": "uint256"
        }
      ],
      "payable": false,
      "stateMutability": "view",
      "type": "function"
    },
    {
      "constant": true,
      "inputs": [],
      "name": "getCurrentSchedule",
      "outputs": [
        {
          "name": "",
          "type": "uint256"
        }
      ],
      "payable": false,
      "stateMutability": "view",
      "type": "function"
    },
    {
      "constant": true,
      "inputs": [],
      "name": "availableTokens",
      "outputs": [
        {
          "name": "",
          "type": "uint256"
        }
      ],
      "payable": false,
      "stateMutability": "view",
      "type": "function"
    },
    {
      "constant": true,
      "inputs": [],
      "name": "tokensLeft",
      "outputs": [
        {
          "name": "",
          "type": "uint256"
        }
      ],
      "payable": false,
      "stateMutability": "view",
      "type": "function"
    },
    {
      "constant": true,
      "inputs": [],
      "name": "hasMinimumRaise",
      "outputs": [
        {
          "name": "",
          "type": "bool"
        }
      ],
      "payable": false,
      "stateMutability": "view",
      "type": "function"
    },
    {
      "constant": true,
      "inputs": [],
      "name": "minimumRaiseNotAchieved",
      "outputs": [
        {
          "name": "",
          "type": "bool"
        }
      ],
      "payable": false,
      "stateMutability": "view",
      "type": "function"
    },
    {
      "constant": true,
      "inputs": [],
      "name": "minimumRaiseAchieved",
      "outputs": [
        {
          "name": "",
          "type": "bool"
        }
      ],
      "payable": false,
      "stateMutability": "view",
      "type": "function"
    },
    {
      "constant": true,
      "inputs": [],
      "name": "isETHTrade",
      "outputs": [
        {
          "name": "",
          "type": "bool"
        }
      ],
      "payable": false,
      "stateMutability": "view",
      "type": "function"
    },
    {
      "constant": true,
      "inputs": [],
      "name": "hasFinalized",
      "outputs": [
        {
          "name": "",
          "type": "bool"
        }
      ],
      "payable": false,
      "stateMutability": "view",
      "type": "function"
    },
    {
      "constant": true,
      "inputs": [],
      "name": "hasStarted",
      "outputs": [
        {
          "name": "",
          "type": "bool"
        }
      ],
      "payable": false,
      "stateMutability": "view",
      "type": "function"
    },
    {
      "constant": true,
      "inputs": [],
      "name": "isPreStart",
      "outputs": [
        {
          "name": "",
          "type": "bool"
        }
      ],
      "payable": false,
      "stateMutability": "view",
      "type": "function"
    },
    {
      "constant": true,
      "inputs": [],
      "name": "isOpen",
      "outputs": [
        {
          "name": "",
          "type": "bool"
        }
      ],
      "payable": false,
      "stateMutability": "view",
      "type": "function"
    },
    {
      "constant": true,
      "inputs": [],
      "name": "hasMinimumAmount",
      "outputs": [
        {
          "name": "",
          "type": "bool"
        }
      ],
      "payable": false,
      "stateMutability": "view",
      "type": "function"
    },
    {
      "constant": true,
      "inputs": [
        {
          "name": "_amount",
          "type": "uint256"
        }
      ],
      "name": "cost",
      "outputs": [
        {
          "name": "",
          "type": "uint256"
        }
      ],
      "payable": false,
      "stateMutability": "view",
      "type": "function"
    },
    {
      "constant": true,
      "inputs": [
        {
          "name": "_purchase_id",
          "type": "uint256"
        }
      ],
      "name": "getPurchase",
      "outputs": [
        {
          "name": "",
          "type": "uint256"
        },
        {
          "name": "",
          "type": "address"
        },
        {
          "name": "",
          "type": "uint256"
        },
        {
          "name": "",
          "type": "uint256"
        },
        {
          "name": "",
          "type": "uint256"
        },
        {
          "name": "",
          "type": "uint256"
        },
        {
          "name": "",
          "type": "bool"
        },
        {
          "name": "",
          "type": "bool"
        }
      ],
      "payable": false,
      "stateMutability": "view",
      "type": "function"
    },
    {
      "constant": true,
      "inputs": [],
      "name": "getPurchaseIds",
      "outputs": [
        {
          "name": "",
          "type": "uint256[]"
        }
      ],
      "payable": false,
      "stateMutability": "view",
      "type": "function"
    },
    {
      "constant": true,
      "inputs": [],
      "name": "getBuyers",
      "outputs": [
        {
          "name": "",
          "type": "address[]"
        }
      ],
      "payable": false,
      "stateMutability": "view",
      "type": "function"
    },
    {
      "constant": true,
      "inputs": [
        {
          "name": "_address",
          "type": "address"
        }
      ],
      "name": "getMyPurchases",
      "outputs": [
        {
          "name": "",
          "type": "uint256[]"
        }
      ],
      "payable": false,
      "stateMutability": "view",
      "type": "function"
    },
    {
      "constant": true,
      "inputs": [],
      "name": "isAddressPOLSWhitelisted",
      "outputs": [
        {
          "name": "",
          "type": "bool"
        }
      ],
      "payable": false,
      "stateMutability": "view",
      "type": "function"
    },
    {
      "constant": false,
      "inputs": [
        {
          "name": "_amount",
          "type": "uint256"
        }
      ],
      "name": "fund",
      "outputs": [],
      "payable": false,
      "stateMutability": "nonpayable",
      "type": "function"
    },
    {
      "constant": false,
      "inputs": [
        {
          "name": "_amount",
          "type": "uint256"
        }
      ],
      "name": "swap",
      "outputs": [],
      "payable": true,
      "stateMutability": "payable",
      "type": "function"
    },
    {
      "constant": false,
      "inputs": [
        {
          "name": "purchase_id",
          "type": "uint256"
        }
      ],
      "name": "redeemTokens",
      "outputs": [],
      "payable": false,
      "stateMutability": "nonpayable",
      "type": "function"
    },
    {
      "constant": false,
      "inputs": [
        {
          "name": "purchase_id",
          "type": "uint256"
        }
      ],
      "name": "redeemGivenMinimumGoalNotAchieved",
      "outputs": [],
      "payable": false,
      "stateMutability": "nonpayable",
      "type": "function"
    },
    {
      "constant": false,
      "inputs": [],
      "name": "withdrawFunds",
      "outputs": [],
      "payable": false,
      "stateMutability": "nonpayable",
      "type": "function"
    },
    {
      "constant": false,
      "inputs": [],
      "name": "withdrawUnsoldTokens",
      "outputs": [],
      "payable": false,
      "stateMutability": "nonpayable",
      "type": "function"
    },
    {
      "constant": false,
      "inputs": [
        {
          "name": "_tokenAddress",
          "type": "address"
        },
        {
          "name": "_to",
          "type": "address"
        }
      ],
      "name": "removeOtherERC20Tokens",
      "outputs": [],
      "payable": false,
      "stateMutability": "nonpayable",
      "type": "function"
    },
    {
      "constant": false,
      "inputs": [],
      "name": "safePull",
      "outputs": [],
      "payable": true,
      "stateMutability": "payable",
      "type": "function"
    }
  ],
  "bytecode": "0x608060405260018054600160a01b60ff021990811682556004805460ff1990811690915560006005819055600680546001600160a01b03199081167383e6f1e41cdd28eaceb20cb649155049fac3d5aa179091556007805490911673ffa98a091331df4600f87c9164cd27e8a5cd2405179055600d8054909316909255600e8290556012600f55601080548216905560148290556015829055601682905560178290556018919091556019805474aeb39b67f27b641ef9f95fb74f1a46b1ee4efc8300610100600160a81b0319909116179055601a829055601b80549091169055601c55348015620000f057600080fd5b50604051620046193803806200461983398101806040526102008110156200011757600080fd5b810190808051906020019092919080519060200190929190805190602001909291908051906020019092919080519060200190929190805190602001909291908051906020019092919080519060200190929190805190602001909291908051906020019092919080519060200190929190805190602001909291908051906020019092919080519060200190929190805190602001909291908051640100000000811115620001c657600080fd5b82016020810184811115620001da57600080fd5b8151856020820283011164010000000082111715620001f857600080fd5b5050600080546001600160a01b03191633179055600480548a151560ff1990911617905592505050428c116200027a576040517f08c379a000000000000000000000000000000000000000000000000000000000815260040180806020018281038252602c8152602001806200451a602c913960400191505060405180910390fd5b8c4210620002d4576040517f08c379a000000000000000000000000000000000000000000000000000000000815260040180806020018281038252602c8152602001806200451a602c913960400191505060405180910390fd5b8b8d106200034357604080517f08c379a000000000000000000000000000000000000000000000000000000000815260206004820152601f60248201527f456e64204461746520686967686572207468616e205374617274204461746500604482015290519081900360640190fd5b60008e11620003b357604080517f08c379a000000000000000000000000000000000000000000000000000000000815260206004820152601d60248201527f546f6b656e7320666f722053616c652073686f756c64206265203e2030000000604482015290519081900360640190fd5b8a8e116200040d576040517f08c379a0000000000000000000000000000000000000000000000000000000008152600401808060200182810382526035815260200180620045e46035913960400191505060405180910390fd5b8a8a101562000468576040517f08c379a000000000000000000000000000000000000000000000000000000000815260040180806020018281038252603f81526020018062004546603f913960400191505060405180910390fd5b8d881115620004c3576040517f08c379a0000000000000000000000000000000000000000000000000000000008152600401808060200182810382526029815260200180620045bb6029913960400191505060405180910390fd5b601a548710156200053557604080517f08c379a000000000000000000000000000000000000000000000000000000000815260206004820152601d60248201527f4665652050657263656e746167652068617320746f206265203e3d2031000000604482015290519081900360640190fd5b6063871115620005a657604080517f08c379a000000000000000000000000000000000000000000000000000000000815260206004820152601e60248201527f4665652050657263656e746167652068617320746f206265203c203130300000604482015290519081900360640190fd5b600082118015620005b75750603082105b6200060e576040517f08c379a0000000000000000000000000000000000000000000000000000000008152600401808060200182810382526036815260200180620045856036913960400191505060405180910390fd5b60128d905560138c905560188e905560118f905560148b905560158a90556019805460ff19168a151517905588620006465760168890555b8f600c60006101000a8154816001600160a01b0302191690836001600160a01b03160217905550836200071e57600d80546001600160a01b0319166001600160a01b038781169190911791829055604080517f313ce5670000000000000000000000000000000000000000000000000000000081529051929091169163313ce56791600480820192602092909190829003018186803b158015620006e957600080fd5b505afa158015620006fe573d6000803e3d6000fd5b505050506040513d60208110156200071557600080fd5b505160ff16600f555b601b805460ff1916841515179055600c54604080517f313ce56700000000000000000000000000000000000000000000000000000000815290516001600160a01b039092169163313ce56791600480820192602092909190829003018186803b1580156200078b57600080fd5b505afa158015620007a0573d6000803e3d6000fd5b505050506040513d6020811015620007b757600080fd5b505160ff16600e55601a879055601c82905560005b601c548110156200080e57818181518110620007e457fe5b60209081029190910181015160019092016000818152601d909252604090912091909155620007cc565b5050505050505050505050505050505050613ceb806200082f6000396000f3fe6080604052600436106103ef5760003560e01c80638456cb5911610208578063c3ca324f11610118578063e120b54b116100ab578063efbb34d51161007a578063efbb34d514610c1b578063f2aa821814610c30578063f2fde38b14610c5a578063f64bfaba14610c8d578063fecf415a14610ca2576103ef565b8063e120b54b14610bc7578063e4101de514610bdc578063e9ce9f1114610bf1578063eb1edd6114610c06576103ef565b8063ca1d209d116100e7578063ca1d209d14610b49578063d0a4a89514610b73578063d153b60c14610b88578063d65fb16014610b9d576103ef565b8063c3ca324f14610a3c578063c4c1c94f14610a6f578063c7dab43614610b1f578063c8bdbfb614610b34576103ef565b80639b19251a1161019b578063b31f8f931161016a578063b31f8f93146109be578063b367940e146109d3578063b7fd706d146109e8578063ba4e5c49146109fd578063c24a0f8b14610a27576103ef565b80639b19251a14610913578063a001ecdd14610946578063a6e158f81461095b578063abe7f1ab14610985576103ef565b80639097548d116101d75780639097548d14610867578063917c854d14610891578063919bd930146108cc57806394b918de146108f6576103ef565b80638456cb59146108135780638a1a5f3f146108285780638da5cb5b1461083d5780638e75b13114610852576103ef565b806344691f7e116103035780636a93df1111610296578063755e3e2811610265578063755e3e281461077957806375968dbd1461078e578063785e9e86146107bf57806378d627e0146107d45780638392fe31146107e9576103ef565b80636a93df11146106d55780636d0280271461073a57806370a898bc1461074f57806374fa05fb14610764576103ef565b80635ac699bb116102d25780635ac699bb1461065d5780635c975abb146106965780636295a2f4146106ab57806369bb4dc2146106c0576103ef565b806344691f7e1461060957806346d132fb1461061e57806347535d7b146106335780634e71e0c814610648576103ef565b806324600fc311610386578063313ce56711610355578063313ce567146105205780633742a9f7146105355780633af32abf146105ac5780633f4ba83a146105df5780634089aa9a146105f4576103ef565b806324600fc3146104d95780632daa8c84146104ee5780632e154107146104f65780632ebb5c1e1461050b576103ef565b806315b57866116103c257806315b578661461046e578063161a7b2a146104835780631de18af71461049857806321d3002a146104c4576103ef565b8063044c0cc5146103f4578063076623451461041d5780630b97bc861461043257806312aef8c314610459575b600080fd5b34801561040057600080fd5b50610409610ccc565b604080519115158252519081900360200190f35b34801561042957600080fd5b50610409610cdd565b34801561043e57600080fd5b50610447610ce6565b60408051918252519081900360200190f35b34801561046557600080fd5b50610447610cec565b34801561047a57600080fd5b50610409610cf2565b34801561048f57600080fd5b50610409610cfa565b3480156104a457600080fd5b506104c2600480360360208110156104bb57600080fd5b5035610d0a565b005b3480156104d057600080fd5b5061040961107b565b3480156104e557600080fd5b506104c2611084565b6104c261153b565b34801561050257600080fd5b506104476117c0565b34801561051757600080fd5b506104096117c6565b34801561052c57600080fd5b506104476117ce565b34801561054157600080fd5b5061055f6004803603602081101561055857600080fd5b50356117d4565b604080519889526001600160a01b039097166020890152878701959095526060870193909352608086019190915260a0850152151560c0840152151560e083015251908190036101000190f35b3480156105b857600080fd5b50610409600480360360208110156105cf57600080fd5b50356001600160a01b0316611885565b3480156105eb57600080fd5b506104c26118a3565b34801561060057600080fd5b50610409611985565b34801561061557600080fd5b5061040961198d565b34801561062a57600080fd5b50610409611996565b34801561063f57600080fd5b50610409611ac0565b34801561065457600080fd5b506104c2611ae0565b34801561066957600080fd5b506104476004803603604081101561068057600080fd5b506001600160a01b038135169060200135611ba6565b3480156106a257600080fd5b50610409611bd4565b3480156106b757600080fd5b50610447611be4565b3480156106cc57600080fd5b50610447611bea565b3480156106e157600080fd5b506106ea611c69565b60408051602080825283518183015283519192839290830191858101910280838360005b8381101561072657818101518382015260200161070e565b505050509050019250505060405180910390f35b34801561074657600080fd5b506106ea611cc1565b34801561075b57600080fd5b50610409611d22565b34801561077057600080fd5b50610409611d2a565b34801561078557600080fd5b50610447611d87565b34801561079a57600080fd5b506107a3611d8d565b604080516001600160a01b039092168252519081900360200190f35b3480156107cb57600080fd5b506107a3611d9c565b3480156107e057600080fd5b50610447611dab565b3480156107f557600080fd5b5061055f6004803603602081101561080c57600080fd5b5035611db1565b34801561081f57600080fd5b506104c2611e04565b34801561083457600080fd5b50610447611eef565b34801561084957600080fd5b506107a3611f26565b34801561085e57600080fd5b50610447611f35565b34801561087357600080fd5b506104476004803603602081101561088a57600080fd5b5035611f3b565b34801561089d57600080fd5b506104c2600480360360408110156108b457600080fd5b506001600160a01b0381358116916020013516611f61565b3480156108d857600080fd5b50610447600480360360208110156108ef57600080fd5b50356121eb565b6104c26004803603602081101561090c57600080fd5b50356121fd565b34801561091f57600080fd5b506104096004803603602081101561093657600080fd5b50356001600160a01b03166129aa565b34801561095257600080fd5b506104476129bf565b34801561096757600080fd5b506104c26004803603602081101561097e57600080fd5b50356129c5565b34801561099157600080fd5b506104c2600480360360408110156109a857600080fd5b506001600160a01b038135169060200135612db8565b3480156109ca57600080fd5b50610447612eb3565b3480156109df57600080fd5b50610409612ebd565b3480156109f457600080fd5b50610409612f22565b348015610a0957600080fd5b506107a360048036036020811015610a2057600080fd5b5035612f2b565b348015610a3357600080fd5b50610447612f52565b348015610a4857600080fd5b506106ea60048036036020811015610a5f57600080fd5b50356001600160a01b0316612f58565b348015610a7b57600080fd5b506104c260048036036020811015610a9257600080fd5b810190602081018135640100000000811115610aad57600080fd5b820183602082011115610abf57600080fd5b80359060200191846020830284011164010000000083111715610ae157600080fd5b919080806020026020016040519081016040528093929190818152602001838360200280828437600092019190915250929550612fc4945050505050565b348015610b2b57600080fd5b50610447613177565b348015610b4057600080fd5b506104c261317d565b348015610b5557600080fd5b506104c260048036036020811015610b6c57600080fd5b5035613360565b348015610b7f57600080fd5b5061040961351e565b348015610b9457600080fd5b506107a3613527565b348015610ba957600080fd5b5061044760048036036020811015610bc057600080fd5b5035613536565b348015610bd357600080fd5b506107a3613554565b348015610be857600080fd5b50610447613563565b348015610bfd57600080fd5b506107a3613569565b348015610c1257600080fd5b506107a3613578565b348015610c2757600080fd5b5061044761358c565b348015610c3c57600080fd5b506107a360048036036020811015610c5357600080fd5b5035613599565b348015610c6657600080fd5b506104c260048036036020811015610c7d57600080fd5b50356001600160a01b03166135a6565b348015610c9957600080fd5b506106ea613663565b348015610cae57600080fd5b5061040960048036036020811015610cc557600080fd5b50356136c3565b600d546001600160a01b0316155b90565b60045460ff1681565b60125481565b60185481565b601654151590565b600d54600160a01b900460ff1681565b610d12611985565b610d545760408051600160e51b62461bcd0281526020600482015260136024820152600080516020613bcd833981519152604482015290519081900360640190fd5b60195460ff1615610daf5760408051600160e51b62461bcd02815260206004820152601960248201527f48617320746f206265206e6f6e2041746f6d6963207377617000000000000000604482015290519081900360640190fd5b610db7610cf2565b610e0b5760408051600160e51b62461bcd02815260206004820152601a60248201527f4d696e696d756d2072616973652068617320746f206578697374000000000000604482015290519081900360640190fd5b610e13611d2a565b610e675760408051600160e51b62461bcd02815260206004820152601f60248201527f4d696e696d756d2072616973652068617320746f206265207265616368656400604482015290519081900360640190fd5b60008181526008602052604090205415801590610e96575060008181526008602052604090206006015460ff16155b610ed457604051600160e51b62461bcd0281526004018080602001828103825260218152602001806139e86021913960400191505060405180910390fd5b610edd816136c3565b610f315760408051600160e51b62461bcd02815260206004820152601460248201527f41646472657373206973206e6f74206275796572000000000000000000000000604482015290519081900360640190fd5b6000818152600860205260409020600601805461ff001960ff1990911660011716610100179055610f60610ccc565b15610fa857600081815260086020526040808220600201549051339282156108fc02929190818181858888f19350505050158015610fa2573d6000803e3d6000fd5b50611078565b600d546000828152600860209081526040808320600201548151600160e01b63a9059cbb028152336004820152602481019190915290516001600160a01b039094169363a9059cbb93604480840194938390030190829087803b15801561100e57600080fd5b505af1158015611022573d6000803e3d6000fd5b505050506040513d602081101561103857600080fd5b505161107857604051600160e51b62461bcd028152600401808060200182810382526032815260200180613b486032913960400191505060405180910390fd5b50565b60195460ff1681565b6000546001600160a01b031633146110d45760408051600160e51b62461bcd02815260206004820152600f6024820152600080516020613b28833981519152604482015290519081900360640190fd5b600154600160a01b900460ff161561112e5760408051600160e51b62461bcd0281526020600482015260126024820152600160721b7112185cc81d1bc81899481d5b9c185d5cd95902604482015290519081900360640190fd5b611136611985565b6111785760408051600160e51b62461bcd0281526020600482015260136024820152600080516020613bcd833981519152604482015290519081900360640190fd5b611180612ebd565b6111d45760408051600160e51b62461bcd02815260206004820152601f60248201527f4d696e696d756d2072616973652068617320746f206265207265616368656400604482015290519081900360640190fd5b6111dc610ccc565b1561127657601954601a546101009091046001600160a01b0316906108fc9061121a9060649061120e903031906136e3565b9063ffffffff61374616565b6040518115909202916000818181858888f19350505050158015611242573d6000803e3d6000fd5b506040513390303180156108fc02916000818181858888f19350505050158015611270573d6000803e3d6000fd5b50611539565b600d54601954601a5460408051600160e01b6370a0823102815230600482015290516001600160a01b039485169463a9059cbb946101009004169261131d9260649261120e929188916370a0823191602480820192602092909190829003018186803b1580156112e557600080fd5b505afa1580156112f9573d6000803e3d6000fd5b505050506040513d602081101561130f57600080fd5b50519063ffffffff6136e316565b6040518363ffffffff1660e01b815260040180836001600160a01b03166001600160a01b0316815260200182815260200192505050602060405180830381600087803b15801561136c57600080fd5b505af1158015611380573d6000803e3d6000fd5b505050506040513d602081101561139657600080fd5b50516113ec5760408051600160e51b62461bcd02815260206004820152601b60248201527f4552433230205472616e73666572206469646ec2b47420776f726b0000000000604482015290519081900360640190fd5b600d5460408051600160e01b6370a0823102815230600482015290516001600160a01b039092169163a9059cbb91339184916370a08231916024808301926020929190829003018186803b15801561144357600080fd5b505afa158015611457573d6000803e3d6000fd5b505050506040513d602081101561146d57600080fd5b50516040805163ffffffff851660e01b81526001600160a01b03909316600484015260248301919091525160448083019260209291908290030181600087803b1580156114b957600080fd5b505af11580156114cd573d6000803e3d6000fd5b505050506040513d60208110156114e357600080fd5b50516115395760408051600160e51b62461bcd02815260206004820152601b60248201527f4552433230205472616e73666572206469646ec2b47420776f726b0000000000604482015290519081900360640190fd5b565b6000546001600160a01b0316331461158b5760408051600160e51b62461bcd02815260206004820152600f6024820152600080516020613b28833981519152604482015290519081900360640190fd5b600154600160a01b900460ff166115e25760408051600160e51b62461bcd0281526020600482015260106024820152600160821b6f12185cc81d1bc81899481c185d5cd95902604482015290519081900360640190fd5b6040513390303180156108fc02916000818181858888f1935050505015801561160f573d6000803e3d6000fd5b50600c5460408051600160e01b6370a0823102815230600482015290516001600160a01b039092169163a9059cbb91339184916370a08231916024808301926020929190829003018186803b15801561166757600080fd5b505afa15801561167b573d6000803e3d6000fd5b505050506040513d602081101561169157600080fd5b50516040805163ffffffff851660e01b81526001600160a01b03909316600484015260248301919091525160448083019260209291908290030181600087803b1580156116dd57600080fd5b505af11580156116f1573d6000803e3d6000fd5b505050506040513d602081101561170757600080fd5b505161175d5760408051600160e51b62461bcd02815260206004820152601b60248201527f4552433230205472616e73666572206469646ec2b47420776f726b0000000000604482015290519081900360640190fd5b611765610ccc565b61153957600d5460408051600160e01b6370a0823102815230600482015290516001600160a01b039092169163a9059cbb91339184916370a08231916024808301926020929190829003018186803b15801561144357600080fd5b60145481565b601254421090565b600e5481565b6000806000806000806000806117e8613929565b505050600096875250506008602090815260409586902086516101008082018952825480835260018401546001600160a01b031694830185905260028401549983018a9052600384015460608401819052600485015460808501819052600586015460a0860181905260069096015460ff808216151560c088018190529590910416151560e0909501859052919b959a9950975095509193509091565b6001600160a01b031660009081526002602052604090205460ff1690565b6000546001600160a01b031633146118f35760408051600160e51b62461bcd02815260206004820152600f6024820152600080516020613b28833981519152604482015290519081900360640190fd5b600154600160a01b900460ff1661194a5760408051600160e51b62461bcd0281526020600482015260106024820152600160821b6f12185cc81d1bc81899481c185d5cd95902604482015290519081900360640190fd5b60018054600160a01b60ff02191690556040517f7805862f689e2f13df9f062ff482ad3ad112aca9e0847911ed832e158c525b3390600090a1565b601354421190565b60125442101590565b601b5460009060ff1615611ab85760065460408051600160e01b6370a08231028152336004820152905168a2a15d09519be00000926001600160a01b0316916370a08231916024808301926020929190829003018186803b1580156119fa57600080fd5b505afa158015611a0e573d6000803e3d6000fd5b505050506040513d6020811015611a2457600080fd5b50511180611ab1575060075460408051600160e01b6370a0823102815233600482015290516801158e460913d00000926001600160a01b0316916370a08231916024808301926020929190829003018186803b158015611a8357600080fd5b505afa158015611a97573d6000803e3d6000fd5b505050506040513d6020811015611aad57600080fd5b5051115b9050610cda565b506001610cda565b6000611aca61198d565b8015611adb5750611ad9611985565b155b905090565b6001546001600160a01b03163314611b425760408051600160e51b62461bcd02815260206004820152601c60248201527f48617320746f206265207468652070726f706f736564206f776e657200000000604482015290519081900360640190fd5b600154600080546040516001600160a01b0393841693909116917f8be0079c531659141344cd1fd0a4f28419497f9722a3daafe3b4186f6b6457e091a360018054600080546001600160a01b03199081166001600160a01b03841617909155169055565b600b6020528160005260406000208181548110611bbf57fe5b90600052602060002001600091509150505481565b600154600160a01b900460ff1681565b60115481565b600c5460408051600160e01b6370a0823102815230600482015290516000926001600160a01b0316916370a08231916024808301926020929190829003018186803b158015611c3857600080fd5b505afa158015611c4c573d6000803e3d6000fd5b505050506040513d6020811015611c6257600080fd5b5051905090565b6060600a805480602002602001604051908101604052809291908181526020018280548015611cb757602002820191906000526020600020905b815481526020019060010190808311611ca3575b5050505050905090565b60606003805480602002602001604051908101604052809291908181526020018280548015611cb757602002820191906000526020600020905b81546001600160a01b03168152600190910190602001808311611cfb575050505050905090565b601454151590565b6000611d37601654611f3b565b611d42601754611f3b565b10611d8157604051600160e51b62461bcd02815260040180806020018281038252602e815260200180613a8b602e913960400191505060405180910390fd5b50600190565b60175481565b6006546001600160a01b031681565b600c546001600160a01b031681565b600f5481565b600860205260009081526040902080546001820154600283015460038401546004850154600586015460069096015494956001600160a01b03909416949293919290919060ff8082169161010090041688565b6000546001600160a01b03163314611e545760408051600160e51b62461bcd02815260206004820152600f6024820152600080516020613b28833981519152604482015290519081900360640190fd5b600154600160a01b900460ff1615611eae5760408051600160e51b62461bcd0281526020600482015260126024820152600160721b7112185cc81d1bc81899481d5b9c185d5cd95902604482015290519081900360640190fd5b60018054600160a01b60ff021916600160a01b1790556040517f6985a02210a168e66602d3235cb6db0e70f92b3ba4d376a33c0f3d9434bff62590600090a1565b600080611f0d61012c61120e6012544261378890919063ffffffff16565b9050611f2081600163ffffffff6137ca16565b91505090565b6000546001600160a01b031681565b60165481565b6000611f5b600e54600a0a61120e601154856136e390919063ffffffff16565b92915050565b6000546001600160a01b03163314611fb15760408051600160e51b62461bcd02815260206004820152600f6024820152600080516020613b28833981519152604482015290519081900360640190fd5b611fb9611985565b611ffb5760408051600160e51b62461bcd0281526020600482015260136024820152600080516020613bcd833981519152604482015290519081900360640190fd5b600c546001600160a01b038381169116141561204b57604051600160e51b62461bcd02815260040180806020018281038252603b8152602001806139ad603b913960400191505060405180910390fd5b600d546001600160a01b038381169116141561209b57604051600160e51b62461bcd02815260040180806020018281038252603c815260200180613c84603c913960400191505060405180910390fd5b60408051600160e01b6370a08231028152306004820152905183916001600160a01b0383169163a9059cbb91859184916370a08231916024808301926020929190829003018186803b1580156120f057600080fd5b505afa158015612104573d6000803e3d6000fd5b505050506040513d602081101561211a57600080fd5b50516040805163ffffffff851660e01b81526001600160a01b03909316600484015260248301919091525160448083019260209291908290030181600087803b15801561216657600080fd5b505af115801561217a573d6000803e3d6000fd5b505050506040513d602081101561219057600080fd5b50516121e65760408051600160e51b62461bcd02815260206004820152601b60248201527f455243323020546f6b656e207472616e73666572206661696c65640000000000604482015290519081900360640190fd5b505050565b601d6020526000908152604090205481565b600154600160a01b900460ff16156122575760408051600160e51b62461bcd0281526020600482015260126024820152600160721b7112185cc81d1bc81899481d5b9c185d5cd95902604482015290519081900360640190fd5b600d54600160a01b900460ff166122b85760408051600160e51b62461bcd02815260206004820152601060248201527f48617320746f2062652066756e64656400000000000000000000000000000000604482015290519081900360640190fd5b6122c0611ac0565b6123145760408051600160e51b62461bcd02815260206004820152600e60248201527f48617320746f206265206f70656e000000000000000000000000000000000000604482015290519081900360640190fd5b60045460ff16156123315761232833611885565b61233157600080fd5b600061233b610ccc565b1561239157503461234b82611f3b565b81101561238c57604051600160e51b62461bcd02815260040180806020018281038252604a815260200180613ade604a913960600191505060405180910390fd5b612464565b61239a82611f3b565b600d5460408051600160e01b6323b872dd0281523360048201523060248201526044810184905290519293506001600160a01b03909116916323b872dd916064808201926020929091908290030181600087803b1580156123fa57600080fd5b505af115801561240e573d6000803e3d6000fd5b505050506040513d602081101561242457600080fd5b505161246457604051600160e51b62461bcd02815260040180806020018281038252603181526020018061397c6031913960400191505060405180910390fd5b600082116124bc5760408051600160e51b62461bcd02815260206004820152601960248201527f416d6f756e742068617320746f20626520706f73697469766500000000000000604482015290519081900360640190fd5b6124c4612eb3565b82111561250557604051600160e51b62461bcd028152600401808060200182810382526024815260200180613a416024913960400191505060405180910390fd5b60145482101561254957604051600160e51b62461bcd028152600401808060200182810382526024815260200180613c606024913960400191505060405180910390fd5b60155482111561258d57604051600160e51b62461bcd028152600401808060200182810382526025815260200180613ab96025913960400191505060405180910390fd5b606061259833612f58565b90506000805b8251811015612667576125af613929565b600860008584815181106125bf57fe5b602090810291909101810151825281810192909252604090810160002081516101008082018452825480835260018401546001600160a01b0316958301959095526002830154938201939093526003820154606082015260048201546080820152600582015460a082015260069091015460ff808216151560c0840152929004909116151560e0820152915061265c90849063ffffffff6137ca16565b92505060010161259e565b5060155461267b828663ffffffff6137ca16565b11156126bb57604051600160e51b62461bcd028152600401808060200182810382526031815260200180613c0e6031913960400191505060405180910390fd5b6126c3611996565b151560011461270657604051600160e51b62461bcd028152600401808060200182810382526026815260200180613a656026913960400191505060405180910390fd5b60195460ff16156127e857600c5460408051600160e01b63a9059cbb0281523360048201526024810187905290516001600160a01b039092169163a9059cbb916044808201926020929091908290030181600087803b15801561276857600080fd5b505af115801561277c573d6000803e3d6000fd5b505050506040513d602081101561279257600080fd5b50516127e85760408051600160e51b62461bcd02815260206004820152601b60248201527f4552433230207472616e73666572206469646ec2b47420776f726b0000000000604482015290519081900360640190fd5b6005546127fc81600163ffffffff6137ca16565b600555612807613929565b506040805161010080820183528782523360208084018281528486018a8152426060870190815260006080880181815260a0890182815260195460ff16151560c08b0190815260e08b018481528d8552600889528c85208c5181559751600189810180546001600160a01b03939093166001600160a01b0319938416179055975160028a015595516003890155925160048801559051600587015551600690950180549151151590980261ff001995151560ff19909216919091179490941693909317909555600a80548083019091557fc65a7bb8d6351c1cf70c95a316cc6a92839c986682d98bc35f958f4883f9d2a801889055838252600b83529581208054808801825590825291812090910186905560098054958601815590527f6e1540171b6c0c960b71a7020d9f60077f6af931a8bbf590da0223dacf75c7af9093018054909116909217909155601754612966908763ffffffff6137ca16565b60175560408051878152426020820152815133927fbec109f7ee137de661c6887caa96653c0545050a9908a3b6eb5190440bbec864928290030190a2505050505050565b60026020526000908152604090205460ff1681565b601a5481565b60195460ff1615612a205760408051600160e51b62461bcd02815260206004820152601960248201527f48617320746f206265206e6f6e2041746f6d6963207377617000000000000000604482015290519081900360640190fd5b612a28611985565b612a6a5760408051600160e51b62461bcd0281526020600482015260136024820152600080516020613bcd833981519152604482015290519081900360640190fd5b600154600160a01b900460ff1615612ac45760408051600160e51b62461bcd0281526020600482015260126024820152600160721b7112185cc81d1bc81899481d5b9c185d5cd95902604482015290519081900360640190fd5b60008181526008602052604090205415801590612af3575060008181526008602052604090206006015460ff16155b612b3157604051600160e51b62461bcd0281526004018080602001828103825260218152602001806139e86021913960400191505060405180910390fd5b612b3a816136c3565b612b8e5760408051600160e51b62461bcd02815260206004820152601460248201527f41646472657373206973206e6f74206275796572000000000000000000000000604482015290519081900360640190fd5b6000612b98611eef565b600083815260086020526040902060050154909150811115612bee57604051600160e51b62461bcd028152600401808060200182810382526027815260200180613b7a6027913960400191505060405180910390fd5b6000828152600860205260408120600501545b82811015612c59576000818152601d6020908152604080832054878452600890925290912054612c4f91612c429160649161120e919063ffffffff6136e316565b839063ffffffff6137ca16565b9150600101612c01565b5060008381526008602052604090208054600490910154612c80908363ffffffff6137ca16565b1415612ca3576000838152600860205260409020600601805460ff191660011790555b600083815260086020526040902060040154612cc5908263ffffffff6137ca16565b6000848152600860209081526040808320600480820195909555600501869055600c548151600160e01b63a9059cbb02815233958101959095526024850186905290516001600160a01b039091169363a9059cbb9360448083019493928390030190829087803b158015612d3857600080fd5b505af1158015612d4c573d6000803e3d6000fd5b505050506040513d6020811015612d6257600080fd5b50516121e65760408051600160e51b62461bcd02815260206004820152601560248201527f4552433230207472616e73666572206661696c65640000000000000000000000604482015290519081900360640190fd5b6000546001600160a01b03163314612e085760408051600160e51b62461bcd02815260206004820152600f6024820152600080516020613b28833981519152604482015290519081900360640190fd5b60038181548110612e1557fe5b6000918252602090912001546001600160a01b03838116911614612e3857600080fd5b6001600160a01b0382166000908152600260205260409020805460ff191690556003805482908110612e6657fe5b6000918252602082200180546001600160a01b03191690556040516001600160a01b038416917fcdd2e9b91a56913d370075169cefa1602ba36be5301664f752192bb1709df75791a25050565b6017546018540390565b6000612ec7610cf2565b15611d8157612ed7601654611f3b565b612ee2601754611f3b565b1015611d8157604051600160e51b62461bcd02815260040180806020018281038252602c815260200180613ba1602c913960400191505060405180910390fd5b60105460ff1681565b60038181548110612f3857fe5b6000918252602090912001546001600160a01b0316905081565b60135481565b6001600160a01b0381166000908152600b6020908152604091829020805483518184028101840190945280845260609392830182828015612fb857602002820191906000526020600020905b815481526020019060010190808311612fa4575b50505050509050919050565b6000546001600160a01b031633146130145760408051600160e51b62461bcd02815260206004820152600f6024820152600080516020613b28833981519152604482015290519081900360640190fd5b60005b815181101561310a576002600083838151811061303057fe5b6020908102919091018101516001600160a01b031682528101919091526040016000205460ff1615156001141561306657600080fd5b60016002600084848151811061307857fe5b60200260200101516001600160a01b03166001600160a01b0316815260200190815260200160002060006101000a81548160ff02191690831515021790555060038282815181106130c557fe5b60209081029190910181015182546001808201855560009485529290932090920180546001600160a01b0319166001600160a01b039093169290921790915501613017565b508060405180828051906020019060200280838360005b83811015613139578181015183820152602001613121565b505060405194909201849003842095507fe3c5086a518f78e8aa61952bb9c28a9a0f0022707e537ea961faa918e0d89f6f945060009392505050a250565b601c5481565b6000546001600160a01b031633146131cd5760408051600160e51b62461bcd02815260206004820152600f6024820152600080516020613b28833981519152604482015290519081900360640190fd5b6131d5611985565b6132175760408051600160e51b62461bcd0281526020600482015260136024820152600080516020613bcd833981519152604482015290519081900360640190fd5b60105460ff161561322757600080fd5b6000613231610cf2565b80156132505750613243601654611f3b565b61324e601754611f3b565b105b1561325e5750601854613276565b6017546018546132739163ffffffff61378816565b90505b8015611078576010805460ff19166001179055600c5460408051600160e01b63a9059cbb0281523360048201526024810184905290516001600160a01b039092169163a9059cbb916044808201926020929091908290030181600087803b1580156132e057600080fd5b505af11580156132f4573d6000803e3d6000fd5b505050506040513d602081101561330a57600080fd5b50516110785760408051600160e51b62461bcd02815260206004820152601560248201527f4552433230207472616e73666572206661696c65640000000000000000000000604482015290519081900360640190fd5b6133686117c6565b6133bc5760408051600160e51b62461bcd02815260206004820152601560248201527f48617320746f206265207072652d737461727465640000000000000000000000604482015290519081900360640190fd5b6018546133d7826133cb611bea565b9063ffffffff6137ca16565b111561341757604051600160e51b62461bcd028152600401808060200182810382526038815260200180613a096038913960400191505060405180910390fd5b600c5460408051600160e01b6323b872dd0281523360048201523060248201526044810184905290516001600160a01b03909216916323b872dd916064808201926020929091908290030181600087803b15801561347457600080fd5b505af1158015613488573d6000803e3d6000fd5b505050506040513d602081101561349e57600080fd5b50516134f45760408051600160e51b62461bcd02815260206004820152601b60248201527f4661696c656420455243323020746f6b656e207472616e736665720000000000604482015290519081900360640190fd5b6018546134ff611bea565b141561107857600d8054600160a01b60ff021916600160a01b17905550565b601b5460ff1681565b6001546001600160a01b031681565b600a818154811061354357fe5b600091825260209091200154905081565b6007546001600160a01b031681565b60155481565b600d546001600160a01b031681565b60195461010090046001600160a01b031681565b6000611adb601854611f3b565b60098181548110612f3857fe5b6000546001600160a01b031633146135f65760408051600160e51b62461bcd02815260206004820152600f6024820152600080516020613b28833981519152604482015290519081900360640190fd5b336001600160a01b038216141561364157604051600160e51b62461bcd028152600401808060200182810382526021815260200180613c3f6021913960400191505060405180910390fd5b600180546001600160a01b0319166001600160a01b0392909216919091179055565b60606009805480602002602001604051908101604052809291908181526020018280548015611cb7576020028201919060005260206000209081546001600160a01b03168152600190910190602001808311611cfb575050505050905090565b6000908152600860205260409020600101546001600160a01b0316331490565b6000826136f257506000611f5b565b828202828482816136ff57fe5b041461373f57604051600160e51b62461bcd028152600401808060200182810382526021815260200180613bed6021913960400191505060405180910390fd5b9392505050565b600061373f83836040518060400160405280601a81526020017f536166654d6174683a206469766973696f6e206279207a65726f000000000000815250613827565b600061373f83836040518060400160405280601e81526020017f536166654d6174683a207375627472616374696f6e206f766572666c6f7700008152506138cc565b60008282018381101561373f5760408051600160e51b62461bcd02815260206004820152601b60248201527f536166654d6174683a206164646974696f6e206f766572666c6f770000000000604482015290519081900360640190fd5b600081836138b657604051600160e51b62461bcd0281526004018080602001828103825283818151815260200191508051906020019080838360005b8381101561387b578181015183820152602001613863565b50505050905090810190601f1680156138a85780820380516001836020036101000a031916815260200191505b509250505060405180910390fd5b5060008385816138c257fe5b0495945050505050565b6000818484111561392157604051600160e51b62461bcd02815260206004820181815283516024840152835190928392604490910191908501908083836000831561387b578181015183820152602001613863565b505050900390565b6040518061010001604052806000815260200160006001600160a01b0316815260200160008152602001600081526020016000815260200160008152602001600015158152602001600015158152509056fe5061796d656e74206f6620455243323020546f6b656e205472616e7366657220776173206e6f7420737563636565646564546f6b656e20416464726573732068617320746f2062652064696666207468616e20746865206572633230207375626a65637420746f2073616c655075726368617365206973206569746865722030206f722066696e616c697a65645472616e73666572656420746f6b656e73206861766520746f20626520657175616c206f72206c657373207468616e2070726f706f736564416d6f756e74206973206c657373207468616e20746f6b656e7320617661696c61626c65416464726573732068617320746f2062652077686974656c697374656420666f7220504f4c53546f74616c526169736520697320626967676572207468616e206d696e696d756d20726169736520616d6f756e74416d6f756e7420697320736d616c6c6572207468616e206d6178696d756d20616d6f756e74557365722068617320746f20636f7665722074686520636f7374206f662074686520737761702c207573652074686520636f73742066756e6374696f6e20746f2064657465726d696e6548617320746f206265206f776e657200000000000000000000000000000000005265747269657665206f6620455243323020546f6b656e205472616e7366657220776173206e6f742073756363656564656443757272656e74205472616e6368652077617320616c7265616479206469737472696275746564546f74616c5261697365206973206c657373207468616e206d696e696d756d20726169736520616d6f756e7448617320746f2062652066696e616c697a656400000000000000000000000000536166654d6174683a206d756c7469706c69636174696f6e206f766572666c6f77416464726573732068617320616c72656164792070617373656420746865206d617820616d6f756e74206f66207377617048617320746f2062652064696666207468616e2063757272656e74206f776e6572416d6f756e7420697320626967676572207468616e206d696e696d756d20616d6f756e74546f6b656e20416464726573732068617320746f2062652064696666207468616e2074686520657263323020616761696e7374207468652073616c65a165627a7a7230582032e1c20ead084113d0eb7b132d9693c9bbe1380d1f894928a2cf1f43d1e800cd0029456e6420446174652073686f756c642062652066757274686572207468616e2063757272656e742064617465496e646976696475616c204d6178696d696d20414d6f756e742073686f756c64206265203e20496e646976696475616c204d696e696d756d20416d6f756e7456657374696e672054696d652068617320746f20626520736d616c6c6572207468616e203130202620626967676572207468616e20304d696e696d756d2052616973652073686f756c64206265203c20546f6b656e7320466f722053616c65546f6b656e7320666f722053616c652073686f756c64206265203e20496e646976696475616c204d696e696d756d20416d6f756e74",
  "source": "pragma solidity 0.5.8; \n\n/**\n * @title ERC20Basic\n * @dev Simpler version of ERC20 interface\n * @dev see https://github.com/ethereum/EIPs/issues/179\n */\ncontract ERC20Basic {\n    function decimals() public view returns (uint8);\n    function totalSupply() public view returns (uint256);\n    function balanceOf(address who) public view returns (uint256);\n    function transfer(address to, uint256 value) public returns (bool);\n    event Transfer(address indexed from, address indexed to, uint256 value);\n}\n\n/**\n * @dev Wrappers over Solidity's arithmetic operations with added overflow\n * checks.\n *\n * Arithmetic operations in Solidity wrap on overflow. This can easily result\n * in bugs, because programmers usually assume that an overflow raises an\n * error, which is the standard behavior in high level programming languages.\n * `SafeMath` restores this intuition by reverting the transaction when an\n * operation overflows.\n *\n * Using this library instead of the unchecked operations eliminates an entire\n * class of bugs, so it's recommended to use it always.\n */\nlibrary SafeMath {\n    /**\n     * @dev Returns the addition of two unsigned integers, reverting on\n     * overflow.\n     *\n     * Counterpart to Solidity's `+` operator.\n     *\n     * Requirements:\n     * - Addition cannot overflow.\n     */\n    function add(uint256 a, uint256 b) internal pure returns (uint256) {\n        uint256 c = a + b;\n        require(c >= a, \"SafeMath: addition overflow\");\n\n        return c;\n    }\n\n    /**\n     * @dev Returns the subtraction of two unsigned integers, reverting on\n     * overflow (when the result is negative).\n     *\n     * Counterpart to Solidity's `-` operator.\n     *\n     * Requirements:\n     * - Subtraction cannot overflow.\n     */\n    function sub(uint256 a, uint256 b) internal pure returns (uint256) {\n        return sub(a, b, \"SafeMath: subtraction overflow\");\n    }\n\n    /**\n     * @dev Returns the subtraction of two unsigned integers, reverting with custom message on\n     * overflow (when the result is negative).\n     *\n     * Counterpart to Solidity's `-` operator.\n     *\n     * Requirements:\n     * - Subtraction cannot overflow.\n     *\n     * _Available since v2.4.0._\n     */\n    function sub(uint256 a, uint256 b, string memory errorMessage) internal pure returns (uint256) {\n        require(b <= a, errorMessage);\n        uint256 c = a - b;\n\n        return c;\n    }\n\n    /**\n     * @dev Returns the multiplication of two unsigned integers, reverting on\n     * overflow.\n     *\n     * Counterpart to Solidity's `*` operator.\n     *\n     * Requirements:\n     * - Multiplication cannot overflow.\n     */\n    function mul(uint256 a, uint256 b) internal pure returns (uint256) {\n        // Gas optimization: this is cheaper than requiring 'a' not being zero, but the\n        // benefit is lost if 'b' is also tested.\n        // See: https://github.com/OpenZeppelin/openzeppelin-contracts/pull/522\n        if (a == 0) {\n            return 0;\n        }\n\n        uint256 c = a * b;\n        require(c / a == b, \"SafeMath: multiplication overflow\");\n\n        return c;\n    }\n\n    /**\n     * @dev Returns the integer division of two unsigned integers. Reverts on\n     * division by zero. The result is rounded towards zero.\n     *\n     * Counterpart to Solidity's `/` operator. Note: this function uses a\n     * `revert` opcode (which leaves remaining gas untouched) while Solidity\n     * uses an invalid opcode to revert (consuming all remaining gas).\n     *\n     * Requirements:\n     * - The divisor cannot be zero.\n     */\n    function div(uint256 a, uint256 b) internal pure returns (uint256) {\n        return div(a, b, \"SafeMath: division by zero\");\n    }\n\n    /**\n     * @dev Returns the integer division of two unsigned integers. Reverts with custom message on\n     * division by zero. The result is rounded towards zero.\n     *\n     * Counterpart to Solidity's `/` operator. Note: this function uses a\n     * `revert` opcode (which leaves remaining gas untouched) while Solidity\n     * uses an invalid opcode to revert (consuming all remaining gas).\n     *\n     * Requirements:\n     * - The divisor cannot be zero.\n     *\n     * _Available since v2.4.0._\n     */\n    function div(uint256 a, uint256 b, string memory errorMessage) internal pure returns (uint256) {\n        // Solidity only automatically asserts when dividing by 0\n        require(b > 0, errorMessage);\n        uint256 c = a / b;\n        // assert(a == b * c + a % b); // There is no case in which this doesn't hold\n\n        return c;\n    }\n\n    /**\n     * @dev Returns the remainder of dividing two unsigned integers. (unsigned integer modulo),\n     * Reverts when dividing by zero.\n     *\n     * Counterpart to Solidity's `%` operator. This function uses a `revert`\n     * opcode (which leaves remaining gas untouched) while Solidity uses an\n     * invalid opcode to revert (consuming all remaining gas).\n     *\n     * Requirements:\n     * - The divisor cannot be zero.\n     */\n    function mod(uint256 a, uint256 b) internal pure returns (uint256) {\n        return mod(a, b, \"SafeMath: modulo by zero\");\n    }\n\n    /**\n     * @dev Returns the remainder of dividing two unsigned integers. (unsigned integer modulo),\n     * Reverts with custom message when dividing by zero.\n     *\n     * Counterpart to Solidity's `%` operator. This function uses a `revert`\n     * opcode (which leaves remaining gas untouched) while Solidity uses an\n     * invalid opcode to revert (consuming all remaining gas).\n     *\n     * Requirements:\n     * - The divisor cannot be zero.\n     *\n     * _Available since v2.4.0._\n     */\n    function mod(uint256 a, uint256 b, string memory errorMessage) internal pure returns (uint256) {\n        require(b != 0, errorMessage);\n        return a % b;\n    }\n}\n\n// File: openzeppelin-solidity/contracts/token/ERC20/ERC20.sol\n\n/**\n * @title ERC20 interface\n * @dev see https://github.com/ethereum/EIPs/issues/20\n */\ncontract ERC20 is ERC20Basic {\n  function allowance(address owner, address spender) public view returns (uint256);\n  function transferFrom(address from, address to, uint256 value) public returns (bool);\n  function approve(address spender, uint256 value) public returns (bool);\n  event Approval(address indexed owner, address indexed spender, uint256 value);\n}\n\n// File: openzeppelin-solidity/contracts/ownership/Ownable.sol\n\n/**\n * @title Ownable\n * @dev The Ownable contract has an owner address, and provides basic authorization control\n * functions, this simplifies the implementation of \"user permissions\".\n */\ncontract Ownable {\n    address public owner;\n    address public proposedOwner;\n    event OwnershipTransferred(address indexed previousOwner, address indexed newOwner);\n\n\n    /**\n    * @dev The Ownable constructor sets the original `owner` of the contract to the sender\n    * account.\n    */\n    constructor() public {\n        owner = msg.sender;\n    }\n\n    /**\n    * @dev Throws if called by any account other than the owner.\n    */\n    modifier onlyOwner() {\n        require(msg.sender == owner, \"Has to be owner\");\n        _;\n    }\n\n    function transferOwnership(address _proposedOwner) public onlyOwner {\n        require(msg.sender != _proposedOwner, \"Has to be diff than current owner\");\n        proposedOwner = _proposedOwner;\n    }\n\n    function claimOwnership() public {\n        require(msg.sender == proposedOwner, \"Has to be the proposed owner\");\n        emit OwnershipTransferred(owner, proposedOwner);\n        owner = proposedOwner;\n        proposedOwner = address(0);\n    }\n}\n\n// File: openzeppelin-solidity/contracts/lifecycle/Pausable.sol\n\n/**\n * @title Pausable\n * @dev Base contract which allows children to implement an emergency stop mechanism.\n */\ncontract Pausable is Ownable {\n    event Pause();\n    event Unpause();\n\n    bool public paused = false;\n\n\n    /**\n    * @dev Modifier to make a function callable only when the contract is not paused.\n    */\n    modifier whenNotPaused() {\n        require(!paused, \"Has to be unpaused\");\n        _;\n    }\n\n    /**\n    * @dev Modifier to make a function callable only when the contract is paused.\n    */\n    modifier whenPaused() {\n        require(paused, \"Has to be paused\");\n        _;\n    }\n\n    /**\n    * @dev called by the owner to pause, triggers stopped state\n    */\n    function pause() onlyOwner whenNotPaused public {\n        paused = true;\n        emit Pause();\n    }\n\n    /**\n    * @dev called by the owner to unpause, returns to normal state\n    */\n    function unpause() onlyOwner whenPaused public {\n        paused = false;\n        emit Unpause();\n    }\n}\n\n\ncontract Whitelist is Ownable {\n\n    mapping(address => bool) public whitelist;\n    address[] public whitelistedAddresses;\n    bool public hasWhitelisting = false;\n\n    event AddedToWhitelist(address[] indexed accounts);\n    event RemovedFromWhitelist(address indexed account);\n\n    modifier onlyWhitelisted() {\n        if(hasWhitelisting){\n            require(isWhitelisted(msg.sender));\n        }\n        _;\n    }\n    \n    constructor (bool _hasWhitelisting) public{\n        hasWhitelisting = _hasWhitelisting;\n    }\n\n    function add(address[] memory _addresses) public onlyOwner {\n        for (uint i = 0; i < _addresses.length; i++) {\n            require(whitelist[_addresses[i]] != true);\n            whitelist[_addresses[i]] = true;\n            whitelistedAddresses.push(_addresses[i]);\n        }\n        emit AddedToWhitelist(_addresses);\n    }\n\n    function remove(address _address, uint256 _index) public onlyOwner {\n        require(_address == whitelistedAddresses[_index]);\n        whitelist[_address] = false;\n        delete whitelistedAddresses[_index];\n        emit RemovedFromWhitelist(_address);\n    }\n\n    function getWhitelistedAddresses() public view returns(address[] memory) {\n        return whitelistedAddresses;\n    } \n\n    function isWhitelisted(address _address) public view returns(bool) {\n        return whitelist[_address];\n    }\n}\n\ncontract FixedSwapTest is Pausable, Whitelist {\n    using SafeMath for uint256;\n    uint256 increment = 0;\n\n    ERC20 public erc20POLS = ERC20(address(0x83e6f1E41cdd28eAcEB20Cb649155049Fac3D5Aa));\n    ERC20 public erc20v2POLS = ERC20(address(0xFfA98A091331Df4600F87C9164cD27e8a5CD2405));\n\n    mapping(uint256 => Purchase) public purchases; /* Purchasers mapping */\n    address[] public buyers; /* Current Buyers Addresses */\n    uint256[] public purchaseIds; /* All purchaseIds */\n    mapping(address => uint256[]) public myPurchases; /* Purchasers mapping */\n\n    ERC20 public erc20;\n    ERC20 public erc20TradeAddress; /* Trade Token Vaue */\n    bool public isSaleFunded = false;\n    uint public decimals = 0;\n    uint public tradingDecimals = 18; /* Base wei decimals */\n    bool public unsoldTokensReedemed = false;\n    uint256 public tradeValue; /* Price in Wei */\n    uint256 public startDate; /* Start Date  */\n    uint256 public endDate;  /* End Date  */\n    uint256 public individualMinimumAmount = 0;  /* Minimum Amount Per Address */\n    uint256 public individualMaximumAmount = 0;  /* Minimum Amount Per Address */\n    uint256 public minimumRaise = 0;  /* Minimum Amount of Tokens that have to be sold */\n    uint256 public tokensAllocated = 0; /* Tokens Available for Allocation - Dynamic */\n    uint256 public tokensForSale = 0; /* Tokens Available for Sale */\n    bool    public isTokenSwapAtomic; /* Make token release atomic or not */\n    address payable public FEE_ADDRESS = 0xAEb39b67F27b641Ef9F95fB74F1A46b1EE4Efc83; /* Default Address for Fee Percentage */\n    uint256 public feePercentage = 1; /* Default Fee 1% */\n    bool public isPOLSWhitelisted = false; /* Is whitelisted by pools */\n\n    uint public vestingTime = 1; /* Default, 1 vesting schedule which is the endDate */\n    mapping(uint256 => uint256) public vestingSchedule; /* Vesting Mapping [{1 month, 20%}, {2 month, 70%}] */\n\n    struct Purchase {\n        uint256 amount;\n        address purchaser;\n        uint256 costAmount;\n        uint256 timestamp;\n        uint256 amountReedemed; /* Amount Reedemed already */\n        uint256 lastTrancheSent; /* Last tranche sent */\n        bool wasFinalized /* Confirm the tokens were sent already */;\n        bool reverted /* Confirm the tokens were sent already */;\n    }\n\n    event PurchaseEvent(uint256 amount, address indexed purchaser, uint256 timestamp);\n\n    constructor(address _tokenAddress, uint256 _tradeValue, uint256 _tokensForSale, uint256 _startDate, \n        uint256 _endDate, uint256 _individualMinimumAmount, uint256 _individualMaximumAmount, bool _isTokenSwapAtomic, uint256 _minimumRaise,\n        uint256 _feeAmount, bool _hasWhitelisting, address _erc20TradeAddress, bool _isETHTrade, bool _isPOLSWhitelisted,\n        uint256 _vestingTime, uint256[] memory _vestingSchedule\n    ) public Whitelist(_hasWhitelisting) {\n        \n        /* Confirmations */\n        require(block.timestamp < _endDate, \"End Date should be further than current date\");\n        require(block.timestamp < _startDate, \"End Date should be further than current date\");\n        require(_startDate < _endDate, \"End Date higher than Start Date\");\n        require(_tokensForSale > 0, \"Tokens for Sale should be > 0\");\n        require(_tokensForSale > _individualMinimumAmount, \"Tokens for Sale should be > Individual Minimum Amount\");\n        require(_individualMaximumAmount >= _individualMinimumAmount, \"Individual Maximim AMount should be > Individual Minimum Amount\");\n        require(_minimumRaise <= _tokensForSale, \"Minimum Raise should be < Tokens For Sale\");\n        require(_feeAmount >= feePercentage, \"Fee Percentage has to be >= 1\");\n        require(_feeAmount <= 99, \"Fee Percentage has to be < 100\");\n        require(_vestingTime > 0 && _vestingTime < 48, \"Vesting Time has to be smaller than 10 & bigger than 0\");\n\n        startDate = _startDate; \n        endDate = _endDate;\n        tokensForSale = _tokensForSale;\n        tradeValue = _tradeValue;\n\n        individualMinimumAmount = _individualMinimumAmount; \n        individualMaximumAmount = _individualMaximumAmount; \n        isTokenSwapAtomic = _isTokenSwapAtomic;\n\n        if(!_isTokenSwapAtomic){ /* If raise is not atomic swap */\n            minimumRaise = _minimumRaise;\n        }\n        \n        erc20 = ERC20(_tokenAddress);\n        if(!_isETHTrade){\n            erc20TradeAddress = ERC20(_erc20TradeAddress);\n            tradingDecimals =  erc20TradeAddress.decimals();\n        }\n\n        isPOLSWhitelisted = _isPOLSWhitelisted;\n        decimals = erc20.decimals();\n        feePercentage = _feeAmount;\n        vestingTime = _vestingTime;\n\n        for (uint i = 0; i < vestingTime; i++) {\n            vestingSchedule[i+1] = _vestingSchedule[i];\n        }\n    }\n\n    /**\n    * Modifier to make a function callable only when the contract has Atomic Swaps not available.\n    */\n    modifier isNotAtomicSwap() {\n        require(!isTokenSwapAtomic, \"Has to be non Atomic swap\");\n        _;\n    }\n\n     /**\n    * Modifier to make a function callable only when the contract has Atomic Swaps not available.\n    */\n    modifier isSaleFinalized() {\n        require(hasFinalized(), \"Has to be finalized\");\n        _;\n    }\n\n     /**\n    * Modifier to make a function callable only when the swap time is open.\n    */\n    modifier isSaleOpen() {\n        require(isOpen(), \"Has to be open\");\n        _;\n    }\n\n     /**\n    * Modifier to make a function callable only when the contract has Atomic Swaps not available.\n    */\n    modifier isSalePreStarted() {\n        require(isPreStart(), \"Has to be pre-started\");\n        _;\n    }\n\n    /**\n    * Modifier to make a function callable only when the contract has Atomic Swaps not available.\n    */\n    modifier isFunded() {\n        require(isSaleFunded, \"Has to be funded\");\n        _;\n    }\n\n\n    /* Get Functions */\n    function isBuyer(uint256 purchase_id) public view returns (bool) {\n        return (msg.sender == purchases[purchase_id].purchaser);\n    }\n\n    /* Get Functions */\n    function totalRaiseCost() public view returns (uint256) {\n        return (cost(tokensForSale));\n    }\n\n    function getCurrentSchedule() public view returns (uint256){ \n        uint256 schedule = (block.timestamp.sub(startDate)).div(5 minutes);\n        return schedule.add(1);\n    }\n\n    function availableTokens() public view returns (uint256) {\n        return erc20.balanceOf(address(this));\n    }\n\n    function tokensLeft() public view returns (uint256) {\n        return tokensForSale - tokensAllocated;\n    }\n\n    function hasMinimumRaise() public view returns (bool){\n        return (minimumRaise != 0);\n    }\n\n    /* Verify if minimum raise was not achieved */\n    function minimumRaiseNotAchieved() public view returns (bool){\n        require(cost(tokensAllocated) < cost(minimumRaise), \"TotalRaise is bigger than minimum raise amount\");\n        return true;\n    }\n\n    /* Verify if minimum raise was achieved */\n    function minimumRaiseAchieved() public view returns (bool){\n        if(hasMinimumRaise()){\n            require(cost(tokensAllocated) >= cost(minimumRaise), \"TotalRaise is less than minimum raise amount\");\n        }\n        return true;\n    }\n\n    function isETHTrade() public view returns (bool){\n        return address(erc20TradeAddress) == address(0);\n    }\n\n    function hasFinalized() public view returns (bool){\n        return block.timestamp > endDate;\n    }\n\n    function hasStarted() public view returns (bool){\n        return block.timestamp >= startDate;\n    }\n    \n    function isPreStart() public view returns (bool){\n        return block.timestamp < startDate;\n    }\n\n    function isOpen() public view returns (bool){\n        return hasStarted() && !hasFinalized();\n    }\n\n    function hasMinimumAmount() public view returns (bool){\n       return (individualMinimumAmount != 0);\n    }\n\n    function cost(uint256 _amount) public view returns (uint){\n        return _amount.mul(tradeValue).div(10**decimals); \n    }\n\n    function getPurchase(uint256 _purchase_id) external view returns (uint256, address, uint256, uint256, uint256, uint256, bool, bool){\n        Purchase memory purchase = purchases[_purchase_id];\n        return (purchase.amount, purchase.purchaser, purchase.costAmount, purchase.timestamp, purchase.amountReedemed, purchase.lastTrancheSent, purchase.wasFinalized, purchase.reverted);\n    }\n\n    function getPurchaseIds() public view returns(uint256[] memory) {\n        return purchaseIds;\n    }\n\n    function getBuyers() public view returns(address[] memory) {\n        return buyers;\n    }\n\n    function getMyPurchases(address _address) public view returns(uint256[] memory) {\n        return myPurchases[_address];\n    }\n\n    function isAddressPOLSWhitelisted() public view returns(bool){\n        if(isPOLSWhitelisted){\n            /* Confirm balance held in POLS or V2 POLS is enough */\n            return (erc20POLS.balanceOf(msg.sender) > 3000*10**18) || (erc20v2POLS.balanceOf(msg.sender) > 20*10**18);\n        }else{\n            return true;\n        }\n    }\n\n    /* Fund - Pre Sale Start */\n    function fund(uint256 _amount) public isSalePreStarted {\n        \n        /* Confirm transfered tokens is no more than needed */\n        require(availableTokens().add(_amount) <= tokensForSale, \"Transfered tokens have to be equal or less than proposed\");\n\n        /* Transfer Funds */\n        require(erc20.transferFrom(msg.sender, address(this), _amount), \"Failed ERC20 token transfer\");\n        \n        /* If Amount is equal to needed - sale is ready */\n        if(availableTokens() == tokensForSale){\n            isSaleFunded = true;\n        }\n    }\n    \n    /* Action Functions */\n    function swap(uint256 _amount) payable external whenNotPaused isFunded isSaleOpen onlyWhitelisted {\n\n        uint256 value;\n        if(isETHTrade()){ \n            /* Is ETH Trade */\n            value = msg.value;\n            /* Confirm the user has funds for the transfer, confirm the value is equal */\n            require(value >= cost(_amount), \"User has to cover the cost of the swap, use the cost function to determine\");\n        }else{ \n            /* is ERC20 Trade */\n            value = cost(_amount);\n            require(erc20TradeAddress.transferFrom(msg.sender, address(this), value), \"Payment of ERC20 Token Transfer was not succeeded\");\n        }\n\n        /* Confirm Amount is positive */\n        require(_amount > 0, \"Amount has to be positive\");\n\n        /* Confirm Amount is less than tokens available */\n        require(_amount <= tokensLeft(), \"Amount is less than tokens available\");\n   \n        /* Confirm Amount is bigger than minimum Amount */\n        require(_amount >= individualMinimumAmount, \"Amount is bigger than minimum amount\");\n\n        /* Confirm Amount is smaller than maximum Amount */\n        require(_amount <= individualMaximumAmount, \"Amount is smaller than maximum amount\");\n\n        /* Verify all user purchases, loop thru them */\n        uint256[] memory _purchases = getMyPurchases(msg.sender);\n        uint256 purchaserTotalAmountPurchased = 0;\n        for (uint i = 0; i < _purchases.length; i++) {\n            Purchase memory _purchase = purchases[_purchases[i]];\n            purchaserTotalAmountPurchased = purchaserTotalAmountPurchased.add(_purchase.amount);\n        }\n        require(purchaserTotalAmountPurchased.add(_amount) <= individualMaximumAmount, \"Address has already passed the max amount of swap\");\n        require(isAddressPOLSWhitelisted() == true, \"Address has to be whitelisted for POLS\");\n\n        if(isTokenSwapAtomic){\n            /* Confirm transfer */\n            require(erc20.transfer(msg.sender, _amount), \"ERC20 transfer didnt work\");\n        }\n\n        \n        uint256 purchase_id = increment;\n        increment = increment.add(1);\n\n        /* Create new purchase */\n        Purchase memory purchase = Purchase(_amount, msg.sender, value, block.timestamp, 0, 0, isTokenSwapAtomic /* If Atomic Swap */, false);\n        purchases[purchase_id] = purchase;\n        purchaseIds.push(purchase_id);\n        myPurchases[msg.sender].push(purchase_id);\n        buyers.push(msg.sender);\n        tokensAllocated = tokensAllocated.add(_amount);\n        emit PurchaseEvent(_amount, msg.sender, block.timestamp);\n    }\n\n    /* Redeem tokens when the sale was finalized */\n    function redeemTokens(uint256 purchase_id) external isNotAtomicSwap isSaleFinalized whenNotPaused {\n        /* Confirm it exists and was not finalized */\n        require((purchases[purchase_id].amount != 0) && !purchases[purchase_id].wasFinalized, \"Purchase is either 0 or finalized\");\n        require(isBuyer(purchase_id), \"Address is not buyer\");\n        uint256 currentSchedule = getCurrentSchedule();\n        require(purchases[purchase_id].lastTrancheSent >= currentSchedule , \"Current Tranche was already distributed\");\n        \n        uint256 vestAmount;\n        for(uint i = purchases[purchase_id].lastTrancheSent; i < currentSchedule; i++){\n            vestAmount = vestAmount.add(purchases[purchase_id].amount.mul(vestingSchedule[i]).div(100));\n        }\n\n        if(purchases[purchase_id].amountReedemed.add(vestAmount) == purchases[purchase_id].amount){\n            // last tranche\n            purchases[purchase_id].wasFinalized = true;\n        }\n        purchases[purchase_id].amountReedemed = purchases[purchase_id].amountReedemed.add(vestAmount); /* Update Tranche Amount */\n        purchases[purchase_id].lastTrancheSent = currentSchedule; /* Update Tranche Status */\n        require(erc20.transfer(msg.sender, vestAmount), \"ERC20 transfer failed\");\n    }\n\n    /* Retrieve Minumum Amount */\n    function redeemGivenMinimumGoalNotAchieved(uint256 purchase_id) external isSaleFinalized isNotAtomicSwap {\n        require(hasMinimumRaise(), \"Minimum raise has to exist\");\n        require(minimumRaiseNotAchieved(), \"Minimum raise has to be reached\");\n        /* Confirm it exists and was not finalized */\n        require((purchases[purchase_id].amount != 0) && !purchases[purchase_id].wasFinalized, \"Purchase is either 0 or finalized\");\n        require(isBuyer(purchase_id), \"Address is not buyer\");\n        purchases[purchase_id].wasFinalized = true;\n        purchases[purchase_id].reverted = true;\n        \n        if(isETHTrade()){\n            msg.sender.transfer(purchases[purchase_id].costAmount);\n        }else{\n            require(erc20TradeAddress.transfer(msg.sender, purchases[purchase_id].costAmount), \"Retrieve of ERC20 Token Transfer was not succeeded\");\n        }\n    }\n\n    /* Admin Functions */\n    function withdrawFunds() external onlyOwner whenNotPaused isSaleFinalized {\n        require(minimumRaiseAchieved(), \"Minimum raise has to be reached\");\n        if(isETHTrade()){\n            FEE_ADDRESS.transfer(address(this).balance.mul(feePercentage).div(100)); /* Fee Address */\n            msg.sender.transfer(address(this).balance);\n        }else{\n            require(erc20TradeAddress.transfer(FEE_ADDRESS, erc20TradeAddress.balanceOf(address(this)).mul(feePercentage).div(100)), \"ERC20 Transfer didnt work\");  /* Fee Address */\n            require(erc20TradeAddress.transfer(msg.sender, erc20TradeAddress.balanceOf(address(this))), \"ERC20 Transfer didnt work\");\n        }\n    }  \n    \n    function withdrawUnsoldTokens() external onlyOwner isSaleFinalized {\n        require(!unsoldTokensReedemed);\n        uint256 unsoldTokens;\n        if(hasMinimumRaise() && \n            (cost(tokensAllocated) < cost(minimumRaise))){ /* Minimum Raise not reached */\n                unsoldTokens = tokensForSale;\n        }else{\n            /* If minimum Raise Achieved Redeem All Tokens minus the ones */\n            unsoldTokens = tokensForSale.sub(tokensAllocated);\n        }\n\n        if(unsoldTokens > 0){\n            unsoldTokensReedemed = true;\n            require(erc20.transfer(msg.sender, unsoldTokens), \"ERC20 transfer failed\");\n        }\n    }   \n\n    function removeOtherERC20Tokens(address _tokenAddress, address _to) external onlyOwner isSaleFinalized {\n        require(_tokenAddress != address(erc20), \"Token Address has to be diff than the erc20 subject to sale\"); // Confirm tokens addresses are different from main sale one\n        require(_tokenAddress != address(erc20TradeAddress), \"Token Address has to be diff than the erc20 against the sale\"); \n        ERC20 erc20Token = ERC20(_tokenAddress);\n        require(erc20Token.transfer(_to, erc20Token.balanceOf(address(this))), \"ERC20 Token transfer failed\");\n    } \n\n    /* Safe Pull function */\n    function safePull() payable external onlyOwner whenPaused {\n        msg.sender.transfer(address(this).balance);\n        require(erc20.transfer(msg.sender, erc20.balanceOf(address(this))), \"ERC20 Transfer didnt work\");\n        if(!isETHTrade()){\n            require(erc20TradeAddress.transfer(msg.sender, erc20TradeAddress.balanceOf(address(this))), \"ERC20 Transfer didnt work\");\n        }\n    }\n}\n",
  "sourcePath": "/Users/ruipedro/Desktop/projects/Staking/erc20/contracts/FixedSwapTest.sol",
  "compiler": {
    "name": "solc",
    "version": "0.5.8+commit.23d335f2.Emscripten.clang"
  },
  "schemaVersion": "3.0.20",
  "updatedAt": "2021-05-21T19:42:11.967Z",
  "devdoc": {
    "methods": {
      "pause()": {
        "details": "called by the owner to pause, triggers stopped state"
      },
      "unpause()": {
        "details": "called by the owner to unpause, returns to normal state"
      }
    }
  },
  "userdoc": {
    "methods": {}
  }
}