{
  "_format": "hh-sol-artifact-1",
  "contractName": "FixedSwap",
  "sourceName": "contracts/FixedSwap.sol",
  "abi": [
    {
      "inputs": [
        {
          "internalType": "address",
          "name": "_tokenAddress",
          "type": "address"
        },
        {
          "internalType": "uint256",
          "name": "_tradeValue",
          "type": "uint256"
        },
        {
          "internalType": "uint256",
          "name": "_tokensForSale",
          "type": "uint256"
        },
        {
          "internalType": "uint256",
          "name": "_startDate",
          "type": "uint256"
        },
        {
          "internalType": "uint256",
          "name": "_endDate",
          "type": "uint256"
        },
        {
          "internalType": "uint256",
          "name": "_individualMinimumAmount",
          "type": "uint256"
        },
        {
          "internalType": "uint256",
          "name": "_individualMaximumAmount",
          "type": "uint256"
        },
        {
          "internalType": "bool",
          "name": "_ignored",
          "type": "bool"
        },
        {
          "internalType": "uint256",
          "name": "_minimumRaise",
          "type": "uint256"
        },
        {
          "internalType": "uint256",
          "name": "_feeAmount",
          "type": "uint256"
        },
        {
          "internalType": "uint32",
          "name": "_flags",
          "type": "uint32"
        },
        {
          "internalType": "address",
          "name": "_erc20TradeAddress",
          "type": "address"
        },
        {
          "internalType": "uint256",
          "name": "_vestingStart",
          "type": "uint256"
        },
        {
          "internalType": "uint256",
          "name": "_vestingCliff",
          "type": "uint256"
        },
        {
          "internalType": "uint256",
          "name": "_vestingDuration",
          "type": "uint256"
        },
        {
          "internalType": "uint256[]",
          "name": "_vestingSchedule",
          "type": "uint256[]"
        }
      ],
      "stateMutability": "nonpayable",
      "type": "constructor"
    },
    {
      "anonymous": false,
      "inputs": [
        {
          "indexed": true,
          "internalType": "address[]",
          "name": "accounts",
          "type": "address[]"
        }
      ],
      "name": "AddedArrayToBlacklist",
      "type": "event"
    },
    {
      "anonymous": false,
      "inputs": [
        {
          "indexed": true,
          "internalType": "address[]",
          "name": "accounts",
          "type": "address[]"
        }
      ],
      "name": "AddedArrayToWhitelist",
      "type": "event"
    },
    {
      "anonymous": false,
      "inputs": [
        {
          "indexed": true,
          "internalType": "address",
          "name": "account",
          "type": "address"
        }
      ],
      "name": "AddedToBlacklist",
      "type": "event"
    },
    {
      "anonymous": false,
      "inputs": [
        {
          "indexed": true,
          "internalType": "address",
          "name": "account",
          "type": "address"
        }
      ],
      "name": "AddedToWhitelist",
      "type": "event"
    },
    {
      "anonymous": false,
      "inputs": [
        {
          "indexed": true,
          "internalType": "address",
          "name": "previousOwner",
          "type": "address"
        },
        {
          "indexed": true,
          "internalType": "address",
          "name": "newOwner",
          "type": "address"
        }
      ],
      "name": "OwnershipTransferred",
      "type": "event"
    },
    {
      "anonymous": false,
      "inputs": [
        {
          "indexed": false,
          "internalType": "address",
          "name": "account",
          "type": "address"
        }
      ],
      "name": "Paused",
      "type": "event"
    },
    {
      "anonymous": false,
      "inputs": [
        {
          "indexed": false,
          "internalType": "uint256",
          "name": "amount",
          "type": "uint256"
        },
        {
          "indexed": true,
          "internalType": "address",
          "name": "purchaser",
          "type": "address"
        },
        {
          "indexed": false,
          "internalType": "uint256",
          "name": "timestamp",
          "type": "uint256"
        }
      ],
      "name": "PurchaseEvent",
      "type": "event"
    },
    {
      "anonymous": false,
      "inputs": [
        {
          "indexed": true,
          "internalType": "address",
          "name": "account",
          "type": "address"
        }
      ],
      "name": "RemovedFromBlacklist",
      "type": "event"
    },
    {
      "anonymous": false,
      "inputs": [
        {
          "indexed": true,
          "internalType": "address",
          "name": "account",
          "type": "address"
        }
      ],
      "name": "RemovedFromWhitelist",
      "type": "event"
    },
    {
      "anonymous": false,
      "inputs": [
        {
          "indexed": false,
          "internalType": "bool",
          "name": "hasWhitelisting",
          "type": "bool"
        }
      ],
      "name": "SetHasWhitelisting",
      "type": "event"
    },
    {
      "anonymous": false,
      "inputs": [
        {
          "indexed": false,
          "internalType": "address",
          "name": "account",
          "type": "address"
        }
      ],
      "name": "Unpaused",
      "type": "event"
    },
    {
      "inputs": [],
      "name": "FEE_ADDRESS",
      "outputs": [
        {
          "internalType": "address payable",
          "name": "",
          "type": "address"
        }
      ],
      "stateMutability": "view",
      "type": "function"
    },
    {
      "inputs": [
        {
          "internalType": "address[]",
          "name": "_addresses",
          "type": "address[]"
        }
      ],
      "name": "addArrayToBlacklist",
      "outputs": [],
      "stateMutability": "nonpayable",
      "type": "function"
    },
    {
      "inputs": [
        {
          "internalType": "address[]",
          "name": "_addresses",
          "type": "address[]"
        }
      ],
      "name": "addArrayToWhitelist",
      "outputs": [],
      "stateMutability": "nonpayable",
      "type": "function"
    },
    {
      "inputs": [
        {
          "internalType": "address",
          "name": "_address",
          "type": "address"
        }
      ],
      "name": "addToBlacklist",
      "outputs": [],
      "stateMutability": "nonpayable",
      "type": "function"
    },
    {
      "inputs": [
        {
          "internalType": "address",
          "name": "_address",
          "type": "address"
        }
      ],
      "name": "addToWhitelist",
      "outputs": [],
      "stateMutability": "nonpayable",
      "type": "function"
    },
    {
      "inputs": [],
      "name": "availableTokens",
      "outputs": [
        {
          "internalType": "uint256",
          "name": "",
          "type": "uint256"
        }
      ],
      "stateMutability": "view",
      "type": "function"
    },
    {
      "inputs": [
        {
          "internalType": "uint256",
          "name": "",
          "type": "uint256"
        }
      ],
      "name": "buyers",
      "outputs": [
        {
          "internalType": "address",
          "name": "",
          "type": "address"
        }
      ],
      "stateMutability": "view",
      "type": "function"
    },
    {
      "inputs": [
        {
          "internalType": "uint256",
          "name": "_amount",
          "type": "uint256"
        }
      ],
      "name": "cost",
      "outputs": [
        {
          "internalType": "uint256",
          "name": "",
          "type": "uint256"
        }
      ],
      "stateMutability": "view",
      "type": "function"
    },
    {
      "inputs": [],
      "name": "decimals",
      "outputs": [
        {
          "internalType": "uint256",
          "name": "",
          "type": "uint256"
        }
      ],
      "stateMutability": "view",
      "type": "function"
    },
    {
      "inputs": [],
      "name": "endDate",
      "outputs": [
        {
          "internalType": "uint256",
          "name": "",
          "type": "uint256"
        }
      ],
      "stateMutability": "view",
      "type": "function"
    },
    {
      "inputs": [],
      "name": "erc20",
      "outputs": [
        {
          "internalType": "contract ERC20",
          "name": "",
          "type": "address"
        }
      ],
      "stateMutability": "view",
      "type": "function"
    },
    {
      "inputs": [],
      "name": "erc20POLS",
      "outputs": [
        {
          "internalType": "contract ERC20",
          "name": "",
          "type": "address"
        }
      ],
      "stateMutability": "view",
      "type": "function"
    },
    {
      "inputs": [],
      "name": "erc20TradeAddress",
      "outputs": [
        {
          "internalType": "contract ERC20",
          "name": "",
          "type": "address"
        }
      ],
      "stateMutability": "view",
      "type": "function"
    },
    {
      "inputs": [],
      "name": "erc20v2POLS",
      "outputs": [
        {
          "internalType": "contract ERC20",
          "name": "",
          "type": "address"
        }
      ],
      "stateMutability": "view",
      "type": "function"
    },
    {
      "inputs": [],
      "name": "feePercentage",
      "outputs": [
        {
          "internalType": "uint256",
          "name": "",
          "type": "uint256"
        }
      ],
      "stateMutability": "view",
      "type": "function"
    },
    {
      "inputs": [
        {
          "internalType": "uint256",
          "name": "_amount",
          "type": "uint256"
        }
      ],
      "name": "fund",
      "outputs": [],
      "stateMutability": "nonpayable",
      "type": "function"
    },
    {
      "inputs": [],
      "name": "getAPIVersion",
      "outputs": [
        {
          "internalType": "uint32",
          "name": "API_VERSION",
          "type": "uint32"
        }
      ],
      "stateMutability": "pure",
      "type": "function"
    },
    {
      "inputs": [],
      "name": "getBlacklistedAddresses",
      "outputs": [
        {
          "internalType": "address[]",
          "name": "",
          "type": "address[]"
        }
      ],
      "stateMutability": "view",
      "type": "function"
    },
    {
      "inputs": [],
      "name": "getBuyers",
      "outputs": [
        {
          "internalType": "address[]",
          "name": "",
          "type": "address[]"
        }
      ],
      "stateMutability": "view",
      "type": "function"
    },
    {
      "inputs": [],
      "name": "getCurrentSchedule",
      "outputs": [
        {
          "internalType": "uint256",
          "name": "",
          "type": "uint256"
        }
      ],
      "stateMutability": "view",
      "type": "function"
    },
    {
      "inputs": [
        {
          "internalType": "address",
          "name": "_address",
          "type": "address"
        }
      ],
      "name": "getMyPurchases",
      "outputs": [
        {
          "internalType": "uint256[]",
          "name": "",
          "type": "uint256[]"
        }
      ],
      "stateMutability": "view",
      "type": "function"
    },
    {
      "inputs": [],
      "name": "getMyPurchases_msgSender",
      "outputs": [
        {
          "internalType": "uint256[]",
          "name": "",
          "type": "uint256[]"
        }
      ],
      "stateMutability": "view",
      "type": "function"
    },
    {
      "inputs": [
        {
          "internalType": "uint256",
          "name": "purchase_id",
          "type": "uint256"
        }
      ],
      "name": "getPurchase",
      "outputs": [
        {
          "internalType": "uint256",
          "name": "amount",
          "type": "uint256"
        },
        {
          "internalType": "address",
          "name": "purchaser",
          "type": "address"
        },
        {
          "internalType": "uint256",
          "name": "costAmount",
          "type": "uint256"
        },
        {
          "internalType": "uint48",
          "name": "timestamp",
          "type": "uint48"
        },
        {
          "internalType": "bool",
          "name": "wasFinalized",
          "type": "bool"
        },
        {
          "internalType": "bool",
          "name": "reverted",
          "type": "bool"
        },
        {
          "internalType": "uint256",
          "name": "amountRedeemed",
          "type": "uint256"
        }
      ],
      "stateMutability": "view",
      "type": "function"
    },
    {
      "inputs": [],
      "name": "getPurchasesCount",
      "outputs": [
        {
          "internalType": "uint256",
          "name": "count",
          "type": "uint256"
        }
      ],
      "stateMutability": "view",
      "type": "function"
    },
    {
      "inputs": [
        {
          "internalType": "uint256",
          "name": "purchase_id",
          "type": "uint256"
        }
      ],
      "name": "getRedeemStatus",
      "outputs": [
        {
          "internalType": "uint256",
          "name": "amount",
          "type": "uint256"
        },
        {
          "internalType": "uint256",
          "name": "amountRedeemed",
          "type": "uint256"
        },
        {
          "internalType": "uint256",
          "name": "vestAmount",
          "type": "uint256"
        },
        {
          "internalType": "string",
          "name": "message",
          "type": "string"
        }
      ],
      "stateMutability": "view",
      "type": "function"
    },
    {
      "inputs": [
        {
          "internalType": "uint256",
          "name": "purchase_id",
          "type": "uint256"
        }
      ],
      "name": "getRedeemableTokensAmount",
      "outputs": [
        {
          "internalType": "uint256",
          "name": "amount",
          "type": "uint256"
        },
        {
          "internalType": "string",
          "name": "message",
          "type": "string"
        }
      ],
      "stateMutability": "view",
      "type": "function"
    },
    {
      "inputs": [],
      "name": "getWhitelistedAddresses",
      "outputs": [
        {
          "internalType": "address[]",
          "name": "",
          "type": "address[]"
        }
      ],
      "stateMutability": "view",
      "type": "function"
    },
    {
      "inputs": [],
      "name": "hasFinalized",
      "outputs": [
        {
          "internalType": "bool",
          "name": "",
          "type": "bool"
        }
      ],
      "stateMutability": "view",
      "type": "function"
    },
    {
      "inputs": [],
      "name": "hasMinimumAmount",
      "outputs": [
        {
          "internalType": "bool",
          "name": "",
          "type": "bool"
        }
      ],
      "stateMutability": "view",
      "type": "function"
    },
    {
      "inputs": [],
      "name": "hasMinimumRaise",
      "outputs": [
        {
          "internalType": "bool",
          "name": "",
          "type": "bool"
        }
      ],
      "stateMutability": "view",
      "type": "function"
    },
    {
      "inputs": [],
      "name": "hasStarted",
      "outputs": [
        {
          "internalType": "bool",
          "name": "",
          "type": "bool"
        }
      ],
      "stateMutability": "view",
      "type": "function"
    },
    {
      "inputs": [],
      "name": "hasWhitelisting",
      "outputs": [
        {
          "internalType": "bool",
          "name": "",
          "type": "bool"
        }
      ],
      "stateMutability": "view",
      "type": "function"
    },
    {
      "inputs": [],
      "name": "individualMaximumAmount",
      "outputs": [
        {
          "internalType": "uint256",
          "name": "",
          "type": "uint256"
        }
      ],
      "stateMutability": "view",
      "type": "function"
    },
    {
      "inputs": [],
      "name": "individualMinimumAmount",
      "outputs": [
        {
          "internalType": "uint256",
          "name": "",
          "type": "uint256"
        }
      ],
      "stateMutability": "view",
      "type": "function"
    },
    {
      "inputs": [
        {
          "internalType": "address",
          "name": "_account",
          "type": "address"
        }
      ],
      "name": "isAddressPOLSWhitelisted",
      "outputs": [
        {
          "internalType": "bool",
          "name": "",
          "type": "bool"
        }
      ],
      "stateMutability": "view",
      "type": "function"
    },
    {
      "inputs": [
        {
          "internalType": "address",
          "name": "_address",
          "type": "address"
        }
      ],
      "name": "isBlacklisted",
      "outputs": [
        {
          "internalType": "bool",
          "name": "",
          "type": "bool"
        }
      ],
      "stateMutability": "view",
      "type": "function"
    },
    {
      "inputs": [
        {
          "internalType": "uint256",
          "name": "purchase_id",
          "type": "uint256"
        }
      ],
      "name": "isBuyer",
      "outputs": [
        {
          "internalType": "bool",
          "name": "",
          "type": "bool"
        }
      ],
      "stateMutability": "view",
      "type": "function"
    },
    {
      "inputs": [],
      "name": "isETHTrade",
      "outputs": [
        {
          "internalType": "bool",
          "name": "",
          "type": "bool"
        }
      ],
      "stateMutability": "view",
      "type": "function"
    },
    {
      "inputs": [],
      "name": "isOpen",
      "outputs": [
        {
          "internalType": "bool",
          "name": "",
          "type": "bool"
        }
      ],
      "stateMutability": "view",
      "type": "function"
    },
    {
      "inputs": [],
      "name": "isPOLSWhitelisted",
      "outputs": [
        {
          "internalType": "bool",
          "name": "",
          "type": "bool"
        }
      ],
      "stateMutability": "view",
      "type": "function"
    },
    {
      "inputs": [],
      "name": "isPreStart",
      "outputs": [
        {
          "internalType": "bool",
          "name": "",
          "type": "bool"
        }
      ],
      "stateMutability": "view",
      "type": "function"
    },
    {
      "inputs": [],
      "name": "isSaleFunded",
      "outputs": [
        {
          "internalType": "bool",
          "name": "",
          "type": "bool"
        }
      ],
      "stateMutability": "view",
      "type": "function"
    },
    {
      "inputs": [
        {
          "internalType": "address",
          "name": "_address",
          "type": "address"
        },
        {
          "internalType": "bytes",
          "name": "signature",
          "type": "bytes"
        }
      ],
      "name": "isSignerForAddress",
      "outputs": [
        {
          "internalType": "bool",
          "name": "",
          "type": "bool"
        }
      ],
      "stateMutability": "view",
      "type": "function"
    },
    {
      "inputs": [
        {
          "internalType": "bytes32",
          "name": "hash",
          "type": "bytes32"
        },
        {
          "internalType": "bytes",
          "name": "signature",
          "type": "bytes"
        }
      ],
      "name": "isSignerFromBytes32",
      "outputs": [
        {
          "internalType": "bool",
          "name": "",
          "type": "bool"
        }
      ],
      "stateMutability": "view",
      "type": "function"
    },
    {
      "inputs": [],
      "name": "isTokenSwapAtomic",
      "outputs": [
        {
          "internalType": "bool",
          "name": "",
          "type": "bool"
        }
      ],
      "stateMutability": "view",
      "type": "function"
    },
    {
      "inputs": [
        {
          "internalType": "address",
          "name": "_address",
          "type": "address"
        }
      ],
      "name": "isWhitelisted",
      "outputs": [
        {
          "internalType": "bool",
          "name": "",
          "type": "bool"
        }
      ],
      "stateMutability": "view",
      "type": "function"
    },
    {
      "inputs": [
        {
          "internalType": "address",
          "name": "_address",
          "type": "address"
        },
        {
          "internalType": "bytes",
          "name": "signature",
          "type": "bytes"
        }
      ],
      "name": "isWhitelistedWithSignature",
      "outputs": [
        {
          "internalType": "bool",
          "name": "",
          "type": "bool"
        }
      ],
      "stateMutability": "view",
      "type": "function"
    },
    {
      "inputs": [
        {
          "internalType": "address",
          "name": "_address",
          "type": "address"
        },
        {
          "internalType": "bytes",
          "name": "signature",
          "type": "bytes"
        }
      ],
      "name": "isWhitelistedWithSignature_test",
      "outputs": [
        {
          "internalType": "string",
          "name": "",
          "type": "string"
        }
      ],
      "stateMutability": "view",
      "type": "function"
    },
    {
      "inputs": [],
      "name": "minimumRaise",
      "outputs": [
        {
          "internalType": "uint256",
          "name": "",
          "type": "uint256"
        }
      ],
      "stateMutability": "view",
      "type": "function"
    },
    {
      "inputs": [],
      "name": "minimumRaiseAchieved",
      "outputs": [
        {
          "internalType": "bool",
          "name": "",
          "type": "bool"
        }
      ],
      "stateMutability": "view",
      "type": "function"
    },
    {
      "inputs": [],
      "name": "minimumRaiseNotAchieved",
      "outputs": [
        {
          "internalType": "bool",
          "name": "",
          "type": "bool"
        }
      ],
      "stateMutability": "view",
      "type": "function"
    },
    {
      "inputs": [
        {
          "internalType": "address",
          "name": "",
          "type": "address"
        },
        {
          "internalType": "uint256",
          "name": "",
          "type": "uint256"
        }
      ],
      "name": "myPurchases",
      "outputs": [
        {
          "internalType": "uint256",
          "name": "",
          "type": "uint256"
        }
      ],
      "stateMutability": "view",
      "type": "function"
    },
    {
      "inputs": [],
      "name": "owner",
      "outputs": [
        {
          "internalType": "address",
          "name": "",
          "type": "address"
        }
      ],
      "stateMutability": "view",
      "type": "function"
    },
    {
      "inputs": [],
      "name": "paused",
      "outputs": [
        {
          "internalType": "bool",
          "name": "",
          "type": "bool"
        }
      ],
      "stateMutability": "view",
      "type": "function"
    },
    {
      "inputs": [
        {
          "internalType": "uint256",
          "name": "purchase_id",
          "type": "uint256"
        }
      ],
      "name": "purchaseExists",
      "outputs": [
        {
          "internalType": "bool",
          "name": "",
          "type": "bool"
        }
      ],
      "stateMutability": "view",
      "type": "function"
    },
    {
      "inputs": [
        {
          "internalType": "uint256",
          "name": "",
          "type": "uint256"
        }
      ],
      "name": "purchases",
      "outputs": [
        {
          "internalType": "address",
          "name": "purchaser",
          "type": "address"
        },
        {
          "internalType": "uint48",
          "name": "timestamp",
          "type": "uint48"
        },
        {
          "internalType": "bool",
          "name": "wasFinalized",
          "type": "bool"
        },
        {
          "internalType": "bool",
          "name": "reverted",
          "type": "bool"
        },
        {
          "internalType": "uint256",
          "name": "amount",
          "type": "uint256"
        },
        {
          "internalType": "uint256",
          "name": "costAmount",
          "type": "uint256"
        },
        {
          "internalType": "uint256",
          "name": "amountRedeemed",
          "type": "uint256"
        }
      ],
      "stateMutability": "view",
      "type": "function"
    },
    {
      "inputs": [
        {
          "internalType": "bytes32",
          "name": "hash",
          "type": "bytes32"
        },
        {
          "internalType": "bytes",
          "name": "signature",
          "type": "bytes"
        }
      ],
      "name": "recoverSignerAddressFromBytes32",
      "outputs": [
        {
          "internalType": "address",
          "name": "",
          "type": "address"
        }
      ],
      "stateMutability": "pure",
      "type": "function"
    },
    {
      "inputs": [
        {
          "internalType": "uint256",
          "name": "purchase_id",
          "type": "uint256"
        }
      ],
      "name": "redeemGivenMinimumGoalNotAchieved",
      "outputs": [],
      "stateMutability": "nonpayable",
      "type": "function"
    },
    {
      "inputs": [
        {
          "internalType": "uint256",
          "name": "purchase_id",
          "type": "uint256"
        }
      ],
      "name": "redeemTokens",
      "outputs": [],
      "stateMutability": "nonpayable",
      "type": "function"
    },
    {
      "inputs": [
        {
          "internalType": "address",
          "name": "_address",
          "type": "address"
        }
      ],
      "name": "removeFromBlacklist",
      "outputs": [],
      "stateMutability": "nonpayable",
      "type": "function"
    },
    {
      "inputs": [
        {
          "internalType": "address",
          "name": "_address",
          "type": "address"
        }
      ],
      "name": "removeFromWhitelist",
      "outputs": [],
      "stateMutability": "nonpayable",
      "type": "function"
    },
    {
      "inputs": [
        {
          "internalType": "address",
          "name": "_tokenAddress",
          "type": "address"
        },
        {
          "internalType": "address",
          "name": "_to",
          "type": "address"
        }
      ],
      "name": "removeOtherERC20Tokens",
      "outputs": [],
      "stateMutability": "nonpayable",
      "type": "function"
    },
    {
      "inputs": [],
      "name": "renounceOwnership",
      "outputs": [],
      "stateMutability": "nonpayable",
      "type": "function"
    },
    {
      "inputs": [],
      "name": "safePull",
      "outputs": [],
      "stateMutability": "payable",
      "type": "function"
    },
    {
      "inputs": [
        {
          "internalType": "uint256",
          "name": "_endDate",
          "type": "uint256"
        }
      ],
      "name": "setEndDate",
      "outputs": [],
      "stateMutability": "nonpayable",
      "type": "function"
    },
    {
      "inputs": [
        {
          "internalType": "bool",
          "name": "_hasWhitelisting",
          "type": "bool"
        }
      ],
      "name": "setHasWhitelisting",
      "outputs": [],
      "stateMutability": "nonpayable",
      "type": "function"
    },
    {
      "inputs": [
        {
          "internalType": "uint256",
          "name": "_individualMaximumAmount",
          "type": "uint256"
        }
      ],
      "name": "setIndividualMaximumAmount",
      "outputs": [],
      "stateMutability": "nonpayable",
      "type": "function"
    },
    {
      "inputs": [
        {
          "internalType": "address",
          "name": "_signerPublicAddress",
          "type": "address"
        }
      ],
      "name": "setSignerPublicAddress",
      "outputs": [],
      "stateMutability": "nonpayable",
      "type": "function"
    },
    {
      "inputs": [
        {
          "internalType": "uint256",
          "name": "_vestingStart",
          "type": "uint256"
        },
        {
          "internalType": "uint256",
          "name": "_vestingCliff",
          "type": "uint256"
        },
        {
          "internalType": "uint256",
          "name": "_vestingDuration",
          "type": "uint256"
        },
        {
          "internalType": "uint256[]",
          "name": "_vestingSchedule",
          "type": "uint256[]"
        }
      ],
      "name": "setVesting",
      "outputs": [],
      "stateMutability": "nonpayable",
      "type": "function"
    },
    {
      "inputs": [],
      "name": "signerPublicAddress",
      "outputs": [
        {
          "internalType": "address",
          "name": "",
          "type": "address"
        }
      ],
      "stateMutability": "view",
      "type": "function"
    },
    {
      "inputs": [],
      "name": "startDate",
      "outputs": [
        {
          "internalType": "uint256",
          "name": "",
          "type": "uint256"
        }
      ],
      "stateMutability": "view",
      "type": "function"
    },
    {
      "inputs": [
        {
          "internalType": "uint256",
          "name": "_amount",
          "type": "uint256"
        },
        {
          "internalType": "bytes",
          "name": "signature",
          "type": "bytes"
        }
      ],
      "name": "swap",
      "outputs": [],
      "stateMutability": "payable",
      "type": "function"
    },
    {
      "inputs": [],
      "name": "tokensAllocated",
      "outputs": [
        {
          "internalType": "uint256",
          "name": "",
          "type": "uint256"
        }
      ],
      "stateMutability": "view",
      "type": "function"
    },
    {
      "inputs": [],
      "name": "tokensForSale",
      "outputs": [
        {
          "internalType": "uint256",
          "name": "",
          "type": "uint256"
        }
      ],
      "stateMutability": "view",
      "type": "function"
    },
    {
      "inputs": [],
      "name": "tokensLeft",
      "outputs": [
        {
          "internalType": "uint256",
          "name": "",
          "type": "uint256"
        }
      ],
      "stateMutability": "view",
      "type": "function"
    },
    {
      "inputs": [],
      "name": "totalRaiseCost",
      "outputs": [
        {
          "internalType": "uint256",
          "name": "",
          "type": "uint256"
        }
      ],
      "stateMutability": "view",
      "type": "function"
    },
    {
      "inputs": [],
      "name": "tradeValue",
      "outputs": [
        {
          "internalType": "uint256",
          "name": "",
          "type": "uint256"
        }
      ],
      "stateMutability": "view",
      "type": "function"
    },
    {
      "inputs": [
        {
          "internalType": "address",
          "name": "newOwner",
          "type": "address"
        }
      ],
      "name": "transferOwnership",
      "outputs": [],
      "stateMutability": "nonpayable",
      "type": "function"
    },
    {
      "inputs": [],
      "name": "unsoldTokensRedeemed",
      "outputs": [
        {
          "internalType": "bool",
          "name": "",
          "type": "bool"
        }
      ],
      "stateMutability": "view",
      "type": "function"
    },
    {
      "inputs": [],
      "name": "vestingCliff",
      "outputs": [
        {
          "internalType": "uint256",
          "name": "",
          "type": "uint256"
        }
      ],
      "stateMutability": "view",
      "type": "function"
    },
    {
      "inputs": [],
      "name": "vestingDuration",
      "outputs": [
        {
          "internalType": "uint256",
          "name": "",
          "type": "uint256"
        }
      ],
      "stateMutability": "view",
      "type": "function"
    },
    {
      "inputs": [
        {
          "internalType": "uint256",
          "name": "",
          "type": "uint256"
        }
      ],
      "name": "vestingSchedule",
      "outputs": [
        {
          "internalType": "uint256",
          "name": "",
          "type": "uint256"
        }
      ],
      "stateMutability": "view",
      "type": "function"
    },
    {
      "inputs": [],
      "name": "vestingStart",
      "outputs": [
        {
          "internalType": "uint256",
          "name": "",
          "type": "uint256"
        }
      ],
      "stateMutability": "view",
      "type": "function"
    },
    {
      "inputs": [],
      "name": "withdrawFunds",
      "outputs": [],
      "stateMutability": "nonpayable",
      "type": "function"
    },
    {
      "inputs": [],
      "name": "withdrawUnsoldTokens",
      "outputs": [],
      "stateMutability": "nonpayable",
      "type": "function"
    }
  ],
  "bytecode": "0x60806040526001805460ff60a01b19908116825564e8d4a51000600655600780547383e6f1e41cdd28eaceb20cb649155049fac3d5aa6001600160a01b0319918216179091556008805473ffa98a091331df4600f87c9164cd27e8a5cd24059216919091179055600a805490911690556000600b819055600c805460ff19908116909155601082905560118290556012829055601382905560149190915560158054610100600160a81b03191674aeb39b67f27b641ef9f95fb74f1a46b1ee4efc83001790556016829055601780549091169055601f805463ffffffff191690911763ffffffff60201b19166402000000001763ffffffff60401b1916680400000000000000001790553480156200011657600080fd5b50604051620061d3380380620061d383398181016040526102008110156200013d57600080fd5b8101908080519060200190929190805190602001909291908051906020019092919080519060200190929190805190602001909291908051906020019092919080519060200190929190805190602001909291908051906020019092919080519060200190929190805190602001909291908051906020019092919080519060200190929190805190602001909291908051906020019092919080516040519392919084640100000000821115620001f457600080fd5b9083019060208201858111156200020a57600080fd5b82518660208202830111640100000000821117156200022857600080fd5b82525081516020918201928201910280838360005b83811015620002575781810151838201526020016200023d565b50505050919091016040525050601f546000805460ff19168155640100000000909104891663ffffffff161515925090506200029262000700565b60008054610100600160a81b0319166101006001600160a01b038416908102919091178255604051929350917f8be0079c531659141344cd1fd0a4f28419497f9722a3daafe3b4186f6b6457e0908290a35060018054911515600160a01b0260ff60a01b19909216919091179055428d11620003405760405162461bcd60e51b815260040180806020018281038252602c815260200180620060fb602c913960400191505060405180910390fd5b8b8d1062000395576040805162461bcd60e51b815260206004820152601f60248201527f456e64204461746520686967686572207468616e205374617274204461746500604482015290519081900360640190fd5b60008e11620003df576040805162461bcd60e51b81526020600482015260116024820152706e6f20746f6b656e20666f722073616c6560781b604482015290519081900360640190fd5b8a8e1015620004205760405162461bcd60e51b81526004018080602001828103825260278152602001806200618c6027913960400191505060405180910390fd5b8d88111562000476576040805162461bcd60e51b815260206004820152601c60248201527f6d696e696d756d5261697365203e20746f6b656e73466f7253616c6500000000604482015290519081900360640190fd5b601654871015620004ce576040805162461bcd60e51b815260206004820152601d60248201527f4665652050657263656e746167652068617320746f206265203e3d2031000000604482015290519081900360640190fd5b606387111562000525576040805162461bcd60e51b815260206004820152601e60248201527f4665652050657263656e746167652068617320746f206265203c203130300000604482015290519081900360640190fd5b60088663ffffffff161062000581576040805162461bcd60e51b815260206004820152601560248201527f756e737570706f7274656420666c616773207365740000000000000000000000604482015290519081900360640190fd5b60108b9055620005918a62000704565b600e8d9055620005a18c620007b4565b60148e9055600d8f9055601f546015805460ff191691881663ffffffff161515919091179081905560ff16620005d75760128890555b8f600960006101000a8154816001600160a01b0302191690836001600160a01b0316021790555060006001600160a01b0316856001600160a01b0316146200063557600a80546001600160a01b0319166001600160a01b0387161790555b601f546017805460ff191668010000000000000000909204881663ffffffff1615159190911790556009546040805163313ce56760e01b815290516001600160a01b039092169163313ce56791600480820192602092909190829003018186803b158015620006a357600080fd5b505afa158015620006b8573d6000803e3d6000fd5b505050506040513d6020811015620006cf57600080fd5b505160ff16600b556016879055620006ea84848484620008cd565b5050505050505050505050505050505062000b3e565b3390565b6200070e62000700565b6001600160a01b03166200072162000ac8565b6001600160a01b0316146200076c576040805162461bcd60e51b81526020600482018190526024820152600080516020620061b3833981519152604482015290519081900360640190fd5b601054811015620007af5760405162461bcd60e51b81526004018080602001828103825260318152602001806200615b6031913960400191505060405180910390fd5b601155565b620007be62000700565b6001600160a01b0316620007d162000ac8565b6001600160a01b0316146200081c576040805162461bcd60e51b81526020600482018190526024820152600080516020620061b3833981519152604482015290519081900360640190fd5b80421062000871576040805162461bcd60e51b815260206004820181905260248201527f656e6420646174652068617320746f20626520696e2074686520667574757265604482015290519081900360640190fd5b80600e5410620008c8576040805162461bcd60e51b815260206004820152601a60248201527f656e642064617465206265666f72652073746172742064617465000000000000604482015290519081900360640190fd5b600f55565b620008d762000700565b6001600160a01b0316620008ea62000ac8565b6001600160a01b03161462000935576040805162461bcd60e51b81526020600482018190526024820152600080516020620061b3833981519152604482015290519081900360640190fd5b60188490558183111562000990576040805162461bcd60e51b815260206004820152601e60248201527f76657374696e67436c696666203e2076657374696e674475726174696f6e0000604482015290519081900360640190fd5b6019839055601a829055805160011162000ac2576000601a5411620009e75760405162461bcd60e51b8152600401808060200182810382526034815260200180620061276034913960400191505060405180910390fd5b601b81600081518110620009f757fe5b602090810291909101810151825460018181018555600094855292909320909201919091555b815181101562000a8e57601b62000a7283838151811062000a3a57fe5b6020026020010151601b600185038154811062000a5357fe5b906000526020600020015462000adc60201b62004c2a1790919060201c565b8154600181810184556000938452602090932001550162000a1d565b50600654606402601b6001601b80549050038154811062000aab57fe5b9060005260206000200154111562000ac257600080fd5b50505050565b60005461010090046001600160a01b031690565b60008282018381101562000b37576040805162461bcd60e51b815260206004820152601b60248201527f536166654d6174683a206164646974696f6e206f766572666c6f770000000000604482015290519081900360640190fd5b9392505050565b6155ad8062000b4e6000396000f3fe6080604052600436106104aa5760003560e01c806375968dbd1161026b578063bd0625ab1161014f578063e4a80252116100c1578063f2fde38b11610085578063f2fde38b146115ff578063f3640e7414611632578063f64bfaba14611647578063fce9d11b1461165c578063fe575a8714611671578063fecf415a146116a4576104aa565b8063e4a80252146114de578063e9ce9f1114611596578063eb1edd61146115ab578063efbb34d5146115c0578063f2aa8218146115d5576104aa565b8063d0a4a89511610113578063d0a4a8951461138b578063dbb57ac8146113a0578063dc91b07214611457578063e120b54b14611481578063e4101de514611496578063e43252d7146114ab576104aa565b8063bd0625ab14611259578063c24a0f8b14611304578063c3ca324f14611319578063c8bdbfb61461134c578063ca1d209d14611361576104aa565b8063919bd930116101e8578063a6e158f8116101ac578063a6e158f81461118f578063b0b12ac3146111b9578063b31f8f93146111e7578063b367940e146111fc578063b869178714611211578063ba40a96a14611244576104aa565b8063919bd9301461107857806394838414146110a25780639d90a46e146110b7578063a001ecdd14611165578063a1c09bf11461117a576104aa565b80638ab1d6811161022f5780638ab1d68114610fb65780638da5cb5b14610fe95780638e75b13114610ffe5780639097548d14611013578063917c854d1461103d576104aa565b806375968dbd14610e30578063785e9e8614610e61578063799bb23214610e765780638392fe3114610f2e5780638a1a5f3f14610fa1576104aa565b80633784f000116103925780635c975abb1161030f5780636d028027116102d35780636d02802714610d9b5780636eaaabd514610db057806370a898bc14610ddc578063715018a614610df157806374fa05fb14610e06578063755e3e2814610e1b576104aa565b80635c975abb14610bda5780636295a2f414610bef578063658f2dfe14610c0457806368673e7d14610cc557806369bb4dc214610d86576104aa565b806344337ea11161035657806344337ea114610b1157806344691f7e14610b4457806347535d7b14610b59578063537df3b614610b6e5780635ac699bb14610ba1576104aa565b80633784f000146109915780633af32abf146109bb5780633b6577c8146109ee5780633bbab17914610a975780634089aa9a14610afc576104aa565b806321d3002a1161042b5780632b128034116103ef5780632b1280341461079f5780632daa8c84146108d55780632e154107146108dd5780632ebb5c1e146108f2578063313ce567146109075780633742a9f71461091c576104aa565b806321d3002a1461070357806324600fc314610718578063254800d41461072d5780632593ea1714610742578063273e96e91461076c576104aa565b806312aef8c31161047257806312aef8c3146106855780631514617e1461069a57806315b57866146106af578063161a7b2a146106c45780631de18af7146106d9576104aa565b8063044c0cc5146104af57806307662345146104d857806308abd7ff146104ed5780630b97bc861461059d5780631164d20c146105c4575b600080fd5b3480156104bb57600080fd5b506104c46116ce565b604080519115158252519081900360200190f35b3480156104e457600080fd5b506104c46116de565b3480156104f957600080fd5b5061059b6004803603602081101561051057600080fd5b810190602081018135600160201b81111561052a57600080fd5b82018360208201111561053c57600080fd5b803590602001918460208302840111600160201b8311171561055d57600080fd5b9190808060200260200160405190810160405280939291908181526020018383602002808284376000920191909152509295506116ee945050505050565b005b3480156105a957600080fd5b506105b26117f9565b60408051918252519081900360200190f35b3480156105d057600080fd5b506104c4600480360360408110156105e757600080fd5b6001600160a01b038235169190810190604081016020820135600160201b81111561061157600080fd5b82018360208201111561062357600080fd5b803590602001918460018302840111600160201b8311171561064457600080fd5b91908080601f0160208091040260200160405190810160405280939291908181526020018383808284376000920191909152509295506117ff945050505050565b34801561069157600080fd5b506105b2611830565b3480156106a657600080fd5b506105b2611836565b3480156106bb57600080fd5b506104c461183c565b3480156106d057600080fd5b506104c4611844565b3480156106e557600080fd5b5061059b600480360360208110156106fc57600080fd5b5035611854565b34801561070f57600080fd5b506104c4611c36565b34801561072457600080fd5b5061059b611c3f565b34801561073957600080fd5b506105b26120d7565b34801561074e57600080fd5b506104c46004803603602081101561076557600080fd5b50356120dd565b34801561077857600080fd5b506104c46004803603602081101561078f57600080fd5b50356001600160a01b03166120e8565b3480156107ab57600080fd5b50610860600480360360408110156107c257600080fd5b6001600160a01b038235169190810190604081016020820135600160201b8111156107ec57600080fd5b8201836020820111156107fe57600080fd5b803590602001918460018302840111600160201b8311171561081f57600080fd5b91908080601f016020809104026020016040519081016040528093929190818152602001838380828437600092019190915250929550612218945050505050565b6040805160208082528351818301528351919283929083019185019080838360005b8381101561089a578181015183820152602001610882565b50505050905090810190601f1680156108c75780820380516001836020036101000a031916815260200191505b509250505060405180910390f35b61059b612277565b3480156108e957600080fd5b506105b26124fa565b3480156108fe57600080fd5b506104c4612500565b34801561091357600080fd5b506105b2612508565b34801561092857600080fd5b506109466004803603602081101561093f57600080fd5b503561250e565b604080519788526001600160a01b0390961660208801528686019490945265ffffffffffff909216606086015215156080850152151560a084015260c0830152519081900360e00190f35b34801561099d57600080fd5b5061059b600480360360208110156109b457600080fd5b5035612625565b3480156109c757600080fd5b506104c4600480360360208110156109de57600080fd5b50356001600160a01b0316612736565b3480156109fa57600080fd5b50610a1860048036036020811015610a1157600080fd5b5035612743565b6040518083815260200180602001828103825283818151815260200191508051906020019080838360005b83811015610a5b578181015183820152602001610a43565b50505050905090810190601f168015610a885780820380516001836020036101000a031916815260200191505b50935050505060405180910390f35b348015610aa357600080fd5b50610aac612b1d565b60408051602080825283518183015283519192839290830191858101910280838360005b83811015610ae8578181015183820152602001610ad0565b505050509050019250505060405180910390f35b348015610b0857600080fd5b506104c4612b2e565b348015610b1d57600080fd5b5061059b60048036036020811015610b3457600080fd5b50356001600160a01b0316612b36565b348015610b5057600080fd5b506104c4612bdb565b348015610b6557600080fd5b506104c4612be4565b348015610b7a57600080fd5b5061059b60048036036020811015610b9157600080fd5b50356001600160a01b0316612c03565b348015610bad57600080fd5b506105b260048036036040811015610bc457600080fd5b506001600160a01b038135169060200135612ca8565b348015610be657600080fd5b506104c4612cd9565b348015610bfb57600080fd5b506105b2612ce2565b348015610c1057600080fd5b5061059b60048036036080811015610c2757600080fd5b81359160208101359160408201359190810190608081016060820135600160201b811115610c5457600080fd5b820183602082011115610c6657600080fd5b803590602001918460208302840111600160201b83111715610c8757600080fd5b919080806020026020016040519081016040528093929190818152602001838360200280828437600092019190915250929550612ce8945050505050565b348015610cd157600080fd5b506104c460048036036040811015610ce857600080fd5b6001600160a01b038235169190810190604081016020820135600160201b811115610d1257600080fd5b820183602082011115610d2457600080fd5b803590602001918460018302840111600160201b83111715610d4557600080fd5b91908080601f016020809104026020016040519081016040528093929190818152602001838380828437600092019190915250929550612ecb945050505050565b348015610d9257600080fd5b506105b2612f03565b348015610da757600080fd5b50610aac612f7f565b348015610dbc57600080fd5b5061059b60048036036020811015610dd357600080fd5b50351515612f8b565b348015610de857600080fd5b506104c4613040565b348015610dfd57600080fd5b5061059b613048565b348015610e1257600080fd5b506104c46130f9565b348015610e2757600080fd5b506105b2613153565b348015610e3c57600080fd5b50610e45613159565b604080516001600160a01b039092168252519081900360200190f35b348015610e6d57600080fd5b50610e45613168565b348015610e8257600080fd5b50610e4560048036036040811015610e9957600080fd5b81359190810190604081016020820135600160201b811115610eba57600080fd5b820183602082011115610ecc57600080fd5b803590602001918460018302840111600160201b83111715610eed57600080fd5b91908080601f016020809104026020016040519081016040528093929190818152602001838380828437600092019190915250929550613177945050505050565b348015610f3a57600080fd5b50610f5860048036036020811015610f5157600080fd5b50356131e2565b604080516001600160a01b03909816885265ffffffffffff9096166020880152931515868601529115156060860152608085015260a084015260c0830152519081900360e00190f35b348015610fad57600080fd5b506105b2613249565b348015610fc257600080fd5b5061059b60048036036020811015610fd957600080fd5b50356001600160a01b0316613266565b348015610ff557600080fd5b50610e4561330b565b34801561100a57600080fd5b506105b261331f565b34801561101f57600080fd5b506105b26004803603602081101561103657600080fd5b5035613325565b34801561104957600080fd5b5061059b6004803603604081101561106057600080fd5b506001600160a01b0381358116916020013516613346565b34801561108457600080fd5b506105b26004803603602081101561109b57600080fd5b50356135d8565b3480156110ae57600080fd5b506104c46135f9565b3480156110c357600080fd5b5061059b600480360360208110156110da57600080fd5b810190602081018135600160201b8111156110f457600080fd5b82018360208201111561110657600080fd5b803590602001918460208302840111600160201b8311171561112757600080fd5b919080806020026020016040519081016040528093929190818152602001838360200280828437600092019190915250929550613602945050505050565b34801561117157600080fd5b506105b261370d565b34801561118657600080fd5b506105b2613713565b34801561119b57600080fd5b5061059b600480360360208110156111b257600080fd5b5035613719565b3480156111c557600080fd5b506111ce613ad3565b6040805163ffffffff9092168252519081900360200190f35b3480156111f357600080fd5b506105b2613ada565b34801561120857600080fd5b506104c4613ae4565b34801561121d57600080fd5b5061059b6004803603602081101561123457600080fd5b50356001600160a01b0316613b46565b34801561125057600080fd5b50610e45613bca565b61059b6004803603604081101561126f57600080fd5b81359190810190604081016020820135600160201b81111561129057600080fd5b8201836020820111156112a257600080fd5b803590602001918460018302840111600160201b831117156112c357600080fd5b91908080601f016020809104026020016040519081016040528093929190818152602001838380828437600092019190915250929550613bd9945050505050565b34801561131057600080fd5b506105b26143d4565b34801561132557600080fd5b50610aac6004803603602081101561133c57600080fd5b50356001600160a01b03166143da565b34801561135857600080fd5b5061059b614446565b34801561136d57600080fd5b5061059b6004803603602081101561138457600080fd5b5035614627565b34801561139757600080fd5b506104c46147d0565b3480156113ac57600080fd5b506113ca600480360360208110156113c357600080fd5b50356147d9565b6040518085815260200184815260200183815260200180602001828103825283818151815260200191508051906020019080838360005b83811015611419578181015183820152602001611401565b50505050905090810190601f1680156114465780820380516001836020036101000a031916815260200191505b509550505050505060405180910390f35b34801561146357600080fd5b5061059b6004803603602081101561147a57600080fd5b5035614886565b34801561148d57600080fd5b50610e4561492e565b3480156114a257600080fd5b506105b261493d565b3480156114b757600080fd5b5061059b600480360360208110156114ce57600080fd5b50356001600160a01b0316614943565b3480156114ea57600080fd5b506104c46004803603604081101561150157600080fd5b81359190810190604081016020820135600160201b81111561152257600080fd5b82018360208201111561153457600080fd5b803590602001918460018302840111600160201b8311171561155557600080fd5b91908080601f0160208091040260200160405190810160405280939291908181526020018383808284376000920191909152509295506149e8945050505050565b3480156115a257600080fd5b50610e45614a12565b3480156115b757600080fd5b50610e45614a21565b3480156115cc57600080fd5b506105b2614a35565b3480156115e157600080fd5b50610e45600480360360208110156115f857600080fd5b5035614a42565b34801561160b57600080fd5b5061059b6004803603602081101561162257600080fd5b50356001600160a01b0316614a6c565b34801561163e57600080fd5b506105b2614b79565b34801561165357600080fd5b50610aac614b7f565b34801561166857600080fd5b50610aac614be1565b34801561167d57600080fd5b506104c46004803603602081101561169457600080fd5b50356001600160a01b0316614bec565b3480156116b057600080fd5b506104c4600480360360208110156116c757600080fd5b5035614bf9565b600a546001600160a01b03161590565b600154600160a01b900460ff1681565b6116f6614c84565b6001600160a01b031661170761330b565b6001600160a01b031614611750576040805162461bcd60e51b815260206004820181905260248201526000805160206154d0833981519152604482015290519081900360640190fd5b60005b815181101561178c5761178382828151811061176b57fe5b60200260200101516002614c8890919063ffffffff16565b50600101611753565b508060405180828051906020019060200280838360005b838110156117bb5781810151838201526020016117a3565b505060405194909201849003842095507fd51731f7a6946f58f4c7c8e0e84539bfe8fb05dd5e10eb6317c0317f610968ed945060009392505050a250565b600e5481565b6001546000906001600160a01b03808516911661181c8285613177565b6001600160a01b0316149150505b92915050565b60145481565b601a5481565b601254151590565b600a54600160a01b900460ff1681565b61185c612b2e565b61189b576040805162461bcd60e51b8152602060048201526018602482015260008051602061551c833981519152604482015290519081900360640190fd5b60155460ff16156118f3576040805162461bcd60e51b815260206004820152601e60248201527f73616c652068617320746f206265206e6f6e2041746f6d696320737761700000604482015290519081900360640190fd5b6118fc81614bf9565b611944576040805162461bcd60e51b815260206004820152601460248201527320b2323932b9b99034b9903737ba10313abcb2b960611b604482015290519081900360640190fd5b61194c61183c565b61199d576040805162461bcd60e51b815260206004820152601a60248201527f4d696e696d756d2072616973652068617320746f206578697374000000000000604482015290519081900360640190fd5b6119a56130f9565b6119f6576040805162461bcd60e51b815260206004820152601f60248201527f4d696e696d756d2072616973652068617320746f206265207265616368656400604482015290519081900360640190fd5b6000601c8281548110611a0557fe5b906000526020600020906004020190506000816001015411611a6e576040805162461bcd60e51b815260206004820152601760248201527f707572636861736520616d6f756e74206973207a65726f000000000000000000604482015290519081900360640190fd5b8054600160d01b900460ff1615611ac4576040805162461bcd60e51b81526020600482015260156024820152741c1d5c98da185cd9481a5cc8199a5b985b1a5e9959605a1b604482015290519081900360640190fd5b805460ff60d81b1960ff60d01b19909116600160d01b1716600160d81b178155611aec6116ce565b15611b4e57336001600160a01b03166108fc601c8481548110611b0b57fe5b9060005260206000209060040201600201549081150290604051600060405180830381858888f19350505050158015611b48573d6000803e3d6000fd5b50611c32565b600a54601c80546001600160a01b039092169163a9059cbb91339186908110611b7357fe5b9060005260206000209060040201600201546040518363ffffffff1660e01b815260040180836001600160a01b0316815260200182815260200192505050602060405180830381600087803b158015611bcb57600080fd5b505af1158015611bdf573d6000803e3d6000fd5b505050506040513d6020811015611bf557600080fd5b5051611c325760405162461bcd60e51b81526004018080602001828103825260328152602001806153eb6032913960400191505060405180910390fd5b5050565b60155460ff1681565b611c47614c84565b6001600160a01b0316611c5861330b565b6001600160a01b031614611ca1576040805162461bcd60e51b815260206004820181905260248201526000805160206154d0833981519152604482015290519081900360640190fd5b611ca9612cd9565b15611cee576040805162461bcd60e51b815260206004820152601060248201526f14185d5cd8589b194e881c185d5cd95960821b604482015290519081900360640190fd5b611cf6612b2e565b611d35576040805162461bcd60e51b8152602060048201526018602482015260008051602061551c833981519152604482015290519081900360640190fd5b611d3d613ae4565b611d8e576040805162461bcd60e51b815260206004820152601f60248201527f4d696e696d756d2072616973652068617320746f206265207265616368656400604482015290519081900360640190fd5b611d966116ce565b15611e3857601560019054906101000a90046001600160a01b03166001600160a01b03166108fc611ddd6064611dd760165447614c9d90919063ffffffff16565b90614cf6565b6040518115909202916000818181858888f19350505050158015611e05573d6000803e3d6000fd5b5060405133904780156108fc02916000818181858888f19350505050158015611e32573d6000803e3d6000fd5b506120d5565b600a54601554601654604080516370a0823160e01b815230600482015290516001600160a01b039485169463a9059cbb9461010090041692611ed692606492611dd7929188916370a0823191602480820192602092909190829003018186803b158015611ea457600080fd5b505afa158015611eb8573d6000803e3d6000fd5b505050506040513d6020811015611ece57600080fd5b505190614c9d565b6040518363ffffffff1660e01b815260040180836001600160a01b0316815260200182815260200192505050602060405180830381600087803b158015611f1c57600080fd5b505af1158015611f30573d6000803e3d6000fd5b505050506040513d6020811015611f4657600080fd5b5051611f91576040805162461bcd60e51b8152602060048201526015602482015274115490cc8c081d1c985b9cd9995c8819985a5b1959605a1b604482015290519081900360640190fd5b600a54604080516370a0823160e01b815230600482015290516001600160a01b039092169163a9059cbb91339184916370a08231916024808301926020929190829003018186803b158015611fe557600080fd5b505afa158015611ff9573d6000803e3d6000fd5b505050506040513d602081101561200f57600080fd5b5051604080516001600160e01b031960e086901b1681526001600160a01b03909316600484015260248301919091525160448083019260209291908290030181600087803b15801561206057600080fd5b505af1158015612074573d6000803e3d6000fd5b505050506040513d602081101561208a57600080fd5b50516120d5576040805162461bcd60e51b8152602060048201526015602482015274115490cc8c081d1c985b9cd9995c8819985a5b1959605a1b604482015290519081900360640190fd5b565b60185481565b601c5481105b919050565b60175460009060ff161561221057600754604080516370a0823160e01b81526001600160a01b038581166004830152915168a2a15d09519be000009392909216916370a0823191602480820192602092909190829003018186803b15801561214f57600080fd5b505afa158015612163573d6000803e3d6000fd5b505050506040513d602081101561217957600080fd5b505111806122095750600854604080516370a0823160e01b81526001600160a01b03858116600483015291516801158e460913d000009392909216916370a0823191602480820192602092909190829003018186803b1580156121db57600080fd5b505afa1580156121ef573d6000803e3d6000fd5b505050506040513d602081101561220557600080fd5b5051115b90506120e3565b5060016120e3565b60606122248383612ecb565b61224e57604051806040016040528060088152602001671c995a9958dd195960c21b815250612270565b604051806040016040528060088152602001671858d8d95c1d195960c21b8152505b9392505050565b61227f614c84565b6001600160a01b031661229061330b565b6001600160a01b0316146122d9576040805162461bcd60e51b815260206004820181905260248201526000805160206154d0833981519152604482015290519081900360640190fd5b6122e1612cd9565b612329576040805162461bcd60e51b815260206004820152601460248201527314185d5cd8589b194e881b9bdd081c185d5cd95960621b604482015290519081900360640190fd5b60405133904780156108fc02916000818181858888f19350505050158015612355573d6000803e3d6000fd5b50600954604080516370a0823160e01b815230600482015290516001600160a01b039092169163a9059cbb91339184916370a08231916024808301926020929190829003018186803b1580156123aa57600080fd5b505afa1580156123be573d6000803e3d6000fd5b505050506040513d60208110156123d457600080fd5b5051604080516001600160e01b031960e086901b1681526001600160a01b03909316600484015260248301919091525160448083019260209291908290030181600087803b15801561242557600080fd5b505af1158015612439573d6000803e3d6000fd5b505050506040513d602081101561244f57600080fd5b505161249a576040805162461bcd60e51b8152602060048201526015602482015274115490cc8c081d1c985b9cd9995c8819985a5b1959605a1b604482015290519081900360640190fd5b6124a26116ce565b6120d557600a54604080516370a0823160e01b815230600482015290516001600160a01b039092169163a9059cbb91339184916370a08231916024808301926020929190829003018186803b158015611fe557600080fd5b60105481565b600e54421090565b600b5481565b6000806000806000806000612522886120dd565b612570576040805162461bcd60e51b815260206004820152601a6024820152791c1d5c98da185cd957da5908191bd95cc81b9bdd08195e1a5cdd60321b604482015290519081900360640190fd5b6000601c898154811061257f57fe5b60009182526020918290206040805160e08101825260049390930290910180546001600160a01b03811680855265ffffffffffff600160a01b83041695850186905260ff600160d01b830481161515948601859052600160d81b909204909116151560608501819052600183015460808601819052600284015460a0870181905260039094015460c09096018690529f919e50919c50939a509098509650945092505050565b61262d614c84565b6001600160a01b031661263e61330b565b6001600160a01b031614612687576040805162461bcd60e51b815260206004820181905260248201526000805160206154d0833981519152604482015290519081900360640190fd5b8042106126db576040805162461bcd60e51b815260206004820181905260248201527f656e6420646174652068617320746f20626520696e2074686520667574757265604482015290519081900360640190fd5b80600e5410612731576040805162461bcd60e51b815260206004820152601a60248201527f656e642064617465206265666f72652073746172742064617465000000000000604482015290519081900360640190fd5b600f55565b600061182a600283614d5d565b60006060612750836120dd565b61278f57505060408051808201909152601a8152791c1d5c98da185cd957da5908191bd95cc81b9bdd08195e1a5cdd60321b6020820152600090612b18565b60155460ff16156127d857505060408051808201909152601981527f68617320746f206265206e6f6e2041746f6d69632073776170000000000000006020820152600090612b18565b6127e0612b2e565b61282257505060408051808201909152601881527f746f6b656e2073616c65206e6f742066696e616c697a656400000000000000006020820152600090612b18565b61282a612cd9565b1561286d57505060408051808201909152601d81527f746f6b656e2073616c6520636f6e7472616374206973207061757365640000006020820152600090612b18565b612875613ae4565b6128b757505060408051808201909152601981527f6d696e696d756d207261697365206e6f742072656163686564000000000000006020820152600090612b18565b6000601c84815481106128c657fe5b90600052602060002090600402016001015490506000601c85815481106128e957fe5b90600052602060002090600402016003015490508181106129475760006040518060400160405280601a81526020017f616c6c20746f6b656e20616c72656164792072656465656d6564000000000000815250935093505050612b18565b6018544210156129945760006040518060400160405280601e81526020017f76657374696e6720706572696f64206e6f742079657420737461727465640000815250935093505050612b18565b601954601854014210156129e55760006040518060400160405280601d81526020017f76657374696e6720636c696666206e6f74207965742072656163686564000000815250935093505050612b18565b601b54600090612a3c5742601a546018540111612a0d57612a068383614d72565b9050612a37565b612a3482612a2e601a54611dd7601854420388614c9d90919063ffffffff16565b90614d72565b90505b612aea565b6000601a54601854420381612a4d57fe5b601b5491900491508110612a6c57612a658484614d72565b9150612ae8565b6000612aa1600654606402611dd7601b8581548110612a8757fe5b906000526020600020015488614c9d90919063ffffffff16565b905083811015612ae25760405162461bcd60e51b815260040180806020018281038252602c8152602001806154f0602c913960400191505060405180910390fd5b83900391505b505b60408051808201909152600f81526e726561647920746f2072656465656d60881b6020820152909450925050505b915091565b6060612b296004614dcf565b905090565b600f54421190565b612b3e614c84565b6001600160a01b0316612b4f61330b565b6001600160a01b031614612b98576040805162461bcd60e51b815260206004820181905260248201526000805160206154d0833981519152604482015290519081900360640190fd5b612ba3600482614c88565b506040516001600160a01b038216907ff9b68063b051b82957fa193585681240904fed808db8b30fc5a2d2202c6ed62790600090a250565b600e5442101590565b6000612bee612bdb565b8015612b295750612bfd612b2e565b15905090565b612c0b614c84565b6001600160a01b0316612c1c61330b565b6001600160a01b031614612c65576040805162461bcd60e51b815260206004820181905260248201526000805160206154d0833981519152604482015290519081900360640190fd5b612c70600482614e6f565b506040516001600160a01b038216907f2b6bf71b58b3583add364b3d9060ebf8019650f65f5be35f5464b9cb3e4ba2d490600090a250565b601e6020528160005260406000208181548110612cc457600080fd5b90600052602060002001600091509150505481565b60005460ff1690565b600d5481565b612cf0614c84565b6001600160a01b0316612d0161330b565b6001600160a01b031614612d4a576040805162461bcd60e51b815260206004820181905260248201526000805160206154d0833981519152604482015290519081900360640190fd5b601884905581831115612da4576040805162461bcd60e51b815260206004820152601e60248201527f76657374696e67436c696666203e2076657374696e674475726174696f6e0000604482015290519081900360640190fd5b6019839055601a8290558051600111612ec5576000601a5411612df85760405162461bcd60e51b81526004018080602001828103825260348152602001806153106034913960400191505060405180910390fd5b601b81600081518110612e0757fe5b602090810291909101810151825460018181018555600094855292909320909201919091555b8151811015612e9357601b612e78838381518110612e4757fe5b6020026020010151601b6001850381548110612e5f57fe5b9060005260206000200154614c2a90919063ffffffff16565b81546001818101845560009384526020909320015501612e2d565b50600654606402601b6001601b805490500381548110612eaf57fe5b90600052602060002001541115612ec557600080fd5b50505050565b6000612ed683614bec565b15612ee35750600061182a565b612eec83612736565b15612ef95750600161182a565b61227083836117ff565b600954604080516370a0823160e01b815230600482015290516000926001600160a01b0316916370a08231916024808301926020929190829003018186803b158015612f4e57600080fd5b505afa158015612f62573d6000803e3d6000fd5b505050506040513d6020811015612f7857600080fd5b5051905090565b6060612b296002614dcf565b612f93614c84565b6001600160a01b0316612fa461330b565b6001600160a01b031614612fed576040805162461bcd60e51b815260206004820181905260248201526000805160206154d0833981519152604482015290519081900360640190fd5b60018054821515600160a01b810260ff60a01b199092169190911790915560408051918252517fe905f7f52156c346547b9deb6fb3e2459db941ec55d073fd465129bf4b49fae69181900360200190a150565b601054151590565b613050614c84565b6001600160a01b031661306161330b565b6001600160a01b0316146130aa576040805162461bcd60e51b815260206004820181905260248201526000805160206154d0833981519152604482015290519081900360640190fd5b600080546040516101009091046001600160a01b0316907f8be0079c531659141344cd1fd0a4f28419497f9722a3daafe3b4186f6b6457e0908390a360008054610100600160a81b0319169055565b6000613106601254613325565b613111601354613325565b1061314d5760405162461bcd60e51b815260040180806020018281038252602e8152602001806153bd602e913960400191505060405180910390fd5b50600190565b60135481565b6007546001600160a01b031681565b6009546001600160a01b031681565b600081516041146131cf576040805162461bcd60e51b815260206004820152601960248201527f7369676e6174757265206973206e6f7420363520627974657300000000000000604482015290519081900360640190fd5b612270826131dc85614e84565b90614ed5565b601c81815481106131f257600080fd5b600091825260209091206004909102018054600182015460028301546003909301546001600160a01b038316945065ffffffffffff600160a01b8404169360ff600160d01b8504811694600160d81b900416929187565b6000612b29601a54611dd760185442614d7290919063ffffffff16565b61326e614c84565b6001600160a01b031661327f61330b565b6001600160a01b0316146132c8576040805162461bcd60e51b815260206004820181905260248201526000805160206154d0833981519152604482015290519081900360640190fd5b6132d3600282614e6f565b506040516001600160a01b038216907fcdd2e9b91a56913d370075169cefa1602ba36be5301664f752192bb1709df75790600090a250565b60005461010090046001600160a01b031690565b60125481565b600080612270600b54600a0a611dd7600d5486614c9d90919063ffffffff16565b61334e614c84565b6001600160a01b031661335f61330b565b6001600160a01b0316146133a8576040805162461bcd60e51b815260206004820181905260248201526000805160206154d0833981519152604482015290519081900360640190fd5b6133b0612b2e565b6133ef576040805162461bcd60e51b8152602060048201526018602482015260008051602061551c833981519152604482015290519081900360640190fd5b6009546001600160a01b038381169116141561343c5760405162461bcd60e51b815260040180806020018281038252603b81526020018061529d603b913960400191505060405180910390fd5b600a546001600160a01b03838116911614156134895760405162461bcd60e51b815260040180806020018281038252603c81526020018061553c603c913960400191505060405180910390fd5b604080516370a0823160e01b8152306004820152905183916001600160a01b0383169163a9059cbb91859184916370a08231916024808301926020929190829003018186803b1580156134db57600080fd5b505afa1580156134ef573d6000803e3d6000fd5b505050506040513d602081101561350557600080fd5b5051604080516001600160e01b031960e086901b1681526001600160a01b03909316600484015260248301919091525160448083019260209291908290030181600087803b15801561355657600080fd5b505af115801561356a573d6000803e3d6000fd5b505050506040513d602081101561358057600080fd5b50516135d3576040805162461bcd60e51b815260206004820152601b60248201527f455243323020546f6b656e207472616e73666572206661696c65640000000000604482015290519081900360640190fd5b505050565b601b81815481106135e857600080fd5b600091825260209091200154905081565b600c5460ff1681565b61360a614c84565b6001600160a01b031661361b61330b565b6001600160a01b031614613664576040805162461bcd60e51b815260206004820181905260248201526000805160206154d0833981519152604482015290519081900360640190fd5b60005b81518110156136a05761369782828151811061367f57fe5b60200260200101516004614c8890919063ffffffff16565b50600101613667565b508060405180828051906020019060200280838360005b838110156136cf5781810151838201526020016136b7565b505060405194909201849003842095507f62c86e298fdcee6735257d5739a2d747e04d60784d2bd3092ab7194b99e7550e945060009392505050a250565b60165481565b601c5490565b60155460ff1615613771576040805162461bcd60e51b815260206004820152601e60248201527f73616c652068617320746f206265206e6f6e2041746f6d696320737761700000604482015290519081900360640190fd5b613779612b2e565b6137b8576040805162461bcd60e51b8152602060048201526018602482015260008051602061551c833981519152604482015290519081900360640190fd5b6137c0612cd9565b15613805576040805162461bcd60e51b815260206004820152601060248201526f14185d5cd8589b194e881c185d5cd95960821b604482015290519081900360640190fd5b61380e81614bf9565b613856576040805162461bcd60e51b815260206004820152601460248201527320b2323932b9b99034b9903737ba10313abcb2b960611b604482015290519081900360640190fd5b60008061386283612743565b915091506000821181906138f45760405162461bcd60e51b81526004018080602001828103825283818151815260200191508051906020019080838360005b838110156138b95781810151838201526020016138a1565b50505050905090810190601f1680156138e65780820380516001836020036101000a031916815260200191505b509250505060405180910390fd5b506000601c848154811061390457fe5b90600052602060002090600402016001015490506000601c858154811061392757fe5b90600052602060002090600402016003015490508161394f8583614c2a90919063ffffffff16565b111561398c5760405162461bcd60e51b815260040180806020018281038252604481526020018061548c6044913960600191505060405180910390fd5b816139978286614c2a565b14156139d7576001601c86815481106139ac57fe5b600091825260209091206004909102018054911515600160d01b0260ff60d01b199092169190911790555b6139e18185614c2a565b601c86815481106139ee57fe5b60009182526020808320600492830201600301939093556009546040805163a9059cbb60e01b8152339381019390935260248301899052516001600160a01b039091169363a9059cbb936044808501949293928390030190829087803b158015613a5757600080fd5b505af1158015613a6b573d6000803e3d6000fd5b505050506040513d6020811015613a8157600080fd5b5051613acc576040805162461bcd60e51b8152602060048201526015602482015274115490cc8c081d1c985b9cd9995c8819985a5b1959605a1b604482015290519081900360640190fd5b5050505050565b622625a090565b6013546014540390565b6000613aee61183c565b1561314d57613afe601254613325565b613b09601354613325565b101561314d5760405162461bcd60e51b815260040180806020018281038252602c81526020018061541d602c913960400191505060405180910390fd5b613b4e614c84565b6001600160a01b0316613b5f61330b565b6001600160a01b031614613ba8576040805162461bcd60e51b815260206004820181905260248201526000805160206154d0833981519152604482015290519081900360640190fd5b600180546001600160a01b0319166001600160a01b0392909216919091179055565b6001546001600160a01b031681565b613be1612cd9565b15613c26576040805162461bcd60e51b815260206004820152601060248201526f14185d5cd8589b194e881c185d5cd95960821b604482015290519081900360640190fd5b600a54600160a01b900460ff16613c84576040805162461bcd60e51b815260206004820152601860248201527f746f6b656e2073616c65206973206e6f742066756e6465640000000000000000604482015290519081900360640190fd5b613c8c612be4565b613cd3576040805162461bcd60e51b815260206004820152601360248201527239b0b632903430b9903a379031329037b832b760691b604482015290519081900360640190fd5b6001548190600160a01b900460ff1615613d21576001546001600160a01b0316613d0e57613d0033612736565b613d0957600080fd5b613d21565b613d183382612ecb565b613d2157600080fd5b6000613d2c336120e8565b613d7d576040805162461bcd60e51b815260206004820181905260248201527f61646472657373206e6f742077686974656c697374656420666f7220504f4c53604482015290519081900360640190fd5b613d856116ce565b15613de4575034613d9584613325565b811015613ddf576040805162461bcd60e51b81526020600482015260136024820152721b9bdd08195b9bdd59da08115512081cd95b9d606a1b604482015290519081900360640190fd5b613ec7565b613ded84613325565b600a54604080516323b872dd60e01b81523360048201523060248201526044810184905290519293506001600160a01b03909116916323b872dd916064808201926020929091908290030181600087803b158015613e4a57600080fd5b505af1158015613e5e573d6000803e3d6000fd5b505050506040513d6020811015613e7457600080fd5b5051613ec7576040805162461bcd60e51b815260206004820152601d60248201527f4552433230207061796d656e74207472616e73666572206661696c6564000000604482015290519081900360640190fd5b613ecf613ada565b841115613f23576040805162461bcd60e51b815260206004820152601960248201527f616d6f756e74203e20746f6b656e7320617661696c61626c6500000000000000604482015290519081900360640190fd5b601054841015613f7a576040805162461bcd60e51b815260206004820152601760248201527f616d6f756e74203c206d696e696d756d20616d6f756e74000000000000000000604482015290519081900360640190fd5b601154841115613fd1576040805162461bcd60e51b815260206004820152601760248201527f616d6f756e74203e206d6178696d756d20616d6f756e74000000000000000000604482015290519081900360640190fd5b336000908152601e602090815260408083208054825181850281018501909352808352919290919083018282801561402857602002820191906000526020600020905b815481526020019060010190808311614014575b505050505090506000805b825181101561408a57614080601c84838151811061404d57fe5b60200260200101518154811061405f57fe5b90600052602060002090600402016001015483614c2a90919063ffffffff16565b9150600101614033565b506011546140988288614c2a565b11156140eb576040805162461bcd60e51b815260206004820152601e60248201527f77697468207468697320616d6f756e74203a20746f74616c203e206d61780000604482015290519081900360640190fd5b60155460ff16156141bf576009546040805163a9059cbb60e01b81523360048201526024810189905290516001600160a01b039092169163a9059cbb916044808201926020929091908290030181600087803b15801561414a57600080fd5b505af115801561415e573d6000803e3d6000fd5b505050506040513d602081101561417457600080fd5b50516141bf576040805162461bcd60e51b8152602060048201526015602482015274115490cc8c081d1c985b9cd9995c8819985a5b1959605a1b604482015290519081900360640190fd5b6040805160e0810182523380825265ffffffffffff428116602080850191825260155460ff161515858701908152600060608701818152608088018f815260a089018d815260c08a01848152601c8054600181810183558288529c5160049091027f0e4562a10381dec21b205ed72637e6b1b523bdd0e4d4d50af5cd23dd4500a211810180549b51995197511515600160d81b0260ff60d81b19981515600160d01b0260ff60d01b199b909e16600160a01b0265ffffffffffff60a01b196001600160a01b03959095166001600160a01b03199e8f16179490941693909317999099169b909b17959095169490941790955590517f0e4562a10381dec21b205ed72637e6b1b523bdd0e4d4d50af5cd23dd4500a212880155517f0e4562a10381dec21b205ed72637e6b1b523bdd0e4d4d50af5cd23dd4500a21387015591517f0e4562a10381dec21b205ed72637e6b1b523bdd0e4d4d50af5cd23dd4500a21490950194909455848452601e825295832095548654808701885596845290832060001991909101950194909455601d8054938401815590527f6d4407e7be21f808e6509aa9fa9143369579dd7d760fe20a2c09680fc146134f90910180549092161790556013546143909087614c2a565b60135560408051878152426020820152815133927fbec109f7ee137de661c6887caa96653c0545050a9908a3b6eb5190440bbec864928290030190a2505050505050565b600f5481565b6001600160a01b0381166000908152601e602090815260409182902080548351818402810184019094528084526060939283018282801561443a57602002820191906000526020600020905b815481526020019060010190808311614426575b50505050509050919050565b61444e614c84565b6001600160a01b031661445f61330b565b6001600160a01b0316146144a8576040805162461bcd60e51b815260206004820181905260248201526000805160206154d0833981519152604482015290519081900360640190fd5b6144b0612b2e565b6144ef576040805162461bcd60e51b8152602060048201526018602482015260008051602061551c833981519152604482015290519081900360640190fd5b600c5460ff16156144ff57600080fd5b600061450961183c565b8015614528575061451b601254613325565b614526601354613325565b105b156145365750601454614548565b60135460145461454591614d72565b90505b801561462457600c805460ff191660011790556009546040805163a9059cbb60e01b81523360048201526024810184905290516001600160a01b039092169163a9059cbb916044808201926020929091908290030181600087803b1580156145af57600080fd5b505af11580156145c3573d6000803e3d6000fd5b505050506040513d60208110156145d957600080fd5b5051614624576040805162461bcd60e51b8152602060048201526015602482015274115490cc8c081d1c985b9cd9995c8819985a5b1959605a1b604482015290519081900360640190fd5b50565b61462f612500565b614680576040805162461bcd60e51b815260206004820152601a60248201527f6e6f74206265666f72652073746172742074696d652f64617465000000000000604482015290519081900360640190fd5b6014546146958261468f612f03565b90614c2a565b11156146d25760405162461bcd60e51b81526004018080602001828103825260388152602001806152d86038913960400191505060405180910390fd5b600954604080516323b872dd60e01b81523360048201523060248201526044810184905290516001600160a01b03909216916323b872dd916064808201926020929091908290030181600087803b15801561472c57600080fd5b505af1158015614740573d6000803e3d6000fd5b505050506040513d602081101561475657600080fd5b50516147a9576040805162461bcd60e51b815260206004820152601b60248201527f4661696c656420455243323020746f6b656e207472616e736665720000000000604482015290519081900360640190fd5b6014546147b4612f03565b141561462457600a805460ff60a01b1916600160a01b17905550565b60175460ff1681565b600080600060606147e9856120dd565b61482e57505060408051808201909152601a8152791c1d5c98da185cd957da5908191bd95cc81b9bdd08195e1a5cdd60321b602082015260009250829150819061487f565b601c858154811061483b57fe5b9060005260206000209060040201600101549350601c858154811061485c57fe5b906000526020600020906004020160030154925061487985612743565b90925090505b9193509193565b61488e614c84565b6001600160a01b031661489f61330b565b6001600160a01b0316146148e8576040805162461bcd60e51b815260206004820181905260248201526000805160206154d0833981519152604482015290519081900360640190fd5b6010548110156149295760405162461bcd60e51b815260040180806020018281038252603181526020018061536a6031913960400191505060405180910390fd5b601155565b6008546001600160a01b031681565b60115481565b61494b614c84565b6001600160a01b031661495c61330b565b6001600160a01b0316146149a5576040805162461bcd60e51b815260206004820181905260248201526000805160206154d0833981519152604482015290519081900360640190fd5b6149b0600282614c88565b506040516001600160a01b038216907fa850ae9193f515cbae8d35e8925bd2be26627fc91bce650b8652ed254e9cab0390600090a250565b6001546000906001600160a01b0316614a018484613177565b6001600160a01b0316149392505050565b600a546001600160a01b031681565b60155461010090046001600160a01b031681565b6000612b29601454613325565b601d8181548110614a5257600080fd5b6000918252602090912001546001600160a01b0316905081565b614a74614c84565b6001600160a01b0316614a8561330b565b6001600160a01b031614614ace576040805162461bcd60e51b815260206004820181905260248201526000805160206154d0833981519152604482015290519081900360640190fd5b6001600160a01b038116614b135760405162461bcd60e51b81526004018080602001828103825260268152602001806153446026913960400191505060405180910390fd5b600080546040516001600160a01b038085169361010090930416917f8be0079c531659141344cd1fd0a4f28419497f9722a3daafe3b4186f6b6457e091a3600080546001600160a01b0390921661010002610100600160a81b0319909216919091179055565b60195481565b6060601d805480602002602001604051908101604052809291908181526020018280548015614bd757602002820191906000526020600020905b81546001600160a01b03168152600190910190602001808311614bb9575b5050505050905090565b6060612b29336143da565b600061182a600483614d5d565b6000601c8281548110614c0857fe5b60009182526020909120600490910201546001600160a01b0316331492915050565b600082820183811015612270576040805162461bcd60e51b815260206004820152601b60248201527f536166654d6174683a206164646974696f6e206f766572666c6f770000000000604482015290519081900360640190fd5b3390565b6000612270836001600160a01b038416614f55565b600082614cac5750600061182a565b82820282848281614cb957fe5b04146122705760405162461bcd60e51b815260040180806020018281038252602181526020018061546b6021913960400191505060405180910390fd5b6000808211614d4c576040805162461bcd60e51b815260206004820152601a60248201527f536166654d6174683a206469766973696f6e206279207a65726f000000000000604482015290519081900360640190fd5b818381614d5557fe5b049392505050565b6000612270836001600160a01b038416614f9f565b600082821115614dc9576040805162461bcd60e51b815260206004820152601e60248201527f536166654d6174683a207375627472616374696f6e206f766572666c6f770000604482015290519081900360640190fd5b50900390565b60606000614ddc83614fb7565b67ffffffffffffffff81118015614df257600080fd5b50604051908082528060200260200182016040528015614e1c578160200160208202803683370190505b50905060005b614e2b84614fb7565b811015614e6857614e3c8482614fc2565b828281518110614e4857fe5b6001600160a01b0390921660209283029190910190910152600101614e22565b5092915050565b6000612270836001600160a01b038416614fce565b604080517f19457468657265756d205369676e6564204d6573736167653a0a333200000000602080830191909152603c8083019490945282518083039094018452605c909101909152815191012090565b60008151604114614f2d576040805162461bcd60e51b815260206004820152601f60248201527f45434453413a20696e76616c6964207369676e6174757265206c656e67746800604482015290519081900360640190fd5b60208201516040830151606084015160001a614f4b86828585615094565b9695505050505050565b6000614f618383614f9f565b614f975750815460018181018455600084815260208082209093018490558454848252828601909352604090209190915561182a565b50600061182a565b60009081526001919091016020526040902054151590565b600061182a82615212565b60006122708383615216565b6000818152600183016020526040812054801561508a578354600019808301919081019060009087908390811061500157fe5b906000526020600020015490508087600001848154811061501e57fe5b60009182526020808320909101929092558281526001898101909252604090209084019055865487908061504e57fe5b6001900381819060005260206000200160009055905586600101600087815260200190815260200160002060009055600194505050505061182a565b600091505061182a565b60007f7fffffffffffffffffffffffffffffff5d576e7357a4501ddfe92f46681b20a08211156150f55760405162461bcd60e51b815260040180806020018281038252602281526020018061539b6022913960400191505060405180910390fd5b8360ff16601b148061510a57508360ff16601c145b6151455760405162461bcd60e51b81526004018080602001828103825260228152602001806154496022913960400191505060405180910390fd5b600060018686868660405160008152602001604052604051808581526020018460ff1681526020018381526020018281526020019450505050506020604051602081039080840390855afa1580156151a1573d6000803e3d6000fd5b5050604051601f1901519150506001600160a01b038116615209576040805162461bcd60e51b815260206004820152601860248201527f45434453413a20696e76616c6964207369676e61747572650000000000000000604482015290519081900360640190fd5b95945050505050565b5490565b815460009082106152585760405162461bcd60e51b815260040180806020018281038252602281526020018061527b6022913960400191505060405180910390fd5b82600001828154811061526757fe5b906000526020600020015490509291505056fe456e756d657261626c655365743a20696e646578206f7574206f6620626f756e6473546f6b656e20416464726573732068617320746f2062652064696666207468616e20746865206572633230207375626a65637420746f2073616c655472616e73666572656420746f6b656e73206861766520746f20626520657175616c206f72206c657373207468616e2070726f706f73656476657374696e6720696e74657276616c6c732070726f76696465642c206275742076657374696e674475726174696f6e203d20304f776e61626c653a206e6577206f776e657220697320746865207a65726f2061646472657373696e646976696475616c4d6178696d756d416d6f756e74203c20696e646976696475616c4d696e696d756d416d6f756e7445434453413a20696e76616c6964207369676e6174757265202773272076616c7565546f74616c526169736520697320626967676572207468616e206d696e696d756d20726169736520616d6f756e745265747269657665206f6620455243323020546f6b656e205472616e7366657220776173206e6f7420737563636565646564546f74616c5261697365206973206c657373207468616e206d696e696d756d20726169736520616d6f756e7445434453413a20696e76616c6964207369676e6174757265202776272076616c7565536166654d6174683a206d756c7469706c69636174696f6e206f766572666c6f77494e5445524e414c204552524f52203a20616d6f756e7452656465656d656420776f756c64206265206c6172676572207468656e20707572636861736520616d6f756e744f776e61626c653a2063616c6c6572206973206e6f7420746865206f776e6572494e5445524e414c204552524f5220696e2076657374696e6720616d6f756e742063616c63756c6174696f6e73616c652068617320746f2062652066696e616c697a65640000000000000000546f6b656e20416464726573732068617320746f2062652064696666207468616e2074686520657263323020616761696e7374207468652073616c65a26469706673582212206e6bbb39c3ebff58a2b72b65958622f16d573936a01bd14ad8ee3d144d53264364736f6c63430007060033537461727420446174652073686f756c64206265206265666f7265207468652063757272656e74206461746576657374696e6720696e74657276616c6c732070726f76696465642c206275742076657374696e674475726174696f6e203d2030696e646976696475616c4d6178696d756d416d6f756e74203c20696e646976696475616c4d696e696d756d416d6f756e74746f6b656e73466f7253616c65203c20696e646976696475616c4d696e696d756d416d6f756e744f776e61626c653a2063616c6c6572206973206e6f7420746865206f776e6572",
  "linkReferences": {},
  "deployedLinkReferences": {}
}