{
  "_format": "hh-sol-artifact-1",
  "contractName": "FixedSwap",
  "sourceName": "contracts/FixedSwap.sol",
  "abi": [
    {
      "inputs": [
        {
          "internalType": "address",
          "name": "_tokenAddress",
          "type": "address"
        },
        {
          "internalType": "uint256",
          "name": "_tradeValue",
          "type": "uint256"
        },
        {
          "internalType": "uint256",
          "name": "_tokensForSale",
          "type": "uint256"
        },
        {
          "internalType": "uint256",
          "name": "_startDate",
          "type": "uint256"
        },
        {
          "internalType": "uint256",
          "name": "_endDate",
          "type": "uint256"
        },
        {
          "internalType": "uint256",
          "name": "_individualMinimumAmount",
          "type": "uint256"
        },
        {
          "internalType": "uint256",
          "name": "_individualMaximumAmount",
          "type": "uint256"
        },
        {
          "internalType": "bool",
          "name": "_ignored",
          "type": "bool"
        },
        {
          "internalType": "uint256",
          "name": "_minimumRaise",
          "type": "uint256"
        },
        {
          "internalType": "uint256",
          "name": "_feePercentage",
          "type": "uint256"
        },
        {
          "internalType": "uint32",
          "name": "_flags",
          "type": "uint32"
        },
        {
          "internalType": "address",
          "name": "_erc20TradeAddress",
          "type": "address"
        },
        {
          "internalType": "uint256",
          "name": "_vestingStart",
          "type": "uint256"
        },
        {
          "internalType": "uint256",
          "name": "_vestingCliff",
          "type": "uint256"
        },
        {
          "internalType": "uint256",
          "name": "_vestingDuration",
          "type": "uint256"
        },
        {
          "internalType": "uint256[]",
          "name": "_vestingSchedule",
          "type": "uint256[]"
        }
      ],
      "stateMutability": "nonpayable",
      "type": "constructor"
    },
    {
      "anonymous": false,
      "inputs": [
        {
          "indexed": true,
          "internalType": "uint256",
          "name": "count",
          "type": "uint256"
        }
      ],
      "name": "AddedArrayToBlacklist",
      "type": "event"
    },
    {
      "anonymous": false,
      "inputs": [
        {
          "indexed": true,
          "internalType": "uint256",
          "name": "count",
          "type": "uint256"
        }
      ],
      "name": "AddedArrayToWhitelist",
      "type": "event"
    },
    {
      "anonymous": false,
      "inputs": [
        {
          "indexed": true,
          "internalType": "address",
          "name": "account",
          "type": "address"
        }
      ],
      "name": "AddedToBlacklist",
      "type": "event"
    },
    {
      "anonymous": false,
      "inputs": [
        {
          "indexed": true,
          "internalType": "address",
          "name": "account",
          "type": "address"
        }
      ],
      "name": "AddedToWhitelist",
      "type": "event"
    },
    {
      "anonymous": false,
      "inputs": [
        {
          "indexed": false,
          "internalType": "address",
          "name": "account",
          "type": "address"
        }
      ],
      "name": "Paused",
      "type": "event"
    },
    {
      "anonymous": false,
      "inputs": [
        {
          "indexed": false,
          "internalType": "uint256",
          "name": "amount",
          "type": "uint256"
        },
        {
          "indexed": true,
          "internalType": "address",
          "name": "purchaser",
          "type": "address"
        },
        {
          "indexed": false,
          "internalType": "uint256",
          "name": "timestamp",
          "type": "uint256"
        }
      ],
      "name": "PurchaseEvent",
      "type": "event"
    },
    {
      "anonymous": false,
      "inputs": [
        {
          "indexed": true,
          "internalType": "address",
          "name": "account",
          "type": "address"
        }
      ],
      "name": "RemovedFromBlacklist",
      "type": "event"
    },
    {
      "anonymous": false,
      "inputs": [
        {
          "indexed": true,
          "internalType": "address",
          "name": "account",
          "type": "address"
        }
      ],
      "name": "RemovedFromWhitelist",
      "type": "event"
    },
    {
      "anonymous": false,
      "inputs": [
        {
          "indexed": true,
          "internalType": "bytes32",
          "name": "role",
          "type": "bytes32"
        },
        {
          "indexed": true,
          "internalType": "bytes32",
          "name": "previousAdminRole",
          "type": "bytes32"
        },
        {
          "indexed": true,
          "internalType": "bytes32",
          "name": "newAdminRole",
          "type": "bytes32"
        }
      ],
      "name": "RoleAdminChanged",
      "type": "event"
    },
    {
      "anonymous": false,
      "inputs": [
        {
          "indexed": true,
          "internalType": "bytes32",
          "name": "role",
          "type": "bytes32"
        },
        {
          "indexed": true,
          "internalType": "address",
          "name": "account",
          "type": "address"
        },
        {
          "indexed": true,
          "internalType": "address",
          "name": "sender",
          "type": "address"
        }
      ],
      "name": "RoleGranted",
      "type": "event"
    },
    {
      "anonymous": false,
      "inputs": [
        {
          "indexed": true,
          "internalType": "bytes32",
          "name": "role",
          "type": "bytes32"
        },
        {
          "indexed": true,
          "internalType": "address",
          "name": "account",
          "type": "address"
        },
        {
          "indexed": true,
          "internalType": "address",
          "name": "sender",
          "type": "address"
        }
      ],
      "name": "RoleRevoked",
      "type": "event"
    },
    {
      "anonymous": false,
      "inputs": [
        {
          "indexed": false,
          "internalType": "bool",
          "name": "hasWhitelisting",
          "type": "bool"
        }
      ],
      "name": "SetHasWhitelisting",
      "type": "event"
    },
    {
      "anonymous": false,
      "inputs": [
        {
          "indexed": false,
          "internalType": "address",
          "name": "account",
          "type": "address"
        }
      ],
      "name": "Unpaused",
      "type": "event"
    },
    {
      "inputs": [],
      "name": "DECIMALS_PERCENT_MUL",
      "outputs": [
        {
          "internalType": "uint256",
          "name": "",
          "type": "uint256"
        }
      ],
      "stateMutability": "view",
      "type": "function"
    },
    {
      "inputs": [],
      "name": "DEFAULT_ADMIN_ROLE",
      "outputs": [
        {
          "internalType": "bytes32",
          "name": "",
          "type": "bytes32"
        }
      ],
      "stateMutability": "view",
      "type": "function"
    },
    {
      "inputs": [],
      "name": "FEE_ADDRESS",
      "outputs": [
        {
          "internalType": "address",
          "name": "",
          "type": "address"
        }
      ],
      "stateMutability": "view",
      "type": "function"
    },
    {
      "inputs": [],
      "name": "POLS_TOKEN_ADDRESS",
      "outputs": [
        {
          "internalType": "address",
          "name": "",
          "type": "address"
        }
      ],
      "stateMutability": "view",
      "type": "function"
    },
    {
      "inputs": [],
      "name": "POLS_UNIV2_ADDRESS",
      "outputs": [
        {
          "internalType": "address",
          "name": "",
          "type": "address"
        }
      ],
      "stateMutability": "view",
      "type": "function"
    },
    {
      "inputs": [],
      "name": "PolsStakeAddress",
      "outputs": [
        {
          "internalType": "address",
          "name": "",
          "type": "address"
        }
      ],
      "stateMutability": "view",
      "type": "function"
    },
    {
      "inputs": [],
      "name": "PolsStakeAmount",
      "outputs": [
        {
          "internalType": "uint256",
          "name": "",
          "type": "uint256"
        }
      ],
      "stateMutability": "view",
      "type": "function"
    },
    {
      "inputs": [],
      "name": "PolsStakeRewards",
      "outputs": [
        {
          "internalType": "uint256",
          "name": "",
          "type": "uint256"
        }
      ],
      "stateMutability": "view",
      "type": "function"
    },
    {
      "inputs": [],
      "name": "PolsTokenAddress",
      "outputs": [
        {
          "internalType": "address",
          "name": "",
          "type": "address"
        }
      ],
      "stateMutability": "view",
      "type": "function"
    },
    {
      "inputs": [],
      "name": "PolsTokenAmount",
      "outputs": [
        {
          "internalType": "uint256",
          "name": "",
          "type": "uint256"
        }
      ],
      "stateMutability": "view",
      "type": "function"
    },
    {
      "inputs": [],
      "name": "PolsUniV2Address",
      "outputs": [
        {
          "internalType": "address",
          "name": "",
          "type": "address"
        }
      ],
      "stateMutability": "view",
      "type": "function"
    },
    {
      "inputs": [],
      "name": "PolsUniV2Amount",
      "outputs": [
        {
          "internalType": "uint256",
          "name": "",
          "type": "uint256"
        }
      ],
      "stateMutability": "view",
      "type": "function"
    },
    {
      "inputs": [],
      "name": "WHITELIST_OWNER_ROLE",
      "outputs": [
        {
          "internalType": "bytes32",
          "name": "",
          "type": "bytes32"
        }
      ],
      "stateMutability": "view",
      "type": "function"
    },
    {
      "inputs": [
        {
          "internalType": "address[]",
          "name": "_addresses",
          "type": "address[]"
        }
      ],
      "name": "addArrayToBlacklist",
      "outputs": [],
      "stateMutability": "nonpayable",
      "type": "function"
    },
    {
      "inputs": [
        {
          "internalType": "address[]",
          "name": "_addresses",
          "type": "address[]"
        }
      ],
      "name": "addArrayToWhitelist",
      "outputs": [],
      "stateMutability": "nonpayable",
      "type": "function"
    },
    {
      "inputs": [
        {
          "internalType": "address",
          "name": "_address",
          "type": "address"
        }
      ],
      "name": "addToBlacklist",
      "outputs": [],
      "stateMutability": "nonpayable",
      "type": "function"
    },
    {
      "inputs": [
        {
          "internalType": "address",
          "name": "_address",
          "type": "address"
        }
      ],
      "name": "addToWhitelist",
      "outputs": [],
      "stateMutability": "nonpayable",
      "type": "function"
    },
    {
      "inputs": [],
      "name": "availableTokens",
      "outputs": [
        {
          "internalType": "uint256",
          "name": "",
          "type": "uint256"
        }
      ],
      "stateMutability": "view",
      "type": "function"
    },
    {
      "inputs": [
        {
          "internalType": "uint256",
          "name": "",
          "type": "uint256"
        }
      ],
      "name": "buyers",
      "outputs": [
        {
          "internalType": "address",
          "name": "",
          "type": "address"
        }
      ],
      "stateMutability": "view",
      "type": "function"
    },
    {
      "inputs": [
        {
          "internalType": "uint256",
          "name": "_amount",
          "type": "uint256"
        }
      ],
      "name": "cost",
      "outputs": [
        {
          "internalType": "uint256",
          "name": "",
          "type": "uint256"
        }
      ],
      "stateMutability": "view",
      "type": "function"
    },
    {
      "inputs": [],
      "name": "endDate",
      "outputs": [
        {
          "internalType": "uint256",
          "name": "",
          "type": "uint256"
        }
      ],
      "stateMutability": "view",
      "type": "function"
    },
    {
      "inputs": [],
      "name": "erc20",
      "outputs": [
        {
          "internalType": "contract IERC20",
          "name": "",
          "type": "address"
        }
      ],
      "stateMutability": "view",
      "type": "function"
    },
    {
      "inputs": [],
      "name": "erc20TradeIn",
      "outputs": [
        {
          "internalType": "contract IERC20",
          "name": "",
          "type": "address"
        }
      ],
      "stateMutability": "view",
      "type": "function"
    },
    {
      "inputs": [],
      "name": "feePercentage",
      "outputs": [
        {
          "internalType": "uint256",
          "name": "",
          "type": "uint256"
        }
      ],
      "stateMutability": "view",
      "type": "function"
    },
    {
      "inputs": [
        {
          "internalType": "uint256",
          "name": "_amount",
          "type": "uint256"
        }
      ],
      "name": "fund",
      "outputs": [],
      "stateMutability": "nonpayable",
      "type": "function"
    },
    {
      "inputs": [],
      "name": "getAPIVersion",
      "outputs": [
        {
          "internalType": "uint32",
          "name": "API_VERSION",
          "type": "uint32"
        }
      ],
      "stateMutability": "pure",
      "type": "function"
    },
    {
      "inputs": [],
      "name": "getBlacklistedAddresses",
      "outputs": [
        {
          "internalType": "address[]",
          "name": "",
          "type": "address[]"
        }
      ],
      "stateMutability": "view",
      "type": "function"
    },
    {
      "inputs": [],
      "name": "getBuyers",
      "outputs": [
        {
          "internalType": "address[]",
          "name": "",
          "type": "address[]"
        }
      ],
      "stateMutability": "view",
      "type": "function"
    },
    {
      "inputs": [],
      "name": "getCurrentSchedule",
      "outputs": [
        {
          "internalType": "uint256",
          "name": "schedule",
          "type": "uint256"
        }
      ],
      "stateMutability": "view",
      "type": "function"
    },
    {
      "inputs": [
        {
          "internalType": "address",
          "name": "_address",
          "type": "address"
        }
      ],
      "name": "getMyPurchases",
      "outputs": [
        {
          "internalType": "uint256[]",
          "name": "",
          "type": "uint256[]"
        }
      ],
      "stateMutability": "view",
      "type": "function"
    },
    {
      "inputs": [],
      "name": "getMyPurchases_msgSender",
      "outputs": [
        {
          "internalType": "uint256[]",
          "name": "",
          "type": "uint256[]"
        }
      ],
      "stateMutability": "view",
      "type": "function"
    },
    {
      "inputs": [
        {
          "internalType": "uint256",
          "name": "purchase_id",
          "type": "uint256"
        }
      ],
      "name": "getPurchase",
      "outputs": [
        {
          "internalType": "uint256",
          "name": "amount",
          "type": "uint256"
        },
        {
          "internalType": "address",
          "name": "purchaser",
          "type": "address"
        },
        {
          "internalType": "uint256",
          "name": "costAmount",
          "type": "uint256"
        },
        {
          "internalType": "uint48",
          "name": "timestamp",
          "type": "uint48"
        },
        {
          "internalType": "bool",
          "name": "wasFinalized",
          "type": "bool"
        },
        {
          "internalType": "bool",
          "name": "reverted",
          "type": "bool"
        },
        {
          "internalType": "uint256",
          "name": "amountRedeemed",
          "type": "uint256"
        }
      ],
      "stateMutability": "view",
      "type": "function"
    },
    {
      "inputs": [],
      "name": "getPurchasesCount",
      "outputs": [
        {
          "internalType": "uint256",
          "name": "count",
          "type": "uint256"
        }
      ],
      "stateMutability": "view",
      "type": "function"
    },
    {
      "inputs": [
        {
          "internalType": "uint256",
          "name": "purchase_id",
          "type": "uint256"
        }
      ],
      "name": "getRedeemStatus",
      "outputs": [
        {
          "internalType": "uint256",
          "name": "amount",
          "type": "uint256"
        },
        {
          "internalType": "uint256",
          "name": "amountRedeemed",
          "type": "uint256"
        },
        {
          "internalType": "uint256",
          "name": "vestAmount",
          "type": "uint256"
        },
        {
          "internalType": "string",
          "name": "message",
          "type": "string"
        }
      ],
      "stateMutability": "view",
      "type": "function"
    },
    {
      "inputs": [
        {
          "internalType": "uint256",
          "name": "purchase_id",
          "type": "uint256"
        }
      ],
      "name": "getRedeemableTokensAmount",
      "outputs": [
        {
          "internalType": "uint256",
          "name": "amount",
          "type": "uint256"
        },
        {
          "internalType": "string",
          "name": "message",
          "type": "string"
        }
      ],
      "stateMutability": "view",
      "type": "function"
    },
    {
      "inputs": [
        {
          "internalType": "bytes32",
          "name": "role",
          "type": "bytes32"
        }
      ],
      "name": "getRoleAdmin",
      "outputs": [
        {
          "internalType": "bytes32",
          "name": "",
          "type": "bytes32"
        }
      ],
      "stateMutability": "view",
      "type": "function"
    },
    {
      "inputs": [
        {
          "internalType": "bytes32",
          "name": "role",
          "type": "bytes32"
        },
        {
          "internalType": "uint256",
          "name": "index",
          "type": "uint256"
        }
      ],
      "name": "getRoleMember",
      "outputs": [
        {
          "internalType": "address",
          "name": "",
          "type": "address"
        }
      ],
      "stateMutability": "view",
      "type": "function"
    },
    {
      "inputs": [
        {
          "internalType": "bytes32",
          "name": "role",
          "type": "bytes32"
        }
      ],
      "name": "getRoleMemberCount",
      "outputs": [
        {
          "internalType": "uint256",
          "name": "",
          "type": "uint256"
        }
      ],
      "stateMutability": "view",
      "type": "function"
    },
    {
      "inputs": [],
      "name": "getWhitelistedAddresses",
      "outputs": [
        {
          "internalType": "address[]",
          "name": "",
          "type": "address[]"
        }
      ],
      "stateMutability": "view",
      "type": "function"
    },
    {
      "inputs": [
        {
          "internalType": "bytes32",
          "name": "role",
          "type": "bytes32"
        },
        {
          "internalType": "address",
          "name": "account",
          "type": "address"
        }
      ],
      "name": "grantRole",
      "outputs": [],
      "stateMutability": "nonpayable",
      "type": "function"
    },
    {
      "inputs": [],
      "name": "hasFinalized",
      "outputs": [
        {
          "internalType": "bool",
          "name": "",
          "type": "bool"
        }
      ],
      "stateMutability": "view",
      "type": "function"
    },
    {
      "inputs": [],
      "name": "hasMinimumAmount",
      "outputs": [
        {
          "internalType": "bool",
          "name": "",
          "type": "bool"
        }
      ],
      "stateMutability": "view",
      "type": "function"
    },
    {
      "inputs": [],
      "name": "hasMinimumRaise",
      "outputs": [
        {
          "internalType": "bool",
          "name": "",
          "type": "bool"
        }
      ],
      "stateMutability": "view",
      "type": "function"
    },
    {
      "inputs": [
        {
          "internalType": "bytes32",
          "name": "role",
          "type": "bytes32"
        },
        {
          "internalType": "address",
          "name": "account",
          "type": "address"
        }
      ],
      "name": "hasRole",
      "outputs": [
        {
          "internalType": "bool",
          "name": "",
          "type": "bool"
        }
      ],
      "stateMutability": "view",
      "type": "function"
    },
    {
      "inputs": [],
      "name": "hasStarted",
      "outputs": [
        {
          "internalType": "bool",
          "name": "",
          "type": "bool"
        }
      ],
      "stateMutability": "view",
      "type": "function"
    },
    {
      "inputs": [],
      "name": "hasWhitelisting",
      "outputs": [
        {
          "internalType": "bool",
          "name": "",
          "type": "bool"
        }
      ],
      "stateMutability": "view",
      "type": "function"
    },
    {
      "inputs": [],
      "name": "individualMaximumAmount",
      "outputs": [
        {
          "internalType": "uint256",
          "name": "",
          "type": "uint256"
        }
      ],
      "stateMutability": "view",
      "type": "function"
    },
    {
      "inputs": [],
      "name": "individualMinimumAmount",
      "outputs": [
        {
          "internalType": "uint256",
          "name": "",
          "type": "uint256"
        }
      ],
      "stateMutability": "view",
      "type": "function"
    },
    {
      "inputs": [
        {
          "internalType": "address",
          "name": "_account",
          "type": "address"
        }
      ],
      "name": "isAddressPOLSWhitelisted",
      "outputs": [
        {
          "internalType": "bool",
          "name": "",
          "type": "bool"
        }
      ],
      "stateMutability": "view",
      "type": "function"
    },
    {
      "inputs": [
        {
          "internalType": "address",
          "name": "_address",
          "type": "address"
        }
      ],
      "name": "isBlacklisted",
      "outputs": [
        {
          "internalType": "bool",
          "name": "",
          "type": "bool"
        }
      ],
      "stateMutability": "view",
      "type": "function"
    },
    {
      "inputs": [
        {
          "internalType": "uint256",
          "name": "purchase_id",
          "type": "uint256"
        }
      ],
      "name": "isBuyer",
      "outputs": [
        {
          "internalType": "bool",
          "name": "",
          "type": "bool"
        }
      ],
      "stateMutability": "view",
      "type": "function"
    },
    {
      "inputs": [],
      "name": "isETHTrade",
      "outputs": [
        {
          "internalType": "bool",
          "name": "",
          "type": "bool"
        }
      ],
      "stateMutability": "view",
      "type": "function"
    },
    {
      "inputs": [],
      "name": "isOpen",
      "outputs": [
        {
          "internalType": "bool",
          "name": "",
          "type": "bool"
        }
      ],
      "stateMutability": "view",
      "type": "function"
    },
    {
      "inputs": [],
      "name": "isPOLSWhitelisted",
      "outputs": [
        {
          "internalType": "bool",
          "name": "",
          "type": "bool"
        }
      ],
      "stateMutability": "view",
      "type": "function"
    },
    {
      "inputs": [],
      "name": "isPreStart",
      "outputs": [
        {
          "internalType": "bool",
          "name": "",
          "type": "bool"
        }
      ],
      "stateMutability": "view",
      "type": "function"
    },
    {
      "inputs": [],
      "name": "isSaleFunded",
      "outputs": [
        {
          "internalType": "bool",
          "name": "",
          "type": "bool"
        }
      ],
      "stateMutability": "view",
      "type": "function"
    },
    {
      "inputs": [
        {
          "internalType": "address",
          "name": "_address",
          "type": "address"
        },
        {
          "internalType": "bytes",
          "name": "signature",
          "type": "bytes"
        }
      ],
      "name": "isSignerForAddress",
      "outputs": [
        {
          "internalType": "bool",
          "name": "",
          "type": "bool"
        }
      ],
      "stateMutability": "view",
      "type": "function"
    },
    {
      "inputs": [
        {
          "internalType": "bytes32",
          "name": "hash",
          "type": "bytes32"
        },
        {
          "internalType": "bytes",
          "name": "signature",
          "type": "bytes"
        }
      ],
      "name": "isSignerFromBytes32",
      "outputs": [
        {
          "internalType": "bool",
          "name": "",
          "type": "bool"
        }
      ],
      "stateMutability": "view",
      "type": "function"
    },
    {
      "inputs": [],
      "name": "isTokenSwapAtomic",
      "outputs": [
        {
          "internalType": "bool",
          "name": "",
          "type": "bool"
        }
      ],
      "stateMutability": "view",
      "type": "function"
    },
    {
      "inputs": [
        {
          "internalType": "address",
          "name": "_address",
          "type": "address"
        }
      ],
      "name": "isWhitelisted",
      "outputs": [
        {
          "internalType": "bool",
          "name": "",
          "type": "bool"
        }
      ],
      "stateMutability": "view",
      "type": "function"
    },
    {
      "inputs": [
        {
          "internalType": "address",
          "name": "_address",
          "type": "address"
        },
        {
          "internalType": "bytes",
          "name": "signature",
          "type": "bytes"
        }
      ],
      "name": "isWhitelistedWithSignature",
      "outputs": [
        {
          "internalType": "bool",
          "name": "",
          "type": "bool"
        }
      ],
      "stateMutability": "view",
      "type": "function"
    },
    {
      "inputs": [],
      "name": "minimumRaise",
      "outputs": [
        {
          "internalType": "uint256",
          "name": "",
          "type": "uint256"
        }
      ],
      "stateMutability": "view",
      "type": "function"
    },
    {
      "inputs": [],
      "name": "minimumRaiseAchieved",
      "outputs": [
        {
          "internalType": "bool",
          "name": "",
          "type": "bool"
        }
      ],
      "stateMutability": "view",
      "type": "function"
    },
    {
      "inputs": [],
      "name": "minimumRaiseNotAchieved",
      "outputs": [
        {
          "internalType": "bool",
          "name": "",
          "type": "bool"
        }
      ],
      "stateMutability": "view",
      "type": "function"
    },
    {
      "inputs": [
        {
          "internalType": "address",
          "name": "",
          "type": "address"
        },
        {
          "internalType": "uint256",
          "name": "",
          "type": "uint256"
        }
      ],
      "name": "myPurchases",
      "outputs": [
        {
          "internalType": "uint256",
          "name": "",
          "type": "uint256"
        }
      ],
      "stateMutability": "view",
      "type": "function"
    },
    {
      "inputs": [],
      "name": "paused",
      "outputs": [
        {
          "internalType": "bool",
          "name": "",
          "type": "bool"
        }
      ],
      "stateMutability": "view",
      "type": "function"
    },
    {
      "inputs": [
        {
          "internalType": "uint256",
          "name": "purchase_id",
          "type": "uint256"
        }
      ],
      "name": "purchaseExists",
      "outputs": [
        {
          "internalType": "bool",
          "name": "",
          "type": "bool"
        }
      ],
      "stateMutability": "view",
      "type": "function"
    },
    {
      "inputs": [
        {
          "internalType": "uint256",
          "name": "",
          "type": "uint256"
        }
      ],
      "name": "purchases",
      "outputs": [
        {
          "internalType": "address",
          "name": "purchaser",
          "type": "address"
        },
        {
          "internalType": "uint48",
          "name": "timestamp",
          "type": "uint48"
        },
        {
          "internalType": "bool",
          "name": "wasFinalized",
          "type": "bool"
        },
        {
          "internalType": "bool",
          "name": "reverted",
          "type": "bool"
        },
        {
          "internalType": "uint256",
          "name": "amount",
          "type": "uint256"
        },
        {
          "internalType": "uint256",
          "name": "costAmount",
          "type": "uint256"
        },
        {
          "internalType": "uint256",
          "name": "amountRedeemed",
          "type": "uint256"
        }
      ],
      "stateMutability": "view",
      "type": "function"
    },
    {
      "inputs": [
        {
          "internalType": "bytes32",
          "name": "hash",
          "type": "bytes32"
        },
        {
          "internalType": "bytes",
          "name": "signature",
          "type": "bytes"
        }
      ],
      "name": "recoverSignerAddressFromBytes32",
      "outputs": [
        {
          "internalType": "address",
          "name": "",
          "type": "address"
        }
      ],
      "stateMutability": "pure",
      "type": "function"
    },
    {
      "inputs": [
        {
          "internalType": "uint256",
          "name": "purchase_id",
          "type": "uint256"
        }
      ],
      "name": "redeemGivenMinimumGoalNotAchieved",
      "outputs": [],
      "stateMutability": "nonpayable",
      "type": "function"
    },
    {
      "inputs": [
        {
          "internalType": "uint256",
          "name": "purchase_id",
          "type": "uint256"
        }
      ],
      "name": "redeemTokens",
      "outputs": [],
      "stateMutability": "nonpayable",
      "type": "function"
    },
    {
      "inputs": [
        {
          "internalType": "address",
          "name": "_address",
          "type": "address"
        }
      ],
      "name": "removeFromBlacklist",
      "outputs": [],
      "stateMutability": "nonpayable",
      "type": "function"
    },
    {
      "inputs": [
        {
          "internalType": "address",
          "name": "_address",
          "type": "address"
        }
      ],
      "name": "removeFromWhitelist",
      "outputs": [],
      "stateMutability": "nonpayable",
      "type": "function"
    },
    {
      "inputs": [
        {
          "internalType": "address",
          "name": "_tokenAddress",
          "type": "address"
        },
        {
          "internalType": "address",
          "name": "_to",
          "type": "address"
        }
      ],
      "name": "removeOtherERC20Tokens",
      "outputs": [],
      "stateMutability": "nonpayable",
      "type": "function"
    },
    {
      "inputs": [
        {
          "internalType": "bytes32",
          "name": "role",
          "type": "bytes32"
        },
        {
          "internalType": "address",
          "name": "account",
          "type": "address"
        }
      ],
      "name": "renounceRole",
      "outputs": [],
      "stateMutability": "nonpayable",
      "type": "function"
    },
    {
      "inputs": [
        {
          "internalType": "bytes32",
          "name": "role",
          "type": "bytes32"
        },
        {
          "internalType": "address",
          "name": "account",
          "type": "address"
        }
      ],
      "name": "revokeRole",
      "outputs": [],
      "stateMutability": "nonpayable",
      "type": "function"
    },
    {
      "inputs": [],
      "name": "safePull",
      "outputs": [],
      "stateMutability": "nonpayable",
      "type": "function"
    },
    {
      "inputs": [],
      "name": "safePullETH",
      "outputs": [],
      "stateMutability": "nonpayable",
      "type": "function"
    },
    {
      "inputs": [],
      "name": "safePullSaleToken",
      "outputs": [],
      "stateMutability": "nonpayable",
      "type": "function"
    },
    {
      "inputs": [],
      "name": "safePullTradeToken",
      "outputs": [],
      "stateMutability": "nonpayable",
      "type": "function"
    },
    {
      "inputs": [
        {
          "internalType": "uint256",
          "name": "_endDate",
          "type": "uint256"
        }
      ],
      "name": "setEndDate",
      "outputs": [],
      "stateMutability": "nonpayable",
      "type": "function"
    },
    {
      "inputs": [
        {
          "internalType": "bool",
          "name": "_hasWhitelisting",
          "type": "bool"
        }
      ],
      "name": "setHasWhitelisting",
      "outputs": [],
      "stateMutability": "nonpayable",
      "type": "function"
    },
    {
      "inputs": [
        {
          "internalType": "uint256",
          "name": "_individualMaximumAmount",
          "type": "uint256"
        }
      ],
      "name": "setIndividualMaximumAmount",
      "outputs": [],
      "stateMutability": "nonpayable",
      "type": "function"
    },
    {
      "inputs": [
        {
          "internalType": "address",
          "name": "_PolsStakeAddress",
          "type": "address"
        },
        {
          "internalType": "uint256",
          "name": "_PolsStakeAmount",
          "type": "uint256"
        },
        {
          "internalType": "uint256",
          "name": "_PolsStakeRewards",
          "type": "uint256"
        }
      ],
      "name": "setPolsStakingRequirement",
      "outputs": [],
      "stateMutability": "nonpayable",
      "type": "function"
    },
    {
      "inputs": [
        {
          "internalType": "address",
          "name": "_PolsTokenAddress",
          "type": "address"
        },
        {
          "internalType": "uint256",
          "name": "_PolsTokenAmount",
          "type": "uint256"
        }
      ],
      "name": "setPolsTokenRequirement",
      "outputs": [],
      "stateMutability": "nonpayable",
      "type": "function"
    },
    {
      "inputs": [
        {
          "internalType": "address",
          "name": "_PolsUniV2Address",
          "type": "address"
        },
        {
          "internalType": "uint256",
          "name": "_PolsUniV2Amount",
          "type": "uint256"
        }
      ],
      "name": "setPolsUniV2Requirement",
      "outputs": [],
      "stateMutability": "nonpayable",
      "type": "function"
    },
    {
      "inputs": [
        {
          "internalType": "address",
          "name": "_signerPublicAddress",
          "type": "address"
        }
      ],
      "name": "setSignerPublicAddress",
      "outputs": [],
      "stateMutability": "nonpayable",
      "type": "function"
    },
    {
      "inputs": [
        {
          "internalType": "uint256",
          "name": "_startDate",
          "type": "uint256"
        }
      ],
      "name": "setStartDate",
      "outputs": [],
      "stateMutability": "nonpayable",
      "type": "function"
    },
    {
      "inputs": [
        {
          "internalType": "uint256",
          "name": "_vestingStart",
          "type": "uint256"
        },
        {
          "internalType": "uint256",
          "name": "_vestingCliff",
          "type": "uint256"
        },
        {
          "internalType": "uint256",
          "name": "_vestingDuration",
          "type": "uint256"
        },
        {
          "internalType": "uint256[]",
          "name": "_vestingSchedule",
          "type": "uint256[]"
        }
      ],
      "name": "setVesting",
      "outputs": [],
      "stateMutability": "nonpayable",
      "type": "function"
    },
    {
      "inputs": [],
      "name": "signerPublicAddress",
      "outputs": [
        {
          "internalType": "address",
          "name": "",
          "type": "address"
        }
      ],
      "stateMutability": "view",
      "type": "function"
    },
    {
      "inputs": [],
      "name": "startDate",
      "outputs": [
        {
          "internalType": "uint256",
          "name": "",
          "type": "uint256"
        }
      ],
      "stateMutability": "view",
      "type": "function"
    },
    {
      "inputs": [
        {
          "internalType": "uint256",
          "name": "_amount",
          "type": "uint256"
        },
        {
          "internalType": "bytes",
          "name": "signature",
          "type": "bytes"
        }
      ],
      "name": "swap",
      "outputs": [],
      "stateMutability": "payable",
      "type": "function"
    },
    {
      "inputs": [],
      "name": "tokensAllocated",
      "outputs": [
        {
          "internalType": "uint256",
          "name": "",
          "type": "uint256"
        }
      ],
      "stateMutability": "view",
      "type": "function"
    },
    {
      "inputs": [],
      "name": "tokensForSale",
      "outputs": [
        {
          "internalType": "uint256",
          "name": "",
          "type": "uint256"
        }
      ],
      "stateMutability": "view",
      "type": "function"
    },
    {
      "inputs": [],
      "name": "tokensLeft",
      "outputs": [
        {
          "internalType": "uint256",
          "name": "",
          "type": "uint256"
        }
      ],
      "stateMutability": "view",
      "type": "function"
    },
    {
      "inputs": [],
      "name": "totalRaiseCost",
      "outputs": [
        {
          "internalType": "uint256",
          "name": "",
          "type": "uint256"
        }
      ],
      "stateMutability": "view",
      "type": "function"
    },
    {
      "inputs": [],
      "name": "tradeValue",
      "outputs": [
        {
          "internalType": "uint256",
          "name": "",
          "type": "uint256"
        }
      ],
      "stateMutability": "view",
      "type": "function"
    },
    {
      "inputs": [],
      "name": "unsoldTokensRedeemed",
      "outputs": [
        {
          "internalType": "bool",
          "name": "",
          "type": "bool"
        }
      ],
      "stateMutability": "view",
      "type": "function"
    },
    {
      "inputs": [],
      "name": "updateFundStatus",
      "outputs": [],
      "stateMutability": "nonpayable",
      "type": "function"
    },
    {
      "inputs": [],
      "name": "vestingCliff",
      "outputs": [
        {
          "internalType": "uint256",
          "name": "",
          "type": "uint256"
        }
      ],
      "stateMutability": "view",
      "type": "function"
    },
    {
      "inputs": [],
      "name": "vestingDuration",
      "outputs": [
        {
          "internalType": "uint256",
          "name": "",
          "type": "uint256"
        }
      ],
      "stateMutability": "view",
      "type": "function"
    },
    {
      "inputs": [
        {
          "internalType": "uint256",
          "name": "",
          "type": "uint256"
        }
      ],
      "name": "vestingSchedule",
      "outputs": [
        {
          "internalType": "uint256",
          "name": "",
          "type": "uint256"
        }
      ],
      "stateMutability": "view",
      "type": "function"
    },
    {
      "inputs": [],
      "name": "vestingStart",
      "outputs": [
        {
          "internalType": "uint256",
          "name": "",
          "type": "uint256"
        }
      ],
      "stateMutability": "view",
      "type": "function"
    },
    {
      "inputs": [],
      "name": "vestingTime",
      "outputs": [
        {
          "internalType": "uint256",
          "name": "",
          "type": "uint256"
        }
      ],
      "stateMutability": "view",
      "type": "function"
    },
    {
      "inputs": [],
      "name": "withdrawFunds",
      "outputs": [],
      "stateMutability": "nonpayable",
      "type": "function"
    },
    {
      "inputs": [],
      "name": "withdrawUnsoldTokens",
      "outputs": [],
      "stateMutability": "nonpayable",
      "type": "function"
    }
  ],
  "bytecode": "0x60806040526002805460ff60a01b1916905560006016553480156200002357600080fd5b5060405162006b8738038062006b8783398181016040526102008110156200004a57600080fd5b81019080805190602001909291908051906020019092919080519060200190929190805190602001909291908051906020019092919080519060200190929190805190602001909291908051906020019092919080519060200190929190805190602001909291908051906020019092919080519060200190929190805190602001909291908051906020019092919080519060200190929190805160405193929190846401000000008211156200010157600080fd5b9083019060208201858111156200011757600080fd5b82518660208202830111640100000000821117156200013557600080fd5b82525081516020918201928201910280838360005b83811015620001645781810151838201526020016200014a565b505050509190910160405250506000805460ff1916905550506002805460ff60a01b19168782161515600160a01b810291909117909155620001c77fb813b807c25079ba97f1770664c6a9e57c59afe74a6295f1ed01c10e3bb6baae3362000512565b50620001d560003362000512565b8c42106200022a576040805162461bcd60e51b815260206004820152601960248201527f7374617274206461746520697320696e20746865207061737400000000000000604482015290519081900360640190fd5b60008e1162000274576040805162461bcd60e51b81526020600482015260116024820152706e6f20746f6b656e20666f722073616c6560781b604482015290519081900360640190fd5b8a8e1015620002ca576040805162461bcd60e51b815260206004820152601e60248201527f746f6b656e73466f7253616c65203c20696e646976696475616c206d696e0000604482015290519081900360640190fd5b8d88111562000320576040805162461bcd60e51b815260206004820152601c60248201527f6d696e696d756d5261697365203e20746f6b656e73466f7253616c6500000000604482015290519081900360640190fd5b606387111562000377576040805162461bcd60e51b815260206004820152601e60248201527f4665652050657263656e746167652068617320746f206265203c203130300000604482015290519081900360640190fd5b60088663ffffffff1610620003d3576040805162461bcd60e51b815260206004820152601560248201527f756e737570706f7274656420666c616773207365740000000000000000000000604482015290519081900360640190fd5b60158b9055620003e38a62000522565b60138d9055620003f38c620005b8565b60198e905560128f905560018616156200041a576011805460ff191660011790556200042d565b60178890556200042d84848484620006b7565b8f600e60006101000a8154816001600160a01b0302191690836001600160a01b0316021790555060006001600160a01b0316856001600160a01b0316146200048b57600f80546001600160a01b0319166001600160a01b0387161790555b6004861615620004f6576011805461ff001916610100179055620004cd7383e6f1e41cdd28eaceb20cb649155049fac3d5aa68a2a15d09519be0000062000a4f565b620004f673ffa98a091331df4600f87c9164cd27e8a5cd24056801158e460913d0000062000ac3565b5050506010939093555062000d719a5050505050505050505050565b6200051e828262000b37565b5050565b6200052f60003362000bb2565b62000570576040805162461bcd60e51b8152602060048201526019602482015260008051602062006b67833981519152604482015290519081900360640190fd5b601554811015620005b35760405162461bcd60e51b815260040180806020018281038252603181526020018062006af56031913960400191505060405180910390fd5b601655565b620005c560003362000bb2565b62000606576040805162461bcd60e51b8152602060048201526019602482015260008051602062006b67833981519152604482015290519081900360640190fd5b8042106200065b576040805162461bcd60e51b815260206004820181905260248201527f656e6420646174652068617320746f20626520696e2074686520667574757265604482015290519081900360640190fd5b8060135410620006b2576040805162461bcd60e51b815260206004820152601a60248201527f656e642064617465206265666f72652073746172742064617465000000000000604482015290519081900360640190fd5b601455565b620006c460003362000bb2565b62000705576040805162461bcd60e51b8152602060048201526019602482015260008051602062006b67833981519152604482015290519081900360640190fd5b60135442106200075c576040805162461bcd60e51b815260206004820152601a60248201527f746f6b656e2073616c6520616c72656164792073746172746564000000000000604482015290519081900360640190fd5b6014548385011015620007b6576040805162461bcd60e51b815260206004820152601b60248201527f76657374696e67436c696666206265666f726520656e64446174650000000000604482015290519081900360640190fd5b818311156200080c576040805162461bcd60e51b815260206004820152601e60248201527f76657374696e67436c696666203e2076657374696e674475726174696f6e0000604482015290519081900360640190fd5b6312cff78062000859825160001462000841576200083b6001845162000be160201b62004f3d1790919060201c565b62000844565b60015b8462000c3c60201b62004f971790919060201c565b10620008ac576040805162461bcd60e51b815260206004820152601d60248201527f746f74616c2076657374696e672074696d65203e203130207965617273000000604482015290519081900360640190fd5b601a849055601b839055601c829055620008c9601d600062000d33565b600181511062000a495760008211620009145760405162461bcd60e51b815260040180806020018281038252603481526020018062006ac16034913960400191505060405180910390fd5b6000816000815181106200092457fe5b6020026020010151905064e8d4a5100060640281106200098b576040805162461bcd60e51b815260206004820152601c60248201527f66697273742076657374696e6720706572696f64203e3d203130302500000000604482015290519081900360640190fd5b601d80546001818101835560009290925260008051602062006b26833981519152018290555b825181101562000a465762000a04838281518110620009cc57fe5b6020026020010151601d6001840381548110620009e557fe5b906000526020600020015462000be160201b62004f3d1790919060201c565b9150655af3107a4000821062000a1a5762000a46565b601d80546001818101835560009290925260008051602062006b268339815191520183905501620009b1565b50505b50505050565b62000a5c60003362000bb2565b62000a9d576040805162461bcd60e51b8152602060048201526019602482015260008051602062006b67833981519152604482015290519081900360640190fd5b600780546001600160a01b0319166001600160a01b039390931692909217909155600855565b62000ad060003362000bb2565b62000b11576040805162461bcd60e51b8152602060048201526019602482015260008051602062006b67833981519152604482015290519081900360640190fd5b600980546001600160a01b0319166001600160a01b039390931692909217909155600a55565b600082815260016020908152604090912062000b5e91839062004ff062000c9a821b17901c565b156200051e5762000b6e62000cb1565b6001600160a01b0316816001600160a01b0316837f2f8788117e7eff1d82e926ec794901d17c78024a50270940304540a733656f0d60405160405180910390a45050565b6000828152600160209081526040822062000bd89184906200500562000cb5821b17901c565b90505b92915050565b60008282018381101562000bd8576040805162461bcd60e51b815260206004820152601b60248201527f536166654d6174683a206164646974696f6e206f766572666c6f770000000000604482015290519081900360640190fd5b60008262000c4d5750600062000bdb565b8282028284828162000c5b57fe5b041462000bd85760405162461bcd60e51b815260040180806020018281038252602181526020018062006b466021913960400191505060405180910390fd5b600062000bd8836001600160a01b03841662000ccc565b3390565b600062000bd8836001600160a01b03841662000d1b565b600062000cda838362000d1b565b62000d125750815460018181018455600084815260208082209093018490558454848252828601909352604090209190915562000bdb565b50600062000bdb565b60009081526001919091016020526040902054151590565b508054600082559060005260206000209081019062000d53919062000d56565b50565b5b8082111562000d6d576000815560010162000d57565b5090565b615d408062000d816000396000f3fe6080604052600436106106315760003560e01c806382d95df511610329578063bd0fcfd1116101b6578063e4101de511610102578063f267d48c116100a0578063f64bfaba1161007a578063f64bfaba146119b1578063fce9d11b146119c6578063fe575a87146119db578063fecf415a14611a0e57610631565b8063f267d48c1461195d578063f2aa821814611972578063f3640e741461199c57610631565b8063e8b882f4116100dc578063e8b882f414611909578063eb1edd611461191e578063eee95be614611933578063efbb34d51461194857610631565b8063e4101de514611809578063e43252d71461181e578063e4a802521461185157610631565b8063ca15c8731161016f578063d47eb3d511610149578063d47eb3d5146116da578063d547741f146116ef578063dbb57ac814611728578063dc91b072146117df57610631565b8063ca15c87314611671578063ca1d209d1461169b578063d0a4a895146116c557610631565b8063bd0fcfd1146115d5578063bf135abe146115ea578063c24a0f8b146115ff578063c3ca324f14611614578063c7dab43614611647578063c8bdbfb61461165c57610631565b806396a32bc411610275578063a96c58651161022e578063b367940e11610208578063b367940e146114cd578063b8691787146114e2578063ba40a96a14611515578063bd0625ab1461152a57610631565b8063a96c586514611475578063b0b12ac31461148a578063b31f8f93146114b857610631565b806396a32bc4146113495780639d90a46e1461135e578063a001ecdd1461140c578063a1c09bf114611421578063a217fddf14611436578063a6e158f81461144b57610631565b80638e75b131116102e2578063917c854d116102bc578063917c854d14611296578063919bd930146112d157806391d14854146112fb578063948384141461133457610631565b80638e75b131146112275780639010d07c1461123c5780639097548d1461126c57610631565b806382d95df5146110f45780638392fe311461111e5780638855ccaa1461119157806388b0fe2b146111ca5780638a1a5f3f146111df5780638ab1d681146111f457610631565b80633742a9f7116104c25780635c975abb1161040e57806370a898bc116103ac57806376807e5f1161038657806376807e5f14610ffd578063785e9e8614611012578063799bb232146110275780637f7b2712146110df57610631565b806370a898bc14610fbe57806374fa05fb14610fd3578063755e3e2814610fe857610631565b806368673e7d116103e857806368673e7d14610ea757806369bb4dc214610f685780636d02802714610f7d5780636eaaabd514610f9257610631565b80635c975abb14610dbc5780636295a2f414610dd1578063658f2dfe14610de657610631565b80634089aa9a1161047b5780634588f688116104555780634588f68814610d2657806347535d7b14610d3b578063537df3b614610d505780635ac699bb14610d8357610631565b80634089aa9a14610cc957806344337ea114610cde57806344691f7e14610d1157610631565b80633742a9f714610ad45780633784f00014610b495780633abcb8e814610b735780633af32abf14610b885780633b6577c814610bbb5780633bbab17914610c6457610631565b806321710d2711610581578063273e96e91161053a5780632ebb5c1e116105145780632ebb5c1e14610a385780632f2ff15d14610a4d57806331d06af314610a8657806336568abe14610a9b57610631565b8063273e96e9146109db5780632daa8c8414610a0e5780632e15410714610a2357610631565b806321710d271461091757806321d3002a1461094857806324600fc31461095d578063248a9ca314610972578063254800d41461099c5780632593ea17146109b157610631565b80631164d20c116105ee5780631514617e116105c85780631514617e146108ae57806315b57866146108c3578063161a7b2a146108d85780631de18af7146108ed57610631565b80631164d20c146107c357806312aef8c31461088457806313430f011461089957610631565b80630274fa9814610636578063044c0cc51461067757806307662345146106a057806308abd7ff146106b55780630b97bc86146107635780630dfb6d741461078a575b600080fd5b34801561064257600080fd5b506106756004803603606081101561065957600080fd5b506001600160a01b038135169060208101359060400135611a38565b005b34801561068357600080fd5b5061068c611aab565b604080519115158252519081900360200190f35b3480156106ac57600080fd5b5061068c611abc565b3480156106c157600080fd5b50610675600480360360208110156106d857600080fd5b810190602081018135600160201b8111156106f257600080fd5b82018360208201111561070457600080fd5b803590602001918460208302840111600160201b8311171561072557600080fd5b919080806020026020016040519081016040528093929190818152602001838360200280828437600092019190915250929550611acc945050505050565b34801561076f57600080fd5b50610778611ba2565b60408051918252519081900360200190f35b34801561079657600080fd5b50610675600480360360408110156107ad57600080fd5b506001600160a01b038135169060200135611ba8565b3480156107cf57600080fd5b5061068c600480360360408110156107e657600080fd5b6001600160a01b038235169190810190604081016020820135600160201b81111561081057600080fd5b82018360208201111561082257600080fd5b803590602001918460018302840111600160201b8311171561084357600080fd5b91908080601f016020809104026020016040519081016040528093929190818152602001838380828437600092019190915250929550611c18945050505050565b34801561089057600080fd5b50610778611c49565b3480156108a557600080fd5b50610778611c4f565b3480156108ba57600080fd5b50610778611c55565b3480156108cf57600080fd5b5061068c611c5b565b3480156108e457600080fd5b5061068c611c63565b3480156108f957600080fd5b506106756004803603602081101561091057600080fd5b5035611c72565b34801561092357600080fd5b5061092c611fa4565b604080516001600160a01b039092168252519081900360200190f35b34801561095457600080fd5b5061068c611fbc565b34801561096957600080fd5b50610675611fc5565b34801561097e57600080fd5b506107786004803603602081101561099557600080fd5b50356122e9565b3480156109a857600080fd5b50610778612301565b3480156109bd57600080fd5b5061068c600480360360208110156109d457600080fd5b5035612307565b3480156109e757600080fd5b5061068c600480360360208110156109fe57600080fd5b50356001600160a01b031661230e565b348015610a1a57600080fd5b50610675612587565b348015610a2f57600080fd5b5061077861273b565b348015610a4457600080fd5b5061068c612741565b348015610a5957600080fd5b5061067560048036036040811015610a7057600080fd5b50803590602001356001600160a01b0316612749565b348015610a9257600080fd5b5061092c6127b1565b348015610aa757600080fd5b5061067560048036036040811015610abe57600080fd5b50803590602001356001600160a01b03166127c0565b348015610ae057600080fd5b50610afe60048036036020811015610af757600080fd5b5035612821565b604080519788526001600160a01b0390961660208801528686019490945265ffffffffffff909216606086015215156080850152151560a084015260c0830152519081900360e00190f35b348015610b5557600080fd5b5061067560048036036020811015610b6c57600080fd5b5035612938565b348015610b7f57600080fd5b50610778612a31565b348015610b9457600080fd5b5061068c60048036036020811015610bab57600080fd5b50356001600160a01b0316612a37565b348015610bc757600080fd5b50610be560048036036020811015610bde57600080fd5b5035612a44565b6040518083815260200180602001828103825283818151815260200191508051906020019080838360005b83811015610c28578181015183820152602001610c10565b50505050905090810190601f168015610c555780820380516001836020036101000a031916815260200191505b50935050505060405180910390f35b348015610c7057600080fd5b50610c79612e26565b60408051602080825283518183015283519192839290830191858101910280838360005b83811015610cb5578181015183820152602001610c9d565b505050509050019250505060405180910390f35b348015610cd557600080fd5b5061068c612e37565b348015610cea57600080fd5b5061067560048036036020811015610d0157600080fd5b50356001600160a01b0316612e3f565b348015610d1d57600080fd5b5061068c612ede565b348015610d3257600080fd5b5061092c612ee7565b348015610d4757600080fd5b5061068c612ef6565b348015610d5c57600080fd5b5061067560048036036020811015610d7357600080fd5b50356001600160a01b0316612f15565b348015610d8f57600080fd5b5061077860048036036040811015610da657600080fd5b506001600160a01b038135169060200135612fb3565b348015610dc857600080fd5b5061068c612fe3565b348015610ddd57600080fd5b50610778612fec565b348015610df257600080fd5b5061067560048036036080811015610e0957600080fd5b81359160208101359160408201359190810190608081016060820135600160201b811115610e3657600080fd5b820183602082011115610e4857600080fd5b803590602001918460208302840111600160201b83111715610e6957600080fd5b919080806020026020016040519081016040528093929190818152602001838360200280828437600092019190915250929550612ff2945050505050565b348015610eb357600080fd5b5061068c60048036036040811015610eca57600080fd5b6001600160a01b038235169190810190604081016020820135600160201b811115610ef457600080fd5b820183602082011115610f0657600080fd5b803590602001918460018302840111600160201b83111715610f2757600080fd5b91908080601f016020809104026020016040519081016040528093929190818152602001838380828437600092019190915250929550613370945050505050565b348015610f7457600080fd5b506107786133af565b348015610f8957600080fd5b50610c7961342b565b348015610f9e57600080fd5b5061067560048036036020811015610fb557600080fd5b50351515613437565b348015610fca57600080fd5b5061068c6134e1565b348015610fdf57600080fd5b5061068c6134e9565b348015610ff457600080fd5b506107786134f3565b34801561100957600080fd5b506106756134f9565b34801561101e57600080fd5b5061092c613593565b34801561103357600080fd5b5061092c6004803603604081101561104a57600080fd5b81359190810190604081016020820135600160201b81111561106b57600080fd5b82018360208201111561107d57600080fd5b803590602001918460018302840111600160201b8311171561109e57600080fd5b91908080601f0160208091040260200160405190810160405280939291908181526020018383808284376000920191909152509295506135a2945050505050565b3480156110eb57600080fd5b5061077861360d565b34801561110057600080fd5b506106756004803603602081101561111757600080fd5b5035613616565b34801561112a57600080fd5b506111486004803603602081101561114157600080fd5b50356136f9565b604080516001600160a01b03909816885265ffffffffffff9096166020880152931515868601529115156060860152608085015260a084015260c0830152519081900360e00190f35b34801561119d57600080fd5b50610675600480360360408110156111b457600080fd5b506001600160a01b038135169060200135613760565b3480156111d657600080fd5b506106756137d0565b3480156111eb57600080fd5b506107786138bb565b34801561120057600080fd5b506106756004803603602081101561121757600080fd5b50356001600160a01b03166138f6565b34801561123357600080fd5b50610778613994565b34801561124857600080fd5b5061092c6004803603604081101561125f57600080fd5b508035906020013561399a565b34801561127857600080fd5b506107786004803603602081101561128f57600080fd5b50356139b2565b3480156112a257600080fd5b50610675600480360360408110156112b957600080fd5b506001600160a01b0381358116916020013516613a48565b3480156112dd57600080fd5b50610778600480360360208110156112f457600080fd5b5035613c2d565b34801561130757600080fd5b5061068c6004803603604081101561131e57600080fd5b50803590602001356001600160a01b0316613c4e565b34801561134057600080fd5b5061068c613c66565b34801561135557600080fd5b50610675613c76565b34801561136a57600080fd5b506106756004803603602081101561138157600080fd5b810190602081018135600160201b81111561139b57600080fd5b8201836020820111156113ad57600080fd5b803590602001918460208302840111600160201b831117156113ce57600080fd5b919080806020026020016040519081016040528093929190818152602001838360200280828437600092019190915250929550613d3c945050505050565b34801561141857600080fd5b50610778613e11565b34801561142d57600080fd5b50610778613e17565b34801561144257600080fd5b50610778613e1d565b34801561145757600080fd5b506106756004803603602081101561146e57600080fd5b5035613e22565b34801561148157600080fd5b50610778614129565b34801561149657600080fd5b5061149f61412f565b6040805163ffffffff9092168252519081900360200190f35b3480156114c457600080fd5b50610778614136565b3480156114d957600080fd5b5061068c614140565b3480156114ee57600080fd5b506106756004803603602081101561150557600080fd5b50356001600160a01b031661414b565b34801561152157600080fd5b5061092c6141c4565b6106756004803603604081101561154057600080fd5b81359190810190604081016020820135600160201b81111561156157600080fd5b82018360208201111561157357600080fd5b803590602001918460018302840111600160201b8311171561159457600080fd5b91908080601f0160208091040260200160405190810160405280939291908181526020018383808284376000920191909152509295506141d3945050505050565b3480156115e157600080fd5b5061092c61487b565b3480156115f657600080fd5b5061092c614893565b34801561160b57600080fd5b506107786148a2565b34801561162057600080fd5b50610c796004803603602081101561163757600080fd5b50356001600160a01b03166148a8565b34801561165357600080fd5b50610778614912565b34801561166857600080fd5b5061067561492e565b34801561167d57600080fd5b506107786004803603602081101561169457600080fd5b5035614a30565b3480156116a757600080fd5b50610675600480360360208110156116be57600080fd5b5035614a47565b3480156116d157600080fd5b5061068c614b28565b3480156116e657600080fd5b5061092c614b36565b3480156116fb57600080fd5b506106756004803603604081101561171257600080fd5b50803590602001356001600160a01b0316614b45565b34801561173457600080fd5b506117526004803603602081101561174b57600080fd5b5035614b9e565b6040518085815260200184815260200183815260200180602001828103825283818151815260200191508051906020019080838360005b838110156117a1578181015183820152602001611789565b50505050905090810190601f1680156117ce5780820380516001836020036101000a031916815260200191505b509550505050505060405180910390f35b3480156117eb57600080fd5b506106756004803603602081101561180257600080fd5b5035614c4b565b34801561181557600080fd5b50610778614cdb565b34801561182a57600080fd5b506106756004803603602081101561184157600080fd5b50356001600160a01b0316614ce1565b34801561185d57600080fd5b5061068c6004803603604081101561187457600080fd5b81359190810190604081016020820135600160201b81111561189557600080fd5b8201836020820111156118a757600080fd5b803590602001918460018302840111600160201b831117156118c857600080fd5b91908080601f016020809104026020016040519081016040528093929190818152602001838380828437600092019190915250929550614d7f945050505050565b34801561191557600080fd5b50610778614da9565b34801561192a57600080fd5b5061092c614dbb565b34801561193f57600080fd5b50610675614dd3565b34801561195457600080fd5b50610778614e4f565b34801561196957600080fd5b50610778614e5c565b34801561197e57600080fd5b5061092c6004803603602081101561199557600080fd5b5035614e62565b3480156119a857600080fd5b50610778614e8c565b3480156119bd57600080fd5b50610c79614e92565b3480156119d257600080fd5b50610c79614ef4565b3480156119e757600080fd5b5061068c600480360360208110156119fe57600080fd5b50356001600160a01b0316614eff565b348015611a1a57600080fd5b5061068c60048036036020811015611a3157600080fd5b5035614f0c565b611a43600033613c4e565b611a82576040805162461bcd60e51b81526020600482015260196024820152600080516020615cbc833981519152604482015290519081900360640190fd5b600b80546001600160a01b0319166001600160a01b039490941693909317909255600c55600d55565b600f546001600160a01b0316155b90565b600254600160a01b900460ff1681565b611ae4600080516020615c5283398151915233613c4e565b611b23576040805162461bcd60e51b815260206004820152601c6024820152600080516020615b7f833981519152604482015290519081900360640190fd5b6000805b8251811015611b6b57611b57838281518110611b3f57fe5b60200260200101516003614ff090919063ffffffff16565b15611b63576001909101905b600101611b27565b508015611b9e5760405181907f448f3bd350ede14a294c062177c5280fe1eae125d16757da21f5f51d6e89daae90600090a25b5050565b60135481565b611bb3600033613c4e565b611bf2576040805162461bcd60e51b81526020600482015260196024820152600080516020615cbc833981519152604482015290519081900360640190fd5b600980546001600160a01b0319166001600160a01b039390931692909217909155600a55565b6002546000906001600160a01b038085169116611c3582856135a2565b6001600160a01b0316149150505b92915050565b60195481565b600c5481565b601c5481565b601754151590565b60115462010000900460ff1681565b611c7a612e37565b611cb9576040805162461bcd60e51b81526020600482015260186024820152600080516020615c72833981519152604482015290519081900360640190fd5b60115460ff1615611d11576040805162461bcd60e51b815260206004820152601e60248201527f73616c652068617320746f206265206e6f6e2041746f6d696320737761700000604482015290519081900360640190fd5b611d1a81614f0c565b611d62576040805162461bcd60e51b815260206004820152601460248201527330b2323932b9b99034b9903737ba10313abcb2b960611b604482015290519081900360640190fd5b611d6a611c5b565b611dbb576040805162461bcd60e51b815260206004820152601d60248201527f6e6f206d696e696d756d20726169736520686173206265656e20736574000000604482015290519081900360640190fd5b611dc36134e9565b611e14576040805162461bcd60e51b815260206004820152601e60248201527f6d696e696d756d20726169736520686173206265656e20726561636865640000604482015290519081900360640190fd5b6000601e8281548110611e2357fe5b906000526020600020906004020190506000816001015411611e8c576040805162461bcd60e51b815260206004820152601760248201527f707572636861736520616d6f756e74206973207a65726f000000000000000000604482015290519081900360640190fd5b8054600160d01b900460ff1615611ee2576040805162461bcd60e51b81526020600482015260156024820152741c1d5c98da185cd9481a5cc8199a5b985b1a5e9959605a1b604482015290519081900360640190fd5b805460ff60d81b1960ff60d01b19909116600160d01b1716600160d81b178155611f0a611aab565b15611f6c57336001600160a01b03166108fc601e8481548110611f2957fe5b9060005260206000209060040201600201549081150290604051600060405180830381858888f19350505050158015611f66573d6000803e3d6000fd5b50611b9e565b611b9e33601e8481548110611f7d57fe5b6000918252602090912060026004909202010154600f546001600160a01b0316919061501a565b73ffa98a091331df4600f87c9164cd27e8a5cd240581565b60115460ff1681565b611fd0600033613c4e565b61200f576040805162461bcd60e51b81526020600482015260196024820152600080516020615cbc833981519152604482015290519081900360640190fd5b612017612fe3565b1561205c576040805162461bcd60e51b815260206004820152601060248201526f14185d5cd8589b194e881c185d5cd95960821b604482015290519081900360640190fd5b612064612e37565b6120a3576040805162461bcd60e51b81526020600482015260186024820152600080516020615c72833981519152604482015290519081900360640190fd5b6120ab614140565b6120f8576040805162461bcd60e51b81526020600482015260196024820152781b5a5b9a5b5d5b481c985a5cd9481b9bdd081c995858da1959603a1b604482015290519081900360640190fd5b612100611aab565b156121a15773aeb39b67f27b641ef9f95fb74f1a46b1ee4efc836001600160a01b03166108fc612146606461214060105447614f9790919063ffffffff16565b90615071565b6040518115909202916000818181858888f1935050505015801561216e573d6000803e3d6000fd5b5060405133904780156108fc02916000818181858888f1935050505015801561219b573d6000803e3d6000fd5b506122e7565b601054600f54604080516370a0823160e01b815230600482015290516122579373aeb39b67f27b641ef9f95fb74f1a46b1ee4efc83936122449360649361214093926001600160a01b0316916370a08231916024808301926020929190829003018186803b15801561221257600080fd5b505afa158015612226573d6000803e3d6000fd5b505050506040513d602081101561223c57600080fd5b505190614f97565b600f546001600160a01b0316919061501a565b600f54604080516370a0823160e01b815230600482015290516122e79233926001600160a01b03909116916370a0823191602480820192602092909190829003018186803b1580156122a857600080fd5b505afa1580156122bc573d6000803e3d6000fd5b505050506040513d60208110156122d257600080fd5b5051600f546001600160a01b0316919061501a565b565b6000818152600160205260409020600201545b919050565b601a5481565b601e541190565b601154600090610100900460ff16612328575060016122fc565b600b546001600160a01b03161561244b57600c54600b54604080516370a0823160e01b81526001600160a01b038681166004830152915191909216916370a08231916024808301926020929190829003018186803b15801561238957600080fd5b505afa15801561239d573d6000803e3d6000fd5b505050506040513d60208110156123b357600080fd5b5051106123c2575060016122fc565b600d54600b546040805163f6a3f3cf60e01b81526001600160a01b0386811660048301529151919092169163f6a3f3cf916024808301926020929190829003018186803b15801561241257600080fd5b505afa158015612426573d6000803e3d6000fd5b505050506040513d602081101561243c57600080fd5b50511061244b575060016122fc565b6009546001600160a01b0316156124e557600a54600954604080516370a0823160e01b81526001600160a01b038681166004830152915191909216916370a08231916024808301926020929190829003018186803b1580156124ac57600080fd5b505afa1580156124c0573d6000803e3d6000fd5b505050506040513d60208110156124d657600080fd5b5051106124e5575060016122fc565b6007546001600160a01b03161561257f57600854600754604080516370a0823160e01b81526001600160a01b038681166004830152915191909216916370a08231916024808301926020929190829003018186803b15801561254657600080fd5b505afa15801561255a573d6000803e3d6000fd5b505050506040513d602081101561257057600080fd5b50511061257f575060016122fc565b506000919050565b612592600033613c4e565b6125d1576040805162461bcd60e51b81526020600482015260196024820152600080516020615cbc833981519152604482015290519081900360640190fd5b6125d9612fe3565b612621576040805162461bcd60e51b815260206004820152601460248201527314185d5cd8589b194e881b9bdd081c185d5cd95960621b604482015290519081900360640190fd5b60405133904780156108fc02916000818181858888f1935050505015801561264d573d6000803e3d6000fd5b50600e54604080516370a0823160e01b815230600482015290516126de9233926001600160a01b03909116916370a0823191602480820192602092909190829003018186803b15801561269f57600080fd5b505afa1580156126b3573d6000803e3d6000fd5b505050506040513d60208110156126c957600080fd5b5051600e546001600160a01b0316919061501a565b6126e6611aab565b6122e757600f54604080516370a0823160e01b815230600482015290516122e79233926001600160a01b03909116916370a0823191602480820192602092909190829003018186803b1580156122a857600080fd5b60155481565b601354421090565b60008281526001602052604090206002015461276c906127676150d8565b613c4e565b6127a75760405162461bcd60e51b815260040180806020018281038252602f815260200180615a51602f913960400191505060405180910390fd5b611b9e82826150dc565b600b546001600160a01b031681565b6127c86150d8565b6001600160a01b0316816001600160a01b0316146128175760405162461bcd60e51b815260040180806020018281038252602f815260200180615cdc602f913960400191505060405180910390fd5b611b9e8282615145565b600080600080600080600061283588612307565b612883576040805162461bcd60e51b815260206004820152601a6024820152791c1d5c98da185cd957da5908191bd95cc81b9bdd08195e1a5cdd60321b604482015290519081900360640190fd5b6000601e898154811061289257fe5b60009182526020918290206040805160e08101825260049390930290910180546001600160a01b03811680855265ffffffffffff600160a01b83041695850186905260ff600160d01b830481161515948601859052600160d81b909204909116151560608501819052600183015460808601819052600284015460a0870181905260039094015460c09096018690529f919e50919c50939a509098509650945092505050565b612943600033613c4e565b612982576040805162461bcd60e51b81526020600482015260196024820152600080516020615cbc833981519152604482015290519081900360640190fd5b8042106129d6576040805162461bcd60e51b815260206004820181905260248201527f656e6420646174652068617320746f20626520696e2074686520667574757265604482015290519081900360640190fd5b8060135410612a2c576040805162461bcd60e51b815260206004820152601a60248201527f656e642064617465206265666f72652073746172742064617465000000000000604482015290519081900360640190fd5b601455565b600a5481565b6000611c43600383615005565b60006060612a5183612307565b612a9057505060408051808201909152601a8152791c1d5c98da185cd957da5908191bd95cc81b9bdd08195e1a5cdd60321b6020820152600090612e21565b60115460ff1615612ad957505060408051808201909152601981527f68617320746f206265206e6f6e2041746f6d69632073776170000000000000006020820152600090612e21565b612ae1612e37565b612b2357505060408051808201909152601881527f746f6b656e2073616c65206e6f742066696e616c697a656400000000000000006020820152600090612e21565b612b2b612fe3565b15612b6e57505060408051808201909152601d81527f746f6b656e2073616c6520636f6e7472616374206973207061757365640000006020820152600090612e21565b612b766134e9565b15612bb55750506040805180820190915260198152781b5a5b9a5b5d5b481c985a5cd9481b9bdd081c995858da1959603a1b6020820152600090612e21565b6000601e8481548110612bc457fe5b90600052602060002090600402016001015490506000601e8581548110612be757fe5b9060005260206000209060040201600301549050818110612c455760006040518060400160405280601a81526020017f616c6c20746f6b656e20616c72656164792072656465656d6564000000000000815250935093505050612e21565b601a54421015612c925760006040518060400160405280601e81526020017f76657374696e6720706572696f64206e6f742079657420737461727465640000815250935093505050612e21565b601b54601a5401421015612ce35760006040518060400160405280601d81526020017f76657374696e6720636c696666206e6f74207965742072656163686564000000815250935093505050612e21565b601d54600090612d3a5742601c54601a540111612d0b57612d0483836151ae565b9050612d35565b612d3282612d2c601c54612140601a54420388614f9790919063ffffffff16565b906151ae565b90505b612df3565b6000601c54601a54420381612d4b57fe5b601d5491900491508110612d6a57612d6384846151ae565b9150612df1565b6000612da264e8d4a51000606402612140601d8581548110612d8857fe5b906000526020600020015488614f9790919063ffffffff16565b905083811015612de35760405162461bcd60e51b815260040180806020018281038252602c815260200180615c26602c913960400191505060405180910390fd5b612ded81856151ae565b9250505b505b60408051808201909152600f81526e726561647920746f2072656465656d60881b6020820152909450925050505b915091565b6060612e32600561520b565b905090565b601454421190565b612e57600080516020615c5283398151915233613c4e565b612e96576040805162461bcd60e51b815260206004820152601c6024820152600080516020615b7f833981519152604482015290519081900360640190fd5b612ea1600582614ff0565b15612edb576040516001600160a01b038216907ff9b68063b051b82957fa193585681240904fed808db8b30fc5a2d2202c6ed62790600090a25b50565b60135442101590565b6009546001600160a01b031681565b6000612f00612ede565b8015612e325750612f0f612e37565b15905090565b612f2d600080516020615c5283398151915233613c4e565b612f6c576040805162461bcd60e51b815260206004820152601c6024820152600080516020615b7f833981519152604482015290519081900360640190fd5b612f776005826152ab565b15612edb576040516001600160a01b038216907f2b6bf71b58b3583add364b3d9060ebf8019650f65f5be35f5464b9cb3e4ba2d490600090a250565b602080528160005260406000208181548110612fce57600080fd5b90600052602060002001600091509150505481565b60005460ff1690565b60125481565b612ffd600033613c4e565b61303c576040805162461bcd60e51b81526020600482015260196024820152600080516020615cbc833981519152604482015290519081900360640190fd5b6013544210613092576040805162461bcd60e51b815260206004820152601a60248201527f746f6b656e2073616c6520616c72656164792073746172746564000000000000604482015290519081900360640190fd5b60145483850110156130eb576040805162461bcd60e51b815260206004820152601b60248201527f76657374696e67436c696666206265666f726520656e64446174650000000000604482015290519081900360640190fd5b81831115613140576040805162461bcd60e51b815260206004820152601e60248201527f76657374696e67436c696666203e2076657374696e674475726174696f6e0000604482015290519081900360640190fd5b6312cff78061316d825160001461316357825161315e906001614f3d565b613166565b60015b8490614f97565b106131bf576040805162461bcd60e51b815260206004820152601d60248201527f746f74616c2076657374696e672074696d65203e203130207965617273000000604482015290519081900360640190fd5b601a849055601b839055601c8290556131da601d6000615a00565b600181511061336a57600082116132225760405162461bcd60e51b8152600401808060200182810382526034815260200180615a806034913960400191505060405180910390fd5b60008160008151811061323157fe5b6020026020010151905064e8d4a510006064028110613297576040805162461bcd60e51b815260206004820152601c60248201527f66697273742076657374696e6720706572696f64203e3d203130302500000000604482015290519081900360640190fd5b601d8054600181810183556000929092527f6d4407e7be21f808e6509aa9fa9143369579dd7d760fe20a2c09680fc146134f018290555b8251811015613367576133178382815181106132e657fe5b6020026020010151601d60018403815481106132fe57fe5b9060005260206000200154614f3d90919063ffffffff16565b9150655af3107a4000821061332b57613367565b601d8054600181810183556000929092527f6d4407e7be21f808e6509aa9fa9143369579dd7d760fe20a2c09680fc146134f01839055016132ce565b50505b50505050565b600061337b83614eff565b1561338857506000611c43565b61339183612a37565b1561339e57506001611c43565b6133a88383611c18565b9392505050565b600e54604080516370a0823160e01b815230600482015290516000926001600160a01b0316916370a08231916024808301926020929190829003018186803b1580156133fa57600080fd5b505afa15801561340e573d6000803e3d6000fd5b505050506040513d602081101561342457600080fd5b5051905090565b6060612e32600361520b565b61344f600080516020615c5283398151915233613c4e565b61348e576040805162461bcd60e51b815260206004820152601c6024820152600080516020615b7f833981519152604482015290519081900360640190fd5b60028054821515600160a01b810260ff60a01b199092169190911790915560408051918252517fe905f7f52156c346547b9deb6fb3e2459db941ec55d073fd465129bf4b49fae69181900360200190a150565b601554151590565b6017546018541090565b60185481565b613504600033613c4e565b613543576040805162461bcd60e51b81526020600482015260196024820152600080516020615cbc833981519152604482015290519081900360640190fd5b61354b612fe3565b612257576040805162461bcd60e51b815260206004820152601460248201527314185d5cd8589b194e881b9bdd081c185d5cd95960621b604482015290519081900360640190fd5b600e546001600160a01b031681565b600081516041146135fa576040805162461bcd60e51b815260206004820152601960248201527f7369676e6174757265206973206e6f7420363520627974657300000000000000604482015290519081900360640190fd5b6133a882613607856152c0565b90615311565b64e8d4a5100081565b613621600033613c4e565b613660576040805162461bcd60e51b81526020600482015260196024820152600080516020615cbc833981519152604482015290519081900360640190fd5b80421061369e5760405162461bcd60e51b8152600401808060200182810382526022815260200180615ab46022913960400191505060405180910390fd5b60145481106136f4576040805162461bcd60e51b815260206004820152601a60248201527f656e642064617465206265666f72652073746172742064617465000000000000604482015290519081900360640190fd5b601355565b601e818154811061370957600080fd5b600091825260209091206004909102018054600182015460028301546003909301546001600160a01b038316945065ffffffffffff600160a01b8404169360ff600160d01b8504811694600160d81b900416929187565b61376b600033613c4e565b6137aa576040805162461bcd60e51b81526020600482015260196024820152600080516020615cbc833981519152604482015290519081900360640190fd5b600780546001600160a01b0319166001600160a01b039390931692909217909155600855565b6137db600033613c4e565b61381a576040805162461bcd60e51b81526020600482015260196024820152600080516020615cbc833981519152604482015290519081900360640190fd5b613822612fe3565b61386a576040805162461bcd60e51b815260206004820152601460248201527314185d5cd8589b194e881b9bdd081c185d5cd95960621b604482015290519081900360640190fd5b600e54604080516370a0823160e01b815230600482015290516122e79233926001600160a01b03909116916370a0823191602480820192602092909190829003018186803b15801561269f57600080fd5b6000601a544210156138cf57506000611ab9565b601c546138de57506001611ab9565b601c54601a544203816138ed57fe5b04600101905090565b61390e600080516020615c5283398151915233613c4e565b61394d576040805162461bcd60e51b815260206004820152601c6024820152600080516020615b7f833981519152604482015290519081900360640190fd5b6139586003826152ab565b15612edb576040516001600160a01b038216907fcdd2e9b91a56913d370075169cefa1602ba36be5301664f752192bb1709df75790600090a250565b60175481565b60008281526001602052604081206133a89083615391565b6000611c43600e60009054906101000a90046001600160a01b03166001600160a01b031663313ce5676040518163ffffffff1660e01b815260040160206040518083038186803b158015613a0557600080fd5b505afa158015613a19573d6000803e3d6000fd5b505050506040513d6020811015613a2f57600080fd5b505160125460ff909116600a0a90612140908590614f97565b613a53600033613c4e565b613a92576040805162461bcd60e51b81526020600482015260196024820152600080516020615cbc833981519152604482015290519081900360640190fd5b613a9a612e37565b613ad9576040805162461bcd60e51b81526020600482015260186024820152600080516020615c72833981519152604482015290519081900360640190fd5b600e546001600160a01b0383811691161415613b3c576040805162461bcd60e51b815260206004820152601b60248201527f746f6b656e2069732074686520746f6b656e20666f722073616c650000000000604482015290519081900360640190fd5b600f546001600160a01b0383811691161415613b9f576040805162461bcd60e51b815260206004820152601b60248201527f746f6b656e206973207468652074726164652d696e20746f6b656e0000000000604482015290519081900360640190fd5b611b9e81836001600160a01b03166370a08231306040518263ffffffff1660e01b815260040180826001600160a01b0316815260200191505060206040518083038186803b158015613bf057600080fd5b505afa158015613c04573d6000803e3d6000fd5b505050506040513d6020811015613c1a57600080fd5b50516001600160a01b038516919061501a565b601d8181548110613c3d57600080fd5b600091825260209091200154905081565b60008281526001602052604081206133a89083615005565b6011546301000000900460ff1681565b613c81600033613c4e565b613cc0576040805162461bcd60e51b81526020600482015260196024820152600080516020615cbc833981519152604482015290519081900360640190fd5b613cc8612fe3565b613d10576040805162461bcd60e51b815260206004820152601460248201527314185d5cd8589b194e881b9bdd081c185d5cd95960621b604482015290519081900360640190fd5b60405133904780156108fc02916000818181858888f19350505050158015612edb573d6000803e3d6000fd5b613d54600080516020615c5283398151915233613c4e565b613d93576040805162461bcd60e51b815260206004820152601c6024820152600080516020615b7f833981519152604482015290519081900360640190fd5b6000805b8251811015613ddb57613dc7838281518110613daf57fe5b60200260200101516005614ff090919063ffffffff16565b15613dd3576001909101905b600101613d97565b508015611b9e5760405181907fc2f03ca34d335e49d4d629b85db054d1ffb679b4fec2e06fe10d0e618b175ecb90600090a25050565b60105481565b601e5490565b600081565b60115460ff1615613e7a576040805162461bcd60e51b815260206004820152601e60248201527f73616c652068617320746f206265206e6f6e2041746f6d696320737761700000604482015290519081900360640190fd5b613e82612e37565b613ec1576040805162461bcd60e51b81526020600482015260186024820152600080516020615c72833981519152604482015290519081900360640190fd5b613ec9612fe3565b15613f0e576040805162461bcd60e51b815260206004820152601060248201526f14185d5cd8589b194e881c185d5cd95960821b604482015290519081900360640190fd5b613f1781614f0c565b613f5f576040805162461bcd60e51b815260206004820152601460248201527320b2323932b9b99034b9903737ba10313abcb2b960611b604482015290519081900360640190fd5b600080613f6b83612a44565b91509150600082118190613ffd5760405162461bcd60e51b81526004018080602001828103825283818151815260200191508051906020019080838360005b83811015613fc2578181015183820152602001613faa565b50505050905090810190601f168015613fef5780820380516001836020036101000a031916815260200191505b509250505060405180910390fd5b506000601e848154811061400d57fe5b90600052602060002090600402016001015490506000601e858154811061403057fe5b9060005260206000209060040201600301549050816140588583614f3d90919063ffffffff16565b11156140955760405162461bcd60e51b8152600401808060200182810382526044815260200180615be26044913960600191505060405180910390fd5b816140a08286614f3d565b14156140e0576001601e86815481106140b557fe5b600091825260209091206004909102018054911515600160d01b0260ff60d01b199092169190911790555b6140ea8185614f3d565b601e86815481106140f757fe5b6000918252602090912060036004909202010155600e54614122906001600160a01b0316338661501a565b5050505050565b60085481565b622932e090565b6018546019540390565b601754601854101590565b614163600080516020615c5283398151915233613c4e565b6141a2576040805162461bcd60e51b815260206004820152601c6024820152600080516020615b7f833981519152604482015290519081900360640190fd5b600280546001600160a01b0319166001600160a01b0392909216919091179055565b6002546001600160a01b031681565b6141db612fe3565b15614220576040805162461bcd60e51b815260206004820152601060248201526f14185d5cd8589b194e881c185d5cd95960821b604482015290519081900360640190fd5b60115462010000900460ff1661427d576040805162461bcd60e51b815260206004820152601860248201527f746f6b656e2073616c65206973206e6f742066756e6465640000000000000000604482015290519081900360640190fd5b614285612ef6565b6142cc576040805162461bcd60e51b815260206004820152601360248201527239b0b632903430b9903a379031329037b832b760691b604482015290519081900360640190fd5b6002548190600160a01b900460ff161561439d576002546001600160a01b031661434f576142f933612a37565b61434a576040805162461bcd60e51b815260206004820152601960248201527f6e6f74206f6e206f6e2d636861696e2077686974656c69737400000000000000604482015290519081900360640190fd5b61439d565b6143593382613370565b61439d576040805162461bcd60e51b815260206004820152601060248201526f1b9bdd081bdb881dda1a5d195b1a5cdd60821b604482015290519081900360640190fd5b60006143a83361230e565b6143f9576040805162461bcd60e51b815260206004820181905260248201527f61646472657373206e6f742077686974656c697374656420666f7220504f4c53604482015290519081900360640190fd5b614401611aab565b15614460575034614411846139b2565b81101561445b576040805162461bcd60e51b81526020600482015260136024820152721b9bdd08195b9bdd59da08115512081cd95b9d606a1b604482015290519081900360640190fd5b614484565b614469846139b2565b600f54909150614484906001600160a01b031633308461539d565b61448c614136565b8411156144e0576040805162461bcd60e51b815260206004820152601960248201527f616d6f756e74203e20746f6b656e7320617661696c61626c6500000000000000604482015290519081900360640190fd5b601554841015614537576040805162461bcd60e51b815260206004820152601760248201527f616d6f756e74203c206d696e696d756d20616d6f756e74000000000000000000604482015290519081900360640190fd5b60165484111561458e576040805162461bcd60e51b815260206004820152601760248201527f616d6f756e74203e206d6178696d756d20616d6f756e74000000000000000000604482015290519081900360640190fd5b33600090815260208080526040808320805482518185028101850190935280835291929091908301828280156145e357602002820191906000526020600020905b8154815260200190600101908083116145cf575b505050505090506000805b82518110156146455761463b601e84838151811061460857fe5b60200260200101518154811061461a57fe5b90600052602060002090600402016001015483614f3d90919063ffffffff16565b91506001016145ee565b506016546146538288614f3d565b11156146a6576040805162461bcd60e51b815260206004820152601f60248201527f616d6f756e7420676f6573206f76657220696e646976696475616c206d617800604482015290519081900360640190fd5b60115460ff16156146c857600e546146c8906001600160a01b0316338861501a565b601e6040518060e00160405280336001600160a01b031681526020016146ed426153f7565b65ffffffffffff908116825260115460ff1615156020808401919091526000604080850182905260608086018e905260808087018c905260a0968701849052885460018181018b55998552858520895160049092020180548a8801518b870151958c01511515600160d81b0260ff60d81b19961515600160d01b0260ff60d01b1992909b16600160a01b0265ffffffffffff60a01b196001600160a01b039096166001600160a01b03199485161795909516949094171698909817939093161782558701518189015594860151600286015560c09095015160039094019390935533808452818052938320601e548154808801835591855291842060001992909201910155601f805494850181559091527fa03837a25210ee280c2113ff4b77ca23440b19d4866cca721c801278fd08d80790920180549092161790556018546148379087614f3d565b60185560408051878152426020820152815133927fbec109f7ee137de661c6887caa96653c0545050a9908a3b6eb5190440bbec864928290030190a2505050505050565b7383e6f1e41cdd28eaceb20cb649155049fac3d5aa81565b600f546001600160a01b031681565b60145481565b6001600160a01b0381166000908152602080805260409182902080548351818402810184019094528084526060939283018282801561490657602002820191906000526020600020905b8154815260200190600101908083116148f2575b50505050509050919050565b601d5460009061492457506000611ab9565b50601d5460010190565b614939600033613c4e565b614978576040805162461bcd60e51b81526020600482015260196024820152600080516020615cbc833981519152604482015290519081900360640190fd5b614980612e37565b6149bf576040805162461bcd60e51b81526020600482015260186024820152600080516020615c72833981519152604482015290519081900360640190fd5b6011546301000000900460ff16156149d657600080fd5b60006149e06134e9565b156149ee5750601954614a00565b6018546019546149fd916151ae565b90505b8015612edb576011805463ff00000019166301000000179055600e54612edb906001600160a01b0316338361501a565b6000818152600160205260408120611c4390615458565b614a4f612741565b614aa0576040805162461bcd60e51b815260206004820152601a60248201527f6e6f74206265666f72652073746172742074696d652f64617465000000000000604482015290519081900360640190fd5b601954614ab582614aaf6133af565b90614f3d565b1115614b08576040805162461bcd60e51b815260206004820181905260248201527f6d6f726520746f6b656e73207468616e206e656564656420666f722073616c65604482015290519081900360640190fd5b600e54614b20906001600160a01b031633308461539d565b612edb614dd3565b601154610100900460ff1681565b6007546001600160a01b031681565b600082815260016020526040902060020154614b63906127676150d8565b6128175760405162461bcd60e51b8152600401808060200182810382526030815260200180615b4f6030913960400191505060405180910390fd5b60008060006060614bae85612307565b614bf357505060408051808201909152601a8152791c1d5c98da185cd957da5908191bd95cc81b9bdd08195e1a5cdd60321b6020820152600092508291508190614c44565b601e8581548110614c0057fe5b9060005260206000209060040201600101549350601e8581548110614c2157fe5b9060005260206000209060040201600301549250614c3e85612a44565b90925090505b9193509193565b614c56600033613c4e565b614c95576040805162461bcd60e51b81526020600482015260196024820152600080516020615cbc833981519152604482015290519081900360640190fd5b601554811015614cd65760405162461bcd60e51b8152600401808060200182810382526031815260200180615ad66031913960400191505060405180910390fd5b601655565b60165481565b614cf9600080516020615c5283398151915233613c4e565b614d38576040805162461bcd60e51b815260206004820152601c6024820152600080516020615b7f833981519152604482015290519081900360640190fd5b614d43600382614ff0565b15612edb576040516001600160a01b038216907fa850ae9193f515cbae8d35e8925bd2be26627fc91bce650b8652ed254e9cab0390600090a250565b6002546000906001600160a01b0316614d9884846135a2565b6001600160a01b0316149392505050565b600080516020615c5283398151915281565b73aeb39b67f27b641ef9f95fb74f1a46b1ee4efc8381565b614ddb612741565b614e2c576040805162461bcd60e51b815260206004820152601a60248201527f6e6f74206265666f72652073746172742074696d652f64617465000000000000604482015290519081900360640190fd5b601954614e376133af565b106122e7576011805462ff0000191662010000179055565b6000612e326019546139b2565b600d5481565b601f8181548110614e7257600080fd5b6000918252602090912001546001600160a01b0316905081565b601b5481565b6060601f805480602002602001604051908101604052809291908181526020018280548015614eea57602002820191906000526020600020905b81546001600160a01b03168152600190910190602001808311614ecc575b5050505050905090565b6060612e32336148a8565b6000611c43600583615005565b6000601e8281548110614f1b57fe5b60009182526020909120600490910201546001600160a01b0316331492915050565b6000828201838110156133a8576040805162461bcd60e51b815260206004820152601b60248201527f536166654d6174683a206164646974696f6e206f766572666c6f770000000000604482015290519081900360640190fd5b600082614fa657506000611c43565b82820282848281614fb357fe5b04146133a85760405162461bcd60e51b8152600401808060200182810382526021815260200180615bc16021913960400191505060405180910390fd5b60006133a8836001600160a01b038416615463565b60006133a8836001600160a01b0384166154ad565b604080516001600160a01b038416602482015260448082018490528251808303909101815260649091019091526020810180516001600160e01b031663a9059cbb60e01b17905261506c9084906154c5565b505050565b60008082116150c7576040805162461bcd60e51b815260206004820152601a60248201527f536166654d6174683a206469766973696f6e206279207a65726f000000000000604482015290519081900360640190fd5b8183816150d057fe5b049392505050565b3390565b60008281526001602052604090206150f49082614ff0565b15611b9e576151016150d8565b6001600160a01b0316816001600160a01b0316837f2f8788117e7eff1d82e926ec794901d17c78024a50270940304540a733656f0d60405160405180910390a45050565b600082815260016020526040902061515d90826152ab565b15611b9e5761516a6150d8565b6001600160a01b0316816001600160a01b0316837ff6391f5c32d9c69d2a47ea670b442974b53935d1edc7fd64eb21e047a839171b60405160405180910390a45050565b600082821115615205576040805162461bcd60e51b815260206004820152601e60248201527f536166654d6174683a207375627472616374696f6e206f766572666c6f770000604482015290519081900360640190fd5b50900390565b6060600061521883615458565b67ffffffffffffffff8111801561522e57600080fd5b50604051908082528060200260200182016040528015615258578160200160208202803683370190505b50905060005b61526784615458565b8110156152a4576152788482615391565b82828151811061528457fe5b6001600160a01b039092166020928302919091019091015260010161525e565b5092915050565b60006133a8836001600160a01b038416615576565b604080517f19457468657265756d205369676e6564204d6573736167653a0a333200000000602080830191909152603c8083019490945282518083039094018452605c909101909152815191012090565b60008151604114615369576040805162461bcd60e51b815260206004820152601f60248201527f45434453413a20696e76616c6964207369676e6174757265206c656e67746800604482015290519081900360640190fd5b60208201516040830151606084015160001a6153878682858561563c565b9695505050505050565b60006133a883836157ba565b604080516001600160a01b0380861660248301528416604482015260648082018490528251808303909101815260849091019091526020810180516001600160e01b03166323b872dd60e01b17905261336a9085906154c5565b600066010000000000008210615454576040805162461bcd60e51b815260206004820152601c60248201527f76616c756520646f65736e27742066697420696e203438206269747300000000604482015290519081900360640190fd5b5090565b6000611c438261581e565b600061546f83836154ad565b6154a557508154600181810184556000848152602080822090930184905584548482528286019093526040902091909155611c43565b506000611c43565b60009081526001919091016020526040902054151590565b600061551a826040518060400160405280602081526020017f5361666545524332303a206c6f772d6c6576656c2063616c6c206661696c6564815250856001600160a01b03166158229092919063ffffffff16565b80519091501561506c5780806020019051602081101561553957600080fd5b505161506c5760405162461bcd60e51b815260040180806020018281038252602a815260200180615c92602a913960400191505060405180910390fd5b6000818152600183016020526040812054801561563257835460001980830191908101906000908790839081106155a957fe5b90600052602060002001549050808760000184815481106155c657fe5b6000918252602080832090910192909255828152600189810190925260409020908401905586548790806155f657fe5b60019003818190600052602060002001600090559055866001016000878152602001908152602001600020600090556001945050505050611c43565b6000915050611c43565b60007f7fffffffffffffffffffffffffffffff5d576e7357a4501ddfe92f46681b20a082111561569d5760405162461bcd60e51b8152600401808060200182810382526022815260200180615b076022913960400191505060405180910390fd5b8360ff16601b14806156b257508360ff16601c145b6156ed5760405162461bcd60e51b8152600401808060200182810382526022815260200180615b9f6022913960400191505060405180910390fd5b600060018686868660405160008152602001604052604051808581526020018460ff1681526020018381526020018281526020019450505050506020604051602081039080840390855afa158015615749573d6000803e3d6000fd5b5050604051601f1901519150506001600160a01b0381166157b1576040805162461bcd60e51b815260206004820152601860248201527f45434453413a20696e76616c6964207369676e61747572650000000000000000604482015290519081900360640190fd5b95945050505050565b815460009082106157fc5760405162461bcd60e51b8152600401808060200182810382526022815260200180615a2f6022913960400191505060405180910390fd5b82600001828154811061580b57fe5b9060005260206000200154905092915050565b5490565b60606158318484600085615839565b949350505050565b60608247101561587a5760405162461bcd60e51b8152600401808060200182810382526026815260200180615b296026913960400191505060405180910390fd5b61588385615994565b6158d4576040805162461bcd60e51b815260206004820152601d60248201527f416464726573733a2063616c6c20746f206e6f6e2d636f6e7472616374000000604482015290519081900360640190fd5b600080866001600160a01b031685876040518082805190602001908083835b602083106159125780518252601f1990920191602091820191016158f3565b6001836020036101000a03801982511681845116808217855250505050505090500191505060006040518083038185875af1925050503d8060008114615974576040519150601f19603f3d011682016040523d82523d6000602084013e615979565b606091505b509150915061598982828661599a565b979650505050505050565b3b151590565b606083156159a95750816133a8565b8251156159b95782518084602001fd5b60405162461bcd60e51b8152602060048201818152845160248401528451859391928392604401919085019080838360008315613fc2578181015183820152602001613faa565b5080546000825590600052602060002090810190612edb91905b808211156154545760008155600101615a1a56fe456e756d657261626c655365743a20696e646578206f7574206f6620626f756e6473416363657373436f6e74726f6c3a2073656e646572206d75737420626520616e2061646d696e20746f206772616e7476657374696e6720696e74657276616c6c732070726f76696465642c206275742076657374696e674475726174696f6e203d2030737461727420646174652068617320746f20626520696e2074686520667574757265696e646976696475616c4d6178696d756d416d6f756e74203c20696e646976696475616c4d696e696d756d416d6f756e7445434453413a20696e76616c6964207369676e6174757265202773272076616c7565416464726573733a20696e73756666696369656e742062616c616e636520666f722063616c6c416363657373436f6e74726f6c3a2073656e646572206d75737420626520616e2061646d696e20746f207265766f6b6563616c6c6572206973206e6f742057686974656c6973744f776e65720000000045434453413a20696e76616c6964207369676e6174757265202776272076616c7565536166654d6174683a206d756c7469706c69636174696f6e206f766572666c6f77494e5445524e414c204552524f52203a20616d6f756e7452656465656d656420776f756c64206265206c6172676572207468656e20707572636861736520616d6f756e74494e5445524e414c204552524f5220696e2076657374696e6720616d6f756e742063616c63756c6174696f6eb813b807c25079ba97f1770664c6a9e57c59afe74a6295f1ed01c10e3bb6baae73616c652068617320746f2062652066696e616c697a656400000000000000005361666545524332303a204552433230206f7065726174696f6e20646964206e6f74207375636365656463616c6c657220686173206e6f742061646d696e20726f6c6500000000000000416363657373436f6e74726f6c3a2063616e206f6e6c792072656e6f756e636520726f6c657320666f722073656c66a26469706673582212205e85d1f769dd9d91f604f686ce7a0b0fb2ab8754da7fbab34f2b0b89f46ce3e364736f6c6343000706003376657374696e6720696e74657276616c6c732070726f76696465642c206275742076657374696e674475726174696f6e203d2030696e646976696475616c4d6178696d756d416d6f756e74203c20696e646976696475616c4d696e696d756d416d6f756e746d4407e7be21f808e6509aa9fa9143369579dd7d760fe20a2c09680fc146134f536166654d6174683a206d756c7469706c69636174696f6e206f766572666c6f7763616c6c657220686173206e6f742061646d696e20726f6c6500000000000000",
  "linkReferences": {},
  "deployedLinkReferences": {}
}