{
  "_format": "hh-sol-artifact-1",
  "contractName": "FixedSwap",
  "sourceName": "contracts/FixedSwap.sol",
  "abi": [
    {
      "inputs": [
        {
          "internalType": "address",
          "name": "_tokenAddress",
          "type": "address"
        },
        {
          "internalType": "uint256",
          "name": "_tradeValue",
          "type": "uint256"
        },
        {
          "internalType": "uint256",
          "name": "_tokensForSale",
          "type": "uint256"
        },
        {
          "internalType": "uint256",
          "name": "_startDate",
          "type": "uint256"
        },
        {
          "internalType": "uint256",
          "name": "_endDate",
          "type": "uint256"
        },
        {
          "internalType": "uint256",
          "name": "_ignored_05",
          "type": "uint256"
        },
        {
          "internalType": "uint256",
          "name": "_individualMaximumAmount",
          "type": "uint256"
        },
        {
          "internalType": "bool",
          "name": "_ignored_07",
          "type": "bool"
        },
        {
          "internalType": "uint256",
          "name": "_minimumRaise",
          "type": "uint256"
        },
        {
          "internalType": "uint256",
          "name": "_feePercentage",
          "type": "uint256"
        },
        {
          "internalType": "uint32",
          "name": "_flags",
          "type": "uint32"
        },
        {
          "internalType": "address",
          "name": "_erc20TradeAddress",
          "type": "address"
        }
      ],
      "stateMutability": "nonpayable",
      "type": "constructor"
    },
    {
      "inputs": [],
      "name": "AccessControlBadConfirmation",
      "type": "error"
    },
    {
      "inputs": [
        {
          "internalType": "address",
          "name": "account",
          "type": "address"
        },
        {
          "internalType": "bytes32",
          "name": "neededRole",
          "type": "bytes32"
        }
      ],
      "name": "AccessControlUnauthorizedAccount",
      "type": "error"
    },
    {
      "inputs": [
        {
          "internalType": "address",
          "name": "target",
          "type": "address"
        }
      ],
      "name": "AddressEmptyCode",
      "type": "error"
    },
    {
      "inputs": [
        {
          "internalType": "address",
          "name": "account",
          "type": "address"
        }
      ],
      "name": "AddressInsufficientBalance",
      "type": "error"
    },
    {
      "inputs": [],
      "name": "ECDSAInvalidSignature",
      "type": "error"
    },
    {
      "inputs": [
        {
          "internalType": "uint256",
          "name": "length",
          "type": "uint256"
        }
      ],
      "name": "ECDSAInvalidSignatureLength",
      "type": "error"
    },
    {
      "inputs": [
        {
          "internalType": "bytes32",
          "name": "s",
          "type": "bytes32"
        }
      ],
      "name": "ECDSAInvalidSignatureS",
      "type": "error"
    },
    {
      "inputs": [],
      "name": "EnforcedPause",
      "type": "error"
    },
    {
      "inputs": [],
      "name": "ExpectedPause",
      "type": "error"
    },
    {
      "inputs": [],
      "name": "FailedInnerCall",
      "type": "error"
    },
    {
      "inputs": [],
      "name": "ReentrancyGuardReentrantCall",
      "type": "error"
    },
    {
      "inputs": [
        {
          "internalType": "address",
          "name": "token",
          "type": "address"
        }
      ],
      "name": "SafeERC20FailedOperation",
      "type": "error"
    },
    {
      "anonymous": false,
      "inputs": [
        {
          "indexed": false,
          "internalType": "uint256",
          "name": "count",
          "type": "uint256"
        }
      ],
      "name": "AddedArrayToBlacklist",
      "type": "event"
    },
    {
      "anonymous": false,
      "inputs": [
        {
          "indexed": false,
          "internalType": "uint256",
          "name": "count",
          "type": "uint256"
        }
      ],
      "name": "AddedArrayToWhitelist",
      "type": "event"
    },
    {
      "anonymous": false,
      "inputs": [
        {
          "indexed": true,
          "internalType": "address",
          "name": "account",
          "type": "address"
        }
      ],
      "name": "AddedToBlacklist",
      "type": "event"
    },
    {
      "anonymous": false,
      "inputs": [
        {
          "indexed": true,
          "internalType": "address",
          "name": "account",
          "type": "address"
        }
      ],
      "name": "AddedToWhitelist",
      "type": "event"
    },
    {
      "anonymous": false,
      "inputs": [
        {
          "indexed": false,
          "internalType": "address",
          "name": "account",
          "type": "address"
        }
      ],
      "name": "Paused",
      "type": "event"
    },
    {
      "anonymous": false,
      "inputs": [
        {
          "indexed": false,
          "internalType": "uint256",
          "name": "amount",
          "type": "uint256"
        },
        {
          "indexed": true,
          "internalType": "address",
          "name": "purchaser",
          "type": "address"
        },
        {
          "indexed": false,
          "internalType": "uint256",
          "name": "timestamp",
          "type": "uint256"
        }
      ],
      "name": "PurchaseEvent",
      "type": "event"
    },
    {
      "anonymous": false,
      "inputs": [
        {
          "indexed": false,
          "internalType": "uint256",
          "name": "purchase_id",
          "type": "uint256"
        }
      ],
      "name": "PurchaseFinalized",
      "type": "event"
    },
    {
      "anonymous": false,
      "inputs": [
        {
          "indexed": false,
          "internalType": "uint256",
          "name": "purchase_id",
          "type": "uint256"
        }
      ],
      "name": "PurchaseReverted",
      "type": "event"
    },
    {
      "anonymous": false,
      "inputs": [
        {
          "indexed": true,
          "internalType": "uint256",
          "name": "purchase_id",
          "type": "uint256"
        },
        {
          "indexed": true,
          "internalType": "address",
          "name": "buyer",
          "type": "address"
        },
        {
          "indexed": false,
          "internalType": "uint256",
          "name": "refundAmount",
          "type": "uint256"
        },
        {
          "indexed": false,
          "internalType": "uint256",
          "name": "tokenAmount",
          "type": "uint256"
        }
      ],
      "name": "RefundIssued",
      "type": "event"
    },
    {
      "anonymous": false,
      "inputs": [
        {
          "indexed": true,
          "internalType": "address",
          "name": "to",
          "type": "address"
        },
        {
          "indexed": false,
          "internalType": "uint256",
          "name": "amount",
          "type": "uint256"
        }
      ],
      "name": "RefundPenaltyWithdrawn",
      "type": "event"
    },
    {
      "anonymous": false,
      "inputs": [
        {
          "indexed": false,
          "internalType": "uint256",
          "name": "refundPeriodStart",
          "type": "uint256"
        },
        {
          "indexed": false,
          "internalType": "uint256",
          "name": "refundPeriodEnd",
          "type": "uint256"
        },
        {
          "indexed": false,
          "internalType": "uint256",
          "name": "refundPercentage",
          "type": "uint256"
        }
      ],
      "name": "RefundPeriodSet",
      "type": "event"
    },
    {
      "anonymous": false,
      "inputs": [
        {
          "indexed": true,
          "internalType": "address",
          "name": "to",
          "type": "address"
        },
        {
          "indexed": false,
          "internalType": "uint256",
          "name": "amount",
          "type": "uint256"
        }
      ],
      "name": "RefundedTokensWithdrawn",
      "type": "event"
    },
    {
      "anonymous": false,
      "inputs": [
        {
          "indexed": true,
          "internalType": "address",
          "name": "account",
          "type": "address"
        }
      ],
      "name": "RemovedFromBlacklist",
      "type": "event"
    },
    {
      "anonymous": false,
      "inputs": [
        {
          "indexed": true,
          "internalType": "address",
          "name": "account",
          "type": "address"
        }
      ],
      "name": "RemovedFromWhitelist",
      "type": "event"
    },
    {
      "anonymous": false,
      "inputs": [
        {
          "indexed": true,
          "internalType": "bytes32",
          "name": "role",
          "type": "bytes32"
        },
        {
          "indexed": true,
          "internalType": "bytes32",
          "name": "previousAdminRole",
          "type": "bytes32"
        },
        {
          "indexed": true,
          "internalType": "bytes32",
          "name": "newAdminRole",
          "type": "bytes32"
        }
      ],
      "name": "RoleAdminChanged",
      "type": "event"
    },
    {
      "anonymous": false,
      "inputs": [
        {
          "indexed": true,
          "internalType": "bytes32",
          "name": "role",
          "type": "bytes32"
        },
        {
          "indexed": true,
          "internalType": "address",
          "name": "account",
          "type": "address"
        },
        {
          "indexed": true,
          "internalType": "address",
          "name": "sender",
          "type": "address"
        }
      ],
      "name": "RoleGranted",
      "type": "event"
    },
    {
      "anonymous": false,
      "inputs": [
        {
          "indexed": true,
          "internalType": "bytes32",
          "name": "role",
          "type": "bytes32"
        },
        {
          "indexed": true,
          "internalType": "address",
          "name": "account",
          "type": "address"
        },
        {
          "indexed": true,
          "internalType": "address",
          "name": "sender",
          "type": "address"
        }
      ],
      "name": "RoleRevoked",
      "type": "event"
    },
    {
      "anonymous": false,
      "inputs": [
        {
          "indexed": false,
          "internalType": "uint256",
          "name": "endDate",
          "type": "uint256"
        }
      ],
      "name": "SetEndDateEvent",
      "type": "event"
    },
    {
      "anonymous": false,
      "inputs": [
        {
          "indexed": false,
          "internalType": "bool",
          "name": "hasWhitelisting",
          "type": "bool"
        }
      ],
      "name": "SetHasWhitelisting",
      "type": "event"
    },
    {
      "anonymous": false,
      "inputs": [
        {
          "indexed": false,
          "internalType": "address",
          "name": "stakingRewardsAddress",
          "type": "address"
        }
      ],
      "name": "SetStakingRewardsEvent",
      "type": "event"
    },
    {
      "anonymous": false,
      "inputs": [
        {
          "indexed": false,
          "internalType": "uint256",
          "name": "startDate",
          "type": "uint256"
        }
      ],
      "name": "SetStartDateEvent",
      "type": "event"
    },
    {
      "anonymous": false,
      "inputs": [
        {
          "indexed": false,
          "internalType": "uint256",
          "name": "tradeValue",
          "type": "uint256"
        }
      ],
      "name": "SetTradeValueEvent",
      "type": "event"
    },
    {
      "anonymous": false,
      "inputs": [
        {
          "indexed": false,
          "internalType": "uint256",
          "name": "tgeAllocation",
          "type": "uint256"
        },
        {
          "indexed": false,
          "internalType": "uint256",
          "name": "tgeTime",
          "type": "uint256"
        },
        {
          "indexed": false,
          "internalType": "uint256",
          "name": "vestingStart",
          "type": "uint256"
        },
        {
          "indexed": false,
          "internalType": "uint256",
          "name": "vestingCliff",
          "type": "uint256"
        },
        {
          "indexed": false,
          "internalType": "uint256",
          "name": "vestingDuration",
          "type": "uint256"
        },
        {
          "indexed": false,
          "internalType": "uint256[]",
          "name": "vestingSchedule",
          "type": "uint256[]"
        }
      ],
      "name": "SetVestingEvent",
      "type": "event"
    },
    {
      "anonymous": false,
      "inputs": [
        {
          "indexed": false,
          "internalType": "address",
          "name": "account",
          "type": "address"
        }
      ],
      "name": "Unpaused",
      "type": "event"
    },
    {
      "inputs": [],
      "name": "DECIMALS_PERCENT_MUL",
      "outputs": [
        {
          "internalType": "uint256",
          "name": "",
          "type": "uint256"
        }
      ],
      "stateMutability": "view",
      "type": "function"
    },
    {
      "inputs": [],
      "name": "DEFAULT_ADMIN_ROLE",
      "outputs": [
        {
          "internalType": "bytes32",
          "name": "",
          "type": "bytes32"
        }
      ],
      "stateMutability": "view",
      "type": "function"
    },
    {
      "inputs": [],
      "name": "FEE_ADDRESS",
      "outputs": [
        {
          "internalType": "address",
          "name": "",
          "type": "address"
        }
      ],
      "stateMutability": "view",
      "type": "function"
    },
    {
      "inputs": [],
      "name": "MAX_TOTAL_VESTING_TIME",
      "outputs": [
        {
          "internalType": "uint256",
          "name": "",
          "type": "uint256"
        }
      ],
      "stateMutability": "view",
      "type": "function"
    },
    {
      "inputs": [],
      "name": "MINIMUM_REFUND_PERCENT",
      "outputs": [
        {
          "internalType": "uint256",
          "name": "",
          "type": "uint256"
        }
      ],
      "stateMutability": "view",
      "type": "function"
    },
    {
      "inputs": [],
      "name": "WHITELIST_OWNER_ROLE",
      "outputs": [
        {
          "internalType": "bytes32",
          "name": "",
          "type": "bytes32"
        }
      ],
      "stateMutability": "view",
      "type": "function"
    },
    {
      "inputs": [
        {
          "internalType": "address[]",
          "name": "_addresses",
          "type": "address[]"
        }
      ],
      "name": "addArrayToBlacklist",
      "outputs": [],
      "stateMutability": "nonpayable",
      "type": "function"
    },
    {
      "inputs": [
        {
          "internalType": "address[]",
          "name": "_addresses",
          "type": "address[]"
        }
      ],
      "name": "addArrayToWhitelist",
      "outputs": [],
      "stateMutability": "nonpayable",
      "type": "function"
    },
    {
      "inputs": [
        {
          "internalType": "address",
          "name": "_address",
          "type": "address"
        }
      ],
      "name": "addToBlacklist",
      "outputs": [],
      "stateMutability": "nonpayable",
      "type": "function"
    },
    {
      "inputs": [
        {
          "internalType": "address",
          "name": "_address",
          "type": "address"
        }
      ],
      "name": "addToWhitelist",
      "outputs": [],
      "stateMutability": "nonpayable",
      "type": "function"
    },
    {
      "inputs": [],
      "name": "allowLateVestingChange",
      "outputs": [
        {
          "internalType": "bool",
          "name": "",
          "type": "bool"
        }
      ],
      "stateMutability": "view",
      "type": "function"
    },
    {
      "inputs": [],
      "name": "allowSaleStartwithoutFunding",
      "outputs": [
        {
          "internalType": "bool",
          "name": "",
          "type": "bool"
        }
      ],
      "stateMutability": "view",
      "type": "function"
    },
    {
      "inputs": [],
      "name": "availableTokens",
      "outputs": [
        {
          "internalType": "uint256",
          "name": "",
          "type": "uint256"
        }
      ],
      "stateMutability": "view",
      "type": "function"
    },
    {
      "inputs": [
        {
          "internalType": "uint256",
          "name": "",
          "type": "uint256"
        }
      ],
      "name": "buyers",
      "outputs": [
        {
          "internalType": "address",
          "name": "",
          "type": "address"
        }
      ],
      "stateMutability": "view",
      "type": "function"
    },
    {
      "inputs": [
        {
          "internalType": "uint256",
          "name": "_amount",
          "type": "uint256"
        }
      ],
      "name": "cost",
      "outputs": [
        {
          "internalType": "uint256",
          "name": "",
          "type": "uint256"
        }
      ],
      "stateMutability": "view",
      "type": "function"
    },
    {
      "inputs": [
        {
          "internalType": "address",
          "name": "_account",
          "type": "address"
        },
        {
          "internalType": "uint256",
          "name": "_accountMaximunAllocation",
          "type": "uint256"
        },
        {
          "internalType": "bytes",
          "name": "_signature",
          "type": "bytes"
        }
      ],
      "name": "determineAccountMaximunAllocation",
      "outputs": [
        {
          "internalType": "uint256",
          "name": "",
          "type": "uint256"
        }
      ],
      "stateMutability": "view",
      "type": "function"
    },
    {
      "inputs": [],
      "name": "endDate",
      "outputs": [
        {
          "internalType": "uint256",
          "name": "",
          "type": "uint256"
        }
      ],
      "stateMutability": "view",
      "type": "function"
    },
    {
      "inputs": [],
      "name": "erc20",
      "outputs": [
        {
          "internalType": "contract IERC20",
          "name": "",
          "type": "address"
        }
      ],
      "stateMutability": "view",
      "type": "function"
    },
    {
      "inputs": [],
      "name": "erc20TradeIn",
      "outputs": [
        {
          "internalType": "contract IERC20",
          "name": "",
          "type": "address"
        }
      ],
      "stateMutability": "view",
      "type": "function"
    },
    {
      "inputs": [],
      "name": "feePercentage",
      "outputs": [
        {
          "internalType": "uint256",
          "name": "",
          "type": "uint256"
        }
      ],
      "stateMutability": "view",
      "type": "function"
    },
    {
      "inputs": [
        {
          "internalType": "uint256",
          "name": "_amount",
          "type": "uint256"
        }
      ],
      "name": "fund",
      "outputs": [],
      "stateMutability": "nonpayable",
      "type": "function"
    },
    {
      "inputs": [],
      "name": "fundFull",
      "outputs": [],
      "stateMutability": "nonpayable",
      "type": "function"
    },
    {
      "inputs": [],
      "name": "getBlacklistedAddresses",
      "outputs": [
        {
          "internalType": "address[]",
          "name": "",
          "type": "address[]"
        }
      ],
      "stateMutability": "view",
      "type": "function"
    },
    {
      "inputs": [],
      "name": "getBuyers",
      "outputs": [
        {
          "internalType": "address[]",
          "name": "",
          "type": "address[]"
        }
      ],
      "stateMutability": "view",
      "type": "function"
    },
    {
      "inputs": [],
      "name": "getCurrentSchedule",
      "outputs": [
        {
          "internalType": "uint256",
          "name": "schedule",
          "type": "uint256"
        }
      ],
      "stateMutability": "view",
      "type": "function"
    },
    {
      "inputs": [
        {
          "internalType": "address",
          "name": "_address",
          "type": "address"
        }
      ],
      "name": "getMyPurchases",
      "outputs": [
        {
          "internalType": "uint256[]",
          "name": "",
          "type": "uint256[]"
        }
      ],
      "stateMutability": "view",
      "type": "function"
    },
    {
      "inputs": [],
      "name": "getMyPurchases_msgSender",
      "outputs": [
        {
          "internalType": "uint256[]",
          "name": "",
          "type": "uint256[]"
        }
      ],
      "stateMutability": "view",
      "type": "function"
    },
    {
      "inputs": [
        {
          "internalType": "uint256",
          "name": "purchase_id",
          "type": "uint256"
        }
      ],
      "name": "getPurchase",
      "outputs": [
        {
          "internalType": "uint256",
          "name": "amount",
          "type": "uint256"
        },
        {
          "internalType": "address",
          "name": "purchaser",
          "type": "address"
        },
        {
          "internalType": "uint256",
          "name": "costAmount",
          "type": "uint256"
        },
        {
          "internalType": "uint48",
          "name": "timestamp",
          "type": "uint48"
        },
        {
          "internalType": "bool",
          "name": "wasFinalized",
          "type": "bool"
        },
        {
          "internalType": "bool",
          "name": "reverted",
          "type": "bool"
        },
        {
          "internalType": "uint256",
          "name": "amountRedeemed",
          "type": "uint256"
        }
      ],
      "stateMutability": "view",
      "type": "function"
    },
    {
      "inputs": [],
      "name": "getPurchasesCount",
      "outputs": [
        {
          "internalType": "uint256",
          "name": "count",
          "type": "uint256"
        }
      ],
      "stateMutability": "view",
      "type": "function"
    },
    {
      "inputs": [
        {
          "internalType": "uint256",
          "name": "purchase_id",
          "type": "uint256"
        }
      ],
      "name": "getRedeemStatus",
      "outputs": [
        {
          "internalType": "uint256",
          "name": "amount",
          "type": "uint256"
        },
        {
          "internalType": "uint256",
          "name": "amountRedeemed",
          "type": "uint256"
        },
        {
          "internalType": "uint256",
          "name": "vestAmount",
          "type": "uint256"
        },
        {
          "internalType": "string",
          "name": "message",
          "type": "string"
        }
      ],
      "stateMutability": "view",
      "type": "function"
    },
    {
      "inputs": [
        {
          "internalType": "uint256",
          "name": "purchase_id",
          "type": "uint256"
        }
      ],
      "name": "getRedeemableTokensAmount",
      "outputs": [
        {
          "internalType": "uint256",
          "name": "amount",
          "type": "uint256"
        },
        {
          "internalType": "string",
          "name": "message",
          "type": "string"
        }
      ],
      "stateMutability": "view",
      "type": "function"
    },
    {
      "inputs": [
        {
          "internalType": "uint256",
          "name": "purchase_id",
          "type": "uint256"
        }
      ],
      "name": "getRefundAmount",
      "outputs": [
        {
          "internalType": "uint256",
          "name": "refundAmount",
          "type": "uint256"
        },
        {
          "internalType": "uint256",
          "name": "unclaimedTokens",
          "type": "uint256"
        },
        {
          "internalType": "string",
          "name": "message",
          "type": "string"
        }
      ],
      "stateMutability": "view",
      "type": "function"
    },
    {
      "inputs": [
        {
          "internalType": "bytes32",
          "name": "role",
          "type": "bytes32"
        }
      ],
      "name": "getRoleAdmin",
      "outputs": [
        {
          "internalType": "bytes32",
          "name": "",
          "type": "bytes32"
        }
      ],
      "stateMutability": "view",
      "type": "function"
    },
    {
      "inputs": [],
      "name": "getVersion",
      "outputs": [
        {
          "internalType": "uint32",
          "name": "API_VERSION",
          "type": "uint32"
        }
      ],
      "stateMutability": "pure",
      "type": "function"
    },
    {
      "inputs": [],
      "name": "getVestingEndTime",
      "outputs": [
        {
          "internalType": "uint256",
          "name": "",
          "type": "uint256"
        }
      ],
      "stateMutability": "view",
      "type": "function"
    },
    {
      "inputs": [],
      "name": "getVestingParameters",
      "outputs": [
        {
          "internalType": "uint256",
          "name": "_tgeAllocation",
          "type": "uint256"
        },
        {
          "internalType": "uint256",
          "name": "_tgeTime",
          "type": "uint256"
        },
        {
          "internalType": "uint256",
          "name": "_vestingStart",
          "type": "uint256"
        },
        {
          "internalType": "uint256",
          "name": "_vestingCliff",
          "type": "uint256"
        },
        {
          "internalType": "uint256",
          "name": "_vestingDuration",
          "type": "uint256"
        },
        {
          "internalType": "uint256[]",
          "name": "_vestingSchedule",
          "type": "uint256[]"
        }
      ],
      "stateMutability": "view",
      "type": "function"
    },
    {
      "inputs": [],
      "name": "getVestingStartTime",
      "outputs": [
        {
          "internalType": "uint256",
          "name": "",
          "type": "uint256"
        }
      ],
      "stateMutability": "view",
      "type": "function"
    },
    {
      "inputs": [],
      "name": "getWhitelistedAddresses",
      "outputs": [
        {
          "internalType": "address[]",
          "name": "",
          "type": "address[]"
        }
      ],
      "stateMutability": "view",
      "type": "function"
    },
    {
      "inputs": [
        {
          "internalType": "bytes32",
          "name": "role",
          "type": "bytes32"
        },
        {
          "internalType": "address",
          "name": "account",
          "type": "address"
        }
      ],
      "name": "grantRole",
      "outputs": [],
      "stateMutability": "nonpayable",
      "type": "function"
    },
    {
      "inputs": [],
      "name": "hasFinalized",
      "outputs": [
        {
          "internalType": "bool",
          "name": "",
          "type": "bool"
        }
      ],
      "stateMutability": "view",
      "type": "function"
    },
    {
      "inputs": [],
      "name": "hasMinimumRaise",
      "outputs": [
        {
          "internalType": "bool",
          "name": "",
          "type": "bool"
        }
      ],
      "stateMutability": "view",
      "type": "function"
    },
    {
      "inputs": [
        {
          "internalType": "bytes32",
          "name": "role",
          "type": "bytes32"
        },
        {
          "internalType": "address",
          "name": "account",
          "type": "address"
        }
      ],
      "name": "hasRole",
      "outputs": [
        {
          "internalType": "bool",
          "name": "",
          "type": "bool"
        }
      ],
      "stateMutability": "view",
      "type": "function"
    },
    {
      "inputs": [],
      "name": "hasStarted",
      "outputs": [
        {
          "internalType": "bool",
          "name": "",
          "type": "bool"
        }
      ],
      "stateMutability": "view",
      "type": "function"
    },
    {
      "inputs": [],
      "name": "hasWhitelisting",
      "outputs": [
        {
          "internalType": "bool",
          "name": "",
          "type": "bool"
        }
      ],
      "stateMutability": "view",
      "type": "function"
    },
    {
      "inputs": [],
      "name": "individualMaximumAmount",
      "outputs": [
        {
          "internalType": "uint256",
          "name": "",
          "type": "uint256"
        }
      ],
      "stateMutability": "view",
      "type": "function"
    },
    {
      "inputs": [],
      "name": "isBeforeVestingStart",
      "outputs": [
        {
          "internalType": "bool",
          "name": "",
          "type": "bool"
        }
      ],
      "stateMutability": "view",
      "type": "function"
    },
    {
      "inputs": [
        {
          "internalType": "address",
          "name": "_address",
          "type": "address"
        }
      ],
      "name": "isBlacklisted",
      "outputs": [
        {
          "internalType": "bool",
          "name": "",
          "type": "bool"
        }
      ],
      "stateMutability": "view",
      "type": "function"
    },
    {
      "inputs": [
        {
          "internalType": "uint256",
          "name": "purchase_id",
          "type": "uint256"
        }
      ],
      "name": "isBuyer",
      "outputs": [
        {
          "internalType": "bool",
          "name": "",
          "type": "bool"
        }
      ],
      "stateMutability": "view",
      "type": "function"
    },
    {
      "inputs": [],
      "name": "isETHTrade",
      "outputs": [
        {
          "internalType": "bool",
          "name": "",
          "type": "bool"
        }
      ],
      "stateMutability": "view",
      "type": "function"
    },
    {
      "inputs": [],
      "name": "isInRefundPeriod",
      "outputs": [
        {
          "internalType": "bool",
          "name": "",
          "type": "bool"
        }
      ],
      "stateMutability": "view",
      "type": "function"
    },
    {
      "inputs": [],
      "name": "isOpen",
      "outputs": [
        {
          "internalType": "bool",
          "name": "",
          "type": "bool"
        }
      ],
      "stateMutability": "view",
      "type": "function"
    },
    {
      "inputs": [],
      "name": "isPreStart",
      "outputs": [
        {
          "internalType": "bool",
          "name": "",
          "type": "bool"
        }
      ],
      "stateMutability": "view",
      "type": "function"
    },
    {
      "inputs": [],
      "name": "isSaleFunded",
      "outputs": [
        {
          "internalType": "bool",
          "name": "",
          "type": "bool"
        }
      ],
      "stateMutability": "view",
      "type": "function"
    },
    {
      "inputs": [
        {
          "internalType": "address",
          "name": "_userAccountAaddress",
          "type": "address"
        },
        {
          "internalType": "uint256",
          "name": "_accountMaximunAllocation",
          "type": "uint256"
        },
        {
          "internalType": "bytes",
          "name": "signature",
          "type": "bytes"
        }
      ],
      "name": "isSignerForAddressMaxAlloc",
      "outputs": [
        {
          "internalType": "bool",
          "name": "",
          "type": "bool"
        }
      ],
      "stateMutability": "view",
      "type": "function"
    },
    {
      "inputs": [
        {
          "internalType": "bytes32",
          "name": "hash",
          "type": "bytes32"
        },
        {
          "internalType": "bytes",
          "name": "signature",
          "type": "bytes"
        }
      ],
      "name": "isSignerFromBytes32",
      "outputs": [
        {
          "internalType": "bool",
          "name": "",
          "type": "bool"
        }
      ],
      "stateMutability": "view",
      "type": "function"
    },
    {
      "inputs": [],
      "name": "isTokenSwapAtomic",
      "outputs": [
        {
          "internalType": "bool",
          "name": "",
          "type": "bool"
        }
      ],
      "stateMutability": "view",
      "type": "function"
    },
    {
      "inputs": [
        {
          "internalType": "address",
          "name": "_address",
          "type": "address"
        }
      ],
      "name": "isWhitelisted",
      "outputs": [
        {
          "internalType": "bool",
          "name": "",
          "type": "bool"
        }
      ],
      "stateMutability": "view",
      "type": "function"
    },
    {
      "inputs": [],
      "name": "minimumRaise",
      "outputs": [
        {
          "internalType": "uint256",
          "name": "",
          "type": "uint256"
        }
      ],
      "stateMutability": "view",
      "type": "function"
    },
    {
      "inputs": [],
      "name": "minimumRaiseAchieved",
      "outputs": [
        {
          "internalType": "bool",
          "name": "",
          "type": "bool"
        }
      ],
      "stateMutability": "view",
      "type": "function"
    },
    {
      "inputs": [],
      "name": "minimumRaiseNotAchieved",
      "outputs": [
        {
          "internalType": "bool",
          "name": "",
          "type": "bool"
        }
      ],
      "stateMutability": "view",
      "type": "function"
    },
    {
      "inputs": [
        {
          "internalType": "address",
          "name": "",
          "type": "address"
        },
        {
          "internalType": "uint256",
          "name": "",
          "type": "uint256"
        }
      ],
      "name": "myPurchases",
      "outputs": [
        {
          "internalType": "uint256",
          "name": "",
          "type": "uint256"
        }
      ],
      "stateMutability": "view",
      "type": "function"
    },
    {
      "inputs": [],
      "name": "pause",
      "outputs": [],
      "stateMutability": "nonpayable",
      "type": "function"
    },
    {
      "inputs": [],
      "name": "paused",
      "outputs": [
        {
          "internalType": "bool",
          "name": "",
          "type": "bool"
        }
      ],
      "stateMutability": "view",
      "type": "function"
    },
    {
      "inputs": [
        {
          "internalType": "uint256",
          "name": "purchase_id",
          "type": "uint256"
        }
      ],
      "name": "purchaseExists",
      "outputs": [
        {
          "internalType": "bool",
          "name": "",
          "type": "bool"
        }
      ],
      "stateMutability": "view",
      "type": "function"
    },
    {
      "inputs": [
        {
          "internalType": "uint256",
          "name": "",
          "type": "uint256"
        }
      ],
      "name": "purchases",
      "outputs": [
        {
          "internalType": "address",
          "name": "purchaser",
          "type": "address"
        },
        {
          "internalType": "uint48",
          "name": "timestamp",
          "type": "uint48"
        },
        {
          "internalType": "bool",
          "name": "wasFinalized",
          "type": "bool"
        },
        {
          "internalType": "bool",
          "name": "reverted",
          "type": "bool"
        },
        {
          "internalType": "uint256",
          "name": "amount",
          "type": "uint256"
        },
        {
          "internalType": "uint256",
          "name": "costAmount",
          "type": "uint256"
        },
        {
          "internalType": "uint256",
          "name": "amountRedeemed",
          "type": "uint256"
        }
      ],
      "stateMutability": "view",
      "type": "function"
    },
    {
      "inputs": [
        {
          "internalType": "bytes32",
          "name": "hash",
          "type": "bytes32"
        },
        {
          "internalType": "bytes",
          "name": "signature",
          "type": "bytes"
        }
      ],
      "name": "recoverSignerAddressFromBytes32",
      "outputs": [
        {
          "internalType": "address",
          "name": "",
          "type": "address"
        }
      ],
      "stateMutability": "pure",
      "type": "function"
    },
    {
      "inputs": [
        {
          "internalType": "uint256",
          "name": "purchase_id",
          "type": "uint256"
        }
      ],
      "name": "redeemGivenMinimumGoalNotAchieved",
      "outputs": [],
      "stateMutability": "nonpayable",
      "type": "function"
    },
    {
      "inputs": [
        {
          "internalType": "uint256",
          "name": "purchase_id",
          "type": "uint256"
        }
      ],
      "name": "redeemTokens",
      "outputs": [],
      "stateMutability": "nonpayable",
      "type": "function"
    },
    {
      "inputs": [
        {
          "internalType": "uint256",
          "name": "purchase_id",
          "type": "uint256"
        }
      ],
      "name": "refund",
      "outputs": [],
      "stateMutability": "nonpayable",
      "type": "function"
    },
    {
      "inputs": [],
      "name": "refundPercentage",
      "outputs": [
        {
          "internalType": "uint256",
          "name": "",
          "type": "uint256"
        }
      ],
      "stateMutability": "view",
      "type": "function"
    },
    {
      "inputs": [],
      "name": "refundPeriodEnd",
      "outputs": [
        {
          "internalType": "uint256",
          "name": "",
          "type": "uint256"
        }
      ],
      "stateMutability": "view",
      "type": "function"
    },
    {
      "inputs": [],
      "name": "refundPeriodStart",
      "outputs": [
        {
          "internalType": "uint256",
          "name": "",
          "type": "uint256"
        }
      ],
      "stateMutability": "view",
      "type": "function"
    },
    {
      "inputs": [
        {
          "internalType": "address",
          "name": "_address",
          "type": "address"
        }
      ],
      "name": "removeFromBlacklist",
      "outputs": [],
      "stateMutability": "nonpayable",
      "type": "function"
    },
    {
      "inputs": [
        {
          "internalType": "address",
          "name": "_address",
          "type": "address"
        }
      ],
      "name": "removeFromWhitelist",
      "outputs": [],
      "stateMutability": "nonpayable",
      "type": "function"
    },
    {
      "inputs": [
        {
          "internalType": "address",
          "name": "_tokenAddress",
          "type": "address"
        },
        {
          "internalType": "address",
          "name": "_to",
          "type": "address"
        }
      ],
      "name": "removeOtherERC20Tokens",
      "outputs": [],
      "stateMutability": "nonpayable",
      "type": "function"
    },
    {
      "inputs": [
        {
          "internalType": "bytes32",
          "name": "role",
          "type": "bytes32"
        },
        {
          "internalType": "address",
          "name": "callerConfirmation",
          "type": "address"
        }
      ],
      "name": "renounceRole",
      "outputs": [],
      "stateMutability": "nonpayable",
      "type": "function"
    },
    {
      "inputs": [
        {
          "internalType": "bytes32",
          "name": "role",
          "type": "bytes32"
        },
        {
          "internalType": "address",
          "name": "account",
          "type": "address"
        }
      ],
      "name": "revokeRole",
      "outputs": [],
      "stateMutability": "nonpayable",
      "type": "function"
    },
    {
      "inputs": [],
      "name": "safePullETH",
      "outputs": [],
      "stateMutability": "nonpayable",
      "type": "function"
    },
    {
      "inputs": [],
      "name": "safePullSaleToken",
      "outputs": [],
      "stateMutability": "nonpayable",
      "type": "function"
    },
    {
      "inputs": [],
      "name": "safePullTradeToken",
      "outputs": [],
      "stateMutability": "nonpayable",
      "type": "function"
    },
    {
      "inputs": [
        {
          "internalType": "uint256",
          "name": "_endDate",
          "type": "uint256"
        }
      ],
      "name": "setEndDate",
      "outputs": [],
      "stateMutability": "nonpayable",
      "type": "function"
    },
    {
      "inputs": [
        {
          "internalType": "bool",
          "name": "_hasWhitelisting",
          "type": "bool"
        }
      ],
      "name": "setHasWhitelisting",
      "outputs": [],
      "stateMutability": "nonpayable",
      "type": "function"
    },
    {
      "inputs": [
        {
          "internalType": "uint256",
          "name": "_individualMaximumAmount",
          "type": "uint256"
        }
      ],
      "name": "setIndividualMaximumAmount",
      "outputs": [],
      "stateMutability": "nonpayable",
      "type": "function"
    },
    {
      "inputs": [
        {
          "internalType": "uint256",
          "name": "_refundPeriodStart",
          "type": "uint256"
        },
        {
          "internalType": "uint256",
          "name": "_refundPeriodEnd",
          "type": "uint256"
        },
        {
          "internalType": "uint256",
          "name": "_refundPercentage",
          "type": "uint256"
        }
      ],
      "name": "setRefundPeriod",
      "outputs": [],
      "stateMutability": "nonpayable",
      "type": "function"
    },
    {
      "inputs": [
        {
          "internalType": "address",
          "name": "_tokenAddress",
          "type": "address"
        }
      ],
      "name": "setSaleTokenAddress",
      "outputs": [],
      "stateMutability": "nonpayable",
      "type": "function"
    },
    {
      "inputs": [
        {
          "internalType": "address",
          "name": "_signerPublicAddress",
          "type": "address"
        }
      ],
      "name": "setSignerPublicAddress",
      "outputs": [],
      "stateMutability": "nonpayable",
      "type": "function"
    },
    {
      "inputs": [
        {
          "internalType": "address",
          "name": "_stakingRewardsAddress",
          "type": "address"
        }
      ],
      "name": "setStakingRewards",
      "outputs": [],
      "stateMutability": "nonpayable",
      "type": "function"
    },
    {
      "inputs": [
        {
          "internalType": "uint256",
          "name": "_startDate",
          "type": "uint256"
        }
      ],
      "name": "setStartDate",
      "outputs": [],
      "stateMutability": "nonpayable",
      "type": "function"
    },
    {
      "inputs": [
        {
          "internalType": "uint256",
          "name": "_tradeValue",
          "type": "uint256"
        }
      ],
      "name": "setTradeValue",
      "outputs": [],
      "stateMutability": "nonpayable",
      "type": "function"
    },
    {
      "inputs": [
        {
          "internalType": "uint256",
          "name": "_tgeAllocation",
          "type": "uint256"
        },
        {
          "internalType": "uint256",
          "name": "_tgeTime",
          "type": "uint256"
        },
        {
          "internalType": "uint256",
          "name": "_vestingStart",
          "type": "uint256"
        },
        {
          "internalType": "uint256",
          "name": "_vestingCliff",
          "type": "uint256"
        },
        {
          "internalType": "uint256",
          "name": "_vestingDuration",
          "type": "uint256"
        },
        {
          "internalType": "uint256[]",
          "name": "_vestingSchedule",
          "type": "uint256[]"
        }
      ],
      "name": "setVesting",
      "outputs": [],
      "stateMutability": "nonpayable",
      "type": "function"
    },
    {
      "inputs": [],
      "name": "signerPublicAddress",
      "outputs": [
        {
          "internalType": "address",
          "name": "",
          "type": "address"
        }
      ],
      "stateMutability": "view",
      "type": "function"
    },
    {
      "inputs": [],
      "name": "stakingRewardsAddress",
      "outputs": [
        {
          "internalType": "address",
          "name": "",
          "type": "address"
        }
      ],
      "stateMutability": "view",
      "type": "function"
    },
    {
      "inputs": [],
      "name": "startDate",
      "outputs": [
        {
          "internalType": "uint256",
          "name": "",
          "type": "uint256"
        }
      ],
      "stateMutability": "view",
      "type": "function"
    },
    {
      "inputs": [
        {
          "internalType": "bytes4",
          "name": "interfaceId",
          "type": "bytes4"
        }
      ],
      "name": "supportsInterface",
      "outputs": [
        {
          "internalType": "bool",
          "name": "",
          "type": "bool"
        }
      ],
      "stateMutability": "view",
      "type": "function"
    },
    {
      "inputs": [
        {
          "internalType": "uint256",
          "name": "_amount",
          "type": "uint256"
        },
        {
          "internalType": "bytes",
          "name": "_signature",
          "type": "bytes"
        }
      ],
      "name": "swap",
      "outputs": [],
      "stateMutability": "payable",
      "type": "function"
    },
    {
      "inputs": [
        {
          "internalType": "uint256",
          "name": "_amount",
          "type": "uint256"
        },
        {
          "internalType": "uint256",
          "name": "_accountMaxAmount",
          "type": "uint256"
        },
        {
          "internalType": "bytes",
          "name": "_signature",
          "type": "bytes"
        }
      ],
      "name": "swapWithSig",
      "outputs": [],
      "stateMutability": "payable",
      "type": "function"
    },
    {
      "inputs": [],
      "name": "tgeAllocation",
      "outputs": [
        {
          "internalType": "uint256",
          "name": "",
          "type": "uint256"
        }
      ],
      "stateMutability": "view",
      "type": "function"
    },
    {
      "inputs": [],
      "name": "tgeTime",
      "outputs": [
        {
          "internalType": "uint256",
          "name": "",
          "type": "uint256"
        }
      ],
      "stateMutability": "view",
      "type": "function"
    },
    {
      "inputs": [],
      "name": "tokensAllocated",
      "outputs": [
        {
          "internalType": "uint256",
          "name": "",
          "type": "uint256"
        }
      ],
      "stateMutability": "view",
      "type": "function"
    },
    {
      "inputs": [],
      "name": "tokensForSale",
      "outputs": [
        {
          "internalType": "uint256",
          "name": "",
          "type": "uint256"
        }
      ],
      "stateMutability": "view",
      "type": "function"
    },
    {
      "inputs": [],
      "name": "tokensLeft",
      "outputs": [
        {
          "internalType": "uint256",
          "name": "",
          "type": "uint256"
        }
      ],
      "stateMutability": "view",
      "type": "function"
    },
    {
      "inputs": [],
      "name": "totalRaiseCost",
      "outputs": [
        {
          "internalType": "uint256",
          "name": "",
          "type": "uint256"
        }
      ],
      "stateMutability": "view",
      "type": "function"
    },
    {
      "inputs": [],
      "name": "totalRefundAmountPenalty",
      "outputs": [
        {
          "internalType": "uint256",
          "name": "",
          "type": "uint256"
        }
      ],
      "stateMutability": "view",
      "type": "function"
    },
    {
      "inputs": [],
      "name": "totalRefundedTokens",
      "outputs": [
        {
          "internalType": "uint256",
          "name": "",
          "type": "uint256"
        }
      ],
      "stateMutability": "view",
      "type": "function"
    },
    {
      "inputs": [],
      "name": "tradeValue",
      "outputs": [
        {
          "internalType": "uint256",
          "name": "",
          "type": "uint256"
        }
      ],
      "stateMutability": "view",
      "type": "function"
    },
    {
      "inputs": [
        {
          "internalType": "uint256",
          "name": "purchase_id",
          "type": "uint256"
        },
        {
          "internalType": "bool",
          "name": "stake",
          "type": "bool"
        }
      ],
      "name": "transferTokens",
      "outputs": [],
      "stateMutability": "nonpayable",
      "type": "function"
    },
    {
      "inputs": [],
      "name": "unpause",
      "outputs": [],
      "stateMutability": "nonpayable",
      "type": "function"
    },
    {
      "inputs": [],
      "name": "unsoldTokensRedeemed",
      "outputs": [
        {
          "internalType": "bool",
          "name": "",
          "type": "bool"
        }
      ],
      "stateMutability": "view",
      "type": "function"
    },
    {
      "inputs": [],
      "name": "vestingCliff",
      "outputs": [
        {
          "internalType": "uint256",
          "name": "",
          "type": "uint256"
        }
      ],
      "stateMutability": "view",
      "type": "function"
    },
    {
      "inputs": [],
      "name": "vestingDuration",
      "outputs": [
        {
          "internalType": "uint256",
          "name": "",
          "type": "uint256"
        }
      ],
      "stateMutability": "view",
      "type": "function"
    },
    {
      "inputs": [
        {
          "internalType": "uint256",
          "name": "",
          "type": "uint256"
        }
      ],
      "name": "vestingSchedule",
      "outputs": [
        {
          "internalType": "uint256",
          "name": "",
          "type": "uint256"
        }
      ],
      "stateMutability": "view",
      "type": "function"
    },
    {
      "inputs": [],
      "name": "vestingStart",
      "outputs": [
        {
          "internalType": "uint256",
          "name": "",
          "type": "uint256"
        }
      ],
      "stateMutability": "view",
      "type": "function"
    },
    {
      "inputs": [],
      "name": "vestingTime",
      "outputs": [
        {
          "internalType": "uint256",
          "name": "",
          "type": "uint256"
        }
      ],
      "stateMutability": "view",
      "type": "function"
    },
    {
      "inputs": [],
      "name": "withdrawFunds",
      "outputs": [],
      "stateMutability": "nonpayable",
      "type": "function"
    },
    {
      "inputs": [],
      "name": "withdrawRefundedTokens",
      "outputs": [],
      "stateMutability": "nonpayable",
      "type": "function"
    },
    {
      "inputs": [],
      "name": "withdrawUnsoldTokens",
      "outputs": [],
      "stateMutability": "nonpayable",
      "type": "function"
    }
  ],
  "bytecode": "0x6101003461046457601f61625438819003918201601f19168301916001600160401b038311848410176104695780849261018094604052833981010312610464576100498161047f565b9060208101519160408201519160608101519360808201519060c08301519460e0840151801515036104645761010084015192610120850151976101408601519563ffffffff871690818803610464576101606100a6910161047f565b9860ff19600054166000556100ba33610493565b506002805460ff60a01b1916898216151560a01b60ff60a01b16179055336000908152600080516020616234833981519152602052604090205460ff161561041f57600355600160085561010d33610531565b50814210156103da5782600f54101561039557831561035c578386116103175760638a116102d2576020111561028d57600f55601055601355600e5560018216156102825761023d57601090600160a0525b60088116151560c05216151560e052600a80546001600160a01b0319166001600160a01b039283161790551680610223575b50608052604051615c4c90816105a8823960805181818161167e015281816131870152613263015260a051818181610e6e0152818161248d015281816134490152818161349b01528181613816015281816146ba015281816149ed0152614d2c015260c05181818161134401528181612580015261340c015260e051818181610903015281816133cf01526137ef0152f35b600b80546001600160a01b03191691909117905538610191565b60405162461bcd60e51b815260206004820152601d60248201527f61746f6d696320737761703a206d696e696d756d5261697365203e20300000006044820152606490fd5b60115560109061015f565b60405162461bcd60e51b815260206004820152601560248201527f756e737570706f7274656420666c6167732073657400000000000000000000006044820152606490fd5b60405162461bcd60e51b815260206004820152601e60248201527f4665652050657263656e746167652068617320746f206265203c2031303000006044820152606490fd5b60405162461bcd60e51b815260206004820152601c60248201527f6d696e696d756d5261697365203e20746f6b656e73466f7253616c65000000006044820152606490fd5b60405162461bcd60e51b81526020600482015260116024820152706e6f20746f6b656e20666f722073616c6560781b6044820152606490fd5b60405162461bcd60e51b815260206004820152601a60248201527f656e642064617465206265666f726520737461727420646174650000000000006044820152606490fd5b60405162461bcd60e51b815260206004820152601960248201527f7374617274206461746520697320696e207468652070617374000000000000006044820152606490fd5b60405162461bcd60e51b815260206004820152601c60248201527f63616c6c6572206973206e6f742057686974656c6973744f776e6572000000006044820152606490fd5b600080fd5b634e487b7160e01b600052604160045260246000fd5b51906001600160a01b038216820361046457565b6001600160a01b0381166000908152600080516020616234833981519152602052604090205460ff1661052b576001600160a01b0316600081815260008051602061623483398151915260205260408120805460ff191660011790553391907fb813b807c25079ba97f1770664c6a9e57c59afe74a6295f1ed01c10e3bb6baae906000805160206161f48339815191529080a4600190565b50600090565b6001600160a01b0381166000908152600080516020616214833981519152602052604090205460ff1661052b576001600160a01b0316600081815260008051602061621483398151915260205260408120805460ff191660011790553391906000805160206161f48339815191528180a460019056fe608080604052600436101561001357600080fd5b600090813560e01c90816301ffc9a7146142b457508063031fb2b714614291578063034e529014614272578063044c0cc51461424757806304cd52941461420657806307662345146141e057806308abd7ff146140f057806309b56e0b146140cb57806309d4d6f514613f1a5780630b97bc8614613efc5780630d8e6e2c14613edf57806312aef8c314613ec15780631514617e14613ea357806315b5786614613e83578063161a7b2a14613e685780631a808187146137705780631de18af71461346e57806321d3002a14613431578063230005d3146133f45780632438a3f6146133b757806324600fc314613116578063248a9ca3146130e8578063254800d4146130ca5780632593ea17146130a7578063278ecde114612f2757806328c32be614612f095780632ebb5c1e14612ee95780632f2ff15d14612ea85780633070b98d14612bb45780633113076a14612b435780633163e3a814612b2557806336568abe14612ae05780633742a9f714612a0a5780633784f000146129325780633af32abf146128f75780633b6577c8146128bd5780633bbab179146128395780633f4ba83a146127c55780634089aa9a146127a457806344337ea11461271557806344691f7e146126f457806347535d7b146126d95780634b77ae14146126bb578063537df3b61461262c57806359730bb51461260e5780635ac699bb146125c65780635c975abb146125a45780635f635f9a1461243e5780636295a2f41461242057806369bb4dc21461238b5780636d028027146123075780636eaaabd51461226e5780636fb83a571461213357806372fd9e241461211557806374fa05fb146120f3578063751ef93d146120d9578063755e3e28146120bb57806376807e5f1461203a578063785e9e8614612011578063788bff6814611fe8578063799bb23214611fc25780637f7b271214611fa25780638158f2b814611f8457806382d95df514611eb05780638307dc9814611e955780638392fe3114611e0a5780638456cb5914611d9357806388b0fe2b14611cdb5780638a1a5f3f14611cc05780638ab1d68114611c315780638e75b13114611c135780639097548d14611bf4578063917c854d14611a7a578063919bd93014611a4057806391d14854146119f457806394838414146119ce57806396a32bc4146119765780639a43e8c7146117b25780639baf1979146117985780639d90a46e146116a1578063a001ecdd14611666578063a1c09bf114611648578063a217fddf1461162c578063a6e158f81461149f578063a929eef114611481578063b31f8f931461145f578063b367940e1461143c578063b8691787146113d0578063ba40a96a146113a7578063bd0625ab14610e1f578063bf135abe14610df6578063c0e6498914610d07578063c24a0f8b14610ce9578063c3ca324f14610cc4578063c4fb8f1414610c2a578063c7dab43614610c0f578063c8bdbfb614610b5c578063c957b76214610b41578063ca1d209d14610a49578063d10dbdf5146109d3578063d547741f14610989578063d623786d146108af578063dbb57ac814610868578063dc91b07214610819578063e4101de5146107fb578063e43252d71461076c578063e4a8025214610738578063e8b882f41461070f578063eb1edd61146106e0578063efbb34d5146106ba578063f2aa821814610676578063f3640e7414610658578063f64bfaba146105ce578063fce9d11b14610599578063fe575a87146105545763fecf415a1461051d57600080fd5b346105515760203660031901126105515750602061053c6004356145a4565b5060018060a01b039054163314604051908152f35b80fd5b503461055157602036600319011261055157602061058f6001600160a01b0361057b6143ba565b166000526007602052604060002054151590565b6040519015158152f35b50346105515780600319360112610551576105ca6105b633615500565b6040519182916020835260208301906145c3565b0390f35b503461055157806003193601126105515760405180916020601e54928381520191601e82527f50bb669a95c7b50b7e8a6f09454034b2b14cf2b85c730dca9a539ca82cb6e350915b818110610639576105ca8561062d818703826144a9565b604051918291826143d0565b82546001600160a01b0316845260209093019260019283019201610616565b50346105515780600319360112610551576020601a54604051908152f35b50346105515760203660031901126105515760043590601e548210156105515760206106a183614413565b905460405160039290921b1c6001600160a01b03168152f35b503461055157806003193601126105515760206106d860135461531f565b604051908152f35b50346105515780600319360112610551576020604051737939701a22b532a7ba475326d6a6b460d45d40488152f35b50346105515780600319360112610551576020604051600080516020615c208339815191528152f35b503461055157602061075261074c36614574565b90615238565b6002546040516001600160a01b0392831691909216148152f35b5034610551576020366003190112610551576107866143ba565b600080516020615c20833981519152825260016020908152604080842033600090815292529020546107ba9060ff166148a1565b6001600160a01b03166107cc816157db565b6107d4575080f35b7fa850ae9193f515cbae8d35e8925bd2be26627fc91bce650b8652ed254e9cab038280a280f35b50346105515780600319360112610551576020600354604051908152f35b503461055157602036600319011261055157600080516020615c208339815191528152600160209081526040808320336000908152925290205461085f9060ff166148a1565b60043560035580f35b5034610551576020366003190112610551576105ca61088860043561554f565b90604094929451948594855260208501526040840152608060608401526080830190614332565b5034610551576020366003190112610551576108c96143ba565b81805260016020908152604080842033600090815292529020546108ef9060ff16614920565b6109016108fa6152c8565b4210614b17565b7f0000000000000000000000000000000000000000000000000000000000000000156109455760018060a01b03166001600160601b0360a01b600a541617600a5580f35b606460405162461bcd60e51b815260206004820152602060248201527f746f6b656e2061646472657373206368616e6765206e6f7420616c6c6f7765646044820152fd5b5034610551576040366003190112610551576109cf6004356109a96143a4565b906109ca6109c582600052600160205260016040600020015490565b61560f565b6156db565b5080f35b5034610551576020366003190112610551577ffd6fc945a36da5e54e8c65e37d56829b185977f4df3f8244caaae06f42d549c56020600435610a18600f544210614b63565b8380526001825260408085203360009081529084522054610a3b9060ff16614920565b80600e55604051908152a180f35b50346105515760203660031901126105515760043560018060a01b03600a5416906040516370a0823160e01b8152306004820152602081602481865afa8015610b365782908590610afb575b610a9f92506149de565b60135410610ab757610ab49130903390615779565b80f35b606460405162461bcd60e51b815260206004820152602060248201527f6d6f726520746f6b656e73207468616e206e656564656420666f722073616c656044820152fd5b50506020813d602011610b2e575b81610b16602093836144a9565b81010312610b295781610a9f9151610a95565b600080fd5b3d9150610b09565b6040513d86823e3d90fd5b5034610551578060031936011261055157602061058f615537565b50346105515780600319360112610551578080526001602090815260408083203360009081529252902054610b939060ff16614920565b610ba1601054421015614c10565b600b5460ff8160a01c16610c0b57601254601154811015610bfa57506013545b80610bca578280f35b60ff60a01b19909116600160a01b17600b55600a54610bf4919033906001600160a01b0316615594565b38808280f35b610c0690601354614c8c565b610bc1565b5080fd5b503461055157806003193601126105515760206106d8615520565b503461055157806003193601126105515760175460185490601954601a54601b549060405192601c54968785526020850197601c825260208220915b818110610cae57505050610c81846105ca96979803856144a9565b6040519687968752602087015260408601526060850152608084015260c060a084015260c08301906145c3565b82548a5260209099019860019283019201610c66565b5034610551576020366003190112610551576105ca6105b6610ce46143ba565b615500565b50346105515780600319360112610551576020601054604051908152f35b5034610551578060031936011261055157600a546040516370a0823160e01b8152306004820152906001600160a01b0316602082602481845afa918215610deb578392610db7575b5060135480831015610d7257610ab492610d6891614c8c565b9030903390615779565b60405162461bcd60e51b815260206004820152601d60248201527f636f6e747261637420616c72656164792066756c6c792066756e6465640000006044820152606490fd5b9091506020813d602011610de3575b81610dd3602093836144a9565b81010312610b2957519038610d4f565b3d9150610dc6565b6040513d85823e3d90fd5b5034610551578060031936011261055157600b546040516001600160a01b039091168152602090f35b5060403660031901126105515760043560243567ffffffffffffffff81116113a357610e4f9036906004016144e7565b610e576155d0565b610e5f6155f2565b610e67615151565b15611368577f0000000000000000000000000000000000000000000000000000000000000000908115908180611341575b8015611333575b156112ee57610eae90336153b7565b9081156112b957600b546001600160a01b03166112aa573491610ed08561531f565b341061126f575b610ee660135460125490614c8c565b851161122a57338652601f602052610f0060408720615168565b8587825189935b8185106111f7575050610f1a92506149de565b116111b257660100000000000042101561116d57821561116757835b60405191610f4383614477565b338352602083019065ffffffffffff42168252604084019015815260608401888152608085019188835260a086019387855260c08701958652601d54600160401b81101561115357806001610f9b9201601d556145a4565b97909761113f57518754915192516001600160d81b03199092166001600160a01b03919091161760a09290921b65ffffffffffff60a01b169190911790151560d01b60ff60d01b1617855560039392919061100b9051865460ff60d81b191690151560d81b60ff60d81b16178655565b51600185015551600284015551910155338452601f60205260408420601d5460001981019190821161112b579061104191614bee565b601e54600160401b811015611117578060016110609201601e55614413565b81549060031b9033821b9160018060a01b03901b1916179055611085836012546149de565b601255600b546001600160a01b03166110f7575b506110d9575b6040519081524260208201527fbec109f7ee137de661c6887caa96653c0545050a9908a3b6eb5190440bbec86460403392a2600160085580f35b600a546110f290829033906001600160a01b0316615594565b61109f565b600b546111119190309033906001600160a01b0316615779565b38611099565b634e487b7160e01b85526041600452602485fd5b634e487b7160e01b86526011600452602486fd5b634e487b7160e01b8c5260048c905260248cfd5b634e487b7160e01b8c52604160045260248cfd5b84610f36565b60405162461bcd60e51b815260206004820152601c60248201527f76616c756520646f65736e27742066697420696e2034382062697473000000006044820152606490fd5b60405162461bcd60e51b815260206004820152601d60248201527f616d6f756e74206578636565647320696e646976696475616c206d61780000006044820152606490fd5b91600191935061121e908261121561120f88876151b5565b516145a4565b500154906149de565b93019290918892610f07565b60405162461bcd60e51b815260206004820152601960248201527f616d6f756e74203e20746f6b656e7320617661696c61626c65000000000000006044820152606490fd5b60405162461bcd60e51b81526020600482015260136024820152721b9bdd08195b9bdd59da08115512081cd95b9d606a1b6044820152606490fd5b6112b38461531f565b91610ed7565b60405162461bcd60e51b815260206004820152600d60248201526c37379030b63637b1b0ba34b7b760991b6044820152606490fd5b60405162461bcd60e51b815260206004820152601c60248201527f66756e64696e6720726571756972656d656e7473206e6f74206d6574000000006044820152606490fd5b5061133c6149eb565b610e9f565b507f0000000000000000000000000000000000000000000000000000000000000000610e98565b60405162461bcd60e51b815260206004820152601360248201527239b0b632903430b9903a379031329037b832b760691b6044820152606490fd5b8280fd5b50346105515780600319360112610551576002546040516001600160a01b039091168152602090f35b5034610551576020366003190112610551576113ea6143ba565b600080516020615c208339815191528252600160209081526040808420336000908152925290205461141e9060ff166148a1565b60018060a01b03166001600160601b0360a01b600254161760025580f35b503461055157806003193601126105515760206012546011541115604051908152f35b503461055157806003193601126105515760206106d860135460125490614c8c565b50346105515780600319360112610551576020600c54604051908152f35b5034610551576020366003190112610551576004356114bc6155d0565b6114c5816145a4565b50546001600160a01b031633036115f0576114ec6114e282614d20565b8192911515614c5c565b60016114f7836145a4565b500154916003611506826145a4565b5001548361151484836149de565b116115ab5761154161153b848361155797611531836003976149de565b1461155f576149de565b926145a4565b500155600a5433906001600160a01b0316615594565b600160085580f35b611568866145a4565b50805460ff60d01b1916600160d01b1790556040518681527f36a135f5fbde1b6c5f43e056a7f5b0d91279e1693b1b28861e3b0eb06213bf5790602090a16149de565b60405162461bcd60e51b815260206004820152601f60248201527f494520616d6f756e7452656465656d6564203e20707572636861736520612e006044820152606490fd5b60405162461bcd60e51b815260206004820152601460248201527320b2323932b9b99034b9903737ba10313abcb2b960611b6044820152606490fd5b5034610551578060031936011261055157602090604051908152f35b50346105515780600319360112610551576020601d54604051908152f35b503461055157806003193601126105515760206040517f00000000000000000000000000000000000000000000000000000000000000008152f35b50346105515760203660031901126105515760043567ffffffffffffffff8111610c0b576116d3903690600401614373565b9190600080516020615c20833981519152825260016020526040822060018060a01b03331660005260205261170f60ff604060002054166148a1565b8190825b84811061175357505080611725575080f35b60207fc2f03ca34d335e49d4d629b85db054d1ffb679b4fec2e06fe10d0e618b175ecb91604051908152a180f35b6117776001600160a01b0361177161176c8489876148ed565b6148fd565b16615830565b611784575b600101611713565b91611790600191614911565b92905061177c565b50346105515760206106d86117ac3661452e565b91615456565b5034610551576060366003190112610551576004356024356044359183805260016020526040842060018060a01b0333166000526020526117fa60ff60406000205416614920565b8060105411611931578181116118ec57655af3107a400083116118ae57652d79883d20008310611869577f41647b120e0da0bb6302c8236e2a689cbc62f6123a66aff5fae45056cf52b8589260609282601455806015558160165560405192835260208301526040820152a180f35b60405162461bcd60e51b815260206004820152601860248201527f726566756e6450657263656e7461676520746f6f206c6f7700000000000000006044820152606490fd5b60405162461bcd60e51b81526020600482015260166024820152750726566756e6450657263656e74616765203e203130360541b6044820152606490fd5b60405162461bcd60e51b815260206004820152601d60248201527f726566756e64506572696f6420656e64206265666f72652073746172740000006044820152606490fd5b60405162461bcd60e51b815260206004820152601c60248201527f726566756e64207374617274206265666f72652073616c6520656e64000000006044820152606490fd5b503461055157806003193601126105515780805260016020908152604080832033600090815292529020546119ad9060ff16614920565b6119b56157bd565b610ab48180808047335af16119c861496c565b5061499c565b5034610551578060031936011261055157602060ff600b5460a01c166040519015158152f35b5034610551576040366003190112610551576040611a106143a4565b9160043581526001602052209060018060a01b0316600052602052602060ff604060002054166040519015158152f35b50346105515760203660031901126105515760043590601c54821015610551576020611a6b83614444565b90549060031b1c604051908152f35b503461055157604036600319011261055157611a946143ba565b611a9c6143a4565b9082805260016020526040832060018060a01b033316600052602052611ac960ff60406000205416614920565b611ad7601054421015614c10565b600a546001600160a01b0391821691168114611baf57600b546001600160a01b03168114611b6a576040516370a0823160e01b815230600482015291602083602481855afa918215610b36578492611b34575b610ab49350615594565b91506020833d602011611b62575b81611b4f602093836144a9565b81010312610b2957610ab4925191611b2a565b3d9150611b42565b60405162461bcd60e51b815260206004820152601b60248201527f746f6b656e206973207468652074726164652d696e20746f6b656e00000000006044820152606490fd5b60405162461bcd60e51b815260206004820152601b60248201527f746f6b656e2069732074686520746f6b656e20666f722073616c6500000000006044820152606490fd5b50346105515760203660031901126105515760206106d860043561531f565b50346105515780600319360112610551576020601154604051908152f35b503461055157602036600319011261055157611c4b6143ba565b600080516020615c2083398151915282526001602090815260408084203360009081529252902054611c7f9060ff166148a1565b6001600160a01b0316611c91816159bd565b611c99575080f35b7fcdd2e9b91a56913d370075169cefa1602ba36be5301664f752192bb1709df7578280a280f35b503461055157806003193601126105515760206106d86152e4565b50346105515780600319360112610551578080526001602090815260408083203360009081529252902054611d129060ff16614920565b611d1a6157bd565b600a546040516370a0823160e01b8152306004820152906001600160a01b0316602082602481845afa908115610deb578391611d5d575b610ab492503390615594565b90506020823d602011611d8b575b81611d78602093836144a9565b81010312610b2957610ab4915190611d51565b3d9150611d6b565b50346105515780600319360112610551578080526001602090815260408083203360009081529252902054611dca9060ff16614920565b611dd26155f2565b600160ff198254161781557f62e78cea01bee320cd4e420270b5ea74000d11b0c9f74754ebdbfc544b05a2586020604051338152a180f35b50346105515760203660031901126105515760043590601d548210156105515760e0611e35836145a4565b50805490600181015490600360028201549101549160ff6040519460018060a01b038116865265ffffffffffff8160a01c166020870152818160d01c161515604087015260d81c1615156060850152608084015260a083015260c0820152f35b503461055157806003193601126105515760206106d86152c8565b503461055157602036600319011261055157600435611ed2600f544210614b63565b8180526001602090815260408084203360009081529252902054611ef89060ff16614920565b80421015611f3f5760207ff18a09eaf82fdb00baab509d15db4abfd6aba1bf424d6bbc88295fa0f8a400d791611f316010548210614c99565b80600f55604051908152a180f35b60405162461bcd60e51b815260206004820152601c60248201527f73746172742064617465206e6f7420696e2074686520667574757265000000006044820152606490fd5b50346105515780600319360112610551576020601754604051908152f35b5034610551578060031936011261055157602060405164e8d4a510008152f35b5034610551576020611fd661074c36614574565b6040516001600160a01b039091168152f35b50346105515780600319360112610551576009546040516001600160a01b039091168152602090f35b5034610551578060031936011261055157600a546040516001600160a01b039091168152602090f35b503461055157806003193601126105515780805260016020908152604080832033600090815292529020546120719060ff16614920565b6120796157bd565b600b546040516370a0823160e01b8152306004820152906001600160a01b0316602082602481845afa908115610deb578391611d5d57610ab492503390615594565b50346105515780600319360112610551576020601254604051908152f35b503461055157602061058f6120ed3661452e565b916151e1565b5034610551578060031936011261055157602060125460115411604051908152f35b50346105515780600319360112610551576020600d54604051908152f35b50346105515760203660031901126105515761214d6143ba565b81805260016020908152604080842033600090815292529020546121739060ff16614920565b6001600160a01b0316806121c4575b6020817ff62d9d6092e49a0a9a72b4e4f020f4173b0f35e505c41e59b60aeed838602965926001600160601b0360a01b6009541617600955604051908152a180f35b6040516301ffc9a760e01b8152638b1e31c760e01b6004820152602081602481855afa908115610deb57839161223f575b506121825760405162461bcd60e51b815260206004820152601e60248201527f646f6573206e6f7420737570706f7274207374616b655472616e7366657200006044820152606490fd5b612261915060203d602011612267575b61225981836144a9565b8101906151c9565b386121f5565b503d61224f565b503461055157602036600319011261055157600435801515809103610c0b57600080516020615c20833981519152825260016020908152604080842033600090815290835220547fe905f7f52156c346547b9deb6fb3e2459db941ec55d073fd465129bf4b49fae692906122e49060ff166148a1565b6002805460ff60a01b191660a083901b60ff60a01b16179055604051908152a180f35b503461055157806003193601126105515760045461232481615761565b9161233260405193846144a9565b818352601f1961234183615761565b013660208501375b81811061235e57604051806105ca85826143d0565b8061236c600192600461445f565b838060a01b0391549060031b1c1661238482866151b5565b5201612349565b5034610551578060031936011261055157600a546040516370a0823160e01b81523060048201529190602090839060249082906001600160a01b03165afa90811561241457906123e1575b602090604051908152f35b506020813d60201161240c575b816123fb602093836144a9565b81010312610b2957602090516123d6565b3d91506123ee565b604051903d90823e3d90fd5b50346105515780600319360112610551576020600e54604051908152f35b5060603660031901126105515760043560443567ffffffffffffffff81116113a35761246e9036906004016144e7565b6124766155d0565b61247e6155f2565b612486615151565b15611368577f000000000000000000000000000000000000000000000000000000000000000090811590818061257d575b801561256f575b156112ee576124d09060243533615456565b9081156112b957600b546001600160a01b03166125605734916124f28561531f565b341061126f575b61250860135460125490614c8c565b851161122a57338652601f60205261252260408720615168565b8587825189935b81851061253c575050610f1a92506149de565b916001919350612554908261121561120f88876151b5565b93019290918892612529565b6125698461531f565b916124f9565b506125786149eb565b6124be565b507f00000000000000000000000000000000000000000000000000000000000000006124b7565b503461055157806003193601126105515760ff60209154166040519015158152f35b5034610551576040366003190112610551576125e06143ba565b6001600160a01b03168152601f6020526040812080546024359290831015610551576020611a6b848461445f565b50346105515780600319360112610551576020601554604051908152f35b5034610551576020366003190112610551576126466143ba565b600080516020615c208339815191528252600160209081526040808420336000908152925290205461267a9060ff166148a1565b6001600160a01b031661268c816158f3565b612694575080f35b7f2b6bf71b58b3583add364b3d9060ebf8019650f65f5be35f5464b9cb3e4ba2d48280a280f35b50346105515780600319360112610551576020601654604051908152f35b5034610551578060031936011261055157602061058f615151565b50346105515780600319360112610551576020600f54421015604051908152f35b50346105515760203660031901126105515761272f6143ba565b600080516020615c20833981519152825260016020908152604080842033600090815292529020546127639060ff166148a1565b6001600160a01b031661277581615830565b61277d575080f35b7ff9b68063b051b82957fa193585681240904fed808db8b30fc5a2d2202c6ed6278280a280f35b50346105515780600319360112610551576020601054421015604051908152f35b503461055157806003193601126105515780805260016020908152604080832033600090815292529020546127fc9060ff16614920565b6128046157bd565b60ff1981541681557f5db9ee0a495bf2e6ff9c91a7834c1ba4fdd244a5e8aa4e537bd38aeae4b073aa6020604051338152a180f35b503461055157806003193601126105515760065461285681615761565b9161286460405193846144a9565b818352601f1961287383615761565b013660208501375b81811061289057604051806105ca85826143d0565b8061289e600192600661445f565b838060a01b0391549060031b1c166128b682866151b5565b520161287b565b5034610551576020366003190112610551576128da600435614d20565b906105ca6040519283928352604060208401526040830190614332565b503461055157602036600319011261055157602061058f6001600160a01b0361291e6143ba565b166000526005602052604060002054151590565b50346105515760203660031901126105515760043561298581600f54612959814210614b63565b848052600160209081526040808720336000908152925290205461297f9060ff16614920565b10614c99565b61298d6152c8565b81116129c5576020817fa8a30fc464c735231b45b2154d25ba95fbc6860f3b226667372cfc3977f2124b92601055604051908152a180f35b60405162461bcd60e51b815260206004820152601f60248201527f656e6420646174652061667465722076657374696e67537461727454696d65006044820152606490fd5b503461055157602036600319011261055157600435601d54811015612a9b57612a3d612a3760e0926145a4565b506145f7565b60808101519060018060a01b038151169060a081015165ffffffffffff602083015116604083015115159160c06060850151151594015194604051968752602087015260408601526060850152608084015260a083015260c0820152f35b60405162461bcd60e51b815260206004820152601a60248201527f70757263686173655f696420646f6573206e6f742065786973740000000000006044820152606490fd5b503461055157604036600319011261055157612afa6143a4565b336001600160a01b03821603612b16576109cf906004356156db565b63334bd91960e11b8252600482fd5b50346105515780600319360112610551576020601854604051908152f35b503461055157806003193601126105515760195490601b5490601c54908115600014612b83575050602091612b7d6106d892600190614309565b906149de565b60018201809211612ba0575091612b7d6106d89260209490614309565b634e487b7160e01b81526011600452602490fd5b5034610551576040366003190112610551576004356024358015908115036113a357612bde6155d0565b612be7826145a4565b50546001600160a01b031633036115f05781612c05612c0f93614d20565b8194911515614c5c565b6001612c1a826145a4565b5001546003612c28836145a4565b5001549080612c3786846149de565b116115ab5761153b8583612c5193611531836003976149de565b50015515612c7157600a54611557919033906001600160a01b0316615594565b6009546001600160a01b0316908115612e6357600a54604051636eb1769f60e11b8152306004820152602481018490528493916001600160a01b031690602081604481855afa8015612e585784908690612e1e575b612cd092506149de565b60405163095ea7b360e01b602082019081526001600160a01b0385166024830152604480830193909352918152919085908190612d0e6064866144a9565b84519082855af1612d1d61496c565b81612def575b5080612de5575b15612da0575b50506009546001600160a01b0316919050813b15612d9c578291604483926040519586938492638b1e31c760e01b845260048401523360248401525af18015612d8f57612d7f575b5050611557565b612d88916144a9565b3881612d78565b50604051903d90823e3d90fd5b5050fd5b612dd8612ddd936040519063095ea7b360e01b6020830152602482015286604482015260448152612dd26064826144a9565b82615885565b615885565b388080612d30565b50803b1515612d2a565b8051801592508215612e04575b505038612d23565b612e1792506020809183010191016151c9565b3880612dfc565b50506020813d602011612e50575b81612e39602093836144a9565b81010312612e4c5783612cd09151612cc6565b8480fd5b3d9150612e2c565b6040513d87823e3d90fd5b60405162461bcd60e51b815260206004820152601760248201527f4e6f2049444f207374616b696e6720636f6e74726163740000000000000000006044820152606490fd5b5034610551576040366003190112610551576109cf600435612ec86143a4565b90612ee46109c582600052600160205260016040600020015490565b61564c565b50346105515780600319360112610551576020600f544210604051908152f35b50346105515780600319360112610551576020601454604051908152f35b503461055157602036600319011261055157600435612f446155d0565b612f4d816145a4565b50546001600160a01b031633036130625780612f6b612f76926146b8565b829491921515614c5c565b612fe5612fdd846002612f88866145a4565b50805461ffff60d01b1916600160d81b1781556040518781527f16281741b836193cd92031d3d181c3241b9a87ba1eea1ef17fdd0cf8039fec2890602090a1612fd386600c546149de565b600c550154614c8c565b600d546149de565b600d55600b546001600160a01b03166130445761300b8480808087335af16119c861496c565b60405192835260208301527f275893a421a5df15c4da79585c78852a6bbf95b9064470c3d6a5636240274b8760403393a3600160085580f35b600b5461305d90849033906001600160a01b0316615594565b61300b565b60405162461bcd60e51b815260206004820152601a60248201527f4e6f74206275796572206f6620746869732070757263686173650000000000006044820152606490fd5b5034610551576020366003190112610551576020601d5460043510604051908152f35b50346105515780600319360112610551576020601954604051908152f35b50346105515760203660031901126105515760206106d8600435600052600160205260016040600020015490565b503461055157806003193601126105515780805260016020908152604080832033845290915281205461314b9060ff16614920565b6131536155f2565b613161601054421015614c10565b6012546011541161337657600b546001600160a01b0316613220578080808060646131ac7f000000000000000000000000000000000000000000000000000000000000000047614309565b04737939701a22b532a7ba475326d6a6b460d45d40485af16131cc61496c565b50156131e557610ab48180808047335af16119c861496c565b60405162461bcd60e51b8152602060048201526013602482015272119959481d1c985b9cd9995c8819985a5b1959606a1b6044820152606490fd5b600b546040516370a0823160e01b8152306004820152906001600160a01b0316602082602481845afa918215610deb578392613341575b5060646132886132c9937f000000000000000000000000000000000000000000000000000000000000000090614309565b04906040519163a9059cbb60e01b6020840152737939701a22b532a7ba475326d6a6b460d45d40486024840152604483015260448252612dd86064836144a9565b600b546040516370a0823160e01b8152306004820152906001600160a01b0316602082602481845afa908115610deb57839161330b57610ab492503390615594565b90506020823d602011613339575b81613326602093836144a9565b810103126113a357610ab4915190611d51565b3d9150613319565b91506020823d60201161336e575b8161335c602093836144a9565b810103126113a3579051906064613257565b3d915061334f565b60405162461bcd60e51b81526020600482015260196024820152781b5a5b9a5b5d5b481c985a5cd9481b9bdd081c995858da1959603a1b6044820152606490fd5b503461055157806003193601126105515760206040517f000000000000000000000000000000000000000000000000000000000000000015158152f35b503461055157806003193601126105515760206040517f000000000000000000000000000000000000000000000000000000000000000015158152f35b503461055157806003193601126105515760206040517f000000000000000000000000000000000000000000000000000000000000000015158152f35b50346105515760203660031901126105515760043561348b6155d0565b613499601054421015614c10565b7f000000000000000000000000000000000000000000000000000000000000000061372b576134c7816145a4565b50546001600160a01b031633036136ef5760115480156136aa576012541015613665576134f3816145a4565b509060018201541561362057815460ff8160d01c166135e35760ff8160d81c1661359e5761ffff60d01b1916600160d81b1782556040519081527f16281741b836193cd92031d3d181c3241b9a87ba1eea1ef17fdd0cf8039fec2890602090a1600b5482906001600160a01b031661357b578080806002611557950154335af16119c861496c565b50600b546002909101546135999133906001600160a01b0316615594565b611557565b60405162461bcd60e51b815260206004820152601a60248201527f507572636861736520686173206265656e2072657665727465640000000000006044820152606490fd5b60405162461bcd60e51b81526020600482015260156024820152741c1d5c98da185cd9481a5cc8199a5b985b1a5e9959605a1b6044820152606490fd5b60405162461bcd60e51b815260206004820152601760248201527f707572636861736520616d6f756e74206973207a65726f0000000000000000006044820152606490fd5b60405162461bcd60e51b815260206004820152601e60248201527f6d696e696d756d20726169736520686173206265656e207265616368656400006044820152606490fd5b60405162461bcd60e51b815260206004820152601d60248201527f6e6f206d696e696d756d20726169736520686173206265656e207365740000006044820152606490fd5b60405162461bcd60e51b815260206004820152601460248201527330b2323932b9b99034b9903737ba10313abcb2b960611b6044820152606490fd5b60405162461bcd60e51b815260206004820152601e60248201527f73616c652068617320746f206265206e6f6e2041746f6d6963207377617000006044820152606490fd5b50346105515760c03660031901126105515760443560043560243560843560643560a43567ffffffffffffffff8111613e64576137b1903690600401614373565b95909387805260016020526040882060018060a01b03331689526020526137de60ff60408a205416614920565b6137e66152c8565b80613e53575b507f000000000000000000000000000000000000000000000000000000000000000015613e41575b7f0000000000000000000000000000000000000000000000000000000000000000613dfc57655af3107a40008611613dc0578515801590613d825787613d3d57601054808310613cf8576307861f808101809111613ce4578211613cab575b60178790558115613c6857506010548110613c235761389283836149de565b8111613bde575b806018556138a783836149de565b601054809110613b9957848411613b54578715908115613b3d576138d66138d060015b88614309565b856149de565b6307861f808201809211613b295711613ae4578260195583601a5584601b55601c5489601c5580613a84575b50600188101561397e575b50604051958652602086015260408501526060840152608083015260c060a08301528260c083015260018060fb1b03831161397a578160e0917f507910142e585ee6be1b7c9f72cbf219e8cb55016324498741bfa51f1c30eace9460051b8091848401378101030190a180f35b8380fd5b8415613a4957613a35578435655af3107a40008110156139f0576139a181614baf565b6001905b8882106139b3575b5061390d565b6139c9906139c2838b8a6148ed565b35906149de565b90655af3107a40008210156139eb576001906139e483614baf565b01906139a5565b6139ad565b60405162461bcd60e51b815260206004820152601c60248201527f66697273742076657374696e6720706572696f64203e3d2031303025000000006044820152606490fd5b634e487b7160e01b88526032600452602488fd5b60405162461bcd60e51b8152602060048201526013602482015272076657374696e674475726174696f6e203d203606c1b6044820152606490fd5b601c8a527f0e4562a10381dec21b205ed72637e6b1b523bdd0e4d4d50af5cd23dd4500a211017f0e4562a10381dec21b205ed72637e6b1b523bdd0e4d4d50af5cd23dd4500a2115b818110613ad95750613902565b8a8155600101613acc565b60405162461bcd60e51b815260206004820152601960248201527f76657374696e6720656e642074696d6520746f6f206c617465000000000000006044820152606490fd5b634e487b7160e01b8b52601160045260248bfd5b60018901808a11613b29576138d06138d6916138ca565b60405162461bcd60e51b815260206004820152601e60248201527f76657374696e67436c696666203e2076657374696e674475726174696f6e00006044820152606490fd5b60405162461bcd60e51b815260206004820152601760248201527f76657374696e67206265666f72652073616c6520656e640000000000000000006044820152606490fd5b60405162461bcd60e51b815260206004820152601860248201527f74676554696d65206166746572207665737420636c69666600000000000000006044820152606490fd5b60405162461bcd60e51b815260206004820152601b60248201527f74676554696d65206265666f72652073616c6520656e644461746500000000006044820152606490fd5b156138995760405162461bcd60e51b81526020600482015260166024820152750746765416c6c6f636174696f6e206973206e6f7420360541b6044820152606490fd5b60405162461bcd60e51b81526020600482015260116024820152707467652074696d6520746f6f206c61746560781b6044820152606490fd5b634e487b7160e01b8a52601160045260248afd5b60405162461bcd60e51b815260206004820152601760248201527f74676554696d65206265666f72652073616c6520656e640000000000000000006044820152606490fd5b60405162461bcd60e51b815260206004820152601f60248201527f4e6f20544745207665737420666f7220706572696f646963616c2076657374006044820152606490fd5b81156138735760405162461bcd60e51b815260206004820152601060248201526f074676554696d65206973206e6f7420360841b6044820152606490fd5b60405162461bcd60e51b8152602060048201526014602482015273746765416c6c6f636174696f6e203e203130302560601b6044820152606490fd5b60405162461bcd60e51b815260206004820152601a60248201527f6e6f2076657374696e6720666f722061746f6d696320737761700000000000006044820152606490fd5b613e4e600f544210614b63565b613814565b613e5e904210614b17565b386137ec565b8680fd5b5034610551578060031936011261055157602061058f6149eb565b503461055157806003193601126105515760206011541515604051908152f35b50346105515780600319360112610551576020601b54604051908152f35b50346105515780600319360112610551576020601354604051908152f35b503461055157806003193601126105515760206040516177f18152f35b50346105515780600319360112610551576020600f54604051908152f35b5034610551578060031936011261055157808052600160209081526040808320338452909152812054613f4f9060ff16614920565b60155442111561408657600c5480158015809161407b575b1561403e57613ff3575b50600d5480613f7e575080f35b600d829055600b546001600160a01b0316613fd557613fa68280808085335af16119c861496c565b6040519081527f6cd92f4bfc3a3d7f3404beaccae716da12e7b98c4d996556639fe71e8c8c35a160203392a280f35b600b54613fee90829033906001600160a01b0316615594565b613fa6565b81600c5561400c813360018060a01b03600a5416615594565b6040519081527f75301a448908a9c46c60a7f4370ad6eb88c7c9aec9ddae491ba3d71299b97ad860203392a238613f71565b60405162461bcd60e51b81526020600482015260156024820152744e6f20746f6b656e7320746f20776974686472617760581b6044820152606490fd5b50600d541515613f67565b60405162461bcd60e51b815260206004820152601760248201527f526566756e6420706572696f64206e6f7420656e6465640000000000000000006044820152606490fd5b503461055157806003193601126105515760206140e66152c8565b4210604051908152f35b50346105515760203660031901126105515760043567ffffffffffffffff8111610c0b57614122903690600401614373565b9190600080516020615c20833981519152825260016020526040822060018060a01b033316835260205261415c60ff6040842054166148a1565b8190825b8481106141a057505080614172575080f35b60207f448f3bd350ede14a294c062177c5280fe1eae125d16757da21f5f51d6e89daae91604051908152a180f35b6141bf6001600160a01b036141b961176c8489876148ed565b166157db565b6141cc575b600101614160565b916141d8600191614911565b9290506141c4565b5034610551578060031936011261055157602060ff60025460a01c166040519015158152f35b5034610551576020366003190112610551576105ca6142266004356146b8565b60409391935193849384526020840152606060408401526060830190614332565b503461055157806003193601126105515750600b546040516001600160a01b03909116158152602090f35b503461055157806003193601126105515760206040516307861f808152f35b5034610551578060031936011261055157506020652d79883d2000604051908152f35b905034610c0b576020366003190112610c0b5760043563ffffffff60e01b81168091036113a35760209250637965db0b60e01b81149081156142f8575b5015158152f35b6301ffc9a760e01b149050386142f1565b8181029291811591840414171561431c57565b634e487b7160e01b600052601160045260246000fd5b919082519283825260005b84811061435e575050826000602080949584010152601f8019910116010190565b8060208092840101518282860101520161433d565b9181601f84011215610b295782359167ffffffffffffffff8311610b29576020808501948460051b010111610b2957565b602435906001600160a01b0382168203610b2957565b600435906001600160a01b0382168203610b2957565b602060408183019282815284518094520192019060005b8181106143f45750505090565b82516001600160a01b03168452602093840193909201916001016143e7565b601e5481101561442e57601e60005260206000200190600090565b634e487b7160e01b600052603260045260246000fd5b601c5481101561442e57601c60005260206000200190600090565b805482101561442e5760005260206000200190600090565b60e0810190811067ffffffffffffffff82111761449357604052565b634e487b7160e01b600052604160045260246000fd5b90601f8019910116810190811067ffffffffffffffff82111761449357604052565b67ffffffffffffffff811161449357601f01601f191660200190565b81601f82011215610b29578035906144fe826144cb565b9261450c60405194856144a9565b82845260208383010111610b2957816000926020809301838601378301015290565b6060600319820112610b29576004356001600160a01b0381168103610b295791602435916044359067ffffffffffffffff8211610b2957614571916004016144e7565b90565b906040600319830112610b2957600435916024359067ffffffffffffffff8211610b2957614571916004016144e7565b601d5481101561442e57601d60005260206000209060021b0190600090565b906020808351928381520192019060005b8181106145e15750505090565b82518452602093840193909201916001016145d4565b9060405161460481614477565b60c06003829460ff815460018060a01b038116865265ffffffffffff8160a01c166020870152818160d01c161515604087015260d81c161515606085015260018101546080850152600281015460a08501520154910152565b6040519061466c6040836144a9565b601a82527f507572636861736520686173206265656e2072657665727465640000000000006020830152565b81156146a2570490565b634e487b7160e01b600052601260045260246000fd5b7f000000000000000000000000000000000000000000000000000000000000000061485f576146e5615537565b1561482657601d548110156147e457612a37614700916145a4565b9060408201516147a15760608201516147935760c0820151614750576080655af3107a400061473660a085015160165490614309565b04920151906040516147496020826144a9565b6000815290565b90506000906000906040516147666040826144a9565b601b81527f4e6f20726566756e6420696620746f6b656e7320636c61696d65640000000000602082015290565b60009150819061457161465d565b90506000906000906040516147b76040826144a9565b601a81527f507572636861736520616c72656164792066696e616c697a6564000000000000602082015290565b506000906000906040516147f96040826144a9565b601781527f507572636861736520646f6573206e6f74206578697374000000000000000000602082015290565b5060009060009060405161483b6040826144a9565b6014815273139bdd081a5b881c99599d5b99081c195c9a5bd960621b602082015290565b506000906000906040516148746040826144a9565b601981527f4e6f20726566756e6420666f722041746f6d6963207377617000000000000000602082015290565b156148a857565b60405162461bcd60e51b815260206004820152601c60248201527f63616c6c6572206973206e6f742057686974656c6973744f776e6572000000006044820152606490fd5b919081101561442e5760051b0190565b356001600160a01b0381168103610b295790565b600019811461431c5760010190565b1561492757565b60405162461bcd60e51b815260206004820152601960248201527f63616c6c657220686173206e6f742061646d696e20726f6c65000000000000006044820152606490fd5b3d15614997573d9061497d826144cb565b9161498b60405193846144a9565b82523d6000602084013e565b606090565b156149a357565b60405162461bcd60e51b8152602060048201526013602482015272115512081d1c985b9cd9995c8819985a5b1959606a1b6044820152606490fd5b9190820180921161431c57565b7f000000000000000000000000000000000000000000000000000000000000000015614aa157600a546040516370a0823160e01b815230600482015290602090829060249082906001600160a01b03165afa8015614a9557600090614a61575b614a599150601254906149de565b601354111590565b506020813d602011614a8d575b81614a7b602093836144a9565b81010312610b2957614a599051614a4b565b3d9150614a6e565b6040513d6000823e3d90fd5b600a546040516370a0823160e01b815230600482015290602090829060249082906001600160a01b03165afa908115614a9557600091614ae5575b50601354111590565b90506020813d602011614b0f575b81614b00602093836144a9565b81010312610b29575138614adc565b3d9150614af3565b15614b1e57565b60405162461bcd60e51b815260206004820152601760248201527f76657374696e6720616c726561647920737461727465640000000000000000006044820152606490fd5b15614b6a57565b60405162461bcd60e51b815260206004820152601a60248201527f746f6b656e2073616c6520616c726561647920737461727465640000000000006044820152606490fd5b601c54600160401b81101561449357614bd3816001614bea9301601c55601c61445f565b819391549060031b91821b91600019901b19161790565b9055565b805490600160401b8210156144935781614bd3916001614bea9401815561445f565b15614c1757565b60405162461bcd60e51b815260206004820152601860248201527f73616c652068617320746f2062652066696e616c697a656400000000000000006044820152606490fd5b15614c645750565b60405162461bcd60e51b815260206004820152908190614c88906024830190614332565b0390fd5b9190820391821161431c57565b15614ca057565b60405162461bcd60e51b815260206004820152601a60248201527f656e642064617465206265666f726520737461727420646174650000000000006044820152606490fd5b60405190614cf46040836144a9565b601a82527f70757263686173655f696420646f6573206e6f742065786973740000000000006020830152565b601d54811015615145577f00000000000000000000000000000000000000000000000000000000000000006151065760105442106150c75760ff60005416615088576012546011541161504d5760ff614d78826145a4565b505460d81c16615041576003614d9b6001614d92846145a4565b500154926145a4565b50015481811015615001576000601c548015600014614f5d5750601954601b5442614dc682846149de565b11614ede57505050815b828211614e8d578211614e4d57614de691614c8c565b9060008215614e1d5750604051614dfe6040826144a9565b600f81526e726561647920746f2072656465656d60881b602082015290565b50604051614e2c6040826144a9565b60118152706e6f7468696e6720746f2072656465656d60781b602082015290565b5050600090604051614e606040826144a9565b601f81527f49452076657374416d6f756e74203e2070757263686173655f616d6f756e7400602082015290565b505050600090604051614ea16060826144a9565b602781527f49452070757263686173655f616d6f756e7452656465656d6564203e207665736020820152661d105b5bdd5b9d60ca1b604082015290565b601894929454421015614ef3575b5050614dd0565b909350655af3107a4000614f0960175484614309565b0490819442614f1a601a54836149de565b1115614f27575b50614eec565b83955090614f4f612b7d92614f49614f4286614f5498614c8c565b9142614c8c565b90614309565b614698565b91388080614f21565b9050601954614f6e601a54826149de565b4210614fbf57614f81614f8a9142614c8c565b601b5490614698565b908110614f98575081614dd0565b614fb8614fab655af3107a400092614444565b90549060031b1c84614309565b0491614dd0565b50505050600090604051614fd46040826144a9565b601d81527f76657374696e6720636c696666206e6f74207965742072656163686564000000602082015290565b50506000906040516150146040826144a9565b601a81527f616c6c20746f6b656e20616c72656164792072656465656d6564000000000000602082015290565b5060009061457161465d565b5060009060405161505f6040826144a9565b60198152781b5a5b9a5b5d5b481c985a5cd9481b9bdd081c995858da1959603a1b602082015290565b5060009060405161509a6040826144a9565b601d81527f746f6b656e2073616c6520636f6e747261637420697320706175736564000000602082015290565b506000906040516150d96040826144a9565b601881527f746f6b656e2073616c65206e6f742066696e616c697a65640000000000000000602082015290565b506000906040516151186040826144a9565b601981527f68617320746f206265206e6f6e2041746f6d6963207377617000000000000000602082015290565b50600090614571614ce5565b600f544210158061515f5790565b50601054421090565b906040519182815491828252602082019060005260206000209260005b81811061519c57505061519a925003836144a9565b565b8454835260019485019487945060209093019201615185565b805182101561442e5760209160051b010190565b90816020910312610b2957518015158103610b295790565b61522492916040519060208201926001600160601b03199060601b16835260348201523060601b60548201526048815261521c6068826144a9565b519020615238565b6002546001600160a01b0391821691161490565b6041825103615283576145719161527a917f19457468657265756d205369676e6564204d6573736167653a0a333200000000600052601c52603c600020615a71565b90929192615aad565b60405162461bcd60e51b815260206004820152601960248201527f7369676e6174757265206973206e6f74203635206279746573000000000000006044820152606490fd5b60185480156152d45790565b50614571601954601a54906149de565b60195480421061531957601b54801561531257614f4f6153049242614c8c565b6001810180911161431c5790565b5050600190565b50600090565b600e5461532b91614309565b600a5460405163313ce56760e01b815290602090829060049082906001600160a01b03165afa908115614a955760009161537a575b5060ff1690604d821161431c5761457191600a0a90614698565b6020813d6020116153af575b81615393602093836144a9565b81010312610c0b57519060ff82168203610551575060ff615360565b3d9150615386565b6001600160a01b03811660008181526007602052604090205491929161544e576002549060ff8260a01c1615908115615430575b50615427576001600160a01b031615159182615413575b505061540d57600090565b60035490565b61542092506000906151e1565b3880615402565b50505060035490565b61544891506000526005602052604060002054151590565b386153eb565b505050600090565b6001600160a01b038116600081815260076020526040902054929391926154f7576002549060ff8260a01c16159081156154d9575b506154cf576001600160a01b03161515918390836154bd575b5050506154b15750600090565b80614571575060035490565b6154c793506151e1565b3882816154a4565b5050505060035490565b6154f191506000526005602052604060002054151590565b3861548b565b50505050600090565b6001600160a01b03166000908152601f6020526040902061457190615168565b601c548015615319576001810180911161431c5790565b601454421015806155455790565b5060155442111590565b601d54811061556a5750600090600090600090614571614ce5565b6001615575826145a4565b500154916155906003615587846145a4565b50015492614d20565b9091565b60405163a9059cbb60e01b60208201526001600160a01b0392909216602483015260448083019390935291815261519a91612dd86064836144a9565b6002600854146155e1576002600855565b633ee5aeb560e01b60005260046000fd5b60ff600054166155fe57565b63d93c066560e01b60005260046000fd5b600081815260016020908152604080832033845290915290205460ff16156156345750565b63e2517d3f60e01b6000523360045260245260446000fd5b60008181526001602090815260408083206001600160a01b038616845290915290205460ff166156d45760008181526001602081815260408084206001600160a01b0396909616808552959091528220805460ff19169091179055339291907f2f8788117e7eff1d82e926ec794901d17c78024a50270940304540a733656f0d9080a4600190565b5050600090565b60008181526001602090815260408083206001600160a01b038616845290915290205460ff16156156d45760008181526001602090815260408083206001600160a01b0395909516808452949091528120805460ff19169055339291907ff6391f5c32d9c69d2a47ea670b442974b53935d1edc7fd64eb21e047a839171b9080a4600190565b67ffffffffffffffff81116144935760051b60200190565b6040516323b872dd60e01b60208201526001600160a01b03928316602482015292909116604483015260648083019390935291815261519a91612dd86084836144a9565b60ff60005416156157ca57565b638dfc202b60e01b60005260046000fd5b8060005260056020526040600020541560001461531957600454600160401b81101561449357615817614bd3826001859401600455600461445f565b9055600454906000526005602052604060002055600190565b8060005260076020526040600020541560001461531957600654600160401b8110156144935761586c614bd3826001859401600655600661445f565b9055600654906000526007602052604060002055600190565b6000806158ae9260018060a01b03169360208151910182865af16158a761496c565b9083615bbe565b80519081151591826158d8575b50506158c45750565b635274afe760e01b60005260045260246000fd5b6158eb92506020809183010191016151c9565b1538806158bb565b60008181526007602052604090205480156156d457600019810181811161431c5760065460001981019190821161431c57818103615983575b505050600654801561596d576000190161594781600661445f565b8154906000199060031b1b19169055600655600052600760205260006040812055600190565b634e487b7160e01b600052603160045260246000fd5b6159a5615994614bd393600661445f565b90549060031b1c928392600661445f565b9055600052600760205260406000205538808061592c565b60008181526005602052604090205480156156d457600019810181811161431c5760045460001981019190821161431c57818103615a37575b505050600454801561596d5760001901615a1181600461445f565b8154906000199060031b1b19169055600455600052600560205260006040812055600190565b615a59615a48614bd393600461445f565b90549060031b1c928392600461445f565b905560005260056020526040600020553880806159f6565b8151919060418303615aa257615a9b92506020820151906060604084015193015160001a90615b35565b9192909190565b505060009160029190565b9190916004811015615b1f5780615ac357509050565b600060018203615ade5763f645eedf60e01b60005260046000fd5b5060028103615afc578263fce698f760e01b60005260045260246000fd5b9091600360009214615b0c575050565b6335e2f38360e21b825260045260249150fd5b634e487b7160e01b600052602160045260246000fd5b91907f7fffffffffffffffffffffffffffffff5d576e7357a4501ddfe92f46681b20a08411615bb2579160209360809260ff60009560405194855216868401526040830152606082015282805260015afa15614a95576000516001600160a01b03811615615ba65790600090600090565b50600090600190600090565b50505060009160039190565b90615be45750805115615bd357805190602001fd5b630a12f52160e11b60005260046000fd5b81511580615c16575b615bf5575090565b639996b31560e01b60009081526001600160a01b0391909116600452602490fd5b50803b15615bed56feb813b807c25079ba97f1770664c6a9e57c59afe74a6295f1ed01c10e3bb6baaea164736f6c634300081c000a2f8788117e7eff1d82e926ec794901d17c78024a50270940304540a733656f0da6eef7e35abe7026729641147f7915573c7e97b47efa546f5f6e3230263bcb49358823ad0653452618750bed6506f24f63ef58f0cce438e3a379e32873da19d2",
  "linkReferences": {},
  "deployedLinkReferences": {}
}