{
  "_format": "hh-sol-artifact-1",
  "contractName": "FixedSwap",
  "sourceName": "contracts/FixedSwap.sol",
  "abi": [
    {
      "inputs": [
        {
          "internalType": "address",
          "name": "_tokenAddress",
          "type": "address"
        },
        {
          "internalType": "uint256",
          "name": "_tradeValue",
          "type": "uint256"
        },
        {
          "internalType": "uint256",
          "name": "_tokensForSale",
          "type": "uint256"
        },
        {
          "internalType": "uint256",
          "name": "_startDate",
          "type": "uint256"
        },
        {
          "internalType": "uint256",
          "name": "_endDate",
          "type": "uint256"
        },
        {
          "internalType": "uint256",
          "name": "_individualMinimumAmount",
          "type": "uint256"
        },
        {
          "internalType": "uint256",
          "name": "_individualMaximumAmount",
          "type": "uint256"
        },
        {
          "internalType": "bool",
          "name": "_ignored",
          "type": "bool"
        },
        {
          "internalType": "uint256",
          "name": "_minimumRaise",
          "type": "uint256"
        },
        {
          "internalType": "uint256",
          "name": "_feePercentage",
          "type": "uint256"
        },
        {
          "internalType": "uint32",
          "name": "_flags",
          "type": "uint32"
        },
        {
          "internalType": "address",
          "name": "_erc20TradeAddress",
          "type": "address"
        },
        {
          "internalType": "uint256",
          "name": "_vestingStart",
          "type": "uint256"
        },
        {
          "internalType": "uint256",
          "name": "_vestingCliff",
          "type": "uint256"
        },
        {
          "internalType": "uint256",
          "name": "_vestingDuration",
          "type": "uint256"
        },
        {
          "internalType": "uint256[]",
          "name": "_vestingSchedule",
          "type": "uint256[]"
        }
      ],
      "stateMutability": "nonpayable",
      "type": "constructor"
    },
    {
      "anonymous": false,
      "inputs": [
        {
          "indexed": false,
          "internalType": "uint256",
          "name": "count",
          "type": "uint256"
        }
      ],
      "name": "AddedArrayToBlacklist",
      "type": "event"
    },
    {
      "anonymous": false,
      "inputs": [
        {
          "indexed": false,
          "internalType": "uint256",
          "name": "count",
          "type": "uint256"
        }
      ],
      "name": "AddedArrayToWhitelist",
      "type": "event"
    },
    {
      "anonymous": false,
      "inputs": [
        {
          "indexed": true,
          "internalType": "address",
          "name": "account",
          "type": "address"
        }
      ],
      "name": "AddedToBlacklist",
      "type": "event"
    },
    {
      "anonymous": false,
      "inputs": [
        {
          "indexed": true,
          "internalType": "address",
          "name": "account",
          "type": "address"
        }
      ],
      "name": "AddedToWhitelist",
      "type": "event"
    },
    {
      "anonymous": false,
      "inputs": [
        {
          "indexed": false,
          "internalType": "address",
          "name": "account",
          "type": "address"
        }
      ],
      "name": "Paused",
      "type": "event"
    },
    {
      "anonymous": false,
      "inputs": [
        {
          "indexed": false,
          "internalType": "uint256",
          "name": "amount",
          "type": "uint256"
        },
        {
          "indexed": true,
          "internalType": "address",
          "name": "purchaser",
          "type": "address"
        },
        {
          "indexed": false,
          "internalType": "uint256",
          "name": "timestamp",
          "type": "uint256"
        }
      ],
      "name": "PurchaseEvent",
      "type": "event"
    },
    {
      "anonymous": false,
      "inputs": [
        {
          "indexed": true,
          "internalType": "address",
          "name": "account",
          "type": "address"
        }
      ],
      "name": "RemovedFromBlacklist",
      "type": "event"
    },
    {
      "anonymous": false,
      "inputs": [
        {
          "indexed": true,
          "internalType": "address",
          "name": "account",
          "type": "address"
        }
      ],
      "name": "RemovedFromWhitelist",
      "type": "event"
    },
    {
      "anonymous": false,
      "inputs": [
        {
          "indexed": true,
          "internalType": "bytes32",
          "name": "role",
          "type": "bytes32"
        },
        {
          "indexed": true,
          "internalType": "bytes32",
          "name": "previousAdminRole",
          "type": "bytes32"
        },
        {
          "indexed": true,
          "internalType": "bytes32",
          "name": "newAdminRole",
          "type": "bytes32"
        }
      ],
      "name": "RoleAdminChanged",
      "type": "event"
    },
    {
      "anonymous": false,
      "inputs": [
        {
          "indexed": true,
          "internalType": "bytes32",
          "name": "role",
          "type": "bytes32"
        },
        {
          "indexed": true,
          "internalType": "address",
          "name": "account",
          "type": "address"
        },
        {
          "indexed": true,
          "internalType": "address",
          "name": "sender",
          "type": "address"
        }
      ],
      "name": "RoleGranted",
      "type": "event"
    },
    {
      "anonymous": false,
      "inputs": [
        {
          "indexed": true,
          "internalType": "bytes32",
          "name": "role",
          "type": "bytes32"
        },
        {
          "indexed": true,
          "internalType": "address",
          "name": "account",
          "type": "address"
        },
        {
          "indexed": true,
          "internalType": "address",
          "name": "sender",
          "type": "address"
        }
      ],
      "name": "RoleRevoked",
      "type": "event"
    },
    {
      "anonymous": false,
      "inputs": [
        {
          "indexed": false,
          "internalType": "bool",
          "name": "hasWhitelisting",
          "type": "bool"
        }
      ],
      "name": "SetHasWhitelisting",
      "type": "event"
    },
    {
      "anonymous": false,
      "inputs": [
        {
          "indexed": false,
          "internalType": "address",
          "name": "account",
          "type": "address"
        }
      ],
      "name": "Unpaused",
      "type": "event"
    },
    {
      "inputs": [],
      "name": "DECIMALS_PERCENT_MUL",
      "outputs": [
        {
          "internalType": "uint256",
          "name": "",
          "type": "uint256"
        }
      ],
      "stateMutability": "view",
      "type": "function"
    },
    {
      "inputs": [],
      "name": "DEFAULT_ADMIN_ROLE",
      "outputs": [
        {
          "internalType": "bytes32",
          "name": "",
          "type": "bytes32"
        }
      ],
      "stateMutability": "view",
      "type": "function"
    },
    {
      "inputs": [],
      "name": "FEE_ADDRESS",
      "outputs": [
        {
          "internalType": "address",
          "name": "",
          "type": "address"
        }
      ],
      "stateMutability": "view",
      "type": "function"
    },
    {
      "inputs": [],
      "name": "POLS_TOKEN_ADDRESS",
      "outputs": [
        {
          "internalType": "address",
          "name": "",
          "type": "address"
        }
      ],
      "stateMutability": "view",
      "type": "function"
    },
    {
      "inputs": [],
      "name": "POLS_UNIV2_ADDRESS",
      "outputs": [
        {
          "internalType": "address",
          "name": "",
          "type": "address"
        }
      ],
      "stateMutability": "view",
      "type": "function"
    },
    {
      "inputs": [],
      "name": "PolsStakeAddress",
      "outputs": [
        {
          "internalType": "address",
          "name": "",
          "type": "address"
        }
      ],
      "stateMutability": "view",
      "type": "function"
    },
    {
      "inputs": [],
      "name": "PolsStakeAmount",
      "outputs": [
        {
          "internalType": "uint256",
          "name": "",
          "type": "uint256"
        }
      ],
      "stateMutability": "view",
      "type": "function"
    },
    {
      "inputs": [],
      "name": "PolsStakeRewards",
      "outputs": [
        {
          "internalType": "uint256",
          "name": "",
          "type": "uint256"
        }
      ],
      "stateMutability": "view",
      "type": "function"
    },
    {
      "inputs": [],
      "name": "WHITELIST_OWNER_ROLE",
      "outputs": [
        {
          "internalType": "bytes32",
          "name": "",
          "type": "bytes32"
        }
      ],
      "stateMutability": "view",
      "type": "function"
    },
    {
      "inputs": [
        {
          "internalType": "address[]",
          "name": "_addresses",
          "type": "address[]"
        }
      ],
      "name": "addArrayToBlacklist",
      "outputs": [],
      "stateMutability": "nonpayable",
      "type": "function"
    },
    {
      "inputs": [
        {
          "internalType": "address[]",
          "name": "_addresses",
          "type": "address[]"
        }
      ],
      "name": "addArrayToWhitelist",
      "outputs": [],
      "stateMutability": "nonpayable",
      "type": "function"
    },
    {
      "inputs": [
        {
          "internalType": "address",
          "name": "_address",
          "type": "address"
        }
      ],
      "name": "addToBlacklist",
      "outputs": [],
      "stateMutability": "nonpayable",
      "type": "function"
    },
    {
      "inputs": [
        {
          "internalType": "address",
          "name": "_address",
          "type": "address"
        }
      ],
      "name": "addToWhitelist",
      "outputs": [],
      "stateMutability": "nonpayable",
      "type": "function"
    },
    {
      "inputs": [],
      "name": "availableTokens",
      "outputs": [
        {
          "internalType": "uint256",
          "name": "",
          "type": "uint256"
        }
      ],
      "stateMutability": "view",
      "type": "function"
    },
    {
      "inputs": [
        {
          "internalType": "uint256",
          "name": "",
          "type": "uint256"
        }
      ],
      "name": "buyers",
      "outputs": [
        {
          "internalType": "address",
          "name": "",
          "type": "address"
        }
      ],
      "stateMutability": "view",
      "type": "function"
    },
    {
      "inputs": [
        {
          "internalType": "uint256",
          "name": "_amount",
          "type": "uint256"
        }
      ],
      "name": "cost",
      "outputs": [
        {
          "internalType": "uint256",
          "name": "",
          "type": "uint256"
        }
      ],
      "stateMutability": "view",
      "type": "function"
    },
    {
      "inputs": [],
      "name": "endDate",
      "outputs": [
        {
          "internalType": "uint256",
          "name": "",
          "type": "uint256"
        }
      ],
      "stateMutability": "view",
      "type": "function"
    },
    {
      "inputs": [],
      "name": "erc20",
      "outputs": [
        {
          "internalType": "contract IERC20",
          "name": "",
          "type": "address"
        }
      ],
      "stateMutability": "view",
      "type": "function"
    },
    {
      "inputs": [],
      "name": "erc20TradeIn",
      "outputs": [
        {
          "internalType": "contract IERC20",
          "name": "",
          "type": "address"
        }
      ],
      "stateMutability": "view",
      "type": "function"
    },
    {
      "inputs": [],
      "name": "feePercentage",
      "outputs": [
        {
          "internalType": "uint256",
          "name": "",
          "type": "uint256"
        }
      ],
      "stateMutability": "view",
      "type": "function"
    },
    {
      "inputs": [
        {
          "internalType": "uint256",
          "name": "_amount",
          "type": "uint256"
        }
      ],
      "name": "fund",
      "outputs": [],
      "stateMutability": "nonpayable",
      "type": "function"
    },
    {
      "inputs": [],
      "name": "getAPIVersion",
      "outputs": [
        {
          "internalType": "uint32",
          "name": "API_VERSION",
          "type": "uint32"
        }
      ],
      "stateMutability": "pure",
      "type": "function"
    },
    {
      "inputs": [],
      "name": "getBlacklistedAddresses",
      "outputs": [
        {
          "internalType": "address[]",
          "name": "",
          "type": "address[]"
        }
      ],
      "stateMutability": "view",
      "type": "function"
    },
    {
      "inputs": [],
      "name": "getBuyers",
      "outputs": [
        {
          "internalType": "address[]",
          "name": "",
          "type": "address[]"
        }
      ],
      "stateMutability": "view",
      "type": "function"
    },
    {
      "inputs": [],
      "name": "getCurrentSchedule",
      "outputs": [
        {
          "internalType": "uint256",
          "name": "schedule",
          "type": "uint256"
        }
      ],
      "stateMutability": "view",
      "type": "function"
    },
    {
      "inputs": [
        {
          "internalType": "address",
          "name": "_address",
          "type": "address"
        }
      ],
      "name": "getMyPurchases",
      "outputs": [
        {
          "internalType": "uint256[]",
          "name": "",
          "type": "uint256[]"
        }
      ],
      "stateMutability": "view",
      "type": "function"
    },
    {
      "inputs": [],
      "name": "getMyPurchases_msgSender",
      "outputs": [
        {
          "internalType": "uint256[]",
          "name": "",
          "type": "uint256[]"
        }
      ],
      "stateMutability": "view",
      "type": "function"
    },
    {
      "inputs": [
        {
          "internalType": "uint256",
          "name": "purchase_id",
          "type": "uint256"
        }
      ],
      "name": "getPurchase",
      "outputs": [
        {
          "internalType": "uint256",
          "name": "amount",
          "type": "uint256"
        },
        {
          "internalType": "address",
          "name": "purchaser",
          "type": "address"
        },
        {
          "internalType": "uint256",
          "name": "costAmount",
          "type": "uint256"
        },
        {
          "internalType": "uint48",
          "name": "timestamp",
          "type": "uint48"
        },
        {
          "internalType": "bool",
          "name": "wasFinalized",
          "type": "bool"
        },
        {
          "internalType": "bool",
          "name": "reverted",
          "type": "bool"
        },
        {
          "internalType": "uint256",
          "name": "amountRedeemed",
          "type": "uint256"
        }
      ],
      "stateMutability": "view",
      "type": "function"
    },
    {
      "inputs": [],
      "name": "getPurchasesCount",
      "outputs": [
        {
          "internalType": "uint256",
          "name": "count",
          "type": "uint256"
        }
      ],
      "stateMutability": "view",
      "type": "function"
    },
    {
      "inputs": [
        {
          "internalType": "uint256",
          "name": "purchase_id",
          "type": "uint256"
        }
      ],
      "name": "getRedeemStatus",
      "outputs": [
        {
          "internalType": "uint256",
          "name": "amount",
          "type": "uint256"
        },
        {
          "internalType": "uint256",
          "name": "amountRedeemed",
          "type": "uint256"
        },
        {
          "internalType": "uint256",
          "name": "vestAmount",
          "type": "uint256"
        },
        {
          "internalType": "string",
          "name": "message",
          "type": "string"
        }
      ],
      "stateMutability": "view",
      "type": "function"
    },
    {
      "inputs": [
        {
          "internalType": "uint256",
          "name": "purchase_id",
          "type": "uint256"
        }
      ],
      "name": "getRedeemableTokensAmount",
      "outputs": [
        {
          "internalType": "uint256",
          "name": "amount",
          "type": "uint256"
        },
        {
          "internalType": "string",
          "name": "message",
          "type": "string"
        }
      ],
      "stateMutability": "view",
      "type": "function"
    },
    {
      "inputs": [
        {
          "internalType": "bytes32",
          "name": "role",
          "type": "bytes32"
        }
      ],
      "name": "getRoleAdmin",
      "outputs": [
        {
          "internalType": "bytes32",
          "name": "",
          "type": "bytes32"
        }
      ],
      "stateMutability": "view",
      "type": "function"
    },
    {
      "inputs": [
        {
          "internalType": "bytes32",
          "name": "role",
          "type": "bytes32"
        },
        {
          "internalType": "uint256",
          "name": "index",
          "type": "uint256"
        }
      ],
      "name": "getRoleMember",
      "outputs": [
        {
          "internalType": "address",
          "name": "",
          "type": "address"
        }
      ],
      "stateMutability": "view",
      "type": "function"
    },
    {
      "inputs": [
        {
          "internalType": "bytes32",
          "name": "role",
          "type": "bytes32"
        }
      ],
      "name": "getRoleMemberCount",
      "outputs": [
        {
          "internalType": "uint256",
          "name": "",
          "type": "uint256"
        }
      ],
      "stateMutability": "view",
      "type": "function"
    },
    {
      "inputs": [],
      "name": "getWhitelistedAddresses",
      "outputs": [
        {
          "internalType": "address[]",
          "name": "",
          "type": "address[]"
        }
      ],
      "stateMutability": "view",
      "type": "function"
    },
    {
      "inputs": [
        {
          "internalType": "bytes32",
          "name": "role",
          "type": "bytes32"
        },
        {
          "internalType": "address",
          "name": "account",
          "type": "address"
        }
      ],
      "name": "grantRole",
      "outputs": [],
      "stateMutability": "nonpayable",
      "type": "function"
    },
    {
      "inputs": [],
      "name": "hasFinalized",
      "outputs": [
        {
          "internalType": "bool",
          "name": "",
          "type": "bool"
        }
      ],
      "stateMutability": "view",
      "type": "function"
    },
    {
      "inputs": [],
      "name": "hasMinimumAmount",
      "outputs": [
        {
          "internalType": "bool",
          "name": "",
          "type": "bool"
        }
      ],
      "stateMutability": "view",
      "type": "function"
    },
    {
      "inputs": [],
      "name": "hasMinimumRaise",
      "outputs": [
        {
          "internalType": "bool",
          "name": "",
          "type": "bool"
        }
      ],
      "stateMutability": "view",
      "type": "function"
    },
    {
      "inputs": [
        {
          "internalType": "bytes32",
          "name": "role",
          "type": "bytes32"
        },
        {
          "internalType": "address",
          "name": "account",
          "type": "address"
        }
      ],
      "name": "hasRole",
      "outputs": [
        {
          "internalType": "bool",
          "name": "",
          "type": "bool"
        }
      ],
      "stateMutability": "view",
      "type": "function"
    },
    {
      "inputs": [],
      "name": "hasStarted",
      "outputs": [
        {
          "internalType": "bool",
          "name": "",
          "type": "bool"
        }
      ],
      "stateMutability": "view",
      "type": "function"
    },
    {
      "inputs": [],
      "name": "hasWhitelisting",
      "outputs": [
        {
          "internalType": "bool",
          "name": "",
          "type": "bool"
        }
      ],
      "stateMutability": "view",
      "type": "function"
    },
    {
      "inputs": [],
      "name": "individualMaximumAmount",
      "outputs": [
        {
          "internalType": "uint256",
          "name": "",
          "type": "uint256"
        }
      ],
      "stateMutability": "view",
      "type": "function"
    },
    {
      "inputs": [],
      "name": "individualMinimumAmount",
      "outputs": [
        {
          "internalType": "uint256",
          "name": "",
          "type": "uint256"
        }
      ],
      "stateMutability": "view",
      "type": "function"
    },
    {
      "inputs": [
        {
          "internalType": "address",
          "name": "_account",
          "type": "address"
        }
      ],
      "name": "isAddressPOLSWhitelisted",
      "outputs": [
        {
          "internalType": "bool",
          "name": "",
          "type": "bool"
        }
      ],
      "stateMutability": "view",
      "type": "function"
    },
    {
      "inputs": [
        {
          "internalType": "address",
          "name": "_address",
          "type": "address"
        }
      ],
      "name": "isBlacklisted",
      "outputs": [
        {
          "internalType": "bool",
          "name": "",
          "type": "bool"
        }
      ],
      "stateMutability": "view",
      "type": "function"
    },
    {
      "inputs": [
        {
          "internalType": "uint256",
          "name": "purchase_id",
          "type": "uint256"
        }
      ],
      "name": "isBuyer",
      "outputs": [
        {
          "internalType": "bool",
          "name": "",
          "type": "bool"
        }
      ],
      "stateMutability": "view",
      "type": "function"
    },
    {
      "inputs": [],
      "name": "isETHTrade",
      "outputs": [
        {
          "internalType": "bool",
          "name": "",
          "type": "bool"
        }
      ],
      "stateMutability": "view",
      "type": "function"
    },
    {
      "inputs": [],
      "name": "isOpen",
      "outputs": [
        {
          "internalType": "bool",
          "name": "",
          "type": "bool"
        }
      ],
      "stateMutability": "view",
      "type": "function"
    },
    {
      "inputs": [],
      "name": "isPOLSWhitelisted",
      "outputs": [
        {
          "internalType": "bool",
          "name": "",
          "type": "bool"
        }
      ],
      "stateMutability": "view",
      "type": "function"
    },
    {
      "inputs": [],
      "name": "isPreStart",
      "outputs": [
        {
          "internalType": "bool",
          "name": "",
          "type": "bool"
        }
      ],
      "stateMutability": "view",
      "type": "function"
    },
    {
      "inputs": [],
      "name": "isSaleFunded",
      "outputs": [
        {
          "internalType": "bool",
          "name": "",
          "type": "bool"
        }
      ],
      "stateMutability": "view",
      "type": "function"
    },
    {
      "inputs": [
        {
          "internalType": "address",
          "name": "_userAccountAaddress",
          "type": "address"
        },
        {
          "internalType": "uint256",
          "name": "_accountMaximunAllocation",
          "type": "uint256"
        },
        {
          "internalType": "bytes",
          "name": "signature",
          "type": "bytes"
        }
      ],
      "name": "isSignerForAddressMaxAlloc",
      "outputs": [
        {
          "internalType": "bool",
          "name": "",
          "type": "bool"
        }
      ],
      "stateMutability": "view",
      "type": "function"
    },
    {
      "inputs": [
        {
          "internalType": "bytes32",
          "name": "hash",
          "type": "bytes32"
        },
        {
          "internalType": "bytes",
          "name": "signature",
          "type": "bytes"
        }
      ],
      "name": "isSignerFromBytes32",
      "outputs": [
        {
          "internalType": "bool",
          "name": "",
          "type": "bool"
        }
      ],
      "stateMutability": "view",
      "type": "function"
    },
    {
      "inputs": [],
      "name": "isTokenSwapAtomic",
      "outputs": [
        {
          "internalType": "bool",
          "name": "",
          "type": "bool"
        }
      ],
      "stateMutability": "view",
      "type": "function"
    },
    {
      "inputs": [
        {
          "internalType": "address",
          "name": "_address",
          "type": "address"
        }
      ],
      "name": "isWhitelisted",
      "outputs": [
        {
          "internalType": "bool",
          "name": "",
          "type": "bool"
        }
      ],
      "stateMutability": "view",
      "type": "function"
    },
    {
      "inputs": [
        {
          "internalType": "address",
          "name": "_userAccountAaddress",
          "type": "address"
        },
        {
          "internalType": "uint256",
          "name": "_accountMaximunAllocation",
          "type": "uint256"
        },
        {
          "internalType": "bytes",
          "name": "signature",
          "type": "bytes"
        }
      ],
      "name": "isWhitelistedWithSignatureMaxAlloc",
      "outputs": [
        {
          "internalType": "bool",
          "name": "",
          "type": "bool"
        }
      ],
      "stateMutability": "view",
      "type": "function"
    },
    {
      "inputs": [],
      "name": "minimumRaise",
      "outputs": [
        {
          "internalType": "uint256",
          "name": "",
          "type": "uint256"
        }
      ],
      "stateMutability": "view",
      "type": "function"
    },
    {
      "inputs": [],
      "name": "minimumRaiseAchieved",
      "outputs": [
        {
          "internalType": "bool",
          "name": "",
          "type": "bool"
        }
      ],
      "stateMutability": "view",
      "type": "function"
    },
    {
      "inputs": [],
      "name": "minimumRaiseNotAchieved",
      "outputs": [
        {
          "internalType": "bool",
          "name": "",
          "type": "bool"
        }
      ],
      "stateMutability": "view",
      "type": "function"
    },
    {
      "inputs": [
        {
          "internalType": "address",
          "name": "",
          "type": "address"
        },
        {
          "internalType": "uint256",
          "name": "",
          "type": "uint256"
        }
      ],
      "name": "myPurchases",
      "outputs": [
        {
          "internalType": "uint256",
          "name": "",
          "type": "uint256"
        }
      ],
      "stateMutability": "view",
      "type": "function"
    },
    {
      "inputs": [],
      "name": "pause",
      "outputs": [],
      "stateMutability": "nonpayable",
      "type": "function"
    },
    {
      "inputs": [],
      "name": "paused",
      "outputs": [
        {
          "internalType": "bool",
          "name": "",
          "type": "bool"
        }
      ],
      "stateMutability": "view",
      "type": "function"
    },
    {
      "inputs": [
        {
          "internalType": "uint256",
          "name": "purchase_id",
          "type": "uint256"
        }
      ],
      "name": "purchaseExists",
      "outputs": [
        {
          "internalType": "bool",
          "name": "",
          "type": "bool"
        }
      ],
      "stateMutability": "view",
      "type": "function"
    },
    {
      "inputs": [
        {
          "internalType": "uint256",
          "name": "",
          "type": "uint256"
        }
      ],
      "name": "purchases",
      "outputs": [
        {
          "internalType": "address",
          "name": "purchaser",
          "type": "address"
        },
        {
          "internalType": "uint48",
          "name": "timestamp",
          "type": "uint48"
        },
        {
          "internalType": "bool",
          "name": "wasFinalized",
          "type": "bool"
        },
        {
          "internalType": "bool",
          "name": "reverted",
          "type": "bool"
        },
        {
          "internalType": "uint256",
          "name": "amount",
          "type": "uint256"
        },
        {
          "internalType": "uint256",
          "name": "costAmount",
          "type": "uint256"
        },
        {
          "internalType": "uint256",
          "name": "amountRedeemed",
          "type": "uint256"
        }
      ],
      "stateMutability": "view",
      "type": "function"
    },
    {
      "inputs": [
        {
          "internalType": "bytes32",
          "name": "hash",
          "type": "bytes32"
        },
        {
          "internalType": "bytes",
          "name": "signature",
          "type": "bytes"
        }
      ],
      "name": "recoverSignerAddressFromBytes32",
      "outputs": [
        {
          "internalType": "address",
          "name": "",
          "type": "address"
        }
      ],
      "stateMutability": "pure",
      "type": "function"
    },
    {
      "inputs": [
        {
          "internalType": "uint256",
          "name": "purchase_id",
          "type": "uint256"
        }
      ],
      "name": "redeemGivenMinimumGoalNotAchieved",
      "outputs": [],
      "stateMutability": "nonpayable",
      "type": "function"
    },
    {
      "inputs": [
        {
          "internalType": "uint256",
          "name": "purchase_id",
          "type": "uint256"
        }
      ],
      "name": "redeemTokens",
      "outputs": [],
      "stateMutability": "nonpayable",
      "type": "function"
    },
    {
      "inputs": [
        {
          "internalType": "address",
          "name": "_address",
          "type": "address"
        }
      ],
      "name": "removeFromBlacklist",
      "outputs": [],
      "stateMutability": "nonpayable",
      "type": "function"
    },
    {
      "inputs": [
        {
          "internalType": "address",
          "name": "_address",
          "type": "address"
        }
      ],
      "name": "removeFromWhitelist",
      "outputs": [],
      "stateMutability": "nonpayable",
      "type": "function"
    },
    {
      "inputs": [
        {
          "internalType": "address",
          "name": "_tokenAddress",
          "type": "address"
        },
        {
          "internalType": "address",
          "name": "_to",
          "type": "address"
        }
      ],
      "name": "removeOtherERC20Tokens",
      "outputs": [],
      "stateMutability": "nonpayable",
      "type": "function"
    },
    {
      "inputs": [
        {
          "internalType": "bytes32",
          "name": "role",
          "type": "bytes32"
        },
        {
          "internalType": "address",
          "name": "account",
          "type": "address"
        }
      ],
      "name": "renounceRole",
      "outputs": [],
      "stateMutability": "nonpayable",
      "type": "function"
    },
    {
      "inputs": [
        {
          "internalType": "bytes32",
          "name": "role",
          "type": "bytes32"
        },
        {
          "internalType": "address",
          "name": "account",
          "type": "address"
        }
      ],
      "name": "revokeRole",
      "outputs": [],
      "stateMutability": "nonpayable",
      "type": "function"
    },
    {
      "inputs": [],
      "name": "safePullETH",
      "outputs": [],
      "stateMutability": "nonpayable",
      "type": "function"
    },
    {
      "inputs": [],
      "name": "safePullSaleToken",
      "outputs": [],
      "stateMutability": "nonpayable",
      "type": "function"
    },
    {
      "inputs": [],
      "name": "safePullTradeToken",
      "outputs": [],
      "stateMutability": "nonpayable",
      "type": "function"
    },
    {
      "inputs": [
        {
          "internalType": "uint256",
          "name": "_endDate",
          "type": "uint256"
        }
      ],
      "name": "setEndDate",
      "outputs": [],
      "stateMutability": "nonpayable",
      "type": "function"
    },
    {
      "inputs": [
        {
          "internalType": "bool",
          "name": "_hasWhitelisting",
          "type": "bool"
        }
      ],
      "name": "setHasWhitelisting",
      "outputs": [],
      "stateMutability": "nonpayable",
      "type": "function"
    },
    {
      "inputs": [
        {
          "internalType": "uint256",
          "name": "_individualMaximumAmount",
          "type": "uint256"
        }
      ],
      "name": "setIndividualMaximumAmount",
      "outputs": [],
      "stateMutability": "nonpayable",
      "type": "function"
    },
    {
      "inputs": [
        {
          "internalType": "address",
          "name": "_PolsStakeAddress",
          "type": "address"
        },
        {
          "internalType": "uint256",
          "name": "_PolsStakeAmount",
          "type": "uint256"
        },
        {
          "internalType": "uint256",
          "name": "_PolsStakeRewards",
          "type": "uint256"
        }
      ],
      "name": "setPolsStakingRequirement",
      "outputs": [],
      "stateMutability": "nonpayable",
      "type": "function"
    },
    {
      "inputs": [
        {
          "internalType": "address",
          "name": "_signerPublicAddress",
          "type": "address"
        }
      ],
      "name": "setSignerPublicAddress",
      "outputs": [],
      "stateMutability": "nonpayable",
      "type": "function"
    },
    {
      "inputs": [
        {
          "internalType": "address",
          "name": "_stakingRewardsAddress",
          "type": "address"
        }
      ],
      "name": "setStakingRewards",
      "outputs": [],
      "stateMutability": "nonpayable",
      "type": "function"
    },
    {
      "inputs": [
        {
          "internalType": "uint256",
          "name": "_startDate",
          "type": "uint256"
        }
      ],
      "name": "setStartDate",
      "outputs": [],
      "stateMutability": "nonpayable",
      "type": "function"
    },
    {
      "inputs": [
        {
          "internalType": "uint256",
          "name": "_vestingStart",
          "type": "uint256"
        },
        {
          "internalType": "uint256",
          "name": "_vestingCliff",
          "type": "uint256"
        },
        {
          "internalType": "uint256",
          "name": "_vestingDuration",
          "type": "uint256"
        },
        {
          "internalType": "uint256[]",
          "name": "_vestingSchedule",
          "type": "uint256[]"
        }
      ],
      "name": "setVesting",
      "outputs": [],
      "stateMutability": "nonpayable",
      "type": "function"
    },
    {
      "inputs": [],
      "name": "signerPublicAddress",
      "outputs": [
        {
          "internalType": "address",
          "name": "",
          "type": "address"
        }
      ],
      "stateMutability": "view",
      "type": "function"
    },
    {
      "inputs": [],
      "name": "stakingRewardsAddress",
      "outputs": [
        {
          "internalType": "address",
          "name": "",
          "type": "address"
        }
      ],
      "stateMutability": "view",
      "type": "function"
    },
    {
      "inputs": [],
      "name": "startDate",
      "outputs": [
        {
          "internalType": "uint256",
          "name": "",
          "type": "uint256"
        }
      ],
      "stateMutability": "view",
      "type": "function"
    },
    {
      "inputs": [
        {
          "internalType": "uint256",
          "name": "_amount",
          "type": "uint256"
        },
        {
          "internalType": "bytes",
          "name": "_signature",
          "type": "bytes"
        }
      ],
      "name": "swap",
      "outputs": [],
      "stateMutability": "payable",
      "type": "function"
    },
    {
      "inputs": [
        {
          "internalType": "uint256",
          "name": "_amount",
          "type": "uint256"
        },
        {
          "internalType": "uint256",
          "name": "_accountMaxAmount",
          "type": "uint256"
        },
        {
          "internalType": "bytes",
          "name": "_signature",
          "type": "bytes"
        }
      ],
      "name": "swapWithSig",
      "outputs": [],
      "stateMutability": "payable",
      "type": "function"
    },
    {
      "inputs": [],
      "name": "tokensAllocated",
      "outputs": [
        {
          "internalType": "uint256",
          "name": "",
          "type": "uint256"
        }
      ],
      "stateMutability": "view",
      "type": "function"
    },
    {
      "inputs": [],
      "name": "tokensForSale",
      "outputs": [
        {
          "internalType": "uint256",
          "name": "",
          "type": "uint256"
        }
      ],
      "stateMutability": "view",
      "type": "function"
    },
    {
      "inputs": [],
      "name": "tokensLeft",
      "outputs": [
        {
          "internalType": "uint256",
          "name": "",
          "type": "uint256"
        }
      ],
      "stateMutability": "view",
      "type": "function"
    },
    {
      "inputs": [],
      "name": "totalRaiseCost",
      "outputs": [
        {
          "internalType": "uint256",
          "name": "",
          "type": "uint256"
        }
      ],
      "stateMutability": "view",
      "type": "function"
    },
    {
      "inputs": [],
      "name": "tradeValue",
      "outputs": [
        {
          "internalType": "uint256",
          "name": "",
          "type": "uint256"
        }
      ],
      "stateMutability": "view",
      "type": "function"
    },
    {
      "inputs": [],
      "name": "unsoldTokensReedemed",
      "outputs": [
        {
          "internalType": "bool",
          "name": "",
          "type": "bool"
        }
      ],
      "stateMutability": "view",
      "type": "function"
    },
    {
      "inputs": [
        {
          "internalType": "uint256",
          "name": "purchase_id",
          "type": "uint256"
        },
        {
          "internalType": "bool",
          "name": "stake",
          "type": "bool"
        }
      ],
      "name": "transferTokens",
      "outputs": [],
      "stateMutability": "nonpayable",
      "type": "function"
    },
    {
      "inputs": [],
      "name": "unpause",
      "outputs": [],
      "stateMutability": "nonpayable",
      "type": "function"
    },
    {
      "inputs": [],
      "name": "unsoldTokensRedeemed",
      "outputs": [
        {
          "internalType": "bool",
          "name": "",
          "type": "bool"
        }
      ],
      "stateMutability": "view",
      "type": "function"
    },
    {
      "inputs": [],
      "name": "updateFundStatus",
      "outputs": [],
      "stateMutability": "nonpayable",
      "type": "function"
    },
    {
      "inputs": [],
      "name": "vestingCliff",
      "outputs": [
        {
          "internalType": "uint256",
          "name": "",
          "type": "uint256"
        }
      ],
      "stateMutability": "view",
      "type": "function"
    },
    {
      "inputs": [],
      "name": "vestingDuration",
      "outputs": [
        {
          "internalType": "uint256",
          "name": "",
          "type": "uint256"
        }
      ],
      "stateMutability": "view",
      "type": "function"
    },
    {
      "inputs": [
        {
          "internalType": "uint256",
          "name": "",
          "type": "uint256"
        }
      ],
      "name": "vestingSchedule",
      "outputs": [
        {
          "internalType": "uint256",
          "name": "",
          "type": "uint256"
        }
      ],
      "stateMutability": "view",
      "type": "function"
    },
    {
      "inputs": [],
      "name": "vestingStart",
      "outputs": [
        {
          "internalType": "uint256",
          "name": "",
          "type": "uint256"
        }
      ],
      "stateMutability": "view",
      "type": "function"
    },
    {
      "inputs": [],
      "name": "vestingTime",
      "outputs": [
        {
          "internalType": "uint256",
          "name": "",
          "type": "uint256"
        }
      ],
      "stateMutability": "view",
      "type": "function"
    },
    {
      "inputs": [],
      "name": "withdrawFunds",
      "outputs": [],
      "stateMutability": "nonpayable",
      "type": "function"
    },
    {
      "inputs": [],
      "name": "withdrawUnsoldTokens",
      "outputs": [],
      "stateMutability": "nonpayable",
      "type": "function"
    }
  ],
  "bytecode": "0x60806040526002805460ff60a01b191690553480156200001e57600080fd5b5060405162006a8d38038062006a8d83398181016040526102008110156200004557600080fd5b8101908080519060200190929190805190602001909291908051906020019092919080519060200190929190805190602001909291908051906020019092919080519060200190929190805190602001909291908051906020019092919080519060200190929190805190602001909291908051906020019092919080519060200190929190805190602001909291908051906020019092919080516040519392919084640100000000821115620000fc57600080fd5b9083019060208201858111156200011257600080fd5b82518660208202830111640100000000821117156200013057600080fd5b82525081516020918201928201910280838360005b838110156200015f57818101518382015260200162000145565b505050509190910160405250506000805460ff1916905550506002805460ff60a01b19168782161515600160a01b810291909117909155620001c27fb813b807c25079ba97f1770664c6a9e57c59afe74a6295f1ed01c10e3bb6baae33620004bc565b50620001d0600033620004bc565b8c421062000225576040805162461bcd60e51b815260206004820152601960248201527f7374617274206461746520697320696e20746865207061737400000000000000604482015290519081900360640190fd5b60008e116200026f576040805162461bcd60e51b81526020600482015260116024820152706e6f20746f6b656e20666f722073616c6560781b604482015290519081900360640190fd5b8a8e1015620002c5576040805162461bcd60e51b815260206004820152601e60248201527f746f6b656e73466f7253616c65203c20696e646976696475616c206d696e0000604482015290519081900360640190fd5b8d8811156200031b576040805162461bcd60e51b815260206004820152601c60248201527f6d696e696d756d5261697365203e20746f6b656e73466f7253616c6500000000604482015290519081900360640190fd5b606387111562000372576040805162461bcd60e51b815260206004820152601e60248201527f4665652050657263656e746167652068617320746f206265203c203130300000604482015290519081900360640190fd5b60088663ffffffff1610620003ce576040805162461bcd60e51b815260206004820152601560248201527f756e737570706f7274656420666c616773207365740000000000000000000000604482015290519081900360640190fd5b60128b9055620003de8a620004cc565b60108d9055620003ee8c62000577565b60168e9055600f8f905560018616156200041557600e805460ff1916600117905562000428565b6014889055620004288484848462000676565b8f600b60006101000a8154816001600160a01b0302191690836001600160a01b0316021790555060006001600160a01b0316856001600160a01b0316146200048657600c80546001600160a01b0319166001600160a01b0387161790555b6004861615620004a057600e805461ff0019166101001790555b505050600d939093555062000c549a5050505050505050505050565b620004c8828262000a1a565b5050565b620004d960003362000a95565b6200051a576040805162461bcd60e51b8152602060048201526019602482015260008051602062006a6d833981519152604482015290519081900360640190fd5b60125481101562000572576040805162461bcd60e51b815260206004820152601b60248201527f696e646976696475616c206d6178203c206d696e20616d6f756e740000000000604482015290519081900360640190fd5b601355565b6200058460003362000a95565b620005c5576040805162461bcd60e51b8152602060048201526019602482015260008051602062006a6d833981519152604482015290519081900360640190fd5b8042106200061a576040805162461bcd60e51b815260206004820181905260248201527f656e6420646174652068617320746f20626520696e2074686520667574757265604482015290519081900360640190fd5b806010541062000671576040805162461bcd60e51b815260206004820152601a60248201527f656e642064617465206265666f72652073746172742064617465000000000000604482015290519081900360640190fd5b601155565b6200068360003362000a95565b620006c4576040805162461bcd60e51b8152602060048201526019602482015260008051602062006a6d833981519152604482015290519081900360640190fd5b6017541580620006d5575060175442105b62000727576040805162461bcd60e51b815260206004820152601760248201527f76657374696e6720616c72656164792073746172746564000000000000000000604482015290519081900360640190fd5b601154838501101562000781576040805162461bcd60e51b815260206004820152601b60248201527f76657374696e67436c696666206265666f726520656e64446174650000000000604482015290519081900360640190fd5b81831115620007d7576040805162461bcd60e51b815260206004820152601e60248201527f76657374696e67436c696666203e2076657374696e674475726174696f6e0000604482015290519081900360640190fd5b6312cff7806200082482516000146200080c57620008066001845162000ac460201b62004edf1790919060201c565b6200080f565b60015b8462000b1f60201b62004f391790919060201c565b1062000877576040805162461bcd60e51b815260206004820152601d60248201527f746f74616c2076657374696e672074696d65203e203130207965617273000000604482015290519081900360640190fd5b60178490556018839055601982905562000894601a600062000c16565b600181511062000a145760008211620008df5760405162461bcd60e51b8152600401808060200182810382526034815260200180620069f86034913960400191505060405180910390fd5b600081600081518110620008ef57fe5b6020026020010151905064e8d4a51000606402811062000956576040805162461bcd60e51b815260206004820152601c60248201527f66697273742076657374696e6720706572696f64203e3d203130302500000000604482015290519081900360640190fd5b601a80546001818101835560009290925260008051602062006a2c833981519152018290555b825181101562000a1157620009cf8382815181106200099757fe5b6020026020010151601a6001840381548110620009b057fe5b906000526020600020015462000ac460201b62004edf1790919060201c565b9150655af3107a40008210620009e55762000a11565b601a80546001818101835560009290925260008051602062006a2c83398151915201839055016200097c565b50505b50505050565b600082815260016020908152604090912062000a4191839062004f9262000b7d821b17901c565b15620004c85762000a5162000b94565b6001600160a01b0316816001600160a01b0316837f2f8788117e7eff1d82e926ec794901d17c78024a50270940304540a733656f0d60405160405180910390a45050565b6000828152600160209081526040822062000abb91849062004fa762000b98821b17901c565b90505b92915050565b60008282018381101562000abb576040805162461bcd60e51b815260206004820152601b60248201527f536166654d6174683a206164646974696f6e206f766572666c6f770000000000604482015290519081900360640190fd5b60008262000b305750600062000abe565b8282028284828162000b3e57fe5b041462000abb5760405162461bcd60e51b815260040180806020018281038252602181526020018062006a4c6021913960400191505060405180910390fd5b600062000abb836001600160a01b03841662000baf565b3390565b600062000abb836001600160a01b03841662000bfe565b600062000bbd838362000bfe565b62000bf55750815460018181018455600084815260208082209093018490558454848252828601909352604090209190915562000abe565b50600062000abe565b60009081526001919091016020526040902054151590565b508054600082559060005260206000209081019062000c36919062000c39565b50565b5b8082111562000c50576000815560010162000c3a565b5090565b615d948062000c646000396000f3fe6080604052600436106106165760003560e01c8063799bb23211610329578063bd0625ab116101b6578063e4101de511610102578063f267d48c116100a0578063f64bfaba1161007a578063f64bfaba14611a19578063fce9d11b14611a2e578063fe575a8714611a43578063fecf415a14611a7657610616565b8063f267d48c146119c5578063f2aa8218146119da578063f3640e7414611a0457610616565b8063e8b882f4116100dc578063e8b882f414611971578063eb1edd6114611986578063eee95be61461199b578063efbb34d5146119b057610616565b8063e4101de514611871578063e43252d714611886578063e4a80252146118b957610616565b8063c8bdbfb61161016f578063d0a4a89511610149578063d0a4a89514611742578063d547741f14611757578063dbb57ac814611790578063dc91b0721461184757610616565b8063c8bdbfb6146116d9578063ca15c873146116ee578063ca1d209d1461171857610616565b8063bd0625ab146115a7578063bd0fcfd114611652578063bf135abe14611667578063c24a0f8b1461167c578063c3ca324f14611691578063c7dab436146116c457610616565b806391d1485411610275578063a217fddf1161022e578063b31f8f9311610208578063b31f8f9314611535578063b367940e1461154a578063b86917871461155f578063ba40a96a1461159257610616565b8063a217fddf146114c8578063a6e158f8146114dd578063b0b12ac31461150757610616565b806391d148541461138d57806394838414146113c657806396a32bc4146113db5780639d90a46e146113f0578063a001ecdd1461149e578063a1c09bf1146114b357610616565b80638a1a5f3f116102e25780639010d07c116102bc5780639010d07c146112ce5780639097548d146112fe578063917c854d14611328578063919bd9301461136357610616565b80638a1a5f3f146112715780638ab1d681146112865780638e75b131146112b957610616565b8063799bb232146110dd5780637f7b27121461119557806382d95df5146111aa5780638392fe31146111d45780638456cb591461124757806388b0fe2b1461125c57610616565b80633af32abf116104a7578063658f2dfe116103f357806370a898bc116103ac578063755e3e2811610386578063755e3e281461108957806376807e5f1461109e578063785e9e86146110b3578063788bff68146110c857610616565b806370a898bc14610f9957806374fa05fb14610fae578063751ef93d14610fc357610616565b8063658f2dfe14610d895780636690a65314610e4a57806369bb4dc214610f105780636d02802714610f255780636eaaabd514610f3a5780636fb83a5714610f6657610616565b806344691f7e116104605780635ac699bb1161043a5780635ac699bb14610c765780635c975abb14610caf5780635f635f9a14610cc45780636295a2f414610d7457610616565b806344691f7e14610c1957806347535d7b14610c2e578063537df3b614610c4357610616565b80633af32abf14610a7b5780633b6577c814610aae5780633bbab17914610b575780633f4ba83a14610bbc5780634089aa9a14610bd157806344337ea114610be657610616565b806324600fc3116105665780632ebb5c1e1161051f57806331d06af3116104f957806331d06af31461098e57806336568abe146109a35780633742a9f7146109dc5780633784f00014610a5157610616565b80632ebb5c1e1461090e5780632f2ff15d146109235780633070b98d1461095c57610616565b806324600fc314610848578063248a9ca31461085d578063254800d4146108875780632593ea171461089c578063273e96e9146108c65780632e154107146108f957610616565b806313430f01116105d3578063161a7b2a116105ad578063161a7b2a146107c35780631de18af7146107d857806321710d271461080257806321d3002a1461083357610616565b806313430f01146107845780631514617e1461079957806315b57866146107ae57610616565b80630274fa981461061b578063044c0cc51461065c578063076623451461068557806308abd7ff1461069a5780630b97bc861461074857806312aef8c31461076f575b600080fd5b34801561062757600080fd5b5061065a6004803603606081101561063e57600080fd5b506001600160a01b038135169060208101359060400135611aa0565b005b34801561066857600080fd5b50610671611b13565b604080519115158252519081900360200190f35b34801561069157600080fd5b50610671611b24565b3480156106a657600080fd5b5061065a600480360360208110156106bd57600080fd5b810190602081018135600160201b8111156106d757600080fd5b8201836020820111156106e957600080fd5b803590602001918460208302840111600160201b8311171561070a57600080fd5b919080806020026020016040519081016040528093929190818152602001838360200280828437600092019190915250929550611b34945050505050565b34801561075457600080fd5b5061075d611c12565b60408051918252519081900360200190f35b34801561077b57600080fd5b5061075d611c18565b34801561079057600080fd5b5061075d611c1e565b3480156107a557600080fd5b5061075d611c24565b3480156107ba57600080fd5b50610671611c2a565b3480156107cf57600080fd5b50610671611c32565b3480156107e457600080fd5b5061065a600480360360208110156107fb57600080fd5b5035611c41565b34801561080e57600080fd5b50610817611f40565b604080516001600160a01b039092168252519081900360200190f35b34801561083f57600080fd5b50610671611f58565b34801561085457600080fd5b5061065a611f61565b34801561086957600080fd5b5061075d6004803603602081101561088057600080fd5b5035612292565b34801561089357600080fd5b5061075d6122aa565b3480156108a857600080fd5b50610671600480360360208110156108bf57600080fd5b50356122b0565b3480156108d257600080fd5b50610671600480360360208110156108e957600080fd5b50356001600160a01b03166122b7565b34801561090557600080fd5b5061075d6123fc565b34801561091a57600080fd5b50610671612402565b34801561092f57600080fd5b5061065a6004803603604081101561094657600080fd5b50803590602001356001600160a01b031661240a565b34801561096857600080fd5b5061065a6004803603604081101561097f57600080fd5b50803590602001351515612472565b34801561099a57600080fd5b506108176127d0565b3480156109af57600080fd5b5061065a600480360360408110156109c657600080fd5b50803590602001356001600160a01b03166127df565b3480156109e857600080fd5b50610a06600480360360208110156109ff57600080fd5b5035612840565b604080519788526001600160a01b0390961660208801528686019490945265ffffffffffff909216606086015215156080850152151560a084015260c0830152519081900360e00190f35b348015610a5d57600080fd5b5061065a60048036036020811015610a7457600080fd5b5035612957565b348015610a8757600080fd5b5061067160048036036020811015610a9e57600080fd5b50356001600160a01b0316612a50565b348015610aba57600080fd5b50610ad860048036036020811015610ad157600080fd5b5035612a63565b6040518083815260200180602001828103825283818151815260200191508051906020019080838360005b83811015610b1b578181015183820152602001610b03565b50505050905090810190601f168015610b485780820380516001836020036101000a031916815260200191505b50935050505060405180910390f35b348015610b6357600080fd5b50610b6c612e9a565b60408051602080825283518183015283519192839290830191858101910280838360005b83811015610ba8578181015183820152602001610b90565b505050509050019250505060405180910390f35b348015610bc857600080fd5b5061065a612eab565b348015610bdd57600080fd5b50610671612efd565b348015610bf257600080fd5b5061065a60048036036020811015610c0957600080fd5b50356001600160a01b0316612f06565b348015610c2557600080fd5b50610671612fa5565b348015610c3a57600080fd5b50610671612fae565b348015610c4f57600080fd5b5061065a60048036036020811015610c6657600080fd5b50356001600160a01b0316612fcd565b348015610c8257600080fd5b5061075d60048036036040811015610c9957600080fd5b506001600160a01b03813516906020013561306b565b348015610cbb57600080fd5b5061067161309c565b61065a60048036036060811015610cda57600080fd5b813591602081013591810190606081016040820135600160201b811115610d0057600080fd5b820183602082011115610d1257600080fd5b803590602001918460018302840111600160201b83111715610d3357600080fd5b91908080601f0160208091040260200160405190810160405280939291908181526020018383808284376000920191909152509295506130a5945050505050565b348015610d8057600080fd5b5061075d6137e4565b348015610d9557600080fd5b5061065a60048036036080811015610dac57600080fd5b81359160208101359160408201359190810190608081016060820135600160201b811115610dd957600080fd5b820183602082011115610deb57600080fd5b803590602001918460208302840111600160201b83111715610e0c57600080fd5b9190808060200260200160405190810160405280939291908181526020018383602002808284376000920191909152509295506137ea945050505050565b348015610e5657600080fd5b5061067160048036036060811015610e6d57600080fd5b6001600160a01b0382351691602081013591810190606081016040820135600160201b811115610e9c57600080fd5b820183602082011115610eae57600080fd5b803590602001918460018302840111600160201b83111715610ecf57600080fd5b91908080601f016020809104026020016040519081016040528093929190818152602001838380828437600092019190915250929550613b70945050505050565b348015610f1c57600080fd5b5061075d613bb3565b348015610f3157600080fd5b50610b6c613c2f565b348015610f4657600080fd5b5061065a60048036036020811015610f5d57600080fd5b50351515613c3b565b348015610f7257600080fd5b5061065a60048036036020811015610f8957600080fd5b50356001600160a01b0316613ce5565b348015610fa557600080fd5b50610671613d51565b348015610fba57600080fd5b50610671613d59565b348015610fcf57600080fd5b5061067160048036036060811015610fe657600080fd5b6001600160a01b0382351691602081013591810190606081016040820135600160201b81111561101557600080fd5b82018360208201111561102757600080fd5b803590602001918460018302840111600160201b8311171561104857600080fd5b91908080601f016020809104026020016040519081016040528093929190818152602001838380828437600092019190915250929550613d63945050505050565b34801561109557600080fd5b5061075d613dd8565b3480156110aa57600080fd5b5061065a613dde565b3480156110bf57600080fd5b50610817613e78565b3480156110d457600080fd5b50610817613e87565b3480156110e957600080fd5b506108176004803603604081101561110057600080fd5b81359190810190604081016020820135600160201b81111561112157600080fd5b82018360208201111561113357600080fd5b803590602001918460018302840111600160201b8311171561115457600080fd5b91908080601f016020809104026020016040519081016040528093929190818152602001838380828437600092019190915250929550613e96945050505050565b3480156111a157600080fd5b5061075d613f01565b3480156111b657600080fd5b5061065a600480360360208110156111cd57600080fd5b5035613f0a565b3480156111e057600080fd5b506111fe600480360360208110156111f757600080fd5b5035613fed565b604080516001600160a01b03909816885265ffffffffffff9096166020880152931515868601529115156060860152608085015260a084015260c0830152519081900360e00190f35b34801561125357600080fd5b5061065a614054565b34801561126857600080fd5b5061065a6140a6565b34801561127d57600080fd5b5061075d6141d0565b34801561129257600080fd5b5061065a600480360360208110156112a957600080fd5b50356001600160a01b031661420b565b3480156112c557600080fd5b5061075d6142a9565b3480156112da57600080fd5b50610817600480360360408110156112f157600080fd5b50803590602001356142af565b34801561130a57600080fd5b5061075d6004803603602081101561132157600080fd5b50356142c7565b34801561133457600080fd5b5061065a6004803603604081101561134b57600080fd5b506001600160a01b038135811691602001351661435d565b34801561136f57600080fd5b5061075d6004803603602081101561138657600080fd5b503561454f565b34801561139957600080fd5b50610671600480360360408110156113b057600080fd5b50803590602001356001600160a01b0316614570565b3480156113d257600080fd5b50610671614588565b3480156113e757600080fd5b5061065a614598565b3480156113fc57600080fd5b5061065a6004803603602081101561141357600080fd5b810190602081018135600160201b81111561142d57600080fd5b82018360208201111561143f57600080fd5b803590602001918460208302840111600160201b8311171561146057600080fd5b91908080602002602001604051908101604052809392919081815260200183836020028082843760009201919091525092955061465e945050505050565b3480156114aa57600080fd5b5061075d61473b565b3480156114bf57600080fd5b5061075d614741565b3480156114d457600080fd5b5061075d614747565b3480156114e957600080fd5b5061065a6004803603602081101561150057600080fd5b503561474c565b34801561151357600080fd5b5061151c614757565b6040805163ffffffff9092168252519081900360200190f35b34801561154157600080fd5b5061075d61475e565b34801561155657600080fd5b50610671614768565b34801561156b57600080fd5b5061065a6004803603602081101561158257600080fd5b50356001600160a01b0316614773565b34801561159e57600080fd5b506108176147ec565b61065a600480360360408110156115bd57600080fd5b81359190810190604081016020820135600160201b8111156115de57600080fd5b8201836020820111156115f057600080fd5b803590602001918460018302840111600160201b8311171561161157600080fd5b91908080601f0160208091040260200160405190810160405280939291908181526020018383808284376000920191909152509295506147fb945050505050565b34801561165e57600080fd5b50610817614807565b34801561167357600080fd5b5061081761481f565b34801561168857600080fd5b5061075d61482e565b34801561169d57600080fd5b50610b6c600480360360208110156116b457600080fd5b50356001600160a01b0316614834565b3480156116d057600080fd5b5061075d6148a0565b3480156116e557600080fd5b5061065a6148bc565b3480156116fa57600080fd5b5061075d6004803603602081101561171157600080fd5b50356149cb565b34801561172457600080fd5b5061065a6004803603602081101561173b57600080fd5b50356149e2565b34801561174e57600080fd5b50610671614ac3565b34801561176357600080fd5b5061065a6004803603604081101561177a57600080fd5b50803590602001356001600160a01b0316614ad1565b34801561179c57600080fd5b506117ba600480360360208110156117b357600080fd5b5035614b2a565b6040518085815260200184815260200183815260200180602001828103825283818151815260200191508051906020019080838360005b838110156118095781810151838201526020016117f1565b50505050905090810190601f1680156118365780820380516001836020036101000a031916815260200191505b509550505050505060405180910390f35b34801561185357600080fd5b5061065a6004803603602081101561186a57600080fd5b5035614bd7565b34801561187d57600080fd5b5061075d614c7d565b34801561189257600080fd5b5061065a600480360360208110156118a957600080fd5b50356001600160a01b0316614c83565b3480156118c557600080fd5b50610671600480360360408110156118dc57600080fd5b81359190810190604081016020820135600160201b8111156118fd57600080fd5b82018360208201111561190f57600080fd5b803590602001918460018302840111600160201b8311171561193057600080fd5b91908080601f016020809104026020016040519081016040528093929190818152602001838380828437600092019190915250929550614d21945050505050565b34801561197d57600080fd5b5061075d614d4b565b34801561199257600080fd5b50610817614d5d565b3480156119a757600080fd5b5061065a614d75565b3480156119bc57600080fd5b5061075d614df1565b3480156119d157600080fd5b5061075d614dfe565b3480156119e657600080fd5b50610817600480360360208110156119fd57600080fd5b5035614e04565b348015611a1057600080fd5b5061075d614e2e565b348015611a2557600080fd5b50610b6c614e34565b348015611a3a57600080fd5b50610b6c614e96565b348015611a4f57600080fd5b5061067160048036036020811015611a6657600080fd5b50356001600160a01b0316614ea1565b348015611a8257600080fd5b5061067160048036036020811015611a9957600080fd5b5035614eae565b611aab600033614570565b611aea576040805162461bcd60e51b81526020600482015260196024820152600080516020615cef833981519152604482015290519081900360640190fd5b600880546001600160a01b0319166001600160a01b039490941693909317909255600955600a55565b600c546001600160a01b0316155b90565b600254600160a01b900460ff1681565b611b4c600080516020615ca583398151915233614570565b611b8b576040805162461bcd60e51b815260206004820152601c6024820152600080516020615bd2833981519152604482015290519081900360640190fd5b6000805b8251811015611bd357611bbf838281518110611ba757fe5b60200260200101516003614f9290919063ffffffff16565b15611bcb576001909101905b600101611b8f565b508015611c0e576040805182815290517f448f3bd350ede14a294c062177c5280fe1eae125d16757da21f5f51d6e89daae9181900360200190a15b5050565b60105481565b60165481565b60095481565b60195481565b601454151590565b600e5462010000900460ff1681565b611c49612efd565b611c95576040805162461bcd60e51b81526020600482015260186024820152771cd85b19481a185cc81d1bc8189948199a5b985b1a5e995960421b604482015290519081900360640190fd5b600e5460ff1615611ced576040805162461bcd60e51b815260206004820152601e60248201527f73616c652068617320746f206265206e6f6e2041746f6d696320737761700000604482015290519081900360640190fd5b611cf681614eae565b611d3e576040805162461bcd60e51b815260206004820152601460248201527330b2323932b9b99034b9903737ba10313abcb2b960611b604482015290519081900360640190fd5b611d46611c2a565b611d97576040805162461bcd60e51b815260206004820152601d60248201527f6e6f206d696e696d756d20726169736520686173206265656e20736574000000604482015290519081900360640190fd5b611d9f613d59565b611df0576040805162461bcd60e51b815260206004820152601e60248201527f6d696e696d756d20726169736520686173206265656e20726561636865640000604482015290519081900360640190fd5b6000601b8281548110611dff57fe5b906000526020600020906004020190506000816001015411611e68576040805162461bcd60e51b815260206004820152601760248201527f707572636861736520616d6f756e74206973207a65726f000000000000000000604482015290519081900360640190fd5b8054600160d01b900460ff1615611ebe576040805162461bcd60e51b81526020600482015260156024820152741c1d5c98da185cd9481a5cc8199a5b985b1a5e9959605a1b604482015290519081900360640190fd5b805460ff60d81b1960ff60d01b19909116600160d01b1716600160d81b178155611ee6611b13565b15611f21576002810154604051339180156108fc02916000818181858888f19350505050158015611f1b573d6000803e3d6000fd5b50611c0e565b6002810154600c54611c0e916001600160a01b03909116903390614fbc565b73ffa98a091331df4600f87c9164cd27e8a5cd240581565b600e5460ff1681565b611f6c600033614570565b611fab576040805162461bcd60e51b81526020600482015260196024820152600080516020615cef833981519152604482015290519081900360640190fd5b611fb361309c565b15611ff8576040805162461bcd60e51b815260206004820152601060248201526f14185d5cd8589b194e881c185d5cd95960821b604482015290519081900360640190fd5b612000612efd565b61204c576040805162461bcd60e51b81526020600482015260186024820152771cd85b19481a185cc81d1bc8189948199a5b985b1a5e995960421b604482015290519081900360640190fd5b612054614768565b6120a1576040805162461bcd60e51b81526020600482015260196024820152781b5a5b9a5b5d5b481c985a5cd9481b9bdd081c995858da1959603a1b604482015290519081900360640190fd5b6120a9611b13565b1561214a5773aeb39b67f27b641ef9f95fb74f1a46b1ee4efc836001600160a01b03166108fc6120ef60646120e9600d5447614f3990919063ffffffff16565b90615013565b6040518115909202916000818181858888f19350505050158015612117573d6000803e3d6000fd5b5060405133904780156108fc02916000818181858888f19350505050158015612144573d6000803e3d6000fd5b50612290565b600d54600c54604080516370a0823160e01b815230600482015290516122009373aeb39b67f27b641ef9f95fb74f1a46b1ee4efc83936121ed936064936120e993926001600160a01b0316916370a08231916024808301926020929190829003018186803b1580156121bb57600080fd5b505afa1580156121cf573d6000803e3d6000fd5b505050506040513d60208110156121e557600080fd5b505190614f39565b600c546001600160a01b03169190614fbc565b600c54604080516370a0823160e01b815230600482015290516122909233926001600160a01b03909116916370a0823191602480820192602092909190829003018186803b15801561225157600080fd5b505afa158015612265573d6000803e3d6000fd5b505050506040513d602081101561227b57600080fd5b5051600c546001600160a01b03169190614fbc565b565b6000818152600160205260409020600201545b919050565b60175481565b601b541190565b600e54600090610100900460ff166122d1575060016122a5565b6008546001600160a01b0316156123f457600954600854604080516370a0823160e01b81526001600160a01b038681166004830152915191909216916370a08231916024808301926020929190829003018186803b15801561233257600080fd5b505afa158015612346573d6000803e3d6000fd5b505050506040513d602081101561235c57600080fd5b50511061236b575060016122a5565b600a546008546040805163f6a3f3cf60e01b81526001600160a01b0386811660048301529151919092169163f6a3f3cf916024808301926020929190829003018186803b1580156123bb57600080fd5b505afa1580156123cf573d6000803e3d6000fd5b505050506040513d60208110156123e557600080fd5b5051106123f4575060016122a5565b506000919050565b60125481565b601054421090565b60008281526001602052604090206002015461242d9061242861507a565b614570565b6124685760405162461bcd60e51b815260040180806020018281038252602f815260200180615ac9602f913960400191505060405180910390fd5b611c0e828261507e565b61247b82614eae565b6124c3576040805162461bcd60e51b815260206004820152601460248201527320b2323932b9b99034b9903737ba10313abcb2b960611b604482015290519081900360640190fd5b6000806124cf84612a63565b915091506000821181906125615760405162461bcd60e51b81526004018080602001828103825283818151815260200191508051906020019080838360005b8381101561252657818101518382015260200161250e565b50505050905090810190601f1680156125535780820380516001836020036101000a031916815260200191505b509250505060405180910390fd5b506000601b858154811061257157fe5b90600052602060002090600402016001015490506000601b868154811061259457fe5b9060005260206000209060040201600301549050816125bc8583614edf90919063ffffffff16565b11156125f95760405162461bcd60e51b8152600401808060200182810382526044815260200180615c356044913960600191505060405180910390fd5b816126048286614edf565b1415612644576001601b878154811061261957fe5b600091825260209091206004909102018054911515600160d01b0260ff60d01b199092169190911790555b61264e8185614edf565b601b878154811061265b57fe5b60009182526020909120600360049092020101558461269057600b5461268b906001600160a01b03163386614fbc565b6127c8565b6007546001600160a01b03166126d75760405162461bcd60e51b8152600401808060200182810382526021815260200180615d0f6021913960400191505060405180910390fd5b600b546007546040805163095ea7b360e01b81526001600160a01b039283166004820152602481018890529051919092169163095ea7b39160448083019260209291908290030181600087803b15801561273057600080fd5b505af1158015612744573d6000803e3d6000fd5b505050506040513d602081101561275a57600080fd5b505060075460408051638b1e31c760e01b81526004810187905233602482015290516001600160a01b0390921691638b1e31c79160448082019260009290919082900301818387803b1580156127af57600080fd5b505af11580156127c3573d6000803e3d6000fd5b505050505b505050505050565b6008546001600160a01b031681565b6127e761507a565b6001600160a01b0316816001600160a01b0316146128365760405162461bcd60e51b815260040180806020018281038252602f815260200180615d30602f913960400191505060405180910390fd5b611c0e82826150e7565b6000806000806000806000612854886122b0565b6128a2576040805162461bcd60e51b815260206004820152601a6024820152791c1d5c98da185cd957da5908191bd95cc81b9bdd08195e1a5cdd60321b604482015290519081900360640190fd5b6000601b89815481106128b157fe5b60009182526020918290206040805160e08101825260049390930290910180546001600160a01b03811680855265ffffffffffff600160a01b83041695850186905260ff600160d01b830481161515948601859052600160d81b909204909116151560608501819052600183015460808601819052600284015460a0870181905260039094015460c09096018690529f919e50919c50939a509098509650945092505050565b612962600033614570565b6129a1576040805162461bcd60e51b81526020600482015260196024820152600080516020615cef833981519152604482015290519081900360640190fd5b8042106129f5576040805162461bcd60e51b815260206004820181905260248201527f656e6420646174652068617320746f20626520696e2074686520667574757265604482015290519081900360640190fd5b8060105410612a4b576040805162461bcd60e51b815260206004820152601a60248201527f656e642064617465206265666f72652073746172742064617465000000000000604482015290519081900360640190fd5b601155565b6000612a5d600383614fa7565b92915050565b60006060612a70836122b0565b612aaf57505060408051808201909152601a8152791c1d5c98da185cd957da5908191bd95cc81b9bdd08195e1a5cdd60321b6020820152600090612e95565b600e5460ff1615612af857505060408051808201909152601981527f68617320746f206265206e6f6e2041746f6d69632073776170000000000000006020820152600090612e95565b612b00612efd565b612b4257505060408051808201909152601881527f746f6b656e2073616c65206e6f742066696e616c697a656400000000000000006020820152600090612e95565b612b4a61309c565b15612b8d57505060408051808201909152601d81527f746f6b656e2073616c6520636f6e7472616374206973207061757365640000006020820152600090612e95565b612b95613d59565b15612bd45750506040805180820190915260198152781b5a5b9a5b5d5b481c985a5cd9481b9bdd081c995858da1959603a1b6020820152600090612e95565b6000601b8481548110612be357fe5b90600052602060002090600402016001015490506000601b8581548110612c0657fe5b9060005260206000209060040201600301549050818110612c645760006040518060400160405280601a81526020017f616c6c20746f6b656e20616c72656164792072656465656d6564000000000000815250935093505050612e95565b601754421015612cb15760006040518060400160405280601e81526020017f76657374696e6720706572696f64206e6f742079657420737461727465640000815250935093505050612e95565b601854601754612cc091614edf565b421015612d0a5760006040518060400160405280601d81526020017f76657374696e6720636c696666206e6f74207965742072656163686564000000815250935093505050612e95565b601a54600090612d715742612d2c601954601754614edf90919063ffffffff16565b11612d4257612d3b8383615150565b9050612d6c565b612d6982612d636019546120e9601754420388614f3990919063ffffffff16565b90615150565b90505b612e2a565b6000601954601754420381612d8257fe5b601a5491900491508110612da157612d9a8484615150565b9150612e28565b6000612dd964e8d4a510006064026120e9601a8581548110612dbf57fe5b906000526020600020015488614f3990919063ffffffff16565b905083811015612e1a5760405162461bcd60e51b815260040180806020018281038252602c815260200180615c79602c913960400191505060405180910390fd5b612e248185615150565b9250505b505b8015612e6557806040518060400160405280600f81526020016e726561647920746f2072656465656d60881b81525094509450505050612e95565b6040805180820190915260118152706e6f7468696e6720746f2072656465656d60781b6020820152909450925050505b915091565b6060612ea660056151ad565b905090565b612eb6600033614570565b612ef5576040805162461bcd60e51b81526020600482015260196024820152600080516020615cef833981519152604482015290519081900360640190fd5b61229061524d565b60115442101590565b612f1e600080516020615ca583398151915233614570565b612f5d576040805162461bcd60e51b815260206004820152601c6024820152600080516020615bd2833981519152604482015290519081900360640190fd5b612f68600582614f92565b15612fa2576040516001600160a01b038216907ff9b68063b051b82957fa193585681240904fed808db8b30fc5a2d2202c6ed62790600090a25b50565b60105442101590565b6000612fb8612fa5565b8015612ea65750612fc7612efd565b15905090565b612fe5600080516020615ca583398151915233614570565b613024576040805162461bcd60e51b815260206004820152601c6024820152600080516020615bd2833981519152604482015290519081900360640190fd5b61302f6005826152ed565b15612fa2576040516001600160a01b038216907f2b6bf71b58b3583add364b3d9060ebf8019650f65f5be35f5464b9cb3e4ba2d490600090a250565b601d602052816000526040600020818154811061308757600080fd5b90600052602060002001600091509150505481565b60005460ff1690565b6130ad61309c565b156130f2576040805162461bcd60e51b815260206004820152601060248201526f14185d5cd8589b194e881c185d5cd95960821b604482015290519081900360640190fd5b600e5462010000900460ff1661314f576040805162461bcd60e51b815260206004820152601860248201527f746f6b656e2073616c65206973206e6f742066756e6465640000000000000000604482015290519081900360640190fd5b613157612fae565b61319e576040805162461bcd60e51b815260206004820152601360248201527239b0b632903430b9903a379031329037b832b760691b604482015290519081900360640190fd5b60025482908290600160a01b900460ff1615613269576002546001600160a01b0316613223576131cd33612a50565b61321e576040805162461bcd60e51b815260206004820152601960248201527f6e6f74206f6e206f6e2d636861696e2077686974656c69737400000000000000604482015290519081900360640190fd5b613269565b61322e338383613b70565b6132695760405162461bcd60e51b8152600401808060200182810382526032815260200180615b4e6032913960400191505060405180910390fd5b6000613274336122b7565b6132c5576040805162461bcd60e51b815260206004820181905260248201527f61646472657373206e6f742077686974656c697374656420666f7220504f4c53604482015290519081900360640190fd5b600085156132d357856132d7565b6013545b90506132e1611b13565b15613341573491506132f2876142c7565b82101561333c576040805162461bcd60e51b81526020600482015260136024820152721b9bdd08195b9bdd59da08115512081cd95b9d606a1b604482015290519081900360640190fd5b613365565b61334a876142c7565b600c54909250613365906001600160a01b0316333085615302565b61336d61475e565b8711156133c1576040805162461bcd60e51b815260206004820152601960248201527f616d6f756e74203e20746f6b656e7320617661696c61626c6500000000000000604482015290519081900360640190fd5b601254871015613418576040805162461bcd60e51b815260206004820152601760248201527f616d6f756e74203c206d696e696d756d20616d6f756e74000000000000000000604482015290519081900360640190fd5b8087111561346d576040805162461bcd60e51b815260206004820152601760248201527f616d6f756e74203e206d6178696d756d20616d6f756e74000000000000000000604482015290519081900360640190fd5b336000908152601d60209081526040808320805482518185028101850190935280835291929091908301828280156134c457602002820191906000526020600020905b8154815260200190600101908083116134b0575b505050505090506000805b82518110156135265761351c601b8483815181106134e957fe5b6020026020010151815481106134fb57fe5b90600052602060002090600402016001015483614edf90919063ffffffff16565b91506001016134cf565b5082613532828b614edf565b1115613585576040805162461bcd60e51b815260206004820152601f60248201527f616d6f756e7420676f6573206f76657220696e646976696475616c206d617800604482015290519081900360640190fd5b600e5460ff16156135a757600b546135a7906001600160a01b0316338b614fbc565b601b6040518060e00160405280336001600160a01b031681526020016135cc4261535c565b65ffffffffffff168152602001600e60009054906101000a900460ff16151581526020016000151581526020018b81526020018681526020016000815250908060018154018082558091505060019003906000526020600020906004020160009091909190915060008201518160000160006101000a8154816001600160a01b0302191690836001600160a01b0316021790555060208201518160000160146101000a81548165ffffffffffff021916908365ffffffffffff160217905550604082015181600001601a6101000a81548160ff021916908315150217905550606082015181600001601b6101000a81548160ff0219169083151502179055506080820151816001015560a0820151816002015560c082015181600301555050601d6000336001600160a01b03166001600160a01b031681526020019081526020016000206001601b80549050039080600181540180825580915050600190039060005260206000200160009091909190915055601c339080600181540180825580915050600190039060005260206000200160009091909190916101000a8154816001600160a01b0302191690836001600160a01b0316021790555061379d89601554614edf90919063ffffffff16565b601555604080518a8152426020820152815133927fbec109f7ee137de661c6887caa96653c0545050a9908a3b6eb5190440bbec864928290030190a2505050505050505050565b600f5481565b6137f5600033614570565b613834576040805162461bcd60e51b81526020600482015260196024820152600080516020615cef833981519152604482015290519081900360640190fd5b6017541580613844575060175442105b613895576040805162461bcd60e51b815260206004820152601760248201527f76657374696e6720616c72656164792073746172746564000000000000000000604482015290519081900360640190fd5b60115483850110156138ee576040805162461bcd60e51b815260206004820152601b60248201527f76657374696e67436c696666206265666f726520656e64446174650000000000604482015290519081900360640190fd5b81831115613943576040805162461bcd60e51b815260206004820152601e60248201527f76657374696e67436c696666203e2076657374696e674475726174696f6e0000604482015290519081900360640190fd5b6312cff7806139708251600014613966578251613961906001614edf565b613969565b60015b8490614f39565b106139c2576040805162461bcd60e51b815260206004820152601d60248201527f746f74616c2076657374696e672074696d65203e203130207965617273000000604482015290519081900360640190fd5b6017849055601883905560198290556139dd601a6000615a78565b6001815110613b6a5760008211613a255760405162461bcd60e51b8152600401808060200182810382526034815260200180615af86034913960400191505060405180910390fd5b600081600081518110613a3457fe5b6020026020010151905064e8d4a510006064028110613a9a576040805162461bcd60e51b815260206004820152601c60248201527f66697273742076657374696e6720706572696f64203e3d203130302500000000604482015290519081900360640190fd5b601a8054600181810183556000929092527f057c384a7d1c54f3a1b2e5e67b2617b8224fdfd1ea7234eea573a6ff665ff63e018290555b82518110156127c857613b1a838281518110613ae957fe5b6020026020010151601a6001840381548110613b0157fe5b9060005260206000200154614edf90919063ffffffff16565b9150655af3107a40008210613b2e576127c8565b601a8054600181810183556000929092527f057c384a7d1c54f3a1b2e5e67b2617b8224fdfd1ea7234eea573a6ff665ff63e0183905501613ad1565b50505050565b6000613b7b84614ea1565b15613b8857506000613bac565b613b9184612a50565b15613b9e57506001613bac565b613ba9848484613d63565b90505b9392505050565b600b54604080516370a0823160e01b815230600482015290516000926001600160a01b0316916370a08231916024808301926020929190829003018186803b158015613bfe57600080fd5b505afa158015613c12573d6000803e3d6000fd5b505050506040513d6020811015613c2857600080fd5b5051905090565b6060612ea660036151ad565b613c53600080516020615ca583398151915233614570565b613c92576040805162461bcd60e51b815260206004820152601c6024820152600080516020615bd2833981519152604482015290519081900360640190fd5b60028054821515600160a01b810260ff60a01b199092169190911790915560408051918252517fe905f7f52156c346547b9deb6fb3e2459db941ec55d073fd465129bf4b49fae69181900360200190a150565b613cf0600033614570565b613d2f576040805162461bcd60e51b81526020600482015260196024820152600080516020615cef833981519152604482015290519081900360640190fd5b600780546001600160a01b0319166001600160a01b0392909216919091179055565b601254151590565b6014546015541090565b60408051606085811b6bffffffffffffffffffffffff1916602080840191909152603483018690523090911b60548301528251808303604801815260689092019092528051910120600254600091906001600160a01b0316613dc58285613e96565b6001600160a01b03161495945050505050565b60155481565b613de9600033614570565b613e28576040805162461bcd60e51b81526020600482015260196024820152600080516020615cef833981519152604482015290519081900360640190fd5b613e3061309c565b612200576040805162461bcd60e51b815260206004820152601460248201527314185d5cd8589b194e881b9bdd081c185d5cd95960621b604482015290519081900360640190fd5b600b546001600160a01b031681565b6007546001600160a01b031681565b60008151604114613eee576040805162461bcd60e51b815260206004820152601960248201527f7369676e6174757265206973206e6f7420363520627974657300000000000000604482015290519081900360640190fd5b613bac82613efb856153bd565b9061540e565b64e8d4a5100081565b613f15600033614570565b613f54576040805162461bcd60e51b81526020600482015260196024820152600080516020615cef833981519152604482015290519081900360640190fd5b804210613f925760405162461bcd60e51b8152600401808060200182810382526022815260200180615b2c6022913960400191505060405180910390fd5b6011548110613fe8576040805162461bcd60e51b815260206004820152601a60248201527f656e642064617465206265666f72652073746172742064617465000000000000604482015290519081900360640190fd5b601055565b601b8181548110613ffd57600080fd5b600091825260209091206004909102018054600182015460028301546003909301546001600160a01b038316945065ffffffffffff600160a01b8404169360ff600160d01b8504811694600160d81b900416929187565b61405f600033614570565b61409e576040805162461bcd60e51b81526020600482015260196024820152600080516020615cef833981519152604482015290519081900360640190fd5b61229061548e565b6140b1600033614570565b6140f0576040805162461bcd60e51b81526020600482015260196024820152600080516020615cef833981519152604482015290519081900360640190fd5b6140f861309c565b614140576040805162461bcd60e51b815260206004820152601460248201527314185d5cd8589b194e881b9bdd081c185d5cd95960621b604482015290519081900360640190fd5b600b54604080516370a0823160e01b815230600482015290516122909233926001600160a01b03909116916370a0823191602480820192602092909190829003018186803b15801561419157600080fd5b505afa1580156141a5573d6000803e3d6000fd5b505050506040513d60208110156141bb57600080fd5b5051600b546001600160a01b03169190614fbc565b60006017544210156141e457506000611b21565b6019546141f357506001611b21565b60195460175442038161420257fe5b04600101905090565b614223600080516020615ca583398151915233614570565b614262576040805162461bcd60e51b815260206004820152601c6024820152600080516020615bd2833981519152604482015290519081900360640190fd5b61426d6003826152ed565b15612fa2576040516001600160a01b038216907fcdd2e9b91a56913d370075169cefa1602ba36be5301664f752192bb1709df75790600090a250565b60145481565b6000828152600160205260408120613bac9083615511565b6000612a5d600b60009054906101000a90046001600160a01b03166001600160a01b031663313ce5676040518163ffffffff1660e01b815260040160206040518083038186803b15801561431a57600080fd5b505afa15801561432e573d6000803e3d6000fd5b505050506040513d602081101561434457600080fd5b5051600f5460ff909116600a0a906120e9908590614f39565b614368600033614570565b6143a7576040805162461bcd60e51b81526020600482015260196024820152600080516020615cef833981519152604482015290519081900360640190fd5b6143af612efd565b6143fb576040805162461bcd60e51b81526020600482015260186024820152771cd85b19481a185cc81d1bc8189948199a5b985b1a5e995960421b604482015290519081900360640190fd5b600b546001600160a01b038381169116141561445e576040805162461bcd60e51b815260206004820152601b60248201527f746f6b656e2069732074686520746f6b656e20666f722073616c650000000000604482015290519081900360640190fd5b600c546001600160a01b03838116911614156144c1576040805162461bcd60e51b815260206004820152601b60248201527f746f6b656e206973207468652074726164652d696e20746f6b656e0000000000604482015290519081900360640190fd5b611c0e81836001600160a01b03166370a08231306040518263ffffffff1660e01b815260040180826001600160a01b0316815260200191505060206040518083038186803b15801561451257600080fd5b505afa158015614526573d6000803e3d6000fd5b505050506040513d602081101561453c57600080fd5b50516001600160a01b0385169190614fbc565b601a818154811061455f57600080fd5b600091825260209091200154905081565b6000828152600160205260408120613bac9083614fa7565b600e546301000000900460ff1681565b6145a3600033614570565b6145e2576040805162461bcd60e51b81526020600482015260196024820152600080516020615cef833981519152604482015290519081900360640190fd5b6145ea61309c565b614632576040805162461bcd60e51b815260206004820152601460248201527314185d5cd8589b194e881b9bdd081c185d5cd95960621b604482015290519081900360640190fd5b60405133904780156108fc02916000818181858888f19350505050158015612fa2573d6000803e3d6000fd5b614676600080516020615ca583398151915233614570565b6146b5576040805162461bcd60e51b815260206004820152601c6024820152600080516020615bd2833981519152604482015290519081900360640190fd5b6000805b82518110156146fd576146e98382815181106146d157fe5b60200260200101516005614f9290919063ffffffff16565b156146f5576001909101905b6001016146b9565b508015611c0e576040805182815290517fc2f03ca34d335e49d4d629b85db054d1ffb679b4fec2e06fe10d0e618b175ecb9181900360200190a15050565b600d5481565b601b5490565b600081565b612fa2816000612472565b622f4d6090565b6015546016540390565b601454601554101590565b61478b600080516020615ca583398151915233614570565b6147ca576040805162461bcd60e51b815260206004820152601c6024820152600080516020615bd2833981519152604482015290519081900360640190fd5b600280546001600160a01b0319166001600160a01b0392909216919091179055565b6002546001600160a01b031681565b611c0e826000836130a5565b7383e6f1e41cdd28eaceb20cb649155049fac3d5aa81565b600c546001600160a01b031681565b60115481565b6001600160a01b0381166000908152601d602090815260409182902080548351818402810184019094528084526060939283018282801561489457602002820191906000526020600020905b815481526020019060010190808311614880575b50505050509050919050565b601a546000906148b257506000611b21565b50601a5460010190565b6148c7600033614570565b614906576040805162461bcd60e51b81526020600482015260196024820152600080516020615cef833981519152604482015290519081900360640190fd5b61490e612efd565b61495a576040805162461bcd60e51b81526020600482015260186024820152771cd85b19481a185cc81d1bc8189948199a5b985b1a5e995960421b604482015290519081900360640190fd5b600e546301000000900460ff161561497157600080fd5b600061497b613d59565b15614989575060165461499b565b60155460165461499891615150565b90505b8015612fa257600e805463ff00000019166301000000179055600b54612fa2906001600160a01b03163383614fbc565b6000818152600160205260408120612a5d9061551d565b6149ea612402565b614a3b576040805162461bcd60e51b815260206004820152601a60248201527f6e6f74206265666f72652073746172742074696d652f64617465000000000000604482015290519081900360640190fd5b601654614a5082614a4a613bb3565b90614edf565b1115614aa3576040805162461bcd60e51b815260206004820181905260248201527f6d6f726520746f6b656e73207468616e206e656564656420666f722073616c65604482015290519081900360640190fd5b600b54614abb906001600160a01b0316333084615302565b612fa2614d75565b600e54610100900460ff1681565b600082815260016020526040902060020154614aef9061242861507a565b6128365760405162461bcd60e51b8152600401808060200182810382526030815260200180615ba26030913960400191505060405180910390fd5b60008060006060614b3a856122b0565b614b7f57505060408051808201909152601a8152791c1d5c98da185cd957da5908191bd95cc81b9bdd08195e1a5cdd60321b6020820152600092508291508190614bd0565b601b8581548110614b8c57fe5b9060005260206000209060040201600101549350601b8581548110614bad57fe5b9060005260206000209060040201600301549250614bca85612a63565b90925090505b9193509193565b614be2600033614570565b614c21576040805162461bcd60e51b81526020600482015260196024820152600080516020615cef833981519152604482015290519081900360640190fd5b601254811015614c78576040805162461bcd60e51b815260206004820152601b60248201527f696e646976696475616c206d6178203c206d696e20616d6f756e740000000000604482015290519081900360640190fd5b601355565b60135481565b614c9b600080516020615ca583398151915233614570565b614cda576040805162461bcd60e51b815260206004820152601c6024820152600080516020615bd2833981519152604482015290519081900360640190fd5b614ce5600382614f92565b15612fa2576040516001600160a01b038216907fa850ae9193f515cbae8d35e8925bd2be26627fc91bce650b8652ed254e9cab0390600090a250565b6002546000906001600160a01b0316614d3a8484613e96565b6001600160a01b0316149392505050565b600080516020615ca583398151915281565b73aeb39b67f27b641ef9f95fb74f1a46b1ee4efc8381565b614d7d612402565b614dce576040805162461bcd60e51b815260206004820152601a60248201527f6e6f74206265666f72652073746172742074696d652f64617465000000000000604482015290519081900360640190fd5b601654614dd9613bb3565b1061229057600e805462ff0000191662010000179055565b6000612ea66016546142c7565b600a5481565b601c8181548110614e1457600080fd5b6000918252602090912001546001600160a01b0316905081565b60185481565b6060601c805480602002602001604051908101604052809291908181526020018280548015614e8c57602002820191906000526020600020905b81546001600160a01b03168152600190910190602001808311614e6e575b5050505050905090565b6060612ea633614834565b6000612a5d600583614fa7565b6000601b8281548110614ebd57fe5b60009182526020909120600490910201546001600160a01b0316331492915050565b600082820183811015613bac576040805162461bcd60e51b815260206004820152601b60248201527f536166654d6174683a206164646974696f6e206f766572666c6f770000000000604482015290519081900360640190fd5b600082614f4857506000612a5d565b82820282848281614f5557fe5b0414613bac5760405162461bcd60e51b8152600401808060200182810382526021815260200180615c146021913960400191505060405180910390fd5b6000613bac836001600160a01b038416615528565b6000613bac836001600160a01b038416615572565b604080516001600160a01b038416602482015260448082018490528251808303909101815260649091019091526020810180516001600160e01b031663a9059cbb60e01b17905261500e90849061558a565b505050565b6000808211615069576040805162461bcd60e51b815260206004820152601a60248201527f536166654d6174683a206469766973696f6e206279207a65726f000000000000604482015290519081900360640190fd5b81838161507257fe5b049392505050565b3390565b60008281526001602052604090206150969082614f92565b15611c0e576150a361507a565b6001600160a01b0316816001600160a01b0316837f2f8788117e7eff1d82e926ec794901d17c78024a50270940304540a733656f0d60405160405180910390a45050565b60008281526001602052604090206150ff90826152ed565b15611c0e5761510c61507a565b6001600160a01b0316816001600160a01b0316837ff6391f5c32d9c69d2a47ea670b442974b53935d1edc7fd64eb21e047a839171b60405160405180910390a45050565b6000828211156151a7576040805162461bcd60e51b815260206004820152601e60248201527f536166654d6174683a207375627472616374696f6e206f766572666c6f770000604482015290519081900360640190fd5b50900390565b606060006151ba8361551d565b67ffffffffffffffff811180156151d057600080fd5b506040519080825280602002602001820160405280156151fa578160200160208202803683370190505b50905060005b6152098461551d565b8110156152465761521a8482615511565b82828151811061522657fe5b6001600160a01b0390921660209283029190910190910152600101615200565b5092915050565b61525561309c565b61529d576040805162461bcd60e51b815260206004820152601460248201527314185d5cd8589b194e881b9bdd081c185d5cd95960621b604482015290519081900360640190fd5b6000805460ff191690557f5db9ee0a495bf2e6ff9c91a7834c1ba4fdd244a5e8aa4e537bd38aeae4b073aa6152d061507a565b604080516001600160a01b039092168252519081900360200190a1565b6000613bac836001600160a01b03841661563b565b604080516001600160a01b0380861660248301528416604482015260648082018490528251808303909101815260849091019091526020810180516001600160e01b03166323b872dd60e01b179052613b6a90859061558a565b6000660100000000000082106153b9576040805162461bcd60e51b815260206004820152601c60248201527f76616c756520646f65736e27742066697420696e203438206269747300000000604482015290519081900360640190fd5b5090565b604080517f19457468657265756d205369676e6564204d6573736167653a0a333200000000602080830191909152603c8083019490945282518083039094018452605c909101909152815191012090565b60008151604114615466576040805162461bcd60e51b815260206004820152601f60248201527f45434453413a20696e76616c6964207369676e6174757265206c656e67746800604482015290519081900360640190fd5b60208201516040830151606084015160001a61548486828585615701565b9695505050505050565b61549661309c565b156154db576040805162461bcd60e51b815260206004820152601060248201526f14185d5cd8589b194e881c185d5cd95960821b604482015290519081900360640190fd5b6000805460ff191660011790557f62e78cea01bee320cd4e420270b5ea74000d11b0c9f74754ebdbfc544b05a2586152d061507a565b6000613bac838361587f565b6000612a5d826158e3565b60006155348383615572565b61556a57508154600181810184556000848152602080822090930184905584548482528286019093526040902091909155612a5d565b506000612a5d565b60009081526001919091016020526040902054151590565b60006155df826040518060400160405280602081526020017f5361666545524332303a206c6f772d6c6576656c2063616c6c206661696c6564815250856001600160a01b03166158e79092919063ffffffff16565b80519091501561500e578080602001905160208110156155fe57600080fd5b505161500e5760405162461bcd60e51b815260040180806020018281038252602a815260200180615cc5602a913960400191505060405180910390fd5b600081815260018301602052604081205480156156f7578354600019808301919081019060009087908390811061566e57fe5b906000526020600020015490508087600001848154811061568b57fe5b6000918252602080832090910192909255828152600189810190925260409020908401905586548790806156bb57fe5b60019003818190600052602060002001600090559055866001016000878152602001908152602001600020600090556001945050505050612a5d565b6000915050612a5d565b60007f7fffffffffffffffffffffffffffffff5d576e7357a4501ddfe92f46681b20a08211156157625760405162461bcd60e51b8152600401808060200182810382526022815260200180615b806022913960400191505060405180910390fd5b8360ff16601b148061577757508360ff16601c145b6157b25760405162461bcd60e51b8152600401808060200182810382526022815260200180615bf26022913960400191505060405180910390fd5b600060018686868660405160008152602001604052604051808581526020018460ff1681526020018381526020018281526020019450505050506020604051602081039080840390855afa15801561580e573d6000803e3d6000fd5b5050604051601f1901519150506001600160a01b038116615876576040805162461bcd60e51b815260206004820152601860248201527f45434453413a20696e76616c6964207369676e61747572650000000000000000604482015290519081900360640190fd5b95945050505050565b815460009082106158c15760405162461bcd60e51b8152600401808060200182810382526022815260200180615aa76022913960400191505060405180910390fd5b8260000182815481106158d057fe5b9060005260206000200154905092915050565b5490565b6060613ba98484600085856158fb85615a0c565b61594c576040805162461bcd60e51b815260206004820152601d60248201527f416464726573733a2063616c6c20746f206e6f6e2d636f6e7472616374000000604482015290519081900360640190fd5b600080866001600160a01b031685876040518082805190602001908083835b6020831061598a5780518252601f19909201916020918201910161596b565b6001836020036101000a03801982511681845116808217855250505050505090500191505060006040518083038185875af1925050503d80600081146159ec576040519150601f19603f3d011682016040523d82523d6000602084013e6159f1565b606091505b5091509150615a01828286615a12565b979650505050505050565b3b151590565b60608315615a21575081613bac565b825115615a315782518084602001fd5b60405162461bcd60e51b815260206004820181815284516024840152845185939192839260440191908501908083836000831561252657818101518382015260200161250e565b5080546000825590600052602060002090810190612fa291905b808211156153b95760008155600101615a9256fe456e756d657261626c655365743a20696e646578206f7574206f6620626f756e6473416363657373436f6e74726f6c3a2073656e646572206d75737420626520616e2061646d696e20746f206772616e7476657374696e6720696e74657276616c6c732070726f76696465642c206275742076657374696e674475726174696f6e203d2030737461727420646174652068617320746f20626520696e20746865206675747572656e6f74206f6e206f66662d636861696e2077686974656c697374206f722077726f6e67206d617820616c6c6f636174696f6e45434453413a20696e76616c6964207369676e6174757265202773272076616c7565416363657373436f6e74726f6c3a2073656e646572206d75737420626520616e2061646d696e20746f207265766f6b6563616c6c6572206973206e6f742057686974656c6973744f776e65720000000045434453413a20696e76616c6964207369676e6174757265202776272076616c7565536166654d6174683a206d756c7469706c69636174696f6e206f766572666c6f77494e5445524e414c204552524f52203a20616d6f756e7452656465656d656420776f756c64206265206c6172676572207468656e20707572636861736520616d6f756e74494e5445524e414c204552524f5220696e2076657374696e6720616d6f756e742063616c63756c6174696f6eb813b807c25079ba97f1770664c6a9e57c59afe74a6295f1ed01c10e3bb6baae5361666545524332303a204552433230206f7065726174696f6e20646964206e6f74207375636365656463616c6c657220686173206e6f742061646d696e20726f6c65000000000000004e6f2049444f207374616b696e6720636f6e747261637420617661696c61626c65416363657373436f6e74726f6c3a2063616e206f6e6c792072656e6f756e636520726f6c657320666f722073656c66a2646970667358221220176f96626dc2d598f1298cc6c006975113cabe69cde287458899acb751bb089164736f6c6343000706003376657374696e6720696e74657276616c6c732070726f76696465642c206275742076657374696e674475726174696f6e203d2030057c384a7d1c54f3a1b2e5e67b2617b8224fdfd1ea7234eea573a6ff665ff63e536166654d6174683a206d756c7469706c69636174696f6e206f766572666c6f7763616c6c657220686173206e6f742061646d696e20726f6c6500000000000000",
  "linkReferences": {},
  "deployedLinkReferences": {}
}