{
  "_format": "hh-sol-artifact-1",
  "contractName": "FixedSwap",
  "sourceName": "contracts/FixedSwap.sol",
  "abi": [
    {
      "inputs": [
        {
          "internalType": "address",
          "name": "_tokenAddress",
          "type": "address"
        },
        {
          "internalType": "uint256",
          "name": "_tradeValue",
          "type": "uint256"
        },
        {
          "internalType": "uint256",
          "name": "_tokensForSale",
          "type": "uint256"
        },
        {
          "internalType": "uint256",
          "name": "_startDate",
          "type": "uint256"
        },
        {
          "internalType": "uint256",
          "name": "_endDate",
          "type": "uint256"
        },
        {
          "internalType": "uint256",
          "name": "_ignored_05",
          "type": "uint256"
        },
        {
          "internalType": "uint256",
          "name": "_individualMaximumAmount",
          "type": "uint256"
        },
        {
          "internalType": "bool",
          "name": "_ignored_07",
          "type": "bool"
        },
        {
          "internalType": "uint256",
          "name": "_minimumRaise",
          "type": "uint256"
        },
        {
          "internalType": "uint256",
          "name": "_feePercentage",
          "type": "uint256"
        },
        {
          "internalType": "uint32",
          "name": "_flags",
          "type": "uint32"
        },
        {
          "internalType": "address",
          "name": "_erc20TradeAddress",
          "type": "address"
        }
      ],
      "stateMutability": "nonpayable",
      "type": "constructor"
    },
    {
      "inputs": [],
      "name": "AccessControlBadConfirmation",
      "type": "error"
    },
    {
      "inputs": [
        {
          "internalType": "address",
          "name": "account",
          "type": "address"
        },
        {
          "internalType": "bytes32",
          "name": "neededRole",
          "type": "bytes32"
        }
      ],
      "name": "AccessControlUnauthorizedAccount",
      "type": "error"
    },
    {
      "inputs": [
        {
          "internalType": "address",
          "name": "target",
          "type": "address"
        }
      ],
      "name": "AddressEmptyCode",
      "type": "error"
    },
    {
      "inputs": [
        {
          "internalType": "address",
          "name": "account",
          "type": "address"
        }
      ],
      "name": "AddressInsufficientBalance",
      "type": "error"
    },
    {
      "inputs": [],
      "name": "ECDSAInvalidSignature",
      "type": "error"
    },
    {
      "inputs": [
        {
          "internalType": "uint256",
          "name": "length",
          "type": "uint256"
        }
      ],
      "name": "ECDSAInvalidSignatureLength",
      "type": "error"
    },
    {
      "inputs": [
        {
          "internalType": "bytes32",
          "name": "s",
          "type": "bytes32"
        }
      ],
      "name": "ECDSAInvalidSignatureS",
      "type": "error"
    },
    {
      "inputs": [],
      "name": "EnforcedPause",
      "type": "error"
    },
    {
      "inputs": [],
      "name": "ExpectedPause",
      "type": "error"
    },
    {
      "inputs": [],
      "name": "FailedInnerCall",
      "type": "error"
    },
    {
      "inputs": [],
      "name": "ReentrancyGuardReentrantCall",
      "type": "error"
    },
    {
      "inputs": [
        {
          "internalType": "address",
          "name": "token",
          "type": "address"
        }
      ],
      "name": "SafeERC20FailedOperation",
      "type": "error"
    },
    {
      "anonymous": false,
      "inputs": [
        {
          "indexed": false,
          "internalType": "uint256",
          "name": "count",
          "type": "uint256"
        }
      ],
      "name": "AddedArrayToBlacklist",
      "type": "event"
    },
    {
      "anonymous": false,
      "inputs": [
        {
          "indexed": false,
          "internalType": "uint256",
          "name": "count",
          "type": "uint256"
        }
      ],
      "name": "AddedArrayToWhitelist",
      "type": "event"
    },
    {
      "anonymous": false,
      "inputs": [
        {
          "indexed": true,
          "internalType": "address",
          "name": "account",
          "type": "address"
        }
      ],
      "name": "AddedToBlacklist",
      "type": "event"
    },
    {
      "anonymous": false,
      "inputs": [
        {
          "indexed": true,
          "internalType": "address",
          "name": "account",
          "type": "address"
        }
      ],
      "name": "AddedToWhitelist",
      "type": "event"
    },
    {
      "anonymous": false,
      "inputs": [
        {
          "indexed": false,
          "internalType": "address",
          "name": "account",
          "type": "address"
        }
      ],
      "name": "Paused",
      "type": "event"
    },
    {
      "anonymous": false,
      "inputs": [
        {
          "indexed": false,
          "internalType": "uint256",
          "name": "amount",
          "type": "uint256"
        },
        {
          "indexed": true,
          "internalType": "address",
          "name": "purchaser",
          "type": "address"
        },
        {
          "indexed": false,
          "internalType": "uint256",
          "name": "timestamp",
          "type": "uint256"
        }
      ],
      "name": "PurchaseEvent",
      "type": "event"
    },
    {
      "anonymous": false,
      "inputs": [
        {
          "indexed": false,
          "internalType": "uint256",
          "name": "purchase_id",
          "type": "uint256"
        }
      ],
      "name": "PurchaseFinalized",
      "type": "event"
    },
    {
      "anonymous": false,
      "inputs": [
        {
          "indexed": false,
          "internalType": "uint256",
          "name": "purchase_id",
          "type": "uint256"
        }
      ],
      "name": "PurchaseReverted",
      "type": "event"
    },
    {
      "anonymous": false,
      "inputs": [
        {
          "indexed": true,
          "internalType": "uint256",
          "name": "purchase_id",
          "type": "uint256"
        },
        {
          "indexed": true,
          "internalType": "address",
          "name": "buyer",
          "type": "address"
        },
        {
          "indexed": false,
          "internalType": "uint256",
          "name": "refundAmount",
          "type": "uint256"
        },
        {
          "indexed": false,
          "internalType": "uint256",
          "name": "tokenAmount",
          "type": "uint256"
        }
      ],
      "name": "RefundIssued",
      "type": "event"
    },
    {
      "anonymous": false,
      "inputs": [
        {
          "indexed": true,
          "internalType": "address",
          "name": "to",
          "type": "address"
        },
        {
          "indexed": false,
          "internalType": "uint256",
          "name": "amount",
          "type": "uint256"
        }
      ],
      "name": "RefundPenaltyWithdrawn",
      "type": "event"
    },
    {
      "anonymous": false,
      "inputs": [
        {
          "indexed": false,
          "internalType": "uint256",
          "name": "refundPeriodStart",
          "type": "uint256"
        },
        {
          "indexed": false,
          "internalType": "uint256",
          "name": "refundPeriodEnd",
          "type": "uint256"
        },
        {
          "indexed": false,
          "internalType": "uint256",
          "name": "refundPercentage",
          "type": "uint256"
        }
      ],
      "name": "RefundPeriodSet",
      "type": "event"
    },
    {
      "anonymous": false,
      "inputs": [
        {
          "indexed": true,
          "internalType": "address",
          "name": "to",
          "type": "address"
        },
        {
          "indexed": false,
          "internalType": "uint256",
          "name": "amount",
          "type": "uint256"
        }
      ],
      "name": "RefundedTokensWithdrawn",
      "type": "event"
    },
    {
      "anonymous": false,
      "inputs": [
        {
          "indexed": true,
          "internalType": "address",
          "name": "account",
          "type": "address"
        }
      ],
      "name": "RemovedFromBlacklist",
      "type": "event"
    },
    {
      "anonymous": false,
      "inputs": [
        {
          "indexed": true,
          "internalType": "address",
          "name": "account",
          "type": "address"
        }
      ],
      "name": "RemovedFromWhitelist",
      "type": "event"
    },
    {
      "anonymous": false,
      "inputs": [
        {
          "indexed": true,
          "internalType": "bytes32",
          "name": "role",
          "type": "bytes32"
        },
        {
          "indexed": true,
          "internalType": "bytes32",
          "name": "previousAdminRole",
          "type": "bytes32"
        },
        {
          "indexed": true,
          "internalType": "bytes32",
          "name": "newAdminRole",
          "type": "bytes32"
        }
      ],
      "name": "RoleAdminChanged",
      "type": "event"
    },
    {
      "anonymous": false,
      "inputs": [
        {
          "indexed": true,
          "internalType": "bytes32",
          "name": "role",
          "type": "bytes32"
        },
        {
          "indexed": true,
          "internalType": "address",
          "name": "account",
          "type": "address"
        },
        {
          "indexed": true,
          "internalType": "address",
          "name": "sender",
          "type": "address"
        }
      ],
      "name": "RoleGranted",
      "type": "event"
    },
    {
      "anonymous": false,
      "inputs": [
        {
          "indexed": true,
          "internalType": "bytes32",
          "name": "role",
          "type": "bytes32"
        },
        {
          "indexed": true,
          "internalType": "address",
          "name": "account",
          "type": "address"
        },
        {
          "indexed": true,
          "internalType": "address",
          "name": "sender",
          "type": "address"
        }
      ],
      "name": "RoleRevoked",
      "type": "event"
    },
    {
      "anonymous": false,
      "inputs": [
        {
          "indexed": false,
          "internalType": "uint256",
          "name": "endDate",
          "type": "uint256"
        }
      ],
      "name": "SetEndDateEvent",
      "type": "event"
    },
    {
      "anonymous": false,
      "inputs": [
        {
          "indexed": false,
          "internalType": "bool",
          "name": "hasWhitelisting",
          "type": "bool"
        }
      ],
      "name": "SetHasWhitelisting",
      "type": "event"
    },
    {
      "anonymous": false,
      "inputs": [
        {
          "indexed": false,
          "internalType": "address",
          "name": "stakingRewardsAddress",
          "type": "address"
        }
      ],
      "name": "SetStakingRewardsEvent",
      "type": "event"
    },
    {
      "anonymous": false,
      "inputs": [
        {
          "indexed": false,
          "internalType": "uint256",
          "name": "startDate",
          "type": "uint256"
        }
      ],
      "name": "SetStartDateEvent",
      "type": "event"
    },
    {
      "anonymous": false,
      "inputs": [
        {
          "indexed": false,
          "internalType": "uint256",
          "name": "tradeValue",
          "type": "uint256"
        }
      ],
      "name": "SetTradeValueEvent",
      "type": "event"
    },
    {
      "anonymous": false,
      "inputs": [
        {
          "indexed": false,
          "internalType": "uint256",
          "name": "tgeAllocation",
          "type": "uint256"
        },
        {
          "indexed": false,
          "internalType": "uint256",
          "name": "tgeTime",
          "type": "uint256"
        },
        {
          "indexed": false,
          "internalType": "uint256",
          "name": "vestingStart",
          "type": "uint256"
        },
        {
          "indexed": false,
          "internalType": "uint256",
          "name": "vestingCliff",
          "type": "uint256"
        },
        {
          "indexed": false,
          "internalType": "uint256",
          "name": "vestingDuration",
          "type": "uint256"
        },
        {
          "indexed": false,
          "internalType": "uint256[]",
          "name": "vestingSchedule",
          "type": "uint256[]"
        }
      ],
      "name": "SetVestingEvent",
      "type": "event"
    },
    {
      "anonymous": false,
      "inputs": [
        {
          "indexed": false,
          "internalType": "address",
          "name": "account",
          "type": "address"
        }
      ],
      "name": "Unpaused",
      "type": "event"
    },
    {
      "inputs": [],
      "name": "DECIMALS_PERCENT_MUL",
      "outputs": [
        {
          "internalType": "uint256",
          "name": "",
          "type": "uint256"
        }
      ],
      "stateMutability": "view",
      "type": "function"
    },
    {
      "inputs": [],
      "name": "DEFAULT_ADMIN_ROLE",
      "outputs": [
        {
          "internalType": "bytes32",
          "name": "",
          "type": "bytes32"
        }
      ],
      "stateMutability": "view",
      "type": "function"
    },
    {
      "inputs": [],
      "name": "FEE_ADDRESS",
      "outputs": [
        {
          "internalType": "address",
          "name": "",
          "type": "address"
        }
      ],
      "stateMutability": "view",
      "type": "function"
    },
    {
      "inputs": [],
      "name": "MAX_TOTAL_VESTING_TIME",
      "outputs": [
        {
          "internalType": "uint256",
          "name": "",
          "type": "uint256"
        }
      ],
      "stateMutability": "view",
      "type": "function"
    },
    {
      "inputs": [],
      "name": "MINIMUM_REFUND_PERCENT",
      "outputs": [
        {
          "internalType": "uint256",
          "name": "",
          "type": "uint256"
        }
      ],
      "stateMutability": "view",
      "type": "function"
    },
    {
      "inputs": [],
      "name": "VERSION",
      "outputs": [
        {
          "internalType": "int32",
          "name": "",
          "type": "int32"
        }
      ],
      "stateMutability": "view",
      "type": "function"
    },
    {
      "inputs": [],
      "name": "WHITELIST_OWNER_ROLE",
      "outputs": [
        {
          "internalType": "bytes32",
          "name": "",
          "type": "bytes32"
        }
      ],
      "stateMutability": "view",
      "type": "function"
    },
    {
      "inputs": [
        {
          "internalType": "address[]",
          "name": "_addresses",
          "type": "address[]"
        }
      ],
      "name": "addArrayToBlacklist",
      "outputs": [],
      "stateMutability": "nonpayable",
      "type": "function"
    },
    {
      "inputs": [
        {
          "internalType": "address[]",
          "name": "_addresses",
          "type": "address[]"
        }
      ],
      "name": "addArrayToWhitelist",
      "outputs": [],
      "stateMutability": "nonpayable",
      "type": "function"
    },
    {
      "inputs": [
        {
          "internalType": "address",
          "name": "_address",
          "type": "address"
        }
      ],
      "name": "addToBlacklist",
      "outputs": [],
      "stateMutability": "nonpayable",
      "type": "function"
    },
    {
      "inputs": [
        {
          "internalType": "address",
          "name": "_address",
          "type": "address"
        }
      ],
      "name": "addToWhitelist",
      "outputs": [],
      "stateMutability": "nonpayable",
      "type": "function"
    },
    {
      "inputs": [],
      "name": "allowLateVestingChange",
      "outputs": [
        {
          "internalType": "bool",
          "name": "",
          "type": "bool"
        }
      ],
      "stateMutability": "view",
      "type": "function"
    },
    {
      "inputs": [],
      "name": "allowSaleStartwithoutFunding",
      "outputs": [
        {
          "internalType": "bool",
          "name": "",
          "type": "bool"
        }
      ],
      "stateMutability": "view",
      "type": "function"
    },
    {
      "inputs": [],
      "name": "availableTokens",
      "outputs": [
        {
          "internalType": "uint256",
          "name": "",
          "type": "uint256"
        }
      ],
      "stateMutability": "view",
      "type": "function"
    },
    {
      "inputs": [
        {
          "internalType": "uint256",
          "name": "",
          "type": "uint256"
        }
      ],
      "name": "buyers",
      "outputs": [
        {
          "internalType": "address",
          "name": "",
          "type": "address"
        }
      ],
      "stateMutability": "view",
      "type": "function"
    },
    {
      "inputs": [
        {
          "internalType": "uint256",
          "name": "_amount",
          "type": "uint256"
        }
      ],
      "name": "cost",
      "outputs": [
        {
          "internalType": "uint256",
          "name": "",
          "type": "uint256"
        }
      ],
      "stateMutability": "view",
      "type": "function"
    },
    {
      "inputs": [
        {
          "internalType": "address",
          "name": "_account",
          "type": "address"
        },
        {
          "internalType": "uint256",
          "name": "_accountMaximunAllocation",
          "type": "uint256"
        },
        {
          "internalType": "bytes",
          "name": "_signature",
          "type": "bytes"
        }
      ],
      "name": "determineAccountMaximunAllocation",
      "outputs": [
        {
          "internalType": "uint256",
          "name": "",
          "type": "uint256"
        }
      ],
      "stateMutability": "view",
      "type": "function"
    },
    {
      "inputs": [],
      "name": "endDate",
      "outputs": [
        {
          "internalType": "uint256",
          "name": "",
          "type": "uint256"
        }
      ],
      "stateMutability": "view",
      "type": "function"
    },
    {
      "inputs": [],
      "name": "erc20",
      "outputs": [
        {
          "internalType": "contract IERC20",
          "name": "",
          "type": "address"
        }
      ],
      "stateMutability": "view",
      "type": "function"
    },
    {
      "inputs": [],
      "name": "erc20TradeIn",
      "outputs": [
        {
          "internalType": "contract IERC20",
          "name": "",
          "type": "address"
        }
      ],
      "stateMutability": "view",
      "type": "function"
    },
    {
      "inputs": [],
      "name": "feePercentage",
      "outputs": [
        {
          "internalType": "uint256",
          "name": "",
          "type": "uint256"
        }
      ],
      "stateMutability": "view",
      "type": "function"
    },
    {
      "inputs": [
        {
          "internalType": "uint256",
          "name": "_amount",
          "type": "uint256"
        }
      ],
      "name": "fund",
      "outputs": [],
      "stateMutability": "nonpayable",
      "type": "function"
    },
    {
      "inputs": [],
      "name": "fundFull",
      "outputs": [],
      "stateMutability": "nonpayable",
      "type": "function"
    },
    {
      "inputs": [],
      "name": "getBlacklistedAddresses",
      "outputs": [
        {
          "internalType": "address[]",
          "name": "",
          "type": "address[]"
        }
      ],
      "stateMutability": "view",
      "type": "function"
    },
    {
      "inputs": [],
      "name": "getBuyers",
      "outputs": [
        {
          "internalType": "address[]",
          "name": "",
          "type": "address[]"
        }
      ],
      "stateMutability": "view",
      "type": "function"
    },
    {
      "inputs": [],
      "name": "getCurrentSchedule",
      "outputs": [
        {
          "internalType": "uint256",
          "name": "schedule",
          "type": "uint256"
        }
      ],
      "stateMutability": "view",
      "type": "function"
    },
    {
      "inputs": [
        {
          "internalType": "address",
          "name": "_address",
          "type": "address"
        }
      ],
      "name": "getMyPurchases",
      "outputs": [
        {
          "internalType": "uint256[]",
          "name": "",
          "type": "uint256[]"
        }
      ],
      "stateMutability": "view",
      "type": "function"
    },
    {
      "inputs": [],
      "name": "getMyPurchases_msgSender",
      "outputs": [
        {
          "internalType": "uint256[]",
          "name": "",
          "type": "uint256[]"
        }
      ],
      "stateMutability": "view",
      "type": "function"
    },
    {
      "inputs": [
        {
          "internalType": "uint256",
          "name": "purchase_id",
          "type": "uint256"
        }
      ],
      "name": "getPurchase",
      "outputs": [
        {
          "internalType": "uint256",
          "name": "amount",
          "type": "uint256"
        },
        {
          "internalType": "address",
          "name": "purchaser",
          "type": "address"
        },
        {
          "internalType": "uint256",
          "name": "costAmount",
          "type": "uint256"
        },
        {
          "internalType": "uint48",
          "name": "timestamp",
          "type": "uint48"
        },
        {
          "internalType": "bool",
          "name": "wasFinalized",
          "type": "bool"
        },
        {
          "internalType": "bool",
          "name": "reverted",
          "type": "bool"
        },
        {
          "internalType": "uint256",
          "name": "amountRedeemed",
          "type": "uint256"
        }
      ],
      "stateMutability": "view",
      "type": "function"
    },
    {
      "inputs": [],
      "name": "getPurchasesCount",
      "outputs": [
        {
          "internalType": "uint256",
          "name": "count",
          "type": "uint256"
        }
      ],
      "stateMutability": "view",
      "type": "function"
    },
    {
      "inputs": [
        {
          "internalType": "uint256",
          "name": "purchase_id",
          "type": "uint256"
        }
      ],
      "name": "getRedeemStatus",
      "outputs": [
        {
          "internalType": "uint256",
          "name": "amount",
          "type": "uint256"
        },
        {
          "internalType": "uint256",
          "name": "amountRedeemed",
          "type": "uint256"
        },
        {
          "internalType": "uint256",
          "name": "vestAmount",
          "type": "uint256"
        },
        {
          "internalType": "string",
          "name": "message",
          "type": "string"
        }
      ],
      "stateMutability": "view",
      "type": "function"
    },
    {
      "inputs": [
        {
          "internalType": "uint256",
          "name": "purchase_id",
          "type": "uint256"
        }
      ],
      "name": "getRedeemableTokensAmount",
      "outputs": [
        {
          "internalType": "uint256",
          "name": "amount",
          "type": "uint256"
        },
        {
          "internalType": "string",
          "name": "message",
          "type": "string"
        }
      ],
      "stateMutability": "view",
      "type": "function"
    },
    {
      "inputs": [
        {
          "internalType": "uint256",
          "name": "purchase_id",
          "type": "uint256"
        }
      ],
      "name": "getRefundAmount",
      "outputs": [
        {
          "internalType": "uint256",
          "name": "refundAmount",
          "type": "uint256"
        },
        {
          "internalType": "uint256",
          "name": "unclaimedTokens",
          "type": "uint256"
        },
        {
          "internalType": "string",
          "name": "message",
          "type": "string"
        }
      ],
      "stateMutability": "view",
      "type": "function"
    },
    {
      "inputs": [
        {
          "internalType": "bytes32",
          "name": "role",
          "type": "bytes32"
        }
      ],
      "name": "getRoleAdmin",
      "outputs": [
        {
          "internalType": "bytes32",
          "name": "",
          "type": "bytes32"
        }
      ],
      "stateMutability": "view",
      "type": "function"
    },
    {
      "inputs": [],
      "name": "getVestingEndTime",
      "outputs": [
        {
          "internalType": "uint256",
          "name": "",
          "type": "uint256"
        }
      ],
      "stateMutability": "view",
      "type": "function"
    },
    {
      "inputs": [],
      "name": "getVestingParameters",
      "outputs": [
        {
          "internalType": "uint256",
          "name": "_tgeAllocation",
          "type": "uint256"
        },
        {
          "internalType": "uint256",
          "name": "_tgeTime",
          "type": "uint256"
        },
        {
          "internalType": "uint256",
          "name": "_vestingStart",
          "type": "uint256"
        },
        {
          "internalType": "uint256",
          "name": "_vestingCliff",
          "type": "uint256"
        },
        {
          "internalType": "uint256",
          "name": "_vestingDuration",
          "type": "uint256"
        },
        {
          "internalType": "uint256[]",
          "name": "_vestingSchedule",
          "type": "uint256[]"
        }
      ],
      "stateMutability": "view",
      "type": "function"
    },
    {
      "inputs": [],
      "name": "getVestingStartTime",
      "outputs": [
        {
          "internalType": "uint256",
          "name": "",
          "type": "uint256"
        }
      ],
      "stateMutability": "view",
      "type": "function"
    },
    {
      "inputs": [],
      "name": "getWhitelistedAddresses",
      "outputs": [
        {
          "internalType": "address[]",
          "name": "",
          "type": "address[]"
        }
      ],
      "stateMutability": "view",
      "type": "function"
    },
    {
      "inputs": [
        {
          "internalType": "bytes32",
          "name": "role",
          "type": "bytes32"
        },
        {
          "internalType": "address",
          "name": "account",
          "type": "address"
        }
      ],
      "name": "grantRole",
      "outputs": [],
      "stateMutability": "nonpayable",
      "type": "function"
    },
    {
      "inputs": [],
      "name": "hasFinalized",
      "outputs": [
        {
          "internalType": "bool",
          "name": "",
          "type": "bool"
        }
      ],
      "stateMutability": "view",
      "type": "function"
    },
    {
      "inputs": [],
      "name": "hasMinimumRaise",
      "outputs": [
        {
          "internalType": "bool",
          "name": "",
          "type": "bool"
        }
      ],
      "stateMutability": "view",
      "type": "function"
    },
    {
      "inputs": [
        {
          "internalType": "bytes32",
          "name": "role",
          "type": "bytes32"
        },
        {
          "internalType": "address",
          "name": "account",
          "type": "address"
        }
      ],
      "name": "hasRole",
      "outputs": [
        {
          "internalType": "bool",
          "name": "",
          "type": "bool"
        }
      ],
      "stateMutability": "view",
      "type": "function"
    },
    {
      "inputs": [],
      "name": "hasStarted",
      "outputs": [
        {
          "internalType": "bool",
          "name": "",
          "type": "bool"
        }
      ],
      "stateMutability": "view",
      "type": "function"
    },
    {
      "inputs": [],
      "name": "hasWhitelisting",
      "outputs": [
        {
          "internalType": "bool",
          "name": "",
          "type": "bool"
        }
      ],
      "stateMutability": "view",
      "type": "function"
    },
    {
      "inputs": [],
      "name": "individualMaximumAmount",
      "outputs": [
        {
          "internalType": "uint256",
          "name": "",
          "type": "uint256"
        }
      ],
      "stateMutability": "view",
      "type": "function"
    },
    {
      "inputs": [],
      "name": "isBeforeVestingStart",
      "outputs": [
        {
          "internalType": "bool",
          "name": "",
          "type": "bool"
        }
      ],
      "stateMutability": "view",
      "type": "function"
    },
    {
      "inputs": [
        {
          "internalType": "address",
          "name": "_address",
          "type": "address"
        }
      ],
      "name": "isBlacklisted",
      "outputs": [
        {
          "internalType": "bool",
          "name": "",
          "type": "bool"
        }
      ],
      "stateMutability": "view",
      "type": "function"
    },
    {
      "inputs": [
        {
          "internalType": "uint256",
          "name": "purchase_id",
          "type": "uint256"
        }
      ],
      "name": "isBuyer",
      "outputs": [
        {
          "internalType": "bool",
          "name": "",
          "type": "bool"
        }
      ],
      "stateMutability": "view",
      "type": "function"
    },
    {
      "inputs": [],
      "name": "isETHTrade",
      "outputs": [
        {
          "internalType": "bool",
          "name": "",
          "type": "bool"
        }
      ],
      "stateMutability": "view",
      "type": "function"
    },
    {
      "inputs": [],
      "name": "isInRefundPeriod",
      "outputs": [
        {
          "internalType": "bool",
          "name": "",
          "type": "bool"
        }
      ],
      "stateMutability": "view",
      "type": "function"
    },
    {
      "inputs": [],
      "name": "isOpen",
      "outputs": [
        {
          "internalType": "bool",
          "name": "",
          "type": "bool"
        }
      ],
      "stateMutability": "view",
      "type": "function"
    },
    {
      "inputs": [],
      "name": "isPreStart",
      "outputs": [
        {
          "internalType": "bool",
          "name": "",
          "type": "bool"
        }
      ],
      "stateMutability": "view",
      "type": "function"
    },
    {
      "inputs": [],
      "name": "isSaleFunded",
      "outputs": [
        {
          "internalType": "bool",
          "name": "",
          "type": "bool"
        }
      ],
      "stateMutability": "view",
      "type": "function"
    },
    {
      "inputs": [
        {
          "internalType": "address",
          "name": "_userAccountAaddress",
          "type": "address"
        },
        {
          "internalType": "uint256",
          "name": "_accountMaximunAllocation",
          "type": "uint256"
        },
        {
          "internalType": "bytes",
          "name": "signature",
          "type": "bytes"
        }
      ],
      "name": "isSignerForAddressMaxAlloc",
      "outputs": [
        {
          "internalType": "bool",
          "name": "",
          "type": "bool"
        }
      ],
      "stateMutability": "view",
      "type": "function"
    },
    {
      "inputs": [
        {
          "internalType": "bytes32",
          "name": "hash",
          "type": "bytes32"
        },
        {
          "internalType": "bytes",
          "name": "signature",
          "type": "bytes"
        }
      ],
      "name": "isSignerFromBytes32",
      "outputs": [
        {
          "internalType": "bool",
          "name": "",
          "type": "bool"
        }
      ],
      "stateMutability": "view",
      "type": "function"
    },
    {
      "inputs": [],
      "name": "isTokenSwapAtomic",
      "outputs": [
        {
          "internalType": "bool",
          "name": "",
          "type": "bool"
        }
      ],
      "stateMutability": "view",
      "type": "function"
    },
    {
      "inputs": [
        {
          "internalType": "address",
          "name": "_address",
          "type": "address"
        }
      ],
      "name": "isWhitelisted",
      "outputs": [
        {
          "internalType": "bool",
          "name": "",
          "type": "bool"
        }
      ],
      "stateMutability": "view",
      "type": "function"
    },
    {
      "inputs": [],
      "name": "minimumRaise",
      "outputs": [
        {
          "internalType": "uint256",
          "name": "",
          "type": "uint256"
        }
      ],
      "stateMutability": "view",
      "type": "function"
    },
    {
      "inputs": [],
      "name": "minimumRaiseAchieved",
      "outputs": [
        {
          "internalType": "bool",
          "name": "",
          "type": "bool"
        }
      ],
      "stateMutability": "view",
      "type": "function"
    },
    {
      "inputs": [],
      "name": "minimumRaiseNotAchieved",
      "outputs": [
        {
          "internalType": "bool",
          "name": "",
          "type": "bool"
        }
      ],
      "stateMutability": "view",
      "type": "function"
    },
    {
      "inputs": [
        {
          "internalType": "address",
          "name": "",
          "type": "address"
        },
        {
          "internalType": "uint256",
          "name": "",
          "type": "uint256"
        }
      ],
      "name": "myPurchases",
      "outputs": [
        {
          "internalType": "uint256",
          "name": "",
          "type": "uint256"
        }
      ],
      "stateMutability": "view",
      "type": "function"
    },
    {
      "inputs": [],
      "name": "pause",
      "outputs": [],
      "stateMutability": "nonpayable",
      "type": "function"
    },
    {
      "inputs": [],
      "name": "paused",
      "outputs": [
        {
          "internalType": "bool",
          "name": "",
          "type": "bool"
        }
      ],
      "stateMutability": "view",
      "type": "function"
    },
    {
      "inputs": [
        {
          "internalType": "uint256",
          "name": "purchase_id",
          "type": "uint256"
        }
      ],
      "name": "purchaseExists",
      "outputs": [
        {
          "internalType": "bool",
          "name": "",
          "type": "bool"
        }
      ],
      "stateMutability": "view",
      "type": "function"
    },
    {
      "inputs": [
        {
          "internalType": "uint256",
          "name": "",
          "type": "uint256"
        }
      ],
      "name": "purchases",
      "outputs": [
        {
          "internalType": "address",
          "name": "purchaser",
          "type": "address"
        },
        {
          "internalType": "uint48",
          "name": "timestamp",
          "type": "uint48"
        },
        {
          "internalType": "bool",
          "name": "wasFinalized",
          "type": "bool"
        },
        {
          "internalType": "bool",
          "name": "reverted",
          "type": "bool"
        },
        {
          "internalType": "uint256",
          "name": "amount",
          "type": "uint256"
        },
        {
          "internalType": "uint256",
          "name": "costAmount",
          "type": "uint256"
        },
        {
          "internalType": "uint256",
          "name": "amountRedeemed",
          "type": "uint256"
        }
      ],
      "stateMutability": "view",
      "type": "function"
    },
    {
      "inputs": [
        {
          "internalType": "bytes32",
          "name": "hash",
          "type": "bytes32"
        },
        {
          "internalType": "bytes",
          "name": "signature",
          "type": "bytes"
        }
      ],
      "name": "recoverSignerAddressFromBytes32",
      "outputs": [
        {
          "internalType": "address",
          "name": "",
          "type": "address"
        }
      ],
      "stateMutability": "pure",
      "type": "function"
    },
    {
      "inputs": [
        {
          "internalType": "uint256",
          "name": "purchase_id",
          "type": "uint256"
        }
      ],
      "name": "redeemGivenMinimumGoalNotAchieved",
      "outputs": [],
      "stateMutability": "nonpayable",
      "type": "function"
    },
    {
      "inputs": [
        {
          "internalType": "uint256",
          "name": "purchase_id",
          "type": "uint256"
        }
      ],
      "name": "redeemTokens",
      "outputs": [],
      "stateMutability": "nonpayable",
      "type": "function"
    },
    {
      "inputs": [
        {
          "internalType": "uint256",
          "name": "purchase_id",
          "type": "uint256"
        }
      ],
      "name": "refund",
      "outputs": [],
      "stateMutability": "nonpayable",
      "type": "function"
    },
    {
      "inputs": [],
      "name": "refundPercentage",
      "outputs": [
        {
          "internalType": "uint256",
          "name": "",
          "type": "uint256"
        }
      ],
      "stateMutability": "view",
      "type": "function"
    },
    {
      "inputs": [],
      "name": "refundPeriodEnd",
      "outputs": [
        {
          "internalType": "uint256",
          "name": "",
          "type": "uint256"
        }
      ],
      "stateMutability": "view",
      "type": "function"
    },
    {
      "inputs": [],
      "name": "refundPeriodStart",
      "outputs": [
        {
          "internalType": "uint256",
          "name": "",
          "type": "uint256"
        }
      ],
      "stateMutability": "view",
      "type": "function"
    },
    {
      "inputs": [
        {
          "internalType": "address",
          "name": "_address",
          "type": "address"
        }
      ],
      "name": "removeFromBlacklist",
      "outputs": [],
      "stateMutability": "nonpayable",
      "type": "function"
    },
    {
      "inputs": [
        {
          "internalType": "address",
          "name": "_address",
          "type": "address"
        }
      ],
      "name": "removeFromWhitelist",
      "outputs": [],
      "stateMutability": "nonpayable",
      "type": "function"
    },
    {
      "inputs": [
        {
          "internalType": "address",
          "name": "_tokenAddress",
          "type": "address"
        },
        {
          "internalType": "address",
          "name": "_to",
          "type": "address"
        }
      ],
      "name": "removeOtherERC20Tokens",
      "outputs": [],
      "stateMutability": "nonpayable",
      "type": "function"
    },
    {
      "inputs": [
        {
          "internalType": "bytes32",
          "name": "role",
          "type": "bytes32"
        },
        {
          "internalType": "address",
          "name": "callerConfirmation",
          "type": "address"
        }
      ],
      "name": "renounceRole",
      "outputs": [],
      "stateMutability": "nonpayable",
      "type": "function"
    },
    {
      "inputs": [
        {
          "internalType": "bytes32",
          "name": "role",
          "type": "bytes32"
        },
        {
          "internalType": "address",
          "name": "account",
          "type": "address"
        }
      ],
      "name": "revokeRole",
      "outputs": [],
      "stateMutability": "nonpayable",
      "type": "function"
    },
    {
      "inputs": [],
      "name": "safePullETH",
      "outputs": [],
      "stateMutability": "nonpayable",
      "type": "function"
    },
    {
      "inputs": [],
      "name": "safePullSaleToken",
      "outputs": [],
      "stateMutability": "nonpayable",
      "type": "function"
    },
    {
      "inputs": [],
      "name": "safePullTradeToken",
      "outputs": [],
      "stateMutability": "nonpayable",
      "type": "function"
    },
    {
      "inputs": [
        {
          "internalType": "uint256",
          "name": "_endDate",
          "type": "uint256"
        }
      ],
      "name": "setEndDate",
      "outputs": [],
      "stateMutability": "nonpayable",
      "type": "function"
    },
    {
      "inputs": [
        {
          "internalType": "bool",
          "name": "_hasWhitelisting",
          "type": "bool"
        }
      ],
      "name": "setHasWhitelisting",
      "outputs": [],
      "stateMutability": "nonpayable",
      "type": "function"
    },
    {
      "inputs": [
        {
          "internalType": "uint256",
          "name": "_individualMaximumAmount",
          "type": "uint256"
        }
      ],
      "name": "setIndividualMaximumAmount",
      "outputs": [],
      "stateMutability": "nonpayable",
      "type": "function"
    },
    {
      "inputs": [
        {
          "internalType": "uint256",
          "name": "_refundPeriodStart",
          "type": "uint256"
        },
        {
          "internalType": "uint256",
          "name": "_refundPeriodEnd",
          "type": "uint256"
        },
        {
          "internalType": "uint256",
          "name": "_refundPercentage",
          "type": "uint256"
        }
      ],
      "name": "setRefundPeriod",
      "outputs": [],
      "stateMutability": "nonpayable",
      "type": "function"
    },
    {
      "inputs": [
        {
          "internalType": "address",
          "name": "_tokenAddress",
          "type": "address"
        }
      ],
      "name": "setSaleTokenAddress",
      "outputs": [],
      "stateMutability": "nonpayable",
      "type": "function"
    },
    {
      "inputs": [
        {
          "internalType": "address",
          "name": "_signerPublicAddress",
          "type": "address"
        }
      ],
      "name": "setSignerPublicAddress",
      "outputs": [],
      "stateMutability": "nonpayable",
      "type": "function"
    },
    {
      "inputs": [
        {
          "internalType": "address",
          "name": "_stakingRewardsAddress",
          "type": "address"
        }
      ],
      "name": "setStakingRewards",
      "outputs": [],
      "stateMutability": "nonpayable",
      "type": "function"
    },
    {
      "inputs": [
        {
          "internalType": "uint256",
          "name": "_startDate",
          "type": "uint256"
        }
      ],
      "name": "setStartDate",
      "outputs": [],
      "stateMutability": "nonpayable",
      "type": "function"
    },
    {
      "inputs": [
        {
          "internalType": "uint256",
          "name": "_tradeValue",
          "type": "uint256"
        }
      ],
      "name": "setTradeValue",
      "outputs": [],
      "stateMutability": "nonpayable",
      "type": "function"
    },
    {
      "inputs": [
        {
          "internalType": "uint256",
          "name": "_tgeAllocation",
          "type": "uint256"
        },
        {
          "internalType": "uint256",
          "name": "_tgeTime",
          "type": "uint256"
        },
        {
          "internalType": "uint256",
          "name": "_vestingStart",
          "type": "uint256"
        },
        {
          "internalType": "uint256",
          "name": "_vestingCliff",
          "type": "uint256"
        },
        {
          "internalType": "uint256",
          "name": "_vestingDuration",
          "type": "uint256"
        },
        {
          "internalType": "uint256[]",
          "name": "_vestingSchedule",
          "type": "uint256[]"
        }
      ],
      "name": "setVesting",
      "outputs": [],
      "stateMutability": "nonpayable",
      "type": "function"
    },
    {
      "inputs": [],
      "name": "signerPublicAddress",
      "outputs": [
        {
          "internalType": "address",
          "name": "",
          "type": "address"
        }
      ],
      "stateMutability": "view",
      "type": "function"
    },
    {
      "inputs": [],
      "name": "stakingRewardsAddress",
      "outputs": [
        {
          "internalType": "address",
          "name": "",
          "type": "address"
        }
      ],
      "stateMutability": "view",
      "type": "function"
    },
    {
      "inputs": [],
      "name": "startDate",
      "outputs": [
        {
          "internalType": "uint256",
          "name": "",
          "type": "uint256"
        }
      ],
      "stateMutability": "view",
      "type": "function"
    },
    {
      "inputs": [
        {
          "internalType": "bytes4",
          "name": "interfaceId",
          "type": "bytes4"
        }
      ],
      "name": "supportsInterface",
      "outputs": [
        {
          "internalType": "bool",
          "name": "",
          "type": "bool"
        }
      ],
      "stateMutability": "view",
      "type": "function"
    },
    {
      "inputs": [
        {
          "internalType": "uint256",
          "name": "_amount",
          "type": "uint256"
        },
        {
          "internalType": "bytes",
          "name": "_signature",
          "type": "bytes"
        }
      ],
      "name": "swap",
      "outputs": [],
      "stateMutability": "payable",
      "type": "function"
    },
    {
      "inputs": [
        {
          "internalType": "uint256",
          "name": "_amount",
          "type": "uint256"
        },
        {
          "internalType": "uint256",
          "name": "_accountMaxAmount",
          "type": "uint256"
        },
        {
          "internalType": "bytes",
          "name": "_signature",
          "type": "bytes"
        }
      ],
      "name": "swapWithSig",
      "outputs": [],
      "stateMutability": "payable",
      "type": "function"
    },
    {
      "inputs": [],
      "name": "tgeAllocation",
      "outputs": [
        {
          "internalType": "uint256",
          "name": "",
          "type": "uint256"
        }
      ],
      "stateMutability": "view",
      "type": "function"
    },
    {
      "inputs": [],
      "name": "tgeTime",
      "outputs": [
        {
          "internalType": "uint256",
          "name": "",
          "type": "uint256"
        }
      ],
      "stateMutability": "view",
      "type": "function"
    },
    {
      "inputs": [],
      "name": "tokensAllocated",
      "outputs": [
        {
          "internalType": "uint256",
          "name": "",
          "type": "uint256"
        }
      ],
      "stateMutability": "view",
      "type": "function"
    },
    {
      "inputs": [],
      "name": "tokensForSale",
      "outputs": [
        {
          "internalType": "uint256",
          "name": "",
          "type": "uint256"
        }
      ],
      "stateMutability": "view",
      "type": "function"
    },
    {
      "inputs": [],
      "name": "tokensLeft",
      "outputs": [
        {
          "internalType": "uint256",
          "name": "",
          "type": "uint256"
        }
      ],
      "stateMutability": "view",
      "type": "function"
    },
    {
      "inputs": [],
      "name": "totalRaiseCost",
      "outputs": [
        {
          "internalType": "uint256",
          "name": "",
          "type": "uint256"
        }
      ],
      "stateMutability": "view",
      "type": "function"
    },
    {
      "inputs": [],
      "name": "totalRefundAmountPenalty",
      "outputs": [
        {
          "internalType": "uint256",
          "name": "",
          "type": "uint256"
        }
      ],
      "stateMutability": "view",
      "type": "function"
    },
    {
      "inputs": [],
      "name": "totalRefundedTokens",
      "outputs": [
        {
          "internalType": "uint256",
          "name": "",
          "type": "uint256"
        }
      ],
      "stateMutability": "view",
      "type": "function"
    },
    {
      "inputs": [],
      "name": "tradeValue",
      "outputs": [
        {
          "internalType": "uint256",
          "name": "",
          "type": "uint256"
        }
      ],
      "stateMutability": "view",
      "type": "function"
    },
    {
      "inputs": [
        {
          "internalType": "uint256",
          "name": "purchase_id",
          "type": "uint256"
        },
        {
          "internalType": "bool",
          "name": "stake",
          "type": "bool"
        }
      ],
      "name": "transferTokens",
      "outputs": [],
      "stateMutability": "nonpayable",
      "type": "function"
    },
    {
      "inputs": [],
      "name": "unpause",
      "outputs": [],
      "stateMutability": "nonpayable",
      "type": "function"
    },
    {
      "inputs": [],
      "name": "unsoldTokensRedeemed",
      "outputs": [
        {
          "internalType": "bool",
          "name": "",
          "type": "bool"
        }
      ],
      "stateMutability": "view",
      "type": "function"
    },
    {
      "inputs": [],
      "name": "vestingCliff",
      "outputs": [
        {
          "internalType": "uint256",
          "name": "",
          "type": "uint256"
        }
      ],
      "stateMutability": "view",
      "type": "function"
    },
    {
      "inputs": [],
      "name": "vestingDuration",
      "outputs": [
        {
          "internalType": "uint256",
          "name": "",
          "type": "uint256"
        }
      ],
      "stateMutability": "view",
      "type": "function"
    },
    {
      "inputs": [
        {
          "internalType": "uint256",
          "name": "",
          "type": "uint256"
        }
      ],
      "name": "vestingSchedule",
      "outputs": [
        {
          "internalType": "uint256",
          "name": "",
          "type": "uint256"
        }
      ],
      "stateMutability": "view",
      "type": "function"
    },
    {
      "inputs": [],
      "name": "vestingStart",
      "outputs": [
        {
          "internalType": "uint256",
          "name": "",
          "type": "uint256"
        }
      ],
      "stateMutability": "view",
      "type": "function"
    },
    {
      "inputs": [],
      "name": "vestingTime",
      "outputs": [
        {
          "internalType": "uint256",
          "name": "",
          "type": "uint256"
        }
      ],
      "stateMutability": "view",
      "type": "function"
    },
    {
      "inputs": [],
      "name": "withdrawFunds",
      "outputs": [],
      "stateMutability": "nonpayable",
      "type": "function"
    },
    {
      "inputs": [],
      "name": "withdrawRefundedTokens",
      "outputs": [],
      "stateMutability": "nonpayable",
      "type": "function"
    },
    {
      "inputs": [],
      "name": "withdrawUnsoldTokens",
      "outputs": [],
      "stateMutability": "nonpayable",
      "type": "function"
    }
  ],
  "bytecode": "0x6101003461045657601f61617238819003918201601f19168301916001600160401b0383118484101761045b57808492610180946040528339810103126104565761004981610471565b9060208101519160408201519160608101519360808201519060c08301519460e0840151801515036104565761010084015192610120850151976101408601519563ffffffff871690818803610456576101606100a69101610471565b9860ff19600054166000556100ba33610485565b506002805460ff60a01b1916898216151560a01b60ff60a01b16179055336000908152600080516020616152833981519152602052604090205460ff161561041157600355600160085561010d33610523565b50814210156103cc5782600f54101561038757831561034e578386116103095760638a116102c4576020111561027f57600f55601055601355600e5560018216156102745761022f57601090600160a0525b60088116151560c05216151560e052600a80546001600160a01b0319166001600160a01b039283161790551680610215575b50608052604051615b78908161059a8239608051816116e5015260a051818181610e90015281816124fa01528181613392015281816133e40152818161375f015281816145e6015281816149190152614c58015260c051818181611366015281816125ed0152613355015260e05181818161091f0152818161331801526137380152f35b600b80546001600160a01b03191691909117905538610191565b60405162461bcd60e51b815260206004820152601d60248201527f61746f6d696320737761703a206d696e696d756d5261697365203e20300000006044820152606490fd5b60115560109061015f565b60405162461bcd60e51b815260206004820152601560248201527f756e737570706f7274656420666c6167732073657400000000000000000000006044820152606490fd5b60405162461bcd60e51b815260206004820152601e60248201527f4665652050657263656e746167652068617320746f206265203c2031303000006044820152606490fd5b60405162461bcd60e51b815260206004820152601c60248201527f6d696e696d756d5261697365203e20746f6b656e73466f7253616c65000000006044820152606490fd5b60405162461bcd60e51b81526020600482015260116024820152706e6f20746f6b656e20666f722073616c6560781b6044820152606490fd5b60405162461bcd60e51b815260206004820152601a60248201527f656e642064617465206265666f726520737461727420646174650000000000006044820152606490fd5b60405162461bcd60e51b815260206004820152601960248201527f7374617274206461746520697320696e207468652070617374000000000000006044820152606490fd5b60405162461bcd60e51b815260206004820152601c60248201527f63616c6c6572206973206e6f742057686974656c6973744f776e6572000000006044820152606490fd5b600080fd5b634e487b7160e01b600052604160045260246000fd5b51906001600160a01b038216820361045657565b6001600160a01b0381166000908152600080516020616152833981519152602052604090205460ff1661051d576001600160a01b0316600081815260008051602061615283398151915260205260408120805460ff191660011790553391907fb813b807c25079ba97f1770664c6a9e57c59afe74a6295f1ed01c10e3bb6baae906000805160206161128339815191529080a4600190565b50600090565b6001600160a01b0381166000908152600080516020616132833981519152602052604090205460ff1661051d576001600160a01b0316600081815260008051602061613283398151915260205260408120805460ff191660011790553391906000805160206161128339815191528180a460019056fe608080604052600436101561001357600080fd5b600090813560e01c90816301ffc9a7146141e057508063031fb2b7146141bd578063034e52901461419e578063044c0cc51461417357806304cd529414614132578063076623451461410c57806308abd7ff1461401c57806309b56e0b14613ff757806309d4d6f514613e465780630b97bc8614613e2857806312aef8c314613e0a5780631514617e14613dec57806315b5786614613dcc578063161a7b2a14613db15780631a808187146136b95780631de18af7146133b757806321d3002a1461337a578063230005d31461333d5780632438a3f61461330057806324600fc314613183578063248a9ca314613155578063254800d4146131375780632593ea1714613114578063278ecde114612f9457806328c32be614612f765780632ebb5c1e14612f565780632f2ff15d14612f155780633070b98d14612c215780633113076a14612bb05780633163e3a814612b9257806336568abe14612b4d5780633742a9f714612a775780633784f0001461299f5780633af32abf146129645780633b6577c81461292a5780633bbab179146128a65780633f4ba83a146128325780634089aa9a1461281157806344337ea11461278257806344691f7e1461276157806347535d7b146127465780634b77ae1414612728578063537df3b61461269957806359730bb51461267b5780635ac699bb146126335780635c975abb146126115780635f635f9a146124a55780636295a2f41461248757806369bb4dc2146123f25780636d0280271461236e5780636eaaabd5146122d55780636fb83a571461219a57806372fd9e241461217c57806374fa05fb1461215a578063751ef93d14612140578063755e3e281461212257806376807e5f146120a1578063785e9e8614612078578063788bff681461204f578063799bb232146120295780637f7b2712146120095780638158f2b814611feb57806382d95df514611f175780638307dc9814611efc5780638392fe3114611e715780638456cb5914611dfa57806388b0fe2b14611d425780638a1a5f3f14611d275780638ab1d68114611c985780638e75b13114611c7a5780639097548d14611c5b578063917c854d14611ae1578063919bd93014611aa757806391d1485414611a5b5780639483841414611a3557806396a32bc4146119dd5780639a43e8c7146118195780639baf1979146117ff5780639d90a46e14611708578063a001ecdd146116cd578063a1c09bf1146116af578063a217fddf14611693578063a6e158f814611506578063a929eef1146114e8578063b31f8f93146114c6578063b367940e146114a3578063b869178714611437578063ba40a96a1461140e578063bd0625ab14610e3b578063bf135abe14610e12578063c0e6498914610d23578063c24a0f8b14610d05578063c3ca324f14610ce0578063c4fb8f1414610c46578063c7dab43614610c2b578063c8bdbfb614610b78578063c957b76214610b5d578063ca1d209d14610a65578063d10dbdf5146109ef578063d547741f146109a5578063d623786d146108cb578063dbb57ac814610884578063dc91b07214610835578063e4101de514610817578063e43252d714610788578063e4a8025214610754578063e8b882f41461072b578063eb1edd61146106fd578063efbb34d5146106d7578063f2aa821814610693578063f3640e7414610675578063f64bfaba146105eb578063fce9d11b146105b6578063fe575a8714610571578063fecf415a1461053c5763ffa1ad741461051d57600080fd5b3461053957806003193601126105395760206040516177f48152f35b80fd5b50346105395760203660031901126105395750602061055c6004356144d0565b5060018060a01b039054163314604051908152f35b50346105395760203660031901126105395760206105ac6001600160a01b036105986142e6565b166000526007602052604060002054151590565b6040519015158152f35b50346105395780600319360112610539576105e76105d33361542c565b6040519182916020835260208301906144ef565b0390f35b503461053957806003193601126105395760405180916020601e54928381520191601e82527f50bb669a95c7b50b7e8a6f09454034b2b14cf2b85c730dca9a539ca82cb6e350915b818110610656576105e78561064a818703826143d5565b604051918291826142fc565b82546001600160a01b0316845260209093019260019283019201610633565b50346105395780600319360112610539576020601a54604051908152f35b50346105395760203660031901126105395760043590601e548210156105395760206106be8361433f565b905460405160039290921b1c6001600160a01b03168152f35b503461053957806003193601126105395760206106f560135461524b565b604051908152f35b50346105395780600319360112610539576020604051729a118309431f92cdadf9ca4bdd5d8f61db7fe78152f35b50346105395780600319360112610539576020604051600080516020615b4c8339815191528152f35b503461053957602061076e610768366144a0565b90615164565b6002546040516001600160a01b0392831691909216148152f35b5034610539576020366003190112610539576107a26142e6565b600080516020615b4c833981519152825260016020908152604080842033600090815292529020546107d69060ff166147cd565b6001600160a01b03166107e881615707565b6107f0575080f35b7fa850ae9193f515cbae8d35e8925bd2be26627fc91bce650b8652ed254e9cab038280a280f35b50346105395780600319360112610539576020600354604051908152f35b503461053957602036600319011261053957600080516020615b4c8339815191528152600160209081526040808320336000908152925290205461087b9060ff166147cd565b60043560035580f35b5034610539576020366003190112610539576105e76108a460043561547b565b9060409492945194859485526020850152604084015260806060840152608083019061425e565b5034610539576020366003190112610539576108e56142e6565b818052600160209081526040808420336000908152925290205461090b9060ff1661484c565b61091d6109166151f4565b4210614a43565b7f0000000000000000000000000000000000000000000000000000000000000000156109615760018060a01b03166001600160601b0360a01b600a541617600a5580f35b606460405162461bcd60e51b815260206004820152602060248201527f746f6b656e2061646472657373206368616e6765206e6f7420616c6c6f7765646044820152fd5b5034610539576040366003190112610539576109eb6004356109c56142d0565b906109e66109e182600052600160205260016040600020015490565b61553b565b615607565b5080f35b5034610539576020366003190112610539577ffd6fc945a36da5e54e8c65e37d56829b185977f4df3f8244caaae06f42d549c56020600435610a34600f544210614a8f565b8380526001825260408085203360009081529084522054610a579060ff1661484c565b80600e55604051908152a180f35b50346105395760203660031901126105395760043560018060a01b03600a5416906040516370a0823160e01b8152306004820152602081602481865afa8015610b525782908590610b17575b610abb925061490a565b60135410610ad357610ad091309033906156a5565b80f35b606460405162461bcd60e51b815260206004820152602060248201527f6d6f726520746f6b656e73207468616e206e656564656420666f722073616c656044820152fd5b50506020813d602011610b4a575b81610b32602093836143d5565b81010312610b455781610abb9151610ab1565b600080fd5b3d9150610b25565b6040513d86823e3d90fd5b503461053957806003193601126105395760206105ac615463565b50346105395780600319360112610539578080526001602090815260408083203360009081529252902054610baf9060ff1661484c565b610bbd601054421015614b3c565b600b5460ff8160a01c16610c2757601254601154811015610c1657506013545b80610be6578280f35b60ff60a01b19909116600160a01b17600b55600a54610c10919033906001600160a01b03166154c0565b38808280f35b610c2290601354614bb8565b610bdd565b5080fd5b503461053957806003193601126105395760206106f561544c565b503461053957806003193601126105395760175460185490601954601a54601b549060405192601c54968785526020850197601c825260208220915b818110610cca57505050610c9d846105e796979803856143d5565b6040519687968752602087015260408601526060850152608084015260c060a084015260c08301906144ef565b82548a5260209099019860019283019201610c82565b5034610539576020366003190112610539576105e76105d3610d006142e6565b61542c565b50346105395780600319360112610539576020601054604051908152f35b5034610539578060031936011261053957600a546040516370a0823160e01b8152306004820152906001600160a01b0316602082602481845afa918215610e07578392610dd3575b5060135480831015610d8e57610ad092610d8491614bb8565b90309033906156a5565b60405162461bcd60e51b815260206004820152601d60248201527f636f6e747261637420616c72656164792066756c6c792066756e6465640000006044820152606490fd5b9091506020813d602011610dff575b81610def602093836143d5565b81010312610b4557519038610d6b565b3d9150610de2565b6040513d85823e3d90fd5b5034610539578060031936011261053957600b546040516001600160a01b039091168152602090f35b5060403660031901126105395760043560243567ffffffffffffffff811161140a57610e6b903690600401614413565b610e736154fc565b610e7b61551e565b610e8361507d565b156113cf57811561138a577f0000000000000000000000000000000000000000000000000000000000000000908115908180611363575b8015611355575b1561131057610ed090336152e3565b9081156112db57600b546001600160a01b03166112cc573491610ef28561524b565b3410611291575b610f0860135460125490614bb8565b851161124c57338652601f602052610f2260408720615094565b8587825189935b818510611219575050610f3c925061490a565b116111d457660100000000000042101561118f57821561118957835b60405191610f65836143a3565b338352602083019065ffffffffffff42168252604084019015815260608401888152608085019188835260a086019387855260c08701958652601d54600160401b81101561117557806001610fbd9201601d556144d0565b97909761116157518754915192516001600160d81b03199092166001600160a01b03919091161760a09290921b65ffffffffffff60a01b169190911790151560d01b60ff60d01b1617855560039392919061102d9051865460ff60d81b191690151560d81b60ff60d81b16178655565b51600185015551600284015551910155338452601f60205260408420601d5460001981019190821161114d579061106391614b1a565b601e54600160401b811015611139578060016110829201601e5561433f565b81549060031b9033821b9160018060a01b03901b19161790556110a78360125461490a565b601255600b546001600160a01b0316611119575b506110fb575b6040519081524260208201527fbec109f7ee137de661c6887caa96653c0545050a9908a3b6eb5190440bbec86460403392a2600160085580f35b600a5461111490829033906001600160a01b03166154c0565b6110c1565b600b546111339190309033906001600160a01b03166156a5565b386110bb565b634e487b7160e01b85526041600452602485fd5b634e487b7160e01b86526011600452602486fd5b634e487b7160e01b8c5260048c905260248cfd5b634e487b7160e01b8c52604160045260248cfd5b84610f58565b60405162461bcd60e51b815260206004820152601c60248201527f76616c756520646f65736e27742066697420696e2034382062697473000000006044820152606490fd5b60405162461bcd60e51b815260206004820152601d60248201527f616d6f756e74206578636565647320696e646976696475616c206d61780000006044820152606490fd5b916001919350611240908261123761123188876150e1565b516144d0565b5001549061490a565b93019290918892610f29565b60405162461bcd60e51b815260206004820152601960248201527f616d6f756e74203e20746f6b656e7320617661696c61626c65000000000000006044820152606490fd5b60405162461bcd60e51b81526020600482015260136024820152721b9bdd08195b9bdd59da08115512081cd95b9d606a1b6044820152606490fd5b6112d58461524b565b91610ef9565b60405162461bcd60e51b815260206004820152600d60248201526c37379030b63637b1b0ba34b7b760991b6044820152606490fd5b60405162461bcd60e51b815260206004820152601c60248201527f66756e64696e6720726571756972656d656e7473206e6f74206d6574000000006044820152606490fd5b5061135e614917565b610ec1565b507f0000000000000000000000000000000000000000000000000000000000000000610eba565b60405162461bcd60e51b815260206004820152601d60248201527f616d6f756e74206d7573742062652067726561746572207468616e20300000006044820152606490fd5b60405162461bcd60e51b815260206004820152601360248201527239b0b632903430b9903a379031329037b832b760691b6044820152606490fd5b8280fd5b50346105395780600319360112610539576002546040516001600160a01b039091168152602090f35b5034610539576020366003190112610539576114516142e6565b600080516020615b4c833981519152825260016020908152604080842033600090815292529020546114859060ff166147cd565b60018060a01b03166001600160601b0360a01b600254161760025580f35b503461053957806003193601126105395760206012546011541115604051908152f35b503461053957806003193601126105395760206106f560135460125490614bb8565b50346105395780600319360112610539576020600c54604051908152f35b5034610539576020366003190112610539576004356115236154fc565b61152c816144d0565b50546001600160a01b031633036116575761155361154982614c4c565b8192911515614b88565b600161155e836144d0565b50015491600361156d826144d0565b5001548361157b848361490a565b11611612576115a86115a284836115be976115988360039761490a565b146115c65761490a565b926144d0565b500155600a5433906001600160a01b03166154c0565b600160085580f35b6115cf866144d0565b50805460ff60d01b1916600160d01b1790556040518681527f36a135f5fbde1b6c5f43e056a7f5b0d91279e1693b1b28861e3b0eb06213bf5790602090a161490a565b60405162461bcd60e51b815260206004820152601f60248201527f494520616d6f756e7452656465656d6564203e20707572636861736520612e006044820152606490fd5b60405162461bcd60e51b815260206004820152601460248201527320b2323932b9b99034b9903737ba10313abcb2b960611b6044820152606490fd5b5034610539578060031936011261053957602090604051908152f35b50346105395780600319360112610539576020601d54604051908152f35b503461053957806003193601126105395760206040517f00000000000000000000000000000000000000000000000000000000000000008152f35b50346105395760203660031901126105395760043567ffffffffffffffff8111610c275761173a90369060040161429f565b9190600080516020615b4c833981519152825260016020526040822060018060a01b03331660005260205261177660ff604060002054166147cd565b8190825b8481106117ba5750508061178c575080f35b60207fc2f03ca34d335e49d4d629b85db054d1ffb679b4fec2e06fe10d0e618b175ecb91604051908152a180f35b6117de6001600160a01b036117d86117d3848987614819565b614829565b1661575c565b6117eb575b60010161177a565b916117f760019161483d565b9290506117e3565b50346105395760206106f56118133661445a565b91615382565b5034610539576060366003190112610539576004356024356044359183805260016020526040842060018060a01b03331660005260205261186160ff6040600020541661484c565b80601054116119985781811161195357655af3107a4000831161191557652d79883d200083106118d0577f41647b120e0da0bb6302c8236e2a689cbc62f6123a66aff5fae45056cf52b8589260609282601455806015558160165560405192835260208301526040820152a180f35b60405162461bcd60e51b815260206004820152601860248201527f726566756e6450657263656e7461676520746f6f206c6f7700000000000000006044820152606490fd5b60405162461bcd60e51b81526020600482015260166024820152750726566756e6450657263656e74616765203e203130360541b6044820152606490fd5b60405162461bcd60e51b815260206004820152601d60248201527f726566756e64506572696f6420656e64206265666f72652073746172740000006044820152606490fd5b60405162461bcd60e51b815260206004820152601c60248201527f726566756e64207374617274206265666f72652073616c6520656e64000000006044820152606490fd5b50346105395780600319360112610539578080526001602090815260408083203360009081529252902054611a149060ff1661484c565b611a1c6156e9565b610ad08180808047335af1611a2f614898565b506148c8565b5034610539578060031936011261053957602060ff600b5460a01c166040519015158152f35b5034610539576040366003190112610539576040611a776142d0565b9160043581526001602052209060018060a01b0316600052602052602060ff604060002054166040519015158152f35b50346105395760203660031901126105395760043590601c54821015610539576020611ad283614370565b90549060031b1c604051908152f35b503461053957604036600319011261053957611afb6142e6565b611b036142d0565b9082805260016020526040832060018060a01b033316600052602052611b3060ff6040600020541661484c565b611b3e601054421015614b3c565b600a546001600160a01b0391821691168114611c1657600b546001600160a01b03168114611bd1576040516370a0823160e01b815230600482015291602083602481855afa918215610b52578492611b9b575b610ad093506154c0565b91506020833d602011611bc9575b81611bb6602093836143d5565b81010312610b4557610ad0925191611b91565b3d9150611ba9565b60405162461bcd60e51b815260206004820152601b60248201527f746f6b656e206973207468652074726164652d696e20746f6b656e00000000006044820152606490fd5b60405162461bcd60e51b815260206004820152601b60248201527f746f6b656e2069732074686520746f6b656e20666f722073616c6500000000006044820152606490fd5b50346105395760203660031901126105395760206106f560043561524b565b50346105395780600319360112610539576020601154604051908152f35b503461053957602036600319011261053957611cb26142e6565b600080516020615b4c83398151915282526001602090815260408084203360009081529252902054611ce69060ff166147cd565b6001600160a01b0316611cf8816158e9565b611d00575080f35b7fcdd2e9b91a56913d370075169cefa1602ba36be5301664f752192bb1709df7578280a280f35b503461053957806003193601126105395760206106f5615210565b50346105395780600319360112610539578080526001602090815260408083203360009081529252902054611d799060ff1661484c565b611d816156e9565b600a546040516370a0823160e01b8152306004820152906001600160a01b0316602082602481845afa908115610e07578391611dc4575b610ad0925033906154c0565b90506020823d602011611df2575b81611ddf602093836143d5565b81010312610b4557610ad0915190611db8565b3d9150611dd2565b50346105395780600319360112610539578080526001602090815260408083203360009081529252902054611e319060ff1661484c565b611e3961551e565b600160ff198254161781557f62e78cea01bee320cd4e420270b5ea74000d11b0c9f74754ebdbfc544b05a2586020604051338152a180f35b50346105395760203660031901126105395760043590601d548210156105395760e0611e9c836144d0565b50805490600181015490600360028201549101549160ff6040519460018060a01b038116865265ffffffffffff8160a01c166020870152818160d01c161515604087015260d81c1615156060850152608084015260a083015260c0820152f35b503461053957806003193601126105395760206106f56151f4565b503461053957602036600319011261053957600435611f39600f544210614a8f565b8180526001602090815260408084203360009081529252902054611f5f9060ff1661484c565b80421015611fa65760207ff18a09eaf82fdb00baab509d15db4abfd6aba1bf424d6bbc88295fa0f8a400d791611f986010548210614bc5565b80600f55604051908152a180f35b60405162461bcd60e51b815260206004820152601c60248201527f73746172742064617465206e6f7420696e2074686520667574757265000000006044820152606490fd5b50346105395780600319360112610539576020601754604051908152f35b5034610539578060031936011261053957602060405164e8d4a510008152f35b503461053957602061203d610768366144a0565b6040516001600160a01b039091168152f35b50346105395780600319360112610539576009546040516001600160a01b039091168152602090f35b5034610539578060031936011261053957600a546040516001600160a01b039091168152602090f35b503461053957806003193601126105395780805260016020908152604080832033600090815292529020546120d89060ff1661484c565b6120e06156e9565b600b546040516370a0823160e01b8152306004820152906001600160a01b0316602082602481845afa908115610e07578391611dc457610ad0925033906154c0565b50346105395780600319360112610539576020601254604051908152f35b50346105395760206105ac6121543661445a565b9161510d565b5034610539578060031936011261053957602060125460115411604051908152f35b50346105395780600319360112610539576020600d54604051908152f35b5034610539576020366003190112610539576121b46142e6565b81805260016020908152604080842033600090815292529020546121da9060ff1661484c565b6001600160a01b03168061222b575b6020817ff62d9d6092e49a0a9a72b4e4f020f4173b0f35e505c41e59b60aeed838602965926001600160601b0360a01b6009541617600955604051908152a180f35b6040516301ffc9a760e01b8152638b1e31c760e01b6004820152602081602481855afa908115610e075783916122a6575b506121e95760405162461bcd60e51b815260206004820152601e60248201527f646f6573206e6f7420737570706f7274207374616b655472616e7366657200006044820152606490fd5b6122c8915060203d6020116122ce575b6122c081836143d5565b8101906150f5565b3861225c565b503d6122b6565b503461053957602036600319011261053957600435801515809103610c2757600080516020615b4c833981519152825260016020908152604080842033600090815290835220547fe905f7f52156c346547b9deb6fb3e2459db941ec55d073fd465129bf4b49fae6929061234b9060ff166147cd565b6002805460ff60a01b191660a083901b60ff60a01b16179055604051908152a180f35b503461053957806003193601126105395760045461238b8161568d565b9161239960405193846143d5565b818352601f196123a88361568d565b013660208501375b8181106123c557604051806105e785826142fc565b806123d3600192600461438b565b838060a01b0391549060031b1c166123eb82866150e1565b52016123b0565b5034610539578060031936011261053957600a546040516370a0823160e01b81523060048201529190602090839060249082906001600160a01b03165afa90811561247b5790612448575b602090604051908152f35b506020813d602011612473575b81612462602093836143d5565b81010312610b45576020905161243d565b3d9150612455565b604051903d90823e3d90fd5b50346105395780600319360112610539576020600e54604051908152f35b5060603660031901126105395760043560443567ffffffffffffffff811161140a576124d5903690600401614413565b6124dd6154fc565b6124e561551e565b6124ed61507d565b156113cf57811561138a577f00000000000000000000000000000000000000000000000000000000000000009081159081806125ea575b80156125dc575b156113105761253d9060243533615382565b9081156112db57600b546001600160a01b03166125cd57349161255f8561524b565b3410611291575b61257560135460125490614bb8565b851161124c57338652601f60205261258f60408720615094565b8587825189935b8185106125a9575050610f3c925061490a565b9160019193506125c1908261123761123188876150e1565b93019290918892612596565b6125d68461524b565b91612566565b506125e5614917565b61252b565b507f0000000000000000000000000000000000000000000000000000000000000000612524565b503461053957806003193601126105395760ff60209154166040519015158152f35b50346105395760403660031901126105395761264d6142e6565b6001600160a01b03168152601f6020526040812080546024359290831015610539576020611ad2848461438b565b50346105395780600319360112610539576020601554604051908152f35b5034610539576020366003190112610539576126b36142e6565b600080516020615b4c833981519152825260016020908152604080842033600090815292529020546126e79060ff166147cd565b6001600160a01b03166126f98161581f565b612701575080f35b7f2b6bf71b58b3583add364b3d9060ebf8019650f65f5be35f5464b9cb3e4ba2d48280a280f35b50346105395780600319360112610539576020601654604051908152f35b503461053957806003193601126105395760206105ac61507d565b50346105395780600319360112610539576020600f54421015604051908152f35b50346105395760203660031901126105395761279c6142e6565b600080516020615b4c833981519152825260016020908152604080842033600090815292529020546127d09060ff166147cd565b6001600160a01b03166127e28161575c565b6127ea575080f35b7ff9b68063b051b82957fa193585681240904fed808db8b30fc5a2d2202c6ed6278280a280f35b50346105395780600319360112610539576020601054421015604051908152f35b503461053957806003193601126105395780805260016020908152604080832033600090815292529020546128699060ff1661484c565b6128716156e9565b60ff1981541681557f5db9ee0a495bf2e6ff9c91a7834c1ba4fdd244a5e8aa4e537bd38aeae4b073aa6020604051338152a180f35b50346105395780600319360112610539576006546128c38161568d565b916128d160405193846143d5565b818352601f196128e08361568d565b013660208501375b8181106128fd57604051806105e785826142fc565b8061290b600192600661438b565b838060a01b0391549060031b1c1661292382866150e1565b52016128e8565b503461053957602036600319011261053957612947600435614c4c565b906105e7604051928392835260406020840152604083019061425e565b50346105395760203660031901126105395760206105ac6001600160a01b0361298b6142e6565b166000526005602052604060002054151590565b5034610539576020366003190112610539576004356129f281600f546129c6814210614a8f565b84805260016020908152604080872033600090815292529020546129ec9060ff1661484c565b10614bc5565b6129fa6151f4565b8111612a32576020817fa8a30fc464c735231b45b2154d25ba95fbc6860f3b226667372cfc3977f2124b92601055604051908152a180f35b60405162461bcd60e51b815260206004820152601f60248201527f656e6420646174652061667465722076657374696e67537461727454696d65006044820152606490fd5b503461053957602036600319011261053957600435601d54811015612b0857612aaa612aa460e0926144d0565b50614523565b60808101519060018060a01b038151169060a081015165ffffffffffff602083015116604083015115159160c06060850151151594015194604051968752602087015260408601526060850152608084015260a083015260c0820152f35b60405162461bcd60e51b815260206004820152601a60248201527f70757263686173655f696420646f6573206e6f742065786973740000000000006044820152606490fd5b503461053957604036600319011261053957612b676142d0565b336001600160a01b03821603612b83576109eb90600435615607565b63334bd91960e11b8252600482fd5b50346105395780600319360112610539576020601854604051908152f35b503461053957806003193601126105395760195490601b5490601c54908115600014612bf0575050602091612bea6106f592600190614235565b9061490a565b60018201809211612c0d575091612bea6106f59260209490614235565b634e487b7160e01b81526011600452602490fd5b50346105395760403660031901126105395760043560243580159081150361140a57612c4b6154fc565b612c54826144d0565b50546001600160a01b031633036116575781612c72612c7c93614c4c565b8194911515614b88565b6001612c87826144d0565b5001546003612c95836144d0565b5001549080612ca4868461490a565b11611612576115a28583612cbe936115988360039761490a565b50015515612cde57600a546115be919033906001600160a01b03166154c0565b6009546001600160a01b0316908115612ed057600a54604051636eb1769f60e11b8152306004820152602481018490528493916001600160a01b031690602081604481855afa8015612ec55784908690612e8b575b612d3d925061490a565b60405163095ea7b360e01b602082019081526001600160a01b0385166024830152604480830193909352918152919085908190612d7b6064866143d5565b84519082855af1612d8a614898565b81612e5c575b5080612e52575b15612e0d575b50506009546001600160a01b0316919050813b15612e09578291604483926040519586938492638b1e31c760e01b845260048401523360248401525af18015612dfc57612dec575b50506115be565b612df5916143d5565b3881612de5565b50604051903d90823e3d90fd5b5050fd5b612e45612e4a936040519063095ea7b360e01b6020830152602482015286604482015260448152612e3f6064826143d5565b826157b1565b6157b1565b388080612d9d565b50803b1515612d97565b8051801592508215612e71575b505038612d90565b612e8492506020809183010191016150f5565b3880612e69565b50506020813d602011612ebd575b81612ea6602093836143d5565b81010312612eb95783612d3d9151612d33565b8480fd5b3d9150612e99565b6040513d87823e3d90fd5b60405162461bcd60e51b815260206004820152601760248201527f4e6f2049444f207374616b696e6720636f6e74726163740000000000000000006044820152606490fd5b5034610539576040366003190112610539576109eb600435612f356142d0565b90612f516109e182600052600160205260016040600020015490565b615578565b50346105395780600319360112610539576020600f544210604051908152f35b50346105395780600319360112610539576020601454604051908152f35b503461053957602036600319011261053957600435612fb16154fc565b612fba816144d0565b50546001600160a01b031633036130cf5780612fd8612fe3926145e4565b829491921515614b88565b61305261304a846002612ff5866144d0565b50805461ffff60d01b1916600160d81b1781556040518781527f16281741b836193cd92031d3d181c3241b9a87ba1eea1ef17fdd0cf8039fec2890602090a161304086600c5461490a565b600c550154614bb8565b600d5461490a565b600d55600b546001600160a01b03166130b1576130788480808087335af1611a2f614898565b60405192835260208301527f275893a421a5df15c4da79585c78852a6bbf95b9064470c3d6a5636240274b8760403393a3600160085580f35b600b546130ca90849033906001600160a01b03166154c0565b613078565b60405162461bcd60e51b815260206004820152601a60248201527f4e6f74206275796572206f6620746869732070757263686173650000000000006044820152606490fd5b5034610539576020366003190112610539576020601d5460043510604051908152f35b50346105395780600319360112610539576020601954604051908152f35b50346105395760203660031901126105395760206106f5600435600052600160205260016040600020015490565b50346105395780600319360112610539578080526001602090815260408083203384529091528120546131b89060ff1661484c565b6131c061551e565b6131ce601054421015614b3c565b601254601154116132bf57600b546001600160a01b031661320f57610ad08180808047729a118309431f92cdadf9ca4bdd5d8f61db7fe75af1611a2f614898565b600b546040516370a0823160e01b8152306004820152906001600160a01b0316602082602481845afa908115610e07578391613289575b610ad092506040519163a9059cbb60e01b6020840152729a118309431f92cdadf9ca4bdd5d8f61db7fe76024840152604483015260448252612e456064836143d5565b90506020823d6020116132b7575b816132a4602093836143d5565b8101031261140a57610ad0915190613246565b3d9150613297565b60405162461bcd60e51b81526020600482015260196024820152781b5a5b9a5b5d5b481c985a5cd9481b9bdd081c995858da1959603a1b6044820152606490fd5b503461053957806003193601126105395760206040517f000000000000000000000000000000000000000000000000000000000000000015158152f35b503461053957806003193601126105395760206040517f000000000000000000000000000000000000000000000000000000000000000015158152f35b503461053957806003193601126105395760206040517f000000000000000000000000000000000000000000000000000000000000000015158152f35b5034610539576020366003190112610539576004356133d46154fc565b6133e2601054421015614b3c565b7f000000000000000000000000000000000000000000000000000000000000000061367457613410816144d0565b50546001600160a01b031633036136385760115480156135f35760125410156135ae5761343c816144d0565b509060018201541561356957815460ff8160d01c1661352c5760ff8160d81c166134e75761ffff60d01b1916600160d81b1782556040519081527f16281741b836193cd92031d3d181c3241b9a87ba1eea1ef17fdd0cf8039fec2890602090a1600b5482906001600160a01b03166134c45780808060026115be950154335af1611a2f614898565b50600b546002909101546134e29133906001600160a01b03166154c0565b6115be565b60405162461bcd60e51b815260206004820152601a60248201527f507572636861736520686173206265656e2072657665727465640000000000006044820152606490fd5b60405162461bcd60e51b81526020600482015260156024820152741c1d5c98da185cd9481a5cc8199a5b985b1a5e9959605a1b6044820152606490fd5b60405162461bcd60e51b815260206004820152601760248201527f707572636861736520616d6f756e74206973207a65726f0000000000000000006044820152606490fd5b60405162461bcd60e51b815260206004820152601e60248201527f6d696e696d756d20726169736520686173206265656e207265616368656400006044820152606490fd5b60405162461bcd60e51b815260206004820152601d60248201527f6e6f206d696e696d756d20726169736520686173206265656e207365740000006044820152606490fd5b60405162461bcd60e51b815260206004820152601460248201527330b2323932b9b99034b9903737ba10313abcb2b960611b6044820152606490fd5b60405162461bcd60e51b815260206004820152601e60248201527f73616c652068617320746f206265206e6f6e2041746f6d6963207377617000006044820152606490fd5b50346105395760c03660031901126105395760443560043560243560843560643560a43567ffffffffffffffff8111613dad576136fa90369060040161429f565b95909387805260016020526040882060018060a01b033316895260205261372760ff60408a20541661484c565b61372f6151f4565b80613d9c575b507f000000000000000000000000000000000000000000000000000000000000000015613d8a575b7f0000000000000000000000000000000000000000000000000000000000000000613d4557655af3107a40008611613d09578515801590613ccb5787613c8657601054808310613c41576307861f808101809111613c2d578211613bf4575b60178790558115613bb157506010548110613b6c576137db838361490a565b8111613b27575b806018556137f0838361490a565b601054809110613ae257848411613a9d578715908115613a865761381f61381960015b88614235565b8561490a565b6307861f808201809211613a725711613a2d578260195583601a5584601b55601c5489601c55806139cd575b5060018810156138c7575b50604051958652602086015260408501526060840152608083015260c060a08301528260c083015260018060fb1b0383116138c3578160e0917f507910142e585ee6be1b7c9f72cbf219e8cb55016324498741bfa51f1c30eace9460051b8091848401378101030190a180f35b8380fd5b84156139925761397e578435655af3107a4000811015613939576138ea81614adb565b6001905b8882106138fc575b50613856565b6139129061390b838b8a614819565b359061490a565b90655af3107a40008210156139345760019061392d83614adb565b01906138ee565b6138f6565b60405162461bcd60e51b815260206004820152601c60248201527f66697273742076657374696e6720706572696f64203e3d2031303025000000006044820152606490fd5b634e487b7160e01b88526032600452602488fd5b60405162461bcd60e51b8152602060048201526013602482015272076657374696e674475726174696f6e203d203606c1b6044820152606490fd5b601c8a527f0e4562a10381dec21b205ed72637e6b1b523bdd0e4d4d50af5cd23dd4500a211017f0e4562a10381dec21b205ed72637e6b1b523bdd0e4d4d50af5cd23dd4500a2115b818110613a22575061384b565b8a8155600101613a15565b60405162461bcd60e51b815260206004820152601960248201527f76657374696e6720656e642074696d6520746f6f206c617465000000000000006044820152606490fd5b634e487b7160e01b8b52601160045260248bfd5b60018901808a11613a725761381961381f91613813565b60405162461bcd60e51b815260206004820152601e60248201527f76657374696e67436c696666203e2076657374696e674475726174696f6e00006044820152606490fd5b60405162461bcd60e51b815260206004820152601760248201527f76657374696e67206265666f72652073616c6520656e640000000000000000006044820152606490fd5b60405162461bcd60e51b815260206004820152601860248201527f74676554696d65206166746572207665737420636c69666600000000000000006044820152606490fd5b60405162461bcd60e51b815260206004820152601b60248201527f74676554696d65206265666f72652073616c6520656e644461746500000000006044820152606490fd5b156137e25760405162461bcd60e51b81526020600482015260166024820152750746765416c6c6f636174696f6e206973206e6f7420360541b6044820152606490fd5b60405162461bcd60e51b81526020600482015260116024820152707467652074696d6520746f6f206c61746560781b6044820152606490fd5b634e487b7160e01b8a52601160045260248afd5b60405162461bcd60e51b815260206004820152601760248201527f74676554696d65206265666f72652073616c6520656e640000000000000000006044820152606490fd5b60405162461bcd60e51b815260206004820152601f60248201527f4e6f20544745207665737420666f7220706572696f646963616c2076657374006044820152606490fd5b81156137bc5760405162461bcd60e51b815260206004820152601060248201526f074676554696d65206973206e6f7420360841b6044820152606490fd5b60405162461bcd60e51b8152602060048201526014602482015273746765416c6c6f636174696f6e203e203130302560601b6044820152606490fd5b60405162461bcd60e51b815260206004820152601a60248201527f6e6f2076657374696e6720666f722061746f6d696320737761700000000000006044820152606490fd5b613d97600f544210614a8f565b61375d565b613da7904210614a43565b38613735565b8680fd5b503461053957806003193601126105395760206105ac614917565b503461053957806003193601126105395760206011541515604051908152f35b50346105395780600319360112610539576020601b54604051908152f35b50346105395780600319360112610539576020601354604051908152f35b50346105395780600319360112610539576020600f54604051908152f35b5034610539578060031936011261053957808052600160209081526040808320338452909152812054613e7b9060ff1661484c565b601554421115613fb257600c54801580158091613fa7575b15613f6a57613f1f575b50600d5480613eaa575080f35b600d829055600b546001600160a01b0316613f0157613ed28280808085335af1611a2f614898565b6040519081527f6cd92f4bfc3a3d7f3404beaccae716da12e7b98c4d996556639fe71e8c8c35a160203392a280f35b600b54613f1a90829033906001600160a01b03166154c0565b613ed2565b81600c55613f38813360018060a01b03600a54166154c0565b6040519081527f75301a448908a9c46c60a7f4370ad6eb88c7c9aec9ddae491ba3d71299b97ad860203392a238613e9d565b60405162461bcd60e51b81526020600482015260156024820152744e6f20746f6b656e7320746f20776974686472617760581b6044820152606490fd5b50600d541515613e93565b60405162461bcd60e51b815260206004820152601760248201527f526566756e6420706572696f64206e6f7420656e6465640000000000000000006044820152606490fd5b503461053957806003193601126105395760206140126151f4565b4210604051908152f35b50346105395760203660031901126105395760043567ffffffffffffffff8111610c275761404e90369060040161429f565b9190600080516020615b4c833981519152825260016020526040822060018060a01b033316835260205261408860ff6040842054166147cd565b8190825b8481106140cc5750508061409e575080f35b60207f448f3bd350ede14a294c062177c5280fe1eae125d16757da21f5f51d6e89daae91604051908152a180f35b6140eb6001600160a01b036140e56117d3848987614819565b16615707565b6140f8575b60010161408c565b9161410460019161483d565b9290506140f0565b5034610539578060031936011261053957602060ff60025460a01c166040519015158152f35b5034610539576020366003190112610539576105e76141526004356145e4565b6040939193519384938452602084015260606040840152606083019061425e565b503461053957806003193601126105395750600b546040516001600160a01b03909116158152602090f35b503461053957806003193601126105395760206040516307861f808152f35b5034610539578060031936011261053957506020652d79883d2000604051908152f35b905034610c27576020366003190112610c275760043563ffffffff60e01b811680910361140a5760209250637965db0b60e01b8114908115614224575b5015158152f35b6301ffc9a760e01b1490503861421d565b8181029291811591840414171561424857565b634e487b7160e01b600052601160045260246000fd5b919082519283825260005b84811061428a575050826000602080949584010152601f8019910116010190565b80602080928401015182828601015201614269565b9181601f84011215610b455782359167ffffffffffffffff8311610b45576020808501948460051b010111610b4557565b602435906001600160a01b0382168203610b4557565b600435906001600160a01b0382168203610b4557565b602060408183019282815284518094520192019060005b8181106143205750505090565b82516001600160a01b0316845260209384019390920191600101614313565b601e5481101561435a57601e60005260206000200190600090565b634e487b7160e01b600052603260045260246000fd5b601c5481101561435a57601c60005260206000200190600090565b805482101561435a5760005260206000200190600090565b60e0810190811067ffffffffffffffff8211176143bf57604052565b634e487b7160e01b600052604160045260246000fd5b90601f8019910116810190811067ffffffffffffffff8211176143bf57604052565b67ffffffffffffffff81116143bf57601f01601f191660200190565b81601f82011215610b455780359061442a826143f7565b9261443860405194856143d5565b82845260208383010111610b4557816000926020809301838601378301015290565b6060600319820112610b45576004356001600160a01b0381168103610b455791602435916044359067ffffffffffffffff8211610b455761449d91600401614413565b90565b906040600319830112610b4557600435916024359067ffffffffffffffff8211610b455761449d91600401614413565b601d5481101561435a57601d60005260206000209060021b0190600090565b906020808351928381520192019060005b81811061450d5750505090565b8251845260209384019390920191600101614500565b90604051614530816143a3565b60c06003829460ff815460018060a01b038116865265ffffffffffff8160a01c166020870152818160d01c161515604087015260d81c161515606085015260018101546080850152600281015460a08501520154910152565b604051906145986040836143d5565b601a82527f507572636861736520686173206265656e2072657665727465640000000000006020830152565b81156145ce570490565b634e487b7160e01b600052601260045260246000fd5b7f000000000000000000000000000000000000000000000000000000000000000061478b57614611615463565b1561475257601d5481101561471057612aa461462c916144d0565b9060408201516146cd5760608201516146bf5760c082015161467c576080655af3107a400061466260a085015160165490614235565b04920151906040516146756020826143d5565b6000815290565b90506000906000906040516146926040826143d5565b601b81527f4e6f20726566756e6420696620746f6b656e7320636c61696d65640000000000602082015290565b60009150819061449d614589565b90506000906000906040516146e36040826143d5565b601a81527f507572636861736520616c72656164792066696e616c697a6564000000000000602082015290565b506000906000906040516147256040826143d5565b601781527f507572636861736520646f6573206e6f74206578697374000000000000000000602082015290565b506000906000906040516147676040826143d5565b6014815273139bdd081a5b881c99599d5b99081c195c9a5bd960621b602082015290565b506000906000906040516147a06040826143d5565b601981527f4e6f20726566756e6420666f722041746f6d6963207377617000000000000000602082015290565b156147d457565b60405162461bcd60e51b815260206004820152601c60248201527f63616c6c6572206973206e6f742057686974656c6973744f776e6572000000006044820152606490fd5b919081101561435a5760051b0190565b356001600160a01b0381168103610b455790565b60001981146142485760010190565b1561485357565b60405162461bcd60e51b815260206004820152601960248201527f63616c6c657220686173206e6f742061646d696e20726f6c65000000000000006044820152606490fd5b3d156148c3573d906148a9826143f7565b916148b760405193846143d5565b82523d6000602084013e565b606090565b156148cf57565b60405162461bcd60e51b8152602060048201526013602482015272115512081d1c985b9cd9995c8819985a5b1959606a1b6044820152606490fd5b9190820180921161424857565b7f0000000000000000000000000000000000000000000000000000000000000000156149cd57600a546040516370a0823160e01b815230600482015290602090829060249082906001600160a01b03165afa80156149c15760009061498d575b61498591506012549061490a565b601354111590565b506020813d6020116149b9575b816149a7602093836143d5565b81010312610b45576149859051614977565b3d915061499a565b6040513d6000823e3d90fd5b600a546040516370a0823160e01b815230600482015290602090829060249082906001600160a01b03165afa9081156149c157600091614a11575b50601354111590565b90506020813d602011614a3b575b81614a2c602093836143d5565b81010312610b45575138614a08565b3d9150614a1f565b15614a4a57565b60405162461bcd60e51b815260206004820152601760248201527f76657374696e6720616c726561647920737461727465640000000000000000006044820152606490fd5b15614a9657565b60405162461bcd60e51b815260206004820152601a60248201527f746f6b656e2073616c6520616c726561647920737461727465640000000000006044820152606490fd5b601c54600160401b8110156143bf57614aff816001614b169301601c55601c61438b565b819391549060031b91821b91600019901b19161790565b9055565b805490600160401b8210156143bf5781614aff916001614b169401815561438b565b15614b4357565b60405162461bcd60e51b815260206004820152601860248201527f73616c652068617320746f2062652066696e616c697a656400000000000000006044820152606490fd5b15614b905750565b60405162461bcd60e51b815260206004820152908190614bb490602483019061425e565b0390fd5b9190820391821161424857565b15614bcc57565b60405162461bcd60e51b815260206004820152601a60248201527f656e642064617465206265666f726520737461727420646174650000000000006044820152606490fd5b60405190614c206040836143d5565b601a82527f70757263686173655f696420646f6573206e6f742065786973740000000000006020830152565b601d54811015615071577f0000000000000000000000000000000000000000000000000000000000000000615032576010544210614ff35760ff60005416614fb45760125460115411614f795760ff614ca4826144d0565b505460d81c16614f6d576003614cc76001614cbe846144d0565b500154926144d0565b50015481811015614f2d576000601c548015600014614e895750601954601b5442614cf2828461490a565b11614e0a57505050815b828211614db9578211614d7957614d1291614bb8565b9060008215614d495750604051614d2a6040826143d5565b600f81526e726561647920746f2072656465656d60881b602082015290565b50604051614d586040826143d5565b60118152706e6f7468696e6720746f2072656465656d60781b602082015290565b5050600090604051614d8c6040826143d5565b601f81527f49452076657374416d6f756e74203e2070757263686173655f616d6f756e7400602082015290565b505050600090604051614dcd6060826143d5565b602781527f49452070757263686173655f616d6f756e7452656465656d6564203e207665736020820152661d105b5bdd5b9d60ca1b604082015290565b601894929454421015614e1f575b5050614cfc565b909350655af3107a4000614e3560175484614235565b0490819442614e46601a548361490a565b1115614e53575b50614e18565b83955090614e7b612bea92614e75614e6e86614e8098614bb8565b9142614bb8565b90614235565b6145c4565b91388080614e4d565b9050601954614e9a601a548261490a565b4210614eeb57614ead614eb69142614bb8565b601b54906145c4565b908110614ec4575081614cfc565b614ee4614ed7655af3107a400092614370565b90549060031b1c84614235565b0491614cfc565b50505050600090604051614f006040826143d5565b601d81527f76657374696e6720636c696666206e6f74207965742072656163686564000000602082015290565b5050600090604051614f406040826143d5565b601a81527f616c6c20746f6b656e20616c72656164792072656465656d6564000000000000602082015290565b5060009061449d614589565b50600090604051614f8b6040826143d5565b60198152781b5a5b9a5b5d5b481c985a5cd9481b9bdd081c995858da1959603a1b602082015290565b50600090604051614fc66040826143d5565b601d81527f746f6b656e2073616c6520636f6e747261637420697320706175736564000000602082015290565b506000906040516150056040826143d5565b601881527f746f6b656e2073616c65206e6f742066696e616c697a65640000000000000000602082015290565b506000906040516150446040826143d5565b601981527f68617320746f206265206e6f6e2041746f6d6963207377617000000000000000602082015290565b5060009061449d614c11565b600f544210158061508b5790565b50601054421090565b906040519182815491828252602082019060005260206000209260005b8181106150c85750506150c6925003836143d5565b565b84548352600194850194879450602090930192016150b1565b805182101561435a5760209160051b010190565b90816020910312610b4557518015158103610b455790565b61515092916040519060208201926001600160601b03199060601b16835260348201523060601b6054820152604881526151486068826143d5565b519020615164565b6002546001600160a01b0391821691161490565b60418251036151af5761449d916151a6917f19457468657265756d205369676e6564204d6573736167653a0a333200000000600052601c52603c60002061599d565b909291926159d9565b60405162461bcd60e51b815260206004820152601960248201527f7369676e6174757265206973206e6f74203635206279746573000000000000006044820152606490fd5b60185480156152005790565b5061449d601954601a549061490a565b60195480421061524557601b54801561523e57614e7b6152309242614bb8565b600181018091116142485790565b5050600190565b50600090565b600e5461525791614235565b600a5460405163313ce56760e01b815290602090829060049082906001600160a01b03165afa9081156149c1576000916152a6575b5060ff1690604d82116142485761449d91600a0a906145c4565b6020813d6020116152db575b816152bf602093836143d5565b81010312610c2757519060ff82168203610539575060ff61528c565b3d91506152b2565b6001600160a01b03811660008181526007602052604090205491929161537a576002549060ff8260a01c161590811561535c575b50615353576001600160a01b03161515918261533f575b505061533957600090565b60035490565b61534c925060009061510d565b388061532e565b50505060035490565b61537491506000526005602052604060002054151590565b38615317565b505050600090565b6001600160a01b03811660008181526007602052604090205492939192615423576002549060ff8260a01c1615908115615405575b506153fb576001600160a01b03161515918390836153e9575b5050506153dd5750600090565b8061449d575060035490565b6153f3935061510d565b3882816153d0565b5050505060035490565b61541d91506000526005602052604060002054151590565b386153b7565b50505050600090565b6001600160a01b03166000908152601f6020526040902061449d90615094565b601c54801561524557600181018091116142485790565b601454421015806154715790565b5060155442111590565b601d548110615496575060009060009060009061449d614c11565b60016154a1826144d0565b500154916154bc60036154b3846144d0565b50015492614c4c565b9091565b60405163a9059cbb60e01b60208201526001600160a01b039290921660248301526044808301939093529181526150c691612e456064836143d5565b60026008541461550d576002600855565b633ee5aeb560e01b60005260046000fd5b60ff6000541661552a57565b63d93c066560e01b60005260046000fd5b600081815260016020908152604080832033845290915290205460ff16156155605750565b63e2517d3f60e01b6000523360045260245260446000fd5b60008181526001602090815260408083206001600160a01b038616845290915290205460ff166156005760008181526001602081815260408084206001600160a01b0396909616808552959091528220805460ff19169091179055339291907f2f8788117e7eff1d82e926ec794901d17c78024a50270940304540a733656f0d9080a4600190565b5050600090565b60008181526001602090815260408083206001600160a01b038616845290915290205460ff16156156005760008181526001602090815260408083206001600160a01b0395909516808452949091528120805460ff19169055339291907ff6391f5c32d9c69d2a47ea670b442974b53935d1edc7fd64eb21e047a839171b9080a4600190565b67ffffffffffffffff81116143bf5760051b60200190565b6040516323b872dd60e01b60208201526001600160a01b0392831660248201529290911660448301526064808301939093529181526150c691612e456084836143d5565b60ff60005416156156f657565b638dfc202b60e01b60005260046000fd5b8060005260056020526040600020541560001461524557600454600160401b8110156143bf57615743614aff826001859401600455600461438b565b9055600454906000526005602052604060002055600190565b8060005260076020526040600020541560001461524557600654600160401b8110156143bf57615798614aff826001859401600655600661438b565b9055600654906000526007602052604060002055600190565b6000806157da9260018060a01b03169360208151910182865af16157d3614898565b9083615aea565b8051908115159182615804575b50506157f05750565b635274afe760e01b60005260045260246000fd5b61581792506020809183010191016150f5565b1538806157e7565b600081815260076020526040902054801561560057600019810181811161424857600654600019810191908211614248578181036158af575b5050506006548015615899576000190161587381600661438b565b8154906000199060031b1b19169055600655600052600760205260006040812055600190565b634e487b7160e01b600052603160045260246000fd5b6158d16158c0614aff93600661438b565b90549060031b1c928392600661438b565b90556000526007602052604060002055388080615858565b60008181526005602052604090205480156156005760001981018181116142485760045460001981019190821161424857818103615963575b5050506004548015615899576000190161593d81600461438b565b8154906000199060031b1b19169055600455600052600560205260006040812055600190565b615985615974614aff93600461438b565b90549060031b1c928392600461438b565b90556000526005602052604060002055388080615922565b81519190604183036159ce576159c792506020820151906060604084015193015160001a90615a61565b9192909190565b505060009160029190565b9190916004811015615a4b57806159ef57509050565b600060018203615a0a5763f645eedf60e01b60005260046000fd5b5060028103615a28578263fce698f760e01b60005260045260246000fd5b9091600360009214615a38575050565b6335e2f38360e21b825260045260249150fd5b634e487b7160e01b600052602160045260246000fd5b91907f7fffffffffffffffffffffffffffffff5d576e7357a4501ddfe92f46681b20a08411615ade579160209360809260ff60009560405194855216868401526040830152606082015282805260015afa156149c1576000516001600160a01b03811615615ad25790600090600090565b50600090600190600090565b50505060009160039190565b90615b105750805115615aff57805190602001fd5b630a12f52160e11b60005260046000fd5b81511580615b42575b615b21575090565b639996b31560e01b60009081526001600160a01b0391909116600452602490fd5b50803b15615b1956feb813b807c25079ba97f1770664c6a9e57c59afe74a6295f1ed01c10e3bb6baaea164736f6c634300081b000a2f8788117e7eff1d82e926ec794901d17c78024a50270940304540a733656f0da6eef7e35abe7026729641147f7915573c7e97b47efa546f5f6e3230263bcb49358823ad0653452618750bed6506f24f63ef58f0cce438e3a379e32873da19d2",
  "linkReferences": {},
  "deployedLinkReferences": {}
}