{
  "_format": "hh-sol-artifact-1",
  "contractName": "FixedSwap",
  "sourceName": "contracts/FixedSwap.sol",
  "abi": [
    {
      "inputs": [
        {
          "internalType": "address",
          "name": "_tokenAddress",
          "type": "address"
        },
        {
          "internalType": "uint256",
          "name": "_tradeValue",
          "type": "uint256"
        },
        {
          "internalType": "uint256",
          "name": "_tokensForSale",
          "type": "uint256"
        },
        {
          "internalType": "uint256",
          "name": "_startDate",
          "type": "uint256"
        },
        {
          "internalType": "uint256",
          "name": "_endDate",
          "type": "uint256"
        },
        {
          "internalType": "uint256",
          "name": "_individualMinimumAmount",
          "type": "uint256"
        },
        {
          "internalType": "uint256",
          "name": "_individualMaximumAmount",
          "type": "uint256"
        },
        {
          "internalType": "bool",
          "name": "_ignored",
          "type": "bool"
        },
        {
          "internalType": "uint256",
          "name": "_minimumRaise",
          "type": "uint256"
        },
        {
          "internalType": "uint256",
          "name": "_feePercentage",
          "type": "uint256"
        },
        {
          "internalType": "uint32",
          "name": "_flags",
          "type": "uint32"
        },
        {
          "internalType": "address",
          "name": "_erc20TradeAddress",
          "type": "address"
        },
        {
          "internalType": "uint256",
          "name": "_vestingStart",
          "type": "uint256"
        },
        {
          "internalType": "uint256",
          "name": "_vestingCliff",
          "type": "uint256"
        },
        {
          "internalType": "uint256",
          "name": "_vestingDuration",
          "type": "uint256"
        },
        {
          "internalType": "uint256[]",
          "name": "_vestingSchedule",
          "type": "uint256[]"
        }
      ],
      "stateMutability": "nonpayable",
      "type": "constructor"
    },
    {
      "anonymous": false,
      "inputs": [
        {
          "indexed": false,
          "internalType": "uint256",
          "name": "count",
          "type": "uint256"
        }
      ],
      "name": "AddedArrayToBlacklist",
      "type": "event"
    },
    {
      "anonymous": false,
      "inputs": [
        {
          "indexed": false,
          "internalType": "uint256",
          "name": "count",
          "type": "uint256"
        }
      ],
      "name": "AddedArrayToWhitelist",
      "type": "event"
    },
    {
      "anonymous": false,
      "inputs": [
        {
          "indexed": true,
          "internalType": "address",
          "name": "account",
          "type": "address"
        }
      ],
      "name": "AddedToBlacklist",
      "type": "event"
    },
    {
      "anonymous": false,
      "inputs": [
        {
          "indexed": true,
          "internalType": "address",
          "name": "account",
          "type": "address"
        }
      ],
      "name": "AddedToWhitelist",
      "type": "event"
    },
    {
      "anonymous": false,
      "inputs": [
        {
          "indexed": false,
          "internalType": "address",
          "name": "account",
          "type": "address"
        }
      ],
      "name": "Paused",
      "type": "event"
    },
    {
      "anonymous": false,
      "inputs": [
        {
          "indexed": false,
          "internalType": "uint256",
          "name": "amount",
          "type": "uint256"
        },
        {
          "indexed": true,
          "internalType": "address",
          "name": "purchaser",
          "type": "address"
        },
        {
          "indexed": false,
          "internalType": "uint256",
          "name": "timestamp",
          "type": "uint256"
        }
      ],
      "name": "PurchaseEvent",
      "type": "event"
    },
    {
      "anonymous": false,
      "inputs": [
        {
          "indexed": true,
          "internalType": "address",
          "name": "account",
          "type": "address"
        }
      ],
      "name": "RemovedFromBlacklist",
      "type": "event"
    },
    {
      "anonymous": false,
      "inputs": [
        {
          "indexed": true,
          "internalType": "address",
          "name": "account",
          "type": "address"
        }
      ],
      "name": "RemovedFromWhitelist",
      "type": "event"
    },
    {
      "anonymous": false,
      "inputs": [
        {
          "indexed": true,
          "internalType": "bytes32",
          "name": "role",
          "type": "bytes32"
        },
        {
          "indexed": true,
          "internalType": "bytes32",
          "name": "previousAdminRole",
          "type": "bytes32"
        },
        {
          "indexed": true,
          "internalType": "bytes32",
          "name": "newAdminRole",
          "type": "bytes32"
        }
      ],
      "name": "RoleAdminChanged",
      "type": "event"
    },
    {
      "anonymous": false,
      "inputs": [
        {
          "indexed": true,
          "internalType": "bytes32",
          "name": "role",
          "type": "bytes32"
        },
        {
          "indexed": true,
          "internalType": "address",
          "name": "account",
          "type": "address"
        },
        {
          "indexed": true,
          "internalType": "address",
          "name": "sender",
          "type": "address"
        }
      ],
      "name": "RoleGranted",
      "type": "event"
    },
    {
      "anonymous": false,
      "inputs": [
        {
          "indexed": true,
          "internalType": "bytes32",
          "name": "role",
          "type": "bytes32"
        },
        {
          "indexed": true,
          "internalType": "address",
          "name": "account",
          "type": "address"
        },
        {
          "indexed": true,
          "internalType": "address",
          "name": "sender",
          "type": "address"
        }
      ],
      "name": "RoleRevoked",
      "type": "event"
    },
    {
      "anonymous": false,
      "inputs": [
        {
          "indexed": false,
          "internalType": "bool",
          "name": "hasWhitelisting",
          "type": "bool"
        }
      ],
      "name": "SetHasWhitelisting",
      "type": "event"
    },
    {
      "anonymous": false,
      "inputs": [
        {
          "indexed": false,
          "internalType": "address",
          "name": "account",
          "type": "address"
        }
      ],
      "name": "Unpaused",
      "type": "event"
    },
    {
      "inputs": [],
      "name": "DECIMALS_PERCENT_MUL",
      "outputs": [
        {
          "internalType": "uint256",
          "name": "",
          "type": "uint256"
        }
      ],
      "stateMutability": "view",
      "type": "function"
    },
    {
      "inputs": [],
      "name": "DEFAULT_ADMIN_ROLE",
      "outputs": [
        {
          "internalType": "bytes32",
          "name": "",
          "type": "bytes32"
        }
      ],
      "stateMutability": "view",
      "type": "function"
    },
    {
      "inputs": [],
      "name": "FEE_ADDRESS",
      "outputs": [
        {
          "internalType": "address",
          "name": "",
          "type": "address"
        }
      ],
      "stateMutability": "view",
      "type": "function"
    },
    {
      "inputs": [],
      "name": "POLS_TOKEN_ADDRESS",
      "outputs": [
        {
          "internalType": "address",
          "name": "",
          "type": "address"
        }
      ],
      "stateMutability": "view",
      "type": "function"
    },
    {
      "inputs": [],
      "name": "POLS_UNIV2_ADDRESS",
      "outputs": [
        {
          "internalType": "address",
          "name": "",
          "type": "address"
        }
      ],
      "stateMutability": "view",
      "type": "function"
    },
    {
      "inputs": [],
      "name": "PolsStakeAddress",
      "outputs": [
        {
          "internalType": "address",
          "name": "",
          "type": "address"
        }
      ],
      "stateMutability": "view",
      "type": "function"
    },
    {
      "inputs": [],
      "name": "PolsStakeAmount",
      "outputs": [
        {
          "internalType": "uint256",
          "name": "",
          "type": "uint256"
        }
      ],
      "stateMutability": "view",
      "type": "function"
    },
    {
      "inputs": [],
      "name": "PolsStakeRewards",
      "outputs": [
        {
          "internalType": "uint256",
          "name": "",
          "type": "uint256"
        }
      ],
      "stateMutability": "view",
      "type": "function"
    },
    {
      "inputs": [],
      "name": "PolsTokenAddress",
      "outputs": [
        {
          "internalType": "address",
          "name": "",
          "type": "address"
        }
      ],
      "stateMutability": "view",
      "type": "function"
    },
    {
      "inputs": [],
      "name": "PolsTokenAmount",
      "outputs": [
        {
          "internalType": "uint256",
          "name": "",
          "type": "uint256"
        }
      ],
      "stateMutability": "view",
      "type": "function"
    },
    {
      "inputs": [],
      "name": "PolsUniV2Address",
      "outputs": [
        {
          "internalType": "address",
          "name": "",
          "type": "address"
        }
      ],
      "stateMutability": "view",
      "type": "function"
    },
    {
      "inputs": [],
      "name": "PolsUniV2Amount",
      "outputs": [
        {
          "internalType": "uint256",
          "name": "",
          "type": "uint256"
        }
      ],
      "stateMutability": "view",
      "type": "function"
    },
    {
      "inputs": [],
      "name": "WHITELIST_OWNER_ROLE",
      "outputs": [
        {
          "internalType": "bytes32",
          "name": "",
          "type": "bytes32"
        }
      ],
      "stateMutability": "view",
      "type": "function"
    },
    {
      "inputs": [
        {
          "internalType": "address[]",
          "name": "_addresses",
          "type": "address[]"
        }
      ],
      "name": "addArrayToBlacklist",
      "outputs": [],
      "stateMutability": "nonpayable",
      "type": "function"
    },
    {
      "inputs": [
        {
          "internalType": "address[]",
          "name": "_addresses",
          "type": "address[]"
        }
      ],
      "name": "addArrayToWhitelist",
      "outputs": [],
      "stateMutability": "nonpayable",
      "type": "function"
    },
    {
      "inputs": [
        {
          "internalType": "address",
          "name": "_address",
          "type": "address"
        }
      ],
      "name": "addToBlacklist",
      "outputs": [],
      "stateMutability": "nonpayable",
      "type": "function"
    },
    {
      "inputs": [
        {
          "internalType": "address",
          "name": "_address",
          "type": "address"
        }
      ],
      "name": "addToWhitelist",
      "outputs": [],
      "stateMutability": "nonpayable",
      "type": "function"
    },
    {
      "inputs": [],
      "name": "availableTokens",
      "outputs": [
        {
          "internalType": "uint256",
          "name": "",
          "type": "uint256"
        }
      ],
      "stateMutability": "view",
      "type": "function"
    },
    {
      "inputs": [
        {
          "internalType": "uint256",
          "name": "",
          "type": "uint256"
        }
      ],
      "name": "buyers",
      "outputs": [
        {
          "internalType": "address",
          "name": "",
          "type": "address"
        }
      ],
      "stateMutability": "view",
      "type": "function"
    },
    {
      "inputs": [
        {
          "internalType": "uint256",
          "name": "_amount",
          "type": "uint256"
        }
      ],
      "name": "cost",
      "outputs": [
        {
          "internalType": "uint256",
          "name": "",
          "type": "uint256"
        }
      ],
      "stateMutability": "view",
      "type": "function"
    },
    {
      "inputs": [],
      "name": "endDate",
      "outputs": [
        {
          "internalType": "uint256",
          "name": "",
          "type": "uint256"
        }
      ],
      "stateMutability": "view",
      "type": "function"
    },
    {
      "inputs": [],
      "name": "erc20",
      "outputs": [
        {
          "internalType": "contract IERC20",
          "name": "",
          "type": "address"
        }
      ],
      "stateMutability": "view",
      "type": "function"
    },
    {
      "inputs": [],
      "name": "erc20TradeIn",
      "outputs": [
        {
          "internalType": "contract IERC20",
          "name": "",
          "type": "address"
        }
      ],
      "stateMutability": "view",
      "type": "function"
    },
    {
      "inputs": [],
      "name": "feePercentage",
      "outputs": [
        {
          "internalType": "uint256",
          "name": "",
          "type": "uint256"
        }
      ],
      "stateMutability": "view",
      "type": "function"
    },
    {
      "inputs": [
        {
          "internalType": "uint256",
          "name": "_amount",
          "type": "uint256"
        }
      ],
      "name": "fund",
      "outputs": [],
      "stateMutability": "nonpayable",
      "type": "function"
    },
    {
      "inputs": [],
      "name": "getAPIVersion",
      "outputs": [
        {
          "internalType": "uint32",
          "name": "API_VERSION",
          "type": "uint32"
        }
      ],
      "stateMutability": "pure",
      "type": "function"
    },
    {
      "inputs": [],
      "name": "getBlacklistedAddresses",
      "outputs": [
        {
          "internalType": "address[]",
          "name": "",
          "type": "address[]"
        }
      ],
      "stateMutability": "view",
      "type": "function"
    },
    {
      "inputs": [],
      "name": "getBuyers",
      "outputs": [
        {
          "internalType": "address[]",
          "name": "",
          "type": "address[]"
        }
      ],
      "stateMutability": "view",
      "type": "function"
    },
    {
      "inputs": [],
      "name": "getCurrentSchedule",
      "outputs": [
        {
          "internalType": "uint256",
          "name": "schedule",
          "type": "uint256"
        }
      ],
      "stateMutability": "view",
      "type": "function"
    },
    {
      "inputs": [
        {
          "internalType": "address",
          "name": "_address",
          "type": "address"
        }
      ],
      "name": "getMyPurchases",
      "outputs": [
        {
          "internalType": "uint256[]",
          "name": "",
          "type": "uint256[]"
        }
      ],
      "stateMutability": "view",
      "type": "function"
    },
    {
      "inputs": [],
      "name": "getMyPurchases_msgSender",
      "outputs": [
        {
          "internalType": "uint256[]",
          "name": "",
          "type": "uint256[]"
        }
      ],
      "stateMutability": "view",
      "type": "function"
    },
    {
      "inputs": [
        {
          "internalType": "uint256",
          "name": "purchase_id",
          "type": "uint256"
        }
      ],
      "name": "getPurchase",
      "outputs": [
        {
          "internalType": "uint256",
          "name": "amount",
          "type": "uint256"
        },
        {
          "internalType": "address",
          "name": "purchaser",
          "type": "address"
        },
        {
          "internalType": "uint256",
          "name": "costAmount",
          "type": "uint256"
        },
        {
          "internalType": "uint48",
          "name": "timestamp",
          "type": "uint48"
        },
        {
          "internalType": "bool",
          "name": "wasFinalized",
          "type": "bool"
        },
        {
          "internalType": "bool",
          "name": "reverted",
          "type": "bool"
        },
        {
          "internalType": "uint256",
          "name": "amountRedeemed",
          "type": "uint256"
        }
      ],
      "stateMutability": "view",
      "type": "function"
    },
    {
      "inputs": [],
      "name": "getPurchasesCount",
      "outputs": [
        {
          "internalType": "uint256",
          "name": "count",
          "type": "uint256"
        }
      ],
      "stateMutability": "view",
      "type": "function"
    },
    {
      "inputs": [
        {
          "internalType": "uint256",
          "name": "purchase_id",
          "type": "uint256"
        }
      ],
      "name": "getRedeemStatus",
      "outputs": [
        {
          "internalType": "uint256",
          "name": "amount",
          "type": "uint256"
        },
        {
          "internalType": "uint256",
          "name": "amountRedeemed",
          "type": "uint256"
        },
        {
          "internalType": "uint256",
          "name": "vestAmount",
          "type": "uint256"
        },
        {
          "internalType": "string",
          "name": "message",
          "type": "string"
        }
      ],
      "stateMutability": "view",
      "type": "function"
    },
    {
      "inputs": [
        {
          "internalType": "uint256",
          "name": "purchase_id",
          "type": "uint256"
        }
      ],
      "name": "getRedeemableTokensAmount",
      "outputs": [
        {
          "internalType": "uint256",
          "name": "amount",
          "type": "uint256"
        },
        {
          "internalType": "string",
          "name": "message",
          "type": "string"
        }
      ],
      "stateMutability": "view",
      "type": "function"
    },
    {
      "inputs": [
        {
          "internalType": "bytes32",
          "name": "role",
          "type": "bytes32"
        }
      ],
      "name": "getRoleAdmin",
      "outputs": [
        {
          "internalType": "bytes32",
          "name": "",
          "type": "bytes32"
        }
      ],
      "stateMutability": "view",
      "type": "function"
    },
    {
      "inputs": [
        {
          "internalType": "bytes32",
          "name": "role",
          "type": "bytes32"
        },
        {
          "internalType": "uint256",
          "name": "index",
          "type": "uint256"
        }
      ],
      "name": "getRoleMember",
      "outputs": [
        {
          "internalType": "address",
          "name": "",
          "type": "address"
        }
      ],
      "stateMutability": "view",
      "type": "function"
    },
    {
      "inputs": [
        {
          "internalType": "bytes32",
          "name": "role",
          "type": "bytes32"
        }
      ],
      "name": "getRoleMemberCount",
      "outputs": [
        {
          "internalType": "uint256",
          "name": "",
          "type": "uint256"
        }
      ],
      "stateMutability": "view",
      "type": "function"
    },
    {
      "inputs": [],
      "name": "getWhitelistedAddresses",
      "outputs": [
        {
          "internalType": "address[]",
          "name": "",
          "type": "address[]"
        }
      ],
      "stateMutability": "view",
      "type": "function"
    },
    {
      "inputs": [
        {
          "internalType": "bytes32",
          "name": "role",
          "type": "bytes32"
        },
        {
          "internalType": "address",
          "name": "account",
          "type": "address"
        }
      ],
      "name": "grantRole",
      "outputs": [],
      "stateMutability": "nonpayable",
      "type": "function"
    },
    {
      "inputs": [],
      "name": "hasFinalized",
      "outputs": [
        {
          "internalType": "bool",
          "name": "",
          "type": "bool"
        }
      ],
      "stateMutability": "view",
      "type": "function"
    },
    {
      "inputs": [],
      "name": "hasMinimumAmount",
      "outputs": [
        {
          "internalType": "bool",
          "name": "",
          "type": "bool"
        }
      ],
      "stateMutability": "view",
      "type": "function"
    },
    {
      "inputs": [],
      "name": "hasMinimumRaise",
      "outputs": [
        {
          "internalType": "bool",
          "name": "",
          "type": "bool"
        }
      ],
      "stateMutability": "view",
      "type": "function"
    },
    {
      "inputs": [
        {
          "internalType": "bytes32",
          "name": "role",
          "type": "bytes32"
        },
        {
          "internalType": "address",
          "name": "account",
          "type": "address"
        }
      ],
      "name": "hasRole",
      "outputs": [
        {
          "internalType": "bool",
          "name": "",
          "type": "bool"
        }
      ],
      "stateMutability": "view",
      "type": "function"
    },
    {
      "inputs": [],
      "name": "hasStarted",
      "outputs": [
        {
          "internalType": "bool",
          "name": "",
          "type": "bool"
        }
      ],
      "stateMutability": "view",
      "type": "function"
    },
    {
      "inputs": [],
      "name": "hasWhitelisting",
      "outputs": [
        {
          "internalType": "bool",
          "name": "",
          "type": "bool"
        }
      ],
      "stateMutability": "view",
      "type": "function"
    },
    {
      "inputs": [],
      "name": "individualMaximumAmount",
      "outputs": [
        {
          "internalType": "uint256",
          "name": "",
          "type": "uint256"
        }
      ],
      "stateMutability": "view",
      "type": "function"
    },
    {
      "inputs": [],
      "name": "individualMinimumAmount",
      "outputs": [
        {
          "internalType": "uint256",
          "name": "",
          "type": "uint256"
        }
      ],
      "stateMutability": "view",
      "type": "function"
    },
    {
      "inputs": [
        {
          "internalType": "address",
          "name": "_account",
          "type": "address"
        }
      ],
      "name": "isAddressPOLSWhitelisted",
      "outputs": [
        {
          "internalType": "bool",
          "name": "",
          "type": "bool"
        }
      ],
      "stateMutability": "view",
      "type": "function"
    },
    {
      "inputs": [
        {
          "internalType": "address",
          "name": "_address",
          "type": "address"
        }
      ],
      "name": "isBlacklisted",
      "outputs": [
        {
          "internalType": "bool",
          "name": "",
          "type": "bool"
        }
      ],
      "stateMutability": "view",
      "type": "function"
    },
    {
      "inputs": [
        {
          "internalType": "uint256",
          "name": "purchase_id",
          "type": "uint256"
        }
      ],
      "name": "isBuyer",
      "outputs": [
        {
          "internalType": "bool",
          "name": "",
          "type": "bool"
        }
      ],
      "stateMutability": "view",
      "type": "function"
    },
    {
      "inputs": [],
      "name": "isETHTrade",
      "outputs": [
        {
          "internalType": "bool",
          "name": "",
          "type": "bool"
        }
      ],
      "stateMutability": "view",
      "type": "function"
    },
    {
      "inputs": [],
      "name": "isOpen",
      "outputs": [
        {
          "internalType": "bool",
          "name": "",
          "type": "bool"
        }
      ],
      "stateMutability": "view",
      "type": "function"
    },
    {
      "inputs": [],
      "name": "isPOLSWhitelisted",
      "outputs": [
        {
          "internalType": "bool",
          "name": "",
          "type": "bool"
        }
      ],
      "stateMutability": "view",
      "type": "function"
    },
    {
      "inputs": [],
      "name": "isPreStart",
      "outputs": [
        {
          "internalType": "bool",
          "name": "",
          "type": "bool"
        }
      ],
      "stateMutability": "view",
      "type": "function"
    },
    {
      "inputs": [],
      "name": "isSaleFunded",
      "outputs": [
        {
          "internalType": "bool",
          "name": "",
          "type": "bool"
        }
      ],
      "stateMutability": "view",
      "type": "function"
    },
    {
      "inputs": [
        {
          "internalType": "address",
          "name": "_address",
          "type": "address"
        },
        {
          "internalType": "bytes",
          "name": "signature",
          "type": "bytes"
        }
      ],
      "name": "isSignerForAddress",
      "outputs": [
        {
          "internalType": "bool",
          "name": "",
          "type": "bool"
        }
      ],
      "stateMutability": "view",
      "type": "function"
    },
    {
      "inputs": [
        {
          "internalType": "bytes32",
          "name": "hash",
          "type": "bytes32"
        },
        {
          "internalType": "bytes",
          "name": "signature",
          "type": "bytes"
        }
      ],
      "name": "isSignerFromBytes32",
      "outputs": [
        {
          "internalType": "bool",
          "name": "",
          "type": "bool"
        }
      ],
      "stateMutability": "view",
      "type": "function"
    },
    {
      "inputs": [],
      "name": "isTokenSwapAtomic",
      "outputs": [
        {
          "internalType": "bool",
          "name": "",
          "type": "bool"
        }
      ],
      "stateMutability": "view",
      "type": "function"
    },
    {
      "inputs": [
        {
          "internalType": "address",
          "name": "_address",
          "type": "address"
        }
      ],
      "name": "isWhitelisted",
      "outputs": [
        {
          "internalType": "bool",
          "name": "",
          "type": "bool"
        }
      ],
      "stateMutability": "view",
      "type": "function"
    },
    {
      "inputs": [
        {
          "internalType": "address",
          "name": "_address",
          "type": "address"
        },
        {
          "internalType": "bytes",
          "name": "signature",
          "type": "bytes"
        }
      ],
      "name": "isWhitelistedWithSignature",
      "outputs": [
        {
          "internalType": "bool",
          "name": "",
          "type": "bool"
        }
      ],
      "stateMutability": "view",
      "type": "function"
    },
    {
      "inputs": [],
      "name": "minimumRaise",
      "outputs": [
        {
          "internalType": "uint256",
          "name": "",
          "type": "uint256"
        }
      ],
      "stateMutability": "view",
      "type": "function"
    },
    {
      "inputs": [],
      "name": "minimumRaiseAchieved",
      "outputs": [
        {
          "internalType": "bool",
          "name": "",
          "type": "bool"
        }
      ],
      "stateMutability": "view",
      "type": "function"
    },
    {
      "inputs": [],
      "name": "minimumRaiseNotAchieved",
      "outputs": [
        {
          "internalType": "bool",
          "name": "",
          "type": "bool"
        }
      ],
      "stateMutability": "view",
      "type": "function"
    },
    {
      "inputs": [
        {
          "internalType": "address",
          "name": "",
          "type": "address"
        },
        {
          "internalType": "uint256",
          "name": "",
          "type": "uint256"
        }
      ],
      "name": "myPurchases",
      "outputs": [
        {
          "internalType": "uint256",
          "name": "",
          "type": "uint256"
        }
      ],
      "stateMutability": "view",
      "type": "function"
    },
    {
      "inputs": [],
      "name": "pause",
      "outputs": [],
      "stateMutability": "nonpayable",
      "type": "function"
    },
    {
      "inputs": [],
      "name": "paused",
      "outputs": [
        {
          "internalType": "bool",
          "name": "",
          "type": "bool"
        }
      ],
      "stateMutability": "view",
      "type": "function"
    },
    {
      "inputs": [
        {
          "internalType": "uint256",
          "name": "purchase_id",
          "type": "uint256"
        }
      ],
      "name": "purchaseExists",
      "outputs": [
        {
          "internalType": "bool",
          "name": "",
          "type": "bool"
        }
      ],
      "stateMutability": "view",
      "type": "function"
    },
    {
      "inputs": [
        {
          "internalType": "uint256",
          "name": "",
          "type": "uint256"
        }
      ],
      "name": "purchases",
      "outputs": [
        {
          "internalType": "address",
          "name": "purchaser",
          "type": "address"
        },
        {
          "internalType": "uint48",
          "name": "timestamp",
          "type": "uint48"
        },
        {
          "internalType": "bool",
          "name": "wasFinalized",
          "type": "bool"
        },
        {
          "internalType": "bool",
          "name": "reverted",
          "type": "bool"
        },
        {
          "internalType": "uint256",
          "name": "amount",
          "type": "uint256"
        },
        {
          "internalType": "uint256",
          "name": "costAmount",
          "type": "uint256"
        },
        {
          "internalType": "uint256",
          "name": "amountRedeemed",
          "type": "uint256"
        }
      ],
      "stateMutability": "view",
      "type": "function"
    },
    {
      "inputs": [
        {
          "internalType": "bytes32",
          "name": "hash",
          "type": "bytes32"
        },
        {
          "internalType": "bytes",
          "name": "signature",
          "type": "bytes"
        }
      ],
      "name": "recoverSignerAddressFromBytes32",
      "outputs": [
        {
          "internalType": "address",
          "name": "",
          "type": "address"
        }
      ],
      "stateMutability": "pure",
      "type": "function"
    },
    {
      "inputs": [
        {
          "internalType": "uint256",
          "name": "purchase_id",
          "type": "uint256"
        }
      ],
      "name": "redeemGivenMinimumGoalNotAchieved",
      "outputs": [],
      "stateMutability": "nonpayable",
      "type": "function"
    },
    {
      "inputs": [
        {
          "internalType": "uint256",
          "name": "purchase_id",
          "type": "uint256"
        }
      ],
      "name": "redeemTokens",
      "outputs": [],
      "stateMutability": "nonpayable",
      "type": "function"
    },
    {
      "inputs": [
        {
          "internalType": "address",
          "name": "_address",
          "type": "address"
        }
      ],
      "name": "removeFromBlacklist",
      "outputs": [],
      "stateMutability": "nonpayable",
      "type": "function"
    },
    {
      "inputs": [
        {
          "internalType": "address",
          "name": "_address",
          "type": "address"
        }
      ],
      "name": "removeFromWhitelist",
      "outputs": [],
      "stateMutability": "nonpayable",
      "type": "function"
    },
    {
      "inputs": [
        {
          "internalType": "address",
          "name": "_tokenAddress",
          "type": "address"
        },
        {
          "internalType": "address",
          "name": "_to",
          "type": "address"
        }
      ],
      "name": "removeOtherERC20Tokens",
      "outputs": [],
      "stateMutability": "nonpayable",
      "type": "function"
    },
    {
      "inputs": [
        {
          "internalType": "bytes32",
          "name": "role",
          "type": "bytes32"
        },
        {
          "internalType": "address",
          "name": "account",
          "type": "address"
        }
      ],
      "name": "renounceRole",
      "outputs": [],
      "stateMutability": "nonpayable",
      "type": "function"
    },
    {
      "inputs": [
        {
          "internalType": "bytes32",
          "name": "role",
          "type": "bytes32"
        },
        {
          "internalType": "address",
          "name": "account",
          "type": "address"
        }
      ],
      "name": "revokeRole",
      "outputs": [],
      "stateMutability": "nonpayable",
      "type": "function"
    },
    {
      "inputs": [],
      "name": "safePull",
      "outputs": [],
      "stateMutability": "nonpayable",
      "type": "function"
    },
    {
      "inputs": [],
      "name": "safePullETH",
      "outputs": [],
      "stateMutability": "nonpayable",
      "type": "function"
    },
    {
      "inputs": [],
      "name": "safePullSaleToken",
      "outputs": [],
      "stateMutability": "nonpayable",
      "type": "function"
    },
    {
      "inputs": [],
      "name": "safePullTradeToken",
      "outputs": [],
      "stateMutability": "nonpayable",
      "type": "function"
    },
    {
      "inputs": [
        {
          "internalType": "uint256",
          "name": "_endDate",
          "type": "uint256"
        }
      ],
      "name": "setEndDate",
      "outputs": [],
      "stateMutability": "nonpayable",
      "type": "function"
    },
    {
      "inputs": [
        {
          "internalType": "bool",
          "name": "_hasWhitelisting",
          "type": "bool"
        }
      ],
      "name": "setHasWhitelisting",
      "outputs": [],
      "stateMutability": "nonpayable",
      "type": "function"
    },
    {
      "inputs": [
        {
          "internalType": "uint256",
          "name": "_individualMaximumAmount",
          "type": "uint256"
        }
      ],
      "name": "setIndividualMaximumAmount",
      "outputs": [],
      "stateMutability": "nonpayable",
      "type": "function"
    },
    {
      "inputs": [
        {
          "internalType": "address",
          "name": "_PolsStakeAddress",
          "type": "address"
        },
        {
          "internalType": "uint256",
          "name": "_PolsStakeAmount",
          "type": "uint256"
        },
        {
          "internalType": "uint256",
          "name": "_PolsStakeRewards",
          "type": "uint256"
        }
      ],
      "name": "setPolsStakingRequirement",
      "outputs": [],
      "stateMutability": "nonpayable",
      "type": "function"
    },
    {
      "inputs": [
        {
          "internalType": "address",
          "name": "_PolsTokenAddress",
          "type": "address"
        },
        {
          "internalType": "uint256",
          "name": "_PolsTokenAmount",
          "type": "uint256"
        }
      ],
      "name": "setPolsTokenRequirement",
      "outputs": [],
      "stateMutability": "nonpayable",
      "type": "function"
    },
    {
      "inputs": [
        {
          "internalType": "address",
          "name": "_PolsUniV2Address",
          "type": "address"
        },
        {
          "internalType": "uint256",
          "name": "_PolsUniV2Amount",
          "type": "uint256"
        }
      ],
      "name": "setPolsUniV2Requirement",
      "outputs": [],
      "stateMutability": "nonpayable",
      "type": "function"
    },
    {
      "inputs": [
        {
          "internalType": "address",
          "name": "_signerPublicAddress",
          "type": "address"
        }
      ],
      "name": "setSignerPublicAddress",
      "outputs": [],
      "stateMutability": "nonpayable",
      "type": "function"
    },
    {
      "inputs": [
        {
          "internalType": "uint256",
          "name": "_startDate",
          "type": "uint256"
        }
      ],
      "name": "setStartDate",
      "outputs": [],
      "stateMutability": "nonpayable",
      "type": "function"
    },
    {
      "inputs": [
        {
          "internalType": "uint256",
          "name": "_vestingStart",
          "type": "uint256"
        },
        {
          "internalType": "uint256",
          "name": "_vestingCliff",
          "type": "uint256"
        },
        {
          "internalType": "uint256",
          "name": "_vestingDuration",
          "type": "uint256"
        },
        {
          "internalType": "uint256[]",
          "name": "_vestingSchedule",
          "type": "uint256[]"
        }
      ],
      "name": "setVesting",
      "outputs": [],
      "stateMutability": "nonpayable",
      "type": "function"
    },
    {
      "inputs": [],
      "name": "signerPublicAddress",
      "outputs": [
        {
          "internalType": "address",
          "name": "",
          "type": "address"
        }
      ],
      "stateMutability": "view",
      "type": "function"
    },
    {
      "inputs": [],
      "name": "startDate",
      "outputs": [
        {
          "internalType": "uint256",
          "name": "",
          "type": "uint256"
        }
      ],
      "stateMutability": "view",
      "type": "function"
    },
    {
      "inputs": [
        {
          "internalType": "uint256",
          "name": "_amount",
          "type": "uint256"
        },
        {
          "internalType": "bytes",
          "name": "signature",
          "type": "bytes"
        }
      ],
      "name": "swap",
      "outputs": [],
      "stateMutability": "payable",
      "type": "function"
    },
    {
      "inputs": [],
      "name": "tokensAllocated",
      "outputs": [
        {
          "internalType": "uint256",
          "name": "",
          "type": "uint256"
        }
      ],
      "stateMutability": "view",
      "type": "function"
    },
    {
      "inputs": [],
      "name": "tokensForSale",
      "outputs": [
        {
          "internalType": "uint256",
          "name": "",
          "type": "uint256"
        }
      ],
      "stateMutability": "view",
      "type": "function"
    },
    {
      "inputs": [],
      "name": "tokensLeft",
      "outputs": [
        {
          "internalType": "uint256",
          "name": "",
          "type": "uint256"
        }
      ],
      "stateMutability": "view",
      "type": "function"
    },
    {
      "inputs": [],
      "name": "totalRaiseCost",
      "outputs": [
        {
          "internalType": "uint256",
          "name": "",
          "type": "uint256"
        }
      ],
      "stateMutability": "view",
      "type": "function"
    },
    {
      "inputs": [],
      "name": "tradeValue",
      "outputs": [
        {
          "internalType": "uint256",
          "name": "",
          "type": "uint256"
        }
      ],
      "stateMutability": "view",
      "type": "function"
    },
    {
      "inputs": [],
      "name": "unpause",
      "outputs": [],
      "stateMutability": "nonpayable",
      "type": "function"
    },
    {
      "inputs": [],
      "name": "unsoldTokensRedeemed",
      "outputs": [
        {
          "internalType": "bool",
          "name": "",
          "type": "bool"
        }
      ],
      "stateMutability": "view",
      "type": "function"
    },
    {
      "inputs": [],
      "name": "updateFundStatus",
      "outputs": [],
      "stateMutability": "nonpayable",
      "type": "function"
    },
    {
      "inputs": [],
      "name": "vestingCliff",
      "outputs": [
        {
          "internalType": "uint256",
          "name": "",
          "type": "uint256"
        }
      ],
      "stateMutability": "view",
      "type": "function"
    },
    {
      "inputs": [],
      "name": "vestingDuration",
      "outputs": [
        {
          "internalType": "uint256",
          "name": "",
          "type": "uint256"
        }
      ],
      "stateMutability": "view",
      "type": "function"
    },
    {
      "inputs": [
        {
          "internalType": "uint256",
          "name": "",
          "type": "uint256"
        }
      ],
      "name": "vestingSchedule",
      "outputs": [
        {
          "internalType": "uint256",
          "name": "",
          "type": "uint256"
        }
      ],
      "stateMutability": "view",
      "type": "function"
    },
    {
      "inputs": [],
      "name": "vestingStart",
      "outputs": [
        {
          "internalType": "uint256",
          "name": "",
          "type": "uint256"
        }
      ],
      "stateMutability": "view",
      "type": "function"
    },
    {
      "inputs": [],
      "name": "vestingTime",
      "outputs": [
        {
          "internalType": "uint256",
          "name": "",
          "type": "uint256"
        }
      ],
      "stateMutability": "view",
      "type": "function"
    },
    {
      "inputs": [],
      "name": "withdrawFunds",
      "outputs": [],
      "stateMutability": "nonpayable",
      "type": "function"
    },
    {
      "inputs": [],
      "name": "withdrawUnsoldTokens",
      "outputs": [],
      "stateMutability": "nonpayable",
      "type": "function"
    }
  ],
  "bytecode": "0x60806040526002805460ff60a01b1916905560006016553480156200002357600080fd5b5060405162006d5f38038062006d5f83398181016040526102008110156200004a57600080fd5b81019080805190602001909291908051906020019092919080519060200190929190805190602001909291908051906020019092919080519060200190929190805190602001909291908051906020019092919080519060200190929190805190602001909291908051906020019092919080519060200190929190805190602001909291908051906020019092919080519060200190929190805160405193929190846401000000008211156200010157600080fd5b9083019060208201858111156200011757600080fd5b82518660208202830111640100000000821117156200013557600080fd5b82525081516020918201928201910280838360005b83811015620001645781810151838201526020016200014a565b505050509190910160405250506000805460ff1916905550506002805460ff60a01b19168782161515600160a01b810291909117909155620001c77fb813b807c25079ba97f1770664c6a9e57c59afe74a6295f1ed01c10e3bb6baae3362000512565b50620001d560003362000512565b8c42106200022a576040805162461bcd60e51b815260206004820152601960248201527f7374617274206461746520697320696e20746865207061737400000000000000604482015290519081900360640190fd5b60008e1162000274576040805162461bcd60e51b81526020600482015260116024820152706e6f20746f6b656e20666f722073616c6560781b604482015290519081900360640190fd5b8a8e1015620002ca576040805162461bcd60e51b815260206004820152601e60248201527f746f6b656e73466f7253616c65203c20696e646976696475616c206d696e0000604482015290519081900360640190fd5b8d88111562000320576040805162461bcd60e51b815260206004820152601c60248201527f6d696e696d756d5261697365203e20746f6b656e73466f7253616c6500000000604482015290519081900360640190fd5b606387111562000377576040805162461bcd60e51b815260206004820152601e60248201527f4665652050657263656e746167652068617320746f206265203c203130300000604482015290519081900360640190fd5b60088663ffffffff1610620003d3576040805162461bcd60e51b815260206004820152601560248201527f756e737570706f7274656420666c616773207365740000000000000000000000604482015290519081900360640190fd5b60158b9055620003e38a62000522565b60138d9055620003f38c620005cd565b60198e905560128f905560018616156200041a576011805460ff191660011790556200042d565b60178890556200042d84848484620006cc565b8f600e60006101000a8154816001600160a01b0302191690836001600160a01b0316021790555060006001600160a01b0316856001600160a01b0316146200048b57600f80546001600160a01b0319166001600160a01b0387161790555b6004861615620004f6576011805461ff001916610100179055620004cd7383e6f1e41cdd28eaceb20cb649155049fac3d5aa68a2a15d09519be0000062000a64565b620004f673ffa98a091331df4600f87c9164cd27e8a5cd24056801158e460913d0000062000ad8565b5050506010939093555062000d869a5050505050505050505050565b6200051e828262000b4c565b5050565b6200052f60003362000bc7565b62000570576040805162461bcd60e51b8152602060048201526019602482015260008051602062006d3f833981519152604482015290519081900360640190fd5b601554811015620005c8576040805162461bcd60e51b815260206004820152601b60248201527f696e646976696475616c206d6178203c206d696e20616d6f756e740000000000604482015290519081900360640190fd5b601655565b620005da60003362000bc7565b6200061b576040805162461bcd60e51b8152602060048201526019602482015260008051602062006d3f833981519152604482015290519081900360640190fd5b80421062000670576040805162461bcd60e51b815260206004820181905260248201527f656e6420646174652068617320746f20626520696e2074686520667574757265604482015290519081900360640190fd5b8060135410620006c7576040805162461bcd60e51b815260206004820152601a60248201527f656e642064617465206265666f72652073746172742064617465000000000000604482015290519081900360640190fd5b601455565b620006d960003362000bc7565b6200071a576040805162461bcd60e51b8152602060048201526019602482015260008051602062006d3f833981519152604482015290519081900360640190fd5b601354421062000771576040805162461bcd60e51b815260206004820152601a60248201527f746f6b656e2073616c6520616c72656164792073746172746564000000000000604482015290519081900360640190fd5b6014548385011015620007cb576040805162461bcd60e51b815260206004820152601b60248201527f76657374696e67436c696666206265666f726520656e64446174650000000000604482015290519081900360640190fd5b8183111562000821576040805162461bcd60e51b815260206004820152601e60248201527f76657374696e67436c696666203e2076657374696e674475726174696f6e0000604482015290519081900360640190fd5b6312cff7806200086e82516000146200085657620008506001845162000bf660201b6200503f1790919060201c565b62000859565b60015b8462000c5160201b620050991790919060201c565b10620008c1576040805162461bcd60e51b815260206004820152601d60248201527f746f74616c2076657374696e672074696d65203e203130207965617273000000604482015290519081900360640190fd5b601a849055601b839055601c829055620008de601d600062000d48565b600181511062000a5e5760008211620009295760405162461bcd60e51b815260040180806020018281038252603481526020018062006cca6034913960400191505060405180910390fd5b6000816000815181106200093957fe5b6020026020010151905064e8d4a510006064028110620009a0576040805162461bcd60e51b815260206004820152601c60248201527f66697273742076657374696e6720706572696f64203e3d203130302500000000604482015290519081900360640190fd5b601d80546001818101835560009290925260008051602062006cfe833981519152018290555b825181101562000a5b5762000a19838281518110620009e157fe5b6020026020010151601d6001840381548110620009fa57fe5b906000526020600020015462000bf660201b6200503f1790919060201c565b9150655af3107a4000821062000a2f5762000a5b565b601d80546001818101835560009290925260008051602062006cfe8339815191520183905501620009c6565b50505b50505050565b62000a7160003362000bc7565b62000ab2576040805162461bcd60e51b8152602060048201526019602482015260008051602062006d3f833981519152604482015290519081900360640190fd5b600780546001600160a01b0319166001600160a01b039390931692909217909155600855565b62000ae560003362000bc7565b62000b26576040805162461bcd60e51b8152602060048201526019602482015260008051602062006d3f833981519152604482015290519081900360640190fd5b600980546001600160a01b0319166001600160a01b039390931692909217909155600a55565b600082815260016020908152604090912062000b73918390620050f262000caf821b17901c565b156200051e5762000b8362000cc6565b6001600160a01b0316816001600160a01b0316837f2f8788117e7eff1d82e926ec794901d17c78024a50270940304540a733656f0d60405160405180910390a45050565b6000828152600160209081526040822062000bed9184906200510762000cca821b17901c565b90505b92915050565b60008282018381101562000bed576040805162461bcd60e51b815260206004820152601b60248201527f536166654d6174683a206164646974696f6e206f766572666c6f770000000000604482015290519081900360640190fd5b60008262000c625750600062000bf0565b8282028284828162000c7057fe5b041462000bed5760405162461bcd60e51b815260040180806020018281038252602181526020018062006d1e6021913960400191505060405180910390fd5b600062000bed836001600160a01b03841662000ce1565b3390565b600062000bed836001600160a01b03841662000d30565b600062000cef838362000d30565b62000d275750815460018181018455600084815260208082209093018490558454848252828601909352604090209190915562000bf0565b50600062000bf0565b60009081526001919091016020526040902054151590565b508054600082559060005260206000209081019062000d68919062000d6b565b50565b5b8082111562000d82576000815560010162000d6c565b5090565b615f348062000d966000396000f3fe6080604052600436106106675760003560e01c806382d95df511610344578063bd0fcfd1116101b6578063e4101de511610102578063f267d48c116100a0578063f64bfaba1161007a578063f64bfaba14611a11578063fce9d11b14611a26578063fe575a8714611a3b578063fecf415a14611a6e57610667565b8063f267d48c146119bd578063f2aa8218146119d2578063f3640e74146119fc57610667565b8063e8b882f4116100dc578063e8b882f414611969578063eb1edd611461197e578063eee95be614611993578063efbb34d5146119a857610667565b8063e4101de514611869578063e43252d71461187e578063e4a80252146118b157610667565b8063ca15c8731161016f578063d47eb3d511610149578063d47eb3d51461173a578063d547741f1461174f578063dbb57ac814611788578063dc91b0721461183f57610667565b8063ca15c873146116d1578063ca1d209d146116fb578063d0a4a8951461172557610667565b8063bd0fcfd114611635578063bf135abe1461164a578063c24a0f8b1461165f578063c3ca324f14611674578063c7dab436146116a7578063c8bdbfb6146116bc57610667565b80639483841411610290578063a96c58651161022e578063b367940e11610208578063b367940e1461152d578063b869178714611542578063ba40a96a14611575578063bd0625ab1461158a57610667565b8063a96c5865146114d5578063b0b12ac3146114ea578063b31f8f931461151857610667565b8063a001ecdd1161026a578063a001ecdd1461146c578063a1c09bf114611481578063a217fddf14611496578063a6e158f8146114ab57610667565b8063948384141461139457806396a32bc4146113a95780639d90a46e146113be57610667565b80638ab1d681116102fd5780639097548d116102d75780639097548d146112cc578063917c854d146112f6578063919bd9301461133157806391d148541461135b57610667565b80638ab1d681146112545780638e75b131146112875780639010d07c1461129c57610667565b806382d95df51461113f5780638392fe31146111695780638456cb59146111dc5780638855ccaa146111f157806388b0fe2b1461122a5780638a1a5f3f1461123f57610667565b80633784f000116104dd5780635c975abb1161042957806370a898bc116103c757806376807e5f116103a157806376807e5f14611048578063785e9e861461105d578063799bb232146110725780637f7b27121461112a57610667565b806370a898bc1461100957806374fa05fb1461101e578063755e3e281461103357610667565b806368673e7d1161040357806368673e7d14610ef257806369bb4dc214610fb35780636d02802714610fc85780636eaaabd514610fdd57610667565b80635c975abb14610e075780636295a2f414610e1c578063658f2dfe14610e3157610667565b80634089aa9a116104965780634588f688116104705780634588f68814610d7157806347535d7b14610d86578063537df3b614610d9b5780635ac699bb14610dce57610667565b80634089aa9a14610d1457806344337ea114610d2957806344691f7e14610d5c57610667565b80633784f00014610b7f5780633abcb8e814610ba95780633af32abf14610bbe5780633b6577c814610bf15780633bbab17914610c9a5780633f4ba83a14610cff57610667565b806321710d27116105b75780632daa8c84116105555780632f2ff15d1161052f5780632f2ff15d14610a8357806331d06af314610abc57806336568abe14610ad15780633742a9f714610b0a57610667565b80632daa8c8414610a445780632e15410714610a595780632ebb5c1e14610a6e57610667565b8063248a9ca311610591578063248a9ca3146109a8578063254800d4146109d25780632593ea17146109e7578063273e96e914610a1157610667565b806321710d271461094d57806321d3002a1461097e57806324600fc31461099357610667565b80631164d20c116106245780631514617e116105fe5780631514617e146108e457806315b57866146108f9578063161a7b2a1461090e5780631de18af71461092357610667565b80631164d20c146107f957806312aef8c3146108ba57806313430f01146108cf57610667565b80630274fa981461066c578063044c0cc5146106ad57806307662345146106d657806308abd7ff146106eb5780630b97bc86146107995780630dfb6d74146107c0575b600080fd5b34801561067857600080fd5b506106ab6004803603606081101561068f57600080fd5b506001600160a01b038135169060208101359060400135611a98565b005b3480156106b957600080fd5b506106c2611b0b565b604080519115158252519081900360200190f35b3480156106e257600080fd5b506106c2611b1c565b3480156106f757600080fd5b506106ab6004803603602081101561070e57600080fd5b810190602081018135600160201b81111561072857600080fd5b82018360208201111561073a57600080fd5b803590602001918460208302840111600160201b8311171561075b57600080fd5b919080806020026020016040519081016040528093929190818152602001838360200280828437600092019190915250929550611b2c945050505050565b3480156107a557600080fd5b506107ae611c0a565b60408051918252519081900360200190f35b3480156107cc57600080fd5b506106ab600480360360408110156107e357600080fd5b506001600160a01b038135169060200135611c10565b34801561080557600080fd5b506106c26004803603604081101561081c57600080fd5b6001600160a01b038235169190810190604081016020820135600160201b81111561084657600080fd5b82018360208201111561085857600080fd5b803590602001918460018302840111600160201b8311171561087957600080fd5b91908080601f016020809104026020016040519081016040528093929190818152602001838380828437600092019190915250929550611c80945050505050565b3480156108c657600080fd5b506107ae611cb1565b3480156108db57600080fd5b506107ae611cb7565b3480156108f057600080fd5b506107ae611cbd565b34801561090557600080fd5b506106c2611cc3565b34801561091a57600080fd5b506106c2611ccb565b34801561092f57600080fd5b506106ab6004803603602081101561094657600080fd5b5035611cda565b34801561095957600080fd5b50610962611fcc565b604080516001600160a01b039092168252519081900360200190f35b34801561098a57600080fd5b506106c2611fe4565b34801561099f57600080fd5b506106ab611fed565b3480156109b457600080fd5b506107ae600480360360208110156109cb57600080fd5b5035612311565b3480156109de57600080fd5b506107ae612329565b3480156109f357600080fd5b506106c260048036036020811015610a0a57600080fd5b503561232f565b348015610a1d57600080fd5b506106c260048036036020811015610a3457600080fd5b50356001600160a01b0316612336565b348015610a5057600080fd5b506106ab6125af565b348015610a6557600080fd5b506107ae612763565b348015610a7a57600080fd5b506106c2612769565b348015610a8f57600080fd5b506106ab60048036036040811015610aa657600080fd5b50803590602001356001600160a01b0316612771565b348015610ac857600080fd5b506109626127d9565b348015610add57600080fd5b506106ab60048036036040811015610af457600080fd5b50803590602001356001600160a01b03166127e8565b348015610b1657600080fd5b50610b3460048036036020811015610b2d57600080fd5b5035612849565b604080519788526001600160a01b0390961660208801528686019490945265ffffffffffff909216606086015215156080850152151560a084015260c0830152519081900360e00190f35b348015610b8b57600080fd5b506106ab60048036036020811015610ba257600080fd5b5035612960565b348015610bb557600080fd5b506107ae612a59565b348015610bca57600080fd5b506106c260048036036020811015610be157600080fd5b50356001600160a01b0316612a5f565b348015610bfd57600080fd5b50610c1b60048036036020811015610c1457600080fd5b5035612a6c565b6040518083815260200180602001828103825283818151815260200191508051906020019080838360005b83811015610c5e578181015183820152602001610c46565b50505050905090810190601f168015610c8b5780820380516001836020036101000a031916815260200191505b50935050505060405180910390f35b348015610ca657600080fd5b50610caf612e66565b60408051602080825283518183015283519192839290830191858101910280838360005b83811015610ceb578181015183820152602001610cd3565b505050509050019250505060405180910390f35b348015610d0b57600080fd5b506106ab612e77565b348015610d2057600080fd5b506106c2612ec9565b348015610d3557600080fd5b506106ab60048036036020811015610d4c57600080fd5b50356001600160a01b0316612ed1565b348015610d6857600080fd5b506106c2612f70565b348015610d7d57600080fd5b50610962612f79565b348015610d9257600080fd5b506106c2612f88565b348015610da757600080fd5b506106ab60048036036020811015610dbe57600080fd5b50356001600160a01b0316612fa7565b348015610dda57600080fd5b506107ae60048036036040811015610df157600080fd5b506001600160a01b038135169060200135613045565b348015610e1357600080fd5b506106c2613075565b348015610e2857600080fd5b506107ae61307e565b348015610e3d57600080fd5b506106ab60048036036080811015610e5457600080fd5b81359160208101359160408201359190810190608081016060820135600160201b811115610e8157600080fd5b820183602082011115610e9357600080fd5b803590602001918460208302840111600160201b83111715610eb457600080fd5b919080806020026020016040519081016040528093929190818152602001838360200280828437600092019190915250929550613084945050505050565b348015610efe57600080fd5b506106c260048036036040811015610f1557600080fd5b6001600160a01b038235169190810190604081016020820135600160201b811115610f3f57600080fd5b820183602082011115610f5157600080fd5b803590602001918460018302840111600160201b83111715610f7257600080fd5b91908080601f016020809104026020016040519081016040528093929190818152602001838380828437600092019190915250929550613402945050505050565b348015610fbf57600080fd5b506107ae613441565b348015610fd457600080fd5b50610caf6134bd565b348015610fe957600080fd5b506106ab6004803603602081101561100057600080fd5b503515156134c9565b34801561101557600080fd5b506106c2613573565b34801561102a57600080fd5b506106c261357b565b34801561103f57600080fd5b506107ae613585565b34801561105457600080fd5b506106ab61358b565b34801561106957600080fd5b50610962613625565b34801561107e57600080fd5b506109626004803603604081101561109557600080fd5b81359190810190604081016020820135600160201b8111156110b657600080fd5b8201836020820111156110c857600080fd5b803590602001918460018302840111600160201b831117156110e957600080fd5b91908080601f016020809104026020016040519081016040528093929190818152602001838380828437600092019190915250929550613634945050505050565b34801561113657600080fd5b506107ae61369f565b34801561114b57600080fd5b506106ab6004803603602081101561116257600080fd5b50356136a8565b34801561117557600080fd5b506111936004803603602081101561118c57600080fd5b503561378b565b604080516001600160a01b03909816885265ffffffffffff9096166020880152931515868601529115156060860152608085015260a084015260c0830152519081900360e00190f35b3480156111e857600080fd5b506106ab6137f2565b3480156111fd57600080fd5b506106ab6004803603604081101561121457600080fd5b506001600160a01b038135169060200135613844565b34801561123657600080fd5b506106ab6138b4565b34801561124b57600080fd5b506107ae61399f565b34801561126057600080fd5b506106ab6004803603602081101561127757600080fd5b50356001600160a01b03166139da565b34801561129357600080fd5b506107ae613a78565b3480156112a857600080fd5b50610962600480360360408110156112bf57600080fd5b5080359060200135613a7e565b3480156112d857600080fd5b506107ae600480360360208110156112ef57600080fd5b5035613a96565b34801561130257600080fd5b506106ab6004803603604081101561131957600080fd5b506001600160a01b0381358116916020013516613b2c565b34801561133d57600080fd5b506107ae6004803603602081101561135457600080fd5b5035613d11565b34801561136757600080fd5b506106c26004803603604081101561137e57600080fd5b50803590602001356001600160a01b0316613d32565b3480156113a057600080fd5b506106c2613d4a565b3480156113b557600080fd5b506106ab613d5a565b3480156113ca57600080fd5b506106ab600480360360208110156113e157600080fd5b810190602081018135600160201b8111156113fb57600080fd5b82018360208201111561140d57600080fd5b803590602001918460208302840111600160201b8311171561142e57600080fd5b919080806020026020016040519081016040528093929190818152602001838360200280828437600092019190915250929550613e20945050505050565b34801561147857600080fd5b506107ae613efd565b34801561148d57600080fd5b506107ae613f03565b3480156114a257600080fd5b506107ae613f09565b3480156114b757600080fd5b506106ab600480360360208110156114ce57600080fd5b5035613f0e565b3480156114e157600080fd5b506107ae614215565b3480156114f657600080fd5b506114ff61421b565b6040805163ffffffff9092168252519081900360200190f35b34801561152457600080fd5b506107ae614222565b34801561153957600080fd5b506106c261422c565b34801561154e57600080fd5b506106ab6004803603602081101561156557600080fd5b50356001600160a01b0316614237565b34801561158157600080fd5b506109626142b0565b6106ab600480360360408110156115a057600080fd5b81359190810190604081016020820135600160201b8111156115c157600080fd5b8201836020820111156115d357600080fd5b803590602001918460018302840111600160201b831117156115f457600080fd5b91908080601f0160208091040260200160405190810160405280939291908181526020018383808284376000920191909152509295506142bf945050505050565b34801561164157600080fd5b50610962614967565b34801561165657600080fd5b5061096261497f565b34801561166b57600080fd5b506107ae61498e565b34801561168057600080fd5b50610caf6004803603602081101561169757600080fd5b50356001600160a01b0316614994565b3480156116b357600080fd5b506107ae6149fe565b3480156116c857600080fd5b506106ab614a1a565b3480156116dd57600080fd5b506107ae600480360360208110156116f457600080fd5b5035614b1c565b34801561170757600080fd5b506106ab6004803603602081101561171e57600080fd5b5035614b33565b34801561173157600080fd5b506106c2614c14565b34801561174657600080fd5b50610962614c22565b34801561175b57600080fd5b506106ab6004803603604081101561177257600080fd5b50803590602001356001600160a01b0316614c31565b34801561179457600080fd5b506117b2600480360360208110156117ab57600080fd5b5035614c8a565b6040518085815260200184815260200183815260200180602001828103825283818151815260200191508051906020019080838360005b838110156118015781810151838201526020016117e9565b50505050905090810190601f16801561182e5780820380516001836020036101000a031916815260200191505b509550505050505060405180910390f35b34801561184b57600080fd5b506106ab6004803603602081101561186257600080fd5b5035614d37565b34801561187557600080fd5b506107ae614ddd565b34801561188a57600080fd5b506106ab600480360360208110156118a157600080fd5b50356001600160a01b0316614de3565b3480156118bd57600080fd5b506106c2600480360360408110156118d457600080fd5b81359190810190604081016020820135600160201b8111156118f557600080fd5b82018360208201111561190757600080fd5b803590602001918460018302840111600160201b8311171561192857600080fd5b91908080601f016020809104026020016040519081016040528093929190818152602001838380828437600092019190915250929550614e81945050505050565b34801561197557600080fd5b506107ae614eab565b34801561198a57600080fd5b50610962614ebd565b34801561199f57600080fd5b506106ab614ed5565b3480156119b457600080fd5b506107ae614f51565b3480156119c957600080fd5b506107ae614f5e565b3480156119de57600080fd5b50610962600480360360208110156119f557600080fd5b5035614f64565b348015611a0857600080fd5b506107ae614f8e565b348015611a1d57600080fd5b50610caf614f94565b348015611a3257600080fd5b50610caf614ff6565b348015611a4757600080fd5b506106c260048036036020811015611a5e57600080fd5b50356001600160a01b0316615001565b348015611a7a57600080fd5b506106c260048036036020811015611a9157600080fd5b503561500e565b611aa3600033613d32565b611ae2576040805162461bcd60e51b81526020600482015260196024820152600080516020615eb0833981519152604482015290519081900360640190fd5b600b80546001600160a01b0319166001600160a01b039490941693909317909255600c55600d55565b600f546001600160a01b0316155b90565b600254600160a01b900460ff1681565b611b44600080516020615e4683398151915233613d32565b611b83576040805162461bcd60e51b815260206004820152601c6024820152600080516020615d73833981519152604482015290519081900360640190fd5b6000805b8251811015611bcb57611bb7838281518110611b9f57fe5b602002602001015160036150f290919063ffffffff16565b15611bc3576001909101905b600101611b87565b508015611c06576040805182815290517f448f3bd350ede14a294c062177c5280fe1eae125d16757da21f5f51d6e89daae9181900360200190a15b5050565b60135481565b611c1b600033613d32565b611c5a576040805162461bcd60e51b81526020600482015260196024820152600080516020615eb0833981519152604482015290519081900360640190fd5b600980546001600160a01b0319166001600160a01b039390931692909217909155600a55565b6002546000906001600160a01b038085169116611c9d8285613634565b6001600160a01b0316149150505b92915050565b60195481565b600c5481565b601c5481565b601754151590565b60115462010000900460ff1681565b611ce2612ec9565b611d21576040805162461bcd60e51b81526020600482015260186024820152600080516020615e66833981519152604482015290519081900360640190fd5b60115460ff1615611d79576040805162461bcd60e51b815260206004820152601e60248201527f73616c652068617320746f206265206e6f6e2041746f6d696320737761700000604482015290519081900360640190fd5b611d828161500e565b611dca576040805162461bcd60e51b815260206004820152601460248201527330b2323932b9b99034b9903737ba10313abcb2b960611b604482015290519081900360640190fd5b611dd2611cc3565b611e23576040805162461bcd60e51b815260206004820152601d60248201527f6e6f206d696e696d756d20726169736520686173206265656e20736574000000604482015290519081900360640190fd5b611e2b61357b565b611e7c576040805162461bcd60e51b815260206004820152601e60248201527f6d696e696d756d20726169736520686173206265656e20726561636865640000604482015290519081900360640190fd5b6000601e8281548110611e8b57fe5b906000526020600020906004020190506000816001015411611ef4576040805162461bcd60e51b815260206004820152601760248201527f707572636861736520616d6f756e74206973207a65726f000000000000000000604482015290519081900360640190fd5b8054600160d01b900460ff1615611f4a576040805162461bcd60e51b81526020600482015260156024820152741c1d5c98da185cd9481a5cc8199a5b985b1a5e9959605a1b604482015290519081900360640190fd5b805460ff60d81b1960ff60d01b19909116600160d01b1716600160d81b178155611f72611b0b565b15611fad576002810154604051339180156108fc02916000818181858888f19350505050158015611fa7573d6000803e3d6000fd5b50611c06565b6002810154600f54611c06916001600160a01b0390911690339061511c565b73ffa98a091331df4600f87c9164cd27e8a5cd240581565b60115460ff1681565b611ff8600033613d32565b612037576040805162461bcd60e51b81526020600482015260196024820152600080516020615eb0833981519152604482015290519081900360640190fd5b61203f613075565b15612084576040805162461bcd60e51b815260206004820152601060248201526f14185d5cd8589b194e881c185d5cd95960821b604482015290519081900360640190fd5b61208c612ec9565b6120cb576040805162461bcd60e51b81526020600482015260186024820152600080516020615e66833981519152604482015290519081900360640190fd5b6120d361422c565b612120576040805162461bcd60e51b81526020600482015260196024820152781b5a5b9a5b5d5b481c985a5cd9481b9bdd081c995858da1959603a1b604482015290519081900360640190fd5b612128611b0b565b156121c95773aeb39b67f27b641ef9f95fb74f1a46b1ee4efc836001600160a01b03166108fc61216e60646121686010544761509990919063ffffffff16565b90615173565b6040518115909202916000818181858888f19350505050158015612196573d6000803e3d6000fd5b5060405133904780156108fc02916000818181858888f193505050501580156121c3573d6000803e3d6000fd5b5061230f565b601054600f54604080516370a0823160e01b8152306004820152905161227f9373aeb39b67f27b641ef9f95fb74f1a46b1ee4efc839361226c9360649361216893926001600160a01b0316916370a08231916024808301926020929190829003018186803b15801561223a57600080fd5b505afa15801561224e573d6000803e3d6000fd5b505050506040513d602081101561226457600080fd5b505190615099565b600f546001600160a01b0316919061511c565b600f54604080516370a0823160e01b8152306004820152905161230f9233926001600160a01b03909116916370a0823191602480820192602092909190829003018186803b1580156122d057600080fd5b505afa1580156122e4573d6000803e3d6000fd5b505050506040513d60208110156122fa57600080fd5b5051600f546001600160a01b0316919061511c565b565b6000818152600160205260409020600201545b919050565b601a5481565b601e541190565b601154600090610100900460ff1661235057506001612324565b600b546001600160a01b03161561247357600c54600b54604080516370a0823160e01b81526001600160a01b038681166004830152915191909216916370a08231916024808301926020929190829003018186803b1580156123b157600080fd5b505afa1580156123c5573d6000803e3d6000fd5b505050506040513d60208110156123db57600080fd5b5051106123ea57506001612324565b600d54600b546040805163f6a3f3cf60e01b81526001600160a01b0386811660048301529151919092169163f6a3f3cf916024808301926020929190829003018186803b15801561243a57600080fd5b505afa15801561244e573d6000803e3d6000fd5b505050506040513d602081101561246457600080fd5b50511061247357506001612324565b6009546001600160a01b03161561250d57600a54600954604080516370a0823160e01b81526001600160a01b038681166004830152915191909216916370a08231916024808301926020929190829003018186803b1580156124d457600080fd5b505afa1580156124e8573d6000803e3d6000fd5b505050506040513d60208110156124fe57600080fd5b50511061250d57506001612324565b6007546001600160a01b0316156125a757600854600754604080516370a0823160e01b81526001600160a01b038681166004830152915191909216916370a08231916024808301926020929190829003018186803b15801561256e57600080fd5b505afa158015612582573d6000803e3d6000fd5b505050506040513d602081101561259857600080fd5b5051106125a757506001612324565b506000919050565b6125ba600033613d32565b6125f9576040805162461bcd60e51b81526020600482015260196024820152600080516020615eb0833981519152604482015290519081900360640190fd5b612601613075565b612649576040805162461bcd60e51b815260206004820152601460248201527314185d5cd8589b194e881b9bdd081c185d5cd95960621b604482015290519081900360640190fd5b60405133904780156108fc02916000818181858888f19350505050158015612675573d6000803e3d6000fd5b50600e54604080516370a0823160e01b815230600482015290516127069233926001600160a01b03909116916370a0823191602480820192602092909190829003018186803b1580156126c757600080fd5b505afa1580156126db573d6000803e3d6000fd5b505050506040513d60208110156126f157600080fd5b5051600e546001600160a01b0316919061511c565b61270e611b0b565b61230f57600f54604080516370a0823160e01b8152306004820152905161230f9233926001600160a01b03909116916370a0823191602480820192602092909190829003018186803b1580156122d057600080fd5b60155481565b601354421090565b6000828152600160205260409020600201546127949061278f6151da565b613d32565b6127cf5760405162461bcd60e51b815260040180806020018281038252602f815260200180615c76602f913960400191505060405180910390fd5b611c0682826151de565b600b546001600160a01b031681565b6127f06151da565b6001600160a01b0316816001600160a01b03161461283f5760405162461bcd60e51b815260040180806020018281038252602f815260200180615ed0602f913960400191505060405180910390fd5b611c068282615247565b600080600080600080600061285d8861232f565b6128ab576040805162461bcd60e51b815260206004820152601a6024820152791c1d5c98da185cd957da5908191bd95cc81b9bdd08195e1a5cdd60321b604482015290519081900360640190fd5b6000601e89815481106128ba57fe5b60009182526020918290206040805160e08101825260049390930290910180546001600160a01b03811680855265ffffffffffff600160a01b83041695850186905260ff600160d01b830481161515948601859052600160d81b909204909116151560608501819052600183015460808601819052600284015460a0870181905260039094015460c09096018690529f919e50919c50939a509098509650945092505050565b61296b600033613d32565b6129aa576040805162461bcd60e51b81526020600482015260196024820152600080516020615eb0833981519152604482015290519081900360640190fd5b8042106129fe576040805162461bcd60e51b815260206004820181905260248201527f656e6420646174652068617320746f20626520696e2074686520667574757265604482015290519081900360640190fd5b8060135410612a54576040805162461bcd60e51b815260206004820152601a60248201527f656e642064617465206265666f72652073746172742064617465000000000000604482015290519081900360640190fd5b601455565b600a5481565b6000611cab600383615107565b60006060612a798361232f565b612ab857505060408051808201909152601a8152791c1d5c98da185cd957da5908191bd95cc81b9bdd08195e1a5cdd60321b6020820152600090612e61565b60115460ff1615612b0157505060408051808201909152601981527f68617320746f206265206e6f6e2041746f6d69632073776170000000000000006020820152600090612e61565b612b09612ec9565b612b4b57505060408051808201909152601881527f746f6b656e2073616c65206e6f742066696e616c697a656400000000000000006020820152600090612e61565b612b53613075565b15612b9657505060408051808201909152601d81527f746f6b656e2073616c6520636f6e7472616374206973207061757365640000006020820152600090612e61565b612b9e61357b565b15612bdd5750506040805180820190915260198152781b5a5b9a5b5d5b481c985a5cd9481b9bdd081c995858da1959603a1b6020820152600090612e61565b6000601e8481548110612bec57fe5b90600052602060002090600402016001015490506000601e8581548110612c0f57fe5b9060005260206000209060040201600301549050818110612c6d5760006040518060400160405280601a81526020017f616c6c20746f6b656e20616c72656164792072656465656d6564000000000000815250935093505050612e61565b601a54421015612cba5760006040518060400160405280601e81526020017f76657374696e6720706572696f64206e6f742079657420737461727465640000815250935093505050612e61565b601b54601a54612cc99161503f565b421015612d135760006040518060400160405280601d81526020017f76657374696e6720636c696666206e6f74207965742072656163686564000000815250935093505050612e61565b601d54600090612d7a5742612d35601c54601a5461503f90919063ffffffff16565b11612d4b57612d4483836152b0565b9050612d75565b612d7282612d6c601c54612168601a5442038861509990919063ffffffff16565b906152b0565b90505b612e33565b6000601c54601a54420381612d8b57fe5b601d5491900491508110612daa57612da384846152b0565b9150612e31565b6000612de264e8d4a51000606402612168601d8581548110612dc857fe5b90600052602060002001548861509990919063ffffffff16565b905083811015612e235760405162461bcd60e51b815260040180806020018281038252602c815260200180615e1a602c913960400191505060405180910390fd5b612e2d81856152b0565b9250505b505b60408051808201909152600f81526e726561647920746f2072656465656d60881b6020820152909450925050505b915091565b6060612e72600561530d565b905090565b612e82600033613d32565b612ec1576040805162461bcd60e51b81526020600482015260196024820152600080516020615eb0833981519152604482015290519081900360640190fd5b61230f6153ad565b601454421190565b612ee9600080516020615e4683398151915233613d32565b612f28576040805162461bcd60e51b815260206004820152601c6024820152600080516020615d73833981519152604482015290519081900360640190fd5b612f336005826150f2565b15612f6d576040516001600160a01b038216907ff9b68063b051b82957fa193585681240904fed808db8b30fc5a2d2202c6ed62790600090a25b50565b60135442101590565b6009546001600160a01b031681565b6000612f92612f70565b8015612e725750612fa1612ec9565b15905090565b612fbf600080516020615e4683398151915233613d32565b612ffe576040805162461bcd60e51b815260206004820152601c6024820152600080516020615d73833981519152604482015290519081900360640190fd5b61300960058261544d565b15612f6d576040516001600160a01b038216907f2b6bf71b58b3583add364b3d9060ebf8019650f65f5be35f5464b9cb3e4ba2d490600090a250565b60208052816000526040600020818154811061306057600080fd5b90600052602060002001600091509150505481565b60005460ff1690565b60125481565b61308f600033613d32565b6130ce576040805162461bcd60e51b81526020600482015260196024820152600080516020615eb0833981519152604482015290519081900360640190fd5b6013544210613124576040805162461bcd60e51b815260206004820152601a60248201527f746f6b656e2073616c6520616c72656164792073746172746564000000000000604482015290519081900360640190fd5b601454838501101561317d576040805162461bcd60e51b815260206004820152601b60248201527f76657374696e67436c696666206265666f726520656e64446174650000000000604482015290519081900360640190fd5b818311156131d2576040805162461bcd60e51b815260206004820152601e60248201527f76657374696e67436c696666203e2076657374696e674475726174696f6e0000604482015290519081900360640190fd5b6312cff7806131ff82516000146131f55782516131f090600161503f565b6131f8565b60015b8490615099565b10613251576040805162461bcd60e51b815260206004820152601d60248201527f746f74616c2076657374696e672074696d65203e203130207965617273000000604482015290519081900360640190fd5b601a849055601b839055601c82905561326c601d6000615c25565b60018151106133fc57600082116132b45760405162461bcd60e51b8152600401808060200182810382526034815260200180615ca56034913960400191505060405180910390fd5b6000816000815181106132c357fe5b6020026020010151905064e8d4a510006064028110613329576040805162461bcd60e51b815260206004820152601c60248201527f66697273742076657374696e6720706572696f64203e3d203130302500000000604482015290519081900360640190fd5b601d8054600181810183556000929092527f6d4407e7be21f808e6509aa9fa9143369579dd7d760fe20a2c09680fc146134f018290555b82518110156133f9576133a983828151811061337857fe5b6020026020010151601d600184038154811061339057fe5b906000526020600020015461503f90919063ffffffff16565b9150655af3107a400082106133bd576133f9565b601d8054600181810183556000929092527f6d4407e7be21f808e6509aa9fa9143369579dd7d760fe20a2c09680fc146134f0183905501613360565b50505b50505050565b600061340d83615001565b1561341a57506000611cab565b61342383612a5f565b1561343057506001611cab565b61343a8383611c80565b9392505050565b600e54604080516370a0823160e01b815230600482015290516000926001600160a01b0316916370a08231916024808301926020929190829003018186803b15801561348c57600080fd5b505afa1580156134a0573d6000803e3d6000fd5b505050506040513d60208110156134b657600080fd5b5051905090565b6060612e72600361530d565b6134e1600080516020615e4683398151915233613d32565b613520576040805162461bcd60e51b815260206004820152601c6024820152600080516020615d73833981519152604482015290519081900360640190fd5b60028054821515600160a01b810260ff60a01b199092169190911790915560408051918252517fe905f7f52156c346547b9deb6fb3e2459db941ec55d073fd465129bf4b49fae69181900360200190a150565b601554151590565b6017546018541090565b60185481565b613596600033613d32565b6135d5576040805162461bcd60e51b81526020600482015260196024820152600080516020615eb0833981519152604482015290519081900360640190fd5b6135dd613075565b61227f576040805162461bcd60e51b815260206004820152601460248201527314185d5cd8589b194e881b9bdd081c185d5cd95960621b604482015290519081900360640190fd5b600e546001600160a01b031681565b6000815160411461368c576040805162461bcd60e51b815260206004820152601960248201527f7369676e6174757265206973206e6f7420363520627974657300000000000000604482015290519081900360640190fd5b61343a8261369985615462565b906154b3565b64e8d4a5100081565b6136b3600033613d32565b6136f2576040805162461bcd60e51b81526020600482015260196024820152600080516020615eb0833981519152604482015290519081900360640190fd5b8042106137305760405162461bcd60e51b8152600401808060200182810382526022815260200180615cd96022913960400191505060405180910390fd5b6014548110613786576040805162461bcd60e51b815260206004820152601a60248201527f656e642064617465206265666f72652073746172742064617465000000000000604482015290519081900360640190fd5b601355565b601e818154811061379b57600080fd5b600091825260209091206004909102018054600182015460028301546003909301546001600160a01b038316945065ffffffffffff600160a01b8404169360ff600160d01b8504811694600160d81b900416929187565b6137fd600033613d32565b61383c576040805162461bcd60e51b81526020600482015260196024820152600080516020615eb0833981519152604482015290519081900360640190fd5b61230f615533565b61384f600033613d32565b61388e576040805162461bcd60e51b81526020600482015260196024820152600080516020615eb0833981519152604482015290519081900360640190fd5b600780546001600160a01b0319166001600160a01b039390931692909217909155600855565b6138bf600033613d32565b6138fe576040805162461bcd60e51b81526020600482015260196024820152600080516020615eb0833981519152604482015290519081900360640190fd5b613906613075565b61394e576040805162461bcd60e51b815260206004820152601460248201527314185d5cd8589b194e881b9bdd081c185d5cd95960621b604482015290519081900360640190fd5b600e54604080516370a0823160e01b8152306004820152905161230f9233926001600160a01b03909116916370a0823191602480820192602092909190829003018186803b1580156126c757600080fd5b6000601a544210156139b357506000611b19565b601c546139c257506001611b19565b601c54601a544203816139d157fe5b04600101905090565b6139f2600080516020615e4683398151915233613d32565b613a31576040805162461bcd60e51b815260206004820152601c6024820152600080516020615d73833981519152604482015290519081900360640190fd5b613a3c60038261544d565b15612f6d576040516001600160a01b038216907fcdd2e9b91a56913d370075169cefa1602ba36be5301664f752192bb1709df75790600090a250565b60175481565b600082815260016020526040812061343a90836155b6565b6000611cab600e60009054906101000a90046001600160a01b03166001600160a01b031663313ce5676040518163ffffffff1660e01b815260040160206040518083038186803b158015613ae957600080fd5b505afa158015613afd573d6000803e3d6000fd5b505050506040513d6020811015613b1357600080fd5b505160125460ff909116600a0a90612168908590615099565b613b37600033613d32565b613b76576040805162461bcd60e51b81526020600482015260196024820152600080516020615eb0833981519152604482015290519081900360640190fd5b613b7e612ec9565b613bbd576040805162461bcd60e51b81526020600482015260186024820152600080516020615e66833981519152604482015290519081900360640190fd5b600e546001600160a01b0383811691161415613c20576040805162461bcd60e51b815260206004820152601b60248201527f746f6b656e2069732074686520746f6b656e20666f722073616c650000000000604482015290519081900360640190fd5b600f546001600160a01b0383811691161415613c83576040805162461bcd60e51b815260206004820152601b60248201527f746f6b656e206973207468652074726164652d696e20746f6b656e0000000000604482015290519081900360640190fd5b611c0681836001600160a01b03166370a08231306040518263ffffffff1660e01b815260040180826001600160a01b0316815260200191505060206040518083038186803b158015613cd457600080fd5b505afa158015613ce8573d6000803e3d6000fd5b505050506040513d6020811015613cfe57600080fd5b50516001600160a01b038516919061511c565b601d8181548110613d2157600080fd5b600091825260209091200154905081565b600082815260016020526040812061343a9083615107565b6011546301000000900460ff1681565b613d65600033613d32565b613da4576040805162461bcd60e51b81526020600482015260196024820152600080516020615eb0833981519152604482015290519081900360640190fd5b613dac613075565b613df4576040805162461bcd60e51b815260206004820152601460248201527314185d5cd8589b194e881b9bdd081c185d5cd95960621b604482015290519081900360640190fd5b60405133904780156108fc02916000818181858888f19350505050158015612f6d573d6000803e3d6000fd5b613e38600080516020615e4683398151915233613d32565b613e77576040805162461bcd60e51b815260206004820152601c6024820152600080516020615d73833981519152604482015290519081900360640190fd5b6000805b8251811015613ebf57613eab838281518110613e9357fe5b602002602001015160056150f290919063ffffffff16565b15613eb7576001909101905b600101613e7b565b508015611c06576040805182815290517fc2f03ca34d335e49d4d629b85db054d1ffb679b4fec2e06fe10d0e618b175ecb9181900360200190a15050565b60105481565b601e5490565b600081565b60115460ff1615613f66576040805162461bcd60e51b815260206004820152601e60248201527f73616c652068617320746f206265206e6f6e2041746f6d696320737761700000604482015290519081900360640190fd5b613f6e612ec9565b613fad576040805162461bcd60e51b81526020600482015260186024820152600080516020615e66833981519152604482015290519081900360640190fd5b613fb5613075565b15613ffa576040805162461bcd60e51b815260206004820152601060248201526f14185d5cd8589b194e881c185d5cd95960821b604482015290519081900360640190fd5b6140038161500e565b61404b576040805162461bcd60e51b815260206004820152601460248201527320b2323932b9b99034b9903737ba10313abcb2b960611b604482015290519081900360640190fd5b60008061405783612a6c565b915091506000821181906140e95760405162461bcd60e51b81526004018080602001828103825283818151815260200191508051906020019080838360005b838110156140ae578181015183820152602001614096565b50505050905090810190601f1680156140db5780820380516001836020036101000a031916815260200191505b509250505060405180910390fd5b506000601e84815481106140f957fe5b90600052602060002090600402016001015490506000601e858154811061411c57fe5b906000526020600020906004020160030154905081614144858361503f90919063ffffffff16565b11156141815760405162461bcd60e51b8152600401808060200182810382526044815260200180615dd66044913960600191505060405180910390fd5b8161418c828661503f565b14156141cc576001601e86815481106141a157fe5b600091825260209091206004909102018054911515600160d01b0260ff60d01b199092169190911790555b6141d6818561503f565b601e86815481106141e357fe5b6000918252602090912060036004909202010155600e5461420e906001600160a01b0316338661511c565b5050505050565b60085481565b622932e090565b6018546019540390565b601754601854101590565b61424f600080516020615e4683398151915233613d32565b61428e576040805162461bcd60e51b815260206004820152601c6024820152600080516020615d73833981519152604482015290519081900360640190fd5b600280546001600160a01b0319166001600160a01b0392909216919091179055565b6002546001600160a01b031681565b6142c7613075565b1561430c576040805162461bcd60e51b815260206004820152601060248201526f14185d5cd8589b194e881c185d5cd95960821b604482015290519081900360640190fd5b60115462010000900460ff16614369576040805162461bcd60e51b815260206004820152601860248201527f746f6b656e2073616c65206973206e6f742066756e6465640000000000000000604482015290519081900360640190fd5b614371612f88565b6143b8576040805162461bcd60e51b815260206004820152601360248201527239b0b632903430b9903a379031329037b832b760691b604482015290519081900360640190fd5b6002548190600160a01b900460ff1615614489576002546001600160a01b031661443b576143e533612a5f565b614436576040805162461bcd60e51b815260206004820152601960248201527f6e6f74206f6e206f6e2d636861696e2077686974656c69737400000000000000604482015290519081900360640190fd5b614489565b6144453382613402565b614489576040805162461bcd60e51b815260206004820152601060248201526f1b9bdd081bdb881dda1a5d195b1a5cdd60821b604482015290519081900360640190fd5b600061449433612336565b6144e5576040805162461bcd60e51b815260206004820181905260248201527f61646472657373206e6f742077686974656c697374656420666f7220504f4c53604482015290519081900360640190fd5b6144ed611b0b565b1561454c5750346144fd84613a96565b811015614547576040805162461bcd60e51b81526020600482015260136024820152721b9bdd08195b9bdd59da08115512081cd95b9d606a1b604482015290519081900360640190fd5b614570565b61455584613a96565b600f54909150614570906001600160a01b03163330846155c2565b614578614222565b8411156145cc576040805162461bcd60e51b815260206004820152601960248201527f616d6f756e74203e20746f6b656e7320617661696c61626c6500000000000000604482015290519081900360640190fd5b601554841015614623576040805162461bcd60e51b815260206004820152601760248201527f616d6f756e74203c206d696e696d756d20616d6f756e74000000000000000000604482015290519081900360640190fd5b60165484111561467a576040805162461bcd60e51b815260206004820152601760248201527f616d6f756e74203e206d6178696d756d20616d6f756e74000000000000000000604482015290519081900360640190fd5b33600090815260208080526040808320805482518185028101850190935280835291929091908301828280156146cf57602002820191906000526020600020905b8154815260200190600101908083116146bb575b505050505090506000805b825181101561473157614727601e8483815181106146f457fe5b60200260200101518154811061470657fe5b9060005260206000209060040201600101548361503f90919063ffffffff16565b91506001016146da565b5060165461473f828861503f565b1115614792576040805162461bcd60e51b815260206004820152601f60248201527f616d6f756e7420676f6573206f76657220696e646976696475616c206d617800604482015290519081900360640190fd5b60115460ff16156147b457600e546147b4906001600160a01b0316338861511c565b601e6040518060e00160405280336001600160a01b031681526020016147d94261561c565b65ffffffffffff908116825260115460ff1615156020808401919091526000604080850182905260608086018e905260808087018c905260a0968701849052885460018181018b55998552858520895160049092020180548a8801518b870151958c01511515600160d81b0260ff60d81b19961515600160d01b0260ff60d01b1992909b16600160a01b0265ffffffffffff60a01b196001600160a01b039096166001600160a01b03199485161795909516949094171698909817939093161782558701518189015594860151600286015560c09095015160039094019390935533808452818052938320601e548154808801835591855291842060001992909201910155601f805494850181559091527fa03837a25210ee280c2113ff4b77ca23440b19d4866cca721c801278fd08d8079092018054909216179055601854614923908761503f565b60185560408051878152426020820152815133927fbec109f7ee137de661c6887caa96653c0545050a9908a3b6eb5190440bbec864928290030190a2505050505050565b7383e6f1e41cdd28eaceb20cb649155049fac3d5aa81565b600f546001600160a01b031681565b60145481565b6001600160a01b038116600090815260208080526040918290208054835181840281018401909452808452606093928301828280156149f257602002820191906000526020600020905b8154815260200190600101908083116149de575b50505050509050919050565b601d54600090614a1057506000611b19565b50601d5460010190565b614a25600033613d32565b614a64576040805162461bcd60e51b81526020600482015260196024820152600080516020615eb0833981519152604482015290519081900360640190fd5b614a6c612ec9565b614aab576040805162461bcd60e51b81526020600482015260186024820152600080516020615e66833981519152604482015290519081900360640190fd5b6011546301000000900460ff1615614ac257600080fd5b6000614acc61357b565b15614ada5750601954614aec565b601854601954614ae9916152b0565b90505b8015612f6d576011805463ff00000019166301000000179055600e54612f6d906001600160a01b0316338361511c565b6000818152600160205260408120611cab9061567d565b614b3b612769565b614b8c576040805162461bcd60e51b815260206004820152601a60248201527f6e6f74206265666f72652073746172742074696d652f64617465000000000000604482015290519081900360640190fd5b601954614ba182614b9b613441565b9061503f565b1115614bf4576040805162461bcd60e51b815260206004820181905260248201527f6d6f726520746f6b656e73207468616e206e656564656420666f722073616c65604482015290519081900360640190fd5b600e54614c0c906001600160a01b03163330846155c2565b612f6d614ed5565b601154610100900460ff1681565b6007546001600160a01b031681565b600082815260016020526040902060020154614c4f9061278f6151da565b61283f5760405162461bcd60e51b8152600401808060200182810382526030815260200180615d436030913960400191505060405180910390fd5b60008060006060614c9a8561232f565b614cdf57505060408051808201909152601a8152791c1d5c98da185cd957da5908191bd95cc81b9bdd08195e1a5cdd60321b6020820152600092508291508190614d30565b601e8581548110614cec57fe5b9060005260206000209060040201600101549350601e8581548110614d0d57fe5b9060005260206000209060040201600301549250614d2a85612a6c565b90925090505b9193509193565b614d42600033613d32565b614d81576040805162461bcd60e51b81526020600482015260196024820152600080516020615eb0833981519152604482015290519081900360640190fd5b601554811015614dd8576040805162461bcd60e51b815260206004820152601b60248201527f696e646976696475616c206d6178203c206d696e20616d6f756e740000000000604482015290519081900360640190fd5b601655565b60165481565b614dfb600080516020615e4683398151915233613d32565b614e3a576040805162461bcd60e51b815260206004820152601c6024820152600080516020615d73833981519152604482015290519081900360640190fd5b614e456003826150f2565b15612f6d576040516001600160a01b038216907fa850ae9193f515cbae8d35e8925bd2be26627fc91bce650b8652ed254e9cab0390600090a250565b6002546000906001600160a01b0316614e9a8484613634565b6001600160a01b0316149392505050565b600080516020615e4683398151915281565b73aeb39b67f27b641ef9f95fb74f1a46b1ee4efc8381565b614edd612769565b614f2e576040805162461bcd60e51b815260206004820152601a60248201527f6e6f74206265666f72652073746172742074696d652f64617465000000000000604482015290519081900360640190fd5b601954614f39613441565b1061230f576011805462ff0000191662010000179055565b6000612e72601954613a96565b600d5481565b601f8181548110614f7457600080fd5b6000918252602090912001546001600160a01b0316905081565b601b5481565b6060601f805480602002602001604051908101604052809291908181526020018280548015614fec57602002820191906000526020600020905b81546001600160a01b03168152600190910190602001808311614fce575b5050505050905090565b6060612e7233614994565b6000611cab600583615107565b6000601e828154811061501d57fe5b60009182526020909120600490910201546001600160a01b0316331492915050565b60008282018381101561343a576040805162461bcd60e51b815260206004820152601b60248201527f536166654d6174683a206164646974696f6e206f766572666c6f770000000000604482015290519081900360640190fd5b6000826150a857506000611cab565b828202828482816150b557fe5b041461343a5760405162461bcd60e51b8152600401808060200182810382526021815260200180615db56021913960400191505060405180910390fd5b600061343a836001600160a01b038416615688565b600061343a836001600160a01b0384166156d2565b604080516001600160a01b038416602482015260448082018490528251808303909101815260649091019091526020810180516001600160e01b031663a9059cbb60e01b17905261516e9084906156ea565b505050565b60008082116151c9576040805162461bcd60e51b815260206004820152601a60248201527f536166654d6174683a206469766973696f6e206279207a65726f000000000000604482015290519081900360640190fd5b8183816151d257fe5b049392505050565b3390565b60008281526001602052604090206151f690826150f2565b15611c06576152036151da565b6001600160a01b0316816001600160a01b0316837f2f8788117e7eff1d82e926ec794901d17c78024a50270940304540a733656f0d60405160405180910390a45050565b600082815260016020526040902061525f908261544d565b15611c065761526c6151da565b6001600160a01b0316816001600160a01b0316837ff6391f5c32d9c69d2a47ea670b442974b53935d1edc7fd64eb21e047a839171b60405160405180910390a45050565b600082821115615307576040805162461bcd60e51b815260206004820152601e60248201527f536166654d6174683a207375627472616374696f6e206f766572666c6f770000604482015290519081900360640190fd5b50900390565b6060600061531a8361567d565b67ffffffffffffffff8111801561533057600080fd5b5060405190808252806020026020018201604052801561535a578160200160208202803683370190505b50905060005b6153698461567d565b8110156153a65761537a84826155b6565b82828151811061538657fe5b6001600160a01b0390921660209283029190910190910152600101615360565b5092915050565b6153b5613075565b6153fd576040805162461bcd60e51b815260206004820152601460248201527314185d5cd8589b194e881b9bdd081c185d5cd95960621b604482015290519081900360640190fd5b6000805460ff191690557f5db9ee0a495bf2e6ff9c91a7834c1ba4fdd244a5e8aa4e537bd38aeae4b073aa6154306151da565b604080516001600160a01b039092168252519081900360200190a1565b600061343a836001600160a01b03841661579b565b604080517f19457468657265756d205369676e6564204d6573736167653a0a333200000000602080830191909152603c8083019490945282518083039094018452605c909101909152815191012090565b6000815160411461550b576040805162461bcd60e51b815260206004820152601f60248201527f45434453413a20696e76616c6964207369676e6174757265206c656e67746800604482015290519081900360640190fd5b60208201516040830151606084015160001a61552986828585615861565b9695505050505050565b61553b613075565b15615580576040805162461bcd60e51b815260206004820152601060248201526f14185d5cd8589b194e881c185d5cd95960821b604482015290519081900360640190fd5b6000805460ff191660011790557f62e78cea01bee320cd4e420270b5ea74000d11b0c9f74754ebdbfc544b05a2586154306151da565b600061343a83836159df565b604080516001600160a01b0380861660248301528416604482015260648082018490528251808303909101815260849091019091526020810180516001600160e01b03166323b872dd60e01b1790526133fc9085906156ea565b600066010000000000008210615679576040805162461bcd60e51b815260206004820152601c60248201527f76616c756520646f65736e27742066697420696e203438206269747300000000604482015290519081900360640190fd5b5090565b6000611cab82615a43565b600061569483836156d2565b6156ca57508154600181810184556000848152602080822090930184905584548482528286019093526040902091909155611cab565b506000611cab565b60009081526001919091016020526040902054151590565b600061573f826040518060400160405280602081526020017f5361666545524332303a206c6f772d6c6576656c2063616c6c206661696c6564815250856001600160a01b0316615a479092919063ffffffff16565b80519091501561516e5780806020019051602081101561575e57600080fd5b505161516e5760405162461bcd60e51b815260040180806020018281038252602a815260200180615e86602a913960400191505060405180910390fd5b6000818152600183016020526040812054801561585757835460001980830191908101906000908790839081106157ce57fe5b90600052602060002001549050808760000184815481106157eb57fe5b60009182526020808320909101929092558281526001898101909252604090209084019055865487908061581b57fe5b60019003818190600052602060002001600090559055866001016000878152602001908152602001600020600090556001945050505050611cab565b6000915050611cab565b60007f7fffffffffffffffffffffffffffffff5d576e7357a4501ddfe92f46681b20a08211156158c25760405162461bcd60e51b8152600401808060200182810382526022815260200180615cfb6022913960400191505060405180910390fd5b8360ff16601b14806158d757508360ff16601c145b6159125760405162461bcd60e51b8152600401808060200182810382526022815260200180615d936022913960400191505060405180910390fd5b600060018686868660405160008152602001604052604051808581526020018460ff1681526020018381526020018281526020019450505050506020604051602081039080840390855afa15801561596e573d6000803e3d6000fd5b5050604051601f1901519150506001600160a01b0381166159d6576040805162461bcd60e51b815260206004820152601860248201527f45434453413a20696e76616c6964207369676e61747572650000000000000000604482015290519081900360640190fd5b95945050505050565b81546000908210615a215760405162461bcd60e51b8152600401808060200182810382526022815260200180615c546022913960400191505060405180910390fd5b826000018281548110615a3057fe5b9060005260206000200154905092915050565b5490565b6060615a568484600085615a5e565b949350505050565b606082471015615a9f5760405162461bcd60e51b8152600401808060200182810382526026815260200180615d1d6026913960400191505060405180910390fd5b615aa885615bb9565b615af9576040805162461bcd60e51b815260206004820152601d60248201527f416464726573733a2063616c6c20746f206e6f6e2d636f6e7472616374000000604482015290519081900360640190fd5b600080866001600160a01b031685876040518082805190602001908083835b60208310615b375780518252601f199092019160209182019101615b18565b6001836020036101000a03801982511681845116808217855250505050505090500191505060006040518083038185875af1925050503d8060008114615b99576040519150601f19603f3d011682016040523d82523d6000602084013e615b9e565b606091505b5091509150615bae828286615bbf565b979650505050505050565b3b151590565b60608315615bce57508161343a565b825115615bde5782518084602001fd5b60405162461bcd60e51b81526020600482018181528451602484015284518593919283926044019190850190808383600083156140ae578181015183820152602001614096565b5080546000825590600052602060002090810190612f6d91905b808211156156795760008155600101615c3f56fe456e756d657261626c655365743a20696e646578206f7574206f6620626f756e6473416363657373436f6e74726f6c3a2073656e646572206d75737420626520616e2061646d696e20746f206772616e7476657374696e6720696e74657276616c6c732070726f76696465642c206275742076657374696e674475726174696f6e203d2030737461727420646174652068617320746f20626520696e207468652066757475726545434453413a20696e76616c6964207369676e6174757265202773272076616c7565416464726573733a20696e73756666696369656e742062616c616e636520666f722063616c6c416363657373436f6e74726f6c3a2073656e646572206d75737420626520616e2061646d696e20746f207265766f6b6563616c6c6572206973206e6f742057686974656c6973744f776e65720000000045434453413a20696e76616c6964207369676e6174757265202776272076616c7565536166654d6174683a206d756c7469706c69636174696f6e206f766572666c6f77494e5445524e414c204552524f52203a20616d6f756e7452656465656d656420776f756c64206265206c6172676572207468656e20707572636861736520616d6f756e74494e5445524e414c204552524f5220696e2076657374696e6720616d6f756e742063616c63756c6174696f6eb813b807c25079ba97f1770664c6a9e57c59afe74a6295f1ed01c10e3bb6baae73616c652068617320746f2062652066696e616c697a656400000000000000005361666545524332303a204552433230206f7065726174696f6e20646964206e6f74207375636365656463616c6c657220686173206e6f742061646d696e20726f6c6500000000000000416363657373436f6e74726f6c3a2063616e206f6e6c792072656e6f756e636520726f6c657320666f722073656c66a2646970667358221220726cadae4d470c296e11b2cf0d9387df53ec0cc5be1f9d7c5a44d436987c196464736f6c6343000706003376657374696e6720696e74657276616c6c732070726f76696465642c206275742076657374696e674475726174696f6e203d20306d4407e7be21f808e6509aa9fa9143369579dd7d760fe20a2c09680fc146134f536166654d6174683a206d756c7469706c69636174696f6e206f766572666c6f7763616c6c657220686173206e6f742061646d696e20726f6c6500000000000000",
  "linkReferences": {},
  "deployedLinkReferences": {}
}