{
  "_format": "hh-sol-artifact-1",
  "contractName": "StakingRewards",
  "sourceName": "contracts/StakingRewards.sol",
  "abi": [
    {
      "inputs": [
        {
          "internalType": "address",
          "name": "_owner",
          "type": "address"
        },
        {
          "internalType": "address",
          "name": "_rewardsDistribution",
          "type": "address"
        },
        {
          "internalType": "address",
          "name": "_rewardsToken",
          "type": "address"
        },
        {
          "internalType": "address",
          "name": "_stakingToken",
          "type": "address"
        },
        {
          "internalType": "uint256",
          "name": "_rewardsDuration",
          "type": "uint256"
        },
        {
          "internalType": "address",
          "name": "_tokenSaleAddress",
          "type": "address"
        }
      ],
      "stateMutability": "nonpayable",
      "type": "constructor"
    },
    {
      "anonymous": false,
      "inputs": [
        {
          "indexed": false,
          "internalType": "address",
          "name": "oldOwner",
          "type": "address"
        },
        {
          "indexed": false,
          "internalType": "address",
          "name": "newOwner",
          "type": "address"
        }
      ],
      "name": "OwnerChanged",
      "type": "event"
    },
    {
      "anonymous": false,
      "inputs": [
        {
          "indexed": false,
          "internalType": "address",
          "name": "newOwner",
          "type": "address"
        }
      ],
      "name": "OwnerNominated",
      "type": "event"
    },
    {
      "anonymous": false,
      "inputs": [
        {
          "indexed": false,
          "internalType": "address",
          "name": "account",
          "type": "address"
        }
      ],
      "name": "Paused",
      "type": "event"
    },
    {
      "anonymous": false,
      "inputs": [
        {
          "indexed": false,
          "internalType": "address",
          "name": "token",
          "type": "address"
        },
        {
          "indexed": false,
          "internalType": "uint256",
          "name": "amount",
          "type": "uint256"
        }
      ],
      "name": "Recovered",
      "type": "event"
    },
    {
      "anonymous": false,
      "inputs": [
        {
          "indexed": false,
          "internalType": "uint256",
          "name": "reward",
          "type": "uint256"
        }
      ],
      "name": "RewardAdded",
      "type": "event"
    },
    {
      "anonymous": false,
      "inputs": [
        {
          "indexed": true,
          "internalType": "address",
          "name": "user",
          "type": "address"
        },
        {
          "indexed": false,
          "internalType": "uint256",
          "name": "reward",
          "type": "uint256"
        }
      ],
      "name": "RewardPaid",
      "type": "event"
    },
    {
      "anonymous": false,
      "inputs": [
        {
          "indexed": false,
          "internalType": "uint256",
          "name": "newDuration",
          "type": "uint256"
        }
      ],
      "name": "RewardsDurationUpdated",
      "type": "event"
    },
    {
      "anonymous": false,
      "inputs": [
        {
          "indexed": true,
          "internalType": "address",
          "name": "user",
          "type": "address"
        },
        {
          "indexed": false,
          "internalType": "uint256",
          "name": "amount",
          "type": "uint256"
        }
      ],
      "name": "Staked",
      "type": "event"
    },
    {
      "anonymous": false,
      "inputs": [
        {
          "indexed": false,
          "internalType": "address",
          "name": "account",
          "type": "address"
        }
      ],
      "name": "Unpaused",
      "type": "event"
    },
    {
      "anonymous": false,
      "inputs": [
        {
          "indexed": true,
          "internalType": "address",
          "name": "user",
          "type": "address"
        },
        {
          "indexed": false,
          "internalType": "uint256",
          "name": "amount",
          "type": "uint256"
        }
      ],
      "name": "Withdrawn",
      "type": "event"
    },
    {
      "inputs": [],
      "name": "acceptOwnership",
      "outputs": [],
      "stateMutability": "nonpayable",
      "type": "function"
    },
    {
      "inputs": [
        {
          "internalType": "address",
          "name": "account",
          "type": "address"
        }
      ],
      "name": "balanceOf",
      "outputs": [
        {
          "internalType": "uint256",
          "name": "",
          "type": "uint256"
        }
      ],
      "stateMutability": "view",
      "type": "function"
    },
    {
      "inputs": [],
      "name": "balanceRewardsToken",
      "outputs": [
        {
          "internalType": "uint256",
          "name": "",
          "type": "uint256"
        }
      ],
      "stateMutability": "view",
      "type": "function"
    },
    {
      "inputs": [
        {
          "internalType": "address",
          "name": "account",
          "type": "address"
        }
      ],
      "name": "earned",
      "outputs": [
        {
          "internalType": "uint256",
          "name": "",
          "type": "uint256"
        }
      ],
      "stateMutability": "view",
      "type": "function"
    },
    {
      "inputs": [],
      "name": "exit",
      "outputs": [],
      "stateMutability": "nonpayable",
      "type": "function"
    },
    {
      "inputs": [],
      "name": "getReward",
      "outputs": [],
      "stateMutability": "nonpayable",
      "type": "function"
    },
    {
      "inputs": [],
      "name": "getRewardForDuration",
      "outputs": [
        {
          "internalType": "uint256",
          "name": "",
          "type": "uint256"
        }
      ],
      "stateMutability": "view",
      "type": "function"
    },
    {
      "inputs": [],
      "name": "lastTimeRewardApplicable",
      "outputs": [
        {
          "internalType": "uint256",
          "name": "",
          "type": "uint256"
        }
      ],
      "stateMutability": "view",
      "type": "function"
    },
    {
      "inputs": [],
      "name": "lastUpdateTime",
      "outputs": [
        {
          "internalType": "uint256",
          "name": "",
          "type": "uint256"
        }
      ],
      "stateMutability": "view",
      "type": "function"
    },
    {
      "inputs": [
        {
          "internalType": "address",
          "name": "_owner",
          "type": "address"
        }
      ],
      "name": "nominateNewOwner",
      "outputs": [],
      "stateMutability": "nonpayable",
      "type": "function"
    },
    {
      "inputs": [],
      "name": "nominatedOwner",
      "outputs": [
        {
          "internalType": "address",
          "name": "",
          "type": "address"
        }
      ],
      "stateMutability": "view",
      "type": "function"
    },
    {
      "inputs": [
        {
          "internalType": "uint256",
          "name": "reward",
          "type": "uint256"
        }
      ],
      "name": "notifyRewardAmount",
      "outputs": [],
      "stateMutability": "nonpayable",
      "type": "function"
    },
    {
      "inputs": [
        {
          "internalType": "uint256",
          "name": "reward",
          "type": "uint256"
        }
      ],
      "name": "notifyRewardAmountSamePeriod",
      "outputs": [],
      "stateMutability": "nonpayable",
      "type": "function"
    },
    {
      "inputs": [],
      "name": "owner",
      "outputs": [
        {
          "internalType": "address",
          "name": "",
          "type": "address"
        }
      ],
      "stateMutability": "view",
      "type": "function"
    },
    {
      "inputs": [],
      "name": "pause",
      "outputs": [],
      "stateMutability": "nonpayable",
      "type": "function"
    },
    {
      "inputs": [],
      "name": "paused",
      "outputs": [
        {
          "internalType": "bool",
          "name": "",
          "type": "bool"
        }
      ],
      "stateMutability": "view",
      "type": "function"
    },
    {
      "inputs": [],
      "name": "periodFinish",
      "outputs": [
        {
          "internalType": "uint256",
          "name": "",
          "type": "uint256"
        }
      ],
      "stateMutability": "view",
      "type": "function"
    },
    {
      "inputs": [
        {
          "internalType": "address",
          "name": "tokenAddress",
          "type": "address"
        }
      ],
      "name": "recoverERC20",
      "outputs": [],
      "stateMutability": "nonpayable",
      "type": "function"
    },
    {
      "inputs": [],
      "name": "rewardPerToken",
      "outputs": [
        {
          "internalType": "uint256",
          "name": "",
          "type": "uint256"
        }
      ],
      "stateMutability": "view",
      "type": "function"
    },
    {
      "inputs": [],
      "name": "rewardPerTokenStored",
      "outputs": [
        {
          "internalType": "uint256",
          "name": "",
          "type": "uint256"
        }
      ],
      "stateMutability": "view",
      "type": "function"
    },
    {
      "inputs": [],
      "name": "rewardRate",
      "outputs": [
        {
          "internalType": "uint256",
          "name": "",
          "type": "uint256"
        }
      ],
      "stateMutability": "view",
      "type": "function"
    },
    {
      "inputs": [
        {
          "internalType": "address",
          "name": "",
          "type": "address"
        }
      ],
      "name": "rewards",
      "outputs": [
        {
          "internalType": "uint256",
          "name": "",
          "type": "uint256"
        }
      ],
      "stateMutability": "view",
      "type": "function"
    },
    {
      "inputs": [],
      "name": "rewardsDistribution",
      "outputs": [
        {
          "internalType": "address",
          "name": "",
          "type": "address"
        }
      ],
      "stateMutability": "view",
      "type": "function"
    },
    {
      "inputs": [],
      "name": "rewardsDuration",
      "outputs": [
        {
          "internalType": "uint256",
          "name": "",
          "type": "uint256"
        }
      ],
      "stateMutability": "view",
      "type": "function"
    },
    {
      "inputs": [],
      "name": "rewardsToken",
      "outputs": [
        {
          "internalType": "contract IERC20",
          "name": "",
          "type": "address"
        }
      ],
      "stateMutability": "view",
      "type": "function"
    },
    {
      "inputs": [],
      "name": "rewardsTokenAllocated",
      "outputs": [
        {
          "internalType": "uint256",
          "name": "",
          "type": "uint256"
        }
      ],
      "stateMutability": "view",
      "type": "function"
    },
    {
      "inputs": [
        {
          "internalType": "address",
          "name": "_rewardsDistribution",
          "type": "address"
        }
      ],
      "name": "setRewardsDistribution",
      "outputs": [],
      "stateMutability": "nonpayable",
      "type": "function"
    },
    {
      "inputs": [
        {
          "internalType": "uint256",
          "name": "_rewardsDuration",
          "type": "uint256"
        }
      ],
      "name": "setRewardsDuration",
      "outputs": [],
      "stateMutability": "nonpayable",
      "type": "function"
    },
    {
      "inputs": [
        {
          "internalType": "address",
          "name": "_tokenSaleAddress",
          "type": "address"
        }
      ],
      "name": "setTokenSaleAddress",
      "outputs": [],
      "stateMutability": "nonpayable",
      "type": "function"
    },
    {
      "inputs": [
        {
          "internalType": "bool",
          "name": "_userStakeEnabled",
          "type": "bool"
        }
      ],
      "name": "setuserStakeEnabled",
      "outputs": [],
      "stateMutability": "nonpayable",
      "type": "function"
    },
    {
      "inputs": [
        {
          "internalType": "uint256",
          "name": "amount",
          "type": "uint256"
        }
      ],
      "name": "stake",
      "outputs": [],
      "stateMutability": "nonpayable",
      "type": "function"
    },
    {
      "inputs": [
        {
          "internalType": "uint256",
          "name": "amount",
          "type": "uint256"
        },
        {
          "internalType": "address",
          "name": "userAccount",
          "type": "address"
        }
      ],
      "name": "stakeTransfer",
      "outputs": [],
      "stateMutability": "nonpayable",
      "type": "function"
    },
    {
      "inputs": [],
      "name": "stakingToken",
      "outputs": [
        {
          "internalType": "contract IERC20",
          "name": "",
          "type": "address"
        }
      ],
      "stateMutability": "view",
      "type": "function"
    },
    {
      "inputs": [],
      "name": "tokenSaleAddress",
      "outputs": [
        {
          "internalType": "address",
          "name": "",
          "type": "address"
        }
      ],
      "stateMutability": "view",
      "type": "function"
    },
    {
      "inputs": [],
      "name": "totalSupply",
      "outputs": [
        {
          "internalType": "uint256",
          "name": "",
          "type": "uint256"
        }
      ],
      "stateMutability": "view",
      "type": "function"
    },
    {
      "inputs": [
        {
          "internalType": "uint256",
          "name": "reward",
          "type": "uint256"
        }
      ],
      "name": "transferRewardToken",
      "outputs": [],
      "stateMutability": "nonpayable",
      "type": "function"
    },
    {
      "inputs": [
        {
          "internalType": "uint256",
          "name": "reward",
          "type": "uint256"
        }
      ],
      "name": "transferRewardTokenSamePeriod",
      "outputs": [],
      "stateMutability": "nonpayable",
      "type": "function"
    },
    {
      "inputs": [],
      "name": "unpause",
      "outputs": [],
      "stateMutability": "nonpayable",
      "type": "function"
    },
    {
      "inputs": [
        {
          "internalType": "uint256",
          "name": "timestamp",
          "type": "uint256"
        }
      ],
      "name": "updatePeriodFinish",
      "outputs": [],
      "stateMutability": "nonpayable",
      "type": "function"
    },
    {
      "inputs": [
        {
          "internalType": "address",
          "name": "",
          "type": "address"
        }
      ],
      "name": "userRewardPerTokenPaid",
      "outputs": [
        {
          "internalType": "uint256",
          "name": "",
          "type": "uint256"
        }
      ],
      "stateMutability": "view",
      "type": "function"
    },
    {
      "inputs": [],
      "name": "userStakeEnabled",
      "outputs": [
        {
          "internalType": "bool",
          "name": "",
          "type": "bool"
        }
      ],
      "stateMutability": "view",
      "type": "function"
    },
    {
      "inputs": [
        {
          "internalType": "uint256",
          "name": "amount",
          "type": "uint256"
        }
      ],
      "name": "withdraw",
      "outputs": [],
      "stateMutability": "nonpayable",
      "type": "function"
    },
    {
      "inputs": [],
      "name": "withdrawAll",
      "outputs": [],
      "stateMutability": "nonpayable",
      "type": "function"
    }
  ],
  "bytecode": "0x608060405234801561001057600080fd5b50604051612053380380612053833981810160405260c081101561003357600080fd5b508051602082015160408301516060840151608085015160a09095015193949293919290916001600160a01b0386161561006d578561006f565b335b6001600160a01b0381166100ca576040805162461bcd60e51b815260206004820152601960248201527f4f776e657220616464726573732063616e6e6f74206265203000000000000000604482015290519081900360640190fd5b600080546001600160a01b0319166001600160a01b038316908117825560408051928352602083019190915280517fb532073b38c83145e3e5135377a08bf9aab55bc0fd7c1179cd4fb995d2a5159c9281900390910190a1506001600355600480546001600160a01b03958616610100026001600160a81b0319909116179055600580549385166001600160a01b031994851617905560028054958516958416959095179094556008556010805493909216921691909117905550611ebf806101946000396000f3fe608060405234801561001057600080fd5b50600436106102685760003560e01c806372f702f3116101515780638fa2300b116100c3578063cd3daf9d11610087578063cd3daf9d14610597578063d1af0c7d1461059f578063df136d65146105a7578063e9fad8ee146105af578063ebe2b12b146105b7578063f68df5b9146105bf57610268565b80638fa2300b146105125780639e8c708e1461052f578063a694fc3a14610555578063c8f33c9114610572578063cc1a378f1461057a57610268565b80638456cb59116101155780638456cb59146104a0578063853828b6146104a85780638b1e31c7146104b05780638b876347146104dc5780638bf6fb31146105025780638da5cb5b1461050a57610268565b806372f702f314610463578063741872a61461046b57806379ba5097146104885780637b0a47ee1461049057806380faa57d1461049857610268565b8063386a9525116101ea5780633fc6df6e116101ae5780633fc6df6e146103e257806353a47bb7146103ea578063556f6e6b146103f25780635afe52071461040f5780635c975abb1461043557806370a082311461043d57610268565b8063386a9525146103a55780633c6b16ab146103ad5780633d18b912146103ca5780633d356aa9146103d25780633f4ba83a146103da57610268565b80631976214311610231578063197621431461031f5780631c1f78eb1461034557806326838b181461034d5780632e1a7d4d1461036c578063311c6c1c1461038957610268565b80628cc2621461026d5780630700037d146102a55780631448b3ca146102cb5780631627540c146102ef57806318160ddd14610317575b600080fd5b6102936004803603602081101561028357600080fd5b50356001600160a01b03166105dc565b60408051918252519081900360200190f35b610293600480360360208110156102bb57600080fd5b50356001600160a01b031661065a565b6102d361066c565b604080516001600160a01b039092168252519081900360200190f35b6103156004803603602081101561030557600080fd5b50356001600160a01b031661067b565b005b6102936106d7565b6103156004803603602081101561033557600080fd5b50356001600160a01b03166106de565b610293610708565b6103156004803603602081101561036357600080fd5b50351515610726565b6103156004803603602081101561038257600080fd5b503561074c565b61039161087f565b604080519115158252519081900360200190f35b61029361088f565b610315600480360360208110156103c357600080fd5b5035610895565b610315610a10565b610293610ae8565b610315610ba8565b6102d3610bba565b6102d3610bc9565b6103156004803603602081101561040857600080fd5b5035610bd8565b6103156004803603602081101561042557600080fd5b50356001600160a01b0316610bf1565b610391610c1b565b6102936004803603602081101561045357600080fd5b50356001600160a01b0316610c24565b6102d3610c3f565b6103156004803603602081101561048157600080fd5b5035610c4e565b610315610cc7565b610293610d83565b610293610d89565b610315610d97565b610315610da7565b610315600480360360408110156104c657600080fd5b50803590602001356001600160a01b0316610dc0565b610293600480360360208110156104f257600080fd5b50356001600160a01b0316610f9a565b610293610fac565b6102d3610fb2565b6103156004803603602081101561052857600080fd5b5035610fc1565b6103156004803603602081101561054557600080fd5b50356001600160a01b0316611032565b6103156004803603602081101561056b57600080fd5b5035611203565b6102936113df565b6103156004803603602081101561059057600080fd5b50356113e5565b610293611468565b6102d36114b6565b6102936114ca565b6103156114d0565b6102936114f1565b610315600480360360208110156105d557600080fd5b50356114f7565b6001600160a01b0381166000908152600d6020908152604080832054600c909252822054610654919061064e90670de0b6b3a7640000906106489061062990610623611468565b906115d7565b6001600160a01b0388166000908152600f602052604090205490611634565b90611694565b906116fb565b92915050565b600d6020526000908152604090205481565b6010546001600160a01b031681565b610683611755565b600180546001600160a01b0383166001600160a01b0319909116811790915560408051918252517f906a1c6bd7e3091ea86693dd029a831c19049ce77f1dce2ce0bab1cacbabce229181900360200190a150565b600e545b90565b6106e6611755565b600280546001600160a01b0319166001600160a01b0392909216919091179055565b600061072160085460075461163490919063ffffffff16565b905090565b61072e611755565b60108054911515600160a01b0260ff60a01b19909216919091179055565b60026003541415610792576040805162461bcd60e51b815260206004820152601f6024820152600080516020611d15833981519152604482015290519081900360640190fd5b6002600355336107a18161179e565b600082116107ea576040805162461bcd60e51b8152602060048201526011602482015270043616e6e6f74207769746864726177203607c1b604482015290519081900360640190fd5b600e546107f790836115d7565b600e55336000908152600f602052604090205461081490836115d7565b336000818152600f6020526040902091909155600554610840916001600160a01b0390911690846117fb565b60408051838152905133917f7084f5476618d8e60b11ef0d7d3f06914655adb8793e28ff7f018d4c76d505d5919081900360200190a250506001600355565b601054600160a01b900460ff1681565b60085481565b6002546001600160a01b031633146108de5760405162461bcd60e51b815260040180806020018281038252602a815260200180611e36602a913960400191505060405180910390fd5b60006108e98161179e565b600654421061090857600854610900908390611694565b60075561094b565b60065460009061091890426115d7565b905060006109316007548361163490919063ffffffff16565b6008549091506109459061064886846116fb565b60075550505b6000610955610ae8565b905061096c6008548261169490919063ffffffff16565b60075411156109c2576040805162461bcd60e51b815260206004820152601860248201527f50726f76696465642072657761726420746f6f20686967680000000000000000604482015290519081900360640190fd5b4260098190556008546109d591906116fb565b6006556040805184815290517fde88a922e0d3b88b24e9623efeb464919c6bf9f66857a65e2bfcf2ce87a9433d9181900360200190a1505050565b60026003541415610a56576040805162461bcd60e51b815260206004820152601f6024820152600080516020611d15833981519152604482015290519081900360640190fd5b600260035533610a658161179e565b336000908152600d60205260409020548015610adf57336000818152600d6020526040812055600454610aa8916101009091046001600160a01b031690836117fb565b60408051828152905133917fe2403640ba68fed3a2f88b7557551d1993f84b99bb10ff833f0cf8db0c5e0486919081900360200190a25b50506001600355565b600080600460019054906101000a90046001600160a01b03166001600160a01b03166370a08231306040518263ffffffff1660e01b815260040180826001600160a01b0316815260200191505060206040518083038186803b158015610b4d57600080fd5b505afa158015610b61573d6000803e3d6000fd5b505050506040513d6020811015610b7757600080fd5b50516005546004549192506001600160a01b0390811661010090920416141561072157600e546106549082906115d7565b610bb0611755565b610bb8611852565b565b6002546001600160a01b031681565b6001546001600160a01b031681565b610be0611755565b6000610beb8161179e565b50600655565b610bf9611755565b601080546001600160a01b0319166001600160a01b0392909216919091179055565b60045460ff1690565b6001600160a01b03166000908152600f602052604090205490565b6005546001600160a01b031681565b60026003541415610c94576040805162461bcd60e51b815260206004820152601f6024820152600080516020611d15833981519152604482015290519081900360640190fd5b6002600355600454610cb69061010090046001600160a01b03163330846118f2565b610cbf81610895565b506001600355565b6001546001600160a01b03163314610d105760405162461bcd60e51b8152600401808060200182810382526035815260200180611d356035913960400191505060405180910390fd5b600054600154604080516001600160a01b03938416815292909116602083015280517fb532073b38c83145e3e5135377a08bf9aab55bc0fd7c1179cd4fb995d2a5159c9281900390910190a160018054600080546001600160a01b03199081166001600160a01b03841617909155169055565b60075481565b600061072142600654611952565b610d9f611755565b610bb8611968565b336000908152600f6020526040902054610bb89061074c565b60026003541415610e06576040805162461bcd60e51b815260206004820152601f6024820152600080516020611d15833981519152604482015290519081900360640190fd5b6002600355610e13610c1b565b15610e58576040805162461bcd60e51b815260206004820152601060248201526f14185d5cd8589b194e881c185d5cd95960821b604482015290519081900360640190fd5b80610e628161179e565b6010546001600160a01b03163314610eab5760405162461bcd60e51b8152600401808060200182810382526022815260200180611e146022913960400191505060405180910390fd5b60008311610ef1576040805162461bcd60e51b815260206004820152600e60248201526d043616e6e6f74207374616b6520360941b604482015290519081900360640190fd5b600e54610efe90846116fb565b600e556001600160a01b0382166000908152600f6020526040902054610f2490846116fb565b6001600160a01b038084166000908152600f6020526040902091909155600554610f5191163330866118f2565b6040805184815290516001600160a01b038416917f9e71bc8eea02a63969f509818f2dafb9254532904319f9dbda79b67bd34a5f3d919081900360200190a25050600160035550565b600c6020526000908152604090205481565b600b5481565b6000546001600160a01b031681565b60026003541415611007576040805162461bcd60e51b815260206004820152601f6024820152600080516020611d15833981519152604482015290519081900360640190fd5b6002600355611015816114f7565b600454610cbf9061010090046001600160a01b03163330846118f2565b61103a611755565b6005546000906001600160a01b03838116911614801561107057506004546005546001600160a01b039081166101009092041614155b156110c2576040805162461bcd60e51b815260206004820152601e60248201527f63616e206e6f74207769746864726177207374616b656420746f6b656e730000604482015290519081900360640190fd5b6004546001600160a01b0383811661010090920416141561112c57426006541061111d5760405162461bcd60e51b8152600401808060200182810382526034815260200180611de06034913960400191505060405180910390fd5b611125610ae8565b90506111a1565b604080516370a0823160e01b815230600482015290516001600160a01b038416916370a08231916024808301926020929190829003018186803b15801561117257600080fd5b505afa158015611186573d6000803e3d6000fd5b505050506040513d602081101561119c57600080fd5b505190505b6000546111bb906001600160a01b038481169116836117fb565b604080516001600160a01b03841681526020810183905281517f8c1256b8896378cd5044f80c202f9772b9d77dc85c8a6eb51967210b09bfaa28929181900390910190a15050565b60026003541415611249576040805162461bcd60e51b815260206004820152601f6024820152600080516020611d15833981519152604482015290519081900360640190fd5b6002600355611256610c1b565b1561129b576040805162461bcd60e51b815260206004820152601060248201526f14185d5cd8589b194e881c185d5cd95960821b604482015290519081900360640190fd5b336112a58161179e565b601054600160a01b900460ff16611303576040805162461bcd60e51b815260206004820152601b60248201527f757365722063616e206e6f74206469726563746c79207374616b650000000000604482015290519081900360640190fd5b60008211611349576040805162461bcd60e51b815260206004820152600e60248201526d043616e6e6f74207374616b6520360941b604482015290519081900360640190fd5b600e5461135690836116fb565b600e55336000908152600f602052604090205461137390836116fb565b336000818152600f60205260409020919091556005546113a0916001600160a01b039091169030856118f2565b60408051838152905133917f9e71bc8eea02a63969f509818f2dafb9254532904319f9dbda79b67bd34a5f3d919081900360200190a250506001600355565b60095481565b6113ed611755565b600654421161142d5760405162461bcd60e51b8152600401808060200182810382526058815260200180611cbd6058913960600191505060405180910390fd5b60088190556040805182815290517ffb46ca5a5e06d4540d6387b930a7c978bce0db5f449ec6b3f5d07c6e1d44f2d39181900360200190a150565b6000600e546000141561147e5750600a546106db565b6107216114ad600e54610648670de0b6b3a76400006114a76007546114a7600954610623610d89565b90611634565b600a54906116fb565b60045461010090046001600160a01b031681565b600a5481565b336000908152600f60205260409020546114e99061074c565b610bb8610a10565b60065481565b6002546001600160a01b031633146115405760405162461bcd60e51b815260040180806020018281038252602a815260200180611e36602a913960400191505060405180910390fd5b600061154b8161179e565b600654421061157b576008546115629042906116fb565b600655600854611573908390611694565b60075561159c565b61159860075461064e42600654038561169490919063ffffffff16565b6007555b426009556040805183815290517fde88a922e0d3b88b24e9623efeb464919c6bf9f66857a65e2bfcf2ce87a9433d9181900360200190a15050565b60008282111561162e576040805162461bcd60e51b815260206004820152601e60248201527f536166654d6174683a207375627472616374696f6e206f766572666c6f770000604482015290519081900360640190fd5b50900390565b60008261164357506000610654565b8282028284828161165057fe5b041461168d5760405162461bcd60e51b8152600401808060200182810382526021815260200180611dbf6021913960400191505060405180910390fd5b9392505050565b60008082116116ea576040805162461bcd60e51b815260206004820152601a60248201527f536166654d6174683a206469766973696f6e206279207a65726f000000000000604482015290519081900360640190fd5b8183816116f357fe5b049392505050565b60008282018381101561168d576040805162461bcd60e51b815260206004820152601b60248201527f536166654d6174683a206164646974696f6e206f766572666c6f770000000000604482015290519081900360640190fd5b6000546001600160a01b03163314610bb85760405162461bcd60e51b815260040180806020018281038252602f815260200180611d90602f913960400191505060405180910390fd5b6117a6611468565b600a556117b1610d89565b6009556001600160a01b038116156117f8576117cc816105dc565b6001600160a01b0382166000908152600d6020908152604080832093909355600a54600c909152919020555b50565b604080516001600160a01b038416602482015260448082018490528251808303909101815260649091019091526020810180516001600160e01b031663a9059cbb60e01b17905261184d9084906119eb565b505050565b61185a610c1b565b6118a2576040805162461bcd60e51b815260206004820152601460248201527314185d5cd8589b194e881b9bdd081c185d5cd95960621b604482015290519081900360640190fd5b6004805460ff191690557f5db9ee0a495bf2e6ff9c91a7834c1ba4fdd244a5e8aa4e537bd38aeae4b073aa6118d5611a9c565b604080516001600160a01b039092168252519081900360200190a1565b604080516001600160a01b0380861660248301528416604482015260648082018490528251808303909101815260849091019091526020810180516001600160e01b03166323b872dd60e01b17905261194c9085906119eb565b50505050565b6000818310611961578161168d565b5090919050565b611970610c1b565b156119b5576040805162461bcd60e51b815260206004820152601060248201526f14185d5cd8589b194e881c185d5cd95960821b604482015290519081900360640190fd5b6004805460ff191660011790557f62e78cea01bee320cd4e420270b5ea74000d11b0c9f74754ebdbfc544b05a2586118d5611a9c565b6000611a40826040518060400160405280602081526020017f5361666545524332303a206c6f772d6c6576656c2063616c6c206661696c6564815250856001600160a01b0316611aa09092919063ffffffff16565b80519091501561184d57808060200190516020811015611a5f57600080fd5b505161184d5760405162461bcd60e51b815260040180806020018281038252602a815260200180611e60602a913960400191505060405180910390fd5b3390565b6060611aaf8484600085611ab7565b949350505050565b606082471015611af85760405162461bcd60e51b8152600401808060200182810382526026815260200180611d6a6026913960400191505060405180910390fd5b611b0185611c12565b611b52576040805162461bcd60e51b815260206004820152601d60248201527f416464726573733a2063616c6c20746f206e6f6e2d636f6e7472616374000000604482015290519081900360640190fd5b600080866001600160a01b031685876040518082805190602001908083835b60208310611b905780518252601f199092019160209182019101611b71565b6001836020036101000a03801982511681845116808217855250505050505090500191505060006040518083038185875af1925050503d8060008114611bf2576040519150601f19603f3d011682016040523d82523d6000602084013e611bf7565b606091505b5091509150611c07828286611c18565b979650505050505050565b3b151590565b60608315611c2757508161168d565b825115611c375782518084602001fd5b8160405162461bcd60e51b81526004018080602001828103825283818151815260200191508051906020019080838360005b83811015611c81578181015183820152602001611c69565b50505050905090810190601f168015611cae5780820380516001836020036101000a031916815260200191505b509250505060405180910390fdfe50726576696f7573207265776172647320706572696f64206d75737420626520636f6d706c657465206265666f7265206368616e67696e6720746865206475726174696f6e20666f7220746865206e657720706572696f645265656e7472616e637947756172643a207265656e7472616e742063616c6c00596f75206d757374206265206e6f6d696e61746564206265666f726520796f752063616e20616363657074206f776e657273686970416464726573733a20696e73756666696369656e742062616c616e636520666f722063616c6c4f6e6c792074686520636f6e7472616374206f776e6572206d617920706572666f726d207468697320616374696f6e536166654d6174683a206d756c7469706c69636174696f6e206f766572666c6f776e6f2072657761726473546f6b656e207769746864726177206265666f726520656e64206f662072657761726420706572696f646f6e6c7920746f6b656e2073616c6520636f6e74726163742063616e207374616b6543616c6c6572206973206e6f742052657761726473446973747269627574696f6e20636f6e74726163745361666545524332303a204552433230206f7065726174696f6e20646964206e6f742073756363656564a264697066735822122040aba832d0ead9f853715fbf69dfa37767d50954baba65dbf4fe68512b9dfbf064736f6c63430007060033",
  "linkReferences": {},
  "deployedLinkReferences": {}
}