{
  "_format": "hh-sol-artifact-1",
  "contractName": "StakingRewards",
  "sourceName": "contracts/StakingRewards.sol",
  "abi": [
    {
      "inputs": [
        {
          "internalType": "address",
          "name": "_owner",
          "type": "address"
        },
        {
          "internalType": "address",
          "name": "_rewardsDistribution",
          "type": "address"
        },
        {
          "internalType": "address",
          "name": "_rewardsToken",
          "type": "address"
        },
        {
          "internalType": "address",
          "name": "_stakingToken",
          "type": "address"
        },
        {
          "internalType": "uint256",
          "name": "_rewardsDuration",
          "type": "uint256"
        }
      ],
      "stateMutability": "nonpayable",
      "type": "constructor"
    },
    {
      "anonymous": false,
      "inputs": [
        {
          "indexed": false,
          "internalType": "address",
          "name": "oldOwner",
          "type": "address"
        },
        {
          "indexed": false,
          "internalType": "address",
          "name": "newOwner",
          "type": "address"
        }
      ],
      "name": "OwnerChanged",
      "type": "event"
    },
    {
      "anonymous": false,
      "inputs": [
        {
          "indexed": false,
          "internalType": "address",
          "name": "newOwner",
          "type": "address"
        }
      ],
      "name": "OwnerNominated",
      "type": "event"
    },
    {
      "anonymous": false,
      "inputs": [
        {
          "indexed": false,
          "internalType": "address",
          "name": "account",
          "type": "address"
        }
      ],
      "name": "Paused",
      "type": "event"
    },
    {
      "anonymous": false,
      "inputs": [
        {
          "indexed": false,
          "internalType": "address",
          "name": "token",
          "type": "address"
        },
        {
          "indexed": false,
          "internalType": "uint256",
          "name": "amount",
          "type": "uint256"
        }
      ],
      "name": "Recovered",
      "type": "event"
    },
    {
      "anonymous": false,
      "inputs": [
        {
          "indexed": false,
          "internalType": "uint256",
          "name": "reward",
          "type": "uint256"
        }
      ],
      "name": "RewardAdded",
      "type": "event"
    },
    {
      "anonymous": false,
      "inputs": [
        {
          "indexed": true,
          "internalType": "address",
          "name": "user",
          "type": "address"
        },
        {
          "indexed": false,
          "internalType": "uint256",
          "name": "reward",
          "type": "uint256"
        }
      ],
      "name": "RewardPaid",
      "type": "event"
    },
    {
      "anonymous": false,
      "inputs": [
        {
          "indexed": false,
          "internalType": "uint256",
          "name": "newDuration",
          "type": "uint256"
        }
      ],
      "name": "RewardsDurationUpdated",
      "type": "event"
    },
    {
      "anonymous": false,
      "inputs": [
        {
          "indexed": true,
          "internalType": "address",
          "name": "user",
          "type": "address"
        },
        {
          "indexed": false,
          "internalType": "uint256",
          "name": "amount",
          "type": "uint256"
        }
      ],
      "name": "Staked",
      "type": "event"
    },
    {
      "anonymous": false,
      "inputs": [
        {
          "indexed": false,
          "internalType": "address",
          "name": "account",
          "type": "address"
        }
      ],
      "name": "Unpaused",
      "type": "event"
    },
    {
      "anonymous": false,
      "inputs": [
        {
          "indexed": true,
          "internalType": "address",
          "name": "user",
          "type": "address"
        },
        {
          "indexed": false,
          "internalType": "uint256",
          "name": "amount",
          "type": "uint256"
        }
      ],
      "name": "Withdrawn",
      "type": "event"
    },
    {
      "inputs": [],
      "name": "acceptOwnership",
      "outputs": [],
      "stateMutability": "nonpayable",
      "type": "function"
    },
    {
      "inputs": [
        {
          "internalType": "address",
          "name": "account",
          "type": "address"
        }
      ],
      "name": "balanceOf",
      "outputs": [
        {
          "internalType": "uint256",
          "name": "",
          "type": "uint256"
        }
      ],
      "stateMutability": "view",
      "type": "function"
    },
    {
      "inputs": [],
      "name": "balanceRewardsToken",
      "outputs": [
        {
          "internalType": "uint256",
          "name": "",
          "type": "uint256"
        }
      ],
      "stateMutability": "view",
      "type": "function"
    },
    {
      "inputs": [],
      "name": "bonusReward",
      "outputs": [
        {
          "internalType": "uint256",
          "name": "",
          "type": "uint256"
        }
      ],
      "stateMutability": "view",
      "type": "function"
    },
    {
      "inputs": [],
      "name": "bonusStartTime",
      "outputs": [
        {
          "internalType": "uint256",
          "name": "",
          "type": "uint256"
        }
      ],
      "stateMutability": "view",
      "type": "function"
    },
    {
      "inputs": [
        {
          "internalType": "address",
          "name": "account",
          "type": "address"
        }
      ],
      "name": "checkBonusRewardPeriod",
      "outputs": [],
      "stateMutability": "nonpayable",
      "type": "function"
    },
    {
      "inputs": [
        {
          "internalType": "address",
          "name": "account",
          "type": "address"
        }
      ],
      "name": "earned",
      "outputs": [
        {
          "internalType": "uint256",
          "name": "",
          "type": "uint256"
        }
      ],
      "stateMutability": "view",
      "type": "function"
    },
    {
      "inputs": [],
      "name": "exit",
      "outputs": [],
      "stateMutability": "nonpayable",
      "type": "function"
    },
    {
      "inputs": [],
      "name": "getReward",
      "outputs": [],
      "stateMutability": "nonpayable",
      "type": "function"
    },
    {
      "inputs": [],
      "name": "getRewardForDuration",
      "outputs": [
        {
          "internalType": "uint256",
          "name": "",
          "type": "uint256"
        }
      ],
      "stateMutability": "view",
      "type": "function"
    },
    {
      "inputs": [],
      "name": "lastTimeRewardApplicable",
      "outputs": [
        {
          "internalType": "uint256",
          "name": "",
          "type": "uint256"
        }
      ],
      "stateMutability": "view",
      "type": "function"
    },
    {
      "inputs": [],
      "name": "lastUpdateTime",
      "outputs": [
        {
          "internalType": "uint256",
          "name": "",
          "type": "uint256"
        }
      ],
      "stateMutability": "view",
      "type": "function"
    },
    {
      "inputs": [
        {
          "internalType": "address",
          "name": "_owner",
          "type": "address"
        }
      ],
      "name": "nominateNewOwner",
      "outputs": [],
      "stateMutability": "nonpayable",
      "type": "function"
    },
    {
      "inputs": [],
      "name": "nominatedOwner",
      "outputs": [
        {
          "internalType": "address",
          "name": "",
          "type": "address"
        }
      ],
      "stateMutability": "view",
      "type": "function"
    },
    {
      "inputs": [
        {
          "internalType": "uint256",
          "name": "reward",
          "type": "uint256"
        },
        {
          "internalType": "uint256",
          "name": "_bonusStartTime",
          "type": "uint256"
        }
      ],
      "name": "notifyBonusRewards",
      "outputs": [],
      "stateMutability": "nonpayable",
      "type": "function"
    },
    {
      "inputs": [
        {
          "internalType": "uint256",
          "name": "reward",
          "type": "uint256"
        }
      ],
      "name": "notifyRewardAmount",
      "outputs": [],
      "stateMutability": "nonpayable",
      "type": "function"
    },
    {
      "inputs": [
        {
          "internalType": "uint256",
          "name": "reward",
          "type": "uint256"
        }
      ],
      "name": "notifyRewardAmountSamePeriod",
      "outputs": [],
      "stateMutability": "nonpayable",
      "type": "function"
    },
    {
      "inputs": [],
      "name": "owner",
      "outputs": [
        {
          "internalType": "address",
          "name": "",
          "type": "address"
        }
      ],
      "stateMutability": "view",
      "type": "function"
    },
    {
      "inputs": [],
      "name": "pause",
      "outputs": [],
      "stateMutability": "nonpayable",
      "type": "function"
    },
    {
      "inputs": [],
      "name": "paused",
      "outputs": [
        {
          "internalType": "bool",
          "name": "",
          "type": "bool"
        }
      ],
      "stateMutability": "view",
      "type": "function"
    },
    {
      "inputs": [],
      "name": "periodFinish",
      "outputs": [
        {
          "internalType": "uint256",
          "name": "",
          "type": "uint256"
        }
      ],
      "stateMutability": "view",
      "type": "function"
    },
    {
      "inputs": [
        {
          "internalType": "address",
          "name": "tokenAddress",
          "type": "address"
        },
        {
          "internalType": "uint256",
          "name": "tokenAmount",
          "type": "uint256"
        }
      ],
      "name": "recoverERC20",
      "outputs": [],
      "stateMutability": "nonpayable",
      "type": "function"
    },
    {
      "inputs": [],
      "name": "rewardPerToken",
      "outputs": [
        {
          "internalType": "uint256",
          "name": "",
          "type": "uint256"
        }
      ],
      "stateMutability": "view",
      "type": "function"
    },
    {
      "inputs": [],
      "name": "rewardPerTokenStored",
      "outputs": [
        {
          "internalType": "uint256",
          "name": "",
          "type": "uint256"
        }
      ],
      "stateMutability": "view",
      "type": "function"
    },
    {
      "inputs": [],
      "name": "rewardRate",
      "outputs": [
        {
          "internalType": "uint256",
          "name": "",
          "type": "uint256"
        }
      ],
      "stateMutability": "view",
      "type": "function"
    },
    {
      "inputs": [
        {
          "internalType": "address",
          "name": "",
          "type": "address"
        }
      ],
      "name": "rewards",
      "outputs": [
        {
          "internalType": "uint256",
          "name": "",
          "type": "uint256"
        }
      ],
      "stateMutability": "view",
      "type": "function"
    },
    {
      "inputs": [],
      "name": "rewardsDistribution",
      "outputs": [
        {
          "internalType": "address",
          "name": "",
          "type": "address"
        }
      ],
      "stateMutability": "view",
      "type": "function"
    },
    {
      "inputs": [],
      "name": "rewardsDuration",
      "outputs": [
        {
          "internalType": "uint256",
          "name": "",
          "type": "uint256"
        }
      ],
      "stateMutability": "view",
      "type": "function"
    },
    {
      "inputs": [],
      "name": "rewardsToken",
      "outputs": [
        {
          "internalType": "contract IERC20",
          "name": "",
          "type": "address"
        }
      ],
      "stateMutability": "view",
      "type": "function"
    },
    {
      "inputs": [],
      "name": "rewardsTokenAllocated",
      "outputs": [
        {
          "internalType": "uint256",
          "name": "",
          "type": "uint256"
        }
      ],
      "stateMutability": "view",
      "type": "function"
    },
    {
      "inputs": [
        {
          "internalType": "address",
          "name": "_rewardsDistribution",
          "type": "address"
        }
      ],
      "name": "setRewardsDistribution",
      "outputs": [],
      "stateMutability": "nonpayable",
      "type": "function"
    },
    {
      "inputs": [
        {
          "internalType": "uint256",
          "name": "_rewardsDuration",
          "type": "uint256"
        }
      ],
      "name": "setRewardsDuration",
      "outputs": [],
      "stateMutability": "nonpayable",
      "type": "function"
    },
    {
      "inputs": [
        {
          "internalType": "address",
          "name": "_tokenSaleAddress",
          "type": "address"
        }
      ],
      "name": "setTokenSaleAddress",
      "outputs": [],
      "stateMutability": "nonpayable",
      "type": "function"
    },
    {
      "inputs": [
        {
          "internalType": "bool",
          "name": "_userStakeEnabled",
          "type": "bool"
        }
      ],
      "name": "setuserStakeEnabled",
      "outputs": [],
      "stateMutability": "nonpayable",
      "type": "function"
    },
    {
      "inputs": [
        {
          "internalType": "uint256",
          "name": "amount",
          "type": "uint256"
        }
      ],
      "name": "stake",
      "outputs": [],
      "stateMutability": "nonpayable",
      "type": "function"
    },
    {
      "inputs": [
        {
          "internalType": "uint256",
          "name": "amount",
          "type": "uint256"
        },
        {
          "internalType": "address",
          "name": "userAccount",
          "type": "address"
        }
      ],
      "name": "stakeTransfer",
      "outputs": [],
      "stateMutability": "nonpayable",
      "type": "function"
    },
    {
      "inputs": [],
      "name": "stakingToken",
      "outputs": [
        {
          "internalType": "contract IERC20",
          "name": "",
          "type": "address"
        }
      ],
      "stateMutability": "view",
      "type": "function"
    },
    {
      "inputs": [],
      "name": "tokenSaleAddress",
      "outputs": [
        {
          "internalType": "address",
          "name": "",
          "type": "address"
        }
      ],
      "stateMutability": "view",
      "type": "function"
    },
    {
      "inputs": [],
      "name": "totalSupply",
      "outputs": [
        {
          "internalType": "uint256",
          "name": "",
          "type": "uint256"
        }
      ],
      "stateMutability": "view",
      "type": "function"
    },
    {
      "inputs": [
        {
          "internalType": "uint256",
          "name": "reward",
          "type": "uint256"
        },
        {
          "internalType": "uint256",
          "name": "_bonusStartTime",
          "type": "uint256"
        }
      ],
      "name": "transferBonusRewards",
      "outputs": [],
      "stateMutability": "nonpayable",
      "type": "function"
    },
    {
      "inputs": [
        {
          "internalType": "uint256",
          "name": "reward",
          "type": "uint256"
        }
      ],
      "name": "transferRewardToken",
      "outputs": [],
      "stateMutability": "nonpayable",
      "type": "function"
    },
    {
      "inputs": [
        {
          "internalType": "uint256",
          "name": "reward",
          "type": "uint256"
        }
      ],
      "name": "transferRewardTokenSamePeriod",
      "outputs": [],
      "stateMutability": "nonpayable",
      "type": "function"
    },
    {
      "inputs": [],
      "name": "unpause",
      "outputs": [],
      "stateMutability": "nonpayable",
      "type": "function"
    },
    {
      "inputs": [
        {
          "internalType": "uint256",
          "name": "timestamp",
          "type": "uint256"
        }
      ],
      "name": "updatePeriodFinish",
      "outputs": [],
      "stateMutability": "nonpayable",
      "type": "function"
    },
    {
      "inputs": [
        {
          "internalType": "address",
          "name": "",
          "type": "address"
        }
      ],
      "name": "userRewardPerTokenPaid",
      "outputs": [
        {
          "internalType": "uint256",
          "name": "",
          "type": "uint256"
        }
      ],
      "stateMutability": "view",
      "type": "function"
    },
    {
      "inputs": [],
      "name": "userStakeEnabled",
      "outputs": [
        {
          "internalType": "bool",
          "name": "",
          "type": "bool"
        }
      ],
      "stateMutability": "view",
      "type": "function"
    },
    {
      "inputs": [
        {
          "internalType": "uint256",
          "name": "amount",
          "type": "uint256"
        }
      ],
      "name": "withdraw",
      "outputs": [],
      "stateMutability": "nonpayable",
      "type": "function"
    },
    {
      "inputs": [],
      "name": "withdrawAll",
      "outputs": [],
      "stateMutability": "nonpayable",
      "type": "function"
    }
  ],
  "bytecode": "0x608060405234801561001057600080fd5b50604051612333380380612333833981810160405260a081101561003357600080fd5b508051602082015160408301516060840151608090940151929391929091906001600160a01b038516156100675784610069565b335b6001600160a01b0381166100c4576040805162461bcd60e51b815260206004820152601960248201527f4f776e657220616464726573732063616e6e6f74206265203000000000000000604482015290519081900360640190fd5b600080546001600160a01b0319166001600160a01b038316908117825560408051928352602083019190915280517fb532073b38c83145e3e5135377a08bf9aab55bc0fd7c1179cd4fb995d2a5159c9281900390910190a1506001600355600480546001600160a01b03948516610100026001600160a81b0319909116179055600580549284166001600160a01b0319938416179055600280549490931693909116929092179055600855506121b48061017f6000396000f3fe608060405234801561001057600080fd5b506004361061029f5760003560e01c806372f702f3116101675780638fa2300b116100ce578063cf13d91b11610087578063cf13d91b14610650578063d1af0c7d14610658578063df136d6514610660578063e9fad8ee14610668578063ebe2b12b14610670578063f68df5b9146106785761029f565b80638fa2300b146105c3578063a694fc3a146105e0578063a95881ed146105fd578063c8f33c9114610623578063cc1a378f1461062b578063cd3daf9d146106485761029f565b8063853828b611610120578063853828b61461052d5780638980f11f146105355780638b1e31c7146105615780638b8763471461058d5780638bf6fb31146105b35780638da5cb5b146105bb5761029f565b806372f702f3146104e8578063741872a6146104f057806379ba50971461050d5780637b0a47ee1461051557806380faa57d1461051d5780638456cb59146105255761029f565b80633c6b16ab1161020b57806353a47bb7116101c457806353a47bb71461044c578063556f6e6b146104545780635afe5207146104715780635c975abb146104975780635f35a92f1461049f57806370a08231146104c25761029f565b80633c6b16ab146103ec5780633d18b912146104095780633d356aa9146104115780633f4ba83a146104195780633f5ab31e146104215780633fc6df6e146104445761029f565b8063197621431161025d578063197621431461035e5780631c1f78eb1461038457806326838b181461038c5780632e1a7d4d146103ab578063311c6c1c146103c8578063386a9525146103e45761029f565b80628cc262146102a45780630679e582146102dc5780630700037d146102e45780631448b3ca1461030a5780631627540c1461032e57806318160ddd14610356575b600080fd5b6102ca600480360360208110156102ba57600080fd5b50356001600160a01b0316610695565b60408051918252519081900360200190f35b6102ca610713565b6102ca600480360360208110156102fa57600080fd5b50356001600160a01b0316610719565b61031261072b565b604080516001600160a01b039092168252519081900360200190f35b6103546004803603602081101561034457600080fd5b50356001600160a01b031661073a565b005b6102ca610796565b6103546004803603602081101561037457600080fd5b50356001600160a01b031661079d565b6102ca6107c7565b610354600480360360208110156103a257600080fd5b503515156107e5565b610354600480360360208110156103c157600080fd5b503561080b565b6103d0610948565b604080519115158252519081900360200190f35b6102ca610958565b6103546004803603602081101561040257600080fd5b503561095e565b610354610ae3565b6102ca610bc5565b610354610c85565b6103546004803603604081101561043757600080fd5b5080359060200135610c97565b610312610cc2565b610312610cd1565b6103546004803603602081101561046a57600080fd5b5035610ce0565b6103546004803603602081101561048757600080fd5b50356001600160a01b0316610d03565b6103d0610d2d565b610354600480360360408110156104b557600080fd5b5080359060200135610d36565b6102ca600480360360208110156104d857600080fd5b50356001600160a01b0316610e2c565b610312610e47565b6103546004803603602081101561050657600080fd5b5035610e56565b610354610ecf565b6102ca610f8b565b6102ca610f91565b610354610f9f565b610354610faf565b6103546004803603604081101561054b57600080fd5b506001600160a01b038135169060200135610fc8565b6103546004803603604081101561057757600080fd5b50803590602001356001600160a01b031661107f565b6102ca600480360360208110156105a357600080fd5b50356001600160a01b0316611263565b6102ca611275565b61031261127b565b610354600480360360208110156105d957600080fd5b503561128a565b610354600480360360208110156105f657600080fd5b50356112fb565b6103546004803603602081101561061357600080fd5b50356001600160a01b03166114e1565b6102ca6115e3565b6103546004803603602081101561064157600080fd5b50356115e9565b6102ca61166c565b6102ca6116ba565b6103126116c0565b6102ca6116d4565b6103546116da565b6102ca6116fb565b6103546004803603602081101561068e57600080fd5b5035611701565b6001600160a01b0381166000908152600f6020908152604080832054600e90925282205461070d919061070790670de0b6b3a764000090610701906106e2906106dc61166c565b906117eb565b6001600160a01b03881660009081526011602052604090205490611848565b906118a8565b9061190f565b92915050565b600d5481565b600f6020526000908152604090205481565b6012546001600160a01b031681565b610742611969565b600180546001600160a01b0383166001600160a01b0319909116811790915560408051918252517f906a1c6bd7e3091ea86693dd029a831c19049ce77f1dce2ce0bab1cacbabce229181900360200190a150565b6010545b90565b6107a5611969565b600280546001600160a01b0319166001600160a01b0392909216919091179055565b60006107e060085460075461184890919063ffffffff16565b905090565b6107ed611969565b60128054911515600160a01b0260ff60a01b19909216919091179055565b60026003541415610851576040805162461bcd60e51b815260206004820152601f6024820152600080516020611ff7833981519152604482015290519081900360640190fd5b600260035533610860816119b2565b61086a60006114e1565b600082116108b3576040805162461bcd60e51b8152602060048201526011602482015270043616e6e6f74207769746864726177203607c1b604482015290519081900360640190fd5b6010546108c090836117eb565b601055336000908152601160205260409020546108dd90836117eb565b33600081815260116020526040902091909155600554610909916001600160a01b039091169084611a0e565b60408051838152905133917f7084f5476618d8e60b11ef0d7d3f06914655adb8793e28ff7f018d4c76d505d5919081900360200190a250506001600355565b601254600160a01b900460ff1681565b60085481565b6002546001600160a01b031633146109a75760405162461bcd60e51b815260040180806020018281038252602a8152602001806120e4602a913960400191505060405180910390fd5b60006109b2816119b2565b6109bc60006114e1565b60065442106109db576008546109d39083906118a8565b600755610a1e565b6006546000906109eb90426117eb565b90506000610a046007548361184890919063ffffffff16565b600854909150610a1890610701868461190f565b60075550505b6000610a28610bc5565b9050610a3f600854826118a890919063ffffffff16565b6007541115610a95576040805162461bcd60e51b815260206004820152601860248201527f50726f76696465642072657761726420746f6f20686967680000000000000000604482015290519081900360640190fd5b426009819055600854610aa8919061190f565b6006556040805184815290517fde88a922e0d3b88b24e9623efeb464919c6bf9f66857a65e2bfcf2ce87a9433d9181900360200190a1505050565b60026003541415610b29576040805162461bcd60e51b815260206004820152601f6024820152600080516020611ff7833981519152604482015290519081900360640190fd5b600260035533610b38816119b2565b610b4260006114e1565b336000908152600f60205260409020548015610bbc57336000818152600f6020526040812055600454610b85916101009091046001600160a01b03169083611a0e565b60408051828152905133917fe2403640ba68fed3a2f88b7557551d1993f84b99bb10ff833f0cf8db0c5e0486919081900360200190a25b50506001600355565b600080600460019054906101000a90046001600160a01b03166001600160a01b03166370a08231306040518263ffffffff1660e01b815260040180826001600160a01b0316815260200191505060206040518083038186803b158015610c2a57600080fd5b505afa158015610c3e573d6000803e3d6000fd5b505050506040513d6020811015610c5457600080fd5b50516005546004549192506001600160a01b039081166101009092041614156107e05760105461070d9082906117eb565b610c8d611969565b610c95611a65565b565b610ca18282610d36565b600454610cbe9061010090046001600160a01b0316333085611b05565b5050565b6002546001600160a01b031681565b6001546001600160a01b031681565b610ce8611969565b6000610cf3816119b2565b610cfd60006114e1565b50600655565b610d0b611969565b601280546001600160a01b0319166001600160a01b0392909216919091179055565b60045460ff1690565b6002546001600160a01b03163314610d7f5760405162461bcd60e51b815260040180806020018281038252602a8152602001806120e4602a913960400191505060405180910390fd5b804210610dd3576040805162461bcd60e51b815260206004820181905260248201527f626f6e7573537461727454696d65206e6f7420696e2074686520667574757265604482015290519081900360640190fd5b6006548110610e135760405162461bcd60e51b81526004018080602001828103825260268152602001806121386026913960400191505060405180910390fd5b600d819055600c54610e25908361190f565b600c555050565b6001600160a01b031660009081526011602052604090205490565b6005546001600160a01b031681565b60026003541415610e9c576040805162461bcd60e51b815260206004820152601f6024820152600080516020611ff7833981519152604482015290519081900360640190fd5b6002600355600454610ebe9061010090046001600160a01b0316333084611b05565b610ec78161095e565b506001600355565b6001546001600160a01b03163314610f185760405162461bcd60e51b81526004018080602001828103825260358152602001806120176035913960400191505060405180910390fd5b600054600154604080516001600160a01b03938416815292909116602083015280517fb532073b38c83145e3e5135377a08bf9aab55bc0fd7c1179cd4fb995d2a5159c9281900390910190a160018054600080546001600160a01b03199081166001600160a01b03841617909155169055565b60075481565b60006107e042600654611b65565b610fa7611969565b610c95611b7b565b33600090815260116020526040902054610c959061080b565b610fd0611969565b6005546001600160a01b038381169116141561101d5760405162461bcd60e51b815260040180806020018281038252602181526020018061215e6021913960400191505060405180910390fd5b600054611037906001600160a01b03848116911683611a0e565b604080516001600160a01b03841681526020810183905281517f8c1256b8896378cd5044f80c202f9772b9d77dc85c8a6eb51967210b09bfaa28929181900390910190a15050565b600260035414156110c5576040805162461bcd60e51b815260206004820152601f6024820152600080516020611ff7833981519152604482015290519081900360640190fd5b60026003556110d2610d2d565b15611117576040805162461bcd60e51b815260206004820152601060248201526f14185d5cd8589b194e881c185d5cd95960821b604482015290519081900360640190fd5b80611121816119b2565b61112b60006114e1565b6012546001600160a01b031633146111745760405162461bcd60e51b81526004018080602001828103825260228152602001806120c26022913960400191505060405180910390fd5b600083116111ba576040805162461bcd60e51b815260206004820152600e60248201526d043616e6e6f74207374616b6520360941b604482015290519081900360640190fd5b6010546111c7908461190f565b6010556001600160a01b0382166000908152601160205260409020546111ed908461190f565b6001600160a01b0380841660009081526011602052604090209190915560055461121a9116333086611b05565b6040805184815290516001600160a01b038416917f9e71bc8eea02a63969f509818f2dafb9254532904319f9dbda79b67bd34a5f3d919081900360200190a25050600160035550565b600e6020526000908152604090205481565b600b5481565b6000546001600160a01b031681565b600260035414156112d0576040805162461bcd60e51b815260206004820152601f6024820152600080516020611ff7833981519152604482015290519081900360640190fd5b60026003556112de81611701565b600454610ec79061010090046001600160a01b0316333084611b05565b60026003541415611341576040805162461bcd60e51b815260206004820152601f6024820152600080516020611ff7833981519152604482015290519081900360640190fd5b600260035561134e610d2d565b15611393576040805162461bcd60e51b815260206004820152601060248201526f14185d5cd8589b194e881c185d5cd95960821b604482015290519081900360640190fd5b3361139d816119b2565b6113a760006114e1565b601254600160a01b900460ff16611405576040805162461bcd60e51b815260206004820152601b60248201527f757365722063616e206e6f74206469726563746c79207374616b650000000000604482015290519081900360640190fd5b6000821161144b576040805162461bcd60e51b815260206004820152600e60248201526d043616e6e6f74207374616b6520360941b604482015290519081900360640190fd5b601054611458908361190f565b60105533600090815260116020526040902054611475908361190f565b336000818152601160205260409020919091556005546114a2916001600160a01b03909116903085611b05565b60408051838152905133917f9e71bc8eea02a63969f509818f2dafb9254532904319f9dbda79b67bd34a5f3d919081900360200190a250506001600355565b6000600c541180156114f55750600d544210155b156115e05760065442106115395760065460095410156115345761153060075461070760095460065403600c546118a890919063ffffffff16565b6007555b6115c7565b6115706040518060400160405280601381526020017272657761726452617465206265666f7265203d60681b815250600754611bfe565b61158f6007546107074260065403600c546118a890919063ffffffff16565b60078190556040805180820190915260138152727265776172645261746520616674657220203d60681b60208201526115c791611bfe565b6115cf610f91565b6009556000600c556115e0816119b2565b50565b60095481565b6115f1611969565b60065442116116315760405162461bcd60e51b8152600401808060200182810382526058815260200180611f9f6058913960600191505060405180910390fd5b60088190556040805182815290517ffb46ca5a5e06d4540d6387b930a7c978bce0db5f449ec6b3f5d07c6e1d44f2d39181900360200190a150565b6000601054600014156116825750600a5461079a565b6107e06116b1601054610701670de0b6b3a76400006116ab6007546116ab6009546106dc610f91565b90611848565b600a549061190f565b600c5481565b60045461010090046001600160a01b031681565b600a5481565b336000908152601160205260409020546116f39061080b565b610c95610ae3565b60065481565b6002546001600160a01b0316331461174a5760405162461bcd60e51b815260040180806020018281038252602a8152602001806120e4602a913960400191505060405180910390fd5b6000611755816119b2565b61175f60006114e1565b600654421061178f5760085461177690429061190f565b6006556008546117879083906118a8565b6007556117b0565b6117ac6007546107074260065403856118a890919063ffffffff16565b6007555b426009556040805183815290517fde88a922e0d3b88b24e9623efeb464919c6bf9f66857a65e2bfcf2ce87a9433d9181900360200190a15050565b600082821115611842576040805162461bcd60e51b815260206004820152601e60248201527f536166654d6174683a207375627472616374696f6e206f766572666c6f770000604482015290519081900360640190fd5b50900390565b6000826118575750600061070d565b8282028284828161186457fe5b04146118a15760405162461bcd60e51b81526004018080602001828103825260218152602001806120a16021913960400191505060405180910390fd5b9392505050565b60008082116118fe576040805162461bcd60e51b815260206004820152601a60248201527f536166654d6174683a206469766973696f6e206279207a65726f000000000000604482015290519081900360640190fd5b81838161190757fe5b049392505050565b6000828201838110156118a1576040805162461bcd60e51b815260206004820152601b60248201527f536166654d6174683a206164646974696f6e206f766572666c6f770000000000604482015290519081900360640190fd5b6000546001600160a01b03163314610c955760405162461bcd60e51b815260040180806020018281038252602f815260200180612072602f913960400191505060405180910390fd5b6119ba61166c565b600a556119c5610f91565b6009556001600160a01b038116156115e0576119e081610695565b6001600160a01b0382166000908152600f6020908152604080832093909355600a54600e9091529190205550565b604080516001600160a01b038416602482015260448082018490528251808303909101815260649091019091526020810180516001600160e01b031663a9059cbb60e01b179052611a60908490611cac565b505050565b611a6d610d2d565b611ab5576040805162461bcd60e51b815260206004820152601460248201527314185d5cd8589b194e881b9bdd081c185d5cd95960621b604482015290519081900360640190fd5b6004805460ff191690557f5db9ee0a495bf2e6ff9c91a7834c1ba4fdd244a5e8aa4e537bd38aeae4b073aa611ae8611d5d565b604080516001600160a01b039092168252519081900360200190a1565b604080516001600160a01b0380861660248301528416604482015260648082018490528251808303909101815260849091019091526020810180516001600160e01b03166323b872dd60e01b179052611b5f908590611cac565b50505050565b6000818310611b7457816118a1565b5090919050565b611b83610d2d565b15611bc8576040805162461bcd60e51b815260206004820152601060248201526f14185d5cd8589b194e881c185d5cd95960821b604482015290519081900360640190fd5b6004805460ff191660011790557f62e78cea01bee320cd4e420270b5ea74000d11b0c9f74754ebdbfc544b05a258611ae8611d5d565b610cbe82826040516024018080602001838152602001828103825284818151815260200191508051906020019080838360005b83811015611c49578181015183820152602001611c31565b50505050905090810190601f168015611c765780820380516001836020036101000a031916815260200191505b5060408051601f198184030181529190526020810180516001600160e01b03166309710a9d60e41b1790529350611d6192505050565b6000611d01826040518060400160405280602081526020017f5361666545524332303a206c6f772d6c6576656c2063616c6c206661696c6564815250856001600160a01b0316611d829092919063ffffffff16565b805190915015611a6057808060200190516020811015611d2057600080fd5b5051611a605760405162461bcd60e51b815260040180806020018281038252602a81526020018061210e602a913960400191505060405180910390fd5b3390565b80516a636f6e736f6c652e6c6f67602083016000808483855afa5050505050565b6060611d918484600085611d99565b949350505050565b606082471015611dda5760405162461bcd60e51b815260040180806020018281038252602681526020018061204c6026913960400191505060405180910390fd5b611de385611ef4565b611e34576040805162461bcd60e51b815260206004820152601d60248201527f416464726573733a2063616c6c20746f206e6f6e2d636f6e7472616374000000604482015290519081900360640190fd5b600080866001600160a01b031685876040518082805190602001908083835b60208310611e725780518252601f199092019160209182019101611e53565b6001836020036101000a03801982511681845116808217855250505050505090500191505060006040518083038185875af1925050503d8060008114611ed4576040519150601f19603f3d011682016040523d82523d6000602084013e611ed9565b606091505b5091509150611ee9828286611efa565b979650505050505050565b3b151590565b60608315611f095750816118a1565b825115611f195782518084602001fd5b8160405162461bcd60e51b81526004018080602001828103825283818151815260200191508051906020019080838360005b83811015611f63578181015183820152602001611f4b565b50505050905090810190601f168015611f905780820380516001836020036101000a031916815260200191505b509250505060405180910390fdfe50726576696f7573207265776172647320706572696f64206d75737420626520636f6d706c657465206265666f7265206368616e67696e6720746865206475726174696f6e20666f7220746865206e657720706572696f645265656e7472616e637947756172643a207265656e7472616e742063616c6c00596f75206d757374206265206e6f6d696e61746564206265666f726520796f752063616e20616363657074206f776e657273686970416464726573733a20696e73756666696369656e742062616c616e636520666f722063616c6c4f6e6c792074686520636f6e7472616374206f776e6572206d617920706572666f726d207468697320616374696f6e536166654d6174683a206d756c7469706c69636174696f6e206f766572666c6f776f6e6c7920746f6b656e2073616c6520636f6e74726163742063616e207374616b6543616c6c6572206973206e6f742052657761726473446973747269627574696f6e20636f6e74726163745361666545524332303a204552433230206f7065726174696f6e20646964206e6f742073756363656564626f6e7573537461727454696d65206e6f74206265666f726520706572696f6446696e69736843616e6e6f7420776974686472617720746865207374616b696e6720746f6b656ea2646970667358221220d5f8306dbbf5c6fa672379049c28ca87f2751fb99c78875ab3428aa46a9ebc2664736f6c63430007060033",
  "linkReferences": {},
  "deployedLinkReferences": {}
}