{
  "_format": "hh-sol-artifact-1",
  "contractName": "StakingRewards",
  "sourceName": "contracts/StakingRewards.sol",
  "abi": [
    {
      "inputs": [
        {
          "internalType": "address",
          "name": "_owner",
          "type": "address"
        },
        {
          "internalType": "address",
          "name": "_rewardsDistributionAddress",
          "type": "address"
        },
        {
          "internalType": "address",
          "name": "_rewardsToken",
          "type": "address"
        },
        {
          "internalType": "address",
          "name": "_stakingToken",
          "type": "address"
        },
        {
          "internalType": "uint256",
          "name": "_rewardsDuration",
          "type": "uint256"
        },
        {
          "internalType": "address",
          "name": "_tokenSaleAddress",
          "type": "address"
        }
      ],
      "stateMutability": "nonpayable",
      "type": "constructor"
    },
    {
      "inputs": [
        {
          "internalType": "address",
          "name": "target",
          "type": "address"
        }
      ],
      "name": "AddressEmptyCode",
      "type": "error"
    },
    {
      "inputs": [
        {
          "internalType": "address",
          "name": "account",
          "type": "address"
        }
      ],
      "name": "AddressInsufficientBalance",
      "type": "error"
    },
    {
      "inputs": [],
      "name": "EnforcedPause",
      "type": "error"
    },
    {
      "inputs": [],
      "name": "ExpectedPause",
      "type": "error"
    },
    {
      "inputs": [],
      "name": "FailedInnerCall",
      "type": "error"
    },
    {
      "inputs": [],
      "name": "ReentrancyGuardReentrantCall",
      "type": "error"
    },
    {
      "inputs": [
        {
          "internalType": "address",
          "name": "token",
          "type": "address"
        }
      ],
      "name": "SafeERC20FailedOperation",
      "type": "error"
    },
    {
      "anonymous": false,
      "inputs": [
        {
          "indexed": false,
          "internalType": "address",
          "name": "oldOwner",
          "type": "address"
        },
        {
          "indexed": false,
          "internalType": "address",
          "name": "newOwner",
          "type": "address"
        }
      ],
      "name": "OwnerChanged",
      "type": "event"
    },
    {
      "anonymous": false,
      "inputs": [
        {
          "indexed": false,
          "internalType": "address",
          "name": "newOwner",
          "type": "address"
        }
      ],
      "name": "OwnerNominated",
      "type": "event"
    },
    {
      "anonymous": false,
      "inputs": [
        {
          "indexed": false,
          "internalType": "address",
          "name": "account",
          "type": "address"
        }
      ],
      "name": "Paused",
      "type": "event"
    },
    {
      "anonymous": false,
      "inputs": [
        {
          "indexed": false,
          "internalType": "address",
          "name": "token",
          "type": "address"
        },
        {
          "indexed": false,
          "internalType": "uint256",
          "name": "amount",
          "type": "uint256"
        }
      ],
      "name": "Recovered",
      "type": "event"
    },
    {
      "anonymous": false,
      "inputs": [
        {
          "indexed": false,
          "internalType": "uint256",
          "name": "reward",
          "type": "uint256"
        }
      ],
      "name": "RewardAdded",
      "type": "event"
    },
    {
      "anonymous": false,
      "inputs": [
        {
          "indexed": true,
          "internalType": "address",
          "name": "user",
          "type": "address"
        },
        {
          "indexed": false,
          "internalType": "uint256",
          "name": "reward",
          "type": "uint256"
        }
      ],
      "name": "RewardPaid",
      "type": "event"
    },
    {
      "anonymous": false,
      "inputs": [
        {
          "indexed": false,
          "internalType": "uint256",
          "name": "newDuration",
          "type": "uint256"
        }
      ],
      "name": "RewardsDurationUpdated",
      "type": "event"
    },
    {
      "anonymous": false,
      "inputs": [
        {
          "indexed": true,
          "internalType": "address",
          "name": "user",
          "type": "address"
        },
        {
          "indexed": false,
          "internalType": "uint256",
          "name": "amount",
          "type": "uint256"
        }
      ],
      "name": "Staked",
      "type": "event"
    },
    {
      "anonymous": false,
      "inputs": [
        {
          "indexed": false,
          "internalType": "address",
          "name": "account",
          "type": "address"
        }
      ],
      "name": "Unpaused",
      "type": "event"
    },
    {
      "anonymous": false,
      "inputs": [
        {
          "indexed": true,
          "internalType": "address",
          "name": "user",
          "type": "address"
        },
        {
          "indexed": false,
          "internalType": "uint256",
          "name": "amount",
          "type": "uint256"
        }
      ],
      "name": "Withdrawn",
      "type": "event"
    },
    {
      "inputs": [],
      "name": "acceptOwnership",
      "outputs": [],
      "stateMutability": "nonpayable",
      "type": "function"
    },
    {
      "inputs": [
        {
          "internalType": "address",
          "name": "account",
          "type": "address"
        }
      ],
      "name": "balanceOf",
      "outputs": [
        {
          "internalType": "uint256",
          "name": "",
          "type": "uint256"
        }
      ],
      "stateMutability": "view",
      "type": "function"
    },
    {
      "inputs": [],
      "name": "balanceRewardsToken",
      "outputs": [
        {
          "internalType": "uint256",
          "name": "",
          "type": "uint256"
        }
      ],
      "stateMutability": "view",
      "type": "function"
    },
    {
      "inputs": [
        {
          "internalType": "address",
          "name": "account",
          "type": "address"
        }
      ],
      "name": "earned",
      "outputs": [
        {
          "internalType": "uint256",
          "name": "",
          "type": "uint256"
        }
      ],
      "stateMutability": "view",
      "type": "function"
    },
    {
      "inputs": [],
      "name": "exit",
      "outputs": [],
      "stateMutability": "nonpayable",
      "type": "function"
    },
    {
      "inputs": [],
      "name": "getReward",
      "outputs": [],
      "stateMutability": "nonpayable",
      "type": "function"
    },
    {
      "inputs": [],
      "name": "getRewardForDuration",
      "outputs": [
        {
          "internalType": "uint256",
          "name": "",
          "type": "uint256"
        }
      ],
      "stateMutability": "view",
      "type": "function"
    },
    {
      "inputs": [],
      "name": "lastTimeRewardApplicable",
      "outputs": [
        {
          "internalType": "uint256",
          "name": "",
          "type": "uint256"
        }
      ],
      "stateMutability": "view",
      "type": "function"
    },
    {
      "inputs": [],
      "name": "lastUpdateTime",
      "outputs": [
        {
          "internalType": "uint256",
          "name": "",
          "type": "uint256"
        }
      ],
      "stateMutability": "view",
      "type": "function"
    },
    {
      "inputs": [
        {
          "internalType": "address",
          "name": "_owner",
          "type": "address"
        }
      ],
      "name": "nominateNewOwner",
      "outputs": [],
      "stateMutability": "nonpayable",
      "type": "function"
    },
    {
      "inputs": [],
      "name": "nominatedOwner",
      "outputs": [
        {
          "internalType": "address",
          "name": "",
          "type": "address"
        }
      ],
      "stateMutability": "view",
      "type": "function"
    },
    {
      "inputs": [
        {
          "internalType": "uint256",
          "name": "reward",
          "type": "uint256"
        }
      ],
      "name": "notifyRewardAmount",
      "outputs": [],
      "stateMutability": "nonpayable",
      "type": "function"
    },
    {
      "inputs": [
        {
          "internalType": "uint256",
          "name": "reward",
          "type": "uint256"
        }
      ],
      "name": "notifyRewardAmountSamePeriod",
      "outputs": [],
      "stateMutability": "nonpayable",
      "type": "function"
    },
    {
      "inputs": [],
      "name": "owner",
      "outputs": [
        {
          "internalType": "address",
          "name": "",
          "type": "address"
        }
      ],
      "stateMutability": "view",
      "type": "function"
    },
    {
      "inputs": [],
      "name": "pause",
      "outputs": [],
      "stateMutability": "nonpayable",
      "type": "function"
    },
    {
      "inputs": [],
      "name": "paused",
      "outputs": [
        {
          "internalType": "bool",
          "name": "",
          "type": "bool"
        }
      ],
      "stateMutability": "view",
      "type": "function"
    },
    {
      "inputs": [],
      "name": "periodFinish",
      "outputs": [
        {
          "internalType": "uint256",
          "name": "",
          "type": "uint256"
        }
      ],
      "stateMutability": "view",
      "type": "function"
    },
    {
      "inputs": [
        {
          "internalType": "address",
          "name": "tokenAddress",
          "type": "address"
        }
      ],
      "name": "recoverERC20",
      "outputs": [],
      "stateMutability": "nonpayable",
      "type": "function"
    },
    {
      "inputs": [],
      "name": "rewardPerToken",
      "outputs": [
        {
          "internalType": "uint256",
          "name": "",
          "type": "uint256"
        }
      ],
      "stateMutability": "view",
      "type": "function"
    },
    {
      "inputs": [],
      "name": "rewardPerTokenStored",
      "outputs": [
        {
          "internalType": "uint256",
          "name": "",
          "type": "uint256"
        }
      ],
      "stateMutability": "view",
      "type": "function"
    },
    {
      "inputs": [],
      "name": "rewardRate",
      "outputs": [
        {
          "internalType": "uint256",
          "name": "",
          "type": "uint256"
        }
      ],
      "stateMutability": "view",
      "type": "function"
    },
    {
      "inputs": [
        {
          "internalType": "address",
          "name": "",
          "type": "address"
        }
      ],
      "name": "rewards",
      "outputs": [
        {
          "internalType": "uint256",
          "name": "",
          "type": "uint256"
        }
      ],
      "stateMutability": "view",
      "type": "function"
    },
    {
      "inputs": [],
      "name": "rewardsDistributionAddress",
      "outputs": [
        {
          "internalType": "address",
          "name": "",
          "type": "address"
        }
      ],
      "stateMutability": "view",
      "type": "function"
    },
    {
      "inputs": [],
      "name": "rewardsDuration",
      "outputs": [
        {
          "internalType": "uint256",
          "name": "",
          "type": "uint256"
        }
      ],
      "stateMutability": "view",
      "type": "function"
    },
    {
      "inputs": [],
      "name": "rewardsToken",
      "outputs": [
        {
          "internalType": "contract IERC20",
          "name": "",
          "type": "address"
        }
      ],
      "stateMutability": "view",
      "type": "function"
    },
    {
      "inputs": [],
      "name": "rewardsTokenAllocated",
      "outputs": [
        {
          "internalType": "uint256",
          "name": "",
          "type": "uint256"
        }
      ],
      "stateMutability": "view",
      "type": "function"
    },
    {
      "inputs": [
        {
          "internalType": "address",
          "name": "_rewardsDistribution",
          "type": "address"
        }
      ],
      "name": "setRewardsDistribution",
      "outputs": [],
      "stateMutability": "nonpayable",
      "type": "function"
    },
    {
      "inputs": [
        {
          "internalType": "uint256",
          "name": "_rewardsDuration",
          "type": "uint256"
        }
      ],
      "name": "setRewardsDuration",
      "outputs": [],
      "stateMutability": "nonpayable",
      "type": "function"
    },
    {
      "inputs": [
        {
          "internalType": "address",
          "name": "_tokenSaleAddress",
          "type": "address"
        }
      ],
      "name": "setTokenSaleAddress",
      "outputs": [],
      "stateMutability": "nonpayable",
      "type": "function"
    },
    {
      "inputs": [
        {
          "internalType": "bool",
          "name": "_userStakeEnabled",
          "type": "bool"
        }
      ],
      "name": "setuserStakeEnabled",
      "outputs": [],
      "stateMutability": "nonpayable",
      "type": "function"
    },
    {
      "inputs": [
        {
          "internalType": "uint256",
          "name": "amount",
          "type": "uint256"
        }
      ],
      "name": "stake",
      "outputs": [],
      "stateMutability": "nonpayable",
      "type": "function"
    },
    {
      "inputs": [
        {
          "internalType": "uint256",
          "name": "amount",
          "type": "uint256"
        },
        {
          "internalType": "address",
          "name": "userAccount",
          "type": "address"
        }
      ],
      "name": "stakeTransfer",
      "outputs": [],
      "stateMutability": "nonpayable",
      "type": "function"
    },
    {
      "inputs": [],
      "name": "stakingToken",
      "outputs": [
        {
          "internalType": "contract IERC20",
          "name": "",
          "type": "address"
        }
      ],
      "stateMutability": "view",
      "type": "function"
    },
    {
      "inputs": [
        {
          "internalType": "bytes4",
          "name": "interfaceId",
          "type": "bytes4"
        }
      ],
      "name": "supportsInterface",
      "outputs": [
        {
          "internalType": "bool",
          "name": "",
          "type": "bool"
        }
      ],
      "stateMutability": "view",
      "type": "function"
    },
    {
      "inputs": [],
      "name": "tokenSaleAddress",
      "outputs": [
        {
          "internalType": "address",
          "name": "",
          "type": "address"
        }
      ],
      "stateMutability": "view",
      "type": "function"
    },
    {
      "inputs": [],
      "name": "totalSupply",
      "outputs": [
        {
          "internalType": "uint256",
          "name": "",
          "type": "uint256"
        }
      ],
      "stateMutability": "view",
      "type": "function"
    },
    {
      "inputs": [
        {
          "internalType": "uint256",
          "name": "reward",
          "type": "uint256"
        }
      ],
      "name": "transferRewardToken",
      "outputs": [],
      "stateMutability": "nonpayable",
      "type": "function"
    },
    {
      "inputs": [
        {
          "internalType": "uint256",
          "name": "reward",
          "type": "uint256"
        }
      ],
      "name": "transferRewardTokenSamePeriod",
      "outputs": [],
      "stateMutability": "nonpayable",
      "type": "function"
    },
    {
      "inputs": [],
      "name": "unpause",
      "outputs": [],
      "stateMutability": "nonpayable",
      "type": "function"
    },
    {
      "inputs": [
        {
          "internalType": "address",
          "name": "",
          "type": "address"
        }
      ],
      "name": "userRewardPerTokenPaid",
      "outputs": [
        {
          "internalType": "uint256",
          "name": "",
          "type": "uint256"
        }
      ],
      "stateMutability": "view",
      "type": "function"
    },
    {
      "inputs": [],
      "name": "userStakeEnabled",
      "outputs": [
        {
          "internalType": "bool",
          "name": "",
          "type": "bool"
        }
      ],
      "stateMutability": "view",
      "type": "function"
    },
    {
      "inputs": [
        {
          "internalType": "uint256",
          "name": "amount",
          "type": "uint256"
        }
      ],
      "name": "withdraw",
      "outputs": [],
      "stateMutability": "nonpayable",
      "type": "function"
    },
    {
      "inputs": [],
      "name": "withdrawAll",
      "outputs": [],
      "stateMutability": "nonpayable",
      "type": "function"
    }
  ],
  "bytecode": "0x60c0346101f257601f611c3b38819003918201601f19168301916001600160401b038311848410176101f75780849260c0946040528339810103126101f2576100478161020d565b906100546020820161020d565b6100606040830161020d565b61006c6060840161020d565b9061007e60a06080860151950161020d565b946001600160a01b0381166101ed5750335b6001600160a01b031680156101a857600080546001600160a01b031916821781556040805191825260208201929092527fb532073b38c83145e3e5135377a08bf9aab55bc0fd7c1179cd4fb995d2a5159c9190a160016003556004805460ff191690556001600160a01b0390811660805290811660a052600280549282166001600160a01b0319938416179055600792909255600f8054939092169216919091179055604051611a19908161022282396080518181816103c501528181610488015281816107540152818161092f015281816109ea01528181610e1701526115fe015260a051818181610334015281816106580152818161072301528181610b5d01528181610c4701528181610f5e01526116450152f35b60405162461bcd60e51b815260206004820152601960248201527f4f776e657220616464726573732063616e6e6f742062652030000000000000006044820152606490fd5b610090565b600080fd5b634e487b7160e01b600052604160045260246000fd5b51906001600160a01b03821682036101f25756fe6080604052600436101561001257600080fd5b60003560e01c80628cc2621461144957806301ffc9a7146113db5780630700037d146113a15780631448b3ca1461137857806314abdf501461134f5780631627540c146112e357806318160ddd146112c557806319762143146112825780631c1f78eb1461126057806326838b181461121b5780632e1a7d4d146111ff578063311c6c1c146111d9578063386a9525146111bb5780633c6b16ab146110fc5780633d18b912146110da5780633d356aa9146110bf5780633f4ba83a1461105657806353a47bb71461102d5780635afe520714610fea5780635c975abb14610fc757806370a0823114610f8d57806372f702f314610f48578063741872a614610df357806379ba509714610d315780637b0a47ee14610d1357806380faa57d14610cf85780638456cb5914610c9e578063853828b614610bdf5780638b1e31c714610aa85780638b87634714610a6e5780638bf6fb3114610a505780638da5cb5b14610a275780638fa2300b146109615780639e8c708e146106f4578063a694fc3a146105e0578063c8f33c91146105c2578063cc1a378f146104da578063cd3daf9d146104b7578063d1af0c7d14610472578063df136d6514610454578063e9fad8ee146102c4578063ebe2b12b146102a65763f68df5b9146101f457600080fd5b346102a15760203660031901126102a1576000805160206119ed833981519152602060043561022e60018060a01b0360025416331461154b565b610236611708565b6009556102416116b9565b600855600554428111610279575061026860075461025f81426114d8565b600555826114b8565b6006555b42600855604051908152a1005b61029061028a610299924290611482565b836114b8565b600654906114d8565b60065561026c565b600080fd5b346102a15760003660031901126102a1576020600554604051908152f35b346102a15760003660031901126102a1576102dd6117b8565b33600052600e6020526040600020546102f46117b8565b6102fd336117da565b801561041b5761030f81600d54611482565b600d5533600052600e602052604060002061032b828254611482565b905561035881337f0000000000000000000000000000000000000000000000000000000000000000611830565b6040519081527f7084f5476618d8e60b11ef0d7d3f06914655adb8793e28ff7f018d4c76d505d560203392a26001600355610392336117da565b33600052600c602052604060002054806103ae575b6001600355005b33600052600c602052600060408120556103e981337f0000000000000000000000000000000000000000000000000000000000000000611830565b6040519081527fe2403640ba68fed3a2f88b7557551d1993f84b99bb10ff833f0cf8db0c5e048660203392a2806103a7565b60405162461bcd60e51b8152602060048201526011602482015270043616e6e6f74207769746864726177203607c1b6044820152606490fd5b346102a15760003660031901126102a1576020600954604051908152f35b346102a15760003660031901126102a1576040517f00000000000000000000000000000000000000000000000000000000000000006001600160a01b03168152602090f35b346102a15760003660031901126102a15760206104d2611708565b604051908152f35b346102a15760203660031901126102a1576004356104f6611766565b600554421115610531576020817ffb46ca5a5e06d4540d6387b930a7c978bce0db5f449ec6b3f5d07c6e1d44f2d392600755604051908152a1005b60405162461bcd60e51b815260206004820152605860248201527f50726576696f7573207265776172647320706572696f64206d7573742062652060448201527f636f6d706c657465206265666f7265206368616e67696e67207468652064757260648201527f6174696f6e20666f7220746865206e657720706572696f640000000000000000608482015260a490fd5b346102a15760003660031901126102a1576020600854604051908152f35b346102a15760203660031901126102a1576004356105fc6117b8565b6106046118b7565b61060d336117da565b60ff600f5460a01c16156106af576106268115156116cb565b61063281600d546114d8565b600d5533600052600e602052604060002061064e8282546114d8565b905561067c8130337f0000000000000000000000000000000000000000000000000000000000000000611873565b6040519081527f9e71bc8eea02a63969f509818f2dafb9254532904319f9dbda79b67bd34a5f3d60203392a26001600355005b60405162461bcd60e51b815260206004820152601b60248201527f757365722063616e206e6f74206469726563746c79207374616b6500000000006044820152606490fd5b346102a15760203660031901126102a15761070d61146c565b610715611766565b6001600160a01b03818116907f000000000000000000000000000000000000000000000000000000000000000016818114908161092d575b506108e8577f00000000000000000000000000000000000000000000000000000000000000006001600160a01b0316810361084d576005544211156107eb577f8c1256b8896378cd5044f80c202f9772b9d77dc85c8a6eb51967210b09bfaa28916107ce6107b96115e9565b80935b6000546001600160a01b031690611830565b604080516001600160a01b039290921682526020820192909252a1005b60405162461bcd60e51b815260206004820152603460248201527f6e6f2072657761726473546f6b656e207769746864726177206265666f726520604482015273195b99081bd9881c995dd85c99081c195c9a5bd960621b6064820152608490fd5b6040516370a0823160e01b815230600482015291602083602481855afa9283156108dc576000936108a6575b506107ce7f8c1256b8896378cd5044f80c202f9772b9d77dc85c8a6eb51967210b09bfaa289380936107bc565b92506020833d6020116108d4575b816108c1602093836115b1565b810103126102a1579151916107ce610879565b3d91506108b4565b6040513d6000823e3d90fd5b60405162461bcd60e51b815260206004820152601e60248201527f63616e206e6f74207769746864726177207374616b656420746f6b656e7300006044820152606490fd5b7f00000000000000000000000000000000000000000000000000000000000000006001600160a01b0316141590508361074d565b346102a15760203660031901126102a1576103a76004356109806117b8565b61099560018060a01b0360025416331461154b565b61099d611708565b6009556109a86116b9565b600855600554428111610a0e57506109c660075461025f81426114d8565b6006555b426008556000805160206119ed8339815191526020604051838152a130337f0000000000000000000000000000000000000000000000000000000000000000611873565b61029061028a610a1f924290611482565b6006556109ca565b346102a15760003660031901126102a1576000546040516001600160a01b039091168152602090f35b346102a15760003660031901126102a1576020600a54604051908152f35b346102a15760203660031901126102a1576001600160a01b03610a8f61146c565b16600052600b6020526020604060002054604051908152f35b346102a15760403660031901126102a1576024356001600160a01b03811690600435908281036102a157610aeb90610ade6117b8565b610ae66118b7565b6117da565b600f546001600160a01b03163303610b8f57602081610b2c7f9e71bc8eea02a63969f509818f2dafb9254532904319f9dbda79b67bd34a5f3d9315156116cb565b610b3881600d546114d8565b600d5583600052600e82526040600020610b538282546114d8565b9055610b818130337f0000000000000000000000000000000000000000000000000000000000000000611873565b604051908152a26001600355005b60405162461bcd60e51b815260206004820152602260248201527f6f6e6c7920746f6b656e2073616c6520636f6e74726163742063616e207374616044820152616b6560f01b6064820152608490fd5b346102a15760003660031901126102a15733600052600e602052604060002054610c076117b8565b610c10336117da565b801561041b57610c2281600d54611482565b600d5533600052600e6020526040600020610c3e828254611482565b9055610c6b81337f0000000000000000000000000000000000000000000000000000000000000000611830565b6040519081527f7084f5476618d8e60b11ef0d7d3f06914655adb8793e28ff7f018d4c76d505d560203392a26001600355005b346102a15760003660031901126102a157610cb7611766565b610cbf6118b7565b600160ff1960045416176004557f62e78cea01bee320cd4e420270b5ea74000d11b0c9f74754ebdbfc544b05a2586020604051338152a1005b346102a15760003660031901126102a15760206104d26116b9565b346102a15760003660031901126102a1576020600654604051908152f35b346102a15760003660031901126102a1576001546001600160a01b03811633819003610dae57600054604080516001600160a01b0383168152602081018490527fb532073b38c83145e3e5135377a08bf9aab55bc0fd7c1179cd4fb995d2a5159c9190a16001600160a01b03199081169190911760005516600155005b60405162461bcd60e51b815260206004820152601d60248201527f6d73672e73656e646572204e4f54206e6f6d696e617465644f776e65720000006044820152606490fd5b346102a15760203660031901126102a157600435610e0f6117b8565b610e3b8130337f0000000000000000000000000000000000000000000000000000000000000000611873565b610e5060018060a01b0360025416331461154b565b610e58611708565b600955610e636116b9565b600855600554428111610f145750610e7d600754826114b8565b6006555b610e896115e9565b600654610e9960075480936114b8565b10610ecf576000805160206119ed83398151915291610ebe60209242600855426114d8565b600555604051908152a16001600355005b60405162461bcd60e51b815260206004820152601860248201527f50726f76696465642072657761726420746f6f206869676800000000000000006044820152606490fd5b610f37610f31610f28610f40934290611482565b600654906114a5565b836114d8565b600754906114b8565b600655610e81565b346102a15760003660031901126102a1576040517f00000000000000000000000000000000000000000000000000000000000000006001600160a01b03168152602090f35b346102a15760203660031901126102a1576001600160a01b03610fae61146c565b16600052600e6020526020604060002054604051908152f35b346102a15760003660031901126102a157602060ff600454166040519015158152f35b346102a15760203660031901126102a15761100361146c565b61100b611766565b600f80546001600160a01b0319166001600160a01b0392909216919091179055005b346102a15760003660031901126102a1576001546040516001600160a01b039091168152602090f35b346102a15760003660031901126102a15761106f611766565b60045460ff8116156110ae5760ff19166004557f5db9ee0a495bf2e6ff9c91a7834c1ba4fdd244a5e8aa4e537bd38aeae4b073aa6020604051338152a1005b638dfc202b60e01b60005260046000fd5b346102a15760003660031901126102a15760206104d26115e9565b346102a15760003660031901126102a1576110f36117b8565b610392336117da565b346102a15760203660031901126102a15760043561112560018060a01b0360025416331461154b565b61112d611708565b6009556111386116b9565b60085560055442811161119f5750611152600754826114b8565b6006555b61115e6115e9565b60065461116e60075480936114b8565b10610ecf576000805160206119ed8339815191529161119360209242600855426114d8565b600555604051908152a1005b610f37610f31610f286111b3934290611482565b600655611156565b346102a15760003660031901126102a1576020600754604051908152f35b346102a15760003660031901126102a157602060ff600f5460a01c166040519015158152f35b346102a15760203660031901126102a157600435610c076117b8565b346102a15760203660031901126102a1576004358015158091036102a157611241611766565b600f805460ff60a01b191660a09290921b60ff60a01b16919091179055005b346102a15760003660031901126102a15760206104d2600654600754906114a5565b346102a15760203660031901126102a15761129b61146c565b6112a3611766565b600280546001600160a01b0319166001600160a01b0392909216919091179055005b346102a15760003660031901126102a1576020600d54604051908152f35b346102a15760203660031901126102a1577f906a1c6bd7e3091ea86693dd029a831c19049ce77f1dce2ce0bab1cacbabce22602061131f61146c565b611327611766565b600180546001600160a01b0319166001600160a01b03929092169182179055604051908152a1005b346102a15760003660031901126102a1576002546040516001600160a01b039091168152602090f35b346102a15760003660031901126102a157600f546040516001600160a01b039091168152602090f35b346102a15760203660031901126102a1576001600160a01b036113c261146c565b16600052600c6020526020604060002054604051908152f35b346102a15760203660031901126102a15760043563ffffffff60e01b81168091036102a15760209063cc28885360e01b8114908115611438575b8115611427575b506040519015158152f35b6301ffc9a760e01b1490508261141c565b638b1e31c760e01b81149150611415565b346102a15760203660031901126102a15760206104d261146761146c565b6114e5565b600435906001600160a01b03821682036102a157565b9190820391821161148f57565b634e487b7160e01b600052601160045260246000fd5b8181029291811591840414171561148f57565b81156114c2570490565b634e487b7160e01b600052601260045260246000fd5b9190820180921161148f57565b6115489060018060a01b031680600052600e602052670de0b6b3a764000061153260406000205461152c611517611708565b85600052600b60205260406000205490611482565b906114a5565b0490600052600c602052604060002054906114d8565b90565b1561155257565b60405162461bcd60e51b815260206004820152603160248201527f43616c6c6572206973206e6f742072657761726473446973747269627574696f6044820152701b9059191c995cdcc818dbdb9d1c9858dd607a1b6064820152608490fd5b90601f8019910116810190811067ffffffffffffffff8211176115d357604052565b634e487b7160e01b600052604160045260246000fd5b6040516370a0823160e01b81523060048201527f00000000000000000000000000000000000000000000000000000000000000006001600160a01b031690602081602481855afa9081156108dc57600091611684575b509081907f00000000000000000000000000000000000000000000000000000000000000006001600160a01b031614611676575090565b6115489150600d5490611482565b906020823d6020116116b1575b8161169e602093836115b1565b810103126116ae5750513861163f565b80fd5b3d9150611691565b60055480421060001461154857504290565b156116d257565b60405162461bcd60e51b815260206004820152600e60248201526d043616e6e6f74207374616b6520360941b6044820152606490fd5b600d54801561175f5760095461172b610f286117226116b9565b60085490611482565b670de0b6b3a7640000810290808204670de0b6b3a7640000149015171561148f5761154892611759916114b8565b906114d8565b5060095490565b6000546001600160a01b0316330361177a57565b60405162461bcd60e51b81526020600482015260166024820152753932b9ba3934b1ba32b210169037b7363ca7bbb732b960511b6044820152606490fd5b6002600354146117c9576002600355565b633ee5aeb560e01b60005260046000fd5b6117e2611708565b6009556117ed6116b9565b6008556001600160a01b0381169081611804575050565b61180d906114e5565b81600052600c60205260406000205560095490600052600b602052604060002055565b60405163a9059cbb60e01b60208201526001600160a01b039290921660248301526044808301939093529181526118719161186c6064836115b1565b6118d4565b565b6040516323b872dd60e01b60208201526001600160a01b0392831660248201529290911660448301526064808301939093529181526118719161186c6084836115b1565b60ff600454166118c357565b63d93c066560e01b60005260046000fd5b81516001600160a01b0390911691600091829160200182855af13d1561197f573d67ffffffffffffffff81116115d35761193191604051916119206020601f19601f84011601846115b1565b82523d6000602084013e5b8361198b565b805190811515918261195b575b50506119475750565b635274afe760e01b60005260045260246000fd5b81925090602091810103126102a157602001518015908115036102a157388061193e565b6119319060609061192b565b906119b157508051156119a057805190602001fd5b630a12f52160e11b60005260046000fd5b815115806119e3575b6119c2575090565b639996b31560e01b60009081526001600160a01b0391909116600452602490fd5b50803b156119ba56fede88a922e0d3b88b24e9623efeb464919c6bf9f66857a65e2bfcf2ce87a9433da164736f6c634300081b000a",
  "linkReferences": {},
  "deployedLinkReferences": {}
}