{
  "_format": "hh-sol-artifact-1",
  "contractName": "StakingRewards",
  "sourceName": "contracts/StakingRewards.sol",
  "abi": [
    {
      "inputs": [
        {
          "internalType": "address",
          "name": "_owner",
          "type": "address"
        },
        {
          "internalType": "address",
          "name": "_rewardsDistribution",
          "type": "address"
        },
        {
          "internalType": "address",
          "name": "_rewardsToken",
          "type": "address"
        },
        {
          "internalType": "address",
          "name": "_stakingToken",
          "type": "address"
        },
        {
          "internalType": "uint256",
          "name": "_rewardsDuration",
          "type": "uint256"
        }
      ],
      "stateMutability": "nonpayable",
      "type": "constructor"
    },
    {
      "anonymous": false,
      "inputs": [
        {
          "indexed": false,
          "internalType": "address",
          "name": "oldOwner",
          "type": "address"
        },
        {
          "indexed": false,
          "internalType": "address",
          "name": "newOwner",
          "type": "address"
        }
      ],
      "name": "OwnerChanged",
      "type": "event"
    },
    {
      "anonymous": false,
      "inputs": [
        {
          "indexed": false,
          "internalType": "address",
          "name": "newOwner",
          "type": "address"
        }
      ],
      "name": "OwnerNominated",
      "type": "event"
    },
    {
      "anonymous": false,
      "inputs": [
        {
          "indexed": false,
          "internalType": "address",
          "name": "account",
          "type": "address"
        }
      ],
      "name": "Paused",
      "type": "event"
    },
    {
      "anonymous": false,
      "inputs": [
        {
          "indexed": false,
          "internalType": "address",
          "name": "token",
          "type": "address"
        },
        {
          "indexed": false,
          "internalType": "uint256",
          "name": "amount",
          "type": "uint256"
        }
      ],
      "name": "Recovered",
      "type": "event"
    },
    {
      "anonymous": false,
      "inputs": [
        {
          "indexed": false,
          "internalType": "uint256",
          "name": "reward",
          "type": "uint256"
        }
      ],
      "name": "RewardAdded",
      "type": "event"
    },
    {
      "anonymous": false,
      "inputs": [
        {
          "indexed": true,
          "internalType": "address",
          "name": "user",
          "type": "address"
        },
        {
          "indexed": false,
          "internalType": "uint256",
          "name": "reward",
          "type": "uint256"
        }
      ],
      "name": "RewardPaid",
      "type": "event"
    },
    {
      "anonymous": false,
      "inputs": [
        {
          "indexed": false,
          "internalType": "uint256",
          "name": "newDuration",
          "type": "uint256"
        }
      ],
      "name": "RewardsDurationUpdated",
      "type": "event"
    },
    {
      "anonymous": false,
      "inputs": [
        {
          "indexed": true,
          "internalType": "address",
          "name": "user",
          "type": "address"
        },
        {
          "indexed": false,
          "internalType": "uint256",
          "name": "amount",
          "type": "uint256"
        }
      ],
      "name": "Staked",
      "type": "event"
    },
    {
      "anonymous": false,
      "inputs": [
        {
          "indexed": false,
          "internalType": "address",
          "name": "account",
          "type": "address"
        }
      ],
      "name": "Unpaused",
      "type": "event"
    },
    {
      "anonymous": false,
      "inputs": [
        {
          "indexed": true,
          "internalType": "address",
          "name": "user",
          "type": "address"
        },
        {
          "indexed": false,
          "internalType": "uint256",
          "name": "amount",
          "type": "uint256"
        }
      ],
      "name": "Withdrawn",
      "type": "event"
    },
    {
      "inputs": [],
      "name": "acceptOwnership",
      "outputs": [],
      "stateMutability": "nonpayable",
      "type": "function"
    },
    {
      "inputs": [
        {
          "internalType": "address",
          "name": "account",
          "type": "address"
        }
      ],
      "name": "balanceOf",
      "outputs": [
        {
          "internalType": "uint256",
          "name": "",
          "type": "uint256"
        }
      ],
      "stateMutability": "view",
      "type": "function"
    },
    {
      "inputs": [],
      "name": "balanceRewardsToken",
      "outputs": [
        {
          "internalType": "uint256",
          "name": "",
          "type": "uint256"
        }
      ],
      "stateMutability": "view",
      "type": "function"
    },
    {
      "inputs": [
        {
          "internalType": "address",
          "name": "account",
          "type": "address"
        }
      ],
      "name": "earned",
      "outputs": [
        {
          "internalType": "uint256",
          "name": "",
          "type": "uint256"
        }
      ],
      "stateMutability": "view",
      "type": "function"
    },
    {
      "inputs": [],
      "name": "exit",
      "outputs": [],
      "stateMutability": "nonpayable",
      "type": "function"
    },
    {
      "inputs": [],
      "name": "getReward",
      "outputs": [],
      "stateMutability": "nonpayable",
      "type": "function"
    },
    {
      "inputs": [],
      "name": "getRewardForDuration",
      "outputs": [
        {
          "internalType": "uint256",
          "name": "",
          "type": "uint256"
        }
      ],
      "stateMutability": "view",
      "type": "function"
    },
    {
      "inputs": [],
      "name": "lastTimeRewardApplicable",
      "outputs": [
        {
          "internalType": "uint256",
          "name": "",
          "type": "uint256"
        }
      ],
      "stateMutability": "view",
      "type": "function"
    },
    {
      "inputs": [],
      "name": "lastUpdateTime",
      "outputs": [
        {
          "internalType": "uint256",
          "name": "",
          "type": "uint256"
        }
      ],
      "stateMutability": "view",
      "type": "function"
    },
    {
      "inputs": [
        {
          "internalType": "address",
          "name": "_owner",
          "type": "address"
        }
      ],
      "name": "nominateNewOwner",
      "outputs": [],
      "stateMutability": "nonpayable",
      "type": "function"
    },
    {
      "inputs": [],
      "name": "nominatedOwner",
      "outputs": [
        {
          "internalType": "address",
          "name": "",
          "type": "address"
        }
      ],
      "stateMutability": "view",
      "type": "function"
    },
    {
      "inputs": [
        {
          "internalType": "uint256",
          "name": "reward",
          "type": "uint256"
        }
      ],
      "name": "notifyRewardAmount",
      "outputs": [],
      "stateMutability": "nonpayable",
      "type": "function"
    },
    {
      "inputs": [
        {
          "internalType": "uint256",
          "name": "reward",
          "type": "uint256"
        }
      ],
      "name": "notifyRewardAmountSamePeriod",
      "outputs": [],
      "stateMutability": "nonpayable",
      "type": "function"
    },
    {
      "inputs": [],
      "name": "owner",
      "outputs": [
        {
          "internalType": "address",
          "name": "",
          "type": "address"
        }
      ],
      "stateMutability": "view",
      "type": "function"
    },
    {
      "inputs": [],
      "name": "pause",
      "outputs": [],
      "stateMutability": "nonpayable",
      "type": "function"
    },
    {
      "inputs": [],
      "name": "paused",
      "outputs": [
        {
          "internalType": "bool",
          "name": "",
          "type": "bool"
        }
      ],
      "stateMutability": "view",
      "type": "function"
    },
    {
      "inputs": [],
      "name": "periodFinish",
      "outputs": [
        {
          "internalType": "uint256",
          "name": "",
          "type": "uint256"
        }
      ],
      "stateMutability": "view",
      "type": "function"
    },
    {
      "inputs": [
        {
          "internalType": "address",
          "name": "tokenAddress",
          "type": "address"
        },
        {
          "internalType": "uint256",
          "name": "tokenAmount",
          "type": "uint256"
        }
      ],
      "name": "recoverERC20",
      "outputs": [],
      "stateMutability": "nonpayable",
      "type": "function"
    },
    {
      "inputs": [],
      "name": "rewardPerToken",
      "outputs": [
        {
          "internalType": "uint256",
          "name": "",
          "type": "uint256"
        }
      ],
      "stateMutability": "view",
      "type": "function"
    },
    {
      "inputs": [],
      "name": "rewardPerTokenStored",
      "outputs": [
        {
          "internalType": "uint256",
          "name": "",
          "type": "uint256"
        }
      ],
      "stateMutability": "view",
      "type": "function"
    },
    {
      "inputs": [],
      "name": "rewardRate",
      "outputs": [
        {
          "internalType": "uint256",
          "name": "",
          "type": "uint256"
        }
      ],
      "stateMutability": "view",
      "type": "function"
    },
    {
      "inputs": [
        {
          "internalType": "address",
          "name": "",
          "type": "address"
        }
      ],
      "name": "rewards",
      "outputs": [
        {
          "internalType": "uint256",
          "name": "",
          "type": "uint256"
        }
      ],
      "stateMutability": "view",
      "type": "function"
    },
    {
      "inputs": [],
      "name": "rewardsDistribution",
      "outputs": [
        {
          "internalType": "address",
          "name": "",
          "type": "address"
        }
      ],
      "stateMutability": "view",
      "type": "function"
    },
    {
      "inputs": [],
      "name": "rewardsDuration",
      "outputs": [
        {
          "internalType": "uint256",
          "name": "",
          "type": "uint256"
        }
      ],
      "stateMutability": "view",
      "type": "function"
    },
    {
      "inputs": [],
      "name": "rewardsToken",
      "outputs": [
        {
          "internalType": "contract IERC20",
          "name": "",
          "type": "address"
        }
      ],
      "stateMutability": "view",
      "type": "function"
    },
    {
      "inputs": [],
      "name": "rewardsTokenAllocated",
      "outputs": [
        {
          "internalType": "uint256",
          "name": "",
          "type": "uint256"
        }
      ],
      "stateMutability": "view",
      "type": "function"
    },
    {
      "inputs": [
        {
          "internalType": "address",
          "name": "_rewardsDistribution",
          "type": "address"
        }
      ],
      "name": "setRewardsDistribution",
      "outputs": [],
      "stateMutability": "nonpayable",
      "type": "function"
    },
    {
      "inputs": [
        {
          "internalType": "uint256",
          "name": "_rewardsDuration",
          "type": "uint256"
        }
      ],
      "name": "setRewardsDuration",
      "outputs": [],
      "stateMutability": "nonpayable",
      "type": "function"
    },
    {
      "inputs": [
        {
          "internalType": "address",
          "name": "_tokenSaleAddress",
          "type": "address"
        }
      ],
      "name": "setTokenSaleAddress",
      "outputs": [],
      "stateMutability": "nonpayable",
      "type": "function"
    },
    {
      "inputs": [
        {
          "internalType": "bool",
          "name": "_userStakeEnabled",
          "type": "bool"
        }
      ],
      "name": "setuserStakeEnabled",
      "outputs": [],
      "stateMutability": "nonpayable",
      "type": "function"
    },
    {
      "inputs": [
        {
          "internalType": "uint256",
          "name": "amount",
          "type": "uint256"
        }
      ],
      "name": "stake",
      "outputs": [],
      "stateMutability": "nonpayable",
      "type": "function"
    },
    {
      "inputs": [
        {
          "internalType": "uint256",
          "name": "amount",
          "type": "uint256"
        },
        {
          "internalType": "address",
          "name": "userAccount",
          "type": "address"
        }
      ],
      "name": "stakeTransfer",
      "outputs": [],
      "stateMutability": "nonpayable",
      "type": "function"
    },
    {
      "inputs": [],
      "name": "stakingToken",
      "outputs": [
        {
          "internalType": "contract IERC20",
          "name": "",
          "type": "address"
        }
      ],
      "stateMutability": "view",
      "type": "function"
    },
    {
      "inputs": [],
      "name": "tokenSaleAddress",
      "outputs": [
        {
          "internalType": "address",
          "name": "",
          "type": "address"
        }
      ],
      "stateMutability": "view",
      "type": "function"
    },
    {
      "inputs": [],
      "name": "totalSupply",
      "outputs": [
        {
          "internalType": "uint256",
          "name": "",
          "type": "uint256"
        }
      ],
      "stateMutability": "view",
      "type": "function"
    },
    {
      "inputs": [
        {
          "internalType": "uint256",
          "name": "reward",
          "type": "uint256"
        }
      ],
      "name": "transferRewardToken",
      "outputs": [],
      "stateMutability": "nonpayable",
      "type": "function"
    },
    {
      "inputs": [
        {
          "internalType": "uint256",
          "name": "reward",
          "type": "uint256"
        }
      ],
      "name": "transferRewardTokenSamePeriod",
      "outputs": [],
      "stateMutability": "nonpayable",
      "type": "function"
    },
    {
      "inputs": [],
      "name": "unpause",
      "outputs": [],
      "stateMutability": "nonpayable",
      "type": "function"
    },
    {
      "inputs": [
        {
          "internalType": "uint256",
          "name": "timestamp",
          "type": "uint256"
        }
      ],
      "name": "updatePeriodFinish",
      "outputs": [],
      "stateMutability": "nonpayable",
      "type": "function"
    },
    {
      "inputs": [
        {
          "internalType": "address",
          "name": "",
          "type": "address"
        }
      ],
      "name": "userRewardPerTokenPaid",
      "outputs": [
        {
          "internalType": "uint256",
          "name": "",
          "type": "uint256"
        }
      ],
      "stateMutability": "view",
      "type": "function"
    },
    {
      "inputs": [],
      "name": "userStakeEnabled",
      "outputs": [
        {
          "internalType": "bool",
          "name": "",
          "type": "bool"
        }
      ],
      "stateMutability": "view",
      "type": "function"
    },
    {
      "inputs": [
        {
          "internalType": "uint256",
          "name": "amount",
          "type": "uint256"
        }
      ],
      "name": "withdraw",
      "outputs": [],
      "stateMutability": "nonpayable",
      "type": "function"
    },
    {
      "inputs": [],
      "name": "withdrawAll",
      "outputs": [],
      "stateMutability": "nonpayable",
      "type": "function"
    }
  ],
  "bytecode": "0x608060405234801561001057600080fd5b50604051611f17380380611f17833981810160405260a081101561003357600080fd5b508051602082015160408301516060840151608090940151929391929091906001600160a01b038516156100675784610069565b335b6001600160a01b0381166100c4576040805162461bcd60e51b815260206004820152601960248201527f4f776e657220616464726573732063616e6e6f74206265203000000000000000604482015290519081900360640190fd5b600080546001600160a01b0319166001600160a01b038316908117825560408051928352602083019190915280517fb532073b38c83145e3e5135377a08bf9aab55bc0fd7c1179cd4fb995d2a5159c9281900390910190a1506001600355600480546001600160a01b03948516610100026001600160a81b0319909116179055600580549284166001600160a01b031993841617905560028054949093169390911692909217905560085550611d988061017f6000396000f3fe608060405234801561001057600080fd5b50600436106102685760003560e01c806372f702f3116101515780638da5cb5b116100c3578063cd3daf9d11610087578063cd3daf9d1461059d578063d1af0c7d146105a5578063df136d65146105ad578063e9fad8ee146105b5578063ebe2b12b146105bd578063f68df5b9146105c557610268565b80638da5cb5b146105365780638fa2300b1461053e578063a694fc3a1461055b578063c8f33c9114610578578063cc1a378f1461058057610268565b80638456cb59116101155780638456cb59146104a0578063853828b6146104a85780638980f11f146104b05780638b1e31c7146104dc5780638b876347146105085780638bf6fb311461052e57610268565b806372f702f314610463578063741872a61461046b57806379ba5097146104885780637b0a47ee1461049057806380faa57d1461049857610268565b8063386a9525116101ea5780633fc6df6e116101ae5780633fc6df6e146103e257806353a47bb7146103ea578063556f6e6b146103f25780635afe52071461040f5780635c975abb1461043557806370a082311461043d57610268565b8063386a9525146103a55780633c6b16ab146103ad5780633d18b912146103ca5780633d356aa9146103d25780633f4ba83a146103da57610268565b80631976214311610231578063197621431461031f5780631c1f78eb1461034557806326838b181461034d5780632e1a7d4d1461036c578063311c6c1c1461038957610268565b80628cc2621461026d5780630700037d146102a55780631448b3ca146102cb5780631627540c146102ef57806318160ddd14610317575b600080fd5b6102936004803603602081101561028357600080fd5b50356001600160a01b03166105e2565b60408051918252519081900360200190f35b610293600480360360208110156102bb57600080fd5b50356001600160a01b0316610660565b6102d3610672565b604080516001600160a01b039092168252519081900360200190f35b6103156004803603602081101561030557600080fd5b50356001600160a01b0316610681565b005b6102936106dd565b6103156004803603602081101561033557600080fd5b50356001600160a01b03166106e4565b61029361070e565b6103156004803603602081101561036357600080fd5b5035151561072c565b6103156004803603602081101561038257600080fd5b5035610752565b610391610885565b604080519115158252519081900360200190f35b610293610895565b610315600480360360208110156103c357600080fd5b503561089b565b610315610a16565b610293610aee565b610315610bae565b6102d3610bc0565b6102d3610bcf565b6103156004803603602081101561040857600080fd5b5035610bde565b6103156004803603602081101561042557600080fd5b50356001600160a01b0316610bf7565b610391610c21565b6102936004803603602081101561045357600080fd5b50356001600160a01b0316610c2a565b6102d3610c45565b6103156004803603602081101561048157600080fd5b5035610c54565b610315610ccd565b610293610d89565b610293610d8f565b610315610d9d565b610315610dad565b610315600480360360408110156104c657600080fd5b506001600160a01b038135169060200135610dc6565b610315600480360360408110156104f257600080fd5b50803590602001356001600160a01b0316610e7d565b6102936004803603602081101561051e57600080fd5b50356001600160a01b0316611057565b610293611069565b6102d361106f565b6103156004803603602081101561055457600080fd5b503561107e565b6103156004803603602081101561057157600080fd5b50356110ef565b6102936112cb565b6103156004803603602081101561059657600080fd5b50356112d1565b610293611354565b6102d36113a2565b6102936113b6565b6103156113bc565b6102936113dd565b610315600480360360208110156105db57600080fd5b50356113e3565b6001600160a01b0381166000908152600d6020908152604080832054600c90925282205461065a919061065490670de0b6b3a76400009061064e9061062f90610629611354565b906114c3565b6001600160a01b0388166000908152600f602052604090205490611520565b90611580565b906115e7565b92915050565b600d6020526000908152604090205481565b6010546001600160a01b031681565b610689611641565b600180546001600160a01b0383166001600160a01b0319909116811790915560408051918252517f906a1c6bd7e3091ea86693dd029a831c19049ce77f1dce2ce0bab1cacbabce229181900360200190a150565b600e545b90565b6106ec611641565b600280546001600160a01b0319166001600160a01b0392909216919091179055565b600061072760085460075461152090919063ffffffff16565b905090565b610734611641565b60108054911515600160a01b0260ff60a01b19909216919091179055565b60026003541415610798576040805162461bcd60e51b815260206004820152601f6024820152600080516020611c01833981519152604482015290519081900360640190fd5b6002600355336107a78161168a565b600082116107f0576040805162461bcd60e51b8152602060048201526011602482015270043616e6e6f74207769746864726177203607c1b604482015290519081900360640190fd5b600e546107fd90836114c3565b600e55336000908152600f602052604090205461081a90836114c3565b336000818152600f6020526040902091909155600554610846916001600160a01b0390911690846116e7565b60408051838152905133917f7084f5476618d8e60b11ef0d7d3f06914655adb8793e28ff7f018d4c76d505d5919081900360200190a250506001600355565b601054600160a01b900460ff1681565b60085481565b6002546001600160a01b031633146108e45760405162461bcd60e51b815260040180806020018281038252602a815260200180611cee602a913960400191505060405180910390fd5b60006108ef8161168a565b600654421061090e57600854610906908390611580565b600755610951565b60065460009061091e90426114c3565b905060006109376007548361152090919063ffffffff16565b60085490915061094b9061064e86846115e7565b60075550505b600061095b610aee565b90506109726008548261158090919063ffffffff16565b60075411156109c8576040805162461bcd60e51b815260206004820152601860248201527f50726f76696465642072657761726420746f6f20686967680000000000000000604482015290519081900360640190fd5b4260098190556008546109db91906115e7565b6006556040805184815290517fde88a922e0d3b88b24e9623efeb464919c6bf9f66857a65e2bfcf2ce87a9433d9181900360200190a1505050565b60026003541415610a5c576040805162461bcd60e51b815260206004820152601f6024820152600080516020611c01833981519152604482015290519081900360640190fd5b600260035533610a6b8161168a565b336000908152600d60205260409020548015610ae557336000818152600d6020526040812055600454610aae916101009091046001600160a01b031690836116e7565b60408051828152905133917fe2403640ba68fed3a2f88b7557551d1993f84b99bb10ff833f0cf8db0c5e0486919081900360200190a25b50506001600355565b600080600460019054906101000a90046001600160a01b03166001600160a01b03166370a08231306040518263ffffffff1660e01b815260040180826001600160a01b0316815260200191505060206040518083038186803b158015610b5357600080fd5b505afa158015610b67573d6000803e3d6000fd5b505050506040513d6020811015610b7d57600080fd5b50516005546004549192506001600160a01b0390811661010090920416141561072757600e5461065a9082906114c3565b610bb6611641565b610bbe61173e565b565b6002546001600160a01b031681565b6001546001600160a01b031681565b610be6611641565b6000610bf18161168a565b50600655565b610bff611641565b601080546001600160a01b0319166001600160a01b0392909216919091179055565b60045460ff1690565b6001600160a01b03166000908152600f602052604090205490565b6005546001600160a01b031681565b60026003541415610c9a576040805162461bcd60e51b815260206004820152601f6024820152600080516020611c01833981519152604482015290519081900360640190fd5b6002600355600454610cbc9061010090046001600160a01b03163330846117de565b610cc58161089b565b506001600355565b6001546001600160a01b03163314610d165760405162461bcd60e51b8152600401808060200182810382526035815260200180611c216035913960400191505060405180910390fd5b600054600154604080516001600160a01b03938416815292909116602083015280517fb532073b38c83145e3e5135377a08bf9aab55bc0fd7c1179cd4fb995d2a5159c9281900390910190a160018054600080546001600160a01b03199081166001600160a01b03841617909155169055565b60075481565b60006107274260065461183e565b610da5611641565b610bbe611854565b336000908152600f6020526040902054610bbe90610752565b610dce611641565b6005546001600160a01b0383811691161415610e1b5760405162461bcd60e51b8152600401808060200182810382526021815260200180611d426021913960400191505060405180910390fd5b600054610e35906001600160a01b038481169116836116e7565b604080516001600160a01b03841681526020810183905281517f8c1256b8896378cd5044f80c202f9772b9d77dc85c8a6eb51967210b09bfaa28929181900390910190a15050565b60026003541415610ec3576040805162461bcd60e51b815260206004820152601f6024820152600080516020611c01833981519152604482015290519081900360640190fd5b6002600355610ed0610c21565b15610f15576040805162461bcd60e51b815260206004820152601060248201526f14185d5cd8589b194e881c185d5cd95960821b604482015290519081900360640190fd5b80610f1f8161168a565b6010546001600160a01b03163314610f685760405162461bcd60e51b8152600401808060200182810382526022815260200180611ccc6022913960400191505060405180910390fd5b60008311610fae576040805162461bcd60e51b815260206004820152600e60248201526d043616e6e6f74207374616b6520360941b604482015290519081900360640190fd5b600e54610fbb90846115e7565b600e556001600160a01b0382166000908152600f6020526040902054610fe190846115e7565b6001600160a01b038084166000908152600f602052604090209190915560055461100e91163330866117de565b6040805184815290516001600160a01b038416917f9e71bc8eea02a63969f509818f2dafb9254532904319f9dbda79b67bd34a5f3d919081900360200190a25050600160035550565b600c6020526000908152604090205481565b600b5481565b6000546001600160a01b031681565b600260035414156110c4576040805162461bcd60e51b815260206004820152601f6024820152600080516020611c01833981519152604482015290519081900360640190fd5b60026003556110d2816113e3565b600454610cc59061010090046001600160a01b03163330846117de565b60026003541415611135576040805162461bcd60e51b815260206004820152601f6024820152600080516020611c01833981519152604482015290519081900360640190fd5b6002600355611142610c21565b15611187576040805162461bcd60e51b815260206004820152601060248201526f14185d5cd8589b194e881c185d5cd95960821b604482015290519081900360640190fd5b336111918161168a565b601054600160a01b900460ff166111ef576040805162461bcd60e51b815260206004820152601b60248201527f757365722063616e206e6f74206469726563746c79207374616b650000000000604482015290519081900360640190fd5b60008211611235576040805162461bcd60e51b815260206004820152600e60248201526d043616e6e6f74207374616b6520360941b604482015290519081900360640190fd5b600e5461124290836115e7565b600e55336000908152600f602052604090205461125f90836115e7565b336000818152600f602052604090209190915560055461128c916001600160a01b039091169030856117de565b60408051838152905133917f9e71bc8eea02a63969f509818f2dafb9254532904319f9dbda79b67bd34a5f3d919081900360200190a250506001600355565b60095481565b6112d9611641565b60065442116113195760405162461bcd60e51b8152600401808060200182810382526058815260200180611ba96058913960600191505060405180910390fd5b60088190556040805182815290517ffb46ca5a5e06d4540d6387b930a7c978bce0db5f449ec6b3f5d07c6e1d44f2d39181900360200190a150565b6000600e546000141561136a5750600a546106e1565b610727611399600e5461064e670de0b6b3a7640000611393600754611393600954610629610d8f565b90611520565b600a54906115e7565b60045461010090046001600160a01b031681565b600a5481565b336000908152600f60205260409020546113d590610752565b610bbe610a16565b60065481565b6002546001600160a01b0316331461142c5760405162461bcd60e51b815260040180806020018281038252602a815260200180611cee602a913960400191505060405180910390fd5b60006114378161168a565b60065442106114675760085461144e9042906115e7565b60065560085461145f908390611580565b600755611488565b61148460075461065442600654038561158090919063ffffffff16565b6007555b426009556040805183815290517fde88a922e0d3b88b24e9623efeb464919c6bf9f66857a65e2bfcf2ce87a9433d9181900360200190a15050565b60008282111561151a576040805162461bcd60e51b815260206004820152601e60248201527f536166654d6174683a207375627472616374696f6e206f766572666c6f770000604482015290519081900360640190fd5b50900390565b60008261152f5750600061065a565b8282028284828161153c57fe5b04146115795760405162461bcd60e51b8152600401808060200182810382526021815260200180611cab6021913960400191505060405180910390fd5b9392505050565b60008082116115d6576040805162461bcd60e51b815260206004820152601a60248201527f536166654d6174683a206469766973696f6e206279207a65726f000000000000604482015290519081900360640190fd5b8183816115df57fe5b049392505050565b600082820183811015611579576040805162461bcd60e51b815260206004820152601b60248201527f536166654d6174683a206164646974696f6e206f766572666c6f770000000000604482015290519081900360640190fd5b6000546001600160a01b03163314610bbe5760405162461bcd60e51b815260040180806020018281038252602f815260200180611c7c602f913960400191505060405180910390fd5b611692611354565b600a5561169d610d8f565b6009556001600160a01b038116156116e4576116b8816105e2565b6001600160a01b0382166000908152600d6020908152604080832093909355600a54600c909152919020555b50565b604080516001600160a01b038416602482015260448082018490528251808303909101815260649091019091526020810180516001600160e01b031663a9059cbb60e01b1790526117399084906118d7565b505050565b611746610c21565b61178e576040805162461bcd60e51b815260206004820152601460248201527314185d5cd8589b194e881b9bdd081c185d5cd95960621b604482015290519081900360640190fd5b6004805460ff191690557f5db9ee0a495bf2e6ff9c91a7834c1ba4fdd244a5e8aa4e537bd38aeae4b073aa6117c1611988565b604080516001600160a01b039092168252519081900360200190a1565b604080516001600160a01b0380861660248301528416604482015260648082018490528251808303909101815260849091019091526020810180516001600160e01b03166323b872dd60e01b1790526118389085906118d7565b50505050565b600081831061184d5781611579565b5090919050565b61185c610c21565b156118a1576040805162461bcd60e51b815260206004820152601060248201526f14185d5cd8589b194e881c185d5cd95960821b604482015290519081900360640190fd5b6004805460ff191660011790557f62e78cea01bee320cd4e420270b5ea74000d11b0c9f74754ebdbfc544b05a2586117c1611988565b600061192c826040518060400160405280602081526020017f5361666545524332303a206c6f772d6c6576656c2063616c6c206661696c6564815250856001600160a01b031661198c9092919063ffffffff16565b8051909150156117395780806020019051602081101561194b57600080fd5b50516117395760405162461bcd60e51b815260040180806020018281038252602a815260200180611d18602a913960400191505060405180910390fd5b3390565b606061199b84846000856119a3565b949350505050565b6060824710156119e45760405162461bcd60e51b8152600401808060200182810382526026815260200180611c566026913960400191505060405180910390fd5b6119ed85611afe565b611a3e576040805162461bcd60e51b815260206004820152601d60248201527f416464726573733a2063616c6c20746f206e6f6e2d636f6e7472616374000000604482015290519081900360640190fd5b600080866001600160a01b031685876040518082805190602001908083835b60208310611a7c5780518252601f199092019160209182019101611a5d565b6001836020036101000a03801982511681845116808217855250505050505090500191505060006040518083038185875af1925050503d8060008114611ade576040519150601f19603f3d011682016040523d82523d6000602084013e611ae3565b606091505b5091509150611af3828286611b04565b979650505050505050565b3b151590565b60608315611b13575081611579565b825115611b235782518084602001fd5b8160405162461bcd60e51b81526004018080602001828103825283818151815260200191508051906020019080838360005b83811015611b6d578181015183820152602001611b55565b50505050905090810190601f168015611b9a5780820380516001836020036101000a031916815260200191505b509250505060405180910390fdfe50726576696f7573207265776172647320706572696f64206d75737420626520636f6d706c657465206265666f7265206368616e67696e6720746865206475726174696f6e20666f7220746865206e657720706572696f645265656e7472616e637947756172643a207265656e7472616e742063616c6c00596f75206d757374206265206e6f6d696e61746564206265666f726520796f752063616e20616363657074206f776e657273686970416464726573733a20696e73756666696369656e742062616c616e636520666f722063616c6c4f6e6c792074686520636f6e7472616374206f776e6572206d617920706572666f726d207468697320616374696f6e536166654d6174683a206d756c7469706c69636174696f6e206f766572666c6f776f6e6c7920746f6b656e2073616c6520636f6e74726163742063616e207374616b6543616c6c6572206973206e6f742052657761726473446973747269627574696f6e20636f6e74726163745361666545524332303a204552433230206f7065726174696f6e20646964206e6f74207375636365656443616e6e6f7420776974686472617720746865207374616b696e6720746f6b656ea26469706673582212207ad880e23877f7717c1d6862b064fb66b4c147577df4f50535f68da02542e00a64736f6c63430007060033",
  "linkReferences": {},
  "deployedLinkReferences": {}
}