{
  "_format": "hh-sol-artifact-1",
  "contractName": "WeenusToken",
  "sourceName": "contracts/ERC20.sol",
  "abi": [
    {
      "inputs": [],
      "stateMutability": "nonpayable",
      "type": "constructor"
    },
    {
      "anonymous": false,
      "inputs": [
        {
          "indexed": true,
          "internalType": "address",
          "name": "tokenOwner",
          "type": "address"
        },
        {
          "indexed": true,
          "internalType": "address",
          "name": "spender",
          "type": "address"
        },
        {
          "indexed": false,
          "internalType": "uint256",
          "name": "tokens",
          "type": "uint256"
        }
      ],
      "name": "Approval",
      "type": "event"
    },
    {
      "anonymous": false,
      "inputs": [
        {
          "indexed": true,
          "internalType": "address",
          "name": "_from",
          "type": "address"
        },
        {
          "indexed": true,
          "internalType": "address",
          "name": "_to",
          "type": "address"
        }
      ],
      "name": "OwnershipTransferred",
      "type": "event"
    },
    {
      "anonymous": false,
      "inputs": [
        {
          "indexed": true,
          "internalType": "address",
          "name": "from",
          "type": "address"
        },
        {
          "indexed": true,
          "internalType": "address",
          "name": "to",
          "type": "address"
        },
        {
          "indexed": false,
          "internalType": "uint256",
          "name": "tokens",
          "type": "uint256"
        }
      ],
      "name": "Transfer",
      "type": "event"
    },
    {
      "inputs": [],
      "name": "acceptOwnership",
      "outputs": [],
      "stateMutability": "nonpayable",
      "type": "function"
    },
    {
      "inputs": [
        {
          "internalType": "address",
          "name": "tokenOwner",
          "type": "address"
        },
        {
          "internalType": "address",
          "name": "spender",
          "type": "address"
        }
      ],
      "name": "allowance",
      "outputs": [
        {
          "internalType": "uint256",
          "name": "remaining",
          "type": "uint256"
        }
      ],
      "stateMutability": "view",
      "type": "function"
    },
    {
      "inputs": [
        {
          "internalType": "address",
          "name": "spender",
          "type": "address"
        },
        {
          "internalType": "uint256",
          "name": "tokens",
          "type": "uint256"
        }
      ],
      "name": "approve",
      "outputs": [
        {
          "internalType": "bool",
          "name": "success",
          "type": "bool"
        }
      ],
      "stateMutability": "nonpayable",
      "type": "function"
    },
    {
      "inputs": [
        {
          "internalType": "address",
          "name": "tokenOwner",
          "type": "address"
        }
      ],
      "name": "balanceOf",
      "outputs": [
        {
          "internalType": "uint256",
          "name": "balance",
          "type": "uint256"
        }
      ],
      "stateMutability": "view",
      "type": "function"
    },
    {
      "inputs": [],
      "name": "decimals",
      "outputs": [
        {
          "internalType": "uint8",
          "name": "",
          "type": "uint8"
        }
      ],
      "stateMutability": "view",
      "type": "function"
    },
    {
      "inputs": [],
      "name": "drip",
      "outputs": [],
      "stateMutability": "nonpayable",
      "type": "function"
    },
    {
      "inputs": [],
      "name": "name",
      "outputs": [
        {
          "internalType": "string",
          "name": "",
          "type": "string"
        }
      ],
      "stateMutability": "view",
      "type": "function"
    },
    {
      "inputs": [],
      "name": "newOwner",
      "outputs": [
        {
          "internalType": "address",
          "name": "",
          "type": "address"
        }
      ],
      "stateMutability": "view",
      "type": "function"
    },
    {
      "inputs": [],
      "name": "owner",
      "outputs": [
        {
          "internalType": "address",
          "name": "",
          "type": "address"
        }
      ],
      "stateMutability": "view",
      "type": "function"
    },
    {
      "inputs": [],
      "name": "symbol",
      "outputs": [
        {
          "internalType": "string",
          "name": "",
          "type": "string"
        }
      ],
      "stateMutability": "view",
      "type": "function"
    },
    {
      "inputs": [],
      "name": "totalSupply",
      "outputs": [
        {
          "internalType": "uint256",
          "name": "",
          "type": "uint256"
        }
      ],
      "stateMutability": "view",
      "type": "function"
    },
    {
      "inputs": [
        {
          "internalType": "address",
          "name": "to",
          "type": "address"
        },
        {
          "internalType": "uint256",
          "name": "tokens",
          "type": "uint256"
        }
      ],
      "name": "transfer",
      "outputs": [
        {
          "internalType": "bool",
          "name": "success",
          "type": "bool"
        }
      ],
      "stateMutability": "nonpayable",
      "type": "function"
    },
    {
      "inputs": [
        {
          "internalType": "address",
          "name": "from",
          "type": "address"
        },
        {
          "internalType": "address",
          "name": "to",
          "type": "address"
        },
        {
          "internalType": "uint256",
          "name": "tokens",
          "type": "uint256"
        }
      ],
      "name": "transferFrom",
      "outputs": [
        {
          "internalType": "bool",
          "name": "success",
          "type": "bool"
        }
      ],
      "stateMutability": "nonpayable",
      "type": "function"
    },
    {
      "inputs": [
        {
          "internalType": "address",
          "name": "_newOwner",
          "type": "address"
        }
      ],
      "name": "transferOwnership",
      "outputs": [],
      "stateMutability": "nonpayable",
      "type": "function"
    },
    {
      "stateMutability": "payable",
      "type": "receive"
    }
  ],
  "bytecode": "0x608060405234801561001057600080fd5b50600080546001600160a01b03191633179055604080518082019091526006808252655745454e555360d01b60209092019182526100509160029161010b565b5060408051808201909152600b8082526a2bb2b2b73ab990784fc95560a91b60209092019182526100839160039161010b565b5060048054601260ff19909116179081905560ff16600a0a620f4240810260058190556103e8909102600655600080546001600160a01b0390811682526007602090815260408084208590558354815195865290519216937fddf252ad1be2c89b69c2b068fc378daa952ba7f163c4a11628f55a4df523b3ef929081900390910190a361019e565b828054600181600116156101000203166002900490600052602060002090601f016020900481019282601f1061014c57805160ff1916838001178555610179565b82800160010185558215610179579182015b8281111561017957825182559160200191906001019061015e565b50610185929150610189565b5090565b5b80821115610185576000815560010161018a565b610941806101ad6000396000f3fe6080604052600436106100e15760003560e01c80638da5cb5b1161007f578063a9059cbb11610059578063a9059cbb1461033d578063d4ee1d9014610376578063dd62ed3e1461038b578063f2fde38b146103c657610129565b80638da5cb5b146102e257806395d89b41146103135780639f678cca1461032857610129565b806323b872dd116100bb57806323b872dd1461022c578063313ce5671461026f57806370a082311461029a57806379ba5097146102cd57610129565b806306fdde031461012e578063095ea7b3146101b857806318160ddd1461020557610129565b36610129576100f2336006546103f9565b5034156101275760405133903480156108fc02916000818181858888f19350505050158015610125573d6000803e3d6000fd5b505b005b600080fd5b34801561013a57600080fd5b50610143610490565b6040805160208082528351818301528351919283929083019185019080838360005b8381101561017d578181015183820152602001610165565b50505050905090810190601f1680156101aa5780820380516001836020036101000a031916815260200191505b509250505060405180910390f35b3480156101c457600080fd5b506101f1600480360360408110156101db57600080fd5b506001600160a01b03813516906020013561051e565b604080519115158252519081900360200190f35b34801561021157600080fd5b5061021a610584565b60408051918252519081900360200190f35b34801561023857600080fd5b506101f16004803603606081101561024f57600080fd5b506001600160a01b038135811691602081013590911690604001356105c1565b34801561027b57600080fd5b506102846106ba565b6040805160ff9092168252519081900360200190f35b3480156102a657600080fd5b5061021a600480360360208110156102bd57600080fd5b50356001600160a01b03166106c3565b3480156102d957600080fd5b506101276106de565b3480156102ee57600080fd5b506102f7610759565b604080516001600160a01b039092168252519081900360200190f35b34801561031f57600080fd5b50610143610768565b34801561033457600080fd5b506101276107c0565b34801561034957600080fd5b506101f16004803603604081101561036057600080fd5b506001600160a01b0381351690602001356107cf565b34801561038257600080fd5b506102f7610873565b34801561039757600080fd5b5061021a600480360360408110156103ae57600080fd5b506001600160a01b0381358116916020013516610882565b3480156103d257600080fd5b50610127600480360360208110156103e957600080fd5b50356001600160a01b03166108ad565b6001600160a01b03821660009081526007602052604081205461041c90836108e6565b6001600160a01b03841660009081526007602052604090205560055461044290836108e6565b6005556040805183815290516001600160a01b038516916000917fddf252ad1be2c89b69c2b068fc378daa952ba7f163c4a11628f55a4df523b3ef9181900360200190a35060015b92915050565b6003805460408051602060026001851615610100026000190190941693909304601f810184900484028201840190925281815292918301828280156105165780601f106104eb57610100808354040283529160200191610516565b820191906000526020600020905b8154815290600101906020018083116104f957829003601f168201915b505050505081565b3360008181526008602090815260408083206001600160a01b038716808552908352818420869055815186815291519394909390927f8c5be1e5ebec7d5bd14f71427d1e84f3dd0314c0f7b2291e5b200ac8c7c3b925928290030190a350600192915050565b600080805260076020527f6d5257204ebe7d88fd91ae87941cb2dd9d8062b64ae5a2bd2d28ec40b9fbf6df546005546105bc916108f6565b905090565b6001600160a01b0383166000908152600760205260408120546105e490836108f6565b6001600160a01b038516600090815260076020908152604080832093909355600881528282203383529052205461061b90836108f6565b6001600160a01b03808616600090815260086020908152604080832033845282528083209490945591861681526007909152205461065990836108e6565b6001600160a01b0380851660008181526007602090815260409182902094909455805186815290519193928816927fddf252ad1be2c89b69c2b068fc378daa952ba7f163c4a11628f55a4df523b3ef92918290030190a35060019392505050565b60045460ff1681565b6001600160a01b031660009081526007602052604090205490565b6001546001600160a01b031633146106f557600080fd5b600154600080546040516001600160a01b0393841693909116917f8be0079c531659141344cd1fd0a4f28419497f9722a3daafe3b4186f6b6457e091a360018054600080546001600160a01b03199081166001600160a01b03841617909155169055565b6000546001600160a01b031681565b6002805460408051602060018416156101000260001901909316849004601f810184900484028201840190925281815292918301828280156105165780601f106104eb57610100808354040283529160200191610516565b6107cc336006546103f9565b50565b336000908152600760205260408120546107e990836108f6565b33600090815260076020526040808220929092556001600160a01b0385168152205461081590836108e6565b6001600160a01b0384166000818152600760209081526040918290209390935580518581529051919233927fddf252ad1be2c89b69c2b068fc378daa952ba7f163c4a11628f55a4df523b3ef9281900390910190a350600192915050565b6001546001600160a01b031681565b6001600160a01b03918216600090815260086020908152604080832093909416825291909152205490565b6000546001600160a01b031633146108c457600080fd5b600180546001600160a01b0319166001600160a01b0392909216919091179055565b8181018281101561048a57600080fd5b60008282111561090557600080fd5b5090039056fea264697066735822122097be8c6710ecbeb6abef341f331c0738603d72ccff10d32822af95f4b2d1d9c864736f6c634300060c0033",
  "linkReferences": {},
  "deployedLinkReferences": {}
}