{
  "_format": "hh-sol-artifact-1",
  "contractName": "PolsStake",
  "sourceName": "contracts/PolsStake.sol",
  "abi": [
    {
      "inputs": [
        {
          "internalType": "address",
          "name": "_stakingToken",
          "type": "address"
        },
        {
          "internalType": "uint48",
          "name": "_lockTimePeriod",
          "type": "uint48"
        }
      ],
      "stateMutability": "nonpayable",
      "type": "constructor"
    },
    {
      "anonymous": false,
      "inputs": [
        {
          "indexed": true,
          "internalType": "address",
          "name": "wallet",
          "type": "address"
        },
        {
          "indexed": true,
          "internalType": "address",
          "name": "rewardToken",
          "type": "address"
        },
        {
          "indexed": false,
          "internalType": "uint256",
          "name": "amount",
          "type": "uint256"
        }
      ],
      "name": "Claimed",
      "type": "event"
    },
    {
      "anonymous": false,
      "inputs": [
        {
          "indexed": false,
          "internalType": "uint256",
          "name": "data",
          "type": "uint256"
        }
      ],
      "name": "Log",
      "type": "event"
    },
    {
      "anonymous": false,
      "inputs": [
        {
          "indexed": true,
          "internalType": "address",
          "name": "rewardToken",
          "type": "address"
        },
        {
          "indexed": false,
          "internalType": "uint256",
          "name": "amount",
          "type": "uint256"
        },
        {
          "indexed": false,
          "internalType": "uint256",
          "name": "totalStaked",
          "type": "uint256"
        },
        {
          "indexed": false,
          "internalType": "uint256",
          "name": "date",
          "type": "uint256"
        }
      ],
      "name": "Rewarded",
      "type": "event"
    },
    {
      "anonymous": false,
      "inputs": [
        {
          "indexed": true,
          "internalType": "bytes32",
          "name": "role",
          "type": "bytes32"
        },
        {
          "indexed": true,
          "internalType": "bytes32",
          "name": "previousAdminRole",
          "type": "bytes32"
        },
        {
          "indexed": true,
          "internalType": "bytes32",
          "name": "newAdminRole",
          "type": "bytes32"
        }
      ],
      "name": "RoleAdminChanged",
      "type": "event"
    },
    {
      "anonymous": false,
      "inputs": [
        {
          "indexed": true,
          "internalType": "bytes32",
          "name": "role",
          "type": "bytes32"
        },
        {
          "indexed": true,
          "internalType": "address",
          "name": "account",
          "type": "address"
        },
        {
          "indexed": true,
          "internalType": "address",
          "name": "sender",
          "type": "address"
        }
      ],
      "name": "RoleGranted",
      "type": "event"
    },
    {
      "anonymous": false,
      "inputs": [
        {
          "indexed": true,
          "internalType": "bytes32",
          "name": "role",
          "type": "bytes32"
        },
        {
          "indexed": true,
          "internalType": "address",
          "name": "account",
          "type": "address"
        },
        {
          "indexed": true,
          "internalType": "address",
          "name": "sender",
          "type": "address"
        }
      ],
      "name": "RoleRevoked",
      "type": "event"
    },
    {
      "anonymous": false,
      "inputs": [
        {
          "indexed": true,
          "internalType": "address",
          "name": "wallet",
          "type": "address"
        },
        {
          "indexed": false,
          "internalType": "uint256",
          "name": "amount",
          "type": "uint256"
        },
        {
          "indexed": false,
          "internalType": "uint256",
          "name": "date",
          "type": "uint256"
        }
      ],
      "name": "Stake",
      "type": "event"
    },
    {
      "anonymous": false,
      "inputs": [
        {
          "indexed": true,
          "internalType": "address",
          "name": "wallet",
          "type": "address"
        },
        {
          "indexed": false,
          "internalType": "uint256",
          "name": "amount",
          "type": "uint256"
        },
        {
          "indexed": false,
          "internalType": "uint256",
          "name": "date",
          "type": "uint256"
        }
      ],
      "name": "Withdraw",
      "type": "event"
    },
    {
      "inputs": [],
      "name": "BURNER_ROLE",
      "outputs": [
        {
          "internalType": "bytes32",
          "name": "",
          "type": "bytes32"
        }
      ],
      "stateMutability": "view",
      "type": "function"
    },
    {
      "inputs": [],
      "name": "DEFAULT_ADMIN_ROLE",
      "outputs": [
        {
          "internalType": "bytes32",
          "name": "",
          "type": "bytes32"
        }
      ],
      "stateMutability": "view",
      "type": "function"
    },
    {
      "inputs": [],
      "name": "MAX_TIME",
      "outputs": [
        {
          "internalType": "uint48",
          "name": "",
          "type": "uint48"
        }
      ],
      "stateMutability": "view",
      "type": "function"
    },
    {
      "inputs": [
        {
          "internalType": "address",
          "name": "_staker",
          "type": "address"
        }
      ],
      "name": "balanceOf",
      "outputs": [
        {
          "internalType": "uint256",
          "name": "balance",
          "type": "uint256"
        }
      ],
      "stateMutability": "view",
      "type": "function"
    },
    {
      "inputs": [
        {
          "internalType": "address",
          "name": "_staker",
          "type": "address"
        },
        {
          "internalType": "uint256",
          "name": "_amount",
          "type": "uint256"
        }
      ],
      "name": "burnRewards",
      "outputs": [],
      "stateMutability": "nonpayable",
      "type": "function"
    },
    {
      "inputs": [],
      "name": "claim",
      "outputs": [
        {
          "internalType": "uint256",
          "name": "",
          "type": "uint256"
        }
      ],
      "stateMutability": "nonpayable",
      "type": "function"
    },
    {
      "inputs": [
        {
          "internalType": "address",
          "name": "_staker",
          "type": "address"
        }
      ],
      "name": "getEarnedRewardTokens",
      "outputs": [
        {
          "internalType": "uint256",
          "name": "claimableRewardTokens",
          "type": "uint256"
        }
      ],
      "stateMutability": "view",
      "type": "function"
    },
    {
      "inputs": [],
      "name": "getEarnedRewardTokens_msgSender",
      "outputs": [
        {
          "internalType": "uint256",
          "name": "",
          "type": "uint256"
        }
      ],
      "stateMutability": "view",
      "type": "function"
    },
    {
      "inputs": [],
      "name": "getRewardTokenBalance",
      "outputs": [
        {
          "internalType": "uint256",
          "name": "balance",
          "type": "uint256"
        }
      ],
      "stateMutability": "view",
      "type": "function"
    },
    {
      "inputs": [
        {
          "internalType": "bytes32",
          "name": "role",
          "type": "bytes32"
        }
      ],
      "name": "getRoleAdmin",
      "outputs": [
        {
          "internalType": "bytes32",
          "name": "",
          "type": "bytes32"
        }
      ],
      "stateMutability": "view",
      "type": "function"
    },
    {
      "inputs": [
        {
          "internalType": "address",
          "name": "_staker",
          "type": "address"
        }
      ],
      "name": "getUnlockTime",
      "outputs": [
        {
          "internalType": "uint48",
          "name": "unlockTime",
          "type": "uint48"
        }
      ],
      "stateMutability": "view",
      "type": "function"
    },
    {
      "inputs": [],
      "name": "getUnlockTime_msgSender",
      "outputs": [
        {
          "internalType": "uint48",
          "name": "unlockTime",
          "type": "uint48"
        }
      ],
      "stateMutability": "view",
      "type": "function"
    },
    {
      "inputs": [
        {
          "internalType": "bytes32",
          "name": "role",
          "type": "bytes32"
        },
        {
          "internalType": "address",
          "name": "account",
          "type": "address"
        }
      ],
      "name": "grantRole",
      "outputs": [],
      "stateMutability": "nonpayable",
      "type": "function"
    },
    {
      "inputs": [
        {
          "internalType": "bytes32",
          "name": "role",
          "type": "bytes32"
        },
        {
          "internalType": "address",
          "name": "account",
          "type": "address"
        }
      ],
      "name": "hasRole",
      "outputs": [
        {
          "internalType": "bool",
          "name": "",
          "type": "bool"
        }
      ],
      "stateMutability": "view",
      "type": "function"
    },
    {
      "inputs": [],
      "name": "lockTimePeriod",
      "outputs": [
        {
          "internalType": "uint48",
          "name": "",
          "type": "uint48"
        }
      ],
      "stateMutability": "view",
      "type": "function"
    },
    {
      "inputs": [
        {
          "internalType": "bytes32",
          "name": "role",
          "type": "bytes32"
        },
        {
          "internalType": "address",
          "name": "account",
          "type": "address"
        }
      ],
      "name": "renounceRole",
      "outputs": [],
      "stateMutability": "nonpayable",
      "type": "function"
    },
    {
      "inputs": [
        {
          "internalType": "bytes32",
          "name": "role",
          "type": "bytes32"
        },
        {
          "internalType": "address",
          "name": "account",
          "type": "address"
        }
      ],
      "name": "revokeRole",
      "outputs": [],
      "stateMutability": "nonpayable",
      "type": "function"
    },
    {
      "inputs": [],
      "name": "rewardToken",
      "outputs": [
        {
          "internalType": "address",
          "name": "",
          "type": "address"
        }
      ],
      "stateMutability": "view",
      "type": "function"
    },
    {
      "inputs": [
        {
          "internalType": "uint48",
          "name": "_lockTimePeriod",
          "type": "uint48"
        }
      ],
      "name": "setLockTimePeriod",
      "outputs": [],
      "stateMutability": "nonpayable",
      "type": "function"
    },
    {
      "inputs": [
        {
          "internalType": "address",
          "name": "_rewardToken",
          "type": "address"
        }
      ],
      "name": "setRewardToken",
      "outputs": [],
      "stateMutability": "nonpayable",
      "type": "function"
    },
    {
      "inputs": [
        {
          "internalType": "uint48",
          "name": "_stakeRewardEndTime",
          "type": "uint48"
        }
      ],
      "name": "setStakeRewardEndTime",
      "outputs": [],
      "stateMutability": "nonpayable",
      "type": "function"
    },
    {
      "inputs": [
        {
          "internalType": "uint256",
          "name": "_stakeRewardFactor",
          "type": "uint256"
        }
      ],
      "name": "setStakeRewardFactor",
      "outputs": [],
      "stateMutability": "nonpayable",
      "type": "function"
    },
    {
      "inputs": [
        {
          "internalType": "uint256",
          "name": "_amount",
          "type": "uint256"
        }
      ],
      "name": "stake",
      "outputs": [
        {
          "internalType": "uint256",
          "name": "",
          "type": "uint256"
        }
      ],
      "stateMutability": "nonpayable",
      "type": "function"
    },
    {
      "inputs": [
        {
          "internalType": "address",
          "name": "_staker",
          "type": "address"
        }
      ],
      "name": "stakeAmount",
      "outputs": [
        {
          "internalType": "uint256",
          "name": "balance",
          "type": "uint256"
        }
      ],
      "stateMutability": "view",
      "type": "function"
    },
    {
      "inputs": [],
      "name": "stakeAmount_msgSender",
      "outputs": [
        {
          "internalType": "uint256",
          "name": "",
          "type": "uint256"
        }
      ],
      "stateMutability": "view",
      "type": "function"
    },
    {
      "inputs": [],
      "name": "stakeRewardEndTime",
      "outputs": [
        {
          "internalType": "uint48",
          "name": "",
          "type": "uint48"
        }
      ],
      "stateMutability": "view",
      "type": "function"
    },
    {
      "inputs": [],
      "name": "stakeRewardFactor",
      "outputs": [
        {
          "internalType": "uint256",
          "name": "",
          "type": "uint256"
        }
      ],
      "stateMutability": "view",
      "type": "function"
    },
    {
      "inputs": [
        {
          "internalType": "address",
          "name": "_staker",
          "type": "address"
        }
      ],
      "name": "stakeTime",
      "outputs": [
        {
          "internalType": "uint48",
          "name": "dateTime",
          "type": "uint48"
        }
      ],
      "stateMutability": "view",
      "type": "function"
    },
    {
      "inputs": [],
      "name": "stakeTime_msgSender",
      "outputs": [
        {
          "internalType": "uint48",
          "name": "",
          "type": "uint48"
        }
      ],
      "stateMutability": "view",
      "type": "function"
    },
    {
      "inputs": [],
      "name": "stakingToken",
      "outputs": [
        {
          "internalType": "address",
          "name": "",
          "type": "address"
        }
      ],
      "stateMutability": "view",
      "type": "function"
    },
    {
      "inputs": [
        {
          "internalType": "bytes4",
          "name": "interfaceId",
          "type": "bytes4"
        }
      ],
      "name": "supportsInterface",
      "outputs": [
        {
          "internalType": "bool",
          "name": "",
          "type": "bool"
        }
      ],
      "stateMutability": "view",
      "type": "function"
    },
    {
      "inputs": [],
      "name": "tokenTotalStaked",
      "outputs": [
        {
          "internalType": "uint256",
          "name": "",
          "type": "uint256"
        }
      ],
      "stateMutability": "view",
      "type": "function"
    },
    {
      "inputs": [
        {
          "internalType": "address",
          "name": "_staker",
          "type": "address"
        }
      ],
      "name": "userAccumulatedRewards",
      "outputs": [
        {
          "internalType": "uint256",
          "name": "rewards",
          "type": "uint256"
        }
      ],
      "stateMutability": "view",
      "type": "function"
    },
    {
      "inputs": [],
      "name": "userAccumulatedRewards_msgSender",
      "outputs": [
        {
          "internalType": "uint256",
          "name": "",
          "type": "uint256"
        }
      ],
      "stateMutability": "view",
      "type": "function"
    },
    {
      "inputs": [
        {
          "internalType": "address",
          "name": "_staker",
          "type": "address"
        }
      ],
      "name": "userClaimableRewards",
      "outputs": [
        {
          "internalType": "uint256",
          "name": "",
          "type": "uint256"
        }
      ],
      "stateMutability": "view",
      "type": "function"
    },
    {
      "inputs": [],
      "name": "userClaimableRewards_msgSender",
      "outputs": [
        {
          "internalType": "uint256",
          "name": "",
          "type": "uint256"
        }
      ],
      "stateMutability": "view",
      "type": "function"
    },
    {
      "inputs": [
        {
          "internalType": "address",
          "name": "",
          "type": "address"
        }
      ],
      "name": "userMap",
      "outputs": [
        {
          "internalType": "uint48",
          "name": "stakeTime",
          "type": "uint48"
        },
        {
          "internalType": "uint48",
          "name": "unlockTime",
          "type": "uint48"
        },
        {
          "internalType": "uint160",
          "name": "stakeAmount",
          "type": "uint160"
        },
        {
          "internalType": "uint256",
          "name": "accumulatedRewards",
          "type": "uint256"
        }
      ],
      "stateMutability": "view",
      "type": "function"
    },
    {
      "inputs": [
        {
          "internalType": "address",
          "name": "_staker",
          "type": "address"
        }
      ],
      "name": "userTotalRewards",
      "outputs": [
        {
          "internalType": "uint256",
          "name": "",
          "type": "uint256"
        }
      ],
      "stateMutability": "view",
      "type": "function"
    },
    {
      "inputs": [],
      "name": "userTotalRewards_msgSender",
      "outputs": [
        {
          "internalType": "uint256",
          "name": "",
          "type": "uint256"
        }
      ],
      "stateMutability": "view",
      "type": "function"
    },
    {
      "inputs": [
        {
          "internalType": "uint256",
          "name": "amount",
          "type": "uint256"
        }
      ],
      "name": "withdraw",
      "outputs": [
        {
          "internalType": "uint256",
          "name": "",
          "type": "uint256"
        }
      ],
      "stateMutability": "nonpayable",
      "type": "function"
    },
    {
      "inputs": [],
      "name": "withdrawAll",
      "outputs": [
        {
          "internalType": "uint256",
          "name": "",
          "type": "uint256"
        }
      ],
      "stateMutability": "nonpayable",
      "type": "function"
    }
  ],
  "bytecode": "0x60806040523480156200001157600080fd5b506040516200209838038062002098833981016040819052620000349162000231565b600180556001600160a01b038216620000945760405162461bcd60e51b815260206004820152601960248201527f7374616b696e67546f6b656e2e61646472657373203d3d20300000000000000060448201526064015b60405180910390fd5b6301e285008165ffffffffffff1610620000f15760405162461bcd60e51b815260206004820152601a60248201527f6c6f636b54696d65506572696f64203e3d20333636206461797300000000000060448201526064016200008b565b600480546001600160a01b0319166001600160a01b0384161790556005805465ffffffffffff60a01b1916600160a01b65ffffffffffff84160217905563240c840060065562000146426301e2850062000285565b6005805465ffffffffffff92909216600160d01b026001600160d01b039092169190911790556200017960003362000181565b5050620002ac565b6200018d828262000191565b5050565b6000828152602081815260408083206001600160a01b038516845290915290205460ff166200018d576000828152602081815260408083206001600160a01b03851684529091529020805460ff19166001179055620001ed3390565b6001600160a01b0316816001600160a01b0316837f2f8788117e7eff1d82e926ec794901d17c78024a50270940304540a733656f0d60405160405180910390a45050565b600080604083850312156200024557600080fd5b82516001600160a01b03811681146200025d57600080fd5b602084015190925065ffffffffffff811681146200027a57600080fd5b809150509250929050565b60008219821115620002a757634e487b7160e01b600052601160045260246000fd5b500190565b611ddc80620002bc6000396000f3fe608060405234801561001057600080fd5b50600436106102d35760003560e01c806387f075d911610186578063bf135267116100e3578063dfdf35c411610097578063f3b95cd711610071578063f3b95cd7146106bd578063f6a3f3cf146106d0578063f7c618c1146106e357600080fd5b8063dfdf35c414610684578063ee2d505e14610697578063ee61e0cd146106aa57600080fd5b8063d953a867116100c8578063d953a86714610650578063dbed1e8814610669578063de3717fc1461067c57600080fd5b8063bf13526714610507578063d547741f1461063d57600080fd5b80639a7cc1b81161013a578063a38a57c41161011f578063a38a57c4146105f4578063a694fc3a1461060d578063aaa748d31461062057600080fd5b80639a7cc1b8146105e4578063a217fddf146105ec57600080fd5b80638efb31c71161016b5780638efb31c71461059257806391d14854146105a557806393ce5343146105dc57600080fd5b806387f075d9146105765780638aee81271461057f57600080fd5b80632f2ff15d116102345780636bb64e23116101e857806372f702f3116101cd57806372f702f31461053a578063853828b614610565578063872b26da1461056d57600080fd5b80636bb64e23146104e157806370a082311461050757600080fd5b80633cb2efc9116102195780633cb2efc9146104c95780634e71d92d146104d15780635bd4b5df146104d957600080fd5b80632f2ff15d146104a157806336568abe146104b657600080fd5b8063248a9ca31161028b578063282c51f311610270578063282c51f3146103dd5780632bcc23f8146104045780632e1a7d4d1461048e57600080fd5b8063248a9ca3146103ad57806326949984146103d057600080fd5b806307dc1e1a116102bc57806307dc1e1a1461032157806309ef67e6146103395780632170e4721461036557600080fd5b806301ffc9a7146102d85780630584bd0914610300575b600080fd5b6102eb6102e6366004611b58565b6106f6565b60405190151581526020015b60405180910390f35b61031361030e366004611aac565b61072d565b6040519081526020016102f7565b33600090815260026020526040902060010154610313565b610313610347366004611aac565b6001600160a01b031660009081526002602052604090206001015490565b610396610373366004611aac565b6001600160a01b031660009081526002602052604090205465ffffffffffff1690565b60405165ffffffffffff90911681526020016102f7565b6103136103bb366004611b13565b60009081526020819052604090206001015490565b61039665ffffffffffff81565b6103137f3c11d16cbaffd01df69ce1c404f6340ee057498f5f00246190ea54220576a84881565b610456610412366004611aac565b6002602052600090815260409020805460019091015465ffffffffffff808316926601000000000000810490911691600160601b9091046001600160a01b03169084565b6040805165ffffffffffff95861681529490931660208501526001600160a01b039091169183019190915260608201526080016102f7565b61031361049c366004611b13565b61080e565b6104b46104af366004611b2c565b610880565b005b6104b46104c4366004611b2c565b6108ab565b610396610937565b610313610947565b6103136109b2565b61031333600090815260026020526040902054600160601b90046001600160a01b031690565b610313610515366004611aac565b6001600160a01b03908116600090815260026020526040902054600160601b90041690565b60045461054d906001600160a01b031681565b6040516001600160a01b0390911681526020016102f7565b6103136109bd565b61031360035481565b61031360065481565b6104b461058d366004611aac565b610a45565b6104b46105a0366004611b13565b610a8c565b6102eb6105b3366004611b2c565b6000918252602082815260408084206001600160a01b0393909316845291905290205460ff1690565b610313610a9e565b610313610b46565b610313600081565b60055461039690600160d01b900465ffffffffffff1681565b61031361061b366004611b13565b610b51565b3360009081526002602052604090205465ffffffffffff16610396565b6104b461064b366004611b2c565b610bb4565b60055461039690600160a01b900465ffffffffffff1681565b610396610677366004611aac565b610bda565b610313610c3d565b6104b4610692366004611b9b565b610c48565b6103136106a5366004611aac565b610cf0565b6104b46106b8366004611b9b565b610d33565b6104b46106cb366004611ac7565b610def565b6103136106de366004611aac565b610e60565b60055461054d906001600160a01b031681565b60006001600160e01b03198216637965db0b60e01b148061072757506301ffc9a760e01b6001600160e01b03198316145b92915050565b6001600160a01b0381166000908152600260205260408120805465ffffffffffff1642101561075f5750600092915050565b805460055465ffffffffffff918216600160d01b90910490911610156107885750600092915050565b600554600090600160d01b900465ffffffffffff1642116107be5781546107b79065ffffffffffff1642611d14565b90506107ea565b81546005546107df9165ffffffffffff90811691600160d01b900416611d2b565b65ffffffffffff1690505b815461080690600160601b90046001600160a01b031682611ccd565b949350505050565b6000600260015414156108685760405162461bcd60e51b815260206004820152601f60248201527f5265656e7472616e637947756172643a207265656e7472616e742063616c6c0060448201526064015b60405180910390fd5b600260015561087682610e8f565b6001805592915050565b60008281526020819052604090206001015461089c8133611071565b6108a683836110ef565b505050565b6001600160a01b03811633146109295760405162461bcd60e51b815260206004820152602f60248201527f416363657373436f6e74726f6c3a2063616e206f6e6c792072656e6f756e636560448201527f20726f6c657320666f722073656c660000000000000000000000000000000000606482015260840161085f565b610933828261118d565b5050565b600061094233610bda565b905090565b60006002600154141561099c5760405162461bcd60e51b815260206004820152601f60248201527f5265656e7472616e637947756172643a207265656e7472616e742063616c6c00604482015260640161085f565b60026001556109a961120c565b90506001805590565b60006109423361072d565b600060026001541415610a125760405162461bcd60e51b815260206004820152601f60248201527f5265656e7472616e637947756172643a207265656e7472616e742063616c6c00604482015260640161085f565b60026001556109a9610a4033600090815260026020526040902054600160601b90046001600160a01b031690565b610e8f565b6000610a518133611071565b50600580547fffffffffffffffffffffffff0000000000000000000000000000000000000000166001600160a01b0392909216919091179055565b6000610a988133611071565b50600655565b6005546040516370a0823160e01b81523060048201526000916001600160a01b0316906370a082319060240160206040518083038186803b158015610ae257600080fd5b505afa158015610af6573d6000803e3d6000fd5b505050506040513d601f19601f82011682018060405250810190610b1a9190611b82565b6005546004549192506001600160a01b0391821691161415610b43576003546109429082611d14565b90565b600061094233610cf0565b600060026001541415610ba65760405162461bcd60e51b815260206004820152601f60248201527f5265656e7472616e637947756172643a207265656e7472616e742063616c6c00604482015260640161085f565b6002600155610876826113b5565b600082815260208190526040902060010154610bd08133611071565b6108a6838361118d565b6001600160a01b038082166000908152600260205260408120549091600160601b90910416610c0f5765ffffffffffff610727565b506001600160a01b03166000908152600260205260409020546601000000000000900465ffffffffffff1690565b600061094233610e60565b6000610c548133611071565b60055442600160d01b90910465ffffffffffff1611610cb55760405162461bcd60e51b815260206004820152601c60248201527f74696d652068617320746f20626520696e207468652066757475726500000000604482015260640161085f565b506005805465ffffffffffff909216600160d01b0279ffffffffffffffffffffffffffffffffffffffffffffffffffff909216919091179055565b6005546000906001600160a01b03161580610d0b5750600654155b15610d1857506000919050565b600654610d2483610e60565b6107279190611cab565b919050565b6000610d3f8133611071565b60055465ffffffffffff600160a01b909104811690831610610dae5760405162461bcd60e51b815260206004820152602260248201527f6c6f636b54696d65506572696f642063616e206e6f7420626520657874656e64604482015261195960f21b606482015260840161085f565b506005805465ffffffffffff909216600160a01b027fffffffffffff000000000000ffffffffffffffffffffffffffffffffffffffff909216919091179055565b7f3c11d16cbaffd01df69ce1c404f6340ee057498f5f00246190ea54220576a848610e1a8133611071565b6000610e2584611588565b90508060010154831015610e525782816001016000828254610e479190611d14565b90915550610e5a9050565b600060018201555b50505050565b6001600160a01b038116600090815260026020526040812060010154610e858361072d565b6107279190611c93565b6000808211610ee05760405162461bcd60e51b815260206004820152601a60248201527f616d6f756e7420746f207769746864726177206e6f74203e2030000000000000604482015260640161085f565b610ee933610bda565b65ffffffffffff164211610f3f5760405162461bcd60e51b815260206004820152601e60248201527f7374616b656420746f6b656e7320617265207374696c6c206c6f636b65640000604482015260640161085f565b6000610f4a33611588565b8054909150600160601b90046001600160a01b0316831115610fae5760405162461bcd60e51b815260206004820152601f60248201527f776974686472617720616d6f756e74203e207374616b656420616d6f756e7400604482015260640161085f565b805483908290600c90610fd2908490600160601b90046001600160a01b0316611cec565b92506101000a8154816001600160a01b0302191690836001600160a01b0316021790555082600360008282546110089190611d14565b9091555050600454611024906001600160a01b031633856115e9565b80546040805185815265ffffffffffff909216602083015233917ff279e6a1f5e320cca91135676d9cb6e44ca8a08c0b88342bcdb1144f6511b56891015b60405180910390a25090919050565b6000828152602081815260408083206001600160a01b038516845290915290205460ff16610933576110ad816001600160a01b03166014611661565b6110b8836020611661565b6040516020016110c9929190611bdf565b60408051601f198184030181529082905262461bcd60e51b825261085f91600401611c60565b6000828152602081815260408083206001600160a01b038516845290915290205460ff16610933576000828152602081815260408083206001600160a01b03851684529091529020805460ff191660011790556111493390565b6001600160a01b0316816001600160a01b0316837f2f8788117e7eff1d82e926ec794901d17c78024a50270940304540a733656f0d60405160405180910390a45050565b6000828152602081815260408083206001600160a01b038516845290915290205460ff1615610933576000828152602081815260408083206001600160a01b0385168085529252808320805460ff1916905551339285917ff6391f5c32d9c69d2a47ea670b442974b53935d1edc7fd64eb21e047a839171b9190a45050565b6005546000906001600160a01b03166112675760405162461bcd60e51b815260206004820152601860248201527f6e6f2072657761726420746f6b656e20636f6e74726163740000000000000000604482015260640161085f565b600061127233610cf0565b9050600081116112c45760405162461bcd60e51b815260206004820152601260248201527f6e6f20746f6b656e7320746f20636c61696d0000000000000000000000000000604482015260640161085f565b33600090815260026020526040812060018101919091556112e442611811565b815465ffffffffffff191665ffffffffffff91909116178155611305610a9e565b8211156113545760405162461bcd60e51b815260206004820152601860248201527f6e6f7420656e6f7567682072657761726420746f6b656e730000000000000000604482015260640161085f565b60055461136b906001600160a01b031633846115e9565b6005546040518381526001600160a01b039091169033907ff7a40077ff7a04c7e61f6f26fb13774259ddf1b6bce9ecf26a8276cdd39926839060200160405180910390a350919050565b60008082116114065760405162461bcd60e51b815260206004820152601f60248201527f616d6f756e7420746f206265207374616b6564206d757374206265203e203000604482015260640161085f565b600061141133611588565b80549091506001600160a01b0390611433908590600160601b90048316611c93565b11156114815760405162461bcd60e51b815260206004820152601560248201527f7374616b6520616d6f756e74206f766572666c6f770000000000000000000000604482015260640161085f565b805461149e908490600160601b90046001600160a01b0316611c93565b81546001600160a01b0391909116600160601b026bffffffffffffffffffffffff909116178155600380548491906000906114da908490611c93565b9091555050600554611504906114ff90600160a01b900465ffffffffffff1642611c93565b611811565b815465ffffffffffff919091166601000000000000026bffffffffffff00000000000019909116178155600454611546906001600160a01b031633308661186d565b80546040805185815265ffffffffffff909216602083015233917f5af417134f72a9d41143ace85b0a26dce6f550f894f2cbc1eeee8810603d91b69101611062565b6001600160a01b03811660009081526002602052604090206115a98261072d565b8160010160008282546115bc9190611c93565b909155506115cb905042611811565b815465ffffffffffff191665ffffffffffff91909116178155919050565b6040516001600160a01b0383166024820152604481018290526108a690849063a9059cbb60e01b906064015b60408051601f198184030181529190526020810180517bffffffffffffffffffffffffffffffffffffffffffffffffffffffff166001600160e01b0319909316929092179091526118a5565b60606000611670836002611ccd565b61167b906002611c93565b67ffffffffffffffff81111561169357611693611db9565b6040519080825280601f01601f1916602001820160405280156116bd576020820181803683370190505b509050600360fc1b816000815181106116d8576116d8611da3565b60200101906001600160f81b031916908160001a905350600f60fb1b8160018151811061170757611707611da3565b60200101906001600160f81b031916908160001a905350600061172b846002611ccd565b611736906001611c93565b90505b60018111156117bb577f303132333435363738396162636465660000000000000000000000000000000085600f166010811061177757611777611da3565b1a60f81b82828151811061178d5761178d611da3565b60200101906001600160f81b031916908160001a90535060049490941c936117b481611d76565b9050611739565b50831561180a5760405162461bcd60e51b815260206004820181905260248201527f537472696e67733a20686578206c656e67746820696e73756666696369656e74604482015260640161085f565b9392505050565b600065ffffffffffff8211156118695760405162461bcd60e51b815260206004820152601c60248201527f76616c756520646f65736e27742066697420696e203438206269747300000000604482015260640161085f565b5090565b6040516001600160a01b0380851660248301528316604482015260648101829052610e5a9085906323b872dd60e01b90608401611615565b60006118fa826040518060400160405280602081526020017f5361666545524332303a206c6f772d6c6576656c2063616c6c206661696c6564815250856001600160a01b031661198a9092919063ffffffff16565b8051909150156108a657808060200190518101906119189190611af1565b6108a65760405162461bcd60e51b815260206004820152602a60248201527f5361666545524332303a204552433230206f7065726174696f6e20646964206e60448201527f6f74207375636365656400000000000000000000000000000000000000000000606482015260840161085f565b6060610806848460008585843b6119e35760405162461bcd60e51b815260206004820152601d60248201527f416464726573733a2063616c6c20746f206e6f6e2d636f6e7472616374000000604482015260640161085f565b600080866001600160a01b031685876040516119ff9190611bc3565b60006040518083038185875af1925050503d8060008114611a3c576040519150601f19603f3d011682016040523d82523d6000602084013e611a41565b606091505b5091509150611a51828286611a5c565b979650505050505050565b60608315611a6b57508161180a565b825115611a7b5782518084602001fd5b8160405162461bcd60e51b815260040161085f9190611c60565b80356001600160a01b0381168114610d2e57600080fd5b600060208284031215611abe57600080fd5b61180a82611a95565b60008060408385031215611ada57600080fd5b611ae383611a95565b946020939093013593505050565b600060208284031215611b0357600080fd5b8151801515811461180a57600080fd5b600060208284031215611b2557600080fd5b5035919050565b60008060408385031215611b3f57600080fd5b82359150611b4f60208401611a95565b90509250929050565b600060208284031215611b6a57600080fd5b81356001600160e01b03198116811461180a57600080fd5b600060208284031215611b9457600080fd5b5051919050565b600060208284031215611bad57600080fd5b813565ffffffffffff8116811461180a57600080fd5b60008251611bd5818460208701611d4a565b9190910192915050565b7f416363657373436f6e74726f6c3a206163636f756e7420000000000000000000815260008351611c17816017850160208801611d4a565b7f206973206d697373696e6720726f6c65200000000000000000000000000000006017918401918201528351611c54816028840160208801611d4a565b01602801949350505050565b6020815260008251806020840152611c7f816040850160208701611d4a565b601f01601f19169190910160400192915050565b60008219821115611ca657611ca6611d8d565b500190565b600082611cc857634e487b7160e01b600052601260045260246000fd5b500490565b6000816000190483118215151615611ce757611ce7611d8d565b500290565b60006001600160a01b0383811690831681811015611d0c57611d0c611d8d565b039392505050565b600082821015611d2657611d26611d8d565b500390565b600065ffffffffffff83811690831681811015611d0c57611d0c611d8d565b60005b83811015611d65578181015183820152602001611d4d565b83811115610e5a5750506000910152565b600081611d8557611d85611d8d565b506000190190565b634e487b7160e01b600052601160045260246000fd5b634e487b7160e01b600052603260045260246000fd5b634e487b7160e01b600052604160045260246000fdfea164736f6c6343000807000a",
  "linkReferences": {},
  "deployedLinkReferences": {}
}