{
  "_format": "hh-sol-artifact-1",
  "contractName": "PolsStake",
  "sourceName": "contracts/PolsStake.sol",
  "abi": [
    {
      "inputs": [
        {
          "internalType": "address",
          "name": "_stakingToken",
          "type": "address"
        },
        {
          "internalType": "uint48",
          "name": "_lockTimePeriod",
          "type": "uint48"
        }
      ],
      "stateMutability": "nonpayable",
      "type": "constructor"
    },
    {
      "anonymous": false,
      "inputs": [
        {
          "indexed": true,
          "internalType": "address",
          "name": "wallet",
          "type": "address"
        },
        {
          "indexed": true,
          "internalType": "address",
          "name": "rewardToken",
          "type": "address"
        },
        {
          "indexed": false,
          "internalType": "uint256",
          "name": "amount",
          "type": "uint256"
        }
      ],
      "name": "Claimed",
      "type": "event"
    },
    {
      "anonymous": false,
      "inputs": [
        {
          "indexed": false,
          "internalType": "uint256",
          "name": "data",
          "type": "uint256"
        }
      ],
      "name": "Log",
      "type": "event"
    },
    {
      "anonymous": false,
      "inputs": [
        {
          "indexed": true,
          "internalType": "address",
          "name": "rewardToken",
          "type": "address"
        },
        {
          "indexed": false,
          "internalType": "uint256",
          "name": "amount",
          "type": "uint256"
        },
        {
          "indexed": false,
          "internalType": "uint256",
          "name": "totalStaked",
          "type": "uint256"
        },
        {
          "indexed": false,
          "internalType": "uint256",
          "name": "date",
          "type": "uint256"
        }
      ],
      "name": "Rewarded",
      "type": "event"
    },
    {
      "anonymous": false,
      "inputs": [
        {
          "indexed": true,
          "internalType": "bytes32",
          "name": "role",
          "type": "bytes32"
        },
        {
          "indexed": true,
          "internalType": "bytes32",
          "name": "previousAdminRole",
          "type": "bytes32"
        },
        {
          "indexed": true,
          "internalType": "bytes32",
          "name": "newAdminRole",
          "type": "bytes32"
        }
      ],
      "name": "RoleAdminChanged",
      "type": "event"
    },
    {
      "anonymous": false,
      "inputs": [
        {
          "indexed": true,
          "internalType": "bytes32",
          "name": "role",
          "type": "bytes32"
        },
        {
          "indexed": true,
          "internalType": "address",
          "name": "account",
          "type": "address"
        },
        {
          "indexed": true,
          "internalType": "address",
          "name": "sender",
          "type": "address"
        }
      ],
      "name": "RoleGranted",
      "type": "event"
    },
    {
      "anonymous": false,
      "inputs": [
        {
          "indexed": true,
          "internalType": "bytes32",
          "name": "role",
          "type": "bytes32"
        },
        {
          "indexed": true,
          "internalType": "address",
          "name": "account",
          "type": "address"
        },
        {
          "indexed": true,
          "internalType": "address",
          "name": "sender",
          "type": "address"
        }
      ],
      "name": "RoleRevoked",
      "type": "event"
    },
    {
      "anonymous": false,
      "inputs": [
        {
          "indexed": true,
          "internalType": "address",
          "name": "wallet",
          "type": "address"
        },
        {
          "indexed": false,
          "internalType": "uint256",
          "name": "amount",
          "type": "uint256"
        },
        {
          "indexed": false,
          "internalType": "uint256",
          "name": "date",
          "type": "uint256"
        }
      ],
      "name": "Stake",
      "type": "event"
    },
    {
      "anonymous": false,
      "inputs": [
        {
          "indexed": true,
          "internalType": "address",
          "name": "wallet",
          "type": "address"
        },
        {
          "indexed": false,
          "internalType": "uint256",
          "name": "amount",
          "type": "uint256"
        },
        {
          "indexed": false,
          "internalType": "uint256",
          "name": "date",
          "type": "uint256"
        }
      ],
      "name": "Withdraw",
      "type": "event"
    },
    {
      "inputs": [],
      "name": "BURNER_ROLE",
      "outputs": [
        {
          "internalType": "bytes32",
          "name": "",
          "type": "bytes32"
        }
      ],
      "stateMutability": "view",
      "type": "function"
    },
    {
      "inputs": [],
      "name": "DEFAULT_ADMIN_ROLE",
      "outputs": [
        {
          "internalType": "bytes32",
          "name": "",
          "type": "bytes32"
        }
      ],
      "stateMutability": "view",
      "type": "function"
    },
    {
      "inputs": [],
      "name": "MAX_TIME",
      "outputs": [
        {
          "internalType": "uint48",
          "name": "",
          "type": "uint48"
        }
      ],
      "stateMutability": "view",
      "type": "function"
    },
    {
      "inputs": [
        {
          "internalType": "address",
          "name": "_staker",
          "type": "address"
        }
      ],
      "name": "balanceOf",
      "outputs": [
        {
          "internalType": "uint256",
          "name": "balance",
          "type": "uint256"
        }
      ],
      "stateMutability": "view",
      "type": "function"
    },
    {
      "inputs": [
        {
          "internalType": "address",
          "name": "_staker",
          "type": "address"
        },
        {
          "internalType": "uint256",
          "name": "_amount",
          "type": "uint256"
        }
      ],
      "name": "burnRewards",
      "outputs": [],
      "stateMutability": "nonpayable",
      "type": "function"
    },
    {
      "inputs": [],
      "name": "claim",
      "outputs": [
        {
          "internalType": "uint256",
          "name": "",
          "type": "uint256"
        }
      ],
      "stateMutability": "nonpayable",
      "type": "function"
    },
    {
      "inputs": [
        {
          "internalType": "address",
          "name": "_staker",
          "type": "address"
        }
      ],
      "name": "getEarnedRewardTokens",
      "outputs": [
        {
          "internalType": "uint256",
          "name": "claimableRewardTokens",
          "type": "uint256"
        }
      ],
      "stateMutability": "view",
      "type": "function"
    },
    {
      "inputs": [],
      "name": "getEarnedRewardTokens_msgSender",
      "outputs": [
        {
          "internalType": "uint256",
          "name": "",
          "type": "uint256"
        }
      ],
      "stateMutability": "view",
      "type": "function"
    },
    {
      "inputs": [],
      "name": "getRewardTokenBalance",
      "outputs": [
        {
          "internalType": "uint256",
          "name": "balance",
          "type": "uint256"
        }
      ],
      "stateMutability": "view",
      "type": "function"
    },
    {
      "inputs": [
        {
          "internalType": "bytes32",
          "name": "role",
          "type": "bytes32"
        }
      ],
      "name": "getRoleAdmin",
      "outputs": [
        {
          "internalType": "bytes32",
          "name": "",
          "type": "bytes32"
        }
      ],
      "stateMutability": "view",
      "type": "function"
    },
    {
      "inputs": [
        {
          "internalType": "address",
          "name": "_staker",
          "type": "address"
        }
      ],
      "name": "getUnlockTime",
      "outputs": [
        {
          "internalType": "uint48",
          "name": "unlockTime",
          "type": "uint48"
        }
      ],
      "stateMutability": "view",
      "type": "function"
    },
    {
      "inputs": [],
      "name": "getUnlockTime_msgSender",
      "outputs": [
        {
          "internalType": "uint48",
          "name": "unlockTime",
          "type": "uint48"
        }
      ],
      "stateMutability": "view",
      "type": "function"
    },
    {
      "inputs": [
        {
          "internalType": "bytes32",
          "name": "role",
          "type": "bytes32"
        },
        {
          "internalType": "address",
          "name": "account",
          "type": "address"
        }
      ],
      "name": "grantRole",
      "outputs": [],
      "stateMutability": "nonpayable",
      "type": "function"
    },
    {
      "inputs": [
        {
          "internalType": "bytes32",
          "name": "role",
          "type": "bytes32"
        },
        {
          "internalType": "address",
          "name": "account",
          "type": "address"
        }
      ],
      "name": "hasRole",
      "outputs": [
        {
          "internalType": "bool",
          "name": "",
          "type": "bool"
        }
      ],
      "stateMutability": "view",
      "type": "function"
    },
    {
      "inputs": [],
      "name": "lockTimePeriod",
      "outputs": [
        {
          "internalType": "uint48",
          "name": "",
          "type": "uint48"
        }
      ],
      "stateMutability": "view",
      "type": "function"
    },
    {
      "inputs": [
        {
          "internalType": "bytes32",
          "name": "role",
          "type": "bytes32"
        },
        {
          "internalType": "address",
          "name": "account",
          "type": "address"
        }
      ],
      "name": "renounceRole",
      "outputs": [],
      "stateMutability": "nonpayable",
      "type": "function"
    },
    {
      "inputs": [
        {
          "internalType": "bytes32",
          "name": "role",
          "type": "bytes32"
        },
        {
          "internalType": "address",
          "name": "account",
          "type": "address"
        }
      ],
      "name": "revokeRole",
      "outputs": [],
      "stateMutability": "nonpayable",
      "type": "function"
    },
    {
      "inputs": [],
      "name": "rewardToken",
      "outputs": [
        {
          "internalType": "address",
          "name": "",
          "type": "address"
        }
      ],
      "stateMutability": "view",
      "type": "function"
    },
    {
      "inputs": [
        {
          "internalType": "uint48",
          "name": "_lockTimePeriod",
          "type": "uint48"
        }
      ],
      "name": "setLockTimePeriod",
      "outputs": [],
      "stateMutability": "nonpayable",
      "type": "function"
    },
    {
      "inputs": [
        {
          "internalType": "address",
          "name": "_rewardToken",
          "type": "address"
        }
      ],
      "name": "setRewardToken",
      "outputs": [],
      "stateMutability": "nonpayable",
      "type": "function"
    },
    {
      "inputs": [
        {
          "internalType": "uint48",
          "name": "_stakeRewardEndTime",
          "type": "uint48"
        }
      ],
      "name": "setStakeRewardEndTime",
      "outputs": [],
      "stateMutability": "nonpayable",
      "type": "function"
    },
    {
      "inputs": [
        {
          "internalType": "uint256",
          "name": "_stakeRewardFactor",
          "type": "uint256"
        }
      ],
      "name": "setStakeRewardFactor",
      "outputs": [],
      "stateMutability": "nonpayable",
      "type": "function"
    },
    {
      "inputs": [
        {
          "internalType": "address",
          "name": "_tokenSaleContract",
          "type": "address"
        }
      ],
      "name": "setTokenSaleContract",
      "outputs": [],
      "stateMutability": "nonpayable",
      "type": "function"
    },
    {
      "inputs": [
        {
          "internalType": "uint256",
          "name": "_amount",
          "type": "uint256"
        }
      ],
      "name": "stake",
      "outputs": [
        {
          "internalType": "uint256",
          "name": "",
          "type": "uint256"
        }
      ],
      "stateMutability": "nonpayable",
      "type": "function"
    },
    {
      "inputs": [
        {
          "internalType": "address",
          "name": "_staker",
          "type": "address"
        }
      ],
      "name": "stakeAmount",
      "outputs": [
        {
          "internalType": "uint256",
          "name": "balance",
          "type": "uint256"
        }
      ],
      "stateMutability": "view",
      "type": "function"
    },
    {
      "inputs": [],
      "name": "stakeAmount_msgSender",
      "outputs": [
        {
          "internalType": "uint256",
          "name": "",
          "type": "uint256"
        }
      ],
      "stateMutability": "view",
      "type": "function"
    },
    {
      "inputs": [],
      "name": "stakeRewardEndTime",
      "outputs": [
        {
          "internalType": "uint48",
          "name": "",
          "type": "uint48"
        }
      ],
      "stateMutability": "view",
      "type": "function"
    },
    {
      "inputs": [],
      "name": "stakeRewardFactor",
      "outputs": [
        {
          "internalType": "uint256",
          "name": "",
          "type": "uint256"
        }
      ],
      "stateMutability": "view",
      "type": "function"
    },
    {
      "inputs": [
        {
          "internalType": "address",
          "name": "_staker",
          "type": "address"
        }
      ],
      "name": "stakeTime",
      "outputs": [
        {
          "internalType": "uint48",
          "name": "dateTime",
          "type": "uint48"
        }
      ],
      "stateMutability": "view",
      "type": "function"
    },
    {
      "inputs": [],
      "name": "stakeTime_msgSender",
      "outputs": [
        {
          "internalType": "uint48",
          "name": "",
          "type": "uint48"
        }
      ],
      "stateMutability": "view",
      "type": "function"
    },
    {
      "inputs": [],
      "name": "stakingToken",
      "outputs": [
        {
          "internalType": "address",
          "name": "",
          "type": "address"
        }
      ],
      "stateMutability": "view",
      "type": "function"
    },
    {
      "inputs": [
        {
          "internalType": "bytes4",
          "name": "interfaceId",
          "type": "bytes4"
        }
      ],
      "name": "supportsInterface",
      "outputs": [
        {
          "internalType": "bool",
          "name": "",
          "type": "bool"
        }
      ],
      "stateMutability": "view",
      "type": "function"
    },
    {
      "inputs": [],
      "name": "tokenSaleContract",
      "outputs": [
        {
          "internalType": "address",
          "name": "",
          "type": "address"
        }
      ],
      "stateMutability": "view",
      "type": "function"
    },
    {
      "inputs": [],
      "name": "tokenTotalStaked",
      "outputs": [
        {
          "internalType": "uint256",
          "name": "",
          "type": "uint256"
        }
      ],
      "stateMutability": "view",
      "type": "function"
    },
    {
      "inputs": [
        {
          "internalType": "address",
          "name": "_staker",
          "type": "address"
        }
      ],
      "name": "userAccumulatedRewards",
      "outputs": [
        {
          "internalType": "uint256",
          "name": "rewards",
          "type": "uint256"
        }
      ],
      "stateMutability": "view",
      "type": "function"
    },
    {
      "inputs": [],
      "name": "userAccumulatedRewards_msgSender",
      "outputs": [
        {
          "internalType": "uint256",
          "name": "",
          "type": "uint256"
        }
      ],
      "stateMutability": "view",
      "type": "function"
    },
    {
      "inputs": [
        {
          "internalType": "address",
          "name": "_staker",
          "type": "address"
        }
      ],
      "name": "userClaimableRewards",
      "outputs": [
        {
          "internalType": "uint256",
          "name": "",
          "type": "uint256"
        }
      ],
      "stateMutability": "view",
      "type": "function"
    },
    {
      "inputs": [],
      "name": "userClaimableRewards_msgSender",
      "outputs": [
        {
          "internalType": "uint256",
          "name": "",
          "type": "uint256"
        }
      ],
      "stateMutability": "view",
      "type": "function"
    },
    {
      "inputs": [
        {
          "internalType": "address",
          "name": "",
          "type": "address"
        }
      ],
      "name": "userMap",
      "outputs": [
        {
          "internalType": "uint48",
          "name": "stakeTime",
          "type": "uint48"
        },
        {
          "internalType": "uint208",
          "name": "stakeAmount",
          "type": "uint208"
        },
        {
          "internalType": "uint256",
          "name": "accumulatedRewards",
          "type": "uint256"
        }
      ],
      "stateMutability": "view",
      "type": "function"
    },
    {
      "inputs": [
        {
          "internalType": "address",
          "name": "_staker",
          "type": "address"
        }
      ],
      "name": "userTotalRewards",
      "outputs": [
        {
          "internalType": "uint256",
          "name": "",
          "type": "uint256"
        }
      ],
      "stateMutability": "view",
      "type": "function"
    },
    {
      "inputs": [],
      "name": "userTotalRewards_msgSender",
      "outputs": [
        {
          "internalType": "uint256",
          "name": "",
          "type": "uint256"
        }
      ],
      "stateMutability": "view",
      "type": "function"
    },
    {
      "inputs": [],
      "name": "withdraw",
      "outputs": [
        {
          "internalType": "uint256",
          "name": "",
          "type": "uint256"
        }
      ],
      "stateMutability": "nonpayable",
      "type": "function"
    }
  ],
  "bytecode": "0x60806040523480156200001157600080fd5b5060405162001fa438038062001fa4833981016040819052620000349162000231565b600180556001600160a01b038216620000945760405162461bcd60e51b815260206004820152601960248201527f7374616b696e67546f6b656e2e61646472657373203d3d20300000000000000060448201526064015b60405180910390fd5b6301e285008165ffffffffffff1610620000f15760405162461bcd60e51b815260206004820152601a60248201527f6c6f636b54696d65506572696f64203e3d20333636206461797300000000000060448201526064016200008b565b600480546001600160a01b0319166001600160a01b0384161790556006805465ffffffffffff60a01b1916600160a01b65ffffffffffff84160217905563240c840060075562000146426301e2850062000285565b6006805465ffffffffffff92909216600160d01b026001600160d01b039092169190911790556200017960003362000181565b5050620002ac565b6200018d828262000191565b5050565b6000828152602081815260408083206001600160a01b038516845290915290205460ff166200018d576000828152602081815260408083206001600160a01b03851684529091529020805460ff19166001179055620001ed3390565b6001600160a01b0316816001600160a01b0316837f2f8788117e7eff1d82e926ec794901d17c78024a50270940304540a733656f0d60405160405180910390a45050565b600080604083850312156200024557600080fd5b82516001600160a01b03811681146200025d57600080fd5b602084015190925065ffffffffffff811681146200027a57600080fd5b809150509250929050565b60008219821115620002a757634e487b7160e01b600052601160045260246000fd5b500190565b611ce880620002bc6000396000f3fe608060405234801561001057600080fd5b50600436106102de5760003560e01c806387f075d911610186578063bf135267116100e3578063dfdf35c411610097578063f3b95cd711610071578063f3b95cd7146106c4578063f6a3f3cf146106d7578063f7c618c1146106ea57600080fd5b8063dfdf35c41461068b578063ee2d505e1461069e578063ee61e0cd146106b157600080fd5b8063d953a867116100c8578063d953a86714610657578063dbed1e8814610670578063de3717fc1461068357600080fd5b8063bf13526714610528578063d547741f1461064457600080fd5b80639a7cc1b81161013a578063a38a57c41161011f578063a38a57c4146105fb578063a694fc3a14610614578063aaa748d31461062757600080fd5b80639a7cc1b8146105eb578063a217fddf146105f357600080fd5b80638efb31c71161016b5780638efb31c71461059957806391d14854146105ac57806393ce5343146105e357600080fd5b806387f075d91461057d5780638aee81271461058657600080fd5b8063354d89ee1161023f5780635bd4b5df116101f357806370a08231116101cd57806370a082311461052857806372f702f314610561578063872b26da1461057457600080fd5b80635bd4b5df146104d05780635d5aa277146104d85780636bb64e231461050357600080fd5b80633cb2efc9116102245780633cb2efc9146104b85780633ccfd60b146104c05780634e71d92d146104c857600080fd5b8063354d89ee1461049257806336568abe146104a557600080fd5b8063248a9ca311610296578063282c51f31161027b578063282c51f3146103e85780632bcc23f81461040f5780632f2ff15d1461047d57600080fd5b8063248a9ca3146103b857806326949984146103db57600080fd5b806307dc1e1a116102c757806307dc1e1a1461032c57806309ef67e6146103445780632170e4721461037057600080fd5b806301ffc9a7146102e35780630584bd091461030b575b600080fd5b6102f66102f1366004611a5a565b6106fd565b60405190151581526020015b60405180910390f35b61031e6103193660046119ae565b610734565b604051908152602001610302565b3360009081526002602052604090206001015461031e565b61031e6103523660046119ae565b6001600160a01b031660009081526002602052604090206001015490565b6103a161037e3660046119ae565b6001600160a01b031660009081526002602052604090205465ffffffffffff1690565b60405165ffffffffffff9091168152602001610302565b61031e6103c6366004611a15565b60009081526020819052604090206001015490565b6103a165ffffffffffff81565b61031e7f3c11d16cbaffd01df69ce1c404f6340ee057498f5f00246190ea54220576a84881565b61045161041d3660046119ae565b6002602052600090815260409020805460019091015465ffffffffffff821691600160301b90046001600160d01b03169083565b6040805165ffffffffffff90941684526001600160d01b03909216602084015290820152606001610302565b61049061048b366004611a2e565b610815565b005b6104906104a03660046119ae565b610840565b6104906104b3366004611a2e565b61087c565b6103a161090d565b61031e61091d565b61031e610988565b61031e6109ea565b6006546104eb906001600160a01b031681565b6040516001600160a01b039091168152602001610302565b33600090815260026020526040902054600160301b90046001600160d01b031661031e565b61031e6105363660046119ae565b6001600160a01b0316600090815260026020526040902054600160301b90046001600160d01b031690565b6004546104eb906001600160a01b031681565b61031e60035481565b61031e60075481565b6104906105943660046119ae565b6109f5565b6104906105a7366004611a15565b610a31565b6102f66105ba366004611a2e565b6000918252602082815260408084206001600160a01b0393909316845291905290205460ff1690565b61031e610a43565b61031e610aeb565b61031e600081565b6006546103a190600160d01b900465ffffffffffff1681565b61031e610622366004611a15565b610af6565b3360009081526002602052604090205465ffffffffffff166103a1565b610490610652366004611a2e565b610b63565b6006546103a190600160a01b900465ffffffffffff1681565b6103a161067e3660046119ae565b610b89565b61031e610c0b565b610490610699366004611a9d565b610c16565b61031e6106ac3660046119ae565b610cab565b6104906106bf366004611a9d565b610cee565b6104906106d23660046119c9565b610daa565b61031e6106e53660046119ae565b610e1b565b6005546104eb906001600160a01b031681565b60006001600160e01b03198216637965db0b60e01b148061072e57506301ffc9a760e01b6001600160e01b03198316145b92915050565b6001600160a01b0381166000908152600260205260408120805465ffffffffffff164210156107665750600092915050565b805460065465ffffffffffff918216600160d01b909104909116101561078f5750600092915050565b600654600090600160d01b900465ffffffffffff1642116107c55781546107be9065ffffffffffff1642611c18565b90506107f1565b81546006546107e69165ffffffffffff90811691600160d01b900416611c2f565b65ffffffffffff1690505b815461080d90600160301b90046001600160d01b031682611bf9565b949350505050565b6000828152602081905260409020600101546108318133610e4a565b61083b8383610ec8565b505050565b600061084c8133610e4a565b506006805473ffffffffffffffffffffffffffffffffffffffff19166001600160a01b0392909216919091179055565b6001600160a01b03811633146108ff5760405162461bcd60e51b815260206004820152602f60248201527f416363657373436f6e74726f6c3a2063616e206f6e6c792072656e6f756e636560448201527f20726f6c657320666f722073656c66000000000000000000000000000000000060648201526084015b60405180910390fd5b6109098282610f66565b5050565b600061091833610b89565b905090565b6000600260015414156109725760405162461bcd60e51b815260206004820152601f60248201527f5265656e7472616e637947756172643a207265656e7472616e742063616c6c0060448201526064016108f6565b600260015561097f610fe5565b90506001805590565b6000600260015414156109dd5760405162461bcd60e51b815260206004820152601f60248201527f5265656e7472616e637947756172643a207265656e7472616e742063616c6c0060448201526064016108f6565b600260015561097f611159565b600061091833610734565b6000610a018133610e4a565b506005805473ffffffffffffffffffffffffffffffffffffffff19166001600160a01b0392909216919091179055565b6000610a3d8133610e4a565b50600755565b6005546040516370a0823160e01b81523060048201526000916001600160a01b0316906370a082319060240160206040518083038186803b158015610a8757600080fd5b505afa158015610a9b573d6000803e3d6000fd5b505050506040513d601f19601f82011682018060405250810190610abf9190611a84565b6005546004549192506001600160a01b0391821691161415610ae8576003546109189082611c18565b90565b600061091833610cab565b600060026001541415610b4b5760405162461bcd60e51b815260206004820152601f60248201527f5265656e7472616e637947756172643a207265656e7472616e742063616c6c0060448201526064016108f6565b6002600155610b5982611302565b6001805592915050565b600082815260208190526040902060010154610b7f8133610e4a565b61083b8383610f66565b6001600160a01b038116600090815260026020526040812054600160301b90046001600160d01b0316610bc25765ffffffffffff61072e565b6006546001600160a01b03831660009081526002602052604090205461072e91610bfe9165ffffffffffff600160a01b90920482169116611bad565b65ffffffffffff1661148a565b600061091833610e1b565b6000610c228133610e4a565b60065442600160d01b90910465ffffffffffff1611610c835760405162461bcd60e51b815260206004820152601c60248201527f74696d652068617320746f20626520696e20746865206675747572650000000060448201526064016108f6565b506006805465ffffffffffff909216600160d01b026001600160d01b03909216919091179055565b6005546000906001600160a01b03161580610cc65750600754155b15610cd357506000919050565b600754610cdf83610e1b565b61072e9190611bd7565b919050565b6000610cfa8133610e4a565b60065465ffffffffffff600160a01b909104811690831610610d695760405162461bcd60e51b815260206004820152602260248201527f6c6f636b54696d65506572696f642063616e206e6f7420626520657874656e64604482015261195960f21b60648201526084016108f6565b506006805465ffffffffffff909216600160a01b027fffffffffffff000000000000ffffffffffffffffffffffffffffffffffffffff909216919091179055565b7f3c11d16cbaffd01df69ce1c404f6340ee057498f5f00246190ea54220576a848610dd58133610e4a565b6000610de0846114e6565b90508060010154831015610e0d5782816001016000828254610e029190611c18565b90915550610e159050565b600060018201555b50505050565b6001600160a01b038116600090815260026020526040812060010154610e4083610734565b61072e9190611b95565b6000828152602081815260408083206001600160a01b038516845290915290205460ff1661090957610e86816001600160a01b03166014611547565b610e91836020611547565b604051602001610ea2929190611ae1565b60408051601f198184030181529082905262461bcd60e51b82526108f691600401611b62565b6000828152602081815260408083206001600160a01b038516845290915290205460ff16610909576000828152602081815260408083206001600160a01b03851684529091529020805460ff19166001179055610f223390565b6001600160a01b0316816001600160a01b0316837f2f8788117e7eff1d82e926ec794901d17c78024a50270940304540a733656f0d60405160405180910390a45050565b6000828152602081815260408083206001600160a01b038516845290915290205460ff1615610909576000828152602081815260408083206001600160a01b0385168085529252808320805460ff1916905551339285917ff6391f5c32d9c69d2a47ea670b442974b53935d1edc7fd64eb21e047a839171b9190a45050565b33600090815260026020526040812054600160301b90046001600160d01b03166110515760405162461bcd60e51b815260206004820152601b60248201527f6e6f207374616b656420746f6b656e20746f207769746864726177000000000060448201526064016108f6565b61105a33610b89565b65ffffffffffff1642116110b05760405162461bcd60e51b815260206004820152601d60248201527f7374616b656420746f6b656e20617265207374696c6c206c6f636b656400000060448201526064016108f6565b60006110bb336114e6565b805465ffffffffffff8116825560038054929350600160301b9091046001600160d01b0316918291906000906110f2908490611c18565b909155505060045461110e906001600160a01b031633836116f7565b81546040805183815265ffffffffffff909216602083015233917ff279e6a1f5e320cca91135676d9cb6e44ca8a08c0b88342bcdb1144f6511b568910160405180910390a292915050565b6005546000906001600160a01b03166111b45760405162461bcd60e51b815260206004820152601860248201527f6e6f2072657761726420746f6b656e20636f6e7472616374000000000000000060448201526064016108f6565b60006111bf33610cab565b9050600081116112115760405162461bcd60e51b815260206004820152601260248201527f6e6f20746f6b656e7320746f20636c61696d000000000000000000000000000060448201526064016108f6565b33600090815260026020526040812060018101919091556112314261148a565b815465ffffffffffff191665ffffffffffff91909116178155611252610a43565b8211156112a15760405162461bcd60e51b815260206004820152601860248201527f6e6f7420656e6f7567682072657761726420746f6b656e73000000000000000060448201526064016108f6565b6005546112b8906001600160a01b031633846116f7565b6005546040518381526001600160a01b039091169033907ff7a40077ff7a04c7e61f6f26fb13774259ddf1b6bce9ecf26a8276cdd39926839060200160405180910390a350919050565b60008082116113535760405162461bcd60e51b815260206004820152601f60248201527f616d6f756e7420746f206265207374616b6564206d757374206265203e20300060448201526064016108f6565b600061135e336114e6565b80549091506001600160d01b0390611380908590600160301b90048316611b95565b11156113ce5760405162461bcd60e51b815260206004820152601560248201527f7374616b6520616d6f756e74206f766572666c6f77000000000000000000000060448201526064016108f6565b80546113eb908490600160301b90046001600160d01b0316611b95565b81546001600160d01b0391909116600160301b0265ffffffffffff90911617815560038054849190600090611421908490611b95565b909155505060045461143e906001600160a01b031633308661176f565b80546040805185815265ffffffffffff909216602083015233917f5af417134f72a9d41143ace85b0a26dce6f550f894f2cbc1eeee8810603d91b6910160405180910390a25090919050565b600065ffffffffffff8211156114e25760405162461bcd60e51b815260206004820152601c60248201527f76616c756520646f65736e27742066697420696e20343820626974730000000060448201526064016108f6565b5090565b6001600160a01b038116600090815260026020526040902061150782610734565b81600101600082825461151a9190611b95565b9091555061152990504261148a565b815465ffffffffffff191665ffffffffffff91909116178155919050565b60606000611556836002611bf9565b611561906002611b95565b67ffffffffffffffff81111561157957611579611cc5565b6040519080825280601f01601f1916602001820160405280156115a3576020820181803683370190505b509050600360fc1b816000815181106115be576115be611caf565b60200101906001600160f81b031916908160001a905350600f60fb1b816001815181106115ed576115ed611caf565b60200101906001600160f81b031916908160001a9053506000611611846002611bf9565b61161c906001611b95565b90505b60018111156116a1577f303132333435363738396162636465660000000000000000000000000000000085600f166010811061165d5761165d611caf565b1a60f81b82828151811061167357611673611caf565b60200101906001600160f81b031916908160001a90535060049490941c9361169a81611c82565b905061161f565b5083156116f05760405162461bcd60e51b815260206004820181905260248201527f537472696e67733a20686578206c656e67746820696e73756666696369656e7460448201526064016108f6565b9392505050565b6040516001600160a01b03831660248201526044810182905261083b90849063a9059cbb60e01b906064015b60408051601f198184030181529190526020810180517bffffffffffffffffffffffffffffffffffffffffffffffffffffffff166001600160e01b0319909316929092179091526117a7565b6040516001600160a01b0380851660248301528316604482015260648101829052610e159085906323b872dd60e01b90608401611723565b60006117fc826040518060400160405280602081526020017f5361666545524332303a206c6f772d6c6576656c2063616c6c206661696c6564815250856001600160a01b031661188c9092919063ffffffff16565b80519091501561083b578080602001905181019061181a91906119f3565b61083b5760405162461bcd60e51b815260206004820152602a60248201527f5361666545524332303a204552433230206f7065726174696f6e20646964206e60448201527f6f7420737563636565640000000000000000000000000000000000000000000060648201526084016108f6565b606061080d848460008585843b6118e55760405162461bcd60e51b815260206004820152601d60248201527f416464726573733a2063616c6c20746f206e6f6e2d636f6e747261637400000060448201526064016108f6565b600080866001600160a01b031685876040516119019190611ac5565b60006040518083038185875af1925050503d806000811461193e576040519150601f19603f3d011682016040523d82523d6000602084013e611943565b606091505b509150915061195382828661195e565b979650505050505050565b6060831561196d5750816116f0565b82511561197d5782518084602001fd5b8160405162461bcd60e51b81526004016108f69190611b62565b80356001600160a01b0381168114610ce957600080fd5b6000602082840312156119c057600080fd5b6116f082611997565b600080604083850312156119dc57600080fd5b6119e583611997565b946020939093013593505050565b600060208284031215611a0557600080fd5b815180151581146116f057600080fd5b600060208284031215611a2757600080fd5b5035919050565b60008060408385031215611a4157600080fd5b82359150611a5160208401611997565b90509250929050565b600060208284031215611a6c57600080fd5b81356001600160e01b0319811681146116f057600080fd5b600060208284031215611a9657600080fd5b5051919050565b600060208284031215611aaf57600080fd5b813565ffffffffffff811681146116f057600080fd5b60008251611ad7818460208701611c56565b9190910192915050565b7f416363657373436f6e74726f6c3a206163636f756e7420000000000000000000815260008351611b19816017850160208801611c56565b7f206973206d697373696e6720726f6c65200000000000000000000000000000006017918401918201528351611b56816028840160208801611c56565b01602801949350505050565b6020815260008251806020840152611b81816040850160208701611c56565b601f01601f19169190910160400192915050565b60008219821115611ba857611ba8611c99565b500190565b600065ffffffffffff808316818516808303821115611bce57611bce611c99565b01949350505050565b600082611bf457634e487b7160e01b600052601260045260246000fd5b500490565b6000816000190483118215151615611c1357611c13611c99565b500290565b600082821015611c2a57611c2a611c99565b500390565b600065ffffffffffff83811690831681811015611c4e57611c4e611c99565b039392505050565b60005b83811015611c71578181015183820152602001611c59565b83811115610e155750506000910152565b600081611c9157611c91611c99565b506000190190565b634e487b7160e01b600052601160045260246000fd5b634e487b7160e01b600052603260045260246000fd5b634e487b7160e01b600052604160045260246000fdfea164736f6c6343000807000a",
  "linkReferences": {},
  "deployedLinkReferences": {}
}