{
  "_format": "hh-sol-artifact-1",
  "contractName": "PolsStake",
  "sourceName": "contracts/PolsStake.sol",
  "abi": [
    {
      "inputs": [
        {
          "internalType": "address",
          "name": "_stakingToken",
          "type": "address"
        }
      ],
      "stateMutability": "nonpayable",
      "type": "constructor"
    },
    {
      "anonymous": false,
      "inputs": [
        {
          "indexed": true,
          "internalType": "address",
          "name": "account",
          "type": "address"
        },
        {
          "indexed": true,
          "internalType": "address",
          "name": "rewardToken",
          "type": "address"
        },
        {
          "indexed": false,
          "internalType": "uint256",
          "name": "amount",
          "type": "uint256"
        }
      ],
      "name": "Claimed",
      "type": "event"
    },
    {
      "anonymous": false,
      "inputs": [
        {
          "indexed": true,
          "internalType": "address",
          "name": "tokenAddress",
          "type": "address"
        },
        {
          "indexed": true,
          "internalType": "address",
          "name": "receiver",
          "type": "address"
        },
        {
          "indexed": false,
          "internalType": "uint256",
          "name": "amount",
          "type": "uint256"
        }
      ],
      "name": "ERC20TokensRemoved",
      "type": "event"
    },
    {
      "anonymous": false,
      "inputs": [
        {
          "indexed": false,
          "internalType": "uint32[]",
          "name": "lockTimePeriod",
          "type": "uint32[]"
        },
        {
          "indexed": false,
          "internalType": "uint32[]",
          "name": "lockTimePeriodRewardFactor",
          "type": "uint32[]"
        }
      ],
      "name": "LockTimePeriodOptionsChanged",
      "type": "event"
    },
    {
      "anonymous": false,
      "inputs": [
        {
          "indexed": false,
          "internalType": "uint32[]",
          "name": "lockTimePeriodRewardFactor",
          "type": "uint32[]"
        }
      ],
      "name": "LockTimePeriodRewardFactorsChanged",
      "type": "event"
    },
    {
      "anonymous": false,
      "inputs": [
        {
          "indexed": false,
          "internalType": "bool",
          "name": "lockedRewardsEnabled",
          "type": "bool"
        }
      ],
      "name": "LockedRewardsEnabledChanged",
      "type": "event"
    },
    {
      "anonymous": false,
      "inputs": [
        {
          "indexed": true,
          "internalType": "address",
          "name": "prevPolsStaking",
          "type": "address"
        }
      ],
      "name": "PrevPolsStakingChanged",
      "type": "event"
    },
    {
      "anonymous": false,
      "inputs": [
        {
          "indexed": true,
          "internalType": "address",
          "name": "oldRewardToken",
          "type": "address"
        },
        {
          "indexed": false,
          "internalType": "uint256",
          "name": "returnedAmount",
          "type": "uint256"
        },
        {
          "indexed": true,
          "internalType": "address",
          "name": "newRewardToken",
          "type": "address"
        }
      ],
      "name": "RewardTokenChanged",
      "type": "event"
    },
    {
      "anonymous": false,
      "inputs": [
        {
          "indexed": true,
          "internalType": "address",
          "name": "account",
          "type": "address"
        },
        {
          "indexed": false,
          "internalType": "uint256",
          "name": "externalAccumulatedRewards",
          "type": "uint256"
        }
      ],
      "name": "RewardsAdded",
      "type": "event"
    },
    {
      "anonymous": false,
      "inputs": [
        {
          "indexed": true,
          "internalType": "address",
          "name": "staker",
          "type": "address"
        },
        {
          "indexed": false,
          "internalType": "uint256",
          "name": "amount",
          "type": "uint256"
        }
      ],
      "name": "RewardsBurned",
      "type": "event"
    },
    {
      "anonymous": false,
      "inputs": [
        {
          "indexed": true,
          "internalType": "bytes32",
          "name": "role",
          "type": "bytes32"
        },
        {
          "indexed": true,
          "internalType": "bytes32",
          "name": "previousAdminRole",
          "type": "bytes32"
        },
        {
          "indexed": true,
          "internalType": "bytes32",
          "name": "newAdminRole",
          "type": "bytes32"
        }
      ],
      "name": "RoleAdminChanged",
      "type": "event"
    },
    {
      "anonymous": false,
      "inputs": [
        {
          "indexed": true,
          "internalType": "bytes32",
          "name": "role",
          "type": "bytes32"
        },
        {
          "indexed": true,
          "internalType": "address",
          "name": "account",
          "type": "address"
        },
        {
          "indexed": true,
          "internalType": "address",
          "name": "sender",
          "type": "address"
        }
      ],
      "name": "RoleGranted",
      "type": "event"
    },
    {
      "anonymous": false,
      "inputs": [
        {
          "indexed": true,
          "internalType": "bytes32",
          "name": "role",
          "type": "bytes32"
        },
        {
          "indexed": true,
          "internalType": "address",
          "name": "account",
          "type": "address"
        },
        {
          "indexed": true,
          "internalType": "address",
          "name": "sender",
          "type": "address"
        }
      ],
      "name": "RoleRevoked",
      "type": "event"
    },
    {
      "anonymous": false,
      "inputs": [
        {
          "indexed": true,
          "internalType": "address",
          "name": "account",
          "type": "address"
        },
        {
          "indexed": false,
          "internalType": "uint256",
          "name": "amount",
          "type": "uint256"
        },
        {
          "indexed": false,
          "internalType": "uint256",
          "name": "finalStakeAmount",
          "type": "uint256"
        },
        {
          "indexed": false,
          "internalType": "uint48",
          "name": "stakeTime",
          "type": "uint48"
        },
        {
          "indexed": false,
          "internalType": "uint48",
          "name": "lockPeriod",
          "type": "uint48"
        },
        {
          "indexed": false,
          "internalType": "uint48",
          "name": "unlockTime",
          "type": "uint48"
        }
      ],
      "name": "Stake",
      "type": "event"
    },
    {
      "anonymous": false,
      "inputs": [
        {
          "indexed": false,
          "internalType": "uint48",
          "name": "stakeRewardEndTime",
          "type": "uint48"
        }
      ],
      "name": "StakeRewardEndTimeChanged",
      "type": "event"
    },
    {
      "anonymous": false,
      "inputs": [
        {
          "indexed": false,
          "internalType": "uint256",
          "name": "stakeRewardFactor",
          "type": "uint256"
        }
      ],
      "name": "StakeRewardFactorChanged",
      "type": "event"
    },
    {
      "anonymous": false,
      "inputs": [
        {
          "indexed": false,
          "internalType": "uint256",
          "name": "unlockedRewardsFactor",
          "type": "uint256"
        }
      ],
      "name": "UnlockedRewardsFactorChanged",
      "type": "event"
    },
    {
      "anonymous": false,
      "inputs": [
        {
          "indexed": true,
          "internalType": "address",
          "name": "account",
          "type": "address"
        },
        {
          "indexed": false,
          "internalType": "uint256",
          "name": "amount",
          "type": "uint256"
        },
        {
          "indexed": false,
          "internalType": "uint48",
          "name": "withdrawTime",
          "type": "uint48"
        }
      ],
      "name": "Withdraw",
      "type": "event"
    },
    {
      "inputs": [],
      "name": "BURNER_ROLE",
      "outputs": [
        {
          "internalType": "bytes32",
          "name": "",
          "type": "bytes32"
        }
      ],
      "stateMutability": "view",
      "type": "function"
    },
    {
      "inputs": [],
      "name": "DEFAULT_ADMIN_ROLE",
      "outputs": [
        {
          "internalType": "bytes32",
          "name": "",
          "type": "bytes32"
        }
      ],
      "stateMutability": "view",
      "type": "function"
    },
    {
      "inputs": [],
      "name": "MAX_TIME",
      "outputs": [
        {
          "internalType": "uint48",
          "name": "",
          "type": "uint48"
        }
      ],
      "stateMutability": "view",
      "type": "function"
    },
    {
      "inputs": [],
      "name": "REWARDS_DIV",
      "outputs": [
        {
          "internalType": "uint32",
          "name": "",
          "type": "uint32"
        }
      ],
      "stateMutability": "view",
      "type": "function"
    },
    {
      "inputs": [
        {
          "internalType": "uint256",
          "name": "user_stakeAmount",
          "type": "uint256"
        },
        {
          "internalType": "uint256",
          "name": "user_stakeTime",
          "type": "uint256"
        },
        {
          "internalType": "uint256",
          "name": "user_unlockTime",
          "type": "uint256"
        },
        {
          "internalType": "uint256",
          "name": "t0",
          "type": "uint256"
        },
        {
          "internalType": "uint256",
          "name": "endTime",
          "type": "uint256"
        },
        {
          "internalType": "bool",
          "name": "lockedRewards",
          "type": "bool"
        },
        {
          "internalType": "bool",
          "name": "lockedRewardsCurrent",
          "type": "bool"
        },
        {
          "internalType": "uint256",
          "name": "user_stakePeriodRewardFactor",
          "type": "uint256"
        }
      ],
      "name": "_userClaimableRewardsCalculation",
      "outputs": [
        {
          "internalType": "uint256",
          "name": "",
          "type": "uint256"
        }
      ],
      "stateMutability": "view",
      "type": "function"
    },
    {
      "inputs": [
        {
          "internalType": "address",
          "name": "_staker",
          "type": "address"
        }
      ],
      "name": "balanceOf",
      "outputs": [
        {
          "internalType": "uint256",
          "name": "balance",
          "type": "uint256"
        }
      ],
      "stateMutability": "view",
      "type": "function"
    },
    {
      "inputs": [
        {
          "internalType": "address",
          "name": "_staker",
          "type": "address"
        },
        {
          "internalType": "uint256",
          "name": "_amount",
          "type": "uint256"
        }
      ],
      "name": "burnRewards",
      "outputs": [],
      "stateMutability": "nonpayable",
      "type": "function"
    },
    {
      "inputs": [],
      "name": "claim",
      "outputs": [
        {
          "internalType": "uint256",
          "name": "",
          "type": "uint256"
        }
      ],
      "stateMutability": "nonpayable",
      "type": "function"
    },
    {
      "inputs": [
        {
          "internalType": "uint8",
          "name": "lockTimeIndex",
          "type": "uint8"
        }
      ],
      "name": "extendLockTime",
      "outputs": [
        {
          "internalType": "uint48",
          "name": "",
          "type": "uint48"
        }
      ],
      "stateMutability": "nonpayable",
      "type": "function"
    },
    {
      "inputs": [
        {
          "internalType": "address",
          "name": "_staker",
          "type": "address"
        }
      ],
      "name": "getEarnedRewardTokens",
      "outputs": [
        {
          "internalType": "uint256",
          "name": "claimableRewardTokens",
          "type": "uint256"
        }
      ],
      "stateMutability": "view",
      "type": "function"
    },
    {
      "inputs": [],
      "name": "getEarnedRewardTokens_msgSender",
      "outputs": [
        {
          "internalType": "uint256",
          "name": "",
          "type": "uint256"
        }
      ],
      "stateMutability": "view",
      "type": "function"
    },
    {
      "inputs": [],
      "name": "getLockTimePeriod",
      "outputs": [
        {
          "internalType": "uint32",
          "name": "",
          "type": "uint32"
        }
      ],
      "stateMutability": "view",
      "type": "function"
    },
    {
      "inputs": [],
      "name": "getLockTimePeriodOptions",
      "outputs": [
        {
          "internalType": "uint32[]",
          "name": "",
          "type": "uint32[]"
        }
      ],
      "stateMutability": "view",
      "type": "function"
    },
    {
      "inputs": [],
      "name": "getLockTimePeriodRewardFactors",
      "outputs": [
        {
          "internalType": "uint32[]",
          "name": "",
          "type": "uint32[]"
        }
      ],
      "stateMutability": "view",
      "type": "function"
    },
    {
      "inputs": [],
      "name": "getRewardTokenBalance",
      "outputs": [
        {
          "internalType": "uint256",
          "name": "balance",
          "type": "uint256"
        }
      ],
      "stateMutability": "view",
      "type": "function"
    },
    {
      "inputs": [
        {
          "internalType": "bytes32",
          "name": "role",
          "type": "bytes32"
        }
      ],
      "name": "getRoleAdmin",
      "outputs": [
        {
          "internalType": "bytes32",
          "name": "",
          "type": "bytes32"
        }
      ],
      "stateMutability": "view",
      "type": "function"
    },
    {
      "inputs": [
        {
          "internalType": "address",
          "name": "_staker",
          "type": "address"
        }
      ],
      "name": "getUnlockTime",
      "outputs": [
        {
          "internalType": "uint48",
          "name": "unlockTime",
          "type": "uint48"
        }
      ],
      "stateMutability": "view",
      "type": "function"
    },
    {
      "inputs": [],
      "name": "getUnlockTime_msgSender",
      "outputs": [
        {
          "internalType": "uint48",
          "name": "unlockTime",
          "type": "uint48"
        }
      ],
      "stateMutability": "view",
      "type": "function"
    },
    {
      "inputs": [
        {
          "internalType": "bytes32",
          "name": "role",
          "type": "bytes32"
        },
        {
          "internalType": "address",
          "name": "account",
          "type": "address"
        }
      ],
      "name": "grantRole",
      "outputs": [],
      "stateMutability": "nonpayable",
      "type": "function"
    },
    {
      "inputs": [
        {
          "internalType": "bytes32",
          "name": "role",
          "type": "bytes32"
        },
        {
          "internalType": "address",
          "name": "account",
          "type": "address"
        }
      ],
      "name": "hasRole",
      "outputs": [
        {
          "internalType": "bool",
          "name": "",
          "type": "bool"
        }
      ],
      "stateMutability": "view",
      "type": "function"
    },
    {
      "inputs": [
        {
          "internalType": "uint256",
          "name": "",
          "type": "uint256"
        }
      ],
      "name": "lockTimePeriod",
      "outputs": [
        {
          "internalType": "uint32",
          "name": "",
          "type": "uint32"
        }
      ],
      "stateMutability": "view",
      "type": "function"
    },
    {
      "inputs": [
        {
          "internalType": "uint256",
          "name": "",
          "type": "uint256"
        }
      ],
      "name": "lockTimePeriodRewardFactor",
      "outputs": [
        {
          "internalType": "uint32",
          "name": "",
          "type": "uint32"
        }
      ],
      "stateMutability": "view",
      "type": "function"
    },
    {
      "inputs": [],
      "name": "lockedRewardsEnabled",
      "outputs": [
        {
          "internalType": "bool",
          "name": "",
          "type": "bool"
        }
      ],
      "stateMutability": "view",
      "type": "function"
    },
    {
      "inputs": [
        {
          "internalType": "address",
          "name": "_staker",
          "type": "address"
        }
      ],
      "name": "migrateRewards",
      "outputs": [
        {
          "internalType": "uint256",
          "name": "",
          "type": "uint256"
        }
      ],
      "stateMutability": "nonpayable",
      "type": "function"
    },
    {
      "inputs": [],
      "name": "migrateRewards_msgSender",
      "outputs": [
        {
          "internalType": "uint256",
          "name": "",
          "type": "uint256"
        }
      ],
      "stateMutability": "nonpayable",
      "type": "function"
    },
    {
      "inputs": [],
      "name": "prevPolsStaking",
      "outputs": [
        {
          "internalType": "address",
          "name": "",
          "type": "address"
        }
      ],
      "stateMutability": "view",
      "type": "function"
    },
    {
      "inputs": [
        {
          "internalType": "address",
          "name": "_staker",
          "type": "address"
        }
      ],
      "name": "remainingLockPeriod",
      "outputs": [
        {
          "internalType": "uint48",
          "name": "",
          "type": "uint48"
        }
      ],
      "stateMutability": "view",
      "type": "function"
    },
    {
      "inputs": [],
      "name": "remainingLockPeriod_msgSender",
      "outputs": [
        {
          "internalType": "uint48",
          "name": "",
          "type": "uint48"
        }
      ],
      "stateMutability": "view",
      "type": "function"
    },
    {
      "inputs": [
        {
          "internalType": "address",
          "name": "_tokenAddress",
          "type": "address"
        }
      ],
      "name": "removeOtherERC20Tokens",
      "outputs": [],
      "stateMutability": "nonpayable",
      "type": "function"
    },
    {
      "inputs": [
        {
          "internalType": "bytes32",
          "name": "role",
          "type": "bytes32"
        },
        {
          "internalType": "address",
          "name": "account",
          "type": "address"
        }
      ],
      "name": "renounceRole",
      "outputs": [],
      "stateMutability": "nonpayable",
      "type": "function"
    },
    {
      "inputs": [
        {
          "internalType": "bytes32",
          "name": "role",
          "type": "bytes32"
        },
        {
          "internalType": "address",
          "name": "account",
          "type": "address"
        }
      ],
      "name": "revokeRole",
      "outputs": [],
      "stateMutability": "nonpayable",
      "type": "function"
    },
    {
      "inputs": [],
      "name": "rewardToken",
      "outputs": [
        {
          "internalType": "address",
          "name": "",
          "type": "address"
        }
      ],
      "stateMutability": "view",
      "type": "function"
    },
    {
      "inputs": [
        {
          "internalType": "uint32",
          "name": "_defaultLockTime",
          "type": "uint32"
        }
      ],
      "name": "setLockTimePeriodDefault",
      "outputs": [],
      "stateMutability": "nonpayable",
      "type": "function"
    },
    {
      "inputs": [
        {
          "internalType": "uint32[]",
          "name": "_lockTimePeriod",
          "type": "uint32[]"
        },
        {
          "internalType": "uint32[]",
          "name": "_lockTimePeriodRewardFactor",
          "type": "uint32[]"
        }
      ],
      "name": "setLockTimePeriodOptions",
      "outputs": [],
      "stateMutability": "nonpayable",
      "type": "function"
    },
    {
      "inputs": [
        {
          "internalType": "bool",
          "name": "_lockedRewardsEnabled",
          "type": "bool"
        }
      ],
      "name": "setLockedRewardsEnabled",
      "outputs": [],
      "stateMutability": "nonpayable",
      "type": "function"
    },
    {
      "inputs": [
        {
          "internalType": "address",
          "name": "_prevPolsStaking",
          "type": "address"
        }
      ],
      "name": "setPrevPolsStaking",
      "outputs": [],
      "stateMutability": "nonpayable",
      "type": "function"
    },
    {
      "inputs": [
        {
          "internalType": "address",
          "name": "newRewardToken",
          "type": "address"
        }
      ],
      "name": "setRewardToken",
      "outputs": [],
      "stateMutability": "nonpayable",
      "type": "function"
    },
    {
      "inputs": [
        {
          "internalType": "uint48",
          "name": "_stakeRewardEndTime",
          "type": "uint48"
        }
      ],
      "name": "setStakeRewardEndTime",
      "outputs": [],
      "stateMutability": "nonpayable",
      "type": "function"
    },
    {
      "inputs": [
        {
          "internalType": "uint256",
          "name": "_stakeRewardFactor",
          "type": "uint256"
        }
      ],
      "name": "setStakeRewardFactor",
      "outputs": [],
      "stateMutability": "nonpayable",
      "type": "function"
    },
    {
      "inputs": [
        {
          "internalType": "uint256",
          "name": "_unlockedRewardsFactor",
          "type": "uint256"
        }
      ],
      "name": "setUnlockedRewardsFactor",
      "outputs": [],
      "stateMutability": "nonpayable",
      "type": "function"
    },
    {
      "inputs": [
        {
          "internalType": "uint256",
          "name": "_amount",
          "type": "uint256"
        }
      ],
      "name": "stake",
      "outputs": [
        {
          "internalType": "uint256",
          "name": "",
          "type": "uint256"
        }
      ],
      "stateMutability": "nonpayable",
      "type": "function"
    },
    {
      "inputs": [
        {
          "internalType": "address",
          "name": "_staker",
          "type": "address"
        }
      ],
      "name": "stakeAmount",
      "outputs": [
        {
          "internalType": "uint256",
          "name": "balance",
          "type": "uint256"
        }
      ],
      "stateMutability": "view",
      "type": "function"
    },
    {
      "inputs": [],
      "name": "stakeAmount_msgSender",
      "outputs": [
        {
          "internalType": "uint256",
          "name": "",
          "type": "uint256"
        }
      ],
      "stateMutability": "view",
      "type": "function"
    },
    {
      "inputs": [],
      "name": "stakeRewardEndTime",
      "outputs": [
        {
          "internalType": "uint48",
          "name": "",
          "type": "uint48"
        }
      ],
      "stateMutability": "view",
      "type": "function"
    },
    {
      "inputs": [],
      "name": "stakeRewardFactor",
      "outputs": [
        {
          "internalType": "uint256",
          "name": "",
          "type": "uint256"
        }
      ],
      "stateMutability": "view",
      "type": "function"
    },
    {
      "inputs": [
        {
          "internalType": "address",
          "name": "_staker",
          "type": "address"
        }
      ],
      "name": "stakeTime",
      "outputs": [
        {
          "internalType": "uint48",
          "name": "dateTime",
          "type": "uint48"
        }
      ],
      "stateMutability": "view",
      "type": "function"
    },
    {
      "inputs": [],
      "name": "stakeTime_msgSender",
      "outputs": [
        {
          "internalType": "uint48",
          "name": "",
          "type": "uint48"
        }
      ],
      "stateMutability": "view",
      "type": "function"
    },
    {
      "inputs": [
        {
          "internalType": "uint256",
          "name": "_amount",
          "type": "uint256"
        },
        {
          "internalType": "uint8",
          "name": "_lockTimeIndex",
          "type": "uint8"
        }
      ],
      "name": "stakelockTimeChoice",
      "outputs": [
        {
          "internalType": "uint256",
          "name": "",
          "type": "uint256"
        }
      ],
      "stateMutability": "nonpayable",
      "type": "function"
    },
    {
      "inputs": [],
      "name": "stakingToken",
      "outputs": [
        {
          "internalType": "address",
          "name": "",
          "type": "address"
        }
      ],
      "stateMutability": "view",
      "type": "function"
    },
    {
      "inputs": [
        {
          "internalType": "bytes4",
          "name": "interfaceId",
          "type": "bytes4"
        }
      ],
      "name": "supportsInterface",
      "outputs": [
        {
          "internalType": "bool",
          "name": "",
          "type": "bool"
        }
      ],
      "stateMutability": "view",
      "type": "function"
    },
    {
      "inputs": [],
      "name": "tokenTotalStaked",
      "outputs": [
        {
          "internalType": "uint256",
          "name": "",
          "type": "uint256"
        }
      ],
      "stateMutability": "view",
      "type": "function"
    },
    {
      "inputs": [
        {
          "internalType": "uint256",
          "name": "_amount",
          "type": "uint256"
        }
      ],
      "name": "topUp",
      "outputs": [
        {
          "internalType": "uint48",
          "name": "",
          "type": "uint48"
        }
      ],
      "stateMutability": "nonpayable",
      "type": "function"
    },
    {
      "inputs": [],
      "name": "unlockedRewardsFactor",
      "outputs": [
        {
          "internalType": "uint256",
          "name": "",
          "type": "uint256"
        }
      ],
      "stateMutability": "view",
      "type": "function"
    },
    {
      "inputs": [
        {
          "internalType": "address",
          "name": "_staker",
          "type": "address"
        }
      ],
      "name": "userAccumulatedRewards",
      "outputs": [
        {
          "internalType": "uint256",
          "name": "rewards",
          "type": "uint256"
        }
      ],
      "stateMutability": "view",
      "type": "function"
    },
    {
      "inputs": [],
      "name": "userAccumulatedRewards_msgSender",
      "outputs": [
        {
          "internalType": "uint256",
          "name": "",
          "type": "uint256"
        }
      ],
      "stateMutability": "view",
      "type": "function"
    },
    {
      "inputs": [
        {
          "internalType": "address",
          "name": "_staker",
          "type": "address"
        }
      ],
      "name": "userClaimableRewards",
      "outputs": [
        {
          "internalType": "uint256",
          "name": "",
          "type": "uint256"
        }
      ],
      "stateMutability": "view",
      "type": "function"
    },
    {
      "inputs": [
        {
          "internalType": "address",
          "name": "_staker",
          "type": "address"
        },
        {
          "internalType": "bool",
          "name": "lockedRewardsCurrent",
          "type": "bool"
        }
      ],
      "name": "userClaimableRewardsCurrent",
      "outputs": [
        {
          "internalType": "uint256",
          "name": "",
          "type": "uint256"
        }
      ],
      "stateMutability": "view",
      "type": "function"
    },
    {
      "inputs": [],
      "name": "userClaimableRewards_msgSender",
      "outputs": [
        {
          "internalType": "uint256",
          "name": "",
          "type": "uint256"
        }
      ],
      "stateMutability": "view",
      "type": "function"
    },
    {
      "inputs": [
        {
          "internalType": "address",
          "name": "",
          "type": "address"
        }
      ],
      "name": "userMap",
      "outputs": [
        {
          "internalType": "uint48",
          "name": "stakeTime",
          "type": "uint48"
        },
        {
          "internalType": "uint48",
          "name": "unlockTime",
          "type": "uint48"
        },
        {
          "internalType": "uint32",
          "name": "stakePeriodRewardFactor",
          "type": "uint32"
        },
        {
          "internalType": "uint128",
          "name": "stakeAmount",
          "type": "uint128"
        },
        {
          "internalType": "uint256",
          "name": "accumulatedRewards",
          "type": "uint256"
        }
      ],
      "stateMutability": "view",
      "type": "function"
    },
    {
      "inputs": [
        {
          "internalType": "address",
          "name": "_staker",
          "type": "address"
        }
      ],
      "name": "userTotalRewards",
      "outputs": [
        {
          "internalType": "uint256",
          "name": "",
          "type": "uint256"
        }
      ],
      "stateMutability": "view",
      "type": "function"
    },
    {
      "inputs": [],
      "name": "userTotalRewards_msgSender",
      "outputs": [
        {
          "internalType": "uint256",
          "name": "",
          "type": "uint256"
        }
      ],
      "stateMutability": "view",
      "type": "function"
    },
    {
      "inputs": [
        {
          "internalType": "uint256",
          "name": "amount",
          "type": "uint256"
        }
      ],
      "name": "withdraw",
      "outputs": [
        {
          "internalType": "uint256",
          "name": "",
          "type": "uint256"
        }
      ],
      "stateMutability": "nonpayable",
      "type": "function"
    },
    {
      "inputs": [],
      "name": "withdrawAll",
      "outputs": [
        {
          "internalType": "uint256",
          "name": "",
          "type": "uint256"
        }
      ],
      "stateMutability": "nonpayable",
      "type": "function"
    }
  ],
  "bytecode": "0x6101a0604052600060a090815262093a8060c0526212750060e05262278d0061010052624f1a00610120526276a7006101405262ed4e00610160526301e13380610180526200005390600690600862000275565b50604080516101008101825260008152620f424060208201819052918101829052606081018290526080810182905260a0810182905260c0810182905260e0810191909152620000a890600790600862000275565b50348015620000b657600080fd5b5060405162003b0d38038062003b0d833981016040819052620000d99162000342565b600180556001600160a01b038116620001385760405162461bcd60e51b815260206004820152601960248201527f7374616b696e67546f6b656e2e61646472657373203d3d203000000000000000604482015260640160405180910390fd5b6001600160a01b038116608052600a805460ff191690556200015f620f424060016200038a565b63ffffffff16600b556305265c0060095562000180426301e28500620003b5565b6008805465ffffffffffff191665ffffffffffff92909216919091179055620001ab600033620001b2565b50620003cb565b620001be8282620001c2565b5050565b620001ce82826200024a565b620001be576000828152602081815260408083206001600160a01b03851684529091529020805460ff19166001179055620002063390565b6001600160a01b0316816001600160a01b0316837f2f8788117e7eff1d82e926ec794901d17c78024a50270940304540a733656f0d60405160405180910390a45050565b6000828152602081815260408083206001600160a01b038516845290915290205460ff165b92915050565b82805482825590600052602060002090600701600890048101928215620003195791602002820160005b83821115620002e557835183826101000a81548163ffffffff021916908363ffffffff16021790555092602001926004016020816003010492830192600103026200029f565b8015620003175782816101000a81549063ffffffff0219169055600401602081600301049283019260010302620002e5565b505b50620003279291506200032b565b5090565b5b808211156200032757600081556001016200032c565b6000602082840312156200035557600080fd5b81516001600160a01b03811681146200036d57600080fd5b9392505050565b634e487b7160e01b600052601160045260246000fd5b63ffffffff818116838216028082169190828114620003ad57620003ad62000374565b505092915050565b808201808211156200026f576200026f62000374565b60805161370a620004036000396000818161072a015281816112df01528181611bad015281816122f6015261259c015261370a6000f3fe608060405234801561001057600080fd5b50600436106103c45760003560e01c80637ec39cb3116101ff578063aaa748d31161011a578063e438a202116100ad578063f6a3f3cf1161007c578063f6a3f3cf14610973578063f7c618c114610986578063fb241eff14610999578063fd407bed146109ac57600080fd5b8063e438a20214610927578063ee2d505e1461093a578063ee6f0ace1461094d578063f3b95cd71461096057600080fd5b8063d547741f116100e9578063d547741f146108c1578063dbed1e88146108d4578063de3717fc1461090c578063dfdf35c41461091457600080fd5b8063aaa748d314610887578063b7862caf146108a4578063bf135267146106ec578063c37ab457146108b957600080fd5b806391d1485411610192578063a217fddf11610161578063a217fddf14610851578063a38a57c414610859578063a694fc3a1461086b578063a83f732b1461087e57600080fd5b806391d14854146107f757806393ce53431461082e5780639a7cc1b8146108365780639df333071461083e57600080fd5b8063872b26da116101ce578063872b26da146107bf57806387f075d9146107c85780638aee8127146107d15780638efb31c7146107e457600080fd5b80637ec39cb3146107925780637fa926001461079a578063853828b6146107ad5780638586bc6d146107b557600080fd5b806343edbfe2116102ef5780636bb64e231161028257806372f702f31161025157806372f702f31461072557806378b68b88146107645780637a941b38146107775780637df3b0fe1461077f57600080fd5b80636bb64e23146106975780636be1f472146106bc5780636bf989a4146106d957806370a08231146106ec57600080fd5b80634e71d92d116102be5780634e71d92d1461066157806350017f3e146106695780635951eff11461067c5780635bd4b5df1461068f57600080fd5b806343edbfe21461061b5780634654a6741461062e578063469e2fd914610641578063498652f41461064e57600080fd5b80632527366c116103675780632e1a7d4d116103365780632e1a7d4d146105be5780632f2ff15d146105d157806336568abe146105e45780633cb2efc9146105f757600080fd5b80632527366c146104d457806326949984146104e9578063282c51f3146104f65780632bcc23f81461051d57600080fd5b806307dc1e1a116103a357806307dc1e1a1461042557806309ef67e61461043d5780632170e47214610469578063248a9ca3146104b157600080fd5b806201c07c146103c957806301ffc9a7146103ef5780630584bd0914610412575b600080fd5b6103dc6103d7366004612fd8565b6109bf565b6040519081526020015b60405180910390f35b6104026103fd366004613004565b610a3a565b60405190151581526020016103e6565b6103dc610420366004613045565b610a71565b336000908152600260205260409020600101546103dc565b6103dc61044b366004613045565b6001600160a01b031660009081526002602052604090206001015490565b61049a610477366004613045565b6001600160a01b031660009081526002602052604090205465ffffffffffff1690565b60405165ffffffffffff90911681526020016103e6565b6103dc6104bf366004613060565b60009081526020819052604090206001015490565b6104e76104e2366004613045565b610a7e565b005b61049a65ffffffffffff81565b6103dc7f3c11d16cbaffd01df69ce1c404f6340ee057498f5f00246190ea54220576a84881565b61057961052b366004613045565b6002602052600090815260409020805460019091015465ffffffffffff80831692600160301b810490911691600160601b820463ffffffff1691600160801b90046001600160801b03169085565b6040805165ffffffffffff968716815295909416602086015263ffffffff909216928401929092526001600160801b039091166060830152608082015260a0016103e6565b6103dc6105cc366004613060565b610ae1565b6104e76105df366004613079565b610b4d565b6104e76105f2366004613079565b610b77565b33600090815260026020526040902054600160301b900465ffffffffffff1661049a565b6104e76106293660046130aa565b610c08565b61049a61063c3660046130c7565b610c5c565b600a546104029060ff1681565b6103dc61065c366004613045565b610e97565b6103dc6111b7565b61049a610677366004613060565b611221565b6104e761068a366004613045565b6112d2565b6103dc611424565b33600090815260026020526040902054600160801b90046001600160801b03166103dc565b6106c4611431565b60405163ffffffff90911681526020016103e6565b6103dc6106e73660046130e2565b611472565b6103dc6106fa366004613045565b6001600160a01b0316600090815260026020526040902054600160801b90046001600160801b031690565b61074c7f000000000000000000000000000000000000000000000000000000000000000081565b6040516001600160a01b0390911681526020016103e6565b6104e7610772366004613165565b6114e5565b6103dc61167c565b6104e761078d3660046131d1565b611687565b61049a6116de565b6103dc6107a83660046131f7565b6116e9565b6103dc61194a565b6106c4620f424081565b6103dc60035481565b6103dc60095481565b6104e76107df366004613045565b6119d2565b6104e76107f2366004613060565b611ad4565b610402610805366004613079565b6000918252602082815260408084206001600160a01b0393909316845291905290205460ff1690565b6103dc611b14565b6103dc611be4565b6106c461084c366004613060565b611bef565b6103dc600081565b60085461049a9065ffffffffffff1681565b6103dc610879366004613060565b611c29565b6103dc600b5481565b3360009081526002602052604090205465ffffffffffff1661049a565b6108ac611ca2565b6040516103e6919061326a565b6108ac611d26565b6104e76108cf366004613079565b611d83565b61049a6108e2366004613045565b6001600160a01b0316600090815260026020526040902054600160301b900465ffffffffffff1690565b6103dc611da8565b6104e76109223660046132b4565b611db3565b6104e7610935366004613060565b611e65565b6103dc610948366004613045565b611ea5565b61049a61095b366004613045565b611ee8565b6104e761096e3660046132dc565b611f3a565b6103dc610981366004613045565b611fed565b60045461074c906001600160a01b031681565b6106c46109a7366004613060565b61201d565b60055461074c906001600160a01b031681565b6000600260015403610a185760405162461bcd60e51b815260206004820152601f60248201527f5265656e7472616e637947756172643a207265656e7472616e742063616c6c0060448201526064015b60405180910390fd5b6002600155610a27838361202d565b6001805565ffffffffffff169392505050565b60006001600160e01b03198216637965db0b60e01b1480610a6b57506301ffc9a760e01b6001600160e01b03198316145b92915050565b6000610a6b826000611472565b6000610a89816123be565b6005805473ffffffffffffffffffffffffffffffffffffffff19166001600160a01b0384169081179091556040517f1230e6fc3b093ea820f8476a6a5f82ef1cec4200bd6874799c5c617d7ee0a0c590600090a25050565b6000600260015403610b355760405162461bcd60e51b815260206004820152601f60248201527f5265656e7472616e637947756172643a207265656e7472616e742063616c6c006044820152606401610a0f565b6002600155610b43826123cb565b6001805592915050565b600082815260208190526040902060010154610b68816123be565b610b728383612615565b505050565b6001600160a01b0381163314610bf55760405162461bcd60e51b815260206004820152602f60248201527f416363657373436f6e74726f6c3a2063616e206f6e6c792072656e6f756e636560448201527f20726f6c657320666f722073656c6600000000000000000000000000000000006064820152608401610a0f565b610bff82826126b3565b5050565b905090565b6000610c13816123be565b600a805460ff19168315159081179091556040519081527f5ea7772ee2a4a592a1cf6dc4f2bdf23971fb691c362eca0e3000782202d9d22a906020015b60405180910390a15050565b600a5460009060ff16610cb15760405162461bcd60e51b815260206004820152601960248201527f6c6f636b656452657761726473206e6f7420656e61626c6564000000000000006044820152606401610a0f565b3360009081526002602052604090208054600160301b900465ffffffffffff164210610d1f5760405162461bcd60e51b815260206004820152601460248201527f6e6f7420696e2061206c6f636b20706572696f640000000000000000000000006044820152606401610a0f565b600060068460ff1681548110610d3757610d37613306565b60009182526020822060088204015460079091166004026101000a900463ffffffff169150610d6e610d698342613332565b612732565b835490915065ffffffffffff600160301b909104811690821611610dd45760405162461bcd60e51b815260206004820181905260248201527f6e657720756e6c6f636b54696d65206e6f742061667465722063757272656e746044820152606401610a0f565b82546bffffffffffff0000000000001916600160301b65ffffffffffff8316021780845533907f0576ee90d5fe280669eacfe0f1d70841b3c4be90d6470a31958cd6b381ac257290600090600160801b90046001600160801b0316610e3842612732565b8754604080519485526001600160801b0393909316602085015265ffffffffffff918216848401528782166060850152600160301b9004166080830152519081900360a00190a2505054600160301b900465ffffffffffff1692915050565b6005546040516370a0823160e01b81526001600160a01b03838116600483015260009283929116906370a0823190602401602060405180830381865afa158015610ee5573d6000803e3d6000fd5b505050506040513d601f19601f82011682018060405250810190610f099190613345565b90508015610f595760405162461bcd60e51b815260206004820152601360248201527f7374696c6c20746f6b656e73207374616b6564000000000000000000000000006044820152606401610a0f565b6005546040516304f7b3f360e11b81526001600160a01b03858116600483015260009216906309ef67e690602401602060405180830381865afa158015610fa4573d6000803e3d6000fd5b505050506040513d601f19601f82011682018060405250810190610fc89190613345565b90506000811161101a5760405162461bcd60e51b815260206004820152601660248201527f6e6f20616363756d756c617465642072657761726473000000000000000000006044820152606401610a0f565b60055460405163f3b95cd760e01b81526001600160a01b038681166004830152602482018490529091169063f3b95cd790604401600060405180830381600087803b15801561106857600080fd5b505af115801561107c573d6000803e3d6000fd5b50506005546040516304f7b3f360e11b81526001600160a01b0388811660048301526000945090911691506309ef67e690602401602060405180830381865afa1580156110cd573d6000803e3d6000fd5b505050506040513d601f19601f820116820180604052508101906110f19190613345565b905080156111415760405162461bcd60e51b815260206004820152601360248201527f6275726e2072657761726473206661696c6564000000000000000000000000006044820152606401610a0f565b6001600160a01b0385166000908152600260205260408120600101805484929061116c908490613332565b90915550506040518281526001600160a01b038616907fac140162a56e01aec90ea4ff6eea27f60ca53066fd39d57664700f1a8589de9a9060200160405180910390a2509392505050565b600060026001540361120b5760405162461bcd60e51b815260206004820152601f60248201527f5265656e7472616e637947756172643a207265656e7472616e742063616c6c006044820152606401610a0f565b600260015561121861278e565b90506001805590565b60006002600154036112755760405162461bcd60e51b815260206004820152601f60248201527f5265656e7472616e637947756172643a207265656e7472616e742063616c6c006044820152606401610a0f565b6002600155816112c75760405162461bcd60e51b815260206004820152601f60248201527f746f702d7570207374616b6520616d6f756e74206d757374206265203e2030006044820152606401610a0f565b610b4382600061202d565b60006112dd816123be565b7f00000000000000000000000000000000000000000000000000000000000000006001600160a01b0316826001600160a01b03160361135e5760405162461bcd60e51b815260206004820152601e60248201527f63616e206e6f74207769746864726177207374616b696e6720746f6b656e00006044820152606401610a0f565b6040516370a0823160e01b81523060048201526000906001600160a01b038416906370a0823190602401602060405180830381865afa1580156113a5573d6000803e3d6000fd5b505050506040513d601f19601f820116820180604052508101906113c99190613345565b90506113df6001600160a01b0384163383612937565b60405181815233906001600160a01b038516907f4c9443772ec3472e2ea8a88e5c31e6bb75e94541dc672d5ca2a1197ada10b5989060200160405180910390a3505050565b6000610c03336000611472565b6000600660018154811061144757611447613306565b90600052602060002090600891828204019190066004029054906101000a900463ffffffff16905090565b6001600160a01b03821660009081526002602052604081208054600854600a546114dd926001600160801b03600160801b8204169265ffffffffffff80831693600160301b840482169342939092169160ff909116908a9063ffffffff600160601b909104166116e9565b949350505050565b60006114f0816123be565b60008290036115ce5761150560076000612ee0565b600780546001808201835560008390527fa66cc928b5edb82af9bd49922954155ab7b0942694bea4ce44661d9a8736c68860088304018054929093166004026101000a63ffffffff02199091169091555b848110156115c8576007805460018101825560008290527fa66cc928b5edb82af9bd49922954155ab7b0942694bea4ce44661d9a8736c6886008820401805463ffffffff929093166004026101000a91820219909216620f4240909102179055806115c08161335e565b915050611556565b506115dc565b6115da60078484612f05565b505b600754841461162d5760405162461bcd60e51b815260206004820152601d60248201527f617272617973206861766520646966666572656e74206c656e677468730000006044820152606401610a0f565b61163960068686612f05565b507f7b07daa375e1e0a16182e82885d4813b24d9af8d09ebcc1c372f4973457d990d6006600760405161166d9291906134ff565b60405180910390a15050505050565b6000610c0333610e97565b6000611692816123be565b8160066001815481106116a7576116a7613306565b90600052602060002090600891828204019190066004026101000a81548163ffffffff021916908363ffffffff1602179055505050565b6000610c0333611ee8565b6000886000036116fb5750600061193e565b858811156117715760405162461bcd60e51b815260206004820152603360248201527f494e5445524e414c204552524f52203a2063757272656e7420626c6f636b746960448201527f6d65206265666f7265207374616b6574696d65000000000000000000000000006064820152608401610a0f565b868811156117e75760405162461bcd60e51b815260206004820152602c60248201527f494e5445524e414c204552524f52203a20756e6c6f636b54696d65206265666f60448201527f7265207374616b6574696d6500000000000000000000000000000000000000006064820152608401610a0f565b8785116117f65750600061193e565b600080600086156118f85789891161185c576118128a896129af565b9250851561182757611824838a6129af565b92505b620f4240858d6118378e8761352d565b6118419190613540565b61184b9190613540565b6118559190613557565b9050611939565b89881161187357620f4240858d6118378e8c61352d565b620f4240858d6118838e8e61352d565b61188d9190613540565b6118979190613540565b6118a19190613557565b9050898911156118f357896118b68a8a6129af565b6118c0919061352d565b600b54909250620f4240906118d58e85613540565b6118df9190613540565b6118e99190613557565b6118559082613332565b611939565b8a6119038a8a6129af565b61190d919061352d565b600b54909250620f4240906119228e85613540565b61192c9190613540565b6119369190613557565b90505b925050505b98975050505050505050565b600060026001540361199e5760405162461bcd60e51b815260206004820152601f60248201527f5265656e7472616e637947756172643a207265656e7472616e742063616c6c006044820152606401610a0f565b60026001556112186119cd336000908152600260205260409020546001600160801b03600160801b9091041690565b6123cb565b600260015403611a245760405162461bcd60e51b815260206004820152601f60248201527f5265656e7472616e637947756172643a207265656e7472616e742063616c6c006044820152606401610a0f565b60026001556000611a34816123be565b6004546001600160a01b03166000611a4a611b14565b90508015611a6657611a666001600160a01b0383163383612937565b6004805473ffffffffffffffffffffffffffffffffffffffff19166001600160a01b0386811691821790925560405183815290918416907fc133375757269458a329c73a344c8ef483535870f46ed4cd332f857a5ef525d09060200160405180910390a35050600180555050565b6000611adf816123be565b60098290556040518281527f929e0b2903ee7e8bb87bf220a340db1f5551e7042e5f2567ed08117c0709fa2190602001610c50565b6004546000906001600160a01b0316611b2d5750600090565b600480546040516370a0823160e01b815230928101929092526001600160a01b0316906370a0823190602401602060405180830381865afa158015611b76573d6000803e3d6000fd5b505050506040513d601f19601f82011682018060405250810190611b9a9190613345565b6004549091506001600160a01b039081167f000000000000000000000000000000000000000000000000000000000000000090911603611be157600354610c03908261352d565b90565b6000610c0333611ea5565b60068181548110611bff57600080fd5b9060005260206000209060089182820401919006600402915054906101000a900463ffffffff1681565b6000600260015403611c7d5760405162461bcd60e51b815260206004820152601f60248201527f5265656e7472616e637947756172643a207265656e7472616e742063616c6c006044820152606401610a0f565b6002600181905550611c9082600161202d565b6001805565ffffffffffff1692915050565b60606006805480602002602001604051908101604052809291908181526020018280548015611d1c57602002820191906000526020600020906000905b82829054906101000a900463ffffffff1663ffffffff1681526020019060040190602082600301049283019260010382029150808411611cdf5790505b5050505050905090565b60606007805480602002602001604051908101604052809291908181526020018280548015611d1c576000918252602091829020805463ffffffff168452908202830192909160049101808411611cdf5790505050505050905090565b600082815260208190526040902060010154611d9e816123be565b610b7283836126b3565b6000610c0333611fed565b6000611dbe816123be565b6008544265ffffffffffff90911611611e195760405162461bcd60e51b815260206004820152601c60248201527f74696d652068617320746f20626520696e2074686520667574757265000000006044820152606401610a0f565b6008805465ffffffffffff191665ffffffffffff84169081179091556040519081527fb8ec1a7db76539d0a932b67153298ec5ba41b1f965bd5f66e9419431d517291a90602001610c50565b6000611e70816123be565b600b8290556040518281527fdc7863b3e64ba9c89e2523ca3756ae83d9fce0a7a2690ead101a549842bb6f6690602001610c50565b6004546000906001600160a01b03161580611ec05750600954155b15611ecd57506000919050565b600954611ed983611fed565b610a6b9190613557565b919050565b6001600160a01b038116600090815260026020526040812054600160301b900465ffffffffffff16428111611f205750600092915050565b611f2942612732565b611f339082613579565b9392505050565b7f3c11d16cbaffd01df69ce1c404f6340ee057498f5f00246190ea54220576a848611f64816123be565b6000611f6f846129c5565b90508060010154831015611f9c5782816001016000828254611f91919061352d565b90915550611fa49050565b600060018201555b836001600160a01b03167f33e88885e6abd26d1f3ea3b4b37c2f6e0ff31fa24c7721763eca867537bdf5d284604051611fdf91815260200190565b60405180910390a250505050565b6001600160a01b0381166000908152600260205260408120600101546120138383611472565b610a6b9190613332565b60078181548110611bff57600080fd5b60008215801561203e575060ff8216155b1561208b5760405162461bcd60e51b815260206004820152601c60248201527f616d6f756e743d3020616e64206c6f636b54696d65496e6465783d30000000006044820152606401610a0f565b336000818152600260205260409020906120a6906001611472565b8160010160008282546120b99190613332565b909155506120c8905042612732565b815465ffffffffffff191665ffffffffffff91909116178155600680546000919060ff86169081106120fc576120fc613306565b6000918252602090912060088204015460079091166004026101000a900463ffffffff16905060ff84161561222b576000612142610d6965ffffffffffff841642613332565b835490915065ffffffffffff600160301b909104811690821610156121a95760405162461bcd60e51b815260206004820181905260248201527f6e657720756e6c6f636b54696d65206e6f742061667465722063757272656e746044820152606401610a0f565b82546bffffffffffff0000000000001916600160301b65ffffffffffff8316021783556007805460ff87169081106121e3576121e3613306565b6000918252602090912060088204015484546fffffffff000000000000000000000000191660079092166004026101000a900463ffffffff16600160601b021783555061228a565b8154600160301b900465ffffffffffff16421061228a5760405162461bcd60e51b815260206004820152601460248201527f6e6f7420696e2061206c6f636b20706572696f640000000000000000000000006044820152606401610a0f565b841561231e5781546122b6906122b1908790600160801b90046001600160801b0316613332565b612a29565b82546001600160801b03918216600160801b029116178255600380548691906000906122e3908490613332565b9091555061231e90506001600160a01b037f000000000000000000000000000000000000000000000000000000000000000016333088612a82565b815433907f0576ee90d5fe280669eacfe0f1d70841b3c4be90d6470a31958cd6b381ac2572908790600160801b90046001600160801b031661235f42612732565b8654604080519485526001600160801b0393909316602085015265ffffffffffff918216848401528682166060850152600160301b9004166080830152519081900360a00190a25054600160301b900465ffffffffffff169392505050565b6123c88133612ac0565b50565b600080821161241c5760405162461bcd60e51b815260206004820152601260248201527f7374616b656420616d6f756e74206973203000000000000000000000000000006044820152606401610a0f565b33600090815260026020526040902054600160301b900465ffffffffffff1642116124895760405162461bcd60e51b815260206004820152601e60248201527f7374616b656420746f6b656e7320617265207374696c6c206c6f636b656400006044820152606401610a0f565b6000612494336129c5565b8054909150600160801b90046001600160801b03168311156124f85760405162461bcd60e51b815260206004820152601f60248201527f776974686472617720616d6f756e74203e207374616b656420616d6f756e74006044820152606401610a0f565b61250183612a29565b81548290601090612523908490600160801b90046001600160801b031661359f565b92506101000a8154816001600160801b0302191690836001600160801b031602179055508260036000828254612559919061352d565b90915550612568905042612732565b815465ffffffffffff91909116600160301b026bffffffffffff000000000000199091161781556125c36001600160a01b037f0000000000000000000000000000000000000000000000000000000000000000163385612937565b337ffd99f7d058b783b9cda415a554d303a99f3df90ccac1f4f3d854b2009e4e093c846125ef42612732565b6040805192835265ffffffffffff90911660208301520160405180910390a25090919050565b6000828152602081815260408083206001600160a01b038516845290915290205460ff16610bff576000828152602081815260408083206001600160a01b03851684529091529020805460ff1916600117905561266f3390565b6001600160a01b0316816001600160a01b0316837f2f8788117e7eff1d82e926ec794901d17c78024a50270940304540a733656f0d60405160405180910390a45050565b6000828152602081815260408083206001600160a01b038516845290915290205460ff1615610bff576000828152602081815260408083206001600160a01b0385168085529252808320805460ff1916905551339285917ff6391f5c32d9c69d2a47ea670b442974b53935d1edc7fd64eb21e047a839171b9190a45050565b600065ffffffffffff82111561278a5760405162461bcd60e51b815260206004820152601d60248201527f76616c756520646f6573206e6f742066697420696e20343820626974730000006044820152606401610a0f565b5090565b6004546000906001600160a01b03166127e95760405162461bcd60e51b815260206004820152601860248201527f6e6f2072657761726420746f6b656e20636f6e747261637400000000000000006044820152606401610a0f565b60006127f433611ea5565b9050600081116128465760405162461bcd60e51b815260206004820152601260248201527f6e6f20746f6b656e7320746f20636c61696d00000000000000000000000000006044820152606401610a0f565b336000908152600260205260408120600181019190915561286642612732565b815465ffffffffffff191665ffffffffffff91909116178155612887611b14565b8211156128d65760405162461bcd60e51b815260206004820152601860248201527f6e6f7420656e6f7567682072657761726420746f6b656e7300000000000000006044820152606401610a0f565b6004546128ed906001600160a01b03163384612937565b6004546040518381526001600160a01b039091169033907ff7a40077ff7a04c7e61f6f26fb13774259ddf1b6bce9ecf26a8276cdd39926839060200160405180910390a350919050565b6040516001600160a01b038316602482015260448101829052610b7290849063a9059cbb60e01b906064015b60408051601f198184030181529190526020810180517bffffffffffffffffffffffffffffffffffffffffffffffffffffffff166001600160e01b031990931692909217909152612b3e565b60008183106129be5781611f33565b5090919050565b6001600160a01b0381166000908152600260205260408120906129e9908390611472565b8160010160008282546129fc9190613332565b90915550612a0b905042612732565b815465ffffffffffff191665ffffffffffff91909116178155919050565b60006001600160801b0382111561278a5760405162461bcd60e51b815260206004820152601e60248201527f76616c756520646f6573206e6f742066697420696e20313238206269747300006044820152606401610a0f565b6040516001600160a01b0380851660248301528316604482015260648101829052612aba9085906323b872dd60e01b90608401612963565b50505050565b6000828152602081815260408083206001600160a01b038516845290915290205460ff16610bff57612afc816001600160a01b03166014612c23565b612b07836020612c23565b604051602001612b189291906135e3565b60408051601f198184030181529082905262461bcd60e51b8252610a0f91600401613664565b6000612b93826040518060400160405280602081526020017f5361666545524332303a206c6f772d6c6576656c2063616c6c206661696c6564815250856001600160a01b0316612dcc9092919063ffffffff16565b805190915015610b725780806020019051810190612bb19190613697565b610b725760405162461bcd60e51b815260206004820152602a60248201527f5361666545524332303a204552433230206f7065726174696f6e20646964206e60448201527f6f742073756363656564000000000000000000000000000000000000000000006064820152608401610a0f565b60606000612c32836002613540565b612c3d906002613332565b67ffffffffffffffff811115612c5557612c556136b4565b6040519080825280601f01601f191660200182016040528015612c7f576020820181803683370190505b509050600360fc1b81600081518110612c9a57612c9a613306565b60200101906001600160f81b031916908160001a905350600f60fb1b81600181518110612cc957612cc9613306565b60200101906001600160f81b031916908160001a9053506000612ced846002613540565b612cf8906001613332565b90505b6001811115612d7d577f303132333435363738396162636465660000000000000000000000000000000085600f1660108110612d3957612d39613306565b1a60f81b828281518110612d4f57612d4f613306565b60200101906001600160f81b031916908160001a90535060049490941c93612d76816136ca565b9050612cfb565b508315611f335760405162461bcd60e51b815260206004820181905260248201527f537472696e67733a20686578206c656e67746820696e73756666696369656e746044820152606401610a0f565b60606114dd8484600085856001600160a01b0385163b612e2e5760405162461bcd60e51b815260206004820152601d60248201527f416464726573733a2063616c6c20746f206e6f6e2d636f6e74726163740000006044820152606401610a0f565b600080866001600160a01b03168587604051612e4a91906136e1565b60006040518083038185875af1925050503d8060008114612e87576040519150601f19603f3d011682016040523d82523d6000602084013e612e8c565b606091505b5091509150612e9c828286612ea7565b979650505050505050565b60608315612eb6575081611f33565b825115612ec65782518084602001fd5b8160405162461bcd60e51b8152600401610a0f9190613664565b5080546000825560070160089004906000526020600020908101906123c89190612fb2565b82805482825590600052602060002090600701600890048101928215612faa5791602002820160005b83821115612f7857833563ffffffff1683826101000a81548163ffffffff021916908363ffffffff1602179055509260200192600401602081600301049283019260010302612f2e565b8015612fa85782816101000a81549063ffffffff0219169055600401602081600301049283019260010302612f78565b505b5061278a9291505b5b8082111561278a5760008155600101612fb3565b803560ff81168114611ee357600080fd5b60008060408385031215612feb57600080fd5b82359150612ffb60208401612fc7565b90509250929050565b60006020828403121561301657600080fd5b81356001600160e01b031981168114611f3357600080fd5b80356001600160a01b0381168114611ee357600080fd5b60006020828403121561305757600080fd5b611f338261302e565b60006020828403121561307257600080fd5b5035919050565b6000806040838503121561308c57600080fd5b82359150612ffb6020840161302e565b80151581146123c857600080fd5b6000602082840312156130bc57600080fd5b8135611f338161309c565b6000602082840312156130d957600080fd5b611f3382612fc7565b600080604083850312156130f557600080fd5b6130fe8361302e565b9150602083013561310e8161309c565b809150509250929050565b60008083601f84011261312b57600080fd5b50813567ffffffffffffffff81111561314357600080fd5b6020830191508360208260051b850101111561315e57600080fd5b9250929050565b6000806000806040858703121561317b57600080fd5b843567ffffffffffffffff8082111561319357600080fd5b61319f88838901613119565b909650945060208701359150808211156131b857600080fd5b506131c587828801613119565b95989497509550505050565b6000602082840312156131e357600080fd5b813563ffffffff81168114611f3357600080fd5b600080600080600080600080610100898b03121561321457600080fd5b883597506020890135965060408901359550606089013594506080890135935060a08901356132428161309c565b925060c08901356132528161309c565b8092505060e089013590509295985092959890939650565b6020808252825182820181905260009190848201906040850190845b818110156132a857835163ffffffff1683529284019291840191600101613286565b50909695505050505050565b6000602082840312156132c657600080fd5b813565ffffffffffff81168114611f3357600080fd5b600080604083850312156132ef57600080fd5b6132f88361302e565b946020939093013593505050565b634e487b7160e01b600052603260045260246000fd5b634e487b7160e01b600052601160045260246000fd5b80820180821115610a6b57610a6b61331c565b60006020828403121561335757600080fd5b5051919050565b6000600182016133705761337061331c565b5060010190565b805480835260008281526020808220940193909190825b8260078201101561340657815463ffffffff8082168852602082811c821690890152604082811c821690890152606082811c821690890152608082811c82169089015260a082811c82169089015260c082811c9091169088015260e090811c908701526101009095019460019091019060080161338e565b905490828110156134245763ffffffff821686526020909501946001015b8281101561344457602082901c63ffffffff168652602095909501946001015b828110156134635763ffffffff604083901c1686526020909501946001015b828110156134825763ffffffff606083901c1686526020909501946001015b828110156134a15763ffffffff608083901c1686526020909501946001015b828110156134c05763ffffffff60a083901c1686526020909501946001015b828110156134df5763ffffffff60c083901c1686526020909501946001015b828110156134f55760e082901c86526020860195505b5093949350505050565b6040815260006135126040830185613377565b82810360208401526135248185613377565b95945050505050565b81810381811115610a6b57610a6b61331c565b8082028115828204841417610a6b57610a6b61331c565b60008261357457634e487b7160e01b600052601260045260246000fd5b500490565b65ffffffffffff8281168282160390808211156135985761359861331c565b5092915050565b6001600160801b038281168282160390808211156135985761359861331c565b60005b838110156135da5781810151838201526020016135c2565b50506000910152565b7f416363657373436f6e74726f6c3a206163636f756e742000000000000000000081526000835161361b8160178501602088016135bf565b7f206973206d697373696e6720726f6c652000000000000000000000000000000060179184019182015283516136588160288401602088016135bf565b01602801949350505050565b60208152600082518060208401526136838160408501602087016135bf565b601f01601f19169190910160400192915050565b6000602082840312156136a957600080fd5b8151611f338161309c565b634e487b7160e01b600052604160045260246000fd5b6000816136d9576136d961331c565b506000190190565b600082516136f38184602087016135bf565b919091019291505056fea164736f6c6343000811000a",
  "linkReferences": {},
  "deployedLinkReferences": {}
}