{
  "_format": "hh-sol-artifact-1",
  "contractName": "PolsStake",
  "sourceName": "contracts/PolsStake.sol",
  "abi": [
    {
      "inputs": [
        {
          "internalType": "address",
          "name": "_stakingToken",
          "type": "address"
        },
        {
          "internalType": "uint48",
          "name": "_lockTimePeriod",
          "type": "uint48"
        }
      ],
      "stateMutability": "nonpayable",
      "type": "constructor"
    },
    {
      "anonymous": false,
      "inputs": [
        {
          "indexed": true,
          "internalType": "address",
          "name": "wallet",
          "type": "address"
        },
        {
          "indexed": true,
          "internalType": "address",
          "name": "rewardToken",
          "type": "address"
        },
        {
          "indexed": false,
          "internalType": "uint256",
          "name": "amount",
          "type": "uint256"
        }
      ],
      "name": "Claimed",
      "type": "event"
    },
    {
      "anonymous": false,
      "inputs": [
        {
          "indexed": false,
          "internalType": "uint48",
          "name": "lockTimePeriod",
          "type": "uint48"
        }
      ],
      "name": "LockTimePeriodChanged",
      "type": "event"
    },
    {
      "anonymous": false,
      "inputs": [
        {
          "indexed": false,
          "internalType": "uint256",
          "name": "data",
          "type": "uint256"
        }
      ],
      "name": "Log",
      "type": "event"
    },
    {
      "anonymous": false,
      "inputs": [
        {
          "indexed": true,
          "internalType": "address",
          "name": "oldRewardToken",
          "type": "address"
        },
        {
          "indexed": false,
          "internalType": "uint256",
          "name": "returnedAmount",
          "type": "uint256"
        },
        {
          "indexed": true,
          "internalType": "address",
          "name": "newRewardToken",
          "type": "address"
        }
      ],
      "name": "RewardTokenChanged",
      "type": "event"
    },
    {
      "anonymous": false,
      "inputs": [
        {
          "indexed": true,
          "internalType": "address",
          "name": "rewardToken",
          "type": "address"
        },
        {
          "indexed": false,
          "internalType": "uint256",
          "name": "amount",
          "type": "uint256"
        },
        {
          "indexed": false,
          "internalType": "uint256",
          "name": "totalStaked",
          "type": "uint256"
        },
        {
          "indexed": false,
          "internalType": "uint256",
          "name": "date",
          "type": "uint256"
        }
      ],
      "name": "Rewarded",
      "type": "event"
    },
    {
      "anonymous": false,
      "inputs": [
        {
          "indexed": true,
          "internalType": "address",
          "name": "staker",
          "type": "address"
        },
        {
          "indexed": false,
          "internalType": "uint256",
          "name": "amount",
          "type": "uint256"
        }
      ],
      "name": "RewardsBurned",
      "type": "event"
    },
    {
      "anonymous": false,
      "inputs": [
        {
          "indexed": true,
          "internalType": "bytes32",
          "name": "role",
          "type": "bytes32"
        },
        {
          "indexed": true,
          "internalType": "bytes32",
          "name": "previousAdminRole",
          "type": "bytes32"
        },
        {
          "indexed": true,
          "internalType": "bytes32",
          "name": "newAdminRole",
          "type": "bytes32"
        }
      ],
      "name": "RoleAdminChanged",
      "type": "event"
    },
    {
      "anonymous": false,
      "inputs": [
        {
          "indexed": true,
          "internalType": "bytes32",
          "name": "role",
          "type": "bytes32"
        },
        {
          "indexed": true,
          "internalType": "address",
          "name": "account",
          "type": "address"
        },
        {
          "indexed": true,
          "internalType": "address",
          "name": "sender",
          "type": "address"
        }
      ],
      "name": "RoleGranted",
      "type": "event"
    },
    {
      "anonymous": false,
      "inputs": [
        {
          "indexed": true,
          "internalType": "bytes32",
          "name": "role",
          "type": "bytes32"
        },
        {
          "indexed": true,
          "internalType": "address",
          "name": "account",
          "type": "address"
        },
        {
          "indexed": true,
          "internalType": "address",
          "name": "sender",
          "type": "address"
        }
      ],
      "name": "RoleRevoked",
      "type": "event"
    },
    {
      "anonymous": false,
      "inputs": [
        {
          "indexed": true,
          "internalType": "address",
          "name": "wallet",
          "type": "address"
        },
        {
          "indexed": false,
          "internalType": "uint256",
          "name": "amount",
          "type": "uint256"
        },
        {
          "indexed": false,
          "internalType": "uint256",
          "name": "date",
          "type": "uint256"
        }
      ],
      "name": "Stake",
      "type": "event"
    },
    {
      "anonymous": false,
      "inputs": [
        {
          "indexed": false,
          "internalType": "uint48",
          "name": "stakeRewardEndTime",
          "type": "uint48"
        }
      ],
      "name": "StakeRewardEndTimeChanged",
      "type": "event"
    },
    {
      "anonymous": false,
      "inputs": [
        {
          "indexed": false,
          "internalType": "uint256",
          "name": "stakeRewardFactor",
          "type": "uint256"
        }
      ],
      "name": "StakeRewardFactorChanged",
      "type": "event"
    },
    {
      "anonymous": false,
      "inputs": [
        {
          "indexed": true,
          "internalType": "address",
          "name": "wallet",
          "type": "address"
        },
        {
          "indexed": false,
          "internalType": "uint256",
          "name": "amount",
          "type": "uint256"
        },
        {
          "indexed": false,
          "internalType": "uint256",
          "name": "date",
          "type": "uint256"
        }
      ],
      "name": "Withdraw",
      "type": "event"
    },
    {
      "inputs": [],
      "name": "BURNER_ROLE",
      "outputs": [
        {
          "internalType": "bytes32",
          "name": "",
          "type": "bytes32"
        }
      ],
      "stateMutability": "view",
      "type": "function"
    },
    {
      "inputs": [],
      "name": "DEFAULT_ADMIN_ROLE",
      "outputs": [
        {
          "internalType": "bytes32",
          "name": "",
          "type": "bytes32"
        }
      ],
      "stateMutability": "view",
      "type": "function"
    },
    {
      "inputs": [],
      "name": "MAX_TIME",
      "outputs": [
        {
          "internalType": "uint48",
          "name": "",
          "type": "uint48"
        }
      ],
      "stateMutability": "view",
      "type": "function"
    },
    {
      "inputs": [
        {
          "internalType": "address",
          "name": "_staker",
          "type": "address"
        }
      ],
      "name": "balanceOf",
      "outputs": [
        {
          "internalType": "uint256",
          "name": "balance",
          "type": "uint256"
        }
      ],
      "stateMutability": "view",
      "type": "function"
    },
    {
      "inputs": [
        {
          "internalType": "address",
          "name": "_staker",
          "type": "address"
        },
        {
          "internalType": "uint256",
          "name": "_amount",
          "type": "uint256"
        }
      ],
      "name": "burnRewards",
      "outputs": [],
      "stateMutability": "nonpayable",
      "type": "function"
    },
    {
      "inputs": [],
      "name": "claim",
      "outputs": [
        {
          "internalType": "uint256",
          "name": "",
          "type": "uint256"
        }
      ],
      "stateMutability": "nonpayable",
      "type": "function"
    },
    {
      "inputs": [
        {
          "internalType": "address",
          "name": "_staker",
          "type": "address"
        }
      ],
      "name": "getEarnedRewardTokens",
      "outputs": [
        {
          "internalType": "uint256",
          "name": "claimableRewardTokens",
          "type": "uint256"
        }
      ],
      "stateMutability": "view",
      "type": "function"
    },
    {
      "inputs": [],
      "name": "getEarnedRewardTokens_msgSender",
      "outputs": [
        {
          "internalType": "uint256",
          "name": "",
          "type": "uint256"
        }
      ],
      "stateMutability": "view",
      "type": "function"
    },
    {
      "inputs": [],
      "name": "getRewardTokenBalance",
      "outputs": [
        {
          "internalType": "uint256",
          "name": "balance",
          "type": "uint256"
        }
      ],
      "stateMutability": "view",
      "type": "function"
    },
    {
      "inputs": [
        {
          "internalType": "bytes32",
          "name": "role",
          "type": "bytes32"
        }
      ],
      "name": "getRoleAdmin",
      "outputs": [
        {
          "internalType": "bytes32",
          "name": "",
          "type": "bytes32"
        }
      ],
      "stateMutability": "view",
      "type": "function"
    },
    {
      "inputs": [
        {
          "internalType": "address",
          "name": "_staker",
          "type": "address"
        }
      ],
      "name": "getUnlockTime",
      "outputs": [
        {
          "internalType": "uint48",
          "name": "unlockTime",
          "type": "uint48"
        }
      ],
      "stateMutability": "view",
      "type": "function"
    },
    {
      "inputs": [],
      "name": "getUnlockTime_msgSender",
      "outputs": [
        {
          "internalType": "uint48",
          "name": "unlockTime",
          "type": "uint48"
        }
      ],
      "stateMutability": "view",
      "type": "function"
    },
    {
      "inputs": [
        {
          "internalType": "bytes32",
          "name": "role",
          "type": "bytes32"
        },
        {
          "internalType": "address",
          "name": "account",
          "type": "address"
        }
      ],
      "name": "grantRole",
      "outputs": [],
      "stateMutability": "nonpayable",
      "type": "function"
    },
    {
      "inputs": [
        {
          "internalType": "bytes32",
          "name": "role",
          "type": "bytes32"
        },
        {
          "internalType": "address",
          "name": "account",
          "type": "address"
        }
      ],
      "name": "hasRole",
      "outputs": [
        {
          "internalType": "bool",
          "name": "",
          "type": "bool"
        }
      ],
      "stateMutability": "view",
      "type": "function"
    },
    {
      "inputs": [],
      "name": "lockTimePeriod",
      "outputs": [
        {
          "internalType": "uint48",
          "name": "",
          "type": "uint48"
        }
      ],
      "stateMutability": "view",
      "type": "function"
    },
    {
      "inputs": [
        {
          "internalType": "bytes32",
          "name": "role",
          "type": "bytes32"
        },
        {
          "internalType": "address",
          "name": "account",
          "type": "address"
        }
      ],
      "name": "renounceRole",
      "outputs": [],
      "stateMutability": "nonpayable",
      "type": "function"
    },
    {
      "inputs": [
        {
          "internalType": "bytes32",
          "name": "role",
          "type": "bytes32"
        },
        {
          "internalType": "address",
          "name": "account",
          "type": "address"
        }
      ],
      "name": "revokeRole",
      "outputs": [],
      "stateMutability": "nonpayable",
      "type": "function"
    },
    {
      "inputs": [],
      "name": "rewardToken",
      "outputs": [
        {
          "internalType": "address",
          "name": "",
          "type": "address"
        }
      ],
      "stateMutability": "view",
      "type": "function"
    },
    {
      "inputs": [
        {
          "internalType": "uint48",
          "name": "_lockTimePeriod",
          "type": "uint48"
        }
      ],
      "name": "setLockTimePeriod",
      "outputs": [],
      "stateMutability": "nonpayable",
      "type": "function"
    },
    {
      "inputs": [
        {
          "internalType": "address",
          "name": "newRewardToken",
          "type": "address"
        }
      ],
      "name": "setRewardToken",
      "outputs": [],
      "stateMutability": "nonpayable",
      "type": "function"
    },
    {
      "inputs": [
        {
          "internalType": "uint48",
          "name": "_stakeRewardEndTime",
          "type": "uint48"
        }
      ],
      "name": "setStakeRewardEndTime",
      "outputs": [],
      "stateMutability": "nonpayable",
      "type": "function"
    },
    {
      "inputs": [
        {
          "internalType": "uint256",
          "name": "_stakeRewardFactor",
          "type": "uint256"
        }
      ],
      "name": "setStakeRewardFactor",
      "outputs": [],
      "stateMutability": "nonpayable",
      "type": "function"
    },
    {
      "inputs": [
        {
          "internalType": "uint256",
          "name": "_amount",
          "type": "uint256"
        }
      ],
      "name": "stake",
      "outputs": [
        {
          "internalType": "uint256",
          "name": "",
          "type": "uint256"
        }
      ],
      "stateMutability": "nonpayable",
      "type": "function"
    },
    {
      "inputs": [
        {
          "internalType": "address",
          "name": "_staker",
          "type": "address"
        }
      ],
      "name": "stakeAmount",
      "outputs": [
        {
          "internalType": "uint256",
          "name": "balance",
          "type": "uint256"
        }
      ],
      "stateMutability": "view",
      "type": "function"
    },
    {
      "inputs": [],
      "name": "stakeAmount_msgSender",
      "outputs": [
        {
          "internalType": "uint256",
          "name": "",
          "type": "uint256"
        }
      ],
      "stateMutability": "view",
      "type": "function"
    },
    {
      "inputs": [],
      "name": "stakeRewardEndTime",
      "outputs": [
        {
          "internalType": "uint48",
          "name": "",
          "type": "uint48"
        }
      ],
      "stateMutability": "view",
      "type": "function"
    },
    {
      "inputs": [],
      "name": "stakeRewardFactor",
      "outputs": [
        {
          "internalType": "uint256",
          "name": "",
          "type": "uint256"
        }
      ],
      "stateMutability": "view",
      "type": "function"
    },
    {
      "inputs": [
        {
          "internalType": "address",
          "name": "_staker",
          "type": "address"
        }
      ],
      "name": "stakeTime",
      "outputs": [
        {
          "internalType": "uint48",
          "name": "dateTime",
          "type": "uint48"
        }
      ],
      "stateMutability": "view",
      "type": "function"
    },
    {
      "inputs": [],
      "name": "stakeTime_msgSender",
      "outputs": [
        {
          "internalType": "uint48",
          "name": "",
          "type": "uint48"
        }
      ],
      "stateMutability": "view",
      "type": "function"
    },
    {
      "inputs": [],
      "name": "stakingToken",
      "outputs": [
        {
          "internalType": "address",
          "name": "",
          "type": "address"
        }
      ],
      "stateMutability": "view",
      "type": "function"
    },
    {
      "inputs": [
        {
          "internalType": "bytes4",
          "name": "interfaceId",
          "type": "bytes4"
        }
      ],
      "name": "supportsInterface",
      "outputs": [
        {
          "internalType": "bool",
          "name": "",
          "type": "bool"
        }
      ],
      "stateMutability": "view",
      "type": "function"
    },
    {
      "inputs": [],
      "name": "tokenTotalStaked",
      "outputs": [
        {
          "internalType": "uint256",
          "name": "",
          "type": "uint256"
        }
      ],
      "stateMutability": "view",
      "type": "function"
    },
    {
      "inputs": [
        {
          "internalType": "address",
          "name": "_staker",
          "type": "address"
        }
      ],
      "name": "userAccumulatedRewards",
      "outputs": [
        {
          "internalType": "uint256",
          "name": "rewards",
          "type": "uint256"
        }
      ],
      "stateMutability": "view",
      "type": "function"
    },
    {
      "inputs": [],
      "name": "userAccumulatedRewards_msgSender",
      "outputs": [
        {
          "internalType": "uint256",
          "name": "",
          "type": "uint256"
        }
      ],
      "stateMutability": "view",
      "type": "function"
    },
    {
      "inputs": [
        {
          "internalType": "address",
          "name": "_staker",
          "type": "address"
        }
      ],
      "name": "userClaimableRewards",
      "outputs": [
        {
          "internalType": "uint256",
          "name": "",
          "type": "uint256"
        }
      ],
      "stateMutability": "view",
      "type": "function"
    },
    {
      "inputs": [],
      "name": "userClaimableRewards_msgSender",
      "outputs": [
        {
          "internalType": "uint256",
          "name": "",
          "type": "uint256"
        }
      ],
      "stateMutability": "view",
      "type": "function"
    },
    {
      "inputs": [
        {
          "internalType": "address",
          "name": "",
          "type": "address"
        }
      ],
      "name": "userMap",
      "outputs": [
        {
          "internalType": "uint48",
          "name": "stakeTime",
          "type": "uint48"
        },
        {
          "internalType": "uint48",
          "name": "unlockTime",
          "type": "uint48"
        },
        {
          "internalType": "uint160",
          "name": "stakeAmount",
          "type": "uint160"
        },
        {
          "internalType": "uint256",
          "name": "accumulatedRewards",
          "type": "uint256"
        }
      ],
      "stateMutability": "view",
      "type": "function"
    },
    {
      "inputs": [
        {
          "internalType": "address",
          "name": "_staker",
          "type": "address"
        }
      ],
      "name": "userTotalRewards",
      "outputs": [
        {
          "internalType": "uint256",
          "name": "",
          "type": "uint256"
        }
      ],
      "stateMutability": "view",
      "type": "function"
    },
    {
      "inputs": [],
      "name": "userTotalRewards_msgSender",
      "outputs": [
        {
          "internalType": "uint256",
          "name": "",
          "type": "uint256"
        }
      ],
      "stateMutability": "view",
      "type": "function"
    },
    {
      "inputs": [
        {
          "internalType": "uint256",
          "name": "amount",
          "type": "uint256"
        }
      ],
      "name": "withdraw",
      "outputs": [
        {
          "internalType": "uint256",
          "name": "",
          "type": "uint256"
        }
      ],
      "stateMutability": "nonpayable",
      "type": "function"
    },
    {
      "inputs": [],
      "name": "withdrawAll",
      "outputs": [
        {
          "internalType": "uint256",
          "name": "",
          "type": "uint256"
        }
      ],
      "stateMutability": "nonpayable",
      "type": "function"
    }
  ],
  "bytecode": "0x60806040523480156200001157600080fd5b50604051620021cc380380620021cc833981016040819052620000349162000231565b600180556001600160a01b038216620000945760405162461bcd60e51b815260206004820152601960248201527f7374616b696e67546f6b656e2e61646472657373203d3d20300000000000000060448201526064015b60405180910390fd5b6301e285008165ffffffffffff1610620000f15760405162461bcd60e51b815260206004820152601a60248201527f6c6f636b54696d65506572696f64203e3d20333636206461797300000000000060448201526064016200008b565b600480546001600160a01b0319166001600160a01b0384161790556005805465ffffffffffff60a01b1916600160a01b65ffffffffffff84160217905563240c840060065562000146426301e2850062000285565b6005805465ffffffffffff92909216600160d01b026001600160d01b039092169190911790556200017960003362000181565b5050620002ac565b6200018d828262000191565b5050565b6000828152602081815260408083206001600160a01b038516845290915290205460ff166200018d576000828152602081815260408083206001600160a01b03851684529091529020805460ff19166001179055620001ed3390565b6001600160a01b0316816001600160a01b0316837f2f8788117e7eff1d82e926ec794901d17c78024a50270940304540a733656f0d60405160405180910390a45050565b600080604083850312156200024557600080fd5b82516001600160a01b03811681146200025d57600080fd5b602084015190925065ffffffffffff811681146200027a57600080fd5b809150509250929050565b60008219821115620002a757634e487b7160e01b600052601160045260246000fd5b500190565b611f1080620002bc6000396000f3fe608060405234801561001057600080fd5b50600436106102d35760003560e01c806387f075d911610186578063bf135267116100e3578063dfdf35c411610097578063f3b95cd711610071578063f3b95cd7146106bd578063f6a3f3cf146106d0578063f7c618c1146106e357600080fd5b8063dfdf35c414610684578063ee2d505e14610697578063ee61e0cd146106aa57600080fd5b8063d953a867116100c8578063d953a86714610650578063dbed1e8814610669578063de3717fc1461067c57600080fd5b8063bf13526714610507578063d547741f1461063d57600080fd5b80639a7cc1b81161013a578063a38a57c41161011f578063a38a57c4146105f4578063a694fc3a1461060d578063aaa748d31461062057600080fd5b80639a7cc1b8146105e4578063a217fddf146105ec57600080fd5b80638efb31c71161016b5780638efb31c71461059257806391d14854146105a557806393ce5343146105dc57600080fd5b806387f075d9146105765780638aee81271461057f57600080fd5b80632f2ff15d116102345780636bb64e23116101e857806372f702f3116101cd57806372f702f31461053a578063853828b614610565578063872b26da1461056d57600080fd5b80636bb64e23146104e157806370a082311461050757600080fd5b80633cb2efc9116102195780633cb2efc9146104c95780634e71d92d146104d15780635bd4b5df146104d957600080fd5b80632f2ff15d146104a157806336568abe146104b657600080fd5b8063248a9ca31161028b578063282c51f311610270578063282c51f3146103dd5780632bcc23f8146104045780632e1a7d4d1461048e57600080fd5b8063248a9ca3146103ad57806326949984146103d057600080fd5b806307dc1e1a116102bc57806307dc1e1a1461032157806309ef67e6146103395780632170e4721461036557600080fd5b806301ffc9a7146102d85780630584bd0914610300575b600080fd5b6102eb6102e6366004611c8c565b6106f6565b60405190151581526020015b60405180910390f35b61031361030e366004611be0565b61072d565b6040519081526020016102f7565b33600090815260026020526040902060010154610313565b610313610347366004611be0565b6001600160a01b031660009081526002602052604090206001015490565b610396610373366004611be0565b6001600160a01b031660009081526002602052604090205465ffffffffffff1690565b60405165ffffffffffff90911681526020016102f7565b6103136103bb366004611c47565b60009081526020819052604090206001015490565b61039665ffffffffffff81565b6103137f3c11d16cbaffd01df69ce1c404f6340ee057498f5f00246190ea54220576a84881565b610456610412366004611be0565b6002602052600090815260409020805460019091015465ffffffffffff808316926601000000000000810490911691600160601b9091046001600160a01b03169084565b6040805165ffffffffffff95861681529490931660208501526001600160a01b039091169183019190915260608201526080016102f7565b61031361049c366004611c47565b61080c565b6104b46104af366004611c60565b61087e565b005b6104b46104c4366004611c60565b6108a9565b610396610935565b610313610945565b6103136109b0565b61031333600090815260026020526040902054600160601b90046001600160a01b031690565b610313610515366004611be0565b6001600160a01b03908116600090815260026020526040902054600160601b90041690565b60045461054d906001600160a01b031681565b6040516001600160a01b0390911681526020016102f7565b6103136109bb565b61031360035481565b61031360065481565b6104b461058d366004611be0565b610a43565b6104b46105a0366004611c47565b610b52565b6102eb6105b3366004611c60565b6000918252602082815260408084206001600160a01b0393909316845291905290205460ff1690565b610313610b9b565b610313610c5b565b610313600081565b60055461039690600160d01b900465ffffffffffff1681565b61031361061b366004611c47565b610c66565b3360009081526002602052604090205465ffffffffffff16610396565b6104b461064b366004611c60565b610cc9565b60055461039690600160a01b900465ffffffffffff1681565b610396610677366004611be0565b610cef565b610313610d52565b6104b4610692366004611ccf565b610d5d565b6103136106a5366004611be0565b610e32565b6104b46106b8366004611ccf565b610e75565b6104b46106cb366004611bfb565b610eef565b6103136106de366004611be0565b610fa3565b60055461054d906001600160a01b031681565b60006001600160e01b03198216637965db0b60e01b148061072757506301ffc9a760e01b6001600160e01b03198316145b92915050565b6001600160a01b0381166000908152600260205260408120805465ffffffffffff16421161075e5750600092915050565b805460055465ffffffffffff918216600160d01b909104909116116107865750600092915050565b600554600090600160d01b900465ffffffffffff1642116107bc5781546107b59065ffffffffffff1642611e48565b90506107e8565b81546005546107dd9165ffffffffffff90811691600160d01b900416611e5f565b65ffffffffffff1690505b815461080490600160601b90046001600160a01b031682611e01565b949350505050565b6000600260015414156108665760405162461bcd60e51b815260206004820152601f60248201527f5265656e7472616e637947756172643a207265656e7472616e742063616c6c0060448201526064015b60405180910390fd5b600260015561087482610fd2565b6001805592915050565b60008281526020819052604090206001015461089a81336111c0565b6108a4838361123e565b505050565b6001600160a01b03811633146109275760405162461bcd60e51b815260206004820152602f60248201527f416363657373436f6e74726f6c3a2063616e206f6e6c792072656e6f756e636560448201527f20726f6c657320666f722073656c660000000000000000000000000000000000606482015260840161085d565b61093182826112dc565b5050565b600061094033610cef565b905090565b60006002600154141561099a5760405162461bcd60e51b815260206004820152601f60248201527f5265656e7472616e637947756172643a207265656e7472616e742063616c6c00604482015260640161085d565b60026001556109a761135b565b90506001805590565b60006109403361072d565b600060026001541415610a105760405162461bcd60e51b815260206004820152601f60248201527f5265656e7472616e637947756172643a207265656e7472616e742063616c6c00604482015260640161085d565b60026001556109a7610a3e33600090815260026020526040902054600160601b90046001600160a01b031690565b610fd2565b60026001541415610a965760405162461bcd60e51b815260206004820152601f60248201527f5265656e7472616e637947756172643a207265656e7472616e742063616c6c00604482015260640161085d565b60026001556000610aa781336111c0565b6005546001600160a01b03166000610abd610b9b565b90508015610ad957610ad96001600160a01b0383163383611504565b600580547fffffffffffffffffffffffff0000000000000000000000000000000000000000166001600160a01b0386811691821790925560405183815290918416907fc133375757269458a329c73a344c8ef483535870f46ed4cd332f857a5ef525d09060200160405180910390a35050600180555050565b6000610b5e81336111c0565b60068290556040518281527f929e0b2903ee7e8bb87bf220a340db1f5551e7042e5f2567ed08117c0709fa21906020015b60405180910390a15050565b6005546000906001600160a01b0316610bb45750600090565b6005546040516370a0823160e01b81523060048201526001600160a01b03909116906370a082319060240160206040518083038186803b158015610bf757600080fd5b505afa158015610c0b573d6000803e3d6000fd5b505050506040513d601f19601f82011682018060405250810190610c2f9190611cb6565b6005546004549192506001600160a01b0391821691161415610c58576003546109409082611e48565b90565b600061094033610e32565b600060026001541415610cbb5760405162461bcd60e51b815260206004820152601f60248201527f5265656e7472616e637947756172643a207265656e7472616e742063616c6c00604482015260640161085d565b60026001556108748261157c565b600082815260208190526040902060010154610ce581336111c0565b6108a483836112dc565b6001600160a01b038082166000908152600260205260408120549091600160601b90910416610d245765ffffffffffff610727565b506001600160a01b03166000908152600260205260409020546601000000000000900465ffffffffffff1690565b600061094033610fa3565b6000610d6981336111c0565b60055442600160d01b90910465ffffffffffff1611610dca5760405162461bcd60e51b815260206004820152601c60248201527f74696d652068617320746f20626520696e207468652066757475726500000000604482015260640161085d565b6005805479ffffffffffffffffffffffffffffffffffffffffffffffffffff16600160d01b65ffffffffffff8516908102919091179091556040519081527fb8ec1a7db76539d0a932b67153298ec5ba41b1f965bd5f66e9419431d517291a90602001610b8f565b6005546000906001600160a01b03161580610e4d5750600654155b15610e5a57506000919050565b600654610e6683610fa3565b6107279190611ddf565b919050565b6000610e8181336111c0565b600580547fffffffffffff000000000000ffffffffffffffffffffffffffffffffffffffff16600160a01b65ffffffffffff8516908102919091179091556040519081527fe9f020bdf01408388704d87e8162e06252d160de9f8cc075b32ce7ebbebc263e90602001610b8f565b7f3c11d16cbaffd01df69ce1c404f6340ee057498f5f00246190ea54220576a848610f1a81336111c0565b6000610f25846116d5565b90508060010154831015610f525782816001016000828254610f479190611e48565b90915550610f5a9050565b600060018201555b836001600160a01b03167f33e88885e6abd26d1f3ea3b4b37c2f6e0ff31fa24c7721763eca867537bdf5d284604051610f9591815260200190565b60405180910390a250505050565b6001600160a01b038116600090815260026020526040812060010154610fc88361072d565b6107279190611dc7565b60008082116110235760405162461bcd60e51b815260206004820152601a60248201527f616d6f756e7420746f207769746864726177206e6f74203e2030000000000000604482015260640161085d565b61102c33610cef565b65ffffffffffff1642116110825760405162461bcd60e51b815260206004820152601e60248201527f7374616b656420746f6b656e7320617265207374696c6c206c6f636b65640000604482015260640161085d565b600061108d336116d5565b8054909150600160601b90046001600160a01b03168311156110f15760405162461bcd60e51b815260206004820152601f60248201527f776974686472617720616d6f756e74203e207374616b656420616d6f756e7400604482015260640161085d565b6110fa83611736565b81548290600c9061111c908490600160601b90046001600160a01b0316611e20565b92506101000a8154816001600160a01b0302191690836001600160a01b0316021790555082600360008282546111529190611e48565b909155505060045461116e906001600160a01b03163385611504565b337ff279e6a1f5e320cca91135676d9cb6e44ca8a08c0b88342bcdb1144f6511b5688461119a42611793565b6040805192835265ffffffffffff90911660208301520160405180910390a25090919050565b6000828152602081815260408083206001600160a01b038516845290915290205460ff16610931576111fc816001600160a01b031660146117eb565b6112078360206117eb565b604051602001611218929190611d13565b60408051601f198184030181529082905262461bcd60e51b825261085d91600401611d94565b6000828152602081815260408083206001600160a01b038516845290915290205460ff16610931576000828152602081815260408083206001600160a01b03851684529091529020805460ff191660011790556112983390565b6001600160a01b0316816001600160a01b0316837f2f8788117e7eff1d82e926ec794901d17c78024a50270940304540a733656f0d60405160405180910390a45050565b6000828152602081815260408083206001600160a01b038516845290915290205460ff1615610931576000828152602081815260408083206001600160a01b0385168085529252808320805460ff1916905551339285917ff6391f5c32d9c69d2a47ea670b442974b53935d1edc7fd64eb21e047a839171b9190a45050565b6005546000906001600160a01b03166113b65760405162461bcd60e51b815260206004820152601860248201527f6e6f2072657761726420746f6b656e20636f6e74726163740000000000000000604482015260640161085d565b60006113c133610e32565b9050600081116114135760405162461bcd60e51b815260206004820152601260248201527f6e6f20746f6b656e7320746f20636c61696d0000000000000000000000000000604482015260640161085d565b336000908152600260205260408120600181019190915561143342611793565b815465ffffffffffff191665ffffffffffff91909116178155611454610b9b565b8211156114a35760405162461bcd60e51b815260206004820152601860248201527f6e6f7420656e6f7567682072657761726420746f6b656e730000000000000000604482015260640161085d565b6005546114ba906001600160a01b03163384611504565b6005546040518381526001600160a01b039091169033907ff7a40077ff7a04c7e61f6f26fb13774259ddf1b6bce9ecf26a8276cdd39926839060200160405180910390a350919050565b6040516001600160a01b0383166024820152604481018290526108a490849063a9059cbb60e01b906064015b60408051601f198184030181529190526020810180517bffffffffffffffffffffffffffffffffffffffffffffffffffffffff166001600160e01b03199093169290921790915261199b565b60008082116115cd5760405162461bcd60e51b815260206004820152601f60248201527f616d6f756e7420746f206265207374616b6564206d757374206265203e203000604482015260640161085d565b60006115d8336116d5565b8054909150611601906115fc908590600160601b90046001600160a01b0316611dc7565b611736565b81546001600160a01b0391909116600160601b026bffffffffffffffffffffffff9091161781556003805484919060009061163d908490611dc7565b90915550506005546116679061166290600160a01b900465ffffffffffff1642611dc7565b611793565b815465ffffffffffff919091166601000000000000026bffffffffffff000000000000199091161781556004546116a9906001600160a01b0316333086611a80565b337f5af417134f72a9d41143ace85b0a26dce6f550f894f2cbc1eeee8810603d91b68461119a42611793565b6001600160a01b03811660009081526002602052604090206116f68261072d565b8160010160008282546117099190611dc7565b90915550611718905042611793565b815465ffffffffffff191665ffffffffffff91909116178155919050565b60006001600160a01b0382111561178f5760405162461bcd60e51b815260206004820152601d60248201527f76616c756520646f65736e27742066697420696e203136302062697473000000604482015260640161085d565b5090565b600065ffffffffffff82111561178f5760405162461bcd60e51b815260206004820152601c60248201527f76616c756520646f65736e27742066697420696e203438206269747300000000604482015260640161085d565b606060006117fa836002611e01565b611805906002611dc7565b67ffffffffffffffff81111561181d5761181d611eed565b6040519080825280601f01601f191660200182016040528015611847576020820181803683370190505b509050600360fc1b8160008151811061186257611862611ed7565b60200101906001600160f81b031916908160001a905350600f60fb1b8160018151811061189157611891611ed7565b60200101906001600160f81b031916908160001a90535060006118b5846002611e01565b6118c0906001611dc7565b90505b6001811115611945577f303132333435363738396162636465660000000000000000000000000000000085600f166010811061190157611901611ed7565b1a60f81b82828151811061191757611917611ed7565b60200101906001600160f81b031916908160001a90535060049490941c9361193e81611eaa565b90506118c3565b5083156119945760405162461bcd60e51b815260206004820181905260248201527f537472696e67733a20686578206c656e67746820696e73756666696369656e74604482015260640161085d565b9392505050565b60006119f0826040518060400160405280602081526020017f5361666545524332303a206c6f772d6c6576656c2063616c6c206661696c6564815250856001600160a01b0316611abe9092919063ffffffff16565b8051909150156108a45780806020019051810190611a0e9190611c25565b6108a45760405162461bcd60e51b815260206004820152602a60248201527f5361666545524332303a204552433230206f7065726174696f6e20646964206e60448201527f6f74207375636365656400000000000000000000000000000000000000000000606482015260840161085d565b6040516001600160a01b0380851660248301528316604482015260648101829052611ab89085906323b872dd60e01b90608401611530565b50505050565b6060610804848460008585843b611b175760405162461bcd60e51b815260206004820152601d60248201527f416464726573733a2063616c6c20746f206e6f6e2d636f6e7472616374000000604482015260640161085d565b600080866001600160a01b03168587604051611b339190611cf7565b60006040518083038185875af1925050503d8060008114611b70576040519150601f19603f3d011682016040523d82523d6000602084013e611b75565b606091505b5091509150611b85828286611b90565b979650505050505050565b60608315611b9f575081611994565b825115611baf5782518084602001fd5b8160405162461bcd60e51b815260040161085d9190611d94565b80356001600160a01b0381168114610e7057600080fd5b600060208284031215611bf257600080fd5b61199482611bc9565b60008060408385031215611c0e57600080fd5b611c1783611bc9565b946020939093013593505050565b600060208284031215611c3757600080fd5b8151801515811461199457600080fd5b600060208284031215611c5957600080fd5b5035919050565b60008060408385031215611c7357600080fd5b82359150611c8360208401611bc9565b90509250929050565b600060208284031215611c9e57600080fd5b81356001600160e01b03198116811461199457600080fd5b600060208284031215611cc857600080fd5b5051919050565b600060208284031215611ce157600080fd5b813565ffffffffffff8116811461199457600080fd5b60008251611d09818460208701611e7e565b9190910192915050565b7f416363657373436f6e74726f6c3a206163636f756e7420000000000000000000815260008351611d4b816017850160208801611e7e565b7f206973206d697373696e6720726f6c65200000000000000000000000000000006017918401918201528351611d88816028840160208801611e7e565b01602801949350505050565b6020815260008251806020840152611db3816040850160208701611e7e565b601f01601f19169190910160400192915050565b60008219821115611dda57611dda611ec1565b500190565b600082611dfc57634e487b7160e01b600052601260045260246000fd5b500490565b6000816000190483118215151615611e1b57611e1b611ec1565b500290565b60006001600160a01b0383811690831681811015611e4057611e40611ec1565b039392505050565b600082821015611e5a57611e5a611ec1565b500390565b600065ffffffffffff83811690831681811015611e4057611e40611ec1565b60005b83811015611e99578181015183820152602001611e81565b83811115611ab85750506000910152565b600081611eb957611eb9611ec1565b506000190190565b634e487b7160e01b600052601160045260246000fd5b634e487b7160e01b600052603260045260246000fd5b634e487b7160e01b600052604160045260246000fdfea164736f6c6343000807000a",
  "linkReferences": {},
  "deployedLinkReferences": {}
}