{
  "_format": "hh-sol-artifact-1",
  "contractName": "PolsStake-v3",
  "sourceName": "contracts/PolsStake-v3.sol",
  "abi": [
    {
      "inputs": [
        {
          "internalType": "address",
          "name": "_stakingToken",
          "type": "address"
        }
      ],
      "stateMutability": "nonpayable",
      "type": "constructor"
    },
    {
      "anonymous": false,
      "inputs": [
        {
          "indexed": true,
          "internalType": "address",
          "name": "account",
          "type": "address"
        },
        {
          "indexed": true,
          "internalType": "address",
          "name": "rewardToken",
          "type": "address"
        },
        {
          "indexed": false,
          "internalType": "uint256",
          "name": "amount",
          "type": "uint256"
        }
      ],
      "name": "Claimed",
      "type": "event"
    },
    {
      "anonymous": false,
      "inputs": [
        {
          "indexed": true,
          "internalType": "address",
          "name": "tokenAddress",
          "type": "address"
        },
        {
          "indexed": true,
          "internalType": "address",
          "name": "receiver",
          "type": "address"
        },
        {
          "indexed": false,
          "internalType": "uint256",
          "name": "amount",
          "type": "uint256"
        }
      ],
      "name": "ERC20TokensRemoved",
      "type": "event"
    },
    {
      "anonymous": false,
      "inputs": [
        {
          "indexed": false,
          "internalType": "uint32[]",
          "name": "lockTimePeriod",
          "type": "uint32[]"
        },
        {
          "indexed": false,
          "internalType": "uint32[]",
          "name": "lockTimePeriodRewardFactor",
          "type": "uint32[]"
        }
      ],
      "name": "LockTimePeriodOptionsChanged",
      "type": "event"
    },
    {
      "anonymous": false,
      "inputs": [
        {
          "indexed": false,
          "internalType": "uint32[]",
          "name": "lockTimePeriodRewardFactor",
          "type": "uint32[]"
        }
      ],
      "name": "LockTimePeriodRewardFactorsChanged",
      "type": "event"
    },
    {
      "anonymous": false,
      "inputs": [
        {
          "indexed": false,
          "internalType": "bool",
          "name": "lockedRewardsEnabled",
          "type": "bool"
        }
      ],
      "name": "LockedRewardsEnabledChanged",
      "type": "event"
    },
    {
      "anonymous": false,
      "inputs": [
        {
          "indexed": true,
          "internalType": "address",
          "name": "prevPolsStaking",
          "type": "address"
        }
      ],
      "name": "PrevPolsStakingChanged",
      "type": "event"
    },
    {
      "anonymous": false,
      "inputs": [
        {
          "indexed": true,
          "internalType": "address",
          "name": "oldRewardToken",
          "type": "address"
        },
        {
          "indexed": false,
          "internalType": "uint256",
          "name": "returnedAmount",
          "type": "uint256"
        },
        {
          "indexed": true,
          "internalType": "address",
          "name": "newRewardToken",
          "type": "address"
        }
      ],
      "name": "RewardTokenChanged",
      "type": "event"
    },
    {
      "anonymous": false,
      "inputs": [
        {
          "indexed": true,
          "internalType": "address",
          "name": "account",
          "type": "address"
        },
        {
          "indexed": false,
          "internalType": "uint256",
          "name": "externalAccumulatedRewards",
          "type": "uint256"
        }
      ],
      "name": "RewardsAdded",
      "type": "event"
    },
    {
      "anonymous": false,
      "inputs": [
        {
          "indexed": true,
          "internalType": "address",
          "name": "staker",
          "type": "address"
        },
        {
          "indexed": false,
          "internalType": "uint256",
          "name": "amount",
          "type": "uint256"
        }
      ],
      "name": "RewardsBurned",
      "type": "event"
    },
    {
      "anonymous": false,
      "inputs": [
        {
          "indexed": true,
          "internalType": "bytes32",
          "name": "role",
          "type": "bytes32"
        },
        {
          "indexed": true,
          "internalType": "bytes32",
          "name": "previousAdminRole",
          "type": "bytes32"
        },
        {
          "indexed": true,
          "internalType": "bytes32",
          "name": "newAdminRole",
          "type": "bytes32"
        }
      ],
      "name": "RoleAdminChanged",
      "type": "event"
    },
    {
      "anonymous": false,
      "inputs": [
        {
          "indexed": true,
          "internalType": "bytes32",
          "name": "role",
          "type": "bytes32"
        },
        {
          "indexed": true,
          "internalType": "address",
          "name": "account",
          "type": "address"
        },
        {
          "indexed": true,
          "internalType": "address",
          "name": "sender",
          "type": "address"
        }
      ],
      "name": "RoleGranted",
      "type": "event"
    },
    {
      "anonymous": false,
      "inputs": [
        {
          "indexed": true,
          "internalType": "bytes32",
          "name": "role",
          "type": "bytes32"
        },
        {
          "indexed": true,
          "internalType": "address",
          "name": "account",
          "type": "address"
        },
        {
          "indexed": true,
          "internalType": "address",
          "name": "sender",
          "type": "address"
        }
      ],
      "name": "RoleRevoked",
      "type": "event"
    },
    {
      "anonymous": false,
      "inputs": [
        {
          "indexed": true,
          "internalType": "address",
          "name": "account",
          "type": "address"
        },
        {
          "indexed": false,
          "internalType": "uint256",
          "name": "amount",
          "type": "uint256"
        },
        {
          "indexed": false,
          "internalType": "uint48",
          "name": "stakeTime",
          "type": "uint48"
        },
        {
          "indexed": false,
          "internalType": "uint48",
          "name": "unlockTime",
          "type": "uint48"
        }
      ],
      "name": "Stake",
      "type": "event"
    },
    {
      "anonymous": false,
      "inputs": [
        {
          "indexed": false,
          "internalType": "uint48",
          "name": "stakeRewardEndTime",
          "type": "uint48"
        }
      ],
      "name": "StakeRewardEndTimeChanged",
      "type": "event"
    },
    {
      "anonymous": false,
      "inputs": [
        {
          "indexed": false,
          "internalType": "uint256",
          "name": "stakeRewardFactor",
          "type": "uint256"
        }
      ],
      "name": "StakeRewardFactorChanged",
      "type": "event"
    },
    {
      "anonymous": false,
      "inputs": [
        {
          "indexed": false,
          "internalType": "uint256",
          "name": "unlockedRewardsFactor",
          "type": "uint256"
        }
      ],
      "name": "UnlockedRewardsFactorChanged",
      "type": "event"
    },
    {
      "anonymous": false,
      "inputs": [
        {
          "indexed": true,
          "internalType": "address",
          "name": "account",
          "type": "address"
        },
        {
          "indexed": false,
          "internalType": "uint256",
          "name": "amount",
          "type": "uint256"
        },
        {
          "indexed": false,
          "internalType": "uint48",
          "name": "withdrawTime",
          "type": "uint48"
        }
      ],
      "name": "Withdraw",
      "type": "event"
    },
    {
      "inputs": [],
      "name": "BURNER_ROLE",
      "outputs": [
        {
          "internalType": "bytes32",
          "name": "",
          "type": "bytes32"
        }
      ],
      "stateMutability": "view",
      "type": "function"
    },
    {
      "inputs": [],
      "name": "DEFAULT_ADMIN_ROLE",
      "outputs": [
        {
          "internalType": "bytes32",
          "name": "",
          "type": "bytes32"
        }
      ],
      "stateMutability": "view",
      "type": "function"
    },
    {
      "inputs": [],
      "name": "MAX_TIME",
      "outputs": [
        {
          "internalType": "uint48",
          "name": "",
          "type": "uint48"
        }
      ],
      "stateMutability": "view",
      "type": "function"
    },
    {
      "inputs": [],
      "name": "REWARDS_DIV",
      "outputs": [
        {
          "internalType": "uint32",
          "name": "",
          "type": "uint32"
        }
      ],
      "stateMutability": "view",
      "type": "function"
    },
    {
      "inputs": [
        {
          "internalType": "uint256",
          "name": "user_stakeAmount",
          "type": "uint256"
        },
        {
          "internalType": "uint256",
          "name": "user_stakeTime",
          "type": "uint256"
        },
        {
          "internalType": "uint256",
          "name": "user_unlockTime",
          "type": "uint256"
        },
        {
          "internalType": "uint256",
          "name": "t0",
          "type": "uint256"
        },
        {
          "internalType": "uint256",
          "name": "endTime",
          "type": "uint256"
        },
        {
          "internalType": "bool",
          "name": "lockedRewards",
          "type": "bool"
        },
        {
          "internalType": "bool",
          "name": "lockedRewardsCurrent",
          "type": "bool"
        },
        {
          "internalType": "uint256",
          "name": "user_stakePeriodRewardFactor",
          "type": "uint256"
        }
      ],
      "name": "_userClaimableRewardsCalculation",
      "outputs": [
        {
          "internalType": "uint256",
          "name": "",
          "type": "uint256"
        }
      ],
      "stateMutability": "view",
      "type": "function"
    },
    {
      "inputs": [
        {
          "internalType": "address",
          "name": "_staker",
          "type": "address"
        }
      ],
      "name": "balanceOf",
      "outputs": [
        {
          "internalType": "uint256",
          "name": "balance",
          "type": "uint256"
        }
      ],
      "stateMutability": "view",
      "type": "function"
    },
    {
      "inputs": [
        {
          "internalType": "address",
          "name": "_staker",
          "type": "address"
        },
        {
          "internalType": "uint256",
          "name": "_amount",
          "type": "uint256"
        }
      ],
      "name": "burnRewards",
      "outputs": [],
      "stateMutability": "nonpayable",
      "type": "function"
    },
    {
      "inputs": [],
      "name": "claim",
      "outputs": [
        {
          "internalType": "uint256",
          "name": "",
          "type": "uint256"
        }
      ],
      "stateMutability": "nonpayable",
      "type": "function"
    },
    {
      "inputs": [
        {
          "internalType": "uint8",
          "name": "lockTimeIndex",
          "type": "uint8"
        }
      ],
      "name": "extendLockTime",
      "outputs": [
        {
          "internalType": "uint48",
          "name": "",
          "type": "uint48"
        }
      ],
      "stateMutability": "nonpayable",
      "type": "function"
    },
    {
      "inputs": [
        {
          "internalType": "address",
          "name": "_staker",
          "type": "address"
        }
      ],
      "name": "getEarnedRewardTokens",
      "outputs": [
        {
          "internalType": "uint256",
          "name": "claimableRewardTokens",
          "type": "uint256"
        }
      ],
      "stateMutability": "view",
      "type": "function"
    },
    {
      "inputs": [],
      "name": "getEarnedRewardTokens_msgSender",
      "outputs": [
        {
          "internalType": "uint256",
          "name": "",
          "type": "uint256"
        }
      ],
      "stateMutability": "view",
      "type": "function"
    },
    {
      "inputs": [],
      "name": "getLockTimePeriod",
      "outputs": [
        {
          "internalType": "uint32",
          "name": "",
          "type": "uint32"
        }
      ],
      "stateMutability": "view",
      "type": "function"
    },
    {
      "inputs": [],
      "name": "getLockTimePeriodOptions",
      "outputs": [
        {
          "internalType": "uint32[]",
          "name": "",
          "type": "uint32[]"
        }
      ],
      "stateMutability": "view",
      "type": "function"
    },
    {
      "inputs": [],
      "name": "getLockTimePeriodRewardFactors",
      "outputs": [
        {
          "internalType": "uint32[]",
          "name": "",
          "type": "uint32[]"
        }
      ],
      "stateMutability": "view",
      "type": "function"
    },
    {
      "inputs": [],
      "name": "getRewardTokenBalance",
      "outputs": [
        {
          "internalType": "uint256",
          "name": "balance",
          "type": "uint256"
        }
      ],
      "stateMutability": "view",
      "type": "function"
    },
    {
      "inputs": [
        {
          "internalType": "bytes32",
          "name": "role",
          "type": "bytes32"
        }
      ],
      "name": "getRoleAdmin",
      "outputs": [
        {
          "internalType": "bytes32",
          "name": "",
          "type": "bytes32"
        }
      ],
      "stateMutability": "view",
      "type": "function"
    },
    {
      "inputs": [
        {
          "internalType": "address",
          "name": "_staker",
          "type": "address"
        }
      ],
      "name": "getUnlockTime",
      "outputs": [
        {
          "internalType": "uint48",
          "name": "unlockTime",
          "type": "uint48"
        }
      ],
      "stateMutability": "view",
      "type": "function"
    },
    {
      "inputs": [],
      "name": "getUnlockTime_msgSender",
      "outputs": [
        {
          "internalType": "uint48",
          "name": "unlockTime",
          "type": "uint48"
        }
      ],
      "stateMutability": "view",
      "type": "function"
    },
    {
      "inputs": [
        {
          "internalType": "bytes32",
          "name": "role",
          "type": "bytes32"
        },
        {
          "internalType": "address",
          "name": "account",
          "type": "address"
        }
      ],
      "name": "grantRole",
      "outputs": [],
      "stateMutability": "nonpayable",
      "type": "function"
    },
    {
      "inputs": [
        {
          "internalType": "bytes32",
          "name": "role",
          "type": "bytes32"
        },
        {
          "internalType": "address",
          "name": "account",
          "type": "address"
        }
      ],
      "name": "hasRole",
      "outputs": [
        {
          "internalType": "bool",
          "name": "",
          "type": "bool"
        }
      ],
      "stateMutability": "view",
      "type": "function"
    },
    {
      "inputs": [
        {
          "internalType": "uint256",
          "name": "",
          "type": "uint256"
        }
      ],
      "name": "lockTimePeriod",
      "outputs": [
        {
          "internalType": "uint32",
          "name": "",
          "type": "uint32"
        }
      ],
      "stateMutability": "view",
      "type": "function"
    },
    {
      "inputs": [
        {
          "internalType": "uint256",
          "name": "",
          "type": "uint256"
        }
      ],
      "name": "lockTimePeriodRewardFactor",
      "outputs": [
        {
          "internalType": "uint32",
          "name": "",
          "type": "uint32"
        }
      ],
      "stateMutability": "view",
      "type": "function"
    },
    {
      "inputs": [],
      "name": "lockedRewardsEnabled",
      "outputs": [
        {
          "internalType": "bool",
          "name": "",
          "type": "bool"
        }
      ],
      "stateMutability": "view",
      "type": "function"
    },
    {
      "inputs": [
        {
          "internalType": "address",
          "name": "_staker",
          "type": "address"
        }
      ],
      "name": "migrateRewards",
      "outputs": [
        {
          "internalType": "uint256",
          "name": "",
          "type": "uint256"
        }
      ],
      "stateMutability": "nonpayable",
      "type": "function"
    },
    {
      "inputs": [],
      "name": "migrateRewards_msgSender",
      "outputs": [
        {
          "internalType": "uint256",
          "name": "",
          "type": "uint256"
        }
      ],
      "stateMutability": "nonpayable",
      "type": "function"
    },
    {
      "inputs": [],
      "name": "prevPolsStaking",
      "outputs": [
        {
          "internalType": "address",
          "name": "",
          "type": "address"
        }
      ],
      "stateMutability": "view",
      "type": "function"
    },
    {
      "inputs": [
        {
          "internalType": "address",
          "name": "_staker",
          "type": "address"
        }
      ],
      "name": "remainingLockPeriod",
      "outputs": [
        {
          "internalType": "uint48",
          "name": "",
          "type": "uint48"
        }
      ],
      "stateMutability": "view",
      "type": "function"
    },
    {
      "inputs": [],
      "name": "remainingLockPeriod_msgSender",
      "outputs": [
        {
          "internalType": "uint48",
          "name": "",
          "type": "uint48"
        }
      ],
      "stateMutability": "view",
      "type": "function"
    },
    {
      "inputs": [
        {
          "internalType": "address",
          "name": "_tokenAddress",
          "type": "address"
        }
      ],
      "name": "removeOtherERC20Tokens",
      "outputs": [],
      "stateMutability": "nonpayable",
      "type": "function"
    },
    {
      "inputs": [
        {
          "internalType": "bytes32",
          "name": "role",
          "type": "bytes32"
        },
        {
          "internalType": "address",
          "name": "account",
          "type": "address"
        }
      ],
      "name": "renounceRole",
      "outputs": [],
      "stateMutability": "nonpayable",
      "type": "function"
    },
    {
      "inputs": [
        {
          "internalType": "bytes32",
          "name": "role",
          "type": "bytes32"
        },
        {
          "internalType": "address",
          "name": "account",
          "type": "address"
        }
      ],
      "name": "revokeRole",
      "outputs": [],
      "stateMutability": "nonpayable",
      "type": "function"
    },
    {
      "inputs": [],
      "name": "rewardToken",
      "outputs": [
        {
          "internalType": "address",
          "name": "",
          "type": "address"
        }
      ],
      "stateMutability": "view",
      "type": "function"
    },
    {
      "inputs": [
        {
          "internalType": "uint32",
          "name": "_defaultLockTime",
          "type": "uint32"
        }
      ],
      "name": "setLockTimePeriodDefault",
      "outputs": [],
      "stateMutability": "nonpayable",
      "type": "function"
    },
    {
      "inputs": [
        {
          "internalType": "uint32[]",
          "name": "_lockTimePeriod",
          "type": "uint32[]"
        },
        {
          "internalType": "uint32[]",
          "name": "_lockTimePeriodRewardFactor",
          "type": "uint32[]"
        }
      ],
      "name": "setLockTimePeriodOptions",
      "outputs": [],
      "stateMutability": "nonpayable",
      "type": "function"
    },
    {
      "inputs": [
        {
          "internalType": "bool",
          "name": "_lockedRewardsEnabled",
          "type": "bool"
        }
      ],
      "name": "setLockedRewardsEnabled",
      "outputs": [],
      "stateMutability": "nonpayable",
      "type": "function"
    },
    {
      "inputs": [
        {
          "internalType": "address",
          "name": "_prevPolsStaking",
          "type": "address"
        }
      ],
      "name": "setPrevPolsStaking",
      "outputs": [],
      "stateMutability": "nonpayable",
      "type": "function"
    },
    {
      "inputs": [
        {
          "internalType": "address",
          "name": "newRewardToken",
          "type": "address"
        }
      ],
      "name": "setRewardToken",
      "outputs": [],
      "stateMutability": "nonpayable",
      "type": "function"
    },
    {
      "inputs": [
        {
          "internalType": "uint48",
          "name": "_stakeRewardEndTime",
          "type": "uint48"
        }
      ],
      "name": "setStakeRewardEndTime",
      "outputs": [],
      "stateMutability": "nonpayable",
      "type": "function"
    },
    {
      "inputs": [
        {
          "internalType": "uint256",
          "name": "_stakeRewardFactor",
          "type": "uint256"
        }
      ],
      "name": "setStakeRewardFactor",
      "outputs": [],
      "stateMutability": "nonpayable",
      "type": "function"
    },
    {
      "inputs": [
        {
          "internalType": "uint256",
          "name": "_unlockedRewardsFactor",
          "type": "uint256"
        }
      ],
      "name": "setUnlockedRewardsFactor",
      "outputs": [],
      "stateMutability": "nonpayable",
      "type": "function"
    },
    {
      "inputs": [
        {
          "internalType": "uint256",
          "name": "_amount",
          "type": "uint256"
        }
      ],
      "name": "stake",
      "outputs": [
        {
          "internalType": "uint256",
          "name": "",
          "type": "uint256"
        }
      ],
      "stateMutability": "nonpayable",
      "type": "function"
    },
    {
      "inputs": [
        {
          "internalType": "address",
          "name": "_staker",
          "type": "address"
        }
      ],
      "name": "stakeAmount",
      "outputs": [
        {
          "internalType": "uint256",
          "name": "balance",
          "type": "uint256"
        }
      ],
      "stateMutability": "view",
      "type": "function"
    },
    {
      "inputs": [],
      "name": "stakeAmount_msgSender",
      "outputs": [
        {
          "internalType": "uint256",
          "name": "",
          "type": "uint256"
        }
      ],
      "stateMutability": "view",
      "type": "function"
    },
    {
      "inputs": [],
      "name": "stakeRewardEndTime",
      "outputs": [
        {
          "internalType": "uint48",
          "name": "",
          "type": "uint48"
        }
      ],
      "stateMutability": "view",
      "type": "function"
    },
    {
      "inputs": [],
      "name": "stakeRewardFactor",
      "outputs": [
        {
          "internalType": "uint256",
          "name": "",
          "type": "uint256"
        }
      ],
      "stateMutability": "view",
      "type": "function"
    },
    {
      "inputs": [
        {
          "internalType": "address",
          "name": "_staker",
          "type": "address"
        }
      ],
      "name": "stakeTime",
      "outputs": [
        {
          "internalType": "uint48",
          "name": "dateTime",
          "type": "uint48"
        }
      ],
      "stateMutability": "view",
      "type": "function"
    },
    {
      "inputs": [],
      "name": "stakeTime_msgSender",
      "outputs": [
        {
          "internalType": "uint48",
          "name": "",
          "type": "uint48"
        }
      ],
      "stateMutability": "view",
      "type": "function"
    },
    {
      "inputs": [
        {
          "internalType": "uint256",
          "name": "_amount",
          "type": "uint256"
        },
        {
          "internalType": "uint8",
          "name": "_lockTimeIndex",
          "type": "uint8"
        }
      ],
      "name": "stakelockTimeChoice",
      "outputs": [
        {
          "internalType": "uint256",
          "name": "",
          "type": "uint256"
        }
      ],
      "stateMutability": "nonpayable",
      "type": "function"
    },
    {
      "inputs": [],
      "name": "stakingToken",
      "outputs": [
        {
          "internalType": "address",
          "name": "",
          "type": "address"
        }
      ],
      "stateMutability": "view",
      "type": "function"
    },
    {
      "inputs": [
        {
          "internalType": "bytes4",
          "name": "interfaceId",
          "type": "bytes4"
        }
      ],
      "name": "supportsInterface",
      "outputs": [
        {
          "internalType": "bool",
          "name": "",
          "type": "bool"
        }
      ],
      "stateMutability": "view",
      "type": "function"
    },
    {
      "inputs": [],
      "name": "tokenTotalStaked",
      "outputs": [
        {
          "internalType": "uint256",
          "name": "",
          "type": "uint256"
        }
      ],
      "stateMutability": "view",
      "type": "function"
    },
    {
      "inputs": [
        {
          "internalType": "uint256",
          "name": "_amount",
          "type": "uint256"
        }
      ],
      "name": "topUp",
      "outputs": [
        {
          "internalType": "uint256",
          "name": "",
          "type": "uint256"
        }
      ],
      "stateMutability": "nonpayable",
      "type": "function"
    },
    {
      "inputs": [],
      "name": "unlockedRewardsFactor",
      "outputs": [
        {
          "internalType": "uint256",
          "name": "",
          "type": "uint256"
        }
      ],
      "stateMutability": "view",
      "type": "function"
    },
    {
      "inputs": [
        {
          "internalType": "address",
          "name": "_staker",
          "type": "address"
        }
      ],
      "name": "userAccumulatedRewards",
      "outputs": [
        {
          "internalType": "uint256",
          "name": "rewards",
          "type": "uint256"
        }
      ],
      "stateMutability": "view",
      "type": "function"
    },
    {
      "inputs": [],
      "name": "userAccumulatedRewards_msgSender",
      "outputs": [
        {
          "internalType": "uint256",
          "name": "",
          "type": "uint256"
        }
      ],
      "stateMutability": "view",
      "type": "function"
    },
    {
      "inputs": [
        {
          "internalType": "address",
          "name": "_staker",
          "type": "address"
        }
      ],
      "name": "userClaimableRewards",
      "outputs": [
        {
          "internalType": "uint256",
          "name": "",
          "type": "uint256"
        }
      ],
      "stateMutability": "view",
      "type": "function"
    },
    {
      "inputs": [
        {
          "internalType": "address",
          "name": "_staker",
          "type": "address"
        },
        {
          "internalType": "bool",
          "name": "lockedRewardsCurrent",
          "type": "bool"
        }
      ],
      "name": "userClaimableRewardsCurrent",
      "outputs": [
        {
          "internalType": "uint256",
          "name": "",
          "type": "uint256"
        }
      ],
      "stateMutability": "view",
      "type": "function"
    },
    {
      "inputs": [],
      "name": "userClaimableRewards_msgSender",
      "outputs": [
        {
          "internalType": "uint256",
          "name": "",
          "type": "uint256"
        }
      ],
      "stateMutability": "view",
      "type": "function"
    },
    {
      "inputs": [
        {
          "internalType": "address",
          "name": "",
          "type": "address"
        }
      ],
      "name": "userMap",
      "outputs": [
        {
          "internalType": "uint48",
          "name": "stakeTime",
          "type": "uint48"
        },
        {
          "internalType": "uint48",
          "name": "unlockTime",
          "type": "uint48"
        },
        {
          "internalType": "uint32",
          "name": "stakePeriodRewardFactor",
          "type": "uint32"
        },
        {
          "internalType": "uint128",
          "name": "stakeAmount",
          "type": "uint128"
        },
        {
          "internalType": "uint256",
          "name": "accumulatedRewards",
          "type": "uint256"
        }
      ],
      "stateMutability": "view",
      "type": "function"
    },
    {
      "inputs": [
        {
          "internalType": "address",
          "name": "_staker",
          "type": "address"
        }
      ],
      "name": "userTotalRewards",
      "outputs": [
        {
          "internalType": "uint256",
          "name": "",
          "type": "uint256"
        }
      ],
      "stateMutability": "view",
      "type": "function"
    },
    {
      "inputs": [],
      "name": "userTotalRewards_msgSender",
      "outputs": [
        {
          "internalType": "uint256",
          "name": "",
          "type": "uint256"
        }
      ],
      "stateMutability": "view",
      "type": "function"
    },
    {
      "inputs": [
        {
          "internalType": "uint256",
          "name": "amount",
          "type": "uint256"
        }
      ],
      "name": "withdraw",
      "outputs": [
        {
          "internalType": "uint256",
          "name": "",
          "type": "uint256"
        }
      ],
      "stateMutability": "nonpayable",
      "type": "function"
    },
    {
      "inputs": [],
      "name": "withdrawAll",
      "outputs": [
        {
          "internalType": "uint256",
          "name": "",
          "type": "uint256"
        }
      ],
      "stateMutability": "nonpayable",
      "type": "function"
    }
  ],
  "bytecode": "0x6101a0604052600060a090815262093a8060c0526212750060e05262278d0061010052624f1a00610120526276a7006101405262ed4e00610160526301e13380610180526200005390600690600862000262565b50604080516101008101825260008152620f424060208201819052918101829052606081018290526080810182905260a0810182905260c0810182905260e0810191909152620000a890600790600862000262565b50348015620000b657600080fd5b5060405162003b8138038062003b81833981016040819052620000d9916200032f565b600180556001600160a01b038116620001385760405162461bcd60e51b815260206004820152601960248201527f7374616b696e67546f6b656e2e61646472657373203d3d203000000000000000604482015260640160405180910390fd5b6001600160a01b038116608052600a805460ff191690556200015f620f4240600162000377565b63ffffffff16600b556305265c0060095562000180426301e28500620003a6565b6008805465ffffffffffff191665ffffffffffff92909216919091179055620001ab600033620001b2565b50620003c1565b620001be8282620001c2565b5050565b6000828152602081815260408083206001600160a01b038516845290915290205460ff16620001be576000828152602081815260408083206001600160a01b03851684529091529020805460ff191660011790556200021e3390565b6001600160a01b0316816001600160a01b0316837f2f8788117e7eff1d82e926ec794901d17c78024a50270940304540a733656f0d60405160405180910390a45050565b82805482825590600052602060002090600701600890048101928215620003065791602002820160005b83821115620002d257835183826101000a81548163ffffffff021916908363ffffffff16021790555092602001926004016020816003010492830192600103026200028c565b8015620003045782816101000a81549063ffffffff0219169055600401602081600301049283019260010302620002d2565b505b506200031492915062000318565b5090565b5b8082111562000314576000815560010162000319565b6000602082840312156200034257600080fd5b81516001600160a01b03811681146200035a57600080fd5b9392505050565b634e487b7160e01b600052601160045260246000fd5b600063ffffffff808316818516818304811182151516156200039d576200039d62000361565b02949350505050565b60008219821115620003bc57620003bc62000361565b500190565b608051613781620004006000396000818161072a01528181611300015281816113a901528181611c770152818161237e01526125f901526137816000f3fe608060405234801561001057600080fd5b50600436106103c45760003560e01c80637ec39cb3116101ff578063aaa748d31161011a578063e438a202116100ad578063f6a3f3cf1161007c578063f6a3f3cf14610973578063f7c618c114610986578063fb241eff14610999578063fd407bed146109ac57600080fd5b8063e438a20214610927578063ee2d505e1461093a578063ee6f0ace1461094d578063f3b95cd71461096057600080fd5b8063d547741f116100e9578063d547741f146108c1578063dbed1e88146108d4578063de3717fc1461090c578063dfdf35c41461091457600080fd5b8063aaa748d314610887578063b7862caf146108a4578063bf135267146106ec578063c37ab457146108b957600080fd5b806391d1485411610192578063a217fddf11610161578063a217fddf14610851578063a38a57c414610859578063a694fc3a1461086b578063a83f732b1461087e57600080fd5b806391d14854146107f757806393ce53431461082e5780639a7cc1b8146108365780639df333071461083e57600080fd5b8063872b26da116101ce578063872b26da146107bf57806387f075d9146107c85780638aee8127146107d15780638efb31c7146107e457600080fd5b80637ec39cb3146107925780637fa926001461079a578063853828b6146107ad5780638586bc6d146107b557600080fd5b806343edbfe2116102ef5780636bb64e231161028257806372f702f31161025157806372f702f31461072557806378b68b88146107645780637a941b38146107775780637df3b0fe1461077f57600080fd5b80636bb64e23146106975780636be1f472146106bc5780636bf989a4146106d957806370a08231146106ec57600080fd5b80634e71d92d116102be5780634e71d92d1461066157806350017f3e146106695780635951eff11461067c5780635bd4b5df1461068f57600080fd5b806343edbfe21461061b5780634654a6741461062e578063469e2fd914610641578063498652f41461064e57600080fd5b80632527366c116103675780632e1a7d4d116103365780632e1a7d4d146105be5780632f2ff15d146105d157806336568abe146105e45780633cb2efc9146105f757600080fd5b80632527366c146104d457806326949984146104e9578063282c51f3146104f65780632bcc23f81461051d57600080fd5b806307dc1e1a116103a357806307dc1e1a1461042557806309ef67e61461043d5780632170e47214610469578063248a9ca3146104b157600080fd5b806201c07c146103c957806301ffc9a7146103ef5780630584bd0914610412575b600080fd5b6103dc6103d7366004613035565b6109bf565b6040519081526020015b60405180910390f35b6104026103fd366004613061565b610a3a565b60405190151581526020016103e6565b6103dc6104203660046130a2565b610a71565b336000908152600260205260409020600101546103dc565b6103dc61044b3660046130a2565b6001600160a01b031660009081526002602052604090206001015490565b61049a6104773660046130a2565b6001600160a01b031660009081526002602052604090205465ffffffffffff1690565b60405165ffffffffffff90911681526020016103e6565b6103dc6104bf3660046130bd565b60009081526020819052604090206001015490565b6104e76104e23660046130a2565b610a7e565b005b61049a65ffffffffffff81565b6103dc7f3c11d16cbaffd01df69ce1c404f6340ee057498f5f00246190ea54220576a84881565b61057961052b3660046130a2565b6002602052600090815260409020805460019091015465ffffffffffff80831692600160301b810490911691600160601b820463ffffffff1691600160801b90046001600160801b03169085565b6040805165ffffffffffff968716815295909416602086015263ffffffff909216928401929092526001600160801b039091166060830152608082015260a0016103e6565b6103dc6105cc3660046130bd565b610ae1565b6104e76105df3660046130d6565b610b4d565b6104e76105f23660046130d6565b610b77565b33600090815260026020526040902054600160301b900465ffffffffffff1661049a565b6104e7610629366004613107565b610c08565b61049a61063c366004613124565b610c5c565b600a546104029060ff1681565b6103dc61065c3660046130a2565b610e6a565b6103dc61118a565b6103dc6106773660046130bd565b6111f4565b6104e761068a3660046130a2565b61139c565b6103dc6114ee565b33600090815260026020526040902054600160801b90046001600160801b03166103dc565b6106c46114fb565b60405163ffffffff90911681526020016103e6565b6103dc6106e736600461313f565b61153c565b6103dc6106fa3660046130a2565b6001600160a01b0316600090815260026020526040902054600160801b90046001600160801b031690565b61074c7f000000000000000000000000000000000000000000000000000000000000000081565b6040516001600160a01b0390911681526020016103e6565b6104e76107723660046131c2565b6115af565b6103dc611746565b6104e761078d36600461322e565b611751565b61049a6117a8565b6103dc6107a8366004613254565b6117b3565b6103dc611a14565b6106c4620f424081565b6103dc60035481565b6103dc60095481565b6104e76107df3660046130a2565b611a9c565b6104e76107f23660046130bd565b611b9e565b6104026108053660046130d6565b6000918252602082815260408084206001600160a01b0393909316845291905290205460ff1690565b6103dc611bde565b6103dc611cae565b6106c461084c3660046130bd565b611cb9565b6103dc600081565b60085461049a9065ffffffffffff1681565b6103dc6108793660046130bd565b611cf3565b6103dc600b5481565b3360009081526002602052604090205465ffffffffffff1661049a565b6108ac611d6c565b6040516103e691906132c7565b6108ac611df0565b6104e76108cf3660046130d6565b611e4d565b61049a6108e23660046130a2565b6001600160a01b0316600090815260026020526040902054600160301b900465ffffffffffff1690565b6103dc611e72565b6104e7610922366004613311565b611e7d565b6104e76109353660046130bd565b611f2f565b6103dc6109483660046130a2565b611f6f565b61049a61095b3660046130a2565b611fb2565b6104e761096e366004613339565b612004565b6103dc6109813660046130a2565b6120b7565b60045461074c906001600160a01b031681565b6106c46109a73660046130bd565b6120e7565b60055461074c906001600160a01b031681565b6000600260015403610a185760405162461bcd60e51b815260206004820152601f60248201527f5265656e7472616e637947756172643a207265656e7472616e742063616c6c0060448201526064015b60405180910390fd5b6002600155610a2783836120f7565b6001805565ffffffffffff169392505050565b60006001600160e01b03198216637965db0b60e01b1480610a6b57506301ffc9a760e01b6001600160e01b03198316145b92915050565b6000610a6b82600061153c565b6000610a898161241b565b6005805473ffffffffffffffffffffffffffffffffffffffff19166001600160a01b0384169081179091556040517f1230e6fc3b093ea820f8476a6a5f82ef1cec4200bd6874799c5c617d7ee0a0c590600090a25050565b6000600260015403610b355760405162461bcd60e51b815260206004820152601f60248201527f5265656e7472616e637947756172643a207265656e7472616e742063616c6c006044820152606401610a0f565b6002600155610b4382612428565b6001805592915050565b600082815260208190526040902060010154610b688161241b565b610b728383612672565b505050565b6001600160a01b0381163314610bf55760405162461bcd60e51b815260206004820152602f60248201527f416363657373436f6e74726f6c3a2063616e206f6e6c792072656e6f756e636560448201527f20726f6c657320666f722073656c6600000000000000000000000000000000006064820152608401610a0f565b610bff8282612710565b5050565b905090565b6000610c138161241b565b600a805460ff19168315159081179091556040519081527f5ea7772ee2a4a592a1cf6dc4f2bdf23971fb691c362eca0e3000782202d9d22a906020015b60405180910390a15050565b600a5460009060ff16610cb15760405162461bcd60e51b815260206004820152601960248201527f6c6f636b656452657761726473206e6f7420656e61626c6564000000000000006044820152606401610a0f565b3360009081526002602052604090208054600160301b900465ffffffffffff164210610d1f5760405162461bcd60e51b815260206004820152601460248201527f6e6f7420696e2061206c6f636b20706572696f640000000000000000000000006044820152606401610a0f565b6000610d6b60068560ff1681548110610d3a57610d3a613363565b60009182526020909120600882040154610d66916007166004026101000a900463ffffffff164261338f565b61278f565b825490915065ffffffffffff600160301b909104811690821611610dd15760405162461bcd60e51b815260206004820181905260248201527f6e657720756e6c6f636b54696d65206e6f742061667465722063757272656e746044820152606401610a0f565b81546bffffffffffff0000000000001916600160301b65ffffffffffff831602178255337ff91d00374bfd2ed6aeb3d4124d3e1bd55ed92805d94fdb25b41c0f89a1587da46000610e214261278f565b85546040805193845265ffffffffffff9283166020850152600160301b9091049091169082015260600160405180910390a25054600160301b900465ffffffffffff1692915050565b6005546040516370a0823160e01b81526001600160a01b03838116600483015260009283929116906370a0823190602401602060405180830381865afa158015610eb8573d6000803e3d6000fd5b505050506040513d601f19601f82011682018060405250810190610edc91906133a7565b90508015610f2c5760405162461bcd60e51b815260206004820152601360248201527f7374696c6c20746f6b656e73207374616b6564000000000000000000000000006044820152606401610a0f565b6005546040516304f7b3f360e11b81526001600160a01b03858116600483015260009216906309ef67e690602401602060405180830381865afa158015610f77573d6000803e3d6000fd5b505050506040513d601f19601f82011682018060405250810190610f9b91906133a7565b905060008111610fed5760405162461bcd60e51b815260206004820152601660248201527f6e6f20616363756d756c617465642072657761726473000000000000000000006044820152606401610a0f565b60055460405163f3b95cd760e01b81526001600160a01b038681166004830152602482018490529091169063f3b95cd790604401600060405180830381600087803b15801561103b57600080fd5b505af115801561104f573d6000803e3d6000fd5b50506005546040516304f7b3f360e11b81526001600160a01b0388811660048301526000945090911691506309ef67e690602401602060405180830381865afa1580156110a0573d6000803e3d6000fd5b505050506040513d601f19601f820116820180604052508101906110c491906133a7565b905080156111145760405162461bcd60e51b815260206004820152601360248201527f6275726e2072657761726473206661696c6564000000000000000000000000006044820152606401610a0f565b6001600160a01b0385166000908152600260205260408120600101805484929061113f90849061338f565b90915550506040518281526001600160a01b038616907fac140162a56e01aec90ea4ff6eea27f60ca53066fd39d57664700f1a8589de9a9060200160405180910390a2509392505050565b60006002600154036111de5760405162461bcd60e51b815260206004820152601f60248201527f5265656e7472616e637947756172643a207265656e7472616e742063616c6c006044820152606401610a0f565b60026001556111eb6127eb565b90506001805590565b60008082116112455760405162461bcd60e51b815260206004820152601860248201527f7374616b6520616d6f756e74206d757374206265203e203000000000000000006044820152606401610a0f565b3360008181526002602052604090209061126090600161153c565b816001016000828254611273919061338f565b9091555061128290504261278f565b815465ffffffffffff191665ffffffffffff91909116178082556112c0906112bb908590600160801b90046001600160801b031661338f565b612994565b81546001600160801b03918216600160801b029116178155600380548491906000906112ed90849061338f565b9091555061132890506001600160a01b037f0000000000000000000000000000000000000000000000000000000000000000163330866129ed565b337ff91d00374bfd2ed6aeb3d4124d3e1bd55ed92805d94fdb25b41c0f89a1587da4846113544261278f565b84546040805193845265ffffffffffff9283166020850152600160301b9091049091169082015260600160405180910390a254600160301b900465ffffffffffff1692915050565b60006113a78161241b565b7f00000000000000000000000000000000000000000000000000000000000000006001600160a01b0316826001600160a01b0316036114285760405162461bcd60e51b815260206004820152601e60248201527f63616e206e6f74207769746864726177207374616b696e6720746f6b656e00006044820152606401610a0f565b6040516370a0823160e01b81523060048201526000906001600160a01b038416906370a0823190602401602060405180830381865afa15801561146f573d6000803e3d6000fd5b505050506040513d601f19601f8201168201806040525081019061149391906133a7565b90506114a96001600160a01b0384163383612a73565b60405181815233906001600160a01b038516907f4c9443772ec3472e2ea8a88e5c31e6bb75e94541dc672d5ca2a1197ada10b5989060200160405180910390a3505050565b6000610c0333600061153c565b6000600660018154811061151157611511613363565b90600052602060002090600891828204019190066004029054906101000a900463ffffffff16905090565b6001600160a01b03821660009081526002602052604081208054600854600a546115a7926001600160801b03600160801b8204169265ffffffffffff80831693600160301b840482169342939092169160ff909116908a9063ffffffff600160601b909104166117b3565b949350505050565b60006115ba8161241b565b6000829003611698576115cf60076000612f3d565b600780546001808201835560008390527fa66cc928b5edb82af9bd49922954155ab7b0942694bea4ce44661d9a8736c68860088304018054929093166004026101000a63ffffffff02199091169091555b84811015611692576007805460018101825560008290527fa66cc928b5edb82af9bd49922954155ab7b0942694bea4ce44661d9a8736c6886008820401805463ffffffff929093166004026101000a91820219909216620f42409091021790558061168a816133c0565b915050611620565b506116a6565b6116a460078484612f62565b505b60075484146116f75760405162461bcd60e51b815260206004820152601d60248201527f617272617973206861766520646966666572656e74206c656e677468730000006044820152606401610a0f565b61170360068686612f62565b507f7b07daa375e1e0a16182e82885d4813b24d9af8d09ebcc1c372f4973457d990d60066007604051611737929190613561565b60405180910390a15050505050565b6000610c0333610e6a565b600061175c8161241b565b81600660018154811061177157611771613363565b90600052602060002090600891828204019190066004026101000a81548163ffffffff021916908363ffffffff1602179055505050565b6000610c0333611fb2565b6000886000036117c557506000611a08565b8588111561183b5760405162461bcd60e51b815260206004820152603360248201527f494e5445524e414c204552524f52203a2063757272656e7420626c6f636b746960448201527f6d65206265666f7265207374616b6574696d65000000000000000000000000006064820152608401610a0f565b868811156118b15760405162461bcd60e51b815260206004820152602c60248201527f494e5445524e414c204552524f52203a20756e6c6f636b54696d65206265666f60448201527f7265207374616b6574696d6500000000000000000000000000000000000000006064820152608401610a0f565b8785116118c057506000611a08565b600080600086156119c257898911611926576118dc8a89612aa3565b925085156118f1576118ee838a612aa3565b92505b620f4240858d6119018e8761358f565b61190b91906135a6565b61191591906135a6565b61191f91906135c5565b9050611a03565b89881161193d57620f4240858d6119018e8c61358f565b620f4240858d61194d8e8e61358f565b61195791906135a6565b61196191906135a6565b61196b91906135c5565b9050898911156119bd57896119808a8a612aa3565b61198a919061358f565b600b54909250620f42409061199f8e856135a6565b6119a991906135a6565b6119b391906135c5565b61191f908261338f565b611a03565b8a6119cd8a8a612aa3565b6119d7919061358f565b600b54909250620f4240906119ec8e856135a6565b6119f691906135a6565b611a0091906135c5565b90505b925050505b98975050505050505050565b6000600260015403611a685760405162461bcd60e51b815260206004820152601f60248201527f5265656e7472616e637947756172643a207265656e7472616e742063616c6c006044820152606401610a0f565b60026001556111eb611a97336000908152600260205260409020546001600160801b03600160801b9091041690565b612428565b600260015403611aee5760405162461bcd60e51b815260206004820152601f60248201527f5265656e7472616e637947756172643a207265656e7472616e742063616c6c006044820152606401610a0f565b60026001556000611afe8161241b565b6004546001600160a01b03166000611b14611bde565b90508015611b3057611b306001600160a01b0383163383612a73565b6004805473ffffffffffffffffffffffffffffffffffffffff19166001600160a01b0386811691821790925560405183815290918416907fc133375757269458a329c73a344c8ef483535870f46ed4cd332f857a5ef525d09060200160405180910390a35050600180555050565b6000611ba98161241b565b60098290556040518281527f929e0b2903ee7e8bb87bf220a340db1f5551e7042e5f2567ed08117c0709fa2190602001610c50565b6004546000906001600160a01b0316611bf75750600090565b600480546040516370a0823160e01b815230928101929092526001600160a01b0316906370a0823190602401602060405180830381865afa158015611c40573d6000803e3d6000fd5b505050506040513d601f19601f82011682018060405250810190611c6491906133a7565b6004549091506001600160a01b039081167f000000000000000000000000000000000000000000000000000000000000000090911603611cab57600354610c03908261358f565b90565b6000610c0333611f6f565b60068181548110611cc957600080fd5b9060005260206000209060089182820401919006600402915054906101000a900463ffffffff1681565b6000600260015403611d475760405162461bcd60e51b815260206004820152601f60248201527f5265656e7472616e637947756172643a207265656e7472616e742063616c6c006044820152606401610a0f565b6002600181905550611d5a8260016120f7565b6001805565ffffffffffff1692915050565b60606006805480602002602001604051908101604052809291908181526020018280548015611de657602002820191906000526020600020906000905b82829054906101000a900463ffffffff1663ffffffff1681526020019060040190602082600301049283019260010382029150808411611da95790505b5050505050905090565b60606007805480602002602001604051908101604052809291908181526020018280548015611de6576000918252602091829020805463ffffffff168452908202830192909160049101808411611da95790505050505050905090565b600082815260208190526040902060010154611e688161241b565b610b728383612710565b6000610c03336120b7565b6000611e888161241b565b6008544265ffffffffffff90911611611ee35760405162461bcd60e51b815260206004820152601c60248201527f74696d652068617320746f20626520696e2074686520667574757265000000006044820152606401610a0f565b6008805465ffffffffffff191665ffffffffffff84169081179091556040519081527fb8ec1a7db76539d0a932b67153298ec5ba41b1f965bd5f66e9419431d517291a90602001610c50565b6000611f3a8161241b565b600b8290556040518281527fdc7863b3e64ba9c89e2523ca3756ae83d9fce0a7a2690ead101a549842bb6f6690602001610c50565b6004546000906001600160a01b03161580611f8a5750600954155b15611f9757506000919050565b600954611fa3836120b7565b610a6b91906135c5565b919050565b6001600160a01b038116600090815260026020526040812054600160301b900465ffffffffffff16428111611fea5750600092915050565b611ff34261278f565b611ffd90826135e7565b9392505050565b7f3c11d16cbaffd01df69ce1c404f6340ee057498f5f00246190ea54220576a84861202e8161241b565b600061203984612ab9565b90508060010154831015612066578281600101600082825461205b919061358f565b9091555061206e9050565b600060018201555b836001600160a01b03167f33e88885e6abd26d1f3ea3b4b37c2f6e0ff31fa24c7721763eca867537bdf5d2846040516120a991815260200190565b60405180910390a250505050565b6001600160a01b0381166000908152600260205260408120600101546120dd838361153c565b610a6b919061338f565b60078181548110611cc957600080fd5b600082158015612108575060ff8216155b156121555760405162461bcd60e51b815260206004820152601c60248201527f616d6f756e743d3020616e64206c6f636b54696d65496e6465783d30000000006044820152606401610a0f565b3360008181526002602052604090209061217090600161153c565b816001016000828254612183919061338f565b9091555061219290504261278f565b815465ffffffffffff191665ffffffffffff9190911617815560ff8316156122b85760006121cf60068560ff1681548110610d3a57610d3a613363565b825490915065ffffffffffff600160301b909104811690821610156122365760405162461bcd60e51b815260206004820181905260248201527f6e657720756e6c6f636b54696d65206e6f742061667465722063757272656e746044820152606401610a0f565b81546bffffffffffff0000000000001916600160301b65ffffffffffff8316021782556007805460ff861690811061227057612270613363565b6000918252602090912060088204015483546fffffffff000000000000000000000000191660079092166004026101000a900463ffffffff16600160601b0217825550612317565b8054600160301b900465ffffffffffff1642106123175760405162461bcd60e51b815260206004820152601460248201527f6e6f7420696e2061206c6f636b20706572696f640000000000000000000000006044820152606401610a0f565b83156123a657805461233e906112bb908690600160801b90046001600160801b031661338f565b81546001600160801b03918216600160801b0291161781556003805485919060009061236b90849061338f565b909155506123a690506001600160a01b037f0000000000000000000000000000000000000000000000000000000000000000163330876129ed565b337ff91d00374bfd2ed6aeb3d4124d3e1bd55ed92805d94fdb25b41c0f89a1587da4856123d24261278f565b84546040805193845265ffffffffffff9283166020850152600160301b9091049091169082015260600160405180910390a254600160301b900465ffffffffffff169392505050565b6124258133612b1d565b50565b60008082116124795760405162461bcd60e51b815260206004820152601260248201527f7374616b656420616d6f756e74206973203000000000000000000000000000006044820152606401610a0f565b33600090815260026020526040902054600160301b900465ffffffffffff1642116124e65760405162461bcd60e51b815260206004820152601e60248201527f7374616b656420746f6b656e7320617265207374696c6c206c6f636b656400006044820152606401610a0f565b60006124f133612ab9565b8054909150600160801b90046001600160801b03168311156125555760405162461bcd60e51b815260206004820152601f60248201527f776974686472617720616d6f756e74203e207374616b656420616d6f756e74006044820152606401610a0f565b61255e83612994565b81548290601090612580908490600160801b90046001600160801b031661360e565b92506101000a8154816001600160801b0302191690836001600160801b0316021790555082600360008282546125b6919061358f565b909155506125c590504261278f565b815465ffffffffffff91909116600160301b026bffffffffffff000000000000199091161781556126206001600160a01b037f0000000000000000000000000000000000000000000000000000000000000000163385612a73565b337ffd99f7d058b783b9cda415a554d303a99f3df90ccac1f4f3d854b2009e4e093c8461264c4261278f565b6040805192835265ffffffffffff90911660208301520160405180910390a25090919050565b6000828152602081815260408083206001600160a01b038516845290915290205460ff16610bff576000828152602081815260408083206001600160a01b03851684529091529020805460ff191660011790556126cc3390565b6001600160a01b0316816001600160a01b0316837f2f8788117e7eff1d82e926ec794901d17c78024a50270940304540a733656f0d60405160405180910390a45050565b6000828152602081815260408083206001600160a01b038516845290915290205460ff1615610bff576000828152602081815260408083206001600160a01b0385168085529252808320805460ff1916905551339285917ff6391f5c32d9c69d2a47ea670b442974b53935d1edc7fd64eb21e047a839171b9190a45050565b600065ffffffffffff8211156127e75760405162461bcd60e51b815260206004820152601d60248201527f76616c756520646f6573206e6f742066697420696e20343820626974730000006044820152606401610a0f565b5090565b6004546000906001600160a01b03166128465760405162461bcd60e51b815260206004820152601860248201527f6e6f2072657761726420746f6b656e20636f6e747261637400000000000000006044820152606401610a0f565b600061285133611f6f565b9050600081116128a35760405162461bcd60e51b815260206004820152601260248201527f6e6f20746f6b656e7320746f20636c61696d00000000000000000000000000006044820152606401610a0f565b33600090815260026020526040812060018101919091556128c34261278f565b815465ffffffffffff191665ffffffffffff919091161781556128e4611bde565b8211156129335760405162461bcd60e51b815260206004820152601860248201527f6e6f7420656e6f7567682072657761726420746f6b656e7300000000000000006044820152606401610a0f565b60045461294a906001600160a01b03163384612a73565b6004546040518381526001600160a01b039091169033907ff7a40077ff7a04c7e61f6f26fb13774259ddf1b6bce9ecf26a8276cdd39926839060200160405180910390a350919050565b60006001600160801b038211156127e75760405162461bcd60e51b815260206004820152601e60248201527f76616c756520646f6573206e6f742066697420696e20313238206269747300006044820152606401610a0f565b6040516001600160a01b0380851660248301528316604482015260648101829052612a6d9085906323b872dd60e01b906084015b60408051601f198184030181529190526020810180517bffffffffffffffffffffffffffffffffffffffffffffffffffffffff166001600160e01b031990931692909217909152612b9b565b50505050565b6040516001600160a01b038316602482015260448101829052610b7290849063a9059cbb60e01b90606401612a21565b6000818310612ab25781611ffd565b5090919050565b6001600160a01b038116600090815260026020526040812090612add90839061153c565b816001016000828254612af0919061338f565b90915550612aff90504261278f565b815465ffffffffffff191665ffffffffffff91909116178155919050565b6000828152602081815260408083206001600160a01b038516845290915290205460ff16610bff57612b59816001600160a01b03166014612c80565b612b64836020612c80565b604051602001612b7592919061365a565b60408051601f198184030181529082905262461bcd60e51b8252610a0f916004016136db565b6000612bf0826040518060400160405280602081526020017f5361666545524332303a206c6f772d6c6576656c2063616c6c206661696c6564815250856001600160a01b0316612e299092919063ffffffff16565b805190915015610b725780806020019051810190612c0e919061370e565b610b725760405162461bcd60e51b815260206004820152602a60248201527f5361666545524332303a204552433230206f7065726174696f6e20646964206e60448201527f6f742073756363656564000000000000000000000000000000000000000000006064820152608401610a0f565b60606000612c8f8360026135a6565b612c9a90600261338f565b67ffffffffffffffff811115612cb257612cb261372b565b6040519080825280601f01601f191660200182016040528015612cdc576020820181803683370190505b509050600360fc1b81600081518110612cf757612cf7613363565b60200101906001600160f81b031916908160001a905350600f60fb1b81600181518110612d2657612d26613363565b60200101906001600160f81b031916908160001a9053506000612d4a8460026135a6565b612d5590600161338f565b90505b6001811115612dda577f303132333435363738396162636465660000000000000000000000000000000085600f1660108110612d9657612d96613363565b1a60f81b828281518110612dac57612dac613363565b60200101906001600160f81b031916908160001a90535060049490941c93612dd381613741565b9050612d58565b508315611ffd5760405162461bcd60e51b815260206004820181905260248201527f537472696e67733a20686578206c656e67746820696e73756666696369656e746044820152606401610a0f565b60606115a78484600085856001600160a01b0385163b612e8b5760405162461bcd60e51b815260206004820152601d60248201527f416464726573733a2063616c6c20746f206e6f6e2d636f6e74726163740000006044820152606401610a0f565b600080866001600160a01b03168587604051612ea79190613758565b60006040518083038185875af1925050503d8060008114612ee4576040519150601f19603f3d011682016040523d82523d6000602084013e612ee9565b606091505b5091509150612ef9828286612f04565b979650505050505050565b60608315612f13575081611ffd565b825115612f235782518084602001fd5b8160405162461bcd60e51b8152600401610a0f91906136db565b508054600082556007016008900490600052602060002090810190612425919061300f565b828054828255906000526020600020906007016008900481019282156130075791602002820160005b83821115612fd557833563ffffffff1683826101000a81548163ffffffff021916908363ffffffff1602179055509260200192600401602081600301049283019260010302612f8b565b80156130055782816101000a81549063ffffffff0219169055600401602081600301049283019260010302612fd5565b505b506127e79291505b5b808211156127e75760008155600101613010565b803560ff81168114611fad57600080fd5b6000806040838503121561304857600080fd5b8235915061305860208401613024565b90509250929050565b60006020828403121561307357600080fd5b81356001600160e01b031981168114611ffd57600080fd5b80356001600160a01b0381168114611fad57600080fd5b6000602082840312156130b457600080fd5b611ffd8261308b565b6000602082840312156130cf57600080fd5b5035919050565b600080604083850312156130e957600080fd5b823591506130586020840161308b565b801515811461242557600080fd5b60006020828403121561311957600080fd5b8135611ffd816130f9565b60006020828403121561313657600080fd5b611ffd82613024565b6000806040838503121561315257600080fd5b61315b8361308b565b9150602083013561316b816130f9565b809150509250929050565b60008083601f84011261318857600080fd5b50813567ffffffffffffffff8111156131a057600080fd5b6020830191508360208260051b85010111156131bb57600080fd5b9250929050565b600080600080604085870312156131d857600080fd5b843567ffffffffffffffff808211156131f057600080fd5b6131fc88838901613176565b9096509450602087013591508082111561321557600080fd5b5061322287828801613176565b95989497509550505050565b60006020828403121561324057600080fd5b813563ffffffff81168114611ffd57600080fd5b600080600080600080600080610100898b03121561327157600080fd5b883597506020890135965060408901359550606089013594506080890135935060a089013561329f816130f9565b925060c08901356132af816130f9565b8092505060e089013590509295985092959890939650565b6020808252825182820181905260009190848201906040850190845b8181101561330557835163ffffffff16835292840192918401916001016132e3565b50909695505050505050565b60006020828403121561332357600080fd5b813565ffffffffffff81168114611ffd57600080fd5b6000806040838503121561334c57600080fd5b6133558361308b565b946020939093013593505050565b634e487b7160e01b600052603260045260246000fd5b634e487b7160e01b600052601160045260246000fd5b600082198211156133a2576133a2613379565b500190565b6000602082840312156133b957600080fd5b5051919050565b6000600182016133d2576133d2613379565b5060010190565b805480835260008281526020808220940193909190825b8260078201101561346857815463ffffffff8082168852602082811c821690890152604082811c821690890152606082811c821690890152608082811c82169089015260a082811c82169089015260c082811c9091169088015260e090811c90870152610100909501946001909101906008016133f0565b905490828110156134865763ffffffff821686526020909501946001015b828110156134a657602082901c63ffffffff168652602095909501946001015b828110156134c55763ffffffff604083901c1686526020909501946001015b828110156134e45763ffffffff606083901c1686526020909501946001015b828110156135035763ffffffff608083901c1686526020909501946001015b828110156135225763ffffffff60a083901c1686526020909501946001015b828110156135415763ffffffff60c083901c1686526020909501946001015b828110156135575760e082901c86526020860195505b5093949350505050565b60408152600061357460408301856133d9565b828103602084015261358681856133d9565b95945050505050565b6000828210156135a1576135a1613379565b500390565b60008160001904831182151516156135c0576135c0613379565b500290565b6000826135e257634e487b7160e01b600052601260045260246000fd5b500490565b600065ffffffffffff8381169083168181101561360657613606613379565b039392505050565b60006001600160801b038381169083168181101561360657613606613379565b60005b83811015613649578181015183820152602001613631565b83811115612a6d5750506000910152565b7f416363657373436f6e74726f6c3a206163636f756e742000000000000000000081526000835161369281601785016020880161362e565b7f206973206d697373696e6720726f6c652000000000000000000000000000000060179184019182015283516136cf81602884016020880161362e565b01602801949350505050565b60208152600082518060208401526136fa81604085016020870161362e565b601f01601f19169190910160400192915050565b60006020828403121561372057600080fd5b8151611ffd816130f9565b634e487b7160e01b600052604160045260246000fd5b60008161375057613750613379565b506000190190565b6000825161376a81846020870161362e565b919091019291505056fea164736f6c634300080f000a",
  "linkReferences": {},
  "deployedLinkReferences": {}
}